{"abi":[{"inputs":[{"internalType":"address","name":"vault_","type":"address"},{"internalType":"address","name":"strategist_","type":"address"},{"internalType":"uint256","name":"convexPid_","type":"uint256"},{"internalType":"address","name":"curvePool_","type":"address"},{"internalType":"uint256","name":"curveIndex_","type":"uint256"},{"internalType":"contract IAddressProvider","name":"addressProvider_","type":"address"}],"stateMutability":"nonpayable","type":"constructor","name":"constructor"},{"anonymous":false,"inputs":[{"indexed":false,"internalType":"address","name":"token","type":"address"}],"name":"AddRewardToken","type":"event"},{"anonymous":false,"inputs":[],"name":"Deposit","type":"event"},{"anonymous":false,"inputs":[{"indexed":false,"internalType":"uint256","name":"amount","type":"uint256"}],"name":"Harvest","type":"event"},{"anonymous":false,"inputs":[{"indexed":false,"internalType":"address","name":"token","type":"address"}],"name":"RemoveRewardToken","type":"event"},{"anonymous":false,"inputs":[{"indexed":false,"internalType":"address","name":"reserve","type":"address"}],"name":"SetCommunityReserve","type":"event"},{"anonymous":false,"inputs":[{"indexed":false,"internalType":"uint256","name":"value","type":"uint256"}],"name":"SetCrvCommunityReserveShare","type":"event"},{"anonymous":false,"inputs":[{"indexed":false,"internalType":"uint256","name":"value","type":"uint256"}],"name":"SetCvxCommunityReserveShare","type":"event"},{"anonymous":false,"inputs":[{"indexed":false,"internalType":"uint256","name":"value","type":"uint256"}],"name":"SetImbalanceToleranceIn","type":"event"},{"anonymous":false,"inputs":[{"indexed":false,"internalType":"uint256","name":"value","type":"uint256"}],"name":"SetImbalanceToleranceOut","type":"event"},{"anonymous":false,"inputs":[{"indexed":false,"internalType":"address","name":"strategist","type":"address"}],"name":"SetStrategist","type":"event"},{"anonymous":false,"inputs":[],"name":"Shutdown","type":"event"},{"anonymous":false,"inputs":[{"indexed":false,"internalType":"uint256","name":"amount","type":"uint256"}],"name":"Withdraw","type":"event"},{"anonymous":false,"inputs":[{"indexed":false,"internalType":"uint256","name":"amount","type":"uint256"}],"name":"WithdrawAll","type":"event"},{"inputs":[{"internalType":"address","name":"token_","type":"address"}],"name":"addRewardToken","outputs":[{"internalType":"bool","name":"","type":"bool"}],"stateMutability":"nonpayable","type":"function"},{"inputs":[],"name":"balance","outputs":[{"internalType":"uint256","name":"","type":"uint256"}],"stateMutability":"view","type":"function"},{"inputs":[],"name":"communityReserve","outputs":[{"internalType":"address","name":"","type":"address"}],"stateMutability":"view","type":"function"},{"inputs":[],"name":"convexPid","outputs":[{"internalType":"uint256","name":"","type":"uint256"}],"stateMutability":"view","type":"function"},{"inputs":[],"name":"crvCommunityReserveShare","outputs":[{"internalType":"uint256","name":"","type":"uint256"}],"stateMutability":"view","type":"function"},{"inputs":[],"name":"curveIndex","outputs":[{"internalType":"uint256","name":"","type":"uint256"}],"stateMutability":"view","type":"function"},{"inputs":[],"name":"curvePool","outputs":[{"internalType":"contract ICurveSwapEth","name":"","type":"address"}],"stateMutability":"view","type":"function"},{"inputs":[],"name":"cvxCommunityReserveShare","outputs":[{"internalType":"uint256","name":"","type":"uint256"}],"stateMutability":"view","type":"function"},{"inputs":[],"name":"deposit","outputs":[{"internalType":"bool","name":"","type":"bool"}],"stateMutability":"payable","type":"function"},{"inputs":[{"internalType":"uint256","name":"crvEarned","type":"uint256"}],"name":"getCvxMintAmount","outputs":[{"internalType":"uint256","name":"","type":"uint256"}],"stateMutability":"view","type":"function"},{"inputs":[],"name":"harvest","outputs":[{"internalType":"uint256","name":"","type":"uint256"}],"stateMutability":"nonpayable","type":"function"},{"inputs":[],"name":"harvestable","outputs":[{"internalType":"uint256","name":"","type":"uint256"}],"stateMutability":"view","type":"function"},{"inputs":[],"name":"hasPendingFunds","outputs":[{"internalType":"bool","name":"","type":"bool"}],"stateMutability":"pure","type":"function"},{"inputs":[],"name":"imbalanceToleranceIn","outputs":[{"internalType":"uint256","name":"","type":"uint256"}],"stateMutability":"view","type":"function"},{"inputs":[],"name":"imbalanceToleranceOut","outputs":[{"internalType":"uint256","name":"","type":"uint256"}],"stateMutability":"view","type":"function"},{"inputs":[],"name":"isShutdown","outputs":[{"internalType":"bool","name":"","type":"bool"}],"stateMutability":"view","type":"function"},{"inputs":[],"name":"lp","outputs":[{"internalType":"contract IERC20","name":"","type":"address"}],"stateMutability":"view","type":"function"},{"inputs":[],"name":"name","outputs":[{"internalType":"string","name":"","type":"string"}],"stateMutability":"pure","type":"function"},{"inputs":[{"internalType":"address","name":"token_","type":"address"}],"name":"removeRewardToken","outputs":[{"internalType":"bool","name":"","type":"bool"}],"stateMutability":"nonpayable","type":"function"},{"inputs":[],"name":"rewardTokens","outputs":[{"internalType":"address[]","name":"","type":"address[]"}],"stateMutability":"view","type":"function"},{"inputs":[],"name":"rewards","outputs":[{"internalType":"contract IRewardStaking","name":"","type":"address"}],"stateMutability":"view","type":"function"},{"inputs":[],"name":"roleManager","outputs":[{"internalType":"contract IRoleManager","name":"","type":"address"}],"stateMutability":"view","type":"function"},{"inputs":[{"internalType":"address","name":"_communityReserve","type":"address"}],"name":"setCommunityReserve","outputs":[],"stateMutability":"nonpayable","type":"function"},{"inputs":[{"internalType":"uint256","name":"crvCommunityReserveShare_","type":"uint256"}],"name":"setCrvCommunityReserveShare","outputs":[],"stateMutability":"nonpayable","type":"function"},{"inputs":[{"internalType":"uint256","name":"cvxCommunityReserveShare_","type":"uint256"}],"name":"setCvxCommunityReserveShare","outputs":[],"stateMutability":"nonpayable","type":"function"},{"inputs":[{"internalType":"uint256","name":"imbalanceToleranceIn_","type":"uint256"}],"name":"setImbalanceToleranceIn","outputs":[],"stateMutability":"nonpayable","type":"function"},{"inputs":[{"internalType":"uint256","name":"imbalanceToleranceOut_","type":"uint256"}],"name":"setImbalanceToleranceOut","outputs":[],"stateMutability":"nonpayable","type":"function"},{"inputs":[{"internalType":"address","name":"strategist_","type":"address"}],"name":"setStrategist","outputs":[],"stateMutability":"nonpayable","type":"function"},{"inputs":[],"name":"shutdown","outputs":[],"stateMutability":"nonpayable","type":"function"},{"inputs":[],"name":"strategist","outputs":[{"internalType":"address","name":"","type":"address"}],"stateMutability":"view","type":"function"},{"inputs":[],"name":"underlying","outputs":[{"internalType":"contract IERC20","name":"","type":"address"}],"stateMutability":"view","type":"function"},{"inputs":[],"name":"vault","outputs":[{"internalType":"address","name":"","type":"address"}],"stateMutability":"view","type":"function"},{"inputs":[{"internalType":"uint256","name":"amount_","type":"uint256"}],"name":"withdraw","outputs":[{"internalType":"bool","name":"","type":"bool"}],"stateMutability":"nonpayable","type":"function"},{"inputs":[],"name":"withdrawAll","outputs":[{"internalType":"uint256","name":"","type":"uint256"}],"stateMutability":"nonpayable","type":"function"},{"stateMutability":"payable","type":"receive"}],"bytecode":"60e06040523480156200001157600080fd5b5060405162003cf838038062003cf8833981016040819052620000349162000963565b85858585858562000059816001600160a01b03166200044260201b620019591760201c565b6001600160a01b03166080526200007083620004c5565b604051631526fe2760e01b8152600481018590526000908190819073f403c135812408bfbe8713b5a23a04b3d48aae3190631526fe279060240160c060405180830381865afa158015620000c8573d6000803e3d6000fd5b505050506040513d601f19601f82011682018060405250810190620000ee9190620009f5565b95505094505050925080156040518060400160405280601081526020016f2837b7b61034b99039b43aba3237bbb760811b815250906200014c5760405162461bcd60e51b815260040162000143919062000ab7565b60405180910390fd5b50600a80546001600160a01b038581166001600160a01b03199283161790925560098054858416908316179055600b8054928916929091168217905560405163c661065760e01b8152600481018790526000919063c661065790602401602060405180830381865afa158015620001c7573d6000803e3d6000fd5b505050506040513d601f19601f82011682018060405250810190620001ed919062000aec565b90506001600160a01b03811673eeeeeeeeeeeeeeeeeeeeeeeeeeeeeeeeeeeeeeee141562000219575060005b600380546001600160a01b03199081166001600160a01b03848116919091179092558b821660c052600080549091168b8316178155600c8a9055600d88905590861660a0819052620002779062000548602090811b620019d917901c565b9050620002a873d533a949740bb3306d119cc777fa900ba034cd528260001962000588602090811b62001a1817901c565b620002d7734e3fbd56cd56c3e72c1403e103b45db9da5b9d2b8260001962000588602090811b62001a1817901c565b6200030673c02aaa39b223fe8d0a0e5c4f27ead9083c756cc28260001962000588602090811b62001a1817901c565b505066027ca57357c00060075550506658d15e176280006008555050604051631526fe2760e01b8152600481018a90526000955085945073f403c135812408bfbe8713b5a23a04b3d48aae319350631526fe279250602401905060c060405180830381865afa1580156200037e573d6000803e3d6000fd5b505050506040513d601f19601f82011682018060405250810190620003a49190620009f5565b955050505050915080156040518060400160405280601081526020016f2837b7b61034b99039b43aba3237bbb760811b81525090620003f85760405162461bcd60e51b815260040162000143919062000ab7565b506200043473f403c135812408bfbe8713b5a23a04b3d48aae31600019846001600160a01b03166200058860201b62001a18179092919060201c565b505050505050505062000b62565b6040516321f8a72160e01b81526a3937b632a6b0b730b3b2b960a91b60048201526000906001600160a01b038316906321f8a721906024015b602060405180830381865afa15801562000499573d6000803e3d6000fd5b505050506040513d601f19601f82011682018060405250810190620004bf919062000aec565b92915050565b6040516355b30b1960e01b81526001600160a01b03821660048201527390e00ace148ca3b23ac1bc8c240c2a7dd9c2d7f5906355b30b1990602401602060405180830381865afa1580156200051e573d6000803e3d6000fd5b505050506040513d601f19601f8201168201806040525081019062000544919062000b0c565b5050565b6040516321f8a72160e01b81526c39bbb0b83832b92937baba32b960991b60048201526000906001600160a01b038316906321f8a721906024016200047b565b801580620006065750604051636eb1769f60e11b81523060048201526001600160a01b03838116602483015284169063dd62ed3e90604401602060405180830381865afa158015620005de573d6000803e3d6000fd5b505050506040513d601f19601f8201168201806040525081019062000604919062000b0c565b155b6200067a5760405162461bcd60e51b815260206004820152603660248201527f5361666545524332303a20617070726f76652066726f6d206e6f6e2d7a65726f60448201527f20746f206e6f6e2d7a65726f20616c6c6f77616e636500000000000000000000606482015260840162000143565b604080516001600160a01b038416602482015260448082018490528251808303909101815260649091019091526020810180516001600160e01b0390811663095ea7b360e01b17909152620006d2918591620006d716565b505050565b600062000733826040518060400160405280602081526020017f5361666545524332303a206c6f772d6c6576656c2063616c6c206661696c6564815250856001600160a01b0316620007b560201b62001b65179092919060201c565b805190915015620006d2578080602001905181019062000754919062000b26565b620006d25760405162461bcd60e51b815260206004820152602a60248201527f5361666545524332303a204552433230206f7065726174696f6e20646964206e6044820152691bdd081cdd58d8d9595960b21b606482015260840162000143565b6060620007c68484600085620007d0565b90505b9392505050565b606082471015620008335760405162461bcd60e51b815260206004820152602660248201527f416464726573733a20696e73756666696369656e742062616c616e636520666f6044820152651c8818d85b1b60d21b606482015260840162000143565b6001600160a01b0385163b6200088c5760405162461bcd60e51b815260206004820152601d60248201527f416464726573733a2063616c6c20746f206e6f6e2d636f6e7472616374000000604482015260640162000143565b600080866001600160a01b03168587604051620008aa919062000b44565b60006040518083038185875af1925050503d8060008114620008e9576040519150601f19603f3d011682016040523d82523d6000602084013e620008ee565b606091505b509092509050620009018282866200090c565b979650505050505050565b606083156200091d575081620007c9565b8251156200092e5782518084602001fd5b8160405162461bcd60e51b815260040162000143919062000ab7565b6001600160a01b03811681146200096057600080fd5b50565b60008060008060008060c087890312156200097d57600080fd5b86516200098a816200094a565b60208801519096506200099d816200094a565b604088015160608901519196509450620009b7816200094a565b608088015160a08901519194509250620009d1816200094a565b809150509295509295509295565b80518015158114620009f057600080fd5b919050565b60008060008060008060c0878903121562000a0f57600080fd5b865162000a1c816200094a565b602088015190965062000a2f816200094a565b604088015190955062000a42816200094a565b606088015190945062000a55816200094a565b608088015190935062000a68816200094a565b915062000a7860a08801620009df565b90509295509295509295565b60005b8381101562000aa157818101518382015260200162000a87565b8381111562000ab1576000848401525b50505050565b602081526000825180602084015262000ad881604085016020870162000a84565b601f01601f19169190910160400192915050565b60006020828403121562000aff57600080fd5b8151620007c9816200094a565b60006020828403121562000b1f57600080fd5b5051919050565b60006020828403121562000b3957600080fd5b620007c982620009df565b6000825162000b5881846020870162000a84565b9190910192915050565b60805160a05160c0516130fd62000bfb600039600081816105de015281816108aa01528181610b9301528181610ee4015281816112060152818161188401528181611bde01528181611df9015261236101526000611b9a0152600081816102170152818161063401528181610a3401528181610bdc01528181610cf901528181610fb001528181611586015261169c01526130fd6000f3fe6080604052600436106101fc5760003560e01c80637bdcdaff1161010d578063c2bddf31116100a0578063e9eb50881161006f578063e9eb50881461058c578063ecf8db0a146105ac578063fbfa77cf146105cc578063fc0e74d114610600578063ff0af85b1461061557600080fd5b8063c2bddf311461052f578063c7b9d5301461054f578063d0e30db01461056f578063dbbd47d41461057757600080fd5b80639ec5a894116100dc5780639ec5a894146104b7578063b69ef8a8146104d7578063bf86d690146104ec578063c2b18aa01461050d57600080fd5b80637bdcdaff14610460578063853828b61461047657806386993bef1461048b5780639b61a924146104a157600080fd5b80633778851e1161019057806356be5f711161015f57806356be5f71146103d657806361240eea146103ec578063621e8fe1146104005780636f307dc31461042057806370aa17261461044057600080fd5b80633778851e1461035f5780633d509c971461037f5780634641257d1461039f57806349cabcdf146103b457600080fd5b80631fe4a686116101cc5780631fe4a686146102e1578063218751b2146102ff5780632e1a7d4d1461031f578063313c06a01461033f57600080fd5b8062435da51461020857806306fdde03146102545780631a55820d1461028d5780631c03e6cc146102b157600080fd5b3661020357005b600080fd5b34801561021457600080fd5b507f00000000000000000000000000000000000000000000000000000000000000005b6040516001600160a01b0390911681526020015b60405180910390f35b34801561026057600080fd5b50604080518082018252600a81526909acae4de8ae8d086ecf60b31b6020820152905161024b9190612e4f565b34801561029957600080fd5b506102a360085481565b60405190815260200161024b565b3480156102bd57600080fd5b506102d16102cc366004612e9a565b610630565b604051901515815260200161024b565b3480156102ed57600080fd5b506000546001600160a01b0316610237565b34801561030b57600080fd5b50600b54610237906001600160a01b031681565b34801561032b57600080fd5b506102d161033a366004612eb7565b61087a565b34801561034b57600080fd5b50600a54610237906001600160a01b031681565b34801561036b57600080fd5b506102a361037a366004612eb7565b61093b565b34801561038b57600080fd5b506102d161039a366004612e9a565b610a30565b3480156103ab57600080fd5b506102a3610b63565b3480156103c057600080fd5b506103d46103cf366004612eb7565b610bda565b005b3480156103e257600080fd5b506102a360075481565b3480156103f857600080fd5b5060006102d1565b34801561040c57600080fd5b50600454610237906001600160a01b031681565b34801561042c57600080fd5b50600354610237906001600160a01b031681565b34801561044c57600080fd5b506103d461045b366004612eb7565b610cf7565b34801561046c57600080fd5b506102a3600d5481565b34801561048257600080fd5b506102a3610eb4565b34801561049757600080fd5b506102a3600c5481565b3480156104ad57600080fd5b506102a360065481565b3480156104c357600080fd5b50600954610237906001600160a01b031681565b3480156104e357600080fd5b506102a3610f74565b3480156104f857600080fd5b506003546102d190600160a01b900460ff1681565b34801561051957600080fd5b50610522610fa2565b60405161024b9190612ed0565b34801561053b57600080fd5b506103d461054a366004612e9a565b610fae565b34801561055b57600080fd5b506103d461056a366004612e9a565b611139565b6102d16111d6565b34801561058357600080fd5b506102a36112db565b34801561059857600080fd5b506103d46105a7366004612eb7565b611584565b3480156105b857600080fd5b506103d46105c7366004612eb7565b61169a565b3480156105d857600080fd5b506102377f000000000000000000000000000000000000000000000000000000000000000081565b34801561060c57600080fd5b506103d4611857565b34801561062157600080fd5b506102a360055481565b905090565b60007f0000000000000000000000000000000000000000000000000000000000000000604051632474521560e21b815269676f7665726e616e636560b01b60048201523360248201526001600160a01b0391909116906391d1485490604401602060405180830381865afa1580156106ac573d6000803e3d6000fd5b505050506040513d601f19601f820116820180604052508101906106d09190612f1d565b6040518060400160405280601381526020016000805160206130a88339815191528152509061071b5760405162461bcd60e51b81526004016107129190612e4f565b60405180910390fd5b506001600160a01b038216734e3fbd56cd56c3e72c1403e103b45db9da5b9d2b1480159061075757506003546001600160a01b03838116911614155b801561078057506001600160a01b03821673d533a949740bb3306d119cc777fa900ba034cd5214155b60405180604001604052806014815260200173125b9d985b1a59081d1bdad95b881d1bc818591960621b815250906107cb5760405162461bcd60e51b81526004016107129190612e4f565b506001600160a01b038216600090815260026020526040902054156107f257506000919050565b6107fd600183611b7e565b506000610808611b93565b905061081f6001600160a01b038416826000611a18565b6108356001600160a01b03841682600019611a18565b6040516001600160a01b03841681527f851bbb4304bf0768ed98b97e429b5bd1dcc1f194b36cd1650f40293e951ae3939060200160405180910390a150600192915050565b60408051808201909152601381526000805160206130a88339815191526020820152600090336001600160a01b037f000000000000000000000000000000000000000000000000000000000000000016146108e85760405162461bcd60e51b81526004016107129190612e4f565b50816108f657506000919050565b6108ff82611bc7565b6040518281527f5b6b431d4476a211bb7d41c20d1aab9ae2321deee0d20be3d9fc9b1093fa6e3d906020015b60405180910390a1506001919050565b600080734e3fbd56cd56c3e72c1403e103b45db9da5b9d2b6001600160a01b03166318160ddd6040518163ffffffff1660e01b8152600401602060405180830381865afa158015610990573d6000803e3d6000fd5b505050506040513d601f19601f820116820180604052508101906109b49190612f3f565b905060006109cc8269152d02c7e14af6800000611eaf565b90506103e881106109e1575060009392505050565b6103e8818103906000906109f58388612f6e565b6109ff9190612fa3565b90506000610a18856a52b7d2dcc80cd2e4000000612fc5565b905080821115610a26578091505b5095945050505050565b60007f0000000000000000000000000000000000000000000000000000000000000000604051632474521560e21b815269676f7665726e616e636560b01b60048201523360248201526001600160a01b0391909116906391d1485490604401602060405180830381865afa158015610aac573d6000803e3d6000fd5b505050506040513d601f19601f82011682018060405250810190610ad09190612f1d565b6040518060400160405280601381526020016000805160206130a883398151915281525090610b125760405162461bcd60e51b81526004016107129190612e4f565b50610b1e600183611ec8565b610b2a57506000919050565b6040516001600160a01b03831681527f36bd04094fa067bb9471a8fbdb0a6e8a43424a2566ad3a740c88973fa40a31189060200161092b565b60408051808201909152601381526000805160206130a88339815191526020820152600090336001600160a01b037f00000000000000000000000000000000000000000000000000000000000000001614610bd15760405162461bcd60e51b81526004016107129190612e4f565b5061062b611edd565b7f0000000000000000000000000000000000000000000000000000000000000000604051632474521560e21b815269676f7665726e616e636560b01b60048201523360248201526001600160a01b0391909116906391d1485490604401602060405180830381865afa158015610c54573d6000803e3d6000fd5b505050506040513d601f19601f82011682018060405250810190610c789190612f1d565b6040518060400160405280601381526020016000805160206130a883398151915281525090610cba5760405162461bcd60e51b81526004016107129190612e4f565b5060078190556040518181527f4ede3e4e9f7997fda6ff4a12d6c43d5c9e1e2055065cbc15f902f504f72dc8c0906020015b60405180910390a150565b7f0000000000000000000000000000000000000000000000000000000000000000604051632474521560e21b815269676f7665726e616e636560b01b60048201523360248201526001600160a01b0391909116906391d1485490604401602060405180830381865afa158015610d71573d6000803e3d6000fd5b505050506040513d601f19601f82011682018060405250810190610d959190612f1d565b6040518060400160405280601381526020016000805160206130a883398151915281525090610dd75760405162461bcd60e51b81526004016107129190612e4f565b5060408051808201909152600e81526d1a5b9d985b1a5908185b5bdd5b9d60921b6020820152670de0b6b3a7640000821115610e265760405162461bcd60e51b81526004016107129190612e4f565b506004546001600160a01b0316610e7f5760405162461bcd60e51b815260206004820152601d60248201527f436f6d6d756e6974792072657365727665206d757374206265207365740000006044820152606401610712565b60058190556040518181527f1a8542dffa4956932e66916113e6a123e123956172fbc0e2e59df92b8a87d8e690602001610cec565b60408051808201909152601381526000805160206130a88339815191526020820152600090336001600160a01b037f00000000000000000000000000000000000000000000000000000000000000001614610f225760405162461bcd60e51b81526004016107129190612e4f565b506000610f2d612221565b905080610f3c57600091505090565b6040518181527f3d5a341dc6a12221fcf31279cef3771f8fad757b2d9261f97605ccc17c2574249060200160405180910390a1919050565b6000610f98610f8161241a565b610f89612488565b610f939190612fdc565b6124b9565b61062b9047612fdc565b606061062b600161253c565b7f0000000000000000000000000000000000000000000000000000000000000000604051632474521560e21b815269676f7665726e616e636560b01b60048201523360248201526001600160a01b0391909116906391d1485490604401602060405180830381865afa158015611028573d6000803e3d6000fd5b505050506040513d601f19601f8201168201806040525081019061104c9190612f1d565b6040518060400160405280601381526020016000805160206130a88339815191528152509061108e5760405162461bcd60e51b81526004016107129190612e4f565b5060408051808201909152601881527f7a65726f2061646472657373206e6f7420616c6c6f776564000000000000000060208201526001600160a01b0382166110ea5760405162461bcd60e51b81526004016107129190612e4f565b50600480546001600160a01b0319166001600160a01b0383169081179091556040519081527f17d7ba6682f162782054b119192f8e5b98fe7090b4bec7a55fc7075d9cd859ee90602001610cec565b60005460408051808201909152601381526000805160206130a88339815191526020820152906001600160a01b031633146111875760405162461bcd60e51b81526004016107129190612e4f565b50600080546001600160a01b0319166001600160a01b0383169081179091556040519081527f46d58e3fa07bf19b1d27240f0e286b27e9f7c1b0d88933333fe833b60eec541290602001610cec565b60408051808201909152601381526000805160206130a88339815191526020820152600090336001600160a01b037f000000000000000000000000000000000000000000000000000000000000000016146112445760405162461bcd60e51b81526004016107129190612e4f565b5060035460408051808201909152601481527329ba3930ba32b3bc9034b99039b43aba3237bbb760611b602082015290600160a01b900460ff161561129c5760405162461bcd60e51b81526004016107129190612e4f565b506112a56125e1565b6112af5750600090565b6040517fed21248cb703b524cc0029bb8669df941baca560163a3bc6ad184e7e9c26807090600090a190565b6009546040516246613160e11b81523060048201526000916001600160a01b03169082908290628cc26290602401602060405180830381865afa158015611326573d6000803e3d6000fd5b505050506040513d601f19601f8201168201806040525081019061134a9190612f3f565b90508061135a5760009250505090565b60006113a1734e3fbd56cd56c3e72c1403e103b45db9da5b9d2b61139c600654670de0b6b3a764000061138d9190612fc5565b6113968661093b565b90612716565b612735565b6113d973d533a949740bb3306d119cc777fa900ba034cd5261139c600554670de0b6b3a76400006113d29190612fc5565b8690612716565b6113e39190612fdc565b905060006113f160016127bb565b905060005b8181101561157a57604051632061aa2360e11b8152600481018290526000906001600160a01b038716906340c3544690602401602060405180830381865afa158015611446573d6000803e3d6000fd5b505050506040513d601f19601f8201168201806040525081019061146a9190612ff4565b90506000816001600160a01b031663f7c618c16040518163ffffffff1660e01b8152600401602060405180830381865afa1580156114ac573d6000803e3d6000fd5b505050506040513d601f19601f820116820180604052508101906114d09190612ff4565b6001600160a01b0381166000908152600260205260409020549091506114f7575050611572565b6040516246613160e11b81523060048201526115639082906001600160a01b03851690628cc26290602401602060405180830381865afa15801561153f573d6000803e3d6000fd5b505050506040513d601f19601f8201168201806040525081019061139c9190612f3f565b61156d9086612fdc565b945050505b6001016113f6565b5090949350505050565b7f0000000000000000000000000000000000000000000000000000000000000000604051632474521560e21b815269676f7665726e616e636560b01b60048201523360248201526001600160a01b0391909116906391d1485490604401602060405180830381865afa1580156115fe573d6000803e3d6000fd5b505050506040513d601f19601f820116820180604052508101906116229190612f1d565b6040518060400160405280601381526020016000805160206130a8833981519152815250906116645760405162461bcd60e51b81526004016107129190612e4f565b5060088190556040518181527fb2861fed34a4613f8f25f46553a23408a3364ee9ddc4ef6714f0a81d856e41a790602001610cec565b7f0000000000000000000000000000000000000000000000000000000000000000604051632474521560e21b815269676f7665726e616e636560b01b60048201523360248201526001600160a01b0391909116906391d1485490604401602060405180830381865afa158015611714573d6000803e3d6000fd5b505050506040513d601f19601f820116820180604052508101906117389190612f1d565b6040518060400160405280601381526020016000805160206130a88339815191528152509061177a5760405162461bcd60e51b81526004016107129190612e4f565b5060408051808201909152600e81526d1a5b9d985b1a5908185b5bdd5b9d60921b6020820152670de0b6b3a76400008211156117c95760405162461bcd60e51b81526004016107129190612e4f565b506004546001600160a01b03166118225760405162461bcd60e51b815260206004820152601d60248201527f436f6d6d756e6974792072657365727665206d757374206265207365740000006044820152606401610712565b60068190556040518181527f2c3c7d70a1dfbfaf74447753b8a73e1323aa10b32b9209742db563671e14b13c90602001610cec565b60408051808201909152601381526000805160206130a88339815191526020820152336001600160a01b037f000000000000000000000000000000000000000000000000000000000000000016146118c25760405162461bcd60e51b81526004016107129190612e4f565b5060035460408051808201909152601481527329ba3930ba32b3bc9034b99039b43aba3237bbb760611b602082015290600160a01b900460ff161561191a5760405162461bcd60e51b81526004016107129190612e4f565b506003805460ff60a01b1916600160a01b1790556040517f4426aa1fb73e391071491fcfe21a88b5c38a0a0333a1f6e77161470439704cf890600090a1565b6040516321f8a72160e01b81526a3937b632a6b0b730b3b2b960a91b60048201526000906001600160a01b038316906321f8a721906024015b602060405180830381865afa1580156119af573d6000803e3d6000fd5b505050506040513d601f19601f820116820180604052508101906119d39190612ff4565b92915050565b6040516321f8a72160e01b81526c39bbb0b83832b92937baba32b960991b60048201526000906001600160a01b038316906321f8a72190602401611992565b801580611a925750604051636eb1769f60e11b81523060048201526001600160a01b03838116602483015284169063dd62ed3e90604401602060405180830381865afa158015611a6c573d6000803e3d6000fd5b505050506040513d601f19601f82011682018060405250810190611a909190612f3f565b155b611afd5760405162461bcd60e51b815260206004820152603660248201527f5361666545524332303a20617070726f76652066726f6d206e6f6e2d7a65726f60448201527520746f206e6f6e2d7a65726f20616c6c6f77616e636560501b6064820152608401610712565b6040516001600160a01b038316602482015260448101829052611b6090849063095ea7b360e01b906064015b60408051601f198184030181529190526020810180516001600160e01b03166001600160e01b0319909316929092179091526127c5565b505050565b6060611b748484600085612897565b90505b9392505050565b6000611b77836001600160a01b0384166129c8565b600061062b7f00000000000000000000000000000000000000000000000000000000000000006001600160a01b03166119d9565b600047828110611cc1576040516001600160a01b037f000000000000000000000000000000000000000000000000000000000000000016908490600081818185875af1925050503d8060008114611c3a576040519150601f19603f3d011682016040523d82523d6000602084013e611c3f565b606091505b505060408051808201909152600f81526e1d1c985b9cd9995c8819985a5b1959608a1b602082015290925082611c885760405162461bcd60e51b81526004016107129190612e4f565b506040518381527f5b6b431d4476a211bb7d41c20d1aab9ae2321deee0d20be3d9fc9b1093fa6e3d9060200160405180910390a1505050565b8083036000611ccf82612a17565b90506000611cdb61241a565b611ce59083612fc5565b600954604051636197390160e11b815260048101839052600060248201529192506001600160a01b03169063c32e7202906044016020604051808303816000875af1158015611d38573d6000803e3d6000fd5b505050506040513d601f19601f82011682018060405250810190611d5c9190612f1d565b611d6857505050505050565b611d70612e01565b8381600d5460028110611d8557611d85613011565b6020020152600b5460405163e310327360e01b81526001600160a01b039091169063e310327390611dbc9084908790600401613027565b600060405180830381600087803b158015611dd657600080fd5b505af1158015611dea573d6000803e3d6000fd5b50506040516001600160a01b037f0000000000000000000000000000000000000000000000000000000000000000169250899150600081818185875af1925050503d8060008114611e57576040519150601f19603f3d011682016040523d82523d6000602084013e611e5c565b606091505b505060408051808201909152600f81526e1d1c985b9cd9995c8819985a5b1959608a1b602082015290965086611ea55760405162461bcd60e51b81526004016107129190612e4f565b5050505050505050565b6000818381611ec057611ec0612f8d565b049392505050565b6000611b77836001600160a01b038416612a3b565b60095460408051631e8c5c8960e11b8152905160009247926001600160a01b0390911691633d18b91291600480820192879290919082900301818387803b158015611f2757600080fd5b505af1158015611f3b573d6000803e3d6000fd5b50505050611f47612b2e565b6000611f51611b93565b604051633ff37e8f60e01b8152734e3fbd56cd56c3e72c1403e103b45db9da5b9d2b600482015273c02aaa39b223fe8d0a0e5c4f27ead9083c756cc260248201529091506001600160a01b03821690633ff37e8f906044016020604051808303816000875af1158015611fc8573d6000803e3d6000fd5b505050506040513d601f19601f82011682018060405250810190611fec9190612f3f565b50604051633ff37e8f60e01b815273d533a949740bb3306d119cc777fa900ba034cd52600482015273c02aaa39b223fe8d0a0e5c4f27ead9083c756cc260248201526001600160a01b03821690633ff37e8f906044016020604051808303816000875af1158015612061573d6000803e3d6000fd5b505050506040513d601f19601f820116820180604052508101906120859190612f3f565b50600061209260016127bb565b905060005b81811015612146576001600160a01b038316633ff37e8f6120b9600184612c8b565b6040516001600160e01b031960e084901b1681526001600160a01b03909116600482015273c02aaa39b223fe8d0a0e5c4f27ead9083c756cc260248201526044016020604051808303816000875af1158015612119573d6000803e3d6000fd5b505050506040513d601f19601f8201168201806040525081019061213d9190612f3f565b50600101612097565b50600354604051633ff37e8f60e01b815273c02aaa39b223fe8d0a0e5c4f27ead9083c756cc260048201526001600160a01b03918216602482015290831690633ff37e8f906044016020604051808303816000875af11580156121ad573d6000803e3d6000fd5b505050506040513d601f19601f820116820180604052508101906121d19190612f3f565b5060006121de8447612fc5565b90507f80f97f878e16410266694f134ddf012f2be424f54f8b5cafa107eccc51d00d588160405161221191815260200190565b60405180910390a1949350505050565b60008061222c612488565b905080156122b657600954604051636197390160e11b815260048101839052600060248201526001600160a01b039091169063c32e7202906044016020604051808303816000875af1158015612286573d6000803e3d6000fd5b505050506040513d601f19601f820116820180604052508101906122aa9190612f1d565b6122b657600091505090565b60006122c061241a565b9050801561234d57600b54600d546001600160a01b0390911690631a4d01d29083906122eb82612c97565b6040516001600160e01b031960e086901b1681526004810193909352600f9190910b60248301526044820152606401600060405180830381600087803b15801561233457600080fd5b505af1158015612348573d6000803e3d6000fd5b505050505b478061235d576000935050505090565b60007f00000000000000000000000000000000000000000000000000000000000000006001600160a01b03168260405160006040518083038185875af1925050503d80600081146123ca576040519150601f19603f3d011682016040523d82523d6000602084013e6123cf565b606091505b50509050806040518060400160405280600f81526020016e1d1c985b9cd9995c8819985a5b1959608a1b8152509061157a5760405162461bcd60e51b81526004016107129190612e4f565b600a546040516370a0823160e01b81523060048201526000916001600160a01b0316906370a08231906024015b602060405180830381865afa158015612464573d6000803e3d6000fd5b505050506040513d601f19601f8201168201806040525081019061062b9190612f3f565b6009546040516370a0823160e01b81523060048201526000916001600160a01b0316906370a0823190602401612447565b60006119d3600b60009054906101000a90046001600160a01b03166001600160a01b031663bb7b8b806040518163ffffffff1660e01b8152600401602060405180830381865afa158015612511573d6000803e3d6000fd5b505050506040513d601f19601f820116820180604052508101906125359190612f3f565b8390612716565b60606000612549836127bb565b905060008167ffffffffffffffff8111156125665761256661305f565b60405190808252806020026020018201604052801561258f578160200160208202803683370190505b50905060005b828110156125d9576125a78582612c8b565b8282815181106125b9576125b9613011565b6001600160a01b0390921660209283029190910190910152600101612595565b509392505050565b600047806125f157600091505090565b6125f9612e01565b8181600d546002811061260e5761260e613011565b6020020152600b546001600160a01b0316630b4c7e4d838361262f82612cbb565b6040518463ffffffff1660e01b815260040161264c929190613027565b6000604051808303818588803b15801561266557600080fd5b505af1158015612679573d6000803e3d6000fd5b5050600c5460405163303acfe760e11b815260048101919091526001602482015273f403c135812408bfbe8713b5a23a04b3d48aae3193506360759fce925060440190506020604051808303816000875af11580156126dc573d6000803e3d6000fd5b505050506040513d601f19601f820116820180604052508101906127009190612f1d565b61270d5760009250505090565b60019250505090565b6000670de0b6b3a764000061272b8385612f6e565b611b779190612fa3565b600061273f611b93565b600354604051632550332960e11b81526001600160a01b038681166004830152918216602482015260448101859052911690634aa0665290606401602060405180830381865afa158015612797573d6000803e3d6000fd5b505050506040513d601f19601f82011682018060405250810190611b779190612f3f565b60006119d3825490565b600061281a826040518060400160405280602081526020017f5361666545524332303a206c6f772d6c6576656c2063616c6c206661696c6564815250856001600160a01b0316611b659092919063ffffffff16565b805190915015611b6057808060200190518101906128389190612f1d565b611b605760405162461bcd60e51b815260206004820152602a60248201527f5361666545524332303a204552433230206f7065726174696f6e20646964206e6044820152691bdd081cdd58d8d9595960b21b6064820152608401610712565b6060824710156128f85760405162461bcd60e51b815260206004820152602660248201527f416464726573733a20696e73756666696369656e742062616c616e636520666f6044820152651c8818d85b1b60d21b6064820152608401610712565b6001600160a01b0385163b61294f5760405162461bcd60e51b815260206004820152601d60248201527f416464726573733a2063616c6c20746f206e6f6e2d636f6e74726163740000006044820152606401610712565b600080866001600160a01b0316858760405161296b9190613075565b60006040518083038185875af1925050503d80600081146129a8576040519150601f19603f3d011682016040523d82523d6000602084013e6129ad565b606091505b50915091506129bd828286612cd6565b979650505050505050565b6000818152600183016020526040812054612a0f575081546001818101845560008481526020808220909301849055845484825282860190935260409020919091556119d3565b5060006119d3565b60006119d3600854670de0b6b3a7640000612a329190612fdc565b61139684612d0f565b60008181526001830160205260408120548015612b24576000612a5f600183612fc5565b8554909150600090612a7390600190612fc5565b9050818114612ad8576000866000018281548110612a9357612a93613011565b9060005260206000200154905080876000018481548110612ab657612ab6613011565b6000918252602080832090910192909255918252600188019052604090208390555b8554869080612ae957612ae9613091565b6001900381819060005260206000200160009055905585600101600086815260200190815260200160002060009055600193505050506119d3565b60009150506119d3565b6004546001600160a01b031680612b425750565b6006548015612bed576040516370a0823160e01b8152306004820152734e3fbd56cd56c3e72c1403e103b45db9da5b9d2b9060009082906370a0823190602401602060405180830381865afa158015612b9f573d6000803e3d6000fd5b505050506040513d601f19601f82011682018060405250810190612bc39190612f3f565b90508015612bea57612bea84612bd98386612716565b6001600160a01b0385169190612d92565b50505b6005548015611b60576040516370a0823160e01b815230600482015273d533a949740bb3306d119cc777fa900ba034cd529060009082906370a0823190602401602060405180830381865afa158015612c4a573d6000803e3d6000fd5b505050506040513d601f19601f82011682018060405250810190612c6e9190612f3f565b90508015612c8457612c8485612bd98386612716565b5050505050565b6000611b778383612dc2565b60006119d3600854670de0b6b3a7640000612cb29190612fc5565b611396846124b9565b60006119d3600754670de0b6b3a7640000612a329190612fc5565b60608315612ce5575081611b77565b825115612cf55782518084602001fd5b8160405162461bcd60e51b81526004016107129190612e4f565b60006119d3600b60009054906101000a90046001600160a01b03166001600160a01b031663bb7b8b806040518163ffffffff1660e01b8152600401602060405180830381865afa158015612d67573d6000803e3d6000fd5b505050506040513d601f19601f82011682018060405250810190612d8b9190612f3f565b8390612dec565b6040516001600160a01b038316602482015260448101829052611b6090849063a9059cbb60e01b90606401611b29565b6000826000018281548110612dd957612dd9613011565b9060005260206000200154905092915050565b60008161272b670de0b6b3a764000085612f6e565b60405180604001604052806002906020820280368337509192915050565b60005b83811015612e3a578181015183820152602001612e22565b83811115612e49576000848401525b50505050565b6020815260008251806020840152612e6e816040850160208701612e1f565b601f01601f19169190910160400192915050565b6001600160a01b0381168114612e9757600080fd5b50565b600060208284031215612eac57600080fd5b8135611b7781612e82565b600060208284031215612ec957600080fd5b5035919050565b6020808252825182820181905260009190848201906040850190845b81811015612f115783516001600160a01b031683529284019291840191600101612eec565b50909695505050505050565b600060208284031215612f2f57600080fd5b81518015158114611b7757600080fd5b600060208284031215612f5157600080fd5b5051919050565b634e487b7160e01b600052601160045260246000fd5b6000816000190483118215151615612f8857612f88612f58565b500290565b634e487b7160e01b600052601260045260246000fd5b600082612fc057634e487b7160e01b600052601260045260246000fd5b500490565b600082821015612fd757612fd7612f58565b500390565b60008219821115612fef57612fef612f58565b500190565b60006020828403121561300657600080fd5b8151611b7781612e82565b634e487b7160e01b600052603260045260246000fd5b60608101818460005b600281101561304f578151835260209283019290910190600101613030565b5050508260408301529392505050565b634e487b7160e01b600052604160045260246000fd5b60008251613087818460208701612e1f565b9190910192915050565b634e487b7160e01b600052603160045260246000fdfe756e617574686f72697a65642061636365737300000000000000000000000000a2646970667358221220410e31a196d3ca307e02df7d4d45841f70b04cf937686a137503d8be14f076c564736f6c634300080a0033","bytecodeSha1":"e2ace3a2ab5349be38c6a4335ef3073cacfd26b0","compiler":{"evm_version":"london","optimizer":{"enabled":true,"runs":200},"version":"0.8.10+commit.fc410830"},"contractName":"MeroEthCvx","language":"Solidity","natspec":{"kind":"dev","methods":{"addRewardToken(address)":{"details":"These are tokens that are not the main assets of the strategy. For instance, temporary incentives.","notice":"Add a reward token to list of extra reward tokens.","params":{"token_":"Address of token to add to reward token list."},"returns":{"_0":"True if successfully added."}},"balance()":{"notice":"Get the total underlying balance of the strategy.","returns":{"_0":"Underlying balance of strategy."}},"deposit()":{"notice":"Deposit all available underlying into Convex pool.","returns":{"_0":"True if successful deposit."}},"harvest()":{"details":"Any underlying harvested is not redeposited by this method.","notice":"Harvests reward tokens and sells these for the underlying.","returns":{"_0":"Amount of underlying harvested."}},"harvestable()":{"details":"Includes rewards for CRV, CVX & Extra Rewards.","notice":"Amount of rewards that can be harvested in the underlying.","returns":{"_0":"Estimated amount of underlying available to harvest."}},"hasPendingFunds()":{"details":"Contract does not stash tokens."},"name()":{"notice":"Returns the name of the strategy.","returns":{"_0":"The name of the strategy."}},"removeRewardToken(address)":{"notice":"Remove a reward token.","params":{"token_":"Address of token to remove from reward token list."},"returns":{"_0":"True if successfully removed."}},"rewardTokens()":{"notice":"Returns the list of reward tokens supported by the strategy.","returns":{"_0":"The list of reward tokens supported by the strategy."}},"setCommunityReserve(address)":{"details":"CRV & CVX will be taxed and allocated to the reserve,      such that Mero can participate in governance.","notice":"Set the address of the community reserve.","params":{"_communityReserve":"Address of the community reserve."}},"setCrvCommunityReserveShare(uint256)":{"notice":"Set the share of CRV to send to the Community Reserve.","params":{"crvCommunityReserveShare_":"New fee charged on CRV rewards for governance."}},"setCvxCommunityReserveShare(uint256)":{"notice":"Set the share of CVX to send to the Community Reserve.","params":{"cvxCommunityReserveShare_":"New fee charged on CVX rewards for governance."}},"setImbalanceToleranceIn(uint256)":{"details":"Stored as a percent, e.g. 1% would be set as 0.01","notice":"Set imbalance tolerance for Curve Pool deposits.","params":{"imbalanceToleranceIn_":"New imbalance tolerance in."}},"setImbalanceToleranceOut(uint256)":{"details":"Stored as a percent, e.g. 1% would be set as 0.01","notice":"Set imbalance tolerance for Curve Pool withdrawals.","params":{"imbalanceToleranceOut_":"New imbalance tolerance out."}},"setStrategist(address)":{"details":"Can only be set by current strategist.","notice":"Set strategist.","params":{"strategist_":"Address of new strategist."}},"shutdown()":{"notice":"Shuts down the strategy, disabling deposits."},"strategist()":{"notice":"Returns the address of the strategist.","returns":{"_0":"The the address of the strategist."}},"withdraw(uint256)":{"details":"This can only be called by the vault.      If the amount is not available, it will be made liquid.","notice":"Withdraw an amount of underlying to the vault.","params":{"amount_":"Amount of underlying to withdraw."},"returns":{"_0":"True if successful withdrawal."}},"withdrawAll()":{"details":"This does not liquidate reward tokens and only considers      idle underlying, idle lp tokens and staked lp tokens.","notice":"Withdraw all underlying.","returns":{"_0":"Amount of underlying withdrawn"}}},"notice":"This is the MeroEthCvx strategy, which is designed to be used by a Mero ETH Vault. The strategy holds ETH as it's underlying and allocates liquidity to Convex via given Curve Pool with 2 underlying tokens. Rewards received on Convex (CVX, CRV), are sold in part for the underlying. A share of earned CVX & CRV are retained on behalf of the Mero community to participate in governance.","version":1},"opcodes":"PUSH1 0x80 PUSH1 0x40 MSTORE PUSH1 0x4 CALLDATASIZE LT PUSH2 0x1FC JUMPI PUSH1 0x0 CALLDATALOAD PUSH1 0xE0 SHR DUP1 PUSH4 0x7BDCDAFF GT PUSH2 0x10D JUMPI DUP1 PUSH4 0xC2BDDF31 GT PUSH2 0xA0 JUMPI DUP1 PUSH4 0xE9EB5088 GT PUSH2 0x6F JUMPI DUP1 PUSH4 0xE9EB5088 EQ PUSH2 0x58C JUMPI DUP1 PUSH4 0xECF8DB0A EQ PUSH2 0x5AC JUMPI DUP1 PUSH4 0xFBFA77CF EQ PUSH2 0x5CC JUMPI DUP1 PUSH4 0xFC0E74D1 EQ PUSH2 0x600 JUMPI DUP1 PUSH4 0xFF0AF85B EQ PUSH2 0x615 JUMPI PUSH1 0x0 DUP1 REVERT JUMPDEST DUP1 PUSH4 0xC2BDDF31 EQ PUSH2 0x52F JUMPI DUP1 PUSH4 0xC7B9D530 EQ PUSH2 0x54F JUMPI DUP1 PUSH4 0xD0E30DB0 EQ PUSH2 0x56F JUMPI DUP1 PUSH4 0xDBBD47D4 EQ PUSH2 0x577 JUMPI PUSH1 0x0 DUP1 REVERT JUMPDEST DUP1 PUSH4 0x9EC5A894 GT PUSH2 0xDC JUMPI DUP1 PUSH4 0x9EC5A894 EQ PUSH2 0x4B7 JUMPI DUP1 PUSH4 0xB69EF8A8 EQ PUSH2 0x4D7 JUMPI DUP1 PUSH4 0xBF86D690 EQ PUSH2 0x4EC JUMPI DUP1 PUSH4 0xC2B18AA0 EQ PUSH2 0x50D JUMPI PUSH1 0x0 DUP1 REVERT JUMPDEST DUP1 PUSH4 0x7BDCDAFF EQ PUSH2 0x460 JUMPI DUP1 PUSH4 0x853828B6 EQ PUSH2 0x476 JUMPI DUP1 PUSH4 0x86993BEF EQ PUSH2 0x48B JUMPI DUP1 PUSH4 0x9B61A924 EQ PUSH2 0x4A1 JUMPI PUSH1 0x0 DUP1 REVERT JUMPDEST DUP1 PUSH4 0x3778851E GT PUSH2 0x190 JUMPI DUP1 PUSH4 0x56BE5F71 GT PUSH2 0x15F JUMPI DUP1 PUSH4 0x56BE5F71 EQ PUSH2 0x3D6 JUMPI DUP1 PUSH4 0x61240EEA EQ PUSH2 0x3EC JUMPI DUP1 PUSH4 0x621E8FE1 EQ PUSH2 0x400 JUMPI DUP1 PUSH4 0x6F307DC3 EQ PUSH2 0x420 JUMPI DUP1 PUSH4 0x70AA1726 EQ PUSH2 0x440 JUMPI PUSH1 0x0 DUP1 REVERT JUMPDEST DUP1 PUSH4 0x3778851E EQ PUSH2 0x35F JUMPI DUP1 PUSH4 0x3D509C97 EQ PUSH2 0x37F JUMPI DUP1 PUSH4 0x4641257D EQ PUSH2 0x39F JUMPI DUP1 PUSH4 0x49CABCDF EQ PUSH2 0x3B4 JUMPI PUSH1 0x0 DUP1 REVERT JUMPDEST DUP1 PUSH4 0x1FE4A686 GT PUSH2 0x1CC JUMPI DUP1 PUSH4 0x1FE4A686 EQ PUSH2 0x2E1 JUMPI DUP1 PUSH4 0x218751B2 EQ PUSH2 0x2FF JUMPI DUP1 PUSH4 0x2E1A7D4D EQ PUSH2 0x31F JUMPI DUP1 PUSH4 0x313C06A0 EQ PUSH2 0x33F JUMPI PUSH1 0x0 DUP1 REVERT JUMPDEST DUP1 PUSH3 0x435DA5 EQ PUSH2 0x208 JUMPI DUP1 PUSH4 0x6FDDE03 EQ PUSH2 0x254 JUMPI DUP1 PUSH4 0x1A55820D EQ PUSH2 0x28D JUMPI DUP1 PUSH4 0x1C03E6CC EQ PUSH2 0x2B1 JUMPI PUSH1 0x0 DUP1 REVERT JUMPDEST CALLDATASIZE PUSH2 0x203 JUMPI STOP JUMPDEST PUSH1 0x0 DUP1 REVERT JUMPDEST CALLVALUE DUP1 ISZERO PUSH2 0x214 JUMPI PUSH1 0x0 DUP1 REVERT JUMPDEST POP PUSH32 0x0 JUMPDEST PUSH1 0x40 MLOAD PUSH1 0x1 PUSH1 0x1 PUSH1 0xA0 SHL SUB SWAP1 SWAP2 AND DUP2 MSTORE PUSH1 0x20 ADD JUMPDEST PUSH1 0x40 MLOAD DUP1 SWAP2 SUB SWAP1 RETURN JUMPDEST CALLVALUE DUP1 ISZERO PUSH2 0x260 JUMPI PUSH1 0x0 DUP1 REVERT JUMPDEST POP PUSH1 0x40 DUP1 MLOAD DUP1 DUP3 ADD DUP3 MSTORE PUSH1 0xA DUP2 MSTORE PUSH10 0x9ACAE4DE8AE8D086ECF PUSH1 0xB3 SHL PUSH1 0x20 DUP3 ADD MSTORE SWAP1 MLOAD PUSH2 0x24B SWAP2 SWAP1 PUSH2 0x2E4F JUMP JUMPDEST CALLVALUE DUP1 ISZERO PUSH2 0x299 JUMPI PUSH1 0x0 DUP1 REVERT JUMPDEST POP PUSH2 0x2A3 PUSH1 0x8 SLOAD DUP2 JUMP JUMPDEST PUSH1 0x40 MLOAD SWAP1 DUP2 MSTORE PUSH1 0x20 ADD PUSH2 0x24B JUMP JUMPDEST CALLVALUE DUP1 ISZERO PUSH2 0x2BD JUMPI PUSH1 0x0 DUP1 REVERT JUMPDEST POP PUSH2 0x2D1 PUSH2 0x2CC CALLDATASIZE PUSH1 0x4 PUSH2 0x2E9A JUMP JUMPDEST PUSH2 0x630 JUMP JUMPDEST PUSH1 0x40 MLOAD SWAP1 ISZERO ISZERO DUP2 MSTORE PUSH1 0x20 ADD PUSH2 0x24B JUMP JUMPDEST CALLVALUE DUP1 ISZERO PUSH2 0x2ED JUMPI PUSH1 0x0 DUP1 REVERT JUMPDEST POP PUSH1 0x0 SLOAD PUSH1 0x1 PUSH1 0x1 PUSH1 0xA0 SHL SUB AND PUSH2 0x237 JUMP JUMPDEST CALLVALUE DUP1 ISZERO PUSH2 0x30B JUMPI PUSH1 0x0 DUP1 REVERT JUMPDEST POP PUSH1 0xB SLOAD PUSH2 0x237 SWAP1 PUSH1 0x1 PUSH1 0x1 PUSH1 0xA0 SHL SUB AND DUP2 JUMP JUMPDEST CALLVALUE DUP1 ISZERO PUSH2 0x32B JUMPI PUSH1 0x0 DUP1 REVERT JUMPDEST POP PUSH2 0x2D1 PUSH2 0x33A CALLDATASIZE PUSH1 0x4 PUSH2 0x2EB7 JUMP JUMPDEST PUSH2 0x87A JUMP JUMPDEST CALLVALUE DUP1 ISZERO PUSH2 0x34B JUMPI PUSH1 0x0 DUP1 REVERT JUMPDEST POP PUSH1 0xA SLOAD PUSH2 0x237 SWAP1 PUSH1 0x1 PUSH1 0x1 PUSH1 0xA0 SHL SUB AND DUP2 JUMP JUMPDEST CALLVALUE DUP1 ISZERO PUSH2 0x36B JUMPI PUSH1 0x0 DUP1 REVERT JUMPDEST POP PUSH2 0x2A3 PUSH2 0x37A CALLDATASIZE PUSH1 0x4 PUSH2 0x2EB7 JUMP JUMPDEST PUSH2 0x93B JUMP JUMPDEST CALLVALUE DUP1 ISZERO PUSH2 0x38B JUMPI PUSH1 0x0 DUP1 REVERT JUMPDEST POP PUSH2 0x2D1 PUSH2 0x39A CALLDATASIZE PUSH1 0x4 PUSH2 0x2E9A JUMP JUMPDEST PUSH2 0xA30 JUMP JUMPDEST CALLVALUE DUP1 ISZERO PUSH2 0x3AB JUMPI PUSH1 0x0 DUP1 REVERT JUMPDEST POP PUSH2 0x2A3 PUSH2 0xB63 JUMP JUMPDEST CALLVALUE DUP1 ISZERO PUSH2 0x3C0 JUMPI PUSH1 0x0 DUP1 REVERT JUMPDEST POP PUSH2 0x3D4 PUSH2 0x3CF CALLDATASIZE PUSH1 0x4 PUSH2 0x2EB7 JUMP JUMPDEST PUSH2 0xBDA JUMP JUMPDEST STOP JUMPDEST CALLVALUE DUP1 ISZERO PUSH2 0x3E2 JUMPI PUSH1 0x0 DUP1 REVERT JUMPDEST POP PUSH2 0x2A3 PUSH1 0x7 SLOAD DUP2 JUMP JUMPDEST CALLVALUE DUP1 ISZERO PUSH2 0x3F8 JUMPI PUSH1 0x0 DUP1 REVERT JUMPDEST POP PUSH1 0x0 PUSH2 0x2D1 JUMP JUMPDEST CALLVALUE DUP1 ISZERO PUSH2 0x40C JUMPI PUSH1 0x0 DUP1 REVERT JUMPDEST POP PUSH1 0x4 SLOAD PUSH2 0x237 SWAP1 PUSH1 0x1 PUSH1 0x1 PUSH1 0xA0 SHL SUB AND DUP2 JUMP JUMPDEST CALLVALUE DUP1 ISZERO PUSH2 0x42C JUMPI PUSH1 0x0 DUP1 REVERT JUMPDEST POP PUSH1 0x3 SLOAD PUSH2 0x237 SWAP1 PUSH1 0x1 PUSH1 0x1 PUSH1 0xA0 SHL SUB AND DUP2 JUMP JUMPDEST CALLVALUE DUP1 ISZERO PUSH2 0x44C JUMPI PUSH1 0x0 DUP1 REVERT JUMPDEST POP PUSH2 0x3D4 PUSH2 0x45B CALLDATASIZE PUSH1 0x4 PUSH2 0x2EB7 JUMP JUMPDEST PUSH2 0xCF7 JUMP JUMPDEST CALLVALUE DUP1 ISZERO PUSH2 0x46C JUMPI PUSH1 0x0 DUP1 REVERT JUMPDEST POP PUSH2 0x2A3 PUSH1 0xD SLOAD DUP2 JUMP JUMPDEST CALLVALUE DUP1 ISZERO PUSH2 0x482 JUMPI PUSH1 0x0 DUP1 REVERT JUMPDEST POP PUSH2 0x2A3 PUSH2 0xEB4 JUMP JUMPDEST CALLVALUE DUP1 ISZERO PUSH2 0x497 JUMPI PUSH1 0x0 DUP1 REVERT JUMPDEST POP PUSH2 0x2A3 PUSH1 0xC SLOAD DUP2 JUMP JUMPDEST CALLVALUE DUP1 ISZERO PUSH2 0x4AD JUMPI PUSH1 0x0 DUP1 REVERT JUMPDEST POP PUSH2 0x2A3 PUSH1 0x6 SLOAD DUP2 JUMP JUMPDEST CALLVALUE DUP1 ISZERO PUSH2 0x4C3 JUMPI PUSH1 0x0 DUP1 REVERT JUMPDEST POP PUSH1 0x9 SLOAD PUSH2 0x237 SWAP1 PUSH1 0x1 PUSH1 0x1 PUSH1 0xA0 SHL SUB AND DUP2 JUMP JUMPDEST CALLVALUE DUP1 ISZERO PUSH2 0x4E3 JUMPI PUSH1 0x0 DUP1 REVERT JUMPDEST POP PUSH2 0x2A3 PUSH2 0xF74 JUMP JUMPDEST CALLVALUE DUP1 ISZERO PUSH2 0x4F8 JUMPI PUSH1 0x0 DUP1 REVERT JUMPDEST POP PUSH1 0x3 SLOAD PUSH2 0x2D1 SWAP1 PUSH1 0x1 PUSH1 0xA0 SHL SWAP1 DIV PUSH1 0xFF AND DUP2 JUMP JUMPDEST CALLVALUE DUP1 ISZERO PUSH2 0x519 JUMPI PUSH1 0x0 DUP1 REVERT JUMPDEST POP PUSH2 0x522 PUSH2 0xFA2 JUMP JUMPDEST PUSH1 0x40 MLOAD PUSH2 0x24B SWAP2 SWAP1 PUSH2 0x2ED0 JUMP JUMPDEST CALLVALUE DUP1 ISZERO PUSH2 0x53B JUMPI PUSH1 0x0 DUP1 REVERT JUMPDEST POP PUSH2 0x3D4 PUSH2 0x54A CALLDATASIZE PUSH1 0x4 PUSH2 0x2E9A JUMP JUMPDEST PUSH2 0xFAE JUMP JUMPDEST CALLVALUE DUP1 ISZERO PUSH2 0x55B JUMPI PUSH1 0x0 DUP1 REVERT JUMPDEST POP PUSH2 0x3D4 PUSH2 0x56A CALLDATASIZE PUSH1 0x4 PUSH2 0x2E9A JUMP JUMPDEST PUSH2 0x1139 JUMP JUMPDEST PUSH2 0x2D1 PUSH2 0x11D6 JUMP JUMPDEST CALLVALUE DUP1 ISZERO PUSH2 0x583 JUMPI PUSH1 0x0 DUP1 REVERT JUMPDEST POP PUSH2 0x2A3 PUSH2 0x12DB JUMP JUMPDEST CALLVALUE DUP1 ISZERO PUSH2 0x598 JUMPI PUSH1 0x0 DUP1 REVERT JUMPDEST POP PUSH2 0x3D4 PUSH2 0x5A7 CALLDATASIZE PUSH1 0x4 PUSH2 0x2EB7 JUMP JUMPDEST PUSH2 0x1584 JUMP JUMPDEST CALLVALUE DUP1 ISZERO PUSH2 0x5B8 JUMPI PUSH1 0x0 DUP1 REVERT JUMPDEST POP PUSH2 0x3D4 PUSH2 0x5C7 CALLDATASIZE PUSH1 0x4 PUSH2 0x2EB7 JUMP JUMPDEST PUSH2 0x169A JUMP JUMPDEST CALLVALUE DUP1 ISZERO PUSH2 0x5D8 JUMPI PUSH1 0x0 DUP1 REVERT JUMPDEST POP PUSH2 0x237 PUSH32 0x0 DUP2 JUMP JUMPDEST CALLVALUE DUP1 ISZERO PUSH2 0x60C JUMPI PUSH1 0x0 DUP1 REVERT JUMPDEST POP PUSH2 0x3D4 PUSH2 0x1857 JUMP JUMPDEST CALLVALUE DUP1 ISZERO PUSH2 0x621 JUMPI PUSH1 0x0 DUP1 REVERT JUMPDEST POP PUSH2 0x2A3 PUSH1 0x5 SLOAD DUP2 JUMP JUMPDEST SWAP1 POP SWAP1 JUMP JUMPDEST PUSH1 0x0 PUSH32 0x0 PUSH1 0x40 MLOAD PUSH4 0x24745215 PUSH1 0xE2 SHL DUP2 MSTORE PUSH10 0x676F7665726E616E6365 PUSH1 0xB0 SHL PUSH1 0x4 DUP3 ADD MSTORE CALLER PUSH1 0x24 DUP3 ADD MSTORE PUSH1 0x1 PUSH1 0x1 PUSH1 0xA0 SHL SUB SWAP2 SWAP1 SWAP2 AND SWAP1 PUSH4 0x91D14854 SWAP1 PUSH1 0x44 ADD PUSH1 0x20 PUSH1 0x40 MLOAD DUP1 DUP4 SUB DUP2 DUP7 GAS STATICCALL ISZERO DUP1 ISZERO PUSH2 0x6AC JUMPI RETURNDATASIZE PUSH1 0x0 DUP1 RETURNDATACOPY RETURNDATASIZE PUSH1 0x0 REVERT JUMPDEST POP POP POP POP PUSH1 0x40 MLOAD RETURNDATASIZE PUSH1 0x1F NOT PUSH1 0x1F DUP3 ADD AND DUP3 ADD DUP1 PUSH1 0x40 MSTORE POP DUP2 ADD SWAP1 PUSH2 0x6D0 SWAP2 SWAP1 PUSH2 0x2F1D JUMP JUMPDEST PUSH1 0x40 MLOAD DUP1 PUSH1 0x40 ADD PUSH1 0x40 MSTORE DUP1 PUSH1 0x13 DUP2 MSTORE PUSH1 0x20 ADD PUSH1 0x0 DUP1 MLOAD PUSH1 0x20 PUSH2 0x30A8 DUP4 CODECOPY DUP2 MLOAD SWAP2 MSTORE DUP2 MSTORE POP SWAP1 PUSH2 0x71B JUMPI PUSH1 0x40 MLOAD PUSH3 0x461BCD PUSH1 0xE5 SHL DUP2 MSTORE PUSH1 0x4 ADD PUSH2 0x712 SWAP2 SWAP1 PUSH2 0x2E4F JUMP JUMPDEST PUSH1 0x40 MLOAD DUP1 SWAP2 SUB SWAP1 REVERT JUMPDEST POP PUSH1 0x1 PUSH1 0x1 PUSH1 0xA0 SHL SUB DUP3 AND PUSH20 0x4E3FBD56CD56C3E72C1403E103B45DB9DA5B9D2B EQ DUP1 ISZERO SWAP1 PUSH2 0x757 JUMPI POP PUSH1 0x3 SLOAD PUSH1 0x1 PUSH1 0x1 PUSH1 0xA0 SHL SUB DUP4 DUP2 AND SWAP2 AND EQ ISZERO JUMPDEST DUP1 ISZERO PUSH2 0x780 JUMPI POP PUSH1 0x1 PUSH1 0x1 PUSH1 0xA0 SHL SUB DUP3 AND PUSH20 0xD533A949740BB3306D119CC777FA900BA034CD52 EQ ISZERO JUMPDEST PUSH1 0x40 MLOAD DUP1 PUSH1 0x40 ADD PUSH1 0x40 MSTORE DUP1 PUSH1 0x14 DUP2 MSTORE PUSH1 0x20 ADD PUSH20 0x125B9D985B1A59081D1BDAD95B881D1BC8185919 PUSH1 0x62 SHL DUP2 MSTORE POP SWAP1 PUSH2 0x7CB JUMPI PUSH1 0x40 MLOAD PUSH3 0x461BCD PUSH1 0xE5 SHL DUP2 MSTORE PUSH1 0x4 ADD PUSH2 0x712 SWAP2 SWAP1 PUSH2 0x2E4F JUMP JUMPDEST POP PUSH1 0x1 PUSH1 0x1 PUSH1 0xA0 SHL SUB DUP3 AND PUSH1 0x0 SWAP1 DUP2 MSTORE PUSH1 0x2 PUSH1 0x20 MSTORE PUSH1 0x40 SWAP1 KECCAK256 SLOAD ISZERO PUSH2 0x7F2 JUMPI POP PUSH1 0x0 SWAP2 SWAP1 POP JUMP JUMPDEST PUSH2 0x7FD PUSH1 0x1 DUP4 PUSH2 0x1B7E JUMP JUMPDEST POP PUSH1 0x0 PUSH2 0x808 PUSH2 0x1B93 JUMP JUMPDEST SWAP1 POP PUSH2 0x81F PUSH1 0x1 PUSH1 0x1 PUSH1 0xA0 SHL SUB DUP5 AND DUP3 PUSH1 0x0 PUSH2 0x1A18 JUMP JUMPDEST PUSH2 0x835 PUSH1 0x1 PUSH1 0x1 PUSH1 0xA0 SHL SUB DUP5 AND DUP3 PUSH1 0x0 NOT PUSH2 0x1A18 JUMP JUMPDEST PUSH1 0x40 MLOAD PUSH1 0x1 PUSH1 0x1 PUSH1 0xA0 SHL SUB DUP5 AND DUP2 MSTORE PUSH32 0x851BBB4304BF0768ED98B97E429B5BD1DCC1F194B36CD1650F40293E951AE393 SWAP1 PUSH1 0x20 ADD PUSH1 0x40 MLOAD DUP1 SWAP2 SUB SWAP1 LOG1 POP PUSH1 0x1 SWAP3 SWAP2 POP POP JUMP JUMPDEST PUSH1 0x40 DUP1 MLOAD DUP1 DUP3 ADD SWAP1 SWAP2 MSTORE PUSH1 0x13 DUP2 MSTORE PUSH1 0x0 DUP1 MLOAD PUSH1 0x20 PUSH2 0x30A8 DUP4 CODECOPY DUP2 MLOAD SWAP2 MSTORE PUSH1 0x20 DUP3 ADD MSTORE PUSH1 0x0 SWAP1 CALLER PUSH1 0x1 PUSH1 0x1 PUSH1 0xA0 SHL SUB PUSH32 0x0 AND EQ PUSH2 0x8E8 JUMPI PUSH1 0x40 MLOAD PUSH3 0x461BCD PUSH1 0xE5 SHL DUP2 MSTORE PUSH1 0x4 ADD PUSH2 0x712 SWAP2 SWAP1 PUSH2 0x2E4F JUMP JUMPDEST POP DUP2 PUSH2 0x8F6 JUMPI POP PUSH1 0x0 SWAP2 SWAP1 POP JUMP JUMPDEST PUSH2 0x8FF DUP3 PUSH2 0x1BC7 JUMP JUMPDEST PUSH1 0x40 MLOAD DUP3 DUP2 MSTORE PUSH32 0x5B6B431D4476A211BB7D41C20D1AAB9AE2321DEEE0D20BE3D9FC9B1093FA6E3D SWAP1 PUSH1 0x20 ADD JUMPDEST PUSH1 0x40 MLOAD DUP1 SWAP2 SUB SWAP1 LOG1 POP PUSH1 0x1 SWAP2 SWAP1 POP JUMP JUMPDEST PUSH1 0x0 DUP1 PUSH20 0x4E3FBD56CD56C3E72C1403E103B45DB9DA5B9D2B PUSH1 0x1 PUSH1 0x1 PUSH1 0xA0 SHL SUB AND PUSH4 0x18160DDD PUSH1 0x40 MLOAD DUP2 PUSH4 0xFFFFFFFF AND PUSH1 0xE0 SHL DUP2 MSTORE PUSH1 0x4 ADD PUSH1 0x20 PUSH1 0x40 MLOAD DUP1 DUP4 SUB DUP2 DUP7 GAS STATICCALL ISZERO DUP1 ISZERO PUSH2 0x990 JUMPI RETURNDATASIZE PUSH1 0x0 DUP1 RETURNDATACOPY RETURNDATASIZE PUSH1 0x0 REVERT JUMPDEST POP POP POP POP PUSH1 0x40 MLOAD RETURNDATASIZE PUSH1 0x1F NOT PUSH1 0x1F DUP3 ADD AND DUP3 ADD DUP1 PUSH1 0x40 MSTORE POP DUP2 ADD SWAP1 PUSH2 0x9B4 SWAP2 SWAP1 PUSH2 0x2F3F JUMP JUMPDEST SWAP1 POP PUSH1 0x0 PUSH2 0x9CC DUP3 PUSH10 0x152D02C7E14AF6800000 PUSH2 0x1EAF JUMP JUMPDEST SWAP1 POP PUSH2 0x3E8 DUP2 LT PUSH2 0x9E1 JUMPI POP PUSH1 0x0 SWAP4 SWAP3 POP POP POP JUMP JUMPDEST PUSH2 0x3E8 DUP2 DUP2 SUB SWAP1 PUSH1 0x0 SWAP1 PUSH2 0x9F5 DUP4 DUP9 PUSH2 0x2F6E JUMP JUMPDEST PUSH2 0x9FF SWAP2 SWAP1 PUSH2 0x2FA3 JUMP JUMPDEST SWAP1 POP PUSH1 0x0 PUSH2 0xA18 DUP6 PUSH11 0x52B7D2DCC80CD2E4000000 PUSH2 0x2FC5 JUMP JUMPDEST SWAP1 POP DUP1 DUP3 GT ISZERO PUSH2 0xA26 JUMPI DUP1 SWAP2 POP JUMPDEST POP SWAP6 SWAP5 POP POP POP POP POP JUMP JUMPDEST PUSH1 0x0 PUSH32 0x0 PUSH1 0x40 MLOAD PUSH4 0x24745215 PUSH1 0xE2 SHL DUP2 MSTORE PUSH10 0x676F7665726E616E6365 PUSH1 0xB0 SHL PUSH1 0x4 DUP3 ADD MSTORE CALLER PUSH1 0x24 DUP3 ADD MSTORE PUSH1 0x1 PUSH1 0x1 PUSH1 0xA0 SHL SUB SWAP2 SWAP1 SWAP2 AND SWAP1 PUSH4 0x91D14854 SWAP1 PUSH1 0x44 ADD PUSH1 0x20 PUSH1 0x40 MLOAD DUP1 DUP4 SUB DUP2 DUP7 GAS STATICCALL ISZERO DUP1 ISZERO PUSH2 0xAAC JUMPI RETURNDATASIZE PUSH1 0x0 DUP1 RETURNDATACOPY RETURNDATASIZE PUSH1 0x0 REVERT JUMPDEST POP POP POP POP PUSH1 0x40 MLOAD RETURNDATASIZE PUSH1 0x1F NOT PUSH1 0x1F DUP3 ADD AND DUP3 ADD DUP1 PUSH1 0x40 MSTORE POP DUP2 ADD SWAP1 PUSH2 0xAD0 SWAP2 SWAP1 PUSH2 0x2F1D JUMP JUMPDEST PUSH1 0x40 MLOAD DUP1 PUSH1 0x40 ADD PUSH1 0x40 MSTORE DUP1 PUSH1 0x13 DUP2 MSTORE PUSH1 0x20 ADD PUSH1 0x0 DUP1 MLOAD PUSH1 0x20 PUSH2 0x30A8 DUP4 CODECOPY DUP2 MLOAD SWAP2 MSTORE DUP2 MSTORE POP SWAP1 PUSH2 0xB12 JUMPI PUSH1 0x40 MLOAD PUSH3 0x461BCD PUSH1 0xE5 SHL DUP2 MSTORE PUSH1 0x4 ADD PUSH2 0x712 SWAP2 SWAP1 PUSH2 0x2E4F JUMP JUMPDEST POP PUSH2 0xB1E PUSH1 0x1 DUP4 PUSH2 0x1EC8 JUMP JUMPDEST PUSH2 0xB2A JUMPI POP PUSH1 0x0 SWAP2 SWAP1 POP JUMP JUMPDEST PUSH1 0x40 MLOAD PUSH1 0x1 PUSH1 0x1 PUSH1 0xA0 SHL SUB DUP4 AND DUP2 MSTORE PUSH32 0x36BD04094FA067BB9471A8FBDB0A6E8A43424A2566AD3A740C88973FA40A3118 SWAP1 PUSH1 0x20 ADD PUSH2 0x92B JUMP JUMPDEST PUSH1 0x40 DUP1 MLOAD DUP1 DUP3 ADD SWAP1 SWAP2 MSTORE PUSH1 0x13 DUP2 MSTORE PUSH1 0x0 DUP1 MLOAD PUSH1 0x20 PUSH2 0x30A8 DUP4 CODECOPY DUP2 MLOAD SWAP2 MSTORE PUSH1 0x20 DUP3 ADD MSTORE PUSH1 0x0 SWAP1 CALLER PUSH1 0x1 PUSH1 0x1 PUSH1 0xA0 SHL SUB PUSH32 0x0 AND EQ PUSH2 0xBD1 JUMPI PUSH1 0x40 MLOAD PUSH3 0x461BCD PUSH1 0xE5 SHL DUP2 MSTORE PUSH1 0x4 ADD PUSH2 0x712 SWAP2 SWAP1 PUSH2 0x2E4F JUMP JUMPDEST POP PUSH2 0x62B PUSH2 0x1EDD JUMP JUMPDEST PUSH32 0x0 PUSH1 0x40 MLOAD PUSH4 0x24745215 PUSH1 0xE2 SHL DUP2 MSTORE PUSH10 0x676F7665726E616E6365 PUSH1 0xB0 SHL PUSH1 0x4 DUP3 ADD MSTORE CALLER PUSH1 0x24 DUP3 ADD MSTORE PUSH1 0x1 PUSH1 0x1 PUSH1 0xA0 SHL SUB SWAP2 SWAP1 SWAP2 AND SWAP1 PUSH4 0x91D14854 SWAP1 PUSH1 0x44 ADD PUSH1 0x20 PUSH1 0x40 MLOAD DUP1 DUP4 SUB DUP2 DUP7 GAS STATICCALL ISZERO DUP1 ISZERO PUSH2 0xC54 JUMPI RETURNDATASIZE PUSH1 0x0 DUP1 RETURNDATACOPY RETURNDATASIZE PUSH1 0x0 REVERT JUMPDEST POP POP POP POP PUSH1 0x40 MLOAD RETURNDATASIZE PUSH1 0x1F NOT PUSH1 0x1F DUP3 ADD AND DUP3 ADD DUP1 PUSH1 0x40 MSTORE POP DUP2 ADD SWAP1 PUSH2 0xC78 SWAP2 SWAP1 PUSH2 0x2F1D JUMP JUMPDEST PUSH1 0x40 MLOAD DUP1 PUSH1 0x40 ADD PUSH1 0x40 MSTORE DUP1 PUSH1 0x13 DUP2 MSTORE PUSH1 0x20 ADD PUSH1 0x0 DUP1 MLOAD PUSH1 0x20 PUSH2 0x30A8 DUP4 CODECOPY DUP2 MLOAD SWAP2 MSTORE DUP2 MSTORE POP SWAP1 PUSH2 0xCBA JUMPI PUSH1 0x40 MLOAD PUSH3 0x461BCD PUSH1 0xE5 SHL DUP2 MSTORE PUSH1 0x4 ADD PUSH2 0x712 SWAP2 SWAP1 PUSH2 0x2E4F JUMP JUMPDEST POP PUSH1 0x7 DUP2 SWAP1 SSTORE PUSH1 0x40 MLOAD DUP2 DUP2 MSTORE PUSH32 0x4EDE3E4E9F7997FDA6FF4A12D6C43D5C9E1E2055065CBC15F902F504F72DC8C0 SWAP1 PUSH1 0x20 ADD JUMPDEST PUSH1 0x40 MLOAD DUP1 SWAP2 SUB SWAP1 LOG1 POP JUMP JUMPDEST PUSH32 0x0 PUSH1 0x40 MLOAD PUSH4 0x24745215 PUSH1 0xE2 SHL DUP2 MSTORE PUSH10 0x676F7665726E616E6365 PUSH1 0xB0 SHL PUSH1 0x4 DUP3 ADD MSTORE CALLER PUSH1 0x24 DUP3 ADD MSTORE PUSH1 0x1 PUSH1 0x1 PUSH1 0xA0 SHL SUB SWAP2 SWAP1 SWAP2 AND SWAP1 PUSH4 0x91D14854 SWAP1 PUSH1 0x44 ADD PUSH1 0x20 PUSH1 0x40 MLOAD DUP1 DUP4 SUB DUP2 DUP7 GAS STATICCALL ISZERO DUP1 ISZERO PUSH2 0xD71 JUMPI RETURNDATASIZE PUSH1 0x0 DUP1 RETURNDATACOPY RETURNDATASIZE PUSH1 0x0 REVERT JUMPDEST POP POP POP POP PUSH1 0x40 MLOAD RETURNDATASIZE PUSH1 0x1F NOT PUSH1 0x1F DUP3 ADD AND DUP3 ADD DUP1 PUSH1 0x40 MSTORE POP DUP2 ADD SWAP1 PUSH2 0xD95 SWAP2 SWAP1 PUSH2 0x2F1D JUMP JUMPDEST PUSH1 0x40 MLOAD DUP1 PUSH1 0x40 ADD PUSH1 0x40 MSTORE DUP1 PUSH1 0x13 DUP2 MSTORE PUSH1 0x20 ADD PUSH1 0x0 DUP1 MLOAD PUSH1 0x20 PUSH2 0x30A8 DUP4 CODECOPY DUP2 MLOAD SWAP2 MSTORE DUP2 MSTORE POP SWAP1 PUSH2 0xDD7 JUMPI PUSH1 0x40 MLOAD PUSH3 0x461BCD PUSH1 0xE5 SHL DUP2 MSTORE PUSH1 0x4 ADD PUSH2 0x712 SWAP2 SWAP1 PUSH2 0x2E4F JUMP JUMPDEST POP PUSH1 0x40 DUP1 MLOAD DUP1 DUP3 ADD SWAP1 SWAP2 MSTORE PUSH1 0xE DUP2 MSTORE PUSH14 0x1A5B9D985B1A5908185B5BDD5B9D PUSH1 0x92 SHL PUSH1 0x20 DUP3 ADD MSTORE PUSH8 0xDE0B6B3A7640000 DUP3 GT ISZERO PUSH2 0xE26 JUMPI PUSH1 0x40 MLOAD PUSH3 0x461BCD PUSH1 0xE5 SHL DUP2 MSTORE PUSH1 0x4 ADD PUSH2 0x712 SWAP2 SWAP1 PUSH2 0x2E4F JUMP JUMPDEST POP PUSH1 0x4 SLOAD PUSH1 0x1 PUSH1 0x1 PUSH1 0xA0 SHL SUB AND PUSH2 0xE7F JUMPI PUSH1 0x40 MLOAD PUSH3 0x461BCD PUSH1 0xE5 SHL DUP2 MSTORE PUSH1 0x20 PUSH1 0x4 DUP3 ADD MSTORE PUSH1 0x1D PUSH1 0x24 DUP3 ADD MSTORE PUSH32 0x436F6D6D756E6974792072657365727665206D75737420626520736574000000 PUSH1 0x44 DUP3 ADD MSTORE PUSH1 0x64 ADD PUSH2 0x712 JUMP JUMPDEST PUSH1 0x5 DUP2 SWAP1 SSTORE PUSH1 0x40 MLOAD DUP2 DUP2 MSTORE PUSH32 0x1A8542DFFA4956932E66916113E6A123E123956172FBC0E2E59DF92B8A87D8E6 SWAP1 PUSH1 0x20 ADD PUSH2 0xCEC JUMP JUMPDEST PUSH1 0x40 DUP1 MLOAD DUP1 DUP3 ADD SWAP1 SWAP2 MSTORE PUSH1 0x13 DUP2 MSTORE PUSH1 0x0 DUP1 MLOAD PUSH1 0x20 PUSH2 0x30A8 DUP4 CODECOPY DUP2 MLOAD SWAP2 MSTORE PUSH1 0x20 DUP3 ADD MSTORE PUSH1 0x0 SWAP1 CALLER PUSH1 0x1 PUSH1 0x1 PUSH1 0xA0 SHL SUB PUSH32 0x0 AND EQ PUSH2 0xF22 JUMPI PUSH1 0x40 MLOAD PUSH3 0x461BCD PUSH1 0xE5 SHL DUP2 MSTORE PUSH1 0x4 ADD PUSH2 0x712 SWAP2 SWAP1 PUSH2 0x2E4F JUMP JUMPDEST POP PUSH1 0x0 PUSH2 0xF2D PUSH2 0x2221 JUMP JUMPDEST SWAP1 POP DUP1 PUSH2 0xF3C JUMPI PUSH1 0x0 SWAP2 POP POP SWAP1 JUMP JUMPDEST PUSH1 0x40 MLOAD DUP2 DUP2 MSTORE PUSH32 0x3D5A341DC6A12221FCF31279CEF3771F8FAD757B2D9261F97605CCC17C257424 SWAP1 PUSH1 0x20 ADD PUSH1 0x40 MLOAD DUP1 SWAP2 SUB SWAP1 LOG1 SWAP2 SWAP1 POP JUMP JUMPDEST PUSH1 0x0 PUSH2 0xF98 PUSH2 0xF81 PUSH2 0x241A JUMP JUMPDEST PUSH2 0xF89 PUSH2 0x2488 JUMP JUMPDEST PUSH2 0xF93 SWAP2 SWAP1 PUSH2 0x2FDC JUMP JUMPDEST PUSH2 0x24B9 JUMP JUMPDEST PUSH2 0x62B SWAP1 SELFBALANCE PUSH2 0x2FDC JUMP JUMPDEST PUSH1 0x60 PUSH2 0x62B PUSH1 0x1 PUSH2 0x253C JUMP JUMPDEST PUSH32 0x0 PUSH1 0x40 MLOAD PUSH4 0x24745215 PUSH1 0xE2 SHL DUP2 MSTORE PUSH10 0x676F7665726E616E6365 PUSH1 0xB0 SHL PUSH1 0x4 DUP3 ADD MSTORE CALLER PUSH1 0x24 DUP3 ADD MSTORE PUSH1 0x1 PUSH1 0x1 PUSH1 0xA0 SHL SUB SWAP2 SWAP1 SWAP2 AND SWAP1 PUSH4 0x91D14854 SWAP1 PUSH1 0x44 ADD PUSH1 0x20 PUSH1 0x40 MLOAD DUP1 DUP4 SUB DUP2 DUP7 GAS STATICCALL ISZERO DUP1 ISZERO PUSH2 0x1028 JUMPI RETURNDATASIZE PUSH1 0x0 DUP1 RETURNDATACOPY RETURNDATASIZE PUSH1 0x0 REVERT JUMPDEST POP POP POP POP PUSH1 0x40 MLOAD RETURNDATASIZE PUSH1 0x1F NOT PUSH1 0x1F DUP3 ADD AND DUP3 ADD DUP1 PUSH1 0x40 MSTORE POP DUP2 ADD SWAP1 PUSH2 0x104C SWAP2 SWAP1 PUSH2 0x2F1D JUMP JUMPDEST PUSH1 0x40 MLOAD DUP1 PUSH1 0x40 ADD PUSH1 0x40 MSTORE DUP1 PUSH1 0x13 DUP2 MSTORE PUSH1 0x20 ADD PUSH1 0x0 DUP1 MLOAD PUSH1 0x20 PUSH2 0x30A8 DUP4 CODECOPY DUP2 MLOAD SWAP2 MSTORE DUP2 MSTORE POP SWAP1 PUSH2 0x108E JUMPI PUSH1 0x40 MLOAD PUSH3 0x461BCD PUSH1 0xE5 SHL DUP2 MSTORE PUSH1 0x4 ADD PUSH2 0x712 SWAP2 SWAP1 PUSH2 0x2E4F JUMP JUMPDEST POP PUSH1 0x40 DUP1 MLOAD DUP1 DUP3 ADD SWAP1 SWAP2 MSTORE PUSH1 0x18 DUP2 MSTORE PUSH32 0x7A65726F2061646472657373206E6F7420616C6C6F7765640000000000000000 PUSH1 0x20 DUP3 ADD MSTORE PUSH1 0x1 PUSH1 0x1 PUSH1 0xA0 SHL SUB DUP3 AND PUSH2 0x10EA JUMPI PUSH1 0x40 MLOAD PUSH3 0x461BCD PUSH1 0xE5 SHL DUP2 MSTORE PUSH1 0x4 ADD PUSH2 0x712 SWAP2 SWAP1 PUSH2 0x2E4F JUMP JUMPDEST POP PUSH1 0x4 DUP1 SLOAD PUSH1 0x1 PUSH1 0x1 PUSH1 0xA0 SHL SUB NOT AND PUSH1 0x1 PUSH1 0x1 PUSH1 0xA0 SHL SUB DUP4 AND SWAP1 DUP2 OR SWAP1 SWAP2 SSTORE PUSH1 0x40 MLOAD SWAP1 DUP2 MSTORE PUSH32 0x17D7BA6682F162782054B119192F8E5B98FE7090B4BEC7A55FC7075D9CD859EE SWAP1 PUSH1 0x20 ADD PUSH2 0xCEC JUMP JUMPDEST PUSH1 0x0 SLOAD PUSH1 0x40 DUP1 MLOAD DUP1 DUP3 ADD SWAP1 SWAP2 MSTORE PUSH1 0x13 DUP2 MSTORE PUSH1 0x0 DUP1 MLOAD PUSH1 0x20 PUSH2 0x30A8 DUP4 CODECOPY DUP2 MLOAD SWAP2 MSTORE PUSH1 0x20 DUP3 ADD MSTORE SWAP1 PUSH1 0x1 PUSH1 0x1 PUSH1 0xA0 SHL SUB AND CALLER EQ PUSH2 0x1187 JUMPI PUSH1 0x40 MLOAD PUSH3 0x461BCD PUSH1 0xE5 SHL DUP2 MSTORE PUSH1 0x4 ADD PUSH2 0x712 SWAP2 SWAP1 PUSH2 0x2E4F JUMP JUMPDEST POP PUSH1 0x0 DUP1 SLOAD PUSH1 0x1 PUSH1 0x1 PUSH1 0xA0 SHL SUB NOT AND PUSH1 0x1 PUSH1 0x1 PUSH1 0xA0 SHL SUB DUP4 AND SWAP1 DUP2 OR SWAP1 SWAP2 SSTORE PUSH1 0x40 MLOAD SWAP1 DUP2 MSTORE PUSH32 0x46D58E3FA07BF19B1D27240F0E286B27E9F7C1B0D88933333FE833B60EEC5412 SWAP1 PUSH1 0x20 ADD PUSH2 0xCEC JUMP JUMPDEST PUSH1 0x40 DUP1 MLOAD DUP1 DUP3 ADD SWAP1 SWAP2 MSTORE PUSH1 0x13 DUP2 MSTORE PUSH1 0x0 DUP1 MLOAD PUSH1 0x20 PUSH2 0x30A8 DUP4 CODECOPY DUP2 MLOAD SWAP2 MSTORE PUSH1 0x20 DUP3 ADD MSTORE PUSH1 0x0 SWAP1 CALLER PUSH1 0x1 PUSH1 0x1 PUSH1 0xA0 SHL SUB PUSH32 0x0 AND EQ PUSH2 0x1244 JUMPI PUSH1 0x40 MLOAD PUSH3 0x461BCD PUSH1 0xE5 SHL DUP2 MSTORE PUSH1 0x4 ADD PUSH2 0x712 SWAP2 SWAP1 PUSH2 0x2E4F JUMP JUMPDEST POP PUSH1 0x3 SLOAD PUSH1 0x40 DUP1 MLOAD DUP1 DUP3 ADD SWAP1 SWAP2 MSTORE PUSH1 0x14 DUP2 MSTORE PUSH20 0x29BA3930BA32B3BC9034B99039B43ABA3237BBB7 PUSH1 0x61 SHL PUSH1 0x20 DUP3 ADD MSTORE SWAP1 PUSH1 0x1 PUSH1 0xA0 SHL SWAP1 DIV PUSH1 0xFF AND ISZERO PUSH2 0x129C JUMPI PUSH1 0x40 MLOAD PUSH3 0x461BCD PUSH1 0xE5 SHL DUP2 MSTORE PUSH1 0x4 ADD PUSH2 0x712 SWAP2 SWAP1 PUSH2 0x2E4F JUMP JUMPDEST POP PUSH2 0x12A5 PUSH2 0x25E1 JUMP JUMPDEST PUSH2 0x12AF JUMPI POP PUSH1 0x0 SWAP1 JUMP JUMPDEST PUSH1 0x40 MLOAD PUSH32 0xED21248CB703B524CC0029BB8669DF941BACA560163A3BC6AD184E7E9C268070 SWAP1 PUSH1 0x0 SWAP1 LOG1 SWAP1 JUMP JUMPDEST PUSH1 0x9 SLOAD PUSH1 0x40 MLOAD PUSH3 0x466131 PUSH1 0xE1 SHL DUP2 MSTORE ADDRESS PUSH1 0x4 DUP3 ADD MSTORE PUSH1 0x0 SWAP2 PUSH1 0x1 PUSH1 0x1 PUSH1 0xA0 SHL SUB AND SWAP1 DUP3 SWAP1 DUP3 SWAP1 PUSH3 0x8CC262 SWAP1 PUSH1 0x24 ADD PUSH1 0x20 PUSH1 0x40 MLOAD DUP1 DUP4 SUB DUP2 DUP7 GAS STATICCALL ISZERO DUP1 ISZERO PUSH2 0x1326 JUMPI RETURNDATASIZE PUSH1 0x0 DUP1 RETURNDATACOPY RETURNDATASIZE PUSH1 0x0 REVERT JUMPDEST POP POP POP POP PUSH1 0x40 MLOAD RETURNDATASIZE PUSH1 0x1F NOT PUSH1 0x1F DUP3 ADD AND DUP3 ADD DUP1 PUSH1 0x40 MSTORE POP DUP2 ADD SWAP1 PUSH2 0x134A SWAP2 SWAP1 PUSH2 0x2F3F JUMP JUMPDEST SWAP1 POP DUP1 PUSH2 0x135A JUMPI PUSH1 0x0 SWAP3 POP POP POP SWAP1 JUMP JUMPDEST PUSH1 0x0 PUSH2 0x13A1 PUSH20 0x4E3FBD56CD56C3E72C1403E103B45DB9DA5B9D2B PUSH2 0x139C PUSH1 0x6 SLOAD PUSH8 0xDE0B6B3A7640000 PUSH2 0x138D SWAP2 SWAP1 PUSH2 0x2FC5 JUMP JUMPDEST PUSH2 0x1396 DUP7 PUSH2 0x93B JUMP JUMPDEST SWAP1 PUSH2 0x2716 JUMP JUMPDEST PUSH2 0x2735 JUMP JUMPDEST PUSH2 0x13D9 PUSH20 0xD533A949740BB3306D119CC777FA900BA034CD52 PUSH2 0x139C PUSH1 0x5 SLOAD PUSH8 0xDE0B6B3A7640000 PUSH2 0x13D2 SWAP2 SWAP1 PUSH2 0x2FC5 JUMP JUMPDEST DUP7 SWAP1 PUSH2 0x2716 JUMP JUMPDEST PUSH2 0x13E3 SWAP2 SWAP1 PUSH2 0x2FDC JUMP JUMPDEST SWAP1 POP PUSH1 0x0 PUSH2 0x13F1 PUSH1 0x1 PUSH2 0x27BB JUMP JUMPDEST SWAP1 POP PUSH1 0x0 JUMPDEST DUP2 DUP2 LT ISZERO PUSH2 0x157A JUMPI PUSH1 0x40 MLOAD PUSH4 0x2061AA23 PUSH1 0xE1 SHL DUP2 MSTORE PUSH1 0x4 DUP2 ADD DUP3 SWAP1 MSTORE PUSH1 0x0 SWAP1 PUSH1 0x1 PUSH1 0x1 PUSH1 0xA0 SHL SUB DUP8 AND SWAP1 PUSH4 0x40C35446 SWAP1 PUSH1 0x24 ADD PUSH1 0x20 PUSH1 0x40 MLOAD DUP1 DUP4 SUB DUP2 DUP7 GAS STATICCALL ISZERO DUP1 ISZERO PUSH2 0x1446 JUMPI RETURNDATASIZE PUSH1 0x0 DUP1 RETURNDATACOPY RETURNDATASIZE PUSH1 0x0 REVERT JUMPDEST POP POP POP POP PUSH1 0x40 MLOAD RETURNDATASIZE PUSH1 0x1F NOT PUSH1 0x1F DUP3 ADD AND DUP3 ADD DUP1 PUSH1 0x40 MSTORE POP DUP2 ADD SWAP1 PUSH2 0x146A SWAP2 SWAP1 PUSH2 0x2FF4 JUMP JUMPDEST SWAP1 POP PUSH1 0x0 DUP2 PUSH1 0x1 PUSH1 0x1 PUSH1 0xA0 SHL SUB AND PUSH4 0xF7C618C1 PUSH1 0x40 MLOAD DUP2 PUSH4 0xFFFFFFFF AND PUSH1 0xE0 SHL DUP2 MSTORE PUSH1 0x4 ADD PUSH1 0x20 PUSH1 0x40 MLOAD DUP1 DUP4 SUB DUP2 DUP7 GAS STATICCALL ISZERO DUP1 ISZERO PUSH2 0x14AC JUMPI RETURNDATASIZE PUSH1 0x0 DUP1 RETURNDATACOPY RETURNDATASIZE PUSH1 0x0 REVERT JUMPDEST POP POP POP POP PUSH1 0x40 MLOAD RETURNDATASIZE PUSH1 0x1F NOT PUSH1 0x1F DUP3 ADD AND DUP3 ADD DUP1 PUSH1 0x40 MSTORE POP DUP2 ADD SWAP1 PUSH2 0x14D0 SWAP2 SWAP1 PUSH2 0x2FF4 JUMP JUMPDEST PUSH1 0x1 PUSH1 0x1 PUSH1 0xA0 SHL SUB DUP2 AND PUSH1 0x0 SWAP1 DUP2 MSTORE PUSH1 0x2 PUSH1 0x20 MSTORE PUSH1 0x40 SWAP1 KECCAK256 SLOAD SWAP1 SWAP2 POP PUSH2 0x14F7 JUMPI POP POP PUSH2 0x1572 JUMP JUMPDEST PUSH1 0x40 MLOAD PUSH3 0x466131 PUSH1 0xE1 SHL DUP2 MSTORE ADDRESS PUSH1 0x4 DUP3 ADD MSTORE PUSH2 0x1563 SWAP1 DUP3 SWAP1 PUSH1 0x1 PUSH1 0x1 PUSH1 0xA0 SHL SUB DUP6 AND SWAP1 PUSH3 0x8CC262 SWAP1 PUSH1 0x24 ADD PUSH1 0x20 PUSH1 0x40 MLOAD DUP1 DUP4 SUB DUP2 DUP7 GAS STATICCALL ISZERO DUP1 ISZERO PUSH2 0x153F JUMPI RETURNDATASIZE PUSH1 0x0 DUP1 RETURNDATACOPY RETURNDATASIZE PUSH1 0x0 REVERT JUMPDEST POP POP POP POP PUSH1 0x40 MLOAD RETURNDATASIZE PUSH1 0x1F NOT PUSH1 0x1F DUP3 ADD AND DUP3 ADD DUP1 PUSH1 0x40 MSTORE POP DUP2 ADD SWAP1 PUSH2 0x139C SWAP2 SWAP1 PUSH2 0x2F3F JUMP JUMPDEST PUSH2 0x156D SWAP1 DUP7 PUSH2 0x2FDC JUMP JUMPDEST SWAP5 POP POP POP JUMPDEST PUSH1 0x1 ADD PUSH2 0x13F6 JUMP JUMPDEST POP SWAP1 SWAP5 SWAP4 POP POP POP POP JUMP JUMPDEST PUSH32 0x0 PUSH1 0x40 MLOAD PUSH4 0x24745215 PUSH1 0xE2 SHL DUP2 MSTORE PUSH10 0x676F7665726E616E6365 PUSH1 0xB0 SHL PUSH1 0x4 DUP3 ADD MSTORE CALLER PUSH1 0x24 DUP3 ADD MSTORE PUSH1 0x1 PUSH1 0x1 PUSH1 0xA0 SHL SUB SWAP2 SWAP1 SWAP2 AND SWAP1 PUSH4 0x91D14854 SWAP1 PUSH1 0x44 ADD PUSH1 0x20 PUSH1 0x40 MLOAD DUP1 DUP4 SUB DUP2 DUP7 GAS STATICCALL ISZERO DUP1 ISZERO PUSH2 0x15FE JUMPI RETURNDATASIZE PUSH1 0x0 DUP1 RETURNDATACOPY RETURNDATASIZE PUSH1 0x0 REVERT JUMPDEST POP POP POP POP PUSH1 0x40 MLOAD RETURNDATASIZE PUSH1 0x1F NOT PUSH1 0x1F DUP3 ADD AND DUP3 ADD DUP1 PUSH1 0x40 MSTORE POP DUP2 ADD SWAP1 PUSH2 0x1622 SWAP2 SWAP1 PUSH2 0x2F1D JUMP JUMPDEST PUSH1 0x40 MLOAD DUP1 PUSH1 0x40 ADD PUSH1 0x40 MSTORE DUP1 PUSH1 0x13 DUP2 MSTORE PUSH1 0x20 ADD PUSH1 0x0 DUP1 MLOAD PUSH1 0x20 PUSH2 0x30A8 DUP4 CODECOPY DUP2 MLOAD SWAP2 MSTORE DUP2 MSTORE POP SWAP1 PUSH2 0x1664 JUMPI PUSH1 0x40 MLOAD PUSH3 0x461BCD PUSH1 0xE5 SHL DUP2 MSTORE PUSH1 0x4 ADD PUSH2 0x712 SWAP2 SWAP1 PUSH2 0x2E4F JUMP JUMPDEST POP PUSH1 0x8 DUP2 SWAP1 SSTORE PUSH1 0x40 MLOAD DUP2 DUP2 MSTORE PUSH32 0xB2861FED34A4613F8F25F46553A23408A3364EE9DDC4EF6714F0A81D856E41A7 SWAP1 PUSH1 0x20 ADD PUSH2 0xCEC JUMP JUMPDEST PUSH32 0x0 PUSH1 0x40 MLOAD PUSH4 0x24745215 PUSH1 0xE2 SHL DUP2 MSTORE PUSH10 0x676F7665726E616E6365 PUSH1 0xB0 SHL PUSH1 0x4 DUP3 ADD MSTORE CALLER PUSH1 0x24 DUP3 ADD MSTORE PUSH1 0x1 PUSH1 0x1 PUSH1 0xA0 SHL SUB SWAP2 SWAP1 SWAP2 AND SWAP1 PUSH4 0x91D14854 SWAP1 PUSH1 0x44 ADD PUSH1 0x20 PUSH1 0x40 MLOAD DUP1 DUP4 SUB DUP2 DUP7 GAS STATICCALL ISZERO DUP1 ISZERO PUSH2 0x1714 JUMPI RETURNDATASIZE PUSH1 0x0 DUP1 RETURNDATACOPY RETURNDATASIZE PUSH1 0x0 REVERT JUMPDEST POP POP POP POP PUSH1 0x40 MLOAD RETURNDATASIZE PUSH1 0x1F NOT PUSH1 0x1F DUP3 ADD AND DUP3 ADD DUP1 PUSH1 0x40 MSTORE POP DUP2 ADD SWAP1 PUSH2 0x1738 SWAP2 SWAP1 PUSH2 0x2F1D JUMP JUMPDEST PUSH1 0x40 MLOAD DUP1 PUSH1 0x40 ADD PUSH1 0x40 MSTORE DUP1 PUSH1 0x13 DUP2 MSTORE PUSH1 0x20 ADD PUSH1 0x0 DUP1 MLOAD PUSH1 0x20 PUSH2 0x30A8 DUP4 CODECOPY DUP2 MLOAD SWAP2 MSTORE DUP2 MSTORE POP SWAP1 PUSH2 0x177A JUMPI PUSH1 0x40 MLOAD PUSH3 0x461BCD PUSH1 0xE5 SHL DUP2 MSTORE PUSH1 0x4 ADD PUSH2 0x712 SWAP2 SWAP1 PUSH2 0x2E4F JUMP JUMPDEST POP PUSH1 0x40 DUP1 MLOAD DUP1 DUP3 ADD SWAP1 SWAP2 MSTORE PUSH1 0xE DUP2 MSTORE PUSH14 0x1A5B9D985B1A5908185B5BDD5B9D PUSH1 0x92 SHL PUSH1 0x20 DUP3 ADD MSTORE PUSH8 0xDE0B6B3A7640000 DUP3 GT ISZERO PUSH2 0x17C9 JUMPI PUSH1 0x40 MLOAD PUSH3 0x461BCD PUSH1 0xE5 SHL DUP2 MSTORE PUSH1 0x4 ADD PUSH2 0x712 SWAP2 SWAP1 PUSH2 0x2E4F JUMP JUMPDEST POP PUSH1 0x4 SLOAD PUSH1 0x1 PUSH1 0x1 PUSH1 0xA0 SHL SUB AND PUSH2 0x1822 JUMPI PUSH1 0x40 MLOAD PUSH3 0x461BCD PUSH1 0xE5 SHL DUP2 MSTORE PUSH1 0x20 PUSH1 0x4 DUP3 ADD MSTORE PUSH1 0x1D PUSH1 0x24 DUP3 ADD MSTORE PUSH32 0x436F6D6D756E6974792072657365727665206D75737420626520736574000000 PUSH1 0x44 DUP3 ADD MSTORE PUSH1 0x64 ADD PUSH2 0x712 JUMP JUMPDEST PUSH1 0x6 DUP2 SWAP1 SSTORE PUSH1 0x40 MLOAD DUP2 DUP2 MSTORE PUSH32 0x2C3C7D70A1DFBFAF74447753B8A73E1323AA10B32B9209742DB563671E14B13C SWAP1 PUSH1 0x20 ADD PUSH2 0xCEC JUMP JUMPDEST PUSH1 0x40 DUP1 MLOAD DUP1 DUP3 ADD SWAP1 SWAP2 MSTORE PUSH1 0x13 DUP2 MSTORE PUSH1 0x0 DUP1 MLOAD PUSH1 0x20 PUSH2 0x30A8 DUP4 CODECOPY DUP2 MLOAD SWAP2 MSTORE PUSH1 0x20 DUP3 ADD MSTORE CALLER PUSH1 0x1 PUSH1 0x1 PUSH1 0xA0 SHL SUB PUSH32 0x0 AND EQ PUSH2 0x18C2 JUMPI PUSH1 0x40 MLOAD PUSH3 0x461BCD PUSH1 0xE5 SHL DUP2 MSTORE PUSH1 0x4 ADD PUSH2 0x712 SWAP2 SWAP1 PUSH2 0x2E4F JUMP JUMPDEST POP PUSH1 0x3 SLOAD PUSH1 0x40 DUP1 MLOAD DUP1 DUP3 ADD SWAP1 SWAP2 MSTORE PUSH1 0x14 DUP2 MSTORE PUSH20 0x29BA3930BA32B3BC9034B99039B43ABA3237BBB7 PUSH1 0x61 SHL PUSH1 0x20 DUP3 ADD MSTORE SWAP1 PUSH1 0x1 PUSH1 0xA0 SHL SWAP1 DIV PUSH1 0xFF AND ISZERO PUSH2 0x191A JUMPI PUSH1 0x40 MLOAD PUSH3 0x461BCD PUSH1 0xE5 SHL DUP2 MSTORE PUSH1 0x4 ADD PUSH2 0x712 SWAP2 SWAP1 PUSH2 0x2E4F JUMP JUMPDEST POP PUSH1 0x3 DUP1 SLOAD PUSH1 0xFF PUSH1 0xA0 SHL NOT AND PUSH1 0x1 PUSH1 0xA0 SHL OR SWAP1 SSTORE PUSH1 0x40 MLOAD PUSH32 0x4426AA1FB73E391071491FCFE21A88B5C38A0A0333A1F6E77161470439704CF8 SWAP1 PUSH1 0x0 SWAP1 LOG1 JUMP JUMPDEST PUSH1 0x40 MLOAD PUSH4 0x21F8A721 PUSH1 0xE0 SHL DUP2 MSTORE PUSH11 0x3937B632A6B0B730B3B2B9 PUSH1 0xA9 SHL PUSH1 0x4 DUP3 ADD MSTORE PUSH1 0x0 SWAP1 PUSH1 0x1 PUSH1 0x1 PUSH1 0xA0 SHL SUB DUP4 AND SWAP1 PUSH4 0x21F8A721 SWAP1 PUSH1 0x24 ADD JUMPDEST PUSH1 0x20 PUSH1 0x40 MLOAD DUP1 DUP4 SUB DUP2 DUP7 GAS STATICCALL ISZERO DUP1 ISZERO PUSH2 0x19AF JUMPI RETURNDATASIZE PUSH1 0x0 DUP1 RETURNDATACOPY RETURNDATASIZE PUSH1 0x0 REVERT JUMPDEST POP POP POP POP PUSH1 0x40 MLOAD RETURNDATASIZE PUSH1 0x1F NOT PUSH1 0x1F DUP3 ADD AND DUP3 ADD DUP1 PUSH1 0x40 MSTORE POP DUP2 ADD SWAP1 PUSH2 0x19D3 SWAP2 SWAP1 PUSH2 0x2FF4 JUMP JUMPDEST SWAP3 SWAP2 POP POP JUMP JUMPDEST PUSH1 0x40 MLOAD PUSH4 0x21F8A721 PUSH1 0xE0 SHL DUP2 MSTORE PUSH13 0x39BBB0B83832B92937BABA32B9 PUSH1 0x99 SHL PUSH1 0x4 DUP3 ADD MSTORE PUSH1 0x0 SWAP1 PUSH1 0x1 PUSH1 0x1 PUSH1 0xA0 SHL SUB DUP4 AND SWAP1 PUSH4 0x21F8A721 SWAP1 PUSH1 0x24 ADD PUSH2 0x1992 JUMP JUMPDEST DUP1 ISZERO DUP1 PUSH2 0x1A92 JUMPI POP PUSH1 0x40 MLOAD PUSH4 0x6EB1769F PUSH1 0xE1 SHL DUP2 MSTORE ADDRESS PUSH1 0x4 DUP3 ADD MSTORE PUSH1 0x1 PUSH1 0x1 PUSH1 0xA0 SHL SUB DUP4 DUP2 AND PUSH1 0x24 DUP4 ADD MSTORE DUP5 AND SWAP1 PUSH4 0xDD62ED3E SWAP1 PUSH1 0x44 ADD PUSH1 0x20 PUSH1 0x40 MLOAD DUP1 DUP4 SUB DUP2 DUP7 GAS STATICCALL ISZERO DUP1 ISZERO PUSH2 0x1A6C JUMPI RETURNDATASIZE PUSH1 0x0 DUP1 RETURNDATACOPY RETURNDATASIZE PUSH1 0x0 REVERT JUMPDEST POP POP POP POP PUSH1 0x40 MLOAD RETURNDATASIZE PUSH1 0x1F NOT PUSH1 0x1F DUP3 ADD AND DUP3 ADD DUP1 PUSH1 0x40 MSTORE POP DUP2 ADD SWAP1 PUSH2 0x1A90 SWAP2 SWAP1 PUSH2 0x2F3F JUMP JUMPDEST ISZERO JUMPDEST PUSH2 0x1AFD JUMPI PUSH1 0x40 MLOAD PUSH3 0x461BCD PUSH1 0xE5 SHL DUP2 MSTORE PUSH1 0x20 PUSH1 0x4 DUP3 ADD MSTORE PUSH1 0x36 PUSH1 0x24 DUP3 ADD MSTORE PUSH32 0x5361666545524332303A20617070726F76652066726F6D206E6F6E2D7A65726F PUSH1 0x44 DUP3 ADD MSTORE PUSH22 0x20746F206E6F6E2D7A65726F20616C6C6F77616E6365 PUSH1 0x50 SHL PUSH1 0x64 DUP3 ADD MSTORE PUSH1 0x84 ADD PUSH2 0x712 JUMP JUMPDEST PUSH1 0x40 MLOAD PUSH1 0x1 PUSH1 0x1 PUSH1 0xA0 SHL SUB DUP4 AND PUSH1 0x24 DUP3 ADD MSTORE PUSH1 0x44 DUP2 ADD DUP3 SWAP1 MSTORE PUSH2 0x1B60 SWAP1 DUP5 SWAP1 PUSH4 0x95EA7B3 PUSH1 0xE0 SHL SWAP1 PUSH1 0x64 ADD JUMPDEST PUSH1 0x40 DUP1 MLOAD PUSH1 0x1F NOT DUP2 DUP5 SUB ADD DUP2 MSTORE SWAP2 SWAP1 MSTORE PUSH1 0x20 DUP2 ADD DUP1 MLOAD PUSH1 0x1 PUSH1 0x1 PUSH1 0xE0 SHL SUB AND PUSH1 0x1 PUSH1 0x1 PUSH1 0xE0 SHL SUB NOT SWAP1 SWAP4 AND SWAP3 SWAP1 SWAP3 OR SWAP1 SWAP2 MSTORE PUSH2 0x27C5 JUMP JUMPDEST POP POP POP JUMP JUMPDEST PUSH1 0x60 PUSH2 0x1B74 DUP5 DUP5 PUSH1 0x0 DUP6 PUSH2 0x2897 JUMP JUMPDEST SWAP1 POP JUMPDEST SWAP4 SWAP3 POP POP POP JUMP JUMPDEST PUSH1 0x0 PUSH2 0x1B77 DUP4 PUSH1 0x1 PUSH1 0x1 PUSH1 0xA0 SHL SUB DUP5 AND PUSH2 0x29C8 JUMP JUMPDEST PUSH1 0x0 PUSH2 0x62B PUSH32 0x0 PUSH1 0x1 PUSH1 0x1 PUSH1 0xA0 SHL SUB AND PUSH2 0x19D9 JUMP JUMPDEST PUSH1 0x0 SELFBALANCE DUP3 DUP2 LT PUSH2 0x1CC1 JUMPI PUSH1 0x40 MLOAD PUSH1 0x1 PUSH1 0x1 PUSH1 0xA0 SHL SUB PUSH32 0x0 AND SWAP1 DUP5 SWAP1 PUSH1 0x0 DUP2 DUP2 DUP2 DUP6 DUP8 GAS CALL SWAP3 POP POP POP RETURNDATASIZE DUP1 PUSH1 0x0 DUP2 EQ PUSH2 0x1C3A JUMPI PUSH1 0x40 MLOAD SWAP2 POP PUSH1 0x1F NOT PUSH1 0x3F RETURNDATASIZE ADD AND DUP3 ADD PUSH1 0x40 MSTORE RETURNDATASIZE DUP3 MSTORE RETURNDATASIZE PUSH1 0x0 PUSH1 0x20 DUP5 ADD RETURNDATACOPY PUSH2 0x1C3F JUMP JUMPDEST PUSH1 0x60 SWAP2 POP JUMPDEST POP POP PUSH1 0x40 DUP1 MLOAD DUP1 DUP3 ADD SWAP1 SWAP2 MSTORE PUSH1 0xF DUP2 MSTORE PUSH15 0x1D1C985B9CD9995C8819985A5B1959 PUSH1 0x8A SHL PUSH1 0x20 DUP3 ADD MSTORE SWAP1 SWAP3 POP DUP3 PUSH2 0x1C88 JUMPI PUSH1 0x40 MLOAD PUSH3 0x461BCD PUSH1 0xE5 SHL DUP2 MSTORE PUSH1 0x4 ADD PUSH2 0x712 SWAP2 SWAP1 PUSH2 0x2E4F JUMP JUMPDEST POP PUSH1 0x40 MLOAD DUP4 DUP2 MSTORE PUSH32 0x5B6B431D4476A211BB7D41C20D1AAB9AE2321DEEE0D20BE3D9FC9B1093FA6E3D SWAP1 PUSH1 0x20 ADD PUSH1 0x40 MLOAD DUP1 SWAP2 SUB SWAP1 LOG1 POP POP POP JUMP JUMPDEST DUP1 DUP4 SUB PUSH1 0x0 PUSH2 0x1CCF DUP3 PUSH2 0x2A17 JUMP JUMPDEST SWAP1 POP PUSH1 0x0 PUSH2 0x1CDB PUSH2 0x241A JUMP JUMPDEST PUSH2 0x1CE5 SWAP1 DUP4 PUSH2 0x2FC5 JUMP JUMPDEST PUSH1 0x9 SLOAD PUSH1 0x40 MLOAD PUSH4 0x61973901 PUSH1 0xE1 SHL DUP2 MSTORE PUSH1 0x4 DUP2 ADD DUP4 SWAP1 MSTORE PUSH1 0x0 PUSH1 0x24 DUP3 ADD MSTORE SWAP2 SWAP3 POP PUSH1 0x1 PUSH1 0x1 PUSH1 0xA0 SHL SUB AND SWAP1 PUSH4 0xC32E7202 SWAP1 PUSH1 0x44 ADD PUSH1 0x20 PUSH1 0x40 MLOAD DUP1 DUP4 SUB DUP2 PUSH1 0x0 DUP8 GAS CALL ISZERO DUP1 ISZERO PUSH2 0x1D38 JUMPI RETURNDATASIZE PUSH1 0x0 DUP1 RETURNDATACOPY RETURNDATASIZE PUSH1 0x0 REVERT JUMPDEST POP POP POP POP PUSH1 0x40 MLOAD RETURNDATASIZE PUSH1 0x1F NOT PUSH1 0x1F DUP3 ADD AND DUP3 ADD DUP1 PUSH1 0x40 MSTORE POP DUP2 ADD SWAP1 PUSH2 0x1D5C SWAP2 SWAP1 PUSH2 0x2F1D JUMP JUMPDEST PUSH2 0x1D68 JUMPI POP POP POP POP POP POP JUMP JUMPDEST PUSH2 0x1D70 PUSH2 0x2E01 JUMP JUMPDEST DUP4 DUP2 PUSH1 0xD SLOAD PUSH1 0x2 DUP2 LT PUSH2 0x1D85 JUMPI PUSH2 0x1D85 PUSH2 0x3011 JUMP JUMPDEST PUSH1 0x20 MUL ADD MSTORE PUSH1 0xB SLOAD PUSH1 0x40 MLOAD PUSH4 0xE3103273 PUSH1 0xE0 SHL DUP2 MSTORE PUSH1 0x1 PUSH1 0x1 PUSH1 0xA0 SHL SUB SWAP1 SWAP2 AND SWAP1 PUSH4 0xE3103273 SWAP1 PUSH2 0x1DBC SWAP1 DUP5 SWAP1 DUP8 SWAP1 PUSH1 0x4 ADD PUSH2 0x3027 JUMP JUMPDEST PUSH1 0x0 PUSH1 0x40 MLOAD DUP1 DUP4 SUB DUP2 PUSH1 0x0 DUP8 DUP1 EXTCODESIZE ISZERO DUP1 ISZERO PUSH2 0x1DD6 JUMPI PUSH1 0x0 DUP1 REVERT JUMPDEST POP GAS CALL ISZERO DUP1 ISZERO PUSH2 0x1DEA JUMPI RETURNDATASIZE PUSH1 0x0 DUP1 RETURNDATACOPY RETURNDATASIZE PUSH1 0x0 REVERT JUMPDEST POP POP PUSH1 0x40 MLOAD PUSH1 0x1 PUSH1 0x1 PUSH1 0xA0 SHL SUB PUSH32 0x0 AND SWAP3 POP DUP10 SWAP2 POP PUSH1 0x0 DUP2 DUP2 DUP2 DUP6 DUP8 GAS CALL SWAP3 POP POP POP RETURNDATASIZE DUP1 PUSH1 0x0 DUP2 EQ PUSH2 0x1E57 JUMPI PUSH1 0x40 MLOAD SWAP2 POP PUSH1 0x1F NOT PUSH1 0x3F RETURNDATASIZE ADD AND DUP3 ADD PUSH1 0x40 MSTORE RETURNDATASIZE DUP3 MSTORE RETURNDATASIZE PUSH1 0x0 PUSH1 0x20 DUP5 ADD RETURNDATACOPY PUSH2 0x1E5C JUMP JUMPDEST PUSH1 0x60 SWAP2 POP JUMPDEST POP POP PUSH1 0x40 DUP1 MLOAD DUP1 DUP3 ADD SWAP1 SWAP2 MSTORE PUSH1 0xF DUP2 MSTORE PUSH15 0x1D1C985B9CD9995C8819985A5B1959 PUSH1 0x8A SHL PUSH1 0x20 DUP3 ADD MSTORE SWAP1 SWAP7 POP DUP7 PUSH2 0x1EA5 JUMPI PUSH1 0x40 MLOAD PUSH3 0x461BCD PUSH1 0xE5 SHL DUP2 MSTORE PUSH1 0x4 ADD PUSH2 0x712 SWAP2 SWAP1 PUSH2 0x2E4F JUMP JUMPDEST POP POP POP POP POP POP POP POP JUMP JUMPDEST PUSH1 0x0 DUP2 DUP4 DUP2 PUSH2 0x1EC0 JUMPI PUSH2 0x1EC0 PUSH2 0x2F8D JUMP JUMPDEST DIV SWAP4 SWAP3 POP POP POP JUMP JUMPDEST PUSH1 0x0 PUSH2 0x1B77 DUP4 PUSH1 0x1 PUSH1 0x1 PUSH1 0xA0 SHL SUB DUP5 AND PUSH2 0x2A3B JUMP JUMPDEST PUSH1 0x9 SLOAD PUSH1 0x40 DUP1 MLOAD PUSH4 0x1E8C5C89 PUSH1 0xE1 SHL DUP2 MSTORE SWAP1 MLOAD PUSH1 0x0 SWAP3 SELFBALANCE SWAP3 PUSH1 0x1 PUSH1 0x1 PUSH1 0xA0 SHL SUB SWAP1 SWAP2 AND SWAP2 PUSH4 0x3D18B912 SWAP2 PUSH1 0x4 DUP1 DUP3 ADD SWAP3 DUP8 SWAP3 SWAP1 SWAP2 SWAP1 DUP3 SWAP1 SUB ADD DUP2 DUP4 DUP8 DUP1 EXTCODESIZE ISZERO DUP1 ISZERO PUSH2 0x1F27 JUMPI PUSH1 0x0 DUP1 REVERT JUMPDEST POP GAS CALL ISZERO DUP1 ISZERO PUSH2 0x1F3B JUMPI RETURNDATASIZE PUSH1 0x0 DUP1 RETURNDATACOPY RETURNDATASIZE PUSH1 0x0 REVERT JUMPDEST POP POP POP POP PUSH2 0x1F47 PUSH2 0x2B2E JUMP JUMPDEST PUSH1 0x0 PUSH2 0x1F51 PUSH2 0x1B93 JUMP JUMPDEST PUSH1 0x40 MLOAD PUSH4 0x3FF37E8F PUSH1 0xE0 SHL DUP2 MSTORE PUSH20 0x4E3FBD56CD56C3E72C1403E103B45DB9DA5B9D2B PUSH1 0x4 DUP3 ADD MSTORE PUSH20 0xC02AAA39B223FE8D0A0E5C4F27EAD9083C756CC2 PUSH1 0x24 DUP3 ADD MSTORE SWAP1 SWAP2 POP PUSH1 0x1 PUSH1 0x1 PUSH1 0xA0 SHL SUB DUP3 AND SWAP1 PUSH4 0x3FF37E8F SWAP1 PUSH1 0x44 ADD PUSH1 0x20 PUSH1 0x40 MLOAD DUP1 DUP4 SUB DUP2 PUSH1 0x0 DUP8 GAS CALL ISZERO DUP1 ISZERO PUSH2 0x1FC8 JUMPI RETURNDATASIZE PUSH1 0x0 DUP1 RETURNDATACOPY RETURNDATASIZE PUSH1 0x0 REVERT JUMPDEST POP POP POP POP PUSH1 0x40 MLOAD RETURNDATASIZE PUSH1 0x1F NOT PUSH1 0x1F DUP3 ADD AND DUP3 ADD DUP1 PUSH1 0x40 MSTORE POP DUP2 ADD SWAP1 PUSH2 0x1FEC SWAP2 SWAP1 PUSH2 0x2F3F JUMP JUMPDEST POP PUSH1 0x40 MLOAD PUSH4 0x3FF37E8F PUSH1 0xE0 SHL DUP2 MSTORE PUSH20 0xD533A949740BB3306D119CC777FA900BA034CD52 PUSH1 0x4 DUP3 ADD MSTORE PUSH20 0xC02AAA39B223FE8D0A0E5C4F27EAD9083C756CC2 PUSH1 0x24 DUP3 ADD MSTORE PUSH1 0x1 PUSH1 0x1 PUSH1 0xA0 SHL SUB DUP3 AND SWAP1 PUSH4 0x3FF37E8F SWAP1 PUSH1 0x44 ADD PUSH1 0x20 PUSH1 0x40 MLOAD DUP1 DUP4 SUB DUP2 PUSH1 0x0 DUP8 GAS CALL ISZERO DUP1 ISZERO PUSH2 0x2061 JUMPI RETURNDATASIZE PUSH1 0x0 DUP1 RETURNDATACOPY RETURNDATASIZE PUSH1 0x0 REVERT JUMPDEST POP POP POP POP PUSH1 0x40 MLOAD RETURNDATASIZE PUSH1 0x1F NOT PUSH1 0x1F DUP3 ADD AND DUP3 ADD DUP1 PUSH1 0x40 MSTORE POP DUP2 ADD SWAP1 PUSH2 0x2085 SWAP2 SWAP1 PUSH2 0x2F3F JUMP JUMPDEST POP PUSH1 0x0 PUSH2 0x2092 PUSH1 0x1 PUSH2 0x27BB JUMP JUMPDEST SWAP1 POP PUSH1 0x0 JUMPDEST DUP2 DUP2 LT ISZERO PUSH2 0x2146 JUMPI PUSH1 0x1 PUSH1 0x1 PUSH1 0xA0 SHL SUB DUP4 AND PUSH4 0x3FF37E8F PUSH2 0x20B9 PUSH1 0x1 DUP5 PUSH2 0x2C8B JUMP JUMPDEST PUSH1 0x40 MLOAD PUSH1 0x1 PUSH1 0x1 PUSH1 0xE0 SHL SUB NOT PUSH1 0xE0 DUP5 SWAP1 SHL AND DUP2 MSTORE PUSH1 0x1 PUSH1 0x1 PUSH1 0xA0 SHL SUB SWAP1 SWAP2 AND PUSH1 0x4 DUP3 ADD MSTORE PUSH20 0xC02AAA39B223FE8D0A0E5C4F27EAD9083C756CC2 PUSH1 0x24 DUP3 ADD MSTORE PUSH1 0x44 ADD PUSH1 0x20 PUSH1 0x40 MLOAD DUP1 DUP4 SUB DUP2 PUSH1 0x0 DUP8 GAS CALL ISZERO DUP1 ISZERO PUSH2 0x2119 JUMPI RETURNDATASIZE PUSH1 0x0 DUP1 RETURNDATACOPY RETURNDATASIZE PUSH1 0x0 REVERT JUMPDEST POP POP POP POP PUSH1 0x40 MLOAD RETURNDATASIZE PUSH1 0x1F NOT PUSH1 0x1F DUP3 ADD AND DUP3 ADD DUP1 PUSH1 0x40 MSTORE POP DUP2 ADD SWAP1 PUSH2 0x213D SWAP2 SWAP1 PUSH2 0x2F3F JUMP JUMPDEST POP PUSH1 0x1 ADD PUSH2 0x2097 JUMP JUMPDEST POP PUSH1 0x3 SLOAD PUSH1 0x40 MLOAD PUSH4 0x3FF37E8F PUSH1 0xE0 SHL DUP2 MSTORE PUSH20 0xC02AAA39B223FE8D0A0E5C4F27EAD9083C756CC2 PUSH1 0x4 DUP3 ADD MSTORE PUSH1 0x1 PUSH1 0x1 PUSH1 0xA0 SHL SUB SWAP2 DUP3 AND PUSH1 0x24 DUP3 ADD MSTORE SWAP1 DUP4 AND SWAP1 PUSH4 0x3FF37E8F SWAP1 PUSH1 0x44 ADD PUSH1 0x20 PUSH1 0x40 MLOAD DUP1 DUP4 SUB DUP2 PUSH1 0x0 DUP8 GAS CALL ISZERO DUP1 ISZERO PUSH2 0x21AD JUMPI RETURNDATASIZE PUSH1 0x0 DUP1 RETURNDATACOPY RETURNDATASIZE PUSH1 0x0 REVERT JUMPDEST POP POP POP POP PUSH1 0x40 MLOAD RETURNDATASIZE PUSH1 0x1F NOT PUSH1 0x1F DUP3 ADD AND DUP3 ADD DUP1 PUSH1 0x40 MSTORE POP DUP2 ADD SWAP1 PUSH2 0x21D1 SWAP2 SWAP1 PUSH2 0x2F3F JUMP JUMPDEST POP PUSH1 0x0 PUSH2 0x21DE DUP5 SELFBALANCE PUSH2 0x2FC5 JUMP JUMPDEST SWAP1 POP PUSH32 0x80F97F878E16410266694F134DDF012F2BE424F54F8B5CAFA107ECCC51D00D58 DUP2 PUSH1 0x40 MLOAD PUSH2 0x2211 SWAP2 DUP2 MSTORE PUSH1 0x20 ADD SWAP1 JUMP JUMPDEST PUSH1 0x40 MLOAD DUP1 SWAP2 SUB SWAP1 LOG1 SWAP5 SWAP4 POP POP POP POP JUMP JUMPDEST PUSH1 0x0 DUP1 PUSH2 0x222C PUSH2 0x2488 JUMP JUMPDEST SWAP1 POP DUP1 ISZERO PUSH2 0x22B6 JUMPI PUSH1 0x9 SLOAD PUSH1 0x40 MLOAD PUSH4 0x61973901 PUSH1 0xE1 SHL DUP2 MSTORE PUSH1 0x4 DUP2 ADD DUP4 SWAP1 MSTORE PUSH1 0x0 PUSH1 0x24 DUP3 ADD MSTORE PUSH1 0x1 PUSH1 0x1 PUSH1 0xA0 SHL SUB SWAP1 SWAP2 AND SWAP1 PUSH4 0xC32E7202 SWAP1 PUSH1 0x44 ADD PUSH1 0x20 PUSH1 0x40 MLOAD DUP1 DUP4 SUB DUP2 PUSH1 0x0 DUP8 GAS CALL ISZERO DUP1 ISZERO PUSH2 0x2286 JUMPI RETURNDATASIZE PUSH1 0x0 DUP1 RETURNDATACOPY RETURNDATASIZE PUSH1 0x0 REVERT JUMPDEST POP POP POP POP PUSH1 0x40 MLOAD RETURNDATASIZE PUSH1 0x1F NOT PUSH1 0x1F DUP3 ADD AND DUP3 ADD DUP1 PUSH1 0x40 MSTORE POP DUP2 ADD SWAP1 PUSH2 0x22AA SWAP2 SWAP1 PUSH2 0x2F1D JUMP JUMPDEST PUSH2 0x22B6 JUMPI PUSH1 0x0 SWAP2 POP POP SWAP1 JUMP JUMPDEST PUSH1 0x0 PUSH2 0x22C0 PUSH2 0x241A JUMP JUMPDEST SWAP1 POP DUP1 ISZERO PUSH2 0x234D JUMPI PUSH1 0xB SLOAD PUSH1 0xD SLOAD PUSH1 0x1 PUSH1 0x1 PUSH1 0xA0 SHL SUB SWAP1 SWAP2 AND SWAP1 PUSH4 0x1A4D01D2 SWAP1 DUP4 SWAP1 PUSH2 0x22EB DUP3 PUSH2 0x2C97 JUMP JUMPDEST PUSH1 0x40 MLOAD PUSH1 0x1 PUSH1 0x1 PUSH1 0xE0 SHL SUB NOT PUSH1 0xE0 DUP7 SWAP1 SHL AND DUP2 MSTORE PUSH1 0x4 DUP2 ADD SWAP4 SWAP1 SWAP4 MSTORE PUSH1 0xF SWAP2 SWAP1 SWAP2 SIGNEXTEND PUSH1 0x24 DUP4 ADD MSTORE PUSH1 0x44 DUP3 ADD MSTORE PUSH1 0x64 ADD PUSH1 0x0 PUSH1 0x40 MLOAD DUP1 DUP4 SUB DUP2 PUSH1 0x0 DUP8 DUP1 EXTCODESIZE ISZERO DUP1 ISZERO PUSH2 0x2334 JUMPI PUSH1 0x0 DUP1 REVERT JUMPDEST POP GAS CALL ISZERO DUP1 ISZERO PUSH2 0x2348 JUMPI RETURNDATASIZE PUSH1 0x0 DUP1 RETURNDATACOPY RETURNDATASIZE PUSH1 0x0 REVERT JUMPDEST POP POP POP POP JUMPDEST SELFBALANCE DUP1 PUSH2 0x235D JUMPI PUSH1 0x0 SWAP4 POP POP POP POP SWAP1 JUMP JUMPDEST PUSH1 0x0 PUSH32 0x0 PUSH1 0x1 PUSH1 0x1 PUSH1 0xA0 SHL SUB AND DUP3 PUSH1 0x40 MLOAD PUSH1 0x0 PUSH1 0x40 MLOAD DUP1 DUP4 SUB DUP2 DUP6 DUP8 GAS CALL SWAP3 POP POP POP RETURNDATASIZE DUP1 PUSH1 0x0 DUP2 EQ PUSH2 0x23CA JUMPI PUSH1 0x40 MLOAD SWAP2 POP PUSH1 0x1F NOT PUSH1 0x3F RETURNDATASIZE ADD AND DUP3 ADD PUSH1 0x40 MSTORE RETURNDATASIZE DUP3 MSTORE RETURNDATASIZE PUSH1 0x0 PUSH1 0x20 DUP5 ADD RETURNDATACOPY PUSH2 0x23CF JUMP JUMPDEST PUSH1 0x60 SWAP2 POP JUMPDEST POP POP SWAP1 POP DUP1 PUSH1 0x40 MLOAD DUP1 PUSH1 0x40 ADD PUSH1 0x40 MSTORE DUP1 PUSH1 0xF DUP2 MSTORE PUSH1 0x20 ADD PUSH15 0x1D1C985B9CD9995C8819985A5B1959 PUSH1 0x8A SHL DUP2 MSTORE POP SWAP1 PUSH2 0x157A JUMPI PUSH1 0x40 MLOAD PUSH3 0x461BCD PUSH1 0xE5 SHL DUP2 MSTORE PUSH1 0x4 ADD PUSH2 0x712 SWAP2 SWAP1 PUSH2 0x2E4F JUMP JUMPDEST PUSH1 0xA SLOAD PUSH1 0x40 MLOAD PUSH4 0x70A08231 PUSH1 0xE0 SHL DUP2 MSTORE ADDRESS PUSH1 0x4 DUP3 ADD MSTORE PUSH1 0x0 SWAP2 PUSH1 0x1 PUSH1 0x1 PUSH1 0xA0 SHL SUB AND SWAP1 PUSH4 0x70A08231 SWAP1 PUSH1 0x24 ADD JUMPDEST PUSH1 0x20 PUSH1 0x40 MLOAD DUP1 DUP4 SUB DUP2 DUP7 GAS STATICCALL ISZERO DUP1 ISZERO PUSH2 0x2464 JUMPI RETURNDATASIZE PUSH1 0x0 DUP1 RETURNDATACOPY RETURNDATASIZE PUSH1 0x0 REVERT JUMPDEST POP POP POP POP PUSH1 0x40 MLOAD RETURNDATASIZE PUSH1 0x1F NOT PUSH1 0x1F DUP3 ADD AND DUP3 ADD DUP1 PUSH1 0x40 MSTORE POP DUP2 ADD SWAP1 PUSH2 0x62B SWAP2 SWAP1 PUSH2 0x2F3F JUMP JUMPDEST PUSH1 0x9 SLOAD PUSH1 0x40 MLOAD PUSH4 0x70A08231 PUSH1 0xE0 SHL DUP2 MSTORE ADDRESS PUSH1 0x4 DUP3 ADD MSTORE PUSH1 0x0 SWAP2 PUSH1 0x1 PUSH1 0x1 PUSH1 0xA0 SHL SUB AND SWAP1 PUSH4 0x70A08231 SWAP1 PUSH1 0x24 ADD PUSH2 0x2447 JUMP JUMPDEST PUSH1 0x0 PUSH2 0x19D3 PUSH1 0xB PUSH1 0x0 SWAP1 SLOAD SWAP1 PUSH2 0x100 EXP SWAP1 DIV PUSH1 0x1 PUSH1 0x1 PUSH1 0xA0 SHL SUB AND PUSH1 0x1 PUSH1 0x1 PUSH1 0xA0 SHL SUB AND PUSH4 0xBB7B8B80 PUSH1 0x40 MLOAD DUP2 PUSH4 0xFFFFFFFF AND PUSH1 0xE0 SHL DUP2 MSTORE PUSH1 0x4 ADD PUSH1 0x20 PUSH1 0x40 MLOAD DUP1 DUP4 SUB DUP2 DUP7 GAS STATICCALL ISZERO DUP1 ISZERO PUSH2 0x2511 JUMPI RETURNDATASIZE PUSH1 0x0 DUP1 RETURNDATACOPY RETURNDATASIZE PUSH1 0x0 REVERT JUMPDEST POP POP POP POP PUSH1 0x40 MLOAD RETURNDATASIZE PUSH1 0x1F NOT PUSH1 0x1F DUP3 ADD AND DUP3 ADD DUP1 PUSH1 0x40 MSTORE POP DUP2 ADD SWAP1 PUSH2 0x2535 SWAP2 SWAP1 PUSH2 0x2F3F JUMP JUMPDEST DUP4 SWAP1 PUSH2 0x2716 JUMP JUMPDEST PUSH1 0x60 PUSH1 0x0 PUSH2 0x2549 DUP4 PUSH2 0x27BB JUMP JUMPDEST SWAP1 POP PUSH1 0x0 DUP2 PUSH8 0xFFFFFFFFFFFFFFFF DUP2 GT ISZERO PUSH2 0x2566 JUMPI PUSH2 0x2566 PUSH2 0x305F JUMP JUMPDEST PUSH1 0x40 MLOAD SWAP1 DUP1 DUP3 MSTORE DUP1 PUSH1 0x20 MUL PUSH1 0x20 ADD DUP3 ADD PUSH1 0x40 MSTORE DUP1 ISZERO PUSH2 0x258F JUMPI DUP2 PUSH1 0x20 ADD PUSH1 0x20 DUP3 MUL DUP1 CALLDATASIZE DUP4 CALLDATACOPY ADD SWAP1 POP JUMPDEST POP SWAP1 POP PUSH1 0x0 JUMPDEST DUP3 DUP2 LT ISZERO PUSH2 0x25D9 JUMPI PUSH2 0x25A7 DUP6 DUP3 PUSH2 0x2C8B JUMP JUMPDEST DUP3 DUP3 DUP2 MLOAD DUP2 LT PUSH2 0x25B9 JUMPI PUSH2 0x25B9 PUSH2 0x3011 JUMP JUMPDEST PUSH1 0x1 PUSH1 0x1 PUSH1 0xA0 SHL SUB SWAP1 SWAP3 AND PUSH1 0x20 SWAP3 DUP4 MUL SWAP2 SWAP1 SWAP2 ADD SWAP1 SWAP2 ADD MSTORE PUSH1 0x1 ADD PUSH2 0x2595 JUMP JUMPDEST POP SWAP4 SWAP3 POP POP POP JUMP JUMPDEST PUSH1 0x0 SELFBALANCE DUP1 PUSH2 0x25F1 JUMPI PUSH1 0x0 SWAP2 POP POP SWAP1 JUMP JUMPDEST PUSH2 0x25F9 PUSH2 0x2E01 JUMP JUMPDEST DUP2 DUP2 PUSH1 0xD SLOAD PUSH1 0x2 DUP2 LT PUSH2 0x260E JUMPI PUSH2 0x260E PUSH2 0x3011 JUMP JUMPDEST PUSH1 0x20 MUL ADD MSTORE PUSH1 0xB SLOAD PUSH1 0x1 PUSH1 0x1 PUSH1 0xA0 SHL SUB AND PUSH4 0xB4C7E4D DUP4 DUP4 PUSH2 0x262F DUP3 PUSH2 0x2CBB JUMP JUMPDEST PUSH1 0x40 MLOAD DUP5 PUSH4 0xFFFFFFFF AND PUSH1 0xE0 SHL DUP2 MSTORE PUSH1 0x4 ADD PUSH2 0x264C SWAP3 SWAP2 SWAP1 PUSH2 0x3027 JUMP JUMPDEST PUSH1 0x0 PUSH1 0x40 MLOAD DUP1 DUP4 SUB DUP2 DUP6 DUP9 DUP1 EXTCODESIZE ISZERO DUP1 ISZERO PUSH2 0x2665 JUMPI PUSH1 0x0 DUP1 REVERT JUMPDEST POP GAS CALL ISZERO DUP1 ISZERO PUSH2 0x2679 JUMPI RETURNDATASIZE PUSH1 0x0 DUP1 RETURNDATACOPY RETURNDATASIZE PUSH1 0x0 REVERT JUMPDEST POP POP PUSH1 0xC SLOAD PUSH1 0x40 MLOAD PUSH4 0x303ACFE7 PUSH1 0xE1 SHL DUP2 MSTORE PUSH1 0x4 DUP2 ADD SWAP2 SWAP1 SWAP2 MSTORE PUSH1 0x1 PUSH1 0x24 DUP3 ADD MSTORE PUSH20 0xF403C135812408BFBE8713B5A23A04B3D48AAE31 SWAP4 POP PUSH4 0x60759FCE SWAP3 POP PUSH1 0x44 ADD SWAP1 POP PUSH1 0x20 PUSH1 0x40 MLOAD DUP1 DUP4 SUB DUP2 PUSH1 0x0 DUP8 GAS CALL ISZERO DUP1 ISZERO PUSH2 0x26DC JUMPI RETURNDATASIZE PUSH1 0x0 DUP1 RETURNDATACOPY RETURNDATASIZE PUSH1 0x0 REVERT JUMPDEST POP POP POP POP PUSH1 0x40 MLOAD RETURNDATASIZE PUSH1 0x1F NOT PUSH1 0x1F DUP3 ADD AND DUP3 ADD DUP1 PUSH1 0x40 MSTORE POP DUP2 ADD SWAP1 PUSH2 0x2700 SWAP2 SWAP1 PUSH2 0x2F1D JUMP JUMPDEST PUSH2 0x270D JUMPI PUSH1 0x0 SWAP3 POP POP POP SWAP1 JUMP JUMPDEST PUSH1 0x1 SWAP3 POP POP POP SWAP1 JUMP JUMPDEST PUSH1 0x0 PUSH8 0xDE0B6B3A7640000 PUSH2 0x272B DUP4 DUP6 PUSH2 0x2F6E JUMP JUMPDEST PUSH2 0x1B77 SWAP2 SWAP1 PUSH2 0x2FA3 JUMP JUMPDEST PUSH1 0x0 PUSH2 0x273F PUSH2 0x1B93 JUMP JUMPDEST PUSH1 0x3 SLOAD PUSH1 0x40 MLOAD PUSH4 0x25503329 PUSH1 0xE1 SHL DUP2 MSTORE PUSH1 0x1 PUSH1 0x1 PUSH1 0xA0 SHL SUB DUP7 DUP2 AND PUSH1 0x4 DUP4 ADD MSTORE SWAP2 DUP3 AND PUSH1 0x24 DUP3 ADD MSTORE PUSH1 0x44 DUP2 ADD DUP6 SWAP1 MSTORE SWAP2 AND SWAP1 PUSH4 0x4AA06652 SWAP1 PUSH1 0x64 ADD PUSH1 0x20 PUSH1 0x40 MLOAD DUP1 DUP4 SUB DUP2 DUP7 GAS STATICCALL ISZERO DUP1 ISZERO PUSH2 0x2797 JUMPI RETURNDATASIZE PUSH1 0x0 DUP1 RETURNDATACOPY RETURNDATASIZE PUSH1 0x0 REVERT JUMPDEST POP POP POP POP PUSH1 0x40 MLOAD RETURNDATASIZE PUSH1 0x1F NOT PUSH1 0x1F DUP3 ADD AND DUP3 ADD DUP1 PUSH1 0x40 MSTORE POP DUP2 ADD SWAP1 PUSH2 0x1B77 SWAP2 SWAP1 PUSH2 0x2F3F JUMP JUMPDEST PUSH1 0x0 PUSH2 0x19D3 DUP3 SLOAD SWAP1 JUMP JUMPDEST PUSH1 0x0 PUSH2 0x281A DUP3 PUSH1 0x40 MLOAD DUP1 PUSH1 0x40 ADD PUSH1 0x40 MSTORE DUP1 PUSH1 0x20 DUP2 MSTORE PUSH1 0x20 ADD PUSH32 0x5361666545524332303A206C6F772D6C6576656C2063616C6C206661696C6564 DUP2 MSTORE POP DUP6 PUSH1 0x1 PUSH1 0x1 PUSH1 0xA0 SHL SUB AND PUSH2 0x1B65 SWAP1 SWAP3 SWAP2 SWAP1 PUSH4 0xFFFFFFFF AND JUMP JUMPDEST DUP1 MLOAD SWAP1 SWAP2 POP ISZERO PUSH2 0x1B60 JUMPI DUP1 DUP1 PUSH1 0x20 ADD SWAP1 MLOAD DUP2 ADD SWAP1 PUSH2 0x2838 SWAP2 SWAP1 PUSH2 0x2F1D JUMP JUMPDEST PUSH2 0x1B60 JUMPI PUSH1 0x40 MLOAD PUSH3 0x461BCD PUSH1 0xE5 SHL DUP2 MSTORE PUSH1 0x20 PUSH1 0x4 DUP3 ADD MSTORE PUSH1 0x2A PUSH1 0x24 DUP3 ADD MSTORE PUSH32 0x5361666545524332303A204552433230206F7065726174696F6E20646964206E PUSH1 0x44 DUP3 ADD MSTORE PUSH10 0x1BDD081CDD58D8D95959 PUSH1 0xB2 SHL PUSH1 0x64 DUP3 ADD MSTORE PUSH1 0x84 ADD PUSH2 0x712 JUMP JUMPDEST PUSH1 0x60 DUP3 SELFBALANCE LT ISZERO PUSH2 0x28F8 JUMPI PUSH1 0x40 MLOAD PUSH3 0x461BCD PUSH1 0xE5 SHL DUP2 MSTORE PUSH1 0x20 PUSH1 0x4 DUP3 ADD MSTORE PUSH1 0x26 PUSH1 0x24 DUP3 ADD MSTORE PUSH32 0x416464726573733A20696E73756666696369656E742062616C616E636520666F PUSH1 0x44 DUP3 ADD MSTORE PUSH6 0x1C8818D85B1B PUSH1 0xD2 SHL PUSH1 0x64 DUP3 ADD MSTORE PUSH1 0x84 ADD PUSH2 0x712 JUMP JUMPDEST PUSH1 0x1 PUSH1 0x1 PUSH1 0xA0 SHL SUB DUP6 AND EXTCODESIZE PUSH2 0x294F JUMPI PUSH1 0x40 MLOAD PUSH3 0x461BCD PUSH1 0xE5 SHL DUP2 MSTORE PUSH1 0x20 PUSH1 0x4 DUP3 ADD MSTORE PUSH1 0x1D PUSH1 0x24 DUP3 ADD MSTORE PUSH32 0x416464726573733A2063616C6C20746F206E6F6E2D636F6E7472616374000000 PUSH1 0x44 DUP3 ADD MSTORE PUSH1 0x64 ADD PUSH2 0x712 JUMP JUMPDEST PUSH1 0x0 DUP1 DUP7 PUSH1 0x1 PUSH1 0x1 PUSH1 0xA0 SHL SUB AND DUP6 DUP8 PUSH1 0x40 MLOAD PUSH2 0x296B SWAP2 SWAP1 PUSH2 0x3075 JUMP JUMPDEST PUSH1 0x0 PUSH1 0x40 MLOAD DUP1 DUP4 SUB DUP2 DUP6 DUP8 GAS CALL SWAP3 POP POP POP RETURNDATASIZE DUP1 PUSH1 0x0 DUP2 EQ PUSH2 0x29A8 JUMPI PUSH1 0x40 MLOAD SWAP2 POP PUSH1 0x1F NOT PUSH1 0x3F RETURNDATASIZE ADD AND DUP3 ADD PUSH1 0x40 MSTORE RETURNDATASIZE DUP3 MSTORE RETURNDATASIZE PUSH1 0x0 PUSH1 0x20 DUP5 ADD RETURNDATACOPY PUSH2 0x29AD JUMP JUMPDEST PUSH1 0x60 SWAP2 POP JUMPDEST POP SWAP2 POP SWAP2 POP PUSH2 0x29BD DUP3 DUP3 DUP7 PUSH2 0x2CD6 JUMP JUMPDEST SWAP8 SWAP7 POP POP POP POP POP POP POP JUMP JUMPDEST PUSH1 0x0 DUP2 DUP2 MSTORE PUSH1 0x1 DUP4 ADD PUSH1 0x20 MSTORE PUSH1 0x40 DUP2 KECCAK256 SLOAD PUSH2 0x2A0F JUMPI POP DUP2 SLOAD PUSH1 0x1 DUP2 DUP2 ADD DUP5 SSTORE PUSH1 0x0 DUP5 DUP2 MSTORE PUSH1 0x20 DUP1 DUP3 KECCAK256 SWAP1 SWAP4 ADD DUP5 SWAP1 SSTORE DUP5 SLOAD DUP5 DUP3 MSTORE DUP3 DUP7 ADD SWAP1 SWAP4 MSTORE PUSH1 0x40 SWAP1 KECCAK256 SWAP2 SWAP1 SWAP2 SSTORE PUSH2 0x19D3 JUMP JUMPDEST POP PUSH1 0x0 PUSH2 0x19D3 JUMP JUMPDEST PUSH1 0x0 PUSH2 0x19D3 PUSH1 0x8 SLOAD PUSH8 0xDE0B6B3A7640000 PUSH2 0x2A32 SWAP2 SWAP1 PUSH2 0x2FDC JUMP JUMPDEST PUSH2 0x1396 DUP5 PUSH2 0x2D0F JUMP JUMPDEST PUSH1 0x0 DUP2 DUP2 MSTORE PUSH1 0x1 DUP4 ADD PUSH1 0x20 MSTORE PUSH1 0x40 DUP2 KECCAK256 SLOAD DUP1 ISZERO PUSH2 0x2B24 JUMPI PUSH1 0x0 PUSH2 0x2A5F PUSH1 0x1 DUP4 PUSH2 0x2FC5 JUMP JUMPDEST DUP6 SLOAD SWAP1 SWAP2 POP PUSH1 0x0 SWAP1 PUSH2 0x2A73 SWAP1 PUSH1 0x1 SWAP1 PUSH2 0x2FC5 JUMP JUMPDEST SWAP1 POP DUP2 DUP2 EQ PUSH2 0x2AD8 JUMPI PUSH1 0x0 DUP7 PUSH1 0x0 ADD DUP3 DUP2 SLOAD DUP2 LT PUSH2 0x2A93 JUMPI PUSH2 0x2A93 PUSH2 0x3011 JUMP JUMPDEST SWAP1 PUSH1 0x0 MSTORE PUSH1 0x20 PUSH1 0x0 KECCAK256 ADD SLOAD SWAP1 POP DUP1 DUP8 PUSH1 0x0 ADD DUP5 DUP2 SLOAD DUP2 LT PUSH2 0x2AB6 JUMPI PUSH2 0x2AB6 PUSH2 0x3011 JUMP JUMPDEST PUSH1 0x0 SWAP2 DUP3 MSTORE PUSH1 0x20 DUP1 DUP4 KECCAK256 SWAP1 SWAP2 ADD SWAP3 SWAP1 SWAP3 SSTORE SWAP2 DUP3 MSTORE PUSH1 0x1 DUP9 ADD SWAP1 MSTORE PUSH1 0x40 SWAP1 KECCAK256 DUP4 SWAP1 SSTORE JUMPDEST DUP6 SLOAD DUP7 SWAP1 DUP1 PUSH2 0x2AE9 JUMPI PUSH2 0x2AE9 PUSH2 0x3091 JUMP JUMPDEST PUSH1 0x1 SWAP1 SUB DUP2 DUP2 SWAP1 PUSH1 0x0 MSTORE PUSH1 0x20 PUSH1 0x0 KECCAK256 ADD PUSH1 0x0 SWAP1 SSTORE SWAP1 SSTORE DUP6 PUSH1 0x1 ADD PUSH1 0x0 DUP7 DUP2 MSTORE PUSH1 0x20 ADD SWAP1 DUP2 MSTORE PUSH1 0x20 ADD PUSH1 0x0 KECCAK256 PUSH1 0x0 SWAP1 SSTORE PUSH1 0x1 SWAP4 POP POP POP POP PUSH2 0x19D3 JUMP JUMPDEST PUSH1 0x0 SWAP2 POP POP PUSH2 0x19D3 JUMP JUMPDEST PUSH1 0x4 SLOAD PUSH1 0x1 PUSH1 0x1 PUSH1 0xA0 SHL SUB AND DUP1 PUSH2 0x2B42 JUMPI POP JUMP JUMPDEST PUSH1 0x6 SLOAD DUP1 ISZERO PUSH2 0x2BED JUMPI PUSH1 0x40 MLOAD PUSH4 0x70A08231 PUSH1 0xE0 SHL DUP2 MSTORE ADDRESS PUSH1 0x4 DUP3 ADD MSTORE PUSH20 0x4E3FBD56CD56C3E72C1403E103B45DB9DA5B9D2B SWAP1 PUSH1 0x0 SWAP1 DUP3 SWAP1 PUSH4 0x70A08231 SWAP1 PUSH1 0x24 ADD PUSH1 0x20 PUSH1 0x40 MLOAD DUP1 DUP4 SUB DUP2 DUP7 GAS STATICCALL ISZERO DUP1 ISZERO PUSH2 0x2B9F JUMPI RETURNDATASIZE PUSH1 0x0 DUP1 RETURNDATACOPY RETURNDATASIZE PUSH1 0x0 REVERT JUMPDEST POP POP POP POP PUSH1 0x40 MLOAD RETURNDATASIZE PUSH1 0x1F NOT PUSH1 0x1F DUP3 ADD AND DUP3 ADD DUP1 PUSH1 0x40 MSTORE POP DUP2 ADD SWAP1 PUSH2 0x2BC3 SWAP2 SWAP1 PUSH2 0x2F3F JUMP JUMPDEST SWAP1 POP DUP1 ISZERO PUSH2 0x2BEA JUMPI PUSH2 0x2BEA DUP5 PUSH2 0x2BD9 DUP4 DUP7 PUSH2 0x2716 JUMP JUMPDEST PUSH1 0x1 PUSH1 0x1 PUSH1 0xA0 SHL SUB DUP6 AND SWAP2 SWAP1 PUSH2 0x2D92 JUMP JUMPDEST POP POP JUMPDEST PUSH1 0x5 SLOAD DUP1 ISZERO PUSH2 0x1B60 JUMPI PUSH1 0x40 MLOAD PUSH4 0x70A08231 PUSH1 0xE0 SHL DUP2 MSTORE ADDRESS PUSH1 0x4 DUP3 ADD MSTORE PUSH20 0xD533A949740BB3306D119CC777FA900BA034CD52 SWAP1 PUSH1 0x0 SWAP1 DUP3 SWAP1 PUSH4 0x70A08231 SWAP1 PUSH1 0x24 ADD PUSH1 0x20 PUSH1 0x40 MLOAD DUP1 DUP4 SUB DUP2 DUP7 GAS STATICCALL ISZERO DUP1 ISZERO PUSH2 0x2C4A JUMPI RETURNDATASIZE PUSH1 0x0 DUP1 RETURNDATACOPY RETURNDATASIZE PUSH1 0x0 REVERT JUMPDEST POP POP POP POP PUSH1 0x40 MLOAD RETURNDATASIZE PUSH1 0x1F NOT PUSH1 0x1F DUP3 ADD AND DUP3 ADD DUP1 PUSH1 0x40 MSTORE POP DUP2 ADD SWAP1 PUSH2 0x2C6E SWAP2 SWAP1 PUSH2 0x2F3F JUMP JUMPDEST SWAP1 POP DUP1 ISZERO PUSH2 0x2C84 JUMPI PUSH2 0x2C84 DUP6 PUSH2 0x2BD9 DUP4 DUP7 PUSH2 0x2716 JUMP JUMPDEST POP POP POP POP POP JUMP JUMPDEST PUSH1 0x0 PUSH2 0x1B77 DUP4 DUP4 PUSH2 0x2DC2 JUMP JUMPDEST PUSH1 0x0 PUSH2 0x19D3 PUSH1 0x8 SLOAD PUSH8 0xDE0B6B3A7640000 PUSH2 0x2CB2 SWAP2 SWAP1 PUSH2 0x2FC5 JUMP JUMPDEST PUSH2 0x1396 DUP5 PUSH2 0x24B9 JUMP JUMPDEST PUSH1 0x0 PUSH2 0x19D3 PUSH1 0x7 SLOAD PUSH8 0xDE0B6B3A7640000 PUSH2 0x2A32 SWAP2 SWAP1 PUSH2 0x2FC5 JUMP JUMPDEST PUSH1 0x60 DUP4 ISZERO PUSH2 0x2CE5 JUMPI POP DUP2 PUSH2 0x1B77 JUMP JUMPDEST DUP3 MLOAD ISZERO PUSH2 0x2CF5 JUMPI DUP3 MLOAD DUP1 DUP5 PUSH1 0x20 ADD REVERT JUMPDEST DUP2 PUSH1 0x40 MLOAD PUSH3 0x461BCD PUSH1 0xE5 SHL DUP2 MSTORE PUSH1 0x4 ADD PUSH2 0x712 SWAP2 SWAP1 PUSH2 0x2E4F JUMP JUMPDEST PUSH1 0x0 PUSH2 0x19D3 PUSH1 0xB PUSH1 0x0 SWAP1 SLOAD SWAP1 PUSH2 0x100 EXP SWAP1 DIV PUSH1 0x1 PUSH1 0x1 PUSH1 0xA0 SHL SUB AND PUSH1 0x1 PUSH1 0x1 PUSH1 0xA0 SHL SUB AND PUSH4 0xBB7B8B80 PUSH1 0x40 MLOAD DUP2 PUSH4 0xFFFFFFFF AND PUSH1 0xE0 SHL DUP2 MSTORE PUSH1 0x4 ADD PUSH1 0x20 PUSH1 0x40 MLOAD DUP1 DUP4 SUB DUP2 DUP7 GAS STATICCALL ISZERO DUP1 ISZERO PUSH2 0x2D67 JUMPI RETURNDATASIZE PUSH1 0x0 DUP1 RETURNDATACOPY RETURNDATASIZE PUSH1 0x0 REVERT JUMPDEST POP POP POP POP PUSH1 0x40 MLOAD RETURNDATASIZE PUSH1 0x1F NOT PUSH1 0x1F DUP3 ADD AND DUP3 ADD DUP1 PUSH1 0x40 MSTORE POP DUP2 ADD SWAP1 PUSH2 0x2D8B SWAP2 SWAP1 PUSH2 0x2F3F JUMP JUMPDEST DUP4 SWAP1 PUSH2 0x2DEC JUMP JUMPDEST PUSH1 0x40 MLOAD PUSH1 0x1 PUSH1 0x1 PUSH1 0xA0 SHL SUB DUP4 AND PUSH1 0x24 DUP3 ADD MSTORE PUSH1 0x44 DUP2 ADD DUP3 SWAP1 MSTORE PUSH2 0x1B60 SWAP1 DUP5 SWAP1 PUSH4 0xA9059CBB PUSH1 0xE0 SHL SWAP1 PUSH1 0x64 ADD PUSH2 0x1B29 JUMP JUMPDEST PUSH1 0x0 DUP3 PUSH1 0x0 ADD DUP3 DUP2 SLOAD DUP2 LT PUSH2 0x2DD9 JUMPI PUSH2 0x2DD9 PUSH2 0x3011 JUMP JUMPDEST SWAP1 PUSH1 0x0 MSTORE PUSH1 0x20 PUSH1 0x0 KECCAK256 ADD SLOAD SWAP1 POP SWAP3 SWAP2 POP POP JUMP JUMPDEST PUSH1 0x0 DUP2 PUSH2 0x272B PUSH8 0xDE0B6B3A7640000 DUP6 PUSH2 0x2F6E JUMP JUMPDEST PUSH1 0x40 MLOAD DUP1 PUSH1 0x40 ADD PUSH1 0x40 MSTORE DUP1 PUSH1 0x2 SWAP1 PUSH1 0x20 DUP3 MUL DUP1 CALLDATASIZE DUP4 CALLDATACOPY POP SWAP2 SWAP3 SWAP2 POP POP JUMP JUMPDEST PUSH1 0x0 JUMPDEST DUP4 DUP2 LT ISZERO PUSH2 0x2E3A JUMPI DUP2 DUP2 ADD MLOAD DUP4 DUP3 ADD MSTORE PUSH1 0x20 ADD PUSH2 0x2E22 JUMP JUMPDEST DUP4 DUP2 GT ISZERO PUSH2 0x2E49 JUMPI PUSH1 0x0 DUP5 DUP5 ADD MSTORE JUMPDEST POP POP POP POP JUMP JUMPDEST PUSH1 0x20 DUP2 MSTORE PUSH1 0x0 DUP3 MLOAD DUP1 PUSH1 0x20 DUP5 ADD MSTORE PUSH2 0x2E6E DUP2 PUSH1 0x40 DUP6 ADD PUSH1 0x20 DUP8 ADD PUSH2 0x2E1F JUMP JUMPDEST PUSH1 0x1F ADD PUSH1 0x1F NOT AND SWAP2 SWAP1 SWAP2 ADD PUSH1 0x40 ADD SWAP3 SWAP2 POP POP JUMP JUMPDEST PUSH1 0x1 PUSH1 0x1 PUSH1 0xA0 SHL SUB DUP2 AND DUP2 EQ PUSH2 0x2E97 JUMPI PUSH1 0x0 DUP1 REVERT JUMPDEST POP JUMP JUMPDEST PUSH1 0x0 PUSH1 0x20 DUP3 DUP5 SUB SLT ISZERO PUSH2 0x2EAC JUMPI PUSH1 0x0 DUP1 REVERT JUMPDEST DUP2 CALLDATALOAD PUSH2 0x1B77 DUP2 PUSH2 0x2E82 JUMP JUMPDEST PUSH1 0x0 PUSH1 0x20 DUP3 DUP5 SUB SLT ISZERO PUSH2 0x2EC9 JUMPI PUSH1 0x0 DUP1 REVERT JUMPDEST POP CALLDATALOAD SWAP2 SWAP1 POP JUMP JUMPDEST PUSH1 0x20 DUP1 DUP3 MSTORE DUP3 MLOAD DUP3 DUP3 ADD DUP2 SWAP1 MSTORE PUSH1 0x0 SWAP2 SWAP1 DUP5 DUP3 ADD SWAP1 PUSH1 0x40 DUP6 ADD SWAP1 DUP5 JUMPDEST DUP2 DUP2 LT ISZERO PUSH2 0x2F11 JUMPI DUP4 MLOAD PUSH1 0x1 PUSH1 0x1 PUSH1 0xA0 SHL SUB AND DUP4 MSTORE SWAP3 DUP5 ADD SWAP3 SWAP2 DUP5 ADD SWAP2 PUSH1 0x1 ADD PUSH2 0x2EEC JUMP JUMPDEST POP SWAP1 SWAP7 SWAP6 POP POP POP POP POP POP JUMP JUMPDEST PUSH1 0x0 PUSH1 0x20 DUP3 DUP5 SUB SLT ISZERO PUSH2 0x2F2F JUMPI PUSH1 0x0 DUP1 REVERT JUMPDEST DUP2 MLOAD DUP1 ISZERO ISZERO DUP2 EQ PUSH2 0x1B77 JUMPI PUSH1 0x0 DUP1 REVERT JUMPDEST PUSH1 0x0 PUSH1 0x20 DUP3 DUP5 SUB SLT ISZERO PUSH2 0x2F51 JUMPI PUSH1 0x0 DUP1 REVERT JUMPDEST POP MLOAD SWAP2 SWAP1 POP JUMP JUMPDEST PUSH4 0x4E487B71 PUSH1 0xE0 SHL PUSH1 0x0 MSTORE PUSH1 0x11 PUSH1 0x4 MSTORE PUSH1 0x24 PUSH1 0x0 REVERT JUMPDEST PUSH1 0x0 DUP2 PUSH1 0x0 NOT DIV DUP4 GT DUP3 ISZERO ISZERO AND ISZERO PUSH2 0x2F88 JUMPI PUSH2 0x2F88 PUSH2 0x2F58 JUMP JUMPDEST POP MUL SWAP1 JUMP JUMPDEST PUSH4 0x4E487B71 PUSH1 0xE0 SHL PUSH1 0x0 MSTORE PUSH1 0x12 PUSH1 0x4 MSTORE PUSH1 0x24 PUSH1 0x0 REVERT JUMPDEST PUSH1 0x0 DUP3 PUSH2 0x2FC0 JUMPI PUSH4 0x4E487B71 PUSH1 0xE0 SHL PUSH1 0x0 MSTORE PUSH1 0x12 PUSH1 0x4 MSTORE PUSH1 0x24 PUSH1 0x0 REVERT JUMPDEST POP DIV SWAP1 JUMP JUMPDEST PUSH1 0x0 DUP3 DUP3 LT ISZERO PUSH2 0x2FD7 JUMPI PUSH2 0x2FD7 PUSH2 0x2F58 JUMP JUMPDEST POP SUB SWAP1 JUMP JUMPDEST PUSH1 0x0 DUP3 NOT DUP3 GT ISZERO PUSH2 0x2FEF JUMPI PUSH2 0x2FEF PUSH2 0x2F58 JUMP JUMPDEST POP ADD SWAP1 JUMP JUMPDEST PUSH1 0x0 PUSH1 0x20 DUP3 DUP5 SUB SLT ISZERO PUSH2 0x3006 JUMPI PUSH1 0x0 DUP1 REVERT JUMPDEST DUP2 MLOAD PUSH2 0x1B77 DUP2 PUSH2 0x2E82 JUMP JUMPDEST PUSH4 0x4E487B71 PUSH1 0xE0 SHL PUSH1 0x0 MSTORE PUSH1 0x32 PUSH1 0x4 MSTORE PUSH1 0x24 PUSH1 0x0 REVERT JUMPDEST PUSH1 0x60 DUP2 ADD DUP2 DUP5 PUSH1 0x0 JUMPDEST PUSH1 0x2 DUP2 LT ISZERO PUSH2 0x304F JUMPI DUP2 MLOAD DUP4 MSTORE PUSH1 0x20 SWAP3 DUP4 ADD SWAP3 SWAP1 SWAP2 ADD SWAP1 PUSH1 0x1 ADD PUSH2 0x3030 JUMP JUMPDEST POP POP POP DUP3 PUSH1 0x40 DUP4 ADD MSTORE SWAP4 SWAP3 POP POP POP JUMP JUMPDEST PUSH4 0x4E487B71 PUSH1 0xE0 SHL PUSH1 0x0 MSTORE PUSH1 0x41 PUSH1 0x4 MSTORE PUSH1 0x24 PUSH1 0x0 REVERT JUMPDEST PUSH1 0x0 DUP3 MLOAD PUSH2 0x3087 DUP2 DUP5 PUSH1 0x20 DUP8 ADD PUSH2 0x2E1F JUMP JUMPDEST SWAP2 SWAP1 SWAP2 ADD SWAP3 SWAP2 POP POP JUMP JUMPDEST PUSH4 0x4E487B71 PUSH1 0xE0 SHL PUSH1 0x0 MSTORE PUSH1 0x31 PUSH1 0x4 MSTORE PUSH1 0x24 PUSH1 0x0 REVERT INVALID PUSH22 0x6E617574686F72697A65642061636365737300000000 STOP STOP STOP STOP STOP STOP STOP STOP STOP LOG2 PUSH5 0x6970667358 0x22 SLT KECCAK256 COINBASE 0xE BALANCE LOG1 SWAP7 0xD3 0xCA ADDRESS PUSH31 0x2DF7D4D45841F70B04CF937686A137503D8BE14F076C564736F6C63430008 EXP STOP CALLER ","sha1":"9a5841ee4c70e05a63a3ef85bcd35fc659933cbe","source":"// SPDX-License-Identifier: GPL-3.0-or-later\npragma solidity 0.8.10;\n\nimport \"./ConvexStrategyBase.sol\";\nimport \"../../libraries/UncheckedMath.sol\";\n\n/**\n * This is the MeroEthCvx strategy, which is designed to be used by a Mero ETH Vault.\n * The strategy holds ETH as it's underlying and allocates liquidity to Convex via given Curve Pool with 2 underlying tokens.\n * Rewards received on Convex (CVX, CRV), are sold in part for the underlying.\n * A share of earned CVX & CRV are retained on behalf of the Mero community to participate in governance.\n */\ncontract MeroEthCvx is ConvexStrategyBase {\n    using ScaledMath for uint256;\n    using UncheckedMath for uint256;\n    using SafeERC20 for IERC20;\n    using EnumerableSet for EnumerableSet.AddressSet;\n    using AddressProviderHelpers for IAddressProvider;\n\n    constructor(\n        address vault_,\n        address strategist_,\n        uint256 convexPid_,\n        address curvePool_,\n        uint256 curveIndex_,\n        IAddressProvider addressProvider_\n    )\n        ConvexStrategyBase(\n            vault_,\n            strategist_,\n            convexPid_,\n            curvePool_,\n            curveIndex_,\n            addressProvider_\n        )\n    {\n        // Setting default values\n        imbalanceToleranceIn = 0.0007e18;\n        imbalanceToleranceOut = 0.025e18;\n\n        // Approvals\n        (address lp_, , , , , bool shutdown) = _BOOSTER.poolInfo(convexPid_);\n        require(!shutdown, Error.POOL_SHUTDOWN);\n        IERC20(lp_).safeApprove(address(_BOOSTER), type(uint256).max);\n    }\n\n    receive() external payable {}\n\n    function name() external pure override returns (string memory) {\n        return \"MeroEthCvx\";\n    }\n\n    function balance() public view override returns (uint256) {\n        return _underlyingBalance() + _lpToUnderlying(_stakedBalance() + _lpBalance());\n    }\n\n    function _deposit() internal override returns (bool) {\n        // Depositing into Curve Pool\n        uint256 underlyingBalance = _underlyingBalance();\n        if (underlyingBalance == 0) return false;\n        uint256[2] memory amounts;\n        amounts[curveIndex] = underlyingBalance;\n        curvePool.add_liquidity{value: underlyingBalance}(\n            amounts,\n            _minLpAccepted(underlyingBalance)\n        );\n\n        // Depositing into Convex and Staking\n        if (!_BOOSTER.depositAll(convexPid, true)) return false;\n        return true;\n    }\n\n    function _withdraw(uint256 amount) internal override {\n        bool success;\n        uint256 underlyingBalance = _underlyingBalance();\n\n        // Transferring from idle balance if enough\n        if (underlyingBalance >= amount) {\n            // solhint-disable-next-line avoid-low-level-calls\n            (success, ) = payable(vault).call{value: amount}(\"\");\n            require(success, Error.FAILED_TRANSFER);\n            emit Withdraw(amount);\n            return;\n        }\n\n        // Unstaking needed LP Tokens from Convex\n        uint256 requiredUnderlyingAmount = amount.uncheckedSub(underlyingBalance);\n        uint256 maxLpBurned = _maxLpBurned(requiredUnderlyingAmount);\n        uint256 requiredLpAmount = maxLpBurned - _lpBalance();\n        if (!rewards.withdrawAndUnwrap(requiredLpAmount, false)) return;\n\n        // Removing needed liquidity from Curve\n        uint256[2] memory amounts;\n        // solhint-disable-next-line reentrancy\n        amounts[curveIndex] = requiredUnderlyingAmount;\n        curvePool.remove_liquidity_imbalance(amounts, maxLpBurned);\n        // solhint-disable-next-line avoid-low-level-calls\n        (success, ) = payable(vault).call{value: amount}(\"\");\n        require(success, Error.FAILED_TRANSFER);\n        return;\n    }\n\n    function _withdrawAll() internal override returns (uint256) {\n        // Unstaking and withdrawing from Convex pool\n        uint256 stakedBalance = _stakedBalance();\n        if (stakedBalance > 0) {\n            if (!rewards.withdrawAndUnwrap(stakedBalance, false)) return 0;\n        }\n\n        // Removing liquidity from Curve\n        uint256 lpBalance = _lpBalance();\n        if (lpBalance > 0) {\n            curvePool.remove_liquidity_one_coin(\n                lpBalance,\n                int128(uint128(curveIndex)),\n                _minUnderlyingAccepted(lpBalance)\n            );\n        }\n\n        // Transferring underlying to vault\n        uint256 underlyingBalance = _underlyingBalance();\n        if (underlyingBalance == 0) return 0;\n        // solhint-disable-next-line avoid-low-level-calls\n        (bool success, ) = payable(vault).call{value: underlyingBalance}(\"\");\n        require(success, Error.FAILED_TRANSFER);\n        return underlyingBalance;\n    }\n\n    function _underlyingBalance() internal view override returns (uint256) {\n        return address(this).balance;\n    }\n\n    /**\n     * @notice Calculates the minimum LP to accept when depositing underlying into Curve Pool.\n     * @param _underlyingAmount Amount of underlying that is being deposited into Curve Pool.\n     * @return The minimum LP balance to accept.\n     */\n    function _minLpAccepted(uint256 _underlyingAmount) internal view returns (uint256) {\n        return _underlyingToLp(_underlyingAmount).scaledMul(ScaledMath.ONE - imbalanceToleranceIn);\n    }\n\n    /**\n     * @notice Calculates the maximum LP to accept burning when withdrawing amount from Curve Pool.\n     * @param _underlyingAmount Amount of underlying that is being withdrawn from Curve Pool.\n     * @return The maximum LP balance to accept burning.\n     */\n    function _maxLpBurned(uint256 _underlyingAmount) internal view returns (uint256) {\n        return _underlyingToLp(_underlyingAmount).scaledMul(ScaledMath.ONE + imbalanceToleranceOut);\n    }\n\n    /**\n     * @notice Calculates the minimum underlying to accept when burning LP tokens to withdraw from Curve Pool.\n     * @param _lpAmount Amount of LP tokens being burned to withdraw from Curve Pool.\n     * @return The minimum underlying balance to accept.\n     */\n    function _minUnderlyingAccepted(uint256 _lpAmount) internal view returns (uint256) {\n        return _lpToUnderlying(_lpAmount).scaledMul(ScaledMath.ONE - imbalanceToleranceOut);\n    }\n\n    /**\n     * @notice Converts an amount of underlying into their estimated LP value.\n     * @dev Uses get_virtual_price which is less susceptible to manipulation.\n     *  But is also less accurate to how much could be withdrawn.\n     * @param _underlyingAmount Amount of underlying to convert.\n     * @return The estimated value in the LP.\n     */\n    function _underlyingToLp(uint256 _underlyingAmount) internal view returns (uint256) {\n        return _underlyingAmount.scaledDiv(curvePool.get_virtual_price());\n    }\n\n    /**\n     * @notice Converts an amount of LP into their estimated underlying value.\n     * @dev Uses get_virtual_price which is less susceptible to manipulation.\n     *  But is also less accurate to how much could be withdrawn.\n     * @param _lpAmount Amount of LP to convert.\n     * @return The estimated value in the underlying.\n     */\n    function _lpToUnderlying(uint256 _lpAmount) internal view returns (uint256) {\n        return _lpAmount.scaledMul(curvePool.get_virtual_price());\n    }\n}\n","sourcePath":"contracts/strategies/MeroEthCvx.sol","type":"contract","deployment":{"address":"0x01F6a390Aa33dC42da011060Be8119345d4EbC43","chainid":"1","blockHeight":15323701}}