{"abi":[{"inputs":[{"internalType":"contract MeroUpgradeableProxy","name":"proxy","type":"address"}],"name":"getProxyAdmin","outputs":[{"internalType":"address","name":"","type":"address"}],"stateMutability":"view","type":"function"},{"inputs":[{"internalType":"contract MeroUpgradeableProxy","name":"proxy","type":"address"}],"name":"getProxyImplementation","outputs":[{"internalType":"address","name":"","type":"address"}],"stateMutability":"view","type":"function"},{"inputs":[{"internalType":"address","name":"roleManager_","type":"address"}],"name":"initializeRoleManager","outputs":[],"stateMutability":"nonpayable","type":"function"},{"inputs":[],"name":"roleManager","outputs":[{"internalType":"contract IRoleManager","name":"","type":"address"}],"stateMutability":"view","type":"function"},{"inputs":[{"internalType":"contract MeroUpgradeableProxy","name":"proxy","type":"address"},{"internalType":"address","name":"implementation","type":"address"}],"name":"upgrade","outputs":[],"stateMutability":"nonpayable","type":"function"},{"inputs":[{"internalType":"contract MeroUpgradeableProxy","name":"proxy","type":"address"},{"internalType":"address","name":"implementation","type":"address"},{"internalType":"bytes","name":"data","type":"bytes"}],"name":"upgradeAndCall","outputs":[],"stateMutability":"payable","type":"function"}],"bytecode":"608060405234801561001057600080fd5b50610779806100206000396000f3fe6080604052600436106100535760003560e01c8062435da5146100585780629d61cd1461008e578063204e1c7a146100b05780639623609d146100d057806399a88ec4146100e3578063f3b7dead14610103575b600080fd5b34801561006457600080fd5b506000546001600160a01b03165b6040516001600160a01b03909116815260200160405180910390f35b34801561009a57600080fd5b506100ae6100a9366004610512565b610123565b005b3480156100bc57600080fd5b506100726100cb366004610512565b610195565b6100ae6100de36600461054c565b610266565b3480156100ef57600080fd5b506100ae6100fe366004610622565b6103a1565b34801561010f57600080fd5b5061007261011e366004610512565b6104d4565b600054604080516060810190915260258082526001600160a01b03909216159161071f6020830139906101725760405162461bcd60e51b815260040161016991906106a8565b60405180910390fd5b50600080546001600160a01b0319166001600160a01b0392909216919091179055565b6000806000836001600160a01b03166040516101bb90635c60da1b60e01b815260040190565b600060405180830381855afa9150503d80600081146101f6576040519150601f19603f3d011682016040523d82523d6000602084013e6101fb565b606091505b509150915081604051806040016040528060118152602001701c1c9bde1e4818d85b1b0819985a5b1959607a1b815250906102495760405162461bcd60e51b815260040161016991906106a8565b508080602001905181019061025e91906106bb565b949350505050565b6000546001600160a01b0316604051632474521560e21b815269676f7665726e616e636560b01b60048201523360248201526001600160a01b0391909116906391d1485490604401602060405180830381865afa1580156102cb573d6000803e3d6000fd5b505050506040513d601f19601f820116820180604052508101906102ef91906106d8565b60405180604001604052806013815260200172756e617574686f72697a65642061636365737360681b815250906103395760405162461bcd60e51b815260040161016991906106a8565b5060405163278f794360e11b81526001600160a01b03841690634f1ef28690349061036a90869086906004016106fa565b6000604051808303818588803b15801561038357600080fd5b505af1158015610397573d6000803e3d6000fd5b5050505050505050565b6000546001600160a01b0316604051632474521560e21b815269676f7665726e616e636560b01b60048201523360248201526001600160a01b0391909116906391d1485490604401602060405180830381865afa158015610406573d6000803e3d6000fd5b505050506040513d601f19601f8201168201806040525081019061042a91906106d8565b60405180604001604052806013815260200172756e617574686f72697a65642061636365737360681b815250906104745760405162461bcd60e51b815260040161016991906106a8565b50604051631b2ce7f360e11b81526001600160a01b038281166004830152831690633659cfe690602401600060405180830381600087803b1580156104b857600080fd5b505af11580156104cc573d6000803e3d6000fd5b505050505050565b6000806000836001600160a01b03166040516101bb906303e1469160e61b815260040190565b6001600160a01b038116811461050f57600080fd5b50565b60006020828403121561052457600080fd5b813561052f816104fa565b9392505050565b634e487b7160e01b600052604160045260246000fd5b60008060006060848603121561056157600080fd5b833561056c816104fa565b9250602084013561057c816104fa565b9150604084013567ffffffffffffffff8082111561059957600080fd5b818601915086601f8301126105ad57600080fd5b8135818111156105bf576105bf610536565b604051601f8201601f19908116603f011681019083821181831017156105e7576105e7610536565b8160405282815289602084870101111561060057600080fd5b8260208601602083013760006020848301015280955050505050509250925092565b6000806040838503121561063557600080fd5b8235610640816104fa565b91506020830135610650816104fa565b809150509250929050565b6000815180845260005b8181101561068157602081850181015186830182015201610665565b81811115610693576000602083870101525b50601f01601f19169290920160200192915050565b60208152600061052f602083018461065b565b6000602082840312156106cd57600080fd5b815161052f816104fa565b6000602082840312156106ea57600080fd5b8151801515811461052f57600080fd5b6001600160a01b038316815260406020820181905260009061025e9083018461065b56fe636f6e74726163742063616e206f6e6c7920626520696e697469616c697a6564206f6e6365a2646970667358221220f9bb13e821606759af5f5e88c4a2a1cfbd0453ad4d3584749bcbe40dea7efc6664736f6c634300080a0033","bytecodeSha1":"e5cb5ecbd67d08f567e708953dc960f88d74cd2e","compiler":{"evm_version":"london","optimizer":{"enabled":true,"runs":200},"version":"0.8.10+commit.fc410830"},"contractName":"MeroProxyAdmin","language":"Solidity","natspec":{"details":"This is an auxiliary contract meant to be assigned as the admin of a {MeroUpgradeableProxy}. For an explanation of why you would want to use this see the documentation for {MeroUpgradeableProxy}.","kind":"dev","methods":{"getProxyAdmin(address)":{"details":"Returns the current admin of `proxy`. Requirements: - This contract must be the admin of `proxy`."},"getProxyImplementation(address)":{"details":"Returns the current implementation of `proxy`. Requirements: - This contract must be the admin of `proxy`."},"upgrade(address,address)":{"details":"Upgrades `proxy` to `implementation`. See {MeroUpgradeableProxy-upgradeTo}. Requirements: - This contract must be the admin of `proxy`."},"upgradeAndCall(address,address,bytes)":{"details":"Upgrades `proxy` to `implementation` and calls a function on the new implementation. See {MeroUpgradeableProxy-upgradeToAndCall}. Requirements: - This contract must be the admin of `proxy`."}},"version":1},"opcodes":"PUSH1 0x80 PUSH1 0x40 MSTORE PUSH1 0x4 CALLDATASIZE LT PUSH2 0x53 JUMPI PUSH1 0x0 CALLDATALOAD PUSH1 0xE0 SHR DUP1 PUSH3 0x435DA5 EQ PUSH2 0x58 JUMPI DUP1 PUSH3 0x9D61CD EQ PUSH2 0x8E JUMPI DUP1 PUSH4 0x204E1C7A EQ PUSH2 0xB0 JUMPI DUP1 PUSH4 0x9623609D EQ PUSH2 0xD0 JUMPI DUP1 PUSH4 0x99A88EC4 EQ PUSH2 0xE3 JUMPI DUP1 PUSH4 0xF3B7DEAD EQ PUSH2 0x103 JUMPI JUMPDEST PUSH1 0x0 DUP1 REVERT JUMPDEST CALLVALUE DUP1 ISZERO PUSH2 0x64 JUMPI PUSH1 0x0 DUP1 REVERT JUMPDEST POP PUSH1 0x0 SLOAD PUSH1 0x1 PUSH1 0x1 PUSH1 0xA0 SHL SUB AND JUMPDEST PUSH1 0x40 MLOAD PUSH1 0x1 PUSH1 0x1 PUSH1 0xA0 SHL SUB SWAP1 SWAP2 AND DUP2 MSTORE PUSH1 0x20 ADD PUSH1 0x40 MLOAD DUP1 SWAP2 SUB SWAP1 RETURN JUMPDEST CALLVALUE DUP1 ISZERO PUSH2 0x9A JUMPI PUSH1 0x0 DUP1 REVERT JUMPDEST POP PUSH2 0xAE PUSH2 0xA9 CALLDATASIZE PUSH1 0x4 PUSH2 0x512 JUMP JUMPDEST PUSH2 0x123 JUMP JUMPDEST STOP JUMPDEST CALLVALUE DUP1 ISZERO PUSH2 0xBC JUMPI PUSH1 0x0 DUP1 REVERT JUMPDEST POP PUSH2 0x72 PUSH2 0xCB CALLDATASIZE PUSH1 0x4 PUSH2 0x512 JUMP JUMPDEST PUSH2 0x195 JUMP JUMPDEST PUSH2 0xAE PUSH2 0xDE CALLDATASIZE PUSH1 0x4 PUSH2 0x54C JUMP JUMPDEST PUSH2 0x266 JUMP JUMPDEST CALLVALUE DUP1 ISZERO PUSH2 0xEF JUMPI PUSH1 0x0 DUP1 REVERT JUMPDEST POP PUSH2 0xAE PUSH2 0xFE CALLDATASIZE PUSH1 0x4 PUSH2 0x622 JUMP JUMPDEST PUSH2 0x3A1 JUMP JUMPDEST CALLVALUE DUP1 ISZERO PUSH2 0x10F JUMPI PUSH1 0x0 DUP1 REVERT JUMPDEST POP PUSH2 0x72 PUSH2 0x11E CALLDATASIZE PUSH1 0x4 PUSH2 0x512 JUMP JUMPDEST PUSH2 0x4D4 JUMP JUMPDEST PUSH1 0x0 SLOAD PUSH1 0x40 DUP1 MLOAD PUSH1 0x60 DUP2 ADD SWAP1 SWAP2 MSTORE PUSH1 0x25 DUP1 DUP3 MSTORE PUSH1 0x1 PUSH1 0x1 PUSH1 0xA0 SHL SUB SWAP1 SWAP3 AND ISZERO SWAP2 PUSH2 0x71F PUSH1 0x20 DUP4 ADD CODECOPY SWAP1 PUSH2 0x172 JUMPI PUSH1 0x40 MLOAD PUSH3 0x461BCD PUSH1 0xE5 SHL DUP2 MSTORE PUSH1 0x4 ADD PUSH2 0x169 SWAP2 SWAP1 PUSH2 0x6A8 JUMP JUMPDEST PUSH1 0x40 MLOAD DUP1 SWAP2 SUB SWAP1 REVERT JUMPDEST POP PUSH1 0x0 DUP1 SLOAD PUSH1 0x1 PUSH1 0x1 PUSH1 0xA0 SHL SUB NOT AND PUSH1 0x1 PUSH1 0x1 PUSH1 0xA0 SHL SUB SWAP3 SWAP1 SWAP3 AND SWAP2 SWAP1 SWAP2 OR SWAP1 SSTORE JUMP JUMPDEST PUSH1 0x0 DUP1 PUSH1 0x0 DUP4 PUSH1 0x1 PUSH1 0x1 PUSH1 0xA0 SHL SUB AND PUSH1 0x40 MLOAD PUSH2 0x1BB SWAP1 PUSH4 0x5C60DA1B PUSH1 0xE0 SHL DUP2 MSTORE PUSH1 0x4 ADD SWAP1 JUMP JUMPDEST PUSH1 0x0 PUSH1 0x40 MLOAD DUP1 DUP4 SUB DUP2 DUP6 GAS STATICCALL SWAP2 POP POP RETURNDATASIZE DUP1 PUSH1 0x0 DUP2 EQ PUSH2 0x1F6 JUMPI PUSH1 0x40 MLOAD SWAP2 POP PUSH1 0x1F NOT PUSH1 0x3F RETURNDATASIZE ADD AND DUP3 ADD PUSH1 0x40 MSTORE RETURNDATASIZE DUP3 MSTORE RETURNDATASIZE PUSH1 0x0 PUSH1 0x20 DUP5 ADD RETURNDATACOPY PUSH2 0x1FB JUMP JUMPDEST PUSH1 0x60 SWAP2 POP JUMPDEST POP SWAP2 POP SWAP2 POP DUP2 PUSH1 0x40 MLOAD DUP1 PUSH1 0x40 ADD PUSH1 0x40 MSTORE DUP1 PUSH1 0x11 DUP2 MSTORE PUSH1 0x20 ADD PUSH17 0x1C1C9BDE1E4818D85B1B0819985A5B1959 PUSH1 0x7A SHL DUP2 MSTORE POP SWAP1 PUSH2 0x249 JUMPI PUSH1 0x40 MLOAD PUSH3 0x461BCD PUSH1 0xE5 SHL DUP2 MSTORE PUSH1 0x4 ADD PUSH2 0x169 SWAP2 SWAP1 PUSH2 0x6A8 JUMP JUMPDEST POP DUP1 DUP1 PUSH1 0x20 ADD SWAP1 MLOAD DUP2 ADD SWAP1 PUSH2 0x25E SWAP2 SWAP1 PUSH2 0x6BB JUMP JUMPDEST SWAP5 SWAP4 POP POP POP POP JUMP JUMPDEST PUSH1 0x0 SLOAD PUSH1 0x1 PUSH1 0x1 PUSH1 0xA0 SHL SUB AND PUSH1 0x40 MLOAD PUSH4 0x24745215 PUSH1 0xE2 SHL DUP2 MSTORE PUSH10 0x676F7665726E616E6365 PUSH1 0xB0 SHL PUSH1 0x4 DUP3 ADD MSTORE CALLER PUSH1 0x24 DUP3 ADD MSTORE PUSH1 0x1 PUSH1 0x1 PUSH1 0xA0 SHL SUB SWAP2 SWAP1 SWAP2 AND SWAP1 PUSH4 0x91D14854 SWAP1 PUSH1 0x44 ADD PUSH1 0x20 PUSH1 0x40 MLOAD DUP1 DUP4 SUB DUP2 DUP7 GAS STATICCALL ISZERO DUP1 ISZERO PUSH2 0x2CB JUMPI RETURNDATASIZE PUSH1 0x0 DUP1 RETURNDATACOPY RETURNDATASIZE PUSH1 0x0 REVERT JUMPDEST POP POP POP POP PUSH1 0x40 MLOAD RETURNDATASIZE PUSH1 0x1F NOT PUSH1 0x1F DUP3 ADD AND DUP3 ADD DUP1 PUSH1 0x40 MSTORE POP DUP2 ADD SWAP1 PUSH2 0x2EF SWAP2 SWAP1 PUSH2 0x6D8 JUMP JUMPDEST PUSH1 0x40 MLOAD DUP1 PUSH1 0x40 ADD PUSH1 0x40 MSTORE DUP1 PUSH1 0x13 DUP2 MSTORE PUSH1 0x20 ADD PUSH19 0x756E617574686F72697A656420616363657373 PUSH1 0x68 SHL DUP2 MSTORE POP SWAP1 PUSH2 0x339 JUMPI PUSH1 0x40 MLOAD PUSH3 0x461BCD PUSH1 0xE5 SHL DUP2 MSTORE PUSH1 0x4 ADD PUSH2 0x169 SWAP2 SWAP1 PUSH2 0x6A8 JUMP JUMPDEST POP PUSH1 0x40 MLOAD PUSH4 0x278F7943 PUSH1 0xE1 SHL DUP2 MSTORE PUSH1 0x1 PUSH1 0x1 PUSH1 0xA0 SHL SUB DUP5 AND SWAP1 PUSH4 0x4F1EF286 SWAP1 CALLVALUE SWAP1 PUSH2 0x36A SWAP1 DUP7 SWAP1 DUP7 SWAP1 PUSH1 0x4 ADD PUSH2 0x6FA JUMP JUMPDEST PUSH1 0x0 PUSH1 0x40 MLOAD DUP1 DUP4 SUB DUP2 DUP6 DUP9 DUP1 EXTCODESIZE ISZERO DUP1 ISZERO PUSH2 0x383 JUMPI PUSH1 0x0 DUP1 REVERT JUMPDEST POP GAS CALL ISZERO DUP1 ISZERO PUSH2 0x397 JUMPI RETURNDATASIZE PUSH1 0x0 DUP1 RETURNDATACOPY RETURNDATASIZE PUSH1 0x0 REVERT JUMPDEST POP POP POP POP POP POP POP POP JUMP JUMPDEST PUSH1 0x0 SLOAD PUSH1 0x1 PUSH1 0x1 PUSH1 0xA0 SHL SUB AND PUSH1 0x40 MLOAD PUSH4 0x24745215 PUSH1 0xE2 SHL DUP2 MSTORE PUSH10 0x676F7665726E616E6365 PUSH1 0xB0 SHL PUSH1 0x4 DUP3 ADD MSTORE CALLER PUSH1 0x24 DUP3 ADD MSTORE PUSH1 0x1 PUSH1 0x1 PUSH1 0xA0 SHL SUB SWAP2 SWAP1 SWAP2 AND SWAP1 PUSH4 0x91D14854 SWAP1 PUSH1 0x44 ADD PUSH1 0x20 PUSH1 0x40 MLOAD DUP1 DUP4 SUB DUP2 DUP7 GAS STATICCALL ISZERO DUP1 ISZERO PUSH2 0x406 JUMPI RETURNDATASIZE PUSH1 0x0 DUP1 RETURNDATACOPY RETURNDATASIZE PUSH1 0x0 REVERT JUMPDEST POP POP POP POP PUSH1 0x40 MLOAD RETURNDATASIZE PUSH1 0x1F NOT PUSH1 0x1F DUP3 ADD AND DUP3 ADD DUP1 PUSH1 0x40 MSTORE POP DUP2 ADD SWAP1 PUSH2 0x42A SWAP2 SWAP1 PUSH2 0x6D8 JUMP JUMPDEST PUSH1 0x40 MLOAD DUP1 PUSH1 0x40 ADD PUSH1 0x40 MSTORE DUP1 PUSH1 0x13 DUP2 MSTORE PUSH1 0x20 ADD PUSH19 0x756E617574686F72697A656420616363657373 PUSH1 0x68 SHL DUP2 MSTORE POP SWAP1 PUSH2 0x474 JUMPI PUSH1 0x40 MLOAD PUSH3 0x461BCD PUSH1 0xE5 SHL DUP2 MSTORE PUSH1 0x4 ADD PUSH2 0x169 SWAP2 SWAP1 PUSH2 0x6A8 JUMP JUMPDEST POP PUSH1 0x40 MLOAD PUSH4 0x1B2CE7F3 PUSH1 0xE1 SHL DUP2 MSTORE PUSH1 0x1 PUSH1 0x1 PUSH1 0xA0 SHL SUB DUP3 DUP2 AND PUSH1 0x4 DUP4 ADD MSTORE DUP4 AND SWAP1 PUSH4 0x3659CFE6 SWAP1 PUSH1 0x24 ADD PUSH1 0x0 PUSH1 0x40 MLOAD DUP1 DUP4 SUB DUP2 PUSH1 0x0 DUP8 DUP1 EXTCODESIZE ISZERO DUP1 ISZERO PUSH2 0x4B8 JUMPI PUSH1 0x0 DUP1 REVERT JUMPDEST POP GAS CALL ISZERO DUP1 ISZERO PUSH2 0x4CC JUMPI RETURNDATASIZE PUSH1 0x0 DUP1 RETURNDATACOPY RETURNDATASIZE PUSH1 0x0 REVERT JUMPDEST POP POP POP POP POP POP JUMP JUMPDEST PUSH1 0x0 DUP1 PUSH1 0x0 DUP4 PUSH1 0x1 PUSH1 0x1 PUSH1 0xA0 SHL SUB AND PUSH1 0x40 MLOAD PUSH2 0x1BB SWAP1 PUSH4 0x3E14691 PUSH1 0xE6 SHL DUP2 MSTORE PUSH1 0x4 ADD SWAP1 JUMP JUMPDEST PUSH1 0x1 PUSH1 0x1 PUSH1 0xA0 SHL SUB DUP2 AND DUP2 EQ PUSH2 0x50F JUMPI PUSH1 0x0 DUP1 REVERT JUMPDEST POP JUMP JUMPDEST PUSH1 0x0 PUSH1 0x20 DUP3 DUP5 SUB SLT ISZERO PUSH2 0x524 JUMPI PUSH1 0x0 DUP1 REVERT JUMPDEST DUP2 CALLDATALOAD PUSH2 0x52F DUP2 PUSH2 0x4FA JUMP JUMPDEST SWAP4 SWAP3 POP POP POP JUMP JUMPDEST PUSH4 0x4E487B71 PUSH1 0xE0 SHL PUSH1 0x0 MSTORE PUSH1 0x41 PUSH1 0x4 MSTORE PUSH1 0x24 PUSH1 0x0 REVERT JUMPDEST PUSH1 0x0 DUP1 PUSH1 0x0 PUSH1 0x60 DUP5 DUP7 SUB SLT ISZERO PUSH2 0x561 JUMPI PUSH1 0x0 DUP1 REVERT JUMPDEST DUP4 CALLDATALOAD PUSH2 0x56C DUP2 PUSH2 0x4FA JUMP JUMPDEST SWAP3 POP PUSH1 0x20 DUP5 ADD CALLDATALOAD PUSH2 0x57C DUP2 PUSH2 0x4FA JUMP JUMPDEST SWAP2 POP PUSH1 0x40 DUP5 ADD CALLDATALOAD PUSH8 0xFFFFFFFFFFFFFFFF DUP1 DUP3 GT ISZERO PUSH2 0x599 JUMPI PUSH1 0x0 DUP1 REVERT JUMPDEST DUP2 DUP7 ADD SWAP2 POP DUP7 PUSH1 0x1F DUP4 ADD SLT PUSH2 0x5AD JUMPI PUSH1 0x0 DUP1 REVERT JUMPDEST DUP2 CALLDATALOAD DUP2 DUP2 GT ISZERO PUSH2 0x5BF JUMPI PUSH2 0x5BF PUSH2 0x536 JUMP JUMPDEST PUSH1 0x40 MLOAD PUSH1 0x1F DUP3 ADD PUSH1 0x1F NOT SWAP1 DUP2 AND PUSH1 0x3F ADD AND DUP2 ADD SWAP1 DUP4 DUP3 GT DUP2 DUP4 LT OR ISZERO PUSH2 0x5E7 JUMPI PUSH2 0x5E7 PUSH2 0x536 JUMP JUMPDEST DUP2 PUSH1 0x40 MSTORE DUP3 DUP2 MSTORE DUP10 PUSH1 0x20 DUP5 DUP8 ADD ADD GT ISZERO PUSH2 0x600 JUMPI PUSH1 0x0 DUP1 REVERT JUMPDEST DUP3 PUSH1 0x20 DUP7 ADD PUSH1 0x20 DUP4 ADD CALLDATACOPY PUSH1 0x0 PUSH1 0x20 DUP5 DUP4 ADD ADD MSTORE DUP1 SWAP6 POP POP POP POP POP POP SWAP3 POP SWAP3 POP SWAP3 JUMP JUMPDEST PUSH1 0x0 DUP1 PUSH1 0x40 DUP4 DUP6 SUB SLT ISZERO PUSH2 0x635 JUMPI PUSH1 0x0 DUP1 REVERT JUMPDEST DUP3 CALLDATALOAD PUSH2 0x640 DUP2 PUSH2 0x4FA JUMP JUMPDEST SWAP2 POP PUSH1 0x20 DUP4 ADD CALLDATALOAD PUSH2 0x650 DUP2 PUSH2 0x4FA JUMP JUMPDEST DUP1 SWAP2 POP POP SWAP3 POP SWAP3 SWAP1 POP JUMP JUMPDEST PUSH1 0x0 DUP2 MLOAD DUP1 DUP5 MSTORE PUSH1 0x0 JUMPDEST DUP2 DUP2 LT ISZERO PUSH2 0x681 JUMPI PUSH1 0x20 DUP2 DUP6 ADD DUP2 ADD MLOAD DUP7 DUP4 ADD DUP3 ADD MSTORE ADD PUSH2 0x665 JUMP JUMPDEST DUP2 DUP2 GT ISZERO PUSH2 0x693 JUMPI PUSH1 0x0 PUSH1 0x20 DUP4 DUP8 ADD ADD MSTORE JUMPDEST POP PUSH1 0x1F ADD PUSH1 0x1F NOT AND SWAP3 SWAP1 SWAP3 ADD PUSH1 0x20 ADD SWAP3 SWAP2 POP POP JUMP JUMPDEST PUSH1 0x20 DUP2 MSTORE PUSH1 0x0 PUSH2 0x52F PUSH1 0x20 DUP4 ADD DUP5 PUSH2 0x65B JUMP JUMPDEST PUSH1 0x0 PUSH1 0x20 DUP3 DUP5 SUB SLT ISZERO PUSH2 0x6CD JUMPI PUSH1 0x0 DUP1 REVERT JUMPDEST DUP2 MLOAD PUSH2 0x52F DUP2 PUSH2 0x4FA JUMP JUMPDEST PUSH1 0x0 PUSH1 0x20 DUP3 DUP5 SUB SLT ISZERO PUSH2 0x6EA JUMPI PUSH1 0x0 DUP1 REVERT JUMPDEST DUP2 MLOAD DUP1 ISZERO ISZERO DUP2 EQ PUSH2 0x52F JUMPI PUSH1 0x0 DUP1 REVERT JUMPDEST PUSH1 0x1 PUSH1 0x1 PUSH1 0xA0 SHL SUB DUP4 AND DUP2 MSTORE PUSH1 0x40 PUSH1 0x20 DUP3 ADD DUP2 SWAP1 MSTORE PUSH1 0x0 SWAP1 PUSH2 0x25E SWAP1 DUP4 ADD DUP5 PUSH2 0x65B JUMP INVALID PUSH4 0x6F6E7472 PUSH2 0x6374 KECCAK256 PUSH4 0x616E206F PUSH15 0x6C7920626520696E697469616C697A PUSH6 0x64206F6E6365 LOG2 PUSH5 0x6970667358 0x22 SLT KECCAK256 0xF9 0xBB SGT 0xE8 0x21 PUSH1 0x67 MSIZE 0xAF 0x5F 0x5E DUP9 0xC4 LOG2 LOG1 0xCF 0xBD DIV MSTORE8 0xAD 0x4D CALLDATALOAD DUP5 PUSH21 0x9BCBE40DEA7EFC6664736F6C634300080A00330000 ","sha1":"12aabc064cef0292b80093994057c3cb286e70c5","source":"// SPDX-License-Identifier: MIT\npragma solidity 0.8.10;\n\nimport \"../access/AuthorizationBase.sol\";\nimport \"./MeroUpgradeableProxy.sol\";\nimport \"../../interfaces/IRoleManager.sol\";\nimport \"../../libraries/Roles.sol\";\nimport \"../../libraries/Errors.sol\";\n\n/**\n * @dev This is an auxiliary contract meant to be assigned as the admin of a {MeroUpgradeableProxy}. For an\n * explanation of why you would want to use this see the documentation for {MeroUpgradeableProxy}.\n */\ncontract MeroProxyAdmin is AuthorizationBase {\n    IRoleManager private __roleManager;\n\n    function initializeRoleManager(address roleManager_) external {\n        require(address(__roleManager) == address(0), Error.CONTRACT_INITIALIZED);\n        __roleManager = IRoleManager(roleManager_);\n    }\n\n    /**\n     * @dev Upgrades `proxy` to `implementation`. See {MeroUpgradeableProxy-upgradeTo}.\n     *\n     * Requirements:\n     *\n     * - This contract must be the admin of `proxy`.\n     */\n    function upgrade(MeroUpgradeableProxy proxy, address implementation)\n        public\n        virtual\n        onlyGovernance\n    {\n        proxy.upgradeTo(implementation);\n    }\n\n    /**\n     * @dev Upgrades `proxy` to `implementation` and calls a function on the new implementation. See\n     * {MeroUpgradeableProxy-upgradeToAndCall}.\n     *\n     * Requirements:\n     *\n     * - This contract must be the admin of `proxy`.\n     */\n    function upgradeAndCall(\n        MeroUpgradeableProxy proxy,\n        address implementation,\n        bytes memory data\n    ) public payable virtual onlyGovernance {\n        proxy.upgradeToAndCall{value: msg.value}(implementation, data);\n    }\n\n    /**\n     * @dev Returns the current implementation of `proxy`.\n     *\n     * Requirements:\n     *\n     * - This contract must be the admin of `proxy`.\n     */\n    function getProxyImplementation(MeroUpgradeableProxy proxy)\n        public\n        view\n        virtual\n        returns (address)\n    {\n        // We need to manually run the static call since the getter cannot be flagged as view\n        // bytes4(keccak256(\"implementation()\")) == 0x5c60da1b\n        (bool success, bytes memory returndata) = address(proxy).staticcall(hex\"5c60da1b\");\n        require(success, Error.PROXY_CALL_FAILED);\n        return abi.decode(returndata, (address));\n    }\n\n    /**\n     * @dev Returns the current admin of `proxy`.\n     *\n     * Requirements:\n     *\n     * - This contract must be the admin of `proxy`.\n     */\n    function getProxyAdmin(MeroUpgradeableProxy proxy) public view virtual returns (address) {\n        // We need to manually run the static call since the getter cannot be flagged as view\n        // bytes4(keccak256(\"admin()\")) == 0xf851a440\n        (bool success, bytes memory returndata) = address(proxy).staticcall(hex\"f851a440\");\n        require(success, Error.PROXY_CALL_FAILED);\n        return abi.decode(returndata, (address));\n    }\n\n    function _roleManager() internal view override returns (IRoleManager) {\n        return __roleManager;\n    }\n}\n","sourcePath":"contracts/proxy/MeroProxyAdmin.sol","type":"contract","deployment":{"address":"0x2f9d60283e58cD70c76Cb4cE40438730E4BD84Ae","chainid":"1","blockHeight":15323577}}