{"abi":[{"inputs":[{"internalType":"contract IController","name":"_controller","type":"address"}],"stateMutability":"nonpayable","type":"constructor","name":"constructor"},{"anonymous":false,"inputs":[{"indexed":true,"internalType":"address","name":"minter","type":"address"},{"indexed":false,"internalType":"uint256","name":"depositAmount","type":"uint256"},{"indexed":false,"internalType":"uint256","name":"mintedLpTokens","type":"uint256"}],"name":"Deposit","type":"event"},{"anonymous":false,"inputs":[{"indexed":true,"internalType":"address","name":"minter","type":"address"},{"indexed":true,"internalType":"address","name":"mintee","type":"address"},{"indexed":false,"internalType":"uint256","name":"depositAmount","type":"uint256"},{"indexed":false,"internalType":"uint256","name":"mintedLpTokens","type":"uint256"}],"name":"DepositFor","type":"event"},{"anonymous":false,"inputs":[{"indexed":true,"internalType":"address","name":"lpToken","type":"address"}],"name":"LpTokenSet","type":"event"},{"anonymous":false,"inputs":[{"indexed":false,"internalType":"uint256","name":"maxWithdrawalFee","type":"uint256"}],"name":"MaxWithdrawalFeeUpdated","type":"event"},{"anonymous":false,"inputs":[{"indexed":false,"internalType":"uint256","name":"minWithdrawalFee","type":"uint256"}],"name":"MinWithdrawalFeeUpdated","type":"event"},{"anonymous":false,"inputs":[{"indexed":true,"internalType":"address","name":"redeemer","type":"address"},{"indexed":false,"internalType":"uint256","name":"redeemAmount","type":"uint256"},{"indexed":false,"internalType":"uint256","name":"redeemTokens","type":"uint256"}],"name":"Redeem","type":"event"},{"anonymous":false,"inputs":[{"indexed":false,"internalType":"uint256","name":"requireReserves","type":"uint256"}],"name":"RequiredReservesUpdated","type":"event"},{"anonymous":false,"inputs":[{"indexed":false,"internalType":"uint256","name":"reserveDeviation","type":"uint256"}],"name":"ReserveDeviationUpdated","type":"event"},{"anonymous":false,"inputs":[],"name":"Shutdown","type":"event"},{"anonymous":false,"inputs":[{"indexed":true,"internalType":"address","name":"stakerVault","type":"address"}],"name":"StakerVaultSet","type":"event"},{"anonymous":false,"inputs":[{"indexed":false,"internalType":"address","name":"vault","type":"address"}],"name":"VaultUpdated","type":"event"},{"anonymous":false,"inputs":[{"indexed":false,"internalType":"uint256","name":"withdrawalFeeDecreasePeriod","type":"uint256"}],"name":"WithdrawalFeeDecreasePeriodUpdated","type":"event"},{"inputs":[],"name":"addressProvider","outputs":[{"internalType":"contract IAddressProvider","name":"","type":"address"}],"stateMutability":"view","type":"function"},{"inputs":[{"internalType":"address","name":"account","type":"address"},{"internalType":"uint256","name":"underlyingAmount","type":"uint256"}],"name":"calcRedeem","outputs":[{"internalType":"uint256","name":"","type":"uint256"}],"stateMutability":"view","type":"function"},{"inputs":[],"name":"controller","outputs":[{"internalType":"contract IController","name":"","type":"address"}],"stateMutability":"view","type":"function"},{"inputs":[{"internalType":"uint256","name":"depositAmount","type":"uint256"}],"name":"deposit","outputs":[{"internalType":"uint256","name":"","type":"uint256"}],"stateMutability":"payable","type":"function"},{"inputs":[{"internalType":"uint256","name":"depositAmount","type":"uint256"},{"internalType":"uint256","name":"minTokenAmount","type":"uint256"}],"name":"deposit","outputs":[{"internalType":"uint256","name":"","type":"uint256"}],"stateMutability":"payable","type":"function"},{"inputs":[{"internalType":"uint256","name":"depositAmount","type":"uint256"},{"internalType":"uint256","name":"minTokenAmount","type":"uint256"}],"name":"depositAndStake","outputs":[{"internalType":"uint256","name":"","type":"uint256"}],"stateMutability":"payable","type":"function"},{"inputs":[{"internalType":"address","name":"account","type":"address"},{"internalType":"uint256","name":"depositAmount","type":"uint256"}],"name":"depositFor","outputs":[{"internalType":"uint256","name":"","type":"uint256"}],"stateMutability":"payable","type":"function"},{"inputs":[{"internalType":"address","name":"account","type":"address"},{"internalType":"uint256","name":"depositAmount","type":"uint256"},{"internalType":"uint256","name":"minTokenAmount","type":"uint256"}],"name":"depositFor","outputs":[{"internalType":"uint256","name":"","type":"uint256"}],"stateMutability":"payable","type":"function"},{"inputs":[],"name":"exchangeRate","outputs":[{"internalType":"uint256","name":"","type":"uint256"}],"stateMutability":"view","type":"function"},{"inputs":[],"name":"getLpToken","outputs":[{"internalType":"address","name":"","type":"address"}],"stateMutability":"view","type":"function"},{"inputs":[{"internalType":"uint256","name":"timeToWait","type":"uint256"},{"internalType":"uint256","name":"lastActionTimestamp","type":"uint256"},{"internalType":"uint256","name":"feeRatio","type":"uint256"}],"name":"getNewCurrentFees","outputs":[{"internalType":"uint256","name":"","type":"uint256"}],"stateMutability":"view","type":"function"},{"inputs":[],"name":"getUnderlying","outputs":[{"internalType":"address","name":"","type":"address"}],"stateMutability":"view","type":"function"},{"inputs":[{"internalType":"address","name":"account","type":"address"},{"internalType":"uint256","name":"amount","type":"uint256"}],"name":"getWithdrawalFee","outputs":[{"internalType":"uint256","name":"","type":"uint256"}],"stateMutability":"view","type":"function"},{"inputs":[{"internalType":"address","name":"from","type":"address"},{"internalType":"address","name":"to","type":"address"},{"internalType":"uint256","name":"amount","type":"uint256"}],"name":"handleLpTokenTransfer","outputs":[],"stateMutability":"nonpayable","type":"function"},{"inputs":[{"internalType":"string","name":"name_","type":"string"},{"internalType":"address","name":"underlying_","type":"address"},{"internalType":"address","name":"vault_","type":"address"},{"internalType":"uint256","name":"maxWithdrawalFee_","type":"uint256"},{"internalType":"uint256","name":"minWithdrawalFee_","type":"uint256"}],"name":"initialize","outputs":[],"stateMutability":"nonpayable","type":"function"},{"inputs":[],"name":"isPaused","outputs":[{"internalType":"bool","name":"","type":"bool"}],"stateMutability":"view","type":"function"},{"inputs":[],"name":"isShutdown","outputs":[{"internalType":"bool","name":"","type":"bool"}],"stateMutability":"view","type":"function"},{"inputs":[],"name":"lpToken","outputs":[{"internalType":"contract ILpToken","name":"","type":"address"}],"stateMutability":"view","type":"function"},{"inputs":[],"name":"maxWithdrawalFee","outputs":[{"internalType":"uint256","name":"","type":"uint256"}],"stateMutability":"view","type":"function"},{"inputs":[],"name":"minWithdrawalFee","outputs":[{"internalType":"uint256","name":"","type":"uint256"}],"stateMutability":"view","type":"function"},{"inputs":[],"name":"name","outputs":[{"internalType":"string","name":"","type":"string"}],"stateMutability":"view","type":"function"},{"inputs":[],"name":"pause","outputs":[],"stateMutability":"nonpayable","type":"function"},{"inputs":[],"name":"rebalanceVault","outputs":[],"stateMutability":"nonpayable","type":"function"},{"inputs":[{"internalType":"uint256","name":"redeemLpTokens","type":"uint256"},{"internalType":"uint256","name":"minRedeemAmount","type":"uint256"}],"name":"redeem","outputs":[{"internalType":"uint256","name":"","type":"uint256"}],"stateMutability":"nonpayable","type":"function"},{"inputs":[{"internalType":"uint256","name":"redeemLpTokens","type":"uint256"}],"name":"redeem","outputs":[{"internalType":"uint256","name":"","type":"uint256"}],"stateMutability":"nonpayable","type":"function"},{"inputs":[],"name":"requiredReserves","outputs":[{"internalType":"uint256","name":"","type":"uint256"}],"stateMutability":"view","type":"function"},{"inputs":[],"name":"reserveDeviation","outputs":[{"internalType":"uint256","name":"","type":"uint256"}],"stateMutability":"view","type":"function"},{"inputs":[],"name":"roleManager","outputs":[{"internalType":"contract IRoleManager","name":"","type":"address"}],"stateMutability":"view","type":"function"},{"inputs":[{"internalType":"address","name":"_lpToken","type":"address"}],"name":"setLpToken","outputs":[],"stateMutability":"nonpayable","type":"function"},{"inputs":[],"name":"setStaker","outputs":[],"stateMutability":"nonpayable","type":"function"},{"inputs":[{"internalType":"bool","name":"_shutdownStrategy","type":"bool"}],"name":"shutdownPool","outputs":[],"stateMutability":"nonpayable","type":"function"},{"inputs":[],"name":"shutdownStrategy","outputs":[],"stateMutability":"nonpayable","type":"function"},{"inputs":[],"name":"staker","outputs":[{"internalType":"contract IStakerVault","name":"","type":"address"}],"stateMutability":"view","type":"function"},{"inputs":[],"name":"totalUnderlying","outputs":[{"internalType":"uint256","name":"","type":"uint256"}],"stateMutability":"view","type":"function"},{"inputs":[],"name":"unpause","outputs":[],"stateMutability":"nonpayable","type":"function"},{"inputs":[{"internalType":"uint256","name":"redeemLpTokens","type":"uint256"},{"internalType":"uint256","name":"minRedeemAmount","type":"uint256"}],"name":"unstakeAndRedeem","outputs":[{"internalType":"uint256","name":"","type":"uint256"}],"stateMutability":"nonpayable","type":"function"},{"inputs":[{"internalType":"uint256","name":"maxWithdrawalFee_","type":"uint256"}],"name":"updateMaxWithdrawalFee","outputs":[],"stateMutability":"nonpayable","type":"function"},{"inputs":[{"internalType":"uint256","name":"minWithdrawalFee_","type":"uint256"}],"name":"updateMinWithdrawalFee","outputs":[],"stateMutability":"nonpayable","type":"function"},{"inputs":[{"internalType":"uint256","name":"requireReserves_","type":"uint256"}],"name":"updateRequiredReserves","outputs":[],"stateMutability":"nonpayable","type":"function"},{"inputs":[{"internalType":"uint256","name":"reserveDeviation_","type":"uint256"}],"name":"updateReserveDeviation","outputs":[],"stateMutability":"nonpayable","type":"function"},{"inputs":[{"internalType":"address","name":"vault_","type":"address"}],"name":"updateVault","outputs":[],"stateMutability":"nonpayable","type":"function"},{"inputs":[{"internalType":"uint256","name":"withdrawalFeeDecreasePeriod_","type":"uint256"}],"name":"updateWithdrawalFeeDecreasePeriod","outputs":[],"stateMutability":"nonpayable","type":"function"},{"inputs":[],"name":"vault","outputs":[{"internalType":"contract IVault","name":"","type":"address"}],"stateMutability":"view","type":"function"},{"inputs":[],"name":"withdrawalFeeDecreasePeriod","outputs":[{"internalType":"uint256","name":"","type":"uint256"}],"stateMutability":"view","type":"function"},{"inputs":[{"internalType":"address","name":"","type":"address"}],"name":"withdrawalFeeMetas","outputs":[{"internalType":"uint64","name":"timeToWait","type":"uint64"},{"internalType":"uint64","name":"feeRatio","type":"uint64"},{"internalType":"uint64","name":"lastActionTimestamp","type":"uint64"}],"stateMutability":"view","type":"function"}],"bytecode":"60e06040526611c37937e08000600155670de0b6b3a764000060025562093a806005553480156200002f57600080fd5b506040516200442c3803806200442c8339810160408190526200005291620001fd565b80620000d6816001600160a01b0316632954018c6040518163ffffffff1660e01b8152600401602060405180830381865afa15801562000096573d6000803e3d6000fd5b505050506040513d601f19601f82011682018060405250810190620000bc9190620001fd565b6001600160a01b03166200016260201b62002dec1760201c565b6001600160a01b03908116608052811660a081905260408051630a55006360e21b81529051632954018c916004808201926020929091908290030181865afa15801562000127573d6000803e3d6000fd5b505050506040513d601f19601f820116820180604052508101906200014d9190620001fd565b6001600160a01b031660c05250620002249050565b6040516321f8a72160e01b81526a3937b632a6b0b730b3b2b960a91b60048201526000906001600160a01b038316906321f8a72190602401602060405180830381865afa158015620001b8573d6000803e3d6000fd5b505050506040513d601f19601f82011682018060405250810190620001de9190620001fd565b92915050565b6001600160a01b0381168114620001fa57600080fd5b50565b6000602082840312156200021057600080fd5b81516200021d81620001e4565b9392505050565b60805160a05160c05161413e620002ee600039600081816102f6015281816111880152818161178b015281816122440152818161294c01528181612a7901528181612b1601528181612ba801528181612c3801528181612cc80152612d58015260006107d3015260008181610285015281816108b101528181610a6c01528181611030015281816112ab01528181611a1f01528181611b0a01528181611c2c01528181611d6c0152818161232601528181612471015281816127b60152612e92015261413e6000f3fe6080604052600436106102715760003560e01c80639510c3641161014f578063c70920bc116100c1578063e7563f3f1161007a578063e7563f3f14610755578063ec1c0a9914610775578063f1b60c981461078b578063f4c02c6d146107ab578063f77c4791146107c1578063fbfa77cf146107f557600080fd5b8063c70920bc146106b7578063d14397d7146106cc578063d8178a0e146106ec578063db006a751461070c578063e2bbb1581461072c578063e4b8399f1461073f57600080fd5b8063b2f36b5b11610113578063b2f36b5b14610617578063b6b55f2514610637578063b89112671461064a578063be8f16681461066a578063bf86d6901461067f578063c4a01cd01461069757600080fd5b80639510c3641461056a5780639816f4731461058a5780639c7a207b146105ad5780639ee933b5146105cd578063b187bd26146105ed57600080fd5b80635ebaf1db116101e85780637969ee28116101ac5780637969ee28146104cf5780637b95b537146104e25780637cbc2373146105025780638214f5a4146105225780638456cb59146105405780638f7265b01461055557600080fd5b80635ebaf1db146104445780635fcbd2851461046457806366f07dd2146104845780636c18b4e61461049957806371207531146104af57600080fd5b80633214fa221161023a5780633214fa221461035b57806337829f49146103715780633b65f089146103e75780633ba0b9a9146104075780633f4ba83a1461041c5780634cf5fbf51461043157600080fd5b8062435da51461027657806306fdde03146102c25780632954018c146102e45780632d8796bd146103185780632f4f21e21461033a575b600080fd5b34801561028257600080fd5b507f00000000000000000000000000000000000000000000000000000000000000005b6040516001600160a01b0390911681526020015b60405180910390f35b3480156102ce57600080fd5b506102d7610821565b6040516102b99190613d09565b3480156102f057600080fd5b506102a57f000000000000000000000000000000000000000000000000000000000000000081565b34801561032457600080fd5b50610338610333366004613d3c565b6108af565b005b61034d610348366004613d6a565b610a45565b6040519081526020016102b9565b34801561036757600080fd5b5061034d60015481565b34801561037d57600080fd5b506103bd61038c366004613d96565b6006602052600090815260409020546001600160401b0380821691600160401b8104821691600160801b9091041683565b604080516001600160401b03948516815292841660208401529216918101919091526060016102b9565b3480156103f357600080fd5b50610338610402366004613dc1565b610a5c565b34801561041357600080fd5b5061034d610cac565b34801561042857600080fd5b50610338610d65565b61034d61043f366004613dde565b610dc9565b34801561045057600080fd5b506007546102a5906001600160a01b031681565b34801561047057600080fd5b506008546102a5906001600160a01b031681565b34801561049057600080fd5b50610338611010565b3480156104a557600080fd5b5061034d60055481565b3480156104bb57600080fd5b506103386104ca366004613d3c565b6112a9565b61034d6104dd366004613e13565b611416565b3480156104ee57600080fd5b5061034d6104fd366004613e13565b611491565b34801561050e57600080fd5b5061034d61051d366004613e13565b61166a565b34801561052e57600080fd5b506008546001600160a01b03166102a5565b34801561054c57600080fd5b506103386119b6565b34801561056157600080fd5b50610338611a1d565b34801561057657600080fd5b50610338610585366004613d3c565b611b08565b34801561059657600080fd5b50600a5461010090046001600160a01b03166102a5565b3480156105b957600080fd5b506103386105c8366004613d3c565b611c2a565b3480156105d957600080fd5b506103386105e8366004613d96565b611d4c565b3480156105f957600080fd5b506000546106079060ff1681565b60405190151581526020016102b9565b34801561062357600080fd5b50610338610632366004613e35565b611fa9565b61034d610645366004613d3c565b612035565b34801561065657600080fd5b5061034d610665366004613d6a565b612043565b34801561067657600080fd5b50610338612324565b34801561068b57600080fd5b50600a5460ff16610607565b3480156106a357600080fd5b506103386106b2366004613d3c565b61246f565b3480156106c357600080fd5b5061034d612585565b3480156106d857600080fd5b5061034d6106e7366004613eda565b612624565b3480156106f857600080fd5b5061034d610707366004613d6a565b61268a565b34801561071857600080fd5b5061034d610727366004613d3c565b61279a565b61034d61073a366004613e13565b6127a7565b34801561074b57600080fd5b5061034d60025481565b34801561076157600080fd5b50610338610770366004613d96565b6127b4565b34801561078157600080fd5b5061034d60035481565b34801561079757600080fd5b506103386107a6366004613f06565b6129e9565b3480156107b757600080fd5b5061034d60045481565b3480156107cd57600080fd5b506102a57f000000000000000000000000000000000000000000000000000000000000000081565b34801561080157600080fd5b506000546102a590630100000090046001600160a01b031681565b905090565b6009805461082e90613f47565b80601f016020809104026020016040519081016040528092919081815260200182805461085a90613f47565b80156108a75780601f1061087c576101008083540402835291602001916108a7565b820191906000526020600020905b81548152906001019060200180831161088a57829003601f168201915b505050505081565b7f0000000000000000000000000000000000000000000000000000000000000000604051632474521560e21b815269676f7665726e616e636560b01b60048201523360248201526001600160a01b0391909116906391d1485490604401602060405180830381865afa158015610929573d6000803e3d6000fd5b505050506040513d601f19601f8201168201806040525081019061094d9190613f82565b6040518060400160405280601381526020016000805160206140a5833981519152815250906109985760405162461bcd60e51b815260040161098f9190613d09565b60405180910390fd5b5060646109ae670de0b6b3a76400006032613fb5565b6109b89190613fd4565b8111156040518060400160405280600e81526020016d1a5b9d985b1a5908185b5bdd5b9d60921b81525090610a005760405162461bcd60e51b815260040161098f9190613d09565b506001819055610a0e612e65565b6040518181527f835c54e841371e2a7d1e8f3f01d7fccc33ae34b1fd0b8b1b883c0fbecce5074a906020015b60405180910390a150565b6000610a5383836000610dc9565b90505b92915050565b6931b7b73a3937b63632b960b11b7f0000000000000000000000000000000000000000000000000000000000000000604051632474521560e21b8152600481018390523360248201526001600160a01b0391909116906391d1485490604401602060405180830381865afa158015610ad8573d6000803e3d6000fd5b505050506040513d601f19601f82011682018060405250810190610afc9190613f82565b6040518060400160405280601381526020016000805160206140a583398151915281525090610b3e5760405162461bcd60e51b815260040161098f9190613d09565b50600a5460408051808201909152601081526f30b63932b0b23c9039b43aba3237bbb760811b60208201529060ff1615610b8b5760405162461bcd60e51b815260040161098f9190613d09565b50600a805460ff19166001179055600060038190556004558115610c1657600060039054906101000a90046001600160a01b03166001600160a01b031663be8f16686040518163ffffffff1660e01b8152600401600060405180830381600087803b158015610bf957600080fd5b505af1158015610c0d573d6000803e3d6000fd5b50505050610c7f565b600060039054906101000a90046001600160a01b03166001600160a01b031663e557bb4d6040518163ffffffff1660e01b8152600401600060405180830381600087803b158015610c6657600080fd5b505af1158015610c7a573d6000803e3d6000fd5b505050505b6040517f4426aa1fb73e391071491fcfe21a88b5c38a0a0333a1f6e77161470439704cf890600090a15050565b600080610cb7612585565b90506000600860009054906101000a90046001600160a01b03166001600160a01b03166318160ddd6040518163ffffffff1660e01b8152600401602060405180830381865afa158015610d0e573d6000803e3d6000fd5b505050506040513d601f19601f82011682018060405250810190610d329190613ff6565b9050801580610d3f575081155b15610d5457670de0b6b3a76400009250505090565b610d5e8282612e6f565b9250505090565b610d6e33612e8e565b604051806040016040528060178152602001766e6f7420617574686f72697a656420746f20706175736560481b81525090610dbc5760405162461bcd60e51b815260040161098f9190613d09565b506000805460ff19169055565b6000805460408051808201909152601281527118dbdb9d1c9858dd081a5cc81c185d5cd95960721b60208201529060ff1615610e185760405162461bcd60e51b815260040161098f9190613d09565b50600a5460408051808201909152601081526f2837b7b61034b99039b43aba3237bbb760811b60208201529060ff1615610e655760405162461bcd60e51b815260040161098f9190613d09565b5082610e7357506000611009565b6000610e7d610cac565b9050610e8884612f30565b6000610e948583612e6f565b9050838110158015610ea65750600081115b6040518060400160405280600e81526020016d1a5b9d985b1a5908185b5bdd5b9d60921b81525090610eeb5760405162461bcd60e51b815260040161098f9190613d09565b506008546040516340c10f1960e01b81526001600160a01b03888116600483015260248201849052909116906340c10f1990604401600060405180830381600087803b158015610f3a57600080fd5b505af1158015610f4e573d6000803e3d6000fd5b50505050610f5a612e65565b336001600160a01b0387161480610f795750306001600160a01b038716145b15610fbe57604080518681526020810183905233917f90890809c654f11d6e72a28fa60149770a0d11ec6c92319d6ceb2bb0a4ea1a15910160405180910390a2611005565b60408051868152602081018390526001600160a01b0388169133917f512d56e1f791d3bc07b8085104584ec42faefbefed34bbc0b881d8da16a8ebe1910160405180910390a35b9150505b9392505050565b69676f7665726e616e636560b01b6b706f6f6c5f666163746f727960a01b7f0000000000000000000000000000000000000000000000000000000000000000604051636bab521160e11b815260048101849052602481018390523360448201526001600160a01b03919091169063d756a42290606401602060405180830381865afa1580156110a3573d6000803e3d6000fd5b505050506040513d601f19601f820116820180604052508101906110c79190613f82565b6040518060400160405280601381526020016000805160206140a5833981519152815250906111095760405162461bcd60e51b815260040161098f9190613d09565b506007546040805180820190915260168152751059191c995cdcc81a5cc8185b1c9958591e481cd95d60521b6020820152906001600160a01b0316156111625760405162461bcd60e51b815260040161098f9190613d09565b5060085460405163059eadeb60e41b81526001600160a01b0391821660048201526000917f000000000000000000000000000000000000000000000000000000000000000016906359eadeb090602401602060405180830381865afa1580156111cf573d6000803e3d6000fd5b505050506040513d601f19601f820116820180604052508101906111f3919061400f565b6040805180820190915260188152771e995c9bc81859191c995cdcc81b9bdd08185b1b1bddd95960421b60208201529091506001600160a01b03821661124c5760405162461bcd60e51b815260040161098f9190613d09565b50600780546001600160a01b0319166001600160a01b038316179055611270612f98565b6040516001600160a01b038216907f11a945e6ecbc8413276d84b4f853634a407ccf5a1a60b1fa649aea71ea386ff290600090a2505050565b7f0000000000000000000000000000000000000000000000000000000000000000604051632474521560e21b815269676f7665726e616e636560b01b60048201523360248201526001600160a01b0391909116906391d1485490604401602060405180830381865afa158015611323573d6000803e3d6000fd5b505050506040513d601f19601f820116820180604052508101906113479190613f82565b6040518060400160405280601381526020016000805160206140a5833981519152815250906113895760405162461bcd60e51b815260040161098f9190613d09565b5060408051808201909152600e81526d1a5b9d985b1a5908185b5bdd5b9d60921b6020820152670de0b6b3a76400008211156113d85760405162461bcd60e51b815260040161098f9190613d09565b5060028190556113e6612e65565b6040518181527f1db2c53232018407992628d7b1348ef20b6a6ebd608237083750d8a86774b90b90602001610a3a565b600080611424308585610dc9565b6007546040516305dc812160e31b8152336004820152602481018390529192506001600160a01b031690632ee4090890604401600060405180830381600087803b15801561147157600080fd5b505af1158015611485573d6000803e3d6000fd5b50929695505050505050565b6008546040516370a0823160e01b815233600482015260009182916001600160a01b03909116906370a0823190602401602060405180830381865afa1580156114de573d6000803e3d6000fd5b505050506040513d601f19601f820116820180604052508101906115029190613ff6565b6007546040516370a0823160e01b815233600482015291925085916001600160a01b03909116906370a0823190602401602060405180830381865afa15801561154f573d6000803e3d6000fd5b505050506040513d601f19601f820116820180604052508101906115739190613ff6565b61157d908361402c565b101560405180604001604052806014815260200173696e73756666696369656e742062616c616e636560601b815250906115ca5760405162461bcd60e51b815260040161098f9190613d09565b5083811015611658576007546001600160a01b0316634974c67933806115f08589614044565b6040516001600160e01b031960e086901b1681526001600160a01b0393841660048201529290911660248301526044820152606401600060405180830381600087803b15801561163f57600080fd5b505af1158015611653573d6000803e3d6000fd5b505050505b611662848461166a565b949350505050565b60008083116040518060400160405280600e81526020016d1a5b9d985b1a5908185b5bdd5b9d60921b815250906116b45760405162461bcd60e51b815260040161098f9190613d09565b506008546040516370a0823160e01b81523360048201526001600160a01b0390911690849082906370a0823190602401602060405180830381865afa158015611701573d6000803e3d6000fd5b505050506040513d601f19601f820116820180604052508101906117259190613ff6565b101560405180604001604052806014815260200173696e73756666696369656e742062616c616e636560601b815250906117725760405162461bcd60e51b815260040161098f9190613d09565b5060405163622e68cb60e01b81523360048201526000907f00000000000000000000000000000000000000000000000000000000000000006001600160a01b03169063622e68cb90602401602060405180830381865afa1580156117da573d6000803e3d6000fd5b505050506040513d601f19601f820116820180604052508101906117fe9190613f82565b6118115761180c338661268a565b611814565b60005b905060006118228287614044565b9050826001600160a01b03166318160ddd6040518163ffffffff1660e01b8152600401602060405180830381865afa158015611862573d6000803e3d6000fd5b505050506040513d601f19601f820116820180604052508101906118869190613ff6565b8614156118905750845b60006118a461189d610cac565b8390613060565b9050858110156040518060600160405280602d8152602001614078602d9139906118e15760405162461bcd60e51b815260040161098f9190613d09565b50600a5460ff166118f5576118f581613075565b604051632770a7eb60e21b8152336004820152602481018890526001600160a01b03851690639dc29fac906044016020604051808303816000875af1158015611942573d6000803e3d6000fd5b505050506040513d601f19601f820116820180604052508101906119669190613ff6565b506119713382613299565b604080518281526020810189905233917fe5b754fb1abb7f01b499791d0b820ae3b6af3424ac1c59768edb53f4ec31a929910160405180910390a29695505050505050565b6119bf33612e8e565b604051806040016040528060178152602001766e6f7420617574686f72697a656420746f20706175736560481b81525090611a0d5760405162461bcd60e51b815260040161098f9190613d09565b506000805460ff19166001179055565b7f0000000000000000000000000000000000000000000000000000000000000000604051632474521560e21b815269676f7665726e616e636560b01b60048201523360248201526001600160a01b0391909116906391d1485490604401602060405180830381865afa158015611a97573d6000803e3d6000fd5b505050506040513d601f19601f82011682018060405250810190611abb9190613f82565b6040518060400160405280601381526020016000805160206140a583398151915281525090611afd5760405162461bcd60e51b815260040161098f9190613d09565b50611b06612e65565b565b7f0000000000000000000000000000000000000000000000000000000000000000604051632474521560e21b815269676f7665726e616e636560b01b60048201523360248201526001600160a01b0391909116906391d1485490604401602060405180830381865afa158015611b82573d6000803e3d6000fd5b505050506040513d601f19601f82011682018060405250810190611ba69190613f82565b6040518060400160405280601381526020016000805160206140a583398151915281525090611be85760405162461bcd60e51b815260040161098f9190613d09565b50611bf5600454826132b5565b60038190556040518181527f3b8d5112118b499d63745e8bbf21c9fe9f330746abe331682c80fd3cf12b881c90602001610a3a565b7f0000000000000000000000000000000000000000000000000000000000000000604051632474521560e21b815269676f7665726e616e636560b01b60048201523360248201526001600160a01b0391909116906391d1485490604401602060405180830381865afa158015611ca4573d6000803e3d6000fd5b505050506040513d601f19601f82011682018060405250810190611cc89190613f82565b6040518060400160405280601381526020016000805160206140a583398151915281525090611d0a5760405162461bcd60e51b815260040161098f9190613d09565b50611d17816003546132b5565b60048190556040518181527f4790ff7239b6eee1f09c194f1df66a76ff802480b66857c2e2963ae69f5cb1a090602001610a3a565b69676f7665726e616e636560b01b6b706f6f6c5f666163746f727960a01b7f0000000000000000000000000000000000000000000000000000000000000000604051636bab521160e11b815260048101849052602481018390523360448201526001600160a01b03919091169063d756a42290606401602060405180830381865afa158015611ddf573d6000803e3d6000fd5b505050506040513d601f19601f82011682018060405250810190611e039190613f82565b6040518060400160405280601381526020016000805160206140a583398151915281525090611e455760405162461bcd60e51b815260040161098f9190613d09565b506008546040805180820190915260168152751059191c995cdcc81a5cc8185b1c9958591e481cd95d60521b6020820152906001600160a01b031615611e9e5760405162461bcd60e51b815260040161098f9190613d09565b50306001600160a01b0316836001600160a01b031663075461726040518163ffffffff1660e01b8152600401602060405180830381865afa158015611ee7573d6000803e3d6000fd5b505050506040513d601f19601f82011682018060405250810190611f0b919061400f565b6001600160a01b0316146040518060800160405280604481526020016140c56044913990611f4c5760405162461bcd60e51b815260040161098f9190613d09565b50600880546001600160a01b0319166001600160a01b038516179055611f70612f98565b6040516001600160a01b038416907f1c1820b4910e7e24202fa882184fde52e795a3113b621ded50b099b270159acc90600090a2505050565b6040805180820190915260188152771e995c9bc81859191c995cdcc81b9bdd08185b1b1bddd95960421b60208201526001600160a01b038516611fff5760405162461bcd60e51b815260040161098f9190613d09565b50600a8054610100600160a81b0319166101006001600160a01b0387160217905561202d8686858585613349565b505050505050565b6000610a5633836000610dc9565b60008082116040518060400160405280600e81526020016d1a5b9d985b1a5908185b5bdd5b9d60921b8152509061208d5760405162461bcd60e51b815260040161098f9190613d09565b506008546040516370a0823160e01b81526001600160a01b0385811660048301529091169060009082906370a0823190602401602060405180830381865afa1580156120dd573d6000803e3d6000fd5b505050506040513d601f19601f820116820180604052508101906121019190613ff6565b1160405180604001604052806014815260200173696e73756666696369656e742062616c616e636560601b8152509061214d5760405162461bcd60e51b815260040161098f9190613d09565b506000612158610cac565b905060006121668583612e6f565b9050826001600160a01b03166318160ddd6040518163ffffffff1660e01b8152600401602060405180830381865afa1580156121a6573d6000803e3d6000fd5b505050506040513d601f19601f820116820180604052508101906121ca9190613ff6565b8114156121db579250610a56915050565b6001600160a01b038681166000818152600660209081526040808320815160608101835290546001600160401b038082168352600160401b8204811694830194909452600160801b9004909216828201525163622e68cb60e01b815260048101939093529290917f00000000000000000000000000000000000000000000000000000000000000009091169063622e68cb90602401602060405180830381865afa15801561228d573d6000803e3d6000fd5b505050506040513d601f19601f820116820180604052508101906122b19190613f82565b6122ea576122e782600001516001600160401b031683604001516001600160401b031684602001516001600160401b0316612624565b90505b600061230861230183670de0b6b3a7640000614044565b8690613060565b90506000612316898361344b565b9a9950505050505050505050565b7f0000000000000000000000000000000000000000000000000000000000000000604051632474521560e21b815269676f7665726e616e636560b01b60048201523360248201526001600160a01b0391909116906391d1485490604401602060405180830381865afa15801561239e573d6000803e3d6000fd5b505050506040513d601f19601f820116820180604052508101906123c29190613f82565b6040518060400160405280601381526020016000805160206140a5833981519152815250906124045760405162461bcd60e51b815260040161098f9190613d09565b50600060039054906101000a90046001600160a01b03166001600160a01b031663be8f16686040518163ffffffff1660e01b8152600401600060405180830381600087803b15801561245557600080fd5b505af1158015612469573d6000803e3d6000fd5b50505050565b7f0000000000000000000000000000000000000000000000000000000000000000604051632474521560e21b815269676f7665726e616e636560b01b60048201523360248201526001600160a01b0391909116906391d1485490604401602060405180830381865afa1580156124e9573d6000803e3d6000fd5b505050506040513d601f19601f8201168201806040525081019061250d9190613f82565b6040518060400160405280601381526020016000805160206140a58339815191528152509061254f5760405162461bcd60e51b815260040161098f9190613d09565b5060058190556040518181527f5f17e44485ef0a35b1aadc0d24c1ee14ebea52f64438b4dc087c1d8386a1aa3090602001610a3a565b60008054630100000090046001600160a01b0316806125ac576125a6613477565b91505090565b6000816001600160a01b031663b40494e56040518163ffffffff1660e01b8152600401602060405180830381865afa1580156125ec573d6000803e3d6000fd5b505050506040513d601f19601f820116820180604052508101906126109190613ff6565b905061261a613477565b610d5e908261402c565b6000806126318442614044565b600454909150858210158061264557508381115b156126535791506110099050565b600061265f8388612e6f565b90506126758161266f8488614044565b90613060565b61267f9086614044565b979650505050505050565b6001600160a01b038281166000818152600660209081526040808320815160608101835290546001600160401b038082168352600160401b8204811694830194909452600160801b90049092168282015260085490516370a0823160e01b81526004810194909452919390929116906370a0823190602401602060405180830381865afa15801561271f573d6000803e3d6000fd5b505050506040513d601f19601f820116820180604052508101906127439190613ff6565b612751576000915050610a56565b600061278582600001516001600160401b031683604001516001600160401b031684602001516001600160401b0316612624565b90506127918482613060565b95945050505050565b6000610a5682600061166a565b6000610a53338484610dc9565b7f0000000000000000000000000000000000000000000000000000000000000000604051632474521560e21b815269676f7665726e616e636560b01b60048201523360248201526001600160a01b0391909116906391d1485490604401602060405180830381865afa15801561282e573d6000803e3d6000fd5b505050506040513d601f19601f820116820180604052508101906128529190613f82565b6040518060400160405280601381526020016000805160206140a5833981519152815250906128945760405162461bcd60e51b815260040161098f9190613d09565b50600054630100000090046001600160a01b0316801561290257806001600160a01b031663be8f16686040518163ffffffff1660e01b8152600401600060405180830381600087803b1580156128e957600080fd5b505af11580156128fd573d6000803e3d6000fd5b505050505b600080546301000000600160b81b03191663010000006001600160a01b0385811691820292909217909255604051630368a3a560e31b8152838216600482015260248101929092527f00000000000000000000000000000000000000000000000000000000000000001690631b451d2890604401600060405180830381600087803b15801561299057600080fd5b505af11580156129a4573d6000803e3d6000fd5b50506040516001600160a01b03851681527f161584aed96e7f34998117c9ad67e2d21ff46d2a42775c22b11ed282f3c7b2cd9250602001905060405180910390a15050565b6008546001600160a01b0316331480612a0c57506007546001600160a01b031633145b6040518060400160405280601381526020016000805160206140a583398151915281525090612a4e5760405162461bcd60e51b815260040161098f9190613d09565b50600854604051635b80b5fb60e11b81526001600160a01b03848116600483015291821660248201527f00000000000000000000000000000000000000000000000000000000000000009091169063b7016bf690604401602060405180830381865afa158015612ac2573d6000803e3d6000fd5b505050506040513d601f19601f82011682018060405250810190612ae69190613f82565b80612b835750600854604051635b80b5fb60e11b81526001600160a01b03858116600483015291821660248201527f00000000000000000000000000000000000000000000000000000000000000009091169063b7016bf690604401602060405180830381865afa158015612b5f573d6000803e3d6000fd5b505050506040513d601f19601f82011682018060405250810190612b839190613f82565b80612c13575060405163622e68cb60e01b81526001600160a01b0383811660048301527f0000000000000000000000000000000000000000000000000000000000000000169063622e68cb90602401602060405180830381865afa158015612bef573d6000803e3d6000fd5b505050506040513d601f19601f82011682018060405250810190612c139190613f82565b80612ca3575060405163622e68cb60e01b81526001600160a01b0384811660048301527f0000000000000000000000000000000000000000000000000000000000000000169063622e68cb90602401602060405180830381865afa158015612c7f573d6000803e3d6000fd5b505050506040513d601f19601f82011682018060405250810190612ca39190613f82565b80612d335750604051631fd4b62560e21b81526001600160a01b0383811660048301527f00000000000000000000000000000000000000000000000000000000000000001690637f52d89490602401602060405180830381865afa158015612d0f573d6000803e3d6000fd5b505050506040513d601f19601f82011682018060405250810190612d339190613f82565b80612dc35750604051631fd4b62560e21b81526001600160a01b0384811660048301527f00000000000000000000000000000000000000000000000000000000000000001690637f52d89490602401602060405180830381865afa158015612d9f573d6000803e3d6000fd5b505050506040513d601f19601f82011682018060405250810190612dc39190613f82565b15612dcd57505050565b6001600160a01b03821615612de757612de78284836134e9565b505050565b6040516321f8a72160e01b81526a3937b632a6b0b730b3b2b960a91b60048201526000906001600160a01b038316906321f8a72190602401602060405180830381865afa158015612e41573d6000803e3d6000fd5b505050506040513d601f19601f82011682018060405250810190610a56919061400f565b611b066000613075565b600081612e84670de0b6b3a764000085613fb5565b610a539190613fd4565b60007f0000000000000000000000000000000000000000000000000000000000000000604051632474521560e21b815269676f7665726e616e636560b01b60048201526001600160a01b03848116602483015291909116906391d1485490604401602060405180830381865afa158015612f0c573d6000803e3d6000fd5b505050506040513d601f19601f82011682018060405250810190610a569190613f82565b604080518082019091526011815270696e76616c6964206d73672e76616c756560781b60208201523415612f775760405162461bcd60e51b815260040161098f9190613d09565b50600a54612f959061010090046001600160a01b0316333084613851565b50565b6007546008546001600160a01b039182169116811580612fbf57506001600160a01b038116155b15612fc8575050565b604051636eb1769f60e11b81523060048201526001600160a01b0383811660248301526000919083169063dd62ed3e90604401602060405180830381865afa158015613018573d6000803e3d6000fd5b505050506040513d601f19601f8201168201806040525081019061303c9190613ff6565b1115613046575050565b61305c6001600160a01b038216836000196138bc565b5050565b6000670de0b6b3a7640000612e848385613fb5565b600054630100000090046001600160a01b031680613091575050565b6007546040805163ba4ac71160e01b815290516000926001600160a01b03169163ba4ac7119160048083019260209291908290030181865afa1580156130db573d6000803e3d6000fd5b505050506040513d601f19601f820116820180604052508101906130ff9190613ff6565b9050600061310e61189d610cac565b9050600061311c60016139d1565b905060006131356001548461306090919063ffffffff16565b9050600061314e6002548561306090919063ffffffff16565b905082871180613171575080826131658986614044565b61316f919061402c565b105b1561320257600083613183898461402c565b61318d9190614044565b604051632e1a7d4d60e01b8152600481018290529091506001600160a01b03881690632e1a7d4d906024016020604051808303816000875af11580156131d7573d6000803e3d6000fd5b505050506040513d601f19601f820116820180604052508101906131fb9190613f82565b5050613290565b600061320e8885614044565b905061321a838361402c565b81111561328e57600061322d8383614044565b90506132398882613299565b876001600160a01b031663d0e30db06040518163ffffffff1660e01b8152600401600060405180830381600087803b15801561327457600080fd5b505af1158015613288573d6000803e3d6000fd5b50505050505b505b50505050505050565b600a5461305c9061010090046001600160a01b031683836139db565b60408051808201909152600e81526d1a5b9d985b1a5908185b5bdd5b9d60921b6020820152828210156132fb5760405162461bcd60e51b815260040161098f9190613d09565b5060408051808201909152600e81526d1a5b9d985b1a5908185b5bdd5b9d60921b602082015266b1a2bc2ec50000821115612de75760405162461bcd60e51b815260040161098f9190613d09565b60005462010000900460ff1661336a57600054610100900460ff161561336e565b303b155b6133d15760405162461bcd60e51b815260206004820152602e60248201527f496e697469616c697a61626c653a20636f6e747261637420697320616c72656160448201526d191e481a5b9a5d1a585b1a5e995960921b606482015260840161098f565b60005462010000900460ff161580156133f6576000805462ffff001916620101001790555b61340260098787613c4d565b50600080546301000000600160b81b03191663010000006001600160a01b0387160217905560038390556004829055801561202d576000805462ff000019169055505050505050565b600081600181613463670de0b6b3a764000087613fb5565b61346d919061402c565b612e849190614044565b600a546040516370a0823160e01b815230600482015260009161010090046001600160a01b0316906370a0823190602401602060405180830381865afa1580156134c5573d6000803e3d6000fd5b505050506040513d601f19601f8201168201806040525081019061081c9190613ff6565b6001600160a01b03838116600081815260066020526040808220600754915163a853ba2f60e01b8152600481019490945293919291169063a853ba2f90602401602060405180830381865afa158015613546573d6000803e3d6000fd5b505050506040513d601f19601f8201168201806040525081019061356a9190613ff6565b6008546040516370a0823160e01b81526001600160a01b038881166004830152909116906370a0823190602401602060405180830381865afa1580156135b4573d6000803e3d6000fd5b505050506040513d601f19601f820116820180604052508101906135d89190613ff6565b6135e2919061402c565b8254909150600090613612906001600160401b0380821691600160801b8104821691600160401b90910416612624565b9050600061362a613623848761402c565b8690612e6f565b9050600061364082670de0b6b3a7640000614044565b905060006001600160a01b038816613690575060035461366442613a0b565b613a0b565b86546001600160401b0391909116600160801b0267ffffffffffffffff60801b199091161786556137c6565b6001600160a01b038816600090815260066020908152604091829020825160608101845290546001600160401b03808216808452600160401b83048216948401859052600160801b9092041693820184905290926136ed92612624565b8754909250600090613708906001600160401b031642614044565b8854909150600160801b90046001600160401b03168111156137555761372d81613a0b565b88546001600160401b0391909116600160801b0267ffffffffffffffff60801b199091161788555b61379c613762868661402c565b61376c4288613fb5565b8a5461378890600160801b90046001600160401b031688613fb5565b613792919061402c565b61365f9190613fd4565b88546001600160401b0391909116600160801b0267ffffffffffffffff60801b1990911617885550505b60006137d28483613060565b6137dc8487613060565b6137e6919061402c565b90506137f181613a0b565b87546001600160401b0391909116600160401b026fffffffffffffffff00000000000000001990911617875560055461382990613a0b565b875467ffffffffffffffff19166001600160401b039190911617909655505050505050505050565b6040516001600160a01b03808516602483015283166044820152606481018290526124699085906323b872dd60e01b906084015b60408051601f198184030181529190526020810180516001600160e01b03166001600160e01b031990931692909217909152613a77565b8015806139365750604051636eb1769f60e11b81523060048201526001600160a01b03838116602483015284169063dd62ed3e90604401602060405180830381865afa158015613910573d6000803e3d6000fd5b505050506040513d601f19601f820116820180604052508101906139349190613ff6565b155b6139a15760405162461bcd60e51b815260206004820152603660248201527f5361666545524332303a20617070726f76652066726f6d206e6f6e2d7a65726f60448201527520746f206e6f6e2d7a65726f20616c6c6f77616e636560501b606482015260840161098f565b6040516001600160a01b038316602482015260448101829052612de790849063095ea7b360e01b90606401613885565b6000610a56613477565b6040516001600160a01b038316602482015260448101829052612de790849063a9059cbb60e01b90606401613885565b60006001600160401b03821115613a735760405162461bcd60e51b815260206004820152602660248201527f53616665436173743a2076616c756520646f65736e27742066697420696e203660448201526534206269747360d01b606482015260840161098f565b5090565b6000613acc826040518060400160405280602081526020017f5361666545524332303a206c6f772d6c6576656c2063616c6c206661696c6564815250856001600160a01b0316613b499092919063ffffffff16565b805190915015612de75780806020019051810190613aea9190613f82565b612de75760405162461bcd60e51b815260206004820152602a60248201527f5361666545524332303a204552433230206f7065726174696f6e20646964206e6044820152691bdd081cdd58d8d9595960b21b606482015260840161098f565b60606116628484600085856001600160a01b0385163b613bab5760405162461bcd60e51b815260206004820152601d60248201527f416464726573733a2063616c6c20746f206e6f6e2d636f6e7472616374000000604482015260640161098f565b600080866001600160a01b03168587604051613bc7919061405b565b60006040518083038185875af1925050503d8060008114613c04576040519150601f19603f3d011682016040523d82523d6000602084013e613c09565b606091505b509150915061267f82828660608315613c23575081611009565b825115613c335782518084602001fd5b8160405162461bcd60e51b815260040161098f9190613d09565b828054613c5990613f47565b90600052602060002090601f016020900481019282613c7b5760008555613cc1565b82601f10613c945782800160ff19823516178555613cc1565b82800160010185558215613cc1579182015b82811115613cc1578235825591602001919060010190613ca6565b50613a739291505b80821115613a735760008155600101613cc9565b60005b83811015613cf8578181015183820152602001613ce0565b838111156124695750506000910152565b6020815260008251806020840152613d28816040850160208701613cdd565b601f01601f19169190910160400192915050565b600060208284031215613d4e57600080fd5b5035919050565b6001600160a01b0381168114612f9557600080fd5b60008060408385031215613d7d57600080fd5b8235613d8881613d55565b946020939093013593505050565b600060208284031215613da857600080fd5b813561100981613d55565b8015158114612f9557600080fd5b600060208284031215613dd357600080fd5b813561100981613db3565b600080600060608486031215613df357600080fd5b8335613dfe81613d55565b95602085013595506040909401359392505050565b60008060408385031215613e2657600080fd5b50508035926020909101359150565b60008060008060008060a08789031215613e4e57600080fd5b86356001600160401b0380821115613e6557600080fd5b818901915089601f830112613e7957600080fd5b813581811115613e8857600080fd5b8a6020828501011115613e9a57600080fd5b60209283019850965050870135613eb081613d55565b93506040870135613ec081613d55565b959894975092956060810135946080909101359350915050565b600080600060608486031215613eef57600080fd5b505081359360208301359350604090920135919050565b600080600060608486031215613f1b57600080fd5b8335613f2681613d55565b92506020840135613f3681613d55565b929592945050506040919091013590565b600181811c90821680613f5b57607f821691505b60208210811415613f7c57634e487b7160e01b600052602260045260246000fd5b50919050565b600060208284031215613f9457600080fd5b815161100981613db3565b634e487b7160e01b600052601160045260246000fd5b6000816000190483118215151615613fcf57613fcf613f9f565b500290565b600082613ff157634e487b7160e01b600052601260045260246000fd5b500490565b60006020828403121561400857600080fd5b5051919050565b60006020828403121561402157600080fd5b815161100981613d55565b6000821982111561403f5761403f613f9f565b500190565b60008282101561405657614056613f9f565b500390565b6000825161406d818460208701613cdd565b919091019291505056fe6e6f7420656e6f7567682066756e647320776572652077697468647261776e2066726f6d2074686520706f6f6c756e617574686f72697a65642061636365737300000000000000000000000000746865206d696e7465722061646472657373206f6620746865204c5020746f6b656e20616e642074686520706f6f6c206164647265737320646f206e6f74206d61746368a2646970667358221220358dbfcf69483c95d12df5208d7acf13e42f74907a327d7e45ef7db46ef64de764736f6c634300080a0033","bytecodeSha1":"eb41e7b8ec2de45d7942ef0799c2ba87bb0c8919","compiler":{"evm_version":"london","optimizer":{"enabled":true,"runs":200},"version":"0.8.10+commit.fc410830"},"contractName":"Erc20Pool","language":"Solidity","natspec":{"kind":"dev","methods":{"calcRedeem(address,uint256)":{"notice":"Calculates the amount of LP tokens that need to be redeemed to get a certain amount of underlying (includes fees and exchange rate)","params":{"account":"Address of the account redeeming.","underlyingAmount":"The amount of underlying desired."},"returns":{"_0":"Amount of LP tokens that need to be redeemed."}},"deposit(uint256)":{"notice":"Deposit funds into liquidity pool and mint LP tokens in exchange.","params":{"depositAmount":"Amount of the underlying asset to supply."},"returns":{"_0":"The actual amount minted."}},"deposit(uint256,uint256)":{"notice":"Deposit funds into liquidity pool and mint LP tokens in exchange.","params":{"depositAmount":"Amount of the underlying asset to supply.","minTokenAmount":"Minimum amount of LP tokens that should be minted."},"returns":{"_0":"The actual amount minted."}},"depositAndStake(uint256,uint256)":{"notice":"Deposit funds into liquidity pool and stake LP Tokens in Staker Vault.","params":{"depositAmount":"Amount of the underlying asset to supply.","minTokenAmount":"Minimum amount of LP tokens that should be minted."},"returns":{"_0":"The actual amount minted and staked."}},"depositFor(address,uint256)":{"notice":"Deposit funds for an address into liquidity pool and mint LP tokens in exchange.","params":{"account":"Account to deposit for.","depositAmount":"Amount of the underlying asset to supply."},"returns":{"_0":"Actual amount minted."}},"depositFor(address,uint256,uint256)":{"notice":"Deposit funds for an address into liquidity pool and mint LP tokens in exchange.","params":{"account":"Account to deposit for.","depositAmount":"Amount of the underlying asset to supply.","minTokenAmount":"Minimum amount of LP tokens that should be minted."},"returns":{"_0":"Actual amount minted."}},"exchangeRate()":{"details":"Exchange rate means: underlying = LP token * exchangeRate","notice":"Compute current exchange rate of LP tokens to underlying scaled to 1e18.","returns":{"_0":"Current exchange rate."}},"getLpToken()":{"notice":"Returns the address of the LP token of this pool","returns":{"_0":"The address of the LP token"}},"getNewCurrentFees(uint256,uint256,uint256)":{"notice":"Calculates the withdrawal fee a user would currently need to pay on currentBalance.","params":{"feeRatio":"Fees that would currently be paid on the user's entire balance","lastActionTimestamp":"Timestamp of the last fee update","timeToWait":"The total time to wait until the withdrawal fee reached the min. fee"},"returns":{"_0":"Updated fee amount on the currentBalance"}},"getWithdrawalFee(address,uint256)":{"notice":"Returns the withdrawal fee for `account`","params":{"account":"Address to get the withdrawal fee for","amount":"Amount to calculate the withdrawal fee for"},"returns":{"_0":"Withdrawal fee in LP tokens"}},"handleLpTokenTransfer(address,address,uint256)":{"notice":"Checkpoint function to update a user's withdrawal fees on deposit and redeem","params":{"amount":"Amount to redeem or deposit","from":"Address sending from","to":"Address sending to"}},"isShutdown()":{"returns":{"_0":"whether the pool is shut down or not"}},"pause()":{"notice":"Pause the contract."},"rebalanceVault()":{"notice":"Rebalance vault according to required underlying backing reserves."},"redeem(uint256)":{"notice":"Redeems the underlying asset by burning LP tokens.","params":{"redeemLpTokens":"Number of tokens to burn for redeeming the underlying."},"returns":{"_0":"Actual amount of the underlying redeemed."}},"redeem(uint256,uint256)":{"notice":"Redeems the underlying asset by burning LP tokens.","params":{"minRedeemAmount":"Minimum amount of underlying that should be received.","redeemLpTokens":"Number of tokens to burn for redeeming the underlying."},"returns":{"_0":"Actual amount of the underlying redeemed."}},"setStaker()":{"details":"Staker vault and LP token pairs are immutable and the staker vault can only be set once for a pool.      Only one vault exists per LP token. This information will be retrieved from the controller of the pool.","notice":"Set the staker vault for this pool's LP token"},"shutdownPool(bool)":{"notice":"permanently shuts down the pool","params":{"_shutdownStrategy":"if true, will also shut down the strategy and withdraw all the funds back to the pool"}},"shutdownStrategy()":{"details":"Should be called in case of emergencies.","notice":"Withdraws all funds from vault."},"totalUnderlying()":{"notice":"Compute total amount of underlying tokens for this pool.","returns":{"_0":"Total amount of underlying in pool."}},"unpause()":{"notice":"Unpause the contract."},"unstakeAndRedeem(uint256,uint256)":{"notice":"Redeems the underlying asset by burning LP tokens, unstaking any LP tokens needed.","params":{"minRedeemAmount":"Minimum amount of underlying that should be received.","redeemLpTokens":"Number of tokens to unstake and/or burn for redeeming the underlying."},"returns":{"_0":"Actual amount of the underlying redeemed."}},"updateMaxWithdrawalFee(uint256)":{"notice":"Update max withdrawal fee.","params":{"maxWithdrawalFee_":"New max withdrawal fee."}},"updateMinWithdrawalFee(uint256)":{"notice":"Update min withdrawal fee.","params":{"minWithdrawalFee_":"New min withdrawal fee."}},"updateRequiredReserves(uint256)":{"notice":"Update required reserve ratio.","params":{"requireReserves_":"New required reserve ratio."}},"updateReserveDeviation(uint256)":{"notice":"Update reserve deviation ratio.","params":{"reserveDeviation_":"New reserve deviation ratio."}},"updateVault(address)":{"notice":"Update vault.","params":{"vault_":"Address of new Vault contract."}},"updateWithdrawalFeeDecreasePeriod(uint256)":{"notice":"Update withdrawal fee decrease period.","params":{"withdrawalFeeDecreasePeriod_":"New withdrawal fee decrease period."}},"withdrawalFeeMetas(address)":{"notice":"Keeps track of the withdrawal fees on a per-address basis"}},"version":1},"opcodes":"PUSH1 0x80 PUSH1 0x40 MSTORE PUSH1 0x4 CALLDATASIZE LT PUSH2 0x271 JUMPI PUSH1 0x0 CALLDATALOAD PUSH1 0xE0 SHR DUP1 PUSH4 0x9510C364 GT PUSH2 0x14F JUMPI DUP1 PUSH4 0xC70920BC GT PUSH2 0xC1 JUMPI DUP1 PUSH4 0xE7563F3F GT PUSH2 0x7A JUMPI DUP1 PUSH4 0xE7563F3F EQ PUSH2 0x755 JUMPI DUP1 PUSH4 0xEC1C0A99 EQ PUSH2 0x775 JUMPI DUP1 PUSH4 0xF1B60C98 EQ PUSH2 0x78B JUMPI DUP1 PUSH4 0xF4C02C6D EQ PUSH2 0x7AB JUMPI DUP1 PUSH4 0xF77C4791 EQ PUSH2 0x7C1 JUMPI DUP1 PUSH4 0xFBFA77CF EQ PUSH2 0x7F5 JUMPI PUSH1 0x0 DUP1 REVERT JUMPDEST DUP1 PUSH4 0xC70920BC EQ PUSH2 0x6B7 JUMPI DUP1 PUSH4 0xD14397D7 EQ PUSH2 0x6CC JUMPI DUP1 PUSH4 0xD8178A0E EQ PUSH2 0x6EC JUMPI DUP1 PUSH4 0xDB006A75 EQ PUSH2 0x70C JUMPI DUP1 PUSH4 0xE2BBB158 EQ PUSH2 0x72C JUMPI DUP1 PUSH4 0xE4B8399F EQ PUSH2 0x73F JUMPI PUSH1 0x0 DUP1 REVERT JUMPDEST DUP1 PUSH4 0xB2F36B5B GT PUSH2 0x113 JUMPI DUP1 PUSH4 0xB2F36B5B EQ PUSH2 0x617 JUMPI DUP1 PUSH4 0xB6B55F25 EQ PUSH2 0x637 JUMPI DUP1 PUSH4 0xB8911267 EQ PUSH2 0x64A JUMPI DUP1 PUSH4 0xBE8F1668 EQ PUSH2 0x66A JUMPI DUP1 PUSH4 0xBF86D690 EQ PUSH2 0x67F JUMPI DUP1 PUSH4 0xC4A01CD0 EQ PUSH2 0x697 JUMPI PUSH1 0x0 DUP1 REVERT JUMPDEST DUP1 PUSH4 0x9510C364 EQ PUSH2 0x56A JUMPI DUP1 PUSH4 0x9816F473 EQ PUSH2 0x58A JUMPI DUP1 PUSH4 0x9C7A207B EQ PUSH2 0x5AD JUMPI DUP1 PUSH4 0x9EE933B5 EQ PUSH2 0x5CD JUMPI DUP1 PUSH4 0xB187BD26 EQ PUSH2 0x5ED JUMPI PUSH1 0x0 DUP1 REVERT JUMPDEST DUP1 PUSH4 0x5EBAF1DB GT PUSH2 0x1E8 JUMPI DUP1 PUSH4 0x7969EE28 GT PUSH2 0x1AC JUMPI DUP1 PUSH4 0x7969EE28 EQ PUSH2 0x4CF JUMPI DUP1 PUSH4 0x7B95B537 EQ PUSH2 0x4E2 JUMPI DUP1 PUSH4 0x7CBC2373 EQ PUSH2 0x502 JUMPI DUP1 PUSH4 0x8214F5A4 EQ PUSH2 0x522 JUMPI DUP1 PUSH4 0x8456CB59 EQ PUSH2 0x540 JUMPI DUP1 PUSH4 0x8F7265B0 EQ PUSH2 0x555 JUMPI PUSH1 0x0 DUP1 REVERT JUMPDEST DUP1 PUSH4 0x5EBAF1DB EQ PUSH2 0x444 JUMPI DUP1 PUSH4 0x5FCBD285 EQ PUSH2 0x464 JUMPI DUP1 PUSH4 0x66F07DD2 EQ PUSH2 0x484 JUMPI DUP1 PUSH4 0x6C18B4E6 EQ PUSH2 0x499 JUMPI DUP1 PUSH4 0x71207531 EQ PUSH2 0x4AF JUMPI PUSH1 0x0 DUP1 REVERT JUMPDEST DUP1 PUSH4 0x3214FA22 GT PUSH2 0x23A JUMPI DUP1 PUSH4 0x3214FA22 EQ PUSH2 0x35B JUMPI DUP1 PUSH4 0x37829F49 EQ PUSH2 0x371 JUMPI DUP1 PUSH4 0x3B65F089 EQ PUSH2 0x3E7 JUMPI DUP1 PUSH4 0x3BA0B9A9 EQ PUSH2 0x407 JUMPI DUP1 PUSH4 0x3F4BA83A EQ PUSH2 0x41C JUMPI DUP1 PUSH4 0x4CF5FBF5 EQ PUSH2 0x431 JUMPI PUSH1 0x0 DUP1 REVERT JUMPDEST DUP1 PUSH3 0x435DA5 EQ PUSH2 0x276 JUMPI DUP1 PUSH4 0x6FDDE03 EQ PUSH2 0x2C2 JUMPI DUP1 PUSH4 0x2954018C EQ PUSH2 0x2E4 JUMPI DUP1 PUSH4 0x2D8796BD EQ PUSH2 0x318 JUMPI DUP1 PUSH4 0x2F4F21E2 EQ PUSH2 0x33A JUMPI JUMPDEST PUSH1 0x0 DUP1 REVERT JUMPDEST CALLVALUE DUP1 ISZERO PUSH2 0x282 JUMPI PUSH1 0x0 DUP1 REVERT JUMPDEST POP PUSH32 0x0 JUMPDEST PUSH1 0x40 MLOAD PUSH1 0x1 PUSH1 0x1 PUSH1 0xA0 SHL SUB SWAP1 SWAP2 AND DUP2 MSTORE PUSH1 0x20 ADD JUMPDEST PUSH1 0x40 MLOAD DUP1 SWAP2 SUB SWAP1 RETURN JUMPDEST CALLVALUE DUP1 ISZERO PUSH2 0x2CE JUMPI PUSH1 0x0 DUP1 REVERT JUMPDEST POP PUSH2 0x2D7 PUSH2 0x821 JUMP JUMPDEST PUSH1 0x40 MLOAD PUSH2 0x2B9 SWAP2 SWAP1 PUSH2 0x3D09 JUMP JUMPDEST CALLVALUE DUP1 ISZERO PUSH2 0x2F0 JUMPI PUSH1 0x0 DUP1 REVERT JUMPDEST POP PUSH2 0x2A5 PUSH32 0x0 DUP2 JUMP JUMPDEST CALLVALUE DUP1 ISZERO PUSH2 0x324 JUMPI PUSH1 0x0 DUP1 REVERT JUMPDEST POP PUSH2 0x338 PUSH2 0x333 CALLDATASIZE PUSH1 0x4 PUSH2 0x3D3C JUMP JUMPDEST PUSH2 0x8AF JUMP JUMPDEST STOP JUMPDEST PUSH2 0x34D PUSH2 0x348 CALLDATASIZE PUSH1 0x4 PUSH2 0x3D6A JUMP JUMPDEST PUSH2 0xA45 JUMP JUMPDEST PUSH1 0x40 MLOAD SWAP1 DUP2 MSTORE PUSH1 0x20 ADD PUSH2 0x2B9 JUMP JUMPDEST CALLVALUE DUP1 ISZERO PUSH2 0x367 JUMPI PUSH1 0x0 DUP1 REVERT JUMPDEST POP PUSH2 0x34D PUSH1 0x1 SLOAD DUP2 JUMP JUMPDEST CALLVALUE DUP1 ISZERO PUSH2 0x37D JUMPI PUSH1 0x0 DUP1 REVERT JUMPDEST POP PUSH2 0x3BD PUSH2 0x38C CALLDATASIZE PUSH1 0x4 PUSH2 0x3D96 JUMP JUMPDEST PUSH1 0x6 PUSH1 0x20 MSTORE PUSH1 0x0 SWAP1 DUP2 MSTORE PUSH1 0x40 SWAP1 KECCAK256 SLOAD PUSH1 0x1 PUSH1 0x1 PUSH1 0x40 SHL SUB DUP1 DUP3 AND SWAP2 PUSH1 0x1 PUSH1 0x40 SHL DUP2 DIV DUP3 AND SWAP2 PUSH1 0x1 PUSH1 0x80 SHL SWAP1 SWAP2 DIV AND DUP4 JUMP JUMPDEST PUSH1 0x40 DUP1 MLOAD PUSH1 0x1 PUSH1 0x1 PUSH1 0x40 SHL SUB SWAP5 DUP6 AND DUP2 MSTORE SWAP3 DUP5 AND PUSH1 0x20 DUP5 ADD MSTORE SWAP3 AND SWAP2 DUP2 ADD SWAP2 SWAP1 SWAP2 MSTORE PUSH1 0x60 ADD PUSH2 0x2B9 JUMP JUMPDEST CALLVALUE DUP1 ISZERO PUSH2 0x3F3 JUMPI PUSH1 0x0 DUP1 REVERT JUMPDEST POP PUSH2 0x338 PUSH2 0x402 CALLDATASIZE PUSH1 0x4 PUSH2 0x3DC1 JUMP JUMPDEST PUSH2 0xA5C JUMP JUMPDEST CALLVALUE DUP1 ISZERO PUSH2 0x413 JUMPI PUSH1 0x0 DUP1 REVERT JUMPDEST POP PUSH2 0x34D PUSH2 0xCAC JUMP JUMPDEST CALLVALUE DUP1 ISZERO PUSH2 0x428 JUMPI PUSH1 0x0 DUP1 REVERT JUMPDEST POP PUSH2 0x338 PUSH2 0xD65 JUMP JUMPDEST PUSH2 0x34D PUSH2 0x43F CALLDATASIZE PUSH1 0x4 PUSH2 0x3DDE JUMP JUMPDEST PUSH2 0xDC9 JUMP JUMPDEST CALLVALUE DUP1 ISZERO PUSH2 0x450 JUMPI PUSH1 0x0 DUP1 REVERT JUMPDEST POP PUSH1 0x7 SLOAD PUSH2 0x2A5 SWAP1 PUSH1 0x1 PUSH1 0x1 PUSH1 0xA0 SHL SUB AND DUP2 JUMP JUMPDEST CALLVALUE DUP1 ISZERO PUSH2 0x470 JUMPI PUSH1 0x0 DUP1 REVERT JUMPDEST POP PUSH1 0x8 SLOAD PUSH2 0x2A5 SWAP1 PUSH1 0x1 PUSH1 0x1 PUSH1 0xA0 SHL SUB AND DUP2 JUMP JUMPDEST CALLVALUE DUP1 ISZERO PUSH2 0x490 JUMPI PUSH1 0x0 DUP1 REVERT JUMPDEST POP PUSH2 0x338 PUSH2 0x1010 JUMP JUMPDEST CALLVALUE DUP1 ISZERO PUSH2 0x4A5 JUMPI PUSH1 0x0 DUP1 REVERT JUMPDEST POP PUSH2 0x34D PUSH1 0x5 SLOAD DUP2 JUMP JUMPDEST CALLVALUE DUP1 ISZERO PUSH2 0x4BB JUMPI PUSH1 0x0 DUP1 REVERT JUMPDEST POP PUSH2 0x338 PUSH2 0x4CA CALLDATASIZE PUSH1 0x4 PUSH2 0x3D3C JUMP JUMPDEST PUSH2 0x12A9 JUMP JUMPDEST PUSH2 0x34D PUSH2 0x4DD CALLDATASIZE PUSH1 0x4 PUSH2 0x3E13 JUMP JUMPDEST PUSH2 0x1416 JUMP JUMPDEST CALLVALUE DUP1 ISZERO PUSH2 0x4EE JUMPI PUSH1 0x0 DUP1 REVERT JUMPDEST POP PUSH2 0x34D PUSH2 0x4FD CALLDATASIZE PUSH1 0x4 PUSH2 0x3E13 JUMP JUMPDEST PUSH2 0x1491 JUMP JUMPDEST CALLVALUE DUP1 ISZERO PUSH2 0x50E JUMPI PUSH1 0x0 DUP1 REVERT JUMPDEST POP PUSH2 0x34D PUSH2 0x51D CALLDATASIZE PUSH1 0x4 PUSH2 0x3E13 JUMP JUMPDEST PUSH2 0x166A JUMP JUMPDEST CALLVALUE DUP1 ISZERO PUSH2 0x52E JUMPI PUSH1 0x0 DUP1 REVERT JUMPDEST POP PUSH1 0x8 SLOAD PUSH1 0x1 PUSH1 0x1 PUSH1 0xA0 SHL SUB AND PUSH2 0x2A5 JUMP JUMPDEST CALLVALUE DUP1 ISZERO PUSH2 0x54C JUMPI PUSH1 0x0 DUP1 REVERT JUMPDEST POP PUSH2 0x338 PUSH2 0x19B6 JUMP JUMPDEST CALLVALUE DUP1 ISZERO PUSH2 0x561 JUMPI PUSH1 0x0 DUP1 REVERT JUMPDEST POP PUSH2 0x338 PUSH2 0x1A1D JUMP JUMPDEST CALLVALUE DUP1 ISZERO PUSH2 0x576 JUMPI PUSH1 0x0 DUP1 REVERT JUMPDEST POP PUSH2 0x338 PUSH2 0x585 CALLDATASIZE PUSH1 0x4 PUSH2 0x3D3C JUMP JUMPDEST PUSH2 0x1B08 JUMP JUMPDEST CALLVALUE DUP1 ISZERO PUSH2 0x596 JUMPI PUSH1 0x0 DUP1 REVERT JUMPDEST POP PUSH1 0xA SLOAD PUSH2 0x100 SWAP1 DIV PUSH1 0x1 PUSH1 0x1 PUSH1 0xA0 SHL SUB AND PUSH2 0x2A5 JUMP JUMPDEST CALLVALUE DUP1 ISZERO PUSH2 0x5B9 JUMPI PUSH1 0x0 DUP1 REVERT JUMPDEST POP PUSH2 0x338 PUSH2 0x5C8 CALLDATASIZE PUSH1 0x4 PUSH2 0x3D3C JUMP JUMPDEST PUSH2 0x1C2A JUMP JUMPDEST CALLVALUE DUP1 ISZERO PUSH2 0x5D9 JUMPI PUSH1 0x0 DUP1 REVERT JUMPDEST POP PUSH2 0x338 PUSH2 0x5E8 CALLDATASIZE PUSH1 0x4 PUSH2 0x3D96 JUMP JUMPDEST PUSH2 0x1D4C JUMP JUMPDEST CALLVALUE DUP1 ISZERO PUSH2 0x5F9 JUMPI PUSH1 0x0 DUP1 REVERT JUMPDEST POP PUSH1 0x0 SLOAD PUSH2 0x607 SWAP1 PUSH1 0xFF AND DUP2 JUMP JUMPDEST PUSH1 0x40 MLOAD SWAP1 ISZERO ISZERO DUP2 MSTORE PUSH1 0x20 ADD PUSH2 0x2B9 JUMP JUMPDEST CALLVALUE DUP1 ISZERO PUSH2 0x623 JUMPI PUSH1 0x0 DUP1 REVERT JUMPDEST POP PUSH2 0x338 PUSH2 0x632 CALLDATASIZE PUSH1 0x4 PUSH2 0x3E35 JUMP JUMPDEST PUSH2 0x1FA9 JUMP JUMPDEST PUSH2 0x34D PUSH2 0x645 CALLDATASIZE PUSH1 0x4 PUSH2 0x3D3C JUMP JUMPDEST PUSH2 0x2035 JUMP JUMPDEST CALLVALUE DUP1 ISZERO PUSH2 0x656 JUMPI PUSH1 0x0 DUP1 REVERT JUMPDEST POP PUSH2 0x34D PUSH2 0x665 CALLDATASIZE PUSH1 0x4 PUSH2 0x3D6A JUMP JUMPDEST PUSH2 0x2043 JUMP JUMPDEST CALLVALUE DUP1 ISZERO PUSH2 0x676 JUMPI PUSH1 0x0 DUP1 REVERT JUMPDEST POP PUSH2 0x338 PUSH2 0x2324 JUMP JUMPDEST CALLVALUE DUP1 ISZERO PUSH2 0x68B JUMPI PUSH1 0x0 DUP1 REVERT JUMPDEST POP PUSH1 0xA SLOAD PUSH1 0xFF AND PUSH2 0x607 JUMP JUMPDEST CALLVALUE DUP1 ISZERO PUSH2 0x6A3 JUMPI PUSH1 0x0 DUP1 REVERT JUMPDEST POP PUSH2 0x338 PUSH2 0x6B2 CALLDATASIZE PUSH1 0x4 PUSH2 0x3D3C JUMP JUMPDEST PUSH2 0x246F JUMP JUMPDEST CALLVALUE DUP1 ISZERO PUSH2 0x6C3 JUMPI PUSH1 0x0 DUP1 REVERT JUMPDEST POP PUSH2 0x34D PUSH2 0x2585 JUMP JUMPDEST CALLVALUE DUP1 ISZERO PUSH2 0x6D8 JUMPI PUSH1 0x0 DUP1 REVERT JUMPDEST POP PUSH2 0x34D PUSH2 0x6E7 CALLDATASIZE PUSH1 0x4 PUSH2 0x3EDA JUMP JUMPDEST PUSH2 0x2624 JUMP JUMPDEST CALLVALUE DUP1 ISZERO PUSH2 0x6F8 JUMPI PUSH1 0x0 DUP1 REVERT JUMPDEST POP PUSH2 0x34D PUSH2 0x707 CALLDATASIZE PUSH1 0x4 PUSH2 0x3D6A JUMP JUMPDEST PUSH2 0x268A JUMP JUMPDEST CALLVALUE DUP1 ISZERO PUSH2 0x718 JUMPI PUSH1 0x0 DUP1 REVERT JUMPDEST POP PUSH2 0x34D PUSH2 0x727 CALLDATASIZE PUSH1 0x4 PUSH2 0x3D3C JUMP JUMPDEST PUSH2 0x279A JUMP JUMPDEST PUSH2 0x34D PUSH2 0x73A CALLDATASIZE PUSH1 0x4 PUSH2 0x3E13 JUMP JUMPDEST PUSH2 0x27A7 JUMP JUMPDEST CALLVALUE DUP1 ISZERO PUSH2 0x74B JUMPI PUSH1 0x0 DUP1 REVERT JUMPDEST POP PUSH2 0x34D PUSH1 0x2 SLOAD DUP2 JUMP JUMPDEST CALLVALUE DUP1 ISZERO PUSH2 0x761 JUMPI PUSH1 0x0 DUP1 REVERT JUMPDEST POP PUSH2 0x338 PUSH2 0x770 CALLDATASIZE PUSH1 0x4 PUSH2 0x3D96 JUMP JUMPDEST PUSH2 0x27B4 JUMP JUMPDEST CALLVALUE DUP1 ISZERO PUSH2 0x781 JUMPI PUSH1 0x0 DUP1 REVERT JUMPDEST POP PUSH2 0x34D PUSH1 0x3 SLOAD DUP2 JUMP JUMPDEST CALLVALUE DUP1 ISZERO PUSH2 0x797 JUMPI PUSH1 0x0 DUP1 REVERT JUMPDEST POP PUSH2 0x338 PUSH2 0x7A6 CALLDATASIZE PUSH1 0x4 PUSH2 0x3F06 JUMP JUMPDEST PUSH2 0x29E9 JUMP JUMPDEST CALLVALUE DUP1 ISZERO PUSH2 0x7B7 JUMPI PUSH1 0x0 DUP1 REVERT JUMPDEST POP PUSH2 0x34D PUSH1 0x4 SLOAD DUP2 JUMP JUMPDEST CALLVALUE DUP1 ISZERO PUSH2 0x7CD JUMPI PUSH1 0x0 DUP1 REVERT JUMPDEST POP PUSH2 0x2A5 PUSH32 0x0 DUP2 JUMP JUMPDEST CALLVALUE DUP1 ISZERO PUSH2 0x801 JUMPI PUSH1 0x0 DUP1 REVERT JUMPDEST POP PUSH1 0x0 SLOAD PUSH2 0x2A5 SWAP1 PUSH4 0x1000000 SWAP1 DIV PUSH1 0x1 PUSH1 0x1 PUSH1 0xA0 SHL SUB AND DUP2 JUMP JUMPDEST SWAP1 POP SWAP1 JUMP JUMPDEST PUSH1 0x9 DUP1 SLOAD PUSH2 0x82E SWAP1 PUSH2 0x3F47 JUMP JUMPDEST DUP1 PUSH1 0x1F ADD PUSH1 0x20 DUP1 SWAP2 DIV MUL PUSH1 0x20 ADD PUSH1 0x40 MLOAD SWAP1 DUP2 ADD PUSH1 0x40 MSTORE DUP1 SWAP3 SWAP2 SWAP1 DUP2 DUP2 MSTORE PUSH1 0x20 ADD DUP3 DUP1 SLOAD PUSH2 0x85A SWAP1 PUSH2 0x3F47 JUMP JUMPDEST DUP1 ISZERO PUSH2 0x8A7 JUMPI DUP1 PUSH1 0x1F LT PUSH2 0x87C JUMPI PUSH2 0x100 DUP1 DUP4 SLOAD DIV MUL DUP4 MSTORE SWAP2 PUSH1 0x20 ADD SWAP2 PUSH2 0x8A7 JUMP JUMPDEST DUP3 ADD SWAP2 SWAP1 PUSH1 0x0 MSTORE PUSH1 0x20 PUSH1 0x0 KECCAK256 SWAP1 JUMPDEST DUP2 SLOAD DUP2 MSTORE SWAP1 PUSH1 0x1 ADD SWAP1 PUSH1 0x20 ADD DUP1 DUP4 GT PUSH2 0x88A JUMPI DUP3 SWAP1 SUB PUSH1 0x1F AND DUP3 ADD SWAP2 JUMPDEST POP POP POP POP POP DUP2 JUMP JUMPDEST PUSH32 0x0 PUSH1 0x40 MLOAD PUSH4 0x24745215 PUSH1 0xE2 SHL DUP2 MSTORE PUSH10 0x676F7665726E616E6365 PUSH1 0xB0 SHL PUSH1 0x4 DUP3 ADD MSTORE CALLER PUSH1 0x24 DUP3 ADD MSTORE PUSH1 0x1 PUSH1 0x1 PUSH1 0xA0 SHL SUB SWAP2 SWAP1 SWAP2 AND SWAP1 PUSH4 0x91D14854 SWAP1 PUSH1 0x44 ADD PUSH1 0x20 PUSH1 0x40 MLOAD DUP1 DUP4 SUB DUP2 DUP7 GAS STATICCALL ISZERO DUP1 ISZERO PUSH2 0x929 JUMPI RETURNDATASIZE PUSH1 0x0 DUP1 RETURNDATACOPY RETURNDATASIZE PUSH1 0x0 REVERT JUMPDEST POP POP POP POP PUSH1 0x40 MLOAD RETURNDATASIZE PUSH1 0x1F NOT PUSH1 0x1F DUP3 ADD AND DUP3 ADD DUP1 PUSH1 0x40 MSTORE POP DUP2 ADD SWAP1 PUSH2 0x94D SWAP2 SWAP1 PUSH2 0x3F82 JUMP JUMPDEST PUSH1 0x40 MLOAD DUP1 PUSH1 0x40 ADD PUSH1 0x40 MSTORE DUP1 PUSH1 0x13 DUP2 MSTORE PUSH1 0x20 ADD PUSH1 0x0 DUP1 MLOAD PUSH1 0x20 PUSH2 0x40A5 DUP4 CODECOPY DUP2 MLOAD SWAP2 MSTORE DUP2 MSTORE POP SWAP1 PUSH2 0x998 JUMPI PUSH1 0x40 MLOAD PUSH3 0x461BCD PUSH1 0xE5 SHL DUP2 MSTORE PUSH1 0x4 ADD PUSH2 0x98F SWAP2 SWAP1 PUSH2 0x3D09 JUMP JUMPDEST PUSH1 0x40 MLOAD DUP1 SWAP2 SUB SWAP1 REVERT JUMPDEST POP PUSH1 0x64 PUSH2 0x9AE PUSH8 0xDE0B6B3A7640000 PUSH1 0x32 PUSH2 0x3FB5 JUMP JUMPDEST PUSH2 0x9B8 SWAP2 SWAP1 PUSH2 0x3FD4 JUMP JUMPDEST DUP2 GT ISZERO PUSH1 0x40 MLOAD DUP1 PUSH1 0x40 ADD PUSH1 0x40 MSTORE DUP1 PUSH1 0xE DUP2 MSTORE PUSH1 0x20 ADD PUSH14 0x1A5B9D985B1A5908185B5BDD5B9D PUSH1 0x92 SHL DUP2 MSTORE POP SWAP1 PUSH2 0xA00 JUMPI PUSH1 0x40 MLOAD PUSH3 0x461BCD PUSH1 0xE5 SHL DUP2 MSTORE PUSH1 0x4 ADD PUSH2 0x98F SWAP2 SWAP1 PUSH2 0x3D09 JUMP JUMPDEST POP PUSH1 0x1 DUP2 SWAP1 SSTORE PUSH2 0xA0E PUSH2 0x2E65 JUMP JUMPDEST PUSH1 0x40 MLOAD DUP2 DUP2 MSTORE PUSH32 0x835C54E841371E2A7D1E8F3F01D7FCCC33AE34B1FD0B8B1B883C0FBECCE5074A SWAP1 PUSH1 0x20 ADD JUMPDEST PUSH1 0x40 MLOAD DUP1 SWAP2 SUB SWAP1 LOG1 POP JUMP JUMPDEST PUSH1 0x0 PUSH2 0xA53 DUP4 DUP4 PUSH1 0x0 PUSH2 0xDC9 JUMP JUMPDEST SWAP1 POP JUMPDEST SWAP3 SWAP2 POP POP JUMP JUMPDEST PUSH10 0x31B7B73A3937B63632B9 PUSH1 0xB1 SHL PUSH32 0x0 PUSH1 0x40 MLOAD PUSH4 0x24745215 PUSH1 0xE2 SHL DUP2 MSTORE PUSH1 0x4 DUP2 ADD DUP4 SWAP1 MSTORE CALLER PUSH1 0x24 DUP3 ADD MSTORE PUSH1 0x1 PUSH1 0x1 PUSH1 0xA0 SHL SUB SWAP2 SWAP1 SWAP2 AND SWAP1 PUSH4 0x91D14854 SWAP1 PUSH1 0x44 ADD PUSH1 0x20 PUSH1 0x40 MLOAD DUP1 DUP4 SUB DUP2 DUP7 GAS STATICCALL ISZERO DUP1 ISZERO PUSH2 0xAD8 JUMPI RETURNDATASIZE PUSH1 0x0 DUP1 RETURNDATACOPY RETURNDATASIZE PUSH1 0x0 REVERT JUMPDEST POP POP POP POP PUSH1 0x40 MLOAD RETURNDATASIZE PUSH1 0x1F NOT PUSH1 0x1F DUP3 ADD AND DUP3 ADD DUP1 PUSH1 0x40 MSTORE POP DUP2 ADD SWAP1 PUSH2 0xAFC SWAP2 SWAP1 PUSH2 0x3F82 JUMP JUMPDEST PUSH1 0x40 MLOAD DUP1 PUSH1 0x40 ADD PUSH1 0x40 MSTORE DUP1 PUSH1 0x13 DUP2 MSTORE PUSH1 0x20 ADD PUSH1 0x0 DUP1 MLOAD PUSH1 0x20 PUSH2 0x40A5 DUP4 CODECOPY DUP2 MLOAD SWAP2 MSTORE DUP2 MSTORE POP SWAP1 PUSH2 0xB3E JUMPI PUSH1 0x40 MLOAD PUSH3 0x461BCD PUSH1 0xE5 SHL DUP2 MSTORE PUSH1 0x4 ADD PUSH2 0x98F SWAP2 SWAP1 PUSH2 0x3D09 JUMP JUMPDEST POP PUSH1 0xA SLOAD PUSH1 0x40 DUP1 MLOAD DUP1 DUP3 ADD SWAP1 SWAP2 MSTORE PUSH1 0x10 DUP2 MSTORE PUSH16 0x30B63932B0B23C9039B43ABA3237BBB7 PUSH1 0x81 SHL PUSH1 0x20 DUP3 ADD MSTORE SWAP1 PUSH1 0xFF AND ISZERO PUSH2 0xB8B JUMPI PUSH1 0x40 MLOAD PUSH3 0x461BCD PUSH1 0xE5 SHL DUP2 MSTORE PUSH1 0x4 ADD PUSH2 0x98F SWAP2 SWAP1 PUSH2 0x3D09 JUMP JUMPDEST POP PUSH1 0xA DUP1 SLOAD PUSH1 0xFF NOT AND PUSH1 0x1 OR SWAP1 SSTORE PUSH1 0x0 PUSH1 0x3 DUP2 SWAP1 SSTORE PUSH1 0x4 SSTORE DUP2 ISZERO PUSH2 0xC16 JUMPI PUSH1 0x0 PUSH1 0x3 SWAP1 SLOAD SWAP1 PUSH2 0x100 EXP SWAP1 DIV PUSH1 0x1 PUSH1 0x1 PUSH1 0xA0 SHL SUB AND PUSH1 0x1 PUSH1 0x1 PUSH1 0xA0 SHL SUB AND PUSH4 0xBE8F1668 PUSH1 0x40 MLOAD DUP2 PUSH4 0xFFFFFFFF AND PUSH1 0xE0 SHL DUP2 MSTORE PUSH1 0x4 ADD PUSH1 0x0 PUSH1 0x40 MLOAD DUP1 DUP4 SUB DUP2 PUSH1 0x0 DUP8 DUP1 EXTCODESIZE ISZERO DUP1 ISZERO PUSH2 0xBF9 JUMPI PUSH1 0x0 DUP1 REVERT JUMPDEST POP GAS CALL ISZERO DUP1 ISZERO PUSH2 0xC0D JUMPI RETURNDATASIZE PUSH1 0x0 DUP1 RETURNDATACOPY RETURNDATASIZE PUSH1 0x0 REVERT JUMPDEST POP POP POP POP PUSH2 0xC7F JUMP JUMPDEST PUSH1 0x0 PUSH1 0x3 SWAP1 SLOAD SWAP1 PUSH2 0x100 EXP SWAP1 DIV PUSH1 0x1 PUSH1 0x1 PUSH1 0xA0 SHL SUB AND PUSH1 0x1 PUSH1 0x1 PUSH1 0xA0 SHL SUB AND PUSH4 0xE557BB4D PUSH1 0x40 MLOAD DUP2 PUSH4 0xFFFFFFFF AND PUSH1 0xE0 SHL DUP2 MSTORE PUSH1 0x4 ADD PUSH1 0x0 PUSH1 0x40 MLOAD DUP1 DUP4 SUB DUP2 PUSH1 0x0 DUP8 DUP1 EXTCODESIZE ISZERO DUP1 ISZERO PUSH2 0xC66 JUMPI PUSH1 0x0 DUP1 REVERT JUMPDEST POP GAS CALL ISZERO DUP1 ISZERO PUSH2 0xC7A JUMPI RETURNDATASIZE PUSH1 0x0 DUP1 RETURNDATACOPY RETURNDATASIZE PUSH1 0x0 REVERT JUMPDEST POP POP POP POP JUMPDEST PUSH1 0x40 MLOAD PUSH32 0x4426AA1FB73E391071491FCFE21A88B5C38A0A0333A1F6E77161470439704CF8 SWAP1 PUSH1 0x0 SWAP1 LOG1 POP POP JUMP JUMPDEST PUSH1 0x0 DUP1 PUSH2 0xCB7 PUSH2 0x2585 JUMP JUMPDEST SWAP1 POP PUSH1 0x0 PUSH1 0x8 PUSH1 0x0 SWAP1 SLOAD SWAP1 PUSH2 0x100 EXP SWAP1 DIV PUSH1 0x1 PUSH1 0x1 PUSH1 0xA0 SHL SUB AND PUSH1 0x1 PUSH1 0x1 PUSH1 0xA0 SHL SUB AND PUSH4 0x18160DDD PUSH1 0x40 MLOAD DUP2 PUSH4 0xFFFFFFFF AND PUSH1 0xE0 SHL DUP2 MSTORE PUSH1 0x4 ADD PUSH1 0x20 PUSH1 0x40 MLOAD DUP1 DUP4 SUB DUP2 DUP7 GAS STATICCALL ISZERO DUP1 ISZERO PUSH2 0xD0E JUMPI RETURNDATASIZE PUSH1 0x0 DUP1 RETURNDATACOPY RETURNDATASIZE PUSH1 0x0 REVERT JUMPDEST POP POP POP POP PUSH1 0x40 MLOAD RETURNDATASIZE PUSH1 0x1F NOT PUSH1 0x1F DUP3 ADD AND DUP3 ADD DUP1 PUSH1 0x40 MSTORE POP DUP2 ADD SWAP1 PUSH2 0xD32 SWAP2 SWAP1 PUSH2 0x3FF6 JUMP JUMPDEST SWAP1 POP DUP1 ISZERO DUP1 PUSH2 0xD3F JUMPI POP DUP2 ISZERO JUMPDEST ISZERO PUSH2 0xD54 JUMPI PUSH8 0xDE0B6B3A7640000 SWAP3 POP POP POP SWAP1 JUMP JUMPDEST PUSH2 0xD5E DUP3 DUP3 PUSH2 0x2E6F JUMP JUMPDEST SWAP3 POP POP POP SWAP1 JUMP JUMPDEST PUSH2 0xD6E CALLER PUSH2 0x2E8E JUMP JUMPDEST PUSH1 0x40 MLOAD DUP1 PUSH1 0x40 ADD PUSH1 0x40 MSTORE DUP1 PUSH1 0x17 DUP2 MSTORE PUSH1 0x20 ADD PUSH23 0x6E6F7420617574686F72697A656420746F207061757365 PUSH1 0x48 SHL DUP2 MSTORE POP SWAP1 PUSH2 0xDBC JUMPI PUSH1 0x40 MLOAD PUSH3 0x461BCD PUSH1 0xE5 SHL DUP2 MSTORE PUSH1 0x4 ADD PUSH2 0x98F SWAP2 SWAP1 PUSH2 0x3D09 JUMP JUMPDEST POP PUSH1 0x0 DUP1 SLOAD PUSH1 0xFF NOT AND SWAP1 SSTORE JUMP JUMPDEST PUSH1 0x0 DUP1 SLOAD PUSH1 0x40 DUP1 MLOAD DUP1 DUP3 ADD SWAP1 SWAP2 MSTORE PUSH1 0x12 DUP2 MSTORE PUSH18 0x18DBDB9D1C9858DD081A5CC81C185D5CD959 PUSH1 0x72 SHL PUSH1 0x20 DUP3 ADD MSTORE SWAP1 PUSH1 0xFF AND ISZERO PUSH2 0xE18 JUMPI PUSH1 0x40 MLOAD PUSH3 0x461BCD PUSH1 0xE5 SHL DUP2 MSTORE PUSH1 0x4 ADD PUSH2 0x98F SWAP2 SWAP1 PUSH2 0x3D09 JUMP JUMPDEST POP PUSH1 0xA SLOAD PUSH1 0x40 DUP1 MLOAD DUP1 DUP3 ADD SWAP1 SWAP2 MSTORE PUSH1 0x10 DUP2 MSTORE PUSH16 0x2837B7B61034B99039B43ABA3237BBB7 PUSH1 0x81 SHL PUSH1 0x20 DUP3 ADD MSTORE SWAP1 PUSH1 0xFF AND ISZERO PUSH2 0xE65 JUMPI PUSH1 0x40 MLOAD PUSH3 0x461BCD PUSH1 0xE5 SHL DUP2 MSTORE PUSH1 0x4 ADD PUSH2 0x98F SWAP2 SWAP1 PUSH2 0x3D09 JUMP JUMPDEST POP DUP3 PUSH2 0xE73 JUMPI POP PUSH1 0x0 PUSH2 0x1009 JUMP JUMPDEST PUSH1 0x0 PUSH2 0xE7D PUSH2 0xCAC JUMP JUMPDEST SWAP1 POP PUSH2 0xE88 DUP5 PUSH2 0x2F30 JUMP JUMPDEST PUSH1 0x0 PUSH2 0xE94 DUP6 DUP4 PUSH2 0x2E6F JUMP JUMPDEST SWAP1 POP DUP4 DUP2 LT ISZERO DUP1 ISZERO PUSH2 0xEA6 JUMPI POP PUSH1 0x0 DUP2 GT JUMPDEST PUSH1 0x40 MLOAD DUP1 PUSH1 0x40 ADD PUSH1 0x40 MSTORE DUP1 PUSH1 0xE DUP2 MSTORE PUSH1 0x20 ADD PUSH14 0x1A5B9D985B1A5908185B5BDD5B9D PUSH1 0x92 SHL DUP2 MSTORE POP SWAP1 PUSH2 0xEEB JUMPI PUSH1 0x40 MLOAD PUSH3 0x461BCD PUSH1 0xE5 SHL DUP2 MSTORE PUSH1 0x4 ADD PUSH2 0x98F SWAP2 SWAP1 PUSH2 0x3D09 JUMP JUMPDEST POP PUSH1 0x8 SLOAD PUSH1 0x40 MLOAD PUSH4 0x40C10F19 PUSH1 0xE0 SHL DUP2 MSTORE PUSH1 0x1 PUSH1 0x1 PUSH1 0xA0 SHL SUB DUP9 DUP2 AND PUSH1 0x4 DUP4 ADD MSTORE PUSH1 0x24 DUP3 ADD DUP5 SWAP1 MSTORE SWAP1 SWAP2 AND SWAP1 PUSH4 0x40C10F19 SWAP1 PUSH1 0x44 ADD PUSH1 0x0 PUSH1 0x40 MLOAD DUP1 DUP4 SUB DUP2 PUSH1 0x0 DUP8 DUP1 EXTCODESIZE ISZERO DUP1 ISZERO PUSH2 0xF3A JUMPI PUSH1 0x0 DUP1 REVERT JUMPDEST POP GAS CALL ISZERO DUP1 ISZERO PUSH2 0xF4E JUMPI RETURNDATASIZE PUSH1 0x0 DUP1 RETURNDATACOPY RETURNDATASIZE PUSH1 0x0 REVERT JUMPDEST POP POP POP POP PUSH2 0xF5A PUSH2 0x2E65 JUMP JUMPDEST CALLER PUSH1 0x1 PUSH1 0x1 PUSH1 0xA0 SHL SUB DUP8 AND EQ DUP1 PUSH2 0xF79 JUMPI POP ADDRESS PUSH1 0x1 PUSH1 0x1 PUSH1 0xA0 SHL SUB DUP8 AND EQ JUMPDEST ISZERO PUSH2 0xFBE JUMPI PUSH1 0x40 DUP1 MLOAD DUP7 DUP2 MSTORE PUSH1 0x20 DUP2 ADD DUP4 SWAP1 MSTORE CALLER SWAP2 PUSH32 0x90890809C654F11D6E72A28FA60149770A0D11EC6C92319D6CEB2BB0A4EA1A15 SWAP2 ADD PUSH1 0x40 MLOAD DUP1 SWAP2 SUB SWAP1 LOG2 PUSH2 0x1005 JUMP JUMPDEST PUSH1 0x40 DUP1 MLOAD DUP7 DUP2 MSTORE PUSH1 0x20 DUP2 ADD DUP4 SWAP1 MSTORE PUSH1 0x1 PUSH1 0x1 PUSH1 0xA0 SHL SUB DUP9 AND SWAP2 CALLER SWAP2 PUSH32 0x512D56E1F791D3BC07B8085104584EC42FAEFBEFED34BBC0B881D8DA16A8EBE1 SWAP2 ADD PUSH1 0x40 MLOAD DUP1 SWAP2 SUB SWAP1 LOG3 JUMPDEST SWAP2 POP POP JUMPDEST SWAP4 SWAP3 POP POP POP JUMP JUMPDEST PUSH10 0x676F7665726E616E6365 PUSH1 0xB0 SHL PUSH12 0x706F6F6C5F666163746F7279 PUSH1 0xA0 SHL PUSH32 0x0 PUSH1 0x40 MLOAD PUSH4 0x6BAB5211 PUSH1 0xE1 SHL DUP2 MSTORE PUSH1 0x4 DUP2 ADD DUP5 SWAP1 MSTORE PUSH1 0x24 DUP2 ADD DUP4 SWAP1 MSTORE CALLER PUSH1 0x44 DUP3 ADD MSTORE PUSH1 0x1 PUSH1 0x1 PUSH1 0xA0 SHL SUB SWAP2 SWAP1 SWAP2 AND SWAP1 PUSH4 0xD756A422 SWAP1 PUSH1 0x64 ADD PUSH1 0x20 PUSH1 0x40 MLOAD DUP1 DUP4 SUB DUP2 DUP7 GAS STATICCALL ISZERO DUP1 ISZERO PUSH2 0x10A3 JUMPI RETURNDATASIZE PUSH1 0x0 DUP1 RETURNDATACOPY RETURNDATASIZE PUSH1 0x0 REVERT JUMPDEST POP POP POP POP PUSH1 0x40 MLOAD RETURNDATASIZE PUSH1 0x1F NOT PUSH1 0x1F DUP3 ADD AND DUP3 ADD DUP1 PUSH1 0x40 MSTORE POP DUP2 ADD SWAP1 PUSH2 0x10C7 SWAP2 SWAP1 PUSH2 0x3F82 JUMP JUMPDEST PUSH1 0x40 MLOAD DUP1 PUSH1 0x40 ADD PUSH1 0x40 MSTORE DUP1 PUSH1 0x13 DUP2 MSTORE PUSH1 0x20 ADD PUSH1 0x0 DUP1 MLOAD PUSH1 0x20 PUSH2 0x40A5 DUP4 CODECOPY DUP2 MLOAD SWAP2 MSTORE DUP2 MSTORE POP SWAP1 PUSH2 0x1109 JUMPI PUSH1 0x40 MLOAD PUSH3 0x461BCD PUSH1 0xE5 SHL DUP2 MSTORE PUSH1 0x4 ADD PUSH2 0x98F SWAP2 SWAP1 PUSH2 0x3D09 JUMP JUMPDEST POP PUSH1 0x7 SLOAD PUSH1 0x40 DUP1 MLOAD DUP1 DUP3 ADD SWAP1 SWAP2 MSTORE PUSH1 0x16 DUP2 MSTORE PUSH22 0x1059191C995CDCC81A5CC8185B1C9958591E481CD95D PUSH1 0x52 SHL PUSH1 0x20 DUP3 ADD MSTORE SWAP1 PUSH1 0x1 PUSH1 0x1 PUSH1 0xA0 SHL SUB AND ISZERO PUSH2 0x1162 JUMPI PUSH1 0x40 MLOAD PUSH3 0x461BCD PUSH1 0xE5 SHL DUP2 MSTORE PUSH1 0x4 ADD PUSH2 0x98F SWAP2 SWAP1 PUSH2 0x3D09 JUMP JUMPDEST POP PUSH1 0x8 SLOAD PUSH1 0x40 MLOAD PUSH4 0x59EADEB PUSH1 0xE4 SHL DUP2 MSTORE PUSH1 0x1 PUSH1 0x1 PUSH1 0xA0 SHL SUB SWAP2 DUP3 AND PUSH1 0x4 DUP3 ADD MSTORE PUSH1 0x0 SWAP2 PUSH32 0x0 AND SWAP1 PUSH4 0x59EADEB0 SWAP1 PUSH1 0x24 ADD PUSH1 0x20 PUSH1 0x40 MLOAD DUP1 DUP4 SUB DUP2 DUP7 GAS STATICCALL ISZERO DUP1 ISZERO PUSH2 0x11CF JUMPI RETURNDATASIZE PUSH1 0x0 DUP1 RETURNDATACOPY RETURNDATASIZE PUSH1 0x0 REVERT JUMPDEST POP POP POP POP PUSH1 0x40 MLOAD RETURNDATASIZE PUSH1 0x1F NOT PUSH1 0x1F DUP3 ADD AND DUP3 ADD DUP1 PUSH1 0x40 MSTORE POP DUP2 ADD SWAP1 PUSH2 0x11F3 SWAP2 SWAP1 PUSH2 0x400F JUMP JUMPDEST PUSH1 0x40 DUP1 MLOAD DUP1 DUP3 ADD SWAP1 SWAP2 MSTORE PUSH1 0x18 DUP2 MSTORE PUSH24 0x1E995C9BC81859191C995CDCC81B9BDD08185B1B1BDDD959 PUSH1 0x42 SHL PUSH1 0x20 DUP3 ADD MSTORE SWAP1 SWAP2 POP PUSH1 0x1 PUSH1 0x1 PUSH1 0xA0 SHL SUB DUP3 AND PUSH2 0x124C JUMPI PUSH1 0x40 MLOAD PUSH3 0x461BCD PUSH1 0xE5 SHL DUP2 MSTORE PUSH1 0x4 ADD PUSH2 0x98F SWAP2 SWAP1 PUSH2 0x3D09 JUMP JUMPDEST POP PUSH1 0x7 DUP1 SLOAD PUSH1 0x1 PUSH1 0x1 PUSH1 0xA0 SHL SUB NOT AND PUSH1 0x1 PUSH1 0x1 PUSH1 0xA0 SHL SUB DUP4 AND OR SWAP1 SSTORE PUSH2 0x1270 PUSH2 0x2F98 JUMP JUMPDEST PUSH1 0x40 MLOAD PUSH1 0x1 PUSH1 0x1 PUSH1 0xA0 SHL SUB DUP3 AND SWAP1 PUSH32 0x11A945E6ECBC8413276D84B4F853634A407CCF5A1A60B1FA649AEA71EA386FF2 SWAP1 PUSH1 0x0 SWAP1 LOG2 POP POP POP JUMP JUMPDEST PUSH32 0x0 PUSH1 0x40 MLOAD PUSH4 0x24745215 PUSH1 0xE2 SHL DUP2 MSTORE PUSH10 0x676F7665726E616E6365 PUSH1 0xB0 SHL PUSH1 0x4 DUP3 ADD MSTORE CALLER PUSH1 0x24 DUP3 ADD MSTORE PUSH1 0x1 PUSH1 0x1 PUSH1 0xA0 SHL SUB SWAP2 SWAP1 SWAP2 AND SWAP1 PUSH4 0x91D14854 SWAP1 PUSH1 0x44 ADD PUSH1 0x20 PUSH1 0x40 MLOAD DUP1 DUP4 SUB DUP2 DUP7 GAS STATICCALL ISZERO DUP1 ISZERO PUSH2 0x1323 JUMPI RETURNDATASIZE PUSH1 0x0 DUP1 RETURNDATACOPY RETURNDATASIZE PUSH1 0x0 REVERT JUMPDEST POP POP POP POP PUSH1 0x40 MLOAD RETURNDATASIZE PUSH1 0x1F NOT PUSH1 0x1F DUP3 ADD AND DUP3 ADD DUP1 PUSH1 0x40 MSTORE POP DUP2 ADD SWAP1 PUSH2 0x1347 SWAP2 SWAP1 PUSH2 0x3F82 JUMP JUMPDEST PUSH1 0x40 MLOAD DUP1 PUSH1 0x40 ADD PUSH1 0x40 MSTORE DUP1 PUSH1 0x13 DUP2 MSTORE PUSH1 0x20 ADD PUSH1 0x0 DUP1 MLOAD PUSH1 0x20 PUSH2 0x40A5 DUP4 CODECOPY DUP2 MLOAD SWAP2 MSTORE DUP2 MSTORE POP SWAP1 PUSH2 0x1389 JUMPI PUSH1 0x40 MLOAD PUSH3 0x461BCD PUSH1 0xE5 SHL DUP2 MSTORE PUSH1 0x4 ADD PUSH2 0x98F SWAP2 SWAP1 PUSH2 0x3D09 JUMP JUMPDEST POP PUSH1 0x40 DUP1 MLOAD DUP1 DUP3 ADD SWAP1 SWAP2 MSTORE PUSH1 0xE DUP2 MSTORE PUSH14 0x1A5B9D985B1A5908185B5BDD5B9D PUSH1 0x92 SHL PUSH1 0x20 DUP3 ADD MSTORE PUSH8 0xDE0B6B3A7640000 DUP3 GT ISZERO PUSH2 0x13D8 JUMPI PUSH1 0x40 MLOAD PUSH3 0x461BCD PUSH1 0xE5 SHL DUP2 MSTORE PUSH1 0x4 ADD PUSH2 0x98F SWAP2 SWAP1 PUSH2 0x3D09 JUMP JUMPDEST POP PUSH1 0x2 DUP2 SWAP1 SSTORE PUSH2 0x13E6 PUSH2 0x2E65 JUMP JUMPDEST PUSH1 0x40 MLOAD DUP2 DUP2 MSTORE PUSH32 0x1DB2C53232018407992628D7B1348EF20B6A6EBD608237083750D8A86774B90B SWAP1 PUSH1 0x20 ADD PUSH2 0xA3A JUMP JUMPDEST PUSH1 0x0 DUP1 PUSH2 0x1424 ADDRESS DUP6 DUP6 PUSH2 0xDC9 JUMP JUMPDEST PUSH1 0x7 SLOAD PUSH1 0x40 MLOAD PUSH4 0x5DC8121 PUSH1 0xE3 SHL DUP2 MSTORE CALLER PUSH1 0x4 DUP3 ADD MSTORE PUSH1 0x24 DUP2 ADD DUP4 SWAP1 MSTORE SWAP2 SWAP3 POP PUSH1 0x1 PUSH1 0x1 PUSH1 0xA0 SHL SUB AND SWAP1 PUSH4 0x2EE40908 SWAP1 PUSH1 0x44 ADD PUSH1 0x0 PUSH1 0x40 MLOAD DUP1 DUP4 SUB DUP2 PUSH1 0x0 DUP8 DUP1 EXTCODESIZE ISZERO DUP1 ISZERO PUSH2 0x1471 JUMPI PUSH1 0x0 DUP1 REVERT JUMPDEST POP GAS CALL ISZERO DUP1 ISZERO PUSH2 0x1485 JUMPI RETURNDATASIZE PUSH1 0x0 DUP1 RETURNDATACOPY RETURNDATASIZE PUSH1 0x0 REVERT JUMPDEST POP SWAP3 SWAP7 SWAP6 POP POP POP POP POP POP JUMP JUMPDEST PUSH1 0x8 SLOAD PUSH1 0x40 MLOAD PUSH4 0x70A08231 PUSH1 0xE0 SHL DUP2 MSTORE CALLER PUSH1 0x4 DUP3 ADD MSTORE PUSH1 0x0 SWAP2 DUP3 SWAP2 PUSH1 0x1 PUSH1 0x1 PUSH1 0xA0 SHL SUB SWAP1 SWAP2 AND SWAP1 PUSH4 0x70A08231 SWAP1 PUSH1 0x24 ADD PUSH1 0x20 PUSH1 0x40 MLOAD DUP1 DUP4 SUB DUP2 DUP7 GAS STATICCALL ISZERO DUP1 ISZERO PUSH2 0x14DE JUMPI RETURNDATASIZE PUSH1 0x0 DUP1 RETURNDATACOPY RETURNDATASIZE PUSH1 0x0 REVERT JUMPDEST POP POP POP POP PUSH1 0x40 MLOAD RETURNDATASIZE PUSH1 0x1F NOT PUSH1 0x1F DUP3 ADD AND DUP3 ADD DUP1 PUSH1 0x40 MSTORE POP DUP2 ADD SWAP1 PUSH2 0x1502 SWAP2 SWAP1 PUSH2 0x3FF6 JUMP JUMPDEST PUSH1 0x7 SLOAD PUSH1 0x40 MLOAD PUSH4 0x70A08231 PUSH1 0xE0 SHL DUP2 MSTORE CALLER PUSH1 0x4 DUP3 ADD MSTORE SWAP2 SWAP3 POP DUP6 SWAP2 PUSH1 0x1 PUSH1 0x1 PUSH1 0xA0 SHL SUB SWAP1 SWAP2 AND SWAP1 PUSH4 0x70A08231 SWAP1 PUSH1 0x24 ADD PUSH1 0x20 PUSH1 0x40 MLOAD DUP1 DUP4 SUB DUP2 DUP7 GAS STATICCALL ISZERO DUP1 ISZERO PUSH2 0x154F JUMPI RETURNDATASIZE PUSH1 0x0 DUP1 RETURNDATACOPY RETURNDATASIZE PUSH1 0x0 REVERT JUMPDEST POP POP POP POP PUSH1 0x40 MLOAD RETURNDATASIZE PUSH1 0x1F NOT PUSH1 0x1F DUP3 ADD AND DUP3 ADD DUP1 PUSH1 0x40 MSTORE POP DUP2 ADD SWAP1 PUSH2 0x1573 SWAP2 SWAP1 PUSH2 0x3FF6 JUMP JUMPDEST PUSH2 0x157D SWAP1 DUP4 PUSH2 0x402C JUMP JUMPDEST LT ISZERO PUSH1 0x40 MLOAD DUP1 PUSH1 0x40 ADD PUSH1 0x40 MSTORE DUP1 PUSH1 0x14 DUP2 MSTORE PUSH1 0x20 ADD PUSH20 0x696E73756666696369656E742062616C616E6365 PUSH1 0x60 SHL DUP2 MSTORE POP SWAP1 PUSH2 0x15CA JUMPI PUSH1 0x40 MLOAD PUSH3 0x461BCD PUSH1 0xE5 SHL DUP2 MSTORE PUSH1 0x4 ADD PUSH2 0x98F SWAP2 SWAP1 PUSH2 0x3D09 JUMP JUMPDEST POP DUP4 DUP2 LT ISZERO PUSH2 0x1658 JUMPI PUSH1 0x7 SLOAD PUSH1 0x1 PUSH1 0x1 PUSH1 0xA0 SHL SUB AND PUSH4 0x4974C679 CALLER DUP1 PUSH2 0x15F0 DUP6 DUP10 PUSH2 0x4044 JUMP JUMPDEST PUSH1 0x40 MLOAD PUSH1 0x1 PUSH1 0x1 PUSH1 0xE0 SHL SUB NOT PUSH1 0xE0 DUP7 SWAP1 SHL AND DUP2 MSTORE PUSH1 0x1 PUSH1 0x1 PUSH1 0xA0 SHL SUB SWAP4 DUP5 AND PUSH1 0x4 DUP3 ADD MSTORE SWAP3 SWAP1 SWAP2 AND PUSH1 0x24 DUP4 ADD MSTORE PUSH1 0x44 DUP3 ADD MSTORE PUSH1 0x64 ADD PUSH1 0x0 PUSH1 0x40 MLOAD DUP1 DUP4 SUB DUP2 PUSH1 0x0 DUP8 DUP1 EXTCODESIZE ISZERO DUP1 ISZERO PUSH2 0x163F JUMPI PUSH1 0x0 DUP1 REVERT JUMPDEST POP GAS CALL ISZERO DUP1 ISZERO PUSH2 0x1653 JUMPI RETURNDATASIZE PUSH1 0x0 DUP1 RETURNDATACOPY RETURNDATASIZE PUSH1 0x0 REVERT JUMPDEST POP POP POP POP JUMPDEST PUSH2 0x1662 DUP5 DUP5 PUSH2 0x166A JUMP JUMPDEST SWAP5 SWAP4 POP POP POP POP JUMP JUMPDEST PUSH1 0x0 DUP1 DUP4 GT PUSH1 0x40 MLOAD DUP1 PUSH1 0x40 ADD PUSH1 0x40 MSTORE DUP1 PUSH1 0xE DUP2 MSTORE PUSH1 0x20 ADD PUSH14 0x1A5B9D985B1A5908185B5BDD5B9D PUSH1 0x92 SHL DUP2 MSTORE POP SWAP1 PUSH2 0x16B4 JUMPI PUSH1 0x40 MLOAD PUSH3 0x461BCD PUSH1 0xE5 SHL DUP2 MSTORE PUSH1 0x4 ADD PUSH2 0x98F SWAP2 SWAP1 PUSH2 0x3D09 JUMP JUMPDEST POP PUSH1 0x8 SLOAD PUSH1 0x40 MLOAD PUSH4 0x70A08231 PUSH1 0xE0 SHL DUP2 MSTORE CALLER PUSH1 0x4 DUP3 ADD MSTORE PUSH1 0x1 PUSH1 0x1 PUSH1 0xA0 SHL SUB SWAP1 SWAP2 AND SWAP1 DUP5 SWAP1 DUP3 SWAP1 PUSH4 0x70A08231 SWAP1 PUSH1 0x24 ADD PUSH1 0x20 PUSH1 0x40 MLOAD DUP1 DUP4 SUB DUP2 DUP7 GAS STATICCALL ISZERO DUP1 ISZERO PUSH2 0x1701 JUMPI RETURNDATASIZE PUSH1 0x0 DUP1 RETURNDATACOPY RETURNDATASIZE PUSH1 0x0 REVERT JUMPDEST POP POP POP POP PUSH1 0x40 MLOAD RETURNDATASIZE PUSH1 0x1F NOT PUSH1 0x1F DUP3 ADD AND DUP3 ADD DUP1 PUSH1 0x40 MSTORE POP DUP2 ADD SWAP1 PUSH2 0x1725 SWAP2 SWAP1 PUSH2 0x3FF6 JUMP JUMPDEST LT ISZERO PUSH1 0x40 MLOAD DUP1 PUSH1 0x40 ADD PUSH1 0x40 MSTORE DUP1 PUSH1 0x14 DUP2 MSTORE PUSH1 0x20 ADD PUSH20 0x696E73756666696369656E742062616C616E6365 PUSH1 0x60 SHL DUP2 MSTORE POP SWAP1 PUSH2 0x1772 JUMPI PUSH1 0x40 MLOAD PUSH3 0x461BCD PUSH1 0xE5 SHL DUP2 MSTORE PUSH1 0x4 ADD PUSH2 0x98F SWAP2 SWAP1 PUSH2 0x3D09 JUMP JUMPDEST POP PUSH1 0x40 MLOAD PUSH4 0x622E68CB PUSH1 0xE0 SHL DUP2 MSTORE CALLER PUSH1 0x4 DUP3 ADD MSTORE PUSH1 0x0 SWAP1 PUSH32 0x0 PUSH1 0x1 PUSH1 0x1 PUSH1 0xA0 SHL SUB AND SWAP1 PUSH4 0x622E68CB SWAP1 PUSH1 0x24 ADD PUSH1 0x20 PUSH1 0x40 MLOAD DUP1 DUP4 SUB DUP2 DUP7 GAS STATICCALL ISZERO DUP1 ISZERO PUSH2 0x17DA JUMPI RETURNDATASIZE PUSH1 0x0 DUP1 RETURNDATACOPY RETURNDATASIZE PUSH1 0x0 REVERT JUMPDEST POP POP POP POP PUSH1 0x40 MLOAD RETURNDATASIZE PUSH1 0x1F NOT PUSH1 0x1F DUP3 ADD AND DUP3 ADD DUP1 PUSH1 0x40 MSTORE POP DUP2 ADD SWAP1 PUSH2 0x17FE SWAP2 SWAP1 PUSH2 0x3F82 JUMP JUMPDEST PUSH2 0x1811 JUMPI PUSH2 0x180C CALLER DUP7 PUSH2 0x268A JUMP JUMPDEST PUSH2 0x1814 JUMP JUMPDEST PUSH1 0x0 JUMPDEST SWAP1 POP PUSH1 0x0 PUSH2 0x1822 DUP3 DUP8 PUSH2 0x4044 JUMP JUMPDEST SWAP1 POP DUP3 PUSH1 0x1 PUSH1 0x1 PUSH1 0xA0 SHL SUB AND PUSH4 0x18160DDD PUSH1 0x40 MLOAD DUP2 PUSH4 0xFFFFFFFF AND PUSH1 0xE0 SHL DUP2 MSTORE PUSH1 0x4 ADD PUSH1 0x20 PUSH1 0x40 MLOAD DUP1 DUP4 SUB DUP2 DUP7 GAS STATICCALL ISZERO DUP1 ISZERO PUSH2 0x1862 JUMPI RETURNDATASIZE PUSH1 0x0 DUP1 RETURNDATACOPY RETURNDATASIZE PUSH1 0x0 REVERT JUMPDEST POP POP POP POP PUSH1 0x40 MLOAD RETURNDATASIZE PUSH1 0x1F NOT PUSH1 0x1F DUP3 ADD AND DUP3 ADD DUP1 PUSH1 0x40 MSTORE POP DUP2 ADD SWAP1 PUSH2 0x1886 SWAP2 SWAP1 PUSH2 0x3FF6 JUMP JUMPDEST DUP7 EQ ISZERO PUSH2 0x1890 JUMPI POP DUP5 JUMPDEST PUSH1 0x0 PUSH2 0x18A4 PUSH2 0x189D PUSH2 0xCAC JUMP JUMPDEST DUP4 SWAP1 PUSH2 0x3060 JUMP JUMPDEST SWAP1 POP DUP6 DUP2 LT ISZERO PUSH1 0x40 MLOAD DUP1 PUSH1 0x60 ADD PUSH1 0x40 MSTORE DUP1 PUSH1 0x2D DUP2 MSTORE PUSH1 0x20 ADD PUSH2 0x4078 PUSH1 0x2D SWAP2 CODECOPY SWAP1 PUSH2 0x18E1 JUMPI PUSH1 0x40 MLOAD PUSH3 0x461BCD PUSH1 0xE5 SHL DUP2 MSTORE PUSH1 0x4 ADD PUSH2 0x98F SWAP2 SWAP1 PUSH2 0x3D09 JUMP JUMPDEST POP PUSH1 0xA SLOAD PUSH1 0xFF AND PUSH2 0x18F5 JUMPI PUSH2 0x18F5 DUP2 PUSH2 0x3075 JUMP JUMPDEST PUSH1 0x40 MLOAD PUSH4 0x2770A7EB PUSH1 0xE2 SHL DUP2 MSTORE CALLER PUSH1 0x4 DUP3 ADD MSTORE PUSH1 0x24 DUP2 ADD DUP9 SWAP1 MSTORE PUSH1 0x1 PUSH1 0x1 PUSH1 0xA0 SHL SUB DUP6 AND SWAP1 PUSH4 0x9DC29FAC SWAP1 PUSH1 0x44 ADD PUSH1 0x20 PUSH1 0x40 MLOAD DUP1 DUP4 SUB DUP2 PUSH1 0x0 DUP8 GAS CALL ISZERO DUP1 ISZERO PUSH2 0x1942 JUMPI RETURNDATASIZE PUSH1 0x0 DUP1 RETURNDATACOPY RETURNDATASIZE PUSH1 0x0 REVERT JUMPDEST POP POP POP POP PUSH1 0x40 MLOAD RETURNDATASIZE PUSH1 0x1F NOT PUSH1 0x1F DUP3 ADD AND DUP3 ADD DUP1 PUSH1 0x40 MSTORE POP DUP2 ADD SWAP1 PUSH2 0x1966 SWAP2 SWAP1 PUSH2 0x3FF6 JUMP JUMPDEST POP PUSH2 0x1971 CALLER DUP3 PUSH2 0x3299 JUMP JUMPDEST PUSH1 0x40 DUP1 MLOAD DUP3 DUP2 MSTORE PUSH1 0x20 DUP2 ADD DUP10 SWAP1 MSTORE CALLER SWAP2 PUSH32 0xE5B754FB1ABB7F01B499791D0B820AE3B6AF3424AC1C59768EDB53F4EC31A929 SWAP2 ADD PUSH1 0x40 MLOAD DUP1 SWAP2 SUB SWAP1 LOG2 SWAP7 SWAP6 POP POP POP POP POP POP JUMP JUMPDEST PUSH2 0x19BF CALLER PUSH2 0x2E8E JUMP JUMPDEST PUSH1 0x40 MLOAD DUP1 PUSH1 0x40 ADD PUSH1 0x40 MSTORE DUP1 PUSH1 0x17 DUP2 MSTORE PUSH1 0x20 ADD PUSH23 0x6E6F7420617574686F72697A656420746F207061757365 PUSH1 0x48 SHL DUP2 MSTORE POP SWAP1 PUSH2 0x1A0D JUMPI PUSH1 0x40 MLOAD PUSH3 0x461BCD PUSH1 0xE5 SHL DUP2 MSTORE PUSH1 0x4 ADD PUSH2 0x98F SWAP2 SWAP1 PUSH2 0x3D09 JUMP JUMPDEST POP PUSH1 0x0 DUP1 SLOAD PUSH1 0xFF NOT AND PUSH1 0x1 OR SWAP1 SSTORE JUMP JUMPDEST PUSH32 0x0 PUSH1 0x40 MLOAD PUSH4 0x24745215 PUSH1 0xE2 SHL DUP2 MSTORE PUSH10 0x676F7665726E616E6365 PUSH1 0xB0 SHL PUSH1 0x4 DUP3 ADD MSTORE CALLER PUSH1 0x24 DUP3 ADD MSTORE PUSH1 0x1 PUSH1 0x1 PUSH1 0xA0 SHL SUB SWAP2 SWAP1 SWAP2 AND SWAP1 PUSH4 0x91D14854 SWAP1 PUSH1 0x44 ADD PUSH1 0x20 PUSH1 0x40 MLOAD DUP1 DUP4 SUB DUP2 DUP7 GAS STATICCALL ISZERO DUP1 ISZERO PUSH2 0x1A97 JUMPI RETURNDATASIZE PUSH1 0x0 DUP1 RETURNDATACOPY RETURNDATASIZE PUSH1 0x0 REVERT JUMPDEST POP POP POP POP PUSH1 0x40 MLOAD RETURNDATASIZE PUSH1 0x1F NOT PUSH1 0x1F DUP3 ADD AND DUP3 ADD DUP1 PUSH1 0x40 MSTORE POP DUP2 ADD SWAP1 PUSH2 0x1ABB SWAP2 SWAP1 PUSH2 0x3F82 JUMP JUMPDEST PUSH1 0x40 MLOAD DUP1 PUSH1 0x40 ADD PUSH1 0x40 MSTORE DUP1 PUSH1 0x13 DUP2 MSTORE PUSH1 0x20 ADD PUSH1 0x0 DUP1 MLOAD PUSH1 0x20 PUSH2 0x40A5 DUP4 CODECOPY DUP2 MLOAD SWAP2 MSTORE DUP2 MSTORE POP SWAP1 PUSH2 0x1AFD JUMPI PUSH1 0x40 MLOAD PUSH3 0x461BCD PUSH1 0xE5 SHL DUP2 MSTORE PUSH1 0x4 ADD PUSH2 0x98F SWAP2 SWAP1 PUSH2 0x3D09 JUMP JUMPDEST POP PUSH2 0x1B06 PUSH2 0x2E65 JUMP JUMPDEST JUMP JUMPDEST PUSH32 0x0 PUSH1 0x40 MLOAD PUSH4 0x24745215 PUSH1 0xE2 SHL DUP2 MSTORE PUSH10 0x676F7665726E616E6365 PUSH1 0xB0 SHL PUSH1 0x4 DUP3 ADD MSTORE CALLER PUSH1 0x24 DUP3 ADD MSTORE PUSH1 0x1 PUSH1 0x1 PUSH1 0xA0 SHL SUB SWAP2 SWAP1 SWAP2 AND SWAP1 PUSH4 0x91D14854 SWAP1 PUSH1 0x44 ADD PUSH1 0x20 PUSH1 0x40 MLOAD DUP1 DUP4 SUB DUP2 DUP7 GAS STATICCALL ISZERO DUP1 ISZERO PUSH2 0x1B82 JUMPI RETURNDATASIZE PUSH1 0x0 DUP1 RETURNDATACOPY RETURNDATASIZE PUSH1 0x0 REVERT JUMPDEST POP POP POP POP PUSH1 0x40 MLOAD RETURNDATASIZE PUSH1 0x1F NOT PUSH1 0x1F DUP3 ADD AND DUP3 ADD DUP1 PUSH1 0x40 MSTORE POP DUP2 ADD SWAP1 PUSH2 0x1BA6 SWAP2 SWAP1 PUSH2 0x3F82 JUMP JUMPDEST PUSH1 0x40 MLOAD DUP1 PUSH1 0x40 ADD PUSH1 0x40 MSTORE DUP1 PUSH1 0x13 DUP2 MSTORE PUSH1 0x20 ADD PUSH1 0x0 DUP1 MLOAD PUSH1 0x20 PUSH2 0x40A5 DUP4 CODECOPY DUP2 MLOAD SWAP2 MSTORE DUP2 MSTORE POP SWAP1 PUSH2 0x1BE8 JUMPI PUSH1 0x40 MLOAD PUSH3 0x461BCD PUSH1 0xE5 SHL DUP2 MSTORE PUSH1 0x4 ADD PUSH2 0x98F SWAP2 SWAP1 PUSH2 0x3D09 JUMP JUMPDEST POP PUSH2 0x1BF5 PUSH1 0x4 SLOAD DUP3 PUSH2 0x32B5 JUMP JUMPDEST PUSH1 0x3 DUP2 SWAP1 SSTORE PUSH1 0x40 MLOAD DUP2 DUP2 MSTORE PUSH32 0x3B8D5112118B499D63745E8BBF21C9FE9F330746ABE331682C80FD3CF12B881C SWAP1 PUSH1 0x20 ADD PUSH2 0xA3A JUMP JUMPDEST PUSH32 0x0 PUSH1 0x40 MLOAD PUSH4 0x24745215 PUSH1 0xE2 SHL DUP2 MSTORE PUSH10 0x676F7665726E616E6365 PUSH1 0xB0 SHL PUSH1 0x4 DUP3 ADD MSTORE CALLER PUSH1 0x24 DUP3 ADD MSTORE PUSH1 0x1 PUSH1 0x1 PUSH1 0xA0 SHL SUB SWAP2 SWAP1 SWAP2 AND SWAP1 PUSH4 0x91D14854 SWAP1 PUSH1 0x44 ADD PUSH1 0x20 PUSH1 0x40 MLOAD DUP1 DUP4 SUB DUP2 DUP7 GAS STATICCALL ISZERO DUP1 ISZERO PUSH2 0x1CA4 JUMPI RETURNDATASIZE PUSH1 0x0 DUP1 RETURNDATACOPY RETURNDATASIZE PUSH1 0x0 REVERT JUMPDEST POP POP POP POP PUSH1 0x40 MLOAD RETURNDATASIZE PUSH1 0x1F NOT PUSH1 0x1F DUP3 ADD AND DUP3 ADD DUP1 PUSH1 0x40 MSTORE POP DUP2 ADD SWAP1 PUSH2 0x1CC8 SWAP2 SWAP1 PUSH2 0x3F82 JUMP JUMPDEST PUSH1 0x40 MLOAD DUP1 PUSH1 0x40 ADD PUSH1 0x40 MSTORE DUP1 PUSH1 0x13 DUP2 MSTORE PUSH1 0x20 ADD PUSH1 0x0 DUP1 MLOAD PUSH1 0x20 PUSH2 0x40A5 DUP4 CODECOPY DUP2 MLOAD SWAP2 MSTORE DUP2 MSTORE POP SWAP1 PUSH2 0x1D0A JUMPI PUSH1 0x40 MLOAD PUSH3 0x461BCD PUSH1 0xE5 SHL DUP2 MSTORE PUSH1 0x4 ADD PUSH2 0x98F SWAP2 SWAP1 PUSH2 0x3D09 JUMP JUMPDEST POP PUSH2 0x1D17 DUP2 PUSH1 0x3 SLOAD PUSH2 0x32B5 JUMP JUMPDEST PUSH1 0x4 DUP2 SWAP1 SSTORE PUSH1 0x40 MLOAD DUP2 DUP2 MSTORE PUSH32 0x4790FF7239B6EEE1F09C194F1DF66A76FF802480B66857C2E2963AE69F5CB1A0 SWAP1 PUSH1 0x20 ADD PUSH2 0xA3A JUMP JUMPDEST PUSH10 0x676F7665726E616E6365 PUSH1 0xB0 SHL PUSH12 0x706F6F6C5F666163746F7279 PUSH1 0xA0 SHL PUSH32 0x0 PUSH1 0x40 MLOAD PUSH4 0x6BAB5211 PUSH1 0xE1 SHL DUP2 MSTORE PUSH1 0x4 DUP2 ADD DUP5 SWAP1 MSTORE PUSH1 0x24 DUP2 ADD DUP4 SWAP1 MSTORE CALLER PUSH1 0x44 DUP3 ADD MSTORE PUSH1 0x1 PUSH1 0x1 PUSH1 0xA0 SHL SUB SWAP2 SWAP1 SWAP2 AND SWAP1 PUSH4 0xD756A422 SWAP1 PUSH1 0x64 ADD PUSH1 0x20 PUSH1 0x40 MLOAD DUP1 DUP4 SUB DUP2 DUP7 GAS STATICCALL ISZERO DUP1 ISZERO PUSH2 0x1DDF JUMPI RETURNDATASIZE PUSH1 0x0 DUP1 RETURNDATACOPY RETURNDATASIZE PUSH1 0x0 REVERT JUMPDEST POP POP POP POP PUSH1 0x40 MLOAD RETURNDATASIZE PUSH1 0x1F NOT PUSH1 0x1F DUP3 ADD AND DUP3 ADD DUP1 PUSH1 0x40 MSTORE POP DUP2 ADD SWAP1 PUSH2 0x1E03 SWAP2 SWAP1 PUSH2 0x3F82 JUMP JUMPDEST PUSH1 0x40 MLOAD DUP1 PUSH1 0x40 ADD PUSH1 0x40 MSTORE DUP1 PUSH1 0x13 DUP2 MSTORE PUSH1 0x20 ADD PUSH1 0x0 DUP1 MLOAD PUSH1 0x20 PUSH2 0x40A5 DUP4 CODECOPY DUP2 MLOAD SWAP2 MSTORE DUP2 MSTORE POP SWAP1 PUSH2 0x1E45 JUMPI PUSH1 0x40 MLOAD PUSH3 0x461BCD PUSH1 0xE5 SHL DUP2 MSTORE PUSH1 0x4 ADD PUSH2 0x98F SWAP2 SWAP1 PUSH2 0x3D09 JUMP JUMPDEST POP PUSH1 0x8 SLOAD PUSH1 0x40 DUP1 MLOAD DUP1 DUP3 ADD SWAP1 SWAP2 MSTORE PUSH1 0x16 DUP2 MSTORE PUSH22 0x1059191C995CDCC81A5CC8185B1C9958591E481CD95D PUSH1 0x52 SHL PUSH1 0x20 DUP3 ADD MSTORE SWAP1 PUSH1 0x1 PUSH1 0x1 PUSH1 0xA0 SHL SUB AND ISZERO PUSH2 0x1E9E JUMPI PUSH1 0x40 MLOAD PUSH3 0x461BCD PUSH1 0xE5 SHL DUP2 MSTORE PUSH1 0x4 ADD PUSH2 0x98F SWAP2 SWAP1 PUSH2 0x3D09 JUMP JUMPDEST POP ADDRESS PUSH1 0x1 PUSH1 0x1 PUSH1 0xA0 SHL SUB AND DUP4 PUSH1 0x1 PUSH1 0x1 PUSH1 0xA0 SHL SUB AND PUSH4 0x7546172 PUSH1 0x40 MLOAD DUP2 PUSH4 0xFFFFFFFF AND PUSH1 0xE0 SHL DUP2 MSTORE PUSH1 0x4 ADD PUSH1 0x20 PUSH1 0x40 MLOAD DUP1 DUP4 SUB DUP2 DUP7 GAS STATICCALL ISZERO DUP1 ISZERO PUSH2 0x1EE7 JUMPI RETURNDATASIZE PUSH1 0x0 DUP1 RETURNDATACOPY RETURNDATASIZE PUSH1 0x0 REVERT JUMPDEST POP POP POP POP PUSH1 0x40 MLOAD RETURNDATASIZE PUSH1 0x1F NOT PUSH1 0x1F DUP3 ADD AND DUP3 ADD DUP1 PUSH1 0x40 MSTORE POP DUP2 ADD SWAP1 PUSH2 0x1F0B SWAP2 SWAP1 PUSH2 0x400F JUMP JUMPDEST PUSH1 0x1 PUSH1 0x1 PUSH1 0xA0 SHL SUB AND EQ PUSH1 0x40 MLOAD DUP1 PUSH1 0x80 ADD PUSH1 0x40 MSTORE DUP1 PUSH1 0x44 DUP2 MSTORE PUSH1 0x20 ADD PUSH2 0x40C5 PUSH1 0x44 SWAP2 CODECOPY SWAP1 PUSH2 0x1F4C JUMPI PUSH1 0x40 MLOAD PUSH3 0x461BCD PUSH1 0xE5 SHL DUP2 MSTORE PUSH1 0x4 ADD PUSH2 0x98F SWAP2 SWAP1 PUSH2 0x3D09 JUMP JUMPDEST POP PUSH1 0x8 DUP1 SLOAD PUSH1 0x1 PUSH1 0x1 PUSH1 0xA0 SHL SUB NOT AND PUSH1 0x1 PUSH1 0x1 PUSH1 0xA0 SHL SUB DUP6 AND OR SWAP1 SSTORE PUSH2 0x1F70 PUSH2 0x2F98 JUMP JUMPDEST PUSH1 0x40 MLOAD PUSH1 0x1 PUSH1 0x1 PUSH1 0xA0 SHL SUB DUP5 AND SWAP1 PUSH32 0x1C1820B4910E7E24202FA882184FDE52E795A3113B621DED50B099B270159ACC SWAP1 PUSH1 0x0 SWAP1 LOG2 POP POP POP JUMP JUMPDEST PUSH1 0x40 DUP1 MLOAD DUP1 DUP3 ADD SWAP1 SWAP2 MSTORE PUSH1 0x18 DUP2 MSTORE PUSH24 0x1E995C9BC81859191C995CDCC81B9BDD08185B1B1BDDD959 PUSH1 0x42 SHL PUSH1 0x20 DUP3 ADD MSTORE PUSH1 0x1 PUSH1 0x1 PUSH1 0xA0 SHL SUB DUP6 AND PUSH2 0x1FFF JUMPI PUSH1 0x40 MLOAD PUSH3 0x461BCD PUSH1 0xE5 SHL DUP2 MSTORE PUSH1 0x4 ADD PUSH2 0x98F SWAP2 SWAP1 PUSH2 0x3D09 JUMP JUMPDEST POP PUSH1 0xA DUP1 SLOAD PUSH2 0x100 PUSH1 0x1 PUSH1 0xA8 SHL SUB NOT AND PUSH2 0x100 PUSH1 0x1 PUSH1 0x1 PUSH1 0xA0 SHL SUB DUP8 AND MUL OR SWAP1 SSTORE PUSH2 0x202D DUP7 DUP7 DUP6 DUP6 DUP6 PUSH2 0x3349 JUMP JUMPDEST POP POP POP POP POP POP JUMP JUMPDEST PUSH1 0x0 PUSH2 0xA56 CALLER DUP4 PUSH1 0x0 PUSH2 0xDC9 JUMP JUMPDEST PUSH1 0x0 DUP1 DUP3 GT PUSH1 0x40 MLOAD DUP1 PUSH1 0x40 ADD PUSH1 0x40 MSTORE DUP1 PUSH1 0xE DUP2 MSTORE PUSH1 0x20 ADD PUSH14 0x1A5B9D985B1A5908185B5BDD5B9D PUSH1 0x92 SHL DUP2 MSTORE POP SWAP1 PUSH2 0x208D JUMPI PUSH1 0x40 MLOAD PUSH3 0x461BCD PUSH1 0xE5 SHL DUP2 MSTORE PUSH1 0x4 ADD PUSH2 0x98F SWAP2 SWAP1 PUSH2 0x3D09 JUMP JUMPDEST POP PUSH1 0x8 SLOAD PUSH1 0x40 MLOAD PUSH4 0x70A08231 PUSH1 0xE0 SHL DUP2 MSTORE PUSH1 0x1 PUSH1 0x1 PUSH1 0xA0 SHL SUB DUP6 DUP2 AND PUSH1 0x4 DUP4 ADD MSTORE SWAP1 SWAP2 AND SWAP1 PUSH1 0x0 SWAP1 DUP3 SWAP1 PUSH4 0x70A08231 SWAP1 PUSH1 0x24 ADD PUSH1 0x20 PUSH1 0x40 MLOAD DUP1 DUP4 SUB DUP2 DUP7 GAS STATICCALL ISZERO DUP1 ISZERO PUSH2 0x20DD JUMPI RETURNDATASIZE PUSH1 0x0 DUP1 RETURNDATACOPY RETURNDATASIZE PUSH1 0x0 REVERT JUMPDEST POP POP POP POP PUSH1 0x40 MLOAD RETURNDATASIZE PUSH1 0x1F NOT PUSH1 0x1F DUP3 ADD AND DUP3 ADD DUP1 PUSH1 0x40 MSTORE POP DUP2 ADD SWAP1 PUSH2 0x2101 SWAP2 SWAP1 PUSH2 0x3FF6 JUMP JUMPDEST GT PUSH1 0x40 MLOAD DUP1 PUSH1 0x40 ADD PUSH1 0x40 MSTORE DUP1 PUSH1 0x14 DUP2 MSTORE PUSH1 0x20 ADD PUSH20 0x696E73756666696369656E742062616C616E6365 PUSH1 0x60 SHL DUP2 MSTORE POP SWAP1 PUSH2 0x214D JUMPI PUSH1 0x40 MLOAD PUSH3 0x461BCD PUSH1 0xE5 SHL DUP2 MSTORE PUSH1 0x4 ADD PUSH2 0x98F SWAP2 SWAP1 PUSH2 0x3D09 JUMP JUMPDEST POP PUSH1 0x0 PUSH2 0x2158 PUSH2 0xCAC JUMP JUMPDEST SWAP1 POP PUSH1 0x0 PUSH2 0x2166 DUP6 DUP4 PUSH2 0x2E6F JUMP JUMPDEST SWAP1 POP DUP3 PUSH1 0x1 PUSH1 0x1 PUSH1 0xA0 SHL SUB AND PUSH4 0x18160DDD PUSH1 0x40 MLOAD DUP2 PUSH4 0xFFFFFFFF AND PUSH1 0xE0 SHL DUP2 MSTORE PUSH1 0x4 ADD PUSH1 0x20 PUSH1 0x40 MLOAD DUP1 DUP4 SUB DUP2 DUP7 GAS STATICCALL ISZERO DUP1 ISZERO PUSH2 0x21A6 JUMPI RETURNDATASIZE PUSH1 0x0 DUP1 RETURNDATACOPY RETURNDATASIZE PUSH1 0x0 REVERT JUMPDEST POP POP POP POP PUSH1 0x40 MLOAD RETURNDATASIZE PUSH1 0x1F NOT PUSH1 0x1F DUP3 ADD AND DUP3 ADD DUP1 PUSH1 0x40 MSTORE POP DUP2 ADD SWAP1 PUSH2 0x21CA SWAP2 SWAP1 PUSH2 0x3FF6 JUMP JUMPDEST DUP2 EQ ISZERO PUSH2 0x21DB JUMPI SWAP3 POP PUSH2 0xA56 SWAP2 POP POP JUMP JUMPDEST PUSH1 0x1 PUSH1 0x1 PUSH1 0xA0 SHL SUB DUP7 DUP2 AND PUSH1 0x0 DUP2 DUP2 MSTORE PUSH1 0x6 PUSH1 0x20 SWAP1 DUP2 MSTORE PUSH1 0x40 DUP1 DUP4 KECCAK256 DUP2 MLOAD PUSH1 0x60 DUP2 ADD DUP4 MSTORE SWAP1 SLOAD PUSH1 0x1 PUSH1 0x1 PUSH1 0x40 SHL SUB DUP1 DUP3 AND DUP4 MSTORE PUSH1 0x1 PUSH1 0x40 SHL DUP3 DIV DUP2 AND SWAP5 DUP4 ADD SWAP5 SWAP1 SWAP5 MSTORE PUSH1 0x1 PUSH1 0x80 SHL SWAP1 DIV SWAP1 SWAP3 AND DUP3 DUP3 ADD MSTORE MLOAD PUSH4 0x622E68CB PUSH1 0xE0 SHL DUP2 MSTORE PUSH1 0x4 DUP2 ADD SWAP4 SWAP1 SWAP4 MSTORE SWAP3 SWAP1 SWAP2 PUSH32 0x0 SWAP1 SWAP2 AND SWAP1 PUSH4 0x622E68CB SWAP1 PUSH1 0x24 ADD PUSH1 0x20 PUSH1 0x40 MLOAD DUP1 DUP4 SUB DUP2 DUP7 GAS STATICCALL ISZERO DUP1 ISZERO PUSH2 0x228D JUMPI RETURNDATASIZE PUSH1 0x0 DUP1 RETURNDATACOPY RETURNDATASIZE PUSH1 0x0 REVERT JUMPDEST POP POP POP POP PUSH1 0x40 MLOAD RETURNDATASIZE PUSH1 0x1F NOT PUSH1 0x1F DUP3 ADD AND DUP3 ADD DUP1 PUSH1 0x40 MSTORE POP DUP2 ADD SWAP1 PUSH2 0x22B1 SWAP2 SWAP1 PUSH2 0x3F82 JUMP JUMPDEST PUSH2 0x22EA JUMPI PUSH2 0x22E7 DUP3 PUSH1 0x0 ADD MLOAD PUSH1 0x1 PUSH1 0x1 PUSH1 0x40 SHL SUB AND DUP4 PUSH1 0x40 ADD MLOAD PUSH1 0x1 PUSH1 0x1 PUSH1 0x40 SHL SUB AND DUP5 PUSH1 0x20 ADD MLOAD PUSH1 0x1 PUSH1 0x1 PUSH1 0x40 SHL SUB AND PUSH2 0x2624 JUMP JUMPDEST SWAP1 POP JUMPDEST PUSH1 0x0 PUSH2 0x2308 PUSH2 0x2301 DUP4 PUSH8 0xDE0B6B3A7640000 PUSH2 0x4044 JUMP JUMPDEST DUP7 SWAP1 PUSH2 0x3060 JUMP JUMPDEST SWAP1 POP PUSH1 0x0 PUSH2 0x2316 DUP10 DUP4 PUSH2 0x344B JUMP JUMPDEST SWAP11 SWAP10 POP POP POP POP POP POP POP POP POP POP JUMP JUMPDEST PUSH32 0x0 PUSH1 0x40 MLOAD PUSH4 0x24745215 PUSH1 0xE2 SHL DUP2 MSTORE PUSH10 0x676F7665726E616E6365 PUSH1 0xB0 SHL PUSH1 0x4 DUP3 ADD MSTORE CALLER PUSH1 0x24 DUP3 ADD MSTORE PUSH1 0x1 PUSH1 0x1 PUSH1 0xA0 SHL SUB SWAP2 SWAP1 SWAP2 AND SWAP1 PUSH4 0x91D14854 SWAP1 PUSH1 0x44 ADD PUSH1 0x20 PUSH1 0x40 MLOAD DUP1 DUP4 SUB DUP2 DUP7 GAS STATICCALL ISZERO DUP1 ISZERO PUSH2 0x239E JUMPI RETURNDATASIZE PUSH1 0x0 DUP1 RETURNDATACOPY RETURNDATASIZE PUSH1 0x0 REVERT JUMPDEST POP POP POP POP PUSH1 0x40 MLOAD RETURNDATASIZE PUSH1 0x1F NOT PUSH1 0x1F DUP3 ADD AND DUP3 ADD DUP1 PUSH1 0x40 MSTORE POP DUP2 ADD SWAP1 PUSH2 0x23C2 SWAP2 SWAP1 PUSH2 0x3F82 JUMP JUMPDEST PUSH1 0x40 MLOAD DUP1 PUSH1 0x40 ADD PUSH1 0x40 MSTORE DUP1 PUSH1 0x13 DUP2 MSTORE PUSH1 0x20 ADD PUSH1 0x0 DUP1 MLOAD PUSH1 0x20 PUSH2 0x40A5 DUP4 CODECOPY DUP2 MLOAD SWAP2 MSTORE DUP2 MSTORE POP SWAP1 PUSH2 0x2404 JUMPI PUSH1 0x40 MLOAD PUSH3 0x461BCD PUSH1 0xE5 SHL DUP2 MSTORE PUSH1 0x4 ADD PUSH2 0x98F SWAP2 SWAP1 PUSH2 0x3D09 JUMP JUMPDEST POP PUSH1 0x0 PUSH1 0x3 SWAP1 SLOAD SWAP1 PUSH2 0x100 EXP SWAP1 DIV PUSH1 0x1 PUSH1 0x1 PUSH1 0xA0 SHL SUB AND PUSH1 0x1 PUSH1 0x1 PUSH1 0xA0 SHL SUB AND PUSH4 0xBE8F1668 PUSH1 0x40 MLOAD DUP2 PUSH4 0xFFFFFFFF AND PUSH1 0xE0 SHL DUP2 MSTORE PUSH1 0x4 ADD PUSH1 0x0 PUSH1 0x40 MLOAD DUP1 DUP4 SUB DUP2 PUSH1 0x0 DUP8 DUP1 EXTCODESIZE ISZERO DUP1 ISZERO PUSH2 0x2455 JUMPI PUSH1 0x0 DUP1 REVERT JUMPDEST POP GAS CALL ISZERO DUP1 ISZERO PUSH2 0x2469 JUMPI RETURNDATASIZE PUSH1 0x0 DUP1 RETURNDATACOPY RETURNDATASIZE PUSH1 0x0 REVERT JUMPDEST POP POP POP POP JUMP JUMPDEST PUSH32 0x0 PUSH1 0x40 MLOAD PUSH4 0x24745215 PUSH1 0xE2 SHL DUP2 MSTORE PUSH10 0x676F7665726E616E6365 PUSH1 0xB0 SHL PUSH1 0x4 DUP3 ADD MSTORE CALLER PUSH1 0x24 DUP3 ADD MSTORE PUSH1 0x1 PUSH1 0x1 PUSH1 0xA0 SHL SUB SWAP2 SWAP1 SWAP2 AND SWAP1 PUSH4 0x91D14854 SWAP1 PUSH1 0x44 ADD PUSH1 0x20 PUSH1 0x40 MLOAD DUP1 DUP4 SUB DUP2 DUP7 GAS STATICCALL ISZERO DUP1 ISZERO PUSH2 0x24E9 JUMPI RETURNDATASIZE PUSH1 0x0 DUP1 RETURNDATACOPY RETURNDATASIZE PUSH1 0x0 REVERT JUMPDEST POP POP POP POP PUSH1 0x40 MLOAD RETURNDATASIZE PUSH1 0x1F NOT PUSH1 0x1F DUP3 ADD AND DUP3 ADD DUP1 PUSH1 0x40 MSTORE POP DUP2 ADD SWAP1 PUSH2 0x250D SWAP2 SWAP1 PUSH2 0x3F82 JUMP JUMPDEST PUSH1 0x40 MLOAD DUP1 PUSH1 0x40 ADD PUSH1 0x40 MSTORE DUP1 PUSH1 0x13 DUP2 MSTORE PUSH1 0x20 ADD PUSH1 0x0 DUP1 MLOAD PUSH1 0x20 PUSH2 0x40A5 DUP4 CODECOPY DUP2 MLOAD SWAP2 MSTORE DUP2 MSTORE POP SWAP1 PUSH2 0x254F JUMPI PUSH1 0x40 MLOAD PUSH3 0x461BCD PUSH1 0xE5 SHL DUP2 MSTORE PUSH1 0x4 ADD PUSH2 0x98F SWAP2 SWAP1 PUSH2 0x3D09 JUMP JUMPDEST POP PUSH1 0x5 DUP2 SWAP1 SSTORE PUSH1 0x40 MLOAD DUP2 DUP2 MSTORE PUSH32 0x5F17E44485EF0A35B1AADC0D24C1EE14EBEA52F64438B4DC087C1D8386A1AA30 SWAP1 PUSH1 0x20 ADD PUSH2 0xA3A JUMP JUMPDEST PUSH1 0x0 DUP1 SLOAD PUSH4 0x1000000 SWAP1 DIV PUSH1 0x1 PUSH1 0x1 PUSH1 0xA0 SHL SUB AND DUP1 PUSH2 0x25AC JUMPI PUSH2 0x25A6 PUSH2 0x3477 JUMP JUMPDEST SWAP2 POP POP SWAP1 JUMP JUMPDEST PUSH1 0x0 DUP2 PUSH1 0x1 PUSH1 0x1 PUSH1 0xA0 SHL SUB AND PUSH4 0xB40494E5 PUSH1 0x40 MLOAD DUP2 PUSH4 0xFFFFFFFF AND PUSH1 0xE0 SHL DUP2 MSTORE PUSH1 0x4 ADD PUSH1 0x20 PUSH1 0x40 MLOAD DUP1 DUP4 SUB DUP2 DUP7 GAS STATICCALL ISZERO DUP1 ISZERO PUSH2 0x25EC JUMPI RETURNDATASIZE PUSH1 0x0 DUP1 RETURNDATACOPY RETURNDATASIZE PUSH1 0x0 REVERT JUMPDEST POP POP POP POP PUSH1 0x40 MLOAD RETURNDATASIZE PUSH1 0x1F NOT PUSH1 0x1F DUP3 ADD AND DUP3 ADD DUP1 PUSH1 0x40 MSTORE POP DUP2 ADD SWAP1 PUSH2 0x2610 SWAP2 SWAP1 PUSH2 0x3FF6 JUMP JUMPDEST SWAP1 POP PUSH2 0x261A PUSH2 0x3477 JUMP JUMPDEST PUSH2 0xD5E SWAP1 DUP3 PUSH2 0x402C JUMP JUMPDEST PUSH1 0x0 DUP1 PUSH2 0x2631 DUP5 TIMESTAMP PUSH2 0x4044 JUMP JUMPDEST PUSH1 0x4 SLOAD SWAP1 SWAP2 POP DUP6 DUP3 LT ISZERO DUP1 PUSH2 0x2645 JUMPI POP DUP4 DUP2 GT JUMPDEST ISZERO PUSH2 0x2653 JUMPI SWAP2 POP PUSH2 0x1009 SWAP1 POP JUMP JUMPDEST PUSH1 0x0 PUSH2 0x265F DUP4 DUP9 PUSH2 0x2E6F JUMP JUMPDEST SWAP1 POP PUSH2 0x2675 DUP2 PUSH2 0x266F DUP5 DUP9 PUSH2 0x4044 JUMP JUMPDEST SWAP1 PUSH2 0x3060 JUMP JUMPDEST PUSH2 0x267F SWAP1 DUP7 PUSH2 0x4044 JUMP JUMPDEST SWAP8 SWAP7 POP POP POP POP POP POP POP JUMP JUMPDEST PUSH1 0x1 PUSH1 0x1 PUSH1 0xA0 SHL SUB DUP3 DUP2 AND PUSH1 0x0 DUP2 DUP2 MSTORE PUSH1 0x6 PUSH1 0x20 SWAP1 DUP2 MSTORE PUSH1 0x40 DUP1 DUP4 KECCAK256 DUP2 MLOAD PUSH1 0x60 DUP2 ADD DUP4 MSTORE SWAP1 SLOAD PUSH1 0x1 PUSH1 0x1 PUSH1 0x40 SHL SUB DUP1 DUP3 AND DUP4 MSTORE PUSH1 0x1 PUSH1 0x40 SHL DUP3 DIV DUP2 AND SWAP5 DUP4 ADD SWAP5 SWAP1 SWAP5 MSTORE PUSH1 0x1 PUSH1 0x80 SHL SWAP1 DIV SWAP1 SWAP3 AND DUP3 DUP3 ADD MSTORE PUSH1 0x8 SLOAD SWAP1 MLOAD PUSH4 0x70A08231 PUSH1 0xE0 SHL DUP2 MSTORE PUSH1 0x4 DUP2 ADD SWAP5 SWAP1 SWAP5 MSTORE SWAP2 SWAP4 SWAP1 SWAP3 SWAP2 AND SWAP1 PUSH4 0x70A08231 SWAP1 PUSH1 0x24 ADD PUSH1 0x20 PUSH1 0x40 MLOAD DUP1 DUP4 SUB DUP2 DUP7 GAS STATICCALL ISZERO DUP1 ISZERO PUSH2 0x271F JUMPI RETURNDATASIZE PUSH1 0x0 DUP1 RETURNDATACOPY RETURNDATASIZE PUSH1 0x0 REVERT JUMPDEST POP POP POP POP PUSH1 0x40 MLOAD RETURNDATASIZE PUSH1 0x1F NOT PUSH1 0x1F DUP3 ADD AND DUP3 ADD DUP1 PUSH1 0x40 MSTORE POP DUP2 ADD SWAP1 PUSH2 0x2743 SWAP2 SWAP1 PUSH2 0x3FF6 JUMP JUMPDEST PUSH2 0x2751 JUMPI PUSH1 0x0 SWAP2 POP POP PUSH2 0xA56 JUMP JUMPDEST PUSH1 0x0 PUSH2 0x2785 DUP3 PUSH1 0x0 ADD MLOAD PUSH1 0x1 PUSH1 0x1 PUSH1 0x40 SHL SUB AND DUP4 PUSH1 0x40 ADD MLOAD PUSH1 0x1 PUSH1 0x1 PUSH1 0x40 SHL SUB AND DUP5 PUSH1 0x20 ADD MLOAD PUSH1 0x1 PUSH1 0x1 PUSH1 0x40 SHL SUB AND PUSH2 0x2624 JUMP JUMPDEST SWAP1 POP PUSH2 0x2791 DUP5 DUP3 PUSH2 0x3060 JUMP JUMPDEST SWAP6 SWAP5 POP POP POP POP POP JUMP JUMPDEST PUSH1 0x0 PUSH2 0xA56 DUP3 PUSH1 0x0 PUSH2 0x166A JUMP JUMPDEST PUSH1 0x0 PUSH2 0xA53 CALLER DUP5 DUP5 PUSH2 0xDC9 JUMP JUMPDEST PUSH32 0x0 PUSH1 0x40 MLOAD PUSH4 0x24745215 PUSH1 0xE2 SHL DUP2 MSTORE PUSH10 0x676F7665726E616E6365 PUSH1 0xB0 SHL PUSH1 0x4 DUP3 ADD MSTORE CALLER PUSH1 0x24 DUP3 ADD MSTORE PUSH1 0x1 PUSH1 0x1 PUSH1 0xA0 SHL SUB SWAP2 SWAP1 SWAP2 AND SWAP1 PUSH4 0x91D14854 SWAP1 PUSH1 0x44 ADD PUSH1 0x20 PUSH1 0x40 MLOAD DUP1 DUP4 SUB DUP2 DUP7 GAS STATICCALL ISZERO DUP1 ISZERO PUSH2 0x282E JUMPI RETURNDATASIZE PUSH1 0x0 DUP1 RETURNDATACOPY RETURNDATASIZE PUSH1 0x0 REVERT JUMPDEST POP POP POP POP PUSH1 0x40 MLOAD RETURNDATASIZE PUSH1 0x1F NOT PUSH1 0x1F DUP3 ADD AND DUP3 ADD DUP1 PUSH1 0x40 MSTORE POP DUP2 ADD SWAP1 PUSH2 0x2852 SWAP2 SWAP1 PUSH2 0x3F82 JUMP JUMPDEST PUSH1 0x40 MLOAD DUP1 PUSH1 0x40 ADD PUSH1 0x40 MSTORE DUP1 PUSH1 0x13 DUP2 MSTORE PUSH1 0x20 ADD PUSH1 0x0 DUP1 MLOAD PUSH1 0x20 PUSH2 0x40A5 DUP4 CODECOPY DUP2 MLOAD SWAP2 MSTORE DUP2 MSTORE POP SWAP1 PUSH2 0x2894 JUMPI PUSH1 0x40 MLOAD PUSH3 0x461BCD PUSH1 0xE5 SHL DUP2 MSTORE PUSH1 0x4 ADD PUSH2 0x98F SWAP2 SWAP1 PUSH2 0x3D09 JUMP JUMPDEST POP PUSH1 0x0 SLOAD PUSH4 0x1000000 SWAP1 DIV PUSH1 0x1 PUSH1 0x1 PUSH1 0xA0 SHL SUB AND DUP1 ISZERO PUSH2 0x2902 JUMPI DUP1 PUSH1 0x1 PUSH1 0x1 PUSH1 0xA0 SHL SUB AND PUSH4 0xBE8F1668 PUSH1 0x40 MLOAD DUP2 PUSH4 0xFFFFFFFF AND PUSH1 0xE0 SHL DUP2 MSTORE PUSH1 0x4 ADD PUSH1 0x0 PUSH1 0x40 MLOAD DUP1 DUP4 SUB DUP2 PUSH1 0x0 DUP8 DUP1 EXTCODESIZE ISZERO DUP1 ISZERO PUSH2 0x28E9 JUMPI PUSH1 0x0 DUP1 REVERT JUMPDEST POP GAS CALL ISZERO DUP1 ISZERO PUSH2 0x28FD JUMPI RETURNDATASIZE PUSH1 0x0 DUP1 RETURNDATACOPY RETURNDATASIZE PUSH1 0x0 REVERT JUMPDEST POP POP POP POP JUMPDEST PUSH1 0x0 DUP1 SLOAD PUSH4 0x1000000 PUSH1 0x1 PUSH1 0xB8 SHL SUB NOT AND PUSH4 0x1000000 PUSH1 0x1 PUSH1 0x1 PUSH1 0xA0 SHL SUB DUP6 DUP2 AND SWAP2 DUP3 MUL SWAP3 SWAP1 SWAP3 OR SWAP1 SWAP3 SSTORE PUSH1 0x40 MLOAD PUSH4 0x368A3A5 PUSH1 0xE3 SHL DUP2 MSTORE DUP4 DUP3 AND PUSH1 0x4 DUP3 ADD MSTORE PUSH1 0x24 DUP2 ADD SWAP3 SWAP1 SWAP3 MSTORE PUSH32 0x0 AND SWAP1 PUSH4 0x1B451D28 SWAP1 PUSH1 0x44 ADD PUSH1 0x0 PUSH1 0x40 MLOAD DUP1 DUP4 SUB DUP2 PUSH1 0x0 DUP8 DUP1 EXTCODESIZE ISZERO DUP1 ISZERO PUSH2 0x2990 JUMPI PUSH1 0x0 DUP1 REVERT JUMPDEST POP GAS CALL ISZERO DUP1 ISZERO PUSH2 0x29A4 JUMPI RETURNDATASIZE PUSH1 0x0 DUP1 RETURNDATACOPY RETURNDATASIZE PUSH1 0x0 REVERT JUMPDEST POP POP PUSH1 0x40 MLOAD PUSH1 0x1 PUSH1 0x1 PUSH1 0xA0 SHL SUB DUP6 AND DUP2 MSTORE PUSH32 0x161584AED96E7F34998117C9AD67E2D21FF46D2A42775C22B11ED282F3C7B2CD SWAP3 POP PUSH1 0x20 ADD SWAP1 POP PUSH1 0x40 MLOAD DUP1 SWAP2 SUB SWAP1 LOG1 POP POP JUMP JUMPDEST PUSH1 0x8 SLOAD PUSH1 0x1 PUSH1 0x1 PUSH1 0xA0 SHL SUB AND CALLER EQ DUP1 PUSH2 0x2A0C JUMPI POP PUSH1 0x7 SLOAD PUSH1 0x1 PUSH1 0x1 PUSH1 0xA0 SHL SUB AND CALLER EQ JUMPDEST PUSH1 0x40 MLOAD DUP1 PUSH1 0x40 ADD PUSH1 0x40 MSTORE DUP1 PUSH1 0x13 DUP2 MSTORE PUSH1 0x20 ADD PUSH1 0x0 DUP1 MLOAD PUSH1 0x20 PUSH2 0x40A5 DUP4 CODECOPY DUP2 MLOAD SWAP2 MSTORE DUP2 MSTORE POP SWAP1 PUSH2 0x2A4E JUMPI PUSH1 0x40 MLOAD PUSH3 0x461BCD PUSH1 0xE5 SHL DUP2 MSTORE PUSH1 0x4 ADD PUSH2 0x98F SWAP2 SWAP1 PUSH2 0x3D09 JUMP JUMPDEST POP PUSH1 0x8 SLOAD PUSH1 0x40 MLOAD PUSH4 0x5B80B5FB PUSH1 0xE1 SHL DUP2 MSTORE PUSH1 0x1 PUSH1 0x1 PUSH1 0xA0 SHL SUB DUP5 DUP2 AND PUSH1 0x4 DUP4 ADD MSTORE SWAP2 DUP3 AND PUSH1 0x24 DUP3 ADD MSTORE PUSH32 0x0 SWAP1 SWAP2 AND SWAP1 PUSH4 0xB7016BF6 SWAP1 PUSH1 0x44 ADD PUSH1 0x20 PUSH1 0x40 MLOAD DUP1 DUP4 SUB DUP2 DUP7 GAS STATICCALL ISZERO DUP1 ISZERO PUSH2 0x2AC2 JUMPI RETURNDATASIZE PUSH1 0x0 DUP1 RETURNDATACOPY RETURNDATASIZE PUSH1 0x0 REVERT JUMPDEST POP POP POP POP PUSH1 0x40 MLOAD RETURNDATASIZE PUSH1 0x1F NOT PUSH1 0x1F DUP3 ADD AND DUP3 ADD DUP1 PUSH1 0x40 MSTORE POP DUP2 ADD SWAP1 PUSH2 0x2AE6 SWAP2 SWAP1 PUSH2 0x3F82 JUMP JUMPDEST DUP1 PUSH2 0x2B83 JUMPI POP PUSH1 0x8 SLOAD PUSH1 0x40 MLOAD PUSH4 0x5B80B5FB PUSH1 0xE1 SHL DUP2 MSTORE PUSH1 0x1 PUSH1 0x1 PUSH1 0xA0 SHL SUB DUP6 DUP2 AND PUSH1 0x4 DUP4 ADD MSTORE SWAP2 DUP3 AND PUSH1 0x24 DUP3 ADD MSTORE PUSH32 0x0 SWAP1 SWAP2 AND SWAP1 PUSH4 0xB7016BF6 SWAP1 PUSH1 0x44 ADD PUSH1 0x20 PUSH1 0x40 MLOAD DUP1 DUP4 SUB DUP2 DUP7 GAS STATICCALL ISZERO DUP1 ISZERO PUSH2 0x2B5F JUMPI RETURNDATASIZE PUSH1 0x0 DUP1 RETURNDATACOPY RETURNDATASIZE PUSH1 0x0 REVERT JUMPDEST POP POP POP POP PUSH1 0x40 MLOAD RETURNDATASIZE PUSH1 0x1F NOT PUSH1 0x1F DUP3 ADD AND DUP3 ADD DUP1 PUSH1 0x40 MSTORE POP DUP2 ADD SWAP1 PUSH2 0x2B83 SWAP2 SWAP1 PUSH2 0x3F82 JUMP JUMPDEST DUP1 PUSH2 0x2C13 JUMPI POP PUSH1 0x40 MLOAD PUSH4 0x622E68CB PUSH1 0xE0 SHL DUP2 MSTORE PUSH1 0x1 PUSH1 0x1 PUSH1 0xA0 SHL SUB DUP4 DUP2 AND PUSH1 0x4 DUP4 ADD MSTORE PUSH32 0x0 AND SWAP1 PUSH4 0x622E68CB SWAP1 PUSH1 0x24 ADD PUSH1 0x20 PUSH1 0x40 MLOAD DUP1 DUP4 SUB DUP2 DUP7 GAS STATICCALL ISZERO DUP1 ISZERO PUSH2 0x2BEF JUMPI RETURNDATASIZE PUSH1 0x0 DUP1 RETURNDATACOPY RETURNDATASIZE PUSH1 0x0 REVERT JUMPDEST POP POP POP POP PUSH1 0x40 MLOAD RETURNDATASIZE PUSH1 0x1F NOT PUSH1 0x1F DUP3 ADD AND DUP3 ADD DUP1 PUSH1 0x40 MSTORE POP DUP2 ADD SWAP1 PUSH2 0x2C13 SWAP2 SWAP1 PUSH2 0x3F82 JUMP JUMPDEST DUP1 PUSH2 0x2CA3 JUMPI POP PUSH1 0x40 MLOAD PUSH4 0x622E68CB PUSH1 0xE0 SHL DUP2 MSTORE PUSH1 0x1 PUSH1 0x1 PUSH1 0xA0 SHL SUB DUP5 DUP2 AND PUSH1 0x4 DUP4 ADD MSTORE PUSH32 0x0 AND SWAP1 PUSH4 0x622E68CB SWAP1 PUSH1 0x24 ADD PUSH1 0x20 PUSH1 0x40 MLOAD DUP1 DUP4 SUB DUP2 DUP7 GAS STATICCALL ISZERO DUP1 ISZERO PUSH2 0x2C7F JUMPI RETURNDATASIZE PUSH1 0x0 DUP1 RETURNDATACOPY RETURNDATASIZE PUSH1 0x0 REVERT JUMPDEST POP POP POP POP PUSH1 0x40 MLOAD RETURNDATASIZE PUSH1 0x1F NOT PUSH1 0x1F DUP3 ADD AND DUP3 ADD DUP1 PUSH1 0x40 MSTORE POP DUP2 ADD SWAP1 PUSH2 0x2CA3 SWAP2 SWAP1 PUSH2 0x3F82 JUMP JUMPDEST DUP1 PUSH2 0x2D33 JUMPI POP PUSH1 0x40 MLOAD PUSH4 0x1FD4B625 PUSH1 0xE2 SHL DUP2 MSTORE PUSH1 0x1 PUSH1 0x1 PUSH1 0xA0 SHL SUB DUP4 DUP2 AND PUSH1 0x4 DUP4 ADD MSTORE PUSH32 0x0 AND SWAP1 PUSH4 0x7F52D894 SWAP1 PUSH1 0x24 ADD PUSH1 0x20 PUSH1 0x40 MLOAD DUP1 DUP4 SUB DUP2 DUP7 GAS STATICCALL ISZERO DUP1 ISZERO PUSH2 0x2D0F JUMPI RETURNDATASIZE PUSH1 0x0 DUP1 RETURNDATACOPY RETURNDATASIZE PUSH1 0x0 REVERT JUMPDEST POP POP POP POP PUSH1 0x40 MLOAD RETURNDATASIZE PUSH1 0x1F NOT PUSH1 0x1F DUP3 ADD AND DUP3 ADD DUP1 PUSH1 0x40 MSTORE POP DUP2 ADD SWAP1 PUSH2 0x2D33 SWAP2 SWAP1 PUSH2 0x3F82 JUMP JUMPDEST DUP1 PUSH2 0x2DC3 JUMPI POP PUSH1 0x40 MLOAD PUSH4 0x1FD4B625 PUSH1 0xE2 SHL DUP2 MSTORE PUSH1 0x1 PUSH1 0x1 PUSH1 0xA0 SHL SUB DUP5 DUP2 AND PUSH1 0x4 DUP4 ADD MSTORE PUSH32 0x0 AND SWAP1 PUSH4 0x7F52D894 SWAP1 PUSH1 0x24 ADD PUSH1 0x20 PUSH1 0x40 MLOAD DUP1 DUP4 SUB DUP2 DUP7 GAS STATICCALL ISZERO DUP1 ISZERO PUSH2 0x2D9F JUMPI RETURNDATASIZE PUSH1 0x0 DUP1 RETURNDATACOPY RETURNDATASIZE PUSH1 0x0 REVERT JUMPDEST POP POP POP POP PUSH1 0x40 MLOAD RETURNDATASIZE PUSH1 0x1F NOT PUSH1 0x1F DUP3 ADD AND DUP3 ADD DUP1 PUSH1 0x40 MSTORE POP DUP2 ADD SWAP1 PUSH2 0x2DC3 SWAP2 SWAP1 PUSH2 0x3F82 JUMP JUMPDEST ISZERO PUSH2 0x2DCD JUMPI POP POP POP JUMP JUMPDEST PUSH1 0x1 PUSH1 0x1 PUSH1 0xA0 SHL SUB DUP3 AND ISZERO PUSH2 0x2DE7 JUMPI PUSH2 0x2DE7 DUP3 DUP5 DUP4 PUSH2 0x34E9 JUMP JUMPDEST POP POP POP JUMP JUMPDEST PUSH1 0x40 MLOAD PUSH4 0x21F8A721 PUSH1 0xE0 SHL DUP2 MSTORE PUSH11 0x3937B632A6B0B730B3B2B9 PUSH1 0xA9 SHL PUSH1 0x4 DUP3 ADD MSTORE PUSH1 0x0 SWAP1 PUSH1 0x1 PUSH1 0x1 PUSH1 0xA0 SHL SUB DUP4 AND SWAP1 PUSH4 0x21F8A721 SWAP1 PUSH1 0x24 ADD PUSH1 0x20 PUSH1 0x40 MLOAD DUP1 DUP4 SUB DUP2 DUP7 GAS STATICCALL ISZERO DUP1 ISZERO PUSH2 0x2E41 JUMPI RETURNDATASIZE PUSH1 0x0 DUP1 RETURNDATACOPY RETURNDATASIZE PUSH1 0x0 REVERT JUMPDEST POP POP POP POP PUSH1 0x40 MLOAD RETURNDATASIZE PUSH1 0x1F NOT PUSH1 0x1F DUP3 ADD AND DUP3 ADD DUP1 PUSH1 0x40 MSTORE POP DUP2 ADD SWAP1 PUSH2 0xA56 SWAP2 SWAP1 PUSH2 0x400F JUMP JUMPDEST PUSH2 0x1B06 PUSH1 0x0 PUSH2 0x3075 JUMP JUMPDEST PUSH1 0x0 DUP2 PUSH2 0x2E84 PUSH8 0xDE0B6B3A7640000 DUP6 PUSH2 0x3FB5 JUMP JUMPDEST PUSH2 0xA53 SWAP2 SWAP1 PUSH2 0x3FD4 JUMP JUMPDEST PUSH1 0x0 PUSH32 0x0 PUSH1 0x40 MLOAD PUSH4 0x24745215 PUSH1 0xE2 SHL DUP2 MSTORE PUSH10 0x676F7665726E616E6365 PUSH1 0xB0 SHL PUSH1 0x4 DUP3 ADD MSTORE PUSH1 0x1 PUSH1 0x1 PUSH1 0xA0 SHL SUB DUP5 DUP2 AND PUSH1 0x24 DUP4 ADD MSTORE SWAP2 SWAP1 SWAP2 AND SWAP1 PUSH4 0x91D14854 SWAP1 PUSH1 0x44 ADD PUSH1 0x20 PUSH1 0x40 MLOAD DUP1 DUP4 SUB DUP2 DUP7 GAS STATICCALL ISZERO DUP1 ISZERO PUSH2 0x2F0C JUMPI RETURNDATASIZE PUSH1 0x0 DUP1 RETURNDATACOPY RETURNDATASIZE PUSH1 0x0 REVERT JUMPDEST POP POP POP POP PUSH1 0x40 MLOAD RETURNDATASIZE PUSH1 0x1F NOT PUSH1 0x1F DUP3 ADD AND DUP3 ADD DUP1 PUSH1 0x40 MSTORE POP DUP2 ADD SWAP1 PUSH2 0xA56 SWAP2 SWAP1 PUSH2 0x3F82 JUMP JUMPDEST PUSH1 0x40 DUP1 MLOAD DUP1 DUP3 ADD SWAP1 SWAP2 MSTORE PUSH1 0x11 DUP2 MSTORE PUSH17 0x696E76616C6964206D73672E76616C7565 PUSH1 0x78 SHL PUSH1 0x20 DUP3 ADD MSTORE CALLVALUE ISZERO PUSH2 0x2F77 JUMPI PUSH1 0x40 MLOAD PUSH3 0x461BCD PUSH1 0xE5 SHL DUP2 MSTORE PUSH1 0x4 ADD PUSH2 0x98F SWAP2 SWAP1 PUSH2 0x3D09 JUMP JUMPDEST POP PUSH1 0xA SLOAD PUSH2 0x2F95 SWAP1 PUSH2 0x100 SWAP1 DIV PUSH1 0x1 PUSH1 0x1 PUSH1 0xA0 SHL SUB AND CALLER ADDRESS DUP5 PUSH2 0x3851 JUMP JUMPDEST POP JUMP JUMPDEST PUSH1 0x7 SLOAD PUSH1 0x8 SLOAD PUSH1 0x1 PUSH1 0x1 PUSH1 0xA0 SHL SUB SWAP2 DUP3 AND SWAP2 AND DUP2 ISZERO DUP1 PUSH2 0x2FBF JUMPI POP PUSH1 0x1 PUSH1 0x1 PUSH1 0xA0 SHL SUB DUP2 AND ISZERO JUMPDEST ISZERO PUSH2 0x2FC8 JUMPI POP POP JUMP JUMPDEST PUSH1 0x40 MLOAD PUSH4 0x6EB1769F PUSH1 0xE1 SHL DUP2 MSTORE ADDRESS PUSH1 0x4 DUP3 ADD MSTORE PUSH1 0x1 PUSH1 0x1 PUSH1 0xA0 SHL SUB DUP4 DUP2 AND PUSH1 0x24 DUP4 ADD MSTORE PUSH1 0x0 SWAP2 SWAP1 DUP4 AND SWAP1 PUSH4 0xDD62ED3E SWAP1 PUSH1 0x44 ADD PUSH1 0x20 PUSH1 0x40 MLOAD DUP1 DUP4 SUB DUP2 DUP7 GAS STATICCALL ISZERO DUP1 ISZERO PUSH2 0x3018 JUMPI RETURNDATASIZE PUSH1 0x0 DUP1 RETURNDATACOPY RETURNDATASIZE PUSH1 0x0 REVERT JUMPDEST POP POP POP POP PUSH1 0x40 MLOAD RETURNDATASIZE PUSH1 0x1F NOT PUSH1 0x1F DUP3 ADD AND DUP3 ADD DUP1 PUSH1 0x40 MSTORE POP DUP2 ADD SWAP1 PUSH2 0x303C SWAP2 SWAP1 PUSH2 0x3FF6 JUMP JUMPDEST GT ISZERO PUSH2 0x3046 JUMPI POP POP JUMP JUMPDEST PUSH2 0x305C PUSH1 0x1 PUSH1 0x1 PUSH1 0xA0 SHL SUB DUP3 AND DUP4 PUSH1 0x0 NOT PUSH2 0x38BC JUMP JUMPDEST POP POP JUMP JUMPDEST PUSH1 0x0 PUSH8 0xDE0B6B3A7640000 PUSH2 0x2E84 DUP4 DUP6 PUSH2 0x3FB5 JUMP JUMPDEST PUSH1 0x0 SLOAD PUSH4 0x1000000 SWAP1 DIV PUSH1 0x1 PUSH1 0x1 PUSH1 0xA0 SHL SUB AND DUP1 PUSH2 0x3091 JUMPI POP POP JUMP JUMPDEST PUSH1 0x7 SLOAD PUSH1 0x40 DUP1 MLOAD PUSH4 0xBA4AC711 PUSH1 0xE0 SHL DUP2 MSTORE SWAP1 MLOAD PUSH1 0x0 SWAP3 PUSH1 0x1 PUSH1 0x1 PUSH1 0xA0 SHL SUB AND SWAP2 PUSH4 0xBA4AC711 SWAP2 PUSH1 0x4 DUP1 DUP4 ADD SWAP3 PUSH1 0x20 SWAP3 SWAP2 SWAP1 DUP3 SWAP1 SUB ADD DUP2 DUP7 GAS STATICCALL ISZERO DUP1 ISZERO PUSH2 0x30DB JUMPI RETURNDATASIZE PUSH1 0x0 DUP1 RETURNDATACOPY RETURNDATASIZE PUSH1 0x0 REVERT JUMPDEST POP POP POP POP PUSH1 0x40 MLOAD RETURNDATASIZE PUSH1 0x1F NOT PUSH1 0x1F DUP3 ADD AND DUP3 ADD DUP1 PUSH1 0x40 MSTORE POP DUP2 ADD SWAP1 PUSH2 0x30FF SWAP2 SWAP1 PUSH2 0x3FF6 JUMP JUMPDEST SWAP1 POP PUSH1 0x0 PUSH2 0x310E PUSH2 0x189D PUSH2 0xCAC JUMP JUMPDEST SWAP1 POP PUSH1 0x0 PUSH2 0x311C PUSH1 0x1 PUSH2 0x39D1 JUMP JUMPDEST SWAP1 POP PUSH1 0x0 PUSH2 0x3135 PUSH1 0x1 SLOAD DUP5 PUSH2 0x3060 SWAP1 SWAP2 SWAP1 PUSH4 0xFFFFFFFF AND JUMP JUMPDEST SWAP1 POP PUSH1 0x0 PUSH2 0x314E PUSH1 0x2 SLOAD DUP6 PUSH2 0x3060 SWAP1 SWAP2 SWAP1 PUSH4 0xFFFFFFFF AND JUMP JUMPDEST SWAP1 POP DUP3 DUP8 GT DUP1 PUSH2 0x3171 JUMPI POP DUP1 DUP3 PUSH2 0x3165 DUP10 DUP7 PUSH2 0x4044 JUMP JUMPDEST PUSH2 0x316F SWAP2 SWAP1 PUSH2 0x402C JUMP JUMPDEST LT JUMPDEST ISZERO PUSH2 0x3202 JUMPI PUSH1 0x0 DUP4 PUSH2 0x3183 DUP10 DUP5 PUSH2 0x402C JUMP JUMPDEST PUSH2 0x318D SWAP2 SWAP1 PUSH2 0x4044 JUMP JUMPDEST PUSH1 0x40 MLOAD PUSH4 0x2E1A7D4D PUSH1 0xE0 SHL DUP2 MSTORE PUSH1 0x4 DUP2 ADD DUP3 SWAP1 MSTORE SWAP1 SWAP2 POP PUSH1 0x1 PUSH1 0x1 PUSH1 0xA0 SHL SUB DUP9 AND SWAP1 PUSH4 0x2E1A7D4D SWAP1 PUSH1 0x24 ADD PUSH1 0x20 PUSH1 0x40 MLOAD DUP1 DUP4 SUB DUP2 PUSH1 0x0 DUP8 GAS CALL ISZERO DUP1 ISZERO PUSH2 0x31D7 JUMPI RETURNDATASIZE PUSH1 0x0 DUP1 RETURNDATACOPY RETURNDATASIZE PUSH1 0x0 REVERT JUMPDEST POP POP POP POP PUSH1 0x40 MLOAD RETURNDATASIZE PUSH1 0x1F NOT PUSH1 0x1F DUP3 ADD AND DUP3 ADD DUP1 PUSH1 0x40 MSTORE POP DUP2 ADD SWAP1 PUSH2 0x31FB SWAP2 SWAP1 PUSH2 0x3F82 JUMP JUMPDEST POP POP PUSH2 0x3290 JUMP JUMPDEST PUSH1 0x0 PUSH2 0x320E DUP9 DUP6 PUSH2 0x4044 JUMP JUMPDEST SWAP1 POP PUSH2 0x321A DUP4 DUP4 PUSH2 0x402C JUMP JUMPDEST DUP2 GT ISZERO PUSH2 0x328E JUMPI PUSH1 0x0 PUSH2 0x322D DUP4 DUP4 PUSH2 0x4044 JUMP JUMPDEST SWAP1 POP PUSH2 0x3239 DUP9 DUP3 PUSH2 0x3299 JUMP JUMPDEST DUP8 PUSH1 0x1 PUSH1 0x1 PUSH1 0xA0 SHL SUB AND PUSH4 0xD0E30DB0 PUSH1 0x40 MLOAD DUP2 PUSH4 0xFFFFFFFF AND PUSH1 0xE0 SHL DUP2 MSTORE PUSH1 0x4 ADD PUSH1 0x0 PUSH1 0x40 MLOAD DUP1 DUP4 SUB DUP2 PUSH1 0x0 DUP8 DUP1 EXTCODESIZE ISZERO DUP1 ISZERO PUSH2 0x3274 JUMPI PUSH1 0x0 DUP1 REVERT JUMPDEST POP GAS CALL ISZERO DUP1 ISZERO PUSH2 0x3288 JUMPI RETURNDATASIZE PUSH1 0x0 DUP1 RETURNDATACOPY RETURNDATASIZE PUSH1 0x0 REVERT JUMPDEST POP POP POP POP POP JUMPDEST POP JUMPDEST POP POP POP POP POP POP POP JUMP JUMPDEST PUSH1 0xA SLOAD PUSH2 0x305C SWAP1 PUSH2 0x100 SWAP1 DIV PUSH1 0x1 PUSH1 0x1 PUSH1 0xA0 SHL SUB AND DUP4 DUP4 PUSH2 0x39DB JUMP JUMPDEST PUSH1 0x40 DUP1 MLOAD DUP1 DUP3 ADD SWAP1 SWAP2 MSTORE PUSH1 0xE DUP2 MSTORE PUSH14 0x1A5B9D985B1A5908185B5BDD5B9D PUSH1 0x92 SHL PUSH1 0x20 DUP3 ADD MSTORE DUP3 DUP3 LT ISZERO PUSH2 0x32FB JUMPI PUSH1 0x40 MLOAD PUSH3 0x461BCD PUSH1 0xE5 SHL DUP2 MSTORE PUSH1 0x4 ADD PUSH2 0x98F SWAP2 SWAP1 PUSH2 0x3D09 JUMP JUMPDEST POP PUSH1 0x40 DUP1 MLOAD DUP1 DUP3 ADD SWAP1 SWAP2 MSTORE PUSH1 0xE DUP2 MSTORE PUSH14 0x1A5B9D985B1A5908185B5BDD5B9D PUSH1 0x92 SHL PUSH1 0x20 DUP3 ADD MSTORE PUSH7 0xB1A2BC2EC50000 DUP3 GT ISZERO PUSH2 0x2DE7 JUMPI PUSH1 0x40 MLOAD PUSH3 0x461BCD PUSH1 0xE5 SHL DUP2 MSTORE PUSH1 0x4 ADD PUSH2 0x98F SWAP2 SWAP1 PUSH2 0x3D09 JUMP JUMPDEST PUSH1 0x0 SLOAD PUSH3 0x10000 SWAP1 DIV PUSH1 0xFF AND PUSH2 0x336A JUMPI PUSH1 0x0 SLOAD PUSH2 0x100 SWAP1 DIV PUSH1 0xFF AND ISZERO PUSH2 0x336E JUMP JUMPDEST ADDRESS EXTCODESIZE ISZERO JUMPDEST PUSH2 0x33D1 JUMPI PUSH1 0x40 MLOAD PUSH3 0x461BCD PUSH1 0xE5 SHL DUP2 MSTORE PUSH1 0x20 PUSH1 0x4 DUP3 ADD MSTORE PUSH1 0x2E PUSH1 0x24 DUP3 ADD MSTORE PUSH32 0x496E697469616C697A61626C653A20636F6E747261637420697320616C726561 PUSH1 0x44 DUP3 ADD MSTORE PUSH14 0x191E481A5B9A5D1A585B1A5E9959 PUSH1 0x92 SHL PUSH1 0x64 DUP3 ADD MSTORE PUSH1 0x84 ADD PUSH2 0x98F JUMP JUMPDEST PUSH1 0x0 SLOAD PUSH3 0x10000 SWAP1 DIV PUSH1 0xFF AND ISZERO DUP1 ISZERO PUSH2 0x33F6 JUMPI PUSH1 0x0 DUP1 SLOAD PUSH3 0xFFFF00 NOT AND PUSH3 0x10100 OR SWAP1 SSTORE JUMPDEST PUSH2 0x3402 PUSH1 0x9 DUP8 DUP8 PUSH2 0x3C4D JUMP JUMPDEST POP PUSH1 0x0 DUP1 SLOAD PUSH4 0x1000000 PUSH1 0x1 PUSH1 0xB8 SHL SUB NOT AND PUSH4 0x1000000 PUSH1 0x1 PUSH1 0x1 PUSH1 0xA0 SHL SUB DUP8 AND MUL OR SWAP1 SSTORE PUSH1 0x3 DUP4 SWAP1 SSTORE PUSH1 0x4 DUP3 SWAP1 SSTORE DUP1 ISZERO PUSH2 0x202D JUMPI PUSH1 0x0 DUP1 SLOAD PUSH3 0xFF0000 NOT AND SWAP1 SSTORE POP POP POP POP POP POP JUMP JUMPDEST PUSH1 0x0 DUP2 PUSH1 0x1 DUP2 PUSH2 0x3463 PUSH8 0xDE0B6B3A7640000 DUP8 PUSH2 0x3FB5 JUMP JUMPDEST PUSH2 0x346D SWAP2 SWAP1 PUSH2 0x402C JUMP JUMPDEST PUSH2 0x2E84 SWAP2 SWAP1 PUSH2 0x4044 JUMP JUMPDEST PUSH1 0xA SLOAD PUSH1 0x40 MLOAD PUSH4 0x70A08231 PUSH1 0xE0 SHL DUP2 MSTORE ADDRESS PUSH1 0x4 DUP3 ADD MSTORE PUSH1 0x0 SWAP2 PUSH2 0x100 SWAP1 DIV PUSH1 0x1 PUSH1 0x1 PUSH1 0xA0 SHL SUB AND SWAP1 PUSH4 0x70A08231 SWAP1 PUSH1 0x24 ADD PUSH1 0x20 PUSH1 0x40 MLOAD DUP1 DUP4 SUB DUP2 DUP7 GAS STATICCALL ISZERO DUP1 ISZERO PUSH2 0x34C5 JUMPI RETURNDATASIZE PUSH1 0x0 DUP1 RETURNDATACOPY RETURNDATASIZE PUSH1 0x0 REVERT JUMPDEST POP POP POP POP PUSH1 0x40 MLOAD RETURNDATASIZE PUSH1 0x1F NOT PUSH1 0x1F DUP3 ADD AND DUP3 ADD DUP1 PUSH1 0x40 MSTORE POP DUP2 ADD SWAP1 PUSH2 0x81C SWAP2 SWAP1 PUSH2 0x3FF6 JUMP JUMPDEST PUSH1 0x1 PUSH1 0x1 PUSH1 0xA0 SHL SUB DUP4 DUP2 AND PUSH1 0x0 DUP2 DUP2 MSTORE PUSH1 0x6 PUSH1 0x20 MSTORE PUSH1 0x40 DUP1 DUP3 KECCAK256 PUSH1 0x7 SLOAD SWAP2 MLOAD PUSH4 0xA853BA2F PUSH1 0xE0 SHL DUP2 MSTORE PUSH1 0x4 DUP2 ADD SWAP5 SWAP1 SWAP5 MSTORE SWAP4 SWAP2 SWAP3 SWAP2 AND SWAP1 PUSH4 0xA853BA2F SWAP1 PUSH1 0x24 ADD PUSH1 0x20 PUSH1 0x40 MLOAD DUP1 DUP4 SUB DUP2 DUP7 GAS STATICCALL ISZERO DUP1 ISZERO PUSH2 0x3546 JUMPI RETURNDATASIZE PUSH1 0x0 DUP1 RETURNDATACOPY RETURNDATASIZE PUSH1 0x0 REVERT JUMPDEST POP POP POP POP PUSH1 0x40 MLOAD RETURNDATASIZE PUSH1 0x1F NOT PUSH1 0x1F DUP3 ADD AND DUP3 ADD DUP1 PUSH1 0x40 MSTORE POP DUP2 ADD SWAP1 PUSH2 0x356A SWAP2 SWAP1 PUSH2 0x3FF6 JUMP JUMPDEST PUSH1 0x8 SLOAD PUSH1 0x40 MLOAD PUSH4 0x70A08231 PUSH1 0xE0 SHL DUP2 MSTORE PUSH1 0x1 PUSH1 0x1 PUSH1 0xA0 SHL SUB DUP9 DUP2 AND PUSH1 0x4 DUP4 ADD MSTORE SWAP1 SWAP2 AND SWAP1 PUSH4 0x70A08231 SWAP1 PUSH1 0x24 ADD PUSH1 0x20 PUSH1 0x40 MLOAD DUP1 DUP4 SUB DUP2 DUP7 GAS STATICCALL ISZERO DUP1 ISZERO PUSH2 0x35B4 JUMPI RETURNDATASIZE PUSH1 0x0 DUP1 RETURNDATACOPY RETURNDATASIZE PUSH1 0x0 REVERT JUMPDEST POP POP POP POP PUSH1 0x40 MLOAD RETURNDATASIZE PUSH1 0x1F NOT PUSH1 0x1F DUP3 ADD AND DUP3 ADD DUP1 PUSH1 0x40 MSTORE POP DUP2 ADD SWAP1 PUSH2 0x35D8 SWAP2 SWAP1 PUSH2 0x3FF6 JUMP JUMPDEST PUSH2 0x35E2 SWAP2 SWAP1 PUSH2 0x402C JUMP JUMPDEST DUP3 SLOAD SWAP1 SWAP2 POP PUSH1 0x0 SWAP1 PUSH2 0x3612 SWAP1 PUSH1 0x1 PUSH1 0x1 PUSH1 0x40 SHL SUB DUP1 DUP3 AND SWAP2 PUSH1 0x1 PUSH1 0x80 SHL DUP2 DIV DUP3 AND SWAP2 PUSH1 0x1 PUSH1 0x40 SHL SWAP1 SWAP2 DIV AND PUSH2 0x2624 JUMP JUMPDEST SWAP1 POP PUSH1 0x0 PUSH2 0x362A PUSH2 0x3623 DUP5 DUP8 PUSH2 0x402C JUMP JUMPDEST DUP7 SWAP1 PUSH2 0x2E6F JUMP JUMPDEST SWAP1 POP PUSH1 0x0 PUSH2 0x3640 DUP3 PUSH8 0xDE0B6B3A7640000 PUSH2 0x4044 JUMP JUMPDEST SWAP1 POP PUSH1 0x0 PUSH1 0x1 PUSH1 0x1 PUSH1 0xA0 SHL SUB DUP9 AND PUSH2 0x3690 JUMPI POP PUSH1 0x3 SLOAD PUSH2 0x3664 TIMESTAMP PUSH2 0x3A0B JUMP JUMPDEST PUSH2 0x3A0B JUMP JUMPDEST DUP7 SLOAD PUSH1 0x1 PUSH1 0x1 PUSH1 0x40 SHL SUB SWAP2 SWAP1 SWAP2 AND PUSH1 0x1 PUSH1 0x80 SHL MUL PUSH8 0xFFFFFFFFFFFFFFFF PUSH1 0x80 SHL NOT SWAP1 SWAP2 AND OR DUP7 SSTORE PUSH2 0x37C6 JUMP JUMPDEST PUSH1 0x1 PUSH1 0x1 PUSH1 0xA0 SHL SUB DUP9 AND PUSH1 0x0 SWAP1 DUP2 MSTORE PUSH1 0x6 PUSH1 0x20 SWAP1 DUP2 MSTORE PUSH1 0x40 SWAP2 DUP3 SWAP1 KECCAK256 DUP3 MLOAD PUSH1 0x60 DUP2 ADD DUP5 MSTORE SWAP1 SLOAD PUSH1 0x1 PUSH1 0x1 PUSH1 0x40 SHL SUB DUP1 DUP3 AND DUP1 DUP5 MSTORE PUSH1 0x1 PUSH1 0x40 SHL DUP4 DIV DUP3 AND SWAP5 DUP5 ADD DUP6 SWAP1 MSTORE PUSH1 0x1 PUSH1 0x80 SHL SWAP1 SWAP3 DIV AND SWAP4 DUP3 ADD DUP5 SWAP1 MSTORE SWAP1 SWAP3 PUSH2 0x36ED SWAP3 PUSH2 0x2624 JUMP JUMPDEST DUP8 SLOAD SWAP1 SWAP3 POP PUSH1 0x0 SWAP1 PUSH2 0x3708 SWAP1 PUSH1 0x1 PUSH1 0x1 PUSH1 0x40 SHL SUB AND TIMESTAMP PUSH2 0x4044 JUMP JUMPDEST DUP9 SLOAD SWAP1 SWAP2 POP PUSH1 0x1 PUSH1 0x80 SHL SWAP1 DIV PUSH1 0x1 PUSH1 0x1 PUSH1 0x40 SHL SUB AND DUP2 GT ISZERO PUSH2 0x3755 JUMPI PUSH2 0x372D DUP2 PUSH2 0x3A0B JUMP JUMPDEST DUP9 SLOAD PUSH1 0x1 PUSH1 0x1 PUSH1 0x40 SHL SUB SWAP2 SWAP1 SWAP2 AND PUSH1 0x1 PUSH1 0x80 SHL MUL PUSH8 0xFFFFFFFFFFFFFFFF PUSH1 0x80 SHL NOT SWAP1 SWAP2 AND OR DUP9 SSTORE JUMPDEST PUSH2 0x379C PUSH2 0x3762 DUP7 DUP7 PUSH2 0x402C JUMP JUMPDEST PUSH2 0x376C TIMESTAMP DUP9 PUSH2 0x3FB5 JUMP JUMPDEST DUP11 SLOAD PUSH2 0x3788 SWAP1 PUSH1 0x1 PUSH1 0x80 SHL SWAP1 DIV PUSH1 0x1 PUSH1 0x1 PUSH1 0x40 SHL SUB AND DUP9 PUSH2 0x3FB5 JUMP JUMPDEST PUSH2 0x3792 SWAP2 SWAP1 PUSH2 0x402C JUMP JUMPDEST PUSH2 0x365F SWAP2 SWAP1 PUSH2 0x3FD4 JUMP JUMPDEST DUP9 SLOAD PUSH1 0x1 PUSH1 0x1 PUSH1 0x40 SHL SUB SWAP2 SWAP1 SWAP2 AND PUSH1 0x1 PUSH1 0x80 SHL MUL PUSH8 0xFFFFFFFFFFFFFFFF PUSH1 0x80 SHL NOT SWAP1 SWAP2 AND OR DUP9 SSTORE POP POP JUMPDEST PUSH1 0x0 PUSH2 0x37D2 DUP5 DUP4 PUSH2 0x3060 JUMP JUMPDEST PUSH2 0x37DC DUP5 DUP8 PUSH2 0x3060 JUMP JUMPDEST PUSH2 0x37E6 SWAP2 SWAP1 PUSH2 0x402C JUMP JUMPDEST SWAP1 POP PUSH2 0x37F1 DUP2 PUSH2 0x3A0B JUMP JUMPDEST DUP8 SLOAD PUSH1 0x1 PUSH1 0x1 PUSH1 0x40 SHL SUB SWAP2 SWAP1 SWAP2 AND PUSH1 0x1 PUSH1 0x40 SHL MUL PUSH16 0xFFFFFFFFFFFFFFFF0000000000000000 NOT SWAP1 SWAP2 AND OR DUP8 SSTORE PUSH1 0x5 SLOAD PUSH2 0x3829 SWAP1 PUSH2 0x3A0B JUMP JUMPDEST DUP8 SLOAD PUSH8 0xFFFFFFFFFFFFFFFF NOT AND PUSH1 0x1 PUSH1 0x1 PUSH1 0x40 SHL SUB SWAP2 SWAP1 SWAP2 AND OR SWAP1 SWAP7 SSTORE POP POP POP POP POP POP POP POP POP JUMP JUMPDEST PUSH1 0x40 MLOAD PUSH1 0x1 PUSH1 0x1 PUSH1 0xA0 SHL SUB DUP1 DUP6 AND PUSH1 0x24 DUP4 ADD MSTORE DUP4 AND PUSH1 0x44 DUP3 ADD MSTORE PUSH1 0x64 DUP2 ADD DUP3 SWAP1 MSTORE PUSH2 0x2469 SWAP1 DUP6 SWAP1 PUSH4 0x23B872DD PUSH1 0xE0 SHL SWAP1 PUSH1 0x84 ADD JUMPDEST PUSH1 0x40 DUP1 MLOAD PUSH1 0x1F NOT DUP2 DUP5 SUB ADD DUP2 MSTORE SWAP2 SWAP1 MSTORE PUSH1 0x20 DUP2 ADD DUP1 MLOAD PUSH1 0x1 PUSH1 0x1 PUSH1 0xE0 SHL SUB AND PUSH1 0x1 PUSH1 0x1 PUSH1 0xE0 SHL SUB NOT SWAP1 SWAP4 AND SWAP3 SWAP1 SWAP3 OR SWAP1 SWAP2 MSTORE PUSH2 0x3A77 JUMP JUMPDEST DUP1 ISZERO DUP1 PUSH2 0x3936 JUMPI POP PUSH1 0x40 MLOAD PUSH4 0x6EB1769F PUSH1 0xE1 SHL DUP2 MSTORE ADDRESS PUSH1 0x4 DUP3 ADD MSTORE PUSH1 0x1 PUSH1 0x1 PUSH1 0xA0 SHL SUB DUP4 DUP2 AND PUSH1 0x24 DUP4 ADD MSTORE DUP5 AND SWAP1 PUSH4 0xDD62ED3E SWAP1 PUSH1 0x44 ADD PUSH1 0x20 PUSH1 0x40 MLOAD DUP1 DUP4 SUB DUP2 DUP7 GAS STATICCALL ISZERO DUP1 ISZERO PUSH2 0x3910 JUMPI RETURNDATASIZE PUSH1 0x0 DUP1 RETURNDATACOPY RETURNDATASIZE PUSH1 0x0 REVERT JUMPDEST POP POP POP POP PUSH1 0x40 MLOAD RETURNDATASIZE PUSH1 0x1F NOT PUSH1 0x1F DUP3 ADD AND DUP3 ADD DUP1 PUSH1 0x40 MSTORE POP DUP2 ADD SWAP1 PUSH2 0x3934 SWAP2 SWAP1 PUSH2 0x3FF6 JUMP JUMPDEST ISZERO JUMPDEST PUSH2 0x39A1 JUMPI PUSH1 0x40 MLOAD PUSH3 0x461BCD PUSH1 0xE5 SHL DUP2 MSTORE PUSH1 0x20 PUSH1 0x4 DUP3 ADD MSTORE PUSH1 0x36 PUSH1 0x24 DUP3 ADD MSTORE PUSH32 0x5361666545524332303A20617070726F76652066726F6D206E6F6E2D7A65726F PUSH1 0x44 DUP3 ADD MSTORE PUSH22 0x20746F206E6F6E2D7A65726F20616C6C6F77616E6365 PUSH1 0x50 SHL PUSH1 0x64 DUP3 ADD MSTORE PUSH1 0x84 ADD PUSH2 0x98F JUMP JUMPDEST PUSH1 0x40 MLOAD PUSH1 0x1 PUSH1 0x1 PUSH1 0xA0 SHL SUB DUP4 AND PUSH1 0x24 DUP3 ADD MSTORE PUSH1 0x44 DUP2 ADD DUP3 SWAP1 MSTORE PUSH2 0x2DE7 SWAP1 DUP5 SWAP1 PUSH4 0x95EA7B3 PUSH1 0xE0 SHL SWAP1 PUSH1 0x64 ADD PUSH2 0x3885 JUMP JUMPDEST PUSH1 0x0 PUSH2 0xA56 PUSH2 0x3477 JUMP JUMPDEST PUSH1 0x40 MLOAD PUSH1 0x1 PUSH1 0x1 PUSH1 0xA0 SHL SUB DUP4 AND PUSH1 0x24 DUP3 ADD MSTORE PUSH1 0x44 DUP2 ADD DUP3 SWAP1 MSTORE PUSH2 0x2DE7 SWAP1 DUP5 SWAP1 PUSH4 0xA9059CBB PUSH1 0xE0 SHL SWAP1 PUSH1 0x64 ADD PUSH2 0x3885 JUMP JUMPDEST PUSH1 0x0 PUSH1 0x1 PUSH1 0x1 PUSH1 0x40 SHL SUB DUP3 GT ISZERO PUSH2 0x3A73 JUMPI PUSH1 0x40 MLOAD PUSH3 0x461BCD PUSH1 0xE5 SHL DUP2 MSTORE PUSH1 0x20 PUSH1 0x4 DUP3 ADD MSTORE PUSH1 0x26 PUSH1 0x24 DUP3 ADD MSTORE PUSH32 0x53616665436173743A2076616C756520646F65736E27742066697420696E2036 PUSH1 0x44 DUP3 ADD MSTORE PUSH6 0x342062697473 PUSH1 0xD0 SHL PUSH1 0x64 DUP3 ADD MSTORE PUSH1 0x84 ADD PUSH2 0x98F JUMP JUMPDEST POP SWAP1 JUMP JUMPDEST PUSH1 0x0 PUSH2 0x3ACC DUP3 PUSH1 0x40 MLOAD DUP1 PUSH1 0x40 ADD PUSH1 0x40 MSTORE DUP1 PUSH1 0x20 DUP2 MSTORE PUSH1 0x20 ADD PUSH32 0x5361666545524332303A206C6F772D6C6576656C2063616C6C206661696C6564 DUP2 MSTORE POP DUP6 PUSH1 0x1 PUSH1 0x1 PUSH1 0xA0 SHL SUB AND PUSH2 0x3B49 SWAP1 SWAP3 SWAP2 SWAP1 PUSH4 0xFFFFFFFF AND JUMP JUMPDEST DUP1 MLOAD SWAP1 SWAP2 POP ISZERO PUSH2 0x2DE7 JUMPI DUP1 DUP1 PUSH1 0x20 ADD SWAP1 MLOAD DUP2 ADD SWAP1 PUSH2 0x3AEA SWAP2 SWAP1 PUSH2 0x3F82 JUMP JUMPDEST PUSH2 0x2DE7 JUMPI PUSH1 0x40 MLOAD PUSH3 0x461BCD PUSH1 0xE5 SHL DUP2 MSTORE PUSH1 0x20 PUSH1 0x4 DUP3 ADD MSTORE PUSH1 0x2A PUSH1 0x24 DUP3 ADD MSTORE PUSH32 0x5361666545524332303A204552433230206F7065726174696F6E20646964206E PUSH1 0x44 DUP3 ADD MSTORE PUSH10 0x1BDD081CDD58D8D95959 PUSH1 0xB2 SHL PUSH1 0x64 DUP3 ADD MSTORE PUSH1 0x84 ADD PUSH2 0x98F JUMP JUMPDEST PUSH1 0x60 PUSH2 0x1662 DUP5 DUP5 PUSH1 0x0 DUP6 DUP6 PUSH1 0x1 PUSH1 0x1 PUSH1 0xA0 SHL SUB DUP6 AND EXTCODESIZE PUSH2 0x3BAB JUMPI PUSH1 0x40 MLOAD PUSH3 0x461BCD PUSH1 0xE5 SHL DUP2 MSTORE PUSH1 0x20 PUSH1 0x4 DUP3 ADD MSTORE PUSH1 0x1D PUSH1 0x24 DUP3 ADD MSTORE PUSH32 0x416464726573733A2063616C6C20746F206E6F6E2D636F6E7472616374000000 PUSH1 0x44 DUP3 ADD MSTORE PUSH1 0x64 ADD PUSH2 0x98F JUMP JUMPDEST PUSH1 0x0 DUP1 DUP7 PUSH1 0x1 PUSH1 0x1 PUSH1 0xA0 SHL SUB AND DUP6 DUP8 PUSH1 0x40 MLOAD PUSH2 0x3BC7 SWAP2 SWAP1 PUSH2 0x405B JUMP JUMPDEST PUSH1 0x0 PUSH1 0x40 MLOAD DUP1 DUP4 SUB DUP2 DUP6 DUP8 GAS CALL SWAP3 POP POP POP RETURNDATASIZE DUP1 PUSH1 0x0 DUP2 EQ PUSH2 0x3C04 JUMPI PUSH1 0x40 MLOAD SWAP2 POP PUSH1 0x1F NOT PUSH1 0x3F RETURNDATASIZE ADD AND DUP3 ADD PUSH1 0x40 MSTORE RETURNDATASIZE DUP3 MSTORE RETURNDATASIZE PUSH1 0x0 PUSH1 0x20 DUP5 ADD RETURNDATACOPY PUSH2 0x3C09 JUMP JUMPDEST PUSH1 0x60 SWAP2 POP JUMPDEST POP SWAP2 POP SWAP2 POP PUSH2 0x267F DUP3 DUP3 DUP7 PUSH1 0x60 DUP4 ISZERO PUSH2 0x3C23 JUMPI POP DUP2 PUSH2 0x1009 JUMP JUMPDEST DUP3 MLOAD ISZERO PUSH2 0x3C33 JUMPI DUP3 MLOAD DUP1 DUP5 PUSH1 0x20 ADD REVERT JUMPDEST DUP2 PUSH1 0x40 MLOAD PUSH3 0x461BCD PUSH1 0xE5 SHL DUP2 MSTORE PUSH1 0x4 ADD PUSH2 0x98F SWAP2 SWAP1 PUSH2 0x3D09 JUMP JUMPDEST DUP3 DUP1 SLOAD PUSH2 0x3C59 SWAP1 PUSH2 0x3F47 JUMP JUMPDEST SWAP1 PUSH1 0x0 MSTORE PUSH1 0x20 PUSH1 0x0 KECCAK256 SWAP1 PUSH1 0x1F ADD PUSH1 0x20 SWAP1 DIV DUP2 ADD SWAP3 DUP3 PUSH2 0x3C7B JUMPI PUSH1 0x0 DUP6 SSTORE PUSH2 0x3CC1 JUMP JUMPDEST DUP3 PUSH1 0x1F LT PUSH2 0x3C94 JUMPI DUP3 DUP1 ADD PUSH1 0xFF NOT DUP3 CALLDATALOAD AND OR DUP6 SSTORE PUSH2 0x3CC1 JUMP JUMPDEST DUP3 DUP1 ADD PUSH1 0x1 ADD DUP6 SSTORE DUP3 ISZERO PUSH2 0x3CC1 JUMPI SWAP2 DUP3 ADD JUMPDEST DUP3 DUP2 GT ISZERO PUSH2 0x3CC1 JUMPI DUP3 CALLDATALOAD DUP3 SSTORE SWAP2 PUSH1 0x20 ADD SWAP2 SWAP1 PUSH1 0x1 ADD SWAP1 PUSH2 0x3CA6 JUMP JUMPDEST POP PUSH2 0x3A73 SWAP3 SWAP2 POP JUMPDEST DUP1 DUP3 GT ISZERO PUSH2 0x3A73 JUMPI PUSH1 0x0 DUP2 SSTORE PUSH1 0x1 ADD PUSH2 0x3CC9 JUMP JUMPDEST PUSH1 0x0 JUMPDEST DUP4 DUP2 LT ISZERO PUSH2 0x3CF8 JUMPI DUP2 DUP2 ADD MLOAD DUP4 DUP3 ADD MSTORE PUSH1 0x20 ADD PUSH2 0x3CE0 JUMP JUMPDEST DUP4 DUP2 GT ISZERO PUSH2 0x2469 JUMPI POP POP PUSH1 0x0 SWAP2 ADD MSTORE JUMP JUMPDEST PUSH1 0x20 DUP2 MSTORE PUSH1 0x0 DUP3 MLOAD DUP1 PUSH1 0x20 DUP5 ADD MSTORE PUSH2 0x3D28 DUP2 PUSH1 0x40 DUP6 ADD PUSH1 0x20 DUP8 ADD PUSH2 0x3CDD JUMP JUMPDEST PUSH1 0x1F ADD PUSH1 0x1F NOT AND SWAP2 SWAP1 SWAP2 ADD PUSH1 0x40 ADD SWAP3 SWAP2 POP POP JUMP JUMPDEST PUSH1 0x0 PUSH1 0x20 DUP3 DUP5 SUB SLT ISZERO PUSH2 0x3D4E JUMPI PUSH1 0x0 DUP1 REVERT JUMPDEST POP CALLDATALOAD SWAP2 SWAP1 POP JUMP JUMPDEST PUSH1 0x1 PUSH1 0x1 PUSH1 0xA0 SHL SUB DUP2 AND DUP2 EQ PUSH2 0x2F95 JUMPI PUSH1 0x0 DUP1 REVERT JUMPDEST PUSH1 0x0 DUP1 PUSH1 0x40 DUP4 DUP6 SUB SLT ISZERO PUSH2 0x3D7D JUMPI PUSH1 0x0 DUP1 REVERT JUMPDEST DUP3 CALLDATALOAD PUSH2 0x3D88 DUP2 PUSH2 0x3D55 JUMP JUMPDEST SWAP5 PUSH1 0x20 SWAP4 SWAP1 SWAP4 ADD CALLDATALOAD SWAP4 POP POP POP JUMP JUMPDEST PUSH1 0x0 PUSH1 0x20 DUP3 DUP5 SUB SLT ISZERO PUSH2 0x3DA8 JUMPI PUSH1 0x0 DUP1 REVERT JUMPDEST DUP2 CALLDATALOAD PUSH2 0x1009 DUP2 PUSH2 0x3D55 JUMP JUMPDEST DUP1 ISZERO ISZERO DUP2 EQ PUSH2 0x2F95 JUMPI PUSH1 0x0 DUP1 REVERT JUMPDEST PUSH1 0x0 PUSH1 0x20 DUP3 DUP5 SUB SLT ISZERO PUSH2 0x3DD3 JUMPI PUSH1 0x0 DUP1 REVERT JUMPDEST DUP2 CALLDATALOAD PUSH2 0x1009 DUP2 PUSH2 0x3DB3 JUMP JUMPDEST PUSH1 0x0 DUP1 PUSH1 0x0 PUSH1 0x60 DUP5 DUP7 SUB SLT ISZERO PUSH2 0x3DF3 JUMPI PUSH1 0x0 DUP1 REVERT JUMPDEST DUP4 CALLDATALOAD PUSH2 0x3DFE DUP2 PUSH2 0x3D55 JUMP JUMPDEST SWAP6 PUSH1 0x20 DUP6 ADD CALLDATALOAD SWAP6 POP PUSH1 0x40 SWAP1 SWAP5 ADD CALLDATALOAD SWAP4 SWAP3 POP POP POP JUMP JUMPDEST PUSH1 0x0 DUP1 PUSH1 0x40 DUP4 DUP6 SUB SLT ISZERO PUSH2 0x3E26 JUMPI PUSH1 0x0 DUP1 REVERT JUMPDEST POP POP DUP1 CALLDATALOAD SWAP3 PUSH1 0x20 SWAP1 SWAP2 ADD CALLDATALOAD SWAP2 POP JUMP JUMPDEST PUSH1 0x0 DUP1 PUSH1 0x0 DUP1 PUSH1 0x0 DUP1 PUSH1 0xA0 DUP8 DUP10 SUB SLT ISZERO PUSH2 0x3E4E JUMPI PUSH1 0x0 DUP1 REVERT JUMPDEST DUP7 CALLDATALOAD PUSH1 0x1 PUSH1 0x1 PUSH1 0x40 SHL SUB DUP1 DUP3 GT ISZERO PUSH2 0x3E65 JUMPI PUSH1 0x0 DUP1 REVERT JUMPDEST DUP2 DUP10 ADD SWAP2 POP DUP10 PUSH1 0x1F DUP4 ADD SLT PUSH2 0x3E79 JUMPI PUSH1 0x0 DUP1 REVERT JUMPDEST DUP2 CALLDATALOAD DUP2 DUP2 GT ISZERO PUSH2 0x3E88 JUMPI PUSH1 0x0 DUP1 REVERT JUMPDEST DUP11 PUSH1 0x20 DUP3 DUP6 ADD ADD GT ISZERO PUSH2 0x3E9A JUMPI PUSH1 0x0 DUP1 REVERT JUMPDEST PUSH1 0x20 SWAP3 DUP4 ADD SWAP9 POP SWAP7 POP POP DUP8 ADD CALLDATALOAD PUSH2 0x3EB0 DUP2 PUSH2 0x3D55 JUMP JUMPDEST SWAP4 POP PUSH1 0x40 DUP8 ADD CALLDATALOAD PUSH2 0x3EC0 DUP2 PUSH2 0x3D55 JUMP JUMPDEST SWAP6 SWAP9 SWAP5 SWAP8 POP SWAP3 SWAP6 PUSH1 0x60 DUP2 ADD CALLDATALOAD SWAP5 PUSH1 0x80 SWAP1 SWAP2 ADD CALLDATALOAD SWAP4 POP SWAP2 POP POP JUMP JUMPDEST PUSH1 0x0 DUP1 PUSH1 0x0 PUSH1 0x60 DUP5 DUP7 SUB SLT ISZERO PUSH2 0x3EEF JUMPI PUSH1 0x0 DUP1 REVERT JUMPDEST POP POP DUP2 CALLDATALOAD SWAP4 PUSH1 0x20 DUP4 ADD CALLDATALOAD SWAP4 POP PUSH1 0x40 SWAP1 SWAP3 ADD CALLDATALOAD SWAP2 SWAP1 POP JUMP JUMPDEST PUSH1 0x0 DUP1 PUSH1 0x0 PUSH1 0x60 DUP5 DUP7 SUB SLT ISZERO PUSH2 0x3F1B JUMPI PUSH1 0x0 DUP1 REVERT JUMPDEST DUP4 CALLDATALOAD PUSH2 0x3F26 DUP2 PUSH2 0x3D55 JUMP JUMPDEST SWAP3 POP PUSH1 0x20 DUP5 ADD CALLDATALOAD PUSH2 0x3F36 DUP2 PUSH2 0x3D55 JUMP JUMPDEST SWAP3 SWAP6 SWAP3 SWAP5 POP POP POP PUSH1 0x40 SWAP2 SWAP1 SWAP2 ADD CALLDATALOAD SWAP1 JUMP JUMPDEST PUSH1 0x1 DUP2 DUP2 SHR SWAP1 DUP3 AND DUP1 PUSH2 0x3F5B JUMPI PUSH1 0x7F DUP3 AND SWAP2 POP JUMPDEST PUSH1 0x20 DUP3 LT DUP2 EQ ISZERO PUSH2 0x3F7C JUMPI PUSH4 0x4E487B71 PUSH1 0xE0 SHL PUSH1 0x0 MSTORE PUSH1 0x22 PUSH1 0x4 MSTORE PUSH1 0x24 PUSH1 0x0 REVERT JUMPDEST POP SWAP2 SWAP1 POP JUMP JUMPDEST PUSH1 0x0 PUSH1 0x20 DUP3 DUP5 SUB SLT ISZERO PUSH2 0x3F94 JUMPI PUSH1 0x0 DUP1 REVERT JUMPDEST DUP2 MLOAD PUSH2 0x1009 DUP2 PUSH2 0x3DB3 JUMP JUMPDEST PUSH4 0x4E487B71 PUSH1 0xE0 SHL PUSH1 0x0 MSTORE PUSH1 0x11 PUSH1 0x4 MSTORE PUSH1 0x24 PUSH1 0x0 REVERT JUMPDEST PUSH1 0x0 DUP2 PUSH1 0x0 NOT DIV DUP4 GT DUP3 ISZERO ISZERO AND ISZERO PUSH2 0x3FCF JUMPI PUSH2 0x3FCF PUSH2 0x3F9F JUMP JUMPDEST POP MUL SWAP1 JUMP JUMPDEST PUSH1 0x0 DUP3 PUSH2 0x3FF1 JUMPI PUSH4 0x4E487B71 PUSH1 0xE0 SHL PUSH1 0x0 MSTORE PUSH1 0x12 PUSH1 0x4 MSTORE PUSH1 0x24 PUSH1 0x0 REVERT JUMPDEST POP DIV SWAP1 JUMP JUMPDEST PUSH1 0x0 PUSH1 0x20 DUP3 DUP5 SUB SLT ISZERO PUSH2 0x4008 JUMPI PUSH1 0x0 DUP1 REVERT JUMPDEST POP MLOAD SWAP2 SWAP1 POP JUMP JUMPDEST PUSH1 0x0 PUSH1 0x20 DUP3 DUP5 SUB SLT ISZERO PUSH2 0x4021 JUMPI PUSH1 0x0 DUP1 REVERT JUMPDEST DUP2 MLOAD PUSH2 0x1009 DUP2 PUSH2 0x3D55 JUMP JUMPDEST PUSH1 0x0 DUP3 NOT DUP3 GT ISZERO PUSH2 0x403F JUMPI PUSH2 0x403F PUSH2 0x3F9F JUMP JUMPDEST POP ADD SWAP1 JUMP JUMPDEST PUSH1 0x0 DUP3 DUP3 LT ISZERO PUSH2 0x4056 JUMPI PUSH2 0x4056 PUSH2 0x3F9F JUMP JUMPDEST POP SUB SWAP1 JUMP JUMPDEST PUSH1 0x0 DUP3 MLOAD PUSH2 0x406D DUP2 DUP5 PUSH1 0x20 DUP8 ADD PUSH2 0x3CDD JUMP JUMPDEST SWAP2 SWAP1 SWAP2 ADD SWAP3 SWAP2 POP POP JUMP INVALID PUSH15 0x6F7420656E6F7567682066756E6473 KECCAK256 PUSH24 0x6572652077697468647261776E2066726F6D207468652070 PUSH16 0x6F6C756E617574686F72697A65642061 PUSH4 0x63657373 STOP STOP STOP STOP STOP STOP STOP STOP STOP STOP STOP STOP STOP PUSH21 0x6865206D696E7465722061646472657373206F6620 PUSH21 0x6865204C5020746F6B656E20616E64207468652070 PUSH16 0x6F6C206164647265737320646F206E6F PUSH21 0x206D61746368A2646970667358221220358DBFCF69 BASEFEE EXTCODECOPY SWAP6 0xD1 0x2D CREATE2 KECCAK256 DUP14 PUSH27 0xCF13E42F74907A327D7E45EF7DB46EF64DE764736F6C634300080A STOP CALLER ","sha1":"1fa0fca1a9591960361be55044e1028064e287fe","source":"// SPDX-License-Identifier: GPL-3.0-or-later\npragma solidity 0.8.10;\n\nimport \"./LiquidityPool.sol\";\nimport \"../../interfaces/pool/IErc20Pool.sol\";\n\ncontract Erc20Pool is LiquidityPool, IErc20Pool {\n    using SafeERC20 for IERC20;\n\n    address private _underlying;\n\n    constructor(IController _controller) LiquidityPool(_controller) {}\n\n    function initialize(\n        string calldata name_,\n        address underlying_,\n        address vault_,\n        uint256 maxWithdrawalFee_,\n        uint256 minWithdrawalFee_\n    ) public override {\n        require(underlying_ != address(0), Error.ZERO_ADDRESS_NOT_ALLOWED);\n        _underlying = underlying_;\n        _initialize(name_, vault_, maxWithdrawalFee_, minWithdrawalFee_);\n    }\n\n    function getUnderlying() public view override returns (address) {\n        return _underlying;\n    }\n\n    function _doTransferInFromSender(uint256 amount) internal override {\n        require(msg.value == 0, Error.INVALID_VALUE);\n        IERC20(_underlying).safeTransferFrom(msg.sender, address(this), amount);\n    }\n\n    function _doTransferOut(address payable to, uint256 amount) internal override {\n        IERC20(_underlying).safeTransfer(to, amount);\n    }\n\n    function _getBalanceUnderlying() internal view override returns (uint256) {\n        return IERC20(_underlying).balanceOf(address(this));\n    }\n\n    function _getBalanceUnderlying(bool) internal view override returns (uint256) {\n        return _getBalanceUnderlying();\n    }\n}\n","sourcePath":"contracts/pool/Erc20Pool.sol","type":"contract","deployment":{"address":"0x3E65E9Cfc7d5Cf83ec0EEDe4B6F35E87c4079692","chainid":"1","blockHeight":15323644}}