{"abi":[{"anonymous":false,"inputs":[{"indexed":false,"internalType":"uint64","name":"id","type":"uint64"}],"name":"CallCancelled","type":"event"},{"anonymous":false,"inputs":[{"indexed":false,"internalType":"uint64","name":"id","type":"uint64"}],"name":"CallExecuted","type":"event"},{"anonymous":false,"inputs":[{"indexed":false,"internalType":"uint64","name":"id","type":"uint64"}],"name":"CallPrepared","type":"event"},{"anonymous":false,"inputs":[{"indexed":false,"internalType":"address","name":"target","type":"address"},{"indexed":false,"internalType":"bytes","name":"data","type":"bytes"}],"name":"CallQuickExecuted","type":"event"},{"anonymous":false,"inputs":[{"indexed":false,"internalType":"address","name":"target","type":"address"},{"indexed":false,"internalType":"bytes4","name":"selector","type":"bytes4"},{"indexed":false,"internalType":"uint64","name":"delay","type":"uint64"}],"name":"DelaySet","type":"event"},{"anonymous":false,"inputs":[{"indexed":false,"internalType":"address","name":"target","type":"address"},{"indexed":false,"internalType":"bytes4","name":"selector","type":"bytes4"},{"indexed":false,"internalType":"uint64","name":"delay","type":"uint64"}],"name":"DelayUpdated","type":"event"},{"anonymous":false,"inputs":[{"indexed":true,"internalType":"address","name":"previousOwner","type":"address"},{"indexed":true,"internalType":"address","name":"newOwner","type":"address"}],"name":"OwnershipTransferred","type":"event"},{"inputs":[{"internalType":"uint64","name":"id_","type":"uint64"}],"name":"cancelCall","outputs":[],"stateMutability":"nonpayable","type":"function"},{"inputs":[],"name":"cancelledCalls","outputs":[{"components":[{"internalType":"uint64","name":"id","type":"uint64"},{"internalType":"uint64","name":"prepared","type":"uint64"},{"internalType":"address","name":"target","type":"address"},{"internalType":"bytes4","name":"selector","type":"bytes4"},{"internalType":"bytes","name":"data","type":"bytes"}],"internalType":"struct IGovernanceTimelock.Call[]","name":"calls","type":"tuple[]"}],"stateMutability":"view","type":"function"},{"inputs":[{"internalType":"address","name":"","type":"address"},{"internalType":"bytes4","name":"","type":"bytes4"}],"name":"delays","outputs":[{"internalType":"uint64","name":"","type":"uint64"}],"stateMutability":"view","type":"function"},{"inputs":[{"internalType":"uint64","name":"id_","type":"uint64"}],"name":"executeCall","outputs":[],"stateMutability":"nonpayable","type":"function"},{"inputs":[],"name":"executedCalls","outputs":[{"components":[{"internalType":"uint64","name":"id","type":"uint64"},{"internalType":"uint64","name":"prepared","type":"uint64"},{"internalType":"address","name":"target","type":"address"},{"internalType":"bytes4","name":"selector","type":"bytes4"},{"internalType":"bytes","name":"data","type":"bytes"}],"internalType":"struct IGovernanceTimelock.Call[]","name":"calls","type":"tuple[]"}],"stateMutability":"view","type":"function"},{"inputs":[],"name":"notReadyCalls","outputs":[{"components":[{"internalType":"uint64","name":"id","type":"uint64"},{"internalType":"uint64","name":"prepared","type":"uint64"},{"internalType":"address","name":"target","type":"address"},{"internalType":"bytes4","name":"selector","type":"bytes4"},{"internalType":"bytes","name":"data","type":"bytes"}],"internalType":"struct IGovernanceTimelock.Call[]","name":"calls","type":"tuple[]"}],"stateMutability":"view","type":"function"},{"inputs":[],"name":"owner","outputs":[{"internalType":"address","name":"","type":"address"}],"stateMutability":"view","type":"function"},{"inputs":[{"internalType":"uint64","name":"id_","type":"uint64"}],"name":"pendingCall","outputs":[{"components":[{"internalType":"uint64","name":"id","type":"uint64"},{"internalType":"uint64","name":"prepared","type":"uint64"},{"internalType":"address","name":"target","type":"address"},{"internalType":"bytes4","name":"selector","type":"bytes4"},{"internalType":"bytes","name":"data","type":"bytes"}],"internalType":"struct IGovernanceTimelock.Call","name":"call","type":"tuple"}],"stateMutability":"view","type":"function"},{"inputs":[{"internalType":"uint64","name":"id_","type":"uint64"}],"name":"pendingCallDelay","outputs":[{"internalType":"uint64","name":"","type":"uint64"}],"stateMutability":"view","type":"function"},{"inputs":[{"internalType":"uint64","name":"id_","type":"uint64"}],"name":"pendingCallIndex","outputs":[{"internalType":"uint256","name":"index","type":"uint256"}],"stateMutability":"view","type":"function"},{"inputs":[],"name":"pendingCalls","outputs":[{"components":[{"internalType":"uint64","name":"id","type":"uint64"},{"internalType":"uint64","name":"prepared","type":"uint64"},{"internalType":"address","name":"target","type":"address"},{"internalType":"bytes4","name":"selector","type":"bytes4"},{"internalType":"bytes","name":"data","type":"bytes"}],"internalType":"struct IGovernanceTimelock.Call[]","name":"calls","type":"tuple[]"}],"stateMutability":"view","type":"function"},{"inputs":[{"internalType":"address","name":"target_","type":"address"},{"internalType":"bytes","name":"data_","type":"bytes"},{"internalType":"bool","name":"validateCall_","type":"bool"}],"name":"prepareCall","outputs":[],"stateMutability":"nonpayable","type":"function"},{"inputs":[{"internalType":"address","name":"target_","type":"address"},{"internalType":"bytes","name":"data_","type":"bytes"}],"name":"quickExecuteCall","outputs":[],"stateMutability":"nonpayable","type":"function"},{"inputs":[],"name":"readyCalls","outputs":[{"components":[{"internalType":"uint64","name":"id","type":"uint64"},{"internalType":"uint64","name":"prepared","type":"uint64"},{"internalType":"address","name":"target","type":"address"},{"internalType":"bytes4","name":"selector","type":"bytes4"},{"internalType":"bytes","name":"data","type":"bytes"}],"internalType":"struct IGovernanceTimelock.Call[]","name":"calls","type":"tuple[]"}],"stateMutability":"view","type":"function"},{"inputs":[],"name":"renounceOwnership","outputs":[],"stateMutability":"nonpayable","type":"function"},{"inputs":[{"internalType":"address","name":"target_","type":"address"},{"internalType":"bytes4","name":"selector_","type":"bytes4"},{"internalType":"uint64","name":"delay_","type":"uint64"}],"name":"setDelay","outputs":[],"stateMutability":"nonpayable","type":"function"},{"inputs":[{"components":[{"internalType":"uint64","name":"id","type":"uint64"},{"internalType":"uint64","name":"prepared","type":"uint64"},{"internalType":"address","name":"target","type":"address"},{"internalType":"bytes4","name":"selector","type":"bytes4"},{"internalType":"bytes","name":"data","type":"bytes"}],"internalType":"struct IGovernanceTimelock.Call","name":"call_","type":"tuple"}],"name":"testCall","outputs":[],"stateMutability":"nonpayable","type":"function"},{"inputs":[],"name":"totalCalls","outputs":[{"internalType":"uint64","name":"","type":"uint64"}],"stateMutability":"view","type":"function"},{"inputs":[{"internalType":"address","name":"newOwner","type":"address"}],"name":"transferOwnership","outputs":[],"stateMutability":"nonpayable","type":"function"},{"inputs":[{"internalType":"address","name":"target_","type":"address"},{"internalType":"bytes4","name":"selector_","type":"bytes4"},{"internalType":"uint64","name":"delay_","type":"uint64"}],"name":"updateDelay","outputs":[],"stateMutability":"nonpayable","type":"function"}],"bytecode":"608060405234801561001057600080fd5b5061001a3361001f565b61006f565b600080546001600160a01b038381166001600160a01b0319831681178455604051919092169283917f8be0079c531659141344cd1fd0a4f28419497f9722a3daafe3b4186f6b6457e09190a35050565b612a568061007e6000396000f3fe608060405234801561001057600080fd5b506004361061012c5760003560e01c8063578ba4a5116100ad5780638da5cb5b116100715780638da5cb5b14610283578063c95072c11461029e578063df9876f4146102b1578063f2624df8146102b9578063f2fde38b146102cc57600080fd5b8063578ba4a51461020b578063653622f31461021e578063715018a61461023f578063768a9d24146102475780637a0f38b21461027b57600080fd5b806332320c94116100f457806332320c94146101aa57806337d66d48146101bd5780633af3f24f146101c55780634cae13f8146101f05780634fc5eb291461020357600080fd5b8063047ffbe31461013157806316c2cd44146101465780631bb2c90f1461015957806328255bd91461016c57806331261edb1461018a575b600080fd5b61014461013f36600461227b565b6102df565b005b6101446101543660046122f5565b610582565b61014461016736600461227b565b61073f565b610174610a14565b6040516101819190612416565b60405180910390f35b61019d61019836600461227b565b610b5c565b6040516101819190612478565b6101446101b836600461250a565b610c8c565b610174610d11565b6004546101d8906001600160401b031681565b6040516001600160401b039091168152602001610181565b6101446101fe366004612616565b610e50565b610174610f58565b610144610219366004612659565b611159565b61023161022c36600461227b565b61122e565b604051908152602001610181565b6101446112c1565b6101d86102553660046126ab565b60056020908152600092835260408084209091529082529020546001600160401b031681565b6101746112f7565b6000546040516001600160a01b039091168152602001610181565b6101d86102ac36600461227b565b6114e5565b6101746114fe565b6101446102c7366004612616565b61163d565b6101446102da3660046126de565b61171d565b6000546001600160a01b031633146103125760405162461bcd60e51b8152600401610309906126f9565b60405180910390fd5b600061031d8261122e565b90506000600182815481106103345761033461272e565b60009182526020918290206040805160a081018252600390930290910180546001600160401b038082168552600160401b909104169383019390935260018301546001600160a01b038116918301919091526001600160e01b0319600160a01b90910460e01b1660608201526002820180549192916080840191906103b890612744565b80601f01602080910402602001604051908101604052809291908181526020018280546103e490612744565b80156104315780601f1061040657610100808354040283529160200191610431565b820191906000526020600020905b81548152906001019060200180831161041457829003601f168201915b5050505050815250509050610445826117b8565b600380546001810182556000829052825191027fc2575a0e9e593c00f959f8c92f12db2869c3395a3b0502d05e2516446f71f85b810180546020808601516001600160401b03908116600160401b026001600160801b031990931695169490941717815560408401517fc2575a0e9e593c00f959f8c92f12db2869c3395a3b0502d05e2516446f71f85c83018054606087015160e01c600160a01b026001600160c01b03199091166001600160a01b0390931692909217919091179055608084015180518594929361053d937fc2575a0e9e593c00f959f8c92f12db2869c3395a3b0502d05e2516446f71f85d9091019201906120e5565b50506040516001600160401b03851681527fae59609c1c7c439087c68a574c883870e64532d4a37b7ee2d379fc7f65d07ef391506020015b60405180910390a1505050565b6000546001600160a01b031633146105ac5760405162461bcd60e51b8152600401610309906126f9565b60006105b9858585611916565b905081156105ca576105ca81611a1b565b600180548082018255600091909152815160039091027fb10e2d527612073b26eecdfd717e6a320cf44b4afac2b0732d9fcbe2b7fa0cf6810180546020808601516001600160401b03908116600160401b026001600160801b031990931695169490941717815560408401517fb10e2d527612073b26eecdfd717e6a320cf44b4afac2b0732d9fcbe2b7fa0cf783018054606087015160e01c600160a01b026001600160c01b03199091166001600160a01b039093169290921791909117905560808401518051859492936106c5937fb10e2d527612073b26eecdfd717e6a320cf44b4afac2b0732d9fcbe2b7fa0cf89091019201906120e5565b5050600480546001600160401b0316915060006106e183612795565b82546101009290920a6001600160401b038181021990931691831602179091558251604051911681527f01662ae77582fe66d2febbc159985de60e43844cec428f3e2f00c3c2011371f2915060200160405180910390a15050505050565b600061074a8261122e565b90506000600182815481106107615761076161272e565b60009182526020918290206040805160a081018252600390930290910180546001600160401b038082168552600160401b909104169383019390935260018301546001600160a01b038116918301919091526001600160e01b0319600160a01b90910460e01b1660608201526002820180549192916080840191906107e590612744565b80601f016020809104026020016040519081016040528092919081815260200182805461081190612744565b801561085e5780601f106108335761010080835404028352916020019161085e565b820191906000526020600020905b81548152906001019060200180831161084157829003601f168201915b50505050508152505090504261087382611be6565b826020015161088291906127bc565b6001600160401b031611156108ca5760405162461bcd60e51b815260206004820152600e60248201526d43616c6c206e6f7420726561647960901b6044820152606401610309565b6108d381611c5e565b6108dc826117b8565b60028054600181018255600091909152815160039091027f405787fa12a823e0f2b7631cc41b3ba8828b3321ca811111fa75cd3aa3bb5ace810180546020808601516001600160401b03908116600160401b026001600160801b031990931695169490941717815560408401517f405787fa12a823e0f2b7631cc41b3ba8828b3321ca811111fa75cd3aa3bb5acf83018054606087015160e01c600160a01b026001600160c01b03199091166001600160a01b039093169290921791909117905560808401518051859492936109d8937f405787fa12a823e0f2b7631cc41b3ba8828b3321ca811111fa75cd3aa3bb5ad09091019201906120e5565b50506040516001600160401b03851681527f93da36b739ea22ddf28197bb5db9fedff0b67776add24314e89ffbf68d5c5dd19150602001610575565b60606001805480602002602001604051908101604052809291908181526020016000905b82821015610b535760008481526020908190206040805160a0810182526003860290920180546001600160401b038082168552600160401b909104169383019390935260018301546001600160a01b03811691830191909152600160a01b900460e01b6001600160e01b0319166060820152600282018054919291608084019190610ac290612744565b80601f0160208091040260200160405190810160405280929190818152602001828054610aee90612744565b8015610b3b5780601f10610b1057610100808354040283529160200191610b3b565b820191906000526020600020905b815481529060010190602001808311610b1e57829003601f168201915b50505050508152505081526020019060010190610a38565b50505050905090565b610b64612169565b6001610b6f8361122e565b81548110610b7f57610b7f61272e565b60009182526020918290206040805160a081018252600390930290910180546001600160401b038082168552600160401b909104169383019390935260018301546001600160a01b038116918301919091526001600160e01b0319600160a01b90910460e01b166060820152600282018054919291608084019190610c0390612744565b80601f0160208091040260200160405190810160405280929190818152602001828054610c2f90612744565b8015610c7c5780601f10610c5157610100808354040283529160200191610c7c565b820191906000526020600020905b815481529060010190602001808311610c5f57829003601f168201915b5050505050815250509050919050565b333014610cdb5760405162461bcd60e51b815260206004820152601e60248201527f4f6e6c792063616c6c61626c65206279207468697320636f6e747261637400006044820152606401610309565b610ce481611c5e565b60405162461bcd60e51b81526020600482015260026024820152614f4b60f01b6044820152606401610309565b60606002805480602002602001604051908101604052809291908181526020016000905b82821015610b535760008481526020908190206040805160a0810182526003860290920180546001600160401b038082168552600160401b909104169383019390935260018301546001600160a01b03811691830191909152600160a01b900460e01b6001600160e01b0319166060820152600282018054919291608084019190610dbf90612744565b80601f0160208091040260200160405190810160405280929190818152602001828054610deb90612744565b8015610e385780601f10610e0d57610100808354040283529160200191610e38565b820191906000526020600020905b815481529060010190602001808311610e1b57829003601f168201915b50505050508152505081526020019060010190610d35565b333014610e9f5760405162461bcd60e51b815260206004820152601b60248201527f4d7573742062652063616c6c6564207669612074696d656c6f636b00000000006044820152606401610309565b6001600160a01b03831660009081526005602090815260408083206001600160e01b0319861684529091529020546001600160401b0316610f1a5760405162461bcd60e51b815260206004820152601560248201527411195b185e481b9bdd08185b1c9958591e481cd95d605a1b6044820152606401610309565b610f25838383611c86565b7f0ab6ee5efcc282565d894a94a53346f04ac1e450def4acc1289b07fead97e1db838383604051610575939291906127e7565b6001546060906000906001600160401b03811115610f7857610f7861248b565b604051908082528060200260200182016040528015610fb157816020015b610f9e612169565b815260200190600190039081610f965790505b5090506000805b60015481101561114757600060018281548110610fd757610fd761272e565b60009182526020918290206040805160a081018252600390930290910180546001600160401b038082168552600160401b909104169383019390935260018301546001600160a01b038116918301919091526001600160e01b0319600160a01b90910460e01b16606082015260028201805491929160808401919061105b90612744565b80601f016020809104026020016040519081016040528092919081815260200182805461108790612744565b80156110d45780601f106110a9576101008083540402835291602001916110d4565b820191906000526020600020905b8154815290600101906020018083116110b757829003601f168201915b5050505050815250509050426110e982611be6565b82602001516110f891906127bc565b6001600160401b03161115611134578084838151811061111a5761111a61272e565b602002602001018190525082806111309061281b565b9350505b508061113f8161281b565b915050610fb8565b506111528282611d27565b9250505090565b6000546001600160a01b031633146111835760405162461bcd60e51b8152600401610309906126f9565b6000611190848484611916565b905061119b81611be6565b6001600160401b0316156111e45760405162461bcd60e51b815260206004820152601060248201526f43616c6c2068617320612064656c617960801b6044820152606401610309565b6111ed81611c5e565b7f9f1ce7b25ba8fbe6cae5a4568e96cb5b88922767d3b8c3704df68ae03fda627184848460405161122093929190612836565b60405180910390a150505050565b6000805b60015481101561128757826001600160401b0316600182815481106112595761125961272e565b60009182526020909120600390910201546001600160401b0316141561127f5792915050565b600101611232565b5060405162461bcd60e51b815260206004820152600e60248201526d10d85b1b081b9bdd08199bdd5b9960921b6044820152606401610309565b6000546001600160a01b031633146112eb5760405162461bcd60e51b8152600401610309906126f9565b6112f56000611dda565b565b6001546060906000906001600160401b038111156113175761131761248b565b60405190808252806020026020018201604052801561135057816020015b61133d612169565b8152602001906001900390816113355790505b5090506000805b600154811015611147576000600182815481106113765761137661272e565b60009182526020918290206040805160a081018252600390930290910180546001600160401b038082168552600160401b909104169383019390935260018301546001600160a01b038116918301919091526001600160e01b0319600160a01b90910460e01b1660608201526002820180549192916080840191906113fa90612744565b80601f016020809104026020016040519081016040528092919081815260200182805461142690612744565b80156114735780601f1061144857610100808354040283529160200191611473565b820191906000526020600020905b81548152906001019060200180831161145657829003601f168201915b50505050508152505090504261148882611be6565b826020015161149791906127bc565b6001600160401b0316116114d257808483815181106114b8576114b861272e565b602002602001018190525082806114ce9061281b565b9350505b50806114dd8161281b565b915050611357565b60006114f86114f383610b5c565b611be6565b92915050565b60606003805480602002602001604051908101604052809291908181526020016000905b82821015610b535760008481526020908190206040805160a0810182526003860290920180546001600160401b038082168552600160401b909104169383019390935260018301546001600160a01b03811691830191909152600160a01b900460e01b6001600160e01b03191660608201526002820180549192916080840191906115ac90612744565b80601f01602080910402602001604051908101604052809291908181526020018280546115d890612744565b80156116255780601f106115fa57610100808354040283529160200191611625565b820191906000526020600020905b81548152906001019060200180831161160857829003601f168201915b50505050508152505081526020019060010190611522565b6000546001600160a01b031633146116675760405162461bcd60e51b8152600401610309906126f9565b6001600160a01b03831660009081526005602090815260408083206001600160e01b0319861684529091529020546001600160401b0316156116df5760405162461bcd60e51b815260206004820152601160248201527011195b185e48185b1c9958591e481cd95d607a1b6044820152606401610309565b6116ea838383611c86565b7f4ffcfcac1b7f176c804709a0ac82e4bb35bdf541fde7dc6b9762b6188dffbbea838383604051610575939291906127e7565b6000546001600160a01b031633146117475760405162461bcd60e51b8152600401610309906126f9565b6001600160a01b0381166117ac5760405162461bcd60e51b815260206004820152602660248201527f4f776e61626c653a206e6577206f776e657220697320746865207a65726f206160448201526564647265737360d01b6064820152608401610309565b6117b581611dda565b50565b600180546117c7908290612876565b815481106117d7576117d761272e565b9060005260206000209060030201600182815481106117f8576117f861272e565b60009182526020909120825460039092020180546001600160401b0392831667ffffffffffffffff1982168117835584546001600160801b031990921617600160401b91829004909316029190911781556001808301805491830180546001600160a01b039093166001600160a01b031984168117825591546001600160c01b0319909316909117600160a01b9283900463ffffffff1690920291909117905560028083018054918301916118ac90612744565b6118b7929190612199565b5090505060018054806118cc576118cc61288d565b60008281526020812060036000199093019283020180546001600160801b03191681556001810180546001600160c01b03191690559061190f6002830182612214565b5050905550565b61191e612169565b6001600160a01b03841661196f5760405162461bcd60e51b815260206004820152601860248201527716995c9bc81859191c995cdcc81b9bdd08185b1b1bddd95960421b6044820152606401610309565b600061197e60048285876128a3565b611987916128cd565b90506119938582611e2a565b6040805160a0810182526004546001600160401b03908116825242166020808301919091526001600160a01b038816828401526001600160e01b0319841660608301528251601f8701829004820281018201909352858352600092608083019188908890819084018382808284376000920191909152505050915250925050505b9392505050565b6040810151803b9081611a8a5760405162461bcd60e51b815260206004820152603160248201527f43616c6c20776f756c6420726576657274207768656e2065786563757465643a604482015270081a5b9d985b1a590818dbdb9d1c9858dd607a1b6064820152608401610309565b604051630c8c832560e21b815230906332320c9490611aad908690600401612478565b600060405180830381600087803b158015611ac757600080fd5b505af1925050508015611ad8575060015b611ba157611ae46128fd565b806308c379a01415611b955750611af9612919565b80611b045750611b97565b604051614f4b60f01b60208201526022016040516020818303038152906040528051906020012081604051602001611b3c91906129a2565b604051602081830303815290604052805190602001201415611b5e5750505050565b80604051602001611b6f91906129be565b60408051601f198184030181529082905262461bcd60e51b825261030991600401612a0d565b505b3d6000803e3d6000fd5b60405162461bcd60e51b8152602060048201526015602482015274115c9c9bdc881d985b1a59185d1a5b99c818d85b1b605a1b6044820152606401610309565b505050565b60408101516060820151600091906001600160e01b03198116630995c27f60e31b1415611c20575050608082015160248101516044909101515b6001600160a01b0390911660009081526005602090815260408083206001600160e01b0319909416835292905220546001600160401b031692915050565b611c82816080015182604001516001600160a01b0316611f2790919063ffffffff16565b5050565b6001600160a01b038316611cd75760405162461bcd60e51b815260206004820152601860248201527716995c9bc81859191c995cdcc81b9bdd08185b1b1bddd95960421b6044820152606401610309565b6001600160a01b0390921660009081526005602090815260408083206001600160e01b031990941683529290522080546001600160401b0390921667ffffffffffffffff19909216919091179055565b60606000826001600160401b03811115611d4357611d4361248b565b604051908082528060200260200182016040528015611d7c57816020015b611d69612169565b815260200190600190039081611d615790505b50905060005b83811015611dd257848181518110611d9c57611d9c61272e565b6020026020010151828281518110611db657611db661272e565b6020026020010181905250611dcb8160010190565b9050611d82565b509392505050565b600080546001600160a01b038381166001600160a01b0319831681178455604051919092169283917f8be0079c531659141344cd1fd0a4f28419497f9722a3daafe3b4186f6b6457e09190a35050565b6001600160a01b038216301415611e3f575050565b60005b600154811015611be157826001600160a01b031660018281548110611e6957611e6961272e565b60009182526020909120600160039092020101546001600160a01b031614611e9057611f1f565b816001600160e01b03191660018281548110611eae57611eae61272e565b6000918252602090912060039091020160010154600160a01b900460e01b6001600160e01b03191614611ee057611f1f565b60405162461bcd60e51b815260206004820152601460248201527343616c6c20616c72656164792070656e64696e6760601b6044820152606401610309565b600101611e42565b6060611a1483836040518060400160405280601e81526020017f416464726573733a206c6f772d6c6576656c2063616c6c206661696c656400008152506060611f738484600085611f7b565b949350505050565b606082471015611fdc5760405162461bcd60e51b815260206004820152602660248201527f416464726573733a20696e73756666696369656e742062616c616e636520666f6044820152651c8818d85b1b60d21b6064820152608401610309565b6001600160a01b0385163b6120335760405162461bcd60e51b815260206004820152601d60248201527f416464726573733a2063616c6c20746f206e6f6e2d636f6e74726163740000006044820152606401610309565b600080866001600160a01b0316858760405161204f91906129a2565b60006040518083038185875af1925050503d806000811461208c576040519150601f19603f3d011682016040523d82523d6000602084013e612091565b606091505b50915091506120a18282866120ac565b979650505050505050565b606083156120bb575081611a14565b8251156120cb5782518084602001fd5b8160405162461bcd60e51b81526004016103099190612a0d565b8280546120f190612744565b90600052602060002090601f0160209004810192826121135760008555612159565b82601f1061212c57805160ff1916838001178555612159565b82800160010185558215612159579182015b8281111561215957825182559160200191906001019061213e565b5061216592915061224a565b5090565b6040805160a081018252600080825260208201819052918101829052606080820192909252608081019190915290565b8280546121a590612744565b90600052602060002090601f0160209004810192826121c75760008555612159565b82601f106121d85780548555612159565b8280016001018555821561215957600052602060002091601f016020900482015b828111156121595782548255916001019190600101906121f9565b50805461222090612744565b6000825580601f10612230575050565b601f0160209004906000526020600020908101906117b591905b5b80821115612165576000815560010161224b565b80356001600160401b038116811461227657600080fd5b919050565b60006020828403121561228d57600080fd5b611a148261225f565b80356001600160a01b038116811461227657600080fd5b60008083601f8401126122bf57600080fd5b5081356001600160401b038111156122d657600080fd5b6020830191508360208285010111156122ee57600080fd5b9250929050565b6000806000806060858703121561230b57600080fd5b61231485612296565b935060208501356001600160401b0381111561232f57600080fd5b61233b878288016122ad565b9094509250506040850135801515811461235457600080fd5b939692955090935050565b60005b8381101561237a578181015183820152602001612362565b83811115612389576000848401525b50505050565b600081518084526123a781602086016020860161235f565b601f01601f19169290920160200192915050565b60006001600160401b038083511684528060208401511660208501525060018060a01b03604083015116604084015263ffffffff60e01b6060830151166060840152608082015160a06080850152611f7360a085018261238f565b6000602080830181845280855180835260408601915060408160051b870101925083870160005b8281101561246b57603f198886030184526124598583516123bb565b9450928501929085019060010161243d565b5092979650505050505050565b602081526000611a1460208301846123bb565b634e487b7160e01b600052604160045260246000fd5b60a081018181106001600160401b03821117156124c0576124c061248b565b60405250565b601f8201601f191681016001600160401b03811182821017156124eb576124eb61248b565b6040525050565b80356001600160e01b03198116811461227657600080fd5b6000602080838503121561251d57600080fd5b82356001600160401b038082111561253457600080fd5b9084019060a0828703121561254857600080fd5b604051612554816124a1565b61255d8361225f565b815261256a84840161225f565b8482015261257a60408401612296565b604082015261258b606084016124f2565b60608201526080830135828111156125a257600080fd5b80840193505086601f8401126125b757600080fd5b8235828111156125c9576125c961248b565b60405192506125e1601f8201601f19168601846124c6565b80835287858286010111156125f557600080fd5b80858501868501376000908301909401939093526080830152509392505050565b60008060006060848603121561262b57600080fd5b61263484612296565b9250612642602085016124f2565b91506126506040850161225f565b90509250925092565b60008060006040848603121561266e57600080fd5b61267784612296565b925060208401356001600160401b0381111561269257600080fd5b61269e868287016122ad565b9497909650939450505050565b600080604083850312156126be57600080fd5b6126c783612296565b91506126d5602084016124f2565b90509250929050565b6000602082840312156126f057600080fd5b611a1482612296565b6020808252818101527f4f776e61626c653a2063616c6c6572206973206e6f7420746865206f776e6572604082015260600190565b634e487b7160e01b600052603260045260246000fd5b600181811c9082168061275857607f821691505b6020821081141561277957634e487b7160e01b600052602260045260246000fd5b50919050565b634e487b7160e01b600052601160045260246000fd5b60006001600160401b03808316818114156127b2576127b261277f565b6001019392505050565b60006001600160401b038083168185168083038211156127de576127de61277f565b01949350505050565b6001600160a01b039390931683526001600160e01b03199190911660208301526001600160401b0316604082015260600190565b600060001982141561282f5761282f61277f565b5060010190565b6001600160a01b03841681526040602082018190528101829052818360608301376000818301606090810191909152601f909201601f1916010192915050565b6000828210156128885761288861277f565b500390565b634e487b7160e01b600052603160045260246000fd5b600080858511156128b357600080fd5b838611156128c057600080fd5b5050820193919092039150565b6001600160e01b031981358181169160048510156128f55780818660040360031b1b83161692505b505092915050565b600060033d11156129165760046000803e5060005160e01c5b90565b600060443d10156129275790565b6040516003193d81016004833e81513d6001600160401b03816024840111818411171561295657505050505090565b828501915081518181111561296e5750505050505090565b843d87010160208285010111156129885750505050505090565b612997602082860101876124c6565b509095945050505050565b600082516129b481846020870161235f565b9190910192915050565b7f43616c6c20776f756c6420726576657274207768656e2065786563757465643a8152600160fd1b602082015260008251612a0081602185016020870161235f565b9190910160210192915050565b602081526000611a14602083018461238f56fea2646970667358221220a5c60ea9e017ac8a5d01f46838d1996cc859514f59e7a7b0fa032d845b5ad77064736f6c634300080a0033","bytecodeSha1":"ac4e0f2e2286c7b3250995b323df14beb73c5d80","compiler":{"evm_version":"london","optimizer":{"enabled":true,"runs":200},"version":"0.8.10+commit.fc410830"},"contractName":"GovernanceTimelock","language":"Solidity","natspec":{"kind":"dev","methods":{"cancelCall(uint64)":{"notice":"Cancels a call.","params":{"id_":"The id of the call to cancel."}},"cancelledCalls()":{"notice":"Returns the list of cancelled calls.","returns":{"calls":"The list of cancelled calls."}},"executeCall(uint64)":{"notice":"Executes a call.","params":{"id_":"The id of the call to execute."}},"executedCalls()":{"notice":"Returns the list of executed calls.","returns":{"calls":"The list of executed calls."}},"notReadyCalls()":{"details":"View is expensive, best to only call for off-chain use.","notice":"Returns the list of not-ready calls.","returns":{"calls":"The list of not-ready calls."}},"owner()":{"details":"Returns the address of the current owner."},"pendingCall(uint64)":{"notice":"Returns the call of a given pending call id.","params":{"id_":"The id of the pending call to return the call for."},"returns":{"call":"The call of the given pending call id."}},"pendingCallDelay(uint64)":{"notice":"Returns the delay of a given pending call id.","params":{"id_":"The id of the pending call to return the delay for."},"returns":{"_0":"call The delay of the given pending call id."}},"pendingCallIndex(uint64)":{"notice":"Returns the index of a given pending call id.","params":{"id_":"The id of the pending call to return the index for."},"returns":{"index":"The index of the given pending call id."}},"pendingCalls()":{"notice":"Returns the list of pending calls.","returns":{"calls":"The list of pending calls."}},"prepareCall(address,bytes,bool)":{"notice":"Prepares a call for being executed.","params":{"data_":"The data for the call.","target_":"The contract to call.","validateCall_":"If the call should be validated (i.e. checks if it will revert when executing)."}},"quickExecuteCall(address,bytes)":{"notice":"Executes a call without a delay.","params":{"data_":"The data for the call.","target_":"The contract to call."}},"readyCalls()":{"details":"View is expensive, best to only call for off-chain use.","notice":"Returns the list of ready calls.","returns":{"calls":"The list of ready calls."}},"renounceOwnership()":{"details":"Leaves the contract without owner. It will not be possible to call `onlyOwner` functions anymore. Can only be called by the current owner. NOTE: Renouncing ownership will leave the contract without an owner, thereby removing any functionality that is only available to the owner."},"setDelay(address,bytes4,uint64)":{"notice":"Sets the delay for a given target and selector.","params":{"delay_":"The delay to set.","selector_":"The selector to set the delay for.","target_":"The contract to set the delay for."}},"testCall((uint64,uint64,address,bytes4,bytes))":{"details":"Can only be called internally, do not use.","notice":"Used for validating if a call is valid."},"transferOwnership(address)":{"details":"Transfers ownership of the contract to a new account (`newOwner`). Can only be called by the current owner."},"updateDelay(address,bytes4,uint64)":{"notice":"Updates the delay for a given target and selector.","params":{"delay_":"The delay to update.","selector_":"The selector to update the delay for.","target_":"The contract to update the delay for."}}},"version":1},"opcodes":"PUSH1 0x80 PUSH1 0x40 MSTORE CALLVALUE DUP1 ISZERO PUSH2 0x10 JUMPI PUSH1 0x0 DUP1 REVERT JUMPDEST POP PUSH1 0x4 CALLDATASIZE LT PUSH2 0x12C JUMPI PUSH1 0x0 CALLDATALOAD PUSH1 0xE0 SHR DUP1 PUSH4 0x578BA4A5 GT PUSH2 0xAD JUMPI DUP1 PUSH4 0x8DA5CB5B GT PUSH2 0x71 JUMPI DUP1 PUSH4 0x8DA5CB5B EQ PUSH2 0x283 JUMPI DUP1 PUSH4 0xC95072C1 EQ PUSH2 0x29E JUMPI DUP1 PUSH4 0xDF9876F4 EQ PUSH2 0x2B1 JUMPI DUP1 PUSH4 0xF2624DF8 EQ PUSH2 0x2B9 JUMPI DUP1 PUSH4 0xF2FDE38B EQ PUSH2 0x2CC JUMPI PUSH1 0x0 DUP1 REVERT JUMPDEST DUP1 PUSH4 0x578BA4A5 EQ PUSH2 0x20B JUMPI DUP1 PUSH4 0x653622F3 EQ PUSH2 0x21E JUMPI DUP1 PUSH4 0x715018A6 EQ PUSH2 0x23F JUMPI DUP1 PUSH4 0x768A9D24 EQ PUSH2 0x247 JUMPI DUP1 PUSH4 0x7A0F38B2 EQ PUSH2 0x27B JUMPI PUSH1 0x0 DUP1 REVERT JUMPDEST DUP1 PUSH4 0x32320C94 GT PUSH2 0xF4 JUMPI DUP1 PUSH4 0x32320C94 EQ PUSH2 0x1AA JUMPI DUP1 PUSH4 0x37D66D48 EQ PUSH2 0x1BD JUMPI DUP1 PUSH4 0x3AF3F24F EQ PUSH2 0x1C5 JUMPI DUP1 PUSH4 0x4CAE13F8 EQ PUSH2 0x1F0 JUMPI DUP1 PUSH4 0x4FC5EB29 EQ PUSH2 0x203 JUMPI PUSH1 0x0 DUP1 REVERT JUMPDEST DUP1 PUSH4 0x47FFBE3 EQ PUSH2 0x131 JUMPI DUP1 PUSH4 0x16C2CD44 EQ PUSH2 0x146 JUMPI DUP1 PUSH4 0x1BB2C90F EQ PUSH2 0x159 JUMPI DUP1 PUSH4 0x28255BD9 EQ PUSH2 0x16C JUMPI DUP1 PUSH4 0x31261EDB EQ PUSH2 0x18A JUMPI JUMPDEST PUSH1 0x0 DUP1 REVERT JUMPDEST PUSH2 0x144 PUSH2 0x13F CALLDATASIZE PUSH1 0x4 PUSH2 0x227B JUMP JUMPDEST PUSH2 0x2DF JUMP JUMPDEST STOP JUMPDEST PUSH2 0x144 PUSH2 0x154 CALLDATASIZE PUSH1 0x4 PUSH2 0x22F5 JUMP JUMPDEST PUSH2 0x582 JUMP JUMPDEST PUSH2 0x144 PUSH2 0x167 CALLDATASIZE PUSH1 0x4 PUSH2 0x227B JUMP JUMPDEST PUSH2 0x73F JUMP JUMPDEST PUSH2 0x174 PUSH2 0xA14 JUMP JUMPDEST PUSH1 0x40 MLOAD PUSH2 0x181 SWAP2 SWAP1 PUSH2 0x2416 JUMP JUMPDEST PUSH1 0x40 MLOAD DUP1 SWAP2 SUB SWAP1 RETURN JUMPDEST PUSH2 0x19D PUSH2 0x198 CALLDATASIZE PUSH1 0x4 PUSH2 0x227B JUMP JUMPDEST PUSH2 0xB5C JUMP JUMPDEST PUSH1 0x40 MLOAD PUSH2 0x181 SWAP2 SWAP1 PUSH2 0x2478 JUMP JUMPDEST PUSH2 0x144 PUSH2 0x1B8 CALLDATASIZE PUSH1 0x4 PUSH2 0x250A JUMP JUMPDEST PUSH2 0xC8C JUMP JUMPDEST PUSH2 0x174 PUSH2 0xD11 JUMP JUMPDEST PUSH1 0x4 SLOAD PUSH2 0x1D8 SWAP1 PUSH1 0x1 PUSH1 0x1 PUSH1 0x40 SHL SUB AND DUP2 JUMP JUMPDEST PUSH1 0x40 MLOAD PUSH1 0x1 PUSH1 0x1 PUSH1 0x40 SHL SUB SWAP1 SWAP2 AND DUP2 MSTORE PUSH1 0x20 ADD PUSH2 0x181 JUMP JUMPDEST PUSH2 0x144 PUSH2 0x1FE CALLDATASIZE PUSH1 0x4 PUSH2 0x2616 JUMP JUMPDEST PUSH2 0xE50 JUMP JUMPDEST PUSH2 0x174 PUSH2 0xF58 JUMP JUMPDEST PUSH2 0x144 PUSH2 0x219 CALLDATASIZE PUSH1 0x4 PUSH2 0x2659 JUMP JUMPDEST PUSH2 0x1159 JUMP JUMPDEST PUSH2 0x231 PUSH2 0x22C CALLDATASIZE PUSH1 0x4 PUSH2 0x227B JUMP JUMPDEST PUSH2 0x122E JUMP JUMPDEST PUSH1 0x40 MLOAD SWAP1 DUP2 MSTORE PUSH1 0x20 ADD PUSH2 0x181 JUMP JUMPDEST PUSH2 0x144 PUSH2 0x12C1 JUMP JUMPDEST PUSH2 0x1D8 PUSH2 0x255 CALLDATASIZE PUSH1 0x4 PUSH2 0x26AB JUMP JUMPDEST PUSH1 0x5 PUSH1 0x20 SWAP1 DUP2 MSTORE PUSH1 0x0 SWAP3 DUP4 MSTORE PUSH1 0x40 DUP1 DUP5 KECCAK256 SWAP1 SWAP2 MSTORE SWAP1 DUP3 MSTORE SWAP1 KECCAK256 SLOAD PUSH1 0x1 PUSH1 0x1 PUSH1 0x40 SHL SUB AND DUP2 JUMP JUMPDEST PUSH2 0x174 PUSH2 0x12F7 JUMP JUMPDEST PUSH1 0x0 SLOAD PUSH1 0x40 MLOAD PUSH1 0x1 PUSH1 0x1 PUSH1 0xA0 SHL SUB SWAP1 SWAP2 AND DUP2 MSTORE PUSH1 0x20 ADD PUSH2 0x181 JUMP JUMPDEST PUSH2 0x1D8 PUSH2 0x2AC CALLDATASIZE PUSH1 0x4 PUSH2 0x227B JUMP JUMPDEST PUSH2 0x14E5 JUMP JUMPDEST PUSH2 0x174 PUSH2 0x14FE JUMP JUMPDEST PUSH2 0x144 PUSH2 0x2C7 CALLDATASIZE PUSH1 0x4 PUSH2 0x2616 JUMP JUMPDEST PUSH2 0x163D JUMP JUMPDEST PUSH2 0x144 PUSH2 0x2DA CALLDATASIZE PUSH1 0x4 PUSH2 0x26DE JUMP JUMPDEST PUSH2 0x171D JUMP JUMPDEST PUSH1 0x0 SLOAD PUSH1 0x1 PUSH1 0x1 PUSH1 0xA0 SHL SUB AND CALLER EQ PUSH2 0x312 JUMPI PUSH1 0x40 MLOAD PUSH3 0x461BCD PUSH1 0xE5 SHL DUP2 MSTORE PUSH1 0x4 ADD PUSH2 0x309 SWAP1 PUSH2 0x26F9 JUMP JUMPDEST PUSH1 0x40 MLOAD DUP1 SWAP2 SUB SWAP1 REVERT JUMPDEST PUSH1 0x0 PUSH2 0x31D DUP3 PUSH2 0x122E JUMP JUMPDEST SWAP1 POP PUSH1 0x0 PUSH1 0x1 DUP3 DUP2 SLOAD DUP2 LT PUSH2 0x334 JUMPI PUSH2 0x334 PUSH2 0x272E JUMP JUMPDEST PUSH1 0x0 SWAP2 DUP3 MSTORE PUSH1 0x20 SWAP2 DUP3 SWAP1 KECCAK256 PUSH1 0x40 DUP1 MLOAD PUSH1 0xA0 DUP2 ADD DUP3 MSTORE PUSH1 0x3 SWAP1 SWAP4 MUL SWAP1 SWAP2 ADD DUP1 SLOAD PUSH1 0x1 PUSH1 0x1 PUSH1 0x40 SHL SUB DUP1 DUP3 AND DUP6 MSTORE PUSH1 0x1 PUSH1 0x40 SHL SWAP1 SWAP2 DIV AND SWAP4 DUP4 ADD SWAP4 SWAP1 SWAP4 MSTORE PUSH1 0x1 DUP4 ADD SLOAD PUSH1 0x1 PUSH1 0x1 PUSH1 0xA0 SHL SUB DUP2 AND SWAP2 DUP4 ADD SWAP2 SWAP1 SWAP2 MSTORE PUSH1 0x1 PUSH1 0x1 PUSH1 0xE0 SHL SUB NOT PUSH1 0x1 PUSH1 0xA0 SHL SWAP1 SWAP2 DIV PUSH1 0xE0 SHL AND PUSH1 0x60 DUP3 ADD MSTORE PUSH1 0x2 DUP3 ADD DUP1 SLOAD SWAP2 SWAP3 SWAP2 PUSH1 0x80 DUP5 ADD SWAP2 SWAP1 PUSH2 0x3B8 SWAP1 PUSH2 0x2744 JUMP JUMPDEST DUP1 PUSH1 0x1F ADD PUSH1 0x20 DUP1 SWAP2 DIV MUL PUSH1 0x20 ADD PUSH1 0x40 MLOAD SWAP1 DUP2 ADD PUSH1 0x40 MSTORE DUP1 SWAP3 SWAP2 SWAP1 DUP2 DUP2 MSTORE PUSH1 0x20 ADD DUP3 DUP1 SLOAD PUSH2 0x3E4 SWAP1 PUSH2 0x2744 JUMP JUMPDEST DUP1 ISZERO PUSH2 0x431 JUMPI DUP1 PUSH1 0x1F LT PUSH2 0x406 JUMPI PUSH2 0x100 DUP1 DUP4 SLOAD DIV MUL DUP4 MSTORE SWAP2 PUSH1 0x20 ADD SWAP2 PUSH2 0x431 JUMP JUMPDEST DUP3 ADD SWAP2 SWAP1 PUSH1 0x0 MSTORE PUSH1 0x20 PUSH1 0x0 KECCAK256 SWAP1 JUMPDEST DUP2 SLOAD DUP2 MSTORE SWAP1 PUSH1 0x1 ADD SWAP1 PUSH1 0x20 ADD DUP1 DUP4 GT PUSH2 0x414 JUMPI DUP3 SWAP1 SUB PUSH1 0x1F AND DUP3 ADD SWAP2 JUMPDEST POP POP POP POP POP DUP2 MSTORE POP POP SWAP1 POP PUSH2 0x445 DUP3 PUSH2 0x17B8 JUMP JUMPDEST PUSH1 0x3 DUP1 SLOAD PUSH1 0x1 DUP2 ADD DUP3 SSTORE PUSH1 0x0 DUP3 SWAP1 MSTORE DUP3 MLOAD SWAP2 MUL PUSH32 0xC2575A0E9E593C00F959F8C92F12DB2869C3395A3B0502D05E2516446F71F85B DUP2 ADD DUP1 SLOAD PUSH1 0x20 DUP1 DUP7 ADD MLOAD PUSH1 0x1 PUSH1 0x1 PUSH1 0x40 SHL SUB SWAP1 DUP2 AND PUSH1 0x1 PUSH1 0x40 SHL MUL PUSH1 0x1 PUSH1 0x1 PUSH1 0x80 SHL SUB NOT SWAP1 SWAP4 AND SWAP6 AND SWAP5 SWAP1 SWAP5 OR OR DUP2 SSTORE PUSH1 0x40 DUP5 ADD MLOAD PUSH32 0xC2575A0E9E593C00F959F8C92F12DB2869C3395A3B0502D05E2516446F71F85C DUP4 ADD DUP1 SLOAD PUSH1 0x60 DUP8 ADD MLOAD PUSH1 0xE0 SHR PUSH1 0x1 PUSH1 0xA0 SHL MUL PUSH1 0x1 PUSH1 0x1 PUSH1 0xC0 SHL SUB NOT SWAP1 SWAP2 AND PUSH1 0x1 PUSH1 0x1 PUSH1 0xA0 SHL SUB SWAP1 SWAP4 AND SWAP3 SWAP1 SWAP3 OR SWAP2 SWAP1 SWAP2 OR SWAP1 SSTORE PUSH1 0x80 DUP5 ADD MLOAD DUP1 MLOAD DUP6 SWAP5 SWAP3 SWAP4 PUSH2 0x53D SWAP4 PUSH32 0xC2575A0E9E593C00F959F8C92F12DB2869C3395A3B0502D05E2516446F71F85D SWAP1 SWAP2 ADD SWAP3 ADD SWAP1 PUSH2 0x20E5 JUMP JUMPDEST POP POP PUSH1 0x40 MLOAD PUSH1 0x1 PUSH1 0x1 PUSH1 0x40 SHL SUB DUP6 AND DUP2 MSTORE PUSH32 0xAE59609C1C7C439087C68A574C883870E64532D4A37B7EE2D379FC7F65D07EF3 SWAP2 POP PUSH1 0x20 ADD JUMPDEST PUSH1 0x40 MLOAD DUP1 SWAP2 SUB SWAP1 LOG1 POP POP POP JUMP JUMPDEST PUSH1 0x0 SLOAD PUSH1 0x1 PUSH1 0x1 PUSH1 0xA0 SHL SUB AND CALLER EQ PUSH2 0x5AC JUMPI PUSH1 0x40 MLOAD PUSH3 0x461BCD PUSH1 0xE5 SHL DUP2 MSTORE PUSH1 0x4 ADD PUSH2 0x309 SWAP1 PUSH2 0x26F9 JUMP JUMPDEST PUSH1 0x0 PUSH2 0x5B9 DUP6 DUP6 DUP6 PUSH2 0x1916 JUMP JUMPDEST SWAP1 POP DUP2 ISZERO PUSH2 0x5CA JUMPI PUSH2 0x5CA DUP2 PUSH2 0x1A1B JUMP JUMPDEST PUSH1 0x1 DUP1 SLOAD DUP1 DUP3 ADD DUP3 SSTORE PUSH1 0x0 SWAP2 SWAP1 SWAP2 MSTORE DUP2 MLOAD PUSH1 0x3 SWAP1 SWAP2 MUL PUSH32 0xB10E2D527612073B26EECDFD717E6A320CF44B4AFAC2B0732D9FCBE2B7FA0CF6 DUP2 ADD DUP1 SLOAD PUSH1 0x20 DUP1 DUP7 ADD MLOAD PUSH1 0x1 PUSH1 0x1 PUSH1 0x40 SHL SUB SWAP1 DUP2 AND PUSH1 0x1 PUSH1 0x40 SHL MUL PUSH1 0x1 PUSH1 0x1 PUSH1 0x80 SHL SUB NOT SWAP1 SWAP4 AND SWAP6 AND SWAP5 SWAP1 SWAP5 OR OR DUP2 SSTORE PUSH1 0x40 DUP5 ADD MLOAD PUSH32 0xB10E2D527612073B26EECDFD717E6A320CF44B4AFAC2B0732D9FCBE2B7FA0CF7 DUP4 ADD DUP1 SLOAD PUSH1 0x60 DUP8 ADD MLOAD PUSH1 0xE0 SHR PUSH1 0x1 PUSH1 0xA0 SHL MUL PUSH1 0x1 PUSH1 0x1 PUSH1 0xC0 SHL SUB NOT SWAP1 SWAP2 AND PUSH1 0x1 PUSH1 0x1 PUSH1 0xA0 SHL SUB SWAP1 SWAP4 AND SWAP3 SWAP1 SWAP3 OR SWAP2 SWAP1 SWAP2 OR SWAP1 SSTORE PUSH1 0x80 DUP5 ADD MLOAD DUP1 MLOAD DUP6 SWAP5 SWAP3 SWAP4 PUSH2 0x6C5 SWAP4 PUSH32 0xB10E2D527612073B26EECDFD717E6A320CF44B4AFAC2B0732D9FCBE2B7FA0CF8 SWAP1 SWAP2 ADD SWAP3 ADD SWAP1 PUSH2 0x20E5 JUMP JUMPDEST POP POP PUSH1 0x4 DUP1 SLOAD PUSH1 0x1 PUSH1 0x1 PUSH1 0x40 SHL SUB AND SWAP2 POP PUSH1 0x0 PUSH2 0x6E1 DUP4 PUSH2 0x2795 JUMP JUMPDEST DUP3 SLOAD PUSH2 0x100 SWAP3 SWAP1 SWAP3 EXP PUSH1 0x1 PUSH1 0x1 PUSH1 0x40 SHL SUB DUP2 DUP2 MUL NOT SWAP1 SWAP4 AND SWAP2 DUP4 AND MUL OR SWAP1 SWAP2 SSTORE DUP3 MLOAD PUSH1 0x40 MLOAD SWAP2 AND DUP2 MSTORE PUSH32 0x1662AE77582FE66D2FEBBC159985DE60E43844CEC428F3E2F00C3C2011371F2 SWAP2 POP PUSH1 0x20 ADD PUSH1 0x40 MLOAD DUP1 SWAP2 SUB SWAP1 LOG1 POP POP POP POP POP JUMP JUMPDEST PUSH1 0x0 PUSH2 0x74A DUP3 PUSH2 0x122E JUMP JUMPDEST SWAP1 POP PUSH1 0x0 PUSH1 0x1 DUP3 DUP2 SLOAD DUP2 LT PUSH2 0x761 JUMPI PUSH2 0x761 PUSH2 0x272E JUMP JUMPDEST PUSH1 0x0 SWAP2 DUP3 MSTORE PUSH1 0x20 SWAP2 DUP3 SWAP1 KECCAK256 PUSH1 0x40 DUP1 MLOAD PUSH1 0xA0 DUP2 ADD DUP3 MSTORE PUSH1 0x3 SWAP1 SWAP4 MUL SWAP1 SWAP2 ADD DUP1 SLOAD PUSH1 0x1 PUSH1 0x1 PUSH1 0x40 SHL SUB DUP1 DUP3 AND DUP6 MSTORE PUSH1 0x1 PUSH1 0x40 SHL SWAP1 SWAP2 DIV AND SWAP4 DUP4 ADD SWAP4 SWAP1 SWAP4 MSTORE PUSH1 0x1 DUP4 ADD SLOAD PUSH1 0x1 PUSH1 0x1 PUSH1 0xA0 SHL SUB DUP2 AND SWAP2 DUP4 ADD SWAP2 SWAP1 SWAP2 MSTORE PUSH1 0x1 PUSH1 0x1 PUSH1 0xE0 SHL SUB NOT PUSH1 0x1 PUSH1 0xA0 SHL SWAP1 SWAP2 DIV PUSH1 0xE0 SHL AND PUSH1 0x60 DUP3 ADD MSTORE PUSH1 0x2 DUP3 ADD DUP1 SLOAD SWAP2 SWAP3 SWAP2 PUSH1 0x80 DUP5 ADD SWAP2 SWAP1 PUSH2 0x7E5 SWAP1 PUSH2 0x2744 JUMP JUMPDEST DUP1 PUSH1 0x1F ADD PUSH1 0x20 DUP1 SWAP2 DIV MUL PUSH1 0x20 ADD PUSH1 0x40 MLOAD SWAP1 DUP2 ADD PUSH1 0x40 MSTORE DUP1 SWAP3 SWAP2 SWAP1 DUP2 DUP2 MSTORE PUSH1 0x20 ADD DUP3 DUP1 SLOAD PUSH2 0x811 SWAP1 PUSH2 0x2744 JUMP JUMPDEST DUP1 ISZERO PUSH2 0x85E JUMPI DUP1 PUSH1 0x1F LT PUSH2 0x833 JUMPI PUSH2 0x100 DUP1 DUP4 SLOAD DIV MUL DUP4 MSTORE SWAP2 PUSH1 0x20 ADD SWAP2 PUSH2 0x85E JUMP JUMPDEST DUP3 ADD SWAP2 SWAP1 PUSH1 0x0 MSTORE PUSH1 0x20 PUSH1 0x0 KECCAK256 SWAP1 JUMPDEST DUP2 SLOAD DUP2 MSTORE SWAP1 PUSH1 0x1 ADD SWAP1 PUSH1 0x20 ADD DUP1 DUP4 GT PUSH2 0x841 JUMPI DUP3 SWAP1 SUB PUSH1 0x1F AND DUP3 ADD SWAP2 JUMPDEST POP POP POP POP POP DUP2 MSTORE POP POP SWAP1 POP TIMESTAMP PUSH2 0x873 DUP3 PUSH2 0x1BE6 JUMP JUMPDEST DUP3 PUSH1 0x20 ADD MLOAD PUSH2 0x882 SWAP2 SWAP1 PUSH2 0x27BC JUMP JUMPDEST PUSH1 0x1 PUSH1 0x1 PUSH1 0x40 SHL SUB AND GT ISZERO PUSH2 0x8CA JUMPI PUSH1 0x40 MLOAD PUSH3 0x461BCD PUSH1 0xE5 SHL DUP2 MSTORE PUSH1 0x20 PUSH1 0x4 DUP3 ADD MSTORE PUSH1 0xE PUSH1 0x24 DUP3 ADD MSTORE PUSH14 0x43616C6C206E6F74207265616479 PUSH1 0x90 SHL PUSH1 0x44 DUP3 ADD MSTORE PUSH1 0x64 ADD PUSH2 0x309 JUMP JUMPDEST PUSH2 0x8D3 DUP2 PUSH2 0x1C5E JUMP JUMPDEST PUSH2 0x8DC DUP3 PUSH2 0x17B8 JUMP JUMPDEST PUSH1 0x2 DUP1 SLOAD PUSH1 0x1 DUP2 ADD DUP3 SSTORE PUSH1 0x0 SWAP2 SWAP1 SWAP2 MSTORE DUP2 MLOAD PUSH1 0x3 SWAP1 SWAP2 MUL PUSH32 0x405787FA12A823E0F2B7631CC41B3BA8828B3321CA811111FA75CD3AA3BB5ACE DUP2 ADD DUP1 SLOAD PUSH1 0x20 DUP1 DUP7 ADD MLOAD PUSH1 0x1 PUSH1 0x1 PUSH1 0x40 SHL SUB SWAP1 DUP2 AND PUSH1 0x1 PUSH1 0x40 SHL MUL PUSH1 0x1 PUSH1 0x1 PUSH1 0x80 SHL SUB NOT SWAP1 SWAP4 AND SWAP6 AND SWAP5 SWAP1 SWAP5 OR OR DUP2 SSTORE PUSH1 0x40 DUP5 ADD MLOAD PUSH32 0x405787FA12A823E0F2B7631CC41B3BA8828B3321CA811111FA75CD3AA3BB5ACF DUP4 ADD DUP1 SLOAD PUSH1 0x60 DUP8 ADD MLOAD PUSH1 0xE0 SHR PUSH1 0x1 PUSH1 0xA0 SHL MUL PUSH1 0x1 PUSH1 0x1 PUSH1 0xC0 SHL SUB NOT SWAP1 SWAP2 AND PUSH1 0x1 PUSH1 0x1 PUSH1 0xA0 SHL SUB SWAP1 SWAP4 AND SWAP3 SWAP1 SWAP3 OR SWAP2 SWAP1 SWAP2 OR SWAP1 SSTORE PUSH1 0x80 DUP5 ADD MLOAD DUP1 MLOAD DUP6 SWAP5 SWAP3 SWAP4 PUSH2 0x9D8 SWAP4 PUSH32 0x405787FA12A823E0F2B7631CC41B3BA8828B3321CA811111FA75CD3AA3BB5AD0 SWAP1 SWAP2 ADD SWAP3 ADD SWAP1 PUSH2 0x20E5 JUMP JUMPDEST POP POP PUSH1 0x40 MLOAD PUSH1 0x1 PUSH1 0x1 PUSH1 0x40 SHL SUB DUP6 AND DUP2 MSTORE PUSH32 0x93DA36B739EA22DDF28197BB5DB9FEDFF0B67776ADD24314E89FFBF68D5C5DD1 SWAP2 POP PUSH1 0x20 ADD PUSH2 0x575 JUMP JUMPDEST PUSH1 0x60 PUSH1 0x1 DUP1 SLOAD DUP1 PUSH1 0x20 MUL PUSH1 0x20 ADD PUSH1 0x40 MLOAD SWAP1 DUP2 ADD PUSH1 0x40 MSTORE DUP1 SWAP3 SWAP2 SWAP1 DUP2 DUP2 MSTORE PUSH1 0x20 ADD PUSH1 0x0 SWAP1 JUMPDEST DUP3 DUP3 LT ISZERO PUSH2 0xB53 JUMPI PUSH1 0x0 DUP5 DUP2 MSTORE PUSH1 0x20 SWAP1 DUP2 SWAP1 KECCAK256 PUSH1 0x40 DUP1 MLOAD PUSH1 0xA0 DUP2 ADD DUP3 MSTORE PUSH1 0x3 DUP7 MUL SWAP1 SWAP3 ADD DUP1 SLOAD PUSH1 0x1 PUSH1 0x1 PUSH1 0x40 SHL SUB DUP1 DUP3 AND DUP6 MSTORE PUSH1 0x1 PUSH1 0x40 SHL SWAP1 SWAP2 DIV AND SWAP4 DUP4 ADD SWAP4 SWAP1 SWAP4 MSTORE PUSH1 0x1 DUP4 ADD SLOAD PUSH1 0x1 PUSH1 0x1 PUSH1 0xA0 SHL SUB DUP2 AND SWAP2 DUP4 ADD SWAP2 SWAP1 SWAP2 MSTORE PUSH1 0x1 PUSH1 0xA0 SHL SWAP1 DIV PUSH1 0xE0 SHL PUSH1 0x1 PUSH1 0x1 PUSH1 0xE0 SHL SUB NOT AND PUSH1 0x60 DUP3 ADD MSTORE PUSH1 0x2 DUP3 ADD DUP1 SLOAD SWAP2 SWAP3 SWAP2 PUSH1 0x80 DUP5 ADD SWAP2 SWAP1 PUSH2 0xAC2 SWAP1 PUSH2 0x2744 JUMP JUMPDEST DUP1 PUSH1 0x1F ADD PUSH1 0x20 DUP1 SWAP2 DIV MUL PUSH1 0x20 ADD PUSH1 0x40 MLOAD SWAP1 DUP2 ADD PUSH1 0x40 MSTORE DUP1 SWAP3 SWAP2 SWAP1 DUP2 DUP2 MSTORE PUSH1 0x20 ADD DUP3 DUP1 SLOAD PUSH2 0xAEE SWAP1 PUSH2 0x2744 JUMP JUMPDEST DUP1 ISZERO PUSH2 0xB3B JUMPI DUP1 PUSH1 0x1F LT PUSH2 0xB10 JUMPI PUSH2 0x100 DUP1 DUP4 SLOAD DIV MUL DUP4 MSTORE SWAP2 PUSH1 0x20 ADD SWAP2 PUSH2 0xB3B JUMP JUMPDEST DUP3 ADD SWAP2 SWAP1 PUSH1 0x0 MSTORE PUSH1 0x20 PUSH1 0x0 KECCAK256 SWAP1 JUMPDEST DUP2 SLOAD DUP2 MSTORE SWAP1 PUSH1 0x1 ADD SWAP1 PUSH1 0x20 ADD DUP1 DUP4 GT PUSH2 0xB1E JUMPI DUP3 SWAP1 SUB PUSH1 0x1F AND DUP3 ADD SWAP2 JUMPDEST POP POP POP POP POP DUP2 MSTORE POP POP DUP2 MSTORE PUSH1 0x20 ADD SWAP1 PUSH1 0x1 ADD SWAP1 PUSH2 0xA38 JUMP JUMPDEST POP POP POP POP SWAP1 POP SWAP1 JUMP JUMPDEST PUSH2 0xB64 PUSH2 0x2169 JUMP JUMPDEST PUSH1 0x1 PUSH2 0xB6F DUP4 PUSH2 0x122E JUMP JUMPDEST DUP2 SLOAD DUP2 LT PUSH2 0xB7F JUMPI PUSH2 0xB7F PUSH2 0x272E JUMP JUMPDEST PUSH1 0x0 SWAP2 DUP3 MSTORE PUSH1 0x20 SWAP2 DUP3 SWAP1 KECCAK256 PUSH1 0x40 DUP1 MLOAD PUSH1 0xA0 DUP2 ADD DUP3 MSTORE PUSH1 0x3 SWAP1 SWAP4 MUL SWAP1 SWAP2 ADD DUP1 SLOAD PUSH1 0x1 PUSH1 0x1 PUSH1 0x40 SHL SUB DUP1 DUP3 AND DUP6 MSTORE PUSH1 0x1 PUSH1 0x40 SHL SWAP1 SWAP2 DIV AND SWAP4 DUP4 ADD SWAP4 SWAP1 SWAP4 MSTORE PUSH1 0x1 DUP4 ADD SLOAD PUSH1 0x1 PUSH1 0x1 PUSH1 0xA0 SHL SUB DUP2 AND SWAP2 DUP4 ADD SWAP2 SWAP1 SWAP2 MSTORE PUSH1 0x1 PUSH1 0x1 PUSH1 0xE0 SHL SUB NOT PUSH1 0x1 PUSH1 0xA0 SHL SWAP1 SWAP2 DIV PUSH1 0xE0 SHL AND PUSH1 0x60 DUP3 ADD MSTORE PUSH1 0x2 DUP3 ADD DUP1 SLOAD SWAP2 SWAP3 SWAP2 PUSH1 0x80 DUP5 ADD SWAP2 SWAP1 PUSH2 0xC03 SWAP1 PUSH2 0x2744 JUMP JUMPDEST DUP1 PUSH1 0x1F ADD PUSH1 0x20 DUP1 SWAP2 DIV MUL PUSH1 0x20 ADD PUSH1 0x40 MLOAD SWAP1 DUP2 ADD PUSH1 0x40 MSTORE DUP1 SWAP3 SWAP2 SWAP1 DUP2 DUP2 MSTORE PUSH1 0x20 ADD DUP3 DUP1 SLOAD PUSH2 0xC2F SWAP1 PUSH2 0x2744 JUMP JUMPDEST DUP1 ISZERO PUSH2 0xC7C JUMPI DUP1 PUSH1 0x1F LT PUSH2 0xC51 JUMPI PUSH2 0x100 DUP1 DUP4 SLOAD DIV MUL DUP4 MSTORE SWAP2 PUSH1 0x20 ADD SWAP2 PUSH2 0xC7C JUMP JUMPDEST DUP3 ADD SWAP2 SWAP1 PUSH1 0x0 MSTORE PUSH1 0x20 PUSH1 0x0 KECCAK256 SWAP1 JUMPDEST DUP2 SLOAD DUP2 MSTORE SWAP1 PUSH1 0x1 ADD SWAP1 PUSH1 0x20 ADD DUP1 DUP4 GT PUSH2 0xC5F JUMPI DUP3 SWAP1 SUB PUSH1 0x1F AND DUP3 ADD SWAP2 JUMPDEST POP POP POP POP POP DUP2 MSTORE POP POP SWAP1 POP SWAP2 SWAP1 POP JUMP JUMPDEST CALLER ADDRESS EQ PUSH2 0xCDB JUMPI PUSH1 0x40 MLOAD PUSH3 0x461BCD PUSH1 0xE5 SHL DUP2 MSTORE PUSH1 0x20 PUSH1 0x4 DUP3 ADD MSTORE PUSH1 0x1E PUSH1 0x24 DUP3 ADD MSTORE PUSH32 0x4F6E6C792063616C6C61626C65206279207468697320636F6E74726163740000 PUSH1 0x44 DUP3 ADD MSTORE PUSH1 0x64 ADD PUSH2 0x309 JUMP JUMPDEST PUSH2 0xCE4 DUP2 PUSH2 0x1C5E JUMP JUMPDEST PUSH1 0x40 MLOAD PUSH3 0x461BCD PUSH1 0xE5 SHL DUP2 MSTORE PUSH1 0x20 PUSH1 0x4 DUP3 ADD MSTORE PUSH1 0x2 PUSH1 0x24 DUP3 ADD MSTORE PUSH2 0x4F4B PUSH1 0xF0 SHL PUSH1 0x44 DUP3 ADD MSTORE PUSH1 0x64 ADD PUSH2 0x309 JUMP JUMPDEST PUSH1 0x60 PUSH1 0x2 DUP1 SLOAD DUP1 PUSH1 0x20 MUL PUSH1 0x20 ADD PUSH1 0x40 MLOAD SWAP1 DUP2 ADD PUSH1 0x40 MSTORE DUP1 SWAP3 SWAP2 SWAP1 DUP2 DUP2 MSTORE PUSH1 0x20 ADD PUSH1 0x0 SWAP1 JUMPDEST DUP3 DUP3 LT ISZERO PUSH2 0xB53 JUMPI PUSH1 0x0 DUP5 DUP2 MSTORE PUSH1 0x20 SWAP1 DUP2 SWAP1 KECCAK256 PUSH1 0x40 DUP1 MLOAD PUSH1 0xA0 DUP2 ADD DUP3 MSTORE PUSH1 0x3 DUP7 MUL SWAP1 SWAP3 ADD DUP1 SLOAD PUSH1 0x1 PUSH1 0x1 PUSH1 0x40 SHL SUB DUP1 DUP3 AND DUP6 MSTORE PUSH1 0x1 PUSH1 0x40 SHL SWAP1 SWAP2 DIV AND SWAP4 DUP4 ADD SWAP4 SWAP1 SWAP4 MSTORE PUSH1 0x1 DUP4 ADD SLOAD PUSH1 0x1 PUSH1 0x1 PUSH1 0xA0 SHL SUB DUP2 AND SWAP2 DUP4 ADD SWAP2 SWAP1 SWAP2 MSTORE PUSH1 0x1 PUSH1 0xA0 SHL SWAP1 DIV PUSH1 0xE0 SHL PUSH1 0x1 PUSH1 0x1 PUSH1 0xE0 SHL SUB NOT AND PUSH1 0x60 DUP3 ADD MSTORE PUSH1 0x2 DUP3 ADD DUP1 SLOAD SWAP2 SWAP3 SWAP2 PUSH1 0x80 DUP5 ADD SWAP2 SWAP1 PUSH2 0xDBF SWAP1 PUSH2 0x2744 JUMP JUMPDEST DUP1 PUSH1 0x1F ADD PUSH1 0x20 DUP1 SWAP2 DIV MUL PUSH1 0x20 ADD PUSH1 0x40 MLOAD SWAP1 DUP2 ADD PUSH1 0x40 MSTORE DUP1 SWAP3 SWAP2 SWAP1 DUP2 DUP2 MSTORE PUSH1 0x20 ADD DUP3 DUP1 SLOAD PUSH2 0xDEB SWAP1 PUSH2 0x2744 JUMP JUMPDEST DUP1 ISZERO PUSH2 0xE38 JUMPI DUP1 PUSH1 0x1F LT PUSH2 0xE0D JUMPI PUSH2 0x100 DUP1 DUP4 SLOAD DIV MUL DUP4 MSTORE SWAP2 PUSH1 0x20 ADD SWAP2 PUSH2 0xE38 JUMP JUMPDEST DUP3 ADD SWAP2 SWAP1 PUSH1 0x0 MSTORE PUSH1 0x20 PUSH1 0x0 KECCAK256 SWAP1 JUMPDEST DUP2 SLOAD DUP2 MSTORE SWAP1 PUSH1 0x1 ADD SWAP1 PUSH1 0x20 ADD DUP1 DUP4 GT PUSH2 0xE1B JUMPI DUP3 SWAP1 SUB PUSH1 0x1F AND DUP3 ADD SWAP2 JUMPDEST POP POP POP POP POP DUP2 MSTORE POP POP DUP2 MSTORE PUSH1 0x20 ADD SWAP1 PUSH1 0x1 ADD SWAP1 PUSH2 0xD35 JUMP JUMPDEST CALLER ADDRESS EQ PUSH2 0xE9F JUMPI PUSH1 0x40 MLOAD PUSH3 0x461BCD PUSH1 0xE5 SHL DUP2 MSTORE PUSH1 0x20 PUSH1 0x4 DUP3 ADD MSTORE PUSH1 0x1B PUSH1 0x24 DUP3 ADD MSTORE PUSH32 0x4D7573742062652063616C6C6564207669612074696D656C6F636B0000000000 PUSH1 0x44 DUP3 ADD MSTORE PUSH1 0x64 ADD PUSH2 0x309 JUMP JUMPDEST PUSH1 0x1 PUSH1 0x1 PUSH1 0xA0 SHL SUB DUP4 AND PUSH1 0x0 SWAP1 DUP2 MSTORE PUSH1 0x5 PUSH1 0x20 SWAP1 DUP2 MSTORE PUSH1 0x40 DUP1 DUP4 KECCAK256 PUSH1 0x1 PUSH1 0x1 PUSH1 0xE0 SHL SUB NOT DUP7 AND DUP5 MSTORE SWAP1 SWAP2 MSTORE SWAP1 KECCAK256 SLOAD PUSH1 0x1 PUSH1 0x1 PUSH1 0x40 SHL SUB AND PUSH2 0xF1A JUMPI PUSH1 0x40 MLOAD PUSH3 0x461BCD PUSH1 0xE5 SHL DUP2 MSTORE PUSH1 0x20 PUSH1 0x4 DUP3 ADD MSTORE PUSH1 0x15 PUSH1 0x24 DUP3 ADD MSTORE PUSH21 0x11195B185E481B9BDD08185B1C9958591E481CD95D PUSH1 0x5A SHL PUSH1 0x44 DUP3 ADD MSTORE PUSH1 0x64 ADD PUSH2 0x309 JUMP JUMPDEST PUSH2 0xF25 DUP4 DUP4 DUP4 PUSH2 0x1C86 JUMP JUMPDEST PUSH32 0xAB6EE5EFCC282565D894A94A53346F04AC1E450DEF4ACC1289B07FEAD97E1DB DUP4 DUP4 DUP4 PUSH1 0x40 MLOAD PUSH2 0x575 SWAP4 SWAP3 SWAP2 SWAP1 PUSH2 0x27E7 JUMP JUMPDEST PUSH1 0x1 SLOAD PUSH1 0x60 SWAP1 PUSH1 0x0 SWAP1 PUSH1 0x1 PUSH1 0x1 PUSH1 0x40 SHL SUB DUP2 GT ISZERO PUSH2 0xF78 JUMPI PUSH2 0xF78 PUSH2 0x248B JUMP JUMPDEST PUSH1 0x40 MLOAD SWAP1 DUP1 DUP3 MSTORE DUP1 PUSH1 0x20 MUL PUSH1 0x20 ADD DUP3 ADD PUSH1 0x40 MSTORE DUP1 ISZERO PUSH2 0xFB1 JUMPI DUP2 PUSH1 0x20 ADD JUMPDEST PUSH2 0xF9E PUSH2 0x2169 JUMP JUMPDEST DUP2 MSTORE PUSH1 0x20 ADD SWAP1 PUSH1 0x1 SWAP1 SUB SWAP1 DUP2 PUSH2 0xF96 JUMPI SWAP1 POP JUMPDEST POP SWAP1 POP PUSH1 0x0 DUP1 JUMPDEST PUSH1 0x1 SLOAD DUP2 LT ISZERO PUSH2 0x1147 JUMPI PUSH1 0x0 PUSH1 0x1 DUP3 DUP2 SLOAD DUP2 LT PUSH2 0xFD7 JUMPI PUSH2 0xFD7 PUSH2 0x272E JUMP JUMPDEST PUSH1 0x0 SWAP2 DUP3 MSTORE PUSH1 0x20 SWAP2 DUP3 SWAP1 KECCAK256 PUSH1 0x40 DUP1 MLOAD PUSH1 0xA0 DUP2 ADD DUP3 MSTORE PUSH1 0x3 SWAP1 SWAP4 MUL SWAP1 SWAP2 ADD DUP1 SLOAD PUSH1 0x1 PUSH1 0x1 PUSH1 0x40 SHL SUB DUP1 DUP3 AND DUP6 MSTORE PUSH1 0x1 PUSH1 0x40 SHL SWAP1 SWAP2 DIV AND SWAP4 DUP4 ADD SWAP4 SWAP1 SWAP4 MSTORE PUSH1 0x1 DUP4 ADD SLOAD PUSH1 0x1 PUSH1 0x1 PUSH1 0xA0 SHL SUB DUP2 AND SWAP2 DUP4 ADD SWAP2 SWAP1 SWAP2 MSTORE PUSH1 0x1 PUSH1 0x1 PUSH1 0xE0 SHL SUB NOT PUSH1 0x1 PUSH1 0xA0 SHL SWAP1 SWAP2 DIV PUSH1 0xE0 SHL AND PUSH1 0x60 DUP3 ADD MSTORE PUSH1 0x2 DUP3 ADD DUP1 SLOAD SWAP2 SWAP3 SWAP2 PUSH1 0x80 DUP5 ADD SWAP2 SWAP1 PUSH2 0x105B SWAP1 PUSH2 0x2744 JUMP JUMPDEST DUP1 PUSH1 0x1F ADD PUSH1 0x20 DUP1 SWAP2 DIV MUL PUSH1 0x20 ADD PUSH1 0x40 MLOAD SWAP1 DUP2 ADD PUSH1 0x40 MSTORE DUP1 SWAP3 SWAP2 SWAP1 DUP2 DUP2 MSTORE PUSH1 0x20 ADD DUP3 DUP1 SLOAD PUSH2 0x1087 SWAP1 PUSH2 0x2744 JUMP JUMPDEST DUP1 ISZERO PUSH2 0x10D4 JUMPI DUP1 PUSH1 0x1F LT PUSH2 0x10A9 JUMPI PUSH2 0x100 DUP1 DUP4 SLOAD DIV MUL DUP4 MSTORE SWAP2 PUSH1 0x20 ADD SWAP2 PUSH2 0x10D4 JUMP JUMPDEST DUP3 ADD SWAP2 SWAP1 PUSH1 0x0 MSTORE PUSH1 0x20 PUSH1 0x0 KECCAK256 SWAP1 JUMPDEST DUP2 SLOAD DUP2 MSTORE SWAP1 PUSH1 0x1 ADD SWAP1 PUSH1 0x20 ADD DUP1 DUP4 GT PUSH2 0x10B7 JUMPI DUP3 SWAP1 SUB PUSH1 0x1F AND DUP3 ADD SWAP2 JUMPDEST POP POP POP POP POP DUP2 MSTORE POP POP SWAP1 POP TIMESTAMP PUSH2 0x10E9 DUP3 PUSH2 0x1BE6 JUMP JUMPDEST DUP3 PUSH1 0x20 ADD MLOAD PUSH2 0x10F8 SWAP2 SWAP1 PUSH2 0x27BC JUMP JUMPDEST PUSH1 0x1 PUSH1 0x1 PUSH1 0x40 SHL SUB AND GT ISZERO PUSH2 0x1134 JUMPI DUP1 DUP5 DUP4 DUP2 MLOAD DUP2 LT PUSH2 0x111A JUMPI PUSH2 0x111A PUSH2 0x272E JUMP JUMPDEST PUSH1 0x20 MUL PUSH1 0x20 ADD ADD DUP2 SWAP1 MSTORE POP DUP3 DUP1 PUSH2 0x1130 SWAP1 PUSH2 0x281B JUMP JUMPDEST SWAP4 POP POP JUMPDEST POP DUP1 PUSH2 0x113F DUP2 PUSH2 0x281B JUMP JUMPDEST SWAP2 POP POP PUSH2 0xFB8 JUMP JUMPDEST POP PUSH2 0x1152 DUP3 DUP3 PUSH2 0x1D27 JUMP JUMPDEST SWAP3 POP POP POP SWAP1 JUMP JUMPDEST PUSH1 0x0 SLOAD PUSH1 0x1 PUSH1 0x1 PUSH1 0xA0 SHL SUB AND CALLER EQ PUSH2 0x1183 JUMPI PUSH1 0x40 MLOAD PUSH3 0x461BCD PUSH1 0xE5 SHL DUP2 MSTORE PUSH1 0x4 ADD PUSH2 0x309 SWAP1 PUSH2 0x26F9 JUMP JUMPDEST PUSH1 0x0 PUSH2 0x1190 DUP5 DUP5 DUP5 PUSH2 0x1916 JUMP JUMPDEST SWAP1 POP PUSH2 0x119B DUP2 PUSH2 0x1BE6 JUMP JUMPDEST PUSH1 0x1 PUSH1 0x1 PUSH1 0x40 SHL SUB AND ISZERO PUSH2 0x11E4 JUMPI PUSH1 0x40 MLOAD PUSH3 0x461BCD PUSH1 0xE5 SHL DUP2 MSTORE PUSH1 0x20 PUSH1 0x4 DUP3 ADD MSTORE PUSH1 0x10 PUSH1 0x24 DUP3 ADD MSTORE PUSH16 0x43616C6C2068617320612064656C6179 PUSH1 0x80 SHL PUSH1 0x44 DUP3 ADD MSTORE PUSH1 0x64 ADD PUSH2 0x309 JUMP JUMPDEST PUSH2 0x11ED DUP2 PUSH2 0x1C5E JUMP JUMPDEST PUSH32 0x9F1CE7B25BA8FBE6CAE5A4568E96CB5B88922767D3B8C3704DF68AE03FDA6271 DUP5 DUP5 DUP5 PUSH1 0x40 MLOAD PUSH2 0x1220 SWAP4 SWAP3 SWAP2 SWAP1 PUSH2 0x2836 JUMP JUMPDEST PUSH1 0x40 MLOAD DUP1 SWAP2 SUB SWAP1 LOG1 POP POP POP POP JUMP JUMPDEST PUSH1 0x0 DUP1 JUMPDEST PUSH1 0x1 SLOAD DUP2 LT ISZERO PUSH2 0x1287 JUMPI DUP3 PUSH1 0x1 PUSH1 0x1 PUSH1 0x40 SHL SUB AND PUSH1 0x1 DUP3 DUP2 SLOAD DUP2 LT PUSH2 0x1259 JUMPI PUSH2 0x1259 PUSH2 0x272E JUMP JUMPDEST PUSH1 0x0 SWAP2 DUP3 MSTORE PUSH1 0x20 SWAP1 SWAP2 KECCAK256 PUSH1 0x3 SWAP1 SWAP2 MUL ADD SLOAD PUSH1 0x1 PUSH1 0x1 PUSH1 0x40 SHL SUB AND EQ ISZERO PUSH2 0x127F JUMPI SWAP3 SWAP2 POP POP JUMP JUMPDEST PUSH1 0x1 ADD PUSH2 0x1232 JUMP JUMPDEST POP PUSH1 0x40 MLOAD PUSH3 0x461BCD PUSH1 0xE5 SHL DUP2 MSTORE PUSH1 0x20 PUSH1 0x4 DUP3 ADD MSTORE PUSH1 0xE PUSH1 0x24 DUP3 ADD MSTORE PUSH14 0x10D85B1B081B9BDD08199BDD5B99 PUSH1 0x92 SHL PUSH1 0x44 DUP3 ADD MSTORE PUSH1 0x64 ADD PUSH2 0x309 JUMP JUMPDEST PUSH1 0x0 SLOAD PUSH1 0x1 PUSH1 0x1 PUSH1 0xA0 SHL SUB AND CALLER EQ PUSH2 0x12EB JUMPI PUSH1 0x40 MLOAD PUSH3 0x461BCD PUSH1 0xE5 SHL DUP2 MSTORE PUSH1 0x4 ADD PUSH2 0x309 SWAP1 PUSH2 0x26F9 JUMP JUMPDEST PUSH2 0x12F5 PUSH1 0x0 PUSH2 0x1DDA JUMP JUMPDEST JUMP JUMPDEST PUSH1 0x1 SLOAD PUSH1 0x60 SWAP1 PUSH1 0x0 SWAP1 PUSH1 0x1 PUSH1 0x1 PUSH1 0x40 SHL SUB DUP2 GT ISZERO PUSH2 0x1317 JUMPI PUSH2 0x1317 PUSH2 0x248B JUMP JUMPDEST PUSH1 0x40 MLOAD SWAP1 DUP1 DUP3 MSTORE DUP1 PUSH1 0x20 MUL PUSH1 0x20 ADD DUP3 ADD PUSH1 0x40 MSTORE DUP1 ISZERO PUSH2 0x1350 JUMPI DUP2 PUSH1 0x20 ADD JUMPDEST PUSH2 0x133D PUSH2 0x2169 JUMP JUMPDEST DUP2 MSTORE PUSH1 0x20 ADD SWAP1 PUSH1 0x1 SWAP1 SUB SWAP1 DUP2 PUSH2 0x1335 JUMPI SWAP1 POP JUMPDEST POP SWAP1 POP PUSH1 0x0 DUP1 JUMPDEST PUSH1 0x1 SLOAD DUP2 LT ISZERO PUSH2 0x1147 JUMPI PUSH1 0x0 PUSH1 0x1 DUP3 DUP2 SLOAD DUP2 LT PUSH2 0x1376 JUMPI PUSH2 0x1376 PUSH2 0x272E JUMP JUMPDEST PUSH1 0x0 SWAP2 DUP3 MSTORE PUSH1 0x20 SWAP2 DUP3 SWAP1 KECCAK256 PUSH1 0x40 DUP1 MLOAD PUSH1 0xA0 DUP2 ADD DUP3 MSTORE PUSH1 0x3 SWAP1 SWAP4 MUL SWAP1 SWAP2 ADD DUP1 SLOAD PUSH1 0x1 PUSH1 0x1 PUSH1 0x40 SHL SUB DUP1 DUP3 AND DUP6 MSTORE PUSH1 0x1 PUSH1 0x40 SHL SWAP1 SWAP2 DIV AND SWAP4 DUP4 ADD SWAP4 SWAP1 SWAP4 MSTORE PUSH1 0x1 DUP4 ADD SLOAD PUSH1 0x1 PUSH1 0x1 PUSH1 0xA0 SHL SUB DUP2 AND SWAP2 DUP4 ADD SWAP2 SWAP1 SWAP2 MSTORE PUSH1 0x1 PUSH1 0x1 PUSH1 0xE0 SHL SUB NOT PUSH1 0x1 PUSH1 0xA0 SHL SWAP1 SWAP2 DIV PUSH1 0xE0 SHL AND PUSH1 0x60 DUP3 ADD MSTORE PUSH1 0x2 DUP3 ADD DUP1 SLOAD SWAP2 SWAP3 SWAP2 PUSH1 0x80 DUP5 ADD SWAP2 SWAP1 PUSH2 0x13FA SWAP1 PUSH2 0x2744 JUMP JUMPDEST DUP1 PUSH1 0x1F ADD PUSH1 0x20 DUP1 SWAP2 DIV MUL PUSH1 0x20 ADD PUSH1 0x40 MLOAD SWAP1 DUP2 ADD PUSH1 0x40 MSTORE DUP1 SWAP3 SWAP2 SWAP1 DUP2 DUP2 MSTORE PUSH1 0x20 ADD DUP3 DUP1 SLOAD PUSH2 0x1426 SWAP1 PUSH2 0x2744 JUMP JUMPDEST DUP1 ISZERO PUSH2 0x1473 JUMPI DUP1 PUSH1 0x1F LT PUSH2 0x1448 JUMPI PUSH2 0x100 DUP1 DUP4 SLOAD DIV MUL DUP4 MSTORE SWAP2 PUSH1 0x20 ADD SWAP2 PUSH2 0x1473 JUMP JUMPDEST DUP3 ADD SWAP2 SWAP1 PUSH1 0x0 MSTORE PUSH1 0x20 PUSH1 0x0 KECCAK256 SWAP1 JUMPDEST DUP2 SLOAD DUP2 MSTORE SWAP1 PUSH1 0x1 ADD SWAP1 PUSH1 0x20 ADD DUP1 DUP4 GT PUSH2 0x1456 JUMPI DUP3 SWAP1 SUB PUSH1 0x1F AND DUP3 ADD SWAP2 JUMPDEST POP POP POP POP POP DUP2 MSTORE POP POP SWAP1 POP TIMESTAMP PUSH2 0x1488 DUP3 PUSH2 0x1BE6 JUMP JUMPDEST DUP3 PUSH1 0x20 ADD MLOAD PUSH2 0x1497 SWAP2 SWAP1 PUSH2 0x27BC JUMP JUMPDEST PUSH1 0x1 PUSH1 0x1 PUSH1 0x40 SHL SUB AND GT PUSH2 0x14D2 JUMPI DUP1 DUP5 DUP4 DUP2 MLOAD DUP2 LT PUSH2 0x14B8 JUMPI PUSH2 0x14B8 PUSH2 0x272E JUMP JUMPDEST PUSH1 0x20 MUL PUSH1 0x20 ADD ADD DUP2 SWAP1 MSTORE POP DUP3 DUP1 PUSH2 0x14CE SWAP1 PUSH2 0x281B JUMP JUMPDEST SWAP4 POP POP JUMPDEST POP DUP1 PUSH2 0x14DD DUP2 PUSH2 0x281B JUMP JUMPDEST SWAP2 POP POP PUSH2 0x1357 JUMP JUMPDEST PUSH1 0x0 PUSH2 0x14F8 PUSH2 0x14F3 DUP4 PUSH2 0xB5C JUMP JUMPDEST PUSH2 0x1BE6 JUMP JUMPDEST SWAP3 SWAP2 POP POP JUMP JUMPDEST PUSH1 0x60 PUSH1 0x3 DUP1 SLOAD DUP1 PUSH1 0x20 MUL PUSH1 0x20 ADD PUSH1 0x40 MLOAD SWAP1 DUP2 ADD PUSH1 0x40 MSTORE DUP1 SWAP3 SWAP2 SWAP1 DUP2 DUP2 MSTORE PUSH1 0x20 ADD PUSH1 0x0 SWAP1 JUMPDEST DUP3 DUP3 LT ISZERO PUSH2 0xB53 JUMPI PUSH1 0x0 DUP5 DUP2 MSTORE PUSH1 0x20 SWAP1 DUP2 SWAP1 KECCAK256 PUSH1 0x40 DUP1 MLOAD PUSH1 0xA0 DUP2 ADD DUP3 MSTORE PUSH1 0x3 DUP7 MUL SWAP1 SWAP3 ADD DUP1 SLOAD PUSH1 0x1 PUSH1 0x1 PUSH1 0x40 SHL SUB DUP1 DUP3 AND DUP6 MSTORE PUSH1 0x1 PUSH1 0x40 SHL SWAP1 SWAP2 DIV AND SWAP4 DUP4 ADD SWAP4 SWAP1 SWAP4 MSTORE PUSH1 0x1 DUP4 ADD SLOAD PUSH1 0x1 PUSH1 0x1 PUSH1 0xA0 SHL SUB DUP2 AND SWAP2 DUP4 ADD SWAP2 SWAP1 SWAP2 MSTORE PUSH1 0x1 PUSH1 0xA0 SHL SWAP1 DIV PUSH1 0xE0 SHL PUSH1 0x1 PUSH1 0x1 PUSH1 0xE0 SHL SUB NOT AND PUSH1 0x60 DUP3 ADD MSTORE PUSH1 0x2 DUP3 ADD DUP1 SLOAD SWAP2 SWAP3 SWAP2 PUSH1 0x80 DUP5 ADD SWAP2 SWAP1 PUSH2 0x15AC SWAP1 PUSH2 0x2744 JUMP JUMPDEST DUP1 PUSH1 0x1F ADD PUSH1 0x20 DUP1 SWAP2 DIV MUL PUSH1 0x20 ADD PUSH1 0x40 MLOAD SWAP1 DUP2 ADD PUSH1 0x40 MSTORE DUP1 SWAP3 SWAP2 SWAP1 DUP2 DUP2 MSTORE PUSH1 0x20 ADD DUP3 DUP1 SLOAD PUSH2 0x15D8 SWAP1 PUSH2 0x2744 JUMP JUMPDEST DUP1 ISZERO PUSH2 0x1625 JUMPI DUP1 PUSH1 0x1F LT PUSH2 0x15FA JUMPI PUSH2 0x100 DUP1 DUP4 SLOAD DIV MUL DUP4 MSTORE SWAP2 PUSH1 0x20 ADD SWAP2 PUSH2 0x1625 JUMP JUMPDEST DUP3 ADD SWAP2 SWAP1 PUSH1 0x0 MSTORE PUSH1 0x20 PUSH1 0x0 KECCAK256 SWAP1 JUMPDEST DUP2 SLOAD DUP2 MSTORE SWAP1 PUSH1 0x1 ADD SWAP1 PUSH1 0x20 ADD DUP1 DUP4 GT PUSH2 0x1608 JUMPI DUP3 SWAP1 SUB PUSH1 0x1F AND DUP3 ADD SWAP2 JUMPDEST POP POP POP POP POP DUP2 MSTORE POP POP DUP2 MSTORE PUSH1 0x20 ADD SWAP1 PUSH1 0x1 ADD SWAP1 PUSH2 0x1522 JUMP JUMPDEST PUSH1 0x0 SLOAD PUSH1 0x1 PUSH1 0x1 PUSH1 0xA0 SHL SUB AND CALLER EQ PUSH2 0x1667 JUMPI PUSH1 0x40 MLOAD PUSH3 0x461BCD PUSH1 0xE5 SHL DUP2 MSTORE PUSH1 0x4 ADD PUSH2 0x309 SWAP1 PUSH2 0x26F9 JUMP JUMPDEST PUSH1 0x1 PUSH1 0x1 PUSH1 0xA0 SHL SUB DUP4 AND PUSH1 0x0 SWAP1 DUP2 MSTORE PUSH1 0x5 PUSH1 0x20 SWAP1 DUP2 MSTORE PUSH1 0x40 DUP1 DUP4 KECCAK256 PUSH1 0x1 PUSH1 0x1 PUSH1 0xE0 SHL SUB NOT DUP7 AND DUP5 MSTORE SWAP1 SWAP2 MSTORE SWAP1 KECCAK256 SLOAD PUSH1 0x1 PUSH1 0x1 PUSH1 0x40 SHL SUB AND ISZERO PUSH2 0x16DF JUMPI PUSH1 0x40 MLOAD PUSH3 0x461BCD PUSH1 0xE5 SHL DUP2 MSTORE PUSH1 0x20 PUSH1 0x4 DUP3 ADD MSTORE PUSH1 0x11 PUSH1 0x24 DUP3 ADD MSTORE PUSH17 0x11195B185E48185B1C9958591E481CD95D PUSH1 0x7A SHL PUSH1 0x44 DUP3 ADD MSTORE PUSH1 0x64 ADD PUSH2 0x309 JUMP JUMPDEST PUSH2 0x16EA DUP4 DUP4 DUP4 PUSH2 0x1C86 JUMP JUMPDEST PUSH32 0x4FFCFCAC1B7F176C804709A0AC82E4BB35BDF541FDE7DC6B9762B6188DFFBBEA DUP4 DUP4 DUP4 PUSH1 0x40 MLOAD PUSH2 0x575 SWAP4 SWAP3 SWAP2 SWAP1 PUSH2 0x27E7 JUMP JUMPDEST PUSH1 0x0 SLOAD PUSH1 0x1 PUSH1 0x1 PUSH1 0xA0 SHL SUB AND CALLER EQ PUSH2 0x1747 JUMPI PUSH1 0x40 MLOAD PUSH3 0x461BCD PUSH1 0xE5 SHL DUP2 MSTORE PUSH1 0x4 ADD PUSH2 0x309 SWAP1 PUSH2 0x26F9 JUMP JUMPDEST PUSH1 0x1 PUSH1 0x1 PUSH1 0xA0 SHL SUB DUP2 AND PUSH2 0x17AC JUMPI PUSH1 0x40 MLOAD PUSH3 0x461BCD PUSH1 0xE5 SHL DUP2 MSTORE PUSH1 0x20 PUSH1 0x4 DUP3 ADD MSTORE PUSH1 0x26 PUSH1 0x24 DUP3 ADD MSTORE PUSH32 0x4F776E61626C653A206E6577206F776E657220697320746865207A65726F2061 PUSH1 0x44 DUP3 ADD MSTORE PUSH6 0x646472657373 PUSH1 0xD0 SHL PUSH1 0x64 DUP3 ADD MSTORE PUSH1 0x84 ADD PUSH2 0x309 JUMP JUMPDEST PUSH2 0x17B5 DUP2 PUSH2 0x1DDA JUMP JUMPDEST POP JUMP JUMPDEST PUSH1 0x1 DUP1 SLOAD PUSH2 0x17C7 SWAP1 DUP3 SWAP1 PUSH2 0x2876 JUMP JUMPDEST DUP2 SLOAD DUP2 LT PUSH2 0x17D7 JUMPI PUSH2 0x17D7 PUSH2 0x272E JUMP JUMPDEST SWAP1 PUSH1 0x0 MSTORE PUSH1 0x20 PUSH1 0x0 KECCAK256 SWAP1 PUSH1 0x3 MUL ADD PUSH1 0x1 DUP3 DUP2 SLOAD DUP2 LT PUSH2 0x17F8 JUMPI PUSH2 0x17F8 PUSH2 0x272E JUMP JUMPDEST PUSH1 0x0 SWAP2 DUP3 MSTORE PUSH1 0x20 SWAP1 SWAP2 KECCAK256 DUP3 SLOAD PUSH1 0x3 SWAP1 SWAP3 MUL ADD DUP1 SLOAD PUSH1 0x1 PUSH1 0x1 PUSH1 0x40 SHL SUB SWAP3 DUP4 AND PUSH8 0xFFFFFFFFFFFFFFFF NOT DUP3 AND DUP2 OR DUP4 SSTORE DUP5 SLOAD PUSH1 0x1 PUSH1 0x1 PUSH1 0x80 SHL SUB NOT SWAP1 SWAP3 AND OR PUSH1 0x1 PUSH1 0x40 SHL SWAP2 DUP3 SWAP1 DIV SWAP1 SWAP4 AND MUL SWAP2 SWAP1 SWAP2 OR DUP2 SSTORE PUSH1 0x1 DUP1 DUP4 ADD DUP1 SLOAD SWAP2 DUP4 ADD DUP1 SLOAD PUSH1 0x1 PUSH1 0x1 PUSH1 0xA0 SHL SUB SWAP1 SWAP4 AND PUSH1 0x1 PUSH1 0x1 PUSH1 0xA0 SHL SUB NOT DUP5 AND DUP2 OR DUP3 SSTORE SWAP2 SLOAD PUSH1 0x1 PUSH1 0x1 PUSH1 0xC0 SHL SUB NOT SWAP1 SWAP4 AND SWAP1 SWAP2 OR PUSH1 0x1 PUSH1 0xA0 SHL SWAP3 DUP4 SWAP1 DIV PUSH4 0xFFFFFFFF AND SWAP1 SWAP3 MUL SWAP2 SWAP1 SWAP2 OR SWAP1 SSTORE PUSH1 0x2 DUP1 DUP4 ADD DUP1 SLOAD SWAP2 DUP4 ADD SWAP2 PUSH2 0x18AC SWAP1 PUSH2 0x2744 JUMP JUMPDEST PUSH2 0x18B7 SWAP3 SWAP2 SWAP1 PUSH2 0x2199 JUMP JUMPDEST POP SWAP1 POP POP PUSH1 0x1 DUP1 SLOAD DUP1 PUSH2 0x18CC JUMPI PUSH2 0x18CC PUSH2 0x288D JUMP JUMPDEST PUSH1 0x0 DUP3 DUP2 MSTORE PUSH1 0x20 DUP2 KECCAK256 PUSH1 0x3 PUSH1 0x0 NOT SWAP1 SWAP4 ADD SWAP3 DUP4 MUL ADD DUP1 SLOAD PUSH1 0x1 PUSH1 0x1 PUSH1 0x80 SHL SUB NOT AND DUP2 SSTORE PUSH1 0x1 DUP2 ADD DUP1 SLOAD PUSH1 0x1 PUSH1 0x1 PUSH1 0xC0 SHL SUB NOT AND SWAP1 SSTORE SWAP1 PUSH2 0x190F PUSH1 0x2 DUP4 ADD DUP3 PUSH2 0x2214 JUMP JUMPDEST POP POP SWAP1 SSTORE POP JUMP JUMPDEST PUSH2 0x191E PUSH2 0x2169 JUMP JUMPDEST PUSH1 0x1 PUSH1 0x1 PUSH1 0xA0 SHL SUB DUP5 AND PUSH2 0x196F JUMPI PUSH1 0x40 MLOAD PUSH3 0x461BCD PUSH1 0xE5 SHL DUP2 MSTORE PUSH1 0x20 PUSH1 0x4 DUP3 ADD MSTORE PUSH1 0x18 PUSH1 0x24 DUP3 ADD MSTORE PUSH24 0x16995C9BC81859191C995CDCC81B9BDD08185B1B1BDDD959 PUSH1 0x42 SHL PUSH1 0x44 DUP3 ADD MSTORE PUSH1 0x64 ADD PUSH2 0x309 JUMP JUMPDEST PUSH1 0x0 PUSH2 0x197E PUSH1 0x4 DUP3 DUP6 DUP8 PUSH2 0x28A3 JUMP JUMPDEST PUSH2 0x1987 SWAP2 PUSH2 0x28CD JUMP JUMPDEST SWAP1 POP PUSH2 0x1993 DUP6 DUP3 PUSH2 0x1E2A JUMP JUMPDEST PUSH1 0x40 DUP1 MLOAD PUSH1 0xA0 DUP2 ADD DUP3 MSTORE PUSH1 0x4 SLOAD PUSH1 0x1 PUSH1 0x1 PUSH1 0x40 SHL SUB SWAP1 DUP2 AND DUP3 MSTORE TIMESTAMP AND PUSH1 0x20 DUP1 DUP4 ADD SWAP2 SWAP1 SWAP2 MSTORE PUSH1 0x1 PUSH1 0x1 PUSH1 0xA0 SHL SUB DUP9 AND DUP3 DUP5 ADD MSTORE PUSH1 0x1 PUSH1 0x1 PUSH1 0xE0 SHL SUB NOT DUP5 AND PUSH1 0x60 DUP4 ADD MSTORE DUP3 MLOAD PUSH1 0x1F DUP8 ADD DUP3 SWAP1 DIV DUP3 MUL DUP2 ADD DUP3 ADD SWAP1 SWAP4 MSTORE DUP6 DUP4 MSTORE PUSH1 0x0 SWAP3 PUSH1 0x80 DUP4 ADD SWAP2 DUP9 SWAP1 DUP9 SWAP1 DUP2 SWAP1 DUP5 ADD DUP4 DUP3 DUP1 DUP3 DUP5 CALLDATACOPY PUSH1 0x0 SWAP3 ADD SWAP2 SWAP1 SWAP2 MSTORE POP POP POP SWAP2 MSTORE POP SWAP3 POP POP POP JUMPDEST SWAP4 SWAP3 POP POP POP JUMP JUMPDEST PUSH1 0x40 DUP2 ADD MLOAD DUP1 EXTCODESIZE SWAP1 DUP2 PUSH2 0x1A8A JUMPI PUSH1 0x40 MLOAD PUSH3 0x461BCD PUSH1 0xE5 SHL DUP2 MSTORE PUSH1 0x20 PUSH1 0x4 DUP3 ADD MSTORE PUSH1 0x31 PUSH1 0x24 DUP3 ADD MSTORE PUSH32 0x43616C6C20776F756C6420726576657274207768656E2065786563757465643A PUSH1 0x44 DUP3 ADD MSTORE PUSH17 0x81A5B9D985B1A590818DBDB9D1C9858DD PUSH1 0x7A SHL PUSH1 0x64 DUP3 ADD MSTORE PUSH1 0x84 ADD PUSH2 0x309 JUMP JUMPDEST PUSH1 0x40 MLOAD PUSH4 0xC8C8325 PUSH1 0xE2 SHL DUP2 MSTORE ADDRESS SWAP1 PUSH4 0x32320C94 SWAP1 PUSH2 0x1AAD SWAP1 DUP7 SWAP1 PUSH1 0x4 ADD PUSH2 0x2478 JUMP JUMPDEST PUSH1 0x0 PUSH1 0x40 MLOAD DUP1 DUP4 SUB DUP2 PUSH1 0x0 DUP8 DUP1 EXTCODESIZE ISZERO DUP1 ISZERO PUSH2 0x1AC7 JUMPI PUSH1 0x0 DUP1 REVERT JUMPDEST POP GAS CALL SWAP3 POP POP POP DUP1 ISZERO PUSH2 0x1AD8 JUMPI POP PUSH1 0x1 JUMPDEST PUSH2 0x1BA1 JUMPI PUSH2 0x1AE4 PUSH2 0x28FD JUMP JUMPDEST DUP1 PUSH4 0x8C379A0 EQ ISZERO PUSH2 0x1B95 JUMPI POP PUSH2 0x1AF9 PUSH2 0x2919 JUMP JUMPDEST DUP1 PUSH2 0x1B04 JUMPI POP PUSH2 0x1B97 JUMP JUMPDEST PUSH1 0x40 MLOAD PUSH2 0x4F4B PUSH1 0xF0 SHL PUSH1 0x20 DUP3 ADD MSTORE PUSH1 0x22 ADD PUSH1 0x40 MLOAD PUSH1 0x20 DUP2 DUP4 SUB SUB DUP2 MSTORE SWAP1 PUSH1 0x40 MSTORE DUP1 MLOAD SWAP1 PUSH1 0x20 ADD KECCAK256 DUP2 PUSH1 0x40 MLOAD PUSH1 0x20 ADD PUSH2 0x1B3C SWAP2 SWAP1 PUSH2 0x29A2 JUMP JUMPDEST PUSH1 0x40 MLOAD PUSH1 0x20 DUP2 DUP4 SUB SUB DUP2 MSTORE SWAP1 PUSH1 0x40 MSTORE DUP1 MLOAD SWAP1 PUSH1 0x20 ADD KECCAK256 EQ ISZERO PUSH2 0x1B5E JUMPI POP POP POP POP JUMP JUMPDEST DUP1 PUSH1 0x40 MLOAD PUSH1 0x20 ADD PUSH2 0x1B6F SWAP2 SWAP1 PUSH2 0x29BE JUMP JUMPDEST PUSH1 0x40 DUP1 MLOAD PUSH1 0x1F NOT DUP2 DUP5 SUB ADD DUP2 MSTORE SWAP1 DUP3 SWAP1 MSTORE PUSH3 0x461BCD PUSH1 0xE5 SHL DUP3 MSTORE PUSH2 0x309 SWAP2 PUSH1 0x4 ADD PUSH2 0x2A0D JUMP JUMPDEST POP JUMPDEST RETURNDATASIZE PUSH1 0x0 DUP1 RETURNDATACOPY RETURNDATASIZE PUSH1 0x0 REVERT JUMPDEST PUSH1 0x40 MLOAD PUSH3 0x461BCD PUSH1 0xE5 SHL DUP2 MSTORE PUSH1 0x20 PUSH1 0x4 DUP3 ADD MSTORE PUSH1 0x15 PUSH1 0x24 DUP3 ADD MSTORE PUSH21 0x115C9C9BDC881D985B1A59185D1A5B99C818D85B1B PUSH1 0x5A SHL PUSH1 0x44 DUP3 ADD MSTORE PUSH1 0x64 ADD PUSH2 0x309 JUMP JUMPDEST POP POP POP JUMP JUMPDEST PUSH1 0x40 DUP2 ADD MLOAD PUSH1 0x60 DUP3 ADD MLOAD PUSH1 0x0 SWAP2 SWAP1 PUSH1 0x1 PUSH1 0x1 PUSH1 0xE0 SHL SUB NOT DUP2 AND PUSH4 0x995C27F PUSH1 0xE3 SHL EQ ISZERO PUSH2 0x1C20 JUMPI POP POP PUSH1 0x80 DUP3 ADD MLOAD PUSH1 0x24 DUP2 ADD MLOAD PUSH1 0x44 SWAP1 SWAP2 ADD MLOAD JUMPDEST PUSH1 0x1 PUSH1 0x1 PUSH1 0xA0 SHL SUB SWAP1 SWAP2 AND PUSH1 0x0 SWAP1 DUP2 MSTORE PUSH1 0x5 PUSH1 0x20 SWAP1 DUP2 MSTORE PUSH1 0x40 DUP1 DUP4 KECCAK256 PUSH1 0x1 PUSH1 0x1 PUSH1 0xE0 SHL SUB NOT SWAP1 SWAP5 AND DUP4 MSTORE SWAP3 SWAP1 MSTORE KECCAK256 SLOAD PUSH1 0x1 PUSH1 0x1 PUSH1 0x40 SHL SUB AND SWAP3 SWAP2 POP POP JUMP JUMPDEST PUSH2 0x1C82 DUP2 PUSH1 0x80 ADD MLOAD DUP3 PUSH1 0x40 ADD MLOAD PUSH1 0x1 PUSH1 0x1 PUSH1 0xA0 SHL SUB AND PUSH2 0x1F27 SWAP1 SWAP2 SWAP1 PUSH4 0xFFFFFFFF AND JUMP JUMPDEST POP POP JUMP JUMPDEST PUSH1 0x1 PUSH1 0x1 PUSH1 0xA0 SHL SUB DUP4 AND PUSH2 0x1CD7 JUMPI PUSH1 0x40 MLOAD PUSH3 0x461BCD PUSH1 0xE5 SHL DUP2 MSTORE PUSH1 0x20 PUSH1 0x4 DUP3 ADD MSTORE PUSH1 0x18 PUSH1 0x24 DUP3 ADD MSTORE PUSH24 0x16995C9BC81859191C995CDCC81B9BDD08185B1B1BDDD959 PUSH1 0x42 SHL PUSH1 0x44 DUP3 ADD MSTORE PUSH1 0x64 ADD PUSH2 0x309 JUMP JUMPDEST PUSH1 0x1 PUSH1 0x1 PUSH1 0xA0 SHL SUB SWAP1 SWAP3 AND PUSH1 0x0 SWAP1 DUP2 MSTORE PUSH1 0x5 PUSH1 0x20 SWAP1 DUP2 MSTORE PUSH1 0x40 DUP1 DUP4 KECCAK256 PUSH1 0x1 PUSH1 0x1 PUSH1 0xE0 SHL SUB NOT SWAP1 SWAP5 AND DUP4 MSTORE SWAP3 SWAP1 MSTORE KECCAK256 DUP1 SLOAD PUSH1 0x1 PUSH1 0x1 PUSH1 0x40 SHL SUB SWAP1 SWAP3 AND PUSH8 0xFFFFFFFFFFFFFFFF NOT SWAP1 SWAP3 AND SWAP2 SWAP1 SWAP2 OR SWAP1 SSTORE JUMP JUMPDEST PUSH1 0x60 PUSH1 0x0 DUP3 PUSH1 0x1 PUSH1 0x1 PUSH1 0x40 SHL SUB DUP2 GT ISZERO PUSH2 0x1D43 JUMPI PUSH2 0x1D43 PUSH2 0x248B JUMP JUMPDEST PUSH1 0x40 MLOAD SWAP1 DUP1 DUP3 MSTORE DUP1 PUSH1 0x20 MUL PUSH1 0x20 ADD DUP3 ADD PUSH1 0x40 MSTORE DUP1 ISZERO PUSH2 0x1D7C JUMPI DUP2 PUSH1 0x20 ADD JUMPDEST PUSH2 0x1D69 PUSH2 0x2169 JUMP JUMPDEST DUP2 MSTORE PUSH1 0x20 ADD SWAP1 PUSH1 0x1 SWAP1 SUB SWAP1 DUP2 PUSH2 0x1D61 JUMPI SWAP1 POP JUMPDEST POP SWAP1 POP PUSH1 0x0 JUMPDEST DUP4 DUP2 LT ISZERO PUSH2 0x1DD2 JUMPI DUP5 DUP2 DUP2 MLOAD DUP2 LT PUSH2 0x1D9C JUMPI PUSH2 0x1D9C PUSH2 0x272E JUMP JUMPDEST PUSH1 0x20 MUL PUSH1 0x20 ADD ADD MLOAD DUP3 DUP3 DUP2 MLOAD DUP2 LT PUSH2 0x1DB6 JUMPI PUSH2 0x1DB6 PUSH2 0x272E JUMP JUMPDEST PUSH1 0x20 MUL PUSH1 0x20 ADD ADD DUP2 SWAP1 MSTORE POP PUSH2 0x1DCB DUP2 PUSH1 0x1 ADD SWAP1 JUMP JUMPDEST SWAP1 POP PUSH2 0x1D82 JUMP JUMPDEST POP SWAP4 SWAP3 POP POP POP JUMP JUMPDEST PUSH1 0x0 DUP1 SLOAD PUSH1 0x1 PUSH1 0x1 PUSH1 0xA0 SHL SUB DUP4 DUP2 AND PUSH1 0x1 PUSH1 0x1 PUSH1 0xA0 SHL SUB NOT DUP4 AND DUP2 OR DUP5 SSTORE PUSH1 0x40 MLOAD SWAP2 SWAP1 SWAP3 AND SWAP3 DUP4 SWAP2 PUSH32 0x8BE0079C531659141344CD1FD0A4F28419497F9722A3DAAFE3B4186F6B6457E0 SWAP2 SWAP1 LOG3 POP POP JUMP JUMPDEST PUSH1 0x1 PUSH1 0x1 PUSH1 0xA0 SHL SUB DUP3 AND ADDRESS EQ ISZERO PUSH2 0x1E3F JUMPI POP POP JUMP JUMPDEST PUSH1 0x0 JUMPDEST PUSH1 0x1 SLOAD DUP2 LT ISZERO PUSH2 0x1BE1 JUMPI DUP3 PUSH1 0x1 PUSH1 0x1 PUSH1 0xA0 SHL SUB AND PUSH1 0x1 DUP3 DUP2 SLOAD DUP2 LT PUSH2 0x1E69 JUMPI PUSH2 0x1E69 PUSH2 0x272E JUMP JUMPDEST PUSH1 0x0 SWAP2 DUP3 MSTORE PUSH1 0x20 SWAP1 SWAP2 KECCAK256 PUSH1 0x1 PUSH1 0x3 SWAP1 SWAP3 MUL ADD ADD SLOAD PUSH1 0x1 PUSH1 0x1 PUSH1 0xA0 SHL SUB AND EQ PUSH2 0x1E90 JUMPI PUSH2 0x1F1F JUMP JUMPDEST DUP2 PUSH1 0x1 PUSH1 0x1 PUSH1 0xE0 SHL SUB NOT AND PUSH1 0x1 DUP3 DUP2 SLOAD DUP2 LT PUSH2 0x1EAE JUMPI PUSH2 0x1EAE PUSH2 0x272E JUMP JUMPDEST PUSH1 0x0 SWAP2 DUP3 MSTORE PUSH1 0x20 SWAP1 SWAP2 KECCAK256 PUSH1 0x3 SWAP1 SWAP2 MUL ADD PUSH1 0x1 ADD SLOAD PUSH1 0x1 PUSH1 0xA0 SHL SWAP1 DIV PUSH1 0xE0 SHL PUSH1 0x1 PUSH1 0x1 PUSH1 0xE0 SHL SUB NOT AND EQ PUSH2 0x1EE0 JUMPI PUSH2 0x1F1F JUMP JUMPDEST PUSH1 0x40 MLOAD PUSH3 0x461BCD PUSH1 0xE5 SHL DUP2 MSTORE PUSH1 0x20 PUSH1 0x4 DUP3 ADD MSTORE PUSH1 0x14 PUSH1 0x24 DUP3 ADD MSTORE PUSH20 0x43616C6C20616C72656164792070656E64696E67 PUSH1 0x60 SHL PUSH1 0x44 DUP3 ADD MSTORE PUSH1 0x64 ADD PUSH2 0x309 JUMP JUMPDEST PUSH1 0x1 ADD PUSH2 0x1E42 JUMP JUMPDEST PUSH1 0x60 PUSH2 0x1A14 DUP4 DUP4 PUSH1 0x40 MLOAD DUP1 PUSH1 0x40 ADD PUSH1 0x40 MSTORE DUP1 PUSH1 0x1E DUP2 MSTORE PUSH1 0x20 ADD PUSH32 0x416464726573733A206C6F772D6C6576656C2063616C6C206661696C65640000 DUP2 MSTORE POP PUSH1 0x60 PUSH2 0x1F73 DUP5 DUP5 PUSH1 0x0 DUP6 PUSH2 0x1F7B JUMP JUMPDEST SWAP5 SWAP4 POP POP POP POP JUMP JUMPDEST PUSH1 0x60 DUP3 SELFBALANCE LT ISZERO PUSH2 0x1FDC JUMPI PUSH1 0x40 MLOAD PUSH3 0x461BCD PUSH1 0xE5 SHL DUP2 MSTORE PUSH1 0x20 PUSH1 0x4 DUP3 ADD MSTORE PUSH1 0x26 PUSH1 0x24 DUP3 ADD MSTORE PUSH32 0x416464726573733A20696E73756666696369656E742062616C616E636520666F PUSH1 0x44 DUP3 ADD MSTORE PUSH6 0x1C8818D85B1B PUSH1 0xD2 SHL PUSH1 0x64 DUP3 ADD MSTORE PUSH1 0x84 ADD PUSH2 0x309 JUMP JUMPDEST PUSH1 0x1 PUSH1 0x1 PUSH1 0xA0 SHL SUB DUP6 AND EXTCODESIZE PUSH2 0x2033 JUMPI PUSH1 0x40 MLOAD PUSH3 0x461BCD PUSH1 0xE5 SHL DUP2 MSTORE PUSH1 0x20 PUSH1 0x4 DUP3 ADD MSTORE PUSH1 0x1D PUSH1 0x24 DUP3 ADD MSTORE PUSH32 0x416464726573733A2063616C6C20746F206E6F6E2D636F6E7472616374000000 PUSH1 0x44 DUP3 ADD MSTORE PUSH1 0x64 ADD PUSH2 0x309 JUMP JUMPDEST PUSH1 0x0 DUP1 DUP7 PUSH1 0x1 PUSH1 0x1 PUSH1 0xA0 SHL SUB AND DUP6 DUP8 PUSH1 0x40 MLOAD PUSH2 0x204F SWAP2 SWAP1 PUSH2 0x29A2 JUMP JUMPDEST PUSH1 0x0 PUSH1 0x40 MLOAD DUP1 DUP4 SUB DUP2 DUP6 DUP8 GAS CALL SWAP3 POP POP POP RETURNDATASIZE DUP1 PUSH1 0x0 DUP2 EQ PUSH2 0x208C JUMPI PUSH1 0x40 MLOAD SWAP2 POP PUSH1 0x1F NOT PUSH1 0x3F RETURNDATASIZE ADD AND DUP3 ADD PUSH1 0x40 MSTORE RETURNDATASIZE DUP3 MSTORE RETURNDATASIZE PUSH1 0x0 PUSH1 0x20 DUP5 ADD RETURNDATACOPY PUSH2 0x2091 JUMP JUMPDEST PUSH1 0x60 SWAP2 POP JUMPDEST POP SWAP2 POP SWAP2 POP PUSH2 0x20A1 DUP3 DUP3 DUP7 PUSH2 0x20AC JUMP JUMPDEST SWAP8 SWAP7 POP POP POP POP POP POP POP JUMP JUMPDEST PUSH1 0x60 DUP4 ISZERO PUSH2 0x20BB JUMPI POP DUP2 PUSH2 0x1A14 JUMP JUMPDEST DUP3 MLOAD ISZERO PUSH2 0x20CB JUMPI DUP3 MLOAD DUP1 DUP5 PUSH1 0x20 ADD REVERT JUMPDEST DUP2 PUSH1 0x40 MLOAD PUSH3 0x461BCD PUSH1 0xE5 SHL DUP2 MSTORE PUSH1 0x4 ADD PUSH2 0x309 SWAP2 SWAP1 PUSH2 0x2A0D JUMP JUMPDEST DUP3 DUP1 SLOAD PUSH2 0x20F1 SWAP1 PUSH2 0x2744 JUMP JUMPDEST SWAP1 PUSH1 0x0 MSTORE PUSH1 0x20 PUSH1 0x0 KECCAK256 SWAP1 PUSH1 0x1F ADD PUSH1 0x20 SWAP1 DIV DUP2 ADD SWAP3 DUP3 PUSH2 0x2113 JUMPI PUSH1 0x0 DUP6 SSTORE PUSH2 0x2159 JUMP JUMPDEST DUP3 PUSH1 0x1F LT PUSH2 0x212C JUMPI DUP1 MLOAD PUSH1 0xFF NOT AND DUP4 DUP1 ADD OR DUP6 SSTORE PUSH2 0x2159 JUMP JUMPDEST DUP3 DUP1 ADD PUSH1 0x1 ADD DUP6 SSTORE DUP3 ISZERO PUSH2 0x2159 JUMPI SWAP2 DUP3 ADD JUMPDEST DUP3 DUP2 GT ISZERO PUSH2 0x2159 JUMPI DUP3 MLOAD DUP3 SSTORE SWAP2 PUSH1 0x20 ADD SWAP2 SWAP1 PUSH1 0x1 ADD SWAP1 PUSH2 0x213E JUMP JUMPDEST POP PUSH2 0x2165 SWAP3 SWAP2 POP PUSH2 0x224A JUMP JUMPDEST POP SWAP1 JUMP JUMPDEST PUSH1 0x40 DUP1 MLOAD PUSH1 0xA0 DUP2 ADD DUP3 MSTORE PUSH1 0x0 DUP1 DUP3 MSTORE PUSH1 0x20 DUP3 ADD DUP2 SWAP1 MSTORE SWAP2 DUP2 ADD DUP3 SWAP1 MSTORE PUSH1 0x60 DUP1 DUP3 ADD SWAP3 SWAP1 SWAP3 MSTORE PUSH1 0x80 DUP2 ADD SWAP2 SWAP1 SWAP2 MSTORE SWAP1 JUMP JUMPDEST DUP3 DUP1 SLOAD PUSH2 0x21A5 SWAP1 PUSH2 0x2744 JUMP JUMPDEST SWAP1 PUSH1 0x0 MSTORE PUSH1 0x20 PUSH1 0x0 KECCAK256 SWAP1 PUSH1 0x1F ADD PUSH1 0x20 SWAP1 DIV DUP2 ADD SWAP3 DUP3 PUSH2 0x21C7 JUMPI PUSH1 0x0 DUP6 SSTORE PUSH2 0x2159 JUMP JUMPDEST DUP3 PUSH1 0x1F LT PUSH2 0x21D8 JUMPI DUP1 SLOAD DUP6 SSTORE PUSH2 0x2159 JUMP JUMPDEST DUP3 DUP1 ADD PUSH1 0x1 ADD DUP6 SSTORE DUP3 ISZERO PUSH2 0x2159 JUMPI PUSH1 0x0 MSTORE PUSH1 0x20 PUSH1 0x0 KECCAK256 SWAP2 PUSH1 0x1F ADD PUSH1 0x20 SWAP1 DIV DUP3 ADD JUMPDEST DUP3 DUP2 GT ISZERO PUSH2 0x2159 JUMPI DUP3 SLOAD DUP3 SSTORE SWAP2 PUSH1 0x1 ADD SWAP2 SWAP1 PUSH1 0x1 ADD SWAP1 PUSH2 0x21F9 JUMP JUMPDEST POP DUP1 SLOAD PUSH2 0x2220 SWAP1 PUSH2 0x2744 JUMP JUMPDEST PUSH1 0x0 DUP3 SSTORE DUP1 PUSH1 0x1F LT PUSH2 0x2230 JUMPI POP POP JUMP JUMPDEST PUSH1 0x1F ADD PUSH1 0x20 SWAP1 DIV SWAP1 PUSH1 0x0 MSTORE PUSH1 0x20 PUSH1 0x0 KECCAK256 SWAP1 DUP2 ADD SWAP1 PUSH2 0x17B5 SWAP2 SWAP1 JUMPDEST JUMPDEST DUP1 DUP3 GT ISZERO PUSH2 0x2165 JUMPI PUSH1 0x0 DUP2 SSTORE PUSH1 0x1 ADD PUSH2 0x224B JUMP JUMPDEST DUP1 CALLDATALOAD PUSH1 0x1 PUSH1 0x1 PUSH1 0x40 SHL SUB DUP2 AND DUP2 EQ PUSH2 0x2276 JUMPI PUSH1 0x0 DUP1 REVERT JUMPDEST SWAP2 SWAP1 POP JUMP JUMPDEST PUSH1 0x0 PUSH1 0x20 DUP3 DUP5 SUB SLT ISZERO PUSH2 0x228D JUMPI PUSH1 0x0 DUP1 REVERT JUMPDEST PUSH2 0x1A14 DUP3 PUSH2 0x225F JUMP JUMPDEST DUP1 CALLDATALOAD PUSH1 0x1 PUSH1 0x1 PUSH1 0xA0 SHL SUB DUP2 AND DUP2 EQ PUSH2 0x2276 JUMPI PUSH1 0x0 DUP1 REVERT JUMPDEST PUSH1 0x0 DUP1 DUP4 PUSH1 0x1F DUP5 ADD SLT PUSH2 0x22BF JUMPI PUSH1 0x0 DUP1 REVERT JUMPDEST POP DUP2 CALLDATALOAD PUSH1 0x1 PUSH1 0x1 PUSH1 0x40 SHL SUB DUP2 GT ISZERO PUSH2 0x22D6 JUMPI PUSH1 0x0 DUP1 REVERT JUMPDEST PUSH1 0x20 DUP4 ADD SWAP2 POP DUP4 PUSH1 0x20 DUP3 DUP6 ADD ADD GT ISZERO PUSH2 0x22EE JUMPI PUSH1 0x0 DUP1 REVERT JUMPDEST SWAP3 POP SWAP3 SWAP1 POP JUMP JUMPDEST PUSH1 0x0 DUP1 PUSH1 0x0 DUP1 PUSH1 0x60 DUP6 DUP8 SUB SLT ISZERO PUSH2 0x230B JUMPI PUSH1 0x0 DUP1 REVERT JUMPDEST PUSH2 0x2314 DUP6 PUSH2 0x2296 JUMP JUMPDEST SWAP4 POP PUSH1 0x20 DUP6 ADD CALLDATALOAD PUSH1 0x1 PUSH1 0x1 PUSH1 0x40 SHL SUB DUP2 GT ISZERO PUSH2 0x232F JUMPI PUSH1 0x0 DUP1 REVERT JUMPDEST PUSH2 0x233B DUP8 DUP3 DUP9 ADD PUSH2 0x22AD JUMP JUMPDEST SWAP1 SWAP5 POP SWAP3 POP POP PUSH1 0x40 DUP6 ADD CALLDATALOAD DUP1 ISZERO ISZERO DUP2 EQ PUSH2 0x2354 JUMPI PUSH1 0x0 DUP1 REVERT JUMPDEST SWAP4 SWAP7 SWAP3 SWAP6 POP SWAP1 SWAP4 POP POP JUMP JUMPDEST PUSH1 0x0 JUMPDEST DUP4 DUP2 LT ISZERO PUSH2 0x237A JUMPI DUP2 DUP2 ADD MLOAD DUP4 DUP3 ADD MSTORE PUSH1 0x20 ADD PUSH2 0x2362 JUMP JUMPDEST DUP4 DUP2 GT ISZERO PUSH2 0x2389 JUMPI PUSH1 0x0 DUP5 DUP5 ADD MSTORE JUMPDEST POP POP POP POP JUMP JUMPDEST PUSH1 0x0 DUP2 MLOAD DUP1 DUP5 MSTORE PUSH2 0x23A7 DUP2 PUSH1 0x20 DUP7 ADD PUSH1 0x20 DUP7 ADD PUSH2 0x235F JUMP JUMPDEST PUSH1 0x1F ADD PUSH1 0x1F NOT AND SWAP3 SWAP1 SWAP3 ADD PUSH1 0x20 ADD SWAP3 SWAP2 POP POP JUMP JUMPDEST PUSH1 0x0 PUSH1 0x1 PUSH1 0x1 PUSH1 0x40 SHL SUB DUP1 DUP4 MLOAD AND DUP5 MSTORE DUP1 PUSH1 0x20 DUP5 ADD MLOAD AND PUSH1 0x20 DUP6 ADD MSTORE POP PUSH1 0x1 DUP1 PUSH1 0xA0 SHL SUB PUSH1 0x40 DUP4 ADD MLOAD AND PUSH1 0x40 DUP5 ADD MSTORE PUSH4 0xFFFFFFFF PUSH1 0xE0 SHL PUSH1 0x60 DUP4 ADD MLOAD AND PUSH1 0x60 DUP5 ADD MSTORE PUSH1 0x80 DUP3 ADD MLOAD PUSH1 0xA0 PUSH1 0x80 DUP6 ADD MSTORE PUSH2 0x1F73 PUSH1 0xA0 DUP6 ADD DUP3 PUSH2 0x238F JUMP JUMPDEST PUSH1 0x0 PUSH1 0x20 DUP1 DUP4 ADD DUP2 DUP5 MSTORE DUP1 DUP6 MLOAD DUP1 DUP4 MSTORE PUSH1 0x40 DUP7 ADD SWAP2 POP PUSH1 0x40 DUP2 PUSH1 0x5 SHL DUP8 ADD ADD SWAP3 POP DUP4 DUP8 ADD PUSH1 0x0 JUMPDEST DUP3 DUP2 LT ISZERO PUSH2 0x246B JUMPI PUSH1 0x3F NOT DUP9 DUP7 SUB ADD DUP5 MSTORE PUSH2 0x2459 DUP6 DUP4 MLOAD PUSH2 0x23BB JUMP JUMPDEST SWAP5 POP SWAP3 DUP6 ADD SWAP3 SWAP1 DUP6 ADD SWAP1 PUSH1 0x1 ADD PUSH2 0x243D JUMP JUMPDEST POP SWAP3 SWAP8 SWAP7 POP POP POP POP POP POP POP JUMP JUMPDEST PUSH1 0x20 DUP2 MSTORE PUSH1 0x0 PUSH2 0x1A14 PUSH1 0x20 DUP4 ADD DUP5 PUSH2 0x23BB JUMP JUMPDEST PUSH4 0x4E487B71 PUSH1 0xE0 SHL PUSH1 0x0 MSTORE PUSH1 0x41 PUSH1 0x4 MSTORE PUSH1 0x24 PUSH1 0x0 REVERT JUMPDEST PUSH1 0xA0 DUP2 ADD DUP2 DUP2 LT PUSH1 0x1 PUSH1 0x1 PUSH1 0x40 SHL SUB DUP3 GT OR ISZERO PUSH2 0x24C0 JUMPI PUSH2 0x24C0 PUSH2 0x248B JUMP JUMPDEST PUSH1 0x40 MSTORE POP JUMP JUMPDEST PUSH1 0x1F DUP3 ADD PUSH1 0x1F NOT AND DUP2 ADD PUSH1 0x1 PUSH1 0x1 PUSH1 0x40 SHL SUB DUP2 GT DUP3 DUP3 LT OR ISZERO PUSH2 0x24EB JUMPI PUSH2 0x24EB PUSH2 0x248B JUMP JUMPDEST PUSH1 0x40 MSTORE POP POP JUMP JUMPDEST DUP1 CALLDATALOAD PUSH1 0x1 PUSH1 0x1 PUSH1 0xE0 SHL SUB NOT DUP2 AND DUP2 EQ PUSH2 0x2276 JUMPI PUSH1 0x0 DUP1 REVERT JUMPDEST PUSH1 0x0 PUSH1 0x20 DUP1 DUP4 DUP6 SUB SLT ISZERO PUSH2 0x251D JUMPI PUSH1 0x0 DUP1 REVERT JUMPDEST DUP3 CALLDATALOAD PUSH1 0x1 PUSH1 0x1 PUSH1 0x40 SHL SUB DUP1 DUP3 GT ISZERO PUSH2 0x2534 JUMPI PUSH1 0x0 DUP1 REVERT JUMPDEST SWAP1 DUP5 ADD SWAP1 PUSH1 0xA0 DUP3 DUP8 SUB SLT ISZERO PUSH2 0x2548 JUMPI PUSH1 0x0 DUP1 REVERT JUMPDEST PUSH1 0x40 MLOAD PUSH2 0x2554 DUP2 PUSH2 0x24A1 JUMP JUMPDEST PUSH2 0x255D DUP4 PUSH2 0x225F JUMP JUMPDEST DUP2 MSTORE PUSH2 0x256A DUP5 DUP5 ADD PUSH2 0x225F JUMP JUMPDEST DUP5 DUP3 ADD MSTORE PUSH2 0x257A PUSH1 0x40 DUP5 ADD PUSH2 0x2296 JUMP JUMPDEST PUSH1 0x40 DUP3 ADD MSTORE PUSH2 0x258B PUSH1 0x60 DUP5 ADD PUSH2 0x24F2 JUMP JUMPDEST PUSH1 0x60 DUP3 ADD MSTORE PUSH1 0x80 DUP4 ADD CALLDATALOAD DUP3 DUP2 GT ISZERO PUSH2 0x25A2 JUMPI PUSH1 0x0 DUP1 REVERT JUMPDEST DUP1 DUP5 ADD SWAP4 POP POP DUP7 PUSH1 0x1F DUP5 ADD SLT PUSH2 0x25B7 JUMPI PUSH1 0x0 DUP1 REVERT JUMPDEST DUP3 CALLDATALOAD DUP3 DUP2 GT ISZERO PUSH2 0x25C9 JUMPI PUSH2 0x25C9 PUSH2 0x248B JUMP JUMPDEST PUSH1 0x40 MLOAD SWAP3 POP PUSH2 0x25E1 PUSH1 0x1F DUP3 ADD PUSH1 0x1F NOT AND DUP7 ADD DUP5 PUSH2 0x24C6 JUMP JUMPDEST DUP1 DUP4 MSTORE DUP8 DUP6 DUP3 DUP7 ADD ADD GT ISZERO PUSH2 0x25F5 JUMPI PUSH1 0x0 DUP1 REVERT JUMPDEST DUP1 DUP6 DUP6 ADD DUP7 DUP6 ADD CALLDATACOPY PUSH1 0x0 SWAP1 DUP4 ADD SWAP1 SWAP5 ADD SWAP4 SWAP1 SWAP4 MSTORE PUSH1 0x80 DUP4 ADD MSTORE POP SWAP4 SWAP3 POP POP POP JUMP JUMPDEST PUSH1 0x0 DUP1 PUSH1 0x0 PUSH1 0x60 DUP5 DUP7 SUB SLT ISZERO PUSH2 0x262B JUMPI PUSH1 0x0 DUP1 REVERT JUMPDEST PUSH2 0x2634 DUP5 PUSH2 0x2296 JUMP JUMPDEST SWAP3 POP PUSH2 0x2642 PUSH1 0x20 DUP6 ADD PUSH2 0x24F2 JUMP JUMPDEST SWAP2 POP PUSH2 0x2650 PUSH1 0x40 DUP6 ADD PUSH2 0x225F JUMP JUMPDEST SWAP1 POP SWAP3 POP SWAP3 POP SWAP3 JUMP JUMPDEST PUSH1 0x0 DUP1 PUSH1 0x0 PUSH1 0x40 DUP5 DUP7 SUB SLT ISZERO PUSH2 0x266E JUMPI PUSH1 0x0 DUP1 REVERT JUMPDEST PUSH2 0x2677 DUP5 PUSH2 0x2296 JUMP JUMPDEST SWAP3 POP PUSH1 0x20 DUP5 ADD CALLDATALOAD PUSH1 0x1 PUSH1 0x1 PUSH1 0x40 SHL SUB DUP2 GT ISZERO PUSH2 0x2692 JUMPI PUSH1 0x0 DUP1 REVERT JUMPDEST PUSH2 0x269E DUP7 DUP3 DUP8 ADD PUSH2 0x22AD JUMP JUMPDEST SWAP5 SWAP8 SWAP1 SWAP7 POP SWAP4 SWAP5 POP POP POP POP JUMP JUMPDEST PUSH1 0x0 DUP1 PUSH1 0x40 DUP4 DUP6 SUB SLT ISZERO PUSH2 0x26BE JUMPI PUSH1 0x0 DUP1 REVERT JUMPDEST PUSH2 0x26C7 DUP4 PUSH2 0x2296 JUMP JUMPDEST SWAP2 POP PUSH2 0x26D5 PUSH1 0x20 DUP5 ADD PUSH2 0x24F2 JUMP JUMPDEST SWAP1 POP SWAP3 POP SWAP3 SWAP1 POP JUMP JUMPDEST PUSH1 0x0 PUSH1 0x20 DUP3 DUP5 SUB SLT ISZERO PUSH2 0x26F0 JUMPI PUSH1 0x0 DUP1 REVERT JUMPDEST PUSH2 0x1A14 DUP3 PUSH2 0x2296 JUMP JUMPDEST PUSH1 0x20 DUP1 DUP3 MSTORE DUP2 DUP2 ADD MSTORE PUSH32 0x4F776E61626C653A2063616C6C6572206973206E6F7420746865206F776E6572 PUSH1 0x40 DUP3 ADD MSTORE PUSH1 0x60 ADD SWAP1 JUMP JUMPDEST PUSH4 0x4E487B71 PUSH1 0xE0 SHL PUSH1 0x0 MSTORE PUSH1 0x32 PUSH1 0x4 MSTORE PUSH1 0x24 PUSH1 0x0 REVERT JUMPDEST PUSH1 0x1 DUP2 DUP2 SHR SWAP1 DUP3 AND DUP1 PUSH2 0x2758 JUMPI PUSH1 0x7F DUP3 AND SWAP2 POP JUMPDEST PUSH1 0x20 DUP3 LT DUP2 EQ ISZERO PUSH2 0x2779 JUMPI PUSH4 0x4E487B71 PUSH1 0xE0 SHL PUSH1 0x0 MSTORE PUSH1 0x22 PUSH1 0x4 MSTORE PUSH1 0x24 PUSH1 0x0 REVERT JUMPDEST POP SWAP2 SWAP1 POP JUMP JUMPDEST PUSH4 0x4E487B71 PUSH1 0xE0 SHL PUSH1 0x0 MSTORE PUSH1 0x11 PUSH1 0x4 MSTORE PUSH1 0x24 PUSH1 0x0 REVERT JUMPDEST PUSH1 0x0 PUSH1 0x1 PUSH1 0x1 PUSH1 0x40 SHL SUB DUP1 DUP4 AND DUP2 DUP2 EQ ISZERO PUSH2 0x27B2 JUMPI PUSH2 0x27B2 PUSH2 0x277F JUMP JUMPDEST PUSH1 0x1 ADD SWAP4 SWAP3 POP POP POP JUMP JUMPDEST PUSH1 0x0 PUSH1 0x1 PUSH1 0x1 PUSH1 0x40 SHL SUB DUP1 DUP4 AND DUP2 DUP6 AND DUP1 DUP4 SUB DUP3 GT ISZERO PUSH2 0x27DE JUMPI PUSH2 0x27DE PUSH2 0x277F JUMP JUMPDEST ADD SWAP5 SWAP4 POP POP POP POP JUMP JUMPDEST PUSH1 0x1 PUSH1 0x1 PUSH1 0xA0 SHL SUB SWAP4 SWAP1 SWAP4 AND DUP4 MSTORE PUSH1 0x1 PUSH1 0x1 PUSH1 0xE0 SHL SUB NOT SWAP2 SWAP1 SWAP2 AND PUSH1 0x20 DUP4 ADD MSTORE PUSH1 0x1 PUSH1 0x1 PUSH1 0x40 SHL SUB AND PUSH1 0x40 DUP3 ADD MSTORE PUSH1 0x60 ADD SWAP1 JUMP JUMPDEST PUSH1 0x0 PUSH1 0x0 NOT DUP3 EQ ISZERO PUSH2 0x282F JUMPI PUSH2 0x282F PUSH2 0x277F JUMP JUMPDEST POP PUSH1 0x1 ADD SWAP1 JUMP JUMPDEST PUSH1 0x1 PUSH1 0x1 PUSH1 0xA0 SHL SUB DUP5 AND DUP2 MSTORE PUSH1 0x40 PUSH1 0x20 DUP3 ADD DUP2 SWAP1 MSTORE DUP2 ADD DUP3 SWAP1 MSTORE DUP2 DUP4 PUSH1 0x60 DUP4 ADD CALLDATACOPY PUSH1 0x0 DUP2 DUP4 ADD PUSH1 0x60 SWAP1 DUP2 ADD SWAP2 SWAP1 SWAP2 MSTORE PUSH1 0x1F SWAP1 SWAP3 ADD PUSH1 0x1F NOT AND ADD ADD SWAP3 SWAP2 POP POP JUMP JUMPDEST PUSH1 0x0 DUP3 DUP3 LT ISZERO PUSH2 0x2888 JUMPI PUSH2 0x2888 PUSH2 0x277F JUMP JUMPDEST POP SUB SWAP1 JUMP JUMPDEST PUSH4 0x4E487B71 PUSH1 0xE0 SHL PUSH1 0x0 MSTORE PUSH1 0x31 PUSH1 0x4 MSTORE PUSH1 0x24 PUSH1 0x0 REVERT JUMPDEST PUSH1 0x0 DUP1 DUP6 DUP6 GT ISZERO PUSH2 0x28B3 JUMPI PUSH1 0x0 DUP1 REVERT JUMPDEST DUP4 DUP7 GT ISZERO PUSH2 0x28C0 JUMPI PUSH1 0x0 DUP1 REVERT JUMPDEST POP POP DUP3 ADD SWAP4 SWAP2 SWAP1 SWAP3 SUB SWAP2 POP JUMP JUMPDEST PUSH1 0x1 PUSH1 0x1 PUSH1 0xE0 SHL SUB NOT DUP2 CALLDATALOAD DUP2 DUP2 AND SWAP2 PUSH1 0x4 DUP6 LT ISZERO PUSH2 0x28F5 JUMPI DUP1 DUP2 DUP7 PUSH1 0x4 SUB PUSH1 0x3 SHL SHL DUP4 AND AND SWAP3 POP JUMPDEST POP POP SWAP3 SWAP2 POP POP JUMP JUMPDEST PUSH1 0x0 PUSH1 0x3 RETURNDATASIZE GT ISZERO PUSH2 0x2916 JUMPI PUSH1 0x4 PUSH1 0x0 DUP1 RETURNDATACOPY POP PUSH1 0x0 MLOAD PUSH1 0xE0 SHR JUMPDEST SWAP1 JUMP JUMPDEST PUSH1 0x0 PUSH1 0x44 RETURNDATASIZE LT ISZERO PUSH2 0x2927 JUMPI SWAP1 JUMP JUMPDEST PUSH1 0x40 MLOAD PUSH1 0x3 NOT RETURNDATASIZE DUP2 ADD PUSH1 0x4 DUP4 RETURNDATACOPY DUP2 MLOAD RETURNDATASIZE PUSH1 0x1 PUSH1 0x1 PUSH1 0x40 SHL SUB DUP2 PUSH1 0x24 DUP5 ADD GT DUP2 DUP5 GT OR ISZERO PUSH2 0x2956 JUMPI POP POP POP POP POP SWAP1 JUMP JUMPDEST DUP3 DUP6 ADD SWAP2 POP DUP2 MLOAD DUP2 DUP2 GT ISZERO PUSH2 0x296E JUMPI POP POP POP POP POP POP SWAP1 JUMP JUMPDEST DUP5 RETURNDATASIZE DUP8 ADD ADD PUSH1 0x20 DUP3 DUP6 ADD ADD GT ISZERO PUSH2 0x2988 JUMPI POP POP POP POP POP POP SWAP1 JUMP JUMPDEST PUSH2 0x2997 PUSH1 0x20 DUP3 DUP7 ADD ADD DUP8 PUSH2 0x24C6 JUMP JUMPDEST POP SWAP1 SWAP6 SWAP5 POP POP POP POP POP JUMP JUMPDEST PUSH1 0x0 DUP3 MLOAD PUSH2 0x29B4 DUP2 DUP5 PUSH1 0x20 DUP8 ADD PUSH2 0x235F JUMP JUMPDEST SWAP2 SWAP1 SWAP2 ADD SWAP3 SWAP2 POP POP JUMP JUMPDEST PUSH32 0x43616C6C20776F756C6420726576657274207768656E2065786563757465643A DUP2 MSTORE PUSH1 0x1 PUSH1 0xFD SHL PUSH1 0x20 DUP3 ADD MSTORE PUSH1 0x0 DUP3 MLOAD PUSH2 0x2A00 DUP2 PUSH1 0x21 DUP6 ADD PUSH1 0x20 DUP8 ADD PUSH2 0x235F JUMP JUMPDEST SWAP2 SWAP1 SWAP2 ADD PUSH1 0x21 ADD SWAP3 SWAP2 POP POP JUMP JUMPDEST PUSH1 0x20 DUP2 MSTORE PUSH1 0x0 PUSH2 0x1A14 PUSH1 0x20 DUP4 ADD DUP5 PUSH2 0x238F JUMP INVALID LOG2 PUSH5 0x6970667358 0x22 SLT KECCAK256 0xA5 0xC6 0xE 0xA9 0xE0 OR 0xAC DUP11 0x5D ADD DELEGATECALL PUSH9 0x38D1996CC859514F59 0xE7 0xA7 0xB0 STATICCALL SUB 0x2D DUP5 JUMPDEST GAS 0xD7 PUSH17 0x64736F6C634300080A0033000000000000 ","sha1":"34633bc9305d6d87d71e03b37d510d1d9c35f77b","source":"// SPDX-License-Identifier: GPL-3.0-or-later\npragma solidity 0.8.10;\n\nimport \"@openzeppelin/contracts/access/Ownable.sol\";\nimport \"@openzeppelin/contracts/utils/Address.sol\";\n\nimport \"../../libraries/UncheckedMath.sol\";\nimport \"../../interfaces/access/IGovernanceTimelock.sol\";\n\ncontract GovernanceTimelock is IGovernanceTimelock, Ownable {\n    using UncheckedMath for uint256;\n    using Address for address;\n\n    Call[] internal _pendingCalls; // Calls that have not yet been executed or cancelled\n    Call[] internal _executedCalls; // Calls that have been executed\n    Call[] internal _cancelledCalls; // Calls that have been cancelled\n\n    uint64 public totalCalls; // The total number of calls that have been prepared, executed, or cancelled\n    mapping(address => mapping(bytes4 => uint64)) public delays; // The delay for each target and selector\n\n    event CallPrepared(uint64 id); // Emitted when a call is prepared\n    event CallExecuted(uint64 id); // Emitted when a call is executed\n    event CallCancelled(uint64 id); // Emitted when a call is cancelled\n    event CallQuickExecuted(address target, bytes data); // Emitted when a call is executed without a delay\n    event DelaySet(address target, bytes4 selector, uint64 delay); // Emitted when a delay is set\n    event DelayUpdated(address target, bytes4 selector, uint64 delay); // Emitted when a delay is updated\n\n    modifier onlySelf() {\n        require(msg.sender == address(this), \"Must be called via timelock\");\n        _;\n    }\n\n    /**\n     * @notice Used for validating if a call is valid.\n     * @dev Can only be called internally, do not use.\n     */\n    function testCall(Call memory call_) external {\n        require(msg.sender == address(this), \"Only callable by this contract\");\n        _executeCall(call_);\n        revert(\"OK\");\n    }\n\n    /**\n     * @notice Prepares a call for being executed.\n     * @param target_ The contract to call.\n     * @param data_ The data for the call.\n     * @param validateCall_ If the call should be validated (i.e. checks if it will revert when executing).\n     */\n    function prepareCall(\n        address target_,\n        bytes calldata data_,\n        bool validateCall_\n    ) public override onlyOwner {\n        Call memory call_ = _createCall(target_, data_);\n        if (validateCall_) _validateCallIsExecutable(call_);\n        _pendingCalls.push(call_);\n        totalCalls++;\n        emit CallPrepared(call_.id);\n    }\n\n    /**\n     * @notice Executes a call.\n     * @param id_ The id of the call to execute.\n     */\n    function executeCall(uint64 id_) public override {\n        uint256 index_ = pendingCallIndex(id_);\n        Call memory call_ = _pendingCalls[index_];\n        require(call_.prepared + _getDelay(call_) <= block.timestamp, \"Call not ready\");\n        _executeCall(call_);\n        _removePendingCall(index_);\n        _executedCalls.push(call_);\n        emit CallExecuted(id_);\n    }\n\n    /**\n     * @notice Cancels a call.\n     * @param id_ The id of the call to cancel.\n     */\n    function cancelCall(uint64 id_) public override onlyOwner {\n        uint256 index_ = pendingCallIndex(id_);\n        Call memory call_ = _pendingCalls[index_];\n        _removePendingCall(index_);\n        _cancelledCalls.push(call_);\n        emit CallCancelled(id_);\n    }\n\n    /**\n     * @notice Executes a call without a delay.\n     * @param target_ The contract to call.\n     * @param data_ The data for the call.\n     */\n    function quickExecuteCall(address target_, bytes calldata data_) public override onlyOwner {\n        Call memory call_ = _createCall(target_, data_);\n        require(_getDelay(call_) == 0, \"Call has a delay\");\n        _executeCall(call_);\n        emit CallQuickExecuted(target_, data_);\n    }\n\n    /**\n     * @notice Sets the delay for a given target and selector.\n     * @param target_ The contract to set the delay for.\n     * @param selector_ The selector to set the delay for.\n     * @param delay_ The delay to set.\n     */\n    function setDelay(\n        address target_,\n        bytes4 selector_,\n        uint64 delay_\n    ) public override onlyOwner {\n        require(delays[target_][selector_] == 0, \"Delay already set\");\n        _updateDelay(target_, selector_, delay_);\n        emit DelaySet(target_, selector_, delay_);\n    }\n\n    /**\n     * @notice Updates the delay for a given target and selector.\n     * @param target_ The contract to update the delay for.\n     * @param selector_ The selector to update the delay for.\n     * @param delay_ The delay to update.\n     */\n    function updateDelay(\n        address target_,\n        bytes4 selector_,\n        uint64 delay_\n    ) public override onlySelf {\n        require(delays[target_][selector_] != 0, \"Delay not already set\");\n        _updateDelay(target_, selector_, delay_);\n        emit DelayUpdated(target_, selector_, delay_);\n    }\n\n    /**\n     * @notice Returns the list of pending calls.\n     * @return calls The list of pending calls.\n     */\n    function pendingCalls() public view override returns (Call[] memory calls) {\n        return _pendingCalls;\n    }\n\n    /**\n     * @notice Returns the list of executed calls.\n     * @return calls The list of executed calls.\n     */\n    function executedCalls() public view override returns (Call[] memory calls) {\n        return _executedCalls;\n    }\n\n    /**\n     * @notice Returns the list of cancelled calls.\n     * @return calls The list of cancelled calls.\n     */\n    function cancelledCalls() public view override returns (Call[] memory calls) {\n        return _cancelledCalls;\n    }\n\n    /**\n     * @notice Returns the list of ready calls.\n     * @dev View is expensive, best to only call for off-chain use.\n     * @return calls The list of ready calls.\n     */\n    function readyCalls() public view override returns (Call[] memory calls) {\n        Call[] memory calls_ = new Call[](_pendingCalls.length);\n        uint256 readyCount_;\n        for (uint256 i = 0; i < _pendingCalls.length; i++) {\n            Call memory call_ = _pendingCalls[i];\n            if (call_.prepared + _getDelay(call_) <= block.timestamp) {\n                calls_[i] = call_;\n                readyCount_++;\n            }\n        }\n        return _shortenCalls(calls_, readyCount_);\n    }\n\n    /**\n     * @notice Returns the list of not-ready calls.\n     * @dev View is expensive, best to only call for off-chain use.\n     * @return calls The list of not-ready calls.\n     */\n    function notReadyCalls() public view override returns (Call[] memory calls) {\n        Call[] memory calls_ = new Call[](_pendingCalls.length);\n        uint256 readyCount_;\n        for (uint256 i = 0; i < _pendingCalls.length; i++) {\n            Call memory call_ = _pendingCalls[i];\n            if (call_.prepared + _getDelay(call_) > block.timestamp) {\n                calls_[i] = call_;\n                readyCount_++;\n            }\n        }\n        return _shortenCalls(calls_, readyCount_);\n    }\n\n    /**\n     * @notice Returns the index of a given pending call id.\n     * @param id_ The id of the pending call to return the index for.\n     * @return index The index of the given pending call id.\n     */\n    function pendingCallIndex(uint64 id_) public view override returns (uint256 index) {\n        for (uint256 i; i < _pendingCalls.length; i = i.uncheckedInc()) {\n            if (_pendingCalls[i].id == id_) return i;\n        }\n        revert(\"Call not found\");\n    }\n\n    /**\n     * @notice Returns the call of a given pending call id.\n     * @param id_ The id of the pending call to return the call for.\n     * @return call The call of the given pending call id.\n     */\n    function pendingCall(uint64 id_) public view override returns (Call memory call) {\n        return _pendingCalls[pendingCallIndex(id_)];\n    }\n\n    /**\n     * @notice Returns the delay of a given pending call id.\n     * @param id_ The id of the pending call to return the delay for.\n     * @return call The delay of the given pending call id.\n     */\n    function pendingCallDelay(uint64 id_) public view override returns (uint64) {\n        return _getDelay(pendingCall(id_));\n    }\n\n    function _validateCallIsExecutable(Call memory call_) internal {\n        uint256 size;\n        address target_ = call_.target;\n        // solhint-disable-next-line no-inline-assembly\n        assembly {\n            size := extcodesize(target_)\n        }\n        if (size == 0) revert(\"Call would revert when executed: invalid contract\");\n        try this.testCall(call_) {\n            revert(\"Error validating call\");\n        } catch Error(string memory msg_) {\n            if (keccak256(abi.encodePacked(msg_)) == keccak256(abi.encodePacked(\"OK\"))) return;\n            revert(string(abi.encodePacked(\"Call would revert when executed: \", msg_)));\n        }\n    }\n\n    function _executeCall(Call memory call_) internal {\n        call_.target.functionCall(call_.data);\n    }\n\n    function _removePendingCall(uint256 index_) internal {\n        _pendingCalls[index_] = _pendingCalls[_pendingCalls.length - 1];\n        _pendingCalls.pop();\n    }\n\n    function _updateDelay(\n        address target_,\n        bytes4 selector_,\n        uint64 delay_\n    ) internal {\n        require(target_ != address(0), \"Zero address not allowed\");\n        delays[target_][selector_] = delay_;\n    }\n\n    function _createCall(address target_, bytes calldata data_)\n        internal\n        view\n        returns (Call memory)\n    {\n        require(target_ != address(0), \"Zero address not allowed\");\n        bytes4 selector_ = bytes4(data_[:4]);\n        _validatePendingCallIsUnique(target_, selector_);\n        Call memory call_ = Call({\n            id: totalCalls,\n            prepared: uint64(block.timestamp),\n            target: target_,\n            selector: selector_,\n            data: data_\n        });\n        return call_;\n    }\n\n    function _validatePendingCallIsUnique(address target_, bytes4 selector_) internal view {\n        if (target_ == address(this)) return;\n        for (uint256 i; i < _pendingCalls.length; i = i.uncheckedInc()) {\n            if (_pendingCalls[i].target != target_) continue;\n            if (_pendingCalls[i].selector != selector_) continue;\n            revert(\"Call already pending\");\n        }\n    }\n\n    function _getDelay(Call memory call_) internal view returns (uint64) {\n        address target = call_.target;\n        bytes4 selector = call_.selector;\n\n        if (call_.selector == this.updateDelay.selector) {\n            bytes memory callData = call_.data;\n            // solhint-disable-next-line no-inline-assembly\n            assembly {\n                target := mload(add(callData, 36)) // skip bytes length and selector\n                selector := mload(add(callData, 68)) // skip bytes length, selector, and target\n            }\n        }\n\n        return delays[target][selector];\n    }\n\n    function _shortenCalls(Call[] memory calls_, uint256 length_)\n        internal\n        pure\n        returns (Call[] memory)\n    {\n        Call[] memory shortened_ = new Call[](length_);\n        for (uint256 i; i < length_; i = i.uncheckedInc()) {\n            shortened_[i] = calls_[i];\n        }\n        return shortened_;\n    }\n}\n","sourcePath":"contracts/access/GovernanceTimelock.sol","type":"contract","deployment":{"address":"0x4586B68DBf365DbA951122a3922F7E9493b88e30","chainid":"1","blockHeight":15346207}}