{"abi":[{"inputs":[{"internalType":"contract IController","name":"controller","type":"address"}],"stateMutability":"nonpayable","type":"constructor","name":"constructor"},{"anonymous":false,"inputs":[],"name":"AllFundsWithdrawn","type":"event"},{"anonymous":false,"inputs":[{"indexed":false,"internalType":"uint256","name":"bound","type":"uint256"}],"name":"BoundUpdated","type":"event"},{"anonymous":false,"inputs":[{"indexed":false,"internalType":"uint256","name":"debtLimit","type":"uint256"}],"name":"DebtLimitUpdated","type":"event"},{"anonymous":false,"inputs":[{"indexed":true,"internalType":"uint256","name":"netProfit","type":"uint256"},{"indexed":true,"internalType":"uint256","name":"loss","type":"uint256"}],"name":"Harvest","type":"event"},{"anonymous":false,"inputs":[{"indexed":false,"internalType":"uint256","name":"performanceFee","type":"uint256"}],"name":"PerformanceFeeUpdated","type":"event"},{"anonymous":false,"inputs":[{"indexed":false,"internalType":"uint256","name":"reserveFee","type":"uint256"}],"name":"ReserveFeeUpdated","type":"event"},{"anonymous":false,"inputs":[{"indexed":false,"internalType":"uint256","name":"strategistFee","type":"uint256"}],"name":"StrategistFeeUpdated","type":"event"},{"anonymous":false,"inputs":[{"indexed":true,"internalType":"address","name":"strategy","type":"address"}],"name":"StrategyActivated","type":"event"},{"anonymous":false,"inputs":[{"indexed":true,"internalType":"address","name":"strategy","type":"address"}],"name":"StrategyDeactivated","type":"event"},{"anonymous":false,"inputs":[{"indexed":false,"internalType":"address","name":"newStrategy","type":"address"}],"name":"StrategyUpdated","type":"event"},{"anonymous":false,"inputs":[{"indexed":false,"internalType":"uint256","name":"targetAllocation","type":"uint256"}],"name":"TargetAllocationUpdated","type":"event"},{"inputs":[],"name":"MAX_DEVIATION_BOUND","outputs":[{"internalType":"uint256","name":"","type":"uint256"}],"stateMutability":"view","type":"function"},{"inputs":[],"name":"MAX_PERFORMANCE_FEE","outputs":[{"internalType":"uint256","name":"","type":"uint256"}],"stateMutability":"view","type":"function"},{"inputs":[],"name":"STRATEGY_DELAY","outputs":[{"internalType":"uint256","name":"","type":"uint256"}],"stateMutability":"view","type":"function"},{"inputs":[],"name":"activateStrategy","outputs":[{"internalType":"bool","name":"","type":"bool"}],"stateMutability":"nonpayable","type":"function"},{"inputs":[],"name":"addressProvider","outputs":[{"internalType":"contract IAddressProvider","name":"","type":"address"}],"stateMutability":"view","type":"function"},{"inputs":[],"name":"bound","outputs":[{"internalType":"uint256","name":"","type":"uint256"}],"stateMutability":"view","type":"function"},{"inputs":[],"name":"controller","outputs":[{"internalType":"contract IController","name":"","type":"address"}],"stateMutability":"view","type":"function"},{"inputs":[],"name":"currentAllocated","outputs":[{"internalType":"uint256","name":"","type":"uint256"}],"stateMutability":"view","type":"function"},{"inputs":[],"name":"deactivateStrategy","outputs":[{"internalType":"bool","name":"","type":"bool"}],"stateMutability":"nonpayable","type":"function"},{"inputs":[],"name":"debtLimit","outputs":[{"internalType":"uint256","name":"","type":"uint256"}],"stateMutability":"view","type":"function"},{"inputs":[],"name":"deposit","outputs":[],"stateMutability":"payable","type":"function"},{"inputs":[{"internalType":"address","name":"strategy_","type":"address"}],"name":"getAllocatedToStrategyWaitingForRemoval","outputs":[{"internalType":"uint256","name":"","type":"uint256"}],"stateMutability":"view","type":"function"},{"inputs":[],"name":"getStrategiesWaitingForRemoval","outputs":[{"internalType":"address[]","name":"","type":"address[]"}],"stateMutability":"view","type":"function"},{"inputs":[],"name":"getTotalUnderlying","outputs":[{"internalType":"uint256","name":"","type":"uint256"}],"stateMutability":"view","type":"function"},{"inputs":[],"name":"getUnderlying","outputs":[{"internalType":"address","name":"","type":"address"}],"stateMutability":"pure","type":"function"},{"inputs":[],"name":"harvest","outputs":[{"internalType":"bool","name":"","type":"bool"}],"stateMutability":"nonpayable","type":"function"},{"inputs":[{"internalType":"address","name":"_pool","type":"address"},{"internalType":"uint256","name":"_debtLimit","type":"uint256"},{"internalType":"uint256","name":"_targetAllocation","type":"uint256"},{"internalType":"uint256","name":"_bound","type":"uint256"}],"name":"initialize","outputs":[],"stateMutability":"nonpayable","type":"function"},{"inputs":[{"internalType":"address","name":"strategy_","type":"address"}],"name":"initializeStrategy","outputs":[],"stateMutability":"nonpayable","type":"function"},{"inputs":[],"name":"performanceFee","outputs":[{"internalType":"uint256","name":"","type":"uint256"}],"stateMutability":"view","type":"function"},{"inputs":[],"name":"pool","outputs":[{"internalType":"address","name":"","type":"address"}],"stateMutability":"view","type":"function"},{"inputs":[],"name":"reserveFee","outputs":[{"internalType":"uint256","name":"","type":"uint256"}],"stateMutability":"view","type":"function"},{"inputs":[],"name":"roleManager","outputs":[{"internalType":"contract IRoleManager","name":"","type":"address"}],"stateMutability":"view","type":"function"},{"inputs":[],"name":"shutdownStrategy","outputs":[],"stateMutability":"nonpayable","type":"function"},{"inputs":[],"name":"strategistFee","outputs":[{"internalType":"uint256","name":"","type":"uint256"}],"stateMutability":"view","type":"function"},{"inputs":[],"name":"strategy","outputs":[{"internalType":"contract IStrategy","name":"","type":"address"}],"stateMutability":"view","type":"function"},{"inputs":[],"name":"strategyActive","outputs":[{"internalType":"bool","name":"","type":"bool"}],"stateMutability":"view","type":"function"},{"inputs":[],"name":"targetAllocation","outputs":[{"internalType":"uint256","name":"","type":"uint256"}],"stateMutability":"view","type":"function"},{"inputs":[],"name":"totalDebt","outputs":[{"internalType":"uint256","name":"","type":"uint256"}],"stateMutability":"view","type":"function"},{"inputs":[{"internalType":"uint256","name":"bound_","type":"uint256"}],"name":"updateBound","outputs":[],"stateMutability":"nonpayable","type":"function"},{"inputs":[{"internalType":"uint256","name":"debtLimit_","type":"uint256"}],"name":"updateDebtLimit","outputs":[],"stateMutability":"nonpayable","type":"function"},{"inputs":[{"internalType":"uint256","name":"performanceFee_","type":"uint256"}],"name":"updatePerformanceFee","outputs":[],"stateMutability":"nonpayable","type":"function"},{"inputs":[{"internalType":"uint256","name":"reserveFee_","type":"uint256"}],"name":"updateReserveFee","outputs":[],"stateMutability":"nonpayable","type":"function"},{"inputs":[{"internalType":"uint256","name":"strategistFee_","type":"uint256"}],"name":"updateStrategistFee","outputs":[],"stateMutability":"nonpayable","type":"function"},{"inputs":[{"internalType":"address","name":"newStrategy_","type":"address"}],"name":"updateStrategy","outputs":[],"stateMutability":"nonpayable","type":"function"},{"inputs":[{"internalType":"uint256","name":"targetAllocation_","type":"uint256"}],"name":"updateTargetAllocation","outputs":[],"stateMutability":"nonpayable","type":"function"},{"inputs":[],"name":"waitingForRemovalAllocated","outputs":[{"internalType":"uint256","name":"","type":"uint256"}],"stateMutability":"view","type":"function"},{"inputs":[{"internalType":"uint256","name":"amount","type":"uint256"}],"name":"withdraw","outputs":[{"internalType":"bool","name":"","type":"bool"}],"stateMutability":"nonpayable","type":"function"},{"inputs":[],"name":"withdrawAllFromStrategy","outputs":[{"internalType":"bool","name":"","type":"bool"}],"stateMutability":"nonpayable","type":"function"},{"inputs":[],"name":"withdrawAvailableToPool","outputs":[],"stateMutability":"nonpayable","type":"function"},{"inputs":[{"internalType":"uint256","name":"amount","type":"uint256"}],"name":"withdrawFromReserve","outputs":[],"stateMutability":"nonpayable","type":"function"},{"inputs":[{"internalType":"uint256","name":"amount","type":"uint256"}],"name":"withdrawFromStrategy","outputs":[{"internalType":"bool","name":"","type":"bool"}],"stateMutability":"nonpayable","type":"function"},{"inputs":[{"internalType":"address","name":"strategy_","type":"address"}],"name":"withdrawFromStrategyWaitingForRemoval","outputs":[{"internalType":"uint256","name":"","type":"uint256"}],"stateMutability":"nonpayable","type":"function"},{"stateMutability":"payable","type":"receive"}],"bytecode":"60e060405267016345785d8a0000603c55662386f26fc10000603f553480156200002857600080fd5b5060405162003fa838038062003fa88339810160408190526200004b91620001fa565b80620000cf816001600160a01b0316632954018c6040518163ffffffff1660e01b8152600401602060405180830381865afa1580156200008f573d6000803e3d6000fd5b505050506040513d601f19601f82011682018060405250810190620000b59190620001fa565b6001600160a01b03166200015f60201b620024a91760201c565b6001600160a01b03908116608052811660a081905260408051630a55006360e21b8152905160009291632954018c9160048083019260209291908290030181865afa15801562000123573d6000803e3d6000fd5b505050506040513d601f19601f82011682018060405250810190620001499190620001fa565b6001600160a01b031660c0525062000221915050565b6040516321f8a72160e01b81526a3937b632a6b0b730b3b2b960a91b60048201526000906001600160a01b038316906321f8a72190602401602060405180830381865afa158015620001b5573d6000803e3d6000fd5b505050506040513d601f19601f82011682018060405250810190620001db9190620001fa565b92915050565b6001600160a01b0381168114620001f757600080fd5b50565b6000602082840312156200020d57600080fd5b81516200021a81620001e1565b9392505050565b60805160a05160c051613d42620002666000396000818161034f015281816125d5015281816135470152613589015260006106b6015260006125250152613d426000f3fe6080604052600436106102545760003560e01c80639816f47311610139578063be4df7d6116100b6578063e89813301161007a578063e898133014610644578063f1eeb9e614610664578063f4e0cd8714610684578063f77c4791146106a4578063f95d9438146106d8578063fc7b9c18146106ee57600080fd5b8063be4df7d6146105dc578063be8f1668146105f2578063d0e30db014610607578063daccaf631461060f578063e557bb4d1461062f57600080fd5b8063ade10960116100fd578063ade1096014610578578063b40494e51461058d578063babc24fe146105a2578063bd2a8b07146105c2578063bdca9165146104d457600080fd5b80639816f473146104f05780639cf7fcc914610504578063a73e0f3b14610526578063a8c2d1f21461053c578063a8c62e761461055257600080fd5b80634ec81af1116101d25780636d785cf3116101965780636d785cf3146104515780636f21cac3146104685780637adbccc81461048857806387788782146104a857806389efcaac146104be5780639407d08f146104d457600080fd5b80634ec81af1146103c6578063526e1080146103e657806352ec6102146103fc5780636741c1b91461041c578063678cbcb51461043157600080fd5b806321401dd11161021957806321401dd1146103185780632954018c1461033d5780632e1a7d4d146103715780634641257d1461039157806348b19335146103a657600080fd5b8062435da5146102605780630463b7de146102925780630a8bcdb9146102b457806316f0115b146102d457806318a1c4b6146102f457600080fd5b3661025b57005b600080fd5b34801561026c57600080fd5b50610275610704565b6040516001600160a01b0390911681526020015b60405180910390f35b34801561029e57600080fd5b506102b26102ad366004613a78565b610713565b005b3480156102c057600080fd5b506102b26102cf366004613a78565b61082c565b3480156102e057600080fd5b50600254610275906001600160a01b031681565b34801561030057600080fd5b5061030a603d5481565b604051908152602001610289565b34801561032457600080fd5b5061032d610b43565b6040519015158152602001610289565b34801561034957600080fd5b506102757f000000000000000000000000000000000000000000000000000000000000000081565b34801561037d57600080fd5b5061032d61038c366004613a78565b610c15565b34801561039d57600080fd5b5061032d610f11565b3480156103b257600080fd5b5061032d6103c1366004613a78565b610ff9565b3480156103d257600080fd5b506102b26103e1366004613aa6565b6111f2565b3480156103f257600080fd5b5061030a603c5481565b34801561040857600080fd5b506102b2610417366004613a78565b6112bb565b34801561042857600080fd5b5061032d6113c4565b34801561043d57600080fd5b506102b261044c366004613ae1565b611496565b34801561045d57600080fd5b5061030a6206978081565b34801561047457600080fd5b5061030a610483366004613ae1565b61170a565b34801561049457600080fd5b506102b26104a3366004613a78565b61171d565b3480156104b457600080fd5b5061030a603b5481565b3480156104ca57600080fd5b5061030a60015481565b3480156104e057600080fd5b5061030a6706f05b59d3b2000081565b3480156104fc57600080fd5b506000610275565b34801561051057600080fd5b50610519611871565b6040516102899190613afe565b34801561053257600080fd5b5061030a603f5481565b34801561054857600080fd5b5061030a603e5481565b34801561055e57600080fd5b50603a54610275906201000090046001600160a01b031681565b34801561058457600080fd5b5061032d61187d565b34801561059957600080fd5b5061030a611964565b3480156105ae57600080fd5b506102b26105bd366004613a78565b61199c565b3480156105ce57600080fd5b5060045461032d9060ff1681565b3480156105e857600080fd5b5061030a60405481565b3480156105fe57600080fd5b506102b2611ab6565b6102b2611b26565b34801561061b57600080fd5b506102b261062a366004613ae1565b611c0b565b34801561063b57600080fd5b506102b2611ec7565b34801561065057600080fd5b506102b261065f366004613a78565b611fa2565b34801561067057600080fd5b5061030a61067f366004613ae1565b6120ee565b34801561069057600080fd5b506102b261069f366004613a78565b6123a4565b3480156106b057600080fd5b506102757f000000000000000000000000000000000000000000000000000000000000000081565b3480156106e457600080fd5b5061030a60005481565b3480156106fa57600080fd5b5061030a60035481565b600061070e612523565b905090565b61071b612523565b604051632474521560e21b815269676f7665726e616e636560b01b60048201523360248201526001600160a01b0391909116906391d1485490604401602060405180830381865afa158015610774573d6000803e3d6000fd5b505050506040513d601f19601f820116820180604052508101906107989190613b4b565b604051806040016040528060138152602001600080516020613ced833981519152815250906107e35760405162461bcd60e51b81526004016107da9190613b6d565b60405180910390fd5b506107f0603f5482612547565b603c8190556040518181527f3ab986be3793b477c30da5251bc48b317898d7570e74ee7a93d99773f708674d906020015b60405180910390a150565b610834612523565b604051632474521560e21b815269676f7665726e616e636560b01b60048201523360248201526001600160a01b0391909116906391d1485490604401602060405180830381865afa15801561088d573d6000803e3d6000fd5b505050506040513d601f19601f820116820180604052508101906108b19190613b4b565b604051806040016040528060138152602001600080516020613ced833981519152815250906108f35760405162461bcd60e51b81526004016107da9190613b6d565b5060006108fe6125ce565b9050600082116040518060400160405280600e81526020016d1a5b9d985b1a5908185b5bdd5b9d60921b815250906109495760405162461bcd60e51b81526004016107da9190613b6d565b50600260009054906101000a90046001600160a01b03166001600160a01b031663b187bd266040518163ffffffff1660e01b8152600401602060405180830381865afa15801561099d573d6000803e3d6000fd5b505050506040513d601f19601f820116820180604052508101906109c19190613b4b565b6040518060600160405280602c8152602001613cc1602c9139906109f85760405162461bcd60e51b81526004016107da9190613b6d565b5060006001600160a01b03821663d4fac45d30836040516001600160e01b031960e085901b1681526001600160a01b03928316600482015291166024820152604401602060405180830381865afa158015610a57573d6000803e3d6000fd5b505050506040513d601f19601f82011682018060405250810190610a7b9190613bc2565b90508083111560405180604001604052806014815260200173696e73756666696369656e742062616c616e636560601b81525090610acc5760405162461bcd60e51b81526004016107da9190613b6d565b506001600160a01b03821663f3fef3a360006040516001600160e01b031960e084901b1681526001600160a01b03909116600482015260248101869052604401600060405180830381600087803b158015610b2657600080fd5b505af1158015610b3a573d6000803e3d6000fd5b50505050505050565b6000610b4d612523565b604051632474521560e21b815269676f7665726e616e636560b01b60048201523360248201526001600160a01b0391909116906391d1485490604401602060405180830381865afa158015610ba6573d6000803e3d6000fd5b505050506040513d601f19601f82011682018060405250810190610bca9190613b4b565b604051806040016040528060138152602001600080516020613ced83398151915281525090610c0c5760405162461bcd60e51b81526004016107da9190613b6d565b5061070e612602565b6002546000906001600160a01b0316331480610cb15750610c34612523565b604051632474521560e21b815269676f7665726e616e636560b01b60048201523360248201526001600160a01b0391909116906391d1485490604401602060405180830381865afa158015610c8d573d6000803e3d6000fd5b505050506040513d601f19601f82011682018060405250810190610cb19190613b4b565b604051806040016040528060138152602001600080516020613ced83398151915281525090610cf35760405162461bcd60e51b81526004016107da9190613b6d565b50603a546201000090046001600160a01b03164783811015610e4d576001600160a01b038216610d27575060009392505050565b6000826001600160a01b031663b69ef8a86040518163ffffffff1660e01b8152600401602060405180830381865afa158015610d67573d6000803e3d6000fd5b505050506040513d601f19601f82011682018060405250810190610d8b9190613bc2565b905081850381811115610da45750600095945050505050565b603e54600090610db79083850390612662565b90506000610dc58285613bf1565b604051632e1a7d4d60e01b8152600481018290529091506001600160a01b03871690632e1a7d4d906024016020604051808303816000875af1158015610e0f573d6000803e3d6000fd5b505050506040513d601f19601f82011682018060405250810190610e339190613b4b565b50610e4060005482612688565b60005550610ef192505050565b60006001600160a01b03831615610ec357826001600160a01b031663b69ef8a86040518163ffffffff1660e01b8152600401602060405180830381865afa158015610e9c573d6000803e3d6000fd5b505050506040513d601f19601f82011682018060405250810190610ec09190613bc2565b90505b600154600090610ed38385613c08565b610edd9190613c08565b9050858103610eec81846126ac565b505050505b600254610f07906001600160a01b0316856128b6565b5060019392505050565b6002546000906001600160a01b0316331480610fae5750610f30612523565b604051632474521560e21b81526a6d61696e74656e616e636560a81b60048201523360248201526001600160a01b0391909116906391d1485490604401602060405180830381865afa158015610f8a573d6000803e3d6000fd5b505050506040513d601f19601f82011682018060405250810190610fae9190613b4b565b604051806040016040528060138152602001600080516020613ced83398151915281525090610ff05760405162461bcd60e51b81526004016107da9190613b6d565b5061070e61295a565b6000611003612523565b604051632474521560e21b815269676f7665726e616e636560b01b60048201523360248201526001600160a01b0391909116906391d1485490604401602060405180830381865afa15801561105c573d6000803e3d6000fd5b505050506040513d601f19601f820116820180604052508101906110809190613b4b565b604051806040016040528060138152602001600080516020613ced833981519152815250906110c25760405162461bcd60e51b81526004016107da9190613b6d565b50603a546201000090046001600160a01b0316806110e35750600092915050565b82816001600160a01b031663b69ef8a86040518163ffffffff1660e01b8152600401602060405180830381865afa158015611122573d6000803e3d6000fd5b505050506040513d601f19601f820116820180604052508101906111469190613bc2565b10156111555750600092915050565b600047604051632e1a7d4d60e01b8152600481018690529091506001600160a01b03831690632e1a7d4d906024016020604051808303816000875af11580156111a2573d6000803e3d6000fd5b505050506040513d601f19601f820116820180604052508101906111c69190613b4b565b50476111d28282613bf1565b6000808282546111e29190613bf1565b9091555060019695505050505050565b603a54610100900460ff1661120d57603a5460ff1615611211565b303b155b6112745760405162461bcd60e51b815260206004820152602e60248201527f496e697469616c697a61626c653a20636f6e747261637420697320616c72656160448201526d191e481a5b9a5d1a585b1a5e995960921b60648201526084016107da565b603a54610100900460ff1615801561129657603a805461ffff19166101011790555b6112a285858585612bb9565b80156112b457603a805461ff00191690555b5050505050565b6112c3612523565b604051632474521560e21b815269676f7665726e616e636560b01b60048201523360248201526001600160a01b0391909116906391d1485490604401602060405180830381865afa15801561131c573d6000803e3d6000fd5b505050506040513d601f19601f820116820180604052508101906113409190613b4b565b604051806040016040528060138152602001600080516020613ced833981519152815250906113825760405162461bcd60e51b81526004016107da9190613b6d565b5061138f81603c54612547565b603f8190556040518181527f2f607c814dd1bec90d1ca0db17fa4d0d59746950f56bbe8b85fa190f0cb17db890602001610821565b60006113ce612523565b604051632474521560e21b815269676f7665726e616e636560b01b60048201523360248201526001600160a01b0391909116906391d1485490604401602060405180830381865afa158015611427573d6000803e3d6000fd5b505050506040513d601f19601f8201168201806040525081019061144b9190613b4b565b604051806040016040528060138152602001600080516020613ced8339815191528152509061148d5760405162461bcd60e51b81526004016107da9190613b6d565b5061070e612cd5565b61149e612523565b604051632474521560e21b815269676f7665726e616e636560b01b60048201523360248201526001600160a01b0391909116906391d1485490604401602060405180830381865afa1580156114f7573d6000803e3d6000fd5b505050506040513d601f19601f8201168201806040525081019061151b9190613b4b565b604051806040016040528060138152602001600080516020613ced8339815191528152509061155d5760405162461bcd60e51b81526004016107da9190613b6d565b50603a546040805180820190915260168152751059191c995cdcc81a5cc8185b1c9958591e481cd95d60521b6020820152906201000090046001600160a01b0316156115bc5760405162461bcd60e51b81526004016107da9190613b6d565b506040805180820190915260188152771e995c9bc81859191c995cdcc81b9bdd08185b1b1bddd95960421b60208201526001600160a01b0382166116135760405162461bcd60e51b81526004016107da9190613b6d565b50603a805462010000600160b01b031916620100006001600160a01b0384160217905561163e612cd5565b5060006001600160a01b0316816001600160a01b0316631fe4a6866040518163ffffffff1660e01b8152600401602060405180830381865afa158015611688573d6000803e3d6000fd5b505050506040513d601f19601f820116820180604052508101906116ac9190613c20565b6001600160a01b03161415604051806040016040528060188152602001771e995c9bc81859191c995cdcc81b9bdd08185b1b1bddd95960421b815250906117065760405162461bcd60e51b81526004016107da9190613b6d565b5050565b6000611717600583612d48565b92915050565b611725612523565b604051632474521560e21b815269676f7665726e616e636560b01b60048201523360248201526001600160a01b0391909116906391d1485490604401602060405180830381865afa15801561177e573d6000803e3d6000fd5b505050506040513d601f19601f820116820180604052508101906117a29190613b4b565b604051806040016040528060138152602001600080516020613ced833981519152815250906117e45760405162461bcd60e51b81526004016107da9190613b6d565b5060408051808201909152600e81526d1a5b9d985b1a5908185b5bdd5b9d60921b60208201526706f05b59d3b200008211156118335760405162461bcd60e51b81526004016107da9190613b6d565b506040819055611841612d5d565b6040518181527fd03f9f484eb10f5b865f7aaebe7d8e5cce03a0d8b08fe18a0f0bc86b7c986ca790602001610821565b606061070e6005612e1f565b6002546000906001600160a01b0316331480611919575061189c612523565b604051632474521560e21b815269676f7665726e616e636560b01b60048201523360248201526001600160a01b0391909116906391d1485490604401602060405180830381865afa1580156118f5573d6000803e3d6000fd5b505050506040513d601f19601f820116820180604052508101906119199190613b4b565b604051806040016040528060138152602001600080516020613ced8339815191528152509061195b5760405162461bcd60e51b81526004016107da9190613b6d565b5061070e612ec4565b603a546000906201000090046001600160a01b031661198257504790565b6001546000546119929047613c08565b61070e9190613c08565b6119a4612523565b604051632474521560e21b815269676f7665726e616e636560b01b60048201523360248201526001600160a01b0391909116906391d1485490604401602060405180830381865afa1580156119fd573d6000803e3d6000fd5b505050506040513d601f19601f82011682018060405250810190611a219190613b4b565b604051806040016040528060138152602001600080516020613ced83398151915281525090611a635760405162461bcd60e51b81526004016107da9190613b6d565b50603d819055600054611a769082612662565b60035410611a8657611a86612f96565b6040518181527f1b60379b2607a834c77efa10348322de4380bdcfb7aafc51a89202a8673026b290602001610821565b6002546040805180820190915260138152600080516020613ced8339815191526020820152906001600160a01b03163314611b045760405162461bcd60e51b81526004016107da9190613b6d565b50611b0d612ec4565b50600254611b24906001600160a01b0316476128b6565b565b6002546001600160a01b0316331480611bc05750611b42612523565b604051632474521560e21b81526a6d61696e74656e616e636560a81b60048201523360248201526001600160a01b0391909116906391d1485490604401602060405180830381865afa158015611b9c573d6000803e3d6000fd5b505050506040513d601f19601f82011682018060405250810190611bc09190613b4b565b604051806040016040528060138152602001600080516020613ced83398151915281525090611c025760405162461bcd60e51b81526004016107da9190613b6d565b50611b24612d5d565b611c13612523565b604051632474521560e21b815269676f7665726e616e636560b01b60048201523360248201526001600160a01b0391909116906391d1485490604401602060405180830381865afa158015611c6c573d6000803e3d6000fd5b505050506040513d601f19601f82011682018060405250810190611c909190613b4b565b604051806040016040528060138152602001600080516020613ced83398151915281525090611cd25760405162461bcd60e51b81526004016107da9190613b6d565b50603a546201000090046001600160a01b03168015611e3f57611cf361295a565b50806001600160a01b031663fc0e74d16040518163ffffffff1660e01b8152600401600060405180830381600087803b158015611d2f57600080fd5b505af1158015611d43573d6000803e3d6000fd5b50505050806001600160a01b031663853828b66040518163ffffffff1660e01b81526004016020604051808303816000875af1158015611d87573d6000803e3d6000fd5b505050506040513d601f19601f82011682018060405250810190611dab9190613bc2565b506000816001600160a01b031663b69ef8a86040518163ffffffff1660e01b8152600401602060405180830381865afa158015611dec573d6000803e3d6000fd5b505050506040513d601f19601f82011682018060405250810190611e109190613bc2565b90508015611e3d57611e2460058383612fb3565b508060016000828254611e379190613c08565b90915550505b505b611e47612602565b506000808055600355603a805462010000600160b01b031916620100006001600160a01b0385169081029190911790915515611e8757611e85612cd5565b505b6040516001600160a01b03831681527f4da9c22c924692646a21cf1f423781ae3285198dc22e8a6912835d3272b90b3c9060200160405180910390a15050565b6002546001600160a01b0316331480611f605750611ee3612523565b604051632474521560e21b815269676f7665726e616e636560b01b60048201523360248201526001600160a01b0391909116906391d1485490604401602060405180830381865afa158015611f3c573d6000803e3d6000fd5b505050506040513d601f19601f82011682018060405250810190611f609190613b4b565b604051806040016040528060138152602001600080516020613ced83398151915281525090611b0d5760405162461bcd60e51b81526004016107da9190613b6d565b611faa612523565b604051632474521560e21b815269676f7665726e616e636560b01b60048201523360248201526001600160a01b0391909116906391d1485490604401602060405180830381865afa158015612003573d6000803e3d6000fd5b505050506040513d601f19601f820116820180604052508101906120279190613b4b565b604051806040016040528060138152602001600080516020613ced833981519152815250906120695760405162461bcd60e51b81526004016107da9190613b6d565b5060408051808201909152600e81526d1a5b9d985b1a5908185b5bdd5b9d60921b60208201526706f05b59d3b200008211156120b85760405162461bcd60e51b81526004016107da9190613b6d565b50603b8190556040518181527f9b49d0cd76012d9c67241c2f68f836efbaf50ea29901a250040671402d5263f590602001610821565b600080806120fd600585612fd1565b91509150816040518060400160405280601781526020017f537472617465677920646f6573206e6f74206578697374000000000000000000815250906121565760405162461bcd60e51b81526004016107da9190613b6d565b50836001600160a01b0316634641257d6040518163ffffffff1660e01b81526004016020604051808303816000875af1158015612197573d6000803e3d6000fd5b505050506040513d601f19601f820116820180604052508101906121bb9190613bc2565b506000846001600160a01b031663853828b66040518163ffffffff1660e01b81526004016020604051808303816000875af11580156121fe573d6000803e3d6000fd5b505050506040513d601f19601f820116820180604052508101906122229190613bc2565b600154909150808210612239576000600155612240565b8181036001555b8282111561231057603b548383039060009061226690612261908490612662565b612ff8565b905080156122d9576122d981896001600160a01b0316631fe4a6866040518163ffffffff1660e01b8152600401602060405180830381865afa1580156122b0573d6000803e3d6000fd5b505050506040513d601f19601f820116820180604052508101906122d49190613c20565b613065565b60405160009550859083907f6c8433a8e155f0af04dba058d4e4695f7da554578963d876bdf4a6d8d6399d9c908390a35050612316565b81830392505b856001600160a01b031663b69ef8a86040518163ffffffff1660e01b8152600401602060405180830381865afa158015612354573d6000803e3d6000fd5b505050506040513d601f19601f820116820180604052508101906123789190613bc2565b61238d576123876005876130f0565b5061239b565b61239960058785612fb3565b505b50949350505050565b6123ac612523565b604051632474521560e21b815269676f7665726e616e636560b01b60048201523360248201526001600160a01b0391909116906391d1485490604401602060405180830381865afa158015612405573d6000803e3d6000fd5b505050506040513d601f19601f820116820180604052508101906124299190613b4b565b604051806040016040528060138152602001600080516020613ced8339815191528152509061246b5760405162461bcd60e51b81526004016107da9190613b6d565b50603e819055612479612d5d565b6040518181527f4201d291830e58ed4e674fcaff63e7e3a238f8a9e8d464db61635d8f8033c8a290602001610821565b6040516321f8a72160e01b81526a3937b632a6b0b730b3b2b960a91b60048201526000906001600160a01b038316906321f8a721906024015b602060405180830381865afa1580156124ff573d6000803e3d6000fd5b505050506040513d601f19601f820116820180604052508101906117179190613c20565b7f000000000000000000000000000000000000000000000000000000000000000090565b670de0b6b3a764000061255a8284613c08565b11156117065760405162461bcd60e51b815260206004820152603760248201527f73756d206f6620737472617465676973742066656520616e642072657365727660448201527f65206665652073686f756c642062652062656c6f77203100000000000000000060648201526084016107da565b600061070e7f00000000000000000000000000000000000000000000000000000000000000006001600160a01b0316613105565b60045460009060ff166126155750600090565b6004805460ff19169055603a54604051620100009091046001600160a01b0316907f274ec28d31430170ad5dd350f8e7505ffab078c309300878c710383ae4cbed4990600090a250600190565b6000670de0b6b3a76400006126778385613c3d565b6126819190613c5c565b9392505050565b6000818311156126a35761269c8284613bf1565b9050611717565b50600092915050565b60045460009060ff166126c157506000611717565b603e5460405460006126d38684612662565b9050600083156126ec576126e78385613c08565b6126ef565b60005b9050670de0b6b3a764000081116127065780612710565b670de0b6b3a76400005b9050600084841161272a576127258486613bf1565b61272d565b60005b90506127398883612662565b8711156127d857600061274c8489613bf1565b603a54604051632e1a7d4d60e01b8152600481018390529192506201000090046001600160a01b031690632e1a7d4d906024016020604051808303816000875af115801561279e573d6000803e3d6000fd5b505050506040513d601f19601f820116820180604052508101906127c29190613b4b565b506127cf60005482612688565b600055506128a8565b6127e28882612662565b8710156128a85760006127f58885613bf1565b603a54909150612814906201000090046001600160a01b0316826128b6565b806000808282546128259190613c08565b92505081905550603a60029054906101000a90046001600160a01b03166001600160a01b031663d0e30db06040518163ffffffff1660e01b81526004016020604051808303816000875af1158015612881573d6000803e3d6000fd5b505050506040513d601f19601f820116820180604052508101906128a59190613b4b565b50505b506001979650505050505050565b6000826001600160a01b0316826040515b60006040518083038185875af1925050503d8060008114612904576040519150601f19603f3d011682016040523d82523d6000602084013e612909565b606091505b50509050806040518060400160405280600f81526020016e1d1c985b9cd9995c8819985a5b1959608a1b815250906129545760405162461bcd60e51b81526004016107da9190613b6d565b50505050565b603a546000906201000090046001600160a01b03168061297c57600091505090565b806001600160a01b0316634641257d6040518163ffffffff1660e01b81526004016020604051808303816000875af11580156129bc573d6000803e3d6000fd5b505050506040513d601f19601f820116820180604052508101906129e09190613bc2565b50600080826001600160a01b031663b69ef8a86040518163ffffffff1660e01b8152600401602060405180830381865afa158015612a22573d6000803e3d6000fd5b505050506040513d601f19601f82011682018060405250810190612a469190613bc2565b6000546003549192509081831115612aba5781830381811115612a81578115612a6f5760009190035b612a7881613143565b95509050612a87565b80820391505b60405160009082907f6c8433a8e155f0af04dba058d4e4695f7da554578963d876bdf4a6d8d6399d9c908390a350612b3e565b81831015612b3257828203612acf8183613c08565b91506000612ae8603d548561266290919063ffffffff16565b905080831115612afe57612afb836131fe565b92505b60405182906000907f6c8433a8e155f0af04dba058d4e4695f7da554578963d876bdf4a6d8d6399d9c908290a35050612b3e565b60019550505050505090565b80600381905550846001600160a01b031663b69ef8a86040518163ffffffff1660e01b8152600401602060405180830381865afa158015612b83573d6000803e3d6000fd5b505050506040513d601f19601f82011682018060405250810190612ba79190613bc2565b6000558315612b3257612b3284613397565b60408051808201909152600e81526d1a5b9d985b1a5908185b5bdd5b9d60921b6020820152670de0b6b3a7640000841115612c075760405162461bcd60e51b81526004016107da9190613b6d565b5060408051808201909152600e81526d1a5b9d985b1a5908185b5bdd5b9d60921b6020820152670de0b6b3a7640000831115612c565760405162461bcd60e51b81526004016107da9190613b6d565b5060408051808201909152600e81526d1a5b9d985b1a5908185b5bdd5b9d60921b60208201526706f05b59d3b20000821115612ca55760405162461bcd60e51b81526004016107da9190613b6d565b50600280546001600160a01b0319166001600160a01b039590951694909417909355603d91909155603e55604055565b603a546000906201000090046001600160a01b031680612cf757600091505090565b6004805460ff191660011790556040516001600160a01b038216907f652f053fc39779b70b29678135ade972fcb79966fc68fcb77c996b1aa4fd9afb90600090a2612d40612d5d565b600191505090565b6000612681836001600160a01b0384166133f1565b60045460ff16612d6957565b6000603a60029054906101000a90046001600160a01b03166001600160a01b031663b69ef8a86040518163ffffffff1660e01b8152600401602060405180830381865afa158015612dbe573d6000803e3d6000fd5b505050506040513d601f19601f82011682018060405250810190612de29190613bc2565b9050600060015482612df14790565b612dfb9190613c08565b612e059190613c08565b905080612e10575050565b612e1a81836126ac565b505050565b60606000612e2c83613461565b905060008167ffffffffffffffff811115612e4957612e49613c7e565b604051908082528060200260200182016040528015612e72578160200160208202803683370190505b50905060005b82811015612ebc57612e8a858261346c565b828281518110612e9c57612e9c613c94565b6001600160a01b0390921660209283029190910190910152600101612e78565b509392505050565b603a546000906201000090046001600160a01b031680612ee657600091505090565b612eee61295a565b50806001600160a01b031663853828b66040518163ffffffff1660e01b81526004016020604051808303816000875af1158015612f2f573d6000803e3d6000fd5b505050506040513d601f19601f82011682018060405250810190612f539190613bc2565b506000808055600355612f64612602565b506040517ff75fefae3ed4cf4e96a2b9f2edb619f09a058d15def478e0bde6675a0205248590600090a1600191505090565b6003546000612fa4826131fe565b90508082146117065760035550565b6000612fc9846001600160a01b03851684613479565b949350505050565b6000808080612fe9866001600160a01b038716613496565b909450925050505b9250929050565b600080613010603c548461266290919063ffffffff16565b90506000613029603f548561266290919063ffffffff16565b90506000816130388487613bf1565b6130429190613bf1565b905061304d826134d0565b801561305c5761305c81613540565b50909392505050565b6001600160a01b038116613077575050565b6002546040516317a790f160e11b81526001600160a01b0383811660048301526024820185905290911690632f4f21e290849060440160206040518083038185885af11580156130cb573d6000803e3d6000fd5b50505050506040513d601f19601f82011682018060405250810190612e1a9190613bc2565b6000612681836001600160a01b0384166135ce565b6040516321f8a72160e01b81526b7661756c745265736572766560a01b60048201526000906001600160a01b038316906321f8a721906024016124e2565b600080600061315d603b548561266290919063ffffffff16565b9050804710156131dd57603a54604051632e1a7d4d60e01b815260048101839052620100009091046001600160a01b031690632e1a7d4d906024016020604051808303816000875af11580156131b7573d6000803e3d6000fd5b505050506040513d601f19601f820116820180604052508101906131db9190613b4b565b505b60006131e882612ff8565b90506131f48286613bf1565b9590945092505050565b6000806132096125ce565b905060006001600160a01b03821663d4fac45d30836040516001600160e01b031960e085901b1681526001600160a01b03928316600482015291166024820152604401602060405180830381865afa158015613269573d6000803e3d6000fd5b505050506040513d601f19601f8201168201806040525081019061328d9190613bc2565b9050808411156132a5576132a0816135eb565b61338f565b60405163019262d360e41b81523060048201526001600160a01b038316906319262d3090602401602060405180830381865afa1580156132e9573d6000803e3d6000fd5b505050506040513d601f19601f8201168201806040525081019061330d9190613b4b565b1561338f576001600160a01b03821663f3fef3a360006040516001600160e01b031960e084901b1681526001600160a01b03909116600482015260248101879052604401600060405180830381600087803b15801561336b57600080fd5b505af115801561337f573d6000803e3d6000fd5b505050506000935061338f612d5d565b509192915050565b6133ee81603a60029054906101000a90046001600160a01b03166001600160a01b0316631fe4a6866040518163ffffffff1660e01b8152600401602060405180830381865afa1580156122b0573d6000803e3d6000fd5b50565b600081815260028301602052604081205480151580613415575061341584846137fa565b6126815760405162461bcd60e51b815260206004820152601e60248201527f456e756d657261626c654d61703a206e6f6e6578697374656e74206b6579000060448201526064016107da565b600061171782613806565b60008061239b8484613811565b60008281526002840160205260408120829055612fc98484613820565b60008181526002830160205260408120548190806134c5576134b885856137fa565b925060009150612ff19050565b600192509050612ff1565b6134d86125ce565b6040516311f9fbc960e21b815260006004820152602481018390526001600160a01b0391909116906347e7ef249083906044016000604051808303818588803b15801561352457600080fd5b505af1158015613538573d6000803e3d6000fd5b505050505050565b60006135747f00000000000000000000000000000000000000000000000000000000000000006001600160a01b031661382c565b90506001600160a01b0381166135b9576135b67f00000000000000000000000000000000000000000000000000000000000000006001600160a01b0316613872565b90505b6000816001600160a01b0316836040516128c7565b6000818152600283016020526040812081905561268183836138ac565b6000603a60029054906101000a90046001600160a01b03166001600160a01b031663853828b66040518163ffffffff1660e01b81526004016020604051808303816000875af1158015613642573d6000803e3d6000fd5b505050506040513d601f19601f820116820180604052508101906136669190613bc2565b9050600061367660005483612688565b90506136806125ce565b60405163019262d360e41b81523060048201526001600160a01b0391909116906319262d3090602401602060405180830381865afa1580156136c6573d6000803e3d6000fd5b505050506040513d601f19601f820116820180604052508101906136ea9190613b4b565b156137f257808310613773576136fe6125ce565b6001600160a01b031663f3fef3a360006040516001600160e01b031960e084901b1681526001600160a01b03909116600482015260248101849052604401600060405180830381600087803b15801561375657600080fd5b505af115801561376a573d6000803e3d6000fd5b505050506137f2565b82156137f2576137816125ce565b6001600160a01b031663f3fef3a360006040516001600160e01b031960e084901b1681526001600160a01b03909116600482015260248101869052604401600060405180830381600087803b1580156137d957600080fd5b505af11580156137ed573d6000803e3d6000fd5b505050505b612954612602565b600061268183836138b8565b6000611717826138d0565b6000808080612fe986866138da565b60006126818383613905565b60405163e6dc9e2b60e01b81526c3932bbb0b9322430b7323632b960991b6004820152600060248201819052906001600160a01b0383169063e6dc9e2b906044016124e2565b6040516321f8a72160e01b815267747265617375727960c01b60048201526000906001600160a01b038316906321f8a721906024016124e2565b60006126818383613954565b60008181526001830160205260408120541515612681565b6000611717825490565b600080806138e88585613a47565b600081815260029690960160205260409095205494959350505050565b600081815260018301602052604081205461394c57508154600181810184556000848152602080822090930184905584548482528286019093526040902091909155611717565b506000611717565b60008181526001830160205260408120548015613a3d576000613978600183613bf1565b855490915060009061398c90600190613bf1565b90508181146139f15760008660000182815481106139ac576139ac613c94565b90600052602060002001549050808760000184815481106139cf576139cf613c94565b6000918252602080832090910192909255918252600188019052604090208390555b8554869080613a0257613a02613caa565b600190038181906000526020600020016000905590558560010160008681526020019081526020016000206000905560019350505050611717565b6000915050611717565b600061268183836000826000018281548110613a6557613a65613c94565b9060005260206000200154905092915050565b600060208284031215613a8a57600080fd5b5035919050565b6001600160a01b03811681146133ee57600080fd5b60008060008060808587031215613abc57600080fd5b8435613ac781613a91565b966020860135965060408601359560600135945092505050565b600060208284031215613af357600080fd5b813561268181613a91565b6020808252825182820181905260009190848201906040850190845b81811015613b3f5783516001600160a01b031683529284019291840191600101613b1a565b50909695505050505050565b600060208284031215613b5d57600080fd5b8151801515811461268157600080fd5b600060208083528351808285015260005b81811015613b9a57858101830151858201604001528201613b7e565b81811115613bac576000604083870101525b50601f01601f1916929092016040019392505050565b600060208284031215613bd457600080fd5b5051919050565b634e487b7160e01b600052601160045260246000fd5b600082821015613c0357613c03613bdb565b500390565b60008219821115613c1b57613c1b613bdb565b500190565b600060208284031215613c3257600080fd5b815161268181613a91565b6000816000190483118215151615613c5757613c57613bdb565b500290565b600082613c7957634e487b7160e01b600052601260045260246000fd5b500490565b634e487b7160e01b600052604160045260246000fd5b634e487b7160e01b600052603260045260246000fd5b634e487b7160e01b600052603160045260246000fdfe506f6f6c206d7573742062652070617573656420746f2077697468647261772066726f6d2072657365727665756e617574686f72697a65642061636365737300000000000000000000000000a26469706673582212204f678d1c1bf5afc5a86b35da6373be19d439766b5a37b4533894ca926509cd0164736f6c634300080a0033","bytecodeSha1":"e5535acc70e6fa69a464bcd0f4aa1deb72dd5adb","compiler":{"evm_version":"london","optimizer":{"enabled":true,"runs":200},"version":"0.8.10+commit.fc410830"},"contractName":"EthVault","language":"Solidity","natspec":{"kind":"dev","methods":{"activateStrategy()":{"notice":"Activate the current strategy set for the vault.","returns":{"_0":"`true` if strategy has been activated"}},"deactivateStrategy()":{"notice":"Deactivates a strategy.","returns":{"_0":"`true` if strategy has been deactivated"}},"deposit()":{"notice":"Handles deposits from the liquidity pool"},"getTotalUnderlying()":{"notice":"Computes the total underlying of the vault: idle funds + allocated funds","returns":{"_0":"Total amount of underlying."}},"harvest()":{"details":"Harvesting adds profits to the vault's balance and deducts fees.  No performance fees are charged on profit used to repay debt.","notice":"Harvest profits from the vault's strategy.","returns":{"_0":"`true` if successful."}},"initializeStrategy(address)":{"details":"Bypasses the time delay, but can only be called if strategy is not set already.","notice":"Initializes the vault's strategy.","params":{"strategy_":"Address of the strategy."}},"shutdownStrategy()":{"notice":"Shuts down the strategy, withdraws all funds from vault and strategy and transfer them to the pool."},"updateBound(uint256)":{"notice":"Update deviation bound for strategy allocation.","params":{"bound_":"New deviation bound for target allocation."}},"updateDebtLimit(uint256)":{"notice":"Update debt limit.","params":{"debtLimit_":"New debt limit."}},"updatePerformanceFee(uint256)":{"notice":"Update performance fee.","params":{"performanceFee_":"New performance fee value."}},"updateReserveFee(uint256)":{"notice":"Update reserve fee.","params":{"reserveFee_":"New reserve fee."}},"updateStrategistFee(uint256)":{"notice":"Update strategist fee (with time delay enforced).","params":{"strategistFee_":"New strategist fee value."}},"updateStrategy(address)":{"notice":"Update the vault's strategy (with time delay enforced).","params":{"newStrategy_":"Address of the new strategy."}},"updateTargetAllocation(uint256)":{"notice":"Update target allocation.","params":{"targetAllocation_":"New target allocation."}},"withdraw(uint256)":{"details":"If the specified amount exceeds idle funds, an amount of funds is withdrawn      from the strategy such that it will achieve a target allocation for after the      amount has been withdrawn.","notice":"Withdraws specified amount of underlying from vault.","params":{"amount":"Amount to withdraw."},"returns":{"_0":"`true` if successful."}},"withdrawAllFromStrategy()":{"details":"Harvests profits before withdrawing. Deactivates strategy after withdrawing.","notice":"Withdraws all funds from strategy to vault.","returns":{"_0":"`true` if successful."}},"withdrawAvailableToPool()":{"notice":"Transfers all the available funds to the pool"},"withdrawFromReserve(uint256)":{"details":"Withdraws from reserve will cause a spike in pool exchange rate.  Pool deposits should be paused during this to prevent front running","notice":"Withdraws specified amount of underlying from reserve to vault.","params":{"amount":"Amount to withdraw."}},"withdrawFromStrategy(uint256)":{"notice":"Withdraws an amount of underlying from the strategy to the vault.","params":{"amount":"Amount of underlying to withdraw."},"returns":{"_0":"True if successful withdrawal."}}},"version":1},"opcodes":"PUSH1 0x80 PUSH1 0x40 MSTORE PUSH1 0x4 CALLDATASIZE LT PUSH2 0x254 JUMPI PUSH1 0x0 CALLDATALOAD PUSH1 0xE0 SHR DUP1 PUSH4 0x9816F473 GT PUSH2 0x139 JUMPI DUP1 PUSH4 0xBE4DF7D6 GT PUSH2 0xB6 JUMPI DUP1 PUSH4 0xE8981330 GT PUSH2 0x7A JUMPI DUP1 PUSH4 0xE8981330 EQ PUSH2 0x644 JUMPI DUP1 PUSH4 0xF1EEB9E6 EQ PUSH2 0x664 JUMPI DUP1 PUSH4 0xF4E0CD87 EQ PUSH2 0x684 JUMPI DUP1 PUSH4 0xF77C4791 EQ PUSH2 0x6A4 JUMPI DUP1 PUSH4 0xF95D9438 EQ PUSH2 0x6D8 JUMPI DUP1 PUSH4 0xFC7B9C18 EQ PUSH2 0x6EE JUMPI PUSH1 0x0 DUP1 REVERT JUMPDEST DUP1 PUSH4 0xBE4DF7D6 EQ PUSH2 0x5DC JUMPI DUP1 PUSH4 0xBE8F1668 EQ PUSH2 0x5F2 JUMPI DUP1 PUSH4 0xD0E30DB0 EQ PUSH2 0x607 JUMPI DUP1 PUSH4 0xDACCAF63 EQ PUSH2 0x60F JUMPI DUP1 PUSH4 0xE557BB4D EQ PUSH2 0x62F JUMPI PUSH1 0x0 DUP1 REVERT JUMPDEST DUP1 PUSH4 0xADE10960 GT PUSH2 0xFD JUMPI DUP1 PUSH4 0xADE10960 EQ PUSH2 0x578 JUMPI DUP1 PUSH4 0xB40494E5 EQ PUSH2 0x58D JUMPI DUP1 PUSH4 0xBABC24FE EQ PUSH2 0x5A2 JUMPI DUP1 PUSH4 0xBD2A8B07 EQ PUSH2 0x5C2 JUMPI DUP1 PUSH4 0xBDCA9165 EQ PUSH2 0x4D4 JUMPI PUSH1 0x0 DUP1 REVERT JUMPDEST DUP1 PUSH4 0x9816F473 EQ PUSH2 0x4F0 JUMPI DUP1 PUSH4 0x9CF7FCC9 EQ PUSH2 0x504 JUMPI DUP1 PUSH4 0xA73E0F3B EQ PUSH2 0x526 JUMPI DUP1 PUSH4 0xA8C2D1F2 EQ PUSH2 0x53C JUMPI DUP1 PUSH4 0xA8C62E76 EQ PUSH2 0x552 JUMPI PUSH1 0x0 DUP1 REVERT JUMPDEST DUP1 PUSH4 0x4EC81AF1 GT PUSH2 0x1D2 JUMPI DUP1 PUSH4 0x6D785CF3 GT PUSH2 0x196 JUMPI DUP1 PUSH4 0x6D785CF3 EQ PUSH2 0x451 JUMPI DUP1 PUSH4 0x6F21CAC3 EQ PUSH2 0x468 JUMPI DUP1 PUSH4 0x7ADBCCC8 EQ PUSH2 0x488 JUMPI DUP1 PUSH4 0x87788782 EQ PUSH2 0x4A8 JUMPI DUP1 PUSH4 0x89EFCAAC EQ PUSH2 0x4BE JUMPI DUP1 PUSH4 0x9407D08F EQ PUSH2 0x4D4 JUMPI PUSH1 0x0 DUP1 REVERT JUMPDEST DUP1 PUSH4 0x4EC81AF1 EQ PUSH2 0x3C6 JUMPI DUP1 PUSH4 0x526E1080 EQ PUSH2 0x3E6 JUMPI DUP1 PUSH4 0x52EC6102 EQ PUSH2 0x3FC JUMPI DUP1 PUSH4 0x6741C1B9 EQ PUSH2 0x41C JUMPI DUP1 PUSH4 0x678CBCB5 EQ PUSH2 0x431 JUMPI PUSH1 0x0 DUP1 REVERT JUMPDEST DUP1 PUSH4 0x21401DD1 GT PUSH2 0x219 JUMPI DUP1 PUSH4 0x21401DD1 EQ PUSH2 0x318 JUMPI DUP1 PUSH4 0x2954018C EQ PUSH2 0x33D JUMPI DUP1 PUSH4 0x2E1A7D4D EQ PUSH2 0x371 JUMPI DUP1 PUSH4 0x4641257D EQ PUSH2 0x391 JUMPI DUP1 PUSH4 0x48B19335 EQ PUSH2 0x3A6 JUMPI PUSH1 0x0 DUP1 REVERT JUMPDEST DUP1 PUSH3 0x435DA5 EQ PUSH2 0x260 JUMPI DUP1 PUSH4 0x463B7DE EQ PUSH2 0x292 JUMPI DUP1 PUSH4 0xA8BCDB9 EQ PUSH2 0x2B4 JUMPI DUP1 PUSH4 0x16F0115B EQ PUSH2 0x2D4 JUMPI DUP1 PUSH4 0x18A1C4B6 EQ PUSH2 0x2F4 JUMPI PUSH1 0x0 DUP1 REVERT JUMPDEST CALLDATASIZE PUSH2 0x25B JUMPI STOP JUMPDEST PUSH1 0x0 DUP1 REVERT JUMPDEST CALLVALUE DUP1 ISZERO PUSH2 0x26C JUMPI PUSH1 0x0 DUP1 REVERT JUMPDEST POP PUSH2 0x275 PUSH2 0x704 JUMP JUMPDEST PUSH1 0x40 MLOAD PUSH1 0x1 PUSH1 0x1 PUSH1 0xA0 SHL SUB SWAP1 SWAP2 AND DUP2 MSTORE PUSH1 0x20 ADD JUMPDEST PUSH1 0x40 MLOAD DUP1 SWAP2 SUB SWAP1 RETURN JUMPDEST CALLVALUE DUP1 ISZERO PUSH2 0x29E JUMPI PUSH1 0x0 DUP1 REVERT JUMPDEST POP PUSH2 0x2B2 PUSH2 0x2AD CALLDATASIZE PUSH1 0x4 PUSH2 0x3A78 JUMP JUMPDEST PUSH2 0x713 JUMP JUMPDEST STOP JUMPDEST CALLVALUE DUP1 ISZERO PUSH2 0x2C0 JUMPI PUSH1 0x0 DUP1 REVERT JUMPDEST POP PUSH2 0x2B2 PUSH2 0x2CF CALLDATASIZE PUSH1 0x4 PUSH2 0x3A78 JUMP JUMPDEST PUSH2 0x82C JUMP JUMPDEST CALLVALUE DUP1 ISZERO PUSH2 0x2E0 JUMPI PUSH1 0x0 DUP1 REVERT JUMPDEST POP PUSH1 0x2 SLOAD PUSH2 0x275 SWAP1 PUSH1 0x1 PUSH1 0x1 PUSH1 0xA0 SHL SUB AND DUP2 JUMP JUMPDEST CALLVALUE DUP1 ISZERO PUSH2 0x300 JUMPI PUSH1 0x0 DUP1 REVERT JUMPDEST POP PUSH2 0x30A PUSH1 0x3D SLOAD DUP2 JUMP JUMPDEST PUSH1 0x40 MLOAD SWAP1 DUP2 MSTORE PUSH1 0x20 ADD PUSH2 0x289 JUMP JUMPDEST CALLVALUE DUP1 ISZERO PUSH2 0x324 JUMPI PUSH1 0x0 DUP1 REVERT JUMPDEST POP PUSH2 0x32D PUSH2 0xB43 JUMP JUMPDEST PUSH1 0x40 MLOAD SWAP1 ISZERO ISZERO DUP2 MSTORE PUSH1 0x20 ADD PUSH2 0x289 JUMP JUMPDEST CALLVALUE DUP1 ISZERO PUSH2 0x349 JUMPI PUSH1 0x0 DUP1 REVERT JUMPDEST POP PUSH2 0x275 PUSH32 0x0 DUP2 JUMP JUMPDEST CALLVALUE DUP1 ISZERO PUSH2 0x37D JUMPI PUSH1 0x0 DUP1 REVERT JUMPDEST POP PUSH2 0x32D PUSH2 0x38C CALLDATASIZE PUSH1 0x4 PUSH2 0x3A78 JUMP JUMPDEST PUSH2 0xC15 JUMP JUMPDEST CALLVALUE DUP1 ISZERO PUSH2 0x39D JUMPI PUSH1 0x0 DUP1 REVERT JUMPDEST POP PUSH2 0x32D PUSH2 0xF11 JUMP JUMPDEST CALLVALUE DUP1 ISZERO PUSH2 0x3B2 JUMPI PUSH1 0x0 DUP1 REVERT JUMPDEST POP PUSH2 0x32D PUSH2 0x3C1 CALLDATASIZE PUSH1 0x4 PUSH2 0x3A78 JUMP JUMPDEST PUSH2 0xFF9 JUMP JUMPDEST CALLVALUE DUP1 ISZERO PUSH2 0x3D2 JUMPI PUSH1 0x0 DUP1 REVERT JUMPDEST POP PUSH2 0x2B2 PUSH2 0x3E1 CALLDATASIZE PUSH1 0x4 PUSH2 0x3AA6 JUMP JUMPDEST PUSH2 0x11F2 JUMP JUMPDEST CALLVALUE DUP1 ISZERO PUSH2 0x3F2 JUMPI PUSH1 0x0 DUP1 REVERT JUMPDEST POP PUSH2 0x30A PUSH1 0x3C SLOAD DUP2 JUMP JUMPDEST CALLVALUE DUP1 ISZERO PUSH2 0x408 JUMPI PUSH1 0x0 DUP1 REVERT JUMPDEST POP PUSH2 0x2B2 PUSH2 0x417 CALLDATASIZE PUSH1 0x4 PUSH2 0x3A78 JUMP JUMPDEST PUSH2 0x12BB JUMP JUMPDEST CALLVALUE DUP1 ISZERO PUSH2 0x428 JUMPI PUSH1 0x0 DUP1 REVERT JUMPDEST POP PUSH2 0x32D PUSH2 0x13C4 JUMP JUMPDEST CALLVALUE DUP1 ISZERO PUSH2 0x43D JUMPI PUSH1 0x0 DUP1 REVERT JUMPDEST POP PUSH2 0x2B2 PUSH2 0x44C CALLDATASIZE PUSH1 0x4 PUSH2 0x3AE1 JUMP JUMPDEST PUSH2 0x1496 JUMP JUMPDEST CALLVALUE DUP1 ISZERO PUSH2 0x45D JUMPI PUSH1 0x0 DUP1 REVERT JUMPDEST POP PUSH2 0x30A PUSH3 0x69780 DUP2 JUMP JUMPDEST CALLVALUE DUP1 ISZERO PUSH2 0x474 JUMPI PUSH1 0x0 DUP1 REVERT JUMPDEST POP PUSH2 0x30A PUSH2 0x483 CALLDATASIZE PUSH1 0x4 PUSH2 0x3AE1 JUMP JUMPDEST PUSH2 0x170A JUMP JUMPDEST CALLVALUE DUP1 ISZERO PUSH2 0x494 JUMPI PUSH1 0x0 DUP1 REVERT JUMPDEST POP PUSH2 0x2B2 PUSH2 0x4A3 CALLDATASIZE PUSH1 0x4 PUSH2 0x3A78 JUMP JUMPDEST PUSH2 0x171D JUMP JUMPDEST CALLVALUE DUP1 ISZERO PUSH2 0x4B4 JUMPI PUSH1 0x0 DUP1 REVERT JUMPDEST POP PUSH2 0x30A PUSH1 0x3B SLOAD DUP2 JUMP JUMPDEST CALLVALUE DUP1 ISZERO PUSH2 0x4CA JUMPI PUSH1 0x0 DUP1 REVERT JUMPDEST POP PUSH2 0x30A PUSH1 0x1 SLOAD DUP2 JUMP JUMPDEST CALLVALUE DUP1 ISZERO PUSH2 0x4E0 JUMPI PUSH1 0x0 DUP1 REVERT JUMPDEST POP PUSH2 0x30A PUSH8 0x6F05B59D3B20000 DUP2 JUMP JUMPDEST CALLVALUE DUP1 ISZERO PUSH2 0x4FC JUMPI PUSH1 0x0 DUP1 REVERT JUMPDEST POP PUSH1 0x0 PUSH2 0x275 JUMP JUMPDEST CALLVALUE DUP1 ISZERO PUSH2 0x510 JUMPI PUSH1 0x0 DUP1 REVERT JUMPDEST POP PUSH2 0x519 PUSH2 0x1871 JUMP JUMPDEST PUSH1 0x40 MLOAD PUSH2 0x289 SWAP2 SWAP1 PUSH2 0x3AFE JUMP JUMPDEST CALLVALUE DUP1 ISZERO PUSH2 0x532 JUMPI PUSH1 0x0 DUP1 REVERT JUMPDEST POP PUSH2 0x30A PUSH1 0x3F SLOAD DUP2 JUMP JUMPDEST CALLVALUE DUP1 ISZERO PUSH2 0x548 JUMPI PUSH1 0x0 DUP1 REVERT JUMPDEST POP PUSH2 0x30A PUSH1 0x3E SLOAD DUP2 JUMP JUMPDEST CALLVALUE DUP1 ISZERO PUSH2 0x55E JUMPI PUSH1 0x0 DUP1 REVERT JUMPDEST POP PUSH1 0x3A SLOAD PUSH2 0x275 SWAP1 PUSH3 0x10000 SWAP1 DIV PUSH1 0x1 PUSH1 0x1 PUSH1 0xA0 SHL SUB AND DUP2 JUMP JUMPDEST CALLVALUE DUP1 ISZERO PUSH2 0x584 JUMPI PUSH1 0x0 DUP1 REVERT JUMPDEST POP PUSH2 0x32D PUSH2 0x187D JUMP JUMPDEST CALLVALUE DUP1 ISZERO PUSH2 0x599 JUMPI PUSH1 0x0 DUP1 REVERT JUMPDEST POP PUSH2 0x30A PUSH2 0x1964 JUMP JUMPDEST CALLVALUE DUP1 ISZERO PUSH2 0x5AE JUMPI PUSH1 0x0 DUP1 REVERT JUMPDEST POP PUSH2 0x2B2 PUSH2 0x5BD CALLDATASIZE PUSH1 0x4 PUSH2 0x3A78 JUMP JUMPDEST PUSH2 0x199C JUMP JUMPDEST CALLVALUE DUP1 ISZERO PUSH2 0x5CE JUMPI PUSH1 0x0 DUP1 REVERT JUMPDEST POP PUSH1 0x4 SLOAD PUSH2 0x32D SWAP1 PUSH1 0xFF AND DUP2 JUMP JUMPDEST CALLVALUE DUP1 ISZERO PUSH2 0x5E8 JUMPI PUSH1 0x0 DUP1 REVERT JUMPDEST POP PUSH2 0x30A PUSH1 0x40 SLOAD DUP2 JUMP JUMPDEST CALLVALUE DUP1 ISZERO PUSH2 0x5FE JUMPI PUSH1 0x0 DUP1 REVERT JUMPDEST POP PUSH2 0x2B2 PUSH2 0x1AB6 JUMP JUMPDEST PUSH2 0x2B2 PUSH2 0x1B26 JUMP JUMPDEST CALLVALUE DUP1 ISZERO PUSH2 0x61B JUMPI PUSH1 0x0 DUP1 REVERT JUMPDEST POP PUSH2 0x2B2 PUSH2 0x62A CALLDATASIZE PUSH1 0x4 PUSH2 0x3AE1 JUMP JUMPDEST PUSH2 0x1C0B JUMP JUMPDEST CALLVALUE DUP1 ISZERO PUSH2 0x63B JUMPI PUSH1 0x0 DUP1 REVERT JUMPDEST POP PUSH2 0x2B2 PUSH2 0x1EC7 JUMP JUMPDEST CALLVALUE DUP1 ISZERO PUSH2 0x650 JUMPI PUSH1 0x0 DUP1 REVERT JUMPDEST POP PUSH2 0x2B2 PUSH2 0x65F CALLDATASIZE PUSH1 0x4 PUSH2 0x3A78 JUMP JUMPDEST PUSH2 0x1FA2 JUMP JUMPDEST CALLVALUE DUP1 ISZERO PUSH2 0x670 JUMPI PUSH1 0x0 DUP1 REVERT JUMPDEST POP PUSH2 0x30A PUSH2 0x67F CALLDATASIZE PUSH1 0x4 PUSH2 0x3AE1 JUMP JUMPDEST PUSH2 0x20EE JUMP JUMPDEST CALLVALUE DUP1 ISZERO PUSH2 0x690 JUMPI PUSH1 0x0 DUP1 REVERT JUMPDEST POP PUSH2 0x2B2 PUSH2 0x69F CALLDATASIZE PUSH1 0x4 PUSH2 0x3A78 JUMP JUMPDEST PUSH2 0x23A4 JUMP JUMPDEST CALLVALUE DUP1 ISZERO PUSH2 0x6B0 JUMPI PUSH1 0x0 DUP1 REVERT JUMPDEST POP PUSH2 0x275 PUSH32 0x0 DUP2 JUMP JUMPDEST CALLVALUE DUP1 ISZERO PUSH2 0x6E4 JUMPI PUSH1 0x0 DUP1 REVERT JUMPDEST POP PUSH2 0x30A PUSH1 0x0 SLOAD DUP2 JUMP JUMPDEST CALLVALUE DUP1 ISZERO PUSH2 0x6FA JUMPI PUSH1 0x0 DUP1 REVERT JUMPDEST POP PUSH2 0x30A PUSH1 0x3 SLOAD DUP2 JUMP JUMPDEST PUSH1 0x0 PUSH2 0x70E PUSH2 0x2523 JUMP JUMPDEST SWAP1 POP SWAP1 JUMP JUMPDEST PUSH2 0x71B PUSH2 0x2523 JUMP JUMPDEST PUSH1 0x40 MLOAD PUSH4 0x24745215 PUSH1 0xE2 SHL DUP2 MSTORE PUSH10 0x676F7665726E616E6365 PUSH1 0xB0 SHL PUSH1 0x4 DUP3 ADD MSTORE CALLER PUSH1 0x24 DUP3 ADD MSTORE PUSH1 0x1 PUSH1 0x1 PUSH1 0xA0 SHL SUB SWAP2 SWAP1 SWAP2 AND SWAP1 PUSH4 0x91D14854 SWAP1 PUSH1 0x44 ADD PUSH1 0x20 PUSH1 0x40 MLOAD DUP1 DUP4 SUB DUP2 DUP7 GAS STATICCALL ISZERO DUP1 ISZERO PUSH2 0x774 JUMPI RETURNDATASIZE PUSH1 0x0 DUP1 RETURNDATACOPY RETURNDATASIZE PUSH1 0x0 REVERT JUMPDEST POP POP POP POP PUSH1 0x40 MLOAD RETURNDATASIZE PUSH1 0x1F NOT PUSH1 0x1F DUP3 ADD AND DUP3 ADD DUP1 PUSH1 0x40 MSTORE POP DUP2 ADD SWAP1 PUSH2 0x798 SWAP2 SWAP1 PUSH2 0x3B4B JUMP JUMPDEST PUSH1 0x40 MLOAD DUP1 PUSH1 0x40 ADD PUSH1 0x40 MSTORE DUP1 PUSH1 0x13 DUP2 MSTORE PUSH1 0x20 ADD PUSH1 0x0 DUP1 MLOAD PUSH1 0x20 PUSH2 0x3CED DUP4 CODECOPY DUP2 MLOAD SWAP2 MSTORE DUP2 MSTORE POP SWAP1 PUSH2 0x7E3 JUMPI PUSH1 0x40 MLOAD PUSH3 0x461BCD PUSH1 0xE5 SHL DUP2 MSTORE PUSH1 0x4 ADD PUSH2 0x7DA SWAP2 SWAP1 PUSH2 0x3B6D JUMP JUMPDEST PUSH1 0x40 MLOAD DUP1 SWAP2 SUB SWAP1 REVERT JUMPDEST POP PUSH2 0x7F0 PUSH1 0x3F SLOAD DUP3 PUSH2 0x2547 JUMP JUMPDEST PUSH1 0x3C DUP2 SWAP1 SSTORE PUSH1 0x40 MLOAD DUP2 DUP2 MSTORE PUSH32 0x3AB986BE3793B477C30DA5251BC48B317898D7570E74EE7A93D99773F708674D SWAP1 PUSH1 0x20 ADD JUMPDEST PUSH1 0x40 MLOAD DUP1 SWAP2 SUB SWAP1 LOG1 POP JUMP JUMPDEST PUSH2 0x834 PUSH2 0x2523 JUMP JUMPDEST PUSH1 0x40 MLOAD PUSH4 0x24745215 PUSH1 0xE2 SHL DUP2 MSTORE PUSH10 0x676F7665726E616E6365 PUSH1 0xB0 SHL PUSH1 0x4 DUP3 ADD MSTORE CALLER PUSH1 0x24 DUP3 ADD MSTORE PUSH1 0x1 PUSH1 0x1 PUSH1 0xA0 SHL SUB SWAP2 SWAP1 SWAP2 AND SWAP1 PUSH4 0x91D14854 SWAP1 PUSH1 0x44 ADD PUSH1 0x20 PUSH1 0x40 MLOAD DUP1 DUP4 SUB DUP2 DUP7 GAS STATICCALL ISZERO DUP1 ISZERO PUSH2 0x88D JUMPI RETURNDATASIZE PUSH1 0x0 DUP1 RETURNDATACOPY RETURNDATASIZE PUSH1 0x0 REVERT JUMPDEST POP POP POP POP PUSH1 0x40 MLOAD RETURNDATASIZE PUSH1 0x1F NOT PUSH1 0x1F DUP3 ADD AND DUP3 ADD DUP1 PUSH1 0x40 MSTORE POP DUP2 ADD SWAP1 PUSH2 0x8B1 SWAP2 SWAP1 PUSH2 0x3B4B JUMP JUMPDEST PUSH1 0x40 MLOAD DUP1 PUSH1 0x40 ADD PUSH1 0x40 MSTORE DUP1 PUSH1 0x13 DUP2 MSTORE PUSH1 0x20 ADD PUSH1 0x0 DUP1 MLOAD PUSH1 0x20 PUSH2 0x3CED DUP4 CODECOPY DUP2 MLOAD SWAP2 MSTORE DUP2 MSTORE POP SWAP1 PUSH2 0x8F3 JUMPI PUSH1 0x40 MLOAD PUSH3 0x461BCD PUSH1 0xE5 SHL DUP2 MSTORE PUSH1 0x4 ADD PUSH2 0x7DA SWAP2 SWAP1 PUSH2 0x3B6D JUMP JUMPDEST POP PUSH1 0x0 PUSH2 0x8FE PUSH2 0x25CE JUMP JUMPDEST SWAP1 POP PUSH1 0x0 DUP3 GT PUSH1 0x40 MLOAD DUP1 PUSH1 0x40 ADD PUSH1 0x40 MSTORE DUP1 PUSH1 0xE DUP2 MSTORE PUSH1 0x20 ADD PUSH14 0x1A5B9D985B1A5908185B5BDD5B9D PUSH1 0x92 SHL DUP2 MSTORE POP SWAP1 PUSH2 0x949 JUMPI PUSH1 0x40 MLOAD PUSH3 0x461BCD PUSH1 0xE5 SHL DUP2 MSTORE PUSH1 0x4 ADD PUSH2 0x7DA SWAP2 SWAP1 PUSH2 0x3B6D JUMP JUMPDEST POP PUSH1 0x2 PUSH1 0x0 SWAP1 SLOAD SWAP1 PUSH2 0x100 EXP SWAP1 DIV PUSH1 0x1 PUSH1 0x1 PUSH1 0xA0 SHL SUB AND PUSH1 0x1 PUSH1 0x1 PUSH1 0xA0 SHL SUB AND PUSH4 0xB187BD26 PUSH1 0x40 MLOAD DUP2 PUSH4 0xFFFFFFFF AND PUSH1 0xE0 SHL DUP2 MSTORE PUSH1 0x4 ADD PUSH1 0x20 PUSH1 0x40 MLOAD DUP1 DUP4 SUB DUP2 DUP7 GAS STATICCALL ISZERO DUP1 ISZERO PUSH2 0x99D JUMPI RETURNDATASIZE PUSH1 0x0 DUP1 RETURNDATACOPY RETURNDATASIZE PUSH1 0x0 REVERT JUMPDEST POP POP POP POP PUSH1 0x40 MLOAD RETURNDATASIZE PUSH1 0x1F NOT PUSH1 0x1F DUP3 ADD AND DUP3 ADD DUP1 PUSH1 0x40 MSTORE POP DUP2 ADD SWAP1 PUSH2 0x9C1 SWAP2 SWAP1 PUSH2 0x3B4B JUMP JUMPDEST PUSH1 0x40 MLOAD DUP1 PUSH1 0x60 ADD PUSH1 0x40 MSTORE DUP1 PUSH1 0x2C DUP2 MSTORE PUSH1 0x20 ADD PUSH2 0x3CC1 PUSH1 0x2C SWAP2 CODECOPY SWAP1 PUSH2 0x9F8 JUMPI PUSH1 0x40 MLOAD PUSH3 0x461BCD PUSH1 0xE5 SHL DUP2 MSTORE PUSH1 0x4 ADD PUSH2 0x7DA SWAP2 SWAP1 PUSH2 0x3B6D JUMP JUMPDEST POP PUSH1 0x0 PUSH1 0x1 PUSH1 0x1 PUSH1 0xA0 SHL SUB DUP3 AND PUSH4 0xD4FAC45D ADDRESS DUP4 PUSH1 0x40 MLOAD PUSH1 0x1 PUSH1 0x1 PUSH1 0xE0 SHL SUB NOT PUSH1 0xE0 DUP6 SWAP1 SHL AND DUP2 MSTORE PUSH1 0x1 PUSH1 0x1 PUSH1 0xA0 SHL SUB SWAP3 DUP4 AND PUSH1 0x4 DUP3 ADD MSTORE SWAP2 AND PUSH1 0x24 DUP3 ADD MSTORE PUSH1 0x44 ADD PUSH1 0x20 PUSH1 0x40 MLOAD DUP1 DUP4 SUB DUP2 DUP7 GAS STATICCALL ISZERO DUP1 ISZERO PUSH2 0xA57 JUMPI RETURNDATASIZE PUSH1 0x0 DUP1 RETURNDATACOPY RETURNDATASIZE PUSH1 0x0 REVERT JUMPDEST POP POP POP POP PUSH1 0x40 MLOAD RETURNDATASIZE PUSH1 0x1F NOT PUSH1 0x1F DUP3 ADD AND DUP3 ADD DUP1 PUSH1 0x40 MSTORE POP DUP2 ADD SWAP1 PUSH2 0xA7B SWAP2 SWAP1 PUSH2 0x3BC2 JUMP JUMPDEST SWAP1 POP DUP1 DUP4 GT ISZERO PUSH1 0x40 MLOAD DUP1 PUSH1 0x40 ADD PUSH1 0x40 MSTORE DUP1 PUSH1 0x14 DUP2 MSTORE PUSH1 0x20 ADD PUSH20 0x696E73756666696369656E742062616C616E6365 PUSH1 0x60 SHL DUP2 MSTORE POP SWAP1 PUSH2 0xACC JUMPI PUSH1 0x40 MLOAD PUSH3 0x461BCD PUSH1 0xE5 SHL DUP2 MSTORE PUSH1 0x4 ADD PUSH2 0x7DA SWAP2 SWAP1 PUSH2 0x3B6D JUMP JUMPDEST POP PUSH1 0x1 PUSH1 0x1 PUSH1 0xA0 SHL SUB DUP3 AND PUSH4 0xF3FEF3A3 PUSH1 0x0 PUSH1 0x40 MLOAD PUSH1 0x1 PUSH1 0x1 PUSH1 0xE0 SHL SUB NOT PUSH1 0xE0 DUP5 SWAP1 SHL AND DUP2 MSTORE PUSH1 0x1 PUSH1 0x1 PUSH1 0xA0 SHL SUB SWAP1 SWAP2 AND PUSH1 0x4 DUP3 ADD MSTORE PUSH1 0x24 DUP2 ADD DUP7 SWAP1 MSTORE PUSH1 0x44 ADD PUSH1 0x0 PUSH1 0x40 MLOAD DUP1 DUP4 SUB DUP2 PUSH1 0x0 DUP8 DUP1 EXTCODESIZE ISZERO DUP1 ISZERO PUSH2 0xB26 JUMPI PUSH1 0x0 DUP1 REVERT JUMPDEST POP GAS CALL ISZERO DUP1 ISZERO PUSH2 0xB3A JUMPI RETURNDATASIZE PUSH1 0x0 DUP1 RETURNDATACOPY RETURNDATASIZE PUSH1 0x0 REVERT JUMPDEST POP POP POP POP POP POP POP JUMP JUMPDEST PUSH1 0x0 PUSH2 0xB4D PUSH2 0x2523 JUMP JUMPDEST PUSH1 0x40 MLOAD PUSH4 0x24745215 PUSH1 0xE2 SHL DUP2 MSTORE PUSH10 0x676F7665726E616E6365 PUSH1 0xB0 SHL PUSH1 0x4 DUP3 ADD MSTORE CALLER PUSH1 0x24 DUP3 ADD MSTORE PUSH1 0x1 PUSH1 0x1 PUSH1 0xA0 SHL SUB SWAP2 SWAP1 SWAP2 AND SWAP1 PUSH4 0x91D14854 SWAP1 PUSH1 0x44 ADD PUSH1 0x20 PUSH1 0x40 MLOAD DUP1 DUP4 SUB DUP2 DUP7 GAS STATICCALL ISZERO DUP1 ISZERO PUSH2 0xBA6 JUMPI RETURNDATASIZE PUSH1 0x0 DUP1 RETURNDATACOPY RETURNDATASIZE PUSH1 0x0 REVERT JUMPDEST POP POP POP POP PUSH1 0x40 MLOAD RETURNDATASIZE PUSH1 0x1F NOT PUSH1 0x1F DUP3 ADD AND DUP3 ADD DUP1 PUSH1 0x40 MSTORE POP DUP2 ADD SWAP1 PUSH2 0xBCA SWAP2 SWAP1 PUSH2 0x3B4B JUMP JUMPDEST PUSH1 0x40 MLOAD DUP1 PUSH1 0x40 ADD PUSH1 0x40 MSTORE DUP1 PUSH1 0x13 DUP2 MSTORE PUSH1 0x20 ADD PUSH1 0x0 DUP1 MLOAD PUSH1 0x20 PUSH2 0x3CED DUP4 CODECOPY DUP2 MLOAD SWAP2 MSTORE DUP2 MSTORE POP SWAP1 PUSH2 0xC0C JUMPI PUSH1 0x40 MLOAD PUSH3 0x461BCD PUSH1 0xE5 SHL DUP2 MSTORE PUSH1 0x4 ADD PUSH2 0x7DA SWAP2 SWAP1 PUSH2 0x3B6D JUMP JUMPDEST POP PUSH2 0x70E PUSH2 0x2602 JUMP JUMPDEST PUSH1 0x2 SLOAD PUSH1 0x0 SWAP1 PUSH1 0x1 PUSH1 0x1 PUSH1 0xA0 SHL SUB AND CALLER EQ DUP1 PUSH2 0xCB1 JUMPI POP PUSH2 0xC34 PUSH2 0x2523 JUMP JUMPDEST PUSH1 0x40 MLOAD PUSH4 0x24745215 PUSH1 0xE2 SHL DUP2 MSTORE PUSH10 0x676F7665726E616E6365 PUSH1 0xB0 SHL PUSH1 0x4 DUP3 ADD MSTORE CALLER PUSH1 0x24 DUP3 ADD MSTORE PUSH1 0x1 PUSH1 0x1 PUSH1 0xA0 SHL SUB SWAP2 SWAP1 SWAP2 AND SWAP1 PUSH4 0x91D14854 SWAP1 PUSH1 0x44 ADD PUSH1 0x20 PUSH1 0x40 MLOAD DUP1 DUP4 SUB DUP2 DUP7 GAS STATICCALL ISZERO DUP1 ISZERO PUSH2 0xC8D JUMPI RETURNDATASIZE PUSH1 0x0 DUP1 RETURNDATACOPY RETURNDATASIZE PUSH1 0x0 REVERT JUMPDEST POP POP POP POP PUSH1 0x40 MLOAD RETURNDATASIZE PUSH1 0x1F NOT PUSH1 0x1F DUP3 ADD AND DUP3 ADD DUP1 PUSH1 0x40 MSTORE POP DUP2 ADD SWAP1 PUSH2 0xCB1 SWAP2 SWAP1 PUSH2 0x3B4B JUMP JUMPDEST PUSH1 0x40 MLOAD DUP1 PUSH1 0x40 ADD PUSH1 0x40 MSTORE DUP1 PUSH1 0x13 DUP2 MSTORE PUSH1 0x20 ADD PUSH1 0x0 DUP1 MLOAD PUSH1 0x20 PUSH2 0x3CED DUP4 CODECOPY DUP2 MLOAD SWAP2 MSTORE DUP2 MSTORE POP SWAP1 PUSH2 0xCF3 JUMPI PUSH1 0x40 MLOAD PUSH3 0x461BCD PUSH1 0xE5 SHL DUP2 MSTORE PUSH1 0x4 ADD PUSH2 0x7DA SWAP2 SWAP1 PUSH2 0x3B6D JUMP JUMPDEST POP PUSH1 0x3A SLOAD PUSH3 0x10000 SWAP1 DIV PUSH1 0x1 PUSH1 0x1 PUSH1 0xA0 SHL SUB AND SELFBALANCE DUP4 DUP2 LT ISZERO PUSH2 0xE4D JUMPI PUSH1 0x1 PUSH1 0x1 PUSH1 0xA0 SHL SUB DUP3 AND PUSH2 0xD27 JUMPI POP PUSH1 0x0 SWAP4 SWAP3 POP POP POP JUMP JUMPDEST PUSH1 0x0 DUP3 PUSH1 0x1 PUSH1 0x1 PUSH1 0xA0 SHL SUB AND PUSH4 0xB69EF8A8 PUSH1 0x40 MLOAD DUP2 PUSH4 0xFFFFFFFF AND PUSH1 0xE0 SHL DUP2 MSTORE PUSH1 0x4 ADD PUSH1 0x20 PUSH1 0x40 MLOAD DUP1 DUP4 SUB DUP2 DUP7 GAS STATICCALL ISZERO DUP1 ISZERO PUSH2 0xD67 JUMPI RETURNDATASIZE PUSH1 0x0 DUP1 RETURNDATACOPY RETURNDATASIZE PUSH1 0x0 REVERT JUMPDEST POP POP POP POP PUSH1 0x40 MLOAD RETURNDATASIZE PUSH1 0x1F NOT PUSH1 0x1F DUP3 ADD AND DUP3 ADD DUP1 PUSH1 0x40 MSTORE POP DUP2 ADD SWAP1 PUSH2 0xD8B SWAP2 SWAP1 PUSH2 0x3BC2 JUMP JUMPDEST SWAP1 POP DUP2 DUP6 SUB DUP2 DUP2 GT ISZERO PUSH2 0xDA4 JUMPI POP PUSH1 0x0 SWAP6 SWAP5 POP POP POP POP POP JUMP JUMPDEST PUSH1 0x3E SLOAD PUSH1 0x0 SWAP1 PUSH2 0xDB7 SWAP1 DUP4 DUP6 SUB SWAP1 PUSH2 0x2662 JUMP JUMPDEST SWAP1 POP PUSH1 0x0 PUSH2 0xDC5 DUP3 DUP6 PUSH2 0x3BF1 JUMP JUMPDEST PUSH1 0x40 MLOAD PUSH4 0x2E1A7D4D PUSH1 0xE0 SHL DUP2 MSTORE PUSH1 0x4 DUP2 ADD DUP3 SWAP1 MSTORE SWAP1 SWAP2 POP PUSH1 0x1 PUSH1 0x1 PUSH1 0xA0 SHL SUB DUP8 AND SWAP1 PUSH4 0x2E1A7D4D SWAP1 PUSH1 0x24 ADD PUSH1 0x20 PUSH1 0x40 MLOAD DUP1 DUP4 SUB DUP2 PUSH1 0x0 DUP8 GAS CALL ISZERO DUP1 ISZERO PUSH2 0xE0F JUMPI RETURNDATASIZE PUSH1 0x0 DUP1 RETURNDATACOPY RETURNDATASIZE PUSH1 0x0 REVERT JUMPDEST POP POP POP POP PUSH1 0x40 MLOAD RETURNDATASIZE PUSH1 0x1F NOT PUSH1 0x1F DUP3 ADD AND DUP3 ADD DUP1 PUSH1 0x40 MSTORE POP DUP2 ADD SWAP1 PUSH2 0xE33 SWAP2 SWAP1 PUSH2 0x3B4B JUMP JUMPDEST POP PUSH2 0xE40 PUSH1 0x0 SLOAD DUP3 PUSH2 0x2688 JUMP JUMPDEST PUSH1 0x0 SSTORE POP PUSH2 0xEF1 SWAP3 POP POP POP JUMP JUMPDEST PUSH1 0x0 PUSH1 0x1 PUSH1 0x1 PUSH1 0xA0 SHL SUB DUP4 AND ISZERO PUSH2 0xEC3 JUMPI DUP3 PUSH1 0x1 PUSH1 0x1 PUSH1 0xA0 SHL SUB AND PUSH4 0xB69EF8A8 PUSH1 0x40 MLOAD DUP2 PUSH4 0xFFFFFFFF AND PUSH1 0xE0 SHL DUP2 MSTORE PUSH1 0x4 ADD PUSH1 0x20 PUSH1 0x40 MLOAD DUP1 DUP4 SUB DUP2 DUP7 GAS STATICCALL ISZERO DUP1 ISZERO PUSH2 0xE9C JUMPI RETURNDATASIZE PUSH1 0x0 DUP1 RETURNDATACOPY RETURNDATASIZE PUSH1 0x0 REVERT JUMPDEST POP POP POP POP PUSH1 0x40 MLOAD RETURNDATASIZE PUSH1 0x1F NOT PUSH1 0x1F DUP3 ADD AND DUP3 ADD DUP1 PUSH1 0x40 MSTORE POP DUP2 ADD SWAP1 PUSH2 0xEC0 SWAP2 SWAP1 PUSH2 0x3BC2 JUMP JUMPDEST SWAP1 POP JUMPDEST PUSH1 0x1 SLOAD PUSH1 0x0 SWAP1 PUSH2 0xED3 DUP4 DUP6 PUSH2 0x3C08 JUMP JUMPDEST PUSH2 0xEDD SWAP2 SWAP1 PUSH2 0x3C08 JUMP JUMPDEST SWAP1 POP DUP6 DUP2 SUB PUSH2 0xEEC DUP2 DUP5 PUSH2 0x26AC JUMP JUMPDEST POP POP POP POP JUMPDEST PUSH1 0x2 SLOAD PUSH2 0xF07 SWAP1 PUSH1 0x1 PUSH1 0x1 PUSH1 0xA0 SHL SUB AND DUP6 PUSH2 0x28B6 JUMP JUMPDEST POP PUSH1 0x1 SWAP4 SWAP3 POP POP POP JUMP JUMPDEST PUSH1 0x2 SLOAD PUSH1 0x0 SWAP1 PUSH1 0x1 PUSH1 0x1 PUSH1 0xA0 SHL SUB AND CALLER EQ DUP1 PUSH2 0xFAE JUMPI POP PUSH2 0xF30 PUSH2 0x2523 JUMP JUMPDEST PUSH1 0x40 MLOAD PUSH4 0x24745215 PUSH1 0xE2 SHL DUP2 MSTORE PUSH11 0x6D61696E74656E616E6365 PUSH1 0xA8 SHL PUSH1 0x4 DUP3 ADD MSTORE CALLER PUSH1 0x24 DUP3 ADD MSTORE PUSH1 0x1 PUSH1 0x1 PUSH1 0xA0 SHL SUB SWAP2 SWAP1 SWAP2 AND SWAP1 PUSH4 0x91D14854 SWAP1 PUSH1 0x44 ADD PUSH1 0x20 PUSH1 0x40 MLOAD DUP1 DUP4 SUB DUP2 DUP7 GAS STATICCALL ISZERO DUP1 ISZERO PUSH2 0xF8A JUMPI RETURNDATASIZE PUSH1 0x0 DUP1 RETURNDATACOPY RETURNDATASIZE PUSH1 0x0 REVERT JUMPDEST POP POP POP POP PUSH1 0x40 MLOAD RETURNDATASIZE PUSH1 0x1F NOT PUSH1 0x1F DUP3 ADD AND DUP3 ADD DUP1 PUSH1 0x40 MSTORE POP DUP2 ADD SWAP1 PUSH2 0xFAE SWAP2 SWAP1 PUSH2 0x3B4B JUMP JUMPDEST PUSH1 0x40 MLOAD DUP1 PUSH1 0x40 ADD PUSH1 0x40 MSTORE DUP1 PUSH1 0x13 DUP2 MSTORE PUSH1 0x20 ADD PUSH1 0x0 DUP1 MLOAD PUSH1 0x20 PUSH2 0x3CED DUP4 CODECOPY DUP2 MLOAD SWAP2 MSTORE DUP2 MSTORE POP SWAP1 PUSH2 0xFF0 JUMPI PUSH1 0x40 MLOAD PUSH3 0x461BCD PUSH1 0xE5 SHL DUP2 MSTORE PUSH1 0x4 ADD PUSH2 0x7DA SWAP2 SWAP1 PUSH2 0x3B6D JUMP JUMPDEST POP PUSH2 0x70E PUSH2 0x295A JUMP JUMPDEST PUSH1 0x0 PUSH2 0x1003 PUSH2 0x2523 JUMP JUMPDEST PUSH1 0x40 MLOAD PUSH4 0x24745215 PUSH1 0xE2 SHL DUP2 MSTORE PUSH10 0x676F7665726E616E6365 PUSH1 0xB0 SHL PUSH1 0x4 DUP3 ADD MSTORE CALLER PUSH1 0x24 DUP3 ADD MSTORE PUSH1 0x1 PUSH1 0x1 PUSH1 0xA0 SHL SUB SWAP2 SWAP1 SWAP2 AND SWAP1 PUSH4 0x91D14854 SWAP1 PUSH1 0x44 ADD PUSH1 0x20 PUSH1 0x40 MLOAD DUP1 DUP4 SUB DUP2 DUP7 GAS STATICCALL ISZERO DUP1 ISZERO PUSH2 0x105C JUMPI RETURNDATASIZE PUSH1 0x0 DUP1 RETURNDATACOPY RETURNDATASIZE PUSH1 0x0 REVERT JUMPDEST POP POP POP POP PUSH1 0x40 MLOAD RETURNDATASIZE PUSH1 0x1F NOT PUSH1 0x1F DUP3 ADD AND DUP3 ADD DUP1 PUSH1 0x40 MSTORE POP DUP2 ADD SWAP1 PUSH2 0x1080 SWAP2 SWAP1 PUSH2 0x3B4B JUMP JUMPDEST PUSH1 0x40 MLOAD DUP1 PUSH1 0x40 ADD PUSH1 0x40 MSTORE DUP1 PUSH1 0x13 DUP2 MSTORE PUSH1 0x20 ADD PUSH1 0x0 DUP1 MLOAD PUSH1 0x20 PUSH2 0x3CED DUP4 CODECOPY DUP2 MLOAD SWAP2 MSTORE DUP2 MSTORE POP SWAP1 PUSH2 0x10C2 JUMPI PUSH1 0x40 MLOAD PUSH3 0x461BCD PUSH1 0xE5 SHL DUP2 MSTORE PUSH1 0x4 ADD PUSH2 0x7DA SWAP2 SWAP1 PUSH2 0x3B6D JUMP JUMPDEST POP PUSH1 0x3A SLOAD PUSH3 0x10000 SWAP1 DIV PUSH1 0x1 PUSH1 0x1 PUSH1 0xA0 SHL SUB AND DUP1 PUSH2 0x10E3 JUMPI POP PUSH1 0x0 SWAP3 SWAP2 POP POP JUMP JUMPDEST DUP3 DUP2 PUSH1 0x1 PUSH1 0x1 PUSH1 0xA0 SHL SUB AND PUSH4 0xB69EF8A8 PUSH1 0x40 MLOAD DUP2 PUSH4 0xFFFFFFFF AND PUSH1 0xE0 SHL DUP2 MSTORE PUSH1 0x4 ADD PUSH1 0x20 PUSH1 0x40 MLOAD DUP1 DUP4 SUB DUP2 DUP7 GAS STATICCALL ISZERO DUP1 ISZERO PUSH2 0x1122 JUMPI RETURNDATASIZE PUSH1 0x0 DUP1 RETURNDATACOPY RETURNDATASIZE PUSH1 0x0 REVERT JUMPDEST POP POP POP POP PUSH1 0x40 MLOAD RETURNDATASIZE PUSH1 0x1F NOT PUSH1 0x1F DUP3 ADD AND DUP3 ADD DUP1 PUSH1 0x40 MSTORE POP DUP2 ADD SWAP1 PUSH2 0x1146 SWAP2 SWAP1 PUSH2 0x3BC2 JUMP JUMPDEST LT ISZERO PUSH2 0x1155 JUMPI POP PUSH1 0x0 SWAP3 SWAP2 POP POP JUMP JUMPDEST PUSH1 0x0 SELFBALANCE PUSH1 0x40 MLOAD PUSH4 0x2E1A7D4D PUSH1 0xE0 SHL DUP2 MSTORE PUSH1 0x4 DUP2 ADD DUP7 SWAP1 MSTORE SWAP1 SWAP2 POP PUSH1 0x1 PUSH1 0x1 PUSH1 0xA0 SHL SUB DUP4 AND SWAP1 PUSH4 0x2E1A7D4D SWAP1 PUSH1 0x24 ADD PUSH1 0x20 PUSH1 0x40 MLOAD DUP1 DUP4 SUB DUP2 PUSH1 0x0 DUP8 GAS CALL ISZERO DUP1 ISZERO PUSH2 0x11A2 JUMPI RETURNDATASIZE PUSH1 0x0 DUP1 RETURNDATACOPY RETURNDATASIZE PUSH1 0x0 REVERT JUMPDEST POP POP POP POP PUSH1 0x40 MLOAD RETURNDATASIZE PUSH1 0x1F NOT PUSH1 0x1F DUP3 ADD AND DUP3 ADD DUP1 PUSH1 0x40 MSTORE POP DUP2 ADD SWAP1 PUSH2 0x11C6 SWAP2 SWAP1 PUSH2 0x3B4B JUMP JUMPDEST POP SELFBALANCE PUSH2 0x11D2 DUP3 DUP3 PUSH2 0x3BF1 JUMP JUMPDEST PUSH1 0x0 DUP1 DUP3 DUP3 SLOAD PUSH2 0x11E2 SWAP2 SWAP1 PUSH2 0x3BF1 JUMP JUMPDEST SWAP1 SWAP2 SSTORE POP PUSH1 0x1 SWAP7 SWAP6 POP POP POP POP POP POP JUMP JUMPDEST PUSH1 0x3A SLOAD PUSH2 0x100 SWAP1 DIV PUSH1 0xFF AND PUSH2 0x120D JUMPI PUSH1 0x3A SLOAD PUSH1 0xFF AND ISZERO PUSH2 0x1211 JUMP JUMPDEST ADDRESS EXTCODESIZE ISZERO JUMPDEST PUSH2 0x1274 JUMPI PUSH1 0x40 MLOAD PUSH3 0x461BCD PUSH1 0xE5 SHL DUP2 MSTORE PUSH1 0x20 PUSH1 0x4 DUP3 ADD MSTORE PUSH1 0x2E PUSH1 0x24 DUP3 ADD MSTORE PUSH32 0x496E697469616C697A61626C653A20636F6E747261637420697320616C726561 PUSH1 0x44 DUP3 ADD MSTORE PUSH14 0x191E481A5B9A5D1A585B1A5E9959 PUSH1 0x92 SHL PUSH1 0x64 DUP3 ADD MSTORE PUSH1 0x84 ADD PUSH2 0x7DA JUMP JUMPDEST PUSH1 0x3A SLOAD PUSH2 0x100 SWAP1 DIV PUSH1 0xFF AND ISZERO DUP1 ISZERO PUSH2 0x1296 JUMPI PUSH1 0x3A DUP1 SLOAD PUSH2 0xFFFF NOT AND PUSH2 0x101 OR SWAP1 SSTORE JUMPDEST PUSH2 0x12A2 DUP6 DUP6 DUP6 DUP6 PUSH2 0x2BB9 JUMP JUMPDEST DUP1 ISZERO PUSH2 0x12B4 JUMPI PUSH1 0x3A DUP1 SLOAD PUSH2 0xFF00 NOT AND SWAP1 SSTORE JUMPDEST POP POP POP POP POP JUMP JUMPDEST PUSH2 0x12C3 PUSH2 0x2523 JUMP JUMPDEST PUSH1 0x40 MLOAD PUSH4 0x24745215 PUSH1 0xE2 SHL DUP2 MSTORE PUSH10 0x676F7665726E616E6365 PUSH1 0xB0 SHL PUSH1 0x4 DUP3 ADD MSTORE CALLER PUSH1 0x24 DUP3 ADD MSTORE PUSH1 0x1 PUSH1 0x1 PUSH1 0xA0 SHL SUB SWAP2 SWAP1 SWAP2 AND SWAP1 PUSH4 0x91D14854 SWAP1 PUSH1 0x44 ADD PUSH1 0x20 PUSH1 0x40 MLOAD DUP1 DUP4 SUB DUP2 DUP7 GAS STATICCALL ISZERO DUP1 ISZERO PUSH2 0x131C JUMPI RETURNDATASIZE PUSH1 0x0 DUP1 RETURNDATACOPY RETURNDATASIZE PUSH1 0x0 REVERT JUMPDEST POP POP POP POP PUSH1 0x40 MLOAD RETURNDATASIZE PUSH1 0x1F NOT PUSH1 0x1F DUP3 ADD AND DUP3 ADD DUP1 PUSH1 0x40 MSTORE POP DUP2 ADD SWAP1 PUSH2 0x1340 SWAP2 SWAP1 PUSH2 0x3B4B JUMP JUMPDEST PUSH1 0x40 MLOAD DUP1 PUSH1 0x40 ADD PUSH1 0x40 MSTORE DUP1 PUSH1 0x13 DUP2 MSTORE PUSH1 0x20 ADD PUSH1 0x0 DUP1 MLOAD PUSH1 0x20 PUSH2 0x3CED DUP4 CODECOPY DUP2 MLOAD SWAP2 MSTORE DUP2 MSTORE POP SWAP1 PUSH2 0x1382 JUMPI PUSH1 0x40 MLOAD PUSH3 0x461BCD PUSH1 0xE5 SHL DUP2 MSTORE PUSH1 0x4 ADD PUSH2 0x7DA SWAP2 SWAP1 PUSH2 0x3B6D JUMP JUMPDEST POP PUSH2 0x138F DUP2 PUSH1 0x3C SLOAD PUSH2 0x2547 JUMP JUMPDEST PUSH1 0x3F DUP2 SWAP1 SSTORE PUSH1 0x40 MLOAD DUP2 DUP2 MSTORE PUSH32 0x2F607C814DD1BEC90D1CA0DB17FA4D0D59746950F56BBE8B85FA190F0CB17DB8 SWAP1 PUSH1 0x20 ADD PUSH2 0x821 JUMP JUMPDEST PUSH1 0x0 PUSH2 0x13CE PUSH2 0x2523 JUMP JUMPDEST PUSH1 0x40 MLOAD PUSH4 0x24745215 PUSH1 0xE2 SHL DUP2 MSTORE PUSH10 0x676F7665726E616E6365 PUSH1 0xB0 SHL PUSH1 0x4 DUP3 ADD MSTORE CALLER PUSH1 0x24 DUP3 ADD MSTORE PUSH1 0x1 PUSH1 0x1 PUSH1 0xA0 SHL SUB SWAP2 SWAP1 SWAP2 AND SWAP1 PUSH4 0x91D14854 SWAP1 PUSH1 0x44 ADD PUSH1 0x20 PUSH1 0x40 MLOAD DUP1 DUP4 SUB DUP2 DUP7 GAS STATICCALL ISZERO DUP1 ISZERO PUSH2 0x1427 JUMPI RETURNDATASIZE PUSH1 0x0 DUP1 RETURNDATACOPY RETURNDATASIZE PUSH1 0x0 REVERT JUMPDEST POP POP POP POP PUSH1 0x40 MLOAD RETURNDATASIZE PUSH1 0x1F NOT PUSH1 0x1F DUP3 ADD AND DUP3 ADD DUP1 PUSH1 0x40 MSTORE POP DUP2 ADD SWAP1 PUSH2 0x144B SWAP2 SWAP1 PUSH2 0x3B4B JUMP JUMPDEST PUSH1 0x40 MLOAD DUP1 PUSH1 0x40 ADD PUSH1 0x40 MSTORE DUP1 PUSH1 0x13 DUP2 MSTORE PUSH1 0x20 ADD PUSH1 0x0 DUP1 MLOAD PUSH1 0x20 PUSH2 0x3CED DUP4 CODECOPY DUP2 MLOAD SWAP2 MSTORE DUP2 MSTORE POP SWAP1 PUSH2 0x148D JUMPI PUSH1 0x40 MLOAD PUSH3 0x461BCD PUSH1 0xE5 SHL DUP2 MSTORE PUSH1 0x4 ADD PUSH2 0x7DA SWAP2 SWAP1 PUSH2 0x3B6D JUMP JUMPDEST POP PUSH2 0x70E PUSH2 0x2CD5 JUMP JUMPDEST PUSH2 0x149E PUSH2 0x2523 JUMP JUMPDEST PUSH1 0x40 MLOAD PUSH4 0x24745215 PUSH1 0xE2 SHL DUP2 MSTORE PUSH10 0x676F7665726E616E6365 PUSH1 0xB0 SHL PUSH1 0x4 DUP3 ADD MSTORE CALLER PUSH1 0x24 DUP3 ADD MSTORE PUSH1 0x1 PUSH1 0x1 PUSH1 0xA0 SHL SUB SWAP2 SWAP1 SWAP2 AND SWAP1 PUSH4 0x91D14854 SWAP1 PUSH1 0x44 ADD PUSH1 0x20 PUSH1 0x40 MLOAD DUP1 DUP4 SUB DUP2 DUP7 GAS STATICCALL ISZERO DUP1 ISZERO PUSH2 0x14F7 JUMPI RETURNDATASIZE PUSH1 0x0 DUP1 RETURNDATACOPY RETURNDATASIZE PUSH1 0x0 REVERT JUMPDEST POP POP POP POP PUSH1 0x40 MLOAD RETURNDATASIZE PUSH1 0x1F NOT PUSH1 0x1F DUP3 ADD AND DUP3 ADD DUP1 PUSH1 0x40 MSTORE POP DUP2 ADD SWAP1 PUSH2 0x151B SWAP2 SWAP1 PUSH2 0x3B4B JUMP JUMPDEST PUSH1 0x40 MLOAD DUP1 PUSH1 0x40 ADD PUSH1 0x40 MSTORE DUP1 PUSH1 0x13 DUP2 MSTORE PUSH1 0x20 ADD PUSH1 0x0 DUP1 MLOAD PUSH1 0x20 PUSH2 0x3CED DUP4 CODECOPY DUP2 MLOAD SWAP2 MSTORE DUP2 MSTORE POP SWAP1 PUSH2 0x155D JUMPI PUSH1 0x40 MLOAD PUSH3 0x461BCD PUSH1 0xE5 SHL DUP2 MSTORE PUSH1 0x4 ADD PUSH2 0x7DA SWAP2 SWAP1 PUSH2 0x3B6D JUMP JUMPDEST POP PUSH1 0x3A SLOAD PUSH1 0x40 DUP1 MLOAD DUP1 DUP3 ADD SWAP1 SWAP2 MSTORE PUSH1 0x16 DUP2 MSTORE PUSH22 0x1059191C995CDCC81A5CC8185B1C9958591E481CD95D PUSH1 0x52 SHL PUSH1 0x20 DUP3 ADD MSTORE SWAP1 PUSH3 0x10000 SWAP1 DIV PUSH1 0x1 PUSH1 0x1 PUSH1 0xA0 SHL SUB AND ISZERO PUSH2 0x15BC JUMPI PUSH1 0x40 MLOAD PUSH3 0x461BCD PUSH1 0xE5 SHL DUP2 MSTORE PUSH1 0x4 ADD PUSH2 0x7DA SWAP2 SWAP1 PUSH2 0x3B6D JUMP JUMPDEST POP PUSH1 0x40 DUP1 MLOAD DUP1 DUP3 ADD SWAP1 SWAP2 MSTORE PUSH1 0x18 DUP2 MSTORE PUSH24 0x1E995C9BC81859191C995CDCC81B9BDD08185B1B1BDDD959 PUSH1 0x42 SHL PUSH1 0x20 DUP3 ADD MSTORE PUSH1 0x1 PUSH1 0x1 PUSH1 0xA0 SHL SUB DUP3 AND PUSH2 0x1613 JUMPI PUSH1 0x40 MLOAD PUSH3 0x461BCD PUSH1 0xE5 SHL DUP2 MSTORE PUSH1 0x4 ADD PUSH2 0x7DA SWAP2 SWAP1 PUSH2 0x3B6D JUMP JUMPDEST POP PUSH1 0x3A DUP1 SLOAD PUSH3 0x10000 PUSH1 0x1 PUSH1 0xB0 SHL SUB NOT AND PUSH3 0x10000 PUSH1 0x1 PUSH1 0x1 PUSH1 0xA0 SHL SUB DUP5 AND MUL OR SWAP1 SSTORE PUSH2 0x163E PUSH2 0x2CD5 JUMP JUMPDEST POP PUSH1 0x0 PUSH1 0x1 PUSH1 0x1 PUSH1 0xA0 SHL SUB AND DUP2 PUSH1 0x1 PUSH1 0x1 PUSH1 0xA0 SHL SUB AND PUSH4 0x1FE4A686 PUSH1 0x40 MLOAD DUP2 PUSH4 0xFFFFFFFF AND PUSH1 0xE0 SHL DUP2 MSTORE PUSH1 0x4 ADD PUSH1 0x20 PUSH1 0x40 MLOAD DUP1 DUP4 SUB DUP2 DUP7 GAS STATICCALL ISZERO DUP1 ISZERO PUSH2 0x1688 JUMPI RETURNDATASIZE PUSH1 0x0 DUP1 RETURNDATACOPY RETURNDATASIZE PUSH1 0x0 REVERT JUMPDEST POP POP POP POP PUSH1 0x40 MLOAD RETURNDATASIZE PUSH1 0x1F NOT PUSH1 0x1F DUP3 ADD AND DUP3 ADD DUP1 PUSH1 0x40 MSTORE POP DUP2 ADD SWAP1 PUSH2 0x16AC SWAP2 SWAP1 PUSH2 0x3C20 JUMP JUMPDEST PUSH1 0x1 PUSH1 0x1 PUSH1 0xA0 SHL SUB AND EQ ISZERO PUSH1 0x40 MLOAD DUP1 PUSH1 0x40 ADD PUSH1 0x40 MSTORE DUP1 PUSH1 0x18 DUP2 MSTORE PUSH1 0x20 ADD PUSH24 0x1E995C9BC81859191C995CDCC81B9BDD08185B1B1BDDD959 PUSH1 0x42 SHL DUP2 MSTORE POP SWAP1 PUSH2 0x1706 JUMPI PUSH1 0x40 MLOAD PUSH3 0x461BCD PUSH1 0xE5 SHL DUP2 MSTORE PUSH1 0x4 ADD PUSH2 0x7DA SWAP2 SWAP1 PUSH2 0x3B6D JUMP JUMPDEST POP POP JUMP JUMPDEST PUSH1 0x0 PUSH2 0x1717 PUSH1 0x5 DUP4 PUSH2 0x2D48 JUMP JUMPDEST SWAP3 SWAP2 POP POP JUMP JUMPDEST PUSH2 0x1725 PUSH2 0x2523 JUMP JUMPDEST PUSH1 0x40 MLOAD PUSH4 0x24745215 PUSH1 0xE2 SHL DUP2 MSTORE PUSH10 0x676F7665726E616E6365 PUSH1 0xB0 SHL PUSH1 0x4 DUP3 ADD MSTORE CALLER PUSH1 0x24 DUP3 ADD MSTORE PUSH1 0x1 PUSH1 0x1 PUSH1 0xA0 SHL SUB SWAP2 SWAP1 SWAP2 AND SWAP1 PUSH4 0x91D14854 SWAP1 PUSH1 0x44 ADD PUSH1 0x20 PUSH1 0x40 MLOAD DUP1 DUP4 SUB DUP2 DUP7 GAS STATICCALL ISZERO DUP1 ISZERO PUSH2 0x177E JUMPI RETURNDATASIZE PUSH1 0x0 DUP1 RETURNDATACOPY RETURNDATASIZE PUSH1 0x0 REVERT JUMPDEST POP POP POP POP PUSH1 0x40 MLOAD RETURNDATASIZE PUSH1 0x1F NOT PUSH1 0x1F DUP3 ADD AND DUP3 ADD DUP1 PUSH1 0x40 MSTORE POP DUP2 ADD SWAP1 PUSH2 0x17A2 SWAP2 SWAP1 PUSH2 0x3B4B JUMP JUMPDEST PUSH1 0x40 MLOAD DUP1 PUSH1 0x40 ADD PUSH1 0x40 MSTORE DUP1 PUSH1 0x13 DUP2 MSTORE PUSH1 0x20 ADD PUSH1 0x0 DUP1 MLOAD PUSH1 0x20 PUSH2 0x3CED DUP4 CODECOPY DUP2 MLOAD SWAP2 MSTORE DUP2 MSTORE POP SWAP1 PUSH2 0x17E4 JUMPI PUSH1 0x40 MLOAD PUSH3 0x461BCD PUSH1 0xE5 SHL DUP2 MSTORE PUSH1 0x4 ADD PUSH2 0x7DA SWAP2 SWAP1 PUSH2 0x3B6D JUMP JUMPDEST POP PUSH1 0x40 DUP1 MLOAD DUP1 DUP3 ADD SWAP1 SWAP2 MSTORE PUSH1 0xE DUP2 MSTORE PUSH14 0x1A5B9D985B1A5908185B5BDD5B9D PUSH1 0x92 SHL PUSH1 0x20 DUP3 ADD MSTORE PUSH8 0x6F05B59D3B20000 DUP3 GT ISZERO PUSH2 0x1833 JUMPI PUSH1 0x40 MLOAD PUSH3 0x461BCD PUSH1 0xE5 SHL DUP2 MSTORE PUSH1 0x4 ADD PUSH2 0x7DA SWAP2 SWAP1 PUSH2 0x3B6D JUMP JUMPDEST POP PUSH1 0x40 DUP2 SWAP1 SSTORE PUSH2 0x1841 PUSH2 0x2D5D JUMP JUMPDEST PUSH1 0x40 MLOAD DUP2 DUP2 MSTORE PUSH32 0xD03F9F484EB10F5B865F7AAEBE7D8E5CCE03A0D8B08FE18A0F0BC86B7C986CA7 SWAP1 PUSH1 0x20 ADD PUSH2 0x821 JUMP JUMPDEST PUSH1 0x60 PUSH2 0x70E PUSH1 0x5 PUSH2 0x2E1F JUMP JUMPDEST PUSH1 0x2 SLOAD PUSH1 0x0 SWAP1 PUSH1 0x1 PUSH1 0x1 PUSH1 0xA0 SHL SUB AND CALLER EQ DUP1 PUSH2 0x1919 JUMPI POP PUSH2 0x189C PUSH2 0x2523 JUMP JUMPDEST PUSH1 0x40 MLOAD PUSH4 0x24745215 PUSH1 0xE2 SHL DUP2 MSTORE PUSH10 0x676F7665726E616E6365 PUSH1 0xB0 SHL PUSH1 0x4 DUP3 ADD MSTORE CALLER PUSH1 0x24 DUP3 ADD MSTORE PUSH1 0x1 PUSH1 0x1 PUSH1 0xA0 SHL SUB SWAP2 SWAP1 SWAP2 AND SWAP1 PUSH4 0x91D14854 SWAP1 PUSH1 0x44 ADD PUSH1 0x20 PUSH1 0x40 MLOAD DUP1 DUP4 SUB DUP2 DUP7 GAS STATICCALL ISZERO DUP1 ISZERO PUSH2 0x18F5 JUMPI RETURNDATASIZE PUSH1 0x0 DUP1 RETURNDATACOPY RETURNDATASIZE PUSH1 0x0 REVERT JUMPDEST POP POP POP POP PUSH1 0x40 MLOAD RETURNDATASIZE PUSH1 0x1F NOT PUSH1 0x1F DUP3 ADD AND DUP3 ADD DUP1 PUSH1 0x40 MSTORE POP DUP2 ADD SWAP1 PUSH2 0x1919 SWAP2 SWAP1 PUSH2 0x3B4B JUMP JUMPDEST PUSH1 0x40 MLOAD DUP1 PUSH1 0x40 ADD PUSH1 0x40 MSTORE DUP1 PUSH1 0x13 DUP2 MSTORE PUSH1 0x20 ADD PUSH1 0x0 DUP1 MLOAD PUSH1 0x20 PUSH2 0x3CED DUP4 CODECOPY DUP2 MLOAD SWAP2 MSTORE DUP2 MSTORE POP SWAP1 PUSH2 0x195B JUMPI PUSH1 0x40 MLOAD PUSH3 0x461BCD PUSH1 0xE5 SHL DUP2 MSTORE PUSH1 0x4 ADD PUSH2 0x7DA SWAP2 SWAP1 PUSH2 0x3B6D JUMP JUMPDEST POP PUSH2 0x70E PUSH2 0x2EC4 JUMP JUMPDEST PUSH1 0x3A SLOAD PUSH1 0x0 SWAP1 PUSH3 0x10000 SWAP1 DIV PUSH1 0x1 PUSH1 0x1 PUSH1 0xA0 SHL SUB AND PUSH2 0x1982 JUMPI POP SELFBALANCE SWAP1 JUMP JUMPDEST PUSH1 0x1 SLOAD PUSH1 0x0 SLOAD PUSH2 0x1992 SWAP1 SELFBALANCE PUSH2 0x3C08 JUMP JUMPDEST PUSH2 0x70E SWAP2 SWAP1 PUSH2 0x3C08 JUMP JUMPDEST PUSH2 0x19A4 PUSH2 0x2523 JUMP JUMPDEST PUSH1 0x40 MLOAD PUSH4 0x24745215 PUSH1 0xE2 SHL DUP2 MSTORE PUSH10 0x676F7665726E616E6365 PUSH1 0xB0 SHL PUSH1 0x4 DUP3 ADD MSTORE CALLER PUSH1 0x24 DUP3 ADD MSTORE PUSH1 0x1 PUSH1 0x1 PUSH1 0xA0 SHL SUB SWAP2 SWAP1 SWAP2 AND SWAP1 PUSH4 0x91D14854 SWAP1 PUSH1 0x44 ADD PUSH1 0x20 PUSH1 0x40 MLOAD DUP1 DUP4 SUB DUP2 DUP7 GAS STATICCALL ISZERO DUP1 ISZERO PUSH2 0x19FD JUMPI RETURNDATASIZE PUSH1 0x0 DUP1 RETURNDATACOPY RETURNDATASIZE PUSH1 0x0 REVERT JUMPDEST POP POP POP POP PUSH1 0x40 MLOAD RETURNDATASIZE PUSH1 0x1F NOT PUSH1 0x1F DUP3 ADD AND DUP3 ADD DUP1 PUSH1 0x40 MSTORE POP DUP2 ADD SWAP1 PUSH2 0x1A21 SWAP2 SWAP1 PUSH2 0x3B4B JUMP JUMPDEST PUSH1 0x40 MLOAD DUP1 PUSH1 0x40 ADD PUSH1 0x40 MSTORE DUP1 PUSH1 0x13 DUP2 MSTORE PUSH1 0x20 ADD PUSH1 0x0 DUP1 MLOAD PUSH1 0x20 PUSH2 0x3CED DUP4 CODECOPY DUP2 MLOAD SWAP2 MSTORE DUP2 MSTORE POP SWAP1 PUSH2 0x1A63 JUMPI PUSH1 0x40 MLOAD PUSH3 0x461BCD PUSH1 0xE5 SHL DUP2 MSTORE PUSH1 0x4 ADD PUSH2 0x7DA SWAP2 SWAP1 PUSH2 0x3B6D JUMP JUMPDEST POP PUSH1 0x3D DUP2 SWAP1 SSTORE PUSH1 0x0 SLOAD PUSH2 0x1A76 SWAP1 DUP3 PUSH2 0x2662 JUMP JUMPDEST PUSH1 0x3 SLOAD LT PUSH2 0x1A86 JUMPI PUSH2 0x1A86 PUSH2 0x2F96 JUMP JUMPDEST PUSH1 0x40 MLOAD DUP2 DUP2 MSTORE PUSH32 0x1B60379B2607A834C77EFA10348322DE4380BDCFB7AAFC51A89202A8673026B2 SWAP1 PUSH1 0x20 ADD PUSH2 0x821 JUMP JUMPDEST PUSH1 0x2 SLOAD PUSH1 0x40 DUP1 MLOAD DUP1 DUP3 ADD SWAP1 SWAP2 MSTORE PUSH1 0x13 DUP2 MSTORE PUSH1 0x0 DUP1 MLOAD PUSH1 0x20 PUSH2 0x3CED DUP4 CODECOPY DUP2 MLOAD SWAP2 MSTORE PUSH1 0x20 DUP3 ADD MSTORE SWAP1 PUSH1 0x1 PUSH1 0x1 PUSH1 0xA0 SHL SUB AND CALLER EQ PUSH2 0x1B04 JUMPI PUSH1 0x40 MLOAD PUSH3 0x461BCD PUSH1 0xE5 SHL DUP2 MSTORE PUSH1 0x4 ADD PUSH2 0x7DA SWAP2 SWAP1 PUSH2 0x3B6D JUMP JUMPDEST POP PUSH2 0x1B0D PUSH2 0x2EC4 JUMP JUMPDEST POP PUSH1 0x2 SLOAD PUSH2 0x1B24 SWAP1 PUSH1 0x1 PUSH1 0x1 PUSH1 0xA0 SHL SUB AND SELFBALANCE PUSH2 0x28B6 JUMP JUMPDEST JUMP JUMPDEST PUSH1 0x2 SLOAD PUSH1 0x1 PUSH1 0x1 PUSH1 0xA0 SHL SUB AND CALLER EQ DUP1 PUSH2 0x1BC0 JUMPI POP PUSH2 0x1B42 PUSH2 0x2523 JUMP JUMPDEST PUSH1 0x40 MLOAD PUSH4 0x24745215 PUSH1 0xE2 SHL DUP2 MSTORE PUSH11 0x6D61696E74656E616E6365 PUSH1 0xA8 SHL PUSH1 0x4 DUP3 ADD MSTORE CALLER PUSH1 0x24 DUP3 ADD MSTORE PUSH1 0x1 PUSH1 0x1 PUSH1 0xA0 SHL SUB SWAP2 SWAP1 SWAP2 AND SWAP1 PUSH4 0x91D14854 SWAP1 PUSH1 0x44 ADD PUSH1 0x20 PUSH1 0x40 MLOAD DUP1 DUP4 SUB DUP2 DUP7 GAS STATICCALL ISZERO DUP1 ISZERO PUSH2 0x1B9C JUMPI RETURNDATASIZE PUSH1 0x0 DUP1 RETURNDATACOPY RETURNDATASIZE PUSH1 0x0 REVERT JUMPDEST POP POP POP POP PUSH1 0x40 MLOAD RETURNDATASIZE PUSH1 0x1F NOT PUSH1 0x1F DUP3 ADD AND DUP3 ADD DUP1 PUSH1 0x40 MSTORE POP DUP2 ADD SWAP1 PUSH2 0x1BC0 SWAP2 SWAP1 PUSH2 0x3B4B JUMP JUMPDEST PUSH1 0x40 MLOAD DUP1 PUSH1 0x40 ADD PUSH1 0x40 MSTORE DUP1 PUSH1 0x13 DUP2 MSTORE PUSH1 0x20 ADD PUSH1 0x0 DUP1 MLOAD PUSH1 0x20 PUSH2 0x3CED DUP4 CODECOPY DUP2 MLOAD SWAP2 MSTORE DUP2 MSTORE POP SWAP1 PUSH2 0x1C02 JUMPI PUSH1 0x40 MLOAD PUSH3 0x461BCD PUSH1 0xE5 SHL DUP2 MSTORE PUSH1 0x4 ADD PUSH2 0x7DA SWAP2 SWAP1 PUSH2 0x3B6D JUMP JUMPDEST POP PUSH2 0x1B24 PUSH2 0x2D5D JUMP JUMPDEST PUSH2 0x1C13 PUSH2 0x2523 JUMP JUMPDEST PUSH1 0x40 MLOAD PUSH4 0x24745215 PUSH1 0xE2 SHL DUP2 MSTORE PUSH10 0x676F7665726E616E6365 PUSH1 0xB0 SHL PUSH1 0x4 DUP3 ADD MSTORE CALLER PUSH1 0x24 DUP3 ADD MSTORE PUSH1 0x1 PUSH1 0x1 PUSH1 0xA0 SHL SUB SWAP2 SWAP1 SWAP2 AND SWAP1 PUSH4 0x91D14854 SWAP1 PUSH1 0x44 ADD PUSH1 0x20 PUSH1 0x40 MLOAD DUP1 DUP4 SUB DUP2 DUP7 GAS STATICCALL ISZERO DUP1 ISZERO PUSH2 0x1C6C JUMPI RETURNDATASIZE PUSH1 0x0 DUP1 RETURNDATACOPY RETURNDATASIZE PUSH1 0x0 REVERT JUMPDEST POP POP POP POP PUSH1 0x40 MLOAD RETURNDATASIZE PUSH1 0x1F NOT PUSH1 0x1F DUP3 ADD AND DUP3 ADD DUP1 PUSH1 0x40 MSTORE POP DUP2 ADD SWAP1 PUSH2 0x1C90 SWAP2 SWAP1 PUSH2 0x3B4B JUMP JUMPDEST PUSH1 0x40 MLOAD DUP1 PUSH1 0x40 ADD PUSH1 0x40 MSTORE DUP1 PUSH1 0x13 DUP2 MSTORE PUSH1 0x20 ADD PUSH1 0x0 DUP1 MLOAD PUSH1 0x20 PUSH2 0x3CED DUP4 CODECOPY DUP2 MLOAD SWAP2 MSTORE DUP2 MSTORE POP SWAP1 PUSH2 0x1CD2 JUMPI PUSH1 0x40 MLOAD PUSH3 0x461BCD PUSH1 0xE5 SHL DUP2 MSTORE PUSH1 0x4 ADD PUSH2 0x7DA SWAP2 SWAP1 PUSH2 0x3B6D JUMP JUMPDEST POP PUSH1 0x3A SLOAD PUSH3 0x10000 SWAP1 DIV PUSH1 0x1 PUSH1 0x1 PUSH1 0xA0 SHL SUB AND DUP1 ISZERO PUSH2 0x1E3F JUMPI PUSH2 0x1CF3 PUSH2 0x295A JUMP JUMPDEST POP DUP1 PUSH1 0x1 PUSH1 0x1 PUSH1 0xA0 SHL SUB AND PUSH4 0xFC0E74D1 PUSH1 0x40 MLOAD DUP2 PUSH4 0xFFFFFFFF AND PUSH1 0xE0 SHL DUP2 MSTORE PUSH1 0x4 ADD PUSH1 0x0 PUSH1 0x40 MLOAD DUP1 DUP4 SUB DUP2 PUSH1 0x0 DUP8 DUP1 EXTCODESIZE ISZERO DUP1 ISZERO PUSH2 0x1D2F JUMPI PUSH1 0x0 DUP1 REVERT JUMPDEST POP GAS CALL ISZERO DUP1 ISZERO PUSH2 0x1D43 JUMPI RETURNDATASIZE PUSH1 0x0 DUP1 RETURNDATACOPY RETURNDATASIZE PUSH1 0x0 REVERT JUMPDEST POP POP POP POP DUP1 PUSH1 0x1 PUSH1 0x1 PUSH1 0xA0 SHL SUB AND PUSH4 0x853828B6 PUSH1 0x40 MLOAD DUP2 PUSH4 0xFFFFFFFF AND PUSH1 0xE0 SHL DUP2 MSTORE PUSH1 0x4 ADD PUSH1 0x20 PUSH1 0x40 MLOAD DUP1 DUP4 SUB DUP2 PUSH1 0x0 DUP8 GAS CALL ISZERO DUP1 ISZERO PUSH2 0x1D87 JUMPI RETURNDATASIZE PUSH1 0x0 DUP1 RETURNDATACOPY RETURNDATASIZE PUSH1 0x0 REVERT JUMPDEST POP POP POP POP PUSH1 0x40 MLOAD RETURNDATASIZE PUSH1 0x1F NOT PUSH1 0x1F DUP3 ADD AND DUP3 ADD DUP1 PUSH1 0x40 MSTORE POP DUP2 ADD SWAP1 PUSH2 0x1DAB SWAP2 SWAP1 PUSH2 0x3BC2 JUMP JUMPDEST POP PUSH1 0x0 DUP2 PUSH1 0x1 PUSH1 0x1 PUSH1 0xA0 SHL SUB AND PUSH4 0xB69EF8A8 PUSH1 0x40 MLOAD DUP2 PUSH4 0xFFFFFFFF AND PUSH1 0xE0 SHL DUP2 MSTORE PUSH1 0x4 ADD PUSH1 0x20 PUSH1 0x40 MLOAD DUP1 DUP4 SUB DUP2 DUP7 GAS STATICCALL ISZERO DUP1 ISZERO PUSH2 0x1DEC JUMPI RETURNDATASIZE PUSH1 0x0 DUP1 RETURNDATACOPY RETURNDATASIZE PUSH1 0x0 REVERT JUMPDEST POP POP POP POP PUSH1 0x40 MLOAD RETURNDATASIZE PUSH1 0x1F NOT PUSH1 0x1F DUP3 ADD AND DUP3 ADD DUP1 PUSH1 0x40 MSTORE POP DUP2 ADD SWAP1 PUSH2 0x1E10 SWAP2 SWAP1 PUSH2 0x3BC2 JUMP JUMPDEST SWAP1 POP DUP1 ISZERO PUSH2 0x1E3D JUMPI PUSH2 0x1E24 PUSH1 0x5 DUP4 DUP4 PUSH2 0x2FB3 JUMP JUMPDEST POP DUP1 PUSH1 0x1 PUSH1 0x0 DUP3 DUP3 SLOAD PUSH2 0x1E37 SWAP2 SWAP1 PUSH2 0x3C08 JUMP JUMPDEST SWAP1 SWAP2 SSTORE POP POP JUMPDEST POP JUMPDEST PUSH2 0x1E47 PUSH2 0x2602 JUMP JUMPDEST POP PUSH1 0x0 DUP1 DUP1 SSTORE PUSH1 0x3 SSTORE PUSH1 0x3A DUP1 SLOAD PUSH3 0x10000 PUSH1 0x1 PUSH1 0xB0 SHL SUB NOT AND PUSH3 0x10000 PUSH1 0x1 PUSH1 0x1 PUSH1 0xA0 SHL SUB DUP6 AND SWAP1 DUP2 MUL SWAP2 SWAP1 SWAP2 OR SWAP1 SWAP2 SSTORE ISZERO PUSH2 0x1E87 JUMPI PUSH2 0x1E85 PUSH2 0x2CD5 JUMP JUMPDEST POP JUMPDEST PUSH1 0x40 MLOAD PUSH1 0x1 PUSH1 0x1 PUSH1 0xA0 SHL SUB DUP4 AND DUP2 MSTORE PUSH32 0x4DA9C22C924692646A21CF1F423781AE3285198DC22E8A6912835D3272B90B3C SWAP1 PUSH1 0x20 ADD PUSH1 0x40 MLOAD DUP1 SWAP2 SUB SWAP1 LOG1 POP POP JUMP JUMPDEST PUSH1 0x2 SLOAD PUSH1 0x1 PUSH1 0x1 PUSH1 0xA0 SHL SUB AND CALLER EQ DUP1 PUSH2 0x1F60 JUMPI POP PUSH2 0x1EE3 PUSH2 0x2523 JUMP JUMPDEST PUSH1 0x40 MLOAD PUSH4 0x24745215 PUSH1 0xE2 SHL DUP2 MSTORE PUSH10 0x676F7665726E616E6365 PUSH1 0xB0 SHL PUSH1 0x4 DUP3 ADD MSTORE CALLER PUSH1 0x24 DUP3 ADD MSTORE PUSH1 0x1 PUSH1 0x1 PUSH1 0xA0 SHL SUB SWAP2 SWAP1 SWAP2 AND SWAP1 PUSH4 0x91D14854 SWAP1 PUSH1 0x44 ADD PUSH1 0x20 PUSH1 0x40 MLOAD DUP1 DUP4 SUB DUP2 DUP7 GAS STATICCALL ISZERO DUP1 ISZERO PUSH2 0x1F3C JUMPI RETURNDATASIZE PUSH1 0x0 DUP1 RETURNDATACOPY RETURNDATASIZE PUSH1 0x0 REVERT JUMPDEST POP POP POP POP PUSH1 0x40 MLOAD RETURNDATASIZE PUSH1 0x1F NOT PUSH1 0x1F DUP3 ADD AND DUP3 ADD DUP1 PUSH1 0x40 MSTORE POP DUP2 ADD SWAP1 PUSH2 0x1F60 SWAP2 SWAP1 PUSH2 0x3B4B JUMP JUMPDEST PUSH1 0x40 MLOAD DUP1 PUSH1 0x40 ADD PUSH1 0x40 MSTORE DUP1 PUSH1 0x13 DUP2 MSTORE PUSH1 0x20 ADD PUSH1 0x0 DUP1 MLOAD PUSH1 0x20 PUSH2 0x3CED DUP4 CODECOPY DUP2 MLOAD SWAP2 MSTORE DUP2 MSTORE POP SWAP1 PUSH2 0x1B0D JUMPI PUSH1 0x40 MLOAD PUSH3 0x461BCD PUSH1 0xE5 SHL DUP2 MSTORE PUSH1 0x4 ADD PUSH2 0x7DA SWAP2 SWAP1 PUSH2 0x3B6D JUMP JUMPDEST PUSH2 0x1FAA PUSH2 0x2523 JUMP JUMPDEST PUSH1 0x40 MLOAD PUSH4 0x24745215 PUSH1 0xE2 SHL DUP2 MSTORE PUSH10 0x676F7665726E616E6365 PUSH1 0xB0 SHL PUSH1 0x4 DUP3 ADD MSTORE CALLER PUSH1 0x24 DUP3 ADD MSTORE PUSH1 0x1 PUSH1 0x1 PUSH1 0xA0 SHL SUB SWAP2 SWAP1 SWAP2 AND SWAP1 PUSH4 0x91D14854 SWAP1 PUSH1 0x44 ADD PUSH1 0x20 PUSH1 0x40 MLOAD DUP1 DUP4 SUB DUP2 DUP7 GAS STATICCALL ISZERO DUP1 ISZERO PUSH2 0x2003 JUMPI RETURNDATASIZE PUSH1 0x0 DUP1 RETURNDATACOPY RETURNDATASIZE PUSH1 0x0 REVERT JUMPDEST POP POP POP POP PUSH1 0x40 MLOAD RETURNDATASIZE PUSH1 0x1F NOT PUSH1 0x1F DUP3 ADD AND DUP3 ADD DUP1 PUSH1 0x40 MSTORE POP DUP2 ADD SWAP1 PUSH2 0x2027 SWAP2 SWAP1 PUSH2 0x3B4B JUMP JUMPDEST PUSH1 0x40 MLOAD DUP1 PUSH1 0x40 ADD PUSH1 0x40 MSTORE DUP1 PUSH1 0x13 DUP2 MSTORE PUSH1 0x20 ADD PUSH1 0x0 DUP1 MLOAD PUSH1 0x20 PUSH2 0x3CED DUP4 CODECOPY DUP2 MLOAD SWAP2 MSTORE DUP2 MSTORE POP SWAP1 PUSH2 0x2069 JUMPI PUSH1 0x40 MLOAD PUSH3 0x461BCD PUSH1 0xE5 SHL DUP2 MSTORE PUSH1 0x4 ADD PUSH2 0x7DA SWAP2 SWAP1 PUSH2 0x3B6D JUMP JUMPDEST POP PUSH1 0x40 DUP1 MLOAD DUP1 DUP3 ADD SWAP1 SWAP2 MSTORE PUSH1 0xE DUP2 MSTORE PUSH14 0x1A5B9D985B1A5908185B5BDD5B9D PUSH1 0x92 SHL PUSH1 0x20 DUP3 ADD MSTORE PUSH8 0x6F05B59D3B20000 DUP3 GT ISZERO PUSH2 0x20B8 JUMPI PUSH1 0x40 MLOAD PUSH3 0x461BCD PUSH1 0xE5 SHL DUP2 MSTORE PUSH1 0x4 ADD PUSH2 0x7DA SWAP2 SWAP1 PUSH2 0x3B6D JUMP JUMPDEST POP PUSH1 0x3B DUP2 SWAP1 SSTORE PUSH1 0x40 MLOAD DUP2 DUP2 MSTORE PUSH32 0x9B49D0CD76012D9C67241C2F68F836EFBAF50EA29901A250040671402D5263F5 SWAP1 PUSH1 0x20 ADD PUSH2 0x821 JUMP JUMPDEST PUSH1 0x0 DUP1 DUP1 PUSH2 0x20FD PUSH1 0x5 DUP6 PUSH2 0x2FD1 JUMP JUMPDEST SWAP2 POP SWAP2 POP DUP2 PUSH1 0x40 MLOAD DUP1 PUSH1 0x40 ADD PUSH1 0x40 MSTORE DUP1 PUSH1 0x17 DUP2 MSTORE PUSH1 0x20 ADD PUSH32 0x537472617465677920646F6573206E6F74206578697374000000000000000000 DUP2 MSTORE POP SWAP1 PUSH2 0x2156 JUMPI PUSH1 0x40 MLOAD PUSH3 0x461BCD PUSH1 0xE5 SHL DUP2 MSTORE PUSH1 0x4 ADD PUSH2 0x7DA SWAP2 SWAP1 PUSH2 0x3B6D JUMP JUMPDEST POP DUP4 PUSH1 0x1 PUSH1 0x1 PUSH1 0xA0 SHL SUB AND PUSH4 0x4641257D PUSH1 0x40 MLOAD DUP2 PUSH4 0xFFFFFFFF AND PUSH1 0xE0 SHL DUP2 MSTORE PUSH1 0x4 ADD PUSH1 0x20 PUSH1 0x40 MLOAD DUP1 DUP4 SUB DUP2 PUSH1 0x0 DUP8 GAS CALL ISZERO DUP1 ISZERO PUSH2 0x2197 JUMPI RETURNDATASIZE PUSH1 0x0 DUP1 RETURNDATACOPY RETURNDATASIZE PUSH1 0x0 REVERT JUMPDEST POP POP POP POP PUSH1 0x40 MLOAD RETURNDATASIZE PUSH1 0x1F NOT PUSH1 0x1F DUP3 ADD AND DUP3 ADD DUP1 PUSH1 0x40 MSTORE POP DUP2 ADD SWAP1 PUSH2 0x21BB SWAP2 SWAP1 PUSH2 0x3BC2 JUMP JUMPDEST POP PUSH1 0x0 DUP5 PUSH1 0x1 PUSH1 0x1 PUSH1 0xA0 SHL SUB AND PUSH4 0x853828B6 PUSH1 0x40 MLOAD DUP2 PUSH4 0xFFFFFFFF AND PUSH1 0xE0 SHL DUP2 MSTORE PUSH1 0x4 ADD PUSH1 0x20 PUSH1 0x40 MLOAD DUP1 DUP4 SUB DUP2 PUSH1 0x0 DUP8 GAS CALL ISZERO DUP1 ISZERO PUSH2 0x21FE JUMPI RETURNDATASIZE PUSH1 0x0 DUP1 RETURNDATACOPY RETURNDATASIZE PUSH1 0x0 REVERT JUMPDEST POP POP POP POP PUSH1 0x40 MLOAD RETURNDATASIZE PUSH1 0x1F NOT PUSH1 0x1F DUP3 ADD AND DUP3 ADD DUP1 PUSH1 0x40 MSTORE POP DUP2 ADD SWAP1 PUSH2 0x2222 SWAP2 SWAP1 PUSH2 0x3BC2 JUMP JUMPDEST PUSH1 0x1 SLOAD SWAP1 SWAP2 POP DUP1 DUP3 LT PUSH2 0x2239 JUMPI PUSH1 0x0 PUSH1 0x1 SSTORE PUSH2 0x2240 JUMP JUMPDEST DUP2 DUP2 SUB PUSH1 0x1 SSTORE JUMPDEST DUP3 DUP3 GT ISZERO PUSH2 0x2310 JUMPI PUSH1 0x3B SLOAD DUP4 DUP4 SUB SWAP1 PUSH1 0x0 SWAP1 PUSH2 0x2266 SWAP1 PUSH2 0x2261 SWAP1 DUP5 SWAP1 PUSH2 0x2662 JUMP JUMPDEST PUSH2 0x2FF8 JUMP JUMPDEST SWAP1 POP DUP1 ISZERO PUSH2 0x22D9 JUMPI PUSH2 0x22D9 DUP2 DUP10 PUSH1 0x1 PUSH1 0x1 PUSH1 0xA0 SHL SUB AND PUSH4 0x1FE4A686 PUSH1 0x40 MLOAD DUP2 PUSH4 0xFFFFFFFF AND PUSH1 0xE0 SHL DUP2 MSTORE PUSH1 0x4 ADD PUSH1 0x20 PUSH1 0x40 MLOAD DUP1 DUP4 SUB DUP2 DUP7 GAS STATICCALL ISZERO DUP1 ISZERO PUSH2 0x22B0 JUMPI RETURNDATASIZE PUSH1 0x0 DUP1 RETURNDATACOPY RETURNDATASIZE PUSH1 0x0 REVERT JUMPDEST POP POP POP POP PUSH1 0x40 MLOAD RETURNDATASIZE PUSH1 0x1F NOT PUSH1 0x1F DUP3 ADD AND DUP3 ADD DUP1 PUSH1 0x40 MSTORE POP DUP2 ADD SWAP1 PUSH2 0x22D4 SWAP2 SWAP1 PUSH2 0x3C20 JUMP JUMPDEST PUSH2 0x3065 JUMP JUMPDEST PUSH1 0x40 MLOAD PUSH1 0x0 SWAP6 POP DUP6 SWAP1 DUP4 SWAP1 PUSH32 0x6C8433A8E155F0AF04DBA058D4E4695F7DA554578963D876BDF4A6D8D6399D9C SWAP1 DUP4 SWAP1 LOG3 POP POP PUSH2 0x2316 JUMP JUMPDEST DUP2 DUP4 SUB SWAP3 POP JUMPDEST DUP6 PUSH1 0x1 PUSH1 0x1 PUSH1 0xA0 SHL SUB AND PUSH4 0xB69EF8A8 PUSH1 0x40 MLOAD DUP2 PUSH4 0xFFFFFFFF AND PUSH1 0xE0 SHL DUP2 MSTORE PUSH1 0x4 ADD PUSH1 0x20 PUSH1 0x40 MLOAD DUP1 DUP4 SUB DUP2 DUP7 GAS STATICCALL ISZERO DUP1 ISZERO PUSH2 0x2354 JUMPI RETURNDATASIZE PUSH1 0x0 DUP1 RETURNDATACOPY RETURNDATASIZE PUSH1 0x0 REVERT JUMPDEST POP POP POP POP PUSH1 0x40 MLOAD RETURNDATASIZE PUSH1 0x1F NOT PUSH1 0x1F DUP3 ADD AND DUP3 ADD DUP1 PUSH1 0x40 MSTORE POP DUP2 ADD SWAP1 PUSH2 0x2378 SWAP2 SWAP1 PUSH2 0x3BC2 JUMP JUMPDEST PUSH2 0x238D JUMPI PUSH2 0x2387 PUSH1 0x5 DUP8 PUSH2 0x30F0 JUMP JUMPDEST POP PUSH2 0x239B JUMP JUMPDEST PUSH2 0x2399 PUSH1 0x5 DUP8 DUP6 PUSH2 0x2FB3 JUMP JUMPDEST POP JUMPDEST POP SWAP5 SWAP4 POP POP POP POP JUMP JUMPDEST PUSH2 0x23AC PUSH2 0x2523 JUMP JUMPDEST PUSH1 0x40 MLOAD PUSH4 0x24745215 PUSH1 0xE2 SHL DUP2 MSTORE PUSH10 0x676F7665726E616E6365 PUSH1 0xB0 SHL PUSH1 0x4 DUP3 ADD MSTORE CALLER PUSH1 0x24 DUP3 ADD MSTORE PUSH1 0x1 PUSH1 0x1 PUSH1 0xA0 SHL SUB SWAP2 SWAP1 SWAP2 AND SWAP1 PUSH4 0x91D14854 SWAP1 PUSH1 0x44 ADD PUSH1 0x20 PUSH1 0x40 MLOAD DUP1 DUP4 SUB DUP2 DUP7 GAS STATICCALL ISZERO DUP1 ISZERO PUSH2 0x2405 JUMPI RETURNDATASIZE PUSH1 0x0 DUP1 RETURNDATACOPY RETURNDATASIZE PUSH1 0x0 REVERT JUMPDEST POP POP POP POP PUSH1 0x40 MLOAD RETURNDATASIZE PUSH1 0x1F NOT PUSH1 0x1F DUP3 ADD AND DUP3 ADD DUP1 PUSH1 0x40 MSTORE POP DUP2 ADD SWAP1 PUSH2 0x2429 SWAP2 SWAP1 PUSH2 0x3B4B JUMP JUMPDEST PUSH1 0x40 MLOAD DUP1 PUSH1 0x40 ADD PUSH1 0x40 MSTORE DUP1 PUSH1 0x13 DUP2 MSTORE PUSH1 0x20 ADD PUSH1 0x0 DUP1 MLOAD PUSH1 0x20 PUSH2 0x3CED DUP4 CODECOPY DUP2 MLOAD SWAP2 MSTORE DUP2 MSTORE POP SWAP1 PUSH2 0x246B JUMPI PUSH1 0x40 MLOAD PUSH3 0x461BCD PUSH1 0xE5 SHL DUP2 MSTORE PUSH1 0x4 ADD PUSH2 0x7DA SWAP2 SWAP1 PUSH2 0x3B6D JUMP JUMPDEST POP PUSH1 0x3E DUP2 SWAP1 SSTORE PUSH2 0x2479 PUSH2 0x2D5D JUMP JUMPDEST PUSH1 0x40 MLOAD DUP2 DUP2 MSTORE PUSH32 0x4201D291830E58ED4E674FCAFF63E7E3A238F8A9E8D464DB61635D8F8033C8A2 SWAP1 PUSH1 0x20 ADD PUSH2 0x821 JUMP JUMPDEST PUSH1 0x40 MLOAD PUSH4 0x21F8A721 PUSH1 0xE0 SHL DUP2 MSTORE PUSH11 0x3937B632A6B0B730B3B2B9 PUSH1 0xA9 SHL PUSH1 0x4 DUP3 ADD MSTORE PUSH1 0x0 SWAP1 PUSH1 0x1 PUSH1 0x1 PUSH1 0xA0 SHL SUB DUP4 AND SWAP1 PUSH4 0x21F8A721 SWAP1 PUSH1 0x24 ADD JUMPDEST PUSH1 0x20 PUSH1 0x40 MLOAD DUP1 DUP4 SUB DUP2 DUP7 GAS STATICCALL ISZERO DUP1 ISZERO PUSH2 0x24FF JUMPI RETURNDATASIZE PUSH1 0x0 DUP1 RETURNDATACOPY RETURNDATASIZE PUSH1 0x0 REVERT JUMPDEST POP POP POP POP PUSH1 0x40 MLOAD RETURNDATASIZE PUSH1 0x1F NOT PUSH1 0x1F DUP3 ADD AND DUP3 ADD DUP1 PUSH1 0x40 MSTORE POP DUP2 ADD SWAP1 PUSH2 0x1717 SWAP2 SWAP1 PUSH2 0x3C20 JUMP JUMPDEST PUSH32 0x0 SWAP1 JUMP JUMPDEST PUSH8 0xDE0B6B3A7640000 PUSH2 0x255A DUP3 DUP5 PUSH2 0x3C08 JUMP JUMPDEST GT ISZERO PUSH2 0x1706 JUMPI PUSH1 0x40 MLOAD PUSH3 0x461BCD PUSH1 0xE5 SHL DUP2 MSTORE PUSH1 0x20 PUSH1 0x4 DUP3 ADD MSTORE PUSH1 0x37 PUSH1 0x24 DUP3 ADD MSTORE PUSH32 0x73756D206F6620737472617465676973742066656520616E6420726573657276 PUSH1 0x44 DUP3 ADD MSTORE PUSH32 0x65206665652073686F756C642062652062656C6F772031000000000000000000 PUSH1 0x64 DUP3 ADD MSTORE PUSH1 0x84 ADD PUSH2 0x7DA JUMP JUMPDEST PUSH1 0x0 PUSH2 0x70E PUSH32 0x0 PUSH1 0x1 PUSH1 0x1 PUSH1 0xA0 SHL SUB AND PUSH2 0x3105 JUMP JUMPDEST PUSH1 0x4 SLOAD PUSH1 0x0 SWAP1 PUSH1 0xFF AND PUSH2 0x2615 JUMPI POP PUSH1 0x0 SWAP1 JUMP JUMPDEST PUSH1 0x4 DUP1 SLOAD PUSH1 0xFF NOT AND SWAP1 SSTORE PUSH1 0x3A SLOAD PUSH1 0x40 MLOAD PUSH3 0x10000 SWAP1 SWAP2 DIV PUSH1 0x1 PUSH1 0x1 PUSH1 0xA0 SHL SUB AND SWAP1 PUSH32 0x274EC28D31430170AD5DD350F8E7505FFAB078C309300878C710383AE4CBED49 SWAP1 PUSH1 0x0 SWAP1 LOG2 POP PUSH1 0x1 SWAP1 JUMP JUMPDEST PUSH1 0x0 PUSH8 0xDE0B6B3A7640000 PUSH2 0x2677 DUP4 DUP6 PUSH2 0x3C3D JUMP JUMPDEST PUSH2 0x2681 SWAP2 SWAP1 PUSH2 0x3C5C JUMP JUMPDEST SWAP4 SWAP3 POP POP POP JUMP JUMPDEST PUSH1 0x0 DUP2 DUP4 GT ISZERO PUSH2 0x26A3 JUMPI PUSH2 0x269C DUP3 DUP5 PUSH2 0x3BF1 JUMP JUMPDEST SWAP1 POP PUSH2 0x1717 JUMP JUMPDEST POP PUSH1 0x0 SWAP3 SWAP2 POP POP JUMP JUMPDEST PUSH1 0x4 SLOAD PUSH1 0x0 SWAP1 PUSH1 0xFF AND PUSH2 0x26C1 JUMPI POP PUSH1 0x0 PUSH2 0x1717 JUMP JUMPDEST PUSH1 0x3E SLOAD PUSH1 0x40 SLOAD PUSH1 0x0 PUSH2 0x26D3 DUP7 DUP5 PUSH2 0x2662 JUMP JUMPDEST SWAP1 POP PUSH1 0x0 DUP4 ISZERO PUSH2 0x26EC JUMPI PUSH2 0x26E7 DUP4 DUP6 PUSH2 0x3C08 JUMP JUMPDEST PUSH2 0x26EF JUMP JUMPDEST PUSH1 0x0 JUMPDEST SWAP1 POP PUSH8 0xDE0B6B3A7640000 DUP2 GT PUSH2 0x2706 JUMPI DUP1 PUSH2 0x2710 JUMP JUMPDEST PUSH8 0xDE0B6B3A7640000 JUMPDEST SWAP1 POP PUSH1 0x0 DUP5 DUP5 GT PUSH2 0x272A JUMPI PUSH2 0x2725 DUP5 DUP7 PUSH2 0x3BF1 JUMP JUMPDEST PUSH2 0x272D JUMP JUMPDEST PUSH1 0x0 JUMPDEST SWAP1 POP PUSH2 0x2739 DUP9 DUP4 PUSH2 0x2662 JUMP JUMPDEST DUP8 GT ISZERO PUSH2 0x27D8 JUMPI PUSH1 0x0 PUSH2 0x274C DUP5 DUP10 PUSH2 0x3BF1 JUMP JUMPDEST PUSH1 0x3A SLOAD PUSH1 0x40 MLOAD PUSH4 0x2E1A7D4D PUSH1 0xE0 SHL DUP2 MSTORE PUSH1 0x4 DUP2 ADD DUP4 SWAP1 MSTORE SWAP2 SWAP3 POP PUSH3 0x10000 SWAP1 DIV PUSH1 0x1 PUSH1 0x1 PUSH1 0xA0 SHL SUB AND SWAP1 PUSH4 0x2E1A7D4D SWAP1 PUSH1 0x24 ADD PUSH1 0x20 PUSH1 0x40 MLOAD DUP1 DUP4 SUB DUP2 PUSH1 0x0 DUP8 GAS CALL ISZERO DUP1 ISZERO PUSH2 0x279E JUMPI RETURNDATASIZE PUSH1 0x0 DUP1 RETURNDATACOPY RETURNDATASIZE PUSH1 0x0 REVERT JUMPDEST POP POP POP POP PUSH1 0x40 MLOAD RETURNDATASIZE PUSH1 0x1F NOT PUSH1 0x1F DUP3 ADD AND DUP3 ADD DUP1 PUSH1 0x40 MSTORE POP DUP2 ADD SWAP1 PUSH2 0x27C2 SWAP2 SWAP1 PUSH2 0x3B4B JUMP JUMPDEST POP PUSH2 0x27CF PUSH1 0x0 SLOAD DUP3 PUSH2 0x2688 JUMP JUMPDEST PUSH1 0x0 SSTORE POP PUSH2 0x28A8 JUMP JUMPDEST PUSH2 0x27E2 DUP9 DUP3 PUSH2 0x2662 JUMP JUMPDEST DUP8 LT ISZERO PUSH2 0x28A8 JUMPI PUSH1 0x0 PUSH2 0x27F5 DUP9 DUP6 PUSH2 0x3BF1 JUMP JUMPDEST PUSH1 0x3A SLOAD SWAP1 SWAP2 POP PUSH2 0x2814 SWAP1 PUSH3 0x10000 SWAP1 DIV PUSH1 0x1 PUSH1 0x1 PUSH1 0xA0 SHL SUB AND DUP3 PUSH2 0x28B6 JUMP JUMPDEST DUP1 PUSH1 0x0 DUP1 DUP3 DUP3 SLOAD PUSH2 0x2825 SWAP2 SWAP1 PUSH2 0x3C08 JUMP JUMPDEST SWAP3 POP POP DUP2 SWAP1 SSTORE POP PUSH1 0x3A PUSH1 0x2 SWAP1 SLOAD SWAP1 PUSH2 0x100 EXP SWAP1 DIV PUSH1 0x1 PUSH1 0x1 PUSH1 0xA0 SHL SUB AND PUSH1 0x1 PUSH1 0x1 PUSH1 0xA0 SHL SUB AND PUSH4 0xD0E30DB0 PUSH1 0x40 MLOAD DUP2 PUSH4 0xFFFFFFFF AND PUSH1 0xE0 SHL DUP2 MSTORE PUSH1 0x4 ADD PUSH1 0x20 PUSH1 0x40 MLOAD DUP1 DUP4 SUB DUP2 PUSH1 0x0 DUP8 GAS CALL ISZERO DUP1 ISZERO PUSH2 0x2881 JUMPI RETURNDATASIZE PUSH1 0x0 DUP1 RETURNDATACOPY RETURNDATASIZE PUSH1 0x0 REVERT JUMPDEST POP POP POP POP PUSH1 0x40 MLOAD RETURNDATASIZE PUSH1 0x1F NOT PUSH1 0x1F DUP3 ADD AND DUP3 ADD DUP1 PUSH1 0x40 MSTORE POP DUP2 ADD SWAP1 PUSH2 0x28A5 SWAP2 SWAP1 PUSH2 0x3B4B JUMP JUMPDEST POP POP JUMPDEST POP PUSH1 0x1 SWAP8 SWAP7 POP POP POP POP POP POP POP JUMP JUMPDEST PUSH1 0x0 DUP3 PUSH1 0x1 PUSH1 0x1 PUSH1 0xA0 SHL SUB AND DUP3 PUSH1 0x40 MLOAD JUMPDEST PUSH1 0x0 PUSH1 0x40 MLOAD DUP1 DUP4 SUB DUP2 DUP6 DUP8 GAS CALL SWAP3 POP POP POP RETURNDATASIZE DUP1 PUSH1 0x0 DUP2 EQ PUSH2 0x2904 JUMPI PUSH1 0x40 MLOAD SWAP2 POP PUSH1 0x1F NOT PUSH1 0x3F RETURNDATASIZE ADD AND DUP3 ADD PUSH1 0x40 MSTORE RETURNDATASIZE DUP3 MSTORE RETURNDATASIZE PUSH1 0x0 PUSH1 0x20 DUP5 ADD RETURNDATACOPY PUSH2 0x2909 JUMP JUMPDEST PUSH1 0x60 SWAP2 POP JUMPDEST POP POP SWAP1 POP DUP1 PUSH1 0x40 MLOAD DUP1 PUSH1 0x40 ADD PUSH1 0x40 MSTORE DUP1 PUSH1 0xF DUP2 MSTORE PUSH1 0x20 ADD PUSH15 0x1D1C985B9CD9995C8819985A5B1959 PUSH1 0x8A SHL DUP2 MSTORE POP SWAP1 PUSH2 0x2954 JUMPI PUSH1 0x40 MLOAD PUSH3 0x461BCD PUSH1 0xE5 SHL DUP2 MSTORE PUSH1 0x4 ADD PUSH2 0x7DA SWAP2 SWAP1 PUSH2 0x3B6D JUMP JUMPDEST POP POP POP POP JUMP JUMPDEST PUSH1 0x3A SLOAD PUSH1 0x0 SWAP1 PUSH3 0x10000 SWAP1 DIV PUSH1 0x1 PUSH1 0x1 PUSH1 0xA0 SHL SUB AND DUP1 PUSH2 0x297C JUMPI PUSH1 0x0 SWAP2 POP POP SWAP1 JUMP JUMPDEST DUP1 PUSH1 0x1 PUSH1 0x1 PUSH1 0xA0 SHL SUB AND PUSH4 0x4641257D PUSH1 0x40 MLOAD DUP2 PUSH4 0xFFFFFFFF AND PUSH1 0xE0 SHL DUP2 MSTORE PUSH1 0x4 ADD PUSH1 0x20 PUSH1 0x40 MLOAD DUP1 DUP4 SUB DUP2 PUSH1 0x0 DUP8 GAS CALL ISZERO DUP1 ISZERO PUSH2 0x29BC JUMPI RETURNDATASIZE PUSH1 0x0 DUP1 RETURNDATACOPY RETURNDATASIZE PUSH1 0x0 REVERT JUMPDEST POP POP POP POP PUSH1 0x40 MLOAD RETURNDATASIZE PUSH1 0x1F NOT PUSH1 0x1F DUP3 ADD AND DUP3 ADD DUP1 PUSH1 0x40 MSTORE POP DUP2 ADD SWAP1 PUSH2 0x29E0 SWAP2 SWAP1 PUSH2 0x3BC2 JUMP JUMPDEST POP PUSH1 0x0 DUP1 DUP3 PUSH1 0x1 PUSH1 0x1 PUSH1 0xA0 SHL SUB AND PUSH4 0xB69EF8A8 PUSH1 0x40 MLOAD DUP2 PUSH4 0xFFFFFFFF AND PUSH1 0xE0 SHL DUP2 MSTORE PUSH1 0x4 ADD PUSH1 0x20 PUSH1 0x40 MLOAD DUP1 DUP4 SUB DUP2 DUP7 GAS STATICCALL ISZERO DUP1 ISZERO PUSH2 0x2A22 JUMPI RETURNDATASIZE PUSH1 0x0 DUP1 RETURNDATACOPY RETURNDATASIZE PUSH1 0x0 REVERT JUMPDEST POP POP POP POP PUSH1 0x40 MLOAD RETURNDATASIZE PUSH1 0x1F NOT PUSH1 0x1F DUP3 ADD AND DUP3 ADD DUP1 PUSH1 0x40 MSTORE POP DUP2 ADD SWAP1 PUSH2 0x2A46 SWAP2 SWAP1 PUSH2 0x3BC2 JUMP JUMPDEST PUSH1 0x0 SLOAD PUSH1 0x3 SLOAD SWAP2 SWAP3 POP SWAP1 DUP2 DUP4 GT ISZERO PUSH2 0x2ABA JUMPI DUP2 DUP4 SUB DUP2 DUP2 GT ISZERO PUSH2 0x2A81 JUMPI DUP2 ISZERO PUSH2 0x2A6F JUMPI PUSH1 0x0 SWAP2 SWAP1 SUB JUMPDEST PUSH2 0x2A78 DUP2 PUSH2 0x3143 JUMP JUMPDEST SWAP6 POP SWAP1 POP PUSH2 0x2A87 JUMP JUMPDEST DUP1 DUP3 SUB SWAP2 POP JUMPDEST PUSH1 0x40 MLOAD PUSH1 0x0 SWAP1 DUP3 SWAP1 PUSH32 0x6C8433A8E155F0AF04DBA058D4E4695F7DA554578963D876BDF4A6D8D6399D9C SWAP1 DUP4 SWAP1 LOG3 POP PUSH2 0x2B3E JUMP JUMPDEST DUP2 DUP4 LT ISZERO PUSH2 0x2B32 JUMPI DUP3 DUP3 SUB PUSH2 0x2ACF DUP2 DUP4 PUSH2 0x3C08 JUMP JUMPDEST SWAP2 POP PUSH1 0x0 PUSH2 0x2AE8 PUSH1 0x3D SLOAD DUP6 PUSH2 0x2662 SWAP1 SWAP2 SWAP1 PUSH4 0xFFFFFFFF AND JUMP JUMPDEST SWAP1 POP DUP1 DUP4 GT ISZERO PUSH2 0x2AFE JUMPI PUSH2 0x2AFB DUP4 PUSH2 0x31FE JUMP JUMPDEST SWAP3 POP JUMPDEST PUSH1 0x40 MLOAD DUP3 SWAP1 PUSH1 0x0 SWAP1 PUSH32 0x6C8433A8E155F0AF04DBA058D4E4695F7DA554578963D876BDF4A6D8D6399D9C SWAP1 DUP3 SWAP1 LOG3 POP POP PUSH2 0x2B3E JUMP JUMPDEST PUSH1 0x1 SWAP6 POP POP POP POP POP POP SWAP1 JUMP JUMPDEST DUP1 PUSH1 0x3 DUP2 SWAP1 SSTORE POP DUP5 PUSH1 0x1 PUSH1 0x1 PUSH1 0xA0 SHL SUB AND PUSH4 0xB69EF8A8 PUSH1 0x40 MLOAD DUP2 PUSH4 0xFFFFFFFF AND PUSH1 0xE0 SHL DUP2 MSTORE PUSH1 0x4 ADD PUSH1 0x20 PUSH1 0x40 MLOAD DUP1 DUP4 SUB DUP2 DUP7 GAS STATICCALL ISZERO DUP1 ISZERO PUSH2 0x2B83 JUMPI RETURNDATASIZE PUSH1 0x0 DUP1 RETURNDATACOPY RETURNDATASIZE PUSH1 0x0 REVERT JUMPDEST POP POP POP POP PUSH1 0x40 MLOAD RETURNDATASIZE PUSH1 0x1F NOT PUSH1 0x1F DUP3 ADD AND DUP3 ADD DUP1 PUSH1 0x40 MSTORE POP DUP2 ADD SWAP1 PUSH2 0x2BA7 SWAP2 SWAP1 PUSH2 0x3BC2 JUMP JUMPDEST PUSH1 0x0 SSTORE DUP4 ISZERO PUSH2 0x2B32 JUMPI PUSH2 0x2B32 DUP5 PUSH2 0x3397 JUMP JUMPDEST PUSH1 0x40 DUP1 MLOAD DUP1 DUP3 ADD SWAP1 SWAP2 MSTORE PUSH1 0xE DUP2 MSTORE PUSH14 0x1A5B9D985B1A5908185B5BDD5B9D PUSH1 0x92 SHL PUSH1 0x20 DUP3 ADD MSTORE PUSH8 0xDE0B6B3A7640000 DUP5 GT ISZERO PUSH2 0x2C07 JUMPI PUSH1 0x40 MLOAD PUSH3 0x461BCD PUSH1 0xE5 SHL DUP2 MSTORE PUSH1 0x4 ADD PUSH2 0x7DA SWAP2 SWAP1 PUSH2 0x3B6D JUMP JUMPDEST POP PUSH1 0x40 DUP1 MLOAD DUP1 DUP3 ADD SWAP1 SWAP2 MSTORE PUSH1 0xE DUP2 MSTORE PUSH14 0x1A5B9D985B1A5908185B5BDD5B9D PUSH1 0x92 SHL PUSH1 0x20 DUP3 ADD MSTORE PUSH8 0xDE0B6B3A7640000 DUP4 GT ISZERO PUSH2 0x2C56 JUMPI PUSH1 0x40 MLOAD PUSH3 0x461BCD PUSH1 0xE5 SHL DUP2 MSTORE PUSH1 0x4 ADD PUSH2 0x7DA SWAP2 SWAP1 PUSH2 0x3B6D JUMP JUMPDEST POP PUSH1 0x40 DUP1 MLOAD DUP1 DUP3 ADD SWAP1 SWAP2 MSTORE PUSH1 0xE DUP2 MSTORE PUSH14 0x1A5B9D985B1A5908185B5BDD5B9D PUSH1 0x92 SHL PUSH1 0x20 DUP3 ADD MSTORE PUSH8 0x6F05B59D3B20000 DUP3 GT ISZERO PUSH2 0x2CA5 JUMPI PUSH1 0x40 MLOAD PUSH3 0x461BCD PUSH1 0xE5 SHL DUP2 MSTORE PUSH1 0x4 ADD PUSH2 0x7DA SWAP2 SWAP1 PUSH2 0x3B6D JUMP JUMPDEST POP PUSH1 0x2 DUP1 SLOAD PUSH1 0x1 PUSH1 0x1 PUSH1 0xA0 SHL SUB NOT AND PUSH1 0x1 PUSH1 0x1 PUSH1 0xA0 SHL SUB SWAP6 SWAP1 SWAP6 AND SWAP5 SWAP1 SWAP5 OR SWAP1 SWAP4 SSTORE PUSH1 0x3D SWAP2 SWAP1 SWAP2 SSTORE PUSH1 0x3E SSTORE PUSH1 0x40 SSTORE JUMP JUMPDEST PUSH1 0x3A SLOAD PUSH1 0x0 SWAP1 PUSH3 0x10000 SWAP1 DIV PUSH1 0x1 PUSH1 0x1 PUSH1 0xA0 SHL SUB AND DUP1 PUSH2 0x2CF7 JUMPI PUSH1 0x0 SWAP2 POP POP SWAP1 JUMP JUMPDEST PUSH1 0x4 DUP1 SLOAD PUSH1 0xFF NOT AND PUSH1 0x1 OR SWAP1 SSTORE PUSH1 0x40 MLOAD PUSH1 0x1 PUSH1 0x1 PUSH1 0xA0 SHL SUB DUP3 AND SWAP1 PUSH32 0x652F053FC39779B70B29678135ADE972FCB79966FC68FCB77C996B1AA4FD9AFB SWAP1 PUSH1 0x0 SWAP1 LOG2 PUSH2 0x2D40 PUSH2 0x2D5D JUMP JUMPDEST PUSH1 0x1 SWAP2 POP POP SWAP1 JUMP JUMPDEST PUSH1 0x0 PUSH2 0x2681 DUP4 PUSH1 0x1 PUSH1 0x1 PUSH1 0xA0 SHL SUB DUP5 AND PUSH2 0x33F1 JUMP JUMPDEST PUSH1 0x4 SLOAD PUSH1 0xFF AND PUSH2 0x2D69 JUMPI JUMP JUMPDEST PUSH1 0x0 PUSH1 0x3A PUSH1 0x2 SWAP1 SLOAD SWAP1 PUSH2 0x100 EXP SWAP1 DIV PUSH1 0x1 PUSH1 0x1 PUSH1 0xA0 SHL SUB AND PUSH1 0x1 PUSH1 0x1 PUSH1 0xA0 SHL SUB AND PUSH4 0xB69EF8A8 PUSH1 0x40 MLOAD DUP2 PUSH4 0xFFFFFFFF AND PUSH1 0xE0 SHL DUP2 MSTORE PUSH1 0x4 ADD PUSH1 0x20 PUSH1 0x40 MLOAD DUP1 DUP4 SUB DUP2 DUP7 GAS STATICCALL ISZERO DUP1 ISZERO PUSH2 0x2DBE JUMPI RETURNDATASIZE PUSH1 0x0 DUP1 RETURNDATACOPY RETURNDATASIZE PUSH1 0x0 REVERT JUMPDEST POP POP POP POP PUSH1 0x40 MLOAD RETURNDATASIZE PUSH1 0x1F NOT PUSH1 0x1F DUP3 ADD AND DUP3 ADD DUP1 PUSH1 0x40 MSTORE POP DUP2 ADD SWAP1 PUSH2 0x2DE2 SWAP2 SWAP1 PUSH2 0x3BC2 JUMP JUMPDEST SWAP1 POP PUSH1 0x0 PUSH1 0x1 SLOAD DUP3 PUSH2 0x2DF1 SELFBALANCE SWAP1 JUMP JUMPDEST PUSH2 0x2DFB SWAP2 SWAP1 PUSH2 0x3C08 JUMP JUMPDEST PUSH2 0x2E05 SWAP2 SWAP1 PUSH2 0x3C08 JUMP JUMPDEST SWAP1 POP DUP1 PUSH2 0x2E10 JUMPI POP POP JUMP JUMPDEST PUSH2 0x2E1A DUP2 DUP4 PUSH2 0x26AC JUMP JUMPDEST POP POP POP JUMP JUMPDEST PUSH1 0x60 PUSH1 0x0 PUSH2 0x2E2C DUP4 PUSH2 0x3461 JUMP JUMPDEST SWAP1 POP PUSH1 0x0 DUP2 PUSH8 0xFFFFFFFFFFFFFFFF DUP2 GT ISZERO PUSH2 0x2E49 JUMPI PUSH2 0x2E49 PUSH2 0x3C7E JUMP JUMPDEST PUSH1 0x40 MLOAD SWAP1 DUP1 DUP3 MSTORE DUP1 PUSH1 0x20 MUL PUSH1 0x20 ADD DUP3 ADD PUSH1 0x40 MSTORE DUP1 ISZERO PUSH2 0x2E72 JUMPI DUP2 PUSH1 0x20 ADD PUSH1 0x20 DUP3 MUL DUP1 CALLDATASIZE DUP4 CALLDATACOPY ADD SWAP1 POP JUMPDEST POP SWAP1 POP PUSH1 0x0 JUMPDEST DUP3 DUP2 LT ISZERO PUSH2 0x2EBC JUMPI PUSH2 0x2E8A DUP6 DUP3 PUSH2 0x346C JUMP JUMPDEST DUP3 DUP3 DUP2 MLOAD DUP2 LT PUSH2 0x2E9C JUMPI PUSH2 0x2E9C PUSH2 0x3C94 JUMP JUMPDEST PUSH1 0x1 PUSH1 0x1 PUSH1 0xA0 SHL SUB SWAP1 SWAP3 AND PUSH1 0x20 SWAP3 DUP4 MUL SWAP2 SWAP1 SWAP2 ADD SWAP1 SWAP2 ADD MSTORE PUSH1 0x1 ADD PUSH2 0x2E78 JUMP JUMPDEST POP SWAP4 SWAP3 POP POP POP JUMP JUMPDEST PUSH1 0x3A SLOAD PUSH1 0x0 SWAP1 PUSH3 0x10000 SWAP1 DIV PUSH1 0x1 PUSH1 0x1 PUSH1 0xA0 SHL SUB AND DUP1 PUSH2 0x2EE6 JUMPI PUSH1 0x0 SWAP2 POP POP SWAP1 JUMP JUMPDEST PUSH2 0x2EEE PUSH2 0x295A JUMP JUMPDEST POP DUP1 PUSH1 0x1 PUSH1 0x1 PUSH1 0xA0 SHL SUB AND PUSH4 0x853828B6 PUSH1 0x40 MLOAD DUP2 PUSH4 0xFFFFFFFF AND PUSH1 0xE0 SHL DUP2 MSTORE PUSH1 0x4 ADD PUSH1 0x20 PUSH1 0x40 MLOAD DUP1 DUP4 SUB DUP2 PUSH1 0x0 DUP8 GAS CALL ISZERO DUP1 ISZERO PUSH2 0x2F2F JUMPI RETURNDATASIZE PUSH1 0x0 DUP1 RETURNDATACOPY RETURNDATASIZE PUSH1 0x0 REVERT JUMPDEST POP POP POP POP PUSH1 0x40 MLOAD RETURNDATASIZE PUSH1 0x1F NOT PUSH1 0x1F DUP3 ADD AND DUP3 ADD DUP1 PUSH1 0x40 MSTORE POP DUP2 ADD SWAP1 PUSH2 0x2F53 SWAP2 SWAP1 PUSH2 0x3BC2 JUMP JUMPDEST POP PUSH1 0x0 DUP1 DUP1 SSTORE PUSH1 0x3 SSTORE PUSH2 0x2F64 PUSH2 0x2602 JUMP JUMPDEST POP PUSH1 0x40 MLOAD PUSH32 0xF75FEFAE3ED4CF4E96A2B9F2EDB619F09A058D15DEF478E0BDE6675A02052485 SWAP1 PUSH1 0x0 SWAP1 LOG1 PUSH1 0x1 SWAP2 POP POP SWAP1 JUMP JUMPDEST PUSH1 0x3 SLOAD PUSH1 0x0 PUSH2 0x2FA4 DUP3 PUSH2 0x31FE JUMP JUMPDEST SWAP1 POP DUP1 DUP3 EQ PUSH2 0x1706 JUMPI PUSH1 0x3 SSTORE POP JUMP JUMPDEST PUSH1 0x0 PUSH2 0x2FC9 DUP5 PUSH1 0x1 PUSH1 0x1 PUSH1 0xA0 SHL SUB DUP6 AND DUP5 PUSH2 0x3479 JUMP JUMPDEST SWAP5 SWAP4 POP POP POP POP JUMP JUMPDEST PUSH1 0x0 DUP1 DUP1 DUP1 PUSH2 0x2FE9 DUP7 PUSH1 0x1 PUSH1 0x1 PUSH1 0xA0 SHL SUB DUP8 AND PUSH2 0x3496 JUMP JUMPDEST SWAP1 SWAP5 POP SWAP3 POP POP POP JUMPDEST SWAP3 POP SWAP3 SWAP1 POP JUMP JUMPDEST PUSH1 0x0 DUP1 PUSH2 0x3010 PUSH1 0x3C SLOAD DUP5 PUSH2 0x2662 SWAP1 SWAP2 SWAP1 PUSH4 0xFFFFFFFF AND JUMP JUMPDEST SWAP1 POP PUSH1 0x0 PUSH2 0x3029 PUSH1 0x3F SLOAD DUP6 PUSH2 0x2662 SWAP1 SWAP2 SWAP1 PUSH4 0xFFFFFFFF AND JUMP JUMPDEST SWAP1 POP PUSH1 0x0 DUP2 PUSH2 0x3038 DUP5 DUP8 PUSH2 0x3BF1 JUMP JUMPDEST PUSH2 0x3042 SWAP2 SWAP1 PUSH2 0x3BF1 JUMP JUMPDEST SWAP1 POP PUSH2 0x304D DUP3 PUSH2 0x34D0 JUMP JUMPDEST DUP1 ISZERO PUSH2 0x305C JUMPI PUSH2 0x305C DUP2 PUSH2 0x3540 JUMP JUMPDEST POP SWAP1 SWAP4 SWAP3 POP POP POP JUMP JUMPDEST PUSH1 0x1 PUSH1 0x1 PUSH1 0xA0 SHL SUB DUP2 AND PUSH2 0x3077 JUMPI POP POP JUMP JUMPDEST PUSH1 0x2 SLOAD PUSH1 0x40 MLOAD PUSH4 0x17A790F1 PUSH1 0xE1 SHL DUP2 MSTORE PUSH1 0x1 PUSH1 0x1 PUSH1 0xA0 SHL SUB DUP4 DUP2 AND PUSH1 0x4 DUP4 ADD MSTORE PUSH1 0x24 DUP3 ADD DUP6 SWAP1 MSTORE SWAP1 SWAP2 AND SWAP1 PUSH4 0x2F4F21E2 SWAP1 DUP5 SWAP1 PUSH1 0x44 ADD PUSH1 0x20 PUSH1 0x40 MLOAD DUP1 DUP4 SUB DUP2 DUP6 DUP9 GAS CALL ISZERO DUP1 ISZERO PUSH2 0x30CB JUMPI RETURNDATASIZE PUSH1 0x0 DUP1 RETURNDATACOPY RETURNDATASIZE PUSH1 0x0 REVERT JUMPDEST POP POP POP POP POP PUSH1 0x40 MLOAD RETURNDATASIZE PUSH1 0x1F NOT PUSH1 0x1F DUP3 ADD AND DUP3 ADD DUP1 PUSH1 0x40 MSTORE POP DUP2 ADD SWAP1 PUSH2 0x2E1A SWAP2 SWAP1 PUSH2 0x3BC2 JUMP JUMPDEST PUSH1 0x0 PUSH2 0x2681 DUP4 PUSH1 0x1 PUSH1 0x1 PUSH1 0xA0 SHL SUB DUP5 AND PUSH2 0x35CE JUMP JUMPDEST PUSH1 0x40 MLOAD PUSH4 0x21F8A721 PUSH1 0xE0 SHL DUP2 MSTORE PUSH12 0x7661756C7452657365727665 PUSH1 0xA0 SHL PUSH1 0x4 DUP3 ADD MSTORE PUSH1 0x0 SWAP1 PUSH1 0x1 PUSH1 0x1 PUSH1 0xA0 SHL SUB DUP4 AND SWAP1 PUSH4 0x21F8A721 SWAP1 PUSH1 0x24 ADD PUSH2 0x24E2 JUMP JUMPDEST PUSH1 0x0 DUP1 PUSH1 0x0 PUSH2 0x315D PUSH1 0x3B SLOAD DUP6 PUSH2 0x2662 SWAP1 SWAP2 SWAP1 PUSH4 0xFFFFFFFF AND JUMP JUMPDEST SWAP1 POP DUP1 SELFBALANCE LT ISZERO PUSH2 0x31DD JUMPI PUSH1 0x3A SLOAD PUSH1 0x40 MLOAD PUSH4 0x2E1A7D4D PUSH1 0xE0 SHL DUP2 MSTORE PUSH1 0x4 DUP2 ADD DUP4 SWAP1 MSTORE PUSH3 0x10000 SWAP1 SWAP2 DIV PUSH1 0x1 PUSH1 0x1 PUSH1 0xA0 SHL SUB AND SWAP1 PUSH4 0x2E1A7D4D SWAP1 PUSH1 0x24 ADD PUSH1 0x20 PUSH1 0x40 MLOAD DUP1 DUP4 SUB DUP2 PUSH1 0x0 DUP8 GAS CALL ISZERO DUP1 ISZERO PUSH2 0x31B7 JUMPI RETURNDATASIZE PUSH1 0x0 DUP1 RETURNDATACOPY RETURNDATASIZE PUSH1 0x0 REVERT JUMPDEST POP POP POP POP PUSH1 0x40 MLOAD RETURNDATASIZE PUSH1 0x1F NOT PUSH1 0x1F DUP3 ADD AND DUP3 ADD DUP1 PUSH1 0x40 MSTORE POP DUP2 ADD SWAP1 PUSH2 0x31DB SWAP2 SWAP1 PUSH2 0x3B4B JUMP JUMPDEST POP JUMPDEST PUSH1 0x0 PUSH2 0x31E8 DUP3 PUSH2 0x2FF8 JUMP JUMPDEST SWAP1 POP PUSH2 0x31F4 DUP3 DUP7 PUSH2 0x3BF1 JUMP JUMPDEST SWAP6 SWAP1 SWAP5 POP SWAP3 POP POP POP JUMP JUMPDEST PUSH1 0x0 DUP1 PUSH2 0x3209 PUSH2 0x25CE JUMP JUMPDEST SWAP1 POP PUSH1 0x0 PUSH1 0x1 PUSH1 0x1 PUSH1 0xA0 SHL SUB DUP3 AND PUSH4 0xD4FAC45D ADDRESS DUP4 PUSH1 0x40 MLOAD PUSH1 0x1 PUSH1 0x1 PUSH1 0xE0 SHL SUB NOT PUSH1 0xE0 DUP6 SWAP1 SHL AND DUP2 MSTORE PUSH1 0x1 PUSH1 0x1 PUSH1 0xA0 SHL SUB SWAP3 DUP4 AND PUSH1 0x4 DUP3 ADD MSTORE SWAP2 AND PUSH1 0x24 DUP3 ADD MSTORE PUSH1 0x44 ADD PUSH1 0x20 PUSH1 0x40 MLOAD DUP1 DUP4 SUB DUP2 DUP7 GAS STATICCALL ISZERO DUP1 ISZERO PUSH2 0x3269 JUMPI RETURNDATASIZE PUSH1 0x0 DUP1 RETURNDATACOPY RETURNDATASIZE PUSH1 0x0 REVERT JUMPDEST POP POP POP POP PUSH1 0x40 MLOAD RETURNDATASIZE PUSH1 0x1F NOT PUSH1 0x1F DUP3 ADD AND DUP3 ADD DUP1 PUSH1 0x40 MSTORE POP DUP2 ADD SWAP1 PUSH2 0x328D SWAP2 SWAP1 PUSH2 0x3BC2 JUMP JUMPDEST SWAP1 POP DUP1 DUP5 GT ISZERO PUSH2 0x32A5 JUMPI PUSH2 0x32A0 DUP2 PUSH2 0x35EB JUMP JUMPDEST PUSH2 0x338F JUMP JUMPDEST PUSH1 0x40 MLOAD PUSH4 0x19262D3 PUSH1 0xE4 SHL DUP2 MSTORE ADDRESS PUSH1 0x4 DUP3 ADD MSTORE PUSH1 0x1 PUSH1 0x1 PUSH1 0xA0 SHL SUB DUP4 AND SWAP1 PUSH4 0x19262D30 SWAP1 PUSH1 0x24 ADD PUSH1 0x20 PUSH1 0x40 MLOAD DUP1 DUP4 SUB DUP2 DUP7 GAS STATICCALL ISZERO DUP1 ISZERO PUSH2 0x32E9 JUMPI RETURNDATASIZE PUSH1 0x0 DUP1 RETURNDATACOPY RETURNDATASIZE PUSH1 0x0 REVERT JUMPDEST POP POP POP POP PUSH1 0x40 MLOAD RETURNDATASIZE PUSH1 0x1F NOT PUSH1 0x1F DUP3 ADD AND DUP3 ADD DUP1 PUSH1 0x40 MSTORE POP DUP2 ADD SWAP1 PUSH2 0x330D SWAP2 SWAP1 PUSH2 0x3B4B JUMP JUMPDEST ISZERO PUSH2 0x338F JUMPI PUSH1 0x1 PUSH1 0x1 PUSH1 0xA0 SHL SUB DUP3 AND PUSH4 0xF3FEF3A3 PUSH1 0x0 PUSH1 0x40 MLOAD PUSH1 0x1 PUSH1 0x1 PUSH1 0xE0 SHL SUB NOT PUSH1 0xE0 DUP5 SWAP1 SHL AND DUP2 MSTORE PUSH1 0x1 PUSH1 0x1 PUSH1 0xA0 SHL SUB SWAP1 SWAP2 AND PUSH1 0x4 DUP3 ADD MSTORE PUSH1 0x24 DUP2 ADD DUP8 SWAP1 MSTORE PUSH1 0x44 ADD PUSH1 0x0 PUSH1 0x40 MLOAD DUP1 DUP4 SUB DUP2 PUSH1 0x0 DUP8 DUP1 EXTCODESIZE ISZERO DUP1 ISZERO PUSH2 0x336B JUMPI PUSH1 0x0 DUP1 REVERT JUMPDEST POP GAS CALL ISZERO DUP1 ISZERO PUSH2 0x337F JUMPI RETURNDATASIZE PUSH1 0x0 DUP1 RETURNDATACOPY RETURNDATASIZE PUSH1 0x0 REVERT JUMPDEST POP POP POP POP PUSH1 0x0 SWAP4 POP PUSH2 0x338F PUSH2 0x2D5D JUMP JUMPDEST POP SWAP2 SWAP3 SWAP2 POP POP JUMP JUMPDEST PUSH2 0x33EE DUP2 PUSH1 0x3A PUSH1 0x2 SWAP1 SLOAD SWAP1 PUSH2 0x100 EXP SWAP1 DIV PUSH1 0x1 PUSH1 0x1 PUSH1 0xA0 SHL SUB AND PUSH1 0x1 PUSH1 0x1 PUSH1 0xA0 SHL SUB AND PUSH4 0x1FE4A686 PUSH1 0x40 MLOAD DUP2 PUSH4 0xFFFFFFFF AND PUSH1 0xE0 SHL DUP2 MSTORE PUSH1 0x4 ADD PUSH1 0x20 PUSH1 0x40 MLOAD DUP1 DUP4 SUB DUP2 DUP7 GAS STATICCALL ISZERO DUP1 ISZERO PUSH2 0x22B0 JUMPI RETURNDATASIZE PUSH1 0x0 DUP1 RETURNDATACOPY RETURNDATASIZE PUSH1 0x0 REVERT JUMPDEST POP JUMP JUMPDEST PUSH1 0x0 DUP2 DUP2 MSTORE PUSH1 0x2 DUP4 ADD PUSH1 0x20 MSTORE PUSH1 0x40 DUP2 KECCAK256 SLOAD DUP1 ISZERO ISZERO DUP1 PUSH2 0x3415 JUMPI POP PUSH2 0x3415 DUP5 DUP5 PUSH2 0x37FA JUMP JUMPDEST PUSH2 0x2681 JUMPI PUSH1 0x40 MLOAD PUSH3 0x461BCD PUSH1 0xE5 SHL DUP2 MSTORE PUSH1 0x20 PUSH1 0x4 DUP3 ADD MSTORE PUSH1 0x1E PUSH1 0x24 DUP3 ADD MSTORE PUSH32 0x456E756D657261626C654D61703A206E6F6E6578697374656E74206B65790000 PUSH1 0x44 DUP3 ADD MSTORE PUSH1 0x64 ADD PUSH2 0x7DA JUMP JUMPDEST PUSH1 0x0 PUSH2 0x1717 DUP3 PUSH2 0x3806 JUMP JUMPDEST PUSH1 0x0 DUP1 PUSH2 0x239B DUP5 DUP5 PUSH2 0x3811 JUMP JUMPDEST PUSH1 0x0 DUP3 DUP2 MSTORE PUSH1 0x2 DUP5 ADD PUSH1 0x20 MSTORE PUSH1 0x40 DUP2 KECCAK256 DUP3 SWAP1 SSTORE PUSH2 0x2FC9 DUP5 DUP5 PUSH2 0x3820 JUMP JUMPDEST PUSH1 0x0 DUP2 DUP2 MSTORE PUSH1 0x2 DUP4 ADD PUSH1 0x20 MSTORE PUSH1 0x40 DUP2 KECCAK256 SLOAD DUP2 SWAP1 DUP1 PUSH2 0x34C5 JUMPI PUSH2 0x34B8 DUP6 DUP6 PUSH2 0x37FA JUMP JUMPDEST SWAP3 POP PUSH1 0x0 SWAP2 POP PUSH2 0x2FF1 SWAP1 POP JUMP JUMPDEST PUSH1 0x1 SWAP3 POP SWAP1 POP PUSH2 0x2FF1 JUMP JUMPDEST PUSH2 0x34D8 PUSH2 0x25CE JUMP JUMPDEST PUSH1 0x40 MLOAD PUSH4 0x11F9FBC9 PUSH1 0xE2 SHL DUP2 MSTORE PUSH1 0x0 PUSH1 0x4 DUP3 ADD MSTORE PUSH1 0x24 DUP2 ADD DUP4 SWAP1 MSTORE PUSH1 0x1 PUSH1 0x1 PUSH1 0xA0 SHL SUB SWAP2 SWAP1 SWAP2 AND SWAP1 PUSH4 0x47E7EF24 SWAP1 DUP4 SWAP1 PUSH1 0x44 ADD PUSH1 0x0 PUSH1 0x40 MLOAD DUP1 DUP4 SUB DUP2 DUP6 DUP9 DUP1 EXTCODESIZE ISZERO DUP1 ISZERO PUSH2 0x3524 JUMPI PUSH1 0x0 DUP1 REVERT JUMPDEST POP GAS CALL ISZERO DUP1 ISZERO PUSH2 0x3538 JUMPI RETURNDATASIZE PUSH1 0x0 DUP1 RETURNDATACOPY RETURNDATASIZE PUSH1 0x0 REVERT JUMPDEST POP POP POP POP POP POP JUMP JUMPDEST PUSH1 0x0 PUSH2 0x3574 PUSH32 0x0 PUSH1 0x1 PUSH1 0x1 PUSH1 0xA0 SHL SUB AND PUSH2 0x382C JUMP JUMPDEST SWAP1 POP PUSH1 0x1 PUSH1 0x1 PUSH1 0xA0 SHL SUB DUP2 AND PUSH2 0x35B9 JUMPI PUSH2 0x35B6 PUSH32 0x0 PUSH1 0x1 PUSH1 0x1 PUSH1 0xA0 SHL SUB AND PUSH2 0x3872 JUMP JUMPDEST SWAP1 POP JUMPDEST PUSH1 0x0 DUP2 PUSH1 0x1 PUSH1 0x1 PUSH1 0xA0 SHL SUB AND DUP4 PUSH1 0x40 MLOAD PUSH2 0x28C7 JUMP JUMPDEST PUSH1 0x0 DUP2 DUP2 MSTORE PUSH1 0x2 DUP4 ADD PUSH1 0x20 MSTORE PUSH1 0x40 DUP2 KECCAK256 DUP2 SWAP1 SSTORE PUSH2 0x2681 DUP4 DUP4 PUSH2 0x38AC JUMP JUMPDEST PUSH1 0x0 PUSH1 0x3A PUSH1 0x2 SWAP1 SLOAD SWAP1 PUSH2 0x100 EXP SWAP1 DIV PUSH1 0x1 PUSH1 0x1 PUSH1 0xA0 SHL SUB AND PUSH1 0x1 PUSH1 0x1 PUSH1 0xA0 SHL SUB AND PUSH4 0x853828B6 PUSH1 0x40 MLOAD DUP2 PUSH4 0xFFFFFFFF AND PUSH1 0xE0 SHL DUP2 MSTORE PUSH1 0x4 ADD PUSH1 0x20 PUSH1 0x40 MLOAD DUP1 DUP4 SUB DUP2 PUSH1 0x0 DUP8 GAS CALL ISZERO DUP1 ISZERO PUSH2 0x3642 JUMPI RETURNDATASIZE PUSH1 0x0 DUP1 RETURNDATACOPY RETURNDATASIZE PUSH1 0x0 REVERT JUMPDEST POP POP POP POP PUSH1 0x40 MLOAD RETURNDATASIZE PUSH1 0x1F NOT PUSH1 0x1F DUP3 ADD AND DUP3 ADD DUP1 PUSH1 0x40 MSTORE POP DUP2 ADD SWAP1 PUSH2 0x3666 SWAP2 SWAP1 PUSH2 0x3BC2 JUMP JUMPDEST SWAP1 POP PUSH1 0x0 PUSH2 0x3676 PUSH1 0x0 SLOAD DUP4 PUSH2 0x2688 JUMP JUMPDEST SWAP1 POP PUSH2 0x3680 PUSH2 0x25CE JUMP JUMPDEST PUSH1 0x40 MLOAD PUSH4 0x19262D3 PUSH1 0xE4 SHL DUP2 MSTORE ADDRESS PUSH1 0x4 DUP3 ADD MSTORE PUSH1 0x1 PUSH1 0x1 PUSH1 0xA0 SHL SUB SWAP2 SWAP1 SWAP2 AND SWAP1 PUSH4 0x19262D30 SWAP1 PUSH1 0x24 ADD PUSH1 0x20 PUSH1 0x40 MLOAD DUP1 DUP4 SUB DUP2 DUP7 GAS STATICCALL ISZERO DUP1 ISZERO PUSH2 0x36C6 JUMPI RETURNDATASIZE PUSH1 0x0 DUP1 RETURNDATACOPY RETURNDATASIZE PUSH1 0x0 REVERT JUMPDEST POP POP POP POP PUSH1 0x40 MLOAD RETURNDATASIZE PUSH1 0x1F NOT PUSH1 0x1F DUP3 ADD AND DUP3 ADD DUP1 PUSH1 0x40 MSTORE POP DUP2 ADD SWAP1 PUSH2 0x36EA SWAP2 SWAP1 PUSH2 0x3B4B JUMP JUMPDEST ISZERO PUSH2 0x37F2 JUMPI DUP1 DUP4 LT PUSH2 0x3773 JUMPI PUSH2 0x36FE PUSH2 0x25CE JUMP JUMPDEST PUSH1 0x1 PUSH1 0x1 PUSH1 0xA0 SHL SUB AND PUSH4 0xF3FEF3A3 PUSH1 0x0 PUSH1 0x40 MLOAD PUSH1 0x1 PUSH1 0x1 PUSH1 0xE0 SHL SUB NOT PUSH1 0xE0 DUP5 SWAP1 SHL AND DUP2 MSTORE PUSH1 0x1 PUSH1 0x1 PUSH1 0xA0 SHL SUB SWAP1 SWAP2 AND PUSH1 0x4 DUP3 ADD MSTORE PUSH1 0x24 DUP2 ADD DUP5 SWAP1 MSTORE PUSH1 0x44 ADD PUSH1 0x0 PUSH1 0x40 MLOAD DUP1 DUP4 SUB DUP2 PUSH1 0x0 DUP8 DUP1 EXTCODESIZE ISZERO DUP1 ISZERO PUSH2 0x3756 JUMPI PUSH1 0x0 DUP1 REVERT JUMPDEST POP GAS CALL ISZERO DUP1 ISZERO PUSH2 0x376A JUMPI RETURNDATASIZE PUSH1 0x0 DUP1 RETURNDATACOPY RETURNDATASIZE PUSH1 0x0 REVERT JUMPDEST POP POP POP POP PUSH2 0x37F2 JUMP JUMPDEST DUP3 ISZERO PUSH2 0x37F2 JUMPI PUSH2 0x3781 PUSH2 0x25CE JUMP JUMPDEST PUSH1 0x1 PUSH1 0x1 PUSH1 0xA0 SHL SUB AND PUSH4 0xF3FEF3A3 PUSH1 0x0 PUSH1 0x40 MLOAD PUSH1 0x1 PUSH1 0x1 PUSH1 0xE0 SHL SUB NOT PUSH1 0xE0 DUP5 SWAP1 SHL AND DUP2 MSTORE PUSH1 0x1 PUSH1 0x1 PUSH1 0xA0 SHL SUB SWAP1 SWAP2 AND PUSH1 0x4 DUP3 ADD MSTORE PUSH1 0x24 DUP2 ADD DUP7 SWAP1 MSTORE PUSH1 0x44 ADD PUSH1 0x0 PUSH1 0x40 MLOAD DUP1 DUP4 SUB DUP2 PUSH1 0x0 DUP8 DUP1 EXTCODESIZE ISZERO DUP1 ISZERO PUSH2 0x37D9 JUMPI PUSH1 0x0 DUP1 REVERT JUMPDEST POP GAS CALL ISZERO DUP1 ISZERO PUSH2 0x37ED JUMPI RETURNDATASIZE PUSH1 0x0 DUP1 RETURNDATACOPY RETURNDATASIZE PUSH1 0x0 REVERT JUMPDEST POP POP POP POP JUMPDEST PUSH2 0x2954 PUSH2 0x2602 JUMP JUMPDEST PUSH1 0x0 PUSH2 0x2681 DUP4 DUP4 PUSH2 0x38B8 JUMP JUMPDEST PUSH1 0x0 PUSH2 0x1717 DUP3 PUSH2 0x38D0 JUMP JUMPDEST PUSH1 0x0 DUP1 DUP1 DUP1 PUSH2 0x2FE9 DUP7 DUP7 PUSH2 0x38DA JUMP JUMPDEST PUSH1 0x0 PUSH2 0x2681 DUP4 DUP4 PUSH2 0x3905 JUMP JUMPDEST PUSH1 0x40 MLOAD PUSH4 0xE6DC9E2B PUSH1 0xE0 SHL DUP2 MSTORE PUSH13 0x3932BBB0B9322430B7323632B9 PUSH1 0x99 SHL PUSH1 0x4 DUP3 ADD MSTORE PUSH1 0x0 PUSH1 0x24 DUP3 ADD DUP2 SWAP1 MSTORE SWAP1 PUSH1 0x1 PUSH1 0x1 PUSH1 0xA0 SHL SUB DUP4 AND SWAP1 PUSH4 0xE6DC9E2B SWAP1 PUSH1 0x44 ADD PUSH2 0x24E2 JUMP JUMPDEST PUSH1 0x40 MLOAD PUSH4 0x21F8A721 PUSH1 0xE0 SHL DUP2 MSTORE PUSH8 0x7472656173757279 PUSH1 0xC0 SHL PUSH1 0x4 DUP3 ADD MSTORE PUSH1 0x0 SWAP1 PUSH1 0x1 PUSH1 0x1 PUSH1 0xA0 SHL SUB DUP4 AND SWAP1 PUSH4 0x21F8A721 SWAP1 PUSH1 0x24 ADD PUSH2 0x24E2 JUMP JUMPDEST PUSH1 0x0 PUSH2 0x2681 DUP4 DUP4 PUSH2 0x3954 JUMP JUMPDEST PUSH1 0x0 DUP2 DUP2 MSTORE PUSH1 0x1 DUP4 ADD PUSH1 0x20 MSTORE PUSH1 0x40 DUP2 KECCAK256 SLOAD ISZERO ISZERO PUSH2 0x2681 JUMP JUMPDEST PUSH1 0x0 PUSH2 0x1717 DUP3 SLOAD SWAP1 JUMP JUMPDEST PUSH1 0x0 DUP1 DUP1 PUSH2 0x38E8 DUP6 DUP6 PUSH2 0x3A47 JUMP JUMPDEST PUSH1 0x0 DUP2 DUP2 MSTORE PUSH1 0x2 SWAP7 SWAP1 SWAP7 ADD PUSH1 0x20 MSTORE PUSH1 0x40 SWAP1 SWAP6 KECCAK256 SLOAD SWAP5 SWAP6 SWAP4 POP POP POP POP JUMP JUMPDEST PUSH1 0x0 DUP2 DUP2 MSTORE PUSH1 0x1 DUP4 ADD PUSH1 0x20 MSTORE PUSH1 0x40 DUP2 KECCAK256 SLOAD PUSH2 0x394C JUMPI POP DUP2 SLOAD PUSH1 0x1 DUP2 DUP2 ADD DUP5 SSTORE PUSH1 0x0 DUP5 DUP2 MSTORE PUSH1 0x20 DUP1 DUP3 KECCAK256 SWAP1 SWAP4 ADD DUP5 SWAP1 SSTORE DUP5 SLOAD DUP5 DUP3 MSTORE DUP3 DUP7 ADD SWAP1 SWAP4 MSTORE PUSH1 0x40 SWAP1 KECCAK256 SWAP2 SWAP1 SWAP2 SSTORE PUSH2 0x1717 JUMP JUMPDEST POP PUSH1 0x0 PUSH2 0x1717 JUMP JUMPDEST PUSH1 0x0 DUP2 DUP2 MSTORE PUSH1 0x1 DUP4 ADD PUSH1 0x20 MSTORE PUSH1 0x40 DUP2 KECCAK256 SLOAD DUP1 ISZERO PUSH2 0x3A3D JUMPI PUSH1 0x0 PUSH2 0x3978 PUSH1 0x1 DUP4 PUSH2 0x3BF1 JUMP JUMPDEST DUP6 SLOAD SWAP1 SWAP2 POP PUSH1 0x0 SWAP1 PUSH2 0x398C SWAP1 PUSH1 0x1 SWAP1 PUSH2 0x3BF1 JUMP JUMPDEST SWAP1 POP DUP2 DUP2 EQ PUSH2 0x39F1 JUMPI PUSH1 0x0 DUP7 PUSH1 0x0 ADD DUP3 DUP2 SLOAD DUP2 LT PUSH2 0x39AC JUMPI PUSH2 0x39AC PUSH2 0x3C94 JUMP JUMPDEST SWAP1 PUSH1 0x0 MSTORE PUSH1 0x20 PUSH1 0x0 KECCAK256 ADD SLOAD SWAP1 POP DUP1 DUP8 PUSH1 0x0 ADD DUP5 DUP2 SLOAD DUP2 LT PUSH2 0x39CF JUMPI PUSH2 0x39CF PUSH2 0x3C94 JUMP JUMPDEST PUSH1 0x0 SWAP2 DUP3 MSTORE PUSH1 0x20 DUP1 DUP4 KECCAK256 SWAP1 SWAP2 ADD SWAP3 SWAP1 SWAP3 SSTORE SWAP2 DUP3 MSTORE PUSH1 0x1 DUP9 ADD SWAP1 MSTORE PUSH1 0x40 SWAP1 KECCAK256 DUP4 SWAP1 SSTORE JUMPDEST DUP6 SLOAD DUP7 SWAP1 DUP1 PUSH2 0x3A02 JUMPI PUSH2 0x3A02 PUSH2 0x3CAA JUMP JUMPDEST PUSH1 0x1 SWAP1 SUB DUP2 DUP2 SWAP1 PUSH1 0x0 MSTORE PUSH1 0x20 PUSH1 0x0 KECCAK256 ADD PUSH1 0x0 SWAP1 SSTORE SWAP1 SSTORE DUP6 PUSH1 0x1 ADD PUSH1 0x0 DUP7 DUP2 MSTORE PUSH1 0x20 ADD SWAP1 DUP2 MSTORE PUSH1 0x20 ADD PUSH1 0x0 KECCAK256 PUSH1 0x0 SWAP1 SSTORE PUSH1 0x1 SWAP4 POP POP POP POP PUSH2 0x1717 JUMP JUMPDEST PUSH1 0x0 SWAP2 POP POP PUSH2 0x1717 JUMP JUMPDEST PUSH1 0x0 PUSH2 0x2681 DUP4 DUP4 PUSH1 0x0 DUP3 PUSH1 0x0 ADD DUP3 DUP2 SLOAD DUP2 LT PUSH2 0x3A65 JUMPI PUSH2 0x3A65 PUSH2 0x3C94 JUMP JUMPDEST SWAP1 PUSH1 0x0 MSTORE PUSH1 0x20 PUSH1 0x0 KECCAK256 ADD SLOAD SWAP1 POP SWAP3 SWAP2 POP POP JUMP JUMPDEST PUSH1 0x0 PUSH1 0x20 DUP3 DUP5 SUB SLT ISZERO PUSH2 0x3A8A JUMPI PUSH1 0x0 DUP1 REVERT JUMPDEST POP CALLDATALOAD SWAP2 SWAP1 POP JUMP JUMPDEST PUSH1 0x1 PUSH1 0x1 PUSH1 0xA0 SHL SUB DUP2 AND DUP2 EQ PUSH2 0x33EE JUMPI PUSH1 0x0 DUP1 REVERT JUMPDEST PUSH1 0x0 DUP1 PUSH1 0x0 DUP1 PUSH1 0x80 DUP6 DUP8 SUB SLT ISZERO PUSH2 0x3ABC JUMPI PUSH1 0x0 DUP1 REVERT JUMPDEST DUP5 CALLDATALOAD PUSH2 0x3AC7 DUP2 PUSH2 0x3A91 JUMP JUMPDEST SWAP7 PUSH1 0x20 DUP7 ADD CALLDATALOAD SWAP7 POP PUSH1 0x40 DUP7 ADD CALLDATALOAD SWAP6 PUSH1 0x60 ADD CALLDATALOAD SWAP5 POP SWAP3 POP POP POP JUMP JUMPDEST PUSH1 0x0 PUSH1 0x20 DUP3 DUP5 SUB SLT ISZERO PUSH2 0x3AF3 JUMPI PUSH1 0x0 DUP1 REVERT JUMPDEST DUP2 CALLDATALOAD PUSH2 0x2681 DUP2 PUSH2 0x3A91 JUMP JUMPDEST PUSH1 0x20 DUP1 DUP3 MSTORE DUP3 MLOAD DUP3 DUP3 ADD DUP2 SWAP1 MSTORE PUSH1 0x0 SWAP2 SWAP1 DUP5 DUP3 ADD SWAP1 PUSH1 0x40 DUP6 ADD SWAP1 DUP5 JUMPDEST DUP2 DUP2 LT ISZERO PUSH2 0x3B3F JUMPI DUP4 MLOAD PUSH1 0x1 PUSH1 0x1 PUSH1 0xA0 SHL SUB AND DUP4 MSTORE SWAP3 DUP5 ADD SWAP3 SWAP2 DUP5 ADD SWAP2 PUSH1 0x1 ADD PUSH2 0x3B1A JUMP JUMPDEST POP SWAP1 SWAP7 SWAP6 POP POP POP POP POP POP JUMP JUMPDEST PUSH1 0x0 PUSH1 0x20 DUP3 DUP5 SUB SLT ISZERO PUSH2 0x3B5D JUMPI PUSH1 0x0 DUP1 REVERT JUMPDEST DUP2 MLOAD DUP1 ISZERO ISZERO DUP2 EQ PUSH2 0x2681 JUMPI PUSH1 0x0 DUP1 REVERT JUMPDEST PUSH1 0x0 PUSH1 0x20 DUP1 DUP4 MSTORE DUP4 MLOAD DUP1 DUP3 DUP6 ADD MSTORE PUSH1 0x0 JUMPDEST DUP2 DUP2 LT ISZERO PUSH2 0x3B9A JUMPI DUP6 DUP2 ADD DUP4 ADD MLOAD DUP6 DUP3 ADD PUSH1 0x40 ADD MSTORE DUP3 ADD PUSH2 0x3B7E JUMP JUMPDEST DUP2 DUP2 GT ISZERO PUSH2 0x3BAC JUMPI PUSH1 0x0 PUSH1 0x40 DUP4 DUP8 ADD ADD MSTORE JUMPDEST POP PUSH1 0x1F ADD PUSH1 0x1F NOT AND SWAP3 SWAP1 SWAP3 ADD PUSH1 0x40 ADD SWAP4 SWAP3 POP POP POP JUMP JUMPDEST PUSH1 0x0 PUSH1 0x20 DUP3 DUP5 SUB SLT ISZERO PUSH2 0x3BD4 JUMPI PUSH1 0x0 DUP1 REVERT JUMPDEST POP MLOAD SWAP2 SWAP1 POP JUMP JUMPDEST PUSH4 0x4E487B71 PUSH1 0xE0 SHL PUSH1 0x0 MSTORE PUSH1 0x11 PUSH1 0x4 MSTORE PUSH1 0x24 PUSH1 0x0 REVERT JUMPDEST PUSH1 0x0 DUP3 DUP3 LT ISZERO PUSH2 0x3C03 JUMPI PUSH2 0x3C03 PUSH2 0x3BDB JUMP JUMPDEST POP SUB SWAP1 JUMP JUMPDEST PUSH1 0x0 DUP3 NOT DUP3 GT ISZERO PUSH2 0x3C1B JUMPI PUSH2 0x3C1B PUSH2 0x3BDB JUMP JUMPDEST POP ADD SWAP1 JUMP JUMPDEST PUSH1 0x0 PUSH1 0x20 DUP3 DUP5 SUB SLT ISZERO PUSH2 0x3C32 JUMPI PUSH1 0x0 DUP1 REVERT JUMPDEST DUP2 MLOAD PUSH2 0x2681 DUP2 PUSH2 0x3A91 JUMP JUMPDEST PUSH1 0x0 DUP2 PUSH1 0x0 NOT DIV DUP4 GT DUP3 ISZERO ISZERO AND ISZERO PUSH2 0x3C57 JUMPI PUSH2 0x3C57 PUSH2 0x3BDB JUMP JUMPDEST POP MUL SWAP1 JUMP JUMPDEST PUSH1 0x0 DUP3 PUSH2 0x3C79 JUMPI PUSH4 0x4E487B71 PUSH1 0xE0 SHL PUSH1 0x0 MSTORE PUSH1 0x12 PUSH1 0x4 MSTORE PUSH1 0x24 PUSH1 0x0 REVERT JUMPDEST POP DIV SWAP1 JUMP JUMPDEST PUSH4 0x4E487B71 PUSH1 0xE0 SHL PUSH1 0x0 MSTORE PUSH1 0x41 PUSH1 0x4 MSTORE PUSH1 0x24 PUSH1 0x0 REVERT JUMPDEST PUSH4 0x4E487B71 PUSH1 0xE0 SHL PUSH1 0x0 MSTORE PUSH1 0x32 PUSH1 0x4 MSTORE PUSH1 0x24 PUSH1 0x0 REVERT JUMPDEST PUSH4 0x4E487B71 PUSH1 0xE0 SHL PUSH1 0x0 MSTORE PUSH1 0x31 PUSH1 0x4 MSTORE PUSH1 0x24 PUSH1 0x0 REVERT INVALID POP PUSH16 0x6F6C206D757374206265207061757365 PUSH5 0x20746F2077 PUSH10 0x7468647261772066726F PUSH14 0x2072657365727665756E61757468 PUSH16 0x72697A65642061636365737300000000 STOP STOP STOP STOP STOP STOP STOP STOP STOP LOG2 PUSH5 0x6970667358 0x22 SLT KECCAK256 0x4F PUSH8 0x8D1C1BF5AFC5A86B CALLDATALOAD 0xDA PUSH4 0x73BE19D4 CODECOPY PUSH23 0x6B5A37B4533894CA926509CD0164736F6C634300080A00 CALLER ","sha1":"c6da66784543a904574b57800f02c0ccceaf5e44","source":"// SPDX-License-Identifier: GPL-3.0-or-later\npragma solidity 0.8.10;\n\nimport \"./Vault.sol\";\n\ncontract EthVault is Vault {\n    using AddressProviderHelpers for IAddressProvider;\n\n    address private constant _UNDERLYING = address(0);\n\n    constructor(IController controller) Vault(controller) {}\n\n    receive() external payable {}\n\n    function initialize(\n        address _pool,\n        uint256 _debtLimit,\n        uint256 _targetAllocation,\n        uint256 _bound\n    ) external virtual override initializer {\n        _initialize(_pool, _debtLimit, _targetAllocation, _bound);\n    }\n\n    function getUnderlying() public pure override returns (address) {\n        return _UNDERLYING;\n    }\n\n    function _transfer(address to, uint256 amount) internal override {\n        // solhint-disable-next-line avoid-low-level-calls\n        (bool success, ) = payable(to).call{value: amount}(\"\");\n        require(success, Error.FAILED_TRANSFER);\n    }\n\n    function _depositToReserve(uint256 amount) internal override {\n        _reserve().deposit{value: amount}(_UNDERLYING, amount);\n    }\n\n    function _depositToRewardHandler(uint256 amount) internal override {\n        address handler = addressProvider.getSafeRewardHandler();\n        if (handler == address(0)) {\n            handler = addressProvider.getTreasury();\n        }\n        // solhint-disable-next-line avoid-low-level-calls\n        (bool success, ) = payable(handler).call{value: amount}(\"\");\n        require(success, Error.FAILED_TRANSFER);\n    }\n\n    function _payStrategist(uint256 amount, address strategist) internal override {\n        if (strategist == address(0)) return;\n        ILiquidityPool(pool).depositFor{value: amount}(strategist, amount);\n    }\n\n    function _availableUnderlying() internal view override returns (uint256) {\n        return address(this).balance;\n    }\n}\n","sourcePath":"contracts/vault/EthVault.sol","type":"contract","deployment":{"address":"0x7aADbE7b6F1dF811a5DABeb3b4aC5f7De8121b73","chainid":"1","blockHeight":15323658}}