{"abi":[{"inputs":[{"internalType":"address","name":"vault_","type":"address"},{"internalType":"address","name":"strategist_","type":"address"},{"internalType":"uint256","name":"convexPid_","type":"uint256"},{"internalType":"address","name":"curvePool_","type":"address"},{"internalType":"uint256","name":"curveIndex_","type":"uint256"},{"internalType":"address","name":"curveHopPool_","type":"address"},{"internalType":"uint256","name":"curveHopIndex_","type":"uint256"},{"internalType":"contract IAddressProvider","name":"addressProvider_","type":"address"}],"stateMutability":"nonpayable","type":"constructor","name":"constructor"},{"anonymous":false,"inputs":[{"indexed":false,"internalType":"address","name":"token","type":"address"}],"name":"AddRewardToken","type":"event"},{"anonymous":false,"inputs":[],"name":"Deposit","type":"event"},{"anonymous":false,"inputs":[{"indexed":false,"internalType":"uint256","name":"amount","type":"uint256"}],"name":"Harvest","type":"event"},{"anonymous":false,"inputs":[{"indexed":false,"internalType":"address","name":"token","type":"address"}],"name":"RemoveRewardToken","type":"event"},{"anonymous":false,"inputs":[{"indexed":false,"internalType":"address","name":"reserve","type":"address"}],"name":"SetCommunityReserve","type":"event"},{"anonymous":false,"inputs":[{"indexed":false,"internalType":"uint256","name":"value","type":"uint256"}],"name":"SetCrvCommunityReserveShare","type":"event"},{"anonymous":false,"inputs":[{"indexed":false,"internalType":"uint256","name":"value","type":"uint256"}],"name":"SetCvxCommunityReserveShare","type":"event"},{"anonymous":false,"inputs":[{"indexed":false,"internalType":"uint256","name":"value","type":"uint256"}],"name":"SetHopImbalanceToleranceIn","type":"event"},{"anonymous":false,"inputs":[{"indexed":false,"internalType":"uint256","name":"value","type":"uint256"}],"name":"SetHopImbalanceToleranceOut","type":"event"},{"anonymous":false,"inputs":[{"indexed":false,"internalType":"uint256","name":"value","type":"uint256"}],"name":"SetImbalanceToleranceIn","type":"event"},{"anonymous":false,"inputs":[{"indexed":false,"internalType":"uint256","name":"value","type":"uint256"}],"name":"SetImbalanceToleranceOut","type":"event"},{"anonymous":false,"inputs":[{"indexed":false,"internalType":"address","name":"strategist","type":"address"}],"name":"SetStrategist","type":"event"},{"anonymous":false,"inputs":[],"name":"Shutdown","type":"event"},{"anonymous":false,"inputs":[{"indexed":false,"internalType":"uint256","name":"amount","type":"uint256"}],"name":"Withdraw","type":"event"},{"anonymous":false,"inputs":[{"indexed":false,"internalType":"uint256","name":"amount","type":"uint256"}],"name":"WithdrawAll","type":"event"},{"inputs":[{"internalType":"address","name":"token_","type":"address"}],"name":"addRewardToken","outputs":[{"internalType":"bool","name":"","type":"bool"}],"stateMutability":"nonpayable","type":"function"},{"inputs":[],"name":"balance","outputs":[{"internalType":"uint256","name":"","type":"uint256"}],"stateMutability":"view","type":"function"},{"inputs":[{"internalType":"uint256","name":"convexPid_","type":"uint256"},{"internalType":"address","name":"curvePool_","type":"address"},{"internalType":"uint256","name":"curveIndex_","type":"uint256"}],"name":"changeConvexPool","outputs":[],"stateMutability":"nonpayable","type":"function"},{"inputs":[],"name":"communityReserve","outputs":[{"internalType":"address","name":"","type":"address"}],"stateMutability":"view","type":"function"},{"inputs":[],"name":"convexPid","outputs":[{"internalType":"uint256","name":"","type":"uint256"}],"stateMutability":"view","type":"function"},{"inputs":[],"name":"crvCommunityReserveShare","outputs":[{"internalType":"uint256","name":"","type":"uint256"}],"stateMutability":"view","type":"function"},{"inputs":[],"name":"curveHopIndex","outputs":[{"internalType":"uint256","name":"","type":"uint256"}],"stateMutability":"view","type":"function"},{"inputs":[],"name":"curveHopPool","outputs":[{"internalType":"contract ICurveSwapEth","name":"","type":"address"}],"stateMutability":"view","type":"function"},{"inputs":[],"name":"curveIndex","outputs":[{"internalType":"uint256","name":"","type":"uint256"}],"stateMutability":"view","type":"function"},{"inputs":[],"name":"curvePool","outputs":[{"internalType":"contract ICurveSwapEth","name":"","type":"address"}],"stateMutability":"view","type":"function"},{"inputs":[],"name":"cvxCommunityReserveShare","outputs":[{"internalType":"uint256","name":"","type":"uint256"}],"stateMutability":"view","type":"function"},{"inputs":[],"name":"decimalMultiplier","outputs":[{"internalType":"uint256","name":"","type":"uint256"}],"stateMutability":"view","type":"function"},{"inputs":[],"name":"deposit","outputs":[{"internalType":"bool","name":"","type":"bool"}],"stateMutability":"payable","type":"function"},{"inputs":[{"internalType":"uint256","name":"crvEarned","type":"uint256"}],"name":"getCvxMintAmount","outputs":[{"internalType":"uint256","name":"","type":"uint256"}],"stateMutability":"view","type":"function"},{"inputs":[],"name":"harvest","outputs":[{"internalType":"uint256","name":"","type":"uint256"}],"stateMutability":"nonpayable","type":"function"},{"inputs":[],"name":"harvestable","outputs":[{"internalType":"uint256","name":"","type":"uint256"}],"stateMutability":"view","type":"function"},{"inputs":[],"name":"hasPendingFunds","outputs":[{"internalType":"bool","name":"","type":"bool"}],"stateMutability":"pure","type":"function"},{"inputs":[],"name":"hopImbalanceToleranceIn","outputs":[{"internalType":"uint256","name":"","type":"uint256"}],"stateMutability":"view","type":"function"},{"inputs":[],"name":"hopImbalanceToleranceOut","outputs":[{"internalType":"uint256","name":"","type":"uint256"}],"stateMutability":"view","type":"function"},{"inputs":[],"name":"hopLp","outputs":[{"internalType":"contract IERC20","name":"","type":"address"}],"stateMutability":"view","type":"function"},{"inputs":[],"name":"imbalanceToleranceIn","outputs":[{"internalType":"uint256","name":"","type":"uint256"}],"stateMutability":"view","type":"function"},{"inputs":[],"name":"imbalanceToleranceOut","outputs":[{"internalType":"uint256","name":"","type":"uint256"}],"stateMutability":"view","type":"function"},{"inputs":[],"name":"isShutdown","outputs":[{"internalType":"bool","name":"","type":"bool"}],"stateMutability":"view","type":"function"},{"inputs":[],"name":"lp","outputs":[{"internalType":"contract IERC20","name":"","type":"address"}],"stateMutability":"view","type":"function"},{"inputs":[],"name":"name","outputs":[{"internalType":"string","name":"","type":"string"}],"stateMutability":"pure","type":"function"},{"inputs":[{"internalType":"address","name":"token_","type":"address"}],"name":"removeRewardToken","outputs":[{"internalType":"bool","name":"","type":"bool"}],"stateMutability":"nonpayable","type":"function"},{"inputs":[],"name":"rewardTokens","outputs":[{"internalType":"address[]","name":"","type":"address[]"}],"stateMutability":"view","type":"function"},{"inputs":[],"name":"rewards","outputs":[{"internalType":"contract IRewardStaking","name":"","type":"address"}],"stateMutability":"view","type":"function"},{"inputs":[],"name":"roleManager","outputs":[{"internalType":"contract IRoleManager","name":"","type":"address"}],"stateMutability":"view","type":"function"},{"inputs":[{"internalType":"address","name":"_communityReserve","type":"address"}],"name":"setCommunityReserve","outputs":[],"stateMutability":"nonpayable","type":"function"},{"inputs":[{"internalType":"uint256","name":"crvCommunityReserveShare_","type":"uint256"}],"name":"setCrvCommunityReserveShare","outputs":[],"stateMutability":"nonpayable","type":"function"},{"inputs":[{"internalType":"uint256","name":"cvxCommunityReserveShare_","type":"uint256"}],"name":"setCvxCommunityReserveShare","outputs":[],"stateMutability":"nonpayable","type":"function"},{"inputs":[{"internalType":"uint256","name":"_hopImbalanceToleranceIn","type":"uint256"}],"name":"setHopImbalanceToleranceIn","outputs":[],"stateMutability":"nonpayable","type":"function"},{"inputs":[{"internalType":"uint256","name":"_hopImbalanceToleranceOut","type":"uint256"}],"name":"setHopImbalanceToleranceOut","outputs":[],"stateMutability":"nonpayable","type":"function"},{"inputs":[{"internalType":"uint256","name":"imbalanceToleranceIn_","type":"uint256"}],"name":"setImbalanceToleranceIn","outputs":[],"stateMutability":"nonpayable","type":"function"},{"inputs":[{"internalType":"uint256","name":"imbalanceToleranceOut_","type":"uint256"}],"name":"setImbalanceToleranceOut","outputs":[],"stateMutability":"nonpayable","type":"function"},{"inputs":[{"internalType":"address","name":"strategist_","type":"address"}],"name":"setStrategist","outputs":[],"stateMutability":"nonpayable","type":"function"},{"inputs":[],"name":"shutdown","outputs":[],"stateMutability":"nonpayable","type":"function"},{"inputs":[],"name":"strategist","outputs":[{"internalType":"address","name":"","type":"address"}],"stateMutability":"view","type":"function"},{"inputs":[],"name":"underlying","outputs":[{"internalType":"contract IERC20","name":"","type":"address"}],"stateMutability":"view","type":"function"},{"inputs":[],"name":"vault","outputs":[{"internalType":"address","name":"","type":"address"}],"stateMutability":"view","type":"function"},{"inputs":[{"internalType":"uint256","name":"amount_","type":"uint256"}],"name":"withdraw","outputs":[{"internalType":"bool","name":"","type":"bool"}],"stateMutability":"nonpayable","type":"function"},{"inputs":[],"name":"withdrawAll","outputs":[{"internalType":"uint256","name":"","type":"uint256"}],"stateMutability":"nonpayable","type":"function"}],"bytecode":"6101406040523480156200001257600080fd5b5060405162004e4238038062004e42833981016040819052620000359162000b70565b8787878787856200005a816001600160a01b03166200064f60201b6200205d1760201c565b6001600160a01b03166080526200007183620006d2565b604051631526fe2760e01b8152600481018590526000908190819073f403c135812408bfbe8713b5a23a04b3d48aae3190631526fe279060240160c060405180830381865afa158015620000c9573d6000803e3d6000fd5b505050506040513d601f19601f82011682018060405250810190620000ef919062000c23565b95505094505050925080156040518060400160405280601081526020016f2837b7b61034b99039b43aba3237bbb760811b815250906200014d5760405162461bcd60e51b815260040162000144919062000ce5565b60405180910390fd5b50600a80546001600160a01b038581166001600160a01b03199283161790925560098054858416908316179055600b8054928916929091168217905560405163c661065760e01b8152600481018790526000919063c661065790602401602060405180830381865afa158015620001c8573d6000803e3d6000fd5b505050506040513d601f19601f82011682018060405250810190620001ee919062000d1a565b90506001600160a01b03811673eeeeeeeeeeeeeeeeeeeeeeeeeeeeeeeeeeeeeeee14156200021a575060005b600380546001600160a01b03199081166001600160a01b03848116919091179092558b821660c052600080549091168b8316178155600c8a9055600d88905590861660a0819052620002789062000755602090811b620020dd17901c565b9050620002a973d533a949740bb3306d119cc777fa900ba034cd528260001962000795602090811b6200211c17901c565b620002d8734e3fbd56cd56c3e72c1403e103b45db9da5b9d2b8260001962000795602090811b6200211c17901c565b6200030773c02aaa39b223fe8d0a0e5c4f27ead9083c756cc28260001962000795602090811b6200211c17901c565b50505050505050505050506200032383620006d260201b60201c565b604051631526fe2760e01b815260048101879052600090819073f403c135812408bfbe8713b5a23a04b3d48aae3190631526fe279060240160c060405180830381865afa15801562000379573d6000803e3d6000fd5b505050506040513d601f19601f820116820180604052508101906200039f919062000c23565b955050505050915080156040518060400160405280601081526020016f2837b7b61034b99039b43aba3237bbb760811b81525090620003f35760405162461bcd60e51b815260040162000144919062000ce5565b5060405163c661065760e01b8152600481018790526000906001600160a01b0389169063c661065790602401602060405180830381865afa1580156200043d573d6000803e3d6000fd5b505050506040513d601f19601f8201168201806040525081019062000463919062000d1a565b6001600160a01b0381811661010052871660e081905260405163c661065760e01b81526004810188905291925060009163c661065790602401602060405180830381865afa158015620004ba573d6000803e3d6000fd5b505050506040513d601f19601f82011682018060405250810190620004e0919062000d1a565b905080600360006101000a8154816001600160a01b0302191690836001600160a01b03160217905550806001600160a01b031663313ce5676040518163ffffffff1660e01b8152600401602060405180830381865afa15801562000548573d6000803e3d6000fd5b505050506040513d601f19601f820116820180604052508101906200056e919062000d3a565b6200057b90601262000d75565b6200058890600a62000e98565b60105561012086905266038d7ea4c68000600781905566aa87bee5380000600855600e556605543df729c000600f55620005db6001600160a01b0382168860001962000795602090811b6200211c17901c565b6200060289600019846001600160a01b03166200079560201b6200211c179092919060201c565b6200063d73f403c135812408bfbe8713b5a23a04b3d48aae31600019866001600160a01b03166200079560201b6200211c179092919060201c565b50505050505050505050505062000eff565b6040516321f8a72160e01b81526a3937b632a6b0b730b3b2b960a91b60048201526000906001600160a01b038316906321f8a721906024015b602060405180830381865afa158015620006a6573d6000803e3d6000fd5b505050506040513d601f19601f82011682018060405250810190620006cc919062000d1a565b92915050565b6040516355b30b1960e01b81526001600160a01b03821660048201527390e00ace148ca3b23ac1bc8c240c2a7dd9c2d7f5906355b30b1990602401602060405180830381865afa1580156200072b573d6000803e3d6000fd5b505050506040513d601f19601f8201168201806040525081019062000751919062000ea9565b5050565b6040516321f8a72160e01b81526c39bbb0b83832b92937baba32b960991b60048201526000906001600160a01b038316906321f8a7219060240162000688565b801580620008135750604051636eb1769f60e11b81523060048201526001600160a01b03838116602483015284169063dd62ed3e90604401602060405180830381865afa158015620007eb573d6000803e3d6000fd5b505050506040513d601f19601f8201168201806040525081019062000811919062000ea9565b155b620008875760405162461bcd60e51b815260206004820152603660248201527f5361666545524332303a20617070726f76652066726f6d206e6f6e2d7a65726f60448201527f20746f206e6f6e2d7a65726f20616c6c6f77616e636500000000000000000000606482015260840162000144565b604080516001600160a01b038416602482015260448082018490528251808303909101815260649091019091526020810180516001600160e01b0390811663095ea7b360e01b17909152620008df918591620008e416565b505050565b600062000940826040518060400160405280602081526020017f5361666545524332303a206c6f772d6c6576656c2063616c6c206661696c6564815250856001600160a01b0316620009c260201b62002269179092919060201c565b805190915015620008df578080602001905181019062000961919062000ec3565b620008df5760405162461bcd60e51b815260206004820152602a60248201527f5361666545524332303a204552433230206f7065726174696f6e20646964206e6044820152691bdd081cdd58d8d9595960b21b606482015260840162000144565b6060620009d38484600085620009dd565b90505b9392505050565b60608247101562000a405760405162461bcd60e51b815260206004820152602660248201527f416464726573733a20696e73756666696369656e742062616c616e636520666f6044820152651c8818d85b1b60d21b606482015260840162000144565b6001600160a01b0385163b62000a995760405162461bcd60e51b815260206004820152601d60248201527f416464726573733a2063616c6c20746f206e6f6e2d636f6e7472616374000000604482015260640162000144565b600080866001600160a01b0316858760405162000ab7919062000ee1565b60006040518083038185875af1925050503d806000811462000af6576040519150601f19603f3d011682016040523d82523d6000602084013e62000afb565b606091505b50909250905062000b0e82828662000b19565b979650505050505050565b6060831562000b2a575081620009d6565b82511562000b3b5782518084602001fd5b8160405162461bcd60e51b815260040162000144919062000ce5565b6001600160a01b038116811462000b6d57600080fd5b50565b600080600080600080600080610100898b03121562000b8e57600080fd5b885162000b9b8162000b57565b60208a015190985062000bae8162000b57565b60408a015160608b0151919850965062000bc88162000b57565b60808a015160a08b0151919650945062000be28162000b57565b60c08a015160e08b0151919450925062000bfc8162000b57565b809150509295985092959890939650565b8051801515811462000c1e57600080fd5b919050565b60008060008060008060c0878903121562000c3d57600080fd5b865162000c4a8162000b57565b602088015190965062000c5d8162000b57565b604088015190955062000c708162000b57565b606088015190945062000c838162000b57565b608088015190935062000c968162000b57565b915062000ca660a0880162000c0d565b90509295509295509295565b60005b8381101562000ccf57818101518382015260200162000cb5565b8381111562000cdf576000848401525b50505050565b602081526000825180602084015262000d0681604085016020870162000cb2565b601f01601f19169190910160400192915050565b60006020828403121562000d2d57600080fd5b8151620009d68162000b57565b60006020828403121562000d4d57600080fd5b815160ff81168114620009d657600080fd5b634e487b7160e01b600052601160045260246000fd5b600060ff821660ff84168082101562000d925762000d9262000d5f565b90039392505050565b600181815b8085111562000ddc57816000190482111562000dc05762000dc062000d5f565b8085161562000dce57918102915b93841c939080029062000da0565b509250929050565b60008262000df557506001620006cc565b8162000e0457506000620006cc565b816001811462000e1d576002811462000e285762000e48565b6001915050620006cc565b60ff84111562000e3c5762000e3c62000d5f565b50506001821b620006cc565b5060208310610133831016604e8410600b841016171562000e6d575081810a620006cc565b62000e79838362000d9b565b806000190482111562000e905762000e9062000d5f565b029392505050565b6000620009d660ff84168362000de4565b60006020828403121562000ebc57600080fd5b5051919050565b60006020828403121562000ed657600080fd5b620009d68262000c0d565b6000825162000ef581846020870162000cb2565b9190910192915050565b60805160a05160c05160e0516101005161012051613e1a620010286000396000818161050b015281816124a90152818161297c0152612e1b01526000818161045601528181611b8101528181611bb60152612a6f01526000818161038c015281816124f40152818161294c01528181612b4c01528181612c4f01528181612e5901528181613871015261397f01526000818161076101528181610a4501528181610d2e0152818161107f015281816115ef01528181611f88015281816122f0015281816125700152612a320152600061229e01526000818161026f015281816107cd01528181610bcf01528181610d7701528181610e940152818161111101528181611227015281816113990152818161196f01528181611c8a0152611da00152613e1a6000f3fe60806040526004361061025b5760003560e01c80637bdcdaff11610144578063c2bddf31116100b6578063e9eb50881161007a578063e9eb50881461070f578063ecf8db0a1461072f578063fbfa77cf1461074f578063fc0e74d114610783578063fdc0bfca14610798578063ff0af85b146107ae57600080fd5b8063c2bddf3114610692578063c7b9d530146106b2578063d0e30db0146106d2578063dbbd47d4146106da578063df22a747146106ef57600080fd5b80639ec5a894116101085780639ec5a894146105e4578063aa6a8caf14610604578063b69ef8a814610624578063b6ed67a814610639578063bf86d6901461064f578063c2b18aa01461067057600080fd5b80637bdcdaff1461056d578063853828b61461058357806386993bef14610598578063938511a7146105ae5780639b61a924146105ce57600080fd5b80633778851e116101dd57806356be5f71116101a157806356be5f71146104af57806361240eea146104c5578063621e8fe1146104d957806369cbb00d146104f95780636f307dc31461052d57806370aa17261461054d57600080fd5b80633778851e146104045780633d509c971461042457806344d32ee9146104445780634641257d1461047857806349cabcdf1461048d57600080fd5b8063218751b211610224578063218751b21461035a578063283f3b561461037a5780632e1a7d4d146103ae5780633082538f146103ce578063313c06a0146103e457600080fd5b8062435da51461026057806306fdde03146102ac5780631a55820d146102e85780631c03e6cc1461030c5780631fe4a6861461033c575b600080fd5b34801561026c57600080fd5b507f00000000000000000000000000000000000000000000000000000000000000005b6040516001600160a01b0390911681526020015b60405180910390f35b3480156102b857600080fd5b50604080518082018252600d81526c09acae4dea8e4d290dee086ecf609b1b602082015290516102a39190613a71565b3480156102f457600080fd5b506102fe60085481565b6040519081526020016102a3565b34801561031857600080fd5b5061032c610327366004613abc565b6107c9565b60405190151581526020016102a3565b34801561034857600080fd5b506000546001600160a01b031661028f565b34801561036657600080fd5b50600b5461028f906001600160a01b031681565b34801561038657600080fd5b5061028f7f000000000000000000000000000000000000000000000000000000000000000081565b3480156103ba57600080fd5b5061032c6103c9366004613ad9565b610a15565b3480156103da57600080fd5b506102fe60105481565b3480156103f057600080fd5b50600a5461028f906001600160a01b031681565b34801561041057600080fd5b506102fe61041f366004613ad9565b610ad6565b34801561043057600080fd5b5061032c61043f366004613abc565b610bcb565b34801561045057600080fd5b5061028f7f000000000000000000000000000000000000000000000000000000000000000081565b34801561048457600080fd5b506102fe610cfe565b34801561049957600080fd5b506104ad6104a8366004613ad9565b610d75565b005b3480156104bb57600080fd5b506102fe60075481565b3480156104d157600080fd5b50600061032c565b3480156104e557600080fd5b5060045461028f906001600160a01b031681565b34801561050557600080fd5b506102fe7f000000000000000000000000000000000000000000000000000000000000000081565b34801561053957600080fd5b5060035461028f906001600160a01b031681565b34801561055957600080fd5b506104ad610568366004613ad9565b610e92565b34801561057957600080fd5b506102fe600d5481565b34801561058f57600080fd5b506102fe61104f565b3480156105a457600080fd5b506102fe600c5481565b3480156105ba57600080fd5b506104ad6105c9366004613ad9565b61110f565b3480156105da57600080fd5b506102fe60065481565b3480156105f057600080fd5b5060095461028f906001600160a01b031681565b34801561061057600080fd5b506104ad61061f366004613ad9565b611225565b34801561063057600080fd5b506102fe61133b565b34801561064557600080fd5b506102fe600e5481565b34801561065b57600080fd5b5060035461032c90600160a01b900460ff1681565b34801561067c57600080fd5b5061068561138b565b6040516102a39190613af2565b34801561069e57600080fd5b506104ad6106ad366004613abc565b611397565b3480156106be57600080fd5b506104ad6106cd366004613abc565b611522565b61032c6115bf565b3480156106e657600080fd5b506102fe6116c4565b3480156106fb57600080fd5b506104ad61070a366004613b3f565b61196d565b34801561071b57600080fd5b506104ad61072a366004613ad9565b611c88565b34801561073b57600080fd5b506104ad61074a366004613ad9565b611d9e565b34801561075b57600080fd5b5061028f7f000000000000000000000000000000000000000000000000000000000000000081565b34801561078f57600080fd5b506104ad611f5b565b3480156107a457600080fd5b506102fe600f5481565b3480156107ba57600080fd5b506102fe60055481565b905090565b60007f0000000000000000000000000000000000000000000000000000000000000000604051632474521560e21b815269676f7665726e616e636560b01b60048201523360248201526001600160a01b0391909116906391d1485490604401602060405180830381865afa158015610845573d6000803e3d6000fd5b505050506040513d601f19601f820116820180604052508101906108699190613b87565b604051806040016040528060138152602001600080516020613dc5833981519152815250906108b45760405162461bcd60e51b81526004016108ab9190613a71565b60405180910390fd5b506001600160a01b038216734e3fbd56cd56c3e72c1403e103b45db9da5b9d2b148015906108f057506003546001600160a01b03838116911614155b801561091957506001600160a01b03821673d533a949740bb3306d119cc777fa900ba034cd5214155b60405180604001604052806014815260200173125b9d985b1a59081d1bdad95b881d1bc818591960621b815250906109645760405162461bcd60e51b81526004016108ab9190613a71565b506001600160a01b0382166000908152600260205260409020541561098b57506000919050565b610996600183612282565b5060006109a1612297565b90506109b86001600160a01b03841682600061211c565b6109ce6001600160a01b0384168260001961211c565b6040516001600160a01b03841681527f851bbb4304bf0768ed98b97e429b5bd1dcc1f194b36cd1650f40293e951ae3939060200160405180910390a160019150505b919050565b6040805180820190915260138152600080516020613dc58339815191526020820152600090336001600160a01b037f00000000000000000000000000000000000000000000000000000000000000001614610a835760405162461bcd60e51b81526004016108ab9190613a71565b5081610a9157506000919050565b610a9a826122cb565b6040518281527f5b6b431d4476a211bb7d41c20d1aab9ae2321deee0d20be3d9fc9b1093fa6e3d906020015b60405180910390a1506001919050565b600080734e3fbd56cd56c3e72c1403e103b45db9da5b9d2b6001600160a01b03166318160ddd6040518163ffffffff1660e01b8152600401602060405180830381865afa158015610b2b573d6000803e3d6000fd5b505050506040513d601f19601f82011682018060405250810190610b4f9190613ba2565b90506000610b678269152d02c7e14af68000006125a0565b90506103e88110610b7c575060009392505050565b6103e881810390600090610b908388613bd1565b610b9a9190613c06565b90506000610bb3856a52b7d2dcc80cd2e4000000613c28565b905080821115610bc1578091505b5095945050505050565b60007f0000000000000000000000000000000000000000000000000000000000000000604051632474521560e21b815269676f7665726e616e636560b01b60048201523360248201526001600160a01b0391909116906391d1485490604401602060405180830381865afa158015610c47573d6000803e3d6000fd5b505050506040513d601f19601f82011682018060405250810190610c6b9190613b87565b604051806040016040528060138152602001600080516020613dc583398151915281525090610cad5760405162461bcd60e51b81526004016108ab9190613a71565b50610cb96001836125b9565b610cc557506000919050565b6040516001600160a01b03831681527f36bd04094fa067bb9471a8fbdb0a6e8a43424a2566ad3a740c88973fa40a311890602001610ac6565b6040805180820190915260138152600080516020613dc58339815191526020820152600090336001600160a01b037f00000000000000000000000000000000000000000000000000000000000000001614610d6c5760405162461bcd60e51b81526004016108ab9190613a71565b506107c46125ce565b7f0000000000000000000000000000000000000000000000000000000000000000604051632474521560e21b815269676f7665726e616e636560b01b60048201523360248201526001600160a01b0391909116906391d1485490604401602060405180830381865afa158015610def573d6000803e3d6000fd5b505050506040513d601f19601f82011682018060405250810190610e139190613b87565b604051806040016040528060138152602001600080516020613dc583398151915281525090610e555760405162461bcd60e51b81526004016108ab9190613a71565b5060078190556040518181527f4ede3e4e9f7997fda6ff4a12d6c43d5c9e1e2055065cbc15f902f504f72dc8c0906020015b60405180910390a150565b7f0000000000000000000000000000000000000000000000000000000000000000604051632474521560e21b815269676f7665726e616e636560b01b60048201523360248201526001600160a01b0391909116906391d1485490604401602060405180830381865afa158015610f0c573d6000803e3d6000fd5b505050506040513d601f19601f82011682018060405250810190610f309190613b87565b604051806040016040528060138152602001600080516020613dc583398151915281525090610f725760405162461bcd60e51b81526004016108ab9190613a71565b5060408051808201909152600e81526d1a5b9d985b1a5908185b5bdd5b9d60921b6020820152670de0b6b3a7640000821115610fc15760405162461bcd60e51b81526004016108ab9190613a71565b506004546001600160a01b031661101a5760405162461bcd60e51b815260206004820152601d60248201527f436f6d6d756e6974792072657365727665206d7573742062652073657400000060448201526064016108ab565b60058190556040518181527f1a8542dffa4956932e66916113e6a123e123956172fbc0e2e59df92b8a87d8e690602001610e87565b6040805180820190915260138152600080516020613dc58339815191526020820152600090336001600160a01b037f000000000000000000000000000000000000000000000000000000000000000016146110bd5760405162461bcd60e51b81526004016108ab9190613a71565b5060006110c861292e565b9050806110d757600091505090565b6040518181527f3d5a341dc6a12221fcf31279cef3771f8fad757b2d9261f97605ccc17c2574249060200160405180910390a1919050565b7f0000000000000000000000000000000000000000000000000000000000000000604051632474521560e21b815269676f7665726e616e636560b01b60048201523360248201526001600160a01b0391909116906391d1485490604401602060405180830381865afa158015611189573d6000803e3d6000fd5b505050506040513d601f19601f820116820180604052508101906111ad9190613b87565b604051806040016040528060138152602001600080516020613dc5833981519152815250906111ef5760405162461bcd60e51b81526004016108ab9190613a71565b50600e8190556040518181527fe6b4374e594cac6d717f89735f722a01c53affe6a4603ed44e09004666b7a6f390602001610e87565b7f0000000000000000000000000000000000000000000000000000000000000000604051632474521560e21b815269676f7665726e616e636560b01b60048201523360248201526001600160a01b0391909116906391d1485490604401602060405180830381865afa15801561129f573d6000803e3d6000fd5b505050506040513d601f19601f820116820180604052508101906112c39190613b87565b604051806040016040528060138152602001600080516020613dc5833981519152815250906113055760405162461bcd60e51b81526004016108ab9190613a71565b50600f8190556040518181527f8b8ad8032596ef90599a67881aed48dba49c88dd982cd479440bfcee796dcf8b90602001610e87565b6000611379611348612a57565b61136a611353612ae3565b61135b612b14565b6113659190613c3f565b612b45565b6113749190613c3f565b612c48565b611381612cdc565b6107c49190613c3f565b60606107c46001612d0d565b7f0000000000000000000000000000000000000000000000000000000000000000604051632474521560e21b815269676f7665726e616e636560b01b60048201523360248201526001600160a01b0391909116906391d1485490604401602060405180830381865afa158015611411573d6000803e3d6000fd5b505050506040513d601f19601f820116820180604052508101906114359190613b87565b604051806040016040528060138152602001600080516020613dc5833981519152815250906114775760405162461bcd60e51b81526004016108ab9190613a71565b5060408051808201909152601881527f7a65726f2061646472657373206e6f7420616c6c6f776564000000000000000060208201526001600160a01b0382166114d35760405162461bcd60e51b81526004016108ab9190613a71565b50600480546001600160a01b0319166001600160a01b0383169081179091556040519081527f17d7ba6682f162782054b119192f8e5b98fe7090b4bec7a55fc7075d9cd859ee90602001610e87565b6000546040805180820190915260138152600080516020613dc58339815191526020820152906001600160a01b031633146115705760405162461bcd60e51b81526004016108ab9190613a71565b50600080546001600160a01b0319166001600160a01b0383169081179091556040519081527f46d58e3fa07bf19b1d27240f0e286b27e9f7c1b0d88933333fe833b60eec541290602001610e87565b6040805180820190915260138152600080516020613dc58339815191526020820152600090336001600160a01b037f0000000000000000000000000000000000000000000000000000000000000000161461162d5760405162461bcd60e51b81526004016108ab9190613a71565b5060035460408051808201909152601481527329ba3930ba32b3bc9034b99039b43aba3237bbb760611b602082015290600160a01b900460ff16156116855760405162461bcd60e51b81526004016108ab9190613a71565b5061168e612db2565b6116985750600090565b6040517fed21248cb703b524cc0029bb8669df941baca560163a3bc6ad184e7e9c26807090600090a190565b6009546040516246613160e11b81523060048201526000916001600160a01b03169082908290628cc26290602401602060405180830381865afa15801561170f573d6000803e3d6000fd5b505050506040513d601f19601f820116820180604052508101906117339190613ba2565b9050806117435760009250505090565b600061178a734e3fbd56cd56c3e72c1403e103b45db9da5b9d2b611785600654670de0b6b3a76400006117769190613c28565b61177f86610ad6565b90613025565b613044565b6117c273d533a949740bb3306d119cc777fa900ba034cd52611785600554670de0b6b3a76400006117bb9190613c28565b8690613025565b6117cc9190613c3f565b905060006117da60016130ca565b905060005b8181101561196357604051632061aa2360e11b8152600481018290526000906001600160a01b038716906340c3544690602401602060405180830381865afa15801561182f573d6000803e3d6000fd5b505050506040513d601f19601f820116820180604052508101906118539190613c57565b90506000816001600160a01b031663f7c618c16040518163ffffffff1660e01b8152600401602060405180830381865afa158015611895573d6000803e3d6000fd5b505050506040513d601f19601f820116820180604052508101906118b99190613c57565b6001600160a01b0381166000908152600260205260409020549091506118e057505061195b565b6040516246613160e11b815230600482015261194c9082906001600160a01b03851690628cc26290602401602060405180830381865afa158015611928573d6000803e3d6000fd5b505050506040513d601f19601f820116820180604052508101906117859190613ba2565b6119569086613c3f565b945050505b6001016117df565b5090949350505050565b7f0000000000000000000000000000000000000000000000000000000000000000604051632474521560e21b815269676f7665726e616e636560b01b60048201523360248201526001600160a01b0391909116906391d1485490604401602060405180830381865afa1580156119e7573d6000803e3d6000fd5b505050506040513d601f19601f82011682018060405250810190611a0b9190613b87565b604051806040016040528060138152602001600080516020613dc583398151915281525090611a4d5760405162461bcd60e51b81526004016108ab9190613a71565b50611a57826130d4565b611a5f6125ce565b50611a68613154565b600c839055600d819055604051631526fe2760e01b8152600481018490526000908190819073f403c135812408bfbe8713b5a23a04b3d48aae3190631526fe279060240160c060405180830381865afa158015611ac9573d6000803e3d6000fd5b505050506040513d601f19601f82011682018060405250810190611aed9190613c74565b95505094505050925080156040518060400160405280601081526020016f2837b7b61034b99039b43aba3237bbb760811b81525090611b3f5760405162461bcd60e51b81526004016108ab9190613a71565b50600a80546001600160a01b038086166001600160a01b03199283161790925560098054858416908316179055600b80548884169216919091179055611ba9907f00000000000000000000000000000000000000000000000000000000000000001686600061211c565b611bdf6001600160a01b037f0000000000000000000000000000000000000000000000000000000000000000168660001961211c565b611c086001600160a01b03841673f403c135812408bfbe8713b5a23a04b3d48aae31600061211c565b611c326001600160a01b03841673f403c135812408bfbe8713b5a23a04b3d48aae3160001961211c565b611c3a612db2565b6040518060400160405280600e81526020016d19195c1bdcda5d0819985a5b195960921b81525090611c7f5760405162461bcd60e51b81526004016108ab9190613a71565b50505050505050565b7f0000000000000000000000000000000000000000000000000000000000000000604051632474521560e21b815269676f7665726e616e636560b01b60048201523360248201526001600160a01b0391909116906391d1485490604401602060405180830381865afa158015611d02573d6000803e3d6000fd5b505050506040513d601f19601f82011682018060405250810190611d269190613b87565b604051806040016040528060138152602001600080516020613dc583398151915281525090611d685760405162461bcd60e51b81526004016108ab9190613a71565b5060088190556040518181527fb2861fed34a4613f8f25f46553a23408a3364ee9ddc4ef6714f0a81d856e41a790602001610e87565b7f0000000000000000000000000000000000000000000000000000000000000000604051632474521560e21b815269676f7665726e616e636560b01b60048201523360248201526001600160a01b0391909116906391d1485490604401602060405180830381865afa158015611e18573d6000803e3d6000fd5b505050506040513d601f19601f82011682018060405250810190611e3c9190613b87565b604051806040016040528060138152602001600080516020613dc583398151915281525090611e7e5760405162461bcd60e51b81526004016108ab9190613a71565b5060408051808201909152600e81526d1a5b9d985b1a5908185b5bdd5b9d60921b6020820152670de0b6b3a7640000821115611ecd5760405162461bcd60e51b81526004016108ab9190613a71565b506004546001600160a01b0316611f265760405162461bcd60e51b815260206004820152601d60248201527f436f6d6d756e6974792072657365727665206d7573742062652073657400000060448201526064016108ab565b60068190556040518181527f2c3c7d70a1dfbfaf74447753b8a73e1323aa10b32b9209742db563671e14b13c90602001610e87565b6040805180820190915260138152600080516020613dc58339815191526020820152336001600160a01b037f00000000000000000000000000000000000000000000000000000000000000001614611fc65760405162461bcd60e51b81526004016108ab9190613a71565b5060035460408051808201909152601481527329ba3930ba32b3bc9034b99039b43aba3237bbb760611b602082015290600160a01b900460ff161561201e5760405162461bcd60e51b81526004016108ab9190613a71565b506003805460ff60a01b1916600160a01b1790556040517f4426aa1fb73e391071491fcfe21a88b5c38a0a0333a1f6e77161470439704cf890600090a1565b6040516321f8a72160e01b81526a3937b632a6b0b730b3b2b960a91b60048201526000906001600160a01b038316906321f8a721906024015b602060405180830381865afa1580156120b3573d6000803e3d6000fd5b505050506040513d601f19601f820116820180604052508101906120d79190613c57565b92915050565b6040516321f8a72160e01b81526c39bbb0b83832b92937baba32b960991b60048201526000906001600160a01b038316906321f8a72190602401612096565b8015806121965750604051636eb1769f60e11b81523060048201526001600160a01b03838116602483015284169063dd62ed3e90604401602060405180830381865afa158015612170573d6000803e3d6000fd5b505050506040513d601f19601f820116820180604052508101906121949190613ba2565b155b6122015760405162461bcd60e51b815260206004820152603660248201527f5361666545524332303a20617070726f76652066726f6d206e6f6e2d7a65726f60448201527520746f206e6f6e2d7a65726f20616c6c6f77616e636560501b60648201526084016108ab565b6040516001600160a01b03831660248201526044810182905261226490849063095ea7b360e01b906064015b60408051601f198184030181529190526020810180516001600160e01b03166001600160e01b031990931692909217909152613278565b505050565b6060612278848460008561334a565b90505b9392505050565b600061227b836001600160a01b03841661347b565b60006107c47f00000000000000000000000000000000000000000000000000000000000000006001600160a01b03166120dd565b60006122d5612cdc565b905081811061234c57600354612315906001600160a01b03167f0000000000000000000000000000000000000000000000000000000000000000846134ca565b6040518281527f5b6b431d4476a211bb7d41c20d1aab9ae2321deee0d20be3d9fc9b1093fa6e3d9060200160405180910390a15050565b808203600061235a826134fa565b90506000612366612a57565b6123709083613c28565b9050600061237d8261351e565b90506000612389612ae3565b6123939083613c28565b600954604051636197390160e11b815260048101839052600060248201529192506001600160a01b03169063c32e7202906044016020604051808303816000875af11580156123e6573d6000803e3d6000fd5b505050506040513d601f19601f8201168201806040525081019061240a9190613b87565b6124175750505050505050565b61241f613a05565b8381600d546002811061243457612434613cf6565b6020020152600b5460405163e310327360e01b81526001600160a01b039091169063e31032739061246b9084908790600401613d0c565b600060405180830381600087803b15801561248557600080fd5b505af1158015612499573d6000803e3d6000fd5b505050506124a5613a23565b86817f0000000000000000000000000000000000000000000000000000000000000000600381106124d8576124d8613cf6565b60200201526040516327f6ba8360e21b81526001600160a01b037f00000000000000000000000000000000000000000000000000000000000000001690639fdaea0c9061252b9084908a90600401613d44565b600060405180830381600087803b15801561254557600080fd5b505af1158015612559573d6000803e3d6000fd5b505060035461259592506001600160a01b031690507f00000000000000000000000000000000000000000000000000000000000000008b6134ca565b505050505050505050565b60008183816125b1576125b1613bf0565b049392505050565b600061227b836001600160a01b038416613542565b6000806125d9612cdc565b9050600960009054906101000a90046001600160a01b03166001600160a01b0316633d18b9126040518163ffffffff1660e01b8152600401600060405180830381600087803b15801561262b57600080fd5b505af115801561263f573d6000803e3d6000fd5b5050505061264b613635565b6000612655612297565b604051633ff37e8f60e01b8152734e3fbd56cd56c3e72c1403e103b45db9da5b9d2b600482015273c02aaa39b223fe8d0a0e5c4f27ead9083c756cc260248201529091506001600160a01b03821690633ff37e8f906044016020604051808303816000875af11580156126cc573d6000803e3d6000fd5b505050506040513d601f19601f820116820180604052508101906126f09190613ba2565b50604051633ff37e8f60e01b815273d533a949740bb3306d119cc777fa900ba034cd52600482015273c02aaa39b223fe8d0a0e5c4f27ead9083c756cc260248201526001600160a01b03821690633ff37e8f906044016020604051808303816000875af1158015612765573d6000803e3d6000fd5b505050506040513d601f19601f820116820180604052508101906127899190613ba2565b50600061279660016130ca565b905060005b8181101561284a576001600160a01b038316633ff37e8f6127bd600184613792565b6040516001600160e01b031960e084901b1681526001600160a01b03909116600482015273c02aaa39b223fe8d0a0e5c4f27ead9083c756cc260248201526044016020604051808303816000875af115801561281d573d6000803e3d6000fd5b505050506040513d601f19601f820116820180604052508101906128419190613ba2565b5060010161279b565b50600354604051633ff37e8f60e01b815273c02aaa39b223fe8d0a0e5c4f27ead9083c756cc260048201526001600160a01b03918216602482015290831690633ff37e8f906044016020604051808303816000875af11580156128b1573d6000803e3d6000fd5b505050506040513d601f19601f820116820180604052508101906128d59190613ba2565b506000836128e1612cdc565b6128eb9190613c28565b90507f80f97f878e16410266694f134ddf012f2be424f54f8b5cafa107eccc51d00d588160405161291e91815260200190565b60405180910390a1949350505050565b6000612938613154565b6000612942612a57565b90508015612a06577f00000000000000000000000000000000000000000000000000000000000000006001600160a01b0316631a4d01d2827f00000000000000000000000000000000000000000000000000000000000000006129a48561379e565b6040516001600160e01b031960e086901b1681526004810193909352600f9190910b60248301526044820152606401600060405180830381600087803b1580156129ed57600080fd5b505af1158015612a01573d6000803e3d6000fd5b505050505b6000612a10612cdc565b905080612a205760009250505090565b6003546120d7906001600160a01b03167f0000000000000000000000000000000000000000000000000000000000000000836134ca565b6040516370a0823160e01b81523060048201526000907f00000000000000000000000000000000000000000000000000000000000000006001600160a01b0316906370a08231906024015b602060405180830381865afa158015612abf573d6000803e3d6000fd5b505050506040513d601f19601f820116820180604052508101906107c49190613ba2565b600a546040516370a0823160e01b81523060048201526000916001600160a01b0316906370a0823190602401612aa2565b6009546040516370a0823160e01b81523060048201526000916001600160a01b0316906370a0823190602401612aa2565b60006120d77f00000000000000000000000000000000000000000000000000000000000000006001600160a01b031663bb7b8b806040518163ffffffff1660e01b8152600401602060405180830381865afa158015612ba8573d6000803e3d6000fd5b505050506040513d601f19601f82011682018060405250810190612bcc9190613ba2565b600b5460408051630176f71760e71b81529051612c42926001600160a01b03169163bb7b8b809160048083019260209291908290030181865afa158015612c17573d6000803e3d6000fd5b505050506040513d601f19601f82011682018060405250810190612c3b9190613ba2565b8590613025565b906137c2565b60006120d77f00000000000000000000000000000000000000000000000000000000000000006001600160a01b031663bb7b8b806040518163ffffffff1660e01b8152600401602060405180830381865afa158015612cab573d6000803e3d6000fd5b505050506040513d601f19601f82011682018060405250810190612ccf9190613ba2565b60105461177f9085613c06565b6003546040516370a0823160e01b81523060048201526000916001600160a01b0316906370a0823190602401612aa2565b60606000612d1a836130ca565b905060008167ffffffffffffffff811115612d3757612d37613d7c565b604051908082528060200260200182016040528015612d60578160200160208202803683370190505b50905060005b82811015612daa57612d788582613792565b828281518110612d8a57612d8a613cf6565b6001600160a01b0390921660209283029190910190910152600101612d66565b509392505050565b604080518082019091526011815270696e76616c6964206d73672e76616c756560781b60208201526000903415612dfc5760405162461bcd60e51b81526004016108ab9190613a71565b506000612e07612cdc565b90508015612ed957612e17613a23565b81817f000000000000000000000000000000000000000000000000000000000000000060038110612e4a57612e4a613cf6565b60200201526001600160a01b037f000000000000000000000000000000000000000000000000000000000000000016634515cef382612e88856137d7565b6040518363ffffffff1660e01b8152600401612ea5929190613d44565b600060405180830381600087803b158015612ebf57600080fd5b505af1158015612ed3573d6000803e3d6000fd5b50505050505b6000612ee3612a57565b90508015612f7957612ef3613a05565b8181600d5460028110612f0857612f08613cf6565b6020020152600b546001600160a01b0316630b4c7e4d82612f28856137f2565b6040518363ffffffff1660e01b8152600401612f45929190613d0c565b600060405180830381600087803b158015612f5f57600080fd5b505af1158015612f73573d6000803e3d6000fd5b50505050505b612f81612ae3565b612f8e5760009250505090565b600c5460405163303acfe760e11b815260048101919091526001602482015273f403c135812408bfbe8713b5a23a04b3d48aae31906360759fce906044016020604051808303816000875af1158015612feb573d6000803e3d6000fd5b505050506040513d601f19601f8201168201806040525081019061300f9190613b87565b61301c5760009250505090565b60019250505090565b6000670de0b6b3a764000061303a8385613bd1565b61227b9190613c06565b600061304e612297565b600354604051632550332960e11b81526001600160a01b038681166004830152918216602482015260448101859052911690634aa0665290606401602060405180830381865afa1580156130a6573d6000803e3d6000fd5b505050506040513d601f19601f8201168201806040525081019061227b9190613ba2565b60006120d7825490565b6040516355b30b1960e01b81526001600160a01b03821660048201527390e00ace148ca3b23ac1bc8c240c2a7dd9c2d7f5906355b30b1990602401602060405180830381865afa15801561312c573d6000803e3d6000fd5b505050506040513d601f19601f820116820180604052508101906131509190613ba2565b5050565b600061315e612b14565b905080156131de57600954604051636197390160e11b815260048101839052600060248201526001600160a01b039091169063c32e7202906044016020604051808303816000875af11580156131b8573d6000803e3d6000fd5b505050506040513d601f19601f820116820180604052508101906131dc9190613b87565b505b60006131e8612ae3565b9050801561315057600b54600d546001600160a01b0390911690631a4d01d29083906132138261380d565b6040516001600160e01b031960e086901b1681526004810193909352600f9190910b60248301526044820152606401600060405180830381600087803b15801561325c57600080fd5b505af1158015613270573d6000803e3d6000fd5b505050505050565b60006132cd826040518060400160405280602081526020017f5361666545524332303a206c6f772d6c6576656c2063616c6c206661696c6564815250856001600160a01b03166122699092919063ffffffff16565b80519091501561226457808060200190518101906132eb9190613b87565b6122645760405162461bcd60e51b815260206004820152602a60248201527f5361666545524332303a204552433230206f7065726174696f6e20646964206e6044820152691bdd081cdd58d8d9595960b21b60648201526084016108ab565b6060824710156133ab5760405162461bcd60e51b815260206004820152602660248201527f416464726573733a20696e73756666696369656e742062616c616e636520666f6044820152651c8818d85b1b60d21b60648201526084016108ab565b6001600160a01b0385163b6134025760405162461bcd60e51b815260206004820152601d60248201527f416464726573733a2063616c6c20746f206e6f6e2d636f6e747261637400000060448201526064016108ab565b600080866001600160a01b0316858760405161341e9190613d92565b60006040518083038185875af1925050503d806000811461345b576040519150601f19603f3d011682016040523d82523d6000602084013e613460565b606091505b5091509150613470828286613831565b979650505050505050565b60008181526001830160205260408120546134c2575081546001818101845560008481526020808220909301849055845484825282860190935260409020919091556120d7565b5060006120d7565b6040516001600160a01b03831660248201526044810182905261226490849063a9059cbb60e01b9060640161222d565b60006120d7600f54670de0b6b3a76400006135159190613c3f565b61177f8461386a565b60006120d7600854670de0b6b3a76400006135399190613c3f565b61177f846138fe565b6000818152600183016020526040812054801561362b576000613566600183613c28565b855490915060009061357a90600190613c28565b90508181146135df57600086600001828154811061359a5761359a613cf6565b90600052602060002001549050808760000184815481106135bd576135bd613cf6565b6000918252602080832090910192909255918252600188019052604090208390555b85548690806135f0576135f0613dae565b6001900381819060005260206000200160009055905585600101600086815260200190815260200160002060009055600193505050506120d7565b60009150506120d7565b6004546001600160a01b0316806136495750565b60065480156136f4576040516370a0823160e01b8152306004820152734e3fbd56cd56c3e72c1403e103b45db9da5b9d2b9060009082906370a0823190602401602060405180830381865afa1580156136a6573d6000803e3d6000fd5b505050506040513d601f19601f820116820180604052508101906136ca9190613ba2565b905080156136f1576136f1846136e08386613025565b6001600160a01b03851691906134ca565b50505b6005548015612264576040516370a0823160e01b815230600482015273d533a949740bb3306d119cc777fa900ba034cd529060009082906370a0823190602401602060405180830381865afa158015613751573d6000803e3d6000fd5b505050506040513d601f19601f820116820180604052508101906137759190613ba2565b9050801561378b5761378b856136e08386613025565b5050505050565b600061227b83836139db565b60006120d7600f54670de0b6b3a76400006137b99190613c28565b61177f84612c48565b60008161303a670de0b6b3a764000085613bd1565b60006120d7600e54670de0b6b3a76400006135159190613c28565b60006120d7600754670de0b6b3a76400006135399190613c28565b60006120d7600854670de0b6b3a76400006138289190613c28565b61177f84612b45565b6060831561384057508161227b565b8251156138505782518084602001fd5b8160405162461bcd60e51b81526004016108ab9190613a71565b60006120d77f00000000000000000000000000000000000000000000000000000000000000006001600160a01b031663bb7b8b806040518163ffffffff1660e01b8152600401602060405180830381865afa1580156138cd573d6000803e3d6000fd5b505050506040513d601f19601f820116820180604052508101906138f19190613ba2565b601054612c429085613bd1565b60006120d7600b60009054906101000a90046001600160a01b03166001600160a01b031663bb7b8b806040518163ffffffff1660e01b8152600401602060405180830381865afa158015613956573d6000803e3d6000fd5b505050506040513d601f19601f8201168201806040525081019061397a9190613ba2565b612c427f00000000000000000000000000000000000000000000000000000000000000006001600160a01b031663bb7b8b806040518163ffffffff1660e01b8152600401602060405180830381865afa158015612c17573d6000803e3d6000fd5b60008260000182815481106139f2576139f2613cf6565b9060005260206000200154905092915050565b60405180604001604052806002906020820280368337509192915050565b60405180606001604052806003906020820280368337509192915050565b60005b83811015613a5c578181015183820152602001613a44565b83811115613a6b576000848401525b50505050565b6020815260008251806020840152613a90816040850160208701613a41565b601f01601f19169190910160400192915050565b6001600160a01b0381168114613ab957600080fd5b50565b600060208284031215613ace57600080fd5b813561227b81613aa4565b600060208284031215613aeb57600080fd5b5035919050565b6020808252825182820181905260009190848201906040850190845b81811015613b335783516001600160a01b031683529284019291840191600101613b0e565b50909695505050505050565b600080600060608486031215613b5457600080fd5b833592506020840135613b6681613aa4565b929592945050506040919091013590565b80518015158114610a1057600080fd5b600060208284031215613b9957600080fd5b61227b82613b77565b600060208284031215613bb457600080fd5b5051919050565b634e487b7160e01b600052601160045260246000fd5b6000816000190483118215151615613beb57613beb613bbb565b500290565b634e487b7160e01b600052601260045260246000fd5b600082613c2357634e487b7160e01b600052601260045260246000fd5b500490565b600082821015613c3a57613c3a613bbb565b500390565b60008219821115613c5257613c52613bbb565b500190565b600060208284031215613c6957600080fd5b815161227b81613aa4565b60008060008060008060c08789031215613c8d57600080fd5b8651613c9881613aa4565b6020880151909650613ca981613aa4565b6040880151909550613cba81613aa4565b6060880151909450613ccb81613aa4565b6080880151909350613cdc81613aa4565b9150613cea60a08801613b77565b90509295509295509295565b634e487b7160e01b600052603260045260246000fd5b60608101818460005b6002811015613d34578151835260209283019290910190600101613d15565b5050508260408301529392505050565b60808101818460005b6003811015613d6c578151835260209283019290910190600101613d4d565b5050508260608301529392505050565b634e487b7160e01b600052604160045260246000fd5b60008251613da4818460208701613a41565b9190910192915050565b634e487b7160e01b600052603160045260246000fdfe756e617574686f72697a65642061636365737300000000000000000000000000a2646970667358221220bb517ece7b44df8df7518e0672eff8afb20b6b90638a7706435dc05887a68cb164736f6c634300080a0033","bytecodeSha1":"05c39b98a0c39297c84e6c1affdfb1f359b29525","compiler":{"evm_version":"london","optimizer":{"enabled":true,"runs":200},"version":"0.8.10+commit.fc410830"},"contractName":"MeroTriHopCvx","language":"Solidity","natspec":{"kind":"dev","methods":{"addRewardToken(address)":{"details":"These are tokens that are not the main assets of the strategy. For instance, temporary incentives.","notice":"Add a reward token to list of extra reward tokens.","params":{"token_":"Address of token to add to reward token list."},"returns":{"_0":"True if successfully added."}},"balance()":{"notice":"Get the total underlying balance of the strategy.","returns":{"_0":"Underlying balance of strategy."}},"changeConvexPool(uint256,address,uint256)":{"details":"First withdraws all funds, then harvests any rewards, then changes pool, then deposits again.","notice":"Changes the Convex Pool used for farming yield, e.g. from FRAX to MIM.","params":{"convexPid_":"The PID for the new Convex Pool.","curveIndex_":"The index of the new Convex Pool Token in the new Curve Pool.","curvePool_":"The Curve Pool to deposit into to get the required LP Token for Convex staking."}},"deposit()":{"notice":"Deposit all available underlying into Convex pool.","returns":{"_0":"True if successful deposit."}},"harvest()":{"details":"Any underlying harvested is not redeposited by this method.","notice":"Harvests reward tokens and sells these for the underlying.","returns":{"_0":"Amount of underlying harvested."}},"harvestable()":{"details":"Includes rewards for CRV, CVX & Extra Rewards.","notice":"Amount of rewards that can be harvested in the underlying.","returns":{"_0":"Estimated amount of underlying available to harvest."}},"hasPendingFunds()":{"details":"Contract does not stash tokens."},"name()":{"notice":"Returns the name of the strategy.","returns":{"_0":"The name of the strategy."}},"removeRewardToken(address)":{"notice":"Remove a reward token.","params":{"token_":"Address of token to remove from reward token list."},"returns":{"_0":"True if successfully removed."}},"rewardTokens()":{"notice":"Returns the list of reward tokens supported by the strategy.","returns":{"_0":"The list of reward tokens supported by the strategy."}},"setCommunityReserve(address)":{"details":"CRV & CVX will be taxed and allocated to the reserve,      such that Mero can participate in governance.","notice":"Set the address of the community reserve.","params":{"_communityReserve":"Address of the community reserve."}},"setCrvCommunityReserveShare(uint256)":{"notice":"Set the share of CRV to send to the Community Reserve.","params":{"crvCommunityReserveShare_":"New fee charged on CRV rewards for governance."}},"setCvxCommunityReserveShare(uint256)":{"notice":"Set the share of CVX to send to the Community Reserve.","params":{"cvxCommunityReserveShare_":"New fee charged on CVX rewards for governance."}},"setHopImbalanceToleranceIn(uint256)":{"details":"Stored as a percent, e.g. 1% would be set as 0.01","notice":"Set hop imbalance tolerance for Curve Hop Pool deposits.","params":{"_hopImbalanceToleranceIn":"New hop imbalance tolerance in."}},"setHopImbalanceToleranceOut(uint256)":{"details":"Stored as a percent, e.g. 1% would be set as 0.01","notice":"Set hop imbalance tolerance for Curve Hop Pool withdrawals.","params":{"_hopImbalanceToleranceOut":"New hop imbalance tolerance out."}},"setImbalanceToleranceIn(uint256)":{"details":"Stored as a percent, e.g. 1% would be set as 0.01","notice":"Set imbalance tolerance for Curve Pool deposits.","params":{"imbalanceToleranceIn_":"New imbalance tolerance in."}},"setImbalanceToleranceOut(uint256)":{"details":"Stored as a percent, e.g. 1% would be set as 0.01","notice":"Set imbalance tolerance for Curve Pool withdrawals.","params":{"imbalanceToleranceOut_":"New imbalance tolerance out."}},"setStrategist(address)":{"details":"Can only be set by current strategist.","notice":"Set strategist.","params":{"strategist_":"Address of new strategist."}},"shutdown()":{"notice":"Shuts down the strategy, disabling deposits."},"strategist()":{"notice":"Returns the address of the strategist.","returns":{"_0":"The the address of the strategist."}},"withdraw(uint256)":{"details":"This can only be called by the vault.      If the amount is not available, it will be made liquid.","notice":"Withdraw an amount of underlying to the vault.","params":{"amount_":"Amount of underlying to withdraw."},"returns":{"_0":"True if successful withdrawal."}},"withdrawAll()":{"details":"This does not liquidate reward tokens and only considers      idle underlying, idle lp tokens and staked lp tokens.","notice":"Withdraw all underlying.","returns":{"_0":"Amount of underlying withdrawn"}}},"notice":"This is the MeroTriHopCvx strategy, which is designed to be used by a Mero ERC20 Vault. The strategy holds a given ERC20 underlying and allocates liquidity to Convex via a given Curve Pool. The Curve Pools used are Meta Pools which first require getting an LP Token from another Curve Pool. The strategy does a 'Hop' when depositing and withdrawing, by first getting the required LP Token, and then the final LP Token for Convex. Rewards received on Convex (CVX, CRV), are sold in part for the underlying. A share of earned CVX & CRV are retained on behalf of the Mero community to participate in governance.","version":1},"opcodes":"PUSH1 0x80 PUSH1 0x40 MSTORE PUSH1 0x4 CALLDATASIZE LT PUSH2 0x25B JUMPI PUSH1 0x0 CALLDATALOAD PUSH1 0xE0 SHR DUP1 PUSH4 0x7BDCDAFF GT PUSH2 0x144 JUMPI DUP1 PUSH4 0xC2BDDF31 GT PUSH2 0xB6 JUMPI DUP1 PUSH4 0xE9EB5088 GT PUSH2 0x7A JUMPI DUP1 PUSH4 0xE9EB5088 EQ PUSH2 0x70F JUMPI DUP1 PUSH4 0xECF8DB0A EQ PUSH2 0x72F JUMPI DUP1 PUSH4 0xFBFA77CF EQ PUSH2 0x74F JUMPI DUP1 PUSH4 0xFC0E74D1 EQ PUSH2 0x783 JUMPI DUP1 PUSH4 0xFDC0BFCA EQ PUSH2 0x798 JUMPI DUP1 PUSH4 0xFF0AF85B EQ PUSH2 0x7AE JUMPI PUSH1 0x0 DUP1 REVERT JUMPDEST DUP1 PUSH4 0xC2BDDF31 EQ PUSH2 0x692 JUMPI DUP1 PUSH4 0xC7B9D530 EQ PUSH2 0x6B2 JUMPI DUP1 PUSH4 0xD0E30DB0 EQ PUSH2 0x6D2 JUMPI DUP1 PUSH4 0xDBBD47D4 EQ PUSH2 0x6DA JUMPI DUP1 PUSH4 0xDF22A747 EQ PUSH2 0x6EF JUMPI PUSH1 0x0 DUP1 REVERT JUMPDEST DUP1 PUSH4 0x9EC5A894 GT PUSH2 0x108 JUMPI DUP1 PUSH4 0x9EC5A894 EQ PUSH2 0x5E4 JUMPI DUP1 PUSH4 0xAA6A8CAF EQ PUSH2 0x604 JUMPI DUP1 PUSH4 0xB69EF8A8 EQ PUSH2 0x624 JUMPI DUP1 PUSH4 0xB6ED67A8 EQ PUSH2 0x639 JUMPI DUP1 PUSH4 0xBF86D690 EQ PUSH2 0x64F JUMPI DUP1 PUSH4 0xC2B18AA0 EQ PUSH2 0x670 JUMPI PUSH1 0x0 DUP1 REVERT JUMPDEST DUP1 PUSH4 0x7BDCDAFF EQ PUSH2 0x56D JUMPI DUP1 PUSH4 0x853828B6 EQ PUSH2 0x583 JUMPI DUP1 PUSH4 0x86993BEF EQ PUSH2 0x598 JUMPI DUP1 PUSH4 0x938511A7 EQ PUSH2 0x5AE JUMPI DUP1 PUSH4 0x9B61A924 EQ PUSH2 0x5CE JUMPI PUSH1 0x0 DUP1 REVERT JUMPDEST DUP1 PUSH4 0x3778851E GT PUSH2 0x1DD JUMPI DUP1 PUSH4 0x56BE5F71 GT PUSH2 0x1A1 JUMPI DUP1 PUSH4 0x56BE5F71 EQ PUSH2 0x4AF JUMPI DUP1 PUSH4 0x61240EEA EQ PUSH2 0x4C5 JUMPI DUP1 PUSH4 0x621E8FE1 EQ PUSH2 0x4D9 JUMPI DUP1 PUSH4 0x69CBB00D EQ PUSH2 0x4F9 JUMPI DUP1 PUSH4 0x6F307DC3 EQ PUSH2 0x52D JUMPI DUP1 PUSH4 0x70AA1726 EQ PUSH2 0x54D JUMPI PUSH1 0x0 DUP1 REVERT JUMPDEST DUP1 PUSH4 0x3778851E EQ PUSH2 0x404 JUMPI DUP1 PUSH4 0x3D509C97 EQ PUSH2 0x424 JUMPI DUP1 PUSH4 0x44D32EE9 EQ PUSH2 0x444 JUMPI DUP1 PUSH4 0x4641257D EQ PUSH2 0x478 JUMPI DUP1 PUSH4 0x49CABCDF EQ PUSH2 0x48D JUMPI PUSH1 0x0 DUP1 REVERT JUMPDEST DUP1 PUSH4 0x218751B2 GT PUSH2 0x224 JUMPI DUP1 PUSH4 0x218751B2 EQ PUSH2 0x35A JUMPI DUP1 PUSH4 0x283F3B56 EQ PUSH2 0x37A JUMPI DUP1 PUSH4 0x2E1A7D4D EQ PUSH2 0x3AE JUMPI DUP1 PUSH4 0x3082538F EQ PUSH2 0x3CE JUMPI DUP1 PUSH4 0x313C06A0 EQ PUSH2 0x3E4 JUMPI PUSH1 0x0 DUP1 REVERT JUMPDEST DUP1 PUSH3 0x435DA5 EQ PUSH2 0x260 JUMPI DUP1 PUSH4 0x6FDDE03 EQ PUSH2 0x2AC JUMPI DUP1 PUSH4 0x1A55820D EQ PUSH2 0x2E8 JUMPI DUP1 PUSH4 0x1C03E6CC EQ PUSH2 0x30C JUMPI DUP1 PUSH4 0x1FE4A686 EQ PUSH2 0x33C JUMPI JUMPDEST PUSH1 0x0 DUP1 REVERT JUMPDEST CALLVALUE DUP1 ISZERO PUSH2 0x26C JUMPI PUSH1 0x0 DUP1 REVERT JUMPDEST POP PUSH32 0x0 JUMPDEST PUSH1 0x40 MLOAD PUSH1 0x1 PUSH1 0x1 PUSH1 0xA0 SHL SUB SWAP1 SWAP2 AND DUP2 MSTORE PUSH1 0x20 ADD JUMPDEST PUSH1 0x40 MLOAD DUP1 SWAP2 SUB SWAP1 RETURN JUMPDEST CALLVALUE DUP1 ISZERO PUSH2 0x2B8 JUMPI PUSH1 0x0 DUP1 REVERT JUMPDEST POP PUSH1 0x40 DUP1 MLOAD DUP1 DUP3 ADD DUP3 MSTORE PUSH1 0xD DUP2 MSTORE PUSH13 0x9ACAE4DEA8E4D290DEE086ECF PUSH1 0x9B SHL PUSH1 0x20 DUP3 ADD MSTORE SWAP1 MLOAD PUSH2 0x2A3 SWAP2 SWAP1 PUSH2 0x3A71 JUMP JUMPDEST CALLVALUE DUP1 ISZERO PUSH2 0x2F4 JUMPI PUSH1 0x0 DUP1 REVERT JUMPDEST POP PUSH2 0x2FE PUSH1 0x8 SLOAD DUP2 JUMP JUMPDEST PUSH1 0x40 MLOAD SWAP1 DUP2 MSTORE PUSH1 0x20 ADD PUSH2 0x2A3 JUMP JUMPDEST CALLVALUE DUP1 ISZERO PUSH2 0x318 JUMPI PUSH1 0x0 DUP1 REVERT JUMPDEST POP PUSH2 0x32C PUSH2 0x327 CALLDATASIZE PUSH1 0x4 PUSH2 0x3ABC JUMP JUMPDEST PUSH2 0x7C9 JUMP JUMPDEST PUSH1 0x40 MLOAD SWAP1 ISZERO ISZERO DUP2 MSTORE PUSH1 0x20 ADD PUSH2 0x2A3 JUMP JUMPDEST CALLVALUE DUP1 ISZERO PUSH2 0x348 JUMPI PUSH1 0x0 DUP1 REVERT JUMPDEST POP PUSH1 0x0 SLOAD PUSH1 0x1 PUSH1 0x1 PUSH1 0xA0 SHL SUB AND PUSH2 0x28F JUMP JUMPDEST CALLVALUE DUP1 ISZERO PUSH2 0x366 JUMPI PUSH1 0x0 DUP1 REVERT JUMPDEST POP PUSH1 0xB SLOAD PUSH2 0x28F SWAP1 PUSH1 0x1 PUSH1 0x1 PUSH1 0xA0 SHL SUB AND DUP2 JUMP JUMPDEST CALLVALUE DUP1 ISZERO PUSH2 0x386 JUMPI PUSH1 0x0 DUP1 REVERT JUMPDEST POP PUSH2 0x28F PUSH32 0x0 DUP2 JUMP JUMPDEST CALLVALUE DUP1 ISZERO PUSH2 0x3BA JUMPI PUSH1 0x0 DUP1 REVERT JUMPDEST POP PUSH2 0x32C PUSH2 0x3C9 CALLDATASIZE PUSH1 0x4 PUSH2 0x3AD9 JUMP JUMPDEST PUSH2 0xA15 JUMP JUMPDEST CALLVALUE DUP1 ISZERO PUSH2 0x3DA JUMPI PUSH1 0x0 DUP1 REVERT JUMPDEST POP PUSH2 0x2FE PUSH1 0x10 SLOAD DUP2 JUMP JUMPDEST CALLVALUE DUP1 ISZERO PUSH2 0x3F0 JUMPI PUSH1 0x0 DUP1 REVERT JUMPDEST POP PUSH1 0xA SLOAD PUSH2 0x28F SWAP1 PUSH1 0x1 PUSH1 0x1 PUSH1 0xA0 SHL SUB AND DUP2 JUMP JUMPDEST CALLVALUE DUP1 ISZERO PUSH2 0x410 JUMPI PUSH1 0x0 DUP1 REVERT JUMPDEST POP PUSH2 0x2FE PUSH2 0x41F CALLDATASIZE PUSH1 0x4 PUSH2 0x3AD9 JUMP JUMPDEST PUSH2 0xAD6 JUMP JUMPDEST CALLVALUE DUP1 ISZERO PUSH2 0x430 JUMPI PUSH1 0x0 DUP1 REVERT JUMPDEST POP PUSH2 0x32C PUSH2 0x43F CALLDATASIZE PUSH1 0x4 PUSH2 0x3ABC JUMP JUMPDEST PUSH2 0xBCB JUMP JUMPDEST CALLVALUE DUP1 ISZERO PUSH2 0x450 JUMPI PUSH1 0x0 DUP1 REVERT JUMPDEST POP PUSH2 0x28F PUSH32 0x0 DUP2 JUMP JUMPDEST CALLVALUE DUP1 ISZERO PUSH2 0x484 JUMPI PUSH1 0x0 DUP1 REVERT JUMPDEST POP PUSH2 0x2FE PUSH2 0xCFE JUMP JUMPDEST CALLVALUE DUP1 ISZERO PUSH2 0x499 JUMPI PUSH1 0x0 DUP1 REVERT JUMPDEST POP PUSH2 0x4AD PUSH2 0x4A8 CALLDATASIZE PUSH1 0x4 PUSH2 0x3AD9 JUMP JUMPDEST PUSH2 0xD75 JUMP JUMPDEST STOP JUMPDEST CALLVALUE DUP1 ISZERO PUSH2 0x4BB JUMPI PUSH1 0x0 DUP1 REVERT JUMPDEST POP PUSH2 0x2FE PUSH1 0x7 SLOAD DUP2 JUMP JUMPDEST CALLVALUE DUP1 ISZERO PUSH2 0x4D1 JUMPI PUSH1 0x0 DUP1 REVERT JUMPDEST POP PUSH1 0x0 PUSH2 0x32C JUMP JUMPDEST CALLVALUE DUP1 ISZERO PUSH2 0x4E5 JUMPI PUSH1 0x0 DUP1 REVERT JUMPDEST POP PUSH1 0x4 SLOAD PUSH2 0x28F SWAP1 PUSH1 0x1 PUSH1 0x1 PUSH1 0xA0 SHL SUB AND DUP2 JUMP JUMPDEST CALLVALUE DUP1 ISZERO PUSH2 0x505 JUMPI PUSH1 0x0 DUP1 REVERT JUMPDEST POP PUSH2 0x2FE PUSH32 0x0 DUP2 JUMP JUMPDEST CALLVALUE DUP1 ISZERO PUSH2 0x539 JUMPI PUSH1 0x0 DUP1 REVERT JUMPDEST POP PUSH1 0x3 SLOAD PUSH2 0x28F SWAP1 PUSH1 0x1 PUSH1 0x1 PUSH1 0xA0 SHL SUB AND DUP2 JUMP JUMPDEST CALLVALUE DUP1 ISZERO PUSH2 0x559 JUMPI PUSH1 0x0 DUP1 REVERT JUMPDEST POP PUSH2 0x4AD PUSH2 0x568 CALLDATASIZE PUSH1 0x4 PUSH2 0x3AD9 JUMP JUMPDEST PUSH2 0xE92 JUMP JUMPDEST CALLVALUE DUP1 ISZERO PUSH2 0x579 JUMPI PUSH1 0x0 DUP1 REVERT JUMPDEST POP PUSH2 0x2FE PUSH1 0xD SLOAD DUP2 JUMP JUMPDEST CALLVALUE DUP1 ISZERO PUSH2 0x58F JUMPI PUSH1 0x0 DUP1 REVERT JUMPDEST POP PUSH2 0x2FE PUSH2 0x104F JUMP JUMPDEST CALLVALUE DUP1 ISZERO PUSH2 0x5A4 JUMPI PUSH1 0x0 DUP1 REVERT JUMPDEST POP PUSH2 0x2FE PUSH1 0xC SLOAD DUP2 JUMP JUMPDEST CALLVALUE DUP1 ISZERO PUSH2 0x5BA JUMPI PUSH1 0x0 DUP1 REVERT JUMPDEST POP PUSH2 0x4AD PUSH2 0x5C9 CALLDATASIZE PUSH1 0x4 PUSH2 0x3AD9 JUMP JUMPDEST PUSH2 0x110F JUMP JUMPDEST CALLVALUE DUP1 ISZERO PUSH2 0x5DA JUMPI PUSH1 0x0 DUP1 REVERT JUMPDEST POP PUSH2 0x2FE PUSH1 0x6 SLOAD DUP2 JUMP JUMPDEST CALLVALUE DUP1 ISZERO PUSH2 0x5F0 JUMPI PUSH1 0x0 DUP1 REVERT JUMPDEST POP PUSH1 0x9 SLOAD PUSH2 0x28F SWAP1 PUSH1 0x1 PUSH1 0x1 PUSH1 0xA0 SHL SUB AND DUP2 JUMP JUMPDEST CALLVALUE DUP1 ISZERO PUSH2 0x610 JUMPI PUSH1 0x0 DUP1 REVERT JUMPDEST POP PUSH2 0x4AD PUSH2 0x61F CALLDATASIZE PUSH1 0x4 PUSH2 0x3AD9 JUMP JUMPDEST PUSH2 0x1225 JUMP JUMPDEST CALLVALUE DUP1 ISZERO PUSH2 0x630 JUMPI PUSH1 0x0 DUP1 REVERT JUMPDEST POP PUSH2 0x2FE PUSH2 0x133B JUMP JUMPDEST CALLVALUE DUP1 ISZERO PUSH2 0x645 JUMPI PUSH1 0x0 DUP1 REVERT JUMPDEST POP PUSH2 0x2FE PUSH1 0xE SLOAD DUP2 JUMP JUMPDEST CALLVALUE DUP1 ISZERO PUSH2 0x65B JUMPI PUSH1 0x0 DUP1 REVERT JUMPDEST POP PUSH1 0x3 SLOAD PUSH2 0x32C SWAP1 PUSH1 0x1 PUSH1 0xA0 SHL SWAP1 DIV PUSH1 0xFF AND DUP2 JUMP JUMPDEST CALLVALUE DUP1 ISZERO PUSH2 0x67C JUMPI PUSH1 0x0 DUP1 REVERT JUMPDEST POP PUSH2 0x685 PUSH2 0x138B JUMP JUMPDEST PUSH1 0x40 MLOAD PUSH2 0x2A3 SWAP2 SWAP1 PUSH2 0x3AF2 JUMP JUMPDEST CALLVALUE DUP1 ISZERO PUSH2 0x69E JUMPI PUSH1 0x0 DUP1 REVERT JUMPDEST POP PUSH2 0x4AD PUSH2 0x6AD CALLDATASIZE PUSH1 0x4 PUSH2 0x3ABC JUMP JUMPDEST PUSH2 0x1397 JUMP JUMPDEST CALLVALUE DUP1 ISZERO PUSH2 0x6BE JUMPI PUSH1 0x0 DUP1 REVERT JUMPDEST POP PUSH2 0x4AD PUSH2 0x6CD CALLDATASIZE PUSH1 0x4 PUSH2 0x3ABC JUMP JUMPDEST PUSH2 0x1522 JUMP JUMPDEST PUSH2 0x32C PUSH2 0x15BF JUMP JUMPDEST CALLVALUE DUP1 ISZERO PUSH2 0x6E6 JUMPI PUSH1 0x0 DUP1 REVERT JUMPDEST POP PUSH2 0x2FE PUSH2 0x16C4 JUMP JUMPDEST CALLVALUE DUP1 ISZERO PUSH2 0x6FB JUMPI PUSH1 0x0 DUP1 REVERT JUMPDEST POP PUSH2 0x4AD PUSH2 0x70A CALLDATASIZE PUSH1 0x4 PUSH2 0x3B3F JUMP JUMPDEST PUSH2 0x196D JUMP JUMPDEST CALLVALUE DUP1 ISZERO PUSH2 0x71B JUMPI PUSH1 0x0 DUP1 REVERT JUMPDEST POP PUSH2 0x4AD PUSH2 0x72A CALLDATASIZE PUSH1 0x4 PUSH2 0x3AD9 JUMP JUMPDEST PUSH2 0x1C88 JUMP JUMPDEST CALLVALUE DUP1 ISZERO PUSH2 0x73B JUMPI PUSH1 0x0 DUP1 REVERT JUMPDEST POP PUSH2 0x4AD PUSH2 0x74A CALLDATASIZE PUSH1 0x4 PUSH2 0x3AD9 JUMP JUMPDEST PUSH2 0x1D9E JUMP JUMPDEST CALLVALUE DUP1 ISZERO PUSH2 0x75B JUMPI PUSH1 0x0 DUP1 REVERT JUMPDEST POP PUSH2 0x28F PUSH32 0x0 DUP2 JUMP JUMPDEST CALLVALUE DUP1 ISZERO PUSH2 0x78F JUMPI PUSH1 0x0 DUP1 REVERT JUMPDEST POP PUSH2 0x4AD PUSH2 0x1F5B JUMP JUMPDEST CALLVALUE DUP1 ISZERO PUSH2 0x7A4 JUMPI PUSH1 0x0 DUP1 REVERT JUMPDEST POP PUSH2 0x2FE PUSH1 0xF SLOAD DUP2 JUMP JUMPDEST CALLVALUE DUP1 ISZERO PUSH2 0x7BA JUMPI PUSH1 0x0 DUP1 REVERT JUMPDEST POP PUSH2 0x2FE PUSH1 0x5 SLOAD DUP2 JUMP JUMPDEST SWAP1 POP SWAP1 JUMP JUMPDEST PUSH1 0x0 PUSH32 0x0 PUSH1 0x40 MLOAD PUSH4 0x24745215 PUSH1 0xE2 SHL DUP2 MSTORE PUSH10 0x676F7665726E616E6365 PUSH1 0xB0 SHL PUSH1 0x4 DUP3 ADD MSTORE CALLER PUSH1 0x24 DUP3 ADD MSTORE PUSH1 0x1 PUSH1 0x1 PUSH1 0xA0 SHL SUB SWAP2 SWAP1 SWAP2 AND SWAP1 PUSH4 0x91D14854 SWAP1 PUSH1 0x44 ADD PUSH1 0x20 PUSH1 0x40 MLOAD DUP1 DUP4 SUB DUP2 DUP7 GAS STATICCALL ISZERO DUP1 ISZERO PUSH2 0x845 JUMPI RETURNDATASIZE PUSH1 0x0 DUP1 RETURNDATACOPY RETURNDATASIZE PUSH1 0x0 REVERT JUMPDEST POP POP POP POP PUSH1 0x40 MLOAD RETURNDATASIZE PUSH1 0x1F NOT PUSH1 0x1F DUP3 ADD AND DUP3 ADD DUP1 PUSH1 0x40 MSTORE POP DUP2 ADD SWAP1 PUSH2 0x869 SWAP2 SWAP1 PUSH2 0x3B87 JUMP JUMPDEST PUSH1 0x40 MLOAD DUP1 PUSH1 0x40 ADD PUSH1 0x40 MSTORE DUP1 PUSH1 0x13 DUP2 MSTORE PUSH1 0x20 ADD PUSH1 0x0 DUP1 MLOAD PUSH1 0x20 PUSH2 0x3DC5 DUP4 CODECOPY DUP2 MLOAD SWAP2 MSTORE DUP2 MSTORE POP SWAP1 PUSH2 0x8B4 JUMPI PUSH1 0x40 MLOAD PUSH3 0x461BCD PUSH1 0xE5 SHL DUP2 MSTORE PUSH1 0x4 ADD PUSH2 0x8AB SWAP2 SWAP1 PUSH2 0x3A71 JUMP JUMPDEST PUSH1 0x40 MLOAD DUP1 SWAP2 SUB SWAP1 REVERT JUMPDEST POP PUSH1 0x1 PUSH1 0x1 PUSH1 0xA0 SHL SUB DUP3 AND PUSH20 0x4E3FBD56CD56C3E72C1403E103B45DB9DA5B9D2B EQ DUP1 ISZERO SWAP1 PUSH2 0x8F0 JUMPI POP PUSH1 0x3 SLOAD PUSH1 0x1 PUSH1 0x1 PUSH1 0xA0 SHL SUB DUP4 DUP2 AND SWAP2 AND EQ ISZERO JUMPDEST DUP1 ISZERO PUSH2 0x919 JUMPI POP PUSH1 0x1 PUSH1 0x1 PUSH1 0xA0 SHL SUB DUP3 AND PUSH20 0xD533A949740BB3306D119CC777FA900BA034CD52 EQ ISZERO JUMPDEST PUSH1 0x40 MLOAD DUP1 PUSH1 0x40 ADD PUSH1 0x40 MSTORE DUP1 PUSH1 0x14 DUP2 MSTORE PUSH1 0x20 ADD PUSH20 0x125B9D985B1A59081D1BDAD95B881D1BC8185919 PUSH1 0x62 SHL DUP2 MSTORE POP SWAP1 PUSH2 0x964 JUMPI PUSH1 0x40 MLOAD PUSH3 0x461BCD PUSH1 0xE5 SHL DUP2 MSTORE PUSH1 0x4 ADD PUSH2 0x8AB SWAP2 SWAP1 PUSH2 0x3A71 JUMP JUMPDEST POP PUSH1 0x1 PUSH1 0x1 PUSH1 0xA0 SHL SUB DUP3 AND PUSH1 0x0 SWAP1 DUP2 MSTORE PUSH1 0x2 PUSH1 0x20 MSTORE PUSH1 0x40 SWAP1 KECCAK256 SLOAD ISZERO PUSH2 0x98B JUMPI POP PUSH1 0x0 SWAP2 SWAP1 POP JUMP JUMPDEST PUSH2 0x996 PUSH1 0x1 DUP4 PUSH2 0x2282 JUMP JUMPDEST POP PUSH1 0x0 PUSH2 0x9A1 PUSH2 0x2297 JUMP JUMPDEST SWAP1 POP PUSH2 0x9B8 PUSH1 0x1 PUSH1 0x1 PUSH1 0xA0 SHL SUB DUP5 AND DUP3 PUSH1 0x0 PUSH2 0x211C JUMP JUMPDEST PUSH2 0x9CE PUSH1 0x1 PUSH1 0x1 PUSH1 0xA0 SHL SUB DUP5 AND DUP3 PUSH1 0x0 NOT PUSH2 0x211C JUMP JUMPDEST PUSH1 0x40 MLOAD PUSH1 0x1 PUSH1 0x1 PUSH1 0xA0 SHL SUB DUP5 AND DUP2 MSTORE PUSH32 0x851BBB4304BF0768ED98B97E429B5BD1DCC1F194B36CD1650F40293E951AE393 SWAP1 PUSH1 0x20 ADD PUSH1 0x40 MLOAD DUP1 SWAP2 SUB SWAP1 LOG1 PUSH1 0x1 SWAP2 POP POP JUMPDEST SWAP2 SWAP1 POP JUMP JUMPDEST PUSH1 0x40 DUP1 MLOAD DUP1 DUP3 ADD SWAP1 SWAP2 MSTORE PUSH1 0x13 DUP2 MSTORE PUSH1 0x0 DUP1 MLOAD PUSH1 0x20 PUSH2 0x3DC5 DUP4 CODECOPY DUP2 MLOAD SWAP2 MSTORE PUSH1 0x20 DUP3 ADD MSTORE PUSH1 0x0 SWAP1 CALLER PUSH1 0x1 PUSH1 0x1 PUSH1 0xA0 SHL SUB PUSH32 0x0 AND EQ PUSH2 0xA83 JUMPI PUSH1 0x40 MLOAD PUSH3 0x461BCD PUSH1 0xE5 SHL DUP2 MSTORE PUSH1 0x4 ADD PUSH2 0x8AB SWAP2 SWAP1 PUSH2 0x3A71 JUMP JUMPDEST POP DUP2 PUSH2 0xA91 JUMPI POP PUSH1 0x0 SWAP2 SWAP1 POP JUMP JUMPDEST PUSH2 0xA9A DUP3 PUSH2 0x22CB JUMP JUMPDEST PUSH1 0x40 MLOAD DUP3 DUP2 MSTORE PUSH32 0x5B6B431D4476A211BB7D41C20D1AAB9AE2321DEEE0D20BE3D9FC9B1093FA6E3D SWAP1 PUSH1 0x20 ADD JUMPDEST PUSH1 0x40 MLOAD DUP1 SWAP2 SUB SWAP1 LOG1 POP PUSH1 0x1 SWAP2 SWAP1 POP JUMP JUMPDEST PUSH1 0x0 DUP1 PUSH20 0x4E3FBD56CD56C3E72C1403E103B45DB9DA5B9D2B PUSH1 0x1 PUSH1 0x1 PUSH1 0xA0 SHL SUB AND PUSH4 0x18160DDD PUSH1 0x40 MLOAD DUP2 PUSH4 0xFFFFFFFF AND PUSH1 0xE0 SHL DUP2 MSTORE PUSH1 0x4 ADD PUSH1 0x20 PUSH1 0x40 MLOAD DUP1 DUP4 SUB DUP2 DUP7 GAS STATICCALL ISZERO DUP1 ISZERO PUSH2 0xB2B JUMPI RETURNDATASIZE PUSH1 0x0 DUP1 RETURNDATACOPY RETURNDATASIZE PUSH1 0x0 REVERT JUMPDEST POP POP POP POP PUSH1 0x40 MLOAD RETURNDATASIZE PUSH1 0x1F NOT PUSH1 0x1F DUP3 ADD AND DUP3 ADD DUP1 PUSH1 0x40 MSTORE POP DUP2 ADD SWAP1 PUSH2 0xB4F SWAP2 SWAP1 PUSH2 0x3BA2 JUMP JUMPDEST SWAP1 POP PUSH1 0x0 PUSH2 0xB67 DUP3 PUSH10 0x152D02C7E14AF6800000 PUSH2 0x25A0 JUMP JUMPDEST SWAP1 POP PUSH2 0x3E8 DUP2 LT PUSH2 0xB7C JUMPI POP PUSH1 0x0 SWAP4 SWAP3 POP POP POP JUMP JUMPDEST PUSH2 0x3E8 DUP2 DUP2 SUB SWAP1 PUSH1 0x0 SWAP1 PUSH2 0xB90 DUP4 DUP9 PUSH2 0x3BD1 JUMP JUMPDEST PUSH2 0xB9A SWAP2 SWAP1 PUSH2 0x3C06 JUMP JUMPDEST SWAP1 POP PUSH1 0x0 PUSH2 0xBB3 DUP6 PUSH11 0x52B7D2DCC80CD2E4000000 PUSH2 0x3C28 JUMP JUMPDEST SWAP1 POP DUP1 DUP3 GT ISZERO PUSH2 0xBC1 JUMPI DUP1 SWAP2 POP JUMPDEST POP SWAP6 SWAP5 POP POP POP POP POP JUMP JUMPDEST PUSH1 0x0 PUSH32 0x0 PUSH1 0x40 MLOAD PUSH4 0x24745215 PUSH1 0xE2 SHL DUP2 MSTORE PUSH10 0x676F7665726E616E6365 PUSH1 0xB0 SHL PUSH1 0x4 DUP3 ADD MSTORE CALLER PUSH1 0x24 DUP3 ADD MSTORE PUSH1 0x1 PUSH1 0x1 PUSH1 0xA0 SHL SUB SWAP2 SWAP1 SWAP2 AND SWAP1 PUSH4 0x91D14854 SWAP1 PUSH1 0x44 ADD PUSH1 0x20 PUSH1 0x40 MLOAD DUP1 DUP4 SUB DUP2 DUP7 GAS STATICCALL ISZERO DUP1 ISZERO PUSH2 0xC47 JUMPI RETURNDATASIZE PUSH1 0x0 DUP1 RETURNDATACOPY RETURNDATASIZE PUSH1 0x0 REVERT JUMPDEST POP POP POP POP PUSH1 0x40 MLOAD RETURNDATASIZE PUSH1 0x1F NOT PUSH1 0x1F DUP3 ADD AND DUP3 ADD DUP1 PUSH1 0x40 MSTORE POP DUP2 ADD SWAP1 PUSH2 0xC6B SWAP2 SWAP1 PUSH2 0x3B87 JUMP JUMPDEST PUSH1 0x40 MLOAD DUP1 PUSH1 0x40 ADD PUSH1 0x40 MSTORE DUP1 PUSH1 0x13 DUP2 MSTORE PUSH1 0x20 ADD PUSH1 0x0 DUP1 MLOAD PUSH1 0x20 PUSH2 0x3DC5 DUP4 CODECOPY DUP2 MLOAD SWAP2 MSTORE DUP2 MSTORE POP SWAP1 PUSH2 0xCAD JUMPI PUSH1 0x40 MLOAD PUSH3 0x461BCD PUSH1 0xE5 SHL DUP2 MSTORE PUSH1 0x4 ADD PUSH2 0x8AB SWAP2 SWAP1 PUSH2 0x3A71 JUMP JUMPDEST POP PUSH2 0xCB9 PUSH1 0x1 DUP4 PUSH2 0x25B9 JUMP JUMPDEST PUSH2 0xCC5 JUMPI POP PUSH1 0x0 SWAP2 SWAP1 POP JUMP JUMPDEST PUSH1 0x40 MLOAD PUSH1 0x1 PUSH1 0x1 PUSH1 0xA0 SHL SUB DUP4 AND DUP2 MSTORE PUSH32 0x36BD04094FA067BB9471A8FBDB0A6E8A43424A2566AD3A740C88973FA40A3118 SWAP1 PUSH1 0x20 ADD PUSH2 0xAC6 JUMP JUMPDEST PUSH1 0x40 DUP1 MLOAD DUP1 DUP3 ADD SWAP1 SWAP2 MSTORE PUSH1 0x13 DUP2 MSTORE PUSH1 0x0 DUP1 MLOAD PUSH1 0x20 PUSH2 0x3DC5 DUP4 CODECOPY DUP2 MLOAD SWAP2 MSTORE PUSH1 0x20 DUP3 ADD MSTORE PUSH1 0x0 SWAP1 CALLER PUSH1 0x1 PUSH1 0x1 PUSH1 0xA0 SHL SUB PUSH32 0x0 AND EQ PUSH2 0xD6C JUMPI PUSH1 0x40 MLOAD PUSH3 0x461BCD PUSH1 0xE5 SHL DUP2 MSTORE PUSH1 0x4 ADD PUSH2 0x8AB SWAP2 SWAP1 PUSH2 0x3A71 JUMP JUMPDEST POP PUSH2 0x7C4 PUSH2 0x25CE JUMP JUMPDEST PUSH32 0x0 PUSH1 0x40 MLOAD PUSH4 0x24745215 PUSH1 0xE2 SHL DUP2 MSTORE PUSH10 0x676F7665726E616E6365 PUSH1 0xB0 SHL PUSH1 0x4 DUP3 ADD MSTORE CALLER PUSH1 0x24 DUP3 ADD MSTORE PUSH1 0x1 PUSH1 0x1 PUSH1 0xA0 SHL SUB SWAP2 SWAP1 SWAP2 AND SWAP1 PUSH4 0x91D14854 SWAP1 PUSH1 0x44 ADD PUSH1 0x20 PUSH1 0x40 MLOAD DUP1 DUP4 SUB DUP2 DUP7 GAS STATICCALL ISZERO DUP1 ISZERO PUSH2 0xDEF JUMPI RETURNDATASIZE PUSH1 0x0 DUP1 RETURNDATACOPY RETURNDATASIZE PUSH1 0x0 REVERT JUMPDEST POP POP POP POP PUSH1 0x40 MLOAD RETURNDATASIZE PUSH1 0x1F NOT PUSH1 0x1F DUP3 ADD AND DUP3 ADD DUP1 PUSH1 0x40 MSTORE POP DUP2 ADD SWAP1 PUSH2 0xE13 SWAP2 SWAP1 PUSH2 0x3B87 JUMP JUMPDEST PUSH1 0x40 MLOAD DUP1 PUSH1 0x40 ADD PUSH1 0x40 MSTORE DUP1 PUSH1 0x13 DUP2 MSTORE PUSH1 0x20 ADD PUSH1 0x0 DUP1 MLOAD PUSH1 0x20 PUSH2 0x3DC5 DUP4 CODECOPY DUP2 MLOAD SWAP2 MSTORE DUP2 MSTORE POP SWAP1 PUSH2 0xE55 JUMPI PUSH1 0x40 MLOAD PUSH3 0x461BCD PUSH1 0xE5 SHL DUP2 MSTORE PUSH1 0x4 ADD PUSH2 0x8AB SWAP2 SWAP1 PUSH2 0x3A71 JUMP JUMPDEST POP PUSH1 0x7 DUP2 SWAP1 SSTORE PUSH1 0x40 MLOAD DUP2 DUP2 MSTORE PUSH32 0x4EDE3E4E9F7997FDA6FF4A12D6C43D5C9E1E2055065CBC15F902F504F72DC8C0 SWAP1 PUSH1 0x20 ADD JUMPDEST PUSH1 0x40 MLOAD DUP1 SWAP2 SUB SWAP1 LOG1 POP JUMP JUMPDEST PUSH32 0x0 PUSH1 0x40 MLOAD PUSH4 0x24745215 PUSH1 0xE2 SHL DUP2 MSTORE PUSH10 0x676F7665726E616E6365 PUSH1 0xB0 SHL PUSH1 0x4 DUP3 ADD MSTORE CALLER PUSH1 0x24 DUP3 ADD MSTORE PUSH1 0x1 PUSH1 0x1 PUSH1 0xA0 SHL SUB SWAP2 SWAP1 SWAP2 AND SWAP1 PUSH4 0x91D14854 SWAP1 PUSH1 0x44 ADD PUSH1 0x20 PUSH1 0x40 MLOAD DUP1 DUP4 SUB DUP2 DUP7 GAS STATICCALL ISZERO DUP1 ISZERO PUSH2 0xF0C JUMPI RETURNDATASIZE PUSH1 0x0 DUP1 RETURNDATACOPY RETURNDATASIZE PUSH1 0x0 REVERT JUMPDEST POP POP POP POP PUSH1 0x40 MLOAD RETURNDATASIZE PUSH1 0x1F NOT PUSH1 0x1F DUP3 ADD AND DUP3 ADD DUP1 PUSH1 0x40 MSTORE POP DUP2 ADD SWAP1 PUSH2 0xF30 SWAP2 SWAP1 PUSH2 0x3B87 JUMP JUMPDEST PUSH1 0x40 MLOAD DUP1 PUSH1 0x40 ADD PUSH1 0x40 MSTORE DUP1 PUSH1 0x13 DUP2 MSTORE PUSH1 0x20 ADD PUSH1 0x0 DUP1 MLOAD PUSH1 0x20 PUSH2 0x3DC5 DUP4 CODECOPY DUP2 MLOAD SWAP2 MSTORE DUP2 MSTORE POP SWAP1 PUSH2 0xF72 JUMPI PUSH1 0x40 MLOAD PUSH3 0x461BCD PUSH1 0xE5 SHL DUP2 MSTORE PUSH1 0x4 ADD PUSH2 0x8AB SWAP2 SWAP1 PUSH2 0x3A71 JUMP JUMPDEST POP PUSH1 0x40 DUP1 MLOAD DUP1 DUP3 ADD SWAP1 SWAP2 MSTORE PUSH1 0xE DUP2 MSTORE PUSH14 0x1A5B9D985B1A5908185B5BDD5B9D PUSH1 0x92 SHL PUSH1 0x20 DUP3 ADD MSTORE PUSH8 0xDE0B6B3A7640000 DUP3 GT ISZERO PUSH2 0xFC1 JUMPI PUSH1 0x40 MLOAD PUSH3 0x461BCD PUSH1 0xE5 SHL DUP2 MSTORE PUSH1 0x4 ADD PUSH2 0x8AB SWAP2 SWAP1 PUSH2 0x3A71 JUMP JUMPDEST POP PUSH1 0x4 SLOAD PUSH1 0x1 PUSH1 0x1 PUSH1 0xA0 SHL SUB AND PUSH2 0x101A JUMPI PUSH1 0x40 MLOAD PUSH3 0x461BCD PUSH1 0xE5 SHL DUP2 MSTORE PUSH1 0x20 PUSH1 0x4 DUP3 ADD MSTORE PUSH1 0x1D PUSH1 0x24 DUP3 ADD MSTORE PUSH32 0x436F6D6D756E6974792072657365727665206D75737420626520736574000000 PUSH1 0x44 DUP3 ADD MSTORE PUSH1 0x64 ADD PUSH2 0x8AB JUMP JUMPDEST PUSH1 0x5 DUP2 SWAP1 SSTORE PUSH1 0x40 MLOAD DUP2 DUP2 MSTORE PUSH32 0x1A8542DFFA4956932E66916113E6A123E123956172FBC0E2E59DF92B8A87D8E6 SWAP1 PUSH1 0x20 ADD PUSH2 0xE87 JUMP JUMPDEST PUSH1 0x40 DUP1 MLOAD DUP1 DUP3 ADD SWAP1 SWAP2 MSTORE PUSH1 0x13 DUP2 MSTORE PUSH1 0x0 DUP1 MLOAD PUSH1 0x20 PUSH2 0x3DC5 DUP4 CODECOPY DUP2 MLOAD SWAP2 MSTORE PUSH1 0x20 DUP3 ADD MSTORE PUSH1 0x0 SWAP1 CALLER PUSH1 0x1 PUSH1 0x1 PUSH1 0xA0 SHL SUB PUSH32 0x0 AND EQ PUSH2 0x10BD JUMPI PUSH1 0x40 MLOAD PUSH3 0x461BCD PUSH1 0xE5 SHL DUP2 MSTORE PUSH1 0x4 ADD PUSH2 0x8AB SWAP2 SWAP1 PUSH2 0x3A71 JUMP JUMPDEST POP PUSH1 0x0 PUSH2 0x10C8 PUSH2 0x292E JUMP JUMPDEST SWAP1 POP DUP1 PUSH2 0x10D7 JUMPI PUSH1 0x0 SWAP2 POP POP SWAP1 JUMP JUMPDEST PUSH1 0x40 MLOAD DUP2 DUP2 MSTORE PUSH32 0x3D5A341DC6A12221FCF31279CEF3771F8FAD757B2D9261F97605CCC17C257424 SWAP1 PUSH1 0x20 ADD PUSH1 0x40 MLOAD DUP1 SWAP2 SUB SWAP1 LOG1 SWAP2 SWAP1 POP JUMP JUMPDEST PUSH32 0x0 PUSH1 0x40 MLOAD PUSH4 0x24745215 PUSH1 0xE2 SHL DUP2 MSTORE PUSH10 0x676F7665726E616E6365 PUSH1 0xB0 SHL PUSH1 0x4 DUP3 ADD MSTORE CALLER PUSH1 0x24 DUP3 ADD MSTORE PUSH1 0x1 PUSH1 0x1 PUSH1 0xA0 SHL SUB SWAP2 SWAP1 SWAP2 AND SWAP1 PUSH4 0x91D14854 SWAP1 PUSH1 0x44 ADD PUSH1 0x20 PUSH1 0x40 MLOAD DUP1 DUP4 SUB DUP2 DUP7 GAS STATICCALL ISZERO DUP1 ISZERO PUSH2 0x1189 JUMPI RETURNDATASIZE PUSH1 0x0 DUP1 RETURNDATACOPY RETURNDATASIZE PUSH1 0x0 REVERT JUMPDEST POP POP POP POP PUSH1 0x40 MLOAD RETURNDATASIZE PUSH1 0x1F NOT PUSH1 0x1F DUP3 ADD AND DUP3 ADD DUP1 PUSH1 0x40 MSTORE POP DUP2 ADD SWAP1 PUSH2 0x11AD SWAP2 SWAP1 PUSH2 0x3B87 JUMP JUMPDEST PUSH1 0x40 MLOAD DUP1 PUSH1 0x40 ADD PUSH1 0x40 MSTORE DUP1 PUSH1 0x13 DUP2 MSTORE PUSH1 0x20 ADD PUSH1 0x0 DUP1 MLOAD PUSH1 0x20 PUSH2 0x3DC5 DUP4 CODECOPY DUP2 MLOAD SWAP2 MSTORE DUP2 MSTORE POP SWAP1 PUSH2 0x11EF JUMPI PUSH1 0x40 MLOAD PUSH3 0x461BCD PUSH1 0xE5 SHL DUP2 MSTORE PUSH1 0x4 ADD PUSH2 0x8AB SWAP2 SWAP1 PUSH2 0x3A71 JUMP JUMPDEST POP PUSH1 0xE DUP2 SWAP1 SSTORE PUSH1 0x40 MLOAD DUP2 DUP2 MSTORE PUSH32 0xE6B4374E594CAC6D717F89735F722A01C53AFFE6A4603ED44E09004666B7A6F3 SWAP1 PUSH1 0x20 ADD PUSH2 0xE87 JUMP JUMPDEST PUSH32 0x0 PUSH1 0x40 MLOAD PUSH4 0x24745215 PUSH1 0xE2 SHL DUP2 MSTORE PUSH10 0x676F7665726E616E6365 PUSH1 0xB0 SHL PUSH1 0x4 DUP3 ADD MSTORE CALLER PUSH1 0x24 DUP3 ADD MSTORE PUSH1 0x1 PUSH1 0x1 PUSH1 0xA0 SHL SUB SWAP2 SWAP1 SWAP2 AND SWAP1 PUSH4 0x91D14854 SWAP1 PUSH1 0x44 ADD PUSH1 0x20 PUSH1 0x40 MLOAD DUP1 DUP4 SUB DUP2 DUP7 GAS STATICCALL ISZERO DUP1 ISZERO PUSH2 0x129F JUMPI RETURNDATASIZE PUSH1 0x0 DUP1 RETURNDATACOPY RETURNDATASIZE PUSH1 0x0 REVERT JUMPDEST POP POP POP POP PUSH1 0x40 MLOAD RETURNDATASIZE PUSH1 0x1F NOT PUSH1 0x1F DUP3 ADD AND DUP3 ADD DUP1 PUSH1 0x40 MSTORE POP DUP2 ADD SWAP1 PUSH2 0x12C3 SWAP2 SWAP1 PUSH2 0x3B87 JUMP JUMPDEST PUSH1 0x40 MLOAD DUP1 PUSH1 0x40 ADD PUSH1 0x40 MSTORE DUP1 PUSH1 0x13 DUP2 MSTORE PUSH1 0x20 ADD PUSH1 0x0 DUP1 MLOAD PUSH1 0x20 PUSH2 0x3DC5 DUP4 CODECOPY DUP2 MLOAD SWAP2 MSTORE DUP2 MSTORE POP SWAP1 PUSH2 0x1305 JUMPI PUSH1 0x40 MLOAD PUSH3 0x461BCD PUSH1 0xE5 SHL DUP2 MSTORE PUSH1 0x4 ADD PUSH2 0x8AB SWAP2 SWAP1 PUSH2 0x3A71 JUMP JUMPDEST POP PUSH1 0xF DUP2 SWAP1 SSTORE PUSH1 0x40 MLOAD DUP2 DUP2 MSTORE PUSH32 0x8B8AD8032596EF90599A67881AED48DBA49C88DD982CD479440BFCEE796DCF8B SWAP1 PUSH1 0x20 ADD PUSH2 0xE87 JUMP JUMPDEST PUSH1 0x0 PUSH2 0x1379 PUSH2 0x1348 PUSH2 0x2A57 JUMP JUMPDEST PUSH2 0x136A PUSH2 0x1353 PUSH2 0x2AE3 JUMP JUMPDEST PUSH2 0x135B PUSH2 0x2B14 JUMP JUMPDEST PUSH2 0x1365 SWAP2 SWAP1 PUSH2 0x3C3F JUMP JUMPDEST PUSH2 0x2B45 JUMP JUMPDEST PUSH2 0x1374 SWAP2 SWAP1 PUSH2 0x3C3F JUMP JUMPDEST PUSH2 0x2C48 JUMP JUMPDEST PUSH2 0x1381 PUSH2 0x2CDC JUMP JUMPDEST PUSH2 0x7C4 SWAP2 SWAP1 PUSH2 0x3C3F JUMP JUMPDEST PUSH1 0x60 PUSH2 0x7C4 PUSH1 0x1 PUSH2 0x2D0D JUMP JUMPDEST PUSH32 0x0 PUSH1 0x40 MLOAD PUSH4 0x24745215 PUSH1 0xE2 SHL DUP2 MSTORE PUSH10 0x676F7665726E616E6365 PUSH1 0xB0 SHL PUSH1 0x4 DUP3 ADD MSTORE CALLER PUSH1 0x24 DUP3 ADD MSTORE PUSH1 0x1 PUSH1 0x1 PUSH1 0xA0 SHL SUB SWAP2 SWAP1 SWAP2 AND SWAP1 PUSH4 0x91D14854 SWAP1 PUSH1 0x44 ADD PUSH1 0x20 PUSH1 0x40 MLOAD DUP1 DUP4 SUB DUP2 DUP7 GAS STATICCALL ISZERO DUP1 ISZERO PUSH2 0x1411 JUMPI RETURNDATASIZE PUSH1 0x0 DUP1 RETURNDATACOPY RETURNDATASIZE PUSH1 0x0 REVERT JUMPDEST POP POP POP POP PUSH1 0x40 MLOAD RETURNDATASIZE PUSH1 0x1F NOT PUSH1 0x1F DUP3 ADD AND DUP3 ADD DUP1 PUSH1 0x40 MSTORE POP DUP2 ADD SWAP1 PUSH2 0x1435 SWAP2 SWAP1 PUSH2 0x3B87 JUMP JUMPDEST PUSH1 0x40 MLOAD DUP1 PUSH1 0x40 ADD PUSH1 0x40 MSTORE DUP1 PUSH1 0x13 DUP2 MSTORE PUSH1 0x20 ADD PUSH1 0x0 DUP1 MLOAD PUSH1 0x20 PUSH2 0x3DC5 DUP4 CODECOPY DUP2 MLOAD SWAP2 MSTORE DUP2 MSTORE POP SWAP1 PUSH2 0x1477 JUMPI PUSH1 0x40 MLOAD PUSH3 0x461BCD PUSH1 0xE5 SHL DUP2 MSTORE PUSH1 0x4 ADD PUSH2 0x8AB SWAP2 SWAP1 PUSH2 0x3A71 JUMP JUMPDEST POP PUSH1 0x40 DUP1 MLOAD DUP1 DUP3 ADD SWAP1 SWAP2 MSTORE PUSH1 0x18 DUP2 MSTORE PUSH32 0x7A65726F2061646472657373206E6F7420616C6C6F7765640000000000000000 PUSH1 0x20 DUP3 ADD MSTORE PUSH1 0x1 PUSH1 0x1 PUSH1 0xA0 SHL SUB DUP3 AND PUSH2 0x14D3 JUMPI PUSH1 0x40 MLOAD PUSH3 0x461BCD PUSH1 0xE5 SHL DUP2 MSTORE PUSH1 0x4 ADD PUSH2 0x8AB SWAP2 SWAP1 PUSH2 0x3A71 JUMP JUMPDEST POP PUSH1 0x4 DUP1 SLOAD PUSH1 0x1 PUSH1 0x1 PUSH1 0xA0 SHL SUB NOT AND PUSH1 0x1 PUSH1 0x1 PUSH1 0xA0 SHL SUB DUP4 AND SWAP1 DUP2 OR SWAP1 SWAP2 SSTORE PUSH1 0x40 MLOAD SWAP1 DUP2 MSTORE PUSH32 0x17D7BA6682F162782054B119192F8E5B98FE7090B4BEC7A55FC7075D9CD859EE SWAP1 PUSH1 0x20 ADD PUSH2 0xE87 JUMP JUMPDEST PUSH1 0x0 SLOAD PUSH1 0x40 DUP1 MLOAD DUP1 DUP3 ADD SWAP1 SWAP2 MSTORE PUSH1 0x13 DUP2 MSTORE PUSH1 0x0 DUP1 MLOAD PUSH1 0x20 PUSH2 0x3DC5 DUP4 CODECOPY DUP2 MLOAD SWAP2 MSTORE PUSH1 0x20 DUP3 ADD MSTORE SWAP1 PUSH1 0x1 PUSH1 0x1 PUSH1 0xA0 SHL SUB AND CALLER EQ PUSH2 0x1570 JUMPI PUSH1 0x40 MLOAD PUSH3 0x461BCD PUSH1 0xE5 SHL DUP2 MSTORE PUSH1 0x4 ADD PUSH2 0x8AB SWAP2 SWAP1 PUSH2 0x3A71 JUMP JUMPDEST POP PUSH1 0x0 DUP1 SLOAD PUSH1 0x1 PUSH1 0x1 PUSH1 0xA0 SHL SUB NOT AND PUSH1 0x1 PUSH1 0x1 PUSH1 0xA0 SHL SUB DUP4 AND SWAP1 DUP2 OR SWAP1 SWAP2 SSTORE PUSH1 0x40 MLOAD SWAP1 DUP2 MSTORE PUSH32 0x46D58E3FA07BF19B1D27240F0E286B27E9F7C1B0D88933333FE833B60EEC5412 SWAP1 PUSH1 0x20 ADD PUSH2 0xE87 JUMP JUMPDEST PUSH1 0x40 DUP1 MLOAD DUP1 DUP3 ADD SWAP1 SWAP2 MSTORE PUSH1 0x13 DUP2 MSTORE PUSH1 0x0 DUP1 MLOAD PUSH1 0x20 PUSH2 0x3DC5 DUP4 CODECOPY DUP2 MLOAD SWAP2 MSTORE PUSH1 0x20 DUP3 ADD MSTORE PUSH1 0x0 SWAP1 CALLER PUSH1 0x1 PUSH1 0x1 PUSH1 0xA0 SHL SUB PUSH32 0x0 AND EQ PUSH2 0x162D JUMPI PUSH1 0x40 MLOAD PUSH3 0x461BCD PUSH1 0xE5 SHL DUP2 MSTORE PUSH1 0x4 ADD PUSH2 0x8AB SWAP2 SWAP1 PUSH2 0x3A71 JUMP JUMPDEST POP PUSH1 0x3 SLOAD PUSH1 0x40 DUP1 MLOAD DUP1 DUP3 ADD SWAP1 SWAP2 MSTORE PUSH1 0x14 DUP2 MSTORE PUSH20 0x29BA3930BA32B3BC9034B99039B43ABA3237BBB7 PUSH1 0x61 SHL PUSH1 0x20 DUP3 ADD MSTORE SWAP1 PUSH1 0x1 PUSH1 0xA0 SHL SWAP1 DIV PUSH1 0xFF AND ISZERO PUSH2 0x1685 JUMPI PUSH1 0x40 MLOAD PUSH3 0x461BCD PUSH1 0xE5 SHL DUP2 MSTORE PUSH1 0x4 ADD PUSH2 0x8AB SWAP2 SWAP1 PUSH2 0x3A71 JUMP JUMPDEST POP PUSH2 0x168E PUSH2 0x2DB2 JUMP JUMPDEST PUSH2 0x1698 JUMPI POP PUSH1 0x0 SWAP1 JUMP JUMPDEST PUSH1 0x40 MLOAD PUSH32 0xED21248CB703B524CC0029BB8669DF941BACA560163A3BC6AD184E7E9C268070 SWAP1 PUSH1 0x0 SWAP1 LOG1 SWAP1 JUMP JUMPDEST PUSH1 0x9 SLOAD PUSH1 0x40 MLOAD PUSH3 0x466131 PUSH1 0xE1 SHL DUP2 MSTORE ADDRESS PUSH1 0x4 DUP3 ADD MSTORE PUSH1 0x0 SWAP2 PUSH1 0x1 PUSH1 0x1 PUSH1 0xA0 SHL SUB AND SWAP1 DUP3 SWAP1 DUP3 SWAP1 PUSH3 0x8CC262 SWAP1 PUSH1 0x24 ADD PUSH1 0x20 PUSH1 0x40 MLOAD DUP1 DUP4 SUB DUP2 DUP7 GAS STATICCALL ISZERO DUP1 ISZERO PUSH2 0x170F JUMPI RETURNDATASIZE PUSH1 0x0 DUP1 RETURNDATACOPY RETURNDATASIZE PUSH1 0x0 REVERT JUMPDEST POP POP POP POP PUSH1 0x40 MLOAD RETURNDATASIZE PUSH1 0x1F NOT PUSH1 0x1F DUP3 ADD AND DUP3 ADD DUP1 PUSH1 0x40 MSTORE POP DUP2 ADD SWAP1 PUSH2 0x1733 SWAP2 SWAP1 PUSH2 0x3BA2 JUMP JUMPDEST SWAP1 POP DUP1 PUSH2 0x1743 JUMPI PUSH1 0x0 SWAP3 POP POP POP SWAP1 JUMP JUMPDEST PUSH1 0x0 PUSH2 0x178A PUSH20 0x4E3FBD56CD56C3E72C1403E103B45DB9DA5B9D2B PUSH2 0x1785 PUSH1 0x6 SLOAD PUSH8 0xDE0B6B3A7640000 PUSH2 0x1776 SWAP2 SWAP1 PUSH2 0x3C28 JUMP JUMPDEST PUSH2 0x177F DUP7 PUSH2 0xAD6 JUMP JUMPDEST SWAP1 PUSH2 0x3025 JUMP JUMPDEST PUSH2 0x3044 JUMP JUMPDEST PUSH2 0x17C2 PUSH20 0xD533A949740BB3306D119CC777FA900BA034CD52 PUSH2 0x1785 PUSH1 0x5 SLOAD PUSH8 0xDE0B6B3A7640000 PUSH2 0x17BB SWAP2 SWAP1 PUSH2 0x3C28 JUMP JUMPDEST DUP7 SWAP1 PUSH2 0x3025 JUMP JUMPDEST PUSH2 0x17CC SWAP2 SWAP1 PUSH2 0x3C3F JUMP JUMPDEST SWAP1 POP PUSH1 0x0 PUSH2 0x17DA PUSH1 0x1 PUSH2 0x30CA JUMP JUMPDEST SWAP1 POP PUSH1 0x0 JUMPDEST DUP2 DUP2 LT ISZERO PUSH2 0x1963 JUMPI PUSH1 0x40 MLOAD PUSH4 0x2061AA23 PUSH1 0xE1 SHL DUP2 MSTORE PUSH1 0x4 DUP2 ADD DUP3 SWAP1 MSTORE PUSH1 0x0 SWAP1 PUSH1 0x1 PUSH1 0x1 PUSH1 0xA0 SHL SUB DUP8 AND SWAP1 PUSH4 0x40C35446 SWAP1 PUSH1 0x24 ADD PUSH1 0x20 PUSH1 0x40 MLOAD DUP1 DUP4 SUB DUP2 DUP7 GAS STATICCALL ISZERO DUP1 ISZERO PUSH2 0x182F JUMPI RETURNDATASIZE PUSH1 0x0 DUP1 RETURNDATACOPY RETURNDATASIZE PUSH1 0x0 REVERT JUMPDEST POP POP POP POP PUSH1 0x40 MLOAD RETURNDATASIZE PUSH1 0x1F NOT PUSH1 0x1F DUP3 ADD AND DUP3 ADD DUP1 PUSH1 0x40 MSTORE POP DUP2 ADD SWAP1 PUSH2 0x1853 SWAP2 SWAP1 PUSH2 0x3C57 JUMP JUMPDEST SWAP1 POP PUSH1 0x0 DUP2 PUSH1 0x1 PUSH1 0x1 PUSH1 0xA0 SHL SUB AND PUSH4 0xF7C618C1 PUSH1 0x40 MLOAD DUP2 PUSH4 0xFFFFFFFF AND PUSH1 0xE0 SHL DUP2 MSTORE PUSH1 0x4 ADD PUSH1 0x20 PUSH1 0x40 MLOAD DUP1 DUP4 SUB DUP2 DUP7 GAS STATICCALL ISZERO DUP1 ISZERO PUSH2 0x1895 JUMPI RETURNDATASIZE PUSH1 0x0 DUP1 RETURNDATACOPY RETURNDATASIZE PUSH1 0x0 REVERT JUMPDEST POP POP POP POP PUSH1 0x40 MLOAD RETURNDATASIZE PUSH1 0x1F NOT PUSH1 0x1F DUP3 ADD AND DUP3 ADD DUP1 PUSH1 0x40 MSTORE POP DUP2 ADD SWAP1 PUSH2 0x18B9 SWAP2 SWAP1 PUSH2 0x3C57 JUMP JUMPDEST PUSH1 0x1 PUSH1 0x1 PUSH1 0xA0 SHL SUB DUP2 AND PUSH1 0x0 SWAP1 DUP2 MSTORE PUSH1 0x2 PUSH1 0x20 MSTORE PUSH1 0x40 SWAP1 KECCAK256 SLOAD SWAP1 SWAP2 POP PUSH2 0x18E0 JUMPI POP POP PUSH2 0x195B JUMP JUMPDEST PUSH1 0x40 MLOAD PUSH3 0x466131 PUSH1 0xE1 SHL DUP2 MSTORE ADDRESS PUSH1 0x4 DUP3 ADD MSTORE PUSH2 0x194C SWAP1 DUP3 SWAP1 PUSH1 0x1 PUSH1 0x1 PUSH1 0xA0 SHL SUB DUP6 AND SWAP1 PUSH3 0x8CC262 SWAP1 PUSH1 0x24 ADD PUSH1 0x20 PUSH1 0x40 MLOAD DUP1 DUP4 SUB DUP2 DUP7 GAS STATICCALL ISZERO DUP1 ISZERO PUSH2 0x1928 JUMPI RETURNDATASIZE PUSH1 0x0 DUP1 RETURNDATACOPY RETURNDATASIZE PUSH1 0x0 REVERT JUMPDEST POP POP POP POP PUSH1 0x40 MLOAD RETURNDATASIZE PUSH1 0x1F NOT PUSH1 0x1F DUP3 ADD AND DUP3 ADD DUP1 PUSH1 0x40 MSTORE POP DUP2 ADD SWAP1 PUSH2 0x1785 SWAP2 SWAP1 PUSH2 0x3BA2 JUMP JUMPDEST PUSH2 0x1956 SWAP1 DUP7 PUSH2 0x3C3F JUMP JUMPDEST SWAP5 POP POP POP JUMPDEST PUSH1 0x1 ADD PUSH2 0x17DF JUMP JUMPDEST POP SWAP1 SWAP5 SWAP4 POP POP POP POP JUMP JUMPDEST PUSH32 0x0 PUSH1 0x40 MLOAD PUSH4 0x24745215 PUSH1 0xE2 SHL DUP2 MSTORE PUSH10 0x676F7665726E616E6365 PUSH1 0xB0 SHL PUSH1 0x4 DUP3 ADD MSTORE CALLER PUSH1 0x24 DUP3 ADD MSTORE PUSH1 0x1 PUSH1 0x1 PUSH1 0xA0 SHL SUB SWAP2 SWAP1 SWAP2 AND SWAP1 PUSH4 0x91D14854 SWAP1 PUSH1 0x44 ADD PUSH1 0x20 PUSH1 0x40 MLOAD DUP1 DUP4 SUB DUP2 DUP7 GAS STATICCALL ISZERO DUP1 ISZERO PUSH2 0x19E7 JUMPI RETURNDATASIZE PUSH1 0x0 DUP1 RETURNDATACOPY RETURNDATASIZE PUSH1 0x0 REVERT JUMPDEST POP POP POP POP PUSH1 0x40 MLOAD RETURNDATASIZE PUSH1 0x1F NOT PUSH1 0x1F DUP3 ADD AND DUP3 ADD DUP1 PUSH1 0x40 MSTORE POP DUP2 ADD SWAP1 PUSH2 0x1A0B SWAP2 SWAP1 PUSH2 0x3B87 JUMP JUMPDEST PUSH1 0x40 MLOAD DUP1 PUSH1 0x40 ADD PUSH1 0x40 MSTORE DUP1 PUSH1 0x13 DUP2 MSTORE PUSH1 0x20 ADD PUSH1 0x0 DUP1 MLOAD PUSH1 0x20 PUSH2 0x3DC5 DUP4 CODECOPY DUP2 MLOAD SWAP2 MSTORE DUP2 MSTORE POP SWAP1 PUSH2 0x1A4D JUMPI PUSH1 0x40 MLOAD PUSH3 0x461BCD PUSH1 0xE5 SHL DUP2 MSTORE PUSH1 0x4 ADD PUSH2 0x8AB SWAP2 SWAP1 PUSH2 0x3A71 JUMP JUMPDEST POP PUSH2 0x1A57 DUP3 PUSH2 0x30D4 JUMP JUMPDEST PUSH2 0x1A5F PUSH2 0x25CE JUMP JUMPDEST POP PUSH2 0x1A68 PUSH2 0x3154 JUMP JUMPDEST PUSH1 0xC DUP4 SWAP1 SSTORE PUSH1 0xD DUP2 SWAP1 SSTORE PUSH1 0x40 MLOAD PUSH4 0x1526FE27 PUSH1 0xE0 SHL DUP2 MSTORE PUSH1 0x4 DUP2 ADD DUP5 SWAP1 MSTORE PUSH1 0x0 SWAP1 DUP2 SWAP1 DUP2 SWAP1 PUSH20 0xF403C135812408BFBE8713B5A23A04B3D48AAE31 SWAP1 PUSH4 0x1526FE27 SWAP1 PUSH1 0x24 ADD PUSH1 0xC0 PUSH1 0x40 MLOAD DUP1 DUP4 SUB DUP2 DUP7 GAS STATICCALL ISZERO DUP1 ISZERO PUSH2 0x1AC9 JUMPI RETURNDATASIZE PUSH1 0x0 DUP1 RETURNDATACOPY RETURNDATASIZE PUSH1 0x0 REVERT JUMPDEST POP POP POP POP PUSH1 0x40 MLOAD RETURNDATASIZE PUSH1 0x1F NOT PUSH1 0x1F DUP3 ADD AND DUP3 ADD DUP1 PUSH1 0x40 MSTORE POP DUP2 ADD SWAP1 PUSH2 0x1AED SWAP2 SWAP1 PUSH2 0x3C74 JUMP JUMPDEST SWAP6 POP POP SWAP5 POP POP POP SWAP3 POP DUP1 ISZERO PUSH1 0x40 MLOAD DUP1 PUSH1 0x40 ADD PUSH1 0x40 MSTORE DUP1 PUSH1 0x10 DUP2 MSTORE PUSH1 0x20 ADD PUSH16 0x2837B7B61034B99039B43ABA3237BBB7 PUSH1 0x81 SHL DUP2 MSTORE POP SWAP1 PUSH2 0x1B3F JUMPI PUSH1 0x40 MLOAD PUSH3 0x461BCD PUSH1 0xE5 SHL DUP2 MSTORE PUSH1 0x4 ADD PUSH2 0x8AB SWAP2 SWAP1 PUSH2 0x3A71 JUMP JUMPDEST POP PUSH1 0xA DUP1 SLOAD PUSH1 0x1 PUSH1 0x1 PUSH1 0xA0 SHL SUB DUP1 DUP7 AND PUSH1 0x1 PUSH1 0x1 PUSH1 0xA0 SHL SUB NOT SWAP3 DUP4 AND OR SWAP1 SWAP3 SSTORE PUSH1 0x9 DUP1 SLOAD DUP6 DUP5 AND SWAP1 DUP4 AND OR SWAP1 SSTORE PUSH1 0xB DUP1 SLOAD DUP9 DUP5 AND SWAP3 AND SWAP2 SWAP1 SWAP2 OR SWAP1 SSTORE PUSH2 0x1BA9 SWAP1 PUSH32 0x0 AND DUP7 PUSH1 0x0 PUSH2 0x211C JUMP JUMPDEST PUSH2 0x1BDF PUSH1 0x1 PUSH1 0x1 PUSH1 0xA0 SHL SUB PUSH32 0x0 AND DUP7 PUSH1 0x0 NOT PUSH2 0x211C JUMP JUMPDEST PUSH2 0x1C08 PUSH1 0x1 PUSH1 0x1 PUSH1 0xA0 SHL SUB DUP5 AND PUSH20 0xF403C135812408BFBE8713B5A23A04B3D48AAE31 PUSH1 0x0 PUSH2 0x211C JUMP JUMPDEST PUSH2 0x1C32 PUSH1 0x1 PUSH1 0x1 PUSH1 0xA0 SHL SUB DUP5 AND PUSH20 0xF403C135812408BFBE8713B5A23A04B3D48AAE31 PUSH1 0x0 NOT PUSH2 0x211C JUMP JUMPDEST PUSH2 0x1C3A PUSH2 0x2DB2 JUMP JUMPDEST PUSH1 0x40 MLOAD DUP1 PUSH1 0x40 ADD PUSH1 0x40 MSTORE DUP1 PUSH1 0xE DUP2 MSTORE PUSH1 0x20 ADD PUSH14 0x19195C1BDCDA5D0819985A5B1959 PUSH1 0x92 SHL DUP2 MSTORE POP SWAP1 PUSH2 0x1C7F JUMPI PUSH1 0x40 MLOAD PUSH3 0x461BCD PUSH1 0xE5 SHL DUP2 MSTORE PUSH1 0x4 ADD PUSH2 0x8AB SWAP2 SWAP1 PUSH2 0x3A71 JUMP JUMPDEST POP POP POP POP POP POP POP JUMP JUMPDEST PUSH32 0x0 PUSH1 0x40 MLOAD PUSH4 0x24745215 PUSH1 0xE2 SHL DUP2 MSTORE PUSH10 0x676F7665726E616E6365 PUSH1 0xB0 SHL PUSH1 0x4 DUP3 ADD MSTORE CALLER PUSH1 0x24 DUP3 ADD MSTORE PUSH1 0x1 PUSH1 0x1 PUSH1 0xA0 SHL SUB SWAP2 SWAP1 SWAP2 AND SWAP1 PUSH4 0x91D14854 SWAP1 PUSH1 0x44 ADD PUSH1 0x20 PUSH1 0x40 MLOAD DUP1 DUP4 SUB DUP2 DUP7 GAS STATICCALL ISZERO DUP1 ISZERO PUSH2 0x1D02 JUMPI RETURNDATASIZE PUSH1 0x0 DUP1 RETURNDATACOPY RETURNDATASIZE PUSH1 0x0 REVERT JUMPDEST POP POP POP POP PUSH1 0x40 MLOAD RETURNDATASIZE PUSH1 0x1F NOT PUSH1 0x1F DUP3 ADD AND DUP3 ADD DUP1 PUSH1 0x40 MSTORE POP DUP2 ADD SWAP1 PUSH2 0x1D26 SWAP2 SWAP1 PUSH2 0x3B87 JUMP JUMPDEST PUSH1 0x40 MLOAD DUP1 PUSH1 0x40 ADD PUSH1 0x40 MSTORE DUP1 PUSH1 0x13 DUP2 MSTORE PUSH1 0x20 ADD PUSH1 0x0 DUP1 MLOAD PUSH1 0x20 PUSH2 0x3DC5 DUP4 CODECOPY DUP2 MLOAD SWAP2 MSTORE DUP2 MSTORE POP SWAP1 PUSH2 0x1D68 JUMPI PUSH1 0x40 MLOAD PUSH3 0x461BCD PUSH1 0xE5 SHL DUP2 MSTORE PUSH1 0x4 ADD PUSH2 0x8AB SWAP2 SWAP1 PUSH2 0x3A71 JUMP JUMPDEST POP PUSH1 0x8 DUP2 SWAP1 SSTORE PUSH1 0x40 MLOAD DUP2 DUP2 MSTORE PUSH32 0xB2861FED34A4613F8F25F46553A23408A3364EE9DDC4EF6714F0A81D856E41A7 SWAP1 PUSH1 0x20 ADD PUSH2 0xE87 JUMP JUMPDEST PUSH32 0x0 PUSH1 0x40 MLOAD PUSH4 0x24745215 PUSH1 0xE2 SHL DUP2 MSTORE PUSH10 0x676F7665726E616E6365 PUSH1 0xB0 SHL PUSH1 0x4 DUP3 ADD MSTORE CALLER PUSH1 0x24 DUP3 ADD MSTORE PUSH1 0x1 PUSH1 0x1 PUSH1 0xA0 SHL SUB SWAP2 SWAP1 SWAP2 AND SWAP1 PUSH4 0x91D14854 SWAP1 PUSH1 0x44 ADD PUSH1 0x20 PUSH1 0x40 MLOAD DUP1 DUP4 SUB DUP2 DUP7 GAS STATICCALL ISZERO DUP1 ISZERO PUSH2 0x1E18 JUMPI RETURNDATASIZE PUSH1 0x0 DUP1 RETURNDATACOPY RETURNDATASIZE PUSH1 0x0 REVERT JUMPDEST POP POP POP POP PUSH1 0x40 MLOAD RETURNDATASIZE PUSH1 0x1F NOT PUSH1 0x1F DUP3 ADD AND DUP3 ADD DUP1 PUSH1 0x40 MSTORE POP DUP2 ADD SWAP1 PUSH2 0x1E3C SWAP2 SWAP1 PUSH2 0x3B87 JUMP JUMPDEST PUSH1 0x40 MLOAD DUP1 PUSH1 0x40 ADD PUSH1 0x40 MSTORE DUP1 PUSH1 0x13 DUP2 MSTORE PUSH1 0x20 ADD PUSH1 0x0 DUP1 MLOAD PUSH1 0x20 PUSH2 0x3DC5 DUP4 CODECOPY DUP2 MLOAD SWAP2 MSTORE DUP2 MSTORE POP SWAP1 PUSH2 0x1E7E JUMPI PUSH1 0x40 MLOAD PUSH3 0x461BCD PUSH1 0xE5 SHL DUP2 MSTORE PUSH1 0x4 ADD PUSH2 0x8AB SWAP2 SWAP1 PUSH2 0x3A71 JUMP JUMPDEST POP PUSH1 0x40 DUP1 MLOAD DUP1 DUP3 ADD SWAP1 SWAP2 MSTORE PUSH1 0xE DUP2 MSTORE PUSH14 0x1A5B9D985B1A5908185B5BDD5B9D PUSH1 0x92 SHL PUSH1 0x20 DUP3 ADD MSTORE PUSH8 0xDE0B6B3A7640000 DUP3 GT ISZERO PUSH2 0x1ECD JUMPI PUSH1 0x40 MLOAD PUSH3 0x461BCD PUSH1 0xE5 SHL DUP2 MSTORE PUSH1 0x4 ADD PUSH2 0x8AB SWAP2 SWAP1 PUSH2 0x3A71 JUMP JUMPDEST POP PUSH1 0x4 SLOAD PUSH1 0x1 PUSH1 0x1 PUSH1 0xA0 SHL SUB AND PUSH2 0x1F26 JUMPI PUSH1 0x40 MLOAD PUSH3 0x461BCD PUSH1 0xE5 SHL DUP2 MSTORE PUSH1 0x20 PUSH1 0x4 DUP3 ADD MSTORE PUSH1 0x1D PUSH1 0x24 DUP3 ADD MSTORE PUSH32 0x436F6D6D756E6974792072657365727665206D75737420626520736574000000 PUSH1 0x44 DUP3 ADD MSTORE PUSH1 0x64 ADD PUSH2 0x8AB JUMP JUMPDEST PUSH1 0x6 DUP2 SWAP1 SSTORE PUSH1 0x40 MLOAD DUP2 DUP2 MSTORE PUSH32 0x2C3C7D70A1DFBFAF74447753B8A73E1323AA10B32B9209742DB563671E14B13C SWAP1 PUSH1 0x20 ADD PUSH2 0xE87 JUMP JUMPDEST PUSH1 0x40 DUP1 MLOAD DUP1 DUP3 ADD SWAP1 SWAP2 MSTORE PUSH1 0x13 DUP2 MSTORE PUSH1 0x0 DUP1 MLOAD PUSH1 0x20 PUSH2 0x3DC5 DUP4 CODECOPY DUP2 MLOAD SWAP2 MSTORE PUSH1 0x20 DUP3 ADD MSTORE CALLER PUSH1 0x1 PUSH1 0x1 PUSH1 0xA0 SHL SUB PUSH32 0x0 AND EQ PUSH2 0x1FC6 JUMPI PUSH1 0x40 MLOAD PUSH3 0x461BCD PUSH1 0xE5 SHL DUP2 MSTORE PUSH1 0x4 ADD PUSH2 0x8AB SWAP2 SWAP1 PUSH2 0x3A71 JUMP JUMPDEST POP PUSH1 0x3 SLOAD PUSH1 0x40 DUP1 MLOAD DUP1 DUP3 ADD SWAP1 SWAP2 MSTORE PUSH1 0x14 DUP2 MSTORE PUSH20 0x29BA3930BA32B3BC9034B99039B43ABA3237BBB7 PUSH1 0x61 SHL PUSH1 0x20 DUP3 ADD MSTORE SWAP1 PUSH1 0x1 PUSH1 0xA0 SHL SWAP1 DIV PUSH1 0xFF AND ISZERO PUSH2 0x201E JUMPI PUSH1 0x40 MLOAD PUSH3 0x461BCD PUSH1 0xE5 SHL DUP2 MSTORE PUSH1 0x4 ADD PUSH2 0x8AB SWAP2 SWAP1 PUSH2 0x3A71 JUMP JUMPDEST POP PUSH1 0x3 DUP1 SLOAD PUSH1 0xFF PUSH1 0xA0 SHL NOT AND PUSH1 0x1 PUSH1 0xA0 SHL OR SWAP1 SSTORE PUSH1 0x40 MLOAD PUSH32 0x4426AA1FB73E391071491FCFE21A88B5C38A0A0333A1F6E77161470439704CF8 SWAP1 PUSH1 0x0 SWAP1 LOG1 JUMP JUMPDEST PUSH1 0x40 MLOAD PUSH4 0x21F8A721 PUSH1 0xE0 SHL DUP2 MSTORE PUSH11 0x3937B632A6B0B730B3B2B9 PUSH1 0xA9 SHL PUSH1 0x4 DUP3 ADD MSTORE PUSH1 0x0 SWAP1 PUSH1 0x1 PUSH1 0x1 PUSH1 0xA0 SHL SUB DUP4 AND SWAP1 PUSH4 0x21F8A721 SWAP1 PUSH1 0x24 ADD JUMPDEST PUSH1 0x20 PUSH1 0x40 MLOAD DUP1 DUP4 SUB DUP2 DUP7 GAS STATICCALL ISZERO DUP1 ISZERO PUSH2 0x20B3 JUMPI RETURNDATASIZE PUSH1 0x0 DUP1 RETURNDATACOPY RETURNDATASIZE PUSH1 0x0 REVERT JUMPDEST POP POP POP POP PUSH1 0x40 MLOAD RETURNDATASIZE PUSH1 0x1F NOT PUSH1 0x1F DUP3 ADD AND DUP3 ADD DUP1 PUSH1 0x40 MSTORE POP DUP2 ADD SWAP1 PUSH2 0x20D7 SWAP2 SWAP1 PUSH2 0x3C57 JUMP JUMPDEST SWAP3 SWAP2 POP POP JUMP JUMPDEST PUSH1 0x40 MLOAD PUSH4 0x21F8A721 PUSH1 0xE0 SHL DUP2 MSTORE PUSH13 0x39BBB0B83832B92937BABA32B9 PUSH1 0x99 SHL PUSH1 0x4 DUP3 ADD MSTORE PUSH1 0x0 SWAP1 PUSH1 0x1 PUSH1 0x1 PUSH1 0xA0 SHL SUB DUP4 AND SWAP1 PUSH4 0x21F8A721 SWAP1 PUSH1 0x24 ADD PUSH2 0x2096 JUMP JUMPDEST DUP1 ISZERO DUP1 PUSH2 0x2196 JUMPI POP PUSH1 0x40 MLOAD PUSH4 0x6EB1769F PUSH1 0xE1 SHL DUP2 MSTORE ADDRESS PUSH1 0x4 DUP3 ADD MSTORE PUSH1 0x1 PUSH1 0x1 PUSH1 0xA0 SHL SUB DUP4 DUP2 AND PUSH1 0x24 DUP4 ADD MSTORE DUP5 AND SWAP1 PUSH4 0xDD62ED3E SWAP1 PUSH1 0x44 ADD PUSH1 0x20 PUSH1 0x40 MLOAD DUP1 DUP4 SUB DUP2 DUP7 GAS STATICCALL ISZERO DUP1 ISZERO PUSH2 0x2170 JUMPI RETURNDATASIZE PUSH1 0x0 DUP1 RETURNDATACOPY RETURNDATASIZE PUSH1 0x0 REVERT JUMPDEST POP POP POP POP PUSH1 0x40 MLOAD RETURNDATASIZE PUSH1 0x1F NOT PUSH1 0x1F DUP3 ADD AND DUP3 ADD DUP1 PUSH1 0x40 MSTORE POP DUP2 ADD SWAP1 PUSH2 0x2194 SWAP2 SWAP1 PUSH2 0x3BA2 JUMP JUMPDEST ISZERO JUMPDEST PUSH2 0x2201 JUMPI PUSH1 0x40 MLOAD PUSH3 0x461BCD PUSH1 0xE5 SHL DUP2 MSTORE PUSH1 0x20 PUSH1 0x4 DUP3 ADD MSTORE PUSH1 0x36 PUSH1 0x24 DUP3 ADD MSTORE PUSH32 0x5361666545524332303A20617070726F76652066726F6D206E6F6E2D7A65726F PUSH1 0x44 DUP3 ADD MSTORE PUSH22 0x20746F206E6F6E2D7A65726F20616C6C6F77616E6365 PUSH1 0x50 SHL PUSH1 0x64 DUP3 ADD MSTORE PUSH1 0x84 ADD PUSH2 0x8AB JUMP JUMPDEST PUSH1 0x40 MLOAD PUSH1 0x1 PUSH1 0x1 PUSH1 0xA0 SHL SUB DUP4 AND PUSH1 0x24 DUP3 ADD MSTORE PUSH1 0x44 DUP2 ADD DUP3 SWAP1 MSTORE PUSH2 0x2264 SWAP1 DUP5 SWAP1 PUSH4 0x95EA7B3 PUSH1 0xE0 SHL SWAP1 PUSH1 0x64 ADD JUMPDEST PUSH1 0x40 DUP1 MLOAD PUSH1 0x1F NOT DUP2 DUP5 SUB ADD DUP2 MSTORE SWAP2 SWAP1 MSTORE PUSH1 0x20 DUP2 ADD DUP1 MLOAD PUSH1 0x1 PUSH1 0x1 PUSH1 0xE0 SHL SUB AND PUSH1 0x1 PUSH1 0x1 PUSH1 0xE0 SHL SUB NOT SWAP1 SWAP4 AND SWAP3 SWAP1 SWAP3 OR SWAP1 SWAP2 MSTORE PUSH2 0x3278 JUMP JUMPDEST POP POP POP JUMP JUMPDEST PUSH1 0x60 PUSH2 0x2278 DUP5 DUP5 PUSH1 0x0 DUP6 PUSH2 0x334A JUMP JUMPDEST SWAP1 POP JUMPDEST SWAP4 SWAP3 POP POP POP JUMP JUMPDEST PUSH1 0x0 PUSH2 0x227B DUP4 PUSH1 0x1 PUSH1 0x1 PUSH1 0xA0 SHL SUB DUP5 AND PUSH2 0x347B JUMP JUMPDEST PUSH1 0x0 PUSH2 0x7C4 PUSH32 0x0 PUSH1 0x1 PUSH1 0x1 PUSH1 0xA0 SHL SUB AND PUSH2 0x20DD JUMP JUMPDEST PUSH1 0x0 PUSH2 0x22D5 PUSH2 0x2CDC JUMP JUMPDEST SWAP1 POP DUP2 DUP2 LT PUSH2 0x234C JUMPI PUSH1 0x3 SLOAD PUSH2 0x2315 SWAP1 PUSH1 0x1 PUSH1 0x1 PUSH1 0xA0 SHL SUB AND PUSH32 0x0 DUP5 PUSH2 0x34CA JUMP JUMPDEST PUSH1 0x40 MLOAD DUP3 DUP2 MSTORE PUSH32 0x5B6B431D4476A211BB7D41C20D1AAB9AE2321DEEE0D20BE3D9FC9B1093FA6E3D SWAP1 PUSH1 0x20 ADD PUSH1 0x40 MLOAD DUP1 SWAP2 SUB SWAP1 LOG1 POP POP JUMP JUMPDEST DUP1 DUP3 SUB PUSH1 0x0 PUSH2 0x235A DUP3 PUSH2 0x34FA JUMP JUMPDEST SWAP1 POP PUSH1 0x0 PUSH2 0x2366 PUSH2 0x2A57 JUMP JUMPDEST PUSH2 0x2370 SWAP1 DUP4 PUSH2 0x3C28 JUMP JUMPDEST SWAP1 POP PUSH1 0x0 PUSH2 0x237D DUP3 PUSH2 0x351E JUMP JUMPDEST SWAP1 POP PUSH1 0x0 PUSH2 0x2389 PUSH2 0x2AE3 JUMP JUMPDEST PUSH2 0x2393 SWAP1 DUP4 PUSH2 0x3C28 JUMP JUMPDEST PUSH1 0x9 SLOAD PUSH1 0x40 MLOAD PUSH4 0x61973901 PUSH1 0xE1 SHL DUP2 MSTORE PUSH1 0x4 DUP2 ADD DUP4 SWAP1 MSTORE PUSH1 0x0 PUSH1 0x24 DUP3 ADD MSTORE SWAP2 SWAP3 POP PUSH1 0x1 PUSH1 0x1 PUSH1 0xA0 SHL SUB AND SWAP1 PUSH4 0xC32E7202 SWAP1 PUSH1 0x44 ADD PUSH1 0x20 PUSH1 0x40 MLOAD DUP1 DUP4 SUB DUP2 PUSH1 0x0 DUP8 GAS CALL ISZERO DUP1 ISZERO PUSH2 0x23E6 JUMPI RETURNDATASIZE PUSH1 0x0 DUP1 RETURNDATACOPY RETURNDATASIZE PUSH1 0x0 REVERT JUMPDEST POP POP POP POP PUSH1 0x40 MLOAD RETURNDATASIZE PUSH1 0x1F NOT PUSH1 0x1F DUP3 ADD AND DUP3 ADD DUP1 PUSH1 0x40 MSTORE POP DUP2 ADD SWAP1 PUSH2 0x240A SWAP2 SWAP1 PUSH2 0x3B87 JUMP JUMPDEST PUSH2 0x2417 JUMPI POP POP POP POP POP POP POP JUMP JUMPDEST PUSH2 0x241F PUSH2 0x3A05 JUMP JUMPDEST DUP4 DUP2 PUSH1 0xD SLOAD PUSH1 0x2 DUP2 LT PUSH2 0x2434 JUMPI PUSH2 0x2434 PUSH2 0x3CF6 JUMP JUMPDEST PUSH1 0x20 MUL ADD MSTORE PUSH1 0xB SLOAD PUSH1 0x40 MLOAD PUSH4 0xE3103273 PUSH1 0xE0 SHL DUP2 MSTORE PUSH1 0x1 PUSH1 0x1 PUSH1 0xA0 SHL SUB SWAP1 SWAP2 AND SWAP1 PUSH4 0xE3103273 SWAP1 PUSH2 0x246B SWAP1 DUP5 SWAP1 DUP8 SWAP1 PUSH1 0x4 ADD PUSH2 0x3D0C JUMP JUMPDEST PUSH1 0x0 PUSH1 0x40 MLOAD DUP1 DUP4 SUB DUP2 PUSH1 0x0 DUP8 DUP1 EXTCODESIZE ISZERO DUP1 ISZERO PUSH2 0x2485 JUMPI PUSH1 0x0 DUP1 REVERT JUMPDEST POP GAS CALL ISZERO DUP1 ISZERO PUSH2 0x2499 JUMPI RETURNDATASIZE PUSH1 0x0 DUP1 RETURNDATACOPY RETURNDATASIZE PUSH1 0x0 REVERT JUMPDEST POP POP POP POP PUSH2 0x24A5 PUSH2 0x3A23 JUMP JUMPDEST DUP7 DUP2 PUSH32 0x0 PUSH1 0x3 DUP2 LT PUSH2 0x24D8 JUMPI PUSH2 0x24D8 PUSH2 0x3CF6 JUMP JUMPDEST PUSH1 0x20 MUL ADD MSTORE PUSH1 0x40 MLOAD PUSH4 0x27F6BA83 PUSH1 0xE2 SHL DUP2 MSTORE PUSH1 0x1 PUSH1 0x1 PUSH1 0xA0 SHL SUB PUSH32 0x0 AND SWAP1 PUSH4 0x9FDAEA0C SWAP1 PUSH2 0x252B SWAP1 DUP5 SWAP1 DUP11 SWAP1 PUSH1 0x4 ADD PUSH2 0x3D44 JUMP JUMPDEST PUSH1 0x0 PUSH1 0x40 MLOAD DUP1 DUP4 SUB DUP2 PUSH1 0x0 DUP8 DUP1 EXTCODESIZE ISZERO DUP1 ISZERO PUSH2 0x2545 JUMPI PUSH1 0x0 DUP1 REVERT JUMPDEST POP GAS CALL ISZERO DUP1 ISZERO PUSH2 0x2559 JUMPI RETURNDATASIZE PUSH1 0x0 DUP1 RETURNDATACOPY RETURNDATASIZE PUSH1 0x0 REVERT JUMPDEST POP POP PUSH1 0x3 SLOAD PUSH2 0x2595 SWAP3 POP PUSH1 0x1 PUSH1 0x1 PUSH1 0xA0 SHL SUB AND SWAP1 POP PUSH32 0x0 DUP12 PUSH2 0x34CA JUMP JUMPDEST POP POP POP POP POP POP POP POP POP JUMP JUMPDEST PUSH1 0x0 DUP2 DUP4 DUP2 PUSH2 0x25B1 JUMPI PUSH2 0x25B1 PUSH2 0x3BF0 JUMP JUMPDEST DIV SWAP4 SWAP3 POP POP POP JUMP JUMPDEST PUSH1 0x0 PUSH2 0x227B DUP4 PUSH1 0x1 PUSH1 0x1 PUSH1 0xA0 SHL SUB DUP5 AND PUSH2 0x3542 JUMP JUMPDEST PUSH1 0x0 DUP1 PUSH2 0x25D9 PUSH2 0x2CDC JUMP JUMPDEST SWAP1 POP PUSH1 0x9 PUSH1 0x0 SWAP1 SLOAD SWAP1 PUSH2 0x100 EXP SWAP1 DIV PUSH1 0x1 PUSH1 0x1 PUSH1 0xA0 SHL SUB AND PUSH1 0x1 PUSH1 0x1 PUSH1 0xA0 SHL SUB AND PUSH4 0x3D18B912 PUSH1 0x40 MLOAD DUP2 PUSH4 0xFFFFFFFF AND PUSH1 0xE0 SHL DUP2 MSTORE PUSH1 0x4 ADD PUSH1 0x0 PUSH1 0x40 MLOAD DUP1 DUP4 SUB DUP2 PUSH1 0x0 DUP8 DUP1 EXTCODESIZE ISZERO DUP1 ISZERO PUSH2 0x262B JUMPI PUSH1 0x0 DUP1 REVERT JUMPDEST POP GAS CALL ISZERO DUP1 ISZERO PUSH2 0x263F JUMPI RETURNDATASIZE PUSH1 0x0 DUP1 RETURNDATACOPY RETURNDATASIZE PUSH1 0x0 REVERT JUMPDEST POP POP POP POP PUSH2 0x264B PUSH2 0x3635 JUMP JUMPDEST PUSH1 0x0 PUSH2 0x2655 PUSH2 0x2297 JUMP JUMPDEST PUSH1 0x40 MLOAD PUSH4 0x3FF37E8F PUSH1 0xE0 SHL DUP2 MSTORE PUSH20 0x4E3FBD56CD56C3E72C1403E103B45DB9DA5B9D2B PUSH1 0x4 DUP3 ADD MSTORE PUSH20 0xC02AAA39B223FE8D0A0E5C4F27EAD9083C756CC2 PUSH1 0x24 DUP3 ADD MSTORE SWAP1 SWAP2 POP PUSH1 0x1 PUSH1 0x1 PUSH1 0xA0 SHL SUB DUP3 AND SWAP1 PUSH4 0x3FF37E8F SWAP1 PUSH1 0x44 ADD PUSH1 0x20 PUSH1 0x40 MLOAD DUP1 DUP4 SUB DUP2 PUSH1 0x0 DUP8 GAS CALL ISZERO DUP1 ISZERO PUSH2 0x26CC JUMPI RETURNDATASIZE PUSH1 0x0 DUP1 RETURNDATACOPY RETURNDATASIZE PUSH1 0x0 REVERT JUMPDEST POP POP POP POP PUSH1 0x40 MLOAD RETURNDATASIZE PUSH1 0x1F NOT PUSH1 0x1F DUP3 ADD AND DUP3 ADD DUP1 PUSH1 0x40 MSTORE POP DUP2 ADD SWAP1 PUSH2 0x26F0 SWAP2 SWAP1 PUSH2 0x3BA2 JUMP JUMPDEST POP PUSH1 0x40 MLOAD PUSH4 0x3FF37E8F PUSH1 0xE0 SHL DUP2 MSTORE PUSH20 0xD533A949740BB3306D119CC777FA900BA034CD52 PUSH1 0x4 DUP3 ADD MSTORE PUSH20 0xC02AAA39B223FE8D0A0E5C4F27EAD9083C756CC2 PUSH1 0x24 DUP3 ADD MSTORE PUSH1 0x1 PUSH1 0x1 PUSH1 0xA0 SHL SUB DUP3 AND SWAP1 PUSH4 0x3FF37E8F SWAP1 PUSH1 0x44 ADD PUSH1 0x20 PUSH1 0x40 MLOAD DUP1 DUP4 SUB DUP2 PUSH1 0x0 DUP8 GAS CALL ISZERO DUP1 ISZERO PUSH2 0x2765 JUMPI RETURNDATASIZE PUSH1 0x0 DUP1 RETURNDATACOPY RETURNDATASIZE PUSH1 0x0 REVERT JUMPDEST POP POP POP POP PUSH1 0x40 MLOAD RETURNDATASIZE PUSH1 0x1F NOT PUSH1 0x1F DUP3 ADD AND DUP3 ADD DUP1 PUSH1 0x40 MSTORE POP DUP2 ADD SWAP1 PUSH2 0x2789 SWAP2 SWAP1 PUSH2 0x3BA2 JUMP JUMPDEST POP PUSH1 0x0 PUSH2 0x2796 PUSH1 0x1 PUSH2 0x30CA JUMP JUMPDEST SWAP1 POP PUSH1 0x0 JUMPDEST DUP2 DUP2 LT ISZERO PUSH2 0x284A JUMPI PUSH1 0x1 PUSH1 0x1 PUSH1 0xA0 SHL SUB DUP4 AND PUSH4 0x3FF37E8F PUSH2 0x27BD PUSH1 0x1 DUP5 PUSH2 0x3792 JUMP JUMPDEST PUSH1 0x40 MLOAD PUSH1 0x1 PUSH1 0x1 PUSH1 0xE0 SHL SUB NOT PUSH1 0xE0 DUP5 SWAP1 SHL AND DUP2 MSTORE PUSH1 0x1 PUSH1 0x1 PUSH1 0xA0 SHL SUB SWAP1 SWAP2 AND PUSH1 0x4 DUP3 ADD MSTORE PUSH20 0xC02AAA39B223FE8D0A0E5C4F27EAD9083C756CC2 PUSH1 0x24 DUP3 ADD MSTORE PUSH1 0x44 ADD PUSH1 0x20 PUSH1 0x40 MLOAD DUP1 DUP4 SUB DUP2 PUSH1 0x0 DUP8 GAS CALL ISZERO DUP1 ISZERO PUSH2 0x281D JUMPI RETURNDATASIZE PUSH1 0x0 DUP1 RETURNDATACOPY RETURNDATASIZE PUSH1 0x0 REVERT JUMPDEST POP POP POP POP PUSH1 0x40 MLOAD RETURNDATASIZE PUSH1 0x1F NOT PUSH1 0x1F DUP3 ADD AND DUP3 ADD DUP1 PUSH1 0x40 MSTORE POP DUP2 ADD SWAP1 PUSH2 0x2841 SWAP2 SWAP1 PUSH2 0x3BA2 JUMP JUMPDEST POP PUSH1 0x1 ADD PUSH2 0x279B JUMP JUMPDEST POP PUSH1 0x3 SLOAD PUSH1 0x40 MLOAD PUSH4 0x3FF37E8F PUSH1 0xE0 SHL DUP2 MSTORE PUSH20 0xC02AAA39B223FE8D0A0E5C4F27EAD9083C756CC2 PUSH1 0x4 DUP3 ADD MSTORE PUSH1 0x1 PUSH1 0x1 PUSH1 0xA0 SHL SUB SWAP2 DUP3 AND PUSH1 0x24 DUP3 ADD MSTORE SWAP1 DUP4 AND SWAP1 PUSH4 0x3FF37E8F SWAP1 PUSH1 0x44 ADD PUSH1 0x20 PUSH1 0x40 MLOAD DUP1 DUP4 SUB DUP2 PUSH1 0x0 DUP8 GAS CALL ISZERO DUP1 ISZERO PUSH2 0x28B1 JUMPI RETURNDATASIZE PUSH1 0x0 DUP1 RETURNDATACOPY RETURNDATASIZE PUSH1 0x0 REVERT JUMPDEST POP POP POP POP PUSH1 0x40 MLOAD RETURNDATASIZE PUSH1 0x1F NOT PUSH1 0x1F DUP3 ADD AND DUP3 ADD DUP1 PUSH1 0x40 MSTORE POP DUP2 ADD SWAP1 PUSH2 0x28D5 SWAP2 SWAP1 PUSH2 0x3BA2 JUMP JUMPDEST POP PUSH1 0x0 DUP4 PUSH2 0x28E1 PUSH2 0x2CDC JUMP JUMPDEST PUSH2 0x28EB SWAP2 SWAP1 PUSH2 0x3C28 JUMP JUMPDEST SWAP1 POP PUSH32 0x80F97F878E16410266694F134DDF012F2BE424F54F8B5CAFA107ECCC51D00D58 DUP2 PUSH1 0x40 MLOAD PUSH2 0x291E SWAP2 DUP2 MSTORE PUSH1 0x20 ADD SWAP1 JUMP JUMPDEST PUSH1 0x40 MLOAD DUP1 SWAP2 SUB SWAP1 LOG1 SWAP5 SWAP4 POP POP POP POP JUMP JUMPDEST PUSH1 0x0 PUSH2 0x2938 PUSH2 0x3154 JUMP JUMPDEST PUSH1 0x0 PUSH2 0x2942 PUSH2 0x2A57 JUMP JUMPDEST SWAP1 POP DUP1 ISZERO PUSH2 0x2A06 JUMPI PUSH32 0x0 PUSH1 0x1 PUSH1 0x1 PUSH1 0xA0 SHL SUB AND PUSH4 0x1A4D01D2 DUP3 PUSH32 0x0 PUSH2 0x29A4 DUP6 PUSH2 0x379E JUMP JUMPDEST PUSH1 0x40 MLOAD PUSH1 0x1 PUSH1 0x1 PUSH1 0xE0 SHL SUB NOT PUSH1 0xE0 DUP7 SWAP1 SHL AND DUP2 MSTORE PUSH1 0x4 DUP2 ADD SWAP4 SWAP1 SWAP4 MSTORE PUSH1 0xF SWAP2 SWAP1 SWAP2 SIGNEXTEND PUSH1 0x24 DUP4 ADD MSTORE PUSH1 0x44 DUP3 ADD MSTORE PUSH1 0x64 ADD PUSH1 0x0 PUSH1 0x40 MLOAD DUP1 DUP4 SUB DUP2 PUSH1 0x0 DUP8 DUP1 EXTCODESIZE ISZERO DUP1 ISZERO PUSH2 0x29ED JUMPI PUSH1 0x0 DUP1 REVERT JUMPDEST POP GAS CALL ISZERO DUP1 ISZERO PUSH2 0x2A01 JUMPI RETURNDATASIZE PUSH1 0x0 DUP1 RETURNDATACOPY RETURNDATASIZE PUSH1 0x0 REVERT JUMPDEST POP POP POP POP JUMPDEST PUSH1 0x0 PUSH2 0x2A10 PUSH2 0x2CDC JUMP JUMPDEST SWAP1 POP DUP1 PUSH2 0x2A20 JUMPI PUSH1 0x0 SWAP3 POP POP POP SWAP1 JUMP JUMPDEST PUSH1 0x3 SLOAD PUSH2 0x20D7 SWAP1 PUSH1 0x1 PUSH1 0x1 PUSH1 0xA0 SHL SUB AND PUSH32 0x0 DUP4 PUSH2 0x34CA JUMP JUMPDEST PUSH1 0x40 MLOAD PUSH4 0x70A08231 PUSH1 0xE0 SHL DUP2 MSTORE ADDRESS PUSH1 0x4 DUP3 ADD MSTORE PUSH1 0x0 SWAP1 PUSH32 0x0 PUSH1 0x1 PUSH1 0x1 PUSH1 0xA0 SHL SUB AND SWAP1 PUSH4 0x70A08231 SWAP1 PUSH1 0x24 ADD JUMPDEST PUSH1 0x20 PUSH1 0x40 MLOAD DUP1 DUP4 SUB DUP2 DUP7 GAS STATICCALL ISZERO DUP1 ISZERO PUSH2 0x2ABF JUMPI RETURNDATASIZE PUSH1 0x0 DUP1 RETURNDATACOPY RETURNDATASIZE PUSH1 0x0 REVERT JUMPDEST POP POP POP POP PUSH1 0x40 MLOAD RETURNDATASIZE PUSH1 0x1F NOT PUSH1 0x1F DUP3 ADD AND DUP3 ADD DUP1 PUSH1 0x40 MSTORE POP DUP2 ADD SWAP1 PUSH2 0x7C4 SWAP2 SWAP1 PUSH2 0x3BA2 JUMP JUMPDEST PUSH1 0xA SLOAD PUSH1 0x40 MLOAD PUSH4 0x70A08231 PUSH1 0xE0 SHL DUP2 MSTORE ADDRESS PUSH1 0x4 DUP3 ADD MSTORE PUSH1 0x0 SWAP2 PUSH1 0x1 PUSH1 0x1 PUSH1 0xA0 SHL SUB AND SWAP1 PUSH4 0x70A08231 SWAP1 PUSH1 0x24 ADD PUSH2 0x2AA2 JUMP JUMPDEST PUSH1 0x9 SLOAD PUSH1 0x40 MLOAD PUSH4 0x70A08231 PUSH1 0xE0 SHL DUP2 MSTORE ADDRESS PUSH1 0x4 DUP3 ADD MSTORE PUSH1 0x0 SWAP2 PUSH1 0x1 PUSH1 0x1 PUSH1 0xA0 SHL SUB AND SWAP1 PUSH4 0x70A08231 SWAP1 PUSH1 0x24 ADD PUSH2 0x2AA2 JUMP JUMPDEST PUSH1 0x0 PUSH2 0x20D7 PUSH32 0x0 PUSH1 0x1 PUSH1 0x1 PUSH1 0xA0 SHL SUB AND PUSH4 0xBB7B8B80 PUSH1 0x40 MLOAD DUP2 PUSH4 0xFFFFFFFF AND PUSH1 0xE0 SHL DUP2 MSTORE PUSH1 0x4 ADD PUSH1 0x20 PUSH1 0x40 MLOAD DUP1 DUP4 SUB DUP2 DUP7 GAS STATICCALL ISZERO DUP1 ISZERO PUSH2 0x2BA8 JUMPI RETURNDATASIZE PUSH1 0x0 DUP1 RETURNDATACOPY RETURNDATASIZE PUSH1 0x0 REVERT JUMPDEST POP POP POP POP PUSH1 0x40 MLOAD RETURNDATASIZE PUSH1 0x1F NOT PUSH1 0x1F DUP3 ADD AND DUP3 ADD DUP1 PUSH1 0x40 MSTORE POP DUP2 ADD SWAP1 PUSH2 0x2BCC SWAP2 SWAP1 PUSH2 0x3BA2 JUMP JUMPDEST PUSH1 0xB SLOAD PUSH1 0x40 DUP1 MLOAD PUSH4 0x176F717 PUSH1 0xE7 SHL DUP2 MSTORE SWAP1 MLOAD PUSH2 0x2C42 SWAP3 PUSH1 0x1 PUSH1 0x1 PUSH1 0xA0 SHL SUB AND SWAP2 PUSH4 0xBB7B8B80 SWAP2 PUSH1 0x4 DUP1 DUP4 ADD SWAP3 PUSH1 0x20 SWAP3 SWAP2 SWAP1 DUP3 SWAP1 SUB ADD DUP2 DUP7 GAS STATICCALL ISZERO DUP1 ISZERO PUSH2 0x2C17 JUMPI RETURNDATASIZE PUSH1 0x0 DUP1 RETURNDATACOPY RETURNDATASIZE PUSH1 0x0 REVERT JUMPDEST POP POP POP POP PUSH1 0x40 MLOAD RETURNDATASIZE PUSH1 0x1F NOT PUSH1 0x1F DUP3 ADD AND DUP3 ADD DUP1 PUSH1 0x40 MSTORE POP DUP2 ADD SWAP1 PUSH2 0x2C3B SWAP2 SWAP1 PUSH2 0x3BA2 JUMP JUMPDEST DUP6 SWAP1 PUSH2 0x3025 JUMP JUMPDEST SWAP1 PUSH2 0x37C2 JUMP JUMPDEST PUSH1 0x0 PUSH2 0x20D7 PUSH32 0x0 PUSH1 0x1 PUSH1 0x1 PUSH1 0xA0 SHL SUB AND PUSH4 0xBB7B8B80 PUSH1 0x40 MLOAD DUP2 PUSH4 0xFFFFFFFF AND PUSH1 0xE0 SHL DUP2 MSTORE PUSH1 0x4 ADD PUSH1 0x20 PUSH1 0x40 MLOAD DUP1 DUP4 SUB DUP2 DUP7 GAS STATICCALL ISZERO DUP1 ISZERO PUSH2 0x2CAB JUMPI RETURNDATASIZE PUSH1 0x0 DUP1 RETURNDATACOPY RETURNDATASIZE PUSH1 0x0 REVERT JUMPDEST POP POP POP POP PUSH1 0x40 MLOAD RETURNDATASIZE PUSH1 0x1F NOT PUSH1 0x1F DUP3 ADD AND DUP3 ADD DUP1 PUSH1 0x40 MSTORE POP DUP2 ADD SWAP1 PUSH2 0x2CCF SWAP2 SWAP1 PUSH2 0x3BA2 JUMP JUMPDEST PUSH1 0x10 SLOAD PUSH2 0x177F SWAP1 DUP6 PUSH2 0x3C06 JUMP JUMPDEST PUSH1 0x3 SLOAD PUSH1 0x40 MLOAD PUSH4 0x70A08231 PUSH1 0xE0 SHL DUP2 MSTORE ADDRESS PUSH1 0x4 DUP3 ADD MSTORE PUSH1 0x0 SWAP2 PUSH1 0x1 PUSH1 0x1 PUSH1 0xA0 SHL SUB AND SWAP1 PUSH4 0x70A08231 SWAP1 PUSH1 0x24 ADD PUSH2 0x2AA2 JUMP JUMPDEST PUSH1 0x60 PUSH1 0x0 PUSH2 0x2D1A DUP4 PUSH2 0x30CA JUMP JUMPDEST SWAP1 POP PUSH1 0x0 DUP2 PUSH8 0xFFFFFFFFFFFFFFFF DUP2 GT ISZERO PUSH2 0x2D37 JUMPI PUSH2 0x2D37 PUSH2 0x3D7C JUMP JUMPDEST PUSH1 0x40 MLOAD SWAP1 DUP1 DUP3 MSTORE DUP1 PUSH1 0x20 MUL PUSH1 0x20 ADD DUP3 ADD PUSH1 0x40 MSTORE DUP1 ISZERO PUSH2 0x2D60 JUMPI DUP2 PUSH1 0x20 ADD PUSH1 0x20 DUP3 MUL DUP1 CALLDATASIZE DUP4 CALLDATACOPY ADD SWAP1 POP JUMPDEST POP SWAP1 POP PUSH1 0x0 JUMPDEST DUP3 DUP2 LT ISZERO PUSH2 0x2DAA JUMPI PUSH2 0x2D78 DUP6 DUP3 PUSH2 0x3792 JUMP JUMPDEST DUP3 DUP3 DUP2 MLOAD DUP2 LT PUSH2 0x2D8A JUMPI PUSH2 0x2D8A PUSH2 0x3CF6 JUMP JUMPDEST PUSH1 0x1 PUSH1 0x1 PUSH1 0xA0 SHL SUB SWAP1 SWAP3 AND PUSH1 0x20 SWAP3 DUP4 MUL SWAP2 SWAP1 SWAP2 ADD SWAP1 SWAP2 ADD MSTORE PUSH1 0x1 ADD PUSH2 0x2D66 JUMP JUMPDEST POP SWAP4 SWAP3 POP POP POP JUMP JUMPDEST PUSH1 0x40 DUP1 MLOAD DUP1 DUP3 ADD SWAP1 SWAP2 MSTORE PUSH1 0x11 DUP2 MSTORE PUSH17 0x696E76616C6964206D73672E76616C7565 PUSH1 0x78 SHL PUSH1 0x20 DUP3 ADD MSTORE PUSH1 0x0 SWAP1 CALLVALUE ISZERO PUSH2 0x2DFC JUMPI PUSH1 0x40 MLOAD PUSH3 0x461BCD PUSH1 0xE5 SHL DUP2 MSTORE PUSH1 0x4 ADD PUSH2 0x8AB SWAP2 SWAP1 PUSH2 0x3A71 JUMP JUMPDEST POP PUSH1 0x0 PUSH2 0x2E07 PUSH2 0x2CDC JUMP JUMPDEST SWAP1 POP DUP1 ISZERO PUSH2 0x2ED9 JUMPI PUSH2 0x2E17 PUSH2 0x3A23 JUMP JUMPDEST DUP2 DUP2 PUSH32 0x0 PUSH1 0x3 DUP2 LT PUSH2 0x2E4A JUMPI PUSH2 0x2E4A PUSH2 0x3CF6 JUMP JUMPDEST PUSH1 0x20 MUL ADD MSTORE PUSH1 0x1 PUSH1 0x1 PUSH1 0xA0 SHL SUB PUSH32 0x0 AND PUSH4 0x4515CEF3 DUP3 PUSH2 0x2E88 DUP6 PUSH2 0x37D7 JUMP JUMPDEST PUSH1 0x40 MLOAD DUP4 PUSH4 0xFFFFFFFF AND PUSH1 0xE0 SHL DUP2 MSTORE PUSH1 0x4 ADD PUSH2 0x2EA5 SWAP3 SWAP2 SWAP1 PUSH2 0x3D44 JUMP JUMPDEST PUSH1 0x0 PUSH1 0x40 MLOAD DUP1 DUP4 SUB DUP2 PUSH1 0x0 DUP8 DUP1 EXTCODESIZE ISZERO DUP1 ISZERO PUSH2 0x2EBF JUMPI PUSH1 0x0 DUP1 REVERT JUMPDEST POP GAS CALL ISZERO DUP1 ISZERO PUSH2 0x2ED3 JUMPI RETURNDATASIZE PUSH1 0x0 DUP1 RETURNDATACOPY RETURNDATASIZE PUSH1 0x0 REVERT JUMPDEST POP POP POP POP POP JUMPDEST PUSH1 0x0 PUSH2 0x2EE3 PUSH2 0x2A57 JUMP JUMPDEST SWAP1 POP DUP1 ISZERO PUSH2 0x2F79 JUMPI PUSH2 0x2EF3 PUSH2 0x3A05 JUMP JUMPDEST DUP2 DUP2 PUSH1 0xD SLOAD PUSH1 0x2 DUP2 LT PUSH2 0x2F08 JUMPI PUSH2 0x2F08 PUSH2 0x3CF6 JUMP JUMPDEST PUSH1 0x20 MUL ADD MSTORE PUSH1 0xB SLOAD PUSH1 0x1 PUSH1 0x1 PUSH1 0xA0 SHL SUB AND PUSH4 0xB4C7E4D DUP3 PUSH2 0x2F28 DUP6 PUSH2 0x37F2 JUMP JUMPDEST PUSH1 0x40 MLOAD DUP4 PUSH4 0xFFFFFFFF AND PUSH1 0xE0 SHL DUP2 MSTORE PUSH1 0x4 ADD PUSH2 0x2F45 SWAP3 SWAP2 SWAP1 PUSH2 0x3D0C JUMP JUMPDEST PUSH1 0x0 PUSH1 0x40 MLOAD DUP1 DUP4 SUB DUP2 PUSH1 0x0 DUP8 DUP1 EXTCODESIZE ISZERO DUP1 ISZERO PUSH2 0x2F5F JUMPI PUSH1 0x0 DUP1 REVERT JUMPDEST POP GAS CALL ISZERO DUP1 ISZERO PUSH2 0x2F73 JUMPI RETURNDATASIZE PUSH1 0x0 DUP1 RETURNDATACOPY RETURNDATASIZE PUSH1 0x0 REVERT JUMPDEST POP POP POP POP POP JUMPDEST PUSH2 0x2F81 PUSH2 0x2AE3 JUMP JUMPDEST PUSH2 0x2F8E JUMPI PUSH1 0x0 SWAP3 POP POP POP SWAP1 JUMP JUMPDEST PUSH1 0xC SLOAD PUSH1 0x40 MLOAD PUSH4 0x303ACFE7 PUSH1 0xE1 SHL DUP2 MSTORE PUSH1 0x4 DUP2 ADD SWAP2 SWAP1 SWAP2 MSTORE PUSH1 0x1 PUSH1 0x24 DUP3 ADD MSTORE PUSH20 0xF403C135812408BFBE8713B5A23A04B3D48AAE31 SWAP1 PUSH4 0x60759FCE SWAP1 PUSH1 0x44 ADD PUSH1 0x20 PUSH1 0x40 MLOAD DUP1 DUP4 SUB DUP2 PUSH1 0x0 DUP8 GAS CALL ISZERO DUP1 ISZERO PUSH2 0x2FEB JUMPI RETURNDATASIZE PUSH1 0x0 DUP1 RETURNDATACOPY RETURNDATASIZE PUSH1 0x0 REVERT JUMPDEST POP POP POP POP PUSH1 0x40 MLOAD RETURNDATASIZE PUSH1 0x1F NOT PUSH1 0x1F DUP3 ADD AND DUP3 ADD DUP1 PUSH1 0x40 MSTORE POP DUP2 ADD SWAP1 PUSH2 0x300F SWAP2 SWAP1 PUSH2 0x3B87 JUMP JUMPDEST PUSH2 0x301C JUMPI PUSH1 0x0 SWAP3 POP POP POP SWAP1 JUMP JUMPDEST PUSH1 0x1 SWAP3 POP POP POP SWAP1 JUMP JUMPDEST PUSH1 0x0 PUSH8 0xDE0B6B3A7640000 PUSH2 0x303A DUP4 DUP6 PUSH2 0x3BD1 JUMP JUMPDEST PUSH2 0x227B SWAP2 SWAP1 PUSH2 0x3C06 JUMP JUMPDEST PUSH1 0x0 PUSH2 0x304E PUSH2 0x2297 JUMP JUMPDEST PUSH1 0x3 SLOAD PUSH1 0x40 MLOAD PUSH4 0x25503329 PUSH1 0xE1 SHL DUP2 MSTORE PUSH1 0x1 PUSH1 0x1 PUSH1 0xA0 SHL SUB DUP7 DUP2 AND PUSH1 0x4 DUP4 ADD MSTORE SWAP2 DUP3 AND PUSH1 0x24 DUP3 ADD MSTORE PUSH1 0x44 DUP2 ADD DUP6 SWAP1 MSTORE SWAP2 AND SWAP1 PUSH4 0x4AA06652 SWAP1 PUSH1 0x64 ADD PUSH1 0x20 PUSH1 0x40 MLOAD DUP1 DUP4 SUB DUP2 DUP7 GAS STATICCALL ISZERO DUP1 ISZERO PUSH2 0x30A6 JUMPI RETURNDATASIZE PUSH1 0x0 DUP1 RETURNDATACOPY RETURNDATASIZE PUSH1 0x0 REVERT JUMPDEST POP POP POP POP PUSH1 0x40 MLOAD RETURNDATASIZE PUSH1 0x1F NOT PUSH1 0x1F DUP3 ADD AND DUP3 ADD DUP1 PUSH1 0x40 MSTORE POP DUP2 ADD SWAP1 PUSH2 0x227B SWAP2 SWAP1 PUSH2 0x3BA2 JUMP JUMPDEST PUSH1 0x0 PUSH2 0x20D7 DUP3 SLOAD SWAP1 JUMP JUMPDEST PUSH1 0x40 MLOAD PUSH4 0x55B30B19 PUSH1 0xE0 SHL DUP2 MSTORE PUSH1 0x1 PUSH1 0x1 PUSH1 0xA0 SHL SUB DUP3 AND PUSH1 0x4 DUP3 ADD MSTORE PUSH20 0x90E00ACE148CA3B23AC1BC8C240C2A7DD9C2D7F5 SWAP1 PUSH4 0x55B30B19 SWAP1 PUSH1 0x24 ADD PUSH1 0x20 PUSH1 0x40 MLOAD DUP1 DUP4 SUB DUP2 DUP7 GAS STATICCALL ISZERO DUP1 ISZERO PUSH2 0x312C JUMPI RETURNDATASIZE PUSH1 0x0 DUP1 RETURNDATACOPY RETURNDATASIZE PUSH1 0x0 REVERT JUMPDEST POP POP POP POP PUSH1 0x40 MLOAD RETURNDATASIZE PUSH1 0x1F NOT PUSH1 0x1F DUP3 ADD AND DUP3 ADD DUP1 PUSH1 0x40 MSTORE POP DUP2 ADD SWAP1 PUSH2 0x3150 SWAP2 SWAP1 PUSH2 0x3BA2 JUMP JUMPDEST POP POP JUMP JUMPDEST PUSH1 0x0 PUSH2 0x315E PUSH2 0x2B14 JUMP JUMPDEST SWAP1 POP DUP1 ISZERO PUSH2 0x31DE JUMPI PUSH1 0x9 SLOAD PUSH1 0x40 MLOAD PUSH4 0x61973901 PUSH1 0xE1 SHL DUP2 MSTORE PUSH1 0x4 DUP2 ADD DUP4 SWAP1 MSTORE PUSH1 0x0 PUSH1 0x24 DUP3 ADD MSTORE PUSH1 0x1 PUSH1 0x1 PUSH1 0xA0 SHL SUB SWAP1 SWAP2 AND SWAP1 PUSH4 0xC32E7202 SWAP1 PUSH1 0x44 ADD PUSH1 0x20 PUSH1 0x40 MLOAD DUP1 DUP4 SUB DUP2 PUSH1 0x0 DUP8 GAS CALL ISZERO DUP1 ISZERO PUSH2 0x31B8 JUMPI RETURNDATASIZE PUSH1 0x0 DUP1 RETURNDATACOPY RETURNDATASIZE PUSH1 0x0 REVERT JUMPDEST POP POP POP POP PUSH1 0x40 MLOAD RETURNDATASIZE PUSH1 0x1F NOT PUSH1 0x1F DUP3 ADD AND DUP3 ADD DUP1 PUSH1 0x40 MSTORE POP DUP2 ADD SWAP1 PUSH2 0x31DC SWAP2 SWAP1 PUSH2 0x3B87 JUMP JUMPDEST POP JUMPDEST PUSH1 0x0 PUSH2 0x31E8 PUSH2 0x2AE3 JUMP JUMPDEST SWAP1 POP DUP1 ISZERO PUSH2 0x3150 JUMPI PUSH1 0xB SLOAD PUSH1 0xD SLOAD PUSH1 0x1 PUSH1 0x1 PUSH1 0xA0 SHL SUB SWAP1 SWAP2 AND SWAP1 PUSH4 0x1A4D01D2 SWAP1 DUP4 SWAP1 PUSH2 0x3213 DUP3 PUSH2 0x380D JUMP JUMPDEST PUSH1 0x40 MLOAD PUSH1 0x1 PUSH1 0x1 PUSH1 0xE0 SHL SUB NOT PUSH1 0xE0 DUP7 SWAP1 SHL AND DUP2 MSTORE PUSH1 0x4 DUP2 ADD SWAP4 SWAP1 SWAP4 MSTORE PUSH1 0xF SWAP2 SWAP1 SWAP2 SIGNEXTEND PUSH1 0x24 DUP4 ADD MSTORE PUSH1 0x44 DUP3 ADD MSTORE PUSH1 0x64 ADD PUSH1 0x0 PUSH1 0x40 MLOAD DUP1 DUP4 SUB DUP2 PUSH1 0x0 DUP8 DUP1 EXTCODESIZE ISZERO DUP1 ISZERO PUSH2 0x325C JUMPI PUSH1 0x0 DUP1 REVERT JUMPDEST POP GAS CALL ISZERO DUP1 ISZERO PUSH2 0x3270 JUMPI RETURNDATASIZE PUSH1 0x0 DUP1 RETURNDATACOPY RETURNDATASIZE PUSH1 0x0 REVERT JUMPDEST POP POP POP POP POP POP JUMP JUMPDEST PUSH1 0x0 PUSH2 0x32CD DUP3 PUSH1 0x40 MLOAD DUP1 PUSH1 0x40 ADD PUSH1 0x40 MSTORE DUP1 PUSH1 0x20 DUP2 MSTORE PUSH1 0x20 ADD PUSH32 0x5361666545524332303A206C6F772D6C6576656C2063616C6C206661696C6564 DUP2 MSTORE POP DUP6 PUSH1 0x1 PUSH1 0x1 PUSH1 0xA0 SHL SUB AND PUSH2 0x2269 SWAP1 SWAP3 SWAP2 SWAP1 PUSH4 0xFFFFFFFF AND JUMP JUMPDEST DUP1 MLOAD SWAP1 SWAP2 POP ISZERO PUSH2 0x2264 JUMPI DUP1 DUP1 PUSH1 0x20 ADD SWAP1 MLOAD DUP2 ADD SWAP1 PUSH2 0x32EB SWAP2 SWAP1 PUSH2 0x3B87 JUMP JUMPDEST PUSH2 0x2264 JUMPI PUSH1 0x40 MLOAD PUSH3 0x461BCD PUSH1 0xE5 SHL DUP2 MSTORE PUSH1 0x20 PUSH1 0x4 DUP3 ADD MSTORE PUSH1 0x2A PUSH1 0x24 DUP3 ADD MSTORE PUSH32 0x5361666545524332303A204552433230206F7065726174696F6E20646964206E PUSH1 0x44 DUP3 ADD MSTORE PUSH10 0x1BDD081CDD58D8D95959 PUSH1 0xB2 SHL PUSH1 0x64 DUP3 ADD MSTORE PUSH1 0x84 ADD PUSH2 0x8AB JUMP JUMPDEST PUSH1 0x60 DUP3 SELFBALANCE LT ISZERO PUSH2 0x33AB JUMPI PUSH1 0x40 MLOAD PUSH3 0x461BCD PUSH1 0xE5 SHL DUP2 MSTORE PUSH1 0x20 PUSH1 0x4 DUP3 ADD MSTORE PUSH1 0x26 PUSH1 0x24 DUP3 ADD MSTORE PUSH32 0x416464726573733A20696E73756666696369656E742062616C616E636520666F PUSH1 0x44 DUP3 ADD MSTORE PUSH6 0x1C8818D85B1B PUSH1 0xD2 SHL PUSH1 0x64 DUP3 ADD MSTORE PUSH1 0x84 ADD PUSH2 0x8AB JUMP JUMPDEST PUSH1 0x1 PUSH1 0x1 PUSH1 0xA0 SHL SUB DUP6 AND EXTCODESIZE PUSH2 0x3402 JUMPI PUSH1 0x40 MLOAD PUSH3 0x461BCD PUSH1 0xE5 SHL DUP2 MSTORE PUSH1 0x20 PUSH1 0x4 DUP3 ADD MSTORE PUSH1 0x1D PUSH1 0x24 DUP3 ADD MSTORE PUSH32 0x416464726573733A2063616C6C20746F206E6F6E2D636F6E7472616374000000 PUSH1 0x44 DUP3 ADD MSTORE PUSH1 0x64 ADD PUSH2 0x8AB JUMP JUMPDEST PUSH1 0x0 DUP1 DUP7 PUSH1 0x1 PUSH1 0x1 PUSH1 0xA0 SHL SUB AND DUP6 DUP8 PUSH1 0x40 MLOAD PUSH2 0x341E SWAP2 SWAP1 PUSH2 0x3D92 JUMP JUMPDEST PUSH1 0x0 PUSH1 0x40 MLOAD DUP1 DUP4 SUB DUP2 DUP6 DUP8 GAS CALL SWAP3 POP POP POP RETURNDATASIZE DUP1 PUSH1 0x0 DUP2 EQ PUSH2 0x345B JUMPI PUSH1 0x40 MLOAD SWAP2 POP PUSH1 0x1F NOT PUSH1 0x3F RETURNDATASIZE ADD AND DUP3 ADD PUSH1 0x40 MSTORE RETURNDATASIZE DUP3 MSTORE RETURNDATASIZE PUSH1 0x0 PUSH1 0x20 DUP5 ADD RETURNDATACOPY PUSH2 0x3460 JUMP JUMPDEST PUSH1 0x60 SWAP2 POP JUMPDEST POP SWAP2 POP SWAP2 POP PUSH2 0x3470 DUP3 DUP3 DUP7 PUSH2 0x3831 JUMP JUMPDEST SWAP8 SWAP7 POP POP POP POP POP POP POP JUMP JUMPDEST PUSH1 0x0 DUP2 DUP2 MSTORE PUSH1 0x1 DUP4 ADD PUSH1 0x20 MSTORE PUSH1 0x40 DUP2 KECCAK256 SLOAD PUSH2 0x34C2 JUMPI POP DUP2 SLOAD PUSH1 0x1 DUP2 DUP2 ADD DUP5 SSTORE PUSH1 0x0 DUP5 DUP2 MSTORE PUSH1 0x20 DUP1 DUP3 KECCAK256 SWAP1 SWAP4 ADD DUP5 SWAP1 SSTORE DUP5 SLOAD DUP5 DUP3 MSTORE DUP3 DUP7 ADD SWAP1 SWAP4 MSTORE PUSH1 0x40 SWAP1 KECCAK256 SWAP2 SWAP1 SWAP2 SSTORE PUSH2 0x20D7 JUMP JUMPDEST POP PUSH1 0x0 PUSH2 0x20D7 JUMP JUMPDEST PUSH1 0x40 MLOAD PUSH1 0x1 PUSH1 0x1 PUSH1 0xA0 SHL SUB DUP4 AND PUSH1 0x24 DUP3 ADD MSTORE PUSH1 0x44 DUP2 ADD DUP3 SWAP1 MSTORE PUSH2 0x2264 SWAP1 DUP5 SWAP1 PUSH4 0xA9059CBB PUSH1 0xE0 SHL SWAP1 PUSH1 0x64 ADD PUSH2 0x222D JUMP JUMPDEST PUSH1 0x0 PUSH2 0x20D7 PUSH1 0xF SLOAD PUSH8 0xDE0B6B3A7640000 PUSH2 0x3515 SWAP2 SWAP1 PUSH2 0x3C3F JUMP JUMPDEST PUSH2 0x177F DUP5 PUSH2 0x386A JUMP JUMPDEST PUSH1 0x0 PUSH2 0x20D7 PUSH1 0x8 SLOAD PUSH8 0xDE0B6B3A7640000 PUSH2 0x3539 SWAP2 SWAP1 PUSH2 0x3C3F JUMP JUMPDEST PUSH2 0x177F DUP5 PUSH2 0x38FE JUMP JUMPDEST PUSH1 0x0 DUP2 DUP2 MSTORE PUSH1 0x1 DUP4 ADD PUSH1 0x20 MSTORE PUSH1 0x40 DUP2 KECCAK256 SLOAD DUP1 ISZERO PUSH2 0x362B JUMPI PUSH1 0x0 PUSH2 0x3566 PUSH1 0x1 DUP4 PUSH2 0x3C28 JUMP JUMPDEST DUP6 SLOAD SWAP1 SWAP2 POP PUSH1 0x0 SWAP1 PUSH2 0x357A SWAP1 PUSH1 0x1 SWAP1 PUSH2 0x3C28 JUMP JUMPDEST SWAP1 POP DUP2 DUP2 EQ PUSH2 0x35DF JUMPI PUSH1 0x0 DUP7 PUSH1 0x0 ADD DUP3 DUP2 SLOAD DUP2 LT PUSH2 0x359A JUMPI PUSH2 0x359A PUSH2 0x3CF6 JUMP JUMPDEST SWAP1 PUSH1 0x0 MSTORE PUSH1 0x20 PUSH1 0x0 KECCAK256 ADD SLOAD SWAP1 POP DUP1 DUP8 PUSH1 0x0 ADD DUP5 DUP2 SLOAD DUP2 LT PUSH2 0x35BD JUMPI PUSH2 0x35BD PUSH2 0x3CF6 JUMP JUMPDEST PUSH1 0x0 SWAP2 DUP3 MSTORE PUSH1 0x20 DUP1 DUP4 KECCAK256 SWAP1 SWAP2 ADD SWAP3 SWAP1 SWAP3 SSTORE SWAP2 DUP3 MSTORE PUSH1 0x1 DUP9 ADD SWAP1 MSTORE PUSH1 0x40 SWAP1 KECCAK256 DUP4 SWAP1 SSTORE JUMPDEST DUP6 SLOAD DUP7 SWAP1 DUP1 PUSH2 0x35F0 JUMPI PUSH2 0x35F0 PUSH2 0x3DAE JUMP JUMPDEST PUSH1 0x1 SWAP1 SUB DUP2 DUP2 SWAP1 PUSH1 0x0 MSTORE PUSH1 0x20 PUSH1 0x0 KECCAK256 ADD PUSH1 0x0 SWAP1 SSTORE SWAP1 SSTORE DUP6 PUSH1 0x1 ADD PUSH1 0x0 DUP7 DUP2 MSTORE PUSH1 0x20 ADD SWAP1 DUP2 MSTORE PUSH1 0x20 ADD PUSH1 0x0 KECCAK256 PUSH1 0x0 SWAP1 SSTORE PUSH1 0x1 SWAP4 POP POP POP POP PUSH2 0x20D7 JUMP JUMPDEST PUSH1 0x0 SWAP2 POP POP PUSH2 0x20D7 JUMP JUMPDEST PUSH1 0x4 SLOAD PUSH1 0x1 PUSH1 0x1 PUSH1 0xA0 SHL SUB AND DUP1 PUSH2 0x3649 JUMPI POP JUMP JUMPDEST PUSH1 0x6 SLOAD DUP1 ISZERO PUSH2 0x36F4 JUMPI PUSH1 0x40 MLOAD PUSH4 0x70A08231 PUSH1 0xE0 SHL DUP2 MSTORE ADDRESS PUSH1 0x4 DUP3 ADD MSTORE PUSH20 0x4E3FBD56CD56C3E72C1403E103B45DB9DA5B9D2B SWAP1 PUSH1 0x0 SWAP1 DUP3 SWAP1 PUSH4 0x70A08231 SWAP1 PUSH1 0x24 ADD PUSH1 0x20 PUSH1 0x40 MLOAD DUP1 DUP4 SUB DUP2 DUP7 GAS STATICCALL ISZERO DUP1 ISZERO PUSH2 0x36A6 JUMPI RETURNDATASIZE PUSH1 0x0 DUP1 RETURNDATACOPY RETURNDATASIZE PUSH1 0x0 REVERT JUMPDEST POP POP POP POP PUSH1 0x40 MLOAD RETURNDATASIZE PUSH1 0x1F NOT PUSH1 0x1F DUP3 ADD AND DUP3 ADD DUP1 PUSH1 0x40 MSTORE POP DUP2 ADD SWAP1 PUSH2 0x36CA SWAP2 SWAP1 PUSH2 0x3BA2 JUMP JUMPDEST SWAP1 POP DUP1 ISZERO PUSH2 0x36F1 JUMPI PUSH2 0x36F1 DUP5 PUSH2 0x36E0 DUP4 DUP7 PUSH2 0x3025 JUMP JUMPDEST PUSH1 0x1 PUSH1 0x1 PUSH1 0xA0 SHL SUB DUP6 AND SWAP2 SWAP1 PUSH2 0x34CA JUMP JUMPDEST POP POP JUMPDEST PUSH1 0x5 SLOAD DUP1 ISZERO PUSH2 0x2264 JUMPI PUSH1 0x40 MLOAD PUSH4 0x70A08231 PUSH1 0xE0 SHL DUP2 MSTORE ADDRESS PUSH1 0x4 DUP3 ADD MSTORE PUSH20 0xD533A949740BB3306D119CC777FA900BA034CD52 SWAP1 PUSH1 0x0 SWAP1 DUP3 SWAP1 PUSH4 0x70A08231 SWAP1 PUSH1 0x24 ADD PUSH1 0x20 PUSH1 0x40 MLOAD DUP1 DUP4 SUB DUP2 DUP7 GAS STATICCALL ISZERO DUP1 ISZERO PUSH2 0x3751 JUMPI RETURNDATASIZE PUSH1 0x0 DUP1 RETURNDATACOPY RETURNDATASIZE PUSH1 0x0 REVERT JUMPDEST POP POP POP POP PUSH1 0x40 MLOAD RETURNDATASIZE PUSH1 0x1F NOT PUSH1 0x1F DUP3 ADD AND DUP3 ADD DUP1 PUSH1 0x40 MSTORE POP DUP2 ADD SWAP1 PUSH2 0x3775 SWAP2 SWAP1 PUSH2 0x3BA2 JUMP JUMPDEST SWAP1 POP DUP1 ISZERO PUSH2 0x378B JUMPI PUSH2 0x378B DUP6 PUSH2 0x36E0 DUP4 DUP7 PUSH2 0x3025 JUMP JUMPDEST POP POP POP POP POP JUMP JUMPDEST PUSH1 0x0 PUSH2 0x227B DUP4 DUP4 PUSH2 0x39DB JUMP JUMPDEST PUSH1 0x0 PUSH2 0x20D7 PUSH1 0xF SLOAD PUSH8 0xDE0B6B3A7640000 PUSH2 0x37B9 SWAP2 SWAP1 PUSH2 0x3C28 JUMP JUMPDEST PUSH2 0x177F DUP5 PUSH2 0x2C48 JUMP JUMPDEST PUSH1 0x0 DUP2 PUSH2 0x303A PUSH8 0xDE0B6B3A7640000 DUP6 PUSH2 0x3BD1 JUMP JUMPDEST PUSH1 0x0 PUSH2 0x20D7 PUSH1 0xE SLOAD PUSH8 0xDE0B6B3A7640000 PUSH2 0x3515 SWAP2 SWAP1 PUSH2 0x3C28 JUMP JUMPDEST PUSH1 0x0 PUSH2 0x20D7 PUSH1 0x7 SLOAD PUSH8 0xDE0B6B3A7640000 PUSH2 0x3539 SWAP2 SWAP1 PUSH2 0x3C28 JUMP JUMPDEST PUSH1 0x0 PUSH2 0x20D7 PUSH1 0x8 SLOAD PUSH8 0xDE0B6B3A7640000 PUSH2 0x3828 SWAP2 SWAP1 PUSH2 0x3C28 JUMP JUMPDEST PUSH2 0x177F DUP5 PUSH2 0x2B45 JUMP JUMPDEST PUSH1 0x60 DUP4 ISZERO PUSH2 0x3840 JUMPI POP DUP2 PUSH2 0x227B JUMP JUMPDEST DUP3 MLOAD ISZERO PUSH2 0x3850 JUMPI DUP3 MLOAD DUP1 DUP5 PUSH1 0x20 ADD REVERT JUMPDEST DUP2 PUSH1 0x40 MLOAD PUSH3 0x461BCD PUSH1 0xE5 SHL DUP2 MSTORE PUSH1 0x4 ADD PUSH2 0x8AB SWAP2 SWAP1 PUSH2 0x3A71 JUMP JUMPDEST PUSH1 0x0 PUSH2 0x20D7 PUSH32 0x0 PUSH1 0x1 PUSH1 0x1 PUSH1 0xA0 SHL SUB AND PUSH4 0xBB7B8B80 PUSH1 0x40 MLOAD DUP2 PUSH4 0xFFFFFFFF AND PUSH1 0xE0 SHL DUP2 MSTORE PUSH1 0x4 ADD PUSH1 0x20 PUSH1 0x40 MLOAD DUP1 DUP4 SUB DUP2 DUP7 GAS STATICCALL ISZERO DUP1 ISZERO PUSH2 0x38CD JUMPI RETURNDATASIZE PUSH1 0x0 DUP1 RETURNDATACOPY RETURNDATASIZE PUSH1 0x0 REVERT JUMPDEST POP POP POP POP PUSH1 0x40 MLOAD RETURNDATASIZE PUSH1 0x1F NOT PUSH1 0x1F DUP3 ADD AND DUP3 ADD DUP1 PUSH1 0x40 MSTORE POP DUP2 ADD SWAP1 PUSH2 0x38F1 SWAP2 SWAP1 PUSH2 0x3BA2 JUMP JUMPDEST PUSH1 0x10 SLOAD PUSH2 0x2C42 SWAP1 DUP6 PUSH2 0x3BD1 JUMP JUMPDEST PUSH1 0x0 PUSH2 0x20D7 PUSH1 0xB PUSH1 0x0 SWAP1 SLOAD SWAP1 PUSH2 0x100 EXP SWAP1 DIV PUSH1 0x1 PUSH1 0x1 PUSH1 0xA0 SHL SUB AND PUSH1 0x1 PUSH1 0x1 PUSH1 0xA0 SHL SUB AND PUSH4 0xBB7B8B80 PUSH1 0x40 MLOAD DUP2 PUSH4 0xFFFFFFFF AND PUSH1 0xE0 SHL DUP2 MSTORE PUSH1 0x4 ADD PUSH1 0x20 PUSH1 0x40 MLOAD DUP1 DUP4 SUB DUP2 DUP7 GAS STATICCALL ISZERO DUP1 ISZERO PUSH2 0x3956 JUMPI RETURNDATASIZE PUSH1 0x0 DUP1 RETURNDATACOPY RETURNDATASIZE PUSH1 0x0 REVERT JUMPDEST POP POP POP POP PUSH1 0x40 MLOAD RETURNDATASIZE PUSH1 0x1F NOT PUSH1 0x1F DUP3 ADD AND DUP3 ADD DUP1 PUSH1 0x40 MSTORE POP DUP2 ADD SWAP1 PUSH2 0x397A SWAP2 SWAP1 PUSH2 0x3BA2 JUMP JUMPDEST PUSH2 0x2C42 PUSH32 0x0 PUSH1 0x1 PUSH1 0x1 PUSH1 0xA0 SHL SUB AND PUSH4 0xBB7B8B80 PUSH1 0x40 MLOAD DUP2 PUSH4 0xFFFFFFFF AND PUSH1 0xE0 SHL DUP2 MSTORE PUSH1 0x4 ADD PUSH1 0x20 PUSH1 0x40 MLOAD DUP1 DUP4 SUB DUP2 DUP7 GAS STATICCALL ISZERO DUP1 ISZERO PUSH2 0x2C17 JUMPI RETURNDATASIZE PUSH1 0x0 DUP1 RETURNDATACOPY RETURNDATASIZE PUSH1 0x0 REVERT JUMPDEST PUSH1 0x0 DUP3 PUSH1 0x0 ADD DUP3 DUP2 SLOAD DUP2 LT PUSH2 0x39F2 JUMPI PUSH2 0x39F2 PUSH2 0x3CF6 JUMP JUMPDEST SWAP1 PUSH1 0x0 MSTORE PUSH1 0x20 PUSH1 0x0 KECCAK256 ADD SLOAD SWAP1 POP SWAP3 SWAP2 POP POP JUMP JUMPDEST PUSH1 0x40 MLOAD DUP1 PUSH1 0x40 ADD PUSH1 0x40 MSTORE DUP1 PUSH1 0x2 SWAP1 PUSH1 0x20 DUP3 MUL DUP1 CALLDATASIZE DUP4 CALLDATACOPY POP SWAP2 SWAP3 SWAP2 POP POP JUMP JUMPDEST PUSH1 0x40 MLOAD DUP1 PUSH1 0x60 ADD PUSH1 0x40 MSTORE DUP1 PUSH1 0x3 SWAP1 PUSH1 0x20 DUP3 MUL DUP1 CALLDATASIZE DUP4 CALLDATACOPY POP SWAP2 SWAP3 SWAP2 POP POP JUMP JUMPDEST PUSH1 0x0 JUMPDEST DUP4 DUP2 LT ISZERO PUSH2 0x3A5C JUMPI DUP2 DUP2 ADD MLOAD DUP4 DUP3 ADD MSTORE PUSH1 0x20 ADD PUSH2 0x3A44 JUMP JUMPDEST DUP4 DUP2 GT ISZERO PUSH2 0x3A6B JUMPI PUSH1 0x0 DUP5 DUP5 ADD MSTORE JUMPDEST POP POP POP POP JUMP JUMPDEST PUSH1 0x20 DUP2 MSTORE PUSH1 0x0 DUP3 MLOAD DUP1 PUSH1 0x20 DUP5 ADD MSTORE PUSH2 0x3A90 DUP2 PUSH1 0x40 DUP6 ADD PUSH1 0x20 DUP8 ADD PUSH2 0x3A41 JUMP JUMPDEST PUSH1 0x1F ADD PUSH1 0x1F NOT AND SWAP2 SWAP1 SWAP2 ADD PUSH1 0x40 ADD SWAP3 SWAP2 POP POP JUMP JUMPDEST PUSH1 0x1 PUSH1 0x1 PUSH1 0xA0 SHL SUB DUP2 AND DUP2 EQ PUSH2 0x3AB9 JUMPI PUSH1 0x0 DUP1 REVERT JUMPDEST POP JUMP JUMPDEST PUSH1 0x0 PUSH1 0x20 DUP3 DUP5 SUB SLT ISZERO PUSH2 0x3ACE JUMPI PUSH1 0x0 DUP1 REVERT JUMPDEST DUP2 CALLDATALOAD PUSH2 0x227B DUP2 PUSH2 0x3AA4 JUMP JUMPDEST PUSH1 0x0 PUSH1 0x20 DUP3 DUP5 SUB SLT ISZERO PUSH2 0x3AEB JUMPI PUSH1 0x0 DUP1 REVERT JUMPDEST POP CALLDATALOAD SWAP2 SWAP1 POP JUMP JUMPDEST PUSH1 0x20 DUP1 DUP3 MSTORE DUP3 MLOAD DUP3 DUP3 ADD DUP2 SWAP1 MSTORE PUSH1 0x0 SWAP2 SWAP1 DUP5 DUP3 ADD SWAP1 PUSH1 0x40 DUP6 ADD SWAP1 DUP5 JUMPDEST DUP2 DUP2 LT ISZERO PUSH2 0x3B33 JUMPI DUP4 MLOAD PUSH1 0x1 PUSH1 0x1 PUSH1 0xA0 SHL SUB AND DUP4 MSTORE SWAP3 DUP5 ADD SWAP3 SWAP2 DUP5 ADD SWAP2 PUSH1 0x1 ADD PUSH2 0x3B0E JUMP JUMPDEST POP SWAP1 SWAP7 SWAP6 POP POP POP POP POP POP JUMP JUMPDEST PUSH1 0x0 DUP1 PUSH1 0x0 PUSH1 0x60 DUP5 DUP7 SUB SLT ISZERO PUSH2 0x3B54 JUMPI PUSH1 0x0 DUP1 REVERT JUMPDEST DUP4 CALLDATALOAD SWAP3 POP PUSH1 0x20 DUP5 ADD CALLDATALOAD PUSH2 0x3B66 DUP2 PUSH2 0x3AA4 JUMP JUMPDEST SWAP3 SWAP6 SWAP3 SWAP5 POP POP POP PUSH1 0x40 SWAP2 SWAP1 SWAP2 ADD CALLDATALOAD SWAP1 JUMP JUMPDEST DUP1 MLOAD DUP1 ISZERO ISZERO DUP2 EQ PUSH2 0xA10 JUMPI PUSH1 0x0 DUP1 REVERT JUMPDEST PUSH1 0x0 PUSH1 0x20 DUP3 DUP5 SUB SLT ISZERO PUSH2 0x3B99 JUMPI PUSH1 0x0 DUP1 REVERT JUMPDEST PUSH2 0x227B DUP3 PUSH2 0x3B77 JUMP JUMPDEST PUSH1 0x0 PUSH1 0x20 DUP3 DUP5 SUB SLT ISZERO PUSH2 0x3BB4 JUMPI PUSH1 0x0 DUP1 REVERT JUMPDEST POP MLOAD SWAP2 SWAP1 POP JUMP JUMPDEST PUSH4 0x4E487B71 PUSH1 0xE0 SHL PUSH1 0x0 MSTORE PUSH1 0x11 PUSH1 0x4 MSTORE PUSH1 0x24 PUSH1 0x0 REVERT JUMPDEST PUSH1 0x0 DUP2 PUSH1 0x0 NOT DIV DUP4 GT DUP3 ISZERO ISZERO AND ISZERO PUSH2 0x3BEB JUMPI PUSH2 0x3BEB PUSH2 0x3BBB JUMP JUMPDEST POP MUL SWAP1 JUMP JUMPDEST PUSH4 0x4E487B71 PUSH1 0xE0 SHL PUSH1 0x0 MSTORE PUSH1 0x12 PUSH1 0x4 MSTORE PUSH1 0x24 PUSH1 0x0 REVERT JUMPDEST PUSH1 0x0 DUP3 PUSH2 0x3C23 JUMPI PUSH4 0x4E487B71 PUSH1 0xE0 SHL PUSH1 0x0 MSTORE PUSH1 0x12 PUSH1 0x4 MSTORE PUSH1 0x24 PUSH1 0x0 REVERT JUMPDEST POP DIV SWAP1 JUMP JUMPDEST PUSH1 0x0 DUP3 DUP3 LT ISZERO PUSH2 0x3C3A JUMPI PUSH2 0x3C3A PUSH2 0x3BBB JUMP JUMPDEST POP SUB SWAP1 JUMP JUMPDEST PUSH1 0x0 DUP3 NOT DUP3 GT ISZERO PUSH2 0x3C52 JUMPI PUSH2 0x3C52 PUSH2 0x3BBB JUMP JUMPDEST POP ADD SWAP1 JUMP JUMPDEST PUSH1 0x0 PUSH1 0x20 DUP3 DUP5 SUB SLT ISZERO PUSH2 0x3C69 JUMPI PUSH1 0x0 DUP1 REVERT JUMPDEST DUP2 MLOAD PUSH2 0x227B DUP2 PUSH2 0x3AA4 JUMP JUMPDEST PUSH1 0x0 DUP1 PUSH1 0x0 DUP1 PUSH1 0x0 DUP1 PUSH1 0xC0 DUP8 DUP10 SUB SLT ISZERO PUSH2 0x3C8D JUMPI PUSH1 0x0 DUP1 REVERT JUMPDEST DUP7 MLOAD PUSH2 0x3C98 DUP2 PUSH2 0x3AA4 JUMP JUMPDEST PUSH1 0x20 DUP9 ADD MLOAD SWAP1 SWAP7 POP PUSH2 0x3CA9 DUP2 PUSH2 0x3AA4 JUMP JUMPDEST PUSH1 0x40 DUP9 ADD MLOAD SWAP1 SWAP6 POP PUSH2 0x3CBA DUP2 PUSH2 0x3AA4 JUMP JUMPDEST PUSH1 0x60 DUP9 ADD MLOAD SWAP1 SWAP5 POP PUSH2 0x3CCB DUP2 PUSH2 0x3AA4 JUMP JUMPDEST PUSH1 0x80 DUP9 ADD MLOAD SWAP1 SWAP4 POP PUSH2 0x3CDC DUP2 PUSH2 0x3AA4 JUMP JUMPDEST SWAP2 POP PUSH2 0x3CEA PUSH1 0xA0 DUP9 ADD PUSH2 0x3B77 JUMP JUMPDEST SWAP1 POP SWAP3 SWAP6 POP SWAP3 SWAP6 POP SWAP3 SWAP6 JUMP JUMPDEST PUSH4 0x4E487B71 PUSH1 0xE0 SHL PUSH1 0x0 MSTORE PUSH1 0x32 PUSH1 0x4 MSTORE PUSH1 0x24 PUSH1 0x0 REVERT JUMPDEST PUSH1 0x60 DUP2 ADD DUP2 DUP5 PUSH1 0x0 JUMPDEST PUSH1 0x2 DUP2 LT ISZERO PUSH2 0x3D34 JUMPI DUP2 MLOAD DUP4 MSTORE PUSH1 0x20 SWAP3 DUP4 ADD SWAP3 SWAP1 SWAP2 ADD SWAP1 PUSH1 0x1 ADD PUSH2 0x3D15 JUMP JUMPDEST POP POP POP DUP3 PUSH1 0x40 DUP4 ADD MSTORE SWAP4 SWAP3 POP POP POP JUMP JUMPDEST PUSH1 0x80 DUP2 ADD DUP2 DUP5 PUSH1 0x0 JUMPDEST PUSH1 0x3 DUP2 LT ISZERO PUSH2 0x3D6C JUMPI DUP2 MLOAD DUP4 MSTORE PUSH1 0x20 SWAP3 DUP4 ADD SWAP3 SWAP1 SWAP2 ADD SWAP1 PUSH1 0x1 ADD PUSH2 0x3D4D JUMP JUMPDEST POP POP POP DUP3 PUSH1 0x60 DUP4 ADD MSTORE SWAP4 SWAP3 POP POP POP JUMP JUMPDEST PUSH4 0x4E487B71 PUSH1 0xE0 SHL PUSH1 0x0 MSTORE PUSH1 0x41 PUSH1 0x4 MSTORE PUSH1 0x24 PUSH1 0x0 REVERT JUMPDEST PUSH1 0x0 DUP3 MLOAD PUSH2 0x3DA4 DUP2 DUP5 PUSH1 0x20 DUP8 ADD PUSH2 0x3A41 JUMP JUMPDEST SWAP2 SWAP1 SWAP2 ADD SWAP3 SWAP2 POP POP JUMP JUMPDEST PUSH4 0x4E487B71 PUSH1 0xE0 SHL PUSH1 0x0 MSTORE PUSH1 0x31 PUSH1 0x4 MSTORE PUSH1 0x24 PUSH1 0x0 REVERT INVALID PUSH22 0x6E617574686F72697A65642061636365737300000000 STOP STOP STOP STOP STOP STOP STOP STOP STOP LOG2 PUSH5 0x6970667358 0x22 SLT KECCAK256 0xBB MLOAD PUSH31 0xCE7B44DF8DF7518E0672EFF8AFB20B6B90638A7706435DC05887A68CB16473 PUSH16 0x6C634300080A00330000000000000000 ","sha1":"4fb39c47aefd709b3f9b4b761b34acd5a5a58b9b","source":"// SPDX-License-Identifier: GPL-3.0-or-later\npragma solidity 0.8.10;\n\nimport \"./ConvexStrategyBase.sol\";\nimport \"../../interfaces/IERC20Full.sol\";\nimport \"../../interfaces/strategies/IMeroTriHopCvx.sol\";\nimport \"../../libraries/UncheckedMath.sol\";\n\n/**\n * This is the MeroTriHopCvx strategy, which is designed to be used by a Mero ERC20 Vault.\n * The strategy holds a given ERC20 underlying and allocates liquidity to Convex via a given Curve Pool.\n * The Curve Pools used are Meta Pools which first require getting an LP Token from another Curve Pool.\n * The strategy does a 'Hop' when depositing and withdrawing, by first getting the required LP Token, and then the final LP Token for Convex.\n * Rewards received on Convex (CVX, CRV), are sold in part for the underlying.\n * A share of earned CVX & CRV are retained on behalf of the Mero community to participate in governance.\n */\ncontract MeroTriHopCvx is ConvexStrategyBase, IMeroTriHopCvx {\n    using ScaledMath for uint256;\n    using UncheckedMath for uint256;\n    using SafeERC20 for IERC20;\n\n    ICurveSwapEth public immutable curveHopPool; // Curve Pool to use for Hops\n    IERC20 public immutable hopLp; // Curve Hop Pool LP Token\n    uint256 public immutable curveHopIndex; // Underlying index in Curve Pool\n\n    uint256 public hopImbalanceToleranceIn; // Maximum allowed slippage from Curve Hop Pool Imbalance for depositing\n    uint256 public hopImbalanceToleranceOut; // Maximum allowed slippage from Curve Hop Pool Imbalance for withdrawing\n    uint256 public decimalMultiplier; // Used for converting between underlying and LP\n\n    event SetHopImbalanceToleranceIn(uint256 value); // Emitted after a successful setting of hop imbalance tolerance in\n    event SetHopImbalanceToleranceOut(uint256 value); // Emitted after a successful setting of hop imbalance tolerance out\n\n    constructor(\n        address vault_,\n        address strategist_,\n        uint256 convexPid_,\n        address curvePool_,\n        uint256 curveIndex_,\n        address curveHopPool_,\n        uint256 curveHopIndex_,\n        IAddressProvider addressProvider_\n    )\n        ConvexStrategyBase(\n            vault_,\n            strategist_,\n            convexPid_,\n            curvePool_,\n            curveIndex_,\n            addressProvider_\n        )\n    {\n        // Getting data from supporting contracts\n        _validateCurvePool(curveHopPool_);\n        (address lp_, , , , , bool shutdown) = _BOOSTER.poolInfo(convexPid_);\n        require(!shutdown, Error.POOL_SHUTDOWN);\n        address hopLp_ = ICurveSwapEth(curvePool_).coins(curveIndex_);\n        hopLp = IERC20(hopLp_);\n        curveHopPool = ICurveSwapEth(curveHopPool_);\n        address underlying_ = ICurveSwapEth(curveHopPool_).coins(curveHopIndex_);\n        underlying = IERC20(underlying_);\n        decimalMultiplier = 10**(18 - IERC20Full(underlying_).decimals());\n\n        // Setting inputs\n        curveHopIndex = curveHopIndex_;\n\n        // Setting default values\n        imbalanceToleranceIn = 0.001e18;\n        imbalanceToleranceOut = 0.048e18;\n        hopImbalanceToleranceIn = 0.001e18;\n        hopImbalanceToleranceOut = 0.0015e18;\n\n        // Approvals\n        IERC20(underlying_).safeApprove(curveHopPool_, type(uint256).max);\n        IERC20(hopLp_).safeApprove(curvePool_, type(uint256).max);\n        IERC20(lp_).safeApprove(address(_BOOSTER), type(uint256).max);\n    }\n\n    /**\n     * @notice Set hop imbalance tolerance for Curve Hop Pool deposits.\n     * @dev Stored as a percent, e.g. 1% would be set as 0.01\n     * @param _hopImbalanceToleranceIn New hop imbalance tolerance in.\n     */\n    function setHopImbalanceToleranceIn(uint256 _hopImbalanceToleranceIn)\n        external\n        override\n        onlyGovernance\n    {\n        hopImbalanceToleranceIn = _hopImbalanceToleranceIn;\n        emit SetHopImbalanceToleranceIn(_hopImbalanceToleranceIn);\n    }\n\n    /**\n     * @notice Set hop imbalance tolerance for Curve Hop Pool withdrawals.\n     * @dev Stored as a percent, e.g. 1% would be set as 0.01\n     * @param _hopImbalanceToleranceOut New hop imbalance tolerance out.\n     */\n    function setHopImbalanceToleranceOut(uint256 _hopImbalanceToleranceOut)\n        external\n        override\n        onlyGovernance\n    {\n        hopImbalanceToleranceOut = _hopImbalanceToleranceOut;\n        emit SetHopImbalanceToleranceOut(_hopImbalanceToleranceOut);\n    }\n\n    /**\n     * @notice Changes the Convex Pool used for farming yield, e.g. from FRAX to MIM.\n     * @dev First withdraws all funds, then harvests any rewards, then changes pool, then deposits again.\n     * @param convexPid_ The PID for the new Convex Pool.\n     * @param curvePool_ The Curve Pool to deposit into to get the required LP Token for Convex staking.\n     * @param curveIndex_ The index of the new Convex Pool Token in the new Curve Pool.\n     */\n    function changeConvexPool(\n        uint256 convexPid_,\n        address curvePool_,\n        uint256 curveIndex_\n    ) external override onlyGovernance {\n        _validateCurvePool(curvePool_);\n        _harvest();\n        _withdrawAllToHopLp();\n        convexPid = convexPid_;\n        curveIndex = curveIndex_;\n        (address lp_, , , address rewards_, , bool shutdown) = _BOOSTER.poolInfo(convexPid_);\n        require(!shutdown, Error.POOL_SHUTDOWN);\n        lp = IERC20(lp_);\n        rewards = IRewardStaking(rewards_);\n        curvePool = ICurveSwapEth(curvePool_);\n        IERC20(hopLp).safeApprove(curvePool_, 0);\n        IERC20(hopLp).safeApprove(curvePool_, type(uint256).max);\n        IERC20(lp_).safeApprove(address(_BOOSTER), 0);\n        IERC20(lp_).safeApprove(address(_BOOSTER), type(uint256).max);\n        require(_deposit(), Error.DEPOSIT_FAILED);\n    }\n\n    function balance() public view override returns (uint256) {\n        return\n            _underlyingBalance() +\n            _hopLpToUnderlying(_lpToHopLp(_stakedBalance() + _lpBalance()) + _hopLpBalance());\n    }\n\n    function name() public pure override returns (string memory) {\n        return \"MeroTriHopCvx\";\n    }\n\n    function _deposit() internal override returns (bool) {\n        require(msg.value == 0, Error.INVALID_VALUE);\n\n        // Depositing into Curve Hop Pool\n        uint256 underlyingBalance = _underlyingBalance();\n        if (underlyingBalance > 0) {\n            uint256[3] memory hopAmounts;\n            hopAmounts[curveHopIndex] = underlyingBalance;\n            curveHopPool.add_liquidity(hopAmounts, _minHopLpAcceptedFromDeposit(underlyingBalance));\n        }\n\n        // Depositing into Curve Pool\n        uint256 hopLpBalance = _hopLpBalance();\n        if (hopLpBalance > 0) {\n            uint256[2] memory amounts;\n            amounts[curveIndex] = hopLpBalance;\n            curvePool.add_liquidity(amounts, _minLpAccepted(hopLpBalance));\n        }\n\n        // Depositing into Convex and Staking\n        if (_lpBalance() == 0) return false;\n        if (!_BOOSTER.depositAll(convexPid, true)) return false;\n        return true;\n    }\n\n    function _withdraw(uint256 amount) internal override {\n        // Transferring from idle balance if enough\n        uint256 underlyingBalance = _underlyingBalance();\n        if (underlyingBalance >= amount) {\n            underlying.safeTransfer(vault, amount);\n            emit Withdraw(amount);\n            return;\n        }\n\n        // Calculating needed amount of LP to withdraw\n        uint256 requiredUnderlyingAmount = amount.uncheckedSub(underlyingBalance);\n        uint256 maxHopLpBurned = _maxHopLpBurned(requiredUnderlyingAmount);\n        uint256 requiredHopLpAmount = maxHopLpBurned - _hopLpBalance();\n        uint256 maxLpBurned = _maxLpBurned(requiredHopLpAmount);\n        uint256 requiredLpAmount = maxLpBurned - _lpBalance();\n\n        // Unstaking needed LP Tokens from Convex\n        if (!rewards.withdrawAndUnwrap(requiredLpAmount, false)) return;\n\n        // Removing needed liquidity from Curve Pool\n        uint256[2] memory amounts;\n        amounts[curveIndex] = requiredHopLpAmount;\n        curvePool.remove_liquidity_imbalance(amounts, maxLpBurned);\n\n        // Removing needed liquidity from Curve Hop Pool\n        uint256[3] memory hopAmounts;\n        hopAmounts[curveHopIndex] = requiredUnderlyingAmount;\n        curveHopPool.remove_liquidity_imbalance(hopAmounts, maxHopLpBurned);\n\n        // Sending underlying to vault\n        underlying.safeTransfer(vault, amount);\n    }\n\n    function _withdrawAll() internal override returns (uint256) {\n        // Withdrawing all from Convex and converting to Hop LP Token\n        _withdrawAllToHopLp();\n\n        // Removing liquidity from Curve Hop Pool\n        uint256 hopLpBalance = _hopLpBalance();\n        if (hopLpBalance > 0) {\n            curveHopPool.remove_liquidity_one_coin(\n                hopLpBalance,\n                int128(uint128(curveHopIndex)),\n                _minUnderlyingAccepted(hopLpBalance)\n            );\n        }\n\n        // Transferring underlying to vault\n        uint256 underlyingBalance = _underlyingBalance();\n        if (underlyingBalance == 0) return 0;\n        underlying.safeTransfer(vault, underlyingBalance);\n        return underlyingBalance;\n    }\n\n    function _underlyingBalance() internal view override returns (uint256) {\n        return underlying.balanceOf(address(this));\n    }\n\n    /**\n     * @dev Get the balance of the hop lp.\n     */\n    function _hopLpBalance() internal view returns (uint256) {\n        return hopLp.balanceOf(address(this));\n    }\n\n    /**\n     * @notice Calculates the minimum LP to accept when depositing underlying into Curve Pool.\n     * @param _hopLpAmount Amount of Hop LP that is being deposited into Curve Pool.\n     * @return The minimum LP balance to accept.\n     */\n    function _minLpAccepted(uint256 _hopLpAmount) internal view returns (uint256) {\n        return _hopLpToLp(_hopLpAmount).scaledMul(ScaledMath.ONE - imbalanceToleranceIn);\n    }\n\n    /**\n     * @notice Calculates the maximum LP to accept burning when withdrawing amount from Curve Pool.\n     * @param _hopLpAmount Amount of Hop LP that is being withdrawn from Curve Pool.\n     * @return The maximum LP balance to accept burning.\n     */\n    function _maxLpBurned(uint256 _hopLpAmount) internal view returns (uint256) {\n        return _hopLpToLp(_hopLpAmount).scaledMul(ScaledMath.ONE + imbalanceToleranceOut);\n    }\n\n    /**\n     * @notice Calculates the minimum Hop LP to accept when burning LP tokens to withdraw from Curve Pool.\n     * @param _lpAmount Amount of LP tokens being burned to withdraw from Curve Pool.\n     * @return The minimum Hop LP balance to accept.\n     */\n    function _minHopLpAcceptedFromWithdraw(uint256 _lpAmount) internal view returns (uint256) {\n        return _lpToHopLp(_lpAmount).scaledMul(ScaledMath.ONE - imbalanceToleranceOut);\n    }\n\n    /**\n     * @notice Calculates the minimum Hop LP to accept when depositing underlying into Curve Hop Pool.\n     * @param _underlyingAmount Amount of underlying that is being deposited into Curve Hop Pool.\n     * @return The minimum Hop LP balance to accept.\n     */\n    function _minHopLpAcceptedFromDeposit(uint256 _underlyingAmount)\n        internal\n        view\n        returns (uint256)\n    {\n        return\n            _underlyingToHopLp(_underlyingAmount).scaledMul(\n                ScaledMath.ONE - hopImbalanceToleranceIn\n            );\n    }\n\n    /**\n     * @notice Calculates the maximum Hop LP to accept burning when withdrawing amount from Curve Hop Pool.\n     * @param _underlyingAmount Amount of underlying that is being withdrawn from Curve Hop Pool.\n     * @return The maximum Hop LP balance to accept burning.\n     */\n    function _maxHopLpBurned(uint256 _underlyingAmount) internal view returns (uint256) {\n        return\n            _underlyingToHopLp(_underlyingAmount).scaledMul(\n                ScaledMath.ONE + hopImbalanceToleranceOut\n            );\n    }\n\n    /**\n     * @notice Calculates the minimum underlying to accept when burning Hop LP tokens to withdraw from Curve Hop Pool.\n     * @param _hopLpAmount Amount of Hop LP tokens being burned to withdraw from Curve Hop Pool.\n     * @return The minimum underlying balance to accept.\n     */\n    function _minUnderlyingAccepted(uint256 _hopLpAmount) internal view returns (uint256) {\n        return\n            _hopLpToUnderlying(_hopLpAmount).scaledMul(ScaledMath.ONE - hopImbalanceToleranceOut);\n    }\n\n    /**\n     * @notice Converts an amount of underlying into their estimated Hop LP value.\n     * @dev Uses get_virtual_price which is less susceptible to manipulation.\n     *  But is also less accurate to how much could be withdrawn.\n     * @param _underlyingAmount Amount of underlying to convert.\n     * @return The estimated value in the Hop LP.\n     */\n    function _underlyingToHopLp(uint256 _underlyingAmount) internal view returns (uint256) {\n        return (_underlyingAmount * decimalMultiplier).scaledDiv(curveHopPool.get_virtual_price());\n    }\n\n    /**\n     * @notice Converts an amount of Hop LP into their estimated underlying value.\n     * @dev Uses get_virtual_price which is less susceptible to manipulation.\n     *  But is also less accurate to how much could be withdrawn.\n     * @param _hopLpAmount Amount of Hop LP to convert.\n     * @return The estimated value in the underlying.\n     */\n    function _hopLpToUnderlying(uint256 _hopLpAmount) internal view returns (uint256) {\n        return (_hopLpAmount / decimalMultiplier).scaledMul(curveHopPool.get_virtual_price());\n    }\n\n    /**\n     * @notice Converts an amount of LP into their estimated Hop LP value.\n     * @dev Uses get_virtual_price which is less susceptible to manipulation.\n     *  But is also less accurate to how much could be withdrawn.\n     * @param _lpAmount Amount of underlying to convert.\n     * @return The estimated value in the Hop LP.\n     */\n    function _lpToHopLp(uint256 _lpAmount) internal view returns (uint256) {\n        return\n            _lpAmount.scaledMul(curvePool.get_virtual_price()).scaledDiv(\n                curveHopPool.get_virtual_price()\n            );\n    }\n\n    /**\n     * @notice Converts an amount of Hop LP into their estimated LP value.\n     * @dev Uses get_virtual_price which is less susceptible to manipulation.\n     *  But is also less accurate to how much could be withdrawn.\n     * @param _hopLpAmount Amount of Hop LP to convert.\n     * @return The estimated value in the LP.\n     */\n    function _hopLpToLp(uint256 _hopLpAmount) internal view returns (uint256) {\n        return\n            _hopLpAmount.scaledMul(curveHopPool.get_virtual_price()).scaledDiv(\n                curvePool.get_virtual_price()\n            );\n    }\n\n    /**\n     * @dev Withdraw all underlying and convert to the Hop LP Token.\n     */\n    function _withdrawAllToHopLp() private {\n        // Unstaking and withdrawing from Convex pool\n        uint256 stakedBalance = _stakedBalance();\n        if (stakedBalance > 0) {\n            rewards.withdrawAndUnwrap(stakedBalance, false);\n        }\n\n        // Removing liquidity from Curve Pool\n        uint256 lpBalance = _lpBalance();\n        if (lpBalance > 0) {\n            curvePool.remove_liquidity_one_coin(\n                lpBalance,\n                int128(uint128(curveIndex)),\n                _minHopLpAcceptedFromWithdraw(lpBalance)\n            );\n        }\n    }\n}\n","sourcePath":"contracts/strategies/MeroTriHopCvx.sol","type":"contract","deployment":{"address":"0x8870898A85b03f030f1B893683C73015529838ad","chainid":"1","blockHeight":15323693}}