{"abi":[{"inputs":[{"internalType":"contract IRoleManager","name":"roleManager_","type":"address"},{"internalType":"address","name":"feedRegistry_","type":"address"}],"stateMutability":"nonpayable","type":"constructor","name":"constructor"},{"anonymous":false,"inputs":[{"indexed":true,"internalType":"address","name":"asset","type":"address"},{"indexed":true,"internalType":"address","name":"previousFeed","type":"address"},{"indexed":true,"internalType":"address","name":"newFeed","type":"address"}],"name":"FeedUpdated","type":"event"},{"anonymous":false,"inputs":[{"indexed":false,"internalType":"uint256","name":"newStalePriceDelay","type":"uint256"}],"name":"StalePriceDelaySet","type":"event"},{"inputs":[{"internalType":"address","name":"asset_","type":"address"}],"name":"getPriceETH","outputs":[{"internalType":"uint256","name":"","type":"uint256"}],"stateMutability":"view","type":"function"},{"inputs":[{"internalType":"address","name":"asset_","type":"address"}],"name":"getPriceUSD","outputs":[{"internalType":"uint256","name":"","type":"uint256"}],"stateMutability":"view","type":"function"},{"inputs":[{"internalType":"address","name":"baseAsset","type":"address"}],"name":"isAssetSupported","outputs":[{"internalType":"bool","name":"","type":"bool"}],"stateMutability":"view","type":"function"},{"inputs":[],"name":"roleManager","outputs":[{"internalType":"contract IRoleManager","name":"","type":"address"}],"stateMutability":"view","type":"function"},{"inputs":[{"internalType":"uint256","name":"stalePriceDelay_","type":"uint256"}],"name":"setStalePriceDelay","outputs":[],"stateMutability":"nonpayable","type":"function"},{"inputs":[],"name":"stalePriceDelay","outputs":[{"internalType":"uint256","name":"","type":"uint256"}],"stateMutability":"view","type":"function"}],"bytecode":"60c060405234801561001057600080fd5b50604051610d52380380610d5283398101604081905261002f91610065565b6001600160a01b039182166080521660a0526201518060005561009f565b6001600160a01b038116811461006257600080fd5b50565b6000806040838503121561007857600080fd5b82516100838161004d565b60208401519092506100948161004d565b809150509250929050565b60805160a051610c736100df600039600081816102cb015281816103830152818161049e015261077d015260008181607301526101190152610c736000f3fe608060405234801561001057600080fd5b50600436106100615760003560e01c8062435da5146100665780633a150b69146100a2578063464b4158146100b75780635647a646146100da5780635708447d146100f1578063e5ec9db914610104575b600080fd5b6040516001600160a01b037f00000000000000000000000000000000000000000000000000000000000000001681526020015b60405180910390f35b6100b56100b0366004610868565b610117565b005b6100ca6100c5366004610899565b61028f565b6040519015158152602001610099565b6100e360005481565b604051908152602001610099565b6100e36100ff366004610899565b610440565b6100e3610112366004610899565b610456565b7f0000000000000000000000000000000000000000000000000000000000000000604051632474521560e21b815269676f7665726e616e636560b01b60048201523360248201526001600160a01b0391909116906391d1485490604401602060405180830381865afa158015610191573d6000803e3d6000fd5b505050506040513d601f19601f820116820180604052508101906101b591906108b6565b60405180604001604052806013815260200172756e617574686f72697a65642061636365737360681b815250906102085760405162461bcd60e51b81526004016101ff91906108d8565b60405180910390fd5b5060408051808201909152601081526f1a5b9d985b1a5908185c99dd5b595b9d60821b6020820152610e108210156102535760405162461bcd60e51b81526004016101ff91906108d8565b5060008190556040518181527f2bb747e79a08a1c04eb10dd42cda5c18e27952b23403b19b58767700c8c401e09060200160405180910390a150565b60405163d2edb6dd60e01b81526001600160a01b03828116600483015273eeeeeeeeeeeeeeeeeeeeeeeeeeeeeeeeeeeeeeee60248301526000917f00000000000000000000000000000000000000000000000000000000000000009091169063d2edb6dd90604401602060405180830381865afa925050508015610330575060408051601f3d908101601f1916820190925261032d9181019061092d565b60015b6104325761033c61094a565b806308c379a0141561041c57506103516109a1565b8061035c575061041e565b60405163d2edb6dd60e01b81526001600160a01b03848116600483015261034860248301527f0000000000000000000000000000000000000000000000000000000000000000169063d2edb6dd90604401602060405180830381865afa9250505080156103e6575060408051601f3d908101601f191682019092526103e39181019061092d565b60015b610428576103f261094a565b806308c379a0141561041c57506104076109a1565b80610412575061041e565b5060009392505050565b505b3d6000803e3d6000fd5b5060019392505050565b50600192915050565b919050565b6000610450826103486000610474565b92915050565b60006104508273eeeeeeeeeeeeeeeeeeeeeeeeeeeeeeeeeeeeeeee60005b60405163bcfd032d60e01b81526001600160a01b03848116600483015283811660248301526000917f00000000000000000000000000000000000000000000000000000000000000009091169063bcfd032d9060440160a060405180830381865afa925050508015610503575060408051601f3d908101601f1916820190925261050091810190610a45565b60015b61060b5761050f61094a565b806308c379a0141561041c57506105246109a1565b8061052f575061041e565b821561054f578060405162461bcd60e51b81526004016101ff91906108d8565b6001600160a01b03841661034814156105c957670de0b6b3a764000061058d73eeeeeeeeeeeeeeeeeeeeeeeeeeeeeeeeeeeeeeee6103486001610474565b6105ad8773eeeeeeeeeeeeeeeeeeeeeeeeeeeeeeeeeeeeeeee6001610474565b6105b79190610aab565b6105c19190610aca565b9150506107f9565b6105eb73eeeeeeeeeeeeeeeeeeeeeeeeeeeeeeeeeeeeeeee6103486001610474565b6105f9866103486001610474565b6105b790670de0b6b3a7640000610aab565b604080518082019091526012815271526f756e64206e6f7420636f6d706c65746560701b6020820152826106525760405162461bcd60e51b81526004016101ff91906108d8565b506000546106609083610aec565b4211156040518060400160405280600e81526020016d5072696365206973207374616c6560901b815250906106a85760405162461bcd60e51b81526004016101ff91906108d8565b506040805180820190915260118152705072696365206973206e6567617469766560781b6020820152846106ef5760405162461bcd60e51b81526004016101ff91906108d8565b508469ffffffffffffffffffff168169ffffffffffffffffffff1610156040518060400160405280600e81526020016d5072696365206973207374616c6560901b815250906107515760405162461bcd60e51b81526004016101ff91906108d8565b50604051630b1c5a7560e31b81526001600160a01b038a8116600483015289811660248301526107f1917f0000000000000000000000000000000000000000000000000000000000000000909116906358e2d3a890604401602060405180830381865afa1580156107c6573d6000803e3d6000fd5b505050506040513d601f19601f820116820180604052508101906107ea9190610b04565b8590610800565b955050505050505b9392505050565b600060ff821660121415610815575081610450565b601260ff831611156108485761082c601283610b27565b61083790600a610c2e565b6108419084610aca565b9050610450565b610853826012610b27565b61085e90600a610c2e565b6108419084610aab565b60006020828403121561087a57600080fd5b5035919050565b6001600160a01b038116811461089657600080fd5b50565b6000602082840312156108ab57600080fd5b81356107f981610881565b6000602082840312156108c857600080fd5b815180151581146107f957600080fd5b600060208083528351808285015260005b81811015610905578581018301518582016040015282016108e9565b81811115610917576000604083870101525b50601f01601f1916929092016040019392505050565b60006020828403121561093f57600080fd5b81516107f981610881565b600060033d11156109635760046000803e5060005160e01c5b90565b601f8201601f1916810167ffffffffffffffff8111828210171561099a57634e487b7160e01b600052604160045260246000fd5b6040525050565b600060443d10156109af5790565b6040516003193d81016004833e81513d67ffffffffffffffff81602484011181841117156109df57505050505090565b82850191508151818111156109f75750505050505090565b843d8701016020828501011115610a115750505050505090565b610a2060208286010187610966565b509095945050505050565b805169ffffffffffffffffffff8116811461043b57600080fd5b600080600080600060a08688031215610a5d57600080fd5b610a6686610a2b565b9450602086015193506040860151925060608601519150610a8960808701610a2b565b90509295509295909350565b634e487b7160e01b600052601160045260246000fd5b6000816000190483118215151615610ac557610ac5610a95565b500290565b600082610ae757634e487b7160e01b600052601260045260246000fd5b500490565b60008219821115610aff57610aff610a95565b500190565b600060208284031215610b1657600080fd5b815160ff811681146107f957600080fd5b600060ff821660ff841680821015610b4157610b41610a95565b90039392505050565b600181815b80851115610b85578160001904821115610b6b57610b6b610a95565b80851615610b7857918102915b93841c9390800290610b4f565b509250929050565b600082610b9c57506001610450565b81610ba957506000610450565b8160018114610bbf5760028114610bc957610be5565b6001915050610450565b60ff841115610bda57610bda610a95565b50506001821b610450565b5060208310610133831016604e8410600b8410161715610c08575081810a610450565b610c128383610b4a565b8060001904821115610c2657610c26610a95565b029392505050565b60006107f960ff841683610b8d56fea26469706673582212205f32d12a46e1e5f2ca6b25eaded904b1b88afb9b32a31bb858a73c4474ed322664736f6c634300080a0033","bytecodeSha1":"aaf12ace1e6818223751dce04b0a1e900792cbee","compiler":{"evm_version":"london","optimizer":{"enabled":true,"runs":200},"version":"0.8.10+commit.fc410830"},"contractName":"ChainlinkOracleProvider","language":"Solidity","natspec":{"kind":"dev","methods":{"getPriceETH(address)":{"notice":"Quotes the ETH price of `baseAsset`","params":{"baseAsset":"the asset of which the price is to be quoted"},"returns":{"_0":"the ETH price of the asset"}},"getPriceUSD(address)":{"notice":"Quotes the USD price of `baseAsset`","params":{"baseAsset":"the asset of which the price is to be quoted"},"returns":{"_0":"the USD price of the asset"}},"isAssetSupported(address)":{"notice":"Checks whether the asset is supported","params":{"baseAsset":"the asset of which the price is to be quoted"},"returns":{"_0":"true if the asset is supported"}},"setStalePriceDelay(uint256)":{"notice":"Sets the stale price delay value.","params":{"stalePriceDelay_":"The new stale price delay to set."}}},"version":1},"opcodes":"PUSH1 0x80 PUSH1 0x40 MSTORE CALLVALUE DUP1 ISZERO PUSH2 0x10 JUMPI PUSH1 0x0 DUP1 REVERT JUMPDEST POP PUSH1 0x4 CALLDATASIZE LT PUSH2 0x61 JUMPI PUSH1 0x0 CALLDATALOAD PUSH1 0xE0 SHR DUP1 PUSH3 0x435DA5 EQ PUSH2 0x66 JUMPI DUP1 PUSH4 0x3A150B69 EQ PUSH2 0xA2 JUMPI DUP1 PUSH4 0x464B4158 EQ PUSH2 0xB7 JUMPI DUP1 PUSH4 0x5647A646 EQ PUSH2 0xDA JUMPI DUP1 PUSH4 0x5708447D EQ PUSH2 0xF1 JUMPI DUP1 PUSH4 0xE5EC9DB9 EQ PUSH2 0x104 JUMPI JUMPDEST PUSH1 0x0 DUP1 REVERT JUMPDEST PUSH1 0x40 MLOAD PUSH1 0x1 PUSH1 0x1 PUSH1 0xA0 SHL SUB PUSH32 0x0 AND DUP2 MSTORE PUSH1 0x20 ADD JUMPDEST PUSH1 0x40 MLOAD DUP1 SWAP2 SUB SWAP1 RETURN JUMPDEST PUSH2 0xB5 PUSH2 0xB0 CALLDATASIZE PUSH1 0x4 PUSH2 0x868 JUMP JUMPDEST PUSH2 0x117 JUMP JUMPDEST STOP JUMPDEST PUSH2 0xCA PUSH2 0xC5 CALLDATASIZE PUSH1 0x4 PUSH2 0x899 JUMP JUMPDEST PUSH2 0x28F JUMP JUMPDEST PUSH1 0x40 MLOAD SWAP1 ISZERO ISZERO DUP2 MSTORE PUSH1 0x20 ADD PUSH2 0x99 JUMP JUMPDEST PUSH2 0xE3 PUSH1 0x0 SLOAD DUP2 JUMP JUMPDEST PUSH1 0x40 MLOAD SWAP1 DUP2 MSTORE PUSH1 0x20 ADD PUSH2 0x99 JUMP JUMPDEST PUSH2 0xE3 PUSH2 0xFF CALLDATASIZE PUSH1 0x4 PUSH2 0x899 JUMP JUMPDEST PUSH2 0x440 JUMP JUMPDEST PUSH2 0xE3 PUSH2 0x112 CALLDATASIZE PUSH1 0x4 PUSH2 0x899 JUMP JUMPDEST PUSH2 0x456 JUMP JUMPDEST PUSH32 0x0 PUSH1 0x40 MLOAD PUSH4 0x24745215 PUSH1 0xE2 SHL DUP2 MSTORE PUSH10 0x676F7665726E616E6365 PUSH1 0xB0 SHL PUSH1 0x4 DUP3 ADD MSTORE CALLER PUSH1 0x24 DUP3 ADD MSTORE PUSH1 0x1 PUSH1 0x1 PUSH1 0xA0 SHL SUB SWAP2 SWAP1 SWAP2 AND SWAP1 PUSH4 0x91D14854 SWAP1 PUSH1 0x44 ADD PUSH1 0x20 PUSH1 0x40 MLOAD DUP1 DUP4 SUB DUP2 DUP7 GAS STATICCALL ISZERO DUP1 ISZERO PUSH2 0x191 JUMPI RETURNDATASIZE PUSH1 0x0 DUP1 RETURNDATACOPY RETURNDATASIZE PUSH1 0x0 REVERT JUMPDEST POP POP POP POP PUSH1 0x40 MLOAD RETURNDATASIZE PUSH1 0x1F NOT PUSH1 0x1F DUP3 ADD AND DUP3 ADD DUP1 PUSH1 0x40 MSTORE POP DUP2 ADD SWAP1 PUSH2 0x1B5 SWAP2 SWAP1 PUSH2 0x8B6 JUMP JUMPDEST PUSH1 0x40 MLOAD DUP1 PUSH1 0x40 ADD PUSH1 0x40 MSTORE DUP1 PUSH1 0x13 DUP2 MSTORE PUSH1 0x20 ADD PUSH19 0x756E617574686F72697A656420616363657373 PUSH1 0x68 SHL DUP2 MSTORE POP SWAP1 PUSH2 0x208 JUMPI PUSH1 0x40 MLOAD PUSH3 0x461BCD PUSH1 0xE5 SHL DUP2 MSTORE PUSH1 0x4 ADD PUSH2 0x1FF SWAP2 SWAP1 PUSH2 0x8D8 JUMP JUMPDEST PUSH1 0x40 MLOAD DUP1 SWAP2 SUB SWAP1 REVERT JUMPDEST POP PUSH1 0x40 DUP1 MLOAD DUP1 DUP3 ADD SWAP1 SWAP2 MSTORE PUSH1 0x10 DUP2 MSTORE PUSH16 0x1A5B9D985B1A5908185C99DD5B595B9D PUSH1 0x82 SHL PUSH1 0x20 DUP3 ADD MSTORE PUSH2 0xE10 DUP3 LT ISZERO PUSH2 0x253 JUMPI PUSH1 0x40 MLOAD PUSH3 0x461BCD PUSH1 0xE5 SHL DUP2 MSTORE PUSH1 0x4 ADD PUSH2 0x1FF SWAP2 SWAP1 PUSH2 0x8D8 JUMP JUMPDEST POP PUSH1 0x0 DUP2 SWAP1 SSTORE PUSH1 0x40 MLOAD DUP2 DUP2 MSTORE PUSH32 0x2BB747E79A08A1C04EB10DD42CDA5C18E27952B23403B19B58767700C8C401E0 SWAP1 PUSH1 0x20 ADD PUSH1 0x40 MLOAD DUP1 SWAP2 SUB SWAP1 LOG1 POP JUMP JUMPDEST PUSH1 0x40 MLOAD PUSH4 0xD2EDB6DD PUSH1 0xE0 SHL DUP2 MSTORE PUSH1 0x1 PUSH1 0x1 PUSH1 0xA0 SHL SUB DUP3 DUP2 AND PUSH1 0x4 DUP4 ADD MSTORE PUSH20 0xEEEEEEEEEEEEEEEEEEEEEEEEEEEEEEEEEEEEEEEE PUSH1 0x24 DUP4 ADD MSTORE PUSH1 0x0 SWAP2 PUSH32 0x0 SWAP1 SWAP2 AND SWAP1 PUSH4 0xD2EDB6DD SWAP1 PUSH1 0x44 ADD PUSH1 0x20 PUSH1 0x40 MLOAD DUP1 DUP4 SUB DUP2 DUP7 GAS STATICCALL SWAP3 POP POP POP DUP1 ISZERO PUSH2 0x330 JUMPI POP PUSH1 0x40 DUP1 MLOAD PUSH1 0x1F RETURNDATASIZE SWAP1 DUP2 ADD PUSH1 0x1F NOT AND DUP3 ADD SWAP1 SWAP3 MSTORE PUSH2 0x32D SWAP2 DUP2 ADD SWAP1 PUSH2 0x92D JUMP JUMPDEST PUSH1 0x1 JUMPDEST PUSH2 0x432 JUMPI PUSH2 0x33C PUSH2 0x94A JUMP JUMPDEST DUP1 PUSH4 0x8C379A0 EQ ISZERO PUSH2 0x41C JUMPI POP PUSH2 0x351 PUSH2 0x9A1 JUMP JUMPDEST DUP1 PUSH2 0x35C JUMPI POP PUSH2 0x41E JUMP JUMPDEST PUSH1 0x40 MLOAD PUSH4 0xD2EDB6DD PUSH1 0xE0 SHL DUP2 MSTORE PUSH1 0x1 PUSH1 0x1 PUSH1 0xA0 SHL SUB DUP5 DUP2 AND PUSH1 0x4 DUP4 ADD MSTORE PUSH2 0x348 PUSH1 0x24 DUP4 ADD MSTORE PUSH32 0x0 AND SWAP1 PUSH4 0xD2EDB6DD SWAP1 PUSH1 0x44 ADD PUSH1 0x20 PUSH1 0x40 MLOAD DUP1 DUP4 SUB DUP2 DUP7 GAS STATICCALL SWAP3 POP POP POP DUP1 ISZERO PUSH2 0x3E6 JUMPI POP PUSH1 0x40 DUP1 MLOAD PUSH1 0x1F RETURNDATASIZE SWAP1 DUP2 ADD PUSH1 0x1F NOT AND DUP3 ADD SWAP1 SWAP3 MSTORE PUSH2 0x3E3 SWAP2 DUP2 ADD SWAP1 PUSH2 0x92D JUMP JUMPDEST PUSH1 0x1 JUMPDEST PUSH2 0x428 JUMPI PUSH2 0x3F2 PUSH2 0x94A JUMP JUMPDEST DUP1 PUSH4 0x8C379A0 EQ ISZERO PUSH2 0x41C JUMPI POP PUSH2 0x407 PUSH2 0x9A1 JUMP JUMPDEST DUP1 PUSH2 0x412 JUMPI POP PUSH2 0x41E JUMP JUMPDEST POP PUSH1 0x0 SWAP4 SWAP3 POP POP POP JUMP JUMPDEST POP JUMPDEST RETURNDATASIZE PUSH1 0x0 DUP1 RETURNDATACOPY RETURNDATASIZE PUSH1 0x0 REVERT JUMPDEST POP PUSH1 0x1 SWAP4 SWAP3 POP POP POP JUMP JUMPDEST POP PUSH1 0x1 SWAP3 SWAP2 POP POP JUMP JUMPDEST SWAP2 SWAP1 POP JUMP JUMPDEST PUSH1 0x0 PUSH2 0x450 DUP3 PUSH2 0x348 PUSH1 0x0 PUSH2 0x474 JUMP JUMPDEST SWAP3 SWAP2 POP POP JUMP JUMPDEST PUSH1 0x0 PUSH2 0x450 DUP3 PUSH20 0xEEEEEEEEEEEEEEEEEEEEEEEEEEEEEEEEEEEEEEEE PUSH1 0x0 JUMPDEST PUSH1 0x40 MLOAD PUSH4 0xBCFD032D PUSH1 0xE0 SHL DUP2 MSTORE PUSH1 0x1 PUSH1 0x1 PUSH1 0xA0 SHL SUB DUP5 DUP2 AND PUSH1 0x4 DUP4 ADD MSTORE DUP4 DUP2 AND PUSH1 0x24 DUP4 ADD MSTORE PUSH1 0x0 SWAP2 PUSH32 0x0 SWAP1 SWAP2 AND SWAP1 PUSH4 0xBCFD032D SWAP1 PUSH1 0x44 ADD PUSH1 0xA0 PUSH1 0x40 MLOAD DUP1 DUP4 SUB DUP2 DUP7 GAS STATICCALL SWAP3 POP POP POP DUP1 ISZERO PUSH2 0x503 JUMPI POP PUSH1 0x40 DUP1 MLOAD PUSH1 0x1F RETURNDATASIZE SWAP1 DUP2 ADD PUSH1 0x1F NOT AND DUP3 ADD SWAP1 SWAP3 MSTORE PUSH2 0x500 SWAP2 DUP2 ADD SWAP1 PUSH2 0xA45 JUMP JUMPDEST PUSH1 0x1 JUMPDEST PUSH2 0x60B JUMPI PUSH2 0x50F PUSH2 0x94A JUMP JUMPDEST DUP1 PUSH4 0x8C379A0 EQ ISZERO PUSH2 0x41C JUMPI POP PUSH2 0x524 PUSH2 0x9A1 JUMP JUMPDEST DUP1 PUSH2 0x52F JUMPI POP PUSH2 0x41E JUMP JUMPDEST DUP3 ISZERO PUSH2 0x54F JUMPI DUP1 PUSH1 0x40 MLOAD PUSH3 0x461BCD PUSH1 0xE5 SHL DUP2 MSTORE PUSH1 0x4 ADD PUSH2 0x1FF SWAP2 SWAP1 PUSH2 0x8D8 JUMP JUMPDEST PUSH1 0x1 PUSH1 0x1 PUSH1 0xA0 SHL SUB DUP5 AND PUSH2 0x348 EQ ISZERO PUSH2 0x5C9 JUMPI PUSH8 0xDE0B6B3A7640000 PUSH2 0x58D PUSH20 0xEEEEEEEEEEEEEEEEEEEEEEEEEEEEEEEEEEEEEEEE PUSH2 0x348 PUSH1 0x1 PUSH2 0x474 JUMP JUMPDEST PUSH2 0x5AD DUP8 PUSH20 0xEEEEEEEEEEEEEEEEEEEEEEEEEEEEEEEEEEEEEEEE PUSH1 0x1 PUSH2 0x474 JUMP JUMPDEST PUSH2 0x5B7 SWAP2 SWAP1 PUSH2 0xAAB JUMP JUMPDEST PUSH2 0x5C1 SWAP2 SWAP1 PUSH2 0xACA JUMP JUMPDEST SWAP2 POP POP PUSH2 0x7F9 JUMP JUMPDEST PUSH2 0x5EB PUSH20 0xEEEEEEEEEEEEEEEEEEEEEEEEEEEEEEEEEEEEEEEE PUSH2 0x348 PUSH1 0x1 PUSH2 0x474 JUMP JUMPDEST PUSH2 0x5F9 DUP7 PUSH2 0x348 PUSH1 0x1 PUSH2 0x474 JUMP JUMPDEST PUSH2 0x5B7 SWAP1 PUSH8 0xDE0B6B3A7640000 PUSH2 0xAAB JUMP JUMPDEST PUSH1 0x40 DUP1 MLOAD DUP1 DUP3 ADD SWAP1 SWAP2 MSTORE PUSH1 0x12 DUP2 MSTORE PUSH18 0x526F756E64206E6F7420636F6D706C657465 PUSH1 0x70 SHL PUSH1 0x20 DUP3 ADD MSTORE DUP3 PUSH2 0x652 JUMPI PUSH1 0x40 MLOAD PUSH3 0x461BCD PUSH1 0xE5 SHL DUP2 MSTORE PUSH1 0x4 ADD PUSH2 0x1FF SWAP2 SWAP1 PUSH2 0x8D8 JUMP JUMPDEST POP PUSH1 0x0 SLOAD PUSH2 0x660 SWAP1 DUP4 PUSH2 0xAEC JUMP JUMPDEST TIMESTAMP GT ISZERO PUSH1 0x40 MLOAD DUP1 PUSH1 0x40 ADD PUSH1 0x40 MSTORE DUP1 PUSH1 0xE DUP2 MSTORE PUSH1 0x20 ADD PUSH14 0x5072696365206973207374616C65 PUSH1 0x90 SHL DUP2 MSTORE POP SWAP1 PUSH2 0x6A8 JUMPI PUSH1 0x40 MLOAD PUSH3 0x461BCD PUSH1 0xE5 SHL DUP2 MSTORE PUSH1 0x4 ADD PUSH2 0x1FF SWAP2 SWAP1 PUSH2 0x8D8 JUMP JUMPDEST POP PUSH1 0x40 DUP1 MLOAD DUP1 DUP3 ADD SWAP1 SWAP2 MSTORE PUSH1 0x11 DUP2 MSTORE PUSH17 0x5072696365206973206E65676174697665 PUSH1 0x78 SHL PUSH1 0x20 DUP3 ADD MSTORE DUP5 PUSH2 0x6EF JUMPI PUSH1 0x40 MLOAD PUSH3 0x461BCD PUSH1 0xE5 SHL DUP2 MSTORE PUSH1 0x4 ADD PUSH2 0x1FF SWAP2 SWAP1 PUSH2 0x8D8 JUMP JUMPDEST POP DUP5 PUSH10 0xFFFFFFFFFFFFFFFFFFFF AND DUP2 PUSH10 0xFFFFFFFFFFFFFFFFFFFF AND LT ISZERO PUSH1 0x40 MLOAD DUP1 PUSH1 0x40 ADD PUSH1 0x40 MSTORE DUP1 PUSH1 0xE DUP2 MSTORE PUSH1 0x20 ADD PUSH14 0x5072696365206973207374616C65 PUSH1 0x90 SHL DUP2 MSTORE POP SWAP1 PUSH2 0x751 JUMPI PUSH1 0x40 MLOAD PUSH3 0x461BCD PUSH1 0xE5 SHL DUP2 MSTORE PUSH1 0x4 ADD PUSH2 0x1FF SWAP2 SWAP1 PUSH2 0x8D8 JUMP JUMPDEST POP PUSH1 0x40 MLOAD PUSH4 0xB1C5A75 PUSH1 0xE3 SHL DUP2 MSTORE PUSH1 0x1 PUSH1 0x1 PUSH1 0xA0 SHL SUB DUP11 DUP2 AND PUSH1 0x4 DUP4 ADD MSTORE DUP10 DUP2 AND PUSH1 0x24 DUP4 ADD MSTORE PUSH2 0x7F1 SWAP2 PUSH32 0x0 SWAP1 SWAP2 AND SWAP1 PUSH4 0x58E2D3A8 SWAP1 PUSH1 0x44 ADD PUSH1 0x20 PUSH1 0x40 MLOAD DUP1 DUP4 SUB DUP2 DUP7 GAS STATICCALL ISZERO DUP1 ISZERO PUSH2 0x7C6 JUMPI RETURNDATASIZE PUSH1 0x0 DUP1 RETURNDATACOPY RETURNDATASIZE PUSH1 0x0 REVERT JUMPDEST POP POP POP POP PUSH1 0x40 MLOAD RETURNDATASIZE PUSH1 0x1F NOT PUSH1 0x1F DUP3 ADD AND DUP3 ADD DUP1 PUSH1 0x40 MSTORE POP DUP2 ADD SWAP1 PUSH2 0x7EA SWAP2 SWAP1 PUSH2 0xB04 JUMP JUMPDEST DUP6 SWAP1 PUSH2 0x800 JUMP JUMPDEST SWAP6 POP POP POP POP POP POP JUMPDEST SWAP4 SWAP3 POP POP POP JUMP JUMPDEST PUSH1 0x0 PUSH1 0xFF DUP3 AND PUSH1 0x12 EQ ISZERO PUSH2 0x815 JUMPI POP DUP2 PUSH2 0x450 JUMP JUMPDEST PUSH1 0x12 PUSH1 0xFF DUP4 AND GT ISZERO PUSH2 0x848 JUMPI PUSH2 0x82C PUSH1 0x12 DUP4 PUSH2 0xB27 JUMP JUMPDEST PUSH2 0x837 SWAP1 PUSH1 0xA PUSH2 0xC2E JUMP JUMPDEST PUSH2 0x841 SWAP1 DUP5 PUSH2 0xACA JUMP JUMPDEST SWAP1 POP PUSH2 0x450 JUMP JUMPDEST PUSH2 0x853 DUP3 PUSH1 0x12 PUSH2 0xB27 JUMP JUMPDEST PUSH2 0x85E SWAP1 PUSH1 0xA PUSH2 0xC2E JUMP JUMPDEST PUSH2 0x841 SWAP1 DUP5 PUSH2 0xAAB JUMP JUMPDEST PUSH1 0x0 PUSH1 0x20 DUP3 DUP5 SUB SLT ISZERO PUSH2 0x87A JUMPI PUSH1 0x0 DUP1 REVERT JUMPDEST POP CALLDATALOAD SWAP2 SWAP1 POP JUMP JUMPDEST PUSH1 0x1 PUSH1 0x1 PUSH1 0xA0 SHL SUB DUP2 AND DUP2 EQ PUSH2 0x896 JUMPI PUSH1 0x0 DUP1 REVERT JUMPDEST POP JUMP JUMPDEST PUSH1 0x0 PUSH1 0x20 DUP3 DUP5 SUB SLT ISZERO PUSH2 0x8AB JUMPI PUSH1 0x0 DUP1 REVERT JUMPDEST DUP2 CALLDATALOAD PUSH2 0x7F9 DUP2 PUSH2 0x881 JUMP JUMPDEST PUSH1 0x0 PUSH1 0x20 DUP3 DUP5 SUB SLT ISZERO PUSH2 0x8C8 JUMPI PUSH1 0x0 DUP1 REVERT JUMPDEST DUP2 MLOAD DUP1 ISZERO ISZERO DUP2 EQ PUSH2 0x7F9 JUMPI PUSH1 0x0 DUP1 REVERT JUMPDEST PUSH1 0x0 PUSH1 0x20 DUP1 DUP4 MSTORE DUP4 MLOAD DUP1 DUP3 DUP6 ADD MSTORE PUSH1 0x0 JUMPDEST DUP2 DUP2 LT ISZERO PUSH2 0x905 JUMPI DUP6 DUP2 ADD DUP4 ADD MLOAD DUP6 DUP3 ADD PUSH1 0x40 ADD MSTORE DUP3 ADD PUSH2 0x8E9 JUMP JUMPDEST DUP2 DUP2 GT ISZERO PUSH2 0x917 JUMPI PUSH1 0x0 PUSH1 0x40 DUP4 DUP8 ADD ADD MSTORE JUMPDEST POP PUSH1 0x1F ADD PUSH1 0x1F NOT AND SWAP3 SWAP1 SWAP3 ADD PUSH1 0x40 ADD SWAP4 SWAP3 POP POP POP JUMP JUMPDEST PUSH1 0x0 PUSH1 0x20 DUP3 DUP5 SUB SLT ISZERO PUSH2 0x93F JUMPI PUSH1 0x0 DUP1 REVERT JUMPDEST DUP2 MLOAD PUSH2 0x7F9 DUP2 PUSH2 0x881 JUMP JUMPDEST PUSH1 0x0 PUSH1 0x3 RETURNDATASIZE GT ISZERO PUSH2 0x963 JUMPI PUSH1 0x4 PUSH1 0x0 DUP1 RETURNDATACOPY POP PUSH1 0x0 MLOAD PUSH1 0xE0 SHR JUMPDEST SWAP1 JUMP JUMPDEST PUSH1 0x1F DUP3 ADD PUSH1 0x1F NOT AND DUP2 ADD PUSH8 0xFFFFFFFFFFFFFFFF DUP2 GT DUP3 DUP3 LT OR ISZERO PUSH2 0x99A JUMPI PUSH4 0x4E487B71 PUSH1 0xE0 SHL PUSH1 0x0 MSTORE PUSH1 0x41 PUSH1 0x4 MSTORE PUSH1 0x24 PUSH1 0x0 REVERT JUMPDEST PUSH1 0x40 MSTORE POP POP JUMP JUMPDEST PUSH1 0x0 PUSH1 0x44 RETURNDATASIZE LT ISZERO PUSH2 0x9AF JUMPI SWAP1 JUMP JUMPDEST PUSH1 0x40 MLOAD PUSH1 0x3 NOT RETURNDATASIZE DUP2 ADD PUSH1 0x4 DUP4 RETURNDATACOPY DUP2 MLOAD RETURNDATASIZE PUSH8 0xFFFFFFFFFFFFFFFF DUP2 PUSH1 0x24 DUP5 ADD GT DUP2 DUP5 GT OR ISZERO PUSH2 0x9DF JUMPI POP POP POP POP POP SWAP1 JUMP JUMPDEST DUP3 DUP6 ADD SWAP2 POP DUP2 MLOAD DUP2 DUP2 GT ISZERO PUSH2 0x9F7 JUMPI POP POP POP POP POP POP SWAP1 JUMP JUMPDEST DUP5 RETURNDATASIZE DUP8 ADD ADD PUSH1 0x20 DUP3 DUP6 ADD ADD GT ISZERO PUSH2 0xA11 JUMPI POP POP POP POP POP POP SWAP1 JUMP JUMPDEST PUSH2 0xA20 PUSH1 0x20 DUP3 DUP7 ADD ADD DUP8 PUSH2 0x966 JUMP JUMPDEST POP SWAP1 SWAP6 SWAP5 POP POP POP POP POP JUMP JUMPDEST DUP1 MLOAD PUSH10 0xFFFFFFFFFFFFFFFFFFFF DUP2 AND DUP2 EQ PUSH2 0x43B JUMPI PUSH1 0x0 DUP1 REVERT JUMPDEST PUSH1 0x0 DUP1 PUSH1 0x0 DUP1 PUSH1 0x0 PUSH1 0xA0 DUP7 DUP9 SUB SLT ISZERO PUSH2 0xA5D JUMPI PUSH1 0x0 DUP1 REVERT JUMPDEST PUSH2 0xA66 DUP7 PUSH2 0xA2B JUMP JUMPDEST SWAP5 POP PUSH1 0x20 DUP7 ADD MLOAD SWAP4 POP PUSH1 0x40 DUP7 ADD MLOAD SWAP3 POP PUSH1 0x60 DUP7 ADD MLOAD SWAP2 POP PUSH2 0xA89 PUSH1 0x80 DUP8 ADD PUSH2 0xA2B JUMP JUMPDEST SWAP1 POP SWAP3 SWAP6 POP SWAP3 SWAP6 SWAP1 SWAP4 POP JUMP JUMPDEST PUSH4 0x4E487B71 PUSH1 0xE0 SHL PUSH1 0x0 MSTORE PUSH1 0x11 PUSH1 0x4 MSTORE PUSH1 0x24 PUSH1 0x0 REVERT JUMPDEST PUSH1 0x0 DUP2 PUSH1 0x0 NOT DIV DUP4 GT DUP3 ISZERO ISZERO AND ISZERO PUSH2 0xAC5 JUMPI PUSH2 0xAC5 PUSH2 0xA95 JUMP JUMPDEST POP MUL SWAP1 JUMP JUMPDEST PUSH1 0x0 DUP3 PUSH2 0xAE7 JUMPI PUSH4 0x4E487B71 PUSH1 0xE0 SHL PUSH1 0x0 MSTORE PUSH1 0x12 PUSH1 0x4 MSTORE PUSH1 0x24 PUSH1 0x0 REVERT JUMPDEST POP DIV SWAP1 JUMP JUMPDEST PUSH1 0x0 DUP3 NOT DUP3 GT ISZERO PUSH2 0xAFF JUMPI PUSH2 0xAFF PUSH2 0xA95 JUMP JUMPDEST POP ADD SWAP1 JUMP JUMPDEST PUSH1 0x0 PUSH1 0x20 DUP3 DUP5 SUB SLT ISZERO PUSH2 0xB16 JUMPI PUSH1 0x0 DUP1 REVERT JUMPDEST DUP2 MLOAD PUSH1 0xFF DUP2 AND DUP2 EQ PUSH2 0x7F9 JUMPI PUSH1 0x0 DUP1 REVERT JUMPDEST PUSH1 0x0 PUSH1 0xFF DUP3 AND PUSH1 0xFF DUP5 AND DUP1 DUP3 LT ISZERO PUSH2 0xB41 JUMPI PUSH2 0xB41 PUSH2 0xA95 JUMP JUMPDEST SWAP1 SUB SWAP4 SWAP3 POP POP POP JUMP JUMPDEST PUSH1 0x1 DUP2 DUP2 JUMPDEST DUP1 DUP6 GT ISZERO PUSH2 0xB85 JUMPI DUP2 PUSH1 0x0 NOT DIV DUP3 GT ISZERO PUSH2 0xB6B JUMPI PUSH2 0xB6B PUSH2 0xA95 JUMP JUMPDEST DUP1 DUP6 AND ISZERO PUSH2 0xB78 JUMPI SWAP2 DUP2 MUL SWAP2 JUMPDEST SWAP4 DUP5 SHR SWAP4 SWAP1 DUP1 MUL SWAP1 PUSH2 0xB4F JUMP JUMPDEST POP SWAP3 POP SWAP3 SWAP1 POP JUMP JUMPDEST PUSH1 0x0 DUP3 PUSH2 0xB9C JUMPI POP PUSH1 0x1 PUSH2 0x450 JUMP JUMPDEST DUP2 PUSH2 0xBA9 JUMPI POP PUSH1 0x0 PUSH2 0x450 JUMP JUMPDEST DUP2 PUSH1 0x1 DUP2 EQ PUSH2 0xBBF JUMPI PUSH1 0x2 DUP2 EQ PUSH2 0xBC9 JUMPI PUSH2 0xBE5 JUMP JUMPDEST PUSH1 0x1 SWAP2 POP POP PUSH2 0x450 JUMP JUMPDEST PUSH1 0xFF DUP5 GT ISZERO PUSH2 0xBDA JUMPI PUSH2 0xBDA PUSH2 0xA95 JUMP JUMPDEST POP POP PUSH1 0x1 DUP3 SHL PUSH2 0x450 JUMP JUMPDEST POP PUSH1 0x20 DUP4 LT PUSH2 0x133 DUP4 LT AND PUSH1 0x4E DUP5 LT PUSH1 0xB DUP5 LT AND OR ISZERO PUSH2 0xC08 JUMPI POP DUP2 DUP2 EXP PUSH2 0x450 JUMP JUMPDEST PUSH2 0xC12 DUP4 DUP4 PUSH2 0xB4A JUMP JUMPDEST DUP1 PUSH1 0x0 NOT DIV DUP3 GT ISZERO PUSH2 0xC26 JUMPI PUSH2 0xC26 PUSH2 0xA95 JUMP JUMPDEST MUL SWAP4 SWAP3 POP POP POP JUMP JUMPDEST PUSH1 0x0 PUSH2 0x7F9 PUSH1 0xFF DUP5 AND DUP4 PUSH2 0xB8D JUMP INVALID LOG2 PUSH5 0x6970667358 0x22 SLT KECCAK256 0x5F ORIGIN 0xD1 0x2A CHAINID 0xE1 0xE5 CALLCODE 0xCA PUSH12 0x25EADED904B1B88AFB9B32A3 SHL 0xB8 PC 0xA7 EXTCODECOPY DIFFICULTY PUSH21 0xED322664736F6C634300080A003300000000000000 ","sha1":"a8ab1f065d8c283c9c4ce6e6f2fdade0463a1371","source":"// SPDX-License-Identifier: GPL-3.0-or-later\npragma solidity 0.8.10;\n\nimport \"@chainlink/contracts/Denominations.sol\";\nimport \"@chainlink/contracts/interfaces/FeedRegistryInterface.sol\";\n\nimport \"../access/Authorization.sol\";\n\nimport \"../../libraries/Errors.sol\";\nimport \"../../libraries/DecimalScale.sol\";\n\nimport \"../../interfaces/oracles/IChainlinkOracleProvider.sol\";\n\ncontract ChainlinkOracleProvider is IChainlinkOracleProvider, Authorization {\n    using DecimalScale for uint256;\n\n    FeedRegistryInterface internal immutable _feedRegistry;\n\n    uint256 public stalePriceDelay;\n\n    event FeedUpdated(address indexed asset, address indexed previousFeed, address indexed newFeed);\n    event StalePriceDelaySet(uint256 newStalePriceDelay);\n\n    constructor(IRoleManager roleManager_, address feedRegistry_) Authorization(roleManager_) {\n        _feedRegistry = FeedRegistryInterface(feedRegistry_);\n\n        stalePriceDelay = 1 days;\n    }\n\n    /**\n     * @notice Sets the stale price delay value.\n     * @param stalePriceDelay_ The new stale price delay to set.\n     */\n    function setStalePriceDelay(uint256 stalePriceDelay_) external override onlyGovernance {\n        require(stalePriceDelay_ >= 1 hours, Error.INVALID_ARGUMENT);\n        stalePriceDelay = stalePriceDelay_;\n        emit StalePriceDelaySet(stalePriceDelay_);\n    }\n\n    /// @inheritdoc IOracleProvider\n    function isAssetSupported(address baseAsset) external view override returns (bool) {\n        try _feedRegistry.getFeed(baseAsset, Denominations.ETH) returns (AggregatorV2V3Interface) {\n            return true;\n        } catch Error(string memory) {\n            try _feedRegistry.getFeed(baseAsset, Denominations.USD) returns (\n                AggregatorV2V3Interface\n            ) {\n                return true;\n            } catch Error(string memory) {\n                return false;\n            }\n        }\n    }\n\n    /// @inheritdoc IOracleProvider\n    function getPriceETH(address asset_) external view override returns (uint256) {\n        return _getPrice(asset_, Denominations.ETH, false);\n    }\n\n    /// @inheritdoc IOracleProvider\n    function getPriceUSD(address asset_) public view override returns (uint256) {\n        return _getPrice(asset_, Denominations.USD, false);\n    }\n\n    function _getPrice(\n        address asset_,\n        address denomination_,\n        bool revert_\n    ) internal view returns (uint256) {\n        try _feedRegistry.latestRoundData(asset_, denomination_) returns (\n            uint80 roundID_,\n            int256 price_,\n            uint256, // startedAt\n            uint256 timeStamp_,\n            uint80 answeredInRound_\n        ) {\n            require(timeStamp_ != 0, Error.ROUND_NOT_COMPLETE);\n            require(block.timestamp <= timeStamp_ + stalePriceDelay, Error.STALE_PRICE);\n            require(price_ != 0, Error.NEGATIVE_PRICE);\n            require(answeredInRound_ >= roundID_, Error.STALE_PRICE);\n\n            return uint256(price_).scaleFrom(_feedRegistry.decimals(asset_, denomination_));\n        } catch Error(string memory reason) {\n            if (revert_) revert(reason);\n\n            if (denomination_ == Denominations.USD) {\n                return\n                    (_getPrice(asset_, Denominations.ETH, true) *\n                        _getPrice(Denominations.ETH, Denominations.USD, true)) / 1e18;\n            }\n            return\n                (_getPrice(asset_, Denominations.USD, true) * 1e18) /\n                _getPrice(Denominations.ETH, Denominations.USD, true);\n        }\n    }\n}\n","sourcePath":"contracts/oracles/ChainlinkOracleProvider.sol","type":"contract","deployment":{"address":"0x97F3fa4BeB6536194C862F9CcAe7e77074511a6B","chainid":"1","blockHeight":15323617}}