{"abi":[{"inputs":[{"internalType":"contract IAddressProvider","name":"_addressProvider","type":"address"},{"internalType":"address","name":"_stakerVault","type":"address"}],"stateMutability":"nonpayable","type":"constructor","name":"constructor"},{"anonymous":false,"inputs":[],"name":"Killed","type":"event"},{"inputs":[],"name":"addressProvider","outputs":[{"internalType":"contract IAddressProvider","name":"","type":"address"}],"stateMutability":"view","type":"function"},{"inputs":[{"internalType":"address","name":"beneficiary","type":"address"}],"name":"claimRewards","outputs":[{"internalType":"uint256","name":"","type":"uint256"}],"stateMutability":"nonpayable","type":"function"},{"inputs":[{"internalType":"address","name":"beneficiary","type":"address"}],"name":"claimableRewards","outputs":[{"internalType":"uint256","name":"","type":"uint256"}],"stateMutability":"view","type":"function"},{"inputs":[],"name":"inflationManager","outputs":[{"internalType":"contract IInflationManager","name":"","type":"address"}],"stateMutability":"view","type":"function"},{"inputs":[],"name":"kill","outputs":[],"stateMutability":"nonpayable","type":"function"},{"inputs":[],"name":"killed","outputs":[{"internalType":"bool","name":"","type":"bool"}],"stateMutability":"view","type":"function"},{"inputs":[{"internalType":"address","name":"","type":"address"}],"name":"perUserShare","outputs":[{"internalType":"uint256","name":"","type":"uint256"}],"stateMutability":"view","type":"function"},{"inputs":[{"internalType":"address","name":"","type":"address"}],"name":"perUserStakedIntegral","outputs":[{"internalType":"uint256","name":"","type":"uint256"}],"stateMutability":"view","type":"function"},{"inputs":[],"name":"poolCheckpoint","outputs":[],"stateMutability":"nonpayable","type":"function"},{"inputs":[{"internalType":"uint256","name":"updateEndTime","type":"uint256"}],"name":"poolCheckpoint","outputs":[],"stateMutability":"nonpayable","type":"function"},{"inputs":[],"name":"poolLastUpdate","outputs":[{"internalType":"uint256","name":"","type":"uint256"}],"stateMutability":"view","type":"function"},{"inputs":[],"name":"poolStakedIntegral","outputs":[{"internalType":"uint256","name":"","type":"uint256"}],"stateMutability":"view","type":"function"},{"inputs":[],"name":"roleManager","outputs":[{"internalType":"contract IRoleManager","name":"","type":"address"}],"stateMutability":"view","type":"function"},{"inputs":[],"name":"stakerVault","outputs":[{"internalType":"contract IStakerVault","name":"","type":"address"}],"stateMutability":"view","type":"function"},{"inputs":[{"internalType":"address","name":"user","type":"address"}],"name":"userCheckpoint","outputs":[{"internalType":"bool","name":"","type":"bool"}],"stateMutability":"nonpayable","type":"function"}],"bytecode":"6101006040523480156200001257600080fd5b50604051620012233803806200122383398101604081905262000035916200024c565b62000054826001600160a01b03166200016d60201b620009d51760201c565b6001600160a01b0390811660805260408051808201909152601881527f7a65726f2061646472657373206e6f7420616c6c6f77656400000000000000006020820152908216620000c25760405162461bcd60e51b8152600401620000b991906200028b565b60405180910390fd5b506001600160a01b0382811660a081905290821660c052600090620000f390620001f0602090811b62000a4f17901c565b60408051808201909152601881527f7a65726f2061646472657373206e6f7420616c6c6f776564000000000000000060208201529091506001600160a01b038216620001545760405162461bcd60e51b8152600401620000b991906200028b565b506001600160a01b031660e0525050426002556200030a565b6040516321f8a72160e01b81526a3937b632a6b0b730b3b2b960a91b60048201526000906001600160a01b038316906321f8a721906024015b602060405180830381865afa158015620001c4573d6000803e3d6000fd5b505050506040513d601f19601f82011682018060405250810190620001ea9190620002e3565b92915050565b6040516321f8a72160e01b81526f34b7333630ba34b7b726b0b730b3b2b960811b60048201526000906001600160a01b038316906321f8a72190602401620001a6565b6001600160a01b03811681146200024957600080fd5b50565b600080604083850312156200026057600080fd5b82516200026d8162000233565b6020840151909250620002808162000233565b809150509250929050565b600060208083528351808285015260005b81811015620002ba578581018301518582016040015282016200029c565b81811115620002cd576000604083870101525b50601f01601f1916929092016040019392505050565b600060208284031215620002f657600080fd5b8151620003038162000233565b9392505050565b60805160a05160c05160e051610e7e620003a56000396000818161022d0152818161038e015281816106c201528181610ae10152610c670152600081816102060152818161030f0152818161050b015281816105d20152818161069a015281816107900152818161081f01528181610ab60152610b5401526000818161015a015261044a01526000818160fb01526108950152610e7e6000f3fe608060405234801561001057600080fd5b50600436106100f45760003560e01c806386d981aa11610097578063dbcd89fa11610066578063dbcd89fa14610228578063dc01f60d1461024f578063e7945d0014610262578063ef5cfb8c1461027557600080fd5b806386d981aa146101c5578063870cf99f146101ce578063b07b709b146101ee578063c4f5531a1461020157600080fd5b8063387a7f32116100d3578063387a7f321461017c57806341c0e1b5146101935780635790a0c81461019d57806367673084146101a557600080fd5b8062435da5146100f95780631f3a0e41146101385780632954018c14610155575b600080fd5b7f00000000000000000000000000000000000000000000000000000000000000005b6040516001600160a01b0390911681526020015b60405180910390f35b6000546101459060ff1681565b604051901515815260200161012f565b61011b7f000000000000000000000000000000000000000000000000000000000000000081565b61018560015481565b60405190815260200161012f565b61019b610288565b005b61019b61038c565b6101856101b3366004610cdf565b60036020526000908152604090205481565b61018560025481565b6101856101dc366004610cdf565b60046020526000908152604090205481565b6101456101fc366004610cdf565b610421565b61011b7f000000000000000000000000000000000000000000000000000000000000000081565b61011b7f000000000000000000000000000000000000000000000000000000000000000081565b61018561025d366004610cdf565b6105cd565b61019b610270366004610cfc565b6107ea565b610185610283366004610cdf565b61087f565b60005460408051808201909152600c81526b19d85d59d9481ada5b1b195960a21b60208201529060ff16156102d95760405162461bcd60e51b81526004016102d09190610d15565b60405180910390fd5b50604080518082019091526013815272756e617574686f72697a65642061636365737360681b6020820152336001600160a01b037f0000000000000000000000000000000000000000000000000000000000000000161461034d5760405162461bcd60e51b81526004016102d09190610d15565b5061035661038c565b6000805460ff191660011781556040517f0f8eeedbc400fd6686703559f58d1e6143fdaed533f19a86c93d67a2fe4fb3319190a1565b7f00000000000000000000000000000000000000000000000000000000000000006001600160a01b03166390b3f1566040518163ffffffff1660e01b8152600401600060405180830381600087803b1580156103e757600080fd5b505af11580156103fb573d6000803e3d6000fd5b5050505060006002544261040f9190610d80565b905061041a81610a91565b5042600255565b600061042b61038c565b60405163622e68cb60e01b81526001600160a01b0383811660048301527f0000000000000000000000000000000000000000000000000000000000000000169063622e68cb90602401602060405180830381865afa158015610491573d6000803e3d6000fd5b505050506040513d601f19601f820116820180604052508101906104b59190610d97565b156104c257506000919050565b6001546001600160a01b03831660009081526003602052604090205461057d906104ec9083610d80565b60405163a853ba2f60e01b81526001600160a01b0386811660048301527f0000000000000000000000000000000000000000000000000000000000000000169063a853ba2f906024015b602060405180830381865afa158015610553573d6000803e3d6000fd5b505050506040513d601f19601f820116820180604052508101906105779190610db9565b90610c06565b6001600160a01b038416600090815260046020526040812080549091906105a5908490610dd2565b90915550506001600160a01b0390921660009081526003602052604090209190915550600190565b6000807f00000000000000000000000000000000000000000000000000000000000000006001600160a01b0316638aa01ea96040518163ffffffff1660e01b8152600401602060405180830381865afa15801561062e573d6000803e3d6000fd5b505050506040513d601f19601f820116820180604052508101906106529190610db9565b6001546000549192509060ff1615801561066c5750600082115b1561074a5761073d82600254426106839190610d80565b604051632897a55360e01b81526001600160a01b037f0000000000000000000000000000000000000000000000000000000000000000811660048301527f00000000000000000000000000000000000000000000000000000000000000001690632897a55390602401602060405180830381865afa158015610709573d6000803e3d6000fd5b505050506040513d601f19601f8201168201806040525081019061072d9190610db9565b6107379190610dea565b90610c2c565b6107479082610dd2565b90505b6001600160a01b0384166000908152600360205260409020546107bf906107719083610d80565b60405163a853ba2f60e01b81526001600160a01b0387811660048301527f0000000000000000000000000000000000000000000000000000000000000000169063a853ba2f90602401610536565b6001600160a01b0385166000908152600460205260409020546107e29190610dd2565b949350505050565b604080518082019091526013815272756e617574686f72697a65642061636365737360681b6020820152336001600160a01b037f0000000000000000000000000000000000000000000000000000000000000000161461085d5760405162461bcd60e51b81526004016102d09190610d15565b5060006002548261086e9190610d80565b905061087981610a91565b50600255565b6000336001600160a01b038316148061093057507f0000000000000000000000000000000000000000000000000000000000000000604051632474521560e21b815268067617567655f7a61760bc1b60048201523360248201526001600160a01b0391909116906391d1485490604401602060405180830381865afa15801561090c573d6000803e3d6000fd5b505050506040513d601f19601f820116820180604052508101906109309190610d97565b60405180604001604052806013815260200172756e617574686f72697a65642061636365737360681b8152509061097a5760405162461bcd60e51b81526004016102d09190610d15565b5061098482610421565b506001600160a01b038216600090815260046020526040902054806109ac5750600092915050565b6001600160a01b0383166000908152600460205260408120556109cf8382610c41565b92915050565b6040516321f8a72160e01b81526a3937b632a6b0b730b3b2b960a91b60048201526000906001600160a01b038316906321f8a721906024015b602060405180830381865afa158015610a2b573d6000803e3d6000fd5b505050506040513d601f19601f820116820180604052508101906109cf9190610e09565b6040516321f8a72160e01b81526f34b7333630ba34b7b726b0b730b3b2b960811b60048201526000906001600160a01b038316906321f8a72190602401610a0e565b60005460ff1615610a9f5750565b604051632897a55360e01b81526001600160a01b037f0000000000000000000000000000000000000000000000000000000000000000811660048301526000917f000000000000000000000000000000000000000000000000000000000000000090911690632897a55390602401602060405180830381865afa158015610b2a573d6000803e3d6000fd5b505050506040513d601f19601f82011682018060405250810190610b4e9190610db9565b905060007f00000000000000000000000000000000000000000000000000000000000000006001600160a01b0316638aa01ea96040518163ffffffff1660e01b8152600401602060405180830381865afa158015610bb0573d6000803e3d6000fd5b505050506040513d601f19601f82011682018060405250810190610bd49190610db9565b90508015610c0157610bea816107378585610dea565b60016000828254610bfb9190610dd2565b90915550505b505050565b6000670de0b6b3a7640000610c1b8385610dea565b610c259190610e26565b9392505050565b600081610c1b670de0b6b3a764000085610dea565b6040516335106f4960e11b81526001600160a01b038381166004830152602482018390527f00000000000000000000000000000000000000000000000000000000000000001690636a20de9290604401600060405180830381600087803b158015610cab57600080fd5b505af1158015610cbf573d6000803e3d6000fd5b505050505050565b6001600160a01b0381168114610cdc57600080fd5b50565b600060208284031215610cf157600080fd5b8135610c2581610cc7565b600060208284031215610d0e57600080fd5b5035919050565b600060208083528351808285015260005b81811015610d4257858101830151858201604001528201610d26565b81811115610d54576000604083870101525b50601f01601f1916929092016040019392505050565b634e487b7160e01b600052601160045260246000fd5b600082821015610d9257610d92610d6a565b500390565b600060208284031215610da957600080fd5b81518015158114610c2557600080fd5b600060208284031215610dcb57600080fd5b5051919050565b60008219821115610de557610de5610d6a565b500190565b6000816000190483118215151615610e0457610e04610d6a565b500290565b600060208284031215610e1b57600080fd5b8151610c2581610cc7565b600082610e4357634e487b7160e01b600052601260045260246000fd5b50049056fea26469706673582212203e0d376ab9ea38e413dbe0bf5605640b519d3468ec439a7b2aa982a645d7b72764736f6c634300080a0033","bytecodeSha1":"771b9f5bbb31db1811bd717fdb8edabc86dba183","compiler":{"evm_version":"london","optimizer":{"enabled":true,"runs":200},"version":"0.8.10+commit.fc410830"},"contractName":"LpGauge","language":"Solidity","natspec":{"kind":"dev","methods":{"claimRewards(address)":{"notice":"Calculates the token rewards a user should receive and mints these.","params":{"beneficiary":"Address to claim rewards for."},"returns":{"_0":"`true` if success."}},"kill()":{"notice":"Checkpoint function for the pool statistics."},"poolCheckpoint()":{"notice":"Checkpoint function for the pool statistics."},"poolCheckpoint(uint256)":{"notice":"Checkpoint function for the pool statistics."},"userCheckpoint(address)":{"notice":"Checkpoint function for the statistics for a particular user.","params":{"user":"Address of the user to checkpoint."},"returns":{"_0":"`true` if successful."}}},"version":1},"opcodes":"PUSH1 0x80 PUSH1 0x40 MSTORE CALLVALUE DUP1 ISZERO PUSH2 0x10 JUMPI PUSH1 0x0 DUP1 REVERT JUMPDEST POP PUSH1 0x4 CALLDATASIZE LT PUSH2 0xF4 JUMPI PUSH1 0x0 CALLDATALOAD PUSH1 0xE0 SHR DUP1 PUSH4 0x86D981AA GT PUSH2 0x97 JUMPI DUP1 PUSH4 0xDBCD89FA GT PUSH2 0x66 JUMPI DUP1 PUSH4 0xDBCD89FA EQ PUSH2 0x228 JUMPI DUP1 PUSH4 0xDC01F60D EQ PUSH2 0x24F JUMPI DUP1 PUSH4 0xE7945D00 EQ PUSH2 0x262 JUMPI DUP1 PUSH4 0xEF5CFB8C EQ PUSH2 0x275 JUMPI PUSH1 0x0 DUP1 REVERT JUMPDEST DUP1 PUSH4 0x86D981AA EQ PUSH2 0x1C5 JUMPI DUP1 PUSH4 0x870CF99F EQ PUSH2 0x1CE JUMPI DUP1 PUSH4 0xB07B709B EQ PUSH2 0x1EE JUMPI DUP1 PUSH4 0xC4F5531A EQ PUSH2 0x201 JUMPI PUSH1 0x0 DUP1 REVERT JUMPDEST DUP1 PUSH4 0x387A7F32 GT PUSH2 0xD3 JUMPI DUP1 PUSH4 0x387A7F32 EQ PUSH2 0x17C JUMPI DUP1 PUSH4 0x41C0E1B5 EQ PUSH2 0x193 JUMPI DUP1 PUSH4 0x5790A0C8 EQ PUSH2 0x19D JUMPI DUP1 PUSH4 0x67673084 EQ PUSH2 0x1A5 JUMPI PUSH1 0x0 DUP1 REVERT JUMPDEST DUP1 PUSH3 0x435DA5 EQ PUSH2 0xF9 JUMPI DUP1 PUSH4 0x1F3A0E41 EQ PUSH2 0x138 JUMPI DUP1 PUSH4 0x2954018C EQ PUSH2 0x155 JUMPI JUMPDEST PUSH1 0x0 DUP1 REVERT JUMPDEST PUSH32 0x0 JUMPDEST PUSH1 0x40 MLOAD PUSH1 0x1 PUSH1 0x1 PUSH1 0xA0 SHL SUB SWAP1 SWAP2 AND DUP2 MSTORE PUSH1 0x20 ADD JUMPDEST PUSH1 0x40 MLOAD DUP1 SWAP2 SUB SWAP1 RETURN JUMPDEST PUSH1 0x0 SLOAD PUSH2 0x145 SWAP1 PUSH1 0xFF AND DUP2 JUMP JUMPDEST PUSH1 0x40 MLOAD SWAP1 ISZERO ISZERO DUP2 MSTORE PUSH1 0x20 ADD PUSH2 0x12F JUMP JUMPDEST PUSH2 0x11B PUSH32 0x0 DUP2 JUMP JUMPDEST PUSH2 0x185 PUSH1 0x1 SLOAD DUP2 JUMP JUMPDEST PUSH1 0x40 MLOAD SWAP1 DUP2 MSTORE PUSH1 0x20 ADD PUSH2 0x12F JUMP JUMPDEST PUSH2 0x19B PUSH2 0x288 JUMP JUMPDEST STOP JUMPDEST PUSH2 0x19B PUSH2 0x38C JUMP JUMPDEST PUSH2 0x185 PUSH2 0x1B3 CALLDATASIZE PUSH1 0x4 PUSH2 0xCDF JUMP JUMPDEST PUSH1 0x3 PUSH1 0x20 MSTORE PUSH1 0x0 SWAP1 DUP2 MSTORE PUSH1 0x40 SWAP1 KECCAK256 SLOAD DUP2 JUMP JUMPDEST PUSH2 0x185 PUSH1 0x2 SLOAD DUP2 JUMP JUMPDEST PUSH2 0x185 PUSH2 0x1DC CALLDATASIZE PUSH1 0x4 PUSH2 0xCDF JUMP JUMPDEST PUSH1 0x4 PUSH1 0x20 MSTORE PUSH1 0x0 SWAP1 DUP2 MSTORE PUSH1 0x40 SWAP1 KECCAK256 SLOAD DUP2 JUMP JUMPDEST PUSH2 0x145 PUSH2 0x1FC CALLDATASIZE PUSH1 0x4 PUSH2 0xCDF JUMP JUMPDEST PUSH2 0x421 JUMP JUMPDEST PUSH2 0x11B PUSH32 0x0 DUP2 JUMP JUMPDEST PUSH2 0x11B PUSH32 0x0 DUP2 JUMP JUMPDEST PUSH2 0x185 PUSH2 0x25D CALLDATASIZE PUSH1 0x4 PUSH2 0xCDF JUMP JUMPDEST PUSH2 0x5CD JUMP JUMPDEST PUSH2 0x19B PUSH2 0x270 CALLDATASIZE PUSH1 0x4 PUSH2 0xCFC JUMP JUMPDEST PUSH2 0x7EA JUMP JUMPDEST PUSH2 0x185 PUSH2 0x283 CALLDATASIZE PUSH1 0x4 PUSH2 0xCDF JUMP JUMPDEST PUSH2 0x87F JUMP JUMPDEST PUSH1 0x0 SLOAD PUSH1 0x40 DUP1 MLOAD DUP1 DUP3 ADD SWAP1 SWAP2 MSTORE PUSH1 0xC DUP2 MSTORE PUSH12 0x19D85D59D9481ADA5B1B1959 PUSH1 0xA2 SHL PUSH1 0x20 DUP3 ADD MSTORE SWAP1 PUSH1 0xFF AND ISZERO PUSH2 0x2D9 JUMPI PUSH1 0x40 MLOAD PUSH3 0x461BCD PUSH1 0xE5 SHL DUP2 MSTORE PUSH1 0x4 ADD PUSH2 0x2D0 SWAP2 SWAP1 PUSH2 0xD15 JUMP JUMPDEST PUSH1 0x40 MLOAD DUP1 SWAP2 SUB SWAP1 REVERT JUMPDEST POP PUSH1 0x40 DUP1 MLOAD DUP1 DUP3 ADD SWAP1 SWAP2 MSTORE PUSH1 0x13 DUP2 MSTORE PUSH19 0x756E617574686F72697A656420616363657373 PUSH1 0x68 SHL PUSH1 0x20 DUP3 ADD MSTORE CALLER PUSH1 0x1 PUSH1 0x1 PUSH1 0xA0 SHL SUB PUSH32 0x0 AND EQ PUSH2 0x34D JUMPI PUSH1 0x40 MLOAD PUSH3 0x461BCD PUSH1 0xE5 SHL DUP2 MSTORE PUSH1 0x4 ADD PUSH2 0x2D0 SWAP2 SWAP1 PUSH2 0xD15 JUMP JUMPDEST POP PUSH2 0x356 PUSH2 0x38C JUMP JUMPDEST PUSH1 0x0 DUP1 SLOAD PUSH1 0xFF NOT AND PUSH1 0x1 OR DUP2 SSTORE PUSH1 0x40 MLOAD PUSH32 0xF8EEEDBC400FD6686703559F58D1E6143FDAED533F19A86C93D67A2FE4FB331 SWAP2 SWAP1 LOG1 JUMP JUMPDEST PUSH32 0x0 PUSH1 0x1 PUSH1 0x1 PUSH1 0xA0 SHL SUB AND PUSH4 0x90B3F156 PUSH1 0x40 MLOAD DUP2 PUSH4 0xFFFFFFFF AND PUSH1 0xE0 SHL DUP2 MSTORE PUSH1 0x4 ADD PUSH1 0x0 PUSH1 0x40 MLOAD DUP1 DUP4 SUB DUP2 PUSH1 0x0 DUP8 DUP1 EXTCODESIZE ISZERO DUP1 ISZERO PUSH2 0x3E7 JUMPI PUSH1 0x0 DUP1 REVERT JUMPDEST POP GAS CALL ISZERO DUP1 ISZERO PUSH2 0x3FB JUMPI RETURNDATASIZE PUSH1 0x0 DUP1 RETURNDATACOPY RETURNDATASIZE PUSH1 0x0 REVERT JUMPDEST POP POP POP POP PUSH1 0x0 PUSH1 0x2 SLOAD TIMESTAMP PUSH2 0x40F SWAP2 SWAP1 PUSH2 0xD80 JUMP JUMPDEST SWAP1 POP PUSH2 0x41A DUP2 PUSH2 0xA91 JUMP JUMPDEST POP TIMESTAMP PUSH1 0x2 SSTORE JUMP JUMPDEST PUSH1 0x0 PUSH2 0x42B PUSH2 0x38C JUMP JUMPDEST PUSH1 0x40 MLOAD PUSH4 0x622E68CB PUSH1 0xE0 SHL DUP2 MSTORE PUSH1 0x1 PUSH1 0x1 PUSH1 0xA0 SHL SUB DUP4 DUP2 AND PUSH1 0x4 DUP4 ADD MSTORE PUSH32 0x0 AND SWAP1 PUSH4 0x622E68CB SWAP1 PUSH1 0x24 ADD PUSH1 0x20 PUSH1 0x40 MLOAD DUP1 DUP4 SUB DUP2 DUP7 GAS STATICCALL ISZERO DUP1 ISZERO PUSH2 0x491 JUMPI RETURNDATASIZE PUSH1 0x0 DUP1 RETURNDATACOPY RETURNDATASIZE PUSH1 0x0 REVERT JUMPDEST POP POP POP POP PUSH1 0x40 MLOAD RETURNDATASIZE PUSH1 0x1F NOT PUSH1 0x1F DUP3 ADD AND DUP3 ADD DUP1 PUSH1 0x40 MSTORE POP DUP2 ADD SWAP1 PUSH2 0x4B5 SWAP2 SWAP1 PUSH2 0xD97 JUMP JUMPDEST ISZERO PUSH2 0x4C2 JUMPI POP PUSH1 0x0 SWAP2 SWAP1 POP JUMP JUMPDEST PUSH1 0x1 SLOAD PUSH1 0x1 PUSH1 0x1 PUSH1 0xA0 SHL SUB DUP4 AND PUSH1 0x0 SWAP1 DUP2 MSTORE PUSH1 0x3 PUSH1 0x20 MSTORE PUSH1 0x40 SWAP1 KECCAK256 SLOAD PUSH2 0x57D SWAP1 PUSH2 0x4EC SWAP1 DUP4 PUSH2 0xD80 JUMP JUMPDEST PUSH1 0x40 MLOAD PUSH4 0xA853BA2F PUSH1 0xE0 SHL DUP2 MSTORE PUSH1 0x1 PUSH1 0x1 PUSH1 0xA0 SHL SUB DUP7 DUP2 AND PUSH1 0x4 DUP4 ADD MSTORE PUSH32 0x0 AND SWAP1 PUSH4 0xA853BA2F SWAP1 PUSH1 0x24 ADD JUMPDEST PUSH1 0x20 PUSH1 0x40 MLOAD DUP1 DUP4 SUB DUP2 DUP7 GAS STATICCALL ISZERO DUP1 ISZERO PUSH2 0x553 JUMPI RETURNDATASIZE PUSH1 0x0 DUP1 RETURNDATACOPY RETURNDATASIZE PUSH1 0x0 REVERT JUMPDEST POP POP POP POP PUSH1 0x40 MLOAD RETURNDATASIZE PUSH1 0x1F NOT PUSH1 0x1F DUP3 ADD AND DUP3 ADD DUP1 PUSH1 0x40 MSTORE POP DUP2 ADD SWAP1 PUSH2 0x577 SWAP2 SWAP1 PUSH2 0xDB9 JUMP JUMPDEST SWAP1 PUSH2 0xC06 JUMP JUMPDEST PUSH1 0x1 PUSH1 0x1 PUSH1 0xA0 SHL SUB DUP5 AND PUSH1 0x0 SWAP1 DUP2 MSTORE PUSH1 0x4 PUSH1 0x20 MSTORE PUSH1 0x40 DUP2 KECCAK256 DUP1 SLOAD SWAP1 SWAP2 SWAP1 PUSH2 0x5A5 SWAP1 DUP5 SWAP1 PUSH2 0xDD2 JUMP JUMPDEST SWAP1 SWAP2 SSTORE POP POP PUSH1 0x1 PUSH1 0x1 PUSH1 0xA0 SHL SUB SWAP1 SWAP3 AND PUSH1 0x0 SWAP1 DUP2 MSTORE PUSH1 0x3 PUSH1 0x20 MSTORE PUSH1 0x40 SWAP1 KECCAK256 SWAP2 SWAP1 SWAP2 SSTORE POP PUSH1 0x1 SWAP1 JUMP JUMPDEST PUSH1 0x0 DUP1 PUSH32 0x0 PUSH1 0x1 PUSH1 0x1 PUSH1 0xA0 SHL SUB AND PUSH4 0x8AA01EA9 PUSH1 0x40 MLOAD DUP2 PUSH4 0xFFFFFFFF AND PUSH1 0xE0 SHL DUP2 MSTORE PUSH1 0x4 ADD PUSH1 0x20 PUSH1 0x40 MLOAD DUP1 DUP4 SUB DUP2 DUP7 GAS STATICCALL ISZERO DUP1 ISZERO PUSH2 0x62E JUMPI RETURNDATASIZE PUSH1 0x0 DUP1 RETURNDATACOPY RETURNDATASIZE PUSH1 0x0 REVERT JUMPDEST POP POP POP POP PUSH1 0x40 MLOAD RETURNDATASIZE PUSH1 0x1F NOT PUSH1 0x1F DUP3 ADD AND DUP3 ADD DUP1 PUSH1 0x40 MSTORE POP DUP2 ADD SWAP1 PUSH2 0x652 SWAP2 SWAP1 PUSH2 0xDB9 JUMP JUMPDEST PUSH1 0x1 SLOAD PUSH1 0x0 SLOAD SWAP2 SWAP3 POP SWAP1 PUSH1 0xFF AND ISZERO DUP1 ISZERO PUSH2 0x66C JUMPI POP PUSH1 0x0 DUP3 GT JUMPDEST ISZERO PUSH2 0x74A JUMPI PUSH2 0x73D DUP3 PUSH1 0x2 SLOAD TIMESTAMP PUSH2 0x683 SWAP2 SWAP1 PUSH2 0xD80 JUMP JUMPDEST PUSH1 0x40 MLOAD PUSH4 0x2897A553 PUSH1 0xE0 SHL DUP2 MSTORE PUSH1 0x1 PUSH1 0x1 PUSH1 0xA0 SHL SUB PUSH32 0x0 DUP2 AND PUSH1 0x4 DUP4 ADD MSTORE PUSH32 0x0 AND SWAP1 PUSH4 0x2897A553 SWAP1 PUSH1 0x24 ADD PUSH1 0x20 PUSH1 0x40 MLOAD DUP1 DUP4 SUB DUP2 DUP7 GAS STATICCALL ISZERO DUP1 ISZERO PUSH2 0x709 JUMPI RETURNDATASIZE PUSH1 0x0 DUP1 RETURNDATACOPY RETURNDATASIZE PUSH1 0x0 REVERT JUMPDEST POP POP POP POP PUSH1 0x40 MLOAD RETURNDATASIZE PUSH1 0x1F NOT PUSH1 0x1F DUP3 ADD AND DUP3 ADD DUP1 PUSH1 0x40 MSTORE POP DUP2 ADD SWAP1 PUSH2 0x72D SWAP2 SWAP1 PUSH2 0xDB9 JUMP JUMPDEST PUSH2 0x737 SWAP2 SWAP1 PUSH2 0xDEA JUMP JUMPDEST SWAP1 PUSH2 0xC2C JUMP JUMPDEST PUSH2 0x747 SWAP1 DUP3 PUSH2 0xDD2 JUMP JUMPDEST SWAP1 POP JUMPDEST PUSH1 0x1 PUSH1 0x1 PUSH1 0xA0 SHL SUB DUP5 AND PUSH1 0x0 SWAP1 DUP2 MSTORE PUSH1 0x3 PUSH1 0x20 MSTORE PUSH1 0x40 SWAP1 KECCAK256 SLOAD PUSH2 0x7BF SWAP1 PUSH2 0x771 SWAP1 DUP4 PUSH2 0xD80 JUMP JUMPDEST PUSH1 0x40 MLOAD PUSH4 0xA853BA2F PUSH1 0xE0 SHL DUP2 MSTORE PUSH1 0x1 PUSH1 0x1 PUSH1 0xA0 SHL SUB DUP8 DUP2 AND PUSH1 0x4 DUP4 ADD MSTORE PUSH32 0x0 AND SWAP1 PUSH4 0xA853BA2F SWAP1 PUSH1 0x24 ADD PUSH2 0x536 JUMP JUMPDEST PUSH1 0x1 PUSH1 0x1 PUSH1 0xA0 SHL SUB DUP6 AND PUSH1 0x0 SWAP1 DUP2 MSTORE PUSH1 0x4 PUSH1 0x20 MSTORE PUSH1 0x40 SWAP1 KECCAK256 SLOAD PUSH2 0x7E2 SWAP2 SWAP1 PUSH2 0xDD2 JUMP JUMPDEST SWAP5 SWAP4 POP POP POP POP JUMP JUMPDEST PUSH1 0x40 DUP1 MLOAD DUP1 DUP3 ADD SWAP1 SWAP2 MSTORE PUSH1 0x13 DUP2 MSTORE PUSH19 0x756E617574686F72697A656420616363657373 PUSH1 0x68 SHL PUSH1 0x20 DUP3 ADD MSTORE CALLER PUSH1 0x1 PUSH1 0x1 PUSH1 0xA0 SHL SUB PUSH32 0x0 AND EQ PUSH2 0x85D JUMPI PUSH1 0x40 MLOAD PUSH3 0x461BCD PUSH1 0xE5 SHL DUP2 MSTORE PUSH1 0x4 ADD PUSH2 0x2D0 SWAP2 SWAP1 PUSH2 0xD15 JUMP JUMPDEST POP PUSH1 0x0 PUSH1 0x2 SLOAD DUP3 PUSH2 0x86E SWAP2 SWAP1 PUSH2 0xD80 JUMP JUMPDEST SWAP1 POP PUSH2 0x879 DUP2 PUSH2 0xA91 JUMP JUMPDEST POP PUSH1 0x2 SSTORE JUMP JUMPDEST PUSH1 0x0 CALLER PUSH1 0x1 PUSH1 0x1 PUSH1 0xA0 SHL SUB DUP4 AND EQ DUP1 PUSH2 0x930 JUMPI POP PUSH32 0x0 PUSH1 0x40 MLOAD PUSH4 0x24745215 PUSH1 0xE2 SHL DUP2 MSTORE PUSH9 0x67617567655F7A617 PUSH1 0xBC SHL PUSH1 0x4 DUP3 ADD MSTORE CALLER PUSH1 0x24 DUP3 ADD MSTORE PUSH1 0x1 PUSH1 0x1 PUSH1 0xA0 SHL SUB SWAP2 SWAP1 SWAP2 AND SWAP1 PUSH4 0x91D14854 SWAP1 PUSH1 0x44 ADD PUSH1 0x20 PUSH1 0x40 MLOAD DUP1 DUP4 SUB DUP2 DUP7 GAS STATICCALL ISZERO DUP1 ISZERO PUSH2 0x90C JUMPI RETURNDATASIZE PUSH1 0x0 DUP1 RETURNDATACOPY RETURNDATASIZE PUSH1 0x0 REVERT JUMPDEST POP POP POP POP PUSH1 0x40 MLOAD RETURNDATASIZE PUSH1 0x1F NOT PUSH1 0x1F DUP3 ADD AND DUP3 ADD DUP1 PUSH1 0x40 MSTORE POP DUP2 ADD SWAP1 PUSH2 0x930 SWAP2 SWAP1 PUSH2 0xD97 JUMP JUMPDEST PUSH1 0x40 MLOAD DUP1 PUSH1 0x40 ADD PUSH1 0x40 MSTORE DUP1 PUSH1 0x13 DUP2 MSTORE PUSH1 0x20 ADD PUSH19 0x756E617574686F72697A656420616363657373 PUSH1 0x68 SHL DUP2 MSTORE POP SWAP1 PUSH2 0x97A JUMPI PUSH1 0x40 MLOAD PUSH3 0x461BCD PUSH1 0xE5 SHL DUP2 MSTORE PUSH1 0x4 ADD PUSH2 0x2D0 SWAP2 SWAP1 PUSH2 0xD15 JUMP JUMPDEST POP PUSH2 0x984 DUP3 PUSH2 0x421 JUMP JUMPDEST POP PUSH1 0x1 PUSH1 0x1 PUSH1 0xA0 SHL SUB DUP3 AND PUSH1 0x0 SWAP1 DUP2 MSTORE PUSH1 0x4 PUSH1 0x20 MSTORE PUSH1 0x40 SWAP1 KECCAK256 SLOAD DUP1 PUSH2 0x9AC JUMPI POP PUSH1 0x0 SWAP3 SWAP2 POP POP JUMP JUMPDEST PUSH1 0x1 PUSH1 0x1 PUSH1 0xA0 SHL SUB DUP4 AND PUSH1 0x0 SWAP1 DUP2 MSTORE PUSH1 0x4 PUSH1 0x20 MSTORE PUSH1 0x40 DUP2 KECCAK256 SSTORE PUSH2 0x9CF DUP4 DUP3 PUSH2 0xC41 JUMP JUMPDEST SWAP3 SWAP2 POP POP JUMP JUMPDEST PUSH1 0x40 MLOAD PUSH4 0x21F8A721 PUSH1 0xE0 SHL DUP2 MSTORE PUSH11 0x3937B632A6B0B730B3B2B9 PUSH1 0xA9 SHL PUSH1 0x4 DUP3 ADD MSTORE PUSH1 0x0 SWAP1 PUSH1 0x1 PUSH1 0x1 PUSH1 0xA0 SHL SUB DUP4 AND SWAP1 PUSH4 0x21F8A721 SWAP1 PUSH1 0x24 ADD JUMPDEST PUSH1 0x20 PUSH1 0x40 MLOAD DUP1 DUP4 SUB DUP2 DUP7 GAS STATICCALL ISZERO DUP1 ISZERO PUSH2 0xA2B JUMPI RETURNDATASIZE PUSH1 0x0 DUP1 RETURNDATACOPY RETURNDATASIZE PUSH1 0x0 REVERT JUMPDEST POP POP POP POP PUSH1 0x40 MLOAD RETURNDATASIZE PUSH1 0x1F NOT PUSH1 0x1F DUP3 ADD AND DUP3 ADD DUP1 PUSH1 0x40 MSTORE POP DUP2 ADD SWAP1 PUSH2 0x9CF SWAP2 SWAP1 PUSH2 0xE09 JUMP JUMPDEST PUSH1 0x40 MLOAD PUSH4 0x21F8A721 PUSH1 0xE0 SHL DUP2 MSTORE PUSH16 0x34B7333630BA34B7B726B0B730B3B2B9 PUSH1 0x81 SHL PUSH1 0x4 DUP3 ADD MSTORE PUSH1 0x0 SWAP1 PUSH1 0x1 PUSH1 0x1 PUSH1 0xA0 SHL SUB DUP4 AND SWAP1 PUSH4 0x21F8A721 SWAP1 PUSH1 0x24 ADD PUSH2 0xA0E JUMP JUMPDEST PUSH1 0x0 SLOAD PUSH1 0xFF AND ISZERO PUSH2 0xA9F JUMPI POP JUMP JUMPDEST PUSH1 0x40 MLOAD PUSH4 0x2897A553 PUSH1 0xE0 SHL DUP2 MSTORE PUSH1 0x1 PUSH1 0x1 PUSH1 0xA0 SHL SUB PUSH32 0x0 DUP2 AND PUSH1 0x4 DUP4 ADD MSTORE PUSH1 0x0 SWAP2 PUSH32 0x0 SWAP1 SWAP2 AND SWAP1 PUSH4 0x2897A553 SWAP1 PUSH1 0x24 ADD PUSH1 0x20 PUSH1 0x40 MLOAD DUP1 DUP4 SUB DUP2 DUP7 GAS STATICCALL ISZERO DUP1 ISZERO PUSH2 0xB2A JUMPI RETURNDATASIZE PUSH1 0x0 DUP1 RETURNDATACOPY RETURNDATASIZE PUSH1 0x0 REVERT JUMPDEST POP POP POP POP PUSH1 0x40 MLOAD RETURNDATASIZE PUSH1 0x1F NOT PUSH1 0x1F DUP3 ADD AND DUP3 ADD DUP1 PUSH1 0x40 MSTORE POP DUP2 ADD SWAP1 PUSH2 0xB4E SWAP2 SWAP1 PUSH2 0xDB9 JUMP JUMPDEST SWAP1 POP PUSH1 0x0 PUSH32 0x0 PUSH1 0x1 PUSH1 0x1 PUSH1 0xA0 SHL SUB AND PUSH4 0x8AA01EA9 PUSH1 0x40 MLOAD DUP2 PUSH4 0xFFFFFFFF AND PUSH1 0xE0 SHL DUP2 MSTORE PUSH1 0x4 ADD PUSH1 0x20 PUSH1 0x40 MLOAD DUP1 DUP4 SUB DUP2 DUP7 GAS STATICCALL ISZERO DUP1 ISZERO PUSH2 0xBB0 JUMPI RETURNDATASIZE PUSH1 0x0 DUP1 RETURNDATACOPY RETURNDATASIZE PUSH1 0x0 REVERT JUMPDEST POP POP POP POP PUSH1 0x40 MLOAD RETURNDATASIZE PUSH1 0x1F NOT PUSH1 0x1F DUP3 ADD AND DUP3 ADD DUP1 PUSH1 0x40 MSTORE POP DUP2 ADD SWAP1 PUSH2 0xBD4 SWAP2 SWAP1 PUSH2 0xDB9 JUMP JUMPDEST SWAP1 POP DUP1 ISZERO PUSH2 0xC01 JUMPI PUSH2 0xBEA DUP2 PUSH2 0x737 DUP6 DUP6 PUSH2 0xDEA JUMP JUMPDEST PUSH1 0x1 PUSH1 0x0 DUP3 DUP3 SLOAD PUSH2 0xBFB SWAP2 SWAP1 PUSH2 0xDD2 JUMP JUMPDEST SWAP1 SWAP2 SSTORE POP POP JUMPDEST POP POP POP JUMP JUMPDEST PUSH1 0x0 PUSH8 0xDE0B6B3A7640000 PUSH2 0xC1B DUP4 DUP6 PUSH2 0xDEA JUMP JUMPDEST PUSH2 0xC25 SWAP2 SWAP1 PUSH2 0xE26 JUMP JUMPDEST SWAP4 SWAP3 POP POP POP JUMP JUMPDEST PUSH1 0x0 DUP2 PUSH2 0xC1B PUSH8 0xDE0B6B3A7640000 DUP6 PUSH2 0xDEA JUMP JUMPDEST PUSH1 0x40 MLOAD PUSH4 0x35106F49 PUSH1 0xE1 SHL DUP2 MSTORE PUSH1 0x1 PUSH1 0x1 PUSH1 0xA0 SHL SUB DUP4 DUP2 AND PUSH1 0x4 DUP4 ADD MSTORE PUSH1 0x24 DUP3 ADD DUP4 SWAP1 MSTORE PUSH32 0x0 AND SWAP1 PUSH4 0x6A20DE92 SWAP1 PUSH1 0x44 ADD PUSH1 0x0 PUSH1 0x40 MLOAD DUP1 DUP4 SUB DUP2 PUSH1 0x0 DUP8 DUP1 EXTCODESIZE ISZERO DUP1 ISZERO PUSH2 0xCAB JUMPI PUSH1 0x0 DUP1 REVERT JUMPDEST POP GAS CALL ISZERO DUP1 ISZERO PUSH2 0xCBF JUMPI RETURNDATASIZE PUSH1 0x0 DUP1 RETURNDATACOPY RETURNDATASIZE PUSH1 0x0 REVERT JUMPDEST POP POP POP POP POP POP JUMP JUMPDEST PUSH1 0x1 PUSH1 0x1 PUSH1 0xA0 SHL SUB DUP2 AND DUP2 EQ PUSH2 0xCDC JUMPI PUSH1 0x0 DUP1 REVERT JUMPDEST POP JUMP JUMPDEST PUSH1 0x0 PUSH1 0x20 DUP3 DUP5 SUB SLT ISZERO PUSH2 0xCF1 JUMPI PUSH1 0x0 DUP1 REVERT JUMPDEST DUP2 CALLDATALOAD PUSH2 0xC25 DUP2 PUSH2 0xCC7 JUMP JUMPDEST PUSH1 0x0 PUSH1 0x20 DUP3 DUP5 SUB SLT ISZERO PUSH2 0xD0E JUMPI PUSH1 0x0 DUP1 REVERT JUMPDEST POP CALLDATALOAD SWAP2 SWAP1 POP JUMP JUMPDEST PUSH1 0x0 PUSH1 0x20 DUP1 DUP4 MSTORE DUP4 MLOAD DUP1 DUP3 DUP6 ADD MSTORE PUSH1 0x0 JUMPDEST DUP2 DUP2 LT ISZERO PUSH2 0xD42 JUMPI DUP6 DUP2 ADD DUP4 ADD MLOAD DUP6 DUP3 ADD PUSH1 0x40 ADD MSTORE DUP3 ADD PUSH2 0xD26 JUMP JUMPDEST DUP2 DUP2 GT ISZERO PUSH2 0xD54 JUMPI PUSH1 0x0 PUSH1 0x40 DUP4 DUP8 ADD ADD MSTORE JUMPDEST POP PUSH1 0x1F ADD PUSH1 0x1F NOT AND SWAP3 SWAP1 SWAP3 ADD PUSH1 0x40 ADD SWAP4 SWAP3 POP POP POP JUMP JUMPDEST PUSH4 0x4E487B71 PUSH1 0xE0 SHL PUSH1 0x0 MSTORE PUSH1 0x11 PUSH1 0x4 MSTORE PUSH1 0x24 PUSH1 0x0 REVERT JUMPDEST PUSH1 0x0 DUP3 DUP3 LT ISZERO PUSH2 0xD92 JUMPI PUSH2 0xD92 PUSH2 0xD6A JUMP JUMPDEST POP SUB SWAP1 JUMP JUMPDEST PUSH1 0x0 PUSH1 0x20 DUP3 DUP5 SUB SLT ISZERO PUSH2 0xDA9 JUMPI PUSH1 0x0 DUP1 REVERT JUMPDEST DUP2 MLOAD DUP1 ISZERO ISZERO DUP2 EQ PUSH2 0xC25 JUMPI PUSH1 0x0 DUP1 REVERT JUMPDEST PUSH1 0x0 PUSH1 0x20 DUP3 DUP5 SUB SLT ISZERO PUSH2 0xDCB JUMPI PUSH1 0x0 DUP1 REVERT JUMPDEST POP MLOAD SWAP2 SWAP1 POP JUMP JUMPDEST PUSH1 0x0 DUP3 NOT DUP3 GT ISZERO PUSH2 0xDE5 JUMPI PUSH2 0xDE5 PUSH2 0xD6A JUMP JUMPDEST POP ADD SWAP1 JUMP JUMPDEST PUSH1 0x0 DUP2 PUSH1 0x0 NOT DIV DUP4 GT DUP3 ISZERO ISZERO AND ISZERO PUSH2 0xE04 JUMPI PUSH2 0xE04 PUSH2 0xD6A JUMP JUMPDEST POP MUL SWAP1 JUMP JUMPDEST PUSH1 0x0 PUSH1 0x20 DUP3 DUP5 SUB SLT ISZERO PUSH2 0xE1B JUMPI PUSH1 0x0 DUP1 REVERT JUMPDEST DUP2 MLOAD PUSH2 0xC25 DUP2 PUSH2 0xCC7 JUMP JUMPDEST PUSH1 0x0 DUP3 PUSH2 0xE43 JUMPI PUSH4 0x4E487B71 PUSH1 0xE0 SHL PUSH1 0x0 MSTORE PUSH1 0x12 PUSH1 0x4 MSTORE PUSH1 0x24 PUSH1 0x0 REVERT JUMPDEST POP DIV SWAP1 JUMP INVALID LOG2 PUSH5 0x6970667358 0x22 SLT KECCAK256 RETURNDATACOPY 0xD CALLDATACOPY PUSH11 0xB9EA38E413DBE0BF560564 SIGNEXTEND MLOAD SWAP14 CALLVALUE PUSH9 0xEC439A7B2AA982A645 0xD7 0xB7 0x27 PUSH5 0x736F6C6343 STOP ADDMOD EXP STOP CALLER ","sha1":"ed40c38803df5683100c3ce9efefee41aa8f3c00","source":"// SPDX-License-Identifier: GPL-3.0-or-later\npragma solidity 0.8.10;\n\nimport \"../../interfaces/IStakerVault.sol\";\nimport \"../../interfaces/IController.sol\";\nimport \"../../interfaces/tokenomics/ILpGauge.sol\";\nimport \"../../interfaces/tokenomics/IRewardsGauge.sol\";\n\nimport \"../../libraries/ScaledMath.sol\";\nimport \"../../libraries/Errors.sol\";\nimport \"../../libraries/AddressProviderHelpers.sol\";\n\nimport \"../access/Authorization.sol\";\n\ncontract LpGauge is ILpGauge, IRewardsGauge, Authorization {\n    using AddressProviderHelpers for IAddressProvider;\n    using ScaledMath for uint256;\n\n    IAddressProvider public immutable addressProvider;\n    IStakerVault public immutable stakerVault;\n    IInflationManager public immutable inflationManager;\n\n    bool public override killed;\n    uint256 public poolStakedIntegral;\n    uint256 public poolLastUpdate;\n    mapping(address => uint256) public perUserStakedIntegral;\n    mapping(address => uint256) public perUserShare;\n\n    event Killed();\n\n    constructor(IAddressProvider _addressProvider, address _stakerVault)\n        Authorization(_addressProvider.getRoleManager())\n    {\n        require(_stakerVault != address(0), Error.ZERO_ADDRESS_NOT_ALLOWED);\n        addressProvider = _addressProvider;\n        stakerVault = IStakerVault(_stakerVault);\n        IInflationManager _inflationManager = _addressProvider.getInflationManager();\n        require(address(_inflationManager) != address(0), Error.ZERO_ADDRESS_NOT_ALLOWED);\n        inflationManager = _inflationManager;\n        poolLastUpdate = block.timestamp;\n    }\n\n    /**\n     * @notice Checkpoint function for the pool statistics.\n     */\n    function kill() external override {\n        require(!killed, Error.GAUGE_KILLED);\n        require(msg.sender == address(stakerVault), Error.UNAUTHORIZED_ACCESS);\n        poolCheckpoint();\n        killed = true;\n        emit Killed();\n    }\n\n    /**\n     * @notice Calculates the token rewards a user should receive and mints these.\n     * @param beneficiary Address to claim rewards for.\n     * @return `true` if success.\n     */\n    function claimRewards(address beneficiary) external override returns (uint256) {\n        require(\n            msg.sender == beneficiary || _roleManager().hasRole(Roles.GAUGE_ZAP, msg.sender),\n            Error.UNAUTHORIZED_ACCESS\n        );\n        userCheckpoint(beneficiary);\n        uint256 amount = perUserShare[beneficiary];\n        if (amount == 0) return 0;\n        delete perUserShare[beneficiary];\n        _mintRewards(beneficiary, amount);\n        return amount;\n    }\n\n    /**\n     * @notice Checkpoint function for the pool statistics.\n     */\n    function poolCheckpoint(uint256 updateEndTime) external override {\n        require(msg.sender == address(stakerVault), Error.UNAUTHORIZED_ACCESS);\n        uint256 elapsedTime = updateEndTime - poolLastUpdate;\n        _poolCheckpoint(elapsedTime);\n        poolLastUpdate = updateEndTime;\n    }\n\n    function claimableRewards(address beneficiary) external view override returns (uint256) {\n        uint256 poolTotalStaked = stakerVault.getPoolTotalStaked();\n        uint256 poolStakedIntegral_ = poolStakedIntegral;\n        if (!killed && poolTotalStaked > 0) {\n            poolStakedIntegral_ += (inflationManager.getLpRateForStakerVault(address(stakerVault)) *\n                (block.timestamp - poolLastUpdate)).scaledDiv(poolTotalStaked);\n        }\n\n        return\n            perUserShare[beneficiary] +\n            stakerVault.stakedAndActionLockedBalanceOf(beneficiary).scaledMul(\n                poolStakedIntegral_ - perUserStakedIntegral[beneficiary]\n            );\n    }\n\n    /**\n     * @notice Checkpoint function for the pool statistics.\n     */\n    function poolCheckpoint() public override {\n        inflationManager.checkPointInflation();\n        uint256 elapsedTime = block.timestamp - poolLastUpdate;\n        _poolCheckpoint(elapsedTime);\n        poolLastUpdate = block.timestamp;\n    }\n\n    /**\n     * @notice Checkpoint function for the statistics for a particular user.\n     * @param user Address of the user to checkpoint.\n     * @return `true` if successful.\n     */\n    function userCheckpoint(address user) public override returns (bool) {\n        poolCheckpoint();\n\n        // No checkpoint for the actions, since this does not accumulate tokens\n        if (addressProvider.isAction(user)) {\n            return false;\n        }\n        uint256 poolStakedIntegral_ = poolStakedIntegral;\n        perUserShare[user] += (\n            (stakerVault.stakedAndActionLockedBalanceOf(user)).scaledMul(\n                (poolStakedIntegral_ - perUserStakedIntegral[user])\n            )\n        );\n\n        perUserStakedIntegral[user] = poolStakedIntegral_;\n\n        return true;\n    }\n\n    function _mintRewards(address beneficiary, uint256 amount) internal {\n        inflationManager.mintRewards(beneficiary, amount);\n    }\n\n    function _poolCheckpoint(uint256 elapsedTime) internal {\n        if (killed) return;\n        uint256 currentRate = inflationManager.getLpRateForStakerVault(address(stakerVault));\n        // Update the integral of total token supply for the pool\n        uint256 poolTotalStaked = stakerVault.getPoolTotalStaked();\n        if (poolTotalStaked > 0) {\n            poolStakedIntegral += (currentRate * (elapsedTime)).scaledDiv(poolTotalStaked);\n        }\n    }\n}\n","sourcePath":"contracts/tokenomics/LpGauge.sol","type":"contract","deployment":{"address":"0x11FE6857749cd8Bdc6Ec469CC99C301D8B09434f","chainid":"42","blockHeight":33232023}}