{"abi":[{"inputs":[{"internalType":"contract IController","name":"_controller","type":"address"},{"internalType":"address","name":"_actionContract","type":"address"},{"internalType":"uint256","name":"keeperFee","type":"uint256"},{"internalType":"uint256","name":"treasuryFee","type":"uint256"}],"stateMutability":"nonpayable","type":"constructor","name":"constructor"},{"anonymous":false,"inputs":[{"indexed":true,"internalType":"address","name":"payer","type":"address"},{"indexed":true,"internalType":"address","name":"keeper","type":"address"},{"indexed":false,"internalType":"address","name":"token","type":"address"},{"indexed":false,"internalType":"uint256","name":"amount","type":"uint256"},{"indexed":false,"internalType":"uint256","name":"keeperAmount","type":"uint256"},{"indexed":false,"internalType":"uint256","name":"lpAmount","type":"uint256"}],"name":"FeesPayed","type":"event"},{"anonymous":false,"inputs":[{"indexed":false,"internalType":"uint256","name":"keeperFee","type":"uint256"}],"name":"KeeperFeeUpdated","type":"event"},{"anonymous":false,"inputs":[{"indexed":true,"internalType":"address","name":"keeper","type":"address"},{"indexed":false,"internalType":"address","name":"token","type":"address"},{"indexed":false,"internalType":"uint256","name":"totalClaimed","type":"uint256"}],"name":"KeeperFeesClaimed","type":"event"},{"anonymous":false,"inputs":[{"indexed":false,"internalType":"address","name":"lpToken","type":"address"},{"indexed":false,"internalType":"address","name":"keeperGauge","type":"address"}],"name":"KeeperGaugeUpdated","type":"event"},{"anonymous":false,"inputs":[{"indexed":false,"internalType":"uint256","name":"treasuryFee_","type":"uint256"}],"name":"TreasuryFeeUpdated","type":"event"},{"inputs":[],"name":"actionContract","outputs":[{"internalType":"address","name":"","type":"address"}],"stateMutability":"view","type":"function"},{"inputs":[{"internalType":"address","name":"beneficiary","type":"address"},{"internalType":"address","name":"token","type":"address"}],"name":"claimKeeperFeesForPool","outputs":[],"stateMutability":"nonpayable","type":"function"},{"inputs":[{"internalType":"address","name":"token","type":"address"}],"name":"claimTreasuryFees","outputs":[],"stateMutability":"nonpayable","type":"function"},{"inputs":[],"name":"controller","outputs":[{"internalType":"contract IController","name":"","type":"address"}],"stateMutability":"view","type":"function"},{"inputs":[{"internalType":"address","name":"lpToken","type":"address"}],"name":"getKeeperGauge","outputs":[{"internalType":"address","name":"","type":"address"}],"stateMutability":"view","type":"function"},{"inputs":[],"name":"keeperFeeFraction","outputs":[{"internalType":"uint256","name":"","type":"uint256"}],"stateMutability":"view","type":"function"},{"inputs":[{"internalType":"address","name":"","type":"address"}],"name":"keeperGauges","outputs":[{"internalType":"address","name":"","type":"address"}],"stateMutability":"view","type":"function"},{"inputs":[{"internalType":"address","name":"","type":"address"},{"internalType":"address","name":"","type":"address"}],"name":"keeperRecords","outputs":[{"internalType":"uint256","name":"","type":"uint256"}],"stateMutability":"view","type":"function"},{"inputs":[{"internalType":"address","name":"payer","type":"address"},{"internalType":"address","name":"beneficiary","type":"address"},{"internalType":"uint256","name":"amount","type":"uint256"},{"internalType":"address","name":"lpTokenAddress","type":"address"}],"name":"payFees","outputs":[],"stateMutability":"nonpayable","type":"function"},{"inputs":[],"name":"roleManager","outputs":[{"internalType":"contract IRoleManager","name":"","type":"address"}],"stateMutability":"view","type":"function"},{"inputs":[{"internalType":"address","name":"lpToken_","type":"address"},{"internalType":"address","name":"keeperGauge_","type":"address"}],"name":"setInitialKeeperGaugeForToken","outputs":[],"stateMutability":"nonpayable","type":"function"},{"inputs":[{"internalType":"address","name":"","type":"address"}],"name":"treasuryAmounts","outputs":[{"internalType":"uint256","name":"","type":"uint256"}],"stateMutability":"view","type":"function"},{"inputs":[],"name":"treasuryFeeFraction","outputs":[{"internalType":"uint256","name":"","type":"uint256"}],"stateMutability":"view","type":"function"},{"inputs":[{"internalType":"uint256","name":"keeperFee_","type":"uint256"}],"name":"updateKeeperFee","outputs":[],"stateMutability":"nonpayable","type":"function"},{"inputs":[{"internalType":"address","name":"lpToken_","type":"address"},{"internalType":"address","name":"keeperGauge_","type":"address"}],"name":"updateKeeperGauge","outputs":[],"stateMutability":"nonpayable","type":"function"},{"inputs":[{"internalType":"uint256","name":"treasuryFee_","type":"uint256"}],"name":"updateTreasuryFee","outputs":[],"stateMutability":"nonpayable","type":"function"}],"bytecode":"60e06040523480156200001157600080fd5b50604051620017a6380380620017a68339810160408190526200003491620001e8565b620000b7846001600160a01b0316632954018c6040518163ffffffff1660e01b8152600401602060405180830381865afa15801562000077573d6000803e3d6000fd5b505050506040513d601f19601f820116820180604052508101906200009d919062000235565b6001600160a01b03166200014d60201b62000e431760201c565b6001600160a01b0316608052670de0b6b3a7640000620000d882846200025c565b11156040518060400160405280600e81526020016d1a5b9d985b1a5908185b5bdd5b9d60921b815250906200012b5760405162461bcd60e51b815260040162000122919062000283565b60405180910390fd5b506001600160a01b0392831660a0529290911660c052600355600455620002db565b6040516321f8a72160e01b81526a3937b632a6b0b730b3b2b960a91b60048201526000906001600160a01b038316906321f8a72190602401602060405180830381865afa158015620001a3573d6000803e3d6000fd5b505050506040513d601f19601f82011682018060405250810190620001c9919062000235565b92915050565b6001600160a01b0381168114620001e557600080fd5b50565b60008060008060808587031215620001ff57600080fd5b84516200020c81620001cf565b60208601519094506200021f81620001cf565b6040860151606090960151949790965092505050565b6000602082840312156200024857600080fd5b81516200025581620001cf565b9392505050565b600082198211156200027e57634e487b7160e01b600052601160045260246000fd5b500190565b600060208083528351808285015260005b81811015620002b25785810183015185820160400152820162000294565b81811115620002c5576000604083870101525b50601f01601f1916929092016040019392505050565b60805160a05160c05161147162000335600039600081816102b601526104ff0152600081816101740152610bed015260008181610106015281816102da015281816105920152818161081b01526109ee01526114716000f3fe608060405234801561001057600080fd5b50600436106100ff5760003560e01c80638fe9673211610097578063c01e17cb11610066578063c01e17cb1461026a578063cfd93e3214610273578063e73c361514610286578063f77c4791146102b157600080fd5b80638fe967321461020557806390f6ce0c14610218578063972328301461024457806397faf60b1461025757600080fd5b806370e9d8cd116100d357806370e9d8cd146101965780637265fc91146101bf57806377233752146101d25780638e783523146101f257600080fd5b8062435da5146101045780630f2703a21461014357806317624b6314610158578063444116b51461016f575b600080fd5b7f00000000000000000000000000000000000000000000000000000000000000005b6040516001600160a01b0390911681526020015b60405180910390f35b610156610151366004611239565b6102d8565b005b61016160045481565b60405190815260200161013a565b6101267f000000000000000000000000000000000000000000000000000000000000000081565b6101266101a4366004611272565b6002602052600090815260409020546001600160a01b031681565b6101566101cd366004611272565b6104c6565b6101616101e0366004611272565b60006020819052908152604090205481565b610156610200366004611239565b610590565b610156610213366004611239565b61071a565b610126610226366004611272565b6001600160a01b039081166000908152600260205260409020541690565b61015661025236600461128f565b610819565b61015661026536600461128f565b6109ec565b61016160035481565b6101566102813660046112a8565b610bb8565b610161610294366004611239565b600160209081526000928352604080842090915290825290205481565b6101267f000000000000000000000000000000000000000000000000000000000000000081565b7f0000000000000000000000000000000000000000000000000000000000000000604051632474521560e21b815269676f7665726e616e636560b01b60048201523360248201526001600160a01b0391909116906391d1485490604401602060405180830381865afa158015610352573d6000803e3d6000fd5b505050506040513d601f19601f8201168201806040525081019061037691906112fb565b60405180604001604052806013815260200172756e617574686f72697a65642061636365737360681b815250906103c95760405162461bcd60e51b81526004016103c09190611349565b60405180910390fd5b506001600160a01b038083166000908152600260205260408120549091166001600160a01b031614604051806040016040528060188152602001771e995c9bc81859191c995cdcc81b9bdd08185b1b1bddd95960421b815250906104405760405162461bcd60e51b81526004016103c09190611349565b506040805180820190915260188152771e995c9bc81859191c995cdcc81b9bdd08185b1b1bddd95960421b60208201526001600160a01b0382166104975760405162461bcd60e51b81526004016103c09190611349565b506001600160a01b03918216600090815260026020526040902080546001600160a01b03191691909216179055565b6001600160a01b0380821660009081526020818152604080832080549390558051630a55006360e21b81529051929361058c9361057b937f000000000000000000000000000000000000000000000000000000000000000090921692632954018c9260048083019391928290030181865afa158015610549573d6000803e3d6000fd5b505050506040513d601f19601f8201168201806040525081019061056d919061137c565b6001600160a01b0316610ec3565b6001600160a01b0384169083610f02565b5050565b7f0000000000000000000000000000000000000000000000000000000000000000604051632474521560e21b815269676f7665726e616e636560b01b60048201523360248201526001600160a01b0391909116906391d1485490604401602060405180830381865afa15801561060a573d6000803e3d6000fd5b505050506040513d601f19601f8201168201806040525081019061062e91906112fb565b60405180604001604052806013815260200172756e617574686f72697a65642061636365737360681b815250906106785760405162461bcd60e51b81526004016103c09190611349565b506001600160a01b0381166106af57506001600160a01b0316600090815260026020526040902080546001600160a01b0319169055565b6001600160a01b0382811660008181526002602090815260409182902080546001600160a01b031916948616948517905581519283528201929092527fcd5b7c6947116a35bf954e996b32a916c7104e0aa6afc16fc5e80837b399d8bc910160405180910390a15050565b6001600160a01b038083166000908152600160209081526040808320938516835292815290829020548251808401909352601d83527f7468657265206973206e6f20636c61696d61626c652062616c616e63650000009183019190915290816107965760405162461bcd60e51b81526004016103c09190611349565b506001600160a01b0380841660009081526001602090815260408083209386168084529390915281205582906107cd908584610f02565b604080516001600160a01b038581168252602082018590528616917fa2099e15da4f15b4446a2ccd0b9767c2e897c797777c20ab5f5b899a62704e67910160405180910390a250505050565b7f0000000000000000000000000000000000000000000000000000000000000000604051632474521560e21b815269676f7665726e616e636560b01b60048201523360248201526001600160a01b0391909116906391d1485490604401602060405180830381865afa158015610893573d6000803e3d6000fd5b505050506040513d601f19601f820116820180604052508101906108b791906112fb565b60405180604001604052806013815260200172756e617574686f72697a65642061636365737360681b815250906109015760405162461bcd60e51b81526004016103c09190611349565b5060408051808201909152600e81526d1a5b9d985b1a5908185b5bdd5b9d60921b6020820152670de0b6b3a76400008211156109505760405162461bcd60e51b81526004016103c09190611349565b50670de0b6b3a76400006003548261096891906113af565b11156040518060400160405280600e81526020016d1a5b9d985b1a5908185b5bdd5b9d60921b815250906109af5760405162461bcd60e51b81526004016103c09190611349565b5060048190556040518181527ffdc6c17f190a1a7e236af2f7387d9494b31405f8f9fad26e36a7fefe7190cef8906020015b60405180910390a150565b7f0000000000000000000000000000000000000000000000000000000000000000604051632474521560e21b815269676f7665726e616e636560b01b60048201523360248201526001600160a01b0391909116906391d1485490604401602060405180830381865afa158015610a66573d6000803e3d6000fd5b505050506040513d601f19601f82011682018060405250810190610a8a91906112fb565b60405180604001604052806013815260200172756e617574686f72697a65642061636365737360681b81525090610ad45760405162461bcd60e51b81526004016103c09190611349565b5060408051808201909152600e81526d1a5b9d985b1a5908185b5bdd5b9d60921b6020820152670de0b6b3a7640000821115610b235760405162461bcd60e51b81526004016103c09190611349565b50670de0b6b3a764000081600454610b3b91906113af565b11156040518060400160405280600e81526020016d1a5b9d985b1a5908185b5bdd5b9d60921b81525090610b825760405162461bcd60e51b81526004016103c09190611349565b5060038190556040518181527f8f9de2faf4f08d126210f581cb4cffd161aaf60bc1e99243d116af54cce5cc2b906020016109e1565b604080518082019091526013815272756e617574686f72697a65642061636365737360681b6020820152336001600160a01b037f00000000000000000000000000000000000000000000000000000000000000001614610c2b5760405162461bcd60e51b81526004016103c09190611349565b506000610c4360035484610f6a90919063ffffffff16565b90506000610c5c60045485610f6a90919063ffffffff16565b905082610c746001600160a01b038216333088610f90565b6001600160a01b03848116600090815260026020526040902054168015610d00576040516303d86c0d60e31b81526001600160a01b038881166004830152602482018690528681166044830152821690631ec3606890606401600060405180830381600087803b158015610ce757600080fd5b505af1158015610cfb573d6000803e3d6000fd5b505050505b6001600160a01b03808816600090815260016020908152604080832093891683529290529081208054869290610d379084906113af565b90915550506001600160a01b03851660009081526020819052604081208054859290610d649084906113af565b909155506000905083610d7786896113c7565b610d8191906113c7565b604051630852cd8d60e31b8152600481018290529091506001600160a01b038416906342966c6890602401600060405180830381600087803b158015610dc657600080fd5b505af1158015610dda573d6000803e3d6000fd5b5050604080516001600160a01b038a81168252602082018c905291810189905260608101859052818c169350908c1691507ffa9d128d86552a91243363427b3fde4f942de701bf1f81908816fc2c056750859060800160405180910390a3505050505050505050565b6040516321f8a72160e01b81526a3937b632a6b0b730b3b2b960a91b60048201526000906001600160a01b038316906321f8a721906024015b602060405180830381865afa158015610e99573d6000803e3d6000fd5b505050506040513d601f19601f82011682018060405250810190610ebd919061137c565b92915050565b6040516321f8a72160e01b81526c3932bbb0b9322430b7323632b960991b60048201526000906001600160a01b038316906321f8a72190602401610e7c565b6040516001600160a01b038316602482015260448101829052610f6590849063a9059cbb60e01b906064015b60408051601f198184030181529190526020810180516001600160e01b03166001600160e01b031990931692909217909152610fce565b505050565b6000670de0b6b3a7640000610f7f83856113de565b610f8991906113fd565b9392505050565b6040516001600160a01b0380851660248301528316604482015260648101829052610fc89085906323b872dd60e01b90608401610f2e565b50505050565b6000611023826040518060400160405280602081526020017f5361666545524332303a206c6f772d6c6576656c2063616c6c206661696c6564815250856001600160a01b03166110a09092919063ffffffff16565b805190915015610f65578080602001905181019061104191906112fb565b610f655760405162461bcd60e51b815260206004820152602a60248201527f5361666545524332303a204552433230206f7065726174696f6e20646964206e6044820152691bdd081cdd58d8d9595960b21b60648201526084016103c0565b60606110af84846000856110b7565b949350505050565b6060824710156111185760405162461bcd60e51b815260206004820152602660248201527f416464726573733a20696e73756666696369656e742062616c616e636520666f6044820152651c8818d85b1b60d21b60648201526084016103c0565b6001600160a01b0385163b61116f5760405162461bcd60e51b815260206004820152601d60248201527f416464726573733a2063616c6c20746f206e6f6e2d636f6e747261637400000060448201526064016103c0565b600080866001600160a01b0316858760405161118b919061141f565b60006040518083038185875af1925050503d80600081146111c8576040519150601f19603f3d011682016040523d82523d6000602084013e6111cd565b606091505b50915091506111dd8282866111e8565b979650505050505050565b606083156111f7575081610f89565b8251156112075782518084602001fd5b8160405162461bcd60e51b81526004016103c09190611349565b6001600160a01b038116811461123657600080fd5b50565b6000806040838503121561124c57600080fd5b823561125781611221565b9150602083013561126781611221565b809150509250929050565b60006020828403121561128457600080fd5b8135610f8981611221565b6000602082840312156112a157600080fd5b5035919050565b600080600080608085870312156112be57600080fd5b84356112c981611221565b935060208501356112d981611221565b92506040850135915060608501356112f081611221565b939692955090935050565b60006020828403121561130d57600080fd5b81518015158114610f8957600080fd5b60005b83811015611338578181015183820152602001611320565b83811115610fc85750506000910152565b602081526000825180602084015261136881604085016020870161131d565b601f01601f19169190910160400192915050565b60006020828403121561138e57600080fd5b8151610f8981611221565b634e487b7160e01b600052601160045260246000fd5b600082198211156113c2576113c2611399565b500190565b6000828210156113d9576113d9611399565b500390565b60008160001904831182151516156113f8576113f8611399565b500290565b60008261141a57634e487b7160e01b600052601260045260246000fd5b500490565b6000825161143181846020870161131d565b919091019291505056fea2646970667358221220f610005127b946739547b63301f4fdcab1e687843abab696c8456a62907258c264736f6c634300080a0033","bytecodeSha1":"9421f51f682fa6bd326c49ab2be7e90725b5e090","compiler":{"evm_version":"london","optimizer":{"enabled":true,"runs":200},"version":"0.8.10+commit.fc410830"},"contractName":"TopUpActionFeeHandler","language":"Solidity","natspec":{"kind":"dev","methods":{"claimKeeperFeesForPool(address,address)":{"notice":"Claim all accrued fees for an LPToken.","params":{"beneficiary":"Address to claim the fees for.","token":"Address of the lpToken for claiming."}},"claimTreasuryFees(address)":{"notice":"Claim all accrued treasury fees for an LPToken.","params":{"token":"Address of the lpToken for claiming."}},"payFees(address,address,uint256,address)":{"notice":"Transfers the keeper and treasury fees to the fee handler and burns LP fees.","params":{"amount":"Total fee value (both keeper and LP fees).","beneficiary":"Beneficiary of the fees paid (usually this will be the keeper).","lpTokenAddress":"Address of the lpToken used to pay fees.","payer":"Account who's position the fees are charged on."}},"updateKeeperFee(uint256)":{"notice":"Update keeper fee.","params":{"keeperFee_":"New keeper fee value."}},"updateKeeperGauge(address,address)":{"notice":"Update the Keeper Gauge for a given LP Token.","params":{"keeperGauge_":"New keeper fee value.","lpToken_":"The LP Token to update the Keeper Gauge for."}},"updateTreasuryFee(uint256)":{"notice":"Update treasury fee.","params":{"treasuryFee_":"New treasury fee value."}}},"notice":"Contract to manage the distribution of protocol fees","version":1},"opcodes":"PUSH1 0x80 PUSH1 0x40 MSTORE CALLVALUE DUP1 ISZERO PUSH2 0x10 JUMPI PUSH1 0x0 DUP1 REVERT JUMPDEST POP PUSH1 0x4 CALLDATASIZE LT PUSH2 0xFF JUMPI PUSH1 0x0 CALLDATALOAD PUSH1 0xE0 SHR DUP1 PUSH4 0x8FE96732 GT PUSH2 0x97 JUMPI DUP1 PUSH4 0xC01E17CB GT PUSH2 0x66 JUMPI DUP1 PUSH4 0xC01E17CB EQ PUSH2 0x26A JUMPI DUP1 PUSH4 0xCFD93E32 EQ PUSH2 0x273 JUMPI DUP1 PUSH4 0xE73C3615 EQ PUSH2 0x286 JUMPI DUP1 PUSH4 0xF77C4791 EQ PUSH2 0x2B1 JUMPI PUSH1 0x0 DUP1 REVERT JUMPDEST DUP1 PUSH4 0x8FE96732 EQ PUSH2 0x205 JUMPI DUP1 PUSH4 0x90F6CE0C EQ PUSH2 0x218 JUMPI DUP1 PUSH4 0x97232830 EQ PUSH2 0x244 JUMPI DUP1 PUSH4 0x97FAF60B EQ PUSH2 0x257 JUMPI PUSH1 0x0 DUP1 REVERT JUMPDEST DUP1 PUSH4 0x70E9D8CD GT PUSH2 0xD3 JUMPI DUP1 PUSH4 0x70E9D8CD EQ PUSH2 0x196 JUMPI DUP1 PUSH4 0x7265FC91 EQ PUSH2 0x1BF JUMPI DUP1 PUSH4 0x77233752 EQ PUSH2 0x1D2 JUMPI DUP1 PUSH4 0x8E783523 EQ PUSH2 0x1F2 JUMPI PUSH1 0x0 DUP1 REVERT JUMPDEST DUP1 PUSH3 0x435DA5 EQ PUSH2 0x104 JUMPI DUP1 PUSH4 0xF2703A2 EQ PUSH2 0x143 JUMPI DUP1 PUSH4 0x17624B63 EQ PUSH2 0x158 JUMPI DUP1 PUSH4 0x444116B5 EQ PUSH2 0x16F JUMPI JUMPDEST PUSH1 0x0 DUP1 REVERT JUMPDEST PUSH32 0x0 JUMPDEST PUSH1 0x40 MLOAD PUSH1 0x1 PUSH1 0x1 PUSH1 0xA0 SHL SUB SWAP1 SWAP2 AND DUP2 MSTORE PUSH1 0x20 ADD JUMPDEST PUSH1 0x40 MLOAD DUP1 SWAP2 SUB SWAP1 RETURN JUMPDEST PUSH2 0x156 PUSH2 0x151 CALLDATASIZE PUSH1 0x4 PUSH2 0x1239 JUMP JUMPDEST PUSH2 0x2D8 JUMP JUMPDEST STOP JUMPDEST PUSH2 0x161 PUSH1 0x4 SLOAD DUP2 JUMP JUMPDEST PUSH1 0x40 MLOAD SWAP1 DUP2 MSTORE PUSH1 0x20 ADD PUSH2 0x13A JUMP JUMPDEST PUSH2 0x126 PUSH32 0x0 DUP2 JUMP JUMPDEST PUSH2 0x126 PUSH2 0x1A4 CALLDATASIZE PUSH1 0x4 PUSH2 0x1272 JUMP JUMPDEST PUSH1 0x2 PUSH1 0x20 MSTORE PUSH1 0x0 SWAP1 DUP2 MSTORE PUSH1 0x40 SWAP1 KECCAK256 SLOAD PUSH1 0x1 PUSH1 0x1 PUSH1 0xA0 SHL SUB AND DUP2 JUMP JUMPDEST PUSH2 0x156 PUSH2 0x1CD CALLDATASIZE PUSH1 0x4 PUSH2 0x1272 JUMP JUMPDEST PUSH2 0x4C6 JUMP JUMPDEST PUSH2 0x161 PUSH2 0x1E0 CALLDATASIZE PUSH1 0x4 PUSH2 0x1272 JUMP JUMPDEST PUSH1 0x0 PUSH1 0x20 DUP2 SWAP1 MSTORE SWAP1 DUP2 MSTORE PUSH1 0x40 SWAP1 KECCAK256 SLOAD DUP2 JUMP JUMPDEST PUSH2 0x156 PUSH2 0x200 CALLDATASIZE PUSH1 0x4 PUSH2 0x1239 JUMP JUMPDEST PUSH2 0x590 JUMP JUMPDEST PUSH2 0x156 PUSH2 0x213 CALLDATASIZE PUSH1 0x4 PUSH2 0x1239 JUMP JUMPDEST PUSH2 0x71A JUMP JUMPDEST PUSH2 0x126 PUSH2 0x226 CALLDATASIZE PUSH1 0x4 PUSH2 0x1272 JUMP JUMPDEST PUSH1 0x1 PUSH1 0x1 PUSH1 0xA0 SHL SUB SWAP1 DUP2 AND PUSH1 0x0 SWAP1 DUP2 MSTORE PUSH1 0x2 PUSH1 0x20 MSTORE PUSH1 0x40 SWAP1 KECCAK256 SLOAD AND SWAP1 JUMP JUMPDEST PUSH2 0x156 PUSH2 0x252 CALLDATASIZE PUSH1 0x4 PUSH2 0x128F JUMP JUMPDEST PUSH2 0x819 JUMP JUMPDEST PUSH2 0x156 PUSH2 0x265 CALLDATASIZE PUSH1 0x4 PUSH2 0x128F JUMP JUMPDEST PUSH2 0x9EC JUMP JUMPDEST PUSH2 0x161 PUSH1 0x3 SLOAD DUP2 JUMP JUMPDEST PUSH2 0x156 PUSH2 0x281 CALLDATASIZE PUSH1 0x4 PUSH2 0x12A8 JUMP JUMPDEST PUSH2 0xBB8 JUMP JUMPDEST PUSH2 0x161 PUSH2 0x294 CALLDATASIZE PUSH1 0x4 PUSH2 0x1239 JUMP JUMPDEST PUSH1 0x1 PUSH1 0x20 SWAP1 DUP2 MSTORE PUSH1 0x0 SWAP3 DUP4 MSTORE PUSH1 0x40 DUP1 DUP5 KECCAK256 SWAP1 SWAP2 MSTORE SWAP1 DUP3 MSTORE SWAP1 KECCAK256 SLOAD DUP2 JUMP JUMPDEST PUSH2 0x126 PUSH32 0x0 DUP2 JUMP JUMPDEST PUSH32 0x0 PUSH1 0x40 MLOAD PUSH4 0x24745215 PUSH1 0xE2 SHL DUP2 MSTORE PUSH10 0x676F7665726E616E6365 PUSH1 0xB0 SHL PUSH1 0x4 DUP3 ADD MSTORE CALLER PUSH1 0x24 DUP3 ADD MSTORE PUSH1 0x1 PUSH1 0x1 PUSH1 0xA0 SHL SUB SWAP2 SWAP1 SWAP2 AND SWAP1 PUSH4 0x91D14854 SWAP1 PUSH1 0x44 ADD PUSH1 0x20 PUSH1 0x40 MLOAD DUP1 DUP4 SUB DUP2 DUP7 GAS STATICCALL ISZERO DUP1 ISZERO PUSH2 0x352 JUMPI RETURNDATASIZE PUSH1 0x0 DUP1 RETURNDATACOPY RETURNDATASIZE PUSH1 0x0 REVERT JUMPDEST POP POP POP POP PUSH1 0x40 MLOAD RETURNDATASIZE PUSH1 0x1F NOT PUSH1 0x1F DUP3 ADD AND DUP3 ADD DUP1 PUSH1 0x40 MSTORE POP DUP2 ADD SWAP1 PUSH2 0x376 SWAP2 SWAP1 PUSH2 0x12FB JUMP JUMPDEST PUSH1 0x40 MLOAD DUP1 PUSH1 0x40 ADD PUSH1 0x40 MSTORE DUP1 PUSH1 0x13 DUP2 MSTORE PUSH1 0x20 ADD PUSH19 0x756E617574686F72697A656420616363657373 PUSH1 0x68 SHL DUP2 MSTORE POP SWAP1 PUSH2 0x3C9 JUMPI PUSH1 0x40 MLOAD PUSH3 0x461BCD PUSH1 0xE5 SHL DUP2 MSTORE PUSH1 0x4 ADD PUSH2 0x3C0 SWAP2 SWAP1 PUSH2 0x1349 JUMP JUMPDEST PUSH1 0x40 MLOAD DUP1 SWAP2 SUB SWAP1 REVERT JUMPDEST POP PUSH1 0x1 PUSH1 0x1 PUSH1 0xA0 SHL SUB DUP1 DUP4 AND PUSH1 0x0 SWAP1 DUP2 MSTORE PUSH1 0x2 PUSH1 0x20 MSTORE PUSH1 0x40 DUP2 KECCAK256 SLOAD SWAP1 SWAP2 AND PUSH1 0x1 PUSH1 0x1 PUSH1 0xA0 SHL SUB AND EQ PUSH1 0x40 MLOAD DUP1 PUSH1 0x40 ADD PUSH1 0x40 MSTORE DUP1 PUSH1 0x18 DUP2 MSTORE PUSH1 0x20 ADD PUSH24 0x1E995C9BC81859191C995CDCC81B9BDD08185B1B1BDDD959 PUSH1 0x42 SHL DUP2 MSTORE POP SWAP1 PUSH2 0x440 JUMPI PUSH1 0x40 MLOAD PUSH3 0x461BCD PUSH1 0xE5 SHL DUP2 MSTORE PUSH1 0x4 ADD PUSH2 0x3C0 SWAP2 SWAP1 PUSH2 0x1349 JUMP JUMPDEST POP PUSH1 0x40 DUP1 MLOAD DUP1 DUP3 ADD SWAP1 SWAP2 MSTORE PUSH1 0x18 DUP2 MSTORE PUSH24 0x1E995C9BC81859191C995CDCC81B9BDD08185B1B1BDDD959 PUSH1 0x42 SHL PUSH1 0x20 DUP3 ADD MSTORE PUSH1 0x1 PUSH1 0x1 PUSH1 0xA0 SHL SUB DUP3 AND PUSH2 0x497 JUMPI PUSH1 0x40 MLOAD PUSH3 0x461BCD PUSH1 0xE5 SHL DUP2 MSTORE PUSH1 0x4 ADD PUSH2 0x3C0 SWAP2 SWAP1 PUSH2 0x1349 JUMP JUMPDEST POP PUSH1 0x1 PUSH1 0x1 PUSH1 0xA0 SHL SUB SWAP2 DUP3 AND PUSH1 0x0 SWAP1 DUP2 MSTORE PUSH1 0x2 PUSH1 0x20 MSTORE PUSH1 0x40 SWAP1 KECCAK256 DUP1 SLOAD PUSH1 0x1 PUSH1 0x1 PUSH1 0xA0 SHL SUB NOT AND SWAP2 SWAP1 SWAP3 AND OR SWAP1 SSTORE JUMP JUMPDEST PUSH1 0x1 PUSH1 0x1 PUSH1 0xA0 SHL SUB DUP1 DUP3 AND PUSH1 0x0 SWAP1 DUP2 MSTORE PUSH1 0x20 DUP2 DUP2 MSTORE PUSH1 0x40 DUP1 DUP4 KECCAK256 DUP1 SLOAD SWAP4 SWAP1 SSTORE DUP1 MLOAD PUSH4 0xA550063 PUSH1 0xE2 SHL DUP2 MSTORE SWAP1 MLOAD SWAP3 SWAP4 PUSH2 0x58C SWAP4 PUSH2 0x57B SWAP4 PUSH32 0x0 SWAP1 SWAP3 AND SWAP3 PUSH4 0x2954018C SWAP3 PUSH1 0x4 DUP1 DUP4 ADD SWAP4 SWAP2 SWAP3 DUP3 SWAP1 SUB ADD DUP2 DUP7 GAS STATICCALL ISZERO DUP1 ISZERO PUSH2 0x549 JUMPI RETURNDATASIZE PUSH1 0x0 DUP1 RETURNDATACOPY RETURNDATASIZE PUSH1 0x0 REVERT JUMPDEST POP POP POP POP PUSH1 0x40 MLOAD RETURNDATASIZE PUSH1 0x1F NOT PUSH1 0x1F DUP3 ADD AND DUP3 ADD DUP1 PUSH1 0x40 MSTORE POP DUP2 ADD SWAP1 PUSH2 0x56D SWAP2 SWAP1 PUSH2 0x137C JUMP JUMPDEST PUSH1 0x1 PUSH1 0x1 PUSH1 0xA0 SHL SUB AND PUSH2 0xEC3 JUMP JUMPDEST PUSH1 0x1 PUSH1 0x1 PUSH1 0xA0 SHL SUB DUP5 AND SWAP1 DUP4 PUSH2 0xF02 JUMP JUMPDEST POP POP JUMP JUMPDEST PUSH32 0x0 PUSH1 0x40 MLOAD PUSH4 0x24745215 PUSH1 0xE2 SHL DUP2 MSTORE PUSH10 0x676F7665726E616E6365 PUSH1 0xB0 SHL PUSH1 0x4 DUP3 ADD MSTORE CALLER PUSH1 0x24 DUP3 ADD MSTORE PUSH1 0x1 PUSH1 0x1 PUSH1 0xA0 SHL SUB SWAP2 SWAP1 SWAP2 AND SWAP1 PUSH4 0x91D14854 SWAP1 PUSH1 0x44 ADD PUSH1 0x20 PUSH1 0x40 MLOAD DUP1 DUP4 SUB DUP2 DUP7 GAS STATICCALL ISZERO DUP1 ISZERO PUSH2 0x60A JUMPI RETURNDATASIZE PUSH1 0x0 DUP1 RETURNDATACOPY RETURNDATASIZE PUSH1 0x0 REVERT JUMPDEST POP POP POP POP PUSH1 0x40 MLOAD RETURNDATASIZE PUSH1 0x1F NOT PUSH1 0x1F DUP3 ADD AND DUP3 ADD DUP1 PUSH1 0x40 MSTORE POP DUP2 ADD SWAP1 PUSH2 0x62E SWAP2 SWAP1 PUSH2 0x12FB JUMP JUMPDEST PUSH1 0x40 MLOAD DUP1 PUSH1 0x40 ADD PUSH1 0x40 MSTORE DUP1 PUSH1 0x13 DUP2 MSTORE PUSH1 0x20 ADD PUSH19 0x756E617574686F72697A656420616363657373 PUSH1 0x68 SHL DUP2 MSTORE POP SWAP1 PUSH2 0x678 JUMPI PUSH1 0x40 MLOAD PUSH3 0x461BCD PUSH1 0xE5 SHL DUP2 MSTORE PUSH1 0x4 ADD PUSH2 0x3C0 SWAP2 SWAP1 PUSH2 0x1349 JUMP JUMPDEST POP PUSH1 0x1 PUSH1 0x1 PUSH1 0xA0 SHL SUB DUP2 AND PUSH2 0x6AF JUMPI POP PUSH1 0x1 PUSH1 0x1 PUSH1 0xA0 SHL SUB AND PUSH1 0x0 SWAP1 DUP2 MSTORE PUSH1 0x2 PUSH1 0x20 MSTORE PUSH1 0x40 SWAP1 KECCAK256 DUP1 SLOAD PUSH1 0x1 PUSH1 0x1 PUSH1 0xA0 SHL SUB NOT AND SWAP1 SSTORE JUMP JUMPDEST PUSH1 0x1 PUSH1 0x1 PUSH1 0xA0 SHL SUB DUP3 DUP2 AND PUSH1 0x0 DUP2 DUP2 MSTORE PUSH1 0x2 PUSH1 0x20 SWAP1 DUP2 MSTORE PUSH1 0x40 SWAP2 DUP3 SWAP1 KECCAK256 DUP1 SLOAD PUSH1 0x1 PUSH1 0x1 PUSH1 0xA0 SHL SUB NOT AND SWAP5 DUP7 AND SWAP5 DUP6 OR SWAP1 SSTORE DUP2 MLOAD SWAP3 DUP4 MSTORE DUP3 ADD SWAP3 SWAP1 SWAP3 MSTORE PUSH32 0xCD5B7C6947116A35BF954E996B32A916C7104E0AA6AFC16FC5E80837B399D8BC SWAP2 ADD PUSH1 0x40 MLOAD DUP1 SWAP2 SUB SWAP1 LOG1 POP POP JUMP JUMPDEST PUSH1 0x1 PUSH1 0x1 PUSH1 0xA0 SHL SUB DUP1 DUP4 AND PUSH1 0x0 SWAP1 DUP2 MSTORE PUSH1 0x1 PUSH1 0x20 SWAP1 DUP2 MSTORE PUSH1 0x40 DUP1 DUP4 KECCAK256 SWAP4 DUP6 AND DUP4 MSTORE SWAP3 DUP2 MSTORE SWAP1 DUP3 SWAP1 KECCAK256 SLOAD DUP3 MLOAD DUP1 DUP5 ADD SWAP1 SWAP4 MSTORE PUSH1 0x1D DUP4 MSTORE PUSH32 0x7468657265206973206E6F20636C61696D61626C652062616C616E6365000000 SWAP2 DUP4 ADD SWAP2 SWAP1 SWAP2 MSTORE SWAP1 DUP2 PUSH2 0x796 JUMPI PUSH1 0x40 MLOAD PUSH3 0x461BCD PUSH1 0xE5 SHL DUP2 MSTORE PUSH1 0x4 ADD PUSH2 0x3C0 SWAP2 SWAP1 PUSH2 0x1349 JUMP JUMPDEST POP PUSH1 0x1 PUSH1 0x1 PUSH1 0xA0 SHL SUB DUP1 DUP5 AND PUSH1 0x0 SWAP1 DUP2 MSTORE PUSH1 0x1 PUSH1 0x20 SWAP1 DUP2 MSTORE PUSH1 0x40 DUP1 DUP4 KECCAK256 SWAP4 DUP7 AND DUP1 DUP5 MSTORE SWAP4 SWAP1 SWAP2 MSTORE DUP2 KECCAK256 SSTORE DUP3 SWAP1 PUSH2 0x7CD SWAP1 DUP6 DUP5 PUSH2 0xF02 JUMP JUMPDEST PUSH1 0x40 DUP1 MLOAD PUSH1 0x1 PUSH1 0x1 PUSH1 0xA0 SHL SUB DUP6 DUP2 AND DUP3 MSTORE PUSH1 0x20 DUP3 ADD DUP6 SWAP1 MSTORE DUP7 AND SWAP2 PUSH32 0xA2099E15DA4F15B4446A2CCD0B9767C2E897C797777C20AB5F5B899A62704E67 SWAP2 ADD PUSH1 0x40 MLOAD DUP1 SWAP2 SUB SWAP1 LOG2 POP POP POP POP JUMP JUMPDEST PUSH32 0x0 PUSH1 0x40 MLOAD PUSH4 0x24745215 PUSH1 0xE2 SHL DUP2 MSTORE PUSH10 0x676F7665726E616E6365 PUSH1 0xB0 SHL PUSH1 0x4 DUP3 ADD MSTORE CALLER PUSH1 0x24 DUP3 ADD MSTORE PUSH1 0x1 PUSH1 0x1 PUSH1 0xA0 SHL SUB SWAP2 SWAP1 SWAP2 AND SWAP1 PUSH4 0x91D14854 SWAP1 PUSH1 0x44 ADD PUSH1 0x20 PUSH1 0x40 MLOAD DUP1 DUP4 SUB DUP2 DUP7 GAS STATICCALL ISZERO DUP1 ISZERO PUSH2 0x893 JUMPI RETURNDATASIZE PUSH1 0x0 DUP1 RETURNDATACOPY RETURNDATASIZE PUSH1 0x0 REVERT JUMPDEST POP POP POP POP PUSH1 0x40 MLOAD RETURNDATASIZE PUSH1 0x1F NOT PUSH1 0x1F DUP3 ADD AND DUP3 ADD DUP1 PUSH1 0x40 MSTORE POP DUP2 ADD SWAP1 PUSH2 0x8B7 SWAP2 SWAP1 PUSH2 0x12FB JUMP JUMPDEST PUSH1 0x40 MLOAD DUP1 PUSH1 0x40 ADD PUSH1 0x40 MSTORE DUP1 PUSH1 0x13 DUP2 MSTORE PUSH1 0x20 ADD PUSH19 0x756E617574686F72697A656420616363657373 PUSH1 0x68 SHL DUP2 MSTORE POP SWAP1 PUSH2 0x901 JUMPI PUSH1 0x40 MLOAD PUSH3 0x461BCD PUSH1 0xE5 SHL DUP2 MSTORE PUSH1 0x4 ADD PUSH2 0x3C0 SWAP2 SWAP1 PUSH2 0x1349 JUMP JUMPDEST POP PUSH1 0x40 DUP1 MLOAD DUP1 DUP3 ADD SWAP1 SWAP2 MSTORE PUSH1 0xE DUP2 MSTORE PUSH14 0x1A5B9D985B1A5908185B5BDD5B9D PUSH1 0x92 SHL PUSH1 0x20 DUP3 ADD MSTORE PUSH8 0xDE0B6B3A7640000 DUP3 GT ISZERO PUSH2 0x950 JUMPI PUSH1 0x40 MLOAD PUSH3 0x461BCD PUSH1 0xE5 SHL DUP2 MSTORE PUSH1 0x4 ADD PUSH2 0x3C0 SWAP2 SWAP1 PUSH2 0x1349 JUMP JUMPDEST POP PUSH8 0xDE0B6B3A7640000 PUSH1 0x3 SLOAD DUP3 PUSH2 0x968 SWAP2 SWAP1 PUSH2 0x13AF JUMP JUMPDEST GT ISZERO PUSH1 0x40 MLOAD DUP1 PUSH1 0x40 ADD PUSH1 0x40 MSTORE DUP1 PUSH1 0xE DUP2 MSTORE PUSH1 0x20 ADD PUSH14 0x1A5B9D985B1A5908185B5BDD5B9D PUSH1 0x92 SHL DUP2 MSTORE POP SWAP1 PUSH2 0x9AF JUMPI PUSH1 0x40 MLOAD PUSH3 0x461BCD PUSH1 0xE5 SHL DUP2 MSTORE PUSH1 0x4 ADD PUSH2 0x3C0 SWAP2 SWAP1 PUSH2 0x1349 JUMP JUMPDEST POP PUSH1 0x4 DUP2 SWAP1 SSTORE PUSH1 0x40 MLOAD DUP2 DUP2 MSTORE PUSH32 0xFDC6C17F190A1A7E236AF2F7387D9494B31405F8F9FAD26E36A7FEFE7190CEF8 SWAP1 PUSH1 0x20 ADD JUMPDEST PUSH1 0x40 MLOAD DUP1 SWAP2 SUB SWAP1 LOG1 POP JUMP JUMPDEST PUSH32 0x0 PUSH1 0x40 MLOAD PUSH4 0x24745215 PUSH1 0xE2 SHL DUP2 MSTORE PUSH10 0x676F7665726E616E6365 PUSH1 0xB0 SHL PUSH1 0x4 DUP3 ADD MSTORE CALLER PUSH1 0x24 DUP3 ADD MSTORE PUSH1 0x1 PUSH1 0x1 PUSH1 0xA0 SHL SUB SWAP2 SWAP1 SWAP2 AND SWAP1 PUSH4 0x91D14854 SWAP1 PUSH1 0x44 ADD PUSH1 0x20 PUSH1 0x40 MLOAD DUP1 DUP4 SUB DUP2 DUP7 GAS STATICCALL ISZERO DUP1 ISZERO PUSH2 0xA66 JUMPI RETURNDATASIZE PUSH1 0x0 DUP1 RETURNDATACOPY RETURNDATASIZE PUSH1 0x0 REVERT JUMPDEST POP POP POP POP PUSH1 0x40 MLOAD RETURNDATASIZE PUSH1 0x1F NOT PUSH1 0x1F DUP3 ADD AND DUP3 ADD DUP1 PUSH1 0x40 MSTORE POP DUP2 ADD SWAP1 PUSH2 0xA8A SWAP2 SWAP1 PUSH2 0x12FB JUMP JUMPDEST PUSH1 0x40 MLOAD DUP1 PUSH1 0x40 ADD PUSH1 0x40 MSTORE DUP1 PUSH1 0x13 DUP2 MSTORE PUSH1 0x20 ADD PUSH19 0x756E617574686F72697A656420616363657373 PUSH1 0x68 SHL DUP2 MSTORE POP SWAP1 PUSH2 0xAD4 JUMPI PUSH1 0x40 MLOAD PUSH3 0x461BCD PUSH1 0xE5 SHL DUP2 MSTORE PUSH1 0x4 ADD PUSH2 0x3C0 SWAP2 SWAP1 PUSH2 0x1349 JUMP JUMPDEST POP PUSH1 0x40 DUP1 MLOAD DUP1 DUP3 ADD SWAP1 SWAP2 MSTORE PUSH1 0xE DUP2 MSTORE PUSH14 0x1A5B9D985B1A5908185B5BDD5B9D PUSH1 0x92 SHL PUSH1 0x20 DUP3 ADD MSTORE PUSH8 0xDE0B6B3A7640000 DUP3 GT ISZERO PUSH2 0xB23 JUMPI PUSH1 0x40 MLOAD PUSH3 0x461BCD PUSH1 0xE5 SHL DUP2 MSTORE PUSH1 0x4 ADD PUSH2 0x3C0 SWAP2 SWAP1 PUSH2 0x1349 JUMP JUMPDEST POP PUSH8 0xDE0B6B3A7640000 DUP2 PUSH1 0x4 SLOAD PUSH2 0xB3B SWAP2 SWAP1 PUSH2 0x13AF JUMP JUMPDEST GT ISZERO PUSH1 0x40 MLOAD DUP1 PUSH1 0x40 ADD PUSH1 0x40 MSTORE DUP1 PUSH1 0xE DUP2 MSTORE PUSH1 0x20 ADD PUSH14 0x1A5B9D985B1A5908185B5BDD5B9D PUSH1 0x92 SHL DUP2 MSTORE POP SWAP1 PUSH2 0xB82 JUMPI PUSH1 0x40 MLOAD PUSH3 0x461BCD PUSH1 0xE5 SHL DUP2 MSTORE PUSH1 0x4 ADD PUSH2 0x3C0 SWAP2 SWAP1 PUSH2 0x1349 JUMP JUMPDEST POP PUSH1 0x3 DUP2 SWAP1 SSTORE PUSH1 0x40 MLOAD DUP2 DUP2 MSTORE PUSH32 0x8F9DE2FAF4F08D126210F581CB4CFFD161AAF60BC1E99243D116AF54CCE5CC2B SWAP1 PUSH1 0x20 ADD PUSH2 0x9E1 JUMP JUMPDEST PUSH1 0x40 DUP1 MLOAD DUP1 DUP3 ADD SWAP1 SWAP2 MSTORE PUSH1 0x13 DUP2 MSTORE PUSH19 0x756E617574686F72697A656420616363657373 PUSH1 0x68 SHL PUSH1 0x20 DUP3 ADD MSTORE CALLER PUSH1 0x1 PUSH1 0x1 PUSH1 0xA0 SHL SUB PUSH32 0x0 AND EQ PUSH2 0xC2B JUMPI PUSH1 0x40 MLOAD PUSH3 0x461BCD PUSH1 0xE5 SHL DUP2 MSTORE PUSH1 0x4 ADD PUSH2 0x3C0 SWAP2 SWAP1 PUSH2 0x1349 JUMP JUMPDEST POP PUSH1 0x0 PUSH2 0xC43 PUSH1 0x3 SLOAD DUP5 PUSH2 0xF6A SWAP1 SWAP2 SWAP1 PUSH4 0xFFFFFFFF AND JUMP JUMPDEST SWAP1 POP PUSH1 0x0 PUSH2 0xC5C PUSH1 0x4 SLOAD DUP6 PUSH2 0xF6A SWAP1 SWAP2 SWAP1 PUSH4 0xFFFFFFFF AND JUMP JUMPDEST SWAP1 POP DUP3 PUSH2 0xC74 PUSH1 0x1 PUSH1 0x1 PUSH1 0xA0 SHL SUB DUP3 AND CALLER ADDRESS DUP9 PUSH2 0xF90 JUMP JUMPDEST PUSH1 0x1 PUSH1 0x1 PUSH1 0xA0 SHL SUB DUP5 DUP2 AND PUSH1 0x0 SWAP1 DUP2 MSTORE PUSH1 0x2 PUSH1 0x20 MSTORE PUSH1 0x40 SWAP1 KECCAK256 SLOAD AND DUP1 ISZERO PUSH2 0xD00 JUMPI PUSH1 0x40 MLOAD PUSH4 0x3D86C0D PUSH1 0xE3 SHL DUP2 MSTORE PUSH1 0x1 PUSH1 0x1 PUSH1 0xA0 SHL SUB DUP9 DUP2 AND PUSH1 0x4 DUP4 ADD MSTORE PUSH1 0x24 DUP3 ADD DUP7 SWAP1 MSTORE DUP7 DUP2 AND PUSH1 0x44 DUP4 ADD MSTORE DUP3 AND SWAP1 PUSH4 0x1EC36068 SWAP1 PUSH1 0x64 ADD PUSH1 0x0 PUSH1 0x40 MLOAD DUP1 DUP4 SUB DUP2 PUSH1 0x0 DUP8 DUP1 EXTCODESIZE ISZERO DUP1 ISZERO PUSH2 0xCE7 JUMPI PUSH1 0x0 DUP1 REVERT JUMPDEST POP GAS CALL ISZERO DUP1 ISZERO PUSH2 0xCFB JUMPI RETURNDATASIZE PUSH1 0x0 DUP1 RETURNDATACOPY RETURNDATASIZE PUSH1 0x0 REVERT JUMPDEST POP POP POP POP JUMPDEST PUSH1 0x1 PUSH1 0x1 PUSH1 0xA0 SHL SUB DUP1 DUP9 AND PUSH1 0x0 SWAP1 DUP2 MSTORE PUSH1 0x1 PUSH1 0x20 SWAP1 DUP2 MSTORE PUSH1 0x40 DUP1 DUP4 KECCAK256 SWAP4 DUP10 AND DUP4 MSTORE SWAP3 SWAP1 MSTORE SWAP1 DUP2 KECCAK256 DUP1 SLOAD DUP7 SWAP3 SWAP1 PUSH2 0xD37 SWAP1 DUP5 SWAP1 PUSH2 0x13AF JUMP JUMPDEST SWAP1 SWAP2 SSTORE POP POP PUSH1 0x1 PUSH1 0x1 PUSH1 0xA0 SHL SUB DUP6 AND PUSH1 0x0 SWAP1 DUP2 MSTORE PUSH1 0x20 DUP2 SWAP1 MSTORE PUSH1 0x40 DUP2 KECCAK256 DUP1 SLOAD DUP6 SWAP3 SWAP1 PUSH2 0xD64 SWAP1 DUP5 SWAP1 PUSH2 0x13AF JUMP JUMPDEST SWAP1 SWAP2 SSTORE POP PUSH1 0x0 SWAP1 POP DUP4 PUSH2 0xD77 DUP7 DUP10 PUSH2 0x13C7 JUMP JUMPDEST PUSH2 0xD81 SWAP2 SWAP1 PUSH2 0x13C7 JUMP JUMPDEST PUSH1 0x40 MLOAD PUSH4 0x852CD8D PUSH1 0xE3 SHL DUP2 MSTORE PUSH1 0x4 DUP2 ADD DUP3 SWAP1 MSTORE SWAP1 SWAP2 POP PUSH1 0x1 PUSH1 0x1 PUSH1 0xA0 SHL SUB DUP5 AND SWAP1 PUSH4 0x42966C68 SWAP1 PUSH1 0x24 ADD PUSH1 0x0 PUSH1 0x40 MLOAD DUP1 DUP4 SUB DUP2 PUSH1 0x0 DUP8 DUP1 EXTCODESIZE ISZERO DUP1 ISZERO PUSH2 0xDC6 JUMPI PUSH1 0x0 DUP1 REVERT JUMPDEST POP GAS CALL ISZERO DUP1 ISZERO PUSH2 0xDDA JUMPI RETURNDATASIZE PUSH1 0x0 DUP1 RETURNDATACOPY RETURNDATASIZE PUSH1 0x0 REVERT JUMPDEST POP POP PUSH1 0x40 DUP1 MLOAD PUSH1 0x1 PUSH1 0x1 PUSH1 0xA0 SHL SUB DUP11 DUP2 AND DUP3 MSTORE PUSH1 0x20 DUP3 ADD DUP13 SWAP1 MSTORE SWAP2 DUP2 ADD DUP10 SWAP1 MSTORE PUSH1 0x60 DUP2 ADD DUP6 SWAP1 MSTORE DUP2 DUP13 AND SWAP4 POP SWAP1 DUP13 AND SWAP2 POP PUSH32 0xFA9D128D86552A91243363427B3FDE4F942DE701BF1F81908816FC2C05675085 SWAP1 PUSH1 0x80 ADD PUSH1 0x40 MLOAD DUP1 SWAP2 SUB SWAP1 LOG3 POP POP POP POP POP POP POP POP POP JUMP JUMPDEST PUSH1 0x40 MLOAD PUSH4 0x21F8A721 PUSH1 0xE0 SHL DUP2 MSTORE PUSH11 0x3937B632A6B0B730B3B2B9 PUSH1 0xA9 SHL PUSH1 0x4 DUP3 ADD MSTORE PUSH1 0x0 SWAP1 PUSH1 0x1 PUSH1 0x1 PUSH1 0xA0 SHL SUB DUP4 AND SWAP1 PUSH4 0x21F8A721 SWAP1 PUSH1 0x24 ADD JUMPDEST PUSH1 0x20 PUSH1 0x40 MLOAD DUP1 DUP4 SUB DUP2 DUP7 GAS STATICCALL ISZERO DUP1 ISZERO PUSH2 0xE99 JUMPI RETURNDATASIZE PUSH1 0x0 DUP1 RETURNDATACOPY RETURNDATASIZE PUSH1 0x0 REVERT JUMPDEST POP POP POP POP PUSH1 0x40 MLOAD RETURNDATASIZE PUSH1 0x1F NOT PUSH1 0x1F DUP3 ADD AND DUP3 ADD DUP1 PUSH1 0x40 MSTORE POP DUP2 ADD SWAP1 PUSH2 0xEBD SWAP2 SWAP1 PUSH2 0x137C JUMP JUMPDEST SWAP3 SWAP2 POP POP JUMP JUMPDEST PUSH1 0x40 MLOAD PUSH4 0x21F8A721 PUSH1 0xE0 SHL DUP2 MSTORE PUSH13 0x3932BBB0B9322430B7323632B9 PUSH1 0x99 SHL PUSH1 0x4 DUP3 ADD MSTORE PUSH1 0x0 SWAP1 PUSH1 0x1 PUSH1 0x1 PUSH1 0xA0 SHL SUB DUP4 AND SWAP1 PUSH4 0x21F8A721 SWAP1 PUSH1 0x24 ADD PUSH2 0xE7C JUMP JUMPDEST PUSH1 0x40 MLOAD PUSH1 0x1 PUSH1 0x1 PUSH1 0xA0 SHL SUB DUP4 AND PUSH1 0x24 DUP3 ADD MSTORE PUSH1 0x44 DUP2 ADD DUP3 SWAP1 MSTORE PUSH2 0xF65 SWAP1 DUP5 SWAP1 PUSH4 0xA9059CBB PUSH1 0xE0 SHL SWAP1 PUSH1 0x64 ADD JUMPDEST PUSH1 0x40 DUP1 MLOAD PUSH1 0x1F NOT DUP2 DUP5 SUB ADD DUP2 MSTORE SWAP2 SWAP1 MSTORE PUSH1 0x20 DUP2 ADD DUP1 MLOAD PUSH1 0x1 PUSH1 0x1 PUSH1 0xE0 SHL SUB AND PUSH1 0x1 PUSH1 0x1 PUSH1 0xE0 SHL SUB NOT SWAP1 SWAP4 AND SWAP3 SWAP1 SWAP3 OR SWAP1 SWAP2 MSTORE PUSH2 0xFCE JUMP JUMPDEST POP POP POP JUMP JUMPDEST PUSH1 0x0 PUSH8 0xDE0B6B3A7640000 PUSH2 0xF7F DUP4 DUP6 PUSH2 0x13DE JUMP JUMPDEST PUSH2 0xF89 SWAP2 SWAP1 PUSH2 0x13FD JUMP JUMPDEST SWAP4 SWAP3 POP POP POP JUMP JUMPDEST PUSH1 0x40 MLOAD PUSH1 0x1 PUSH1 0x1 PUSH1 0xA0 SHL SUB DUP1 DUP6 AND PUSH1 0x24 DUP4 ADD MSTORE DUP4 AND PUSH1 0x44 DUP3 ADD MSTORE PUSH1 0x64 DUP2 ADD DUP3 SWAP1 MSTORE PUSH2 0xFC8 SWAP1 DUP6 SWAP1 PUSH4 0x23B872DD PUSH1 0xE0 SHL SWAP1 PUSH1 0x84 ADD PUSH2 0xF2E JUMP JUMPDEST POP POP POP POP JUMP JUMPDEST PUSH1 0x0 PUSH2 0x1023 DUP3 PUSH1 0x40 MLOAD DUP1 PUSH1 0x40 ADD PUSH1 0x40 MSTORE DUP1 PUSH1 0x20 DUP2 MSTORE PUSH1 0x20 ADD PUSH32 0x5361666545524332303A206C6F772D6C6576656C2063616C6C206661696C6564 DUP2 MSTORE POP DUP6 PUSH1 0x1 PUSH1 0x1 PUSH1 0xA0 SHL SUB AND PUSH2 0x10A0 SWAP1 SWAP3 SWAP2 SWAP1 PUSH4 0xFFFFFFFF AND JUMP JUMPDEST DUP1 MLOAD SWAP1 SWAP2 POP ISZERO PUSH2 0xF65 JUMPI DUP1 DUP1 PUSH1 0x20 ADD SWAP1 MLOAD DUP2 ADD SWAP1 PUSH2 0x1041 SWAP2 SWAP1 PUSH2 0x12FB JUMP JUMPDEST PUSH2 0xF65 JUMPI PUSH1 0x40 MLOAD PUSH3 0x461BCD PUSH1 0xE5 SHL DUP2 MSTORE PUSH1 0x20 PUSH1 0x4 DUP3 ADD MSTORE PUSH1 0x2A PUSH1 0x24 DUP3 ADD MSTORE PUSH32 0x5361666545524332303A204552433230206F7065726174696F6E20646964206E PUSH1 0x44 DUP3 ADD MSTORE PUSH10 0x1BDD081CDD58D8D95959 PUSH1 0xB2 SHL PUSH1 0x64 DUP3 ADD MSTORE PUSH1 0x84 ADD PUSH2 0x3C0 JUMP JUMPDEST PUSH1 0x60 PUSH2 0x10AF DUP5 DUP5 PUSH1 0x0 DUP6 PUSH2 0x10B7 JUMP JUMPDEST SWAP5 SWAP4 POP POP POP POP JUMP JUMPDEST PUSH1 0x60 DUP3 SELFBALANCE LT ISZERO PUSH2 0x1118 JUMPI PUSH1 0x40 MLOAD PUSH3 0x461BCD PUSH1 0xE5 SHL DUP2 MSTORE PUSH1 0x20 PUSH1 0x4 DUP3 ADD MSTORE PUSH1 0x26 PUSH1 0x24 DUP3 ADD MSTORE PUSH32 0x416464726573733A20696E73756666696369656E742062616C616E636520666F PUSH1 0x44 DUP3 ADD MSTORE PUSH6 0x1C8818D85B1B PUSH1 0xD2 SHL PUSH1 0x64 DUP3 ADD MSTORE PUSH1 0x84 ADD PUSH2 0x3C0 JUMP JUMPDEST PUSH1 0x1 PUSH1 0x1 PUSH1 0xA0 SHL SUB DUP6 AND EXTCODESIZE PUSH2 0x116F JUMPI PUSH1 0x40 MLOAD PUSH3 0x461BCD PUSH1 0xE5 SHL DUP2 MSTORE PUSH1 0x20 PUSH1 0x4 DUP3 ADD MSTORE PUSH1 0x1D PUSH1 0x24 DUP3 ADD MSTORE PUSH32 0x416464726573733A2063616C6C20746F206E6F6E2D636F6E7472616374000000 PUSH1 0x44 DUP3 ADD MSTORE PUSH1 0x64 ADD PUSH2 0x3C0 JUMP JUMPDEST PUSH1 0x0 DUP1 DUP7 PUSH1 0x1 PUSH1 0x1 PUSH1 0xA0 SHL SUB AND DUP6 DUP8 PUSH1 0x40 MLOAD PUSH2 0x118B SWAP2 SWAP1 PUSH2 0x141F JUMP JUMPDEST PUSH1 0x0 PUSH1 0x40 MLOAD DUP1 DUP4 SUB DUP2 DUP6 DUP8 GAS CALL SWAP3 POP POP POP RETURNDATASIZE DUP1 PUSH1 0x0 DUP2 EQ PUSH2 0x11C8 JUMPI PUSH1 0x40 MLOAD SWAP2 POP PUSH1 0x1F NOT PUSH1 0x3F RETURNDATASIZE ADD AND DUP3 ADD PUSH1 0x40 MSTORE RETURNDATASIZE DUP3 MSTORE RETURNDATASIZE PUSH1 0x0 PUSH1 0x20 DUP5 ADD RETURNDATACOPY PUSH2 0x11CD JUMP JUMPDEST PUSH1 0x60 SWAP2 POP JUMPDEST POP SWAP2 POP SWAP2 POP PUSH2 0x11DD DUP3 DUP3 DUP7 PUSH2 0x11E8 JUMP JUMPDEST SWAP8 SWAP7 POP POP POP POP POP POP POP JUMP JUMPDEST PUSH1 0x60 DUP4 ISZERO PUSH2 0x11F7 JUMPI POP DUP2 PUSH2 0xF89 JUMP JUMPDEST DUP3 MLOAD ISZERO PUSH2 0x1207 JUMPI DUP3 MLOAD DUP1 DUP5 PUSH1 0x20 ADD REVERT JUMPDEST DUP2 PUSH1 0x40 MLOAD PUSH3 0x461BCD PUSH1 0xE5 SHL DUP2 MSTORE PUSH1 0x4 ADD PUSH2 0x3C0 SWAP2 SWAP1 PUSH2 0x1349 JUMP JUMPDEST PUSH1 0x1 PUSH1 0x1 PUSH1 0xA0 SHL SUB DUP2 AND DUP2 EQ PUSH2 0x1236 JUMPI PUSH1 0x0 DUP1 REVERT JUMPDEST POP JUMP JUMPDEST PUSH1 0x0 DUP1 PUSH1 0x40 DUP4 DUP6 SUB SLT ISZERO PUSH2 0x124C JUMPI PUSH1 0x0 DUP1 REVERT JUMPDEST DUP3 CALLDATALOAD PUSH2 0x1257 DUP2 PUSH2 0x1221 JUMP JUMPDEST SWAP2 POP PUSH1 0x20 DUP4 ADD CALLDATALOAD PUSH2 0x1267 DUP2 PUSH2 0x1221 JUMP JUMPDEST DUP1 SWAP2 POP POP SWAP3 POP SWAP3 SWAP1 POP JUMP JUMPDEST PUSH1 0x0 PUSH1 0x20 DUP3 DUP5 SUB SLT ISZERO PUSH2 0x1284 JUMPI PUSH1 0x0 DUP1 REVERT JUMPDEST DUP2 CALLDATALOAD PUSH2 0xF89 DUP2 PUSH2 0x1221 JUMP JUMPDEST PUSH1 0x0 PUSH1 0x20 DUP3 DUP5 SUB SLT ISZERO PUSH2 0x12A1 JUMPI PUSH1 0x0 DUP1 REVERT JUMPDEST POP CALLDATALOAD SWAP2 SWAP1 POP JUMP JUMPDEST PUSH1 0x0 DUP1 PUSH1 0x0 DUP1 PUSH1 0x80 DUP6 DUP8 SUB SLT ISZERO PUSH2 0x12BE JUMPI PUSH1 0x0 DUP1 REVERT JUMPDEST DUP5 CALLDATALOAD PUSH2 0x12C9 DUP2 PUSH2 0x1221 JUMP JUMPDEST SWAP4 POP PUSH1 0x20 DUP6 ADD CALLDATALOAD PUSH2 0x12D9 DUP2 PUSH2 0x1221 JUMP JUMPDEST SWAP3 POP PUSH1 0x40 DUP6 ADD CALLDATALOAD SWAP2 POP PUSH1 0x60 DUP6 ADD CALLDATALOAD PUSH2 0x12F0 DUP2 PUSH2 0x1221 JUMP JUMPDEST SWAP4 SWAP7 SWAP3 SWAP6 POP SWAP1 SWAP4 POP POP JUMP JUMPDEST PUSH1 0x0 PUSH1 0x20 DUP3 DUP5 SUB SLT ISZERO PUSH2 0x130D JUMPI PUSH1 0x0 DUP1 REVERT JUMPDEST DUP2 MLOAD DUP1 ISZERO ISZERO DUP2 EQ PUSH2 0xF89 JUMPI PUSH1 0x0 DUP1 REVERT JUMPDEST PUSH1 0x0 JUMPDEST DUP4 DUP2 LT ISZERO PUSH2 0x1338 JUMPI DUP2 DUP2 ADD MLOAD DUP4 DUP3 ADD MSTORE PUSH1 0x20 ADD PUSH2 0x1320 JUMP JUMPDEST DUP4 DUP2 GT ISZERO PUSH2 0xFC8 JUMPI POP POP PUSH1 0x0 SWAP2 ADD MSTORE JUMP JUMPDEST PUSH1 0x20 DUP2 MSTORE PUSH1 0x0 DUP3 MLOAD DUP1 PUSH1 0x20 DUP5 ADD MSTORE PUSH2 0x1368 DUP2 PUSH1 0x40 DUP6 ADD PUSH1 0x20 DUP8 ADD PUSH2 0x131D JUMP JUMPDEST PUSH1 0x1F ADD PUSH1 0x1F NOT AND SWAP2 SWAP1 SWAP2 ADD PUSH1 0x40 ADD SWAP3 SWAP2 POP POP JUMP JUMPDEST PUSH1 0x0 PUSH1 0x20 DUP3 DUP5 SUB SLT ISZERO PUSH2 0x138E JUMPI PUSH1 0x0 DUP1 REVERT JUMPDEST DUP2 MLOAD PUSH2 0xF89 DUP2 PUSH2 0x1221 JUMP JUMPDEST PUSH4 0x4E487B71 PUSH1 0xE0 SHL PUSH1 0x0 MSTORE PUSH1 0x11 PUSH1 0x4 MSTORE PUSH1 0x24 PUSH1 0x0 REVERT JUMPDEST PUSH1 0x0 DUP3 NOT DUP3 GT ISZERO PUSH2 0x13C2 JUMPI PUSH2 0x13C2 PUSH2 0x1399 JUMP JUMPDEST POP ADD SWAP1 JUMP JUMPDEST PUSH1 0x0 DUP3 DUP3 LT ISZERO PUSH2 0x13D9 JUMPI PUSH2 0x13D9 PUSH2 0x1399 JUMP JUMPDEST POP SUB SWAP1 JUMP JUMPDEST PUSH1 0x0 DUP2 PUSH1 0x0 NOT DIV DUP4 GT DUP3 ISZERO ISZERO AND ISZERO PUSH2 0x13F8 JUMPI PUSH2 0x13F8 PUSH2 0x1399 JUMP JUMPDEST POP MUL SWAP1 JUMP JUMPDEST PUSH1 0x0 DUP3 PUSH2 0x141A JUMPI PUSH4 0x4E487B71 PUSH1 0xE0 SHL PUSH1 0x0 MSTORE PUSH1 0x12 PUSH1 0x4 MSTORE PUSH1 0x24 PUSH1 0x0 REVERT JUMPDEST POP DIV SWAP1 JUMP JUMPDEST PUSH1 0x0 DUP3 MLOAD PUSH2 0x1431 DUP2 DUP5 PUSH1 0x20 DUP8 ADD PUSH2 0x131D JUMP JUMPDEST SWAP2 SWAP1 SWAP2 ADD SWAP3 SWAP2 POP POP JUMP INVALID LOG2 PUSH5 0x6970667358 0x22 SLT KECCAK256 0xF6 LT STOP MLOAD 0x27 0xB9 CHAINID PUSH20 0x9547B63301F4FDCAB1E687843ABAB696C8456A62 SWAP1 PUSH19 0x58C264736F6C634300080A0033000000000000 ","sha1":"d9249c7dd35a98ead60ca6a0464be0857bf0399d","source":"// SPDX-License-Identifier: GPL-3.0-or-later\npragma solidity 0.8.10;\n\nimport \"@openzeppelin/contracts-upgradeable/token/ERC20/utils/SafeERC20Upgradeable.sol\";\n\nimport \"../../../interfaces/actions/IActionFeeHandler.sol\";\nimport \"../../../interfaces/IController.sol\";\nimport \"../../../interfaces/tokenomics/IKeeperGauge.sol\";\n\nimport \"../../../libraries/Errors.sol\";\nimport \"../../../libraries/ScaledMath.sol\";\nimport \"../../../libraries/AddressProviderHelpers.sol\";\n\nimport \"../../LpToken.sol\";\nimport \"../../access/Authorization.sol\";\nimport \"../../pool/LiquidityPool.sol\";\n\n/**\n * @notice Contract to manage the distribution of protocol fees\n */\ncontract TopUpActionFeeHandler is IActionFeeHandler, Authorization {\n    using ScaledMath for uint256;\n    using SafeERC20Upgradeable for LpToken;\n    using AddressProviderHelpers for IAddressProvider;\n\n    address public immutable actionContract;\n    IController public immutable controller;\n\n    mapping(address => uint256) public treasuryAmounts;\n    mapping(address => mapping(address => uint256)) public keeperRecords;\n    mapping(address => address) public keeperGauges;\n    uint256 public keeperFeeFraction;\n    uint256 public treasuryFeeFraction;\n\n    event KeeperFeesClaimed(address indexed keeper, address token, uint256 totalClaimed);\n    event KeeperFeeUpdated(uint256 keeperFee);\n    event KeeperGaugeUpdated(address lpToken, address keeperGauge);\n    event TreasuryFeeUpdated(uint256 treasuryFee_);\n\n    event FeesPayed(\n        address indexed payer,\n        address indexed keeper,\n        address token,\n        uint256 amount,\n        uint256 keeperAmount,\n        uint256 lpAmount\n    );\n\n    constructor(\n        IController _controller,\n        address _actionContract,\n        uint256 keeperFee,\n        uint256 treasuryFee\n    ) Authorization(_controller.addressProvider().getRoleManager()) {\n        require(keeperFee + treasuryFee <= ScaledMath.ONE, Error.INVALID_AMOUNT);\n        actionContract = _actionContract;\n        controller = _controller;\n        keeperFeeFraction = keeperFee;\n        treasuryFeeFraction = treasuryFee;\n    }\n\n    function setInitialKeeperGaugeForToken(address lpToken_, address keeperGauge_)\n        external\n        override\n        onlyGovernance\n    {\n        require(getKeeperGauge(lpToken_) == address(0), Error.ZERO_ADDRESS_NOT_ALLOWED);\n        require(keeperGauge_ != address(0), Error.ZERO_ADDRESS_NOT_ALLOWED);\n        keeperGauges[lpToken_] = keeperGauge_;\n    }\n\n    /**\n     * @notice Transfers the keeper and treasury fees to the fee handler and burns LP fees.\n     * @param payer Account who's position the fees are charged on.\n     * @param beneficiary Beneficiary of the fees paid (usually this will be the keeper).\n     * @param amount Total fee value (both keeper and LP fees).\n     * @param lpTokenAddress Address of the lpToken used to pay fees.\n     */\n    function payFees(\n        address payer,\n        address beneficiary,\n        uint256 amount,\n        address lpTokenAddress\n    ) external override {\n        require(msg.sender == actionContract, Error.UNAUTHORIZED_ACCESS);\n        // Handle keeper fees\n        uint256 keeperAmount = amount.scaledMul(keeperFeeFraction);\n        uint256 treasuryAmount = amount.scaledMul(treasuryFeeFraction);\n        LpToken lpToken = LpToken(lpTokenAddress);\n\n        lpToken.safeTransferFrom(msg.sender, address(this), amount);\n\n        address keeperGauge = getKeeperGauge(lpTokenAddress);\n        if (keeperGauge != address(0)) {\n            IKeeperGauge(keeperGauge).reportFees(beneficiary, keeperAmount, lpTokenAddress);\n        }\n\n        // Accrue keeper and treasury fees here for periodic claiming\n        keeperRecords[beneficiary][lpTokenAddress] += keeperAmount;\n        treasuryAmounts[lpTokenAddress] += treasuryAmount;\n\n        // Handle LP fees\n        uint256 lpAmount = amount - keeperAmount - treasuryAmount;\n        lpToken.burn(lpAmount);\n        emit FeesPayed(payer, beneficiary, lpTokenAddress, amount, keeperAmount, lpAmount);\n    }\n\n    /**\n     * @notice Claim all accrued fees for an LPToken.\n     * @param beneficiary Address to claim the fees for.\n     * @param token Address of the lpToken for claiming.\n     */\n    function claimKeeperFeesForPool(address beneficiary, address token) external override {\n        uint256 totalClaimable = keeperRecords[beneficiary][token];\n        require(totalClaimable > 0, Error.NOTHING_TO_CLAIM);\n        keeperRecords[beneficiary][token] = 0;\n\n        LpToken lpToken = LpToken(token);\n        lpToken.safeTransfer(beneficiary, totalClaimable);\n\n        emit KeeperFeesClaimed(beneficiary, token, totalClaimable);\n    }\n\n    /**\n     * @notice Claim all accrued treasury fees for an LPToken.\n     * @param token Address of the lpToken for claiming.\n     */\n    function claimTreasuryFees(address token) external override {\n        uint256 claimable = treasuryAmounts[token];\n        treasuryAmounts[token] = 0;\n        LpToken(token).safeTransfer(controller.addressProvider().getRewardHandler(), claimable);\n    }\n\n    /**\n     * @notice Update keeper fee.\n     * @param keeperFee_ New keeper fee value.\n     */\n    function updateKeeperFee(uint256 keeperFee_) external override onlyGovernance {\n        require(keeperFee_ <= ScaledMath.ONE, Error.INVALID_AMOUNT);\n        require(treasuryFeeFraction + keeperFee_ <= ScaledMath.ONE, Error.INVALID_AMOUNT);\n        keeperFeeFraction = keeperFee_;\n        emit KeeperFeeUpdated(keeperFee_);\n    }\n\n    /**\n     * @notice Update the Keeper Gauge for a given LP Token.\n     * @param lpToken_ The LP Token to update the Keeper Gauge for.\n     * @param keeperGauge_ New keeper fee value.\n     */\n    function updateKeeperGauge(address lpToken_, address keeperGauge_)\n        external\n        override\n        onlyGovernance\n    {\n        if (keeperGauge_ == address(0)) {\n            delete keeperGauges[lpToken_];\n            return;\n        }\n        keeperGauges[lpToken_] = keeperGauge_;\n        emit KeeperGaugeUpdated(lpToken_, keeperGauge_);\n    }\n\n    /**\n     * @notice Update treasury fee.\n     * @param treasuryFee_ New treasury fee value.\n     */\n    function updateTreasuryFee(uint256 treasuryFee_) external override onlyGovernance {\n        require(treasuryFee_ <= ScaledMath.ONE, Error.INVALID_AMOUNT);\n        require(treasuryFee_ + keeperFeeFraction <= ScaledMath.ONE, Error.INVALID_AMOUNT);\n        treasuryFeeFraction = treasuryFee_;\n        emit TreasuryFeeUpdated(treasuryFee_);\n    }\n\n    function getKeeperGauge(address lpToken) public view override returns (address) {\n        return keeperGauges[lpToken];\n    }\n}\n","sourcePath":"contracts/actions/topup/TopUpActionFeeHandler.sol","type":"contract","deployment":{"address":"0x39CBBFd7ebEe2A9C268559089d4a8222ee985A9C","chainid":"42","blockHeight":33231636}}