{"abi":[{"anonymous":false,"inputs":[{"indexed":true,"internalType":"address","name":"action","type":"address"}],"name":"ActionListed","type":"event"},{"anonymous":false,"inputs":[{"indexed":true,"internalType":"address","name":"action","type":"address"}],"name":"ActionShutdown","type":"event"},{"anonymous":false,"inputs":[{"indexed":false,"internalType":"bytes32","name":"key","type":"bytes32"},{"indexed":false,"internalType":"address","name":"newAddress","type":"address"}],"name":"AddressUpdated","type":"event"},{"anonymous":false,"inputs":[{"indexed":false,"internalType":"address","name":"feeHandler","type":"address"}],"name":"FeeHandlerAdded","type":"event"},{"anonymous":false,"inputs":[{"indexed":false,"internalType":"address","name":"feeHandler","type":"address"}],"name":"FeeHandlerRemoved","type":"event"},{"anonymous":false,"inputs":[{"indexed":true,"internalType":"bytes32","name":"key","type":"bytes32"}],"name":"KnownAddressKeyAdded","type":"event"},{"anonymous":false,"inputs":[{"indexed":true,"internalType":"address","name":"pool","type":"address"}],"name":"PoolListed","type":"event"},{"anonymous":false,"inputs":[{"indexed":true,"internalType":"address","name":"stakerVault","type":"address"}],"name":"StakerVaultDelisted","type":"event"},{"anonymous":false,"inputs":[{"indexed":true,"internalType":"address","name":"stakerVault","type":"address"}],"name":"StakerVaultListed","type":"event"},{"anonymous":false,"inputs":[{"indexed":true,"internalType":"address","name":"previousVault","type":"address"},{"indexed":true,"internalType":"address","name":"newVault","type":"address"}],"name":"VaultUpdated","type":"event"},{"inputs":[],"name":"actionsCount","outputs":[{"internalType":"uint256","name":"","type":"uint256"}],"stateMutability":"view","type":"function"},{"inputs":[{"internalType":"address","name":"action","type":"address"}],"name":"addAction","outputs":[{"internalType":"bool","name":"","type":"bool"}],"stateMutability":"nonpayable","type":"function"},{"inputs":[{"internalType":"address","name":"feeHandler","type":"address"}],"name":"addFeeHandler","outputs":[],"stateMutability":"nonpayable","type":"function"},{"inputs":[{"internalType":"address","name":"pool","type":"address"}],"name":"addPool","outputs":[],"stateMutability":"nonpayable","type":"function"},{"inputs":[{"internalType":"address","name":"stakerVault","type":"address"}],"name":"addStakerVault","outputs":[],"stateMutability":"nonpayable","type":"function"},{"inputs":[],"name":"allActions","outputs":[{"internalType":"address[]","name":"","type":"address[]"}],"stateMutability":"view","type":"function"},{"inputs":[],"name":"allActiveActions","outputs":[{"internalType":"address[]","name":"","type":"address[]"}],"stateMutability":"view","type":"function"},{"inputs":[],"name":"allPools","outputs":[{"internalType":"address[]","name":"","type":"address[]"}],"stateMutability":"view","type":"function"},{"inputs":[],"name":"allStakerVaults","outputs":[{"internalType":"address[]","name":"","type":"address[]"}],"stateMutability":"view","type":"function"},{"inputs":[],"name":"allVaults","outputs":[{"internalType":"address[]","name":"","type":"address[]"}],"stateMutability":"view","type":"function"},{"inputs":[{"internalType":"bytes32","name":"","type":"bytes32"}],"name":"currentAddresses","outputs":[{"internalType":"address","name":"","type":"address"}],"stateMutability":"view","type":"function"},{"inputs":[{"internalType":"bytes32","name":"key","type":"bytes32"}],"name":"freezeAddress","outputs":[],"stateMutability":"nonpayable","type":"function"},{"inputs":[{"internalType":"uint256","name":"index","type":"uint256"}],"name":"getActionAtIndex","outputs":[{"internalType":"address","name":"","type":"address"}],"stateMutability":"view","type":"function"},{"inputs":[{"internalType":"bytes32","name":"key","type":"bytes32"}],"name":"getAddress","outputs":[{"internalType":"address","name":"","type":"address"}],"stateMutability":"view","type":"function"},{"inputs":[{"internalType":"bytes32","name":"key","type":"bytes32"},{"internalType":"bool","name":"checkExists","type":"bool"}],"name":"getAddress","outputs":[{"internalType":"address","name":"","type":"address"}],"stateMutability":"view","type":"function"},{"inputs":[{"internalType":"bytes32","name":"key","type":"bytes32"}],"name":"getAddressMeta","outputs":[{"components":[{"internalType":"bool","name":"freezable","type":"bool"},{"internalType":"bool","name":"frozen","type":"bool"}],"internalType":"struct AddressProviderMeta.Meta","name":"","type":"tuple"}],"stateMutability":"view","type":"function"},{"inputs":[],"name":"getKnownAddressKeys","outputs":[{"internalType":"bytes32[]","name":"","type":"bytes32[]"}],"stateMutability":"view","type":"function"},{"inputs":[{"internalType":"uint256","name":"index","type":"uint256"}],"name":"getPoolAtIndex","outputs":[{"internalType":"address","name":"","type":"address"}],"stateMutability":"view","type":"function"},{"inputs":[{"internalType":"address","name":"token","type":"address"}],"name":"getPoolForToken","outputs":[{"internalType":"contract ILiquidityPool","name":"","type":"address"}],"stateMutability":"view","type":"function"},{"inputs":[{"internalType":"address","name":"token","type":"address"}],"name":"getStakerVault","outputs":[{"internalType":"address","name":"","type":"address"}],"stateMutability":"view","type":"function"},{"inputs":[{"internalType":"uint256","name":"index","type":"uint256"}],"name":"getVaultAtIndex","outputs":[{"internalType":"address","name":"","type":"address"}],"stateMutability":"view","type":"function"},{"inputs":[{"internalType":"address","name":"roleManager_","type":"address"},{"internalType":"address","name":"treasury_","type":"address"}],"name":"initialize","outputs":[],"stateMutability":"nonpayable","type":"function"},{"inputs":[{"internalType":"bytes32","name":"key","type":"bytes32"},{"internalType":"address","name":"initialAddress","type":"address"},{"internalType":"bool","name":"freezable","type":"bool"}],"name":"initializeAddress","outputs":[],"stateMutability":"nonpayable","type":"function"},{"inputs":[{"internalType":"bytes32","name":"key","type":"bytes32"},{"internalType":"address","name":"initialAddress","type":"address"}],"name":"initializeAddress","outputs":[],"stateMutability":"nonpayable","type":"function"},{"inputs":[{"internalType":"bytes32","name":"key","type":"bytes32"},{"internalType":"address","name":"initialAddress","type":"address"}],"name":"initializeAndFreezeAddress","outputs":[],"stateMutability":"nonpayable","type":"function"},{"inputs":[{"internalType":"address","name":"initialAddress","type":"address"}],"name":"initializeInflationManager","outputs":[],"stateMutability":"nonpayable","type":"function"},{"inputs":[{"internalType":"address","name":"action","type":"address"}],"name":"isAction","outputs":[{"internalType":"bool","name":"","type":"bool"}],"stateMutability":"view","type":"function"},{"inputs":[{"internalType":"address","name":"action","type":"address"}],"name":"isActiveAction","outputs":[{"internalType":"bool","name":"","type":"bool"}],"stateMutability":"view","type":"function"},{"inputs":[{"internalType":"address","name":"pool","type":"address"}],"name":"isPool","outputs":[{"internalType":"bool","name":"","type":"bool"}],"stateMutability":"view","type":"function"},{"inputs":[{"internalType":"address","name":"stakerVault","type":"address"},{"internalType":"address","name":"token","type":"address"}],"name":"isStakerVault","outputs":[{"internalType":"bool","name":"","type":"bool"}],"stateMutability":"view","type":"function"},{"inputs":[{"internalType":"address","name":"stakerVault","type":"address"}],"name":"isStakerVaultRegistered","outputs":[{"internalType":"bool","name":"","type":"bool"}],"stateMutability":"view","type":"function"},{"inputs":[{"internalType":"address","name":"vault","type":"address"}],"name":"isVault","outputs":[{"internalType":"bool","name":"","type":"bool"}],"stateMutability":"view","type":"function"},{"inputs":[{"internalType":"address","name":"feeHandler","type":"address"}],"name":"isWhiteListedFeeHandler","outputs":[{"internalType":"bool","name":"","type":"bool"}],"stateMutability":"view","type":"function"},{"inputs":[],"name":"poolsCount","outputs":[{"internalType":"uint256","name":"","type":"uint256"}],"stateMutability":"view","type":"function"},{"inputs":[{"internalType":"address","name":"feeHandler","type":"address"}],"name":"removeFeeHandler","outputs":[],"stateMutability":"nonpayable","type":"function"},{"inputs":[],"name":"roleManager","outputs":[{"internalType":"contract IRoleManager","name":"","type":"address"}],"stateMutability":"view","type":"function"},{"inputs":[{"internalType":"address","name":"token","type":"address"}],"name":"safeGetPoolForToken","outputs":[{"internalType":"address","name":"","type":"address"}],"stateMutability":"view","type":"function"},{"inputs":[{"internalType":"address","name":"action","type":"address"}],"name":"shutdownAction","outputs":[],"stateMutability":"nonpayable","type":"function"},{"inputs":[{"internalType":"address","name":"token","type":"address"}],"name":"tryGetStakerVault","outputs":[{"internalType":"bool","name":"","type":"bool"},{"internalType":"address","name":"","type":"address"}],"stateMutability":"view","type":"function"},{"inputs":[{"internalType":"bytes32","name":"key","type":"bytes32"},{"internalType":"address","name":"newAddress","type":"address"}],"name":"updateAddress","outputs":[],"stateMutability":"nonpayable","type":"function"},{"inputs":[{"internalType":"address","name":"previousVault","type":"address"},{"internalType":"address","name":"newVault","type":"address"}],"name":"updateVault","outputs":[],"stateMutability":"nonpayable","type":"function"},{"inputs":[],"name":"vaultsCount","outputs":[{"internalType":"uint256","name":"","type":"uint256"}],"stateMutability":"view","type":"function"}],"bytecode":"608060405234801561001057600080fd5b50612899806100206000396000f3fe608060405234801561001057600080fd5b506004361061025d5760003560e01c8063682da3f8116101465780639bccfe49116100c3578063d2f31c3911610087578063d2f31c3914610535578063d914cd4b14610548578063e6dc9e2b1461055b578063e76e75d41461056e578063f76c339914610581578063f7a818bc146105aa57600080fd5b80639bccfe49146104ec578063b5320e63146104f4578063b7016bf614610507578063c1d84e0b1461051a578063c5c63e651461052d57600080fd5b806379c27a731161010a57806379c27a73146104935780637f52d894146104a857806388977738146104bb5780638a326546146104d15780638c788de0146104e457600080fd5b8063682da3f8146104015780636b3d334d1461041457806372409ab41461044657806375a8012b14610459578063784503981461046157600080fd5b806339e7bcb9116101df5780634cbb4ba2116101a35780634cbb4ba21461039a57806359eadeb0146103ad5780635b16ebb7146103c05780635d138a34146103d3578063622e68cb146103db578063652b9b41146103ee57600080fd5b806339e7bcb91461033b57806340129a401461034e578063479688d614610361578063485cc9551461037457806348e7a68d1461038757600080fd5b8063115129b511610226578063115129b5146102ca5780631b451d28146102df57806321f8a721146102f257806323b9da8214610305578063255bfbcc1461032857600080fd5b8062435da51461026257806302ac788914610287578063063effeb1461029c5780630ce44e3a146102a45780631010b58c146102b7575b600080fd5b61026a6105bd565b6040516001600160a01b0390911681526020015b60405180910390f35b61028f6105cc565b60405161027e919061257c565b61028f6105d8565b61026a6102b23660046125c9565b6105e4565b61026a6102c53660046125c9565b6105f7565b6102dd6102d83660046125fa565b610604565b005b6102dd6102ed36600461262a565b6106f9565b61026a6103003660046125c9565b61083a565b610318610313366004612658565b6108b1565b604051901515815260200161027e565b61026a610336366004612658565b6109d6565b610318610349366004612658565b610a3a565b6102dd61035c3660046125fa565b610ab2565b6102dd61036f366004612658565b610bc9565b6102dd61038236600461262a565b610d2e565b610318610395366004612658565b610ef2565b6102dd6103a8366004612658565b610eff565b61026a6103bb366004612658565b61106d565b6103186103ce366004612658565b61107a565b61028f61111a565b6103186103e9366004612658565b611126565b6103186103fc366004612658565b611133565b6102dd61040f366004612658565b611140565b610427610422366004612658565b6112b5565b6040805192151583526001600160a01b0390911660208301520161027e565b6102dd610454366004612683565b6112cc565b61028f6113bb565b61047461046f3660046125c9565b6113c7565b604080518251151581526020928301511515928101929092520161027e565b61049b611474565b60405161027e91906126c5565b6103186104b6366004612658565b611480565b6104c361148d565b60405190815260200161027e565b6102dd6104df3660046125fa565b611499565b6104c36114a5565b6104c36114b1565b61026a6105023660046125c9565b6114bd565b61031861051536600461262a565b6114ca565b6102dd610528366004612658565b611503565b61028f611715565b6102dd610543366004612658565b611721565b6102dd610556366004612658565b61188e565b61026a6105693660046126fd565b611b59565b6102dd61057c3660046125c9565b611bd9565b61026a61058f3660046125c9565b6001602052600090815260409020546001600160a01b031681565b61026a6105b8366004612658565b611d59565b60006105c7611d67565b905090565b60606105c7600c611d80565b60606105c7600e611d8d565b60006105f1600e83611e2a565b92915050565b60006105f1601083611e36565b61060c611d67565b604051632474521560e21b815269676f7665726e616e636560b01b60048201523360248201526001600160a01b0391909116906391d1485490604401602060405180830381865afa158015610665573d6000803e3d6000fd5b505050506040513d601f19601f820116820180604052508101906106899190612722565b604051806040016040528060138152602001600080516020612844833981519152815250906106d45760405162461bcd60e51b81526004016106cb919061273f565b60405180910390fd5b5060408051808201909152600180825260208201526106f4838383611e43565b505050565b631c1bdbdb60e21b610709611d67565b604051632474521560e21b8152600481018390523360248201526001600160a01b0391909116906391d1485490604401602060405180830381865afa158015610756573d6000803e3d6000fd5b505050506040513d601f19601f8201168201806040525081019061077a9190612722565b604051806040016040528060138152602001600080516020612844833981519152815250906107bc5760405162461bcd60e51b81526004016106cb919061273f565b506001600160a01b038316156107d9576107d7600e84611ec1565b505b6001600160a01b038216156107f5576107f3600e83611ed6565b505b816001600160a01b0316836001600160a01b03167f483bdedaaf23706a9800ac1af0d852b34927780d79f9d6ba60a80c7cad75ea3960405160405180910390a3505050565b6000610847600783611eeb565b604051806040016040528060168152602001751859191c995cdcc8191bd95cc81b9bdd08195e1a5cdd60521b815250906108945760405162461bcd60e51b81526004016106cb919061273f565b50506000908152600160205260409020546001600160a01b031690565b60006108bb611d67565b604051632474521560e21b815269676f7665726e616e636560b01b60048201523360248201526001600160a01b0391909116906391d1485490604401602060405180830381865afa158015610914573d6000803e3d6000fd5b505050506040513d601f19601f820116820180604052508101906109389190612722565b6040518060400160405280601381526020016000805160206128448339815191528152509061097a5760405162461bcd60e51b81526004016106cb919061273f565b506000610988600a84611ed6565b905080156105f15761099b600c84611ed6565b506040516001600160a01b038416907f94bf98b0e859f6cd82a6c9e869a41f9a081cd22b48924e50ae880fff57eed8e590600090a292915050565b600080806109e5601085611ef7565b9150915081604051806040016040528060118152602001701859191c995cdcc81b9bdd08199bdd5b99607a1b81525090610a325760405162461bcd60e51b81526004016106cb919061273f565b509392505050565b600080826001600160a01b03166321df0da76040518163ffffffff1660e01b8152600401602060405180830381865afa158015610a7b573d6000803e3d6000fd5b505050506040513d601f19601f82011682018060405250810190610a9f9190612794565b9050610aab83826114ca565b9392505050565b610aba611d67565b604051632474521560e21b815269676f7665726e616e636560b01b60048201523360248201526001600160a01b0391909116906391d1485490604401602060405180830381865afa158015610b13573d6000803e3d6000fd5b505050506040513d601f19601f82011682018060405250810190610b379190612722565b60405180604001604052806013815260200160008051602061284483398151915281525090610b795760405162461bcd60e51b81526004016106cb919061273f565b50610b848282611f1e565b604080518381526001600160a01b03831660208201527f324ba9655e72cb8d5f0b9c49823db98efb875d4d05fe0824e62b305d16cd430a910160405180910390a15050565b610bd1611d67565b604051632474521560e21b815269676f7665726e616e636560b01b60048201523360248201526001600160a01b0391909116906391d1485490604401602060405180830381865afa158015610c2a573d6000803e3d6000fd5b505050506040513d601f19601f82011682018060405250810190610c4e9190612722565b60405180604001604052806013815260200160008051602061284483398151915281525090610c905760405162461bcd60e51b81526004016106cb919061273f565b50610caf60076f34b7333630ba34b7b726b0b730b3b2b960811b611eeb565b156040518060400160405280601081526020016f1a5b9d985b1a5908185c99dd5b595b9d60821b81525090610cf75760405162461bcd60e51b81526004016106cb919061273f565b506040805180820190915260018082526020820152610d2a6f34b7333630ba34b7b726b0b730b3b2b960811b8383611fd7565b5050565b600054610100900460ff16610d495760005460ff1615610d4d565b303b155b610db05760405162461bcd60e51b815260206004820152602e60248201527f496e697469616c697a61626c653a20636f6e747261637420697320616c72656160448201526d191e481a5b9a5d1a585b1a5e995960921b60648201526084016106cb565b600054610100900460ff16158015610dd2576000805461ffff19166101011790555b604080518082019091526001815260006020820152610e0867747265617375727960c01b610dff83611fe1565b6007919061201b565b5067747265617375727960c01b600052600160208181527f19968139eb94c6f8501c62ec1a6f9d252d27b234d004717f0852273a5d7c7c6880546001600160a01b0319166001600160a01b0387161790556040805180820190915282815290810191909152610e886a3937b632a6b0b730b3b2b960a91b610dff83611fe1565b50506a3937b632a6b0b730b3b2b960a91b6000525060016020527f5bbfb3f4d0fd1b306c6956ed60145d07a9435df9aab796c39b918d946f6a59bd80546001600160a01b0319166001600160a01b03851617905580156106f4576000805461ff0019169055505050565b60006105f1600c83612028565b6931b7b73a3937b63632b960b11b610f15611d67565b604051632474521560e21b8152600481018390523360248201526001600160a01b0391909116906391d1485490604401602060405180830381865afa158015610f62573d6000803e3d6000fd5b505050506040513d601f19601f82011682018060405250810190610f869190612722565b60405180604001604052806013815260200160008051602061284483398151915281525090610fc85760405162461bcd60e51b81526004016106cb919061273f565b50610fd4600c83612028565b6040518060400160405280601c81526020017f61646472657373206973206e6f742061637469766520616374696f6e00000000815250906110285760405162461bcd60e51b81526004016106cb919061273f565b50611034600c83611ec1565b506040516001600160a01b038316907f89d6438e1cf543426fea767ae47bc190aaebd6408efee08edf4ff0f43882fe8590600090a25050565b60006105f160028361204a565b600080826001600160a01b0316638214f5a46040518163ffffffff1660e01b8152600401602060405180830381865afa1580156110bb573d6000803e3d6000fd5b505050506040513d601f19601f820116820180604052508101906110df9190612794565b90506000806110ef601084611ef7565b915091508180156111115750806001600160a01b0316856001600160a01b0316145b95945050505050565b60606105c7600a611d80565b60006105f1600a83612028565b60006105f1600e83612028565b611148611d67565b604051632474521560e21b815269676f7665726e616e636560b01b60048201523360248201526001600160a01b0391909116906391d1485490604401602060405180830381865afa1580156111a1573d6000803e3d6000fd5b505050506040513d601f19601f820116820180604052508101906111c59190612722565b604051806040016040528060138152602001600080516020612844833981519152815250906112075760405162461bcd60e51b81526004016106cb919061273f565b50611213600582612028565b156040518060400160405280601b81526020017f6164647265737320616c72656164792077686974656c69737465640000000000815250906112685760405162461bcd60e51b81526004016106cb919061273f565b50611274600582611ed6565b506040516001600160a01b03821681527f19ce04b14aeab5f574f7e18d6454ba91781146f9a50e932ff336754210c324fa906020015b60405180910390a150565b6000806112c3600284611ef7565b91509150915091565b6112d4611d67565b604051632474521560e21b815269676f7665726e616e636560b01b60048201523360248201526001600160a01b0391909116906391d1485490604401602060405180830381865afa15801561132d573d6000803e3d6000fd5b505050506040513d601f19601f820116820180604052508101906113519190612722565b604051806040016040528060138152602001600080516020612844833981519152815250906113935760405162461bcd60e51b81526004016106cb919061273f565b50604080518082019091528115158152600060208201526113b5848483611e43565b50505050565b60606105c7600261205f565b60408051808201909152600080825260208201526000806113e96007856120fc565b9150915081604051806040016040528060168152602001751859191c995cdcc8191bd95cc81b9bdd08195e1a5cdd60521b8152509061143b5760405162461bcd60e51b81526004016106cb919061273f565b506040805180820182526000808252602091820152815180830190925260018084168114835283811c811614908201525b949350505050565b60606105c7600761210b565b60006105f1600583612028565b60006105c7600e61219b565b610d2a828260006112cc565b60006105c760106121a5565b60006105c7600a61219b565b60006105f1600a83611e2a565b600080806114d9600285611ef7565b915091508180156111115750846001600160a01b0316816001600160a01b03161495945050505050565b6931b7b73a3937b63632b960b11b611519611d67565b604051632474521560e21b8152600481018390523360248201526001600160a01b0391909116906391d1485490604401602060405180830381865afa158015611566573d6000803e3d6000fd5b505050506040513d601f19601f8201168201806040525081019061158a9190612722565b604051806040016040528060138152602001600080516020612844833981519152815250906115cc5760405162461bcd60e51b81526004016106cb919061273f565b506000826001600160a01b03166321df0da76040518163ffffffff1660e01b8152600401602060405180830381865afa15801561160d573d6000803e3d6000fd5b505050506040513d601f19601f820116820180604052508101906116319190612794565b6040805180820190915260188152771e995c9bc81859191c995cdcc81b9bdd08185b1b1bddd95960421b60208201529091506001600160a01b03821661168a5760405162461bcd60e51b81526004016106cb919061273f565b506116966002826121b0565b156040518060600160405280602b8152602001612819602b9139906116ce5760405162461bcd60e51b81526004016106cb919061273f565b506116db600282856121c5565b506040516001600160a01b038416907f90155492be7a3762b22fb2ab49dc404aeed6cbb42373e85859eba75f6d1ce7de90600090a2505050565b60606105c7601061205f565b611729611d67565b604051632474521560e21b815269676f7665726e616e636560b01b60048201523360248201526001600160a01b0391909116906391d1485490604401602060405180830381865afa158015611782573d6000803e3d6000fd5b505050506040513d601f19601f820116820180604052508101906117a69190612722565b604051806040016040528060138152602001600080516020612844833981519152815250906117e85760405162461bcd60e51b81526004016106cb919061273f565b506117f4600582612028565b6040518060400160405280601781526020017f61646472657373206e6f742077686974656c6973746564000000000000000000815250906118485760405162461bcd60e51b81526004016106cb919061273f565b50611854600582611ec1565b506040516001600160a01b03821681527f9c8551f1463323c3722ea00c0630626141033443d942b133bfd133598f9a9841906020016112aa565b6b706f6f6c5f666163746f727960a01b69676f7665726e616e636560b01b6118b4611d67565b604051636bab521160e11b815260048101849052602481018390523360448201526001600160a01b03919091169063d756a42290606401602060405180830381865afa158015611908573d6000803e3d6000fd5b505050506040513d601f19601f8201168201806040525081019061192c9190612722565b6040518060400160405280601381526020016000805160206128448339815191528152509061196e5760405162461bcd60e51b81526004016106cb919061273f565b506040805180820190915260188152771e995c9bc81859191c995cdcc81b9bdd08185b1b1bddd95960421b60208201526001600160a01b0384166119c55760405162461bcd60e51b81526004016106cb919061273f565b5060008390506000816001600160a01b0316638214f5a46040518163ffffffff1660e01b8152600401602060405180830381865afa158015611a0b573d6000803e3d6000fd5b505050506040513d601f19601f82011682018060405250810190611a2f9190612794565b6040805180820190915260188152771e995c9bc81859191c995cdcc81b9bdd08185b1b1bddd95960421b60208201529091506001600160a01b038216611a885760405162461bcd60e51b81526004016106cb919061273f565b50611a95601082876121c5565b15611b52576000826001600160a01b031663fbfa77cf6040518163ffffffff1660e01b8152600401602060405180830381865afa158015611ada573d6000803e3d6000fd5b505050506040513d601f19601f82011682018060405250810190611afe9190612794565b90506001600160a01b03811615611b1c57611b1a600e82611ed6565b505b6040516001600160a01b038716907fb6c7def82cf7e1ea091f2be573ceccf2fc51d7a7cf49b7e8575a477d72ca442390600090a2505b5050505050565b6000811580611b6e5750611b6e600784611eeb565b604051806040016040528060168152602001751859191c995cdcc8191bd95cc81b9bdd08195e1a5cdd60521b81525090611bbb5760405162461bcd60e51b81526004016106cb919061273f565b5050506000908152600160205260409020546001600160a01b031690565b611be1611d67565b604051632474521560e21b815269676f7665726e616e636560b01b60048201523360248201526001600160a01b0391909116906391d1485490604401602060405180830381865afa158015611c3a573d6000803e3d6000fd5b505050506040513d601f19601f82011682018060405250810190611c5e9190612722565b60405180604001604052806013815260200160008051602061284483398151915281525090611ca05760405162461bcd60e51b81526004016106cb919061273f565b506000611cac826113c7565b90508060200151156040518060400160405280601181526020017030b2323932b9b99034b990333937bd32b760791b81525090611cfc5760405162461bcd60e51b81526004016106cb919061273f565b50805160408051808201909152601081526f1a5b9d985b1a5908185c99dd5b595b9d60821b602082015290611d445760405162461bcd60e51b81526004016106cb919061273f565b50600160208201526106f482610dff83611fe1565b60008061146c601084611ef7565b60006105c76a3937b632a6b0b730b3b2b960a91b61083a565b60606000610aab836121de565b60606000611d9a8361219b565b905060008167ffffffffffffffff811115611db757611db76127b1565b604051908082528060200260200182016040528015611de0578160200160208202803683370190505b50905060005b82811015610a3257611df88582611e2a565b828281518110611e0a57611e0a6127c7565b6001600160a01b0390921660209283029190910190910152600101611de6565b6000610aab838361223a565b6000806111118484612264565b611e4e600784611eeb565b158015611e6e57506f34b7333630ba34b7b726b0b730b3b2b960811b8314155b6040518060400160405280601081526020016f1a5b9d985b1a5908185c99dd5b595b9d60821b81525090611eb55760405162461bcd60e51b81526004016106cb919061273f565b506106f4838383611fd7565b6000610aab836001600160a01b038416612273565b6000610aab836001600160a01b038416612366565b6000610aab83836123b5565b6000808080611f0f866001600160a01b0387166123c1565b909450925050505b9250929050565b6000611f29836113c7565b90508060200151156040518060400160405280601181526020017030b2323932b9b99034b990333937bd32b760791b81525090611f795760405162461bcd60e51b81526004016106cb919061273f565b506001600160a01b038216611fa8575050600090815260016020526040902080546001600160a01b0319169055565b5060009182526001602052604090912080546001600160a01b0319166001600160a01b03909216919091179055565b611fa883826123fb565b6000808260000151611ff4576000611ff7565b60015b60ff1681179050826020015161200e576000612011565b60025b60ff161792915050565b600061146c84848461247f565b6001600160a01b03811660009081526001830160205260408120541515610aab565b6000610aab836001600160a01b03841661249c565b6060600061206c836121a5565b905060008167ffffffffffffffff811115612089576120896127b1565b6040519080825280602002602001820160405280156120b2578160200160208202803683370190505b50905060005b82811015610a32576120ca8582611e36565b8282815181106120dc576120dc6127c7565b6001600160a01b03909216602092830291909101909101526001016120b8565b6000808080611f0f86866123c1565b60606000612118836121a5565b905060008167ffffffffffffffff811115612135576121356127b1565b60405190808252806020026020018201604052801561215e578160200160208202803683370190505b50905060005b82811015610a3257612176858261250c565b828281518110612188576121886127c7565b6020908102919091010152600101612164565b60006105f1825490565b60006105f182612522565b6000610aab836001600160a01b0384166123b5565b600061146c846001600160a01b0380861690851661247f565b60608160000180548060200260200160405190810160405280929190818152602001828054801561222e57602002820191906000526020600020905b81548152602001906001019080831161221a575b50505050509050919050565b6000826000018281548110612251576122516127c7565b9060005260206000200154905092915050565b6000808080611f0f868661252d565b6000818152600183016020526040812054801561235c5760006122976001836127dd565b85549091506000906122ab906001906127dd565b90508181146123105760008660000182815481106122cb576122cb6127c7565b90600052602060002001549050808760000184815481106122ee576122ee6127c7565b6000918252602080832090910192909255918252600188019052604090208390555b855486908061232157612321612802565b6001900381819060005260206000200160009055905585600101600086815260200190815260200160002060009055600193505050506105f1565b60009150506105f1565b60008181526001830160205260408120546123ad575081546001818101845560008481526020808220909301849055845484825282860190935260409020919091556105f1565b5060006105f1565b6000610aab8383612558565b60008181526002830160205260408120548190806123f0576123e385856123b5565b925060009150611f179050565b600192509050611f17565b61240882610dff83611fe1565b6040518060400160405280601081526020016f1a5b9d985b1a5908185c99dd5b595b9d60821b8152509061244f5760405162461bcd60e51b81526004016106cb919061273f565b5060405182907f0de8c1e2edd3ebb03a4489213a39c3b46b6b90669a8ae9abe1d175dcd915d5db90600090a25050565b6000828152600284016020526040812082905561146c8484612570565b6000818152600283016020526040812054801515806124c057506124c084846123b5565b610aab5760405162461bcd60e51b815260206004820152601e60248201527f456e756d657261626c654d61703a206e6f6e6578697374656e74206b6579000060448201526064016106cb565b6000806125198484612264565b50949350505050565b60006105f18261219b565b6000808061253b8585611e2a565b600081815260029690960160205260409095205494959350505050565b60008181526001830160205260408120541515610aab565b6000610aab8383612366565b6020808252825182820181905260009190848201906040850190845b818110156125bd5783516001600160a01b031683529284019291840191600101612598565b50909695505050505050565b6000602082840312156125db57600080fd5b5035919050565b6001600160a01b03811681146125f757600080fd5b50565b6000806040838503121561260d57600080fd5b82359150602083013561261f816125e2565b809150509250929050565b6000806040838503121561263d57600080fd5b8235612648816125e2565b9150602083013561261f816125e2565b60006020828403121561266a57600080fd5b8135610aab816125e2565b80151581146125f757600080fd5b60008060006060848603121561269857600080fd5b8335925060208401356126aa816125e2565b915060408401356126ba81612675565b809150509250925092565b6020808252825182820181905260009190848201906040850190845b818110156125bd578351835292840192918401916001016126e1565b6000806040838503121561271057600080fd5b82359150602083013561261f81612675565b60006020828403121561273457600080fd5b8151610aab81612675565b600060208083528351808285015260005b8181101561276c57858101830151858201604001528201612750565b8181111561277e576000604083870101525b50601f01601f1916929092016040019392505050565b6000602082840312156127a657600080fd5b8151610aab816125e2565b634e487b7160e01b600052604160045260246000fd5b634e487b7160e01b600052603260045260246000fd5b6000828210156127fd57634e487b7160e01b600052601160045260246000fd5b500390565b634e487b7160e01b600052603160045260246000fdfe61207374616b6572207661756c7420616c72656164792065786973747320666f722074686520746f6b656e756e617574686f72697a65642061636365737300000000000000000000000000a2646970667358221220479e142e6a49508e69593e8c26efb482bfc3ac66ea9e6ead2ce579b96aa81eac64736f6c634300080a0033","bytecodeSha1":"4a55003a8a44748d39eea1a8c4341d077dd1d64e","compiler":{"evm_version":"london","optimizer":{"enabled":true,"runs":200},"version":"0.8.10+commit.fc410830"},"contractName":"AddressProvider","language":"Solidity","natspec":{"kind":"dev","methods":{"actionsCount()":{"returns":{"_0":"the total number of actions"}},"addAction(address)":{"notice":"Adds action.","params":{"action":"Address of action to add."}},"addFeeHandler(address)":{"notice":"Fee Handler function "},"addPool(address)":{"notice":"Adds pool.","params":{"pool":"Address of pool to add."}},"addStakerVault(address)":{"details":"This fails if the token of the staker vault is the token of an existing staker vault.","notice":"Add a new staker vault.","params":{"stakerVault":"Vault to add."}},"allActions()":{"notice":"Get list of all action addresses.","returns":{"_0":"Array with action addresses."}},"allActiveActions()":{"notice":"Get list of all active action addresses.","returns":{"_0":"Array with active action addresses."}},"allPools()":{"notice":"Get list of all pool addresses.","returns":{"_0":"Array with pool addresses."}},"allStakerVaults()":{"notice":"Returns all the staker vaults."},"allVaults()":{"notice":"returns all the registered vaults"},"freezeAddress(bytes32)":{"notice":"Freezes a configuration key, making it immutable","params":{"key":"Key to freeze"}},"getActionAtIndex(uint256)":{"notice":"returns the action at the given index"},"getAddress(bytes32)":{"notice":"Returns the address for the given key"},"getAddress(bytes32,bool)":{"details":"if `checkExists` is true, it will fail if the key does not exist","notice":"Returns the address for the given key"},"getAddressMeta(bytes32)":{"notice":"returns the address metadata for the given key"},"getKnownAddressKeys()":{"notice":"Key functions "},"getPoolAtIndex(uint256)":{"notice":"returns the pool at the given index"},"getPoolForToken(address)":{"details":"Reverts if the pool does not exist","notice":"Get the liquidity pool for a given token","params":{"token":"Token for which to get the pool."},"returns":{"_0":"Pool address."}},"getStakerVault(address)":{"details":"There can only exist one staker vault per unique token.","notice":"Get the staker vault for a given token","params":{"token":"Token for which to get the vault."},"returns":{"_0":"Vault address."}},"getVaultAtIndex(uint256)":{"notice":"returns the vault at the given index"},"initialize(address,address)":{"notice":"Address functions "},"initializeAddress(bytes32,address,bool)":{"notice":"Initializes an address","params":{"initialAddress":"Address for `key`","key":"Key to initialize"}},"initializeAndFreezeAddress(bytes32,address)":{"notice":"Initializes and freezes address","params":{"initialAddress":"Address for `key`","key":"Key to initialize"}},"initializeInflationManager(address)":{"notice":"Initializes the address of the inflation manager This can only be called by the controller"},"isAction(address)":{"notice":"Check whether an address is an action.","params":{"action":"Address to check."},"returns":{"_0":"True if address is an action."}},"isActiveAction(address)":{"notice":"Check whether an address is an active action.","params":{"action":"Address to check."},"returns":{"_0":"True if address is an active action."}},"isPool(address)":{"notice":"Check whether an address is a pool.","params":{"pool":"Address to check whether it is a pool."},"returns":{"_0":"True if address is a pool."}},"isStakerVaultRegistered(address)":{"notice":"Check if a vault is registered (exists).","params":{"stakerVault":"Address of staker vault to check."},"returns":{"_0":"`true` if registered, `false` if not."}},"poolsCount()":{"notice":"returns the number of pools"},"safeGetPoolForToken(address)":{"details":"Does not revert if the pool does not exist","notice":"Get the liquidity pool for a given token","params":{"token":"Token for which to get the pool."},"returns":{"_0":"Pool address."}},"shutdownAction(address)":{"notice":"Shutdowns an action.","params":{"action":"Address of action to shutdown."}},"tryGetStakerVault(address)":{"notice":"Tries to get the staker vault for a given token but does not throw if it does not exist","returns":{"_0":"A boolean set to true if the vault exists and the vault address."}},"updateAddress(bytes32,address)":{"notice":"Update an address","params":{"key":"Key to update","newAddress":"New address for `key`"}},"updateVault(address,address)":{"notice":"Vault functions  "},"vaultsCount()":{"notice":"returns the number of vaults"}},"version":1},"opcodes":"PUSH1 0x80 PUSH1 0x40 MSTORE CALLVALUE DUP1 ISZERO PUSH2 0x10 JUMPI PUSH1 0x0 DUP1 REVERT JUMPDEST POP PUSH1 0x4 CALLDATASIZE LT PUSH2 0x25D JUMPI PUSH1 0x0 CALLDATALOAD PUSH1 0xE0 SHR DUP1 PUSH4 0x682DA3F8 GT PUSH2 0x146 JUMPI DUP1 PUSH4 0x9BCCFE49 GT PUSH2 0xC3 JUMPI DUP1 PUSH4 0xD2F31C39 GT PUSH2 0x87 JUMPI DUP1 PUSH4 0xD2F31C39 EQ PUSH2 0x535 JUMPI DUP1 PUSH4 0xD914CD4B EQ PUSH2 0x548 JUMPI DUP1 PUSH4 0xE6DC9E2B EQ PUSH2 0x55B JUMPI DUP1 PUSH4 0xE76E75D4 EQ PUSH2 0x56E JUMPI DUP1 PUSH4 0xF76C3399 EQ PUSH2 0x581 JUMPI DUP1 PUSH4 0xF7A818BC EQ PUSH2 0x5AA JUMPI PUSH1 0x0 DUP1 REVERT JUMPDEST DUP1 PUSH4 0x9BCCFE49 EQ PUSH2 0x4EC JUMPI DUP1 PUSH4 0xB5320E63 EQ PUSH2 0x4F4 JUMPI DUP1 PUSH4 0xB7016BF6 EQ PUSH2 0x507 JUMPI DUP1 PUSH4 0xC1D84E0B EQ PUSH2 0x51A JUMPI DUP1 PUSH4 0xC5C63E65 EQ PUSH2 0x52D JUMPI PUSH1 0x0 DUP1 REVERT JUMPDEST DUP1 PUSH4 0x79C27A73 GT PUSH2 0x10A JUMPI DUP1 PUSH4 0x79C27A73 EQ PUSH2 0x493 JUMPI DUP1 PUSH4 0x7F52D894 EQ PUSH2 0x4A8 JUMPI DUP1 PUSH4 0x88977738 EQ PUSH2 0x4BB JUMPI DUP1 PUSH4 0x8A326546 EQ PUSH2 0x4D1 JUMPI DUP1 PUSH4 0x8C788DE0 EQ PUSH2 0x4E4 JUMPI PUSH1 0x0 DUP1 REVERT JUMPDEST DUP1 PUSH4 0x682DA3F8 EQ PUSH2 0x401 JUMPI DUP1 PUSH4 0x6B3D334D EQ PUSH2 0x414 JUMPI DUP1 PUSH4 0x72409AB4 EQ PUSH2 0x446 JUMPI DUP1 PUSH4 0x75A8012B EQ PUSH2 0x459 JUMPI DUP1 PUSH4 0x78450398 EQ PUSH2 0x461 JUMPI PUSH1 0x0 DUP1 REVERT JUMPDEST DUP1 PUSH4 0x39E7BCB9 GT PUSH2 0x1DF JUMPI DUP1 PUSH4 0x4CBB4BA2 GT PUSH2 0x1A3 JUMPI DUP1 PUSH4 0x4CBB4BA2 EQ PUSH2 0x39A JUMPI DUP1 PUSH4 0x59EADEB0 EQ PUSH2 0x3AD JUMPI DUP1 PUSH4 0x5B16EBB7 EQ PUSH2 0x3C0 JUMPI DUP1 PUSH4 0x5D138A34 EQ PUSH2 0x3D3 JUMPI DUP1 PUSH4 0x622E68CB EQ PUSH2 0x3DB JUMPI DUP1 PUSH4 0x652B9B41 EQ PUSH2 0x3EE JUMPI PUSH1 0x0 DUP1 REVERT JUMPDEST DUP1 PUSH4 0x39E7BCB9 EQ PUSH2 0x33B JUMPI DUP1 PUSH4 0x40129A40 EQ PUSH2 0x34E JUMPI DUP1 PUSH4 0x479688D6 EQ PUSH2 0x361 JUMPI DUP1 PUSH4 0x485CC955 EQ PUSH2 0x374 JUMPI DUP1 PUSH4 0x48E7A68D EQ PUSH2 0x387 JUMPI PUSH1 0x0 DUP1 REVERT JUMPDEST DUP1 PUSH4 0x115129B5 GT PUSH2 0x226 JUMPI DUP1 PUSH4 0x115129B5 EQ PUSH2 0x2CA JUMPI DUP1 PUSH4 0x1B451D28 EQ PUSH2 0x2DF JUMPI DUP1 PUSH4 0x21F8A721 EQ PUSH2 0x2F2 JUMPI DUP1 PUSH4 0x23B9DA82 EQ PUSH2 0x305 JUMPI DUP1 PUSH4 0x255BFBCC EQ PUSH2 0x328 JUMPI PUSH1 0x0 DUP1 REVERT JUMPDEST DUP1 PUSH3 0x435DA5 EQ PUSH2 0x262 JUMPI DUP1 PUSH4 0x2AC7889 EQ PUSH2 0x287 JUMPI DUP1 PUSH4 0x63EFFEB EQ PUSH2 0x29C JUMPI DUP1 PUSH4 0xCE44E3A EQ PUSH2 0x2A4 JUMPI DUP1 PUSH4 0x1010B58C EQ PUSH2 0x2B7 JUMPI JUMPDEST PUSH1 0x0 DUP1 REVERT JUMPDEST PUSH2 0x26A PUSH2 0x5BD JUMP JUMPDEST PUSH1 0x40 MLOAD PUSH1 0x1 PUSH1 0x1 PUSH1 0xA0 SHL SUB SWAP1 SWAP2 AND DUP2 MSTORE PUSH1 0x20 ADD JUMPDEST PUSH1 0x40 MLOAD DUP1 SWAP2 SUB SWAP1 RETURN JUMPDEST PUSH2 0x28F PUSH2 0x5CC JUMP JUMPDEST PUSH1 0x40 MLOAD PUSH2 0x27E SWAP2 SWAP1 PUSH2 0x257C JUMP JUMPDEST PUSH2 0x28F PUSH2 0x5D8 JUMP JUMPDEST PUSH2 0x26A PUSH2 0x2B2 CALLDATASIZE PUSH1 0x4 PUSH2 0x25C9 JUMP JUMPDEST PUSH2 0x5E4 JUMP JUMPDEST PUSH2 0x26A PUSH2 0x2C5 CALLDATASIZE PUSH1 0x4 PUSH2 0x25C9 JUMP JUMPDEST PUSH2 0x5F7 JUMP JUMPDEST PUSH2 0x2DD PUSH2 0x2D8 CALLDATASIZE PUSH1 0x4 PUSH2 0x25FA JUMP JUMPDEST PUSH2 0x604 JUMP JUMPDEST STOP JUMPDEST PUSH2 0x2DD PUSH2 0x2ED CALLDATASIZE PUSH1 0x4 PUSH2 0x262A JUMP JUMPDEST PUSH2 0x6F9 JUMP JUMPDEST PUSH2 0x26A PUSH2 0x300 CALLDATASIZE PUSH1 0x4 PUSH2 0x25C9 JUMP JUMPDEST PUSH2 0x83A JUMP JUMPDEST PUSH2 0x318 PUSH2 0x313 CALLDATASIZE PUSH1 0x4 PUSH2 0x2658 JUMP JUMPDEST PUSH2 0x8B1 JUMP JUMPDEST PUSH1 0x40 MLOAD SWAP1 ISZERO ISZERO DUP2 MSTORE PUSH1 0x20 ADD PUSH2 0x27E JUMP JUMPDEST PUSH2 0x26A PUSH2 0x336 CALLDATASIZE PUSH1 0x4 PUSH2 0x2658 JUMP JUMPDEST PUSH2 0x9D6 JUMP JUMPDEST PUSH2 0x318 PUSH2 0x349 CALLDATASIZE PUSH1 0x4 PUSH2 0x2658 JUMP JUMPDEST PUSH2 0xA3A JUMP JUMPDEST PUSH2 0x2DD PUSH2 0x35C CALLDATASIZE PUSH1 0x4 PUSH2 0x25FA JUMP JUMPDEST PUSH2 0xAB2 JUMP JUMPDEST PUSH2 0x2DD PUSH2 0x36F CALLDATASIZE PUSH1 0x4 PUSH2 0x2658 JUMP JUMPDEST PUSH2 0xBC9 JUMP JUMPDEST PUSH2 0x2DD PUSH2 0x382 CALLDATASIZE PUSH1 0x4 PUSH2 0x262A JUMP JUMPDEST PUSH2 0xD2E JUMP JUMPDEST PUSH2 0x318 PUSH2 0x395 CALLDATASIZE PUSH1 0x4 PUSH2 0x2658 JUMP JUMPDEST PUSH2 0xEF2 JUMP JUMPDEST PUSH2 0x2DD PUSH2 0x3A8 CALLDATASIZE PUSH1 0x4 PUSH2 0x2658 JUMP JUMPDEST PUSH2 0xEFF JUMP JUMPDEST PUSH2 0x26A PUSH2 0x3BB CALLDATASIZE PUSH1 0x4 PUSH2 0x2658 JUMP JUMPDEST PUSH2 0x106D JUMP JUMPDEST PUSH2 0x318 PUSH2 0x3CE CALLDATASIZE PUSH1 0x4 PUSH2 0x2658 JUMP JUMPDEST PUSH2 0x107A JUMP JUMPDEST PUSH2 0x28F PUSH2 0x111A JUMP JUMPDEST PUSH2 0x318 PUSH2 0x3E9 CALLDATASIZE PUSH1 0x4 PUSH2 0x2658 JUMP JUMPDEST PUSH2 0x1126 JUMP JUMPDEST PUSH2 0x318 PUSH2 0x3FC CALLDATASIZE PUSH1 0x4 PUSH2 0x2658 JUMP JUMPDEST PUSH2 0x1133 JUMP JUMPDEST PUSH2 0x2DD PUSH2 0x40F CALLDATASIZE PUSH1 0x4 PUSH2 0x2658 JUMP JUMPDEST PUSH2 0x1140 JUMP JUMPDEST PUSH2 0x427 PUSH2 0x422 CALLDATASIZE PUSH1 0x4 PUSH2 0x2658 JUMP JUMPDEST PUSH2 0x12B5 JUMP JUMPDEST PUSH1 0x40 DUP1 MLOAD SWAP3 ISZERO ISZERO DUP4 MSTORE PUSH1 0x1 PUSH1 0x1 PUSH1 0xA0 SHL SUB SWAP1 SWAP2 AND PUSH1 0x20 DUP4 ADD MSTORE ADD PUSH2 0x27E JUMP JUMPDEST PUSH2 0x2DD PUSH2 0x454 CALLDATASIZE PUSH1 0x4 PUSH2 0x2683 JUMP JUMPDEST PUSH2 0x12CC JUMP JUMPDEST PUSH2 0x28F PUSH2 0x13BB JUMP JUMPDEST PUSH2 0x474 PUSH2 0x46F CALLDATASIZE PUSH1 0x4 PUSH2 0x25C9 JUMP JUMPDEST PUSH2 0x13C7 JUMP JUMPDEST PUSH1 0x40 DUP1 MLOAD DUP3 MLOAD ISZERO ISZERO DUP2 MSTORE PUSH1 0x20 SWAP3 DUP4 ADD MLOAD ISZERO ISZERO SWAP3 DUP2 ADD SWAP3 SWAP1 SWAP3 MSTORE ADD PUSH2 0x27E JUMP JUMPDEST PUSH2 0x49B PUSH2 0x1474 JUMP JUMPDEST PUSH1 0x40 MLOAD PUSH2 0x27E SWAP2 SWAP1 PUSH2 0x26C5 JUMP JUMPDEST PUSH2 0x318 PUSH2 0x4B6 CALLDATASIZE PUSH1 0x4 PUSH2 0x2658 JUMP JUMPDEST PUSH2 0x1480 JUMP JUMPDEST PUSH2 0x4C3 PUSH2 0x148D JUMP JUMPDEST PUSH1 0x40 MLOAD SWAP1 DUP2 MSTORE PUSH1 0x20 ADD PUSH2 0x27E JUMP JUMPDEST PUSH2 0x2DD PUSH2 0x4DF CALLDATASIZE PUSH1 0x4 PUSH2 0x25FA JUMP JUMPDEST PUSH2 0x1499 JUMP JUMPDEST PUSH2 0x4C3 PUSH2 0x14A5 JUMP JUMPDEST PUSH2 0x4C3 PUSH2 0x14B1 JUMP JUMPDEST PUSH2 0x26A PUSH2 0x502 CALLDATASIZE PUSH1 0x4 PUSH2 0x25C9 JUMP JUMPDEST PUSH2 0x14BD JUMP JUMPDEST PUSH2 0x318 PUSH2 0x515 CALLDATASIZE PUSH1 0x4 PUSH2 0x262A JUMP JUMPDEST PUSH2 0x14CA JUMP JUMPDEST PUSH2 0x2DD PUSH2 0x528 CALLDATASIZE PUSH1 0x4 PUSH2 0x2658 JUMP JUMPDEST PUSH2 0x1503 JUMP JUMPDEST PUSH2 0x28F PUSH2 0x1715 JUMP JUMPDEST PUSH2 0x2DD PUSH2 0x543 CALLDATASIZE PUSH1 0x4 PUSH2 0x2658 JUMP JUMPDEST PUSH2 0x1721 JUMP JUMPDEST PUSH2 0x2DD PUSH2 0x556 CALLDATASIZE PUSH1 0x4 PUSH2 0x2658 JUMP JUMPDEST PUSH2 0x188E JUMP JUMPDEST PUSH2 0x26A PUSH2 0x569 CALLDATASIZE PUSH1 0x4 PUSH2 0x26FD JUMP JUMPDEST PUSH2 0x1B59 JUMP JUMPDEST PUSH2 0x2DD PUSH2 0x57C CALLDATASIZE PUSH1 0x4 PUSH2 0x25C9 JUMP JUMPDEST PUSH2 0x1BD9 JUMP JUMPDEST PUSH2 0x26A PUSH2 0x58F CALLDATASIZE PUSH1 0x4 PUSH2 0x25C9 JUMP JUMPDEST PUSH1 0x1 PUSH1 0x20 MSTORE PUSH1 0x0 SWAP1 DUP2 MSTORE PUSH1 0x40 SWAP1 KECCAK256 SLOAD PUSH1 0x1 PUSH1 0x1 PUSH1 0xA0 SHL SUB AND DUP2 JUMP JUMPDEST PUSH2 0x26A PUSH2 0x5B8 CALLDATASIZE PUSH1 0x4 PUSH2 0x2658 JUMP JUMPDEST PUSH2 0x1D59 JUMP JUMPDEST PUSH1 0x0 PUSH2 0x5C7 PUSH2 0x1D67 JUMP JUMPDEST SWAP1 POP SWAP1 JUMP JUMPDEST PUSH1 0x60 PUSH2 0x5C7 PUSH1 0xC PUSH2 0x1D80 JUMP JUMPDEST PUSH1 0x60 PUSH2 0x5C7 PUSH1 0xE PUSH2 0x1D8D JUMP JUMPDEST PUSH1 0x0 PUSH2 0x5F1 PUSH1 0xE DUP4 PUSH2 0x1E2A JUMP JUMPDEST SWAP3 SWAP2 POP POP JUMP JUMPDEST PUSH1 0x0 PUSH2 0x5F1 PUSH1 0x10 DUP4 PUSH2 0x1E36 JUMP JUMPDEST PUSH2 0x60C PUSH2 0x1D67 JUMP JUMPDEST PUSH1 0x40 MLOAD PUSH4 0x24745215 PUSH1 0xE2 SHL DUP2 MSTORE PUSH10 0x676F7665726E616E6365 PUSH1 0xB0 SHL PUSH1 0x4 DUP3 ADD MSTORE CALLER PUSH1 0x24 DUP3 ADD MSTORE PUSH1 0x1 PUSH1 0x1 PUSH1 0xA0 SHL SUB SWAP2 SWAP1 SWAP2 AND SWAP1 PUSH4 0x91D14854 SWAP1 PUSH1 0x44 ADD PUSH1 0x20 PUSH1 0x40 MLOAD DUP1 DUP4 SUB DUP2 DUP7 GAS STATICCALL ISZERO DUP1 ISZERO PUSH2 0x665 JUMPI RETURNDATASIZE PUSH1 0x0 DUP1 RETURNDATACOPY RETURNDATASIZE PUSH1 0x0 REVERT JUMPDEST POP POP POP POP PUSH1 0x40 MLOAD RETURNDATASIZE PUSH1 0x1F NOT PUSH1 0x1F DUP3 ADD AND DUP3 ADD DUP1 PUSH1 0x40 MSTORE POP DUP2 ADD SWAP1 PUSH2 0x689 SWAP2 SWAP1 PUSH2 0x2722 JUMP JUMPDEST PUSH1 0x40 MLOAD DUP1 PUSH1 0x40 ADD PUSH1 0x40 MSTORE DUP1 PUSH1 0x13 DUP2 MSTORE PUSH1 0x20 ADD PUSH1 0x0 DUP1 MLOAD PUSH1 0x20 PUSH2 0x2844 DUP4 CODECOPY DUP2 MLOAD SWAP2 MSTORE DUP2 MSTORE POP SWAP1 PUSH2 0x6D4 JUMPI PUSH1 0x40 MLOAD PUSH3 0x461BCD PUSH1 0xE5 SHL DUP2 MSTORE PUSH1 0x4 ADD PUSH2 0x6CB SWAP2 SWAP1 PUSH2 0x273F JUMP JUMPDEST PUSH1 0x40 MLOAD DUP1 SWAP2 SUB SWAP1 REVERT JUMPDEST POP PUSH1 0x40 DUP1 MLOAD DUP1 DUP3 ADD SWAP1 SWAP2 MSTORE PUSH1 0x1 DUP1 DUP3 MSTORE PUSH1 0x20 DUP3 ADD MSTORE PUSH2 0x6F4 DUP4 DUP4 DUP4 PUSH2 0x1E43 JUMP JUMPDEST POP POP POP JUMP JUMPDEST PUSH4 0x1C1BDBDB PUSH1 0xE2 SHL PUSH2 0x709 PUSH2 0x1D67 JUMP JUMPDEST PUSH1 0x40 MLOAD PUSH4 0x24745215 PUSH1 0xE2 SHL DUP2 MSTORE PUSH1 0x4 DUP2 ADD DUP4 SWAP1 MSTORE CALLER PUSH1 0x24 DUP3 ADD MSTORE PUSH1 0x1 PUSH1 0x1 PUSH1 0xA0 SHL SUB SWAP2 SWAP1 SWAP2 AND SWAP1 PUSH4 0x91D14854 SWAP1 PUSH1 0x44 ADD PUSH1 0x20 PUSH1 0x40 MLOAD DUP1 DUP4 SUB DUP2 DUP7 GAS STATICCALL ISZERO DUP1 ISZERO PUSH2 0x756 JUMPI RETURNDATASIZE PUSH1 0x0 DUP1 RETURNDATACOPY RETURNDATASIZE PUSH1 0x0 REVERT JUMPDEST POP POP POP POP PUSH1 0x40 MLOAD RETURNDATASIZE PUSH1 0x1F NOT PUSH1 0x1F DUP3 ADD AND DUP3 ADD DUP1 PUSH1 0x40 MSTORE POP DUP2 ADD SWAP1 PUSH2 0x77A SWAP2 SWAP1 PUSH2 0x2722 JUMP JUMPDEST PUSH1 0x40 MLOAD DUP1 PUSH1 0x40 ADD PUSH1 0x40 MSTORE DUP1 PUSH1 0x13 DUP2 MSTORE PUSH1 0x20 ADD PUSH1 0x0 DUP1 MLOAD PUSH1 0x20 PUSH2 0x2844 DUP4 CODECOPY DUP2 MLOAD SWAP2 MSTORE DUP2 MSTORE POP SWAP1 PUSH2 0x7BC JUMPI PUSH1 0x40 MLOAD PUSH3 0x461BCD PUSH1 0xE5 SHL DUP2 MSTORE PUSH1 0x4 ADD PUSH2 0x6CB SWAP2 SWAP1 PUSH2 0x273F JUMP JUMPDEST POP PUSH1 0x1 PUSH1 0x1 PUSH1 0xA0 SHL SUB DUP4 AND ISZERO PUSH2 0x7D9 JUMPI PUSH2 0x7D7 PUSH1 0xE DUP5 PUSH2 0x1EC1 JUMP JUMPDEST POP JUMPDEST PUSH1 0x1 PUSH1 0x1 PUSH1 0xA0 SHL SUB DUP3 AND ISZERO PUSH2 0x7F5 JUMPI PUSH2 0x7F3 PUSH1 0xE DUP4 PUSH2 0x1ED6 JUMP JUMPDEST POP JUMPDEST DUP2 PUSH1 0x1 PUSH1 0x1 PUSH1 0xA0 SHL SUB AND DUP4 PUSH1 0x1 PUSH1 0x1 PUSH1 0xA0 SHL SUB AND PUSH32 0x483BDEDAAF23706A9800AC1AF0D852B34927780D79F9D6BA60A80C7CAD75EA39 PUSH1 0x40 MLOAD PUSH1 0x40 MLOAD DUP1 SWAP2 SUB SWAP1 LOG3 POP POP POP JUMP JUMPDEST PUSH1 0x0 PUSH2 0x847 PUSH1 0x7 DUP4 PUSH2 0x1EEB JUMP JUMPDEST PUSH1 0x40 MLOAD DUP1 PUSH1 0x40 ADD PUSH1 0x40 MSTORE DUP1 PUSH1 0x16 DUP2 MSTORE PUSH1 0x20 ADD PUSH22 0x1859191C995CDCC8191BD95CC81B9BDD08195E1A5CDD PUSH1 0x52 SHL DUP2 MSTORE POP SWAP1 PUSH2 0x894 JUMPI PUSH1 0x40 MLOAD PUSH3 0x461BCD PUSH1 0xE5 SHL DUP2 MSTORE PUSH1 0x4 ADD PUSH2 0x6CB SWAP2 SWAP1 PUSH2 0x273F JUMP JUMPDEST POP POP PUSH1 0x0 SWAP1 DUP2 MSTORE PUSH1 0x1 PUSH1 0x20 MSTORE PUSH1 0x40 SWAP1 KECCAK256 SLOAD PUSH1 0x1 PUSH1 0x1 PUSH1 0xA0 SHL SUB AND SWAP1 JUMP JUMPDEST PUSH1 0x0 PUSH2 0x8BB PUSH2 0x1D67 JUMP JUMPDEST PUSH1 0x40 MLOAD PUSH4 0x24745215 PUSH1 0xE2 SHL DUP2 MSTORE PUSH10 0x676F7665726E616E6365 PUSH1 0xB0 SHL PUSH1 0x4 DUP3 ADD MSTORE CALLER PUSH1 0x24 DUP3 ADD MSTORE PUSH1 0x1 PUSH1 0x1 PUSH1 0xA0 SHL SUB SWAP2 SWAP1 SWAP2 AND SWAP1 PUSH4 0x91D14854 SWAP1 PUSH1 0x44 ADD PUSH1 0x20 PUSH1 0x40 MLOAD DUP1 DUP4 SUB DUP2 DUP7 GAS STATICCALL ISZERO DUP1 ISZERO PUSH2 0x914 JUMPI RETURNDATASIZE PUSH1 0x0 DUP1 RETURNDATACOPY RETURNDATASIZE PUSH1 0x0 REVERT JUMPDEST POP POP POP POP PUSH1 0x40 MLOAD RETURNDATASIZE PUSH1 0x1F NOT PUSH1 0x1F DUP3 ADD AND DUP3 ADD DUP1 PUSH1 0x40 MSTORE POP DUP2 ADD SWAP1 PUSH2 0x938 SWAP2 SWAP1 PUSH2 0x2722 JUMP JUMPDEST PUSH1 0x40 MLOAD DUP1 PUSH1 0x40 ADD PUSH1 0x40 MSTORE DUP1 PUSH1 0x13 DUP2 MSTORE PUSH1 0x20 ADD PUSH1 0x0 DUP1 MLOAD PUSH1 0x20 PUSH2 0x2844 DUP4 CODECOPY DUP2 MLOAD SWAP2 MSTORE DUP2 MSTORE POP SWAP1 PUSH2 0x97A JUMPI PUSH1 0x40 MLOAD PUSH3 0x461BCD PUSH1 0xE5 SHL DUP2 MSTORE PUSH1 0x4 ADD PUSH2 0x6CB SWAP2 SWAP1 PUSH2 0x273F JUMP JUMPDEST POP PUSH1 0x0 PUSH2 0x988 PUSH1 0xA DUP5 PUSH2 0x1ED6 JUMP JUMPDEST SWAP1 POP DUP1 ISZERO PUSH2 0x5F1 JUMPI PUSH2 0x99B PUSH1 0xC DUP5 PUSH2 0x1ED6 JUMP JUMPDEST POP PUSH1 0x40 MLOAD PUSH1 0x1 PUSH1 0x1 PUSH1 0xA0 SHL SUB DUP5 AND SWAP1 PUSH32 0x94BF98B0E859F6CD82A6C9E869A41F9A081CD22B48924E50AE880FFF57EED8E5 SWAP1 PUSH1 0x0 SWAP1 LOG2 SWAP3 SWAP2 POP POP JUMP JUMPDEST PUSH1 0x0 DUP1 DUP1 PUSH2 0x9E5 PUSH1 0x10 DUP6 PUSH2 0x1EF7 JUMP JUMPDEST SWAP2 POP SWAP2 POP DUP2 PUSH1 0x40 MLOAD DUP1 PUSH1 0x40 ADD PUSH1 0x40 MSTORE DUP1 PUSH1 0x11 DUP2 MSTORE PUSH1 0x20 ADD PUSH17 0x1859191C995CDCC81B9BDD08199BDD5B99 PUSH1 0x7A SHL DUP2 MSTORE POP SWAP1 PUSH2 0xA32 JUMPI PUSH1 0x40 MLOAD PUSH3 0x461BCD PUSH1 0xE5 SHL DUP2 MSTORE PUSH1 0x4 ADD PUSH2 0x6CB SWAP2 SWAP1 PUSH2 0x273F JUMP JUMPDEST POP SWAP4 SWAP3 POP POP POP JUMP JUMPDEST PUSH1 0x0 DUP1 DUP3 PUSH1 0x1 PUSH1 0x1 PUSH1 0xA0 SHL SUB AND PUSH4 0x21DF0DA7 PUSH1 0x40 MLOAD DUP2 PUSH4 0xFFFFFFFF AND PUSH1 0xE0 SHL DUP2 MSTORE PUSH1 0x4 ADD PUSH1 0x20 PUSH1 0x40 MLOAD DUP1 DUP4 SUB DUP2 DUP7 GAS STATICCALL ISZERO DUP1 ISZERO PUSH2 0xA7B JUMPI RETURNDATASIZE PUSH1 0x0 DUP1 RETURNDATACOPY RETURNDATASIZE PUSH1 0x0 REVERT JUMPDEST POP POP POP POP PUSH1 0x40 MLOAD RETURNDATASIZE PUSH1 0x1F NOT PUSH1 0x1F DUP3 ADD AND DUP3 ADD DUP1 PUSH1 0x40 MSTORE POP DUP2 ADD SWAP1 PUSH2 0xA9F SWAP2 SWAP1 PUSH2 0x2794 JUMP JUMPDEST SWAP1 POP PUSH2 0xAAB DUP4 DUP3 PUSH2 0x14CA JUMP JUMPDEST SWAP4 SWAP3 POP POP POP JUMP JUMPDEST PUSH2 0xABA PUSH2 0x1D67 JUMP JUMPDEST PUSH1 0x40 MLOAD PUSH4 0x24745215 PUSH1 0xE2 SHL DUP2 MSTORE PUSH10 0x676F7665726E616E6365 PUSH1 0xB0 SHL PUSH1 0x4 DUP3 ADD MSTORE CALLER PUSH1 0x24 DUP3 ADD MSTORE PUSH1 0x1 PUSH1 0x1 PUSH1 0xA0 SHL SUB SWAP2 SWAP1 SWAP2 AND SWAP1 PUSH4 0x91D14854 SWAP1 PUSH1 0x44 ADD PUSH1 0x20 PUSH1 0x40 MLOAD DUP1 DUP4 SUB DUP2 DUP7 GAS STATICCALL ISZERO DUP1 ISZERO PUSH2 0xB13 JUMPI RETURNDATASIZE PUSH1 0x0 DUP1 RETURNDATACOPY RETURNDATASIZE PUSH1 0x0 REVERT JUMPDEST POP POP POP POP PUSH1 0x40 MLOAD RETURNDATASIZE PUSH1 0x1F NOT PUSH1 0x1F DUP3 ADD AND DUP3 ADD DUP1 PUSH1 0x40 MSTORE POP DUP2 ADD SWAP1 PUSH2 0xB37 SWAP2 SWAP1 PUSH2 0x2722 JUMP JUMPDEST PUSH1 0x40 MLOAD DUP1 PUSH1 0x40 ADD PUSH1 0x40 MSTORE DUP1 PUSH1 0x13 DUP2 MSTORE PUSH1 0x20 ADD PUSH1 0x0 DUP1 MLOAD PUSH1 0x20 PUSH2 0x2844 DUP4 CODECOPY DUP2 MLOAD SWAP2 MSTORE DUP2 MSTORE POP SWAP1 PUSH2 0xB79 JUMPI PUSH1 0x40 MLOAD PUSH3 0x461BCD PUSH1 0xE5 SHL DUP2 MSTORE PUSH1 0x4 ADD PUSH2 0x6CB SWAP2 SWAP1 PUSH2 0x273F JUMP JUMPDEST POP PUSH2 0xB84 DUP3 DUP3 PUSH2 0x1F1E JUMP JUMPDEST PUSH1 0x40 DUP1 MLOAD DUP4 DUP2 MSTORE PUSH1 0x1 PUSH1 0x1 PUSH1 0xA0 SHL SUB DUP4 AND PUSH1 0x20 DUP3 ADD MSTORE PUSH32 0x324BA9655E72CB8D5F0B9C49823DB98EFB875D4D05FE0824E62B305D16CD430A SWAP2 ADD PUSH1 0x40 MLOAD DUP1 SWAP2 SUB SWAP1 LOG1 POP POP JUMP JUMPDEST PUSH2 0xBD1 PUSH2 0x1D67 JUMP JUMPDEST PUSH1 0x40 MLOAD PUSH4 0x24745215 PUSH1 0xE2 SHL DUP2 MSTORE PUSH10 0x676F7665726E616E6365 PUSH1 0xB0 SHL PUSH1 0x4 DUP3 ADD MSTORE CALLER PUSH1 0x24 DUP3 ADD MSTORE PUSH1 0x1 PUSH1 0x1 PUSH1 0xA0 SHL SUB SWAP2 SWAP1 SWAP2 AND SWAP1 PUSH4 0x91D14854 SWAP1 PUSH1 0x44 ADD PUSH1 0x20 PUSH1 0x40 MLOAD DUP1 DUP4 SUB DUP2 DUP7 GAS STATICCALL ISZERO DUP1 ISZERO PUSH2 0xC2A JUMPI RETURNDATASIZE PUSH1 0x0 DUP1 RETURNDATACOPY RETURNDATASIZE PUSH1 0x0 REVERT JUMPDEST POP POP POP POP PUSH1 0x40 MLOAD RETURNDATASIZE PUSH1 0x1F NOT PUSH1 0x1F DUP3 ADD AND DUP3 ADD DUP1 PUSH1 0x40 MSTORE POP DUP2 ADD SWAP1 PUSH2 0xC4E SWAP2 SWAP1 PUSH2 0x2722 JUMP JUMPDEST PUSH1 0x40 MLOAD DUP1 PUSH1 0x40 ADD PUSH1 0x40 MSTORE DUP1 PUSH1 0x13 DUP2 MSTORE PUSH1 0x20 ADD PUSH1 0x0 DUP1 MLOAD PUSH1 0x20 PUSH2 0x2844 DUP4 CODECOPY DUP2 MLOAD SWAP2 MSTORE DUP2 MSTORE POP SWAP1 PUSH2 0xC90 JUMPI PUSH1 0x40 MLOAD PUSH3 0x461BCD PUSH1 0xE5 SHL DUP2 MSTORE PUSH1 0x4 ADD PUSH2 0x6CB SWAP2 SWAP1 PUSH2 0x273F JUMP JUMPDEST POP PUSH2 0xCAF PUSH1 0x7 PUSH16 0x34B7333630BA34B7B726B0B730B3B2B9 PUSH1 0x81 SHL PUSH2 0x1EEB JUMP JUMPDEST ISZERO PUSH1 0x40 MLOAD DUP1 PUSH1 0x40 ADD PUSH1 0x40 MSTORE DUP1 PUSH1 0x10 DUP2 MSTORE PUSH1 0x20 ADD PUSH16 0x1A5B9D985B1A5908185C99DD5B595B9D PUSH1 0x82 SHL DUP2 MSTORE POP SWAP1 PUSH2 0xCF7 JUMPI PUSH1 0x40 MLOAD PUSH3 0x461BCD PUSH1 0xE5 SHL DUP2 MSTORE PUSH1 0x4 ADD PUSH2 0x6CB SWAP2 SWAP1 PUSH2 0x273F JUMP JUMPDEST POP PUSH1 0x40 DUP1 MLOAD DUP1 DUP3 ADD SWAP1 SWAP2 MSTORE PUSH1 0x1 DUP1 DUP3 MSTORE PUSH1 0x20 DUP3 ADD MSTORE PUSH2 0xD2A PUSH16 0x34B7333630BA34B7B726B0B730B3B2B9 PUSH1 0x81 SHL DUP4 DUP4 PUSH2 0x1FD7 JUMP JUMPDEST POP POP JUMP JUMPDEST PUSH1 0x0 SLOAD PUSH2 0x100 SWAP1 DIV PUSH1 0xFF AND PUSH2 0xD49 JUMPI PUSH1 0x0 SLOAD PUSH1 0xFF AND ISZERO PUSH2 0xD4D JUMP JUMPDEST ADDRESS EXTCODESIZE ISZERO JUMPDEST PUSH2 0xDB0 JUMPI PUSH1 0x40 MLOAD PUSH3 0x461BCD PUSH1 0xE5 SHL DUP2 MSTORE PUSH1 0x20 PUSH1 0x4 DUP3 ADD MSTORE PUSH1 0x2E PUSH1 0x24 DUP3 ADD MSTORE PUSH32 0x496E697469616C697A61626C653A20636F6E747261637420697320616C726561 PUSH1 0x44 DUP3 ADD MSTORE PUSH14 0x191E481A5B9A5D1A585B1A5E9959 PUSH1 0x92 SHL PUSH1 0x64 DUP3 ADD MSTORE PUSH1 0x84 ADD PUSH2 0x6CB JUMP JUMPDEST PUSH1 0x0 SLOAD PUSH2 0x100 SWAP1 DIV PUSH1 0xFF AND ISZERO DUP1 ISZERO PUSH2 0xDD2 JUMPI PUSH1 0x0 DUP1 SLOAD PUSH2 0xFFFF NOT AND PUSH2 0x101 OR SWAP1 SSTORE JUMPDEST PUSH1 0x40 DUP1 MLOAD DUP1 DUP3 ADD SWAP1 SWAP2 MSTORE PUSH1 0x1 DUP2 MSTORE PUSH1 0x0 PUSH1 0x20 DUP3 ADD MSTORE PUSH2 0xE08 PUSH8 0x7472656173757279 PUSH1 0xC0 SHL PUSH2 0xDFF DUP4 PUSH2 0x1FE1 JUMP JUMPDEST PUSH1 0x7 SWAP2 SWAP1 PUSH2 0x201B JUMP JUMPDEST POP PUSH8 0x7472656173757279 PUSH1 0xC0 SHL PUSH1 0x0 MSTORE PUSH1 0x1 PUSH1 0x20 DUP2 DUP2 MSTORE PUSH32 0x19968139EB94C6F8501C62EC1A6F9D252D27B234D004717F0852273A5D7C7C68 DUP1 SLOAD PUSH1 0x1 PUSH1 0x1 PUSH1 0xA0 SHL SUB NOT AND PUSH1 0x1 PUSH1 0x1 PUSH1 0xA0 SHL SUB DUP8 AND OR SWAP1 SSTORE PUSH1 0x40 DUP1 MLOAD DUP1 DUP3 ADD SWAP1 SWAP2 MSTORE DUP3 DUP2 MSTORE SWAP1 DUP2 ADD SWAP2 SWAP1 SWAP2 MSTORE PUSH2 0xE88 PUSH11 0x3937B632A6B0B730B3B2B9 PUSH1 0xA9 SHL PUSH2 0xDFF DUP4 PUSH2 0x1FE1 JUMP JUMPDEST POP POP PUSH11 0x3937B632A6B0B730B3B2B9 PUSH1 0xA9 SHL PUSH1 0x0 MSTORE POP PUSH1 0x1 PUSH1 0x20 MSTORE PUSH32 0x5BBFB3F4D0FD1B306C6956ED60145D07A9435DF9AAB796C39B918D946F6A59BD DUP1 SLOAD PUSH1 0x1 PUSH1 0x1 PUSH1 0xA0 SHL SUB NOT AND PUSH1 0x1 PUSH1 0x1 PUSH1 0xA0 SHL SUB DUP6 AND OR SWAP1 SSTORE DUP1 ISZERO PUSH2 0x6F4 JUMPI PUSH1 0x0 DUP1 SLOAD PUSH2 0xFF00 NOT AND SWAP1 SSTORE POP POP POP JUMP JUMPDEST PUSH1 0x0 PUSH2 0x5F1 PUSH1 0xC DUP4 PUSH2 0x2028 JUMP JUMPDEST PUSH10 0x31B7B73A3937B63632B9 PUSH1 0xB1 SHL PUSH2 0xF15 PUSH2 0x1D67 JUMP JUMPDEST PUSH1 0x40 MLOAD PUSH4 0x24745215 PUSH1 0xE2 SHL DUP2 MSTORE PUSH1 0x4 DUP2 ADD DUP4 SWAP1 MSTORE CALLER PUSH1 0x24 DUP3 ADD MSTORE PUSH1 0x1 PUSH1 0x1 PUSH1 0xA0 SHL SUB SWAP2 SWAP1 SWAP2 AND SWAP1 PUSH4 0x91D14854 SWAP1 PUSH1 0x44 ADD PUSH1 0x20 PUSH1 0x40 MLOAD DUP1 DUP4 SUB DUP2 DUP7 GAS STATICCALL ISZERO DUP1 ISZERO PUSH2 0xF62 JUMPI RETURNDATASIZE PUSH1 0x0 DUP1 RETURNDATACOPY RETURNDATASIZE PUSH1 0x0 REVERT JUMPDEST POP POP POP POP PUSH1 0x40 MLOAD RETURNDATASIZE PUSH1 0x1F NOT PUSH1 0x1F DUP3 ADD AND DUP3 ADD DUP1 PUSH1 0x40 MSTORE POP DUP2 ADD SWAP1 PUSH2 0xF86 SWAP2 SWAP1 PUSH2 0x2722 JUMP JUMPDEST PUSH1 0x40 MLOAD DUP1 PUSH1 0x40 ADD PUSH1 0x40 MSTORE DUP1 PUSH1 0x13 DUP2 MSTORE PUSH1 0x20 ADD PUSH1 0x0 DUP1 MLOAD PUSH1 0x20 PUSH2 0x2844 DUP4 CODECOPY DUP2 MLOAD SWAP2 MSTORE DUP2 MSTORE POP SWAP1 PUSH2 0xFC8 JUMPI PUSH1 0x40 MLOAD PUSH3 0x461BCD PUSH1 0xE5 SHL DUP2 MSTORE PUSH1 0x4 ADD PUSH2 0x6CB SWAP2 SWAP1 PUSH2 0x273F JUMP JUMPDEST POP PUSH2 0xFD4 PUSH1 0xC DUP4 PUSH2 0x2028 JUMP JUMPDEST PUSH1 0x40 MLOAD DUP1 PUSH1 0x40 ADD PUSH1 0x40 MSTORE DUP1 PUSH1 0x1C DUP2 MSTORE PUSH1 0x20 ADD PUSH32 0x61646472657373206973206E6F742061637469766520616374696F6E00000000 DUP2 MSTORE POP SWAP1 PUSH2 0x1028 JUMPI PUSH1 0x40 MLOAD PUSH3 0x461BCD PUSH1 0xE5 SHL DUP2 MSTORE PUSH1 0x4 ADD PUSH2 0x6CB SWAP2 SWAP1 PUSH2 0x273F JUMP JUMPDEST POP PUSH2 0x1034 PUSH1 0xC DUP4 PUSH2 0x1EC1 JUMP JUMPDEST POP PUSH1 0x40 MLOAD PUSH1 0x1 PUSH1 0x1 PUSH1 0xA0 SHL SUB DUP4 AND SWAP1 PUSH32 0x89D6438E1CF543426FEA767AE47BC190AAEBD6408EFEE08EDF4FF0F43882FE85 SWAP1 PUSH1 0x0 SWAP1 LOG2 POP POP JUMP JUMPDEST PUSH1 0x0 PUSH2 0x5F1 PUSH1 0x2 DUP4 PUSH2 0x204A JUMP JUMPDEST PUSH1 0x0 DUP1 DUP3 PUSH1 0x1 PUSH1 0x1 PUSH1 0xA0 SHL SUB AND PUSH4 0x8214F5A4 PUSH1 0x40 MLOAD DUP2 PUSH4 0xFFFFFFFF AND PUSH1 0xE0 SHL DUP2 MSTORE PUSH1 0x4 ADD PUSH1 0x20 PUSH1 0x40 MLOAD DUP1 DUP4 SUB DUP2 DUP7 GAS STATICCALL ISZERO DUP1 ISZERO PUSH2 0x10BB JUMPI RETURNDATASIZE PUSH1 0x0 DUP1 RETURNDATACOPY RETURNDATASIZE PUSH1 0x0 REVERT JUMPDEST POP POP POP POP PUSH1 0x40 MLOAD RETURNDATASIZE PUSH1 0x1F NOT PUSH1 0x1F DUP3 ADD AND DUP3 ADD DUP1 PUSH1 0x40 MSTORE POP DUP2 ADD SWAP1 PUSH2 0x10DF SWAP2 SWAP1 PUSH2 0x2794 JUMP JUMPDEST SWAP1 POP PUSH1 0x0 DUP1 PUSH2 0x10EF PUSH1 0x10 DUP5 PUSH2 0x1EF7 JUMP JUMPDEST SWAP2 POP SWAP2 POP DUP2 DUP1 ISZERO PUSH2 0x1111 JUMPI POP DUP1 PUSH1 0x1 PUSH1 0x1 PUSH1 0xA0 SHL SUB AND DUP6 PUSH1 0x1 PUSH1 0x1 PUSH1 0xA0 SHL SUB AND EQ JUMPDEST SWAP6 SWAP5 POP POP POP POP POP JUMP JUMPDEST PUSH1 0x60 PUSH2 0x5C7 PUSH1 0xA PUSH2 0x1D80 JUMP JUMPDEST PUSH1 0x0 PUSH2 0x5F1 PUSH1 0xA DUP4 PUSH2 0x2028 JUMP JUMPDEST PUSH1 0x0 PUSH2 0x5F1 PUSH1 0xE DUP4 PUSH2 0x2028 JUMP JUMPDEST PUSH2 0x1148 PUSH2 0x1D67 JUMP JUMPDEST PUSH1 0x40 MLOAD PUSH4 0x24745215 PUSH1 0xE2 SHL DUP2 MSTORE PUSH10 0x676F7665726E616E6365 PUSH1 0xB0 SHL PUSH1 0x4 DUP3 ADD MSTORE CALLER PUSH1 0x24 DUP3 ADD MSTORE PUSH1 0x1 PUSH1 0x1 PUSH1 0xA0 SHL SUB SWAP2 SWAP1 SWAP2 AND SWAP1 PUSH4 0x91D14854 SWAP1 PUSH1 0x44 ADD PUSH1 0x20 PUSH1 0x40 MLOAD DUP1 DUP4 SUB DUP2 DUP7 GAS STATICCALL ISZERO DUP1 ISZERO PUSH2 0x11A1 JUMPI RETURNDATASIZE PUSH1 0x0 DUP1 RETURNDATACOPY RETURNDATASIZE PUSH1 0x0 REVERT JUMPDEST POP POP POP POP PUSH1 0x40 MLOAD RETURNDATASIZE PUSH1 0x1F NOT PUSH1 0x1F DUP3 ADD AND DUP3 ADD DUP1 PUSH1 0x40 MSTORE POP DUP2 ADD SWAP1 PUSH2 0x11C5 SWAP2 SWAP1 PUSH2 0x2722 JUMP JUMPDEST PUSH1 0x40 MLOAD DUP1 PUSH1 0x40 ADD PUSH1 0x40 MSTORE DUP1 PUSH1 0x13 DUP2 MSTORE PUSH1 0x20 ADD PUSH1 0x0 DUP1 MLOAD PUSH1 0x20 PUSH2 0x2844 DUP4 CODECOPY DUP2 MLOAD SWAP2 MSTORE DUP2 MSTORE POP SWAP1 PUSH2 0x1207 JUMPI PUSH1 0x40 MLOAD PUSH3 0x461BCD PUSH1 0xE5 SHL DUP2 MSTORE PUSH1 0x4 ADD PUSH2 0x6CB SWAP2 SWAP1 PUSH2 0x273F JUMP JUMPDEST POP PUSH2 0x1213 PUSH1 0x5 DUP3 PUSH2 0x2028 JUMP JUMPDEST ISZERO PUSH1 0x40 MLOAD DUP1 PUSH1 0x40 ADD PUSH1 0x40 MSTORE DUP1 PUSH1 0x1B DUP2 MSTORE PUSH1 0x20 ADD PUSH32 0x6164647265737320616C72656164792077686974656C69737465640000000000 DUP2 MSTORE POP SWAP1 PUSH2 0x1268 JUMPI PUSH1 0x40 MLOAD PUSH3 0x461BCD PUSH1 0xE5 SHL DUP2 MSTORE PUSH1 0x4 ADD PUSH2 0x6CB SWAP2 SWAP1 PUSH2 0x273F JUMP JUMPDEST POP PUSH2 0x1274 PUSH1 0x5 DUP3 PUSH2 0x1ED6 JUMP JUMPDEST POP PUSH1 0x40 MLOAD PUSH1 0x1 PUSH1 0x1 PUSH1 0xA0 SHL SUB DUP3 AND DUP2 MSTORE PUSH32 0x19CE04B14AEAB5F574F7E18D6454BA91781146F9A50E932FF336754210C324FA SWAP1 PUSH1 0x20 ADD JUMPDEST PUSH1 0x40 MLOAD DUP1 SWAP2 SUB SWAP1 LOG1 POP JUMP JUMPDEST PUSH1 0x0 DUP1 PUSH2 0x12C3 PUSH1 0x2 DUP5 PUSH2 0x1EF7 JUMP JUMPDEST SWAP2 POP SWAP2 POP SWAP2 POP SWAP2 JUMP JUMPDEST PUSH2 0x12D4 PUSH2 0x1D67 JUMP JUMPDEST PUSH1 0x40 MLOAD PUSH4 0x24745215 PUSH1 0xE2 SHL DUP2 MSTORE PUSH10 0x676F7665726E616E6365 PUSH1 0xB0 SHL PUSH1 0x4 DUP3 ADD MSTORE CALLER PUSH1 0x24 DUP3 ADD MSTORE PUSH1 0x1 PUSH1 0x1 PUSH1 0xA0 SHL SUB SWAP2 SWAP1 SWAP2 AND SWAP1 PUSH4 0x91D14854 SWAP1 PUSH1 0x44 ADD PUSH1 0x20 PUSH1 0x40 MLOAD DUP1 DUP4 SUB DUP2 DUP7 GAS STATICCALL ISZERO DUP1 ISZERO PUSH2 0x132D JUMPI RETURNDATASIZE PUSH1 0x0 DUP1 RETURNDATACOPY RETURNDATASIZE PUSH1 0x0 REVERT JUMPDEST POP POP POP POP PUSH1 0x40 MLOAD RETURNDATASIZE PUSH1 0x1F NOT PUSH1 0x1F DUP3 ADD AND DUP3 ADD DUP1 PUSH1 0x40 MSTORE POP DUP2 ADD SWAP1 PUSH2 0x1351 SWAP2 SWAP1 PUSH2 0x2722 JUMP JUMPDEST PUSH1 0x40 MLOAD DUP1 PUSH1 0x40 ADD PUSH1 0x40 MSTORE DUP1 PUSH1 0x13 DUP2 MSTORE PUSH1 0x20 ADD PUSH1 0x0 DUP1 MLOAD PUSH1 0x20 PUSH2 0x2844 DUP4 CODECOPY DUP2 MLOAD SWAP2 MSTORE DUP2 MSTORE POP SWAP1 PUSH2 0x1393 JUMPI PUSH1 0x40 MLOAD PUSH3 0x461BCD PUSH1 0xE5 SHL DUP2 MSTORE PUSH1 0x4 ADD PUSH2 0x6CB SWAP2 SWAP1 PUSH2 0x273F JUMP JUMPDEST POP PUSH1 0x40 DUP1 MLOAD DUP1 DUP3 ADD SWAP1 SWAP2 MSTORE DUP2 ISZERO ISZERO DUP2 MSTORE PUSH1 0x0 PUSH1 0x20 DUP3 ADD MSTORE PUSH2 0x13B5 DUP5 DUP5 DUP4 PUSH2 0x1E43 JUMP JUMPDEST POP POP POP POP JUMP JUMPDEST PUSH1 0x60 PUSH2 0x5C7 PUSH1 0x2 PUSH2 0x205F JUMP JUMPDEST PUSH1 0x40 DUP1 MLOAD DUP1 DUP3 ADD SWAP1 SWAP2 MSTORE PUSH1 0x0 DUP1 DUP3 MSTORE PUSH1 0x20 DUP3 ADD MSTORE PUSH1 0x0 DUP1 PUSH2 0x13E9 PUSH1 0x7 DUP6 PUSH2 0x20FC JUMP JUMPDEST SWAP2 POP SWAP2 POP DUP2 PUSH1 0x40 MLOAD DUP1 PUSH1 0x40 ADD PUSH1 0x40 MSTORE DUP1 PUSH1 0x16 DUP2 MSTORE PUSH1 0x20 ADD PUSH22 0x1859191C995CDCC8191BD95CC81B9BDD08195E1A5CDD PUSH1 0x52 SHL DUP2 MSTORE POP SWAP1 PUSH2 0x143B JUMPI PUSH1 0x40 MLOAD PUSH3 0x461BCD PUSH1 0xE5 SHL DUP2 MSTORE PUSH1 0x4 ADD PUSH2 0x6CB SWAP2 SWAP1 PUSH2 0x273F JUMP JUMPDEST POP PUSH1 0x40 DUP1 MLOAD DUP1 DUP3 ADD DUP3 MSTORE PUSH1 0x0 DUP1 DUP3 MSTORE PUSH1 0x20 SWAP2 DUP3 ADD MSTORE DUP2 MLOAD DUP1 DUP4 ADD SWAP1 SWAP3 MSTORE PUSH1 0x1 DUP1 DUP5 AND DUP2 EQ DUP4 MSTORE DUP4 DUP2 SHR DUP2 AND EQ SWAP1 DUP3 ADD MSTORE JUMPDEST SWAP5 SWAP4 POP POP POP POP JUMP JUMPDEST PUSH1 0x60 PUSH2 0x5C7 PUSH1 0x7 PUSH2 0x210B JUMP JUMPDEST PUSH1 0x0 PUSH2 0x5F1 PUSH1 0x5 DUP4 PUSH2 0x2028 JUMP JUMPDEST PUSH1 0x0 PUSH2 0x5C7 PUSH1 0xE PUSH2 0x219B JUMP JUMPDEST PUSH2 0xD2A DUP3 DUP3 PUSH1 0x0 PUSH2 0x12CC JUMP JUMPDEST PUSH1 0x0 PUSH2 0x5C7 PUSH1 0x10 PUSH2 0x21A5 JUMP JUMPDEST PUSH1 0x0 PUSH2 0x5C7 PUSH1 0xA PUSH2 0x219B JUMP JUMPDEST PUSH1 0x0 PUSH2 0x5F1 PUSH1 0xA DUP4 PUSH2 0x1E2A JUMP JUMPDEST PUSH1 0x0 DUP1 DUP1 PUSH2 0x14D9 PUSH1 0x2 DUP6 PUSH2 0x1EF7 JUMP JUMPDEST SWAP2 POP SWAP2 POP DUP2 DUP1 ISZERO PUSH2 0x1111 JUMPI POP DUP5 PUSH1 0x1 PUSH1 0x1 PUSH1 0xA0 SHL SUB AND DUP2 PUSH1 0x1 PUSH1 0x1 PUSH1 0xA0 SHL SUB AND EQ SWAP6 SWAP5 POP POP POP POP POP JUMP JUMPDEST PUSH10 0x31B7B73A3937B63632B9 PUSH1 0xB1 SHL PUSH2 0x1519 PUSH2 0x1D67 JUMP JUMPDEST PUSH1 0x40 MLOAD PUSH4 0x24745215 PUSH1 0xE2 SHL DUP2 MSTORE PUSH1 0x4 DUP2 ADD DUP4 SWAP1 MSTORE CALLER PUSH1 0x24 DUP3 ADD MSTORE PUSH1 0x1 PUSH1 0x1 PUSH1 0xA0 SHL SUB SWAP2 SWAP1 SWAP2 AND SWAP1 PUSH4 0x91D14854 SWAP1 PUSH1 0x44 ADD PUSH1 0x20 PUSH1 0x40 MLOAD DUP1 DUP4 SUB DUP2 DUP7 GAS STATICCALL ISZERO DUP1 ISZERO PUSH2 0x1566 JUMPI RETURNDATASIZE PUSH1 0x0 DUP1 RETURNDATACOPY RETURNDATASIZE PUSH1 0x0 REVERT JUMPDEST POP POP POP POP PUSH1 0x40 MLOAD RETURNDATASIZE PUSH1 0x1F NOT PUSH1 0x1F DUP3 ADD AND DUP3 ADD DUP1 PUSH1 0x40 MSTORE POP DUP2 ADD SWAP1 PUSH2 0x158A SWAP2 SWAP1 PUSH2 0x2722 JUMP JUMPDEST PUSH1 0x40 MLOAD DUP1 PUSH1 0x40 ADD PUSH1 0x40 MSTORE DUP1 PUSH1 0x13 DUP2 MSTORE PUSH1 0x20 ADD PUSH1 0x0 DUP1 MLOAD PUSH1 0x20 PUSH2 0x2844 DUP4 CODECOPY DUP2 MLOAD SWAP2 MSTORE DUP2 MSTORE POP SWAP1 PUSH2 0x15CC JUMPI PUSH1 0x40 MLOAD PUSH3 0x461BCD PUSH1 0xE5 SHL DUP2 MSTORE PUSH1 0x4 ADD PUSH2 0x6CB SWAP2 SWAP1 PUSH2 0x273F JUMP JUMPDEST POP PUSH1 0x0 DUP3 PUSH1 0x1 PUSH1 0x1 PUSH1 0xA0 SHL SUB AND PUSH4 0x21DF0DA7 PUSH1 0x40 MLOAD DUP2 PUSH4 0xFFFFFFFF AND PUSH1 0xE0 SHL DUP2 MSTORE PUSH1 0x4 ADD PUSH1 0x20 PUSH1 0x40 MLOAD DUP1 DUP4 SUB DUP2 DUP7 GAS STATICCALL ISZERO DUP1 ISZERO PUSH2 0x160D JUMPI RETURNDATASIZE PUSH1 0x0 DUP1 RETURNDATACOPY RETURNDATASIZE PUSH1 0x0 REVERT JUMPDEST POP POP POP POP PUSH1 0x40 MLOAD RETURNDATASIZE PUSH1 0x1F NOT PUSH1 0x1F DUP3 ADD AND DUP3 ADD DUP1 PUSH1 0x40 MSTORE POP DUP2 ADD SWAP1 PUSH2 0x1631 SWAP2 SWAP1 PUSH2 0x2794 JUMP JUMPDEST PUSH1 0x40 DUP1 MLOAD DUP1 DUP3 ADD SWAP1 SWAP2 MSTORE PUSH1 0x18 DUP2 MSTORE PUSH24 0x1E995C9BC81859191C995CDCC81B9BDD08185B1B1BDDD959 PUSH1 0x42 SHL PUSH1 0x20 DUP3 ADD MSTORE SWAP1 SWAP2 POP PUSH1 0x1 PUSH1 0x1 PUSH1 0xA0 SHL SUB DUP3 AND PUSH2 0x168A JUMPI PUSH1 0x40 MLOAD PUSH3 0x461BCD PUSH1 0xE5 SHL DUP2 MSTORE PUSH1 0x4 ADD PUSH2 0x6CB SWAP2 SWAP1 PUSH2 0x273F JUMP JUMPDEST POP PUSH2 0x1696 PUSH1 0x2 DUP3 PUSH2 0x21B0 JUMP JUMPDEST ISZERO PUSH1 0x40 MLOAD DUP1 PUSH1 0x60 ADD PUSH1 0x40 MSTORE DUP1 PUSH1 0x2B DUP2 MSTORE PUSH1 0x20 ADD PUSH2 0x2819 PUSH1 0x2B SWAP2 CODECOPY SWAP1 PUSH2 0x16CE JUMPI PUSH1 0x40 MLOAD PUSH3 0x461BCD PUSH1 0xE5 SHL DUP2 MSTORE PUSH1 0x4 ADD PUSH2 0x6CB SWAP2 SWAP1 PUSH2 0x273F JUMP JUMPDEST POP PUSH2 0x16DB PUSH1 0x2 DUP3 DUP6 PUSH2 0x21C5 JUMP JUMPDEST POP PUSH1 0x40 MLOAD PUSH1 0x1 PUSH1 0x1 PUSH1 0xA0 SHL SUB DUP5 AND SWAP1 PUSH32 0x90155492BE7A3762B22FB2AB49DC404AEED6CBB42373E85859EBA75F6D1CE7DE SWAP1 PUSH1 0x0 SWAP1 LOG2 POP POP POP JUMP JUMPDEST PUSH1 0x60 PUSH2 0x5C7 PUSH1 0x10 PUSH2 0x205F JUMP JUMPDEST PUSH2 0x1729 PUSH2 0x1D67 JUMP JUMPDEST PUSH1 0x40 MLOAD PUSH4 0x24745215 PUSH1 0xE2 SHL DUP2 MSTORE PUSH10 0x676F7665726E616E6365 PUSH1 0xB0 SHL PUSH1 0x4 DUP3 ADD MSTORE CALLER PUSH1 0x24 DUP3 ADD MSTORE PUSH1 0x1 PUSH1 0x1 PUSH1 0xA0 SHL SUB SWAP2 SWAP1 SWAP2 AND SWAP1 PUSH4 0x91D14854 SWAP1 PUSH1 0x44 ADD PUSH1 0x20 PUSH1 0x40 MLOAD DUP1 DUP4 SUB DUP2 DUP7 GAS STATICCALL ISZERO DUP1 ISZERO PUSH2 0x1782 JUMPI RETURNDATASIZE PUSH1 0x0 DUP1 RETURNDATACOPY RETURNDATASIZE PUSH1 0x0 REVERT JUMPDEST POP POP POP POP PUSH1 0x40 MLOAD RETURNDATASIZE PUSH1 0x1F NOT PUSH1 0x1F DUP3 ADD AND DUP3 ADD DUP1 PUSH1 0x40 MSTORE POP DUP2 ADD SWAP1 PUSH2 0x17A6 SWAP2 SWAP1 PUSH2 0x2722 JUMP JUMPDEST PUSH1 0x40 MLOAD DUP1 PUSH1 0x40 ADD PUSH1 0x40 MSTORE DUP1 PUSH1 0x13 DUP2 MSTORE PUSH1 0x20 ADD PUSH1 0x0 DUP1 MLOAD PUSH1 0x20 PUSH2 0x2844 DUP4 CODECOPY DUP2 MLOAD SWAP2 MSTORE DUP2 MSTORE POP SWAP1 PUSH2 0x17E8 JUMPI PUSH1 0x40 MLOAD PUSH3 0x461BCD PUSH1 0xE5 SHL DUP2 MSTORE PUSH1 0x4 ADD PUSH2 0x6CB SWAP2 SWAP1 PUSH2 0x273F JUMP JUMPDEST POP PUSH2 0x17F4 PUSH1 0x5 DUP3 PUSH2 0x2028 JUMP JUMPDEST PUSH1 0x40 MLOAD DUP1 PUSH1 0x40 ADD PUSH1 0x40 MSTORE DUP1 PUSH1 0x17 DUP2 MSTORE PUSH1 0x20 ADD PUSH32 0x61646472657373206E6F742077686974656C6973746564000000000000000000 DUP2 MSTORE POP SWAP1 PUSH2 0x1848 JUMPI PUSH1 0x40 MLOAD PUSH3 0x461BCD PUSH1 0xE5 SHL DUP2 MSTORE PUSH1 0x4 ADD PUSH2 0x6CB SWAP2 SWAP1 PUSH2 0x273F JUMP JUMPDEST POP PUSH2 0x1854 PUSH1 0x5 DUP3 PUSH2 0x1EC1 JUMP JUMPDEST POP PUSH1 0x40 MLOAD PUSH1 0x1 PUSH1 0x1 PUSH1 0xA0 SHL SUB DUP3 AND DUP2 MSTORE PUSH32 0x9C8551F1463323C3722EA00C0630626141033443D942B133BFD133598F9A9841 SWAP1 PUSH1 0x20 ADD PUSH2 0x12AA JUMP JUMPDEST PUSH12 0x706F6F6C5F666163746F7279 PUSH1 0xA0 SHL PUSH10 0x676F7665726E616E6365 PUSH1 0xB0 SHL PUSH2 0x18B4 PUSH2 0x1D67 JUMP JUMPDEST PUSH1 0x40 MLOAD PUSH4 0x6BAB5211 PUSH1 0xE1 SHL DUP2 MSTORE PUSH1 0x4 DUP2 ADD DUP5 SWAP1 MSTORE PUSH1 0x24 DUP2 ADD DUP4 SWAP1 MSTORE CALLER PUSH1 0x44 DUP3 ADD MSTORE PUSH1 0x1 PUSH1 0x1 PUSH1 0xA0 SHL SUB SWAP2 SWAP1 SWAP2 AND SWAP1 PUSH4 0xD756A422 SWAP1 PUSH1 0x64 ADD PUSH1 0x20 PUSH1 0x40 MLOAD DUP1 DUP4 SUB DUP2 DUP7 GAS STATICCALL ISZERO DUP1 ISZERO PUSH2 0x1908 JUMPI RETURNDATASIZE PUSH1 0x0 DUP1 RETURNDATACOPY RETURNDATASIZE PUSH1 0x0 REVERT JUMPDEST POP POP POP POP PUSH1 0x40 MLOAD RETURNDATASIZE PUSH1 0x1F NOT PUSH1 0x1F DUP3 ADD AND DUP3 ADD DUP1 PUSH1 0x40 MSTORE POP DUP2 ADD SWAP1 PUSH2 0x192C SWAP2 SWAP1 PUSH2 0x2722 JUMP JUMPDEST PUSH1 0x40 MLOAD DUP1 PUSH1 0x40 ADD PUSH1 0x40 MSTORE DUP1 PUSH1 0x13 DUP2 MSTORE PUSH1 0x20 ADD PUSH1 0x0 DUP1 MLOAD PUSH1 0x20 PUSH2 0x2844 DUP4 CODECOPY DUP2 MLOAD SWAP2 MSTORE DUP2 MSTORE POP SWAP1 PUSH2 0x196E JUMPI PUSH1 0x40 MLOAD PUSH3 0x461BCD PUSH1 0xE5 SHL DUP2 MSTORE PUSH1 0x4 ADD PUSH2 0x6CB SWAP2 SWAP1 PUSH2 0x273F JUMP JUMPDEST POP PUSH1 0x40 DUP1 MLOAD DUP1 DUP3 ADD SWAP1 SWAP2 MSTORE PUSH1 0x18 DUP2 MSTORE PUSH24 0x1E995C9BC81859191C995CDCC81B9BDD08185B1B1BDDD959 PUSH1 0x42 SHL PUSH1 0x20 DUP3 ADD MSTORE PUSH1 0x1 PUSH1 0x1 PUSH1 0xA0 SHL SUB DUP5 AND PUSH2 0x19C5 JUMPI PUSH1 0x40 MLOAD PUSH3 0x461BCD PUSH1 0xE5 SHL DUP2 MSTORE PUSH1 0x4 ADD PUSH2 0x6CB SWAP2 SWAP1 PUSH2 0x273F JUMP JUMPDEST POP PUSH1 0x0 DUP4 SWAP1 POP PUSH1 0x0 DUP2 PUSH1 0x1 PUSH1 0x1 PUSH1 0xA0 SHL SUB AND PUSH4 0x8214F5A4 PUSH1 0x40 MLOAD DUP2 PUSH4 0xFFFFFFFF AND PUSH1 0xE0 SHL DUP2 MSTORE PUSH1 0x4 ADD PUSH1 0x20 PUSH1 0x40 MLOAD DUP1 DUP4 SUB DUP2 DUP7 GAS STATICCALL ISZERO DUP1 ISZERO PUSH2 0x1A0B JUMPI RETURNDATASIZE PUSH1 0x0 DUP1 RETURNDATACOPY RETURNDATASIZE PUSH1 0x0 REVERT JUMPDEST POP POP POP POP PUSH1 0x40 MLOAD RETURNDATASIZE PUSH1 0x1F NOT PUSH1 0x1F DUP3 ADD AND DUP3 ADD DUP1 PUSH1 0x40 MSTORE POP DUP2 ADD SWAP1 PUSH2 0x1A2F SWAP2 SWAP1 PUSH2 0x2794 JUMP JUMPDEST PUSH1 0x40 DUP1 MLOAD DUP1 DUP3 ADD SWAP1 SWAP2 MSTORE PUSH1 0x18 DUP2 MSTORE PUSH24 0x1E995C9BC81859191C995CDCC81B9BDD08185B1B1BDDD959 PUSH1 0x42 SHL PUSH1 0x20 DUP3 ADD MSTORE SWAP1 SWAP2 POP PUSH1 0x1 PUSH1 0x1 PUSH1 0xA0 SHL SUB DUP3 AND PUSH2 0x1A88 JUMPI PUSH1 0x40 MLOAD PUSH3 0x461BCD PUSH1 0xE5 SHL DUP2 MSTORE PUSH1 0x4 ADD PUSH2 0x6CB SWAP2 SWAP1 PUSH2 0x273F JUMP JUMPDEST POP PUSH2 0x1A95 PUSH1 0x10 DUP3 DUP8 PUSH2 0x21C5 JUMP JUMPDEST ISZERO PUSH2 0x1B52 JUMPI PUSH1 0x0 DUP3 PUSH1 0x1 PUSH1 0x1 PUSH1 0xA0 SHL SUB AND PUSH4 0xFBFA77CF PUSH1 0x40 MLOAD DUP2 PUSH4 0xFFFFFFFF AND PUSH1 0xE0 SHL DUP2 MSTORE PUSH1 0x4 ADD PUSH1 0x20 PUSH1 0x40 MLOAD DUP1 DUP4 SUB DUP2 DUP7 GAS STATICCALL ISZERO DUP1 ISZERO PUSH2 0x1ADA JUMPI RETURNDATASIZE PUSH1 0x0 DUP1 RETURNDATACOPY RETURNDATASIZE PUSH1 0x0 REVERT JUMPDEST POP POP POP POP PUSH1 0x40 MLOAD RETURNDATASIZE PUSH1 0x1F NOT PUSH1 0x1F DUP3 ADD AND DUP3 ADD DUP1 PUSH1 0x40 MSTORE POP DUP2 ADD SWAP1 PUSH2 0x1AFE SWAP2 SWAP1 PUSH2 0x2794 JUMP JUMPDEST SWAP1 POP PUSH1 0x1 PUSH1 0x1 PUSH1 0xA0 SHL SUB DUP2 AND ISZERO PUSH2 0x1B1C JUMPI PUSH2 0x1B1A PUSH1 0xE DUP3 PUSH2 0x1ED6 JUMP JUMPDEST POP JUMPDEST PUSH1 0x40 MLOAD PUSH1 0x1 PUSH1 0x1 PUSH1 0xA0 SHL SUB DUP8 AND SWAP1 PUSH32 0xB6C7DEF82CF7E1EA091F2BE573CECCF2FC51D7A7CF49B7E8575A477D72CA4423 SWAP1 PUSH1 0x0 SWAP1 LOG2 POP JUMPDEST POP POP POP POP POP JUMP JUMPDEST PUSH1 0x0 DUP2 ISZERO DUP1 PUSH2 0x1B6E JUMPI POP PUSH2 0x1B6E PUSH1 0x7 DUP5 PUSH2 0x1EEB JUMP JUMPDEST PUSH1 0x40 MLOAD DUP1 PUSH1 0x40 ADD PUSH1 0x40 MSTORE DUP1 PUSH1 0x16 DUP2 MSTORE PUSH1 0x20 ADD PUSH22 0x1859191C995CDCC8191BD95CC81B9BDD08195E1A5CDD PUSH1 0x52 SHL DUP2 MSTORE POP SWAP1 PUSH2 0x1BBB JUMPI PUSH1 0x40 MLOAD PUSH3 0x461BCD PUSH1 0xE5 SHL DUP2 MSTORE PUSH1 0x4 ADD PUSH2 0x6CB SWAP2 SWAP1 PUSH2 0x273F JUMP JUMPDEST POP POP POP PUSH1 0x0 SWAP1 DUP2 MSTORE PUSH1 0x1 PUSH1 0x20 MSTORE PUSH1 0x40 SWAP1 KECCAK256 SLOAD PUSH1 0x1 PUSH1 0x1 PUSH1 0xA0 SHL SUB AND SWAP1 JUMP JUMPDEST PUSH2 0x1BE1 PUSH2 0x1D67 JUMP JUMPDEST PUSH1 0x40 MLOAD PUSH4 0x24745215 PUSH1 0xE2 SHL DUP2 MSTORE PUSH10 0x676F7665726E616E6365 PUSH1 0xB0 SHL PUSH1 0x4 DUP3 ADD MSTORE CALLER PUSH1 0x24 DUP3 ADD MSTORE PUSH1 0x1 PUSH1 0x1 PUSH1 0xA0 SHL SUB SWAP2 SWAP1 SWAP2 AND SWAP1 PUSH4 0x91D14854 SWAP1 PUSH1 0x44 ADD PUSH1 0x20 PUSH1 0x40 MLOAD DUP1 DUP4 SUB DUP2 DUP7 GAS STATICCALL ISZERO DUP1 ISZERO PUSH2 0x1C3A JUMPI RETURNDATASIZE PUSH1 0x0 DUP1 RETURNDATACOPY RETURNDATASIZE PUSH1 0x0 REVERT JUMPDEST POP POP POP POP PUSH1 0x40 MLOAD RETURNDATASIZE PUSH1 0x1F NOT PUSH1 0x1F DUP3 ADD AND DUP3 ADD DUP1 PUSH1 0x40 MSTORE POP DUP2 ADD SWAP1 PUSH2 0x1C5E SWAP2 SWAP1 PUSH2 0x2722 JUMP JUMPDEST PUSH1 0x40 MLOAD DUP1 PUSH1 0x40 ADD PUSH1 0x40 MSTORE DUP1 PUSH1 0x13 DUP2 MSTORE PUSH1 0x20 ADD PUSH1 0x0 DUP1 MLOAD PUSH1 0x20 PUSH2 0x2844 DUP4 CODECOPY DUP2 MLOAD SWAP2 MSTORE DUP2 MSTORE POP SWAP1 PUSH2 0x1CA0 JUMPI PUSH1 0x40 MLOAD PUSH3 0x461BCD PUSH1 0xE5 SHL DUP2 MSTORE PUSH1 0x4 ADD PUSH2 0x6CB SWAP2 SWAP1 PUSH2 0x273F JUMP JUMPDEST POP PUSH1 0x0 PUSH2 0x1CAC DUP3 PUSH2 0x13C7 JUMP JUMPDEST SWAP1 POP DUP1 PUSH1 0x20 ADD MLOAD ISZERO PUSH1 0x40 MLOAD DUP1 PUSH1 0x40 ADD PUSH1 0x40 MSTORE DUP1 PUSH1 0x11 DUP2 MSTORE PUSH1 0x20 ADD PUSH17 0x30B2323932B9B99034B990333937BD32B7 PUSH1 0x79 SHL DUP2 MSTORE POP SWAP1 PUSH2 0x1CFC JUMPI PUSH1 0x40 MLOAD PUSH3 0x461BCD PUSH1 0xE5 SHL DUP2 MSTORE PUSH1 0x4 ADD PUSH2 0x6CB SWAP2 SWAP1 PUSH2 0x273F JUMP JUMPDEST POP DUP1 MLOAD PUSH1 0x40 DUP1 MLOAD DUP1 DUP3 ADD SWAP1 SWAP2 MSTORE PUSH1 0x10 DUP2 MSTORE PUSH16 0x1A5B9D985B1A5908185C99DD5B595B9D PUSH1 0x82 SHL PUSH1 0x20 DUP3 ADD MSTORE SWAP1 PUSH2 0x1D44 JUMPI PUSH1 0x40 MLOAD PUSH3 0x461BCD PUSH1 0xE5 SHL DUP2 MSTORE PUSH1 0x4 ADD PUSH2 0x6CB SWAP2 SWAP1 PUSH2 0x273F JUMP JUMPDEST POP PUSH1 0x1 PUSH1 0x20 DUP3 ADD MSTORE PUSH2 0x6F4 DUP3 PUSH2 0xDFF DUP4 PUSH2 0x1FE1 JUMP JUMPDEST PUSH1 0x0 DUP1 PUSH2 0x146C PUSH1 0x10 DUP5 PUSH2 0x1EF7 JUMP JUMPDEST PUSH1 0x0 PUSH2 0x5C7 PUSH11 0x3937B632A6B0B730B3B2B9 PUSH1 0xA9 SHL PUSH2 0x83A JUMP JUMPDEST PUSH1 0x60 PUSH1 0x0 PUSH2 0xAAB DUP4 PUSH2 0x21DE JUMP JUMPDEST PUSH1 0x60 PUSH1 0x0 PUSH2 0x1D9A DUP4 PUSH2 0x219B JUMP JUMPDEST SWAP1 POP PUSH1 0x0 DUP2 PUSH8 0xFFFFFFFFFFFFFFFF DUP2 GT ISZERO PUSH2 0x1DB7 JUMPI PUSH2 0x1DB7 PUSH2 0x27B1 JUMP JUMPDEST PUSH1 0x40 MLOAD SWAP1 DUP1 DUP3 MSTORE DUP1 PUSH1 0x20 MUL PUSH1 0x20 ADD DUP3 ADD PUSH1 0x40 MSTORE DUP1 ISZERO PUSH2 0x1DE0 JUMPI DUP2 PUSH1 0x20 ADD PUSH1 0x20 DUP3 MUL DUP1 CALLDATASIZE DUP4 CALLDATACOPY ADD SWAP1 POP JUMPDEST POP SWAP1 POP PUSH1 0x0 JUMPDEST DUP3 DUP2 LT ISZERO PUSH2 0xA32 JUMPI PUSH2 0x1DF8 DUP6 DUP3 PUSH2 0x1E2A JUMP JUMPDEST DUP3 DUP3 DUP2 MLOAD DUP2 LT PUSH2 0x1E0A JUMPI PUSH2 0x1E0A PUSH2 0x27C7 JUMP JUMPDEST PUSH1 0x1 PUSH1 0x1 PUSH1 0xA0 SHL SUB SWAP1 SWAP3 AND PUSH1 0x20 SWAP3 DUP4 MUL SWAP2 SWAP1 SWAP2 ADD SWAP1 SWAP2 ADD MSTORE PUSH1 0x1 ADD PUSH2 0x1DE6 JUMP JUMPDEST PUSH1 0x0 PUSH2 0xAAB DUP4 DUP4 PUSH2 0x223A JUMP JUMPDEST PUSH1 0x0 DUP1 PUSH2 0x1111 DUP5 DUP5 PUSH2 0x2264 JUMP JUMPDEST PUSH2 0x1E4E PUSH1 0x7 DUP5 PUSH2 0x1EEB JUMP JUMPDEST ISZERO DUP1 ISZERO PUSH2 0x1E6E JUMPI POP PUSH16 0x34B7333630BA34B7B726B0B730B3B2B9 PUSH1 0x81 SHL DUP4 EQ ISZERO JUMPDEST PUSH1 0x40 MLOAD DUP1 PUSH1 0x40 ADD PUSH1 0x40 MSTORE DUP1 PUSH1 0x10 DUP2 MSTORE PUSH1 0x20 ADD PUSH16 0x1A5B9D985B1A5908185C99DD5B595B9D PUSH1 0x82 SHL DUP2 MSTORE POP SWAP1 PUSH2 0x1EB5 JUMPI PUSH1 0x40 MLOAD PUSH3 0x461BCD PUSH1 0xE5 SHL DUP2 MSTORE PUSH1 0x4 ADD PUSH2 0x6CB SWAP2 SWAP1 PUSH2 0x273F JUMP JUMPDEST POP PUSH2 0x6F4 DUP4 DUP4 DUP4 PUSH2 0x1FD7 JUMP JUMPDEST PUSH1 0x0 PUSH2 0xAAB DUP4 PUSH1 0x1 PUSH1 0x1 PUSH1 0xA0 SHL SUB DUP5 AND PUSH2 0x2273 JUMP JUMPDEST PUSH1 0x0 PUSH2 0xAAB DUP4 PUSH1 0x1 PUSH1 0x1 PUSH1 0xA0 SHL SUB DUP5 AND PUSH2 0x2366 JUMP JUMPDEST PUSH1 0x0 PUSH2 0xAAB DUP4 DUP4 PUSH2 0x23B5 JUMP JUMPDEST PUSH1 0x0 DUP1 DUP1 DUP1 PUSH2 0x1F0F DUP7 PUSH1 0x1 PUSH1 0x1 PUSH1 0xA0 SHL SUB DUP8 AND PUSH2 0x23C1 JUMP JUMPDEST SWAP1 SWAP5 POP SWAP3 POP POP POP JUMPDEST SWAP3 POP SWAP3 SWAP1 POP JUMP JUMPDEST PUSH1 0x0 PUSH2 0x1F29 DUP4 PUSH2 0x13C7 JUMP JUMPDEST SWAP1 POP DUP1 PUSH1 0x20 ADD MLOAD ISZERO PUSH1 0x40 MLOAD DUP1 PUSH1 0x40 ADD PUSH1 0x40 MSTORE DUP1 PUSH1 0x11 DUP2 MSTORE PUSH1 0x20 ADD PUSH17 0x30B2323932B9B99034B990333937BD32B7 PUSH1 0x79 SHL DUP2 MSTORE POP SWAP1 PUSH2 0x1F79 JUMPI PUSH1 0x40 MLOAD PUSH3 0x461BCD PUSH1 0xE5 SHL DUP2 MSTORE PUSH1 0x4 ADD PUSH2 0x6CB SWAP2 SWAP1 PUSH2 0x273F JUMP JUMPDEST POP PUSH1 0x1 PUSH1 0x1 PUSH1 0xA0 SHL SUB DUP3 AND PUSH2 0x1FA8 JUMPI POP POP PUSH1 0x0 SWAP1 DUP2 MSTORE PUSH1 0x1 PUSH1 0x20 MSTORE PUSH1 0x40 SWAP1 KECCAK256 DUP1 SLOAD PUSH1 0x1 PUSH1 0x1 PUSH1 0xA0 SHL SUB NOT AND SWAP1 SSTORE JUMP JUMPDEST POP PUSH1 0x0 SWAP2 DUP3 MSTORE PUSH1 0x1 PUSH1 0x20 MSTORE PUSH1 0x40 SWAP1 SWAP2 KECCAK256 DUP1 SLOAD PUSH1 0x1 PUSH1 0x1 PUSH1 0xA0 SHL SUB NOT AND PUSH1 0x1 PUSH1 0x1 PUSH1 0xA0 SHL SUB SWAP1 SWAP3 AND SWAP2 SWAP1 SWAP2 OR SWAP1 SSTORE JUMP JUMPDEST PUSH2 0x1FA8 DUP4 DUP3 PUSH2 0x23FB JUMP JUMPDEST PUSH1 0x0 DUP1 DUP3 PUSH1 0x0 ADD MLOAD PUSH2 0x1FF4 JUMPI PUSH1 0x0 PUSH2 0x1FF7 JUMP JUMPDEST PUSH1 0x1 JUMPDEST PUSH1 0xFF AND DUP2 OR SWAP1 POP DUP3 PUSH1 0x20 ADD MLOAD PUSH2 0x200E JUMPI PUSH1 0x0 PUSH2 0x2011 JUMP JUMPDEST PUSH1 0x2 JUMPDEST PUSH1 0xFF AND OR SWAP3 SWAP2 POP POP JUMP JUMPDEST PUSH1 0x0 PUSH2 0x146C DUP5 DUP5 DUP5 PUSH2 0x247F JUMP JUMPDEST PUSH1 0x1 PUSH1 0x1 PUSH1 0xA0 SHL SUB DUP2 AND PUSH1 0x0 SWAP1 DUP2 MSTORE PUSH1 0x1 DUP4 ADD PUSH1 0x20 MSTORE PUSH1 0x40 DUP2 KECCAK256 SLOAD ISZERO ISZERO PUSH2 0xAAB JUMP JUMPDEST PUSH1 0x0 PUSH2 0xAAB DUP4 PUSH1 0x1 PUSH1 0x1 PUSH1 0xA0 SHL SUB DUP5 AND PUSH2 0x249C JUMP JUMPDEST PUSH1 0x60 PUSH1 0x0 PUSH2 0x206C DUP4 PUSH2 0x21A5 JUMP JUMPDEST SWAP1 POP PUSH1 0x0 DUP2 PUSH8 0xFFFFFFFFFFFFFFFF DUP2 GT ISZERO PUSH2 0x2089 JUMPI PUSH2 0x2089 PUSH2 0x27B1 JUMP JUMPDEST PUSH1 0x40 MLOAD SWAP1 DUP1 DUP3 MSTORE DUP1 PUSH1 0x20 MUL PUSH1 0x20 ADD DUP3 ADD PUSH1 0x40 MSTORE DUP1 ISZERO PUSH2 0x20B2 JUMPI DUP2 PUSH1 0x20 ADD PUSH1 0x20 DUP3 MUL DUP1 CALLDATASIZE DUP4 CALLDATACOPY ADD SWAP1 POP JUMPDEST POP SWAP1 POP PUSH1 0x0 JUMPDEST DUP3 DUP2 LT ISZERO PUSH2 0xA32 JUMPI PUSH2 0x20CA DUP6 DUP3 PUSH2 0x1E36 JUMP JUMPDEST DUP3 DUP3 DUP2 MLOAD DUP2 LT PUSH2 0x20DC JUMPI PUSH2 0x20DC PUSH2 0x27C7 JUMP JUMPDEST PUSH1 0x1 PUSH1 0x1 PUSH1 0xA0 SHL SUB SWAP1 SWAP3 AND PUSH1 0x20 SWAP3 DUP4 MUL SWAP2 SWAP1 SWAP2 ADD SWAP1 SWAP2 ADD MSTORE PUSH1 0x1 ADD PUSH2 0x20B8 JUMP JUMPDEST PUSH1 0x0 DUP1 DUP1 DUP1 PUSH2 0x1F0F DUP7 DUP7 PUSH2 0x23C1 JUMP JUMPDEST PUSH1 0x60 PUSH1 0x0 PUSH2 0x2118 DUP4 PUSH2 0x21A5 JUMP JUMPDEST SWAP1 POP PUSH1 0x0 DUP2 PUSH8 0xFFFFFFFFFFFFFFFF DUP2 GT ISZERO PUSH2 0x2135 JUMPI PUSH2 0x2135 PUSH2 0x27B1 JUMP JUMPDEST PUSH1 0x40 MLOAD SWAP1 DUP1 DUP3 MSTORE DUP1 PUSH1 0x20 MUL PUSH1 0x20 ADD DUP3 ADD PUSH1 0x40 MSTORE DUP1 ISZERO PUSH2 0x215E JUMPI DUP2 PUSH1 0x20 ADD PUSH1 0x20 DUP3 MUL DUP1 CALLDATASIZE DUP4 CALLDATACOPY ADD SWAP1 POP JUMPDEST POP SWAP1 POP PUSH1 0x0 JUMPDEST DUP3 DUP2 LT ISZERO PUSH2 0xA32 JUMPI PUSH2 0x2176 DUP6 DUP3 PUSH2 0x250C JUMP JUMPDEST DUP3 DUP3 DUP2 MLOAD DUP2 LT PUSH2 0x2188 JUMPI PUSH2 0x2188 PUSH2 0x27C7 JUMP JUMPDEST PUSH1 0x20 SWAP1 DUP2 MUL SWAP2 SWAP1 SWAP2 ADD ADD MSTORE PUSH1 0x1 ADD PUSH2 0x2164 JUMP JUMPDEST PUSH1 0x0 PUSH2 0x5F1 DUP3 SLOAD SWAP1 JUMP JUMPDEST PUSH1 0x0 PUSH2 0x5F1 DUP3 PUSH2 0x2522 JUMP JUMPDEST PUSH1 0x0 PUSH2 0xAAB DUP4 PUSH1 0x1 PUSH1 0x1 PUSH1 0xA0 SHL SUB DUP5 AND PUSH2 0x23B5 JUMP JUMPDEST PUSH1 0x0 PUSH2 0x146C DUP5 PUSH1 0x1 PUSH1 0x1 PUSH1 0xA0 SHL SUB DUP1 DUP7 AND SWAP1 DUP6 AND PUSH2 0x247F JUMP JUMPDEST PUSH1 0x60 DUP2 PUSH1 0x0 ADD DUP1 SLOAD DUP1 PUSH1 0x20 MUL PUSH1 0x20 ADD PUSH1 0x40 MLOAD SWAP1 DUP2 ADD PUSH1 0x40 MSTORE DUP1 SWAP3 SWAP2 SWAP1 DUP2 DUP2 MSTORE PUSH1 0x20 ADD DUP3 DUP1 SLOAD DUP1 ISZERO PUSH2 0x222E JUMPI PUSH1 0x20 MUL DUP3 ADD SWAP2 SWAP1 PUSH1 0x0 MSTORE PUSH1 0x20 PUSH1 0x0 KECCAK256 SWAP1 JUMPDEST DUP2 SLOAD DUP2 MSTORE PUSH1 0x20 ADD SWAP1 PUSH1 0x1 ADD SWAP1 DUP1 DUP4 GT PUSH2 0x221A JUMPI JUMPDEST POP POP POP POP POP SWAP1 POP SWAP2 SWAP1 POP JUMP JUMPDEST PUSH1 0x0 DUP3 PUSH1 0x0 ADD DUP3 DUP2 SLOAD DUP2 LT PUSH2 0x2251 JUMPI PUSH2 0x2251 PUSH2 0x27C7 JUMP JUMPDEST SWAP1 PUSH1 0x0 MSTORE PUSH1 0x20 PUSH1 0x0 KECCAK256 ADD SLOAD SWAP1 POP SWAP3 SWAP2 POP POP JUMP JUMPDEST PUSH1 0x0 DUP1 DUP1 DUP1 PUSH2 0x1F0F DUP7 DUP7 PUSH2 0x252D JUMP JUMPDEST PUSH1 0x0 DUP2 DUP2 MSTORE PUSH1 0x1 DUP4 ADD PUSH1 0x20 MSTORE PUSH1 0x40 DUP2 KECCAK256 SLOAD DUP1 ISZERO PUSH2 0x235C JUMPI PUSH1 0x0 PUSH2 0x2297 PUSH1 0x1 DUP4 PUSH2 0x27DD JUMP JUMPDEST DUP6 SLOAD SWAP1 SWAP2 POP PUSH1 0x0 SWAP1 PUSH2 0x22AB SWAP1 PUSH1 0x1 SWAP1 PUSH2 0x27DD JUMP JUMPDEST SWAP1 POP DUP2 DUP2 EQ PUSH2 0x2310 JUMPI PUSH1 0x0 DUP7 PUSH1 0x0 ADD DUP3 DUP2 SLOAD DUP2 LT PUSH2 0x22CB JUMPI PUSH2 0x22CB PUSH2 0x27C7 JUMP JUMPDEST SWAP1 PUSH1 0x0 MSTORE PUSH1 0x20 PUSH1 0x0 KECCAK256 ADD SLOAD SWAP1 POP DUP1 DUP8 PUSH1 0x0 ADD DUP5 DUP2 SLOAD DUP2 LT PUSH2 0x22EE JUMPI PUSH2 0x22EE PUSH2 0x27C7 JUMP JUMPDEST PUSH1 0x0 SWAP2 DUP3 MSTORE PUSH1 0x20 DUP1 DUP4 KECCAK256 SWAP1 SWAP2 ADD SWAP3 SWAP1 SWAP3 SSTORE SWAP2 DUP3 MSTORE PUSH1 0x1 DUP9 ADD SWAP1 MSTORE PUSH1 0x40 SWAP1 KECCAK256 DUP4 SWAP1 SSTORE JUMPDEST DUP6 SLOAD DUP7 SWAP1 DUP1 PUSH2 0x2321 JUMPI PUSH2 0x2321 PUSH2 0x2802 JUMP JUMPDEST PUSH1 0x1 SWAP1 SUB DUP2 DUP2 SWAP1 PUSH1 0x0 MSTORE PUSH1 0x20 PUSH1 0x0 KECCAK256 ADD PUSH1 0x0 SWAP1 SSTORE SWAP1 SSTORE DUP6 PUSH1 0x1 ADD PUSH1 0x0 DUP7 DUP2 MSTORE PUSH1 0x20 ADD SWAP1 DUP2 MSTORE PUSH1 0x20 ADD PUSH1 0x0 KECCAK256 PUSH1 0x0 SWAP1 SSTORE PUSH1 0x1 SWAP4 POP POP POP POP PUSH2 0x5F1 JUMP JUMPDEST PUSH1 0x0 SWAP2 POP POP PUSH2 0x5F1 JUMP JUMPDEST PUSH1 0x0 DUP2 DUP2 MSTORE PUSH1 0x1 DUP4 ADD PUSH1 0x20 MSTORE PUSH1 0x40 DUP2 KECCAK256 SLOAD PUSH2 0x23AD JUMPI POP DUP2 SLOAD PUSH1 0x1 DUP2 DUP2 ADD DUP5 SSTORE PUSH1 0x0 DUP5 DUP2 MSTORE PUSH1 0x20 DUP1 DUP3 KECCAK256 SWAP1 SWAP4 ADD DUP5 SWAP1 SSTORE DUP5 SLOAD DUP5 DUP3 MSTORE DUP3 DUP7 ADD SWAP1 SWAP4 MSTORE PUSH1 0x40 SWAP1 KECCAK256 SWAP2 SWAP1 SWAP2 SSTORE PUSH2 0x5F1 JUMP JUMPDEST POP PUSH1 0x0 PUSH2 0x5F1 JUMP JUMPDEST PUSH1 0x0 PUSH2 0xAAB DUP4 DUP4 PUSH2 0x2558 JUMP JUMPDEST PUSH1 0x0 DUP2 DUP2 MSTORE PUSH1 0x2 DUP4 ADD PUSH1 0x20 MSTORE PUSH1 0x40 DUP2 KECCAK256 SLOAD DUP2 SWAP1 DUP1 PUSH2 0x23F0 JUMPI PUSH2 0x23E3 DUP6 DUP6 PUSH2 0x23B5 JUMP JUMPDEST SWAP3 POP PUSH1 0x0 SWAP2 POP PUSH2 0x1F17 SWAP1 POP JUMP JUMPDEST PUSH1 0x1 SWAP3 POP SWAP1 POP PUSH2 0x1F17 JUMP JUMPDEST PUSH2 0x2408 DUP3 PUSH2 0xDFF DUP4 PUSH2 0x1FE1 JUMP JUMPDEST PUSH1 0x40 MLOAD DUP1 PUSH1 0x40 ADD PUSH1 0x40 MSTORE DUP1 PUSH1 0x10 DUP2 MSTORE PUSH1 0x20 ADD PUSH16 0x1A5B9D985B1A5908185C99DD5B595B9D PUSH1 0x82 SHL DUP2 MSTORE POP SWAP1 PUSH2 0x244F JUMPI PUSH1 0x40 MLOAD PUSH3 0x461BCD PUSH1 0xE5 SHL DUP2 MSTORE PUSH1 0x4 ADD PUSH2 0x6CB SWAP2 SWAP1 PUSH2 0x273F JUMP JUMPDEST POP PUSH1 0x40 MLOAD DUP3 SWAP1 PUSH32 0xDE8C1E2EDD3EBB03A4489213A39C3B46B6B90669A8AE9ABE1D175DCD915D5DB SWAP1 PUSH1 0x0 SWAP1 LOG2 POP POP JUMP JUMPDEST PUSH1 0x0 DUP3 DUP2 MSTORE PUSH1 0x2 DUP5 ADD PUSH1 0x20 MSTORE PUSH1 0x40 DUP2 KECCAK256 DUP3 SWAP1 SSTORE PUSH2 0x146C DUP5 DUP5 PUSH2 0x2570 JUMP JUMPDEST PUSH1 0x0 DUP2 DUP2 MSTORE PUSH1 0x2 DUP4 ADD PUSH1 0x20 MSTORE PUSH1 0x40 DUP2 KECCAK256 SLOAD DUP1 ISZERO ISZERO DUP1 PUSH2 0x24C0 JUMPI POP PUSH2 0x24C0 DUP5 DUP5 PUSH2 0x23B5 JUMP JUMPDEST PUSH2 0xAAB JUMPI PUSH1 0x40 MLOAD PUSH3 0x461BCD PUSH1 0xE5 SHL DUP2 MSTORE PUSH1 0x20 PUSH1 0x4 DUP3 ADD MSTORE PUSH1 0x1E PUSH1 0x24 DUP3 ADD MSTORE PUSH32 0x456E756D657261626C654D61703A206E6F6E6578697374656E74206B65790000 PUSH1 0x44 DUP3 ADD MSTORE PUSH1 0x64 ADD PUSH2 0x6CB JUMP JUMPDEST PUSH1 0x0 DUP1 PUSH2 0x2519 DUP5 DUP5 PUSH2 0x2264 JUMP JUMPDEST POP SWAP5 SWAP4 POP POP POP POP JUMP JUMPDEST PUSH1 0x0 PUSH2 0x5F1 DUP3 PUSH2 0x219B JUMP JUMPDEST PUSH1 0x0 DUP1 DUP1 PUSH2 0x253B DUP6 DUP6 PUSH2 0x1E2A JUMP JUMPDEST PUSH1 0x0 DUP2 DUP2 MSTORE PUSH1 0x2 SWAP7 SWAP1 SWAP7 ADD PUSH1 0x20 MSTORE PUSH1 0x40 SWAP1 SWAP6 KECCAK256 SLOAD SWAP5 SWAP6 SWAP4 POP POP POP POP JUMP JUMPDEST PUSH1 0x0 DUP2 DUP2 MSTORE PUSH1 0x1 DUP4 ADD PUSH1 0x20 MSTORE PUSH1 0x40 DUP2 KECCAK256 SLOAD ISZERO ISZERO PUSH2 0xAAB JUMP JUMPDEST PUSH1 0x0 PUSH2 0xAAB DUP4 DUP4 PUSH2 0x2366 JUMP JUMPDEST PUSH1 0x20 DUP1 DUP3 MSTORE DUP3 MLOAD DUP3 DUP3 ADD DUP2 SWAP1 MSTORE PUSH1 0x0 SWAP2 SWAP1 DUP5 DUP3 ADD SWAP1 PUSH1 0x40 DUP6 ADD SWAP1 DUP5 JUMPDEST DUP2 DUP2 LT ISZERO PUSH2 0x25BD JUMPI DUP4 MLOAD PUSH1 0x1 PUSH1 0x1 PUSH1 0xA0 SHL SUB AND DUP4 MSTORE SWAP3 DUP5 ADD SWAP3 SWAP2 DUP5 ADD SWAP2 PUSH1 0x1 ADD PUSH2 0x2598 JUMP JUMPDEST POP SWAP1 SWAP7 SWAP6 POP POP POP POP POP POP JUMP JUMPDEST PUSH1 0x0 PUSH1 0x20 DUP3 DUP5 SUB SLT ISZERO PUSH2 0x25DB JUMPI PUSH1 0x0 DUP1 REVERT JUMPDEST POP CALLDATALOAD SWAP2 SWAP1 POP JUMP JUMPDEST PUSH1 0x1 PUSH1 0x1 PUSH1 0xA0 SHL SUB DUP2 AND DUP2 EQ PUSH2 0x25F7 JUMPI PUSH1 0x0 DUP1 REVERT JUMPDEST POP JUMP JUMPDEST PUSH1 0x0 DUP1 PUSH1 0x40 DUP4 DUP6 SUB SLT ISZERO PUSH2 0x260D JUMPI PUSH1 0x0 DUP1 REVERT JUMPDEST DUP3 CALLDATALOAD SWAP2 POP PUSH1 0x20 DUP4 ADD CALLDATALOAD PUSH2 0x261F DUP2 PUSH2 0x25E2 JUMP JUMPDEST DUP1 SWAP2 POP POP SWAP3 POP SWAP3 SWAP1 POP JUMP JUMPDEST PUSH1 0x0 DUP1 PUSH1 0x40 DUP4 DUP6 SUB SLT ISZERO PUSH2 0x263D JUMPI PUSH1 0x0 DUP1 REVERT JUMPDEST DUP3 CALLDATALOAD PUSH2 0x2648 DUP2 PUSH2 0x25E2 JUMP JUMPDEST SWAP2 POP PUSH1 0x20 DUP4 ADD CALLDATALOAD PUSH2 0x261F DUP2 PUSH2 0x25E2 JUMP JUMPDEST PUSH1 0x0 PUSH1 0x20 DUP3 DUP5 SUB SLT ISZERO PUSH2 0x266A JUMPI PUSH1 0x0 DUP1 REVERT JUMPDEST DUP2 CALLDATALOAD PUSH2 0xAAB DUP2 PUSH2 0x25E2 JUMP JUMPDEST DUP1 ISZERO ISZERO DUP2 EQ PUSH2 0x25F7 JUMPI PUSH1 0x0 DUP1 REVERT JUMPDEST PUSH1 0x0 DUP1 PUSH1 0x0 PUSH1 0x60 DUP5 DUP7 SUB SLT ISZERO PUSH2 0x2698 JUMPI PUSH1 0x0 DUP1 REVERT JUMPDEST DUP4 CALLDATALOAD SWAP3 POP PUSH1 0x20 DUP5 ADD CALLDATALOAD PUSH2 0x26AA DUP2 PUSH2 0x25E2 JUMP JUMPDEST SWAP2 POP PUSH1 0x40 DUP5 ADD CALLDATALOAD PUSH2 0x26BA DUP2 PUSH2 0x2675 JUMP JUMPDEST DUP1 SWAP2 POP POP SWAP3 POP SWAP3 POP SWAP3 JUMP JUMPDEST PUSH1 0x20 DUP1 DUP3 MSTORE DUP3 MLOAD DUP3 DUP3 ADD DUP2 SWAP1 MSTORE PUSH1 0x0 SWAP2 SWAP1 DUP5 DUP3 ADD SWAP1 PUSH1 0x40 DUP6 ADD SWAP1 DUP5 JUMPDEST DUP2 DUP2 LT ISZERO PUSH2 0x25BD JUMPI DUP4 MLOAD DUP4 MSTORE SWAP3 DUP5 ADD SWAP3 SWAP2 DUP5 ADD SWAP2 PUSH1 0x1 ADD PUSH2 0x26E1 JUMP JUMPDEST PUSH1 0x0 DUP1 PUSH1 0x40 DUP4 DUP6 SUB SLT ISZERO PUSH2 0x2710 JUMPI PUSH1 0x0 DUP1 REVERT JUMPDEST DUP3 CALLDATALOAD SWAP2 POP PUSH1 0x20 DUP4 ADD CALLDATALOAD PUSH2 0x261F DUP2 PUSH2 0x2675 JUMP JUMPDEST PUSH1 0x0 PUSH1 0x20 DUP3 DUP5 SUB SLT ISZERO PUSH2 0x2734 JUMPI PUSH1 0x0 DUP1 REVERT JUMPDEST DUP2 MLOAD PUSH2 0xAAB DUP2 PUSH2 0x2675 JUMP JUMPDEST PUSH1 0x0 PUSH1 0x20 DUP1 DUP4 MSTORE DUP4 MLOAD DUP1 DUP3 DUP6 ADD MSTORE PUSH1 0x0 JUMPDEST DUP2 DUP2 LT ISZERO PUSH2 0x276C JUMPI DUP6 DUP2 ADD DUP4 ADD MLOAD DUP6 DUP3 ADD PUSH1 0x40 ADD MSTORE DUP3 ADD PUSH2 0x2750 JUMP JUMPDEST DUP2 DUP2 GT ISZERO PUSH2 0x277E JUMPI PUSH1 0x0 PUSH1 0x40 DUP4 DUP8 ADD ADD MSTORE JUMPDEST POP PUSH1 0x1F ADD PUSH1 0x1F NOT AND SWAP3 SWAP1 SWAP3 ADD PUSH1 0x40 ADD SWAP4 SWAP3 POP POP POP JUMP JUMPDEST PUSH1 0x0 PUSH1 0x20 DUP3 DUP5 SUB SLT ISZERO PUSH2 0x27A6 JUMPI PUSH1 0x0 DUP1 REVERT JUMPDEST DUP2 MLOAD PUSH2 0xAAB DUP2 PUSH2 0x25E2 JUMP JUMPDEST PUSH4 0x4E487B71 PUSH1 0xE0 SHL PUSH1 0x0 MSTORE PUSH1 0x41 PUSH1 0x4 MSTORE PUSH1 0x24 PUSH1 0x0 REVERT JUMPDEST PUSH4 0x4E487B71 PUSH1 0xE0 SHL PUSH1 0x0 MSTORE PUSH1 0x32 PUSH1 0x4 MSTORE PUSH1 0x24 PUSH1 0x0 REVERT JUMPDEST PUSH1 0x0 DUP3 DUP3 LT ISZERO PUSH2 0x27FD JUMPI PUSH4 0x4E487B71 PUSH1 0xE0 SHL PUSH1 0x0 MSTORE PUSH1 0x11 PUSH1 0x4 MSTORE PUSH1 0x24 PUSH1 0x0 REVERT JUMPDEST POP SUB SWAP1 JUMP JUMPDEST PUSH4 0x4E487B71 PUSH1 0xE0 SHL PUSH1 0x0 MSTORE PUSH1 0x31 PUSH1 0x4 MSTORE PUSH1 0x24 PUSH1 0x0 REVERT INVALID PUSH2 0x2073 PUSH21 0x616B6572207661756C7420616C7265616479206578 PUSH10 0x73747320666F72207468 PUSH6 0x20746F6B656E PUSH22 0x6E617574686F72697A65642061636365737300000000 STOP STOP STOP STOP STOP STOP STOP STOP STOP LOG2 PUSH5 0x6970667358 0x22 SLT KECCAK256 SELFBALANCE SWAP15 EQ 0x2E PUSH11 0x49508E69593E8C26EFB482 0xBF 0xC3 0xAC PUSH7 0xEA9E6EAD2CE579 0xB9 PUSH11 0xA81EAC64736F6C63430008 EXP STOP CALLER ","sha1":"fda61bc485ea91f235a24d2e8d5e1081cb00dea0","source":"// SPDX-License-Identifier: GPL-3.0-or-later\npragma solidity 0.8.10;\n\nimport \"@openzeppelin/contracts-upgradeable/proxy/utils/Initializable.sol\";\n\nimport \"../interfaces/IGasBank.sol\";\nimport \"../interfaces/IAddressProvider.sol\";\nimport \"../interfaces/IStakerVault.sol\";\nimport \"../interfaces/oracles/IOracleProvider.sol\";\n\nimport \"../libraries/EnumerableExtensions.sol\";\nimport \"../libraries/EnumerableMapping.sol\";\nimport \"../libraries/AddressProviderKeys.sol\";\nimport \"../libraries/AddressProviderMeta.sol\";\nimport \"../libraries/Roles.sol\";\n\nimport \"./access/AuthorizationBase.sol\";\n\n// solhint-disable ordering\n\ncontract AddressProvider is IAddressProvider, AuthorizationBase, Initializable {\n    using EnumerableMapping for EnumerableMapping.AddressToAddressMap;\n    using EnumerableMapping for EnumerableMapping.Bytes32ToUIntMap;\n    using EnumerableSet for EnumerableSet.AddressSet;\n    using EnumerableSet for EnumerableSet.Bytes32Set;\n    using EnumerableExtensions for EnumerableSet.AddressSet;\n    using EnumerableExtensions for EnumerableSet.Bytes32Set;\n    using EnumerableExtensions for EnumerableMapping.AddressToAddressMap;\n    using EnumerableExtensions for EnumerableMapping.Bytes32ToUIntMap;\n    using AddressProviderMeta for AddressProviderMeta.Meta;\n\n    mapping(bytes32 => address) public currentAddresses;\n\n    // LpToken -> stakerVault\n    EnumerableMapping.AddressToAddressMap internal _stakerVaults;\n\n    EnumerableSet.AddressSet internal _whiteListedFeeHandlers;\n\n    // value is encoded as (bool freezable, bool frozen)\n    EnumerableMapping.Bytes32ToUIntMap internal _addressKeyMetas;\n\n    EnumerableSet.AddressSet internal _actions; // list of all actions ever registered\n\n    EnumerableSet.AddressSet internal _activeActions; // list of active actions\n\n    EnumerableSet.AddressSet internal _vaults; // list of all active vaults\n\n    EnumerableMapping.AddressToAddressMap internal _tokenToPools;\n\n    event AddressUpdated(bytes32 key, address newAddress);\n\n    function initialize(address roleManager_, address treasury_) external override initializer {\n        AddressProviderMeta.Meta memory metaTreasury = AddressProviderMeta.Meta(true, false);\n        _addressKeyMetas.set(AddressProviderKeys._TREASURY_KEY, metaTreasury.toUInt());\n        currentAddresses[AddressProviderKeys._TREASURY_KEY] = treasury_;\n\n        AddressProviderMeta.Meta memory metaRoleManger = AddressProviderMeta.Meta(true, true);\n        _addressKeyMetas.set(AddressProviderKeys._ROLE_MANAGER_KEY, metaRoleManger.toUInt());\n        currentAddresses[AddressProviderKeys._ROLE_MANAGER_KEY] = roleManager_;\n    }\n\n    function getKnownAddressKeys() external view override returns (bytes32[] memory) {\n        return _addressKeyMetas.keysArray();\n    }\n\n    function addFeeHandler(address feeHandler) external override onlyGovernance {\n        require(!_whiteListedFeeHandlers.contains(feeHandler), Error.ADDRESS_WHITELISTED);\n        _whiteListedFeeHandlers.add(feeHandler);\n        emit FeeHandlerAdded(feeHandler);\n    }\n\n    function removeFeeHandler(address feeHandler) external override onlyGovernance {\n        require(_whiteListedFeeHandlers.contains(feeHandler), Error.ADDRESS_NOT_WHITELISTED);\n        _whiteListedFeeHandlers.remove(feeHandler);\n        emit FeeHandlerRemoved(feeHandler);\n    }\n\n    /**\n     * @notice Adds action.\n     * @param action Address of action to add.\n     */\n    function addAction(address action) external override onlyGovernance returns (bool) {\n        bool result = _actions.add(action);\n        if (result) {\n            _activeActions.add(action);\n            emit ActionListed(action);\n        }\n        return result;\n    }\n\n    /**\n     * @notice Shutdowns an action.\n     * @param action Address of action to shutdown.\n     */\n    function shutdownAction(address action) external override onlyRole(Roles.CONTROLLER) {\n        require(_activeActions.contains(action), Error.ACTION_NOT_ACTIVE);\n        _activeActions.remove(action);\n\n        emit ActionShutdown(action);\n    }\n\n    /**\n     * @notice Adds pool.\n     * @param pool Address of pool to add.\n     */\n    function addPool(address pool)\n        external\n        override\n        onlyRoles2(Roles.POOL_FACTORY, Roles.GOVERNANCE)\n    {\n        require(pool != address(0), Error.ZERO_ADDRESS_NOT_ALLOWED);\n\n        ILiquidityPool ipool = ILiquidityPool(pool);\n        address poolToken = ipool.getLpToken();\n        require(poolToken != address(0), Error.ZERO_ADDRESS_NOT_ALLOWED);\n        if (_tokenToPools.set(poolToken, pool)) {\n            address vault = address(ipool.vault());\n            if (vault != address(0)) {\n                _vaults.add(vault);\n            }\n            emit PoolListed(pool);\n        }\n    }\n\n    /** Vault functions  */\n\n    /**\n     * @notice returns all the registered vaults\n     */\n    function allVaults() external view override returns (address[] memory) {\n        return _vaults.toArray();\n    }\n\n    /**\n     * @notice returns the vault at the given index\n     */\n    function getVaultAtIndex(uint256 index) external view override returns (address) {\n        return _vaults.at(index);\n    }\n\n    /**\n     * @notice returns the number of vaults\n     */\n    function vaultsCount() external view override returns (uint256) {\n        return _vaults.length();\n    }\n\n    function isVault(address vault) external view override returns (bool) {\n        return _vaults.contains(vault);\n    }\n\n    function updateVault(address previousVault, address newVault)\n        external\n        override\n        onlyRole(Roles.POOL)\n    {\n        if (previousVault != address(0)) {\n            _vaults.remove(previousVault);\n        }\n        if (newVault != address(0)) {\n            _vaults.add(newVault);\n        }\n        emit VaultUpdated(previousVault, newVault);\n    }\n\n    /**\n     * @notice Returns the address for the given key\n     */\n    function getAddress(bytes32 key) public view override returns (address) {\n        require(_addressKeyMetas.contains(key), Error.ADDRESS_DOES_NOT_EXIST);\n        return currentAddresses[key];\n    }\n\n    /**\n     * @notice Returns the address for the given key\n     * @dev if `checkExists` is true, it will fail if the key does not exist\n     */\n    function getAddress(bytes32 key, bool checkExists) public view override returns (address) {\n        require(!checkExists || _addressKeyMetas.contains(key), Error.ADDRESS_DOES_NOT_EXIST);\n        return currentAddresses[key];\n    }\n\n    /**\n     * @notice returns the address metadata for the given key\n     */\n    function getAddressMeta(bytes32 key)\n        public\n        view\n        override\n        returns (AddressProviderMeta.Meta memory)\n    {\n        (bool exists, uint256 metadata) = _addressKeyMetas.tryGet(key);\n        require(exists, Error.ADDRESS_DOES_NOT_EXIST);\n        return AddressProviderMeta.fromUInt(metadata);\n    }\n\n    function initializeAddress(bytes32 key, address initialAddress) external override {\n        initializeAddress(key, initialAddress, false);\n    }\n\n    /**\n     * @notice Initializes the address of the inflation manager\n     * This can only be called by the controller\n     */\n    function initializeInflationManager(address initialAddress) external override onlyGovernance {\n        require(\n            !_addressKeyMetas.contains(AddressProviderKeys._INFLATION_MANAGER_KEY),\n            Error.INVALID_ARGUMENT\n        );\n        AddressProviderMeta.Meta memory meta = AddressProviderMeta.Meta(true, true);\n        _initializeAddressNoCheck(AddressProviderKeys._INFLATION_MANAGER_KEY, initialAddress, meta);\n    }\n\n    /**\n     * @notice Initializes an address\n     * @param key Key to initialize\n     * @param initialAddress Address for `key`\n     */\n    function initializeAddress(\n        bytes32 key,\n        address initialAddress,\n        bool freezable\n    ) public override onlyGovernance {\n        AddressProviderMeta.Meta memory meta = AddressProviderMeta.Meta(freezable, false);\n        _initializeAddress(key, initialAddress, meta);\n    }\n\n    /**\n     * @notice Initializes and freezes address\n     * @param key Key to initialize\n     * @param initialAddress Address for `key`\n     */\n    function initializeAndFreezeAddress(bytes32 key, address initialAddress)\n        external\n        override\n        onlyGovernance\n    {\n        AddressProviderMeta.Meta memory meta = AddressProviderMeta.Meta(true, true);\n        _initializeAddress(key, initialAddress, meta);\n    }\n\n    /**\n     * @notice Freezes a configuration key, making it immutable\n     * @param key Key to freeze\n     */\n    function freezeAddress(bytes32 key) external override onlyGovernance {\n        AddressProviderMeta.Meta memory meta = getAddressMeta(key);\n        require(!meta.frozen, Error.ADDRESS_FROZEN);\n        require(meta.freezable, Error.INVALID_ARGUMENT);\n        meta.frozen = true;\n        _addressKeyMetas.set(key, meta.toUInt());\n    }\n\n    /**\n     * @notice Update an address\n     * @param key Key to update\n     * @param newAddress New address for `key`\n     */\n    function updateAddress(bytes32 key, address newAddress) external override onlyGovernance {\n        _updateAddress(key, newAddress);\n        emit AddressUpdated(key, newAddress);\n    }\n\n    /**\n     * @notice Add a new staker vault.\n     * @dev This fails if the token of the staker vault is the token of an existing staker vault.\n     * @param stakerVault Vault to add.\n     */\n    function addStakerVault(address stakerVault) external override onlyRole(Roles.CONTROLLER) {\n        address token = IStakerVault(stakerVault).getToken();\n        require(token != address(0), Error.ZERO_ADDRESS_NOT_ALLOWED);\n        require(!_stakerVaults.contains(token), Error.STAKER_VAULT_EXISTS);\n        _stakerVaults.set(token, stakerVault);\n        emit StakerVaultListed(stakerVault);\n    }\n\n    function isWhiteListedFeeHandler(address feeHandler) external view override returns (bool) {\n        return _whiteListedFeeHandlers.contains(feeHandler);\n    }\n\n    /**\n     * @notice Get the liquidity pool for a given token\n     * @dev Does not revert if the pool does not exist\n     * @param token Token for which to get the pool.\n     * @return Pool address.\n     */\n    function safeGetPoolForToken(address token) external view override returns (address) {\n        (, address poolAddress) = _tokenToPools.tryGet(token);\n        return poolAddress;\n    }\n\n    /**\n     * @notice Get the liquidity pool for a given token\n     * @dev Reverts if the pool does not exist\n     * @param token Token for which to get the pool.\n     * @return Pool address.\n     */\n    function getPoolForToken(address token) external view override returns (ILiquidityPool) {\n        (bool exists, address poolAddress) = _tokenToPools.tryGet(token);\n        require(exists, Error.ADDRESS_NOT_FOUND);\n        return ILiquidityPool(poolAddress);\n    }\n\n    /**\n     * @notice Get list of all action addresses.\n     * @return Array with action addresses.\n     */\n    function allActions() external view override returns (address[] memory) {\n        return _actions.values();\n    }\n\n    /**\n     * @notice Get list of all active action addresses.\n     * @return Array with active action addresses.\n     */\n    function allActiveActions() external view override returns (address[] memory) {\n        return _activeActions.values();\n    }\n\n    /**\n     * @return the total number of actions\n     */\n    function actionsCount() external view override returns (uint256) {\n        return _actions.length();\n    }\n\n    /**\n     * @notice returns the action at the given index\n     */\n    function getActionAtIndex(uint256 index) external view override returns (address) {\n        return _actions.at(index);\n    }\n\n    /**\n     * @notice Check whether an address is an action.\n     * @param action Address to check.\n     * @return True if address is an action.\n     */\n    function isAction(address action) external view override returns (bool) {\n        return _actions.contains(action);\n    }\n\n    /**\n     * @notice Check whether an address is an active action.\n     * @param action Address to check.\n     * @return True if address is an active action.\n     */\n    function isActiveAction(address action) external view override returns (bool) {\n        return _activeActions.contains(action);\n    }\n\n    /**\n     * @notice Check whether an address is a pool.\n     * @param pool Address to check whether it is a pool.\n     * @return True if address is a pool.\n     */\n    function isPool(address pool) external view override returns (bool) {\n        address lpToken = ILiquidityPool(pool).getLpToken();\n        (bool exists, address poolAddress) = _tokenToPools.tryGet(lpToken);\n        return exists && pool == poolAddress;\n    }\n\n    /**\n     * @notice Get list of all pool addresses.\n     * @return Array with pool addresses.\n     */\n    function allPools() external view override returns (address[] memory) {\n        return _tokenToPools.valuesArray();\n    }\n\n    /**\n     * @notice returns the pool at the given index\n     */\n    function getPoolAtIndex(uint256 index) external view override returns (address) {\n        return _tokenToPools.valueAt(index);\n    }\n\n    /**\n     * @notice returns the number of pools\n     */\n    function poolsCount() external view override returns (uint256) {\n        return _tokenToPools.length();\n    }\n\n    /**\n     * @notice Returns all the staker vaults.\n     */\n    function allStakerVaults() external view override returns (address[] memory) {\n        return _stakerVaults.valuesArray();\n    }\n\n    /**\n     * @notice Get the staker vault for a given token\n     * @dev There can only exist one staker vault per unique token.\n     * @param token Token for which to get the vault.\n     * @return Vault address.\n     */\n    function getStakerVault(address token) external view override returns (address) {\n        return _stakerVaults.get(token);\n    }\n\n    /**\n     * @notice Tries to get the staker vault for a given token but does not throw if it does not exist\n     * @return A boolean set to true if the vault exists and the vault address.\n     */\n    function tryGetStakerVault(address token) external view override returns (bool, address) {\n        return _stakerVaults.tryGet(token);\n    }\n\n    /**\n     * @notice Check if a vault is registered (exists).\n     * @param stakerVault Address of staker vault to check.\n     * @return `true` if registered, `false` if not.\n     */\n    function isStakerVaultRegistered(address stakerVault) external view override returns (bool) {\n        address token = IStakerVault(stakerVault).getToken();\n        return isStakerVault(stakerVault, token);\n    }\n\n    function isStakerVault(address stakerVault, address token) public view override returns (bool) {\n        (bool exists, address vault) = _stakerVaults.tryGet(token);\n        return exists && vault == stakerVault;\n    }\n\n    function _updateAddress(bytes32 key, address newAddress) internal {\n        AddressProviderMeta.Meta memory meta = getAddressMeta(key);\n        require(!meta.frozen, Error.ADDRESS_FROZEN);\n        if (newAddress == address(0)) {\n            delete currentAddresses[key];\n            return;\n        }\n        currentAddresses[key] = newAddress;\n    }\n\n    function _roleManager() internal view override returns (IRoleManager) {\n        return IRoleManager(getAddress(AddressProviderKeys._ROLE_MANAGER_KEY));\n    }\n\n    function _initializeAddress(\n        bytes32 key,\n        address initialAddress,\n        AddressProviderMeta.Meta memory meta\n    ) internal {\n        require(\n            !_addressKeyMetas.contains(key) && key != AddressProviderKeys._INFLATION_MANAGER_KEY,\n            Error.INVALID_ARGUMENT\n        );\n        _initializeAddressNoCheck(key, initialAddress, meta);\n    }\n\n    function _initializeAddressNoCheck(\n        bytes32 key,\n        address initialAddress,\n        AddressProviderMeta.Meta memory meta\n    ) internal {\n        _addKnownAddressKey(key, meta);\n        currentAddresses[key] = initialAddress;\n    }\n\n    function _addKnownAddressKey(bytes32 key, AddressProviderMeta.Meta memory meta) internal {\n        require(_addressKeyMetas.set(key, meta.toUInt()), Error.INVALID_ARGUMENT);\n        emit KnownAddressKeyAdded(key);\n    }\n}\n","sourcePath":"contracts/AddressProvider.sol","type":"contract","deployment":{"address":"0x459f15ba473bF1f0233E0753CF61cFB36ABFbcb9","chainid":"42","blockHeight":33231402}}