{"abi":[{"inputs":[{"internalType":"address","name":"topupAction_","type":"address"}],"stateMutability":"nonpayable","type":"constructor","name":"constructor"},{"inputs":[{"components":[{"internalType":"address","name":"payer","type":"address"},{"internalType":"bytes32","name":"account","type":"bytes32"},{"internalType":"bytes32","name":"protocol","type":"bytes32"}],"internalType":"struct ITopUpAction.RecordKey[]","name":"keys","type":"tuple[]"}],"name":"batchCanExecute","outputs":[{"internalType":"bool[]","name":"","type":"bool[]"}],"stateMutability":"view","type":"function"},{"inputs":[{"components":[{"internalType":"address","name":"payer","type":"address"},{"internalType":"bytes32","name":"account","type":"bytes32"},{"internalType":"bytes32","name":"protocol","type":"bytes32"}],"internalType":"struct ITopUpAction.RecordKey","name":"key","type":"tuple"}],"name":"canExecute","outputs":[{"internalType":"bool","name":"","type":"bool"}],"stateMutability":"view","type":"function"},{"inputs":[{"internalType":"uint256","name":"cursor","type":"uint256"},{"internalType":"uint256","name":"howMany","type":"uint256"}],"name":"getExecutableTopups","outputs":[{"components":[{"internalType":"address","name":"payer","type":"address"},{"internalType":"bytes32","name":"account","type":"bytes32"},{"internalType":"bytes32","name":"protocol","type":"bytes32"},{"components":[{"internalType":"uint64","name":"threshold","type":"uint64"},{"internalType":"uint64","name":"priorityFee","type":"uint64"},{"internalType":"uint64","name":"maxFee","type":"uint64"},{"internalType":"uint64","name":"registeredAt","type":"uint64"},{"internalType":"address","name":"actionToken","type":"address"},{"internalType":"address","name":"depositToken","type":"address"},{"internalType":"uint128","name":"singleTopUpAmount","type":"uint128"},{"internalType":"uint128","name":"totalTopUpAmount","type":"uint128"},{"internalType":"uint128","name":"depositTokenBalance","type":"uint128"},{"internalType":"bytes","name":"extra","type":"bytes"}],"internalType":"struct ITopUpAction.Record","name":"record","type":"tuple"}],"internalType":"struct ITopUpKeeperHelper.TopupData[]","name":"topups","type":"tuple[]"},{"internalType":"uint256","name":"nextCursor","type":"uint256"}],"stateMutability":"view","type":"function"},{"inputs":[{"internalType":"address","name":"payer","type":"address"}],"name":"listPositions","outputs":[{"components":[{"internalType":"bytes32","name":"account","type":"bytes32"},{"internalType":"bytes32","name":"protocol","type":"bytes32"},{"components":[{"internalType":"uint64","name":"threshold","type":"uint64"},{"internalType":"uint64","name":"priorityFee","type":"uint64"},{"internalType":"uint64","name":"maxFee","type":"uint64"},{"internalType":"uint64","name":"registeredAt","type":"uint64"},{"internalType":"address","name":"actionToken","type":"address"},{"internalType":"address","name":"depositToken","type":"address"},{"internalType":"uint128","name":"singleTopUpAmount","type":"uint128"},{"internalType":"uint128","name":"totalTopUpAmount","type":"uint128"},{"internalType":"uint128","name":"depositTokenBalance","type":"uint128"},{"internalType":"bytes","name":"extra","type":"bytes"}],"internalType":"struct ITopUpAction.Record","name":"record","type":"tuple"}],"internalType":"struct ITopUpAction.RecordWithMeta[]","name":"","type":"tuple[]"}],"stateMutability":"view","type":"function"}],"bytecode":"60a060405234801561001057600080fd5b506040516112e43803806112e483398101604081905261002f91610040565b6001600160a01b0316608052610070565b60006020828403121561005257600080fd5b81516001600160a01b038116811461006957600080fd5b9392505050565b60805161123d6100a7600039600081816101030152818161024f015281816103910152818161065701526106ff015261123d6000f3fe608060405234801561001057600080fd5b506004361061004c5760003560e01c806312a07db014610051578063b1ac7d391461007a578063b6494fda1461009b578063c8b2ca6b146100bb575b600080fd5b61006461005f3660046109d4565b6100de565b6040516100719190610b53565b60405180910390f35b61008d610088366004610bd2565b610315565b604051610071929190610bf4565b6100ae6100a9366004610c8d565b610565565b6040516100719190610d01565b6100ce6100c9366004610dd8565b61061a565b6040519015158152602001610071565b604051632a6bc2dd60e01b81526001600160a01b0382811660048301526060916000917f00000000000000000000000000000000000000000000000000000000000000001690632a6bc2dd90602401600060405180830381865afa15801561014a573d6000803e3d6000fd5b505050506040513d6000823e601f3d908101601f191682016040526101729190810190610e5c565b80519091506000816001600160401b0381111561019157610191610d47565b6040519080825280602002602001820160405280156101ca57816020015b6101b76108d5565b8152602001906001900390816101af5790505b50905060005b8281101561030c5760008482815181106101ec576101ec610f16565b6020026020010151600001519050600085838151811061020e5761020e610f16565b60209081029190910181015101516040516359c442c760e01b81526001600160a01b038a8116600483015260248201859052604482018390529192506000917f000000000000000000000000000000000000000000000000000000000000000016906359c442c790606401600060405180830381865afa158015610296573d6000803e3d6000fd5b505050506040513d6000823e601f3d908101601f191682016040526102be9190810190610fd5565b90506040518060600160405280848152602001838152602001828152508585815181106102ed576102ed610f16565b60200260200101819052505050506103058160010190565b90506101d0565b50949350505050565b6060600080836001600160401b0381111561033257610332610d47565b60405190808252806020026020018201604052801561036b57816020015b61035861094a565b8152602001906001900390816103505790505b50905060005b604051630c84ce0d60e41b815260048101879052602481018690526000907f00000000000000000000000000000000000000000000000000000000000000006001600160a01b03169063c84ce0d090604401600060405180830381865afa1580156103e0573d6000803e3d6000fd5b505050506040513d6000823e601f3d908101601f1916820160405261040891908101906110e0565b50905080516000141561042d5761041f83836107b0565b60009450945050505061055e565b60005b815181101561054b57600082828151811061044d5761044d610f16565b602002602001015190506000610462826100de565b905060005b815181101561053757600082828151811061048457610484610f16565b60200260200101519050610498848261085b565b6104a2575061052f565b6104ac8482610898565b8888815181106104be576104be610f16565b60200260200101819052506104d38760010190565b96506000600184516104e59190611197565b83146104f25760006104f5565b60015b60ff1690508b88141561052c578881878f61051091906111ae565b61051a91906111ae565b9a509a5050505050505050505061055e565b50505b600101610467565b5050506105448160010190565b9050610430565b5061055686886111ae565b965050610371565b9250929050565b60606000826001600160401b0381111561058157610581610d47565b6040519080825280602002602001820160405280156105aa578160200160208202803683370190505b50905060005b8381101561061257368585838181106105cb576105cb610f16565b90506060020190506105e7818036038101906100c99190610dd8565b8383815181106105f9576105f9610f16565b91151560209283029190910190910152506001016105b0565b509392505050565b8051602082015160408084015190516359c442c760e01b81526001600160a01b0393841660048201526024810192909252604482015260009182917f0000000000000000000000000000000000000000000000000000000000000000909116906359c442c790606401600060405180830381865afa1580156106a0573d6000803e3d6000fd5b505050506040513d6000823e601f3d908101601f191682016040526106c89190810190610fd5565b80519091506001600160401b031615806106ed575060e08101516001600160801b0316155b156106fb5750600092915050565b60007f00000000000000000000000000000000000000000000000000000000000000006001600160a01b031663779b6620856040015186602001518561012001516040518463ffffffff1660e01b815260040161075a939291906111c6565b602060405180830381865afa158015610777573d6000803e3d6000fd5b505050506040513d601f19601f8201168201806040525081019061079b91906111ee565b91516001600160401b03169091109392505050565b60606000826001600160401b038111156107cc576107cc610d47565b60405190808252806020026020018201604052801561080557816020015b6107f261094a565b8152602001906001900390816107ea5790505b50905060005b838110156106125784818151811061082557610825610f16565b602002602001015182828151811061083f5761083f610f16565b60200260200101819052506108548160010190565b905061080b565b60006108916040518060600160405280856001600160a01b0316815260200184600001518152602001846020015181525061061a565b9392505050565b6108a061094a565b50604080516080810182526001600160a01b039390931683528151602080850191909152820151838201520151606082015290565b6040805160608101825260008082526020820152908101610945604080516101408101825260008082526020820181905291810182905260608082018390526080820183905260a0820183905260c0820183905260e0820183905261010082019290925261012081019190915290565b905290565b604080516080808201835260008083526020808401829052838501829052845161014081018652828152908101829052938401819052606084810182905291840181905260a0840181905260c0840181905260e084018190526101008401526101208301819052909190820190610945565b6001600160a01b03811681146109d157600080fd5b50565b6000602082840312156109e657600080fd5b8135610891816109bc565b60005b83811015610a0c5781810151838201526020016109f4565b83811115610a1b576000848401525b50505050565b60008151808452610a398160208601602086016109f1565b601f01601f19169290920160200192915050565b80516001600160401b0316825260006101406020830151610a7960208601826001600160401b03169052565b506040830151610a9460408601826001600160401b03169052565b506060830151610aaf60608601826001600160401b03169052565b506080830151610aca60808601826001600160a01b03169052565b5060a0830151610ae560a08601826001600160a01b03169052565b5060c0830151610b0060c08601826001600160801b03169052565b5060e0830151610b1b60e08601826001600160801b03169052565b50610100838101516001600160801b03169085015261012080840151818601839052610b4983870182610a21565b9695505050505050565b60006020808301818452808551808352604092508286019150828160051b87010184880160005b83811015610bc457888303603f1901855281518051845287810151888501528601516060878501819052610bb081860183610a4d565b968901969450505090860190600101610b7a565b509098975050505050505050565b60008060408385031215610be557600080fd5b50508035926020909101359150565b60006040808301818452808651808352606092508286019150828160051b8701016020808a0160005b84811015610c7857898403605f19018652815180516001600160a01b03168552838101518486015288810151898601528701516080888601819052610c6481870183610a4d565b978501979550505090820190600101610c1d565b50509690960196909652509295945050505050565b60008060208385031215610ca057600080fd5b82356001600160401b0380821115610cb757600080fd5b818501915085601f830112610ccb57600080fd5b813581811115610cda57600080fd5b866020606083028501011115610cef57600080fd5b60209290920196919550909350505050565b6020808252825182820181905260009190848201906040850190845b81811015610d3b578351151583529284019291840191600101610d1d565b50909695505050505050565b634e487b7160e01b600052604160045260246000fd5b604080519081016001600160401b0381118282101715610d7f57610d7f610d47565b60405290565b60405161014081016001600160401b0381118282101715610d7f57610d7f610d47565b604051601f8201601f191681016001600160401b0381118282101715610dd057610dd0610d47565b604052919050565b600060608284031215610dea57600080fd5b604051606081018181106001600160401b0382111715610e0c57610e0c610d47565b6040528235610e1a816109bc565b8152602083810135908201526040928301359281019290925250919050565b60006001600160401b03821115610e5257610e52610d47565b5060051b60200190565b60006020808385031215610e6f57600080fd5b82516001600160401b03811115610e8557600080fd5b8301601f81018513610e9657600080fd5b8051610ea9610ea482610e39565b610da8565b81815260069190911b82018301908381019087831115610ec857600080fd5b928401925b82841015610f0b5760408489031215610ee65760008081fd5b610eee610d5d565b845181528585015186820152825260409093019290840190610ecd565b979650505050505050565b634e487b7160e01b600052603260045260246000fd5b80516001600160401b0381168114610f4357600080fd5b919050565b8051610f43816109bc565b80516001600160801b0381168114610f4357600080fd5b600082601f830112610f7b57600080fd5b81516001600160401b03811115610f9457610f94610d47565b610fa7601f8201601f1916602001610da8565b818152846020838601011115610fbc57600080fd5b610fcd8260208301602087016109f1565b949350505050565b600060208284031215610fe757600080fd5b81516001600160401b0380821115610ffe57600080fd5b90830190610140828603121561101357600080fd5b61101b610d85565b61102483610f2c565b815261103260208401610f2c565b602082015261104360408401610f2c565b604082015261105460608401610f2c565b606082015261106560808401610f48565b608082015261107660a08401610f48565b60a082015261108760c08401610f53565b60c082015261109860e08401610f53565b60e08201526101006110ab818501610f53565b9082015261012083810151838111156110c357600080fd5b6110cf88828701610f6a565b918301919091525095945050505050565b600080604083850312156110f357600080fd5b82516001600160401b0381111561110957600080fd5b8301601f8101851361111a57600080fd5b8051602061112a610ea483610e39565b82815260059290921b8301810191818101908884111561114957600080fd5b938201935b83851015611170578451611161816109bc565b8252938201939082019061114e565b969091015195979596505050505050565b634e487b7160e01b600052601160045260246000fd5b6000828210156111a9576111a9611181565b500390565b600082198211156111c1576111c1611181565b500190565b8381528260208201526060604082015260006111e56060830184610a21565b95945050505050565b60006020828403121561120057600080fd5b505191905056fea2646970667358221220dbf6605bac8435fa2b75cbb13db2ec88fb1f0d22a4de6d0de63f74a9770a280b64736f6c634300080a0033","bytecodeSha1":"7a954e645e25d4352ba5de02e7c80ea2943cb74d","compiler":{"evm_version":"london","optimizer":{"enabled":true,"runs":200},"version":"0.8.10+commit.fc410830"},"contractName":"TopUpKeeperHelper","language":"Solidity","natspec":{"kind":"dev","methods":{"batchCanExecute((address,bytes32,bytes32)[])":{"notice":"Check if the action can be executed for the positions of the given `keys`","params":{"keys":"Unique keys to check for"},"returns":{"_0":"an array of boolean containing a result per input"}},"canExecute((address,bytes32,bytes32))":{"notice":"Check if action can be executed.","params":{"key":"Unique key of the account to check for the key contains information about the payer, the account and the protocol"},"returns":{"_0":"`true` if action can be executed, else `false`."}},"getExecutableTopups(uint256,uint256)":{"details":"Uses cursor pagination.","notice":"Gets a list of topup positions that can be executed.","params":{"cursor":"The cursor for pagination (should start at 0 for first call).","howMany":"Maximum number of topups to return in this pagination request."},"returns":{"nextCursor":"The cursor to use for the next pagination request.","topups":"List of topup positions that can be executed."}},"listPositions(address)":{"notice":"Get a list of all positions the `payer` has registered.","params":{"payer":"Address to list position for."},"returns":{"_0":"Records of all registered positions."}}},"notice":"This TopUp Keeper Helper. It is a utility contract to help create Mero TopUp Keepers. It exposes a view that allows the user to query a list of TopUp Positions that can be executed.","version":1},"opcodes":"PUSH1 0x80 PUSH1 0x40 MSTORE CALLVALUE DUP1 ISZERO PUSH2 0x10 JUMPI PUSH1 0x0 DUP1 REVERT JUMPDEST POP PUSH1 0x4 CALLDATASIZE LT PUSH2 0x4C JUMPI PUSH1 0x0 CALLDATALOAD PUSH1 0xE0 SHR DUP1 PUSH4 0x12A07DB0 EQ PUSH2 0x51 JUMPI DUP1 PUSH4 0xB1AC7D39 EQ PUSH2 0x7A JUMPI DUP1 PUSH4 0xB6494FDA EQ PUSH2 0x9B JUMPI DUP1 PUSH4 0xC8B2CA6B EQ PUSH2 0xBB JUMPI JUMPDEST PUSH1 0x0 DUP1 REVERT JUMPDEST PUSH2 0x64 PUSH2 0x5F CALLDATASIZE PUSH1 0x4 PUSH2 0x9D4 JUMP JUMPDEST PUSH2 0xDE JUMP JUMPDEST PUSH1 0x40 MLOAD PUSH2 0x71 SWAP2 SWAP1 PUSH2 0xB53 JUMP JUMPDEST PUSH1 0x40 MLOAD DUP1 SWAP2 SUB SWAP1 RETURN JUMPDEST PUSH2 0x8D PUSH2 0x88 CALLDATASIZE PUSH1 0x4 PUSH2 0xBD2 JUMP JUMPDEST PUSH2 0x315 JUMP JUMPDEST PUSH1 0x40 MLOAD PUSH2 0x71 SWAP3 SWAP2 SWAP1 PUSH2 0xBF4 JUMP JUMPDEST PUSH2 0xAE PUSH2 0xA9 CALLDATASIZE PUSH1 0x4 PUSH2 0xC8D JUMP JUMPDEST PUSH2 0x565 JUMP JUMPDEST PUSH1 0x40 MLOAD PUSH2 0x71 SWAP2 SWAP1 PUSH2 0xD01 JUMP JUMPDEST PUSH2 0xCE PUSH2 0xC9 CALLDATASIZE PUSH1 0x4 PUSH2 0xDD8 JUMP JUMPDEST PUSH2 0x61A JUMP JUMPDEST PUSH1 0x40 MLOAD SWAP1 ISZERO ISZERO DUP2 MSTORE PUSH1 0x20 ADD PUSH2 0x71 JUMP JUMPDEST PUSH1 0x40 MLOAD PUSH4 0x2A6BC2DD PUSH1 0xE0 SHL DUP2 MSTORE PUSH1 0x1 PUSH1 0x1 PUSH1 0xA0 SHL SUB DUP3 DUP2 AND PUSH1 0x4 DUP4 ADD MSTORE PUSH1 0x60 SWAP2 PUSH1 0x0 SWAP2 PUSH32 0x0 AND SWAP1 PUSH4 0x2A6BC2DD SWAP1 PUSH1 0x24 ADD PUSH1 0x0 PUSH1 0x40 MLOAD DUP1 DUP4 SUB DUP2 DUP7 GAS STATICCALL ISZERO DUP1 ISZERO PUSH2 0x14A JUMPI RETURNDATASIZE PUSH1 0x0 DUP1 RETURNDATACOPY RETURNDATASIZE PUSH1 0x0 REVERT JUMPDEST POP POP POP POP PUSH1 0x40 MLOAD RETURNDATASIZE PUSH1 0x0 DUP3 RETURNDATACOPY PUSH1 0x1F RETURNDATASIZE SWAP1 DUP2 ADD PUSH1 0x1F NOT AND DUP3 ADD PUSH1 0x40 MSTORE PUSH2 0x172 SWAP2 SWAP1 DUP2 ADD SWAP1 PUSH2 0xE5C JUMP JUMPDEST DUP1 MLOAD SWAP1 SWAP2 POP PUSH1 0x0 DUP2 PUSH1 0x1 PUSH1 0x1 PUSH1 0x40 SHL SUB DUP2 GT ISZERO PUSH2 0x191 JUMPI PUSH2 0x191 PUSH2 0xD47 JUMP JUMPDEST PUSH1 0x40 MLOAD SWAP1 DUP1 DUP3 MSTORE DUP1 PUSH1 0x20 MUL PUSH1 0x20 ADD DUP3 ADD PUSH1 0x40 MSTORE DUP1 ISZERO PUSH2 0x1CA JUMPI DUP2 PUSH1 0x20 ADD JUMPDEST PUSH2 0x1B7 PUSH2 0x8D5 JUMP JUMPDEST DUP2 MSTORE PUSH1 0x20 ADD SWAP1 PUSH1 0x1 SWAP1 SUB SWAP1 DUP2 PUSH2 0x1AF JUMPI SWAP1 POP JUMPDEST POP SWAP1 POP PUSH1 0x0 JUMPDEST DUP3 DUP2 LT ISZERO PUSH2 0x30C JUMPI PUSH1 0x0 DUP5 DUP3 DUP2 MLOAD DUP2 LT PUSH2 0x1EC JUMPI PUSH2 0x1EC PUSH2 0xF16 JUMP JUMPDEST PUSH1 0x20 MUL PUSH1 0x20 ADD ADD MLOAD PUSH1 0x0 ADD MLOAD SWAP1 POP PUSH1 0x0 DUP6 DUP4 DUP2 MLOAD DUP2 LT PUSH2 0x20E JUMPI PUSH2 0x20E PUSH2 0xF16 JUMP JUMPDEST PUSH1 0x20 SWAP1 DUP2 MUL SWAP2 SWAP1 SWAP2 ADD DUP2 ADD MLOAD ADD MLOAD PUSH1 0x40 MLOAD PUSH4 0x59C442C7 PUSH1 0xE0 SHL DUP2 MSTORE PUSH1 0x1 PUSH1 0x1 PUSH1 0xA0 SHL SUB DUP11 DUP2 AND PUSH1 0x4 DUP4 ADD MSTORE PUSH1 0x24 DUP3 ADD DUP6 SWAP1 MSTORE PUSH1 0x44 DUP3 ADD DUP4 SWAP1 MSTORE SWAP2 SWAP3 POP PUSH1 0x0 SWAP2 PUSH32 0x0 AND SWAP1 PUSH4 0x59C442C7 SWAP1 PUSH1 0x64 ADD PUSH1 0x0 PUSH1 0x40 MLOAD DUP1 DUP4 SUB DUP2 DUP7 GAS STATICCALL ISZERO DUP1 ISZERO PUSH2 0x296 JUMPI RETURNDATASIZE PUSH1 0x0 DUP1 RETURNDATACOPY RETURNDATASIZE PUSH1 0x0 REVERT JUMPDEST POP POP POP POP PUSH1 0x40 MLOAD RETURNDATASIZE PUSH1 0x0 DUP3 RETURNDATACOPY PUSH1 0x1F RETURNDATASIZE SWAP1 DUP2 ADD PUSH1 0x1F NOT AND DUP3 ADD PUSH1 0x40 MSTORE PUSH2 0x2BE SWAP2 SWAP1 DUP2 ADD SWAP1 PUSH2 0xFD5 JUMP JUMPDEST SWAP1 POP PUSH1 0x40 MLOAD DUP1 PUSH1 0x60 ADD PUSH1 0x40 MSTORE DUP1 DUP5 DUP2 MSTORE PUSH1 0x20 ADD DUP4 DUP2 MSTORE PUSH1 0x20 ADD DUP3 DUP2 MSTORE POP DUP6 DUP6 DUP2 MLOAD DUP2 LT PUSH2 0x2ED JUMPI PUSH2 0x2ED PUSH2 0xF16 JUMP JUMPDEST PUSH1 0x20 MUL PUSH1 0x20 ADD ADD DUP2 SWAP1 MSTORE POP POP POP POP PUSH2 0x305 DUP2 PUSH1 0x1 ADD SWAP1 JUMP JUMPDEST SWAP1 POP PUSH2 0x1D0 JUMP JUMPDEST POP SWAP5 SWAP4 POP POP POP POP JUMP JUMPDEST PUSH1 0x60 PUSH1 0x0 DUP1 DUP4 PUSH1 0x1 PUSH1 0x1 PUSH1 0x40 SHL SUB DUP2 GT ISZERO PUSH2 0x332 JUMPI PUSH2 0x332 PUSH2 0xD47 JUMP JUMPDEST PUSH1 0x40 MLOAD SWAP1 DUP1 DUP3 MSTORE DUP1 PUSH1 0x20 MUL PUSH1 0x20 ADD DUP3 ADD PUSH1 0x40 MSTORE DUP1 ISZERO PUSH2 0x36B JUMPI DUP2 PUSH1 0x20 ADD JUMPDEST PUSH2 0x358 PUSH2 0x94A JUMP JUMPDEST DUP2 MSTORE PUSH1 0x20 ADD SWAP1 PUSH1 0x1 SWAP1 SUB SWAP1 DUP2 PUSH2 0x350 JUMPI SWAP1 POP JUMPDEST POP SWAP1 POP PUSH1 0x0 JUMPDEST PUSH1 0x40 MLOAD PUSH4 0xC84CE0D PUSH1 0xE4 SHL DUP2 MSTORE PUSH1 0x4 DUP2 ADD DUP8 SWAP1 MSTORE PUSH1 0x24 DUP2 ADD DUP7 SWAP1 MSTORE PUSH1 0x0 SWAP1 PUSH32 0x0 PUSH1 0x1 PUSH1 0x1 PUSH1 0xA0 SHL SUB AND SWAP1 PUSH4 0xC84CE0D0 SWAP1 PUSH1 0x44 ADD PUSH1 0x0 PUSH1 0x40 MLOAD DUP1 DUP4 SUB DUP2 DUP7 GAS STATICCALL ISZERO DUP1 ISZERO PUSH2 0x3E0 JUMPI RETURNDATASIZE PUSH1 0x0 DUP1 RETURNDATACOPY RETURNDATASIZE PUSH1 0x0 REVERT JUMPDEST POP POP POP POP PUSH1 0x40 MLOAD RETURNDATASIZE PUSH1 0x0 DUP3 RETURNDATACOPY PUSH1 0x1F RETURNDATASIZE SWAP1 DUP2 ADD PUSH1 0x1F NOT AND DUP3 ADD PUSH1 0x40 MSTORE PUSH2 0x408 SWAP2 SWAP1 DUP2 ADD SWAP1 PUSH2 0x10E0 JUMP JUMPDEST POP SWAP1 POP DUP1 MLOAD PUSH1 0x0 EQ ISZERO PUSH2 0x42D JUMPI PUSH2 0x41F DUP4 DUP4 PUSH2 0x7B0 JUMP JUMPDEST PUSH1 0x0 SWAP5 POP SWAP5 POP POP POP POP PUSH2 0x55E JUMP JUMPDEST PUSH1 0x0 JUMPDEST DUP2 MLOAD DUP2 LT ISZERO PUSH2 0x54B JUMPI PUSH1 0x0 DUP3 DUP3 DUP2 MLOAD DUP2 LT PUSH2 0x44D JUMPI PUSH2 0x44D PUSH2 0xF16 JUMP JUMPDEST PUSH1 0x20 MUL PUSH1 0x20 ADD ADD MLOAD SWAP1 POP PUSH1 0x0 PUSH2 0x462 DUP3 PUSH2 0xDE JUMP JUMPDEST SWAP1 POP PUSH1 0x0 JUMPDEST DUP2 MLOAD DUP2 LT ISZERO PUSH2 0x537 JUMPI PUSH1 0x0 DUP3 DUP3 DUP2 MLOAD DUP2 LT PUSH2 0x484 JUMPI PUSH2 0x484 PUSH2 0xF16 JUMP JUMPDEST PUSH1 0x20 MUL PUSH1 0x20 ADD ADD MLOAD SWAP1 POP PUSH2 0x498 DUP5 DUP3 PUSH2 0x85B JUMP JUMPDEST PUSH2 0x4A2 JUMPI POP PUSH2 0x52F JUMP JUMPDEST PUSH2 0x4AC DUP5 DUP3 PUSH2 0x898 JUMP JUMPDEST DUP9 DUP9 DUP2 MLOAD DUP2 LT PUSH2 0x4BE JUMPI PUSH2 0x4BE PUSH2 0xF16 JUMP JUMPDEST PUSH1 0x20 MUL PUSH1 0x20 ADD ADD DUP2 SWAP1 MSTORE POP PUSH2 0x4D3 DUP8 PUSH1 0x1 ADD SWAP1 JUMP JUMPDEST SWAP7 POP PUSH1 0x0 PUSH1 0x1 DUP5 MLOAD PUSH2 0x4E5 SWAP2 SWAP1 PUSH2 0x1197 JUMP JUMPDEST DUP4 EQ PUSH2 0x4F2 JUMPI PUSH1 0x0 PUSH2 0x4F5 JUMP JUMPDEST PUSH1 0x1 JUMPDEST PUSH1 0xFF AND SWAP1 POP DUP12 DUP9 EQ ISZERO PUSH2 0x52C JUMPI DUP9 DUP2 DUP8 DUP16 PUSH2 0x510 SWAP2 SWAP1 PUSH2 0x11AE JUMP JUMPDEST PUSH2 0x51A SWAP2 SWAP1 PUSH2 0x11AE JUMP JUMPDEST SWAP11 POP SWAP11 POP POP POP POP POP POP POP POP POP POP PUSH2 0x55E JUMP JUMPDEST POP POP JUMPDEST PUSH1 0x1 ADD PUSH2 0x467 JUMP JUMPDEST POP POP POP PUSH2 0x544 DUP2 PUSH1 0x1 ADD SWAP1 JUMP JUMPDEST SWAP1 POP PUSH2 0x430 JUMP JUMPDEST POP PUSH2 0x556 DUP7 DUP9 PUSH2 0x11AE JUMP JUMPDEST SWAP7 POP POP PUSH2 0x371 JUMP JUMPDEST SWAP3 POP SWAP3 SWAP1 POP JUMP JUMPDEST PUSH1 0x60 PUSH1 0x0 DUP3 PUSH1 0x1 PUSH1 0x1 PUSH1 0x40 SHL SUB DUP2 GT ISZERO PUSH2 0x581 JUMPI PUSH2 0x581 PUSH2 0xD47 JUMP JUMPDEST PUSH1 0x40 MLOAD SWAP1 DUP1 DUP3 MSTORE DUP1 PUSH1 0x20 MUL PUSH1 0x20 ADD DUP3 ADD PUSH1 0x40 MSTORE DUP1 ISZERO PUSH2 0x5AA JUMPI DUP2 PUSH1 0x20 ADD PUSH1 0x20 DUP3 MUL DUP1 CALLDATASIZE DUP4 CALLDATACOPY ADD SWAP1 POP JUMPDEST POP SWAP1 POP PUSH1 0x0 JUMPDEST DUP4 DUP2 LT ISZERO PUSH2 0x612 JUMPI CALLDATASIZE DUP6 DUP6 DUP4 DUP2 DUP2 LT PUSH2 0x5CB JUMPI PUSH2 0x5CB PUSH2 0xF16 JUMP JUMPDEST SWAP1 POP PUSH1 0x60 MUL ADD SWAP1 POP PUSH2 0x5E7 DUP2 DUP1 CALLDATASIZE SUB DUP2 ADD SWAP1 PUSH2 0xC9 SWAP2 SWAP1 PUSH2 0xDD8 JUMP JUMPDEST DUP4 DUP4 DUP2 MLOAD DUP2 LT PUSH2 0x5F9 JUMPI PUSH2 0x5F9 PUSH2 0xF16 JUMP JUMPDEST SWAP2 ISZERO ISZERO PUSH1 0x20 SWAP3 DUP4 MUL SWAP2 SWAP1 SWAP2 ADD SWAP1 SWAP2 ADD MSTORE POP PUSH1 0x1 ADD PUSH2 0x5B0 JUMP JUMPDEST POP SWAP4 SWAP3 POP POP POP JUMP JUMPDEST DUP1 MLOAD PUSH1 0x20 DUP3 ADD MLOAD PUSH1 0x40 DUP1 DUP5 ADD MLOAD SWAP1 MLOAD PUSH4 0x59C442C7 PUSH1 0xE0 SHL DUP2 MSTORE PUSH1 0x1 PUSH1 0x1 PUSH1 0xA0 SHL SUB SWAP4 DUP5 AND PUSH1 0x4 DUP3 ADD MSTORE PUSH1 0x24 DUP2 ADD SWAP3 SWAP1 SWAP3 MSTORE PUSH1 0x44 DUP3 ADD MSTORE PUSH1 0x0 SWAP2 DUP3 SWAP2 PUSH32 0x0 SWAP1 SWAP2 AND SWAP1 PUSH4 0x59C442C7 SWAP1 PUSH1 0x64 ADD PUSH1 0x0 PUSH1 0x40 MLOAD DUP1 DUP4 SUB DUP2 DUP7 GAS STATICCALL ISZERO DUP1 ISZERO PUSH2 0x6A0 JUMPI RETURNDATASIZE PUSH1 0x0 DUP1 RETURNDATACOPY RETURNDATASIZE PUSH1 0x0 REVERT JUMPDEST POP POP POP POP PUSH1 0x40 MLOAD RETURNDATASIZE PUSH1 0x0 DUP3 RETURNDATACOPY PUSH1 0x1F RETURNDATASIZE SWAP1 DUP2 ADD PUSH1 0x1F NOT AND DUP3 ADD PUSH1 0x40 MSTORE PUSH2 0x6C8 SWAP2 SWAP1 DUP2 ADD SWAP1 PUSH2 0xFD5 JUMP JUMPDEST DUP1 MLOAD SWAP1 SWAP2 POP PUSH1 0x1 PUSH1 0x1 PUSH1 0x40 SHL SUB AND ISZERO DUP1 PUSH2 0x6ED JUMPI POP PUSH1 0xE0 DUP2 ADD MLOAD PUSH1 0x1 PUSH1 0x1 PUSH1 0x80 SHL SUB AND ISZERO JUMPDEST ISZERO PUSH2 0x6FB JUMPI POP PUSH1 0x0 SWAP3 SWAP2 POP POP JUMP JUMPDEST PUSH1 0x0 PUSH32 0x0 PUSH1 0x1 PUSH1 0x1 PUSH1 0xA0 SHL SUB AND PUSH4 0x779B6620 DUP6 PUSH1 0x40 ADD MLOAD DUP7 PUSH1 0x20 ADD MLOAD DUP6 PUSH2 0x120 ADD MLOAD PUSH1 0x40 MLOAD DUP5 PUSH4 0xFFFFFFFF AND PUSH1 0xE0 SHL DUP2 MSTORE PUSH1 0x4 ADD PUSH2 0x75A SWAP4 SWAP3 SWAP2 SWAP1 PUSH2 0x11C6 JUMP JUMPDEST PUSH1 0x20 PUSH1 0x40 MLOAD DUP1 DUP4 SUB DUP2 DUP7 GAS STATICCALL ISZERO DUP1 ISZERO PUSH2 0x777 JUMPI RETURNDATASIZE PUSH1 0x0 DUP1 RETURNDATACOPY RETURNDATASIZE PUSH1 0x0 REVERT JUMPDEST POP POP POP POP PUSH1 0x40 MLOAD RETURNDATASIZE PUSH1 0x1F NOT PUSH1 0x1F DUP3 ADD AND DUP3 ADD DUP1 PUSH1 0x40 MSTORE POP DUP2 ADD SWAP1 PUSH2 0x79B SWAP2 SWAP1 PUSH2 0x11EE JUMP JUMPDEST SWAP2 MLOAD PUSH1 0x1 PUSH1 0x1 PUSH1 0x40 SHL SUB AND SWAP1 SWAP2 LT SWAP4 SWAP3 POP POP POP JUMP JUMPDEST PUSH1 0x60 PUSH1 0x0 DUP3 PUSH1 0x1 PUSH1 0x1 PUSH1 0x40 SHL SUB DUP2 GT ISZERO PUSH2 0x7CC JUMPI PUSH2 0x7CC PUSH2 0xD47 JUMP JUMPDEST PUSH1 0x40 MLOAD SWAP1 DUP1 DUP3 MSTORE DUP1 PUSH1 0x20 MUL PUSH1 0x20 ADD DUP3 ADD PUSH1 0x40 MSTORE DUP1 ISZERO PUSH2 0x805 JUMPI DUP2 PUSH1 0x20 ADD JUMPDEST PUSH2 0x7F2 PUSH2 0x94A JUMP JUMPDEST DUP2 MSTORE PUSH1 0x20 ADD SWAP1 PUSH1 0x1 SWAP1 SUB SWAP1 DUP2 PUSH2 0x7EA JUMPI SWAP1 POP JUMPDEST POP SWAP1 POP PUSH1 0x0 JUMPDEST DUP4 DUP2 LT ISZERO PUSH2 0x612 JUMPI DUP5 DUP2 DUP2 MLOAD DUP2 LT PUSH2 0x825 JUMPI PUSH2 0x825 PUSH2 0xF16 JUMP JUMPDEST PUSH1 0x20 MUL PUSH1 0x20 ADD ADD MLOAD DUP3 DUP3 DUP2 MLOAD DUP2 LT PUSH2 0x83F JUMPI PUSH2 0x83F PUSH2 0xF16 JUMP JUMPDEST PUSH1 0x20 MUL PUSH1 0x20 ADD ADD DUP2 SWAP1 MSTORE POP PUSH2 0x854 DUP2 PUSH1 0x1 ADD SWAP1 JUMP JUMPDEST SWAP1 POP PUSH2 0x80B JUMP JUMPDEST PUSH1 0x0 PUSH2 0x891 PUSH1 0x40 MLOAD DUP1 PUSH1 0x60 ADD PUSH1 0x40 MSTORE DUP1 DUP6 PUSH1 0x1 PUSH1 0x1 PUSH1 0xA0 SHL SUB AND DUP2 MSTORE PUSH1 0x20 ADD DUP5 PUSH1 0x0 ADD MLOAD DUP2 MSTORE PUSH1 0x20 ADD DUP5 PUSH1 0x20 ADD MLOAD DUP2 MSTORE POP PUSH2 0x61A JUMP JUMPDEST SWAP4 SWAP3 POP POP POP JUMP JUMPDEST PUSH2 0x8A0 PUSH2 0x94A JUMP JUMPDEST POP PUSH1 0x40 DUP1 MLOAD PUSH1 0x80 DUP2 ADD DUP3 MSTORE PUSH1 0x1 PUSH1 0x1 PUSH1 0xA0 SHL SUB SWAP4 SWAP1 SWAP4 AND DUP4 MSTORE DUP2 MLOAD PUSH1 0x20 DUP1 DUP6 ADD SWAP2 SWAP1 SWAP2 MSTORE DUP3 ADD MLOAD DUP4 DUP3 ADD MSTORE ADD MLOAD PUSH1 0x60 DUP3 ADD MSTORE SWAP1 JUMP JUMPDEST PUSH1 0x40 DUP1 MLOAD PUSH1 0x60 DUP2 ADD DUP3 MSTORE PUSH1 0x0 DUP1 DUP3 MSTORE PUSH1 0x20 DUP3 ADD MSTORE SWAP1 DUP2 ADD PUSH2 0x945 PUSH1 0x40 DUP1 MLOAD PUSH2 0x140 DUP2 ADD DUP3 MSTORE PUSH1 0x0 DUP1 DUP3 MSTORE PUSH1 0x20 DUP3 ADD DUP2 SWAP1 MSTORE SWAP2 DUP2 ADD DUP3 SWAP1 MSTORE PUSH1 0x60 DUP1 DUP3 ADD DUP4 SWAP1 MSTORE PUSH1 0x80 DUP3 ADD DUP4 SWAP1 MSTORE PUSH1 0xA0 DUP3 ADD DUP4 SWAP1 MSTORE PUSH1 0xC0 DUP3 ADD DUP4 SWAP1 MSTORE PUSH1 0xE0 DUP3 ADD DUP4 SWAP1 MSTORE PUSH2 0x100 DUP3 ADD SWAP3 SWAP1 SWAP3 MSTORE PUSH2 0x120 DUP2 ADD SWAP2 SWAP1 SWAP2 MSTORE SWAP1 JUMP JUMPDEST SWAP1 MSTORE SWAP1 JUMP JUMPDEST PUSH1 0x40 DUP1 MLOAD PUSH1 0x80 DUP1 DUP3 ADD DUP4 MSTORE PUSH1 0x0 DUP1 DUP4 MSTORE PUSH1 0x20 DUP1 DUP5 ADD DUP3 SWAP1 MSTORE DUP4 DUP6 ADD DUP3 SWAP1 MSTORE DUP5 MLOAD PUSH2 0x140 DUP2 ADD DUP7 MSTORE DUP3 DUP2 MSTORE SWAP1 DUP2 ADD DUP3 SWAP1 MSTORE SWAP4 DUP5 ADD DUP2 SWAP1 MSTORE PUSH1 0x60 DUP5 DUP2 ADD DUP3 SWAP1 MSTORE SWAP2 DUP5 ADD DUP2 SWAP1 MSTORE PUSH1 0xA0 DUP5 ADD DUP2 SWAP1 MSTORE PUSH1 0xC0 DUP5 ADD DUP2 SWAP1 MSTORE PUSH1 0xE0 DUP5 ADD DUP2 SWAP1 MSTORE PUSH2 0x100 DUP5 ADD MSTORE PUSH2 0x120 DUP4 ADD DUP2 SWAP1 MSTORE SWAP1 SWAP2 SWAP1 DUP3 ADD SWAP1 PUSH2 0x945 JUMP JUMPDEST PUSH1 0x1 PUSH1 0x1 PUSH1 0xA0 SHL SUB DUP2 AND DUP2 EQ PUSH2 0x9D1 JUMPI PUSH1 0x0 DUP1 REVERT JUMPDEST POP JUMP JUMPDEST PUSH1 0x0 PUSH1 0x20 DUP3 DUP5 SUB SLT ISZERO PUSH2 0x9E6 JUMPI PUSH1 0x0 DUP1 REVERT JUMPDEST DUP2 CALLDATALOAD PUSH2 0x891 DUP2 PUSH2 0x9BC JUMP JUMPDEST PUSH1 0x0 JUMPDEST DUP4 DUP2 LT ISZERO PUSH2 0xA0C JUMPI DUP2 DUP2 ADD MLOAD DUP4 DUP3 ADD MSTORE PUSH1 0x20 ADD PUSH2 0x9F4 JUMP JUMPDEST DUP4 DUP2 GT ISZERO PUSH2 0xA1B JUMPI PUSH1 0x0 DUP5 DUP5 ADD MSTORE JUMPDEST POP POP POP POP JUMP JUMPDEST PUSH1 0x0 DUP2 MLOAD DUP1 DUP5 MSTORE PUSH2 0xA39 DUP2 PUSH1 0x20 DUP7 ADD PUSH1 0x20 DUP7 ADD PUSH2 0x9F1 JUMP JUMPDEST PUSH1 0x1F ADD PUSH1 0x1F NOT AND SWAP3 SWAP1 SWAP3 ADD PUSH1 0x20 ADD SWAP3 SWAP2 POP POP JUMP JUMPDEST DUP1 MLOAD PUSH1 0x1 PUSH1 0x1 PUSH1 0x40 SHL SUB AND DUP3 MSTORE PUSH1 0x0 PUSH2 0x140 PUSH1 0x20 DUP4 ADD MLOAD PUSH2 0xA79 PUSH1 0x20 DUP7 ADD DUP3 PUSH1 0x1 PUSH1 0x1 PUSH1 0x40 SHL SUB AND SWAP1 MSTORE JUMP JUMPDEST POP PUSH1 0x40 DUP4 ADD MLOAD PUSH2 0xA94 PUSH1 0x40 DUP7 ADD DUP3 PUSH1 0x1 PUSH1 0x1 PUSH1 0x40 SHL SUB AND SWAP1 MSTORE JUMP JUMPDEST POP PUSH1 0x60 DUP4 ADD MLOAD PUSH2 0xAAF PUSH1 0x60 DUP7 ADD DUP3 PUSH1 0x1 PUSH1 0x1 PUSH1 0x40 SHL SUB AND SWAP1 MSTORE JUMP JUMPDEST POP PUSH1 0x80 DUP4 ADD MLOAD PUSH2 0xACA PUSH1 0x80 DUP7 ADD DUP3 PUSH1 0x1 PUSH1 0x1 PUSH1 0xA0 SHL SUB AND SWAP1 MSTORE JUMP JUMPDEST POP PUSH1 0xA0 DUP4 ADD MLOAD PUSH2 0xAE5 PUSH1 0xA0 DUP7 ADD DUP3 PUSH1 0x1 PUSH1 0x1 PUSH1 0xA0 SHL SUB AND SWAP1 MSTORE JUMP JUMPDEST POP PUSH1 0xC0 DUP4 ADD MLOAD PUSH2 0xB00 PUSH1 0xC0 DUP7 ADD DUP3 PUSH1 0x1 PUSH1 0x1 PUSH1 0x80 SHL SUB AND SWAP1 MSTORE JUMP JUMPDEST POP PUSH1 0xE0 DUP4 ADD MLOAD PUSH2 0xB1B PUSH1 0xE0 DUP7 ADD DUP3 PUSH1 0x1 PUSH1 0x1 PUSH1 0x80 SHL SUB AND SWAP1 MSTORE JUMP JUMPDEST POP PUSH2 0x100 DUP4 DUP2 ADD MLOAD PUSH1 0x1 PUSH1 0x1 PUSH1 0x80 SHL SUB AND SWAP1 DUP6 ADD MSTORE PUSH2 0x120 DUP1 DUP5 ADD MLOAD DUP2 DUP7 ADD DUP4 SWAP1 MSTORE PUSH2 0xB49 DUP4 DUP8 ADD DUP3 PUSH2 0xA21 JUMP JUMPDEST SWAP7 SWAP6 POP POP POP POP POP POP JUMP JUMPDEST PUSH1 0x0 PUSH1 0x20 DUP1 DUP4 ADD DUP2 DUP5 MSTORE DUP1 DUP6 MLOAD DUP1 DUP4 MSTORE PUSH1 0x40 SWAP3 POP DUP3 DUP7 ADD SWAP2 POP DUP3 DUP2 PUSH1 0x5 SHL DUP8 ADD ADD DUP5 DUP9 ADD PUSH1 0x0 JUMPDEST DUP4 DUP2 LT ISZERO PUSH2 0xBC4 JUMPI DUP9 DUP4 SUB PUSH1 0x3F NOT ADD DUP6 MSTORE DUP2 MLOAD DUP1 MLOAD DUP5 MSTORE DUP8 DUP2 ADD MLOAD DUP9 DUP6 ADD MSTORE DUP7 ADD MLOAD PUSH1 0x60 DUP8 DUP6 ADD DUP2 SWAP1 MSTORE PUSH2 0xBB0 DUP2 DUP7 ADD DUP4 PUSH2 0xA4D JUMP JUMPDEST SWAP7 DUP10 ADD SWAP7 SWAP5 POP POP POP SWAP1 DUP7 ADD SWAP1 PUSH1 0x1 ADD PUSH2 0xB7A JUMP JUMPDEST POP SWAP1 SWAP9 SWAP8 POP POP POP POP POP POP POP POP JUMP JUMPDEST PUSH1 0x0 DUP1 PUSH1 0x40 DUP4 DUP6 SUB SLT ISZERO PUSH2 0xBE5 JUMPI PUSH1 0x0 DUP1 REVERT JUMPDEST POP POP DUP1 CALLDATALOAD SWAP3 PUSH1 0x20 SWAP1 SWAP2 ADD CALLDATALOAD SWAP2 POP JUMP JUMPDEST PUSH1 0x0 PUSH1 0x40 DUP1 DUP4 ADD DUP2 DUP5 MSTORE DUP1 DUP7 MLOAD DUP1 DUP4 MSTORE PUSH1 0x60 SWAP3 POP DUP3 DUP7 ADD SWAP2 POP DUP3 DUP2 PUSH1 0x5 SHL DUP8 ADD ADD PUSH1 0x20 DUP1 DUP11 ADD PUSH1 0x0 JUMPDEST DUP5 DUP2 LT ISZERO PUSH2 0xC78 JUMPI DUP10 DUP5 SUB PUSH1 0x5F NOT ADD DUP7 MSTORE DUP2 MLOAD DUP1 MLOAD PUSH1 0x1 PUSH1 0x1 PUSH1 0xA0 SHL SUB AND DUP6 MSTORE DUP4 DUP2 ADD MLOAD DUP5 DUP7 ADD MSTORE DUP9 DUP2 ADD MLOAD DUP10 DUP7 ADD MSTORE DUP8 ADD MLOAD PUSH1 0x80 DUP9 DUP7 ADD DUP2 SWAP1 MSTORE PUSH2 0xC64 DUP2 DUP8 ADD DUP4 PUSH2 0xA4D JUMP JUMPDEST SWAP8 DUP6 ADD SWAP8 SWAP6 POP POP POP SWAP1 DUP3 ADD SWAP1 PUSH1 0x1 ADD PUSH2 0xC1D JUMP JUMPDEST POP POP SWAP7 SWAP1 SWAP7 ADD SWAP7 SWAP1 SWAP7 MSTORE POP SWAP3 SWAP6 SWAP5 POP POP POP POP POP JUMP JUMPDEST PUSH1 0x0 DUP1 PUSH1 0x20 DUP4 DUP6 SUB SLT ISZERO PUSH2 0xCA0 JUMPI PUSH1 0x0 DUP1 REVERT JUMPDEST DUP3 CALLDATALOAD PUSH1 0x1 PUSH1 0x1 PUSH1 0x40 SHL SUB DUP1 DUP3 GT ISZERO PUSH2 0xCB7 JUMPI PUSH1 0x0 DUP1 REVERT JUMPDEST DUP2 DUP6 ADD SWAP2 POP DUP6 PUSH1 0x1F DUP4 ADD SLT PUSH2 0xCCB JUMPI PUSH1 0x0 DUP1 REVERT JUMPDEST DUP2 CALLDATALOAD DUP2 DUP2 GT ISZERO PUSH2 0xCDA JUMPI PUSH1 0x0 DUP1 REVERT JUMPDEST DUP7 PUSH1 0x20 PUSH1 0x60 DUP4 MUL DUP6 ADD ADD GT ISZERO PUSH2 0xCEF JUMPI PUSH1 0x0 DUP1 REVERT JUMPDEST PUSH1 0x20 SWAP3 SWAP1 SWAP3 ADD SWAP7 SWAP2 SWAP6 POP SWAP1 SWAP4 POP POP POP POP JUMP JUMPDEST PUSH1 0x20 DUP1 DUP3 MSTORE DUP3 MLOAD DUP3 DUP3 ADD DUP2 SWAP1 MSTORE PUSH1 0x0 SWAP2 SWAP1 DUP5 DUP3 ADD SWAP1 PUSH1 0x40 DUP6 ADD SWAP1 DUP5 JUMPDEST DUP2 DUP2 LT ISZERO PUSH2 0xD3B JUMPI DUP4 MLOAD ISZERO ISZERO DUP4 MSTORE SWAP3 DUP5 ADD SWAP3 SWAP2 DUP5 ADD SWAP2 PUSH1 0x1 ADD PUSH2 0xD1D JUMP JUMPDEST POP SWAP1 SWAP7 SWAP6 POP POP POP POP POP POP JUMP JUMPDEST PUSH4 0x4E487B71 PUSH1 0xE0 SHL PUSH1 0x0 MSTORE PUSH1 0x41 PUSH1 0x4 MSTORE PUSH1 0x24 PUSH1 0x0 REVERT JUMPDEST PUSH1 0x40 DUP1 MLOAD SWAP1 DUP2 ADD PUSH1 0x1 PUSH1 0x1 PUSH1 0x40 SHL SUB DUP2 GT DUP3 DUP3 LT OR ISZERO PUSH2 0xD7F JUMPI PUSH2 0xD7F PUSH2 0xD47 JUMP JUMPDEST PUSH1 0x40 MSTORE SWAP1 JUMP JUMPDEST PUSH1 0x40 MLOAD PUSH2 0x140 DUP2 ADD PUSH1 0x1 PUSH1 0x1 PUSH1 0x40 SHL SUB DUP2 GT DUP3 DUP3 LT OR ISZERO PUSH2 0xD7F JUMPI PUSH2 0xD7F PUSH2 0xD47 JUMP JUMPDEST PUSH1 0x40 MLOAD PUSH1 0x1F DUP3 ADD PUSH1 0x1F NOT AND DUP2 ADD PUSH1 0x1 PUSH1 0x1 PUSH1 0x40 SHL SUB DUP2 GT DUP3 DUP3 LT OR ISZERO PUSH2 0xDD0 JUMPI PUSH2 0xDD0 PUSH2 0xD47 JUMP JUMPDEST PUSH1 0x40 MSTORE SWAP2 SWAP1 POP JUMP JUMPDEST PUSH1 0x0 PUSH1 0x60 DUP3 DUP5 SUB SLT ISZERO PUSH2 0xDEA JUMPI PUSH1 0x0 DUP1 REVERT JUMPDEST PUSH1 0x40 MLOAD PUSH1 0x60 DUP2 ADD DUP2 DUP2 LT PUSH1 0x1 PUSH1 0x1 PUSH1 0x40 SHL SUB DUP3 GT OR ISZERO PUSH2 0xE0C JUMPI PUSH2 0xE0C PUSH2 0xD47 JUMP JUMPDEST PUSH1 0x40 MSTORE DUP3 CALLDATALOAD PUSH2 0xE1A DUP2 PUSH2 0x9BC JUMP JUMPDEST DUP2 MSTORE PUSH1 0x20 DUP4 DUP2 ADD CALLDATALOAD SWAP1 DUP3 ADD MSTORE PUSH1 0x40 SWAP3 DUP4 ADD CALLDATALOAD SWAP3 DUP2 ADD SWAP3 SWAP1 SWAP3 MSTORE POP SWAP2 SWAP1 POP JUMP JUMPDEST PUSH1 0x0 PUSH1 0x1 PUSH1 0x1 PUSH1 0x40 SHL SUB DUP3 GT ISZERO PUSH2 0xE52 JUMPI PUSH2 0xE52 PUSH2 0xD47 JUMP JUMPDEST POP PUSH1 0x5 SHL PUSH1 0x20 ADD SWAP1 JUMP JUMPDEST PUSH1 0x0 PUSH1 0x20 DUP1 DUP4 DUP6 SUB SLT ISZERO PUSH2 0xE6F JUMPI PUSH1 0x0 DUP1 REVERT JUMPDEST DUP3 MLOAD PUSH1 0x1 PUSH1 0x1 PUSH1 0x40 SHL SUB DUP2 GT ISZERO PUSH2 0xE85 JUMPI PUSH1 0x0 DUP1 REVERT JUMPDEST DUP4 ADD PUSH1 0x1F DUP2 ADD DUP6 SGT PUSH2 0xE96 JUMPI PUSH1 0x0 DUP1 REVERT JUMPDEST DUP1 MLOAD PUSH2 0xEA9 PUSH2 0xEA4 DUP3 PUSH2 0xE39 JUMP JUMPDEST PUSH2 0xDA8 JUMP JUMPDEST DUP2 DUP2 MSTORE PUSH1 0x6 SWAP2 SWAP1 SWAP2 SHL DUP3 ADD DUP4 ADD SWAP1 DUP4 DUP2 ADD SWAP1 DUP8 DUP4 GT ISZERO PUSH2 0xEC8 JUMPI PUSH1 0x0 DUP1 REVERT JUMPDEST SWAP3 DUP5 ADD SWAP3 JUMPDEST DUP3 DUP5 LT ISZERO PUSH2 0xF0B JUMPI PUSH1 0x40 DUP5 DUP10 SUB SLT ISZERO PUSH2 0xEE6 JUMPI PUSH1 0x0 DUP1 DUP2 REVERT JUMPDEST PUSH2 0xEEE PUSH2 0xD5D JUMP JUMPDEST DUP5 MLOAD DUP2 MSTORE DUP6 DUP6 ADD MLOAD DUP7 DUP3 ADD MSTORE DUP3 MSTORE PUSH1 0x40 SWAP1 SWAP4 ADD SWAP3 SWAP1 DUP5 ADD SWAP1 PUSH2 0xECD JUMP JUMPDEST SWAP8 SWAP7 POP POP POP POP POP POP POP JUMP JUMPDEST PUSH4 0x4E487B71 PUSH1 0xE0 SHL PUSH1 0x0 MSTORE PUSH1 0x32 PUSH1 0x4 MSTORE PUSH1 0x24 PUSH1 0x0 REVERT JUMPDEST DUP1 MLOAD PUSH1 0x1 PUSH1 0x1 PUSH1 0x40 SHL SUB DUP2 AND DUP2 EQ PUSH2 0xF43 JUMPI PUSH1 0x0 DUP1 REVERT JUMPDEST SWAP2 SWAP1 POP JUMP JUMPDEST DUP1 MLOAD PUSH2 0xF43 DUP2 PUSH2 0x9BC JUMP JUMPDEST DUP1 MLOAD PUSH1 0x1 PUSH1 0x1 PUSH1 0x80 SHL SUB DUP2 AND DUP2 EQ PUSH2 0xF43 JUMPI PUSH1 0x0 DUP1 REVERT JUMPDEST PUSH1 0x0 DUP3 PUSH1 0x1F DUP4 ADD SLT PUSH2 0xF7B JUMPI PUSH1 0x0 DUP1 REVERT JUMPDEST DUP2 MLOAD PUSH1 0x1 PUSH1 0x1 PUSH1 0x40 SHL SUB DUP2 GT ISZERO PUSH2 0xF94 JUMPI PUSH2 0xF94 PUSH2 0xD47 JUMP JUMPDEST PUSH2 0xFA7 PUSH1 0x1F DUP3 ADD PUSH1 0x1F NOT AND PUSH1 0x20 ADD PUSH2 0xDA8 JUMP JUMPDEST DUP2 DUP2 MSTORE DUP5 PUSH1 0x20 DUP4 DUP7 ADD ADD GT ISZERO PUSH2 0xFBC JUMPI PUSH1 0x0 DUP1 REVERT JUMPDEST PUSH2 0xFCD DUP3 PUSH1 0x20 DUP4 ADD PUSH1 0x20 DUP8 ADD PUSH2 0x9F1 JUMP JUMPDEST SWAP5 SWAP4 POP POP POP POP JUMP JUMPDEST PUSH1 0x0 PUSH1 0x20 DUP3 DUP5 SUB SLT ISZERO PUSH2 0xFE7 JUMPI PUSH1 0x0 DUP1 REVERT JUMPDEST DUP2 MLOAD PUSH1 0x1 PUSH1 0x1 PUSH1 0x40 SHL SUB DUP1 DUP3 GT ISZERO PUSH2 0xFFE JUMPI PUSH1 0x0 DUP1 REVERT JUMPDEST SWAP1 DUP4 ADD SWAP1 PUSH2 0x140 DUP3 DUP7 SUB SLT ISZERO PUSH2 0x1013 JUMPI PUSH1 0x0 DUP1 REVERT JUMPDEST PUSH2 0x101B PUSH2 0xD85 JUMP JUMPDEST PUSH2 0x1024 DUP4 PUSH2 0xF2C JUMP JUMPDEST DUP2 MSTORE PUSH2 0x1032 PUSH1 0x20 DUP5 ADD PUSH2 0xF2C JUMP JUMPDEST PUSH1 0x20 DUP3 ADD MSTORE PUSH2 0x1043 PUSH1 0x40 DUP5 ADD PUSH2 0xF2C JUMP JUMPDEST PUSH1 0x40 DUP3 ADD MSTORE PUSH2 0x1054 PUSH1 0x60 DUP5 ADD PUSH2 0xF2C JUMP JUMPDEST PUSH1 0x60 DUP3 ADD MSTORE PUSH2 0x1065 PUSH1 0x80 DUP5 ADD PUSH2 0xF48 JUMP JUMPDEST PUSH1 0x80 DUP3 ADD MSTORE PUSH2 0x1076 PUSH1 0xA0 DUP5 ADD PUSH2 0xF48 JUMP JUMPDEST PUSH1 0xA0 DUP3 ADD MSTORE PUSH2 0x1087 PUSH1 0xC0 DUP5 ADD PUSH2 0xF53 JUMP JUMPDEST PUSH1 0xC0 DUP3 ADD MSTORE PUSH2 0x1098 PUSH1 0xE0 DUP5 ADD PUSH2 0xF53 JUMP JUMPDEST PUSH1 0xE0 DUP3 ADD MSTORE PUSH2 0x100 PUSH2 0x10AB DUP2 DUP6 ADD PUSH2 0xF53 JUMP JUMPDEST SWAP1 DUP3 ADD MSTORE PUSH2 0x120 DUP4 DUP2 ADD MLOAD DUP4 DUP2 GT ISZERO PUSH2 0x10C3 JUMPI PUSH1 0x0 DUP1 REVERT JUMPDEST PUSH2 0x10CF DUP9 DUP3 DUP8 ADD PUSH2 0xF6A JUMP JUMPDEST SWAP2 DUP4 ADD SWAP2 SWAP1 SWAP2 MSTORE POP SWAP6 SWAP5 POP POP POP POP POP JUMP JUMPDEST PUSH1 0x0 DUP1 PUSH1 0x40 DUP4 DUP6 SUB SLT ISZERO PUSH2 0x10F3 JUMPI PUSH1 0x0 DUP1 REVERT JUMPDEST DUP3 MLOAD PUSH1 0x1 PUSH1 0x1 PUSH1 0x40 SHL SUB DUP2 GT ISZERO PUSH2 0x1109 JUMPI PUSH1 0x0 DUP1 REVERT JUMPDEST DUP4 ADD PUSH1 0x1F DUP2 ADD DUP6 SGT PUSH2 0x111A JUMPI PUSH1 0x0 DUP1 REVERT JUMPDEST DUP1 MLOAD PUSH1 0x20 PUSH2 0x112A PUSH2 0xEA4 DUP4 PUSH2 0xE39 JUMP JUMPDEST DUP3 DUP2 MSTORE PUSH1 0x5 SWAP3 SWAP1 SWAP3 SHL DUP4 ADD DUP2 ADD SWAP2 DUP2 DUP2 ADD SWAP1 DUP9 DUP5 GT ISZERO PUSH2 0x1149 JUMPI PUSH1 0x0 DUP1 REVERT JUMPDEST SWAP4 DUP3 ADD SWAP4 JUMPDEST DUP4 DUP6 LT ISZERO PUSH2 0x1170 JUMPI DUP5 MLOAD PUSH2 0x1161 DUP2 PUSH2 0x9BC JUMP JUMPDEST DUP3 MSTORE SWAP4 DUP3 ADD SWAP4 SWAP1 DUP3 ADD SWAP1 PUSH2 0x114E JUMP JUMPDEST SWAP7 SWAP1 SWAP2 ADD MLOAD SWAP6 SWAP8 SWAP6 SWAP7 POP POP POP POP POP POP JUMP JUMPDEST PUSH4 0x4E487B71 PUSH1 0xE0 SHL PUSH1 0x0 MSTORE PUSH1 0x11 PUSH1 0x4 MSTORE PUSH1 0x24 PUSH1 0x0 REVERT JUMPDEST PUSH1 0x0 DUP3 DUP3 LT ISZERO PUSH2 0x11A9 JUMPI PUSH2 0x11A9 PUSH2 0x1181 JUMP JUMPDEST POP SUB SWAP1 JUMP JUMPDEST PUSH1 0x0 DUP3 NOT DUP3 GT ISZERO PUSH2 0x11C1 JUMPI PUSH2 0x11C1 PUSH2 0x1181 JUMP JUMPDEST POP ADD SWAP1 JUMP JUMPDEST DUP4 DUP2 MSTORE DUP3 PUSH1 0x20 DUP3 ADD MSTORE PUSH1 0x60 PUSH1 0x40 DUP3 ADD MSTORE PUSH1 0x0 PUSH2 0x11E5 PUSH1 0x60 DUP4 ADD DUP5 PUSH2 0xA21 JUMP JUMPDEST SWAP6 SWAP5 POP POP POP POP POP JUMP JUMPDEST PUSH1 0x0 PUSH1 0x20 DUP3 DUP5 SUB SLT ISZERO PUSH2 0x1200 JUMPI PUSH1 0x0 DUP1 REVERT JUMPDEST POP MLOAD SWAP2 SWAP1 POP JUMP INVALID LOG2 PUSH5 0x6970667358 0x22 SLT KECCAK256 0xDB 0xF6 PUSH1 0x5B 0xAC DUP5 CALLDATALOAD STATICCALL 0x2B PUSH22 0xCBB13DB2EC88FB1F0D22A4DE6D0DE63F74A9770A280B PUSH5 0x736F6C6343 STOP ADDMOD EXP STOP CALLER ","sha1":"7c5136d382264ee037817b495b2f45136aee662f","source":"// SPDX-License-Identifier: GPL-3.0-or-later\npragma solidity 0.8.10;\n\nimport \"@openzeppelin/contracts/utils/structs/EnumerableSet.sol\";\n\nimport \"../../../interfaces/actions/topup/ITopUpAction.sol\";\nimport \"../../../interfaces/actions/topup/ITopUpKeeperHelper.sol\";\nimport \"../../../interfaces/actions/topup/ITopUpHandler.sol\";\nimport \"../../../libraries/UncheckedMath.sol\";\n\n/**\n * This TopUp Keeper Helper.\n * It is a utility contract to help create Mero TopUp Keepers.\n * It exposes a view that allows the user to query a list of TopUp Positions that can be executed.\n */\ncontract TopUpKeeperHelper is ITopUpKeeperHelper {\n    using UncheckedMath for uint256;\n    using EnumerableSet for EnumerableSet.AddressSet;\n\n    ITopUpAction private immutable _topupAction;\n\n    constructor(address topupAction_) {\n        _topupAction = ITopUpAction(topupAction_);\n    }\n\n    /**\n     * @notice Gets a list of topup positions that can be executed.\n     * @dev Uses cursor pagination.\n     * @param cursor The cursor for pagination (should start at 0 for first call).\n     * @param howMany Maximum number of topups to return in this pagination request.\n     * @return topups List of topup positions that can be executed.\n     * @return nextCursor The cursor to use for the next pagination request.\n     */\n    function getExecutableTopups(uint256 cursor, uint256 howMany)\n        external\n        view\n        override\n        returns (TopupData[] memory topups, uint256 nextCursor)\n    {\n        TopupData[] memory executableTopups = new TopupData[](howMany);\n        uint256 topupsAdded;\n        while (true) {\n            (address[] memory users, ) = _topupAction.usersWithPositions(cursor, howMany);\n            if (users.length == 0) return (_shortenTopups(executableTopups, topupsAdded), 0);\n            for (uint256 i; i < users.length; i = i.uncheckedInc()) {\n                address user = users[i];\n                ITopUpAction.RecordWithMeta[] memory positions = listPositions(user);\n                for (uint256 j; j < positions.length; j = j.uncheckedInc()) {\n                    ITopUpAction.RecordWithMeta memory position = positions[j];\n                    if (!_canExecute(user, position)) continue;\n                    executableTopups[topupsAdded] = _positionToTopup(user, position);\n                    topupsAdded = topupsAdded.uncheckedInc();\n                    uint256 offset = j == positions.length - 1 ? 1 : 0;\n                    if (topupsAdded == howMany) return (executableTopups, cursor + i + offset);\n                }\n            }\n            cursor += howMany;\n        }\n    }\n\n    /**\n     * @notice Check if the action can be executed for the positions\n     * of the given `keys`\n     * @param keys Unique keys to check for\n     * @return an array of boolean containing a result per input\n     */\n    function batchCanExecute(ITopUpAction.RecordKey[] calldata keys)\n        external\n        view\n        override\n        returns (bool[] memory)\n    {\n        bool[] memory results = new bool[](keys.length);\n        for (uint256 i; i < keys.length; i = i.uncheckedInc()) {\n            ITopUpAction.RecordKey calldata key = keys[i];\n            results[i] = canExecute(key);\n        }\n        return results;\n    }\n\n    /**\n     * @notice Get a list of all positions the `payer` has registered.\n     * @param payer Address to list position for.\n     * @return Records of all registered positions.\n     */\n    function listPositions(address payer)\n        public\n        view\n        override\n        returns (ITopUpAction.RecordWithMeta[] memory)\n    {\n        ITopUpAction.RecordMeta[] memory userRecordsMeta = _topupAction.getUserPositions(payer);\n        uint256 length = userRecordsMeta.length;\n        ITopUpAction.RecordWithMeta[] memory result = new ITopUpAction.RecordWithMeta[](length);\n        for (uint256 i; i < length; i = i.uncheckedInc()) {\n            bytes32 account = userRecordsMeta[i].account;\n            bytes32 protocol = userRecordsMeta[i].protocol;\n            ITopUpAction.Record memory record = _topupAction.getPosition(payer, account, protocol);\n            result[i] = ITopUpAction.RecordWithMeta(account, protocol, record);\n        }\n        return result;\n    }\n\n    /**\n     * @notice Check if action can be executed.\n     * @param key Unique key of the account to check for\n     * the key contains information about the payer, the account and the protocol\n     * @return `true` if action can be executed, else `false`.\n     */\n    function canExecute(ITopUpAction.RecordKey memory key) public view override returns (bool) {\n        ITopUpAction.Record memory position = _topupAction.getPosition(\n            key.payer,\n            key.account,\n            key.protocol\n        );\n        if (position.threshold == 0 || position.totalTopUpAmount == 0) {\n            return false;\n        }\n        uint256 healthFactor = _topupAction.getHealthFactor(\n            key.protocol,\n            key.account,\n            position.extra\n        );\n        return healthFactor < position.threshold;\n    }\n\n    /**\n     * @dev Returns if a position can be executed.\n     * @param user The user paying for the position.\n     * @param position The position record with metadata.\n     * @return 'true' if it can be executed, 'false' if not.\n     */\n    function _canExecute(address user, ITopUpAction.RecordWithMeta memory position)\n        private\n        view\n        returns (bool)\n    {\n        return canExecute(ITopUpAction.RecordKey(user, position.account, position.protocol));\n    }\n\n    /**\n     * @dev Converts from RecordWithMeta struct to TopupData struct.\n     * @param user The user paying for the position.\n     * @param position The position record with metadata.\n     * @return The topup positions as a TopupData struct.\n     */\n    function _positionToTopup(address user, ITopUpAction.RecordWithMeta memory position)\n        private\n        pure\n        returns (TopupData memory)\n    {\n        return TopupData(user, position.account, position.protocol, position.record);\n    }\n\n    /**\n     * @dev Shortens a list of topups by truncating it to a given length.\n     * @param topups The list of topups to shorten.\n     * @param length The length to truncate the list of topups to.\n     * @return The shortened list of topups.\n     */\n    function _shortenTopups(TopupData[] memory topups, uint256 length)\n        private\n        pure\n        returns (TopupData[] memory)\n    {\n        TopupData[] memory shortened = new TopupData[](length);\n        for (uint256 i; i < length; i = i.uncheckedInc()) {\n            shortened[i] = topups[i];\n        }\n        return shortened;\n    }\n}\n","sourcePath":"contracts/actions/topup/TopUpKeeperHelper.sol","type":"contract","deployment":{"address":"0x4c300f684957a5e1CEE1B9D224Bc5c3f3A4c39bA","chainid":"42","blockHeight":33231695}}