{"abi":[{"inputs":[{"internalType":"uint256","name":"_annualInflationRateLp","type":"uint256"},{"internalType":"uint256","name":"_annualInflationRateKeeper","type":"uint256"},{"internalType":"uint256","name":"_annualInflationRateAmm","type":"uint256"},{"internalType":"uint256","name":"_annualInflationDecayLp","type":"uint256"},{"internalType":"uint256","name":"_annualInflationDecayKeeper","type":"uint256"},{"internalType":"uint256","name":"_annualInflationDecayAmm","type":"uint256"},{"internalType":"uint256","name":"_initialPeriodKeeperInflation","type":"uint256"},{"internalType":"uint256","name":"_initialPeriodAmmInflation","type":"uint256"},{"internalType":"uint256","name":"_nonInflationDistribution","type":"uint256"},{"internalType":"contract IAddressProvider","name":"_addressProvider","type":"address"}],"stateMutability":"nonpayable","type":"constructor","name":"constructor"},{"anonymous":false,"inputs":[],"name":"InflationRateUpdated","type":"event"},{"anonymous":false,"inputs":[],"name":"InflationStarted","type":"event"},{"anonymous":false,"inputs":[{"indexed":false,"internalType":"address","name":"token","type":"address"}],"name":"TokenSet","type":"event"},{"anonymous":false,"inputs":[{"indexed":true,"internalType":"address","name":"beneficiary","type":"address"},{"indexed":false,"internalType":"uint256","name":"amount","type":"uint256"}],"name":"TokensMinted","type":"event"},{"inputs":[],"name":"addressProvider","outputs":[{"internalType":"contract IAddressProvider","name":"","type":"address"}],"stateMutability":"view","type":"function"},{"inputs":[],"name":"annualInflationDecayAmm","outputs":[{"internalType":"uint256","name":"","type":"uint256"}],"stateMutability":"view","type":"function"},{"inputs":[],"name":"annualInflationDecayKeeper","outputs":[{"internalType":"uint256","name":"","type":"uint256"}],"stateMutability":"view","type":"function"},{"inputs":[],"name":"annualInflationDecayLp","outputs":[{"internalType":"uint256","name":"","type":"uint256"}],"stateMutability":"view","type":"function"},{"inputs":[],"name":"currentInflationAmountAmm","outputs":[{"internalType":"uint256","name":"","type":"uint256"}],"stateMutability":"view","type":"function"},{"inputs":[],"name":"currentInflationAmountKeeper","outputs":[{"internalType":"uint256","name":"","type":"uint256"}],"stateMutability":"view","type":"function"},{"inputs":[],"name":"currentInflationAmountLp","outputs":[{"internalType":"uint256","name":"","type":"uint256"}],"stateMutability":"view","type":"function"},{"inputs":[],"name":"currentTotalInflation","outputs":[{"internalType":"uint256","name":"","type":"uint256"}],"stateMutability":"view","type":"function"},{"inputs":[],"name":"executeInflationRateUpdate","outputs":[{"internalType":"bool","name":"","type":"bool"}],"stateMutability":"nonpayable","type":"function"},{"inputs":[],"name":"getAmmInflationRate","outputs":[{"internalType":"uint256","name":"","type":"uint256"}],"stateMutability":"view","type":"function"},{"inputs":[],"name":"getKeeperInflationRate","outputs":[{"internalType":"uint256","name":"","type":"uint256"}],"stateMutability":"view","type":"function"},{"inputs":[],"name":"getLpInflationRate","outputs":[{"internalType":"uint256","name":"","type":"uint256"}],"stateMutability":"view","type":"function"},{"inputs":[],"name":"initialAnnualInflationRateAmm","outputs":[{"internalType":"uint256","name":"","type":"uint256"}],"stateMutability":"view","type":"function"},{"inputs":[],"name":"initialAnnualInflationRateKeeper","outputs":[{"internalType":"uint256","name":"","type":"uint256"}],"stateMutability":"view","type":"function"},{"inputs":[],"name":"initialAnnualInflationRateLp","outputs":[{"internalType":"uint256","name":"","type":"uint256"}],"stateMutability":"view","type":"function"},{"inputs":[],"name":"initialPeriodAmmInflation","outputs":[{"internalType":"uint256","name":"","type":"uint256"}],"stateMutability":"view","type":"function"},{"inputs":[],"name":"initialPeriodEnded","outputs":[{"internalType":"bool","name":"","type":"bool"}],"stateMutability":"view","type":"function"},{"inputs":[],"name":"initialPeriodKeeperInflation","outputs":[{"internalType":"uint256","name":"","type":"uint256"}],"stateMutability":"view","type":"function"},{"inputs":[],"name":"issuedNonInflationSupply","outputs":[{"internalType":"uint256","name":"","type":"uint256"}],"stateMutability":"view","type":"function"},{"inputs":[],"name":"lastEvent","outputs":[{"internalType":"uint256","name":"","type":"uint256"}],"stateMutability":"view","type":"function"},{"inputs":[],"name":"lastInflationDecay","outputs":[{"internalType":"uint256","name":"","type":"uint256"}],"stateMutability":"view","type":"function"},{"inputs":[{"internalType":"address","name":"beneficiary","type":"address"},{"internalType":"uint256","name":"amount","type":"uint256"}],"name":"mint","outputs":[],"stateMutability":"nonpayable","type":"function"},{"inputs":[{"internalType":"address","name":"beneficiary","type":"address"},{"internalType":"uint256","name":"amount","type":"uint256"}],"name":"mintNonInflationTokens","outputs":[],"stateMutability":"nonpayable","type":"function"},{"inputs":[],"name":"nonInflationDistribution","outputs":[{"internalType":"uint256","name":"","type":"uint256"}],"stateMutability":"view","type":"function"},{"inputs":[],"name":"roleManager","outputs":[{"internalType":"contract IRoleManager","name":"","type":"address"}],"stateMutability":"view","type":"function"},{"inputs":[{"internalType":"address","name":"token_","type":"address"}],"name":"setToken","outputs":[],"stateMutability":"nonpayable","type":"function"},{"inputs":[],"name":"startInflation","outputs":[],"stateMutability":"nonpayable","type":"function"},{"inputs":[],"name":"token","outputs":[{"internalType":"contract IMeroToken","name":"","type":"address"}],"stateMutability":"view","type":"function"},{"inputs":[],"name":"totalAvailableToNow","outputs":[{"internalType":"uint256","name":"","type":"uint256"}],"stateMutability":"view","type":"function"},{"inputs":[],"name":"totalMintedToNow","outputs":[{"internalType":"uint256","name":"","type":"uint256"}],"stateMutability":"view","type":"function"}],"bytecode":"6101e06040523480156200001257600080fd5b50604051620017fc380380620017fc83398101604081905262000035916200028b565b62000054816001600160a01b0316620001f060201b62000c991760201c565b6001600160a01b0316608052600160005560408051606081019091526021808252670de0b6b3a764000089109190620017db602083013990620000b55760405162461bcd60e51b8152600401620000ac91906200030d565b60405180910390fd5b50670de0b6b3a76400008610604051806060016040528060218152602001620017db6021913990620000fc5760405162461bcd60e51b8152600401620000ac91906200030d565b50670de0b6b3a76400008510604051806060016040528060218152602001620017db6021913990620001435760405162461bcd60e51b8152600401620000ac91906200030d565b5060a08a905261010089905261016088905260c087905261012086905261018085905260e0849052610140839052620001816301e133808b62000365565b600155620001946301e133808562000365565b600255620001a76301e133808462000365565b6003819055600254600154620001be919062000388565b620001ca919062000388565b6007556101a0919091526001600160a01b03166101c05250620003d69650505050505050565b6040516321f8a72160e01b81526a3937b632a6b0b730b3b2b960a91b60048201526000906001600160a01b038316906321f8a72190602401602060405180830381865afa15801562000246573d6000803e3d6000fd5b505050506040513d601f19601f820116820180604052508101906200026c9190620003af565b92915050565b6001600160a01b03811681146200028857600080fd5b50565b6000806000806000806000806000806101408b8d031215620002ac57600080fd5b8a51995060208b0151985060408b0151975060608b0151965060808b0151955060a08b0151945060c08b0151935060e08b015192506101008b015191506101208b0151620002fa8162000272565b809150509295989b9194979a5092959850565b600060208083528351808285015260005b818110156200033c578581018301518582016040015282016200031e565b818111156200034f576000604083870101525b50601f01601f1916929092016040019392505050565b6000826200038357634e487b7160e01b600052601260045260246000fd5b500490565b60008219821115620003aa57634e487b7160e01b600052601160045260246000fd5b500190565b600060208284031215620003c257600080fd5b8151620003cf8162000272565b9392505050565b60805160a05160c05160e05161010051610120516101405161016051610180516101a0516101c051611331620004aa600039600081816102750152610ecb01526000818161034d01526109de01526000818161030d0152610fc40152600081816102d0015261102b015260006102370152600081816103740152610f940152600081816103ac0152610ffa015260006104580152600081816104010152610f59015260006104310152600081816101e001528181610497015281816106980152818161089e0152610b2e01526113316000f3fe608060405234801561001057600080fd5b50600436106101d95760003560e01c8063aee5b63c11610104578063d1f6593a116100a2578063f3a5fa4a11610071578063f3a5fa4a1461042c578063f4fe6b0014610453578063f9b7ce021461047a578063fc0c546a1461048257600080fd5b8063d1f6593a146103ea578063d8ba1175146103f3578063dbb9c246146103fc578063e7c5009c1461042357600080fd5b8063bf3f5580116100de578063bf3f55801461039f578063c2af2cf8146103a7578063c522a6e4146103ce578063cc1962aa146103e157600080fd5b8063aee5b63c14610348578063b16910641461036f578063b5a703901461039657600080fd5b80634a17ed591161017c57806371f19a9f1161014b57806371f19a9f14610308578063877f16921461032f57806388258d3114610337578063a0604e551461033f57600080fd5b80634a17ed59146102b3578063555c627a146102cb5780635853f6c6146102f25780635ab675a4146102ff57600080fd5b80631ca992e4116101b85780631ca992e4146102675780632954018c146102705780632d3d88511461029757806340c10f19146102a057600080fd5b8062435da5146101de578063144fa6d71461021d57806316ba199914610232575b600080fd5b7f00000000000000000000000000000000000000000000000000000000000000005b6040516001600160a01b0390911681526020015b60405180910390f35b61023061022b366004611198565b610495565b005b6102597f000000000000000000000000000000000000000000000000000000000000000081565b604051908152602001610214565b61025960085481565b6102007f000000000000000000000000000000000000000000000000000000000000000081565b61025960065481565b6102306102ae3660046111b5565b610629565b6102bb61082d565b6040519015158152602001610214565b6102597f000000000000000000000000000000000000000000000000000000000000000081565b6004546102bb9060ff1681565b610259600a5481565b6102597f000000000000000000000000000000000000000000000000000000000000000081565b61025961084e565b610259610868565b61025960015481565b6102597f000000000000000000000000000000000000000000000000000000000000000081565b6102597f000000000000000000000000000000000000000000000000000000000000000081565b61025960095481565b610259610882565b6102597f000000000000000000000000000000000000000000000000000000000000000081565b6102306103dc3660046111b5565b61089c565b61025960035481565b61025960025481565b61025960075481565b6102597f000000000000000000000000000000000000000000000000000000000000000081565b61025960055481565b6102597f000000000000000000000000000000000000000000000000000000000000000081565b6102597f000000000000000000000000000000000000000000000000000000000000000081565b610230610b2c565b600b54610200906001600160a01b031681565b7f0000000000000000000000000000000000000000000000000000000000000000604051632474521560e21b815269676f7665726e616e636560b01b60048201523360248201526001600160a01b0391909116906391d1485490604401602060405180830381865afa15801561050f573d6000803e3d6000fd5b505050506040513d601f19601f8201168201806040525081019061053391906111e1565b60405180604001604052806013815260200172756e617574686f72697a65642061636365737360681b815250906105865760405162461bcd60e51b815260040161057d9190611203565b60405180910390fd5b50600b546001600160a01b0316156105d55760405162461bcd60e51b8152602060048201526012602482015271546f6b656e20616c7265616479207365742160701b604482015260640161057d565b600b80546001600160a01b0319166001600160a01b0383169081179091556040519081527fa07c91c183e42229e705a9795a1c06d76528b673788b849597364528c96eefb79060200160405180910390a150565b6002600054141561067c5760405162461bcd60e51b815260206004820152601f60248201527f5265656e7472616e637947756172643a207265656e7472616e742063616c6c00604482015260640161057d565b60026000557034b7333630ba34b7b72fb6b0b730b3b2b960791b7f0000000000000000000000000000000000000000000000000000000000000000604051632474521560e21b8152600481018390523360248201526001600160a01b0391909116906391d1485490604401602060405180830381865afa158015610704573d6000803e3d6000fd5b505050506040513d601f19601f8201168201806040525081019061072891906111e1565b60405180604001604052806013815260200172756e617574686f72697a65642061636365737360681b815250906107725760405162461bcd60e51b815260040161057d9190611203565b50600a546107c25760405162461bcd60e51b815260206004820152601960248201527f696e666c6174696f6e206e6f7420737461727465642079657400000000000000604482015260640161057d565b6040805180820190915260188152771e995c9bc81859191c995cdcc81b9bdd08185b1b1bddd95960421b60208201526001600160a01b0384166108185760405162461bcd60e51b815260040161057d9190611203565b506108238383610d19565b5050600160005550565b6000600a54600014156108405750600090565b610848610e6d565b50600190565b6000600a54600014156108615750600090565b5060035490565b6000600a546000141561087b5750600090565b5060015490565b6000600a54600014156108955750600090565b5060025490565b7f0000000000000000000000000000000000000000000000000000000000000000604051632474521560e21b815269676f7665726e616e636560b01b60048201523360248201526001600160a01b0391909116906391d1485490604401602060405180830381865afa158015610916573d6000803e3d6000fd5b505050506040513d601f19601f8201168201806040525081019061093a91906111e1565b60405180604001604052806013815260200172756e617574686f72697a65642061636365737360681b815250906109845760405162461bcd60e51b815260040161057d9190611203565b506040805180820190915260188152771e995c9bc81859191c995cdcc81b9bdd08185b1b1bddd95960421b60208201526001600160a01b0383166109db5760405162461bcd60e51b815260040161057d9190611203565b507f000000000000000000000000000000000000000000000000000000000000000081600554610a0b919061126e565b1115610a685760405162461bcd60e51b815260206004820152602660248201527f4d6178696d756d206e6f6e2d696e666c6174696f6e20616d6f756e742065786360448201526532b2b232b21760d11b606482015260840161057d565b8060056000828254610a7a919061126e565b9091555050600b546040516340c10f1960e01b81526001600160a01b03848116600483015260248201849052909116906340c10f1990604401600060405180830381600087803b158015610acd57600080fd5b505af1158015610ae1573d6000803e3d6000fd5b50505050816001600160a01b03167f3f2c9d57c068687834f0de942a9babb9e5acab57d516d3480a3c16ee165a427382604051610b2091815260200190565b60405180910390a25050565b7f0000000000000000000000000000000000000000000000000000000000000000604051632474521560e21b815269676f7665726e616e636560b01b60048201523360248201526001600160a01b0391909116906391d1485490604401602060405180830381865afa158015610ba6573d6000803e3d6000fd5b505050506040513d601f19601f82011682018060405250810190610bca91906111e1565b60405180604001604052806013815260200172756e617574686f72697a65642061636365737360681b81525090610c145760405162461bcd60e51b815260040161057d9190611203565b50600a5415610c655760405162461bcd60e51b815260206004820152601e60248201527f496e666c6174696f6e2068617320616c726561647920737461727465642e0000604482015260640161057d565b42600a8190556006556040517f153ab0893528d2944e476bf67f05c0b71c966ef6a5702d345b66d1c0c1e9e6b090600090a1565b6040516321f8a72160e01b81526a3937b632a6b0b730b3b2b960a91b60048201526000906001600160a01b038316906321f8a721906024015b602060405180830381865afa158015610cef573d6000803e3d6000fd5b505050506040513d601f19601f82011682018060405250810190610d139190611286565b92915050565b600754600a54610d2990426112a3565b610d3391906112ba565b60086000828254610d44919061126e565b9091555050600954600090610d5a90839061126e565b9050600854811115610dae5760405162461bcd60e51b815260206004820152601860248201527f4d696e7461626c6520616d6f756e742065786365656465640000000000000000604482015260640161057d565b600981905542600a55600b546040516340c10f1960e01b81526001600160a01b03858116600483015260248201859052909116906340c10f1990604401600060405180830381600087803b158015610e0557600080fd5b505af1158015610e19573d6000803e3d6000fd5b50505050610e25610e6d565b826001600160a01b03167f3f2c9d57c068687834f0de942a9babb9e5acab57d516d3480a3c16ee165a427383604051610e6091815260200190565b60405180910390a2505050565b60006301e13380600654610e81919061126e565b90508042106110b757600a54610e9790826112a3565b600754610ea491906112ba565b60086000828254610eb5919061126e565b909155505042600a55610ef06001600160a01b037f000000000000000000000000000000000000000000000000000000000000000016611118565b6001600160a01b03166308dc1d29826040518263ffffffff1660e01b8152600401610f1d91815260200190565b600060405180830381600087803b158015610f3757600080fd5b505af1158015610f4b573d6000803e3d6000fd5b5050600154610f7d925090507f000000000000000000000000000000000000000000000000000000000000000061115a565b60015560045460ff1615610ff057600254610fb8907f000000000000000000000000000000000000000000000000000000000000000061115a565b600255600354610fe8907f000000000000000000000000000000000000000000000000000000000000000061115a565b600355611060565b61101e6301e133807f00000000000000000000000000000000000000000000000000000000000000006112d9565b60025561104f6301e133807f00000000000000000000000000000000000000000000000000000000000000006112d9565b6003556004805460ff191660011790555b600354600254600154611073919061126e565b61107d919061126e565b60075561108a81426112a3565b60075461109791906112ba565b600860008282546110a8919061126e565b909155505060068190556110ec565b600a546110c490426112a3565b6007546110d191906112ba565b600860008282546110e2919061126e565b909155505042600a555b6040517f859b6569f7e96bf22160e0f59a87d7e6400eec792bd7ae173f7db3227a190e9790600090a150565b6040516321f8a72160e01b81526f34b7333630ba34b7b726b0b730b3b2b960811b60048201526000906001600160a01b038316906321f8a72190602401610cd2565b6000670de0b6b3a764000061116f83856112ba565b61117991906112d9565b9392505050565b6001600160a01b038116811461119557600080fd5b50565b6000602082840312156111aa57600080fd5b813561117981611180565b600080604083850312156111c857600080fd5b82356111d381611180565b946020939093013593505050565b6000602082840312156111f357600080fd5b8151801515811461117957600080fd5b600060208083528351808285015260005b8181101561123057858101830151858201604001528201611214565b81811115611242576000604083870101525b50601f01601f1916929092016040019392505050565b634e487b7160e01b600052601160045260246000fd5b6000821982111561128157611281611258565b500190565b60006020828403121561129857600080fd5b815161117981611180565b6000828210156112b5576112b5611258565b500390565b60008160001904831182151516156112d4576112d4611258565b500290565b6000826112f657634e487b7160e01b600052601260045260246000fd5b50049056fea264697066735822122080772811bede0e19300d51e591cd0485aed8cfef3a6a6ed1bfc9faa4cc08075564736f6c634300080a0033696e76616c696420706172616d657465722076616c756520617474656d70746564","bytecodeSha1":"da39a3ee5e6b4b0d3255bfef95601890afd80709","compiler":{"evm_version":"london","optimizer":{"enabled":true,"runs":200},"version":"0.8.10+commit.fc410830"},"contractName":"Minter","language":"Solidity","natspec":{"kind":"dev","methods":{"executeInflationRateUpdate()":{"details":"This updates the inflation rate to the next linear segment in the inflations schedule.","notice":"Update the inflation rate according to the piecewise linear schedule.","returns":{"_0":"`true` if successful."}},"getAmmInflationRate()":{"notice":"Supplies the inflation rate for LPs on AMMs per unit of time (seconds).","returns":{"_0":"AMM inflation rate."}},"getKeeperInflationRate()":{"notice":"Supplies the inflation rate for keepers per unit of time (seconds).","returns":{"_0":"keeper inflation rate."}},"getLpInflationRate()":{"notice":"Supplies the inflation rate for LPs per unit of time (seconds).","returns":{"_0":"LP inflation rate."}},"mint(address,uint256)":{"details":"Can only be called by the controller.","notice":"Mints MERO tokens to a specified address.","params":{"amount":"Amount of tokens to mint.","beneficiary":"Address to mint tokens for."}},"mintNonInflationTokens(address,uint256)":{"details":"The amount of tokens that can be minted in total is subject to a pre-set upper limit.","notice":"Mint tokens that are not part of the inflation schedule.","params":{"amount":"Amount of tokens to mint.","beneficiary":"Address to mint tokens for."}}},"version":1},"opcodes":"PUSH1 0x80 PUSH1 0x40 MSTORE CALLVALUE DUP1 ISZERO PUSH2 0x10 JUMPI PUSH1 0x0 DUP1 REVERT JUMPDEST POP PUSH1 0x4 CALLDATASIZE LT PUSH2 0x1D9 JUMPI PUSH1 0x0 CALLDATALOAD PUSH1 0xE0 SHR DUP1 PUSH4 0xAEE5B63C GT PUSH2 0x104 JUMPI DUP1 PUSH4 0xD1F6593A GT PUSH2 0xA2 JUMPI DUP1 PUSH4 0xF3A5FA4A GT PUSH2 0x71 JUMPI DUP1 PUSH4 0xF3A5FA4A EQ PUSH2 0x42C JUMPI DUP1 PUSH4 0xF4FE6B00 EQ PUSH2 0x453 JUMPI DUP1 PUSH4 0xF9B7CE02 EQ PUSH2 0x47A JUMPI DUP1 PUSH4 0xFC0C546A EQ PUSH2 0x482 JUMPI PUSH1 0x0 DUP1 REVERT JUMPDEST DUP1 PUSH4 0xD1F6593A EQ PUSH2 0x3EA JUMPI DUP1 PUSH4 0xD8BA1175 EQ PUSH2 0x3F3 JUMPI DUP1 PUSH4 0xDBB9C246 EQ PUSH2 0x3FC JUMPI DUP1 PUSH4 0xE7C5009C EQ PUSH2 0x423 JUMPI PUSH1 0x0 DUP1 REVERT JUMPDEST DUP1 PUSH4 0xBF3F5580 GT PUSH2 0xDE JUMPI DUP1 PUSH4 0xBF3F5580 EQ PUSH2 0x39F JUMPI DUP1 PUSH4 0xC2AF2CF8 EQ PUSH2 0x3A7 JUMPI DUP1 PUSH4 0xC522A6E4 EQ PUSH2 0x3CE JUMPI DUP1 PUSH4 0xCC1962AA EQ PUSH2 0x3E1 JUMPI PUSH1 0x0 DUP1 REVERT JUMPDEST DUP1 PUSH4 0xAEE5B63C EQ PUSH2 0x348 JUMPI DUP1 PUSH4 0xB1691064 EQ PUSH2 0x36F JUMPI DUP1 PUSH4 0xB5A70390 EQ PUSH2 0x396 JUMPI PUSH1 0x0 DUP1 REVERT JUMPDEST DUP1 PUSH4 0x4A17ED59 GT PUSH2 0x17C JUMPI DUP1 PUSH4 0x71F19A9F GT PUSH2 0x14B JUMPI DUP1 PUSH4 0x71F19A9F EQ PUSH2 0x308 JUMPI DUP1 PUSH4 0x877F1692 EQ PUSH2 0x32F JUMPI DUP1 PUSH4 0x88258D31 EQ PUSH2 0x337 JUMPI DUP1 PUSH4 0xA0604E55 EQ PUSH2 0x33F JUMPI PUSH1 0x0 DUP1 REVERT JUMPDEST DUP1 PUSH4 0x4A17ED59 EQ PUSH2 0x2B3 JUMPI DUP1 PUSH4 0x555C627A EQ PUSH2 0x2CB JUMPI DUP1 PUSH4 0x5853F6C6 EQ PUSH2 0x2F2 JUMPI DUP1 PUSH4 0x5AB675A4 EQ PUSH2 0x2FF JUMPI PUSH1 0x0 DUP1 REVERT JUMPDEST DUP1 PUSH4 0x1CA992E4 GT PUSH2 0x1B8 JUMPI DUP1 PUSH4 0x1CA992E4 EQ PUSH2 0x267 JUMPI DUP1 PUSH4 0x2954018C EQ PUSH2 0x270 JUMPI DUP1 PUSH4 0x2D3D8851 EQ PUSH2 0x297 JUMPI DUP1 PUSH4 0x40C10F19 EQ PUSH2 0x2A0 JUMPI PUSH1 0x0 DUP1 REVERT JUMPDEST DUP1 PUSH3 0x435DA5 EQ PUSH2 0x1DE JUMPI DUP1 PUSH4 0x144FA6D7 EQ PUSH2 0x21D JUMPI DUP1 PUSH4 0x16BA1999 EQ PUSH2 0x232 JUMPI JUMPDEST PUSH1 0x0 DUP1 REVERT JUMPDEST PUSH32 0x0 JUMPDEST PUSH1 0x40 MLOAD PUSH1 0x1 PUSH1 0x1 PUSH1 0xA0 SHL SUB SWAP1 SWAP2 AND DUP2 MSTORE PUSH1 0x20 ADD JUMPDEST PUSH1 0x40 MLOAD DUP1 SWAP2 SUB SWAP1 RETURN JUMPDEST PUSH2 0x230 PUSH2 0x22B CALLDATASIZE PUSH1 0x4 PUSH2 0x1198 JUMP JUMPDEST PUSH2 0x495 JUMP JUMPDEST STOP JUMPDEST PUSH2 0x259 PUSH32 0x0 DUP2 JUMP JUMPDEST PUSH1 0x40 MLOAD SWAP1 DUP2 MSTORE PUSH1 0x20 ADD PUSH2 0x214 JUMP JUMPDEST PUSH2 0x259 PUSH1 0x8 SLOAD DUP2 JUMP JUMPDEST PUSH2 0x200 PUSH32 0x0 DUP2 JUMP JUMPDEST PUSH2 0x259 PUSH1 0x6 SLOAD DUP2 JUMP JUMPDEST PUSH2 0x230 PUSH2 0x2AE CALLDATASIZE PUSH1 0x4 PUSH2 0x11B5 JUMP JUMPDEST PUSH2 0x629 JUMP JUMPDEST PUSH2 0x2BB PUSH2 0x82D JUMP JUMPDEST PUSH1 0x40 MLOAD SWAP1 ISZERO ISZERO DUP2 MSTORE PUSH1 0x20 ADD PUSH2 0x214 JUMP JUMPDEST PUSH2 0x259 PUSH32 0x0 DUP2 JUMP JUMPDEST PUSH1 0x4 SLOAD PUSH2 0x2BB SWAP1 PUSH1 0xFF AND DUP2 JUMP JUMPDEST PUSH2 0x259 PUSH1 0xA SLOAD DUP2 JUMP JUMPDEST PUSH2 0x259 PUSH32 0x0 DUP2 JUMP JUMPDEST PUSH2 0x259 PUSH2 0x84E JUMP JUMPDEST PUSH2 0x259 PUSH2 0x868 JUMP JUMPDEST PUSH2 0x259 PUSH1 0x1 SLOAD DUP2 JUMP JUMPDEST PUSH2 0x259 PUSH32 0x0 DUP2 JUMP JUMPDEST PUSH2 0x259 PUSH32 0x0 DUP2 JUMP JUMPDEST PUSH2 0x259 PUSH1 0x9 SLOAD DUP2 JUMP JUMPDEST PUSH2 0x259 PUSH2 0x882 JUMP JUMPDEST PUSH2 0x259 PUSH32 0x0 DUP2 JUMP JUMPDEST PUSH2 0x230 PUSH2 0x3DC CALLDATASIZE PUSH1 0x4 PUSH2 0x11B5 JUMP JUMPDEST PUSH2 0x89C JUMP JUMPDEST PUSH2 0x259 PUSH1 0x3 SLOAD DUP2 JUMP JUMPDEST PUSH2 0x259 PUSH1 0x2 SLOAD DUP2 JUMP JUMPDEST PUSH2 0x259 PUSH1 0x7 SLOAD DUP2 JUMP JUMPDEST PUSH2 0x259 PUSH32 0x0 DUP2 JUMP JUMPDEST PUSH2 0x259 PUSH1 0x5 SLOAD DUP2 JUMP JUMPDEST PUSH2 0x259 PUSH32 0x0 DUP2 JUMP JUMPDEST PUSH2 0x259 PUSH32 0x0 DUP2 JUMP JUMPDEST PUSH2 0x230 PUSH2 0xB2C JUMP JUMPDEST PUSH1 0xB SLOAD PUSH2 0x200 SWAP1 PUSH1 0x1 PUSH1 0x1 PUSH1 0xA0 SHL SUB AND DUP2 JUMP JUMPDEST PUSH32 0x0 PUSH1 0x40 MLOAD PUSH4 0x24745215 PUSH1 0xE2 SHL DUP2 MSTORE PUSH10 0x676F7665726E616E6365 PUSH1 0xB0 SHL PUSH1 0x4 DUP3 ADD MSTORE CALLER PUSH1 0x24 DUP3 ADD MSTORE PUSH1 0x1 PUSH1 0x1 PUSH1 0xA0 SHL SUB SWAP2 SWAP1 SWAP2 AND SWAP1 PUSH4 0x91D14854 SWAP1 PUSH1 0x44 ADD PUSH1 0x20 PUSH1 0x40 MLOAD DUP1 DUP4 SUB DUP2 DUP7 GAS STATICCALL ISZERO DUP1 ISZERO PUSH2 0x50F JUMPI RETURNDATASIZE PUSH1 0x0 DUP1 RETURNDATACOPY RETURNDATASIZE PUSH1 0x0 REVERT JUMPDEST POP POP POP POP PUSH1 0x40 MLOAD RETURNDATASIZE PUSH1 0x1F NOT PUSH1 0x1F DUP3 ADD AND DUP3 ADD DUP1 PUSH1 0x40 MSTORE POP DUP2 ADD SWAP1 PUSH2 0x533 SWAP2 SWAP1 PUSH2 0x11E1 JUMP JUMPDEST PUSH1 0x40 MLOAD DUP1 PUSH1 0x40 ADD PUSH1 0x40 MSTORE DUP1 PUSH1 0x13 DUP2 MSTORE PUSH1 0x20 ADD PUSH19 0x756E617574686F72697A656420616363657373 PUSH1 0x68 SHL DUP2 MSTORE POP SWAP1 PUSH2 0x586 JUMPI PUSH1 0x40 MLOAD PUSH3 0x461BCD PUSH1 0xE5 SHL DUP2 MSTORE PUSH1 0x4 ADD PUSH2 0x57D SWAP2 SWAP1 PUSH2 0x1203 JUMP JUMPDEST PUSH1 0x40 MLOAD DUP1 SWAP2 SUB SWAP1 REVERT JUMPDEST POP PUSH1 0xB SLOAD PUSH1 0x1 PUSH1 0x1 PUSH1 0xA0 SHL SUB AND ISZERO PUSH2 0x5D5 JUMPI PUSH1 0x40 MLOAD PUSH3 0x461BCD PUSH1 0xE5 SHL DUP2 MSTORE PUSH1 0x20 PUSH1 0x4 DUP3 ADD MSTORE PUSH1 0x12 PUSH1 0x24 DUP3 ADD MSTORE PUSH18 0x546F6B656E20616C72656164792073657421 PUSH1 0x70 SHL PUSH1 0x44 DUP3 ADD MSTORE PUSH1 0x64 ADD PUSH2 0x57D JUMP JUMPDEST PUSH1 0xB DUP1 SLOAD PUSH1 0x1 PUSH1 0x1 PUSH1 0xA0 SHL SUB NOT AND PUSH1 0x1 PUSH1 0x1 PUSH1 0xA0 SHL SUB DUP4 AND SWAP1 DUP2 OR SWAP1 SWAP2 SSTORE PUSH1 0x40 MLOAD SWAP1 DUP2 MSTORE PUSH32 0xA07C91C183E42229E705A9795A1C06D76528B673788B849597364528C96EEFB7 SWAP1 PUSH1 0x20 ADD PUSH1 0x40 MLOAD DUP1 SWAP2 SUB SWAP1 LOG1 POP JUMP JUMPDEST PUSH1 0x2 PUSH1 0x0 SLOAD EQ ISZERO PUSH2 0x67C JUMPI PUSH1 0x40 MLOAD PUSH3 0x461BCD PUSH1 0xE5 SHL DUP2 MSTORE PUSH1 0x20 PUSH1 0x4 DUP3 ADD MSTORE PUSH1 0x1F PUSH1 0x24 DUP3 ADD MSTORE PUSH32 0x5265656E7472616E637947756172643A207265656E7472616E742063616C6C00 PUSH1 0x44 DUP3 ADD MSTORE PUSH1 0x64 ADD PUSH2 0x57D JUMP JUMPDEST PUSH1 0x2 PUSH1 0x0 SSTORE PUSH17 0x34B7333630BA34B7B72FB6B0B730B3B2B9 PUSH1 0x79 SHL PUSH32 0x0 PUSH1 0x40 MLOAD PUSH4 0x24745215 PUSH1 0xE2 SHL DUP2 MSTORE PUSH1 0x4 DUP2 ADD DUP4 SWAP1 MSTORE CALLER PUSH1 0x24 DUP3 ADD MSTORE PUSH1 0x1 PUSH1 0x1 PUSH1 0xA0 SHL SUB SWAP2 SWAP1 SWAP2 AND SWAP1 PUSH4 0x91D14854 SWAP1 PUSH1 0x44 ADD PUSH1 0x20 PUSH1 0x40 MLOAD DUP1 DUP4 SUB DUP2 DUP7 GAS STATICCALL ISZERO DUP1 ISZERO PUSH2 0x704 JUMPI RETURNDATASIZE PUSH1 0x0 DUP1 RETURNDATACOPY RETURNDATASIZE PUSH1 0x0 REVERT JUMPDEST POP POP POP POP PUSH1 0x40 MLOAD RETURNDATASIZE PUSH1 0x1F NOT PUSH1 0x1F DUP3 ADD AND DUP3 ADD DUP1 PUSH1 0x40 MSTORE POP DUP2 ADD SWAP1 PUSH2 0x728 SWAP2 SWAP1 PUSH2 0x11E1 JUMP JUMPDEST PUSH1 0x40 MLOAD DUP1 PUSH1 0x40 ADD PUSH1 0x40 MSTORE DUP1 PUSH1 0x13 DUP2 MSTORE PUSH1 0x20 ADD PUSH19 0x756E617574686F72697A656420616363657373 PUSH1 0x68 SHL DUP2 MSTORE POP SWAP1 PUSH2 0x772 JUMPI PUSH1 0x40 MLOAD PUSH3 0x461BCD PUSH1 0xE5 SHL DUP2 MSTORE PUSH1 0x4 ADD PUSH2 0x57D SWAP2 SWAP1 PUSH2 0x1203 JUMP JUMPDEST POP PUSH1 0xA SLOAD PUSH2 0x7C2 JUMPI PUSH1 0x40 MLOAD PUSH3 0x461BCD PUSH1 0xE5 SHL DUP2 MSTORE PUSH1 0x20 PUSH1 0x4 DUP3 ADD MSTORE PUSH1 0x19 PUSH1 0x24 DUP3 ADD MSTORE PUSH32 0x696E666C6174696F6E206E6F7420737461727465642079657400000000000000 PUSH1 0x44 DUP3 ADD MSTORE PUSH1 0x64 ADD PUSH2 0x57D JUMP JUMPDEST PUSH1 0x40 DUP1 MLOAD DUP1 DUP3 ADD SWAP1 SWAP2 MSTORE PUSH1 0x18 DUP2 MSTORE PUSH24 0x1E995C9BC81859191C995CDCC81B9BDD08185B1B1BDDD959 PUSH1 0x42 SHL PUSH1 0x20 DUP3 ADD MSTORE PUSH1 0x1 PUSH1 0x1 PUSH1 0xA0 SHL SUB DUP5 AND PUSH2 0x818 JUMPI PUSH1 0x40 MLOAD PUSH3 0x461BCD PUSH1 0xE5 SHL DUP2 MSTORE PUSH1 0x4 ADD PUSH2 0x57D SWAP2 SWAP1 PUSH2 0x1203 JUMP JUMPDEST POP PUSH2 0x823 DUP4 DUP4 PUSH2 0xD19 JUMP JUMPDEST POP POP PUSH1 0x1 PUSH1 0x0 SSTORE POP JUMP JUMPDEST PUSH1 0x0 PUSH1 0xA SLOAD PUSH1 0x0 EQ ISZERO PUSH2 0x840 JUMPI POP PUSH1 0x0 SWAP1 JUMP JUMPDEST PUSH2 0x848 PUSH2 0xE6D JUMP JUMPDEST POP PUSH1 0x1 SWAP1 JUMP JUMPDEST PUSH1 0x0 PUSH1 0xA SLOAD PUSH1 0x0 EQ ISZERO PUSH2 0x861 JUMPI POP PUSH1 0x0 SWAP1 JUMP JUMPDEST POP PUSH1 0x3 SLOAD SWAP1 JUMP JUMPDEST PUSH1 0x0 PUSH1 0xA SLOAD PUSH1 0x0 EQ ISZERO PUSH2 0x87B JUMPI POP PUSH1 0x0 SWAP1 JUMP JUMPDEST POP PUSH1 0x1 SLOAD SWAP1 JUMP JUMPDEST PUSH1 0x0 PUSH1 0xA SLOAD PUSH1 0x0 EQ ISZERO PUSH2 0x895 JUMPI POP PUSH1 0x0 SWAP1 JUMP JUMPDEST POP PUSH1 0x2 SLOAD SWAP1 JUMP JUMPDEST PUSH32 0x0 PUSH1 0x40 MLOAD PUSH4 0x24745215 PUSH1 0xE2 SHL DUP2 MSTORE PUSH10 0x676F7665726E616E6365 PUSH1 0xB0 SHL PUSH1 0x4 DUP3 ADD MSTORE CALLER PUSH1 0x24 DUP3 ADD MSTORE PUSH1 0x1 PUSH1 0x1 PUSH1 0xA0 SHL SUB SWAP2 SWAP1 SWAP2 AND SWAP1 PUSH4 0x91D14854 SWAP1 PUSH1 0x44 ADD PUSH1 0x20 PUSH1 0x40 MLOAD DUP1 DUP4 SUB DUP2 DUP7 GAS STATICCALL ISZERO DUP1 ISZERO PUSH2 0x916 JUMPI RETURNDATASIZE PUSH1 0x0 DUP1 RETURNDATACOPY RETURNDATASIZE PUSH1 0x0 REVERT JUMPDEST POP POP POP POP PUSH1 0x40 MLOAD RETURNDATASIZE PUSH1 0x1F NOT PUSH1 0x1F DUP3 ADD AND DUP3 ADD DUP1 PUSH1 0x40 MSTORE POP DUP2 ADD SWAP1 PUSH2 0x93A SWAP2 SWAP1 PUSH2 0x11E1 JUMP JUMPDEST PUSH1 0x40 MLOAD DUP1 PUSH1 0x40 ADD PUSH1 0x40 MSTORE DUP1 PUSH1 0x13 DUP2 MSTORE PUSH1 0x20 ADD PUSH19 0x756E617574686F72697A656420616363657373 PUSH1 0x68 SHL DUP2 MSTORE POP SWAP1 PUSH2 0x984 JUMPI PUSH1 0x40 MLOAD PUSH3 0x461BCD PUSH1 0xE5 SHL DUP2 MSTORE PUSH1 0x4 ADD PUSH2 0x57D SWAP2 SWAP1 PUSH2 0x1203 JUMP JUMPDEST POP PUSH1 0x40 DUP1 MLOAD DUP1 DUP3 ADD SWAP1 SWAP2 MSTORE PUSH1 0x18 DUP2 MSTORE PUSH24 0x1E995C9BC81859191C995CDCC81B9BDD08185B1B1BDDD959 PUSH1 0x42 SHL PUSH1 0x20 DUP3 ADD MSTORE PUSH1 0x1 PUSH1 0x1 PUSH1 0xA0 SHL SUB DUP4 AND PUSH2 0x9DB JUMPI PUSH1 0x40 MLOAD PUSH3 0x461BCD PUSH1 0xE5 SHL DUP2 MSTORE PUSH1 0x4 ADD PUSH2 0x57D SWAP2 SWAP1 PUSH2 0x1203 JUMP JUMPDEST POP PUSH32 0x0 DUP2 PUSH1 0x5 SLOAD PUSH2 0xA0B SWAP2 SWAP1 PUSH2 0x126E JUMP JUMPDEST GT ISZERO PUSH2 0xA68 JUMPI PUSH1 0x40 MLOAD PUSH3 0x461BCD PUSH1 0xE5 SHL DUP2 MSTORE PUSH1 0x20 PUSH1 0x4 DUP3 ADD MSTORE PUSH1 0x26 PUSH1 0x24 DUP3 ADD MSTORE PUSH32 0x4D6178696D756D206E6F6E2D696E666C6174696F6E20616D6F756E7420657863 PUSH1 0x44 DUP3 ADD MSTORE PUSH6 0x32B2B232B217 PUSH1 0xD1 SHL PUSH1 0x64 DUP3 ADD MSTORE PUSH1 0x84 ADD PUSH2 0x57D JUMP JUMPDEST DUP1 PUSH1 0x5 PUSH1 0x0 DUP3 DUP3 SLOAD PUSH2 0xA7A SWAP2 SWAP1 PUSH2 0x126E JUMP JUMPDEST SWAP1 SWAP2 SSTORE POP POP PUSH1 0xB SLOAD PUSH1 0x40 MLOAD PUSH4 0x40C10F19 PUSH1 0xE0 SHL DUP2 MSTORE PUSH1 0x1 PUSH1 0x1 PUSH1 0xA0 SHL SUB DUP5 DUP2 AND PUSH1 0x4 DUP4 ADD MSTORE PUSH1 0x24 DUP3 ADD DUP5 SWAP1 MSTORE SWAP1 SWAP2 AND SWAP1 PUSH4 0x40C10F19 SWAP1 PUSH1 0x44 ADD PUSH1 0x0 PUSH1 0x40 MLOAD DUP1 DUP4 SUB DUP2 PUSH1 0x0 DUP8 DUP1 EXTCODESIZE ISZERO DUP1 ISZERO PUSH2 0xACD JUMPI PUSH1 0x0 DUP1 REVERT JUMPDEST POP GAS CALL ISZERO DUP1 ISZERO PUSH2 0xAE1 JUMPI RETURNDATASIZE PUSH1 0x0 DUP1 RETURNDATACOPY RETURNDATASIZE PUSH1 0x0 REVERT JUMPDEST POP POP POP POP DUP2 PUSH1 0x1 PUSH1 0x1 PUSH1 0xA0 SHL SUB AND PUSH32 0x3F2C9D57C068687834F0DE942A9BABB9E5ACAB57D516D3480A3C16EE165A4273 DUP3 PUSH1 0x40 MLOAD PUSH2 0xB20 SWAP2 DUP2 MSTORE PUSH1 0x20 ADD SWAP1 JUMP JUMPDEST PUSH1 0x40 MLOAD DUP1 SWAP2 SUB SWAP1 LOG2 POP POP JUMP JUMPDEST PUSH32 0x0 PUSH1 0x40 MLOAD PUSH4 0x24745215 PUSH1 0xE2 SHL DUP2 MSTORE PUSH10 0x676F7665726E616E6365 PUSH1 0xB0 SHL PUSH1 0x4 DUP3 ADD MSTORE CALLER PUSH1 0x24 DUP3 ADD MSTORE PUSH1 0x1 PUSH1 0x1 PUSH1 0xA0 SHL SUB SWAP2 SWAP1 SWAP2 AND SWAP1 PUSH4 0x91D14854 SWAP1 PUSH1 0x44 ADD PUSH1 0x20 PUSH1 0x40 MLOAD DUP1 DUP4 SUB DUP2 DUP7 GAS STATICCALL ISZERO DUP1 ISZERO PUSH2 0xBA6 JUMPI RETURNDATASIZE PUSH1 0x0 DUP1 RETURNDATACOPY RETURNDATASIZE PUSH1 0x0 REVERT JUMPDEST POP POP POP POP PUSH1 0x40 MLOAD RETURNDATASIZE PUSH1 0x1F NOT PUSH1 0x1F DUP3 ADD AND DUP3 ADD DUP1 PUSH1 0x40 MSTORE POP DUP2 ADD SWAP1 PUSH2 0xBCA SWAP2 SWAP1 PUSH2 0x11E1 JUMP JUMPDEST PUSH1 0x40 MLOAD DUP1 PUSH1 0x40 ADD PUSH1 0x40 MSTORE DUP1 PUSH1 0x13 DUP2 MSTORE PUSH1 0x20 ADD PUSH19 0x756E617574686F72697A656420616363657373 PUSH1 0x68 SHL DUP2 MSTORE POP SWAP1 PUSH2 0xC14 JUMPI PUSH1 0x40 MLOAD PUSH3 0x461BCD PUSH1 0xE5 SHL DUP2 MSTORE PUSH1 0x4 ADD PUSH2 0x57D SWAP2 SWAP1 PUSH2 0x1203 JUMP JUMPDEST POP PUSH1 0xA SLOAD ISZERO PUSH2 0xC65 JUMPI PUSH1 0x40 MLOAD PUSH3 0x461BCD PUSH1 0xE5 SHL DUP2 MSTORE PUSH1 0x20 PUSH1 0x4 DUP3 ADD MSTORE PUSH1 0x1E PUSH1 0x24 DUP3 ADD MSTORE PUSH32 0x496E666C6174696F6E2068617320616C726561647920737461727465642E0000 PUSH1 0x44 DUP3 ADD MSTORE PUSH1 0x64 ADD PUSH2 0x57D JUMP JUMPDEST TIMESTAMP PUSH1 0xA DUP2 SWAP1 SSTORE PUSH1 0x6 SSTORE PUSH1 0x40 MLOAD PUSH32 0x153AB0893528D2944E476BF67F05C0B71C966EF6A5702D345B66D1C0C1E9E6B0 SWAP1 PUSH1 0x0 SWAP1 LOG1 JUMP JUMPDEST PUSH1 0x40 MLOAD PUSH4 0x21F8A721 PUSH1 0xE0 SHL DUP2 MSTORE PUSH11 0x3937B632A6B0B730B3B2B9 PUSH1 0xA9 SHL PUSH1 0x4 DUP3 ADD MSTORE PUSH1 0x0 SWAP1 PUSH1 0x1 PUSH1 0x1 PUSH1 0xA0 SHL SUB DUP4 AND SWAP1 PUSH4 0x21F8A721 SWAP1 PUSH1 0x24 ADD JUMPDEST PUSH1 0x20 PUSH1 0x40 MLOAD DUP1 DUP4 SUB DUP2 DUP7 GAS STATICCALL ISZERO DUP1 ISZERO PUSH2 0xCEF JUMPI RETURNDATASIZE PUSH1 0x0 DUP1 RETURNDATACOPY RETURNDATASIZE PUSH1 0x0 REVERT JUMPDEST POP POP POP POP PUSH1 0x40 MLOAD RETURNDATASIZE PUSH1 0x1F NOT PUSH1 0x1F DUP3 ADD AND DUP3 ADD DUP1 PUSH1 0x40 MSTORE POP DUP2 ADD SWAP1 PUSH2 0xD13 SWAP2 SWAP1 PUSH2 0x1286 JUMP JUMPDEST SWAP3 SWAP2 POP POP JUMP JUMPDEST PUSH1 0x7 SLOAD PUSH1 0xA SLOAD PUSH2 0xD29 SWAP1 TIMESTAMP PUSH2 0x12A3 JUMP JUMPDEST PUSH2 0xD33 SWAP2 SWAP1 PUSH2 0x12BA JUMP JUMPDEST PUSH1 0x8 PUSH1 0x0 DUP3 DUP3 SLOAD PUSH2 0xD44 SWAP2 SWAP1 PUSH2 0x126E JUMP JUMPDEST SWAP1 SWAP2 SSTORE POP POP PUSH1 0x9 SLOAD PUSH1 0x0 SWAP1 PUSH2 0xD5A SWAP1 DUP4 SWAP1 PUSH2 0x126E JUMP JUMPDEST SWAP1 POP PUSH1 0x8 SLOAD DUP2 GT ISZERO PUSH2 0xDAE JUMPI PUSH1 0x40 MLOAD PUSH3 0x461BCD PUSH1 0xE5 SHL DUP2 MSTORE PUSH1 0x20 PUSH1 0x4 DUP3 ADD MSTORE PUSH1 0x18 PUSH1 0x24 DUP3 ADD MSTORE PUSH32 0x4D696E7461626C6520616D6F756E742065786365656465640000000000000000 PUSH1 0x44 DUP3 ADD MSTORE PUSH1 0x64 ADD PUSH2 0x57D JUMP JUMPDEST PUSH1 0x9 DUP2 SWAP1 SSTORE TIMESTAMP PUSH1 0xA SSTORE PUSH1 0xB SLOAD PUSH1 0x40 MLOAD PUSH4 0x40C10F19 PUSH1 0xE0 SHL DUP2 MSTORE PUSH1 0x1 PUSH1 0x1 PUSH1 0xA0 SHL SUB DUP6 DUP2 AND PUSH1 0x4 DUP4 ADD MSTORE PUSH1 0x24 DUP3 ADD DUP6 SWAP1 MSTORE SWAP1 SWAP2 AND SWAP1 PUSH4 0x40C10F19 SWAP1 PUSH1 0x44 ADD PUSH1 0x0 PUSH1 0x40 MLOAD DUP1 DUP4 SUB DUP2 PUSH1 0x0 DUP8 DUP1 EXTCODESIZE ISZERO DUP1 ISZERO PUSH2 0xE05 JUMPI PUSH1 0x0 DUP1 REVERT JUMPDEST POP GAS CALL ISZERO DUP1 ISZERO PUSH2 0xE19 JUMPI RETURNDATASIZE PUSH1 0x0 DUP1 RETURNDATACOPY RETURNDATASIZE PUSH1 0x0 REVERT JUMPDEST POP POP POP POP PUSH2 0xE25 PUSH2 0xE6D JUMP JUMPDEST DUP3 PUSH1 0x1 PUSH1 0x1 PUSH1 0xA0 SHL SUB AND PUSH32 0x3F2C9D57C068687834F0DE942A9BABB9E5ACAB57D516D3480A3C16EE165A4273 DUP4 PUSH1 0x40 MLOAD PUSH2 0xE60 SWAP2 DUP2 MSTORE PUSH1 0x20 ADD SWAP1 JUMP JUMPDEST PUSH1 0x40 MLOAD DUP1 SWAP2 SUB SWAP1 LOG2 POP POP POP JUMP JUMPDEST PUSH1 0x0 PUSH4 0x1E13380 PUSH1 0x6 SLOAD PUSH2 0xE81 SWAP2 SWAP1 PUSH2 0x126E JUMP JUMPDEST SWAP1 POP DUP1 TIMESTAMP LT PUSH2 0x10B7 JUMPI PUSH1 0xA SLOAD PUSH2 0xE97 SWAP1 DUP3 PUSH2 0x12A3 JUMP JUMPDEST PUSH1 0x7 SLOAD PUSH2 0xEA4 SWAP2 SWAP1 PUSH2 0x12BA JUMP JUMPDEST PUSH1 0x8 PUSH1 0x0 DUP3 DUP3 SLOAD PUSH2 0xEB5 SWAP2 SWAP1 PUSH2 0x126E JUMP JUMPDEST SWAP1 SWAP2 SSTORE POP POP TIMESTAMP PUSH1 0xA SSTORE PUSH2 0xEF0 PUSH1 0x1 PUSH1 0x1 PUSH1 0xA0 SHL SUB PUSH32 0x0 AND PUSH2 0x1118 JUMP JUMPDEST PUSH1 0x1 PUSH1 0x1 PUSH1 0xA0 SHL SUB AND PUSH4 0x8DC1D29 DUP3 PUSH1 0x40 MLOAD DUP3 PUSH4 0xFFFFFFFF AND PUSH1 0xE0 SHL DUP2 MSTORE PUSH1 0x4 ADD PUSH2 0xF1D SWAP2 DUP2 MSTORE PUSH1 0x20 ADD SWAP1 JUMP JUMPDEST PUSH1 0x0 PUSH1 0x40 MLOAD DUP1 DUP4 SUB DUP2 PUSH1 0x0 DUP8 DUP1 EXTCODESIZE ISZERO DUP1 ISZERO PUSH2 0xF37 JUMPI PUSH1 0x0 DUP1 REVERT JUMPDEST POP GAS CALL ISZERO DUP1 ISZERO PUSH2 0xF4B JUMPI RETURNDATASIZE PUSH1 0x0 DUP1 RETURNDATACOPY RETURNDATASIZE PUSH1 0x0 REVERT JUMPDEST POP POP PUSH1 0x1 SLOAD PUSH2 0xF7D SWAP3 POP SWAP1 POP PUSH32 0x0 PUSH2 0x115A JUMP JUMPDEST PUSH1 0x1 SSTORE PUSH1 0x4 SLOAD PUSH1 0xFF AND ISZERO PUSH2 0xFF0 JUMPI PUSH1 0x2 SLOAD PUSH2 0xFB8 SWAP1 PUSH32 0x0 PUSH2 0x115A JUMP JUMPDEST PUSH1 0x2 SSTORE PUSH1 0x3 SLOAD PUSH2 0xFE8 SWAP1 PUSH32 0x0 PUSH2 0x115A JUMP JUMPDEST PUSH1 0x3 SSTORE PUSH2 0x1060 JUMP JUMPDEST PUSH2 0x101E PUSH4 0x1E13380 PUSH32 0x0 PUSH2 0x12D9 JUMP JUMPDEST PUSH1 0x2 SSTORE PUSH2 0x104F PUSH4 0x1E13380 PUSH32 0x0 PUSH2 0x12D9 JUMP JUMPDEST PUSH1 0x3 SSTORE PUSH1 0x4 DUP1 SLOAD PUSH1 0xFF NOT AND PUSH1 0x1 OR SWAP1 SSTORE JUMPDEST PUSH1 0x3 SLOAD PUSH1 0x2 SLOAD PUSH1 0x1 SLOAD PUSH2 0x1073 SWAP2 SWAP1 PUSH2 0x126E JUMP JUMPDEST PUSH2 0x107D SWAP2 SWAP1 PUSH2 0x126E JUMP JUMPDEST PUSH1 0x7 SSTORE PUSH2 0x108A DUP2 TIMESTAMP PUSH2 0x12A3 JUMP JUMPDEST PUSH1 0x7 SLOAD PUSH2 0x1097 SWAP2 SWAP1 PUSH2 0x12BA JUMP JUMPDEST PUSH1 0x8 PUSH1 0x0 DUP3 DUP3 SLOAD PUSH2 0x10A8 SWAP2 SWAP1 PUSH2 0x126E JUMP JUMPDEST SWAP1 SWAP2 SSTORE POP POP PUSH1 0x6 DUP2 SWAP1 SSTORE PUSH2 0x10EC JUMP JUMPDEST PUSH1 0xA SLOAD PUSH2 0x10C4 SWAP1 TIMESTAMP PUSH2 0x12A3 JUMP JUMPDEST PUSH1 0x7 SLOAD PUSH2 0x10D1 SWAP2 SWAP1 PUSH2 0x12BA JUMP JUMPDEST PUSH1 0x8 PUSH1 0x0 DUP3 DUP3 SLOAD PUSH2 0x10E2 SWAP2 SWAP1 PUSH2 0x126E JUMP JUMPDEST SWAP1 SWAP2 SSTORE POP POP TIMESTAMP PUSH1 0xA SSTORE JUMPDEST PUSH1 0x40 MLOAD PUSH32 0x859B6569F7E96BF22160E0F59A87D7E6400EEC792BD7AE173F7DB3227A190E97 SWAP1 PUSH1 0x0 SWAP1 LOG1 POP JUMP JUMPDEST PUSH1 0x40 MLOAD PUSH4 0x21F8A721 PUSH1 0xE0 SHL DUP2 MSTORE PUSH16 0x34B7333630BA34B7B726B0B730B3B2B9 PUSH1 0x81 SHL PUSH1 0x4 DUP3 ADD MSTORE PUSH1 0x0 SWAP1 PUSH1 0x1 PUSH1 0x1 PUSH1 0xA0 SHL SUB DUP4 AND SWAP1 PUSH4 0x21F8A721 SWAP1 PUSH1 0x24 ADD PUSH2 0xCD2 JUMP JUMPDEST PUSH1 0x0 PUSH8 0xDE0B6B3A7640000 PUSH2 0x116F DUP4 DUP6 PUSH2 0x12BA JUMP JUMPDEST PUSH2 0x1179 SWAP2 SWAP1 PUSH2 0x12D9 JUMP JUMPDEST SWAP4 SWAP3 POP POP POP JUMP JUMPDEST PUSH1 0x1 PUSH1 0x1 PUSH1 0xA0 SHL SUB DUP2 AND DUP2 EQ PUSH2 0x1195 JUMPI PUSH1 0x0 DUP1 REVERT JUMPDEST POP JUMP JUMPDEST PUSH1 0x0 PUSH1 0x20 DUP3 DUP5 SUB SLT ISZERO PUSH2 0x11AA JUMPI PUSH1 0x0 DUP1 REVERT JUMPDEST DUP2 CALLDATALOAD PUSH2 0x1179 DUP2 PUSH2 0x1180 JUMP JUMPDEST PUSH1 0x0 DUP1 PUSH1 0x40 DUP4 DUP6 SUB SLT ISZERO PUSH2 0x11C8 JUMPI PUSH1 0x0 DUP1 REVERT JUMPDEST DUP3 CALLDATALOAD PUSH2 0x11D3 DUP2 PUSH2 0x1180 JUMP JUMPDEST SWAP5 PUSH1 0x20 SWAP4 SWAP1 SWAP4 ADD CALLDATALOAD SWAP4 POP POP POP JUMP JUMPDEST PUSH1 0x0 PUSH1 0x20 DUP3 DUP5 SUB SLT ISZERO PUSH2 0x11F3 JUMPI PUSH1 0x0 DUP1 REVERT JUMPDEST DUP2 MLOAD DUP1 ISZERO ISZERO DUP2 EQ PUSH2 0x1179 JUMPI PUSH1 0x0 DUP1 REVERT JUMPDEST PUSH1 0x0 PUSH1 0x20 DUP1 DUP4 MSTORE DUP4 MLOAD DUP1 DUP3 DUP6 ADD MSTORE PUSH1 0x0 JUMPDEST DUP2 DUP2 LT ISZERO PUSH2 0x1230 JUMPI DUP6 DUP2 ADD DUP4 ADD MLOAD DUP6 DUP3 ADD PUSH1 0x40 ADD MSTORE DUP3 ADD PUSH2 0x1214 JUMP JUMPDEST DUP2 DUP2 GT ISZERO PUSH2 0x1242 JUMPI PUSH1 0x0 PUSH1 0x40 DUP4 DUP8 ADD ADD MSTORE JUMPDEST POP PUSH1 0x1F ADD PUSH1 0x1F NOT AND SWAP3 SWAP1 SWAP3 ADD PUSH1 0x40 ADD SWAP4 SWAP3 POP POP POP JUMP JUMPDEST PUSH4 0x4E487B71 PUSH1 0xE0 SHL PUSH1 0x0 MSTORE PUSH1 0x11 PUSH1 0x4 MSTORE PUSH1 0x24 PUSH1 0x0 REVERT JUMPDEST PUSH1 0x0 DUP3 NOT DUP3 GT ISZERO PUSH2 0x1281 JUMPI PUSH2 0x1281 PUSH2 0x1258 JUMP JUMPDEST POP ADD SWAP1 JUMP JUMPDEST PUSH1 0x0 PUSH1 0x20 DUP3 DUP5 SUB SLT ISZERO PUSH2 0x1298 JUMPI PUSH1 0x0 DUP1 REVERT JUMPDEST DUP2 MLOAD PUSH2 0x1179 DUP2 PUSH2 0x1180 JUMP JUMPDEST PUSH1 0x0 DUP3 DUP3 LT ISZERO PUSH2 0x12B5 JUMPI PUSH2 0x12B5 PUSH2 0x1258 JUMP JUMPDEST POP SUB SWAP1 JUMP JUMPDEST PUSH1 0x0 DUP2 PUSH1 0x0 NOT DIV DUP4 GT DUP3 ISZERO ISZERO AND ISZERO PUSH2 0x12D4 JUMPI PUSH2 0x12D4 PUSH2 0x1258 JUMP JUMPDEST POP MUL SWAP1 JUMP JUMPDEST PUSH1 0x0 DUP3 PUSH2 0x12F6 JUMPI PUSH4 0x4E487B71 PUSH1 0xE0 SHL PUSH1 0x0 MSTORE PUSH1 0x12 PUSH1 0x4 MSTORE PUSH1 0x24 PUSH1 0x0 REVERT JUMPDEST POP DIV SWAP1 JUMP INVALID LOG2 PUSH5 0x6970667358 0x22 SLT KECCAK256 DUP1 PUSH24 0x2811BEDE0E19300D51E591CD0485AED8CFEF3A6A6ED1BFC9 STATICCALL LOG4 0xCC ADDMOD SMOD SSTORE PUSH5 0x736F6C6343 STOP ADDMOD EXP STOP CALLER ","sha1":"852148caf72635b7ad180213b1c3fcc8d79ed1c5","source":"// SPDX-License-Identifier: GPL-3.0-or-later\npragma solidity 0.8.10;\n\nimport \"@openzeppelin/contracts/token/ERC20/utils/SafeERC20.sol\";\nimport \"@openzeppelin/contracts/security/ReentrancyGuard.sol\";\n\nimport \"../../interfaces/IController.sol\";\nimport \"../../interfaces/tokenomics/IMeroToken.sol\";\nimport \"../../interfaces/tokenomics/IMinter.sol\";\n\nimport \"../../libraries/Errors.sol\";\nimport \"../../libraries/ScaledMath.sol\";\nimport \"../../libraries/AddressProviderHelpers.sol\";\n\nimport \"../access/Authorization.sol\";\n\ncontract Minter is IMinter, Authorization, ReentrancyGuard {\n    using ScaledMath for uint256;\n    using AddressProviderHelpers for IAddressProvider;\n\n    uint256 private constant _INFLATION_DECAY_PERIOD = 365 days;\n\n    // Lp Rates\n    uint256 public immutable initialAnnualInflationRateLp;\n    uint256 public immutable annualInflationDecayLp;\n    uint256 public currentInflationAmountLp;\n\n    // Keeper Rates\n    uint256 public immutable initialPeriodKeeperInflation;\n    uint256 public immutable initialAnnualInflationRateKeeper;\n    uint256 public immutable annualInflationDecayKeeper;\n    uint256 public currentInflationAmountKeeper;\n\n    // AMM Rates\n    uint256 public immutable initialPeriodAmmInflation;\n    uint256 public immutable initialAnnualInflationRateAmm;\n    uint256 public immutable annualInflationDecayAmm;\n    uint256 public currentInflationAmountAmm;\n\n    bool public initialPeriodEnded;\n\n    // Non-inflation rates\n    uint256 public immutable nonInflationDistribution;\n    uint256 public issuedNonInflationSupply;\n\n    uint256 public lastInflationDecay;\n    uint256 public currentTotalInflation;\n\n    // Used for final safety check to ensure inflation is not exceeded\n    uint256 public totalAvailableToNow;\n    uint256 public totalMintedToNow;\n    uint256 public lastEvent;\n\n    IAddressProvider public immutable addressProvider;\n    IMeroToken public token;\n\n    event TokensMinted(address indexed beneficiary, uint256 amount);\n    event TokenSet(address token);\n    event InflationStarted();\n    event InflationRateUpdated();\n\n    constructor(\n        uint256 _annualInflationRateLp,\n        uint256 _annualInflationRateKeeper,\n        uint256 _annualInflationRateAmm,\n        uint256 _annualInflationDecayLp,\n        uint256 _annualInflationDecayKeeper,\n        uint256 _annualInflationDecayAmm,\n        uint256 _initialPeriodKeeperInflation,\n        uint256 _initialPeriodAmmInflation,\n        uint256 _nonInflationDistribution,\n        IAddressProvider _addressProvider\n    ) Authorization(_addressProvider.getRoleManager()) {\n        require(_annualInflationDecayLp < ScaledMath.ONE, Error.INVALID_PARAMETER_VALUE);\n        require(_annualInflationDecayKeeper < ScaledMath.ONE, Error.INVALID_PARAMETER_VALUE);\n        require(_annualInflationDecayAmm < ScaledMath.ONE, Error.INVALID_PARAMETER_VALUE);\n        initialAnnualInflationRateLp = _annualInflationRateLp;\n        initialAnnualInflationRateKeeper = _annualInflationRateKeeper;\n        initialAnnualInflationRateAmm = _annualInflationRateAmm;\n\n        annualInflationDecayLp = _annualInflationDecayLp;\n        annualInflationDecayKeeper = _annualInflationDecayKeeper;\n        annualInflationDecayAmm = _annualInflationDecayAmm;\n\n        initialPeriodKeeperInflation = _initialPeriodKeeperInflation;\n        initialPeriodAmmInflation = _initialPeriodAmmInflation;\n\n        currentInflationAmountLp = _annualInflationRateLp / _INFLATION_DECAY_PERIOD;\n        currentInflationAmountKeeper = _initialPeriodKeeperInflation / _INFLATION_DECAY_PERIOD;\n        currentInflationAmountAmm = _initialPeriodAmmInflation / _INFLATION_DECAY_PERIOD;\n\n        currentTotalInflation =\n            currentInflationAmountLp +\n            currentInflationAmountKeeper +\n            currentInflationAmountAmm;\n\n        nonInflationDistribution = _nonInflationDistribution;\n        addressProvider = _addressProvider;\n    }\n\n    function setToken(address token_) external override onlyGovernance {\n        require(address(token) == address(0), \"Token already set!\");\n        token = IMeroToken(token_);\n        emit TokenSet(token_);\n    }\n\n    function startInflation() external override onlyGovernance {\n        require(lastEvent == 0, \"Inflation has already started.\");\n        lastEvent = block.timestamp;\n        lastInflationDecay = block.timestamp;\n        emit InflationStarted();\n    }\n\n    /**\n     * @notice Update the inflation rate according to the piecewise linear schedule.\n     * @dev This updates the inflation rate to the next linear segment in the inflations schedule.\n     * @return `true` if successful.\n     */\n    function executeInflationRateUpdate() external override returns (bool) {\n        if (lastEvent == 0) return false;\n        _executeInflationRateUpdate();\n        return true;\n    }\n\n    /**\n     * @notice Mints MERO tokens to a specified address.\n     * @dev Can only be called by the controller.\n     * @param beneficiary Address to mint tokens for.\n     * @param amount Amount of tokens to mint.\n     */\n    function mint(address beneficiary, uint256 amount)\n        external\n        override\n        nonReentrant\n        onlyRole(Roles.INFLATION_MANAGER)\n    {\n        require(lastEvent != 0, \"inflation not started yet\");\n        require(beneficiary != address(0), Error.ZERO_ADDRESS_NOT_ALLOWED);\n\n        _mint(beneficiary, amount);\n    }\n\n    /**\n     * @notice Mint tokens that are not part of the inflation schedule.\n     * @dev The amount of tokens that can be minted in total is subject to a pre-set upper limit.\n     * @param beneficiary Address to mint tokens for.\n     * @param amount Amount of tokens to mint.\n     */\n    function mintNonInflationTokens(address beneficiary, uint256 amount)\n        external\n        override\n        onlyGovernance\n    {\n        require(beneficiary != address(0), Error.ZERO_ADDRESS_NOT_ALLOWED);\n        require(\n            issuedNonInflationSupply + amount <= nonInflationDistribution,\n            \"Maximum non-inflation amount exceeded.\"\n        );\n        issuedNonInflationSupply += amount;\n        token.mint(beneficiary, amount);\n        emit TokensMinted(beneficiary, amount);\n    }\n\n    /**\n     * @notice Supplies the inflation rate for LPs per unit of time (seconds).\n     * @return LP inflation rate.\n     */\n    function getLpInflationRate() external view override returns (uint256) {\n        if (lastEvent == 0) return 0;\n        return currentInflationAmountLp;\n    }\n\n    /**\n     * @notice Supplies the inflation rate for keepers per unit of time (seconds).\n     * @return keeper inflation rate.\n     */\n    function getKeeperInflationRate() external view override returns (uint256) {\n        if (lastEvent == 0) return 0;\n        return currentInflationAmountKeeper;\n    }\n\n    /**\n     * @notice Supplies the inflation rate for LPs on AMMs per unit of time (seconds).\n     * @return AMM inflation rate.\n     */\n    function getAmmInflationRate() external view override returns (uint256) {\n        if (lastEvent == 0) return 0;\n        return currentInflationAmountAmm;\n    }\n\n    function _executeInflationRateUpdate() internal {\n        uint256 nextInflationDecay = lastInflationDecay + _INFLATION_DECAY_PERIOD;\n        if (block.timestamp >= nextInflationDecay) {\n            totalAvailableToNow += (currentTotalInflation * (nextInflationDecay - lastEvent));\n            lastEvent = block.timestamp;\n\n            addressProvider.getInflationManager().checkpointAllGauges(nextInflationDecay);\n            currentInflationAmountLp = currentInflationAmountLp.scaledMul(annualInflationDecayLp);\n            if (initialPeriodEnded) {\n                currentInflationAmountKeeper = currentInflationAmountKeeper.scaledMul(\n                    annualInflationDecayKeeper\n                );\n                currentInflationAmountAmm = currentInflationAmountAmm.scaledMul(\n                    annualInflationDecayAmm\n                );\n            } else {\n                currentInflationAmountKeeper =\n                    initialAnnualInflationRateKeeper /\n                    _INFLATION_DECAY_PERIOD;\n\n                currentInflationAmountAmm = initialAnnualInflationRateAmm / _INFLATION_DECAY_PERIOD;\n                initialPeriodEnded = true;\n            }\n            currentTotalInflation =\n                currentInflationAmountLp +\n                currentInflationAmountKeeper +\n                currentInflationAmountAmm;\n            totalAvailableToNow += (currentTotalInflation *\n                (block.timestamp - (nextInflationDecay)));\n            lastInflationDecay = nextInflationDecay;\n        } else {\n            totalAvailableToNow += (currentTotalInflation * (block.timestamp - lastEvent));\n            lastEvent = block.timestamp;\n        }\n        emit InflationRateUpdated();\n    }\n\n    function _mint(address beneficiary, uint256 amount) internal {\n        totalAvailableToNow += ((block.timestamp - lastEvent) * currentTotalInflation);\n        uint256 newTotalMintedToNow = totalMintedToNow + amount;\n        require(newTotalMintedToNow <= totalAvailableToNow, \"Mintable amount exceeded\");\n        totalMintedToNow = newTotalMintedToNow;\n        lastEvent = block.timestamp;\n        token.mint(beneficiary, amount);\n        _executeInflationRateUpdate();\n        emit TokensMinted(beneficiary, amount);\n    }\n}\n","sourcePath":"contracts/tokenomics/Minter.sol","type":"contract","deployment":{"address":"0x6D384f8AB1f307Ef7E44A2D55E2a17d014F4f749","chainid":"42","blockHeight":33231495}}