{"abi":[{"inputs":[{"internalType":"address","name":"addressProvider_","type":"address"}],"stateMutability":"nonpayable","type":"constructor","name":"constructor"},{"anonymous":false,"inputs":[{"indexed":false,"internalType":"address","name":"token","type":"address"},{"indexed":false,"internalType":"address","name":"curvePool","type":"address"}],"name":"SetCurvePool","type":"event"},{"anonymous":false,"inputs":[{"indexed":false,"internalType":"uint256","name":"value","type":"uint256"}],"name":"SetSlippageTolerance","type":"event"},{"anonymous":false,"inputs":[{"indexed":true,"internalType":"address","name":"fromToken","type":"address"},{"indexed":true,"internalType":"address","name":"toToken","type":"address"},{"indexed":false,"internalType":"uint256","name":"amountIn","type":"uint256"},{"indexed":false,"internalType":"uint256","name":"amountOut","type":"uint256"}],"name":"Swapped","type":"event"},{"inputs":[{"internalType":"address","name":"","type":"address"}],"name":"curvePools","outputs":[{"internalType":"contract ICurveSwapEth","name":"","type":"address"}],"stateMutability":"view","type":"function"},{"inputs":[{"internalType":"address","name":"fromToken_","type":"address"},{"internalType":"address","name":"toToken_","type":"address"},{"internalType":"uint256","name":"amountIn_","type":"uint256"}],"name":"getAmountOut","outputs":[{"internalType":"uint256","name":"amountOut","type":"uint256"}],"stateMutability":"view","type":"function"},{"inputs":[],"name":"roleManager","outputs":[{"internalType":"contract IRoleManager","name":"","type":"address"}],"stateMutability":"view","type":"function"},{"inputs":[{"internalType":"address","name":"token_","type":"address"},{"internalType":"address","name":"curvePool_","type":"address"}],"name":"setCurvePool","outputs":[],"stateMutability":"nonpayable","type":"function"},{"inputs":[{"internalType":"uint256","name":"slippageTolerance_","type":"uint256"}],"name":"setSlippageTolerance","outputs":[],"stateMutability":"nonpayable","type":"function"},{"inputs":[],"name":"slippageTolerance","outputs":[{"internalType":"uint256","name":"","type":"uint256"}],"stateMutability":"view","type":"function"},{"inputs":[{"internalType":"address","name":"fromToken_","type":"address"},{"internalType":"address","name":"toToken_","type":"address"},{"internalType":"uint256","name":"amountIn_","type":"uint256"}],"name":"swap","outputs":[{"internalType":"uint256","name":"amountOut","type":"uint256"}],"stateMutability":"payable","type":"function"},{"inputs":[{"internalType":"address","name":"fromToken_","type":"address"},{"internalType":"address","name":"toToken_","type":"address"}],"name":"swapAll","outputs":[{"internalType":"uint256","name":"amountOut","type":"uint256"}],"stateMutability":"payable","type":"function"},{"stateMutability":"payable","type":"receive"}],"bytecode":"60c06040523480156200001157600080fd5b5060405162002318380380620023188339810160408190526200003491620000f9565b62000053816001600160a01b03166200007760201b620008c51760201c565b6001600160a01b039081166080521660a052670d7621dc582100006000556200012b565b6040516321f8a72160e01b81526a3937b632a6b0b730b3b2b960a91b60048201526000906001600160a01b038316906321f8a72190602401602060405180830381865afa158015620000cd573d6000803e3d6000fd5b505050506040513d601f19601f82011682018060405250810190620000f39190620000f9565b92915050565b6000602082840312156200010c57600080fd5b81516001600160a01b03811681146200012457600080fd5b9392505050565b60805160a0516121ba6200015e60003960006118f40152600081816099015281816101ba015261042901526121ba6000f3fe60806040526004361061007e5760003560e01c806358fd9be01161004e57806358fd9be014610139578063a788871814610159578063d03153aa1461018f578063df791e50146101a557600080fd5b8062435da51461008a578063117da1ee146100d65780633ff37e8f146100f85780634aa066521461011957600080fd5b3661008557005b600080fd5b34801561009657600080fd5b507f00000000000000000000000000000000000000000000000000000000000000005b6040516001600160a01b0390911681526020015b60405180910390f35b3480156100e257600080fd5b506100f66100f1366004611cb6565b6101b8565b005b61010b610106366004611ce7565b610343565b6040519081526020016100cd565b34801561012557600080fd5b5061010b610134366004611d20565b6103de565b34801561014557600080fd5b506100f6610154366004611ce7565b610427565b34801561016557600080fd5b506100b9610174366004611d61565b6001602052600090815260409020546001600160a01b031681565b34801561019b57600080fd5b5061010b60005481565b61010b6101b3366004611d20565b610650565b7f0000000000000000000000000000000000000000000000000000000000000000604051632474521560e21b815269676f7665726e616e636560b01b60048201523360248201526001600160a01b0391909116906391d1485490604401602060405180830381865afa158015610232573d6000803e3d6000fd5b505050506040513d601f19601f820116820180604052508101906102569190611d7e565b60405180604001604052806013815260200172756e617574686f72697a65642061636365737360681b815250906102a95760405162461bcd60e51b81526004016102a09190611dcc565b60405180910390fd5b5060408051808201909152601a81527f496e76616c696420736c69707061676520746f6c6572616e63650000000000006020820152670de0b6b3a76400008211156103075760405162461bcd60e51b81526004016102a09190611dcc565b5060008190556040518181527fe4a7fd2711237e77309a9a16ff636a748dbf956fd91f6e6da800d9302f441a799060200160405180910390a150565b60006001600160a01b0383166103655761035e838347610650565b90506103d8565b6040516370a0823160e01b81523360048201526103d590849084906001600160a01b038316906370a0823190602401602060405180830381865afa1580156103b1573d6000803e3d6000fd5b505050506040513d601f19601f820116820180604052508101906101b39190611dff565b90505b92915050565b6000826001600160a01b0316846001600160a01b031614806103fe575081155b1561040a575080610420565b61041d83610418868561093f565b610a68565b90505b9392505050565b7f0000000000000000000000000000000000000000000000000000000000000000604051632474521560e21b815269676f7665726e616e636560b01b60048201523360248201526001600160a01b0391909116906391d1485490604401602060405180830381865afa1580156104a1573d6000803e3d6000fd5b505050506040513d601f19601f820116820180604052508101906104c59190611d7e565b60405180604001604052806013815260200172756e617574686f72697a65642061636365737360681b8152509061050f5760405162461bcd60e51b81526004016102a09190611dcc565b5060408051808201909152601881527f7a65726f2061646472657373206e6f7420616c6c6f776564000000000000000060208201526001600160a01b03831661056b5760405162461bcd60e51b81526004016102a09190611dcc565b506001600160a01b03808316600090815260016020908152604091829020548251808401909352601883527f73616d652061646472657373206e6f7420616c6c6f7765640000000000000000918301919091529091838116911614156105e45760405162461bcd60e51b81526004016102a09190611dcc565b506001600160a01b0382811660008181526001602090815260409182902080546001600160a01b031916948616948517905581519283528201929092527fc99581e03a01bc0e74719af7085e6d62b1a853b511cb673db6c840eb4ec648ca910160405180910390a15050565b60006001600160a01b0384161561066857600061066a565b815b34146040518060400160405280600e81526020016d1a5b9d985b1a5908185b5bdd5b9d60921b815250906106b15760405162461bcd60e51b81526004016102a09190611dcc565b50816107085760408051600080825260208201526001600160a01b0380861692908716917fa078c4190abe07940190effc1846be0ccf03ad6007bc9e93f9697d0b460befbb910160405180910390a3506000610420565b826001600160a01b0316846001600160a01b03161415610822576001600160a01b0384166107c557604051600090339084908381818185875af1925050503d8060008114610772576040519150601f19603f3d011682016040523d82523d6000602084013e610777565b606091505b50509050806040518060400160405280600f81526020016e1d1c985b9cd9995c8819985a5b1959608a1b815250906107c25760405162461bcd60e51b81526004016102a09190611dcc565b50505b826001600160a01b0316846001600160a01b03167fa078c4190abe07940190effc1846be0ccf03ad6007bc9e93f9697d0b460befbb8485604051610813929190918252602082015260400190565b60405180910390a35080610420565b6001600160a01b03841615610846576108466001600160a01b038516333085610b3d565b600061085a8461085587610bae565b610ef3565b9050836001600160a01b0316856001600160a01b03167fa078c4190abe07940190effc1846be0ccf03ad6007bc9e93f9697d0b460befbb85846040516108aa929190918252602082015260400190565b60405180910390a36108bc84826110ab565b95945050505050565b6040516321f8a72160e01b81526a3937b632a6b0b730b3b2b960a91b60048201526000906001600160a01b038316906321f8a721906024015b602060405180830381865afa15801561091b573d6000803e3d6000fd5b505050506040513d601f19601f820116820180604052508101906103d89190611e18565b60006001600160a01b038316600080516020612165833981519152148061096d57506001600160a01b038316155b156109795750806103d8565b6001600160a01b03808416600090815260016020526040902054168015610a2e576000806109a78387611171565b60405163556d6e9f60e01b815260048101829052602481018390526044810188905291935091506001600160a01b0384169063556d6e9f906064015b602060405180830381865afa158015610a00573d6000803e3d6000fd5b505050506040513d601f19601f82011682018060405250810190610a249190611dff565b93505050506103d8565b610a608460008051602061216583398151915285610a5b886000805160206121658339815191528961121a565b611273565b949350505050565b60006001600160a01b0383166000805160206121658339815191521480610a9657506001600160a01b038316155b15610aa25750806103d8565b6001600160a01b03808416600090815260016020526040902054168015610b1057600080610ad08387611171565b60405163556d6e9f60e01b815260048101839052602481018290526044810188905291935091506001600160a01b0384169063556d6e9f906064016109e3565b610a606000805160206121658339815191528585610a5b600080516020612165833981519152898961121a565b6040516001600160a01b0380851660248301528316604482015260648101829052610ba89085906323b872dd60e01b906084015b60408051601f198184030181529190526020810180516001600160e01b03166001600160e01b031990931692909217909152611387565b50505050565b60006001600160a01b0382166000805160206121658339815191521415610c3c576040516370a0823160e01b8152306004820152600080516020612165833981519152906370a0823190602401602060405180830381865afa158015610c18573d6000803e3d6000fd5b505050506040513d601f19601f820116820180604052508101906103d89190611dff565b6001600160a01b038216610cc2574780610c595750600092915050565b6000805160206121658339815191526001600160a01b031663d0e30db0826040518263ffffffff1660e01b81526004016000604051808303818588803b158015610ca257600080fd5b505af1158015610cb6573d6000803e3d6000fd5b50939695505050505050565b6001600160a01b03808316600090815260016020526040902054168015610e70576040516370a0823160e01b81523060048201526000906001600160a01b038516906370a0823190602401602060405180830381865afa158015610d2a573d6000803e3d6000fd5b505050506040513d601f19601f82011682018060405250810190610d4e9190611dff565b905080610d5f575060009392505050565b610d69848361145e565b600080610d768487611171565b91509150836001600160a01b0316635b41b908828486610d96888c6114f6565b6040516001600160e01b031960e087901b1681526004810194909452602484019290925260448301526064820152608401600060405180830381600087803b158015610de157600080fd5b505af1158015610df5573d6000803e3d6000fd5b50506040516370a0823160e01b815230600482015260008051602061216583398151915292506370a082319150602401602060405180830381865afa158015610e42573d6000803e3d6000fd5b505050506040513d601f19601f82011682018060405250810190610e669190611dff565b9695505050505050565b6040516370a0823160e01b8152306004820152610420908490600080516020612165833981519152906001600160a01b038316906370a0823190602401602060405180830381865afa158015610eca573d6000803e3d6000fd5b505050506040513d601f19601f82011682018060405250810190610eee9190611dff565b611595565b600081610f02575060006103d8565b6001600160a01b0383166000805160206121658339815191521415610f285750806103d8565b6001600160a01b038316610f9d57604051632e1a7d4d60e01b81526004810183905260008051602061216583398151915290632e1a7d4d90602401600060405180830381600087803b158015610f7d57600080fd5b505af1158015610f91573d6000803e3d6000fd5b505050508190506103d8565b6001600160a01b0380841660009081526001602052604090205416801561109257610fd66000805160206121658339815191528261145e565b600080610fe38387611171565b91509150826001600160a01b0316635b41b9088383886110038a8c6116ff565b6040516001600160e01b031960e087901b1681526004810194909452602484019290925260448301526064820152608401600060405180830381600087803b15801561104e57600080fd5b505af1158015611062573d6000803e3d6000fd5b50506040516370a0823160e01b81523060048201526001600160a01b03891692506370a0823191506024016109e3565b610a606000805160206121658339815191528585611595565b60006001600160a01b03831661115757604051600090339084908381818185875af1925050503d80600081146110fd576040519150601f19603f3d011682016040523d82523d6000602084013e611102565b606091505b50509050806040518060400160405280600f81526020016e1d1c985b9cd9995c8819985a5b1959608a1b8152509061114d5760405162461bcd60e51b81526004016102a09190611dcc565b50829150506103d8565b61116b6001600160a01b0384163384611798565b50919050565b600080826001600160a01b0316846001600160a01b031663c661065760016040518263ffffffff1660e01b81526004016111ad91815260200190565b602060405180830381865afa1580156111ca573d6000803e3d6000fd5b505050506040513d601f19601f820116820180604052508101906111ee9190611e18565b6001600160a01b031614611205576001600061120a565b600060015b60ff918216969116945092505050565b6000737a250d5630b4cf539739df2c5dacb4c659f2488d73d9e1ce17f2641f24ae83637ab66a2cca9c378b9f61125286868684611273565b61125e87878786611273565b101561126a5780610e66565b50949350505050565b6040805160028082526060820183526000928392919060208301908036833701905050905085816000815181106112ac576112ac611e4b565b60200260200101906001600160a01b031690816001600160a01b03168152505084816001815181106112e0576112e0611e4b565b6001600160a01b03928316602091820292909201015260405163d06ca61f60e01b81529084169063d06ca61f9061131d9087908590600401611ea5565b600060405180830381865afa15801561133a573d6000803e3d6000fd5b505050506040513d6000823e601f3d908101601f191682016040526113629190810190611ebe565b60018151811061137457611374611e4b565b6020026020010151915050949350505050565b60006113dc826040518060400160405280602081526020017f5361666545524332303a206c6f772d6c6576656c2063616c6c206661696c6564815250856001600160a01b03166117c89092919063ffffffff16565b80519091501561145957808060200190518101906113fa9190611d7e565b6114595760405162461bcd60e51b815260206004820152602a60248201527f5361666545524332303a204552433230206f7065726174696f6e20646964206e6044820152691bdd081cdd58d8d9595960b21b60648201526084016102a0565b505050565b604051636eb1769f60e11b81523060048201526001600160a01b0382811660248301526000919084169063dd62ed3e90604401602060405180830381865afa1580156114ae573d6000803e3d6000fd5b505050506040513d601f19601f820116820180604052508101906114d29190611dff565b11156114dc575050565b6114f26001600160a01b038316826000196117d7565b5050565b600080611502836118ec565b9050806115135760009150506103d8565b610a60836001600160a01b031663313ce5676040518163ffffffff1660e01b8152600401602060405180830381865afa158015611554573d6000803e3d6000fd5b505050506040513d601f19601f820116820180604052508101906115789190611f7c565b60005461158f906115898886611a07565b90611a07565b90611a26565b6000816115a457506000610420565b826001600160a01b0316846001600160a01b031614156115c5575080610420565b60006115d285858561121a565b90506115de858261145e565b604080516002808252606082018352600092602083019080368337019050509050858160008151811061161357611613611e4b565b60200260200101906001600160a01b031690816001600160a01b031681525050848160018151811061164757611647611e4b565b6001600160a01b03928316602091820292909201015282166338ed173985611670818a8a611a87565b8430426040518663ffffffff1660e01b8152600401611693959493929190611f9f565b6000604051808303816000875af11580156116b2573d6000803e3d6000fd5b505050506040513d6000823e601f3d908101601f191682016040526116da9190810190611ebe565b6001815181106116ec576116ec611e4b565b6020026020010151925050509392505050565b60008061170b836118ec565b90508061171c5760009150506103d8565b610a60836001600160a01b031663313ce5676040518163ffffffff1660e01b8152600401602060405180830381865afa15801561175d573d6000803e3d6000fd5b505050506040513d601f19601f820116820180604052508101906117819190611f7c565b600054611792906115898886611ac0565b90611ad5565b6040516001600160a01b03831660248201526044810182905261145990849063a9059cbb60e01b90606401610b71565b606061041d8484600085611b0c565b8015806118515750604051636eb1769f60e11b81523060048201526001600160a01b03838116602483015284169063dd62ed3e90604401602060405180830381865afa15801561182b573d6000803e3d6000fd5b505050506040513d601f19601f8201168201806040525081019061184f9190611dff565b155b6118bc5760405162461bcd60e51b815260206004820152603660248201527f5361666545524332303a20617070726f76652066726f6d206e6f6e2d7a65726f60448201527520746f206e6f6e2d7a65726f20616c6c6f77616e636560501b60648201526084016102a0565b6040516001600160a01b03831660248201526044810182905261145990849063095ea7b360e01b90606401610b71565b6000806119217f00000000000000000000000000000000000000000000000000000000000000006001600160a01b0316611c3d565b6040516308c9682b60e31b81526001600160a01b0385811660048301529192509082169063464b415890602401602060405180830381865afa15801561196b573d6000803e3d6000fd5b505050506040513d601f19601f8201168201806040525081019061198f9190611d7e565b156119fe5760405163e5ec9db960e01b81526001600160a01b03848116600483015282169063e5ec9db990602401602060405180830381865afa1580156119da573d6000803e3d6000fd5b505050506040513d601f19601f820116820180604052508101906104209190611dff565b50600092915050565b6000670de0b6b3a7640000611a1c8385611ff1565b6103d59190612010565b600060ff821660121415611a3b5750816103d8565b601260ff83161115611a6757611a52601283612032565b611a5d90600a612139565b61035e9084612010565b611a72826012612032565b611a7d90600a612139565b61035e9084611ff1565b60006001600160a01b03831660008051602061216583398151915214611ab657611ab184846114f6565b61041d565b61041d84836116ff565b600081611a1c670de0b6b3a764000085611ff1565b600060ff821660121415611aea5750816103d8565b601260ff83161115611b0157611a72601283612032565b611a52826012612032565b606082471015611b6d5760405162461bcd60e51b815260206004820152602660248201527f416464726573733a20696e73756666696369656e742062616c616e636520666f6044820152651c8818d85b1b60d21b60648201526084016102a0565b6001600160a01b0385163b611bc45760405162461bcd60e51b815260206004820152601d60248201527f416464726573733a2063616c6c20746f206e6f6e2d636f6e747261637400000060448201526064016102a0565b600080866001600160a01b03168587604051611be09190612148565b60006040518083038185875af1925050503d8060008114611c1d576040519150601f19603f3d011682016040523d82523d6000602084013e611c22565b606091505b5091509150611c32828286611c7d565b979650505050505050565b6040516321f8a72160e01b81526d37b930b1b632a83937bb34b232b960911b60048201526000906001600160a01b038316906321f8a721906024016108fe565b60608315611c8c575081610420565b825115611c9c5782518084602001fd5b8160405162461bcd60e51b81526004016102a09190611dcc565b600060208284031215611cc857600080fd5b5035919050565b6001600160a01b0381168114611ce457600080fd5b50565b60008060408385031215611cfa57600080fd5b8235611d0581611ccf565b91506020830135611d1581611ccf565b809150509250929050565b600080600060608486031215611d3557600080fd5b8335611d4081611ccf565b92506020840135611d5081611ccf565b929592945050506040919091013590565b600060208284031215611d7357600080fd5b813561042081611ccf565b600060208284031215611d9057600080fd5b8151801515811461042057600080fd5b60005b83811015611dbb578181015183820152602001611da3565b83811115610ba85750506000910152565b6020815260008251806020840152611deb816040850160208701611da0565b601f01601f19169190910160400192915050565b600060208284031215611e1157600080fd5b5051919050565b600060208284031215611e2a57600080fd5b815161042081611ccf565b634e487b7160e01b600052604160045260246000fd5b634e487b7160e01b600052603260045260246000fd5b600081518084526020808501945080840160005b83811015611e9a5781516001600160a01b031687529582019590820190600101611e75565b509495945050505050565b82815260406020820152600061041d6040830184611e61565b60006020808385031215611ed157600080fd5b825167ffffffffffffffff80821115611ee957600080fd5b818501915085601f830112611efd57600080fd5b815181811115611f0f57611f0f611e35565b8060051b604051601f19603f83011681018181108582111715611f3457611f34611e35565b604052918252848201925083810185019188831115611f5257600080fd5b938501935b82851015611f7057845184529385019392850192611f57565b98975050505050505050565b600060208284031215611f8e57600080fd5b815160ff8116811461042057600080fd5b85815284602082015260a060408201526000611fbe60a0830186611e61565b6001600160a01b0394909416606083015250608001529392505050565b634e487b7160e01b600052601160045260246000fd5b600081600019048311821515161561200b5761200b611fdb565b500290565b60008261202d57634e487b7160e01b600052601260045260246000fd5b500490565b600060ff821660ff84168082101561204c5761204c611fdb565b90039392505050565b600181815b8085111561209057816000190482111561207657612076611fdb565b8085161561208357918102915b93841c939080029061205a565b509250929050565b6000826120a7575060016103d8565b816120b4575060006103d8565b81600181146120ca57600281146120d4576120f0565b60019150506103d8565b60ff8411156120e5576120e5611fdb565b50506001821b6103d8565b5060208310610133831016604e8410600b8410161715612113575081810a6103d8565b61211d8383612055565b806000190482111561213157612131611fdb565b029392505050565b60006103d560ff841683612098565b6000825161215a818460208701611da0565b919091019291505056fe000000000000000000000000c02aaa39b223fe8d0a0e5c4f27ead9083c756cc2a2646970667358221220ea55d794c7e8966c0055b4eb6dc983848c98aa09208190462fa13b6c86f223fc64736f6c634300080a0033","bytecodeSha1":"1b831411337179650b1495c274ffa77c4c6b127c","compiler":{"evm_version":"london","optimizer":{"enabled":true,"runs":200},"version":"0.8.10+commit.fc410830"},"contractName":"SwapperRouter","language":"Solidity","natspec":{"kind":"dev","methods":{"getAmountOut(address,address,uint256)":{"details":"In the case where a custom swapper is used, return value may not be precise.","notice":"Gets the amount of toToken received by swapping amountIn of fromToken.","params":{"amountIn_":"The amount of fromToken being swapped.","fromToken_":"The token to swap from.","toToken_":"The token to swap to."},"returns":{"amountOut":"The amount of toToken received by swapping amountIn of fromToken."}},"setCurvePool(address,address)":{"details":"To use Uniswap or Sushiswap instead, set the Curve Pool to the zero address.","notice":"Sets the Curve Pool to use for swapping a token with WETH.","params":{"curvePool_":"The address of the Curve Pool.","token_":"The token to set the Curve Pool for."}},"setSlippageTolerance(uint256)":{"details":"Stored as a multiplier, e.g. 2% would be set as 0.98.","notice":"Set slippage tolerance for swaps.","params":{"slippageTolerance_":"New slippage tolerance."}},"swap(address,address,uint256)":{"notice":"Swaps an amount of fromToken to toToken.","params":{"amountIn_":"The amount of fromToken to swap for toToken.","fromToken_":"The token to swap from.","toToken_":"The token to swap to."},"returns":{"amountOut":"The amount of toToken received."}},"swapAll(address,address)":{"notice":"Swaps all of the users balance of fromToken for toToken.","params":{"fromToken_":"The token to swap from.","toToken_":"The token to swap to."},"returns":{"amountOut":"The amount of toToken received."}}},"notice":"The swapper router handles the swapping from one token to another. By default it does all swaps through WETH, in two steps checking which DEX is better for each stage of the swap. It also supports ETH in or out and handles it by converting to WETH and back.","version":1},"opcodes":"PUSH1 0x80 PUSH1 0x40 MSTORE PUSH1 0x4 CALLDATASIZE LT PUSH2 0x7E JUMPI PUSH1 0x0 CALLDATALOAD PUSH1 0xE0 SHR DUP1 PUSH4 0x58FD9BE0 GT PUSH2 0x4E JUMPI DUP1 PUSH4 0x58FD9BE0 EQ PUSH2 0x139 JUMPI DUP1 PUSH4 0xA7888718 EQ PUSH2 0x159 JUMPI DUP1 PUSH4 0xD03153AA EQ PUSH2 0x18F JUMPI DUP1 PUSH4 0xDF791E50 EQ PUSH2 0x1A5 JUMPI PUSH1 0x0 DUP1 REVERT JUMPDEST DUP1 PUSH3 0x435DA5 EQ PUSH2 0x8A JUMPI DUP1 PUSH4 0x117DA1EE EQ PUSH2 0xD6 JUMPI DUP1 PUSH4 0x3FF37E8F EQ PUSH2 0xF8 JUMPI DUP1 PUSH4 0x4AA06652 EQ PUSH2 0x119 JUMPI PUSH1 0x0 DUP1 REVERT JUMPDEST CALLDATASIZE PUSH2 0x85 JUMPI STOP JUMPDEST PUSH1 0x0 DUP1 REVERT JUMPDEST CALLVALUE DUP1 ISZERO PUSH2 0x96 JUMPI PUSH1 0x0 DUP1 REVERT JUMPDEST POP PUSH32 0x0 JUMPDEST PUSH1 0x40 MLOAD PUSH1 0x1 PUSH1 0x1 PUSH1 0xA0 SHL SUB SWAP1 SWAP2 AND DUP2 MSTORE PUSH1 0x20 ADD JUMPDEST PUSH1 0x40 MLOAD DUP1 SWAP2 SUB SWAP1 RETURN JUMPDEST CALLVALUE DUP1 ISZERO PUSH2 0xE2 JUMPI PUSH1 0x0 DUP1 REVERT JUMPDEST POP PUSH2 0xF6 PUSH2 0xF1 CALLDATASIZE PUSH1 0x4 PUSH2 0x1CB6 JUMP JUMPDEST PUSH2 0x1B8 JUMP JUMPDEST STOP JUMPDEST PUSH2 0x10B PUSH2 0x106 CALLDATASIZE PUSH1 0x4 PUSH2 0x1CE7 JUMP JUMPDEST PUSH2 0x343 JUMP JUMPDEST PUSH1 0x40 MLOAD SWAP1 DUP2 MSTORE PUSH1 0x20 ADD PUSH2 0xCD JUMP JUMPDEST CALLVALUE DUP1 ISZERO PUSH2 0x125 JUMPI PUSH1 0x0 DUP1 REVERT JUMPDEST POP PUSH2 0x10B PUSH2 0x134 CALLDATASIZE PUSH1 0x4 PUSH2 0x1D20 JUMP JUMPDEST PUSH2 0x3DE JUMP JUMPDEST CALLVALUE DUP1 ISZERO PUSH2 0x145 JUMPI PUSH1 0x0 DUP1 REVERT JUMPDEST POP PUSH2 0xF6 PUSH2 0x154 CALLDATASIZE PUSH1 0x4 PUSH2 0x1CE7 JUMP JUMPDEST PUSH2 0x427 JUMP JUMPDEST CALLVALUE DUP1 ISZERO PUSH2 0x165 JUMPI PUSH1 0x0 DUP1 REVERT JUMPDEST POP PUSH2 0xB9 PUSH2 0x174 CALLDATASIZE PUSH1 0x4 PUSH2 0x1D61 JUMP JUMPDEST PUSH1 0x1 PUSH1 0x20 MSTORE PUSH1 0x0 SWAP1 DUP2 MSTORE PUSH1 0x40 SWAP1 KECCAK256 SLOAD PUSH1 0x1 PUSH1 0x1 PUSH1 0xA0 SHL SUB AND DUP2 JUMP JUMPDEST CALLVALUE DUP1 ISZERO PUSH2 0x19B JUMPI PUSH1 0x0 DUP1 REVERT JUMPDEST POP PUSH2 0x10B PUSH1 0x0 SLOAD DUP2 JUMP JUMPDEST PUSH2 0x10B PUSH2 0x1B3 CALLDATASIZE PUSH1 0x4 PUSH2 0x1D20 JUMP JUMPDEST PUSH2 0x650 JUMP JUMPDEST PUSH32 0x0 PUSH1 0x40 MLOAD PUSH4 0x24745215 PUSH1 0xE2 SHL DUP2 MSTORE PUSH10 0x676F7665726E616E6365 PUSH1 0xB0 SHL PUSH1 0x4 DUP3 ADD MSTORE CALLER PUSH1 0x24 DUP3 ADD MSTORE PUSH1 0x1 PUSH1 0x1 PUSH1 0xA0 SHL SUB SWAP2 SWAP1 SWAP2 AND SWAP1 PUSH4 0x91D14854 SWAP1 PUSH1 0x44 ADD PUSH1 0x20 PUSH1 0x40 MLOAD DUP1 DUP4 SUB DUP2 DUP7 GAS STATICCALL ISZERO DUP1 ISZERO PUSH2 0x232 JUMPI RETURNDATASIZE PUSH1 0x0 DUP1 RETURNDATACOPY RETURNDATASIZE PUSH1 0x0 REVERT JUMPDEST POP POP POP POP PUSH1 0x40 MLOAD RETURNDATASIZE PUSH1 0x1F NOT PUSH1 0x1F DUP3 ADD AND DUP3 ADD DUP1 PUSH1 0x40 MSTORE POP DUP2 ADD SWAP1 PUSH2 0x256 SWAP2 SWAP1 PUSH2 0x1D7E JUMP JUMPDEST PUSH1 0x40 MLOAD DUP1 PUSH1 0x40 ADD PUSH1 0x40 MSTORE DUP1 PUSH1 0x13 DUP2 MSTORE PUSH1 0x20 ADD PUSH19 0x756E617574686F72697A656420616363657373 PUSH1 0x68 SHL DUP2 MSTORE POP SWAP1 PUSH2 0x2A9 JUMPI PUSH1 0x40 MLOAD PUSH3 0x461BCD PUSH1 0xE5 SHL DUP2 MSTORE PUSH1 0x4 ADD PUSH2 0x2A0 SWAP2 SWAP1 PUSH2 0x1DCC JUMP JUMPDEST PUSH1 0x40 MLOAD DUP1 SWAP2 SUB SWAP1 REVERT JUMPDEST POP PUSH1 0x40 DUP1 MLOAD DUP1 DUP3 ADD SWAP1 SWAP2 MSTORE PUSH1 0x1A DUP2 MSTORE PUSH32 0x496E76616C696420736C69707061676520746F6C6572616E6365000000000000 PUSH1 0x20 DUP3 ADD MSTORE PUSH8 0xDE0B6B3A7640000 DUP3 GT ISZERO PUSH2 0x307 JUMPI PUSH1 0x40 MLOAD PUSH3 0x461BCD PUSH1 0xE5 SHL DUP2 MSTORE PUSH1 0x4 ADD PUSH2 0x2A0 SWAP2 SWAP1 PUSH2 0x1DCC JUMP JUMPDEST POP PUSH1 0x0 DUP2 SWAP1 SSTORE PUSH1 0x40 MLOAD DUP2 DUP2 MSTORE PUSH32 0xE4A7FD2711237E77309A9A16FF636A748DBF956FD91F6E6DA800D9302F441A79 SWAP1 PUSH1 0x20 ADD PUSH1 0x40 MLOAD DUP1 SWAP2 SUB SWAP1 LOG1 POP JUMP JUMPDEST PUSH1 0x0 PUSH1 0x1 PUSH1 0x1 PUSH1 0xA0 SHL SUB DUP4 AND PUSH2 0x365 JUMPI PUSH2 0x35E DUP4 DUP4 SELFBALANCE PUSH2 0x650 JUMP JUMPDEST SWAP1 POP PUSH2 0x3D8 JUMP JUMPDEST PUSH1 0x40 MLOAD PUSH4 0x70A08231 PUSH1 0xE0 SHL DUP2 MSTORE CALLER PUSH1 0x4 DUP3 ADD MSTORE PUSH2 0x3D5 SWAP1 DUP5 SWAP1 DUP5 SWAP1 PUSH1 0x1 PUSH1 0x1 PUSH1 0xA0 SHL SUB DUP4 AND SWAP1 PUSH4 0x70A08231 SWAP1 PUSH1 0x24 ADD PUSH1 0x20 PUSH1 0x40 MLOAD DUP1 DUP4 SUB DUP2 DUP7 GAS STATICCALL ISZERO DUP1 ISZERO PUSH2 0x3B1 JUMPI RETURNDATASIZE PUSH1 0x0 DUP1 RETURNDATACOPY RETURNDATASIZE PUSH1 0x0 REVERT JUMPDEST POP POP POP POP PUSH1 0x40 MLOAD RETURNDATASIZE PUSH1 0x1F NOT PUSH1 0x1F DUP3 ADD AND DUP3 ADD DUP1 PUSH1 0x40 MSTORE POP DUP2 ADD SWAP1 PUSH2 0x1B3 SWAP2 SWAP1 PUSH2 0x1DFF JUMP JUMPDEST SWAP1 POP JUMPDEST SWAP3 SWAP2 POP POP JUMP JUMPDEST PUSH1 0x0 DUP3 PUSH1 0x1 PUSH1 0x1 PUSH1 0xA0 SHL SUB AND DUP5 PUSH1 0x1 PUSH1 0x1 PUSH1 0xA0 SHL SUB AND EQ DUP1 PUSH2 0x3FE JUMPI POP DUP2 ISZERO JUMPDEST ISZERO PUSH2 0x40A JUMPI POP DUP1 PUSH2 0x420 JUMP JUMPDEST PUSH2 0x41D DUP4 PUSH2 0x418 DUP7 DUP6 PUSH2 0x93F JUMP JUMPDEST PUSH2 0xA68 JUMP JUMPDEST SWAP1 POP JUMPDEST SWAP4 SWAP3 POP POP POP JUMP JUMPDEST PUSH32 0x0 PUSH1 0x40 MLOAD PUSH4 0x24745215 PUSH1 0xE2 SHL DUP2 MSTORE PUSH10 0x676F7665726E616E6365 PUSH1 0xB0 SHL PUSH1 0x4 DUP3 ADD MSTORE CALLER PUSH1 0x24 DUP3 ADD MSTORE PUSH1 0x1 PUSH1 0x1 PUSH1 0xA0 SHL SUB SWAP2 SWAP1 SWAP2 AND SWAP1 PUSH4 0x91D14854 SWAP1 PUSH1 0x44 ADD PUSH1 0x20 PUSH1 0x40 MLOAD DUP1 DUP4 SUB DUP2 DUP7 GAS STATICCALL ISZERO DUP1 ISZERO PUSH2 0x4A1 JUMPI RETURNDATASIZE PUSH1 0x0 DUP1 RETURNDATACOPY RETURNDATASIZE PUSH1 0x0 REVERT JUMPDEST POP POP POP POP PUSH1 0x40 MLOAD RETURNDATASIZE PUSH1 0x1F NOT PUSH1 0x1F DUP3 ADD AND DUP3 ADD DUP1 PUSH1 0x40 MSTORE POP DUP2 ADD SWAP1 PUSH2 0x4C5 SWAP2 SWAP1 PUSH2 0x1D7E JUMP JUMPDEST PUSH1 0x40 MLOAD DUP1 PUSH1 0x40 ADD PUSH1 0x40 MSTORE DUP1 PUSH1 0x13 DUP2 MSTORE PUSH1 0x20 ADD PUSH19 0x756E617574686F72697A656420616363657373 PUSH1 0x68 SHL DUP2 MSTORE POP SWAP1 PUSH2 0x50F JUMPI PUSH1 0x40 MLOAD PUSH3 0x461BCD PUSH1 0xE5 SHL DUP2 MSTORE PUSH1 0x4 ADD PUSH2 0x2A0 SWAP2 SWAP1 PUSH2 0x1DCC JUMP JUMPDEST POP PUSH1 0x40 DUP1 MLOAD DUP1 DUP3 ADD SWAP1 SWAP2 MSTORE PUSH1 0x18 DUP2 MSTORE PUSH32 0x7A65726F2061646472657373206E6F7420616C6C6F7765640000000000000000 PUSH1 0x20 DUP3 ADD MSTORE PUSH1 0x1 PUSH1 0x1 PUSH1 0xA0 SHL SUB DUP4 AND PUSH2 0x56B JUMPI PUSH1 0x40 MLOAD PUSH3 0x461BCD PUSH1 0xE5 SHL DUP2 MSTORE PUSH1 0x4 ADD PUSH2 0x2A0 SWAP2 SWAP1 PUSH2 0x1DCC JUMP JUMPDEST POP PUSH1 0x1 PUSH1 0x1 PUSH1 0xA0 SHL SUB DUP1 DUP4 AND PUSH1 0x0 SWAP1 DUP2 MSTORE PUSH1 0x1 PUSH1 0x20 SWAP1 DUP2 MSTORE PUSH1 0x40 SWAP2 DUP3 SWAP1 KECCAK256 SLOAD DUP3 MLOAD DUP1 DUP5 ADD SWAP1 SWAP4 MSTORE PUSH1 0x18 DUP4 MSTORE PUSH32 0x73616D652061646472657373206E6F7420616C6C6F7765640000000000000000 SWAP2 DUP4 ADD SWAP2 SWAP1 SWAP2 MSTORE SWAP1 SWAP2 DUP4 DUP2 AND SWAP2 AND EQ ISZERO PUSH2 0x5E4 JUMPI PUSH1 0x40 MLOAD PUSH3 0x461BCD PUSH1 0xE5 SHL DUP2 MSTORE PUSH1 0x4 ADD PUSH2 0x2A0 SWAP2 SWAP1 PUSH2 0x1DCC JUMP JUMPDEST POP PUSH1 0x1 PUSH1 0x1 PUSH1 0xA0 SHL SUB DUP3 DUP2 AND PUSH1 0x0 DUP2 DUP2 MSTORE PUSH1 0x1 PUSH1 0x20 SWAP1 DUP2 MSTORE PUSH1 0x40 SWAP2 DUP3 SWAP1 KECCAK256 DUP1 SLOAD PUSH1 0x1 PUSH1 0x1 PUSH1 0xA0 SHL SUB NOT AND SWAP5 DUP7 AND SWAP5 DUP6 OR SWAP1 SSTORE DUP2 MLOAD SWAP3 DUP4 MSTORE DUP3 ADD SWAP3 SWAP1 SWAP3 MSTORE PUSH32 0xC99581E03A01BC0E74719AF7085E6D62B1A853B511CB673DB6C840EB4EC648CA SWAP2 ADD PUSH1 0x40 MLOAD DUP1 SWAP2 SUB SWAP1 LOG1 POP POP JUMP JUMPDEST PUSH1 0x0 PUSH1 0x1 PUSH1 0x1 PUSH1 0xA0 SHL SUB DUP5 AND ISZERO PUSH2 0x668 JUMPI PUSH1 0x0 PUSH2 0x66A JUMP JUMPDEST DUP2 JUMPDEST CALLVALUE EQ PUSH1 0x40 MLOAD DUP1 PUSH1 0x40 ADD PUSH1 0x40 MSTORE DUP1 PUSH1 0xE DUP2 MSTORE PUSH1 0x20 ADD PUSH14 0x1A5B9D985B1A5908185B5BDD5B9D PUSH1 0x92 SHL DUP2 MSTORE POP SWAP1 PUSH2 0x6B1 JUMPI PUSH1 0x40 MLOAD PUSH3 0x461BCD PUSH1 0xE5 SHL DUP2 MSTORE PUSH1 0x4 ADD PUSH2 0x2A0 SWAP2 SWAP1 PUSH2 0x1DCC JUMP JUMPDEST POP DUP2 PUSH2 0x708 JUMPI PUSH1 0x40 DUP1 MLOAD PUSH1 0x0 DUP1 DUP3 MSTORE PUSH1 0x20 DUP3 ADD MSTORE PUSH1 0x1 PUSH1 0x1 PUSH1 0xA0 SHL SUB DUP1 DUP7 AND SWAP3 SWAP1 DUP8 AND SWAP2 PUSH32 0xA078C4190ABE07940190EFFC1846BE0CCF03AD6007BC9E93F9697D0B460BEFBB SWAP2 ADD PUSH1 0x40 MLOAD DUP1 SWAP2 SUB SWAP1 LOG3 POP PUSH1 0x0 PUSH2 0x420 JUMP JUMPDEST DUP3 PUSH1 0x1 PUSH1 0x1 PUSH1 0xA0 SHL SUB AND DUP5 PUSH1 0x1 PUSH1 0x1 PUSH1 0xA0 SHL SUB AND EQ ISZERO PUSH2 0x822 JUMPI PUSH1 0x1 PUSH1 0x1 PUSH1 0xA0 SHL SUB DUP5 AND PUSH2 0x7C5 JUMPI PUSH1 0x40 MLOAD PUSH1 0x0 SWAP1 CALLER SWAP1 DUP5 SWAP1 DUP4 DUP2 DUP2 DUP2 DUP6 DUP8 GAS CALL SWAP3 POP POP POP RETURNDATASIZE DUP1 PUSH1 0x0 DUP2 EQ PUSH2 0x772 JUMPI PUSH1 0x40 MLOAD SWAP2 POP PUSH1 0x1F NOT PUSH1 0x3F RETURNDATASIZE ADD AND DUP3 ADD PUSH1 0x40 MSTORE RETURNDATASIZE DUP3 MSTORE RETURNDATASIZE PUSH1 0x0 PUSH1 0x20 DUP5 ADD RETURNDATACOPY PUSH2 0x777 JUMP JUMPDEST PUSH1 0x60 SWAP2 POP JUMPDEST POP POP SWAP1 POP DUP1 PUSH1 0x40 MLOAD DUP1 PUSH1 0x40 ADD PUSH1 0x40 MSTORE DUP1 PUSH1 0xF DUP2 MSTORE PUSH1 0x20 ADD PUSH15 0x1D1C985B9CD9995C8819985A5B1959 PUSH1 0x8A SHL DUP2 MSTORE POP SWAP1 PUSH2 0x7C2 JUMPI PUSH1 0x40 MLOAD PUSH3 0x461BCD PUSH1 0xE5 SHL DUP2 MSTORE PUSH1 0x4 ADD PUSH2 0x2A0 SWAP2 SWAP1 PUSH2 0x1DCC JUMP JUMPDEST POP POP JUMPDEST DUP3 PUSH1 0x1 PUSH1 0x1 PUSH1 0xA0 SHL SUB AND DUP5 PUSH1 0x1 PUSH1 0x1 PUSH1 0xA0 SHL SUB AND PUSH32 0xA078C4190ABE07940190EFFC1846BE0CCF03AD6007BC9E93F9697D0B460BEFBB DUP5 DUP6 PUSH1 0x40 MLOAD PUSH2 0x813 SWAP3 SWAP2 SWAP1 SWAP2 DUP3 MSTORE PUSH1 0x20 DUP3 ADD MSTORE PUSH1 0x40 ADD SWAP1 JUMP JUMPDEST PUSH1 0x40 MLOAD DUP1 SWAP2 SUB SWAP1 LOG3 POP DUP1 PUSH2 0x420 JUMP JUMPDEST PUSH1 0x1 PUSH1 0x1 PUSH1 0xA0 SHL SUB DUP5 AND ISZERO PUSH2 0x846 JUMPI PUSH2 0x846 PUSH1 0x1 PUSH1 0x1 PUSH1 0xA0 SHL SUB DUP6 AND CALLER ADDRESS DUP6 PUSH2 0xB3D JUMP JUMPDEST PUSH1 0x0 PUSH2 0x85A DUP5 PUSH2 0x855 DUP8 PUSH2 0xBAE JUMP JUMPDEST PUSH2 0xEF3 JUMP JUMPDEST SWAP1 POP DUP4 PUSH1 0x1 PUSH1 0x1 PUSH1 0xA0 SHL SUB AND DUP6 PUSH1 0x1 PUSH1 0x1 PUSH1 0xA0 SHL SUB AND PUSH32 0xA078C4190ABE07940190EFFC1846BE0CCF03AD6007BC9E93F9697D0B460BEFBB DUP6 DUP5 PUSH1 0x40 MLOAD PUSH2 0x8AA SWAP3 SWAP2 SWAP1 SWAP2 DUP3 MSTORE PUSH1 0x20 DUP3 ADD MSTORE PUSH1 0x40 ADD SWAP1 JUMP JUMPDEST PUSH1 0x40 MLOAD DUP1 SWAP2 SUB SWAP1 LOG3 PUSH2 0x8BC DUP5 DUP3 PUSH2 0x10AB JUMP JUMPDEST SWAP6 SWAP5 POP POP POP POP POP JUMP JUMPDEST PUSH1 0x40 MLOAD PUSH4 0x21F8A721 PUSH1 0xE0 SHL DUP2 MSTORE PUSH11 0x3937B632A6B0B730B3B2B9 PUSH1 0xA9 SHL PUSH1 0x4 DUP3 ADD MSTORE PUSH1 0x0 SWAP1 PUSH1 0x1 PUSH1 0x1 PUSH1 0xA0 SHL SUB DUP4 AND SWAP1 PUSH4 0x21F8A721 SWAP1 PUSH1 0x24 ADD JUMPDEST PUSH1 0x20 PUSH1 0x40 MLOAD DUP1 DUP4 SUB DUP2 DUP7 GAS STATICCALL ISZERO DUP1 ISZERO PUSH2 0x91B JUMPI RETURNDATASIZE PUSH1 0x0 DUP1 RETURNDATACOPY RETURNDATASIZE PUSH1 0x0 REVERT JUMPDEST POP POP POP POP PUSH1 0x40 MLOAD RETURNDATASIZE PUSH1 0x1F NOT PUSH1 0x1F DUP3 ADD AND DUP3 ADD DUP1 PUSH1 0x40 MSTORE POP DUP2 ADD SWAP1 PUSH2 0x3D8 SWAP2 SWAP1 PUSH2 0x1E18 JUMP JUMPDEST PUSH1 0x0 PUSH1 0x1 PUSH1 0x1 PUSH1 0xA0 SHL SUB DUP4 AND PUSH1 0x0 DUP1 MLOAD PUSH1 0x20 PUSH2 0x2165 DUP4 CODECOPY DUP2 MLOAD SWAP2 MSTORE EQ DUP1 PUSH2 0x96D JUMPI POP PUSH1 0x1 PUSH1 0x1 PUSH1 0xA0 SHL SUB DUP4 AND ISZERO JUMPDEST ISZERO PUSH2 0x979 JUMPI POP DUP1 PUSH2 0x3D8 JUMP JUMPDEST PUSH1 0x1 PUSH1 0x1 PUSH1 0xA0 SHL SUB DUP1 DUP5 AND PUSH1 0x0 SWAP1 DUP2 MSTORE PUSH1 0x1 PUSH1 0x20 MSTORE PUSH1 0x40 SWAP1 KECCAK256 SLOAD AND DUP1 ISZERO PUSH2 0xA2E JUMPI PUSH1 0x0 DUP1 PUSH2 0x9A7 DUP4 DUP8 PUSH2 0x1171 JUMP JUMPDEST PUSH1 0x40 MLOAD PUSH4 0x556D6E9F PUSH1 0xE0 SHL DUP2 MSTORE PUSH1 0x4 DUP2 ADD DUP3 SWAP1 MSTORE PUSH1 0x24 DUP2 ADD DUP4 SWAP1 MSTORE PUSH1 0x44 DUP2 ADD DUP9 SWAP1 MSTORE SWAP2 SWAP4 POP SWAP2 POP PUSH1 0x1 PUSH1 0x1 PUSH1 0xA0 SHL SUB DUP5 AND SWAP1 PUSH4 0x556D6E9F SWAP1 PUSH1 0x64 ADD JUMPDEST PUSH1 0x20 PUSH1 0x40 MLOAD DUP1 DUP4 SUB DUP2 DUP7 GAS STATICCALL ISZERO DUP1 ISZERO PUSH2 0xA00 JUMPI RETURNDATASIZE PUSH1 0x0 DUP1 RETURNDATACOPY RETURNDATASIZE PUSH1 0x0 REVERT JUMPDEST POP POP POP POP PUSH1 0x40 MLOAD RETURNDATASIZE PUSH1 0x1F NOT PUSH1 0x1F DUP3 ADD AND DUP3 ADD DUP1 PUSH1 0x40 MSTORE POP DUP2 ADD SWAP1 PUSH2 0xA24 SWAP2 SWAP1 PUSH2 0x1DFF JUMP JUMPDEST SWAP4 POP POP POP POP PUSH2 0x3D8 JUMP JUMPDEST PUSH2 0xA60 DUP5 PUSH1 0x0 DUP1 MLOAD PUSH1 0x20 PUSH2 0x2165 DUP4 CODECOPY DUP2 MLOAD SWAP2 MSTORE DUP6 PUSH2 0xA5B DUP9 PUSH1 0x0 DUP1 MLOAD PUSH1 0x20 PUSH2 0x2165 DUP4 CODECOPY DUP2 MLOAD SWAP2 MSTORE DUP10 PUSH2 0x121A JUMP JUMPDEST PUSH2 0x1273 JUMP JUMPDEST SWAP5 SWAP4 POP POP POP POP JUMP JUMPDEST PUSH1 0x0 PUSH1 0x1 PUSH1 0x1 PUSH1 0xA0 SHL SUB DUP4 AND PUSH1 0x0 DUP1 MLOAD PUSH1 0x20 PUSH2 0x2165 DUP4 CODECOPY DUP2 MLOAD SWAP2 MSTORE EQ DUP1 PUSH2 0xA96 JUMPI POP PUSH1 0x1 PUSH1 0x1 PUSH1 0xA0 SHL SUB DUP4 AND ISZERO JUMPDEST ISZERO PUSH2 0xAA2 JUMPI POP DUP1 PUSH2 0x3D8 JUMP JUMPDEST PUSH1 0x1 PUSH1 0x1 PUSH1 0xA0 SHL SUB DUP1 DUP5 AND PUSH1 0x0 SWAP1 DUP2 MSTORE PUSH1 0x1 PUSH1 0x20 MSTORE PUSH1 0x40 SWAP1 KECCAK256 SLOAD AND DUP1 ISZERO PUSH2 0xB10 JUMPI PUSH1 0x0 DUP1 PUSH2 0xAD0 DUP4 DUP8 PUSH2 0x1171 JUMP JUMPDEST PUSH1 0x40 MLOAD PUSH4 0x556D6E9F PUSH1 0xE0 SHL DUP2 MSTORE PUSH1 0x4 DUP2 ADD DUP4 SWAP1 MSTORE PUSH1 0x24 DUP2 ADD DUP3 SWAP1 MSTORE PUSH1 0x44 DUP2 ADD DUP9 SWAP1 MSTORE SWAP2 SWAP4 POP SWAP2 POP PUSH1 0x1 PUSH1 0x1 PUSH1 0xA0 SHL SUB DUP5 AND SWAP1 PUSH4 0x556D6E9F SWAP1 PUSH1 0x64 ADD PUSH2 0x9E3 JUMP JUMPDEST PUSH2 0xA60 PUSH1 0x0 DUP1 MLOAD PUSH1 0x20 PUSH2 0x2165 DUP4 CODECOPY DUP2 MLOAD SWAP2 MSTORE DUP6 DUP6 PUSH2 0xA5B PUSH1 0x0 DUP1 MLOAD PUSH1 0x20 PUSH2 0x2165 DUP4 CODECOPY DUP2 MLOAD SWAP2 MSTORE DUP10 DUP10 PUSH2 0x121A JUMP JUMPDEST PUSH1 0x40 MLOAD PUSH1 0x1 PUSH1 0x1 PUSH1 0xA0 SHL SUB DUP1 DUP6 AND PUSH1 0x24 DUP4 ADD MSTORE DUP4 AND PUSH1 0x44 DUP3 ADD MSTORE PUSH1 0x64 DUP2 ADD DUP3 SWAP1 MSTORE PUSH2 0xBA8 SWAP1 DUP6 SWAP1 PUSH4 0x23B872DD PUSH1 0xE0 SHL SWAP1 PUSH1 0x84 ADD JUMPDEST PUSH1 0x40 DUP1 MLOAD PUSH1 0x1F NOT DUP2 DUP5 SUB ADD DUP2 MSTORE SWAP2 SWAP1 MSTORE PUSH1 0x20 DUP2 ADD DUP1 MLOAD PUSH1 0x1 PUSH1 0x1 PUSH1 0xE0 SHL SUB AND PUSH1 0x1 PUSH1 0x1 PUSH1 0xE0 SHL SUB NOT SWAP1 SWAP4 AND SWAP3 SWAP1 SWAP3 OR SWAP1 SWAP2 MSTORE PUSH2 0x1387 JUMP JUMPDEST POP POP POP POP JUMP JUMPDEST PUSH1 0x0 PUSH1 0x1 PUSH1 0x1 PUSH1 0xA0 SHL SUB DUP3 AND PUSH1 0x0 DUP1 MLOAD PUSH1 0x20 PUSH2 0x2165 DUP4 CODECOPY DUP2 MLOAD SWAP2 MSTORE EQ ISZERO PUSH2 0xC3C JUMPI PUSH1 0x40 MLOAD PUSH4 0x70A08231 PUSH1 0xE0 SHL DUP2 MSTORE ADDRESS PUSH1 0x4 DUP3 ADD MSTORE PUSH1 0x0 DUP1 MLOAD PUSH1 0x20 PUSH2 0x2165 DUP4 CODECOPY DUP2 MLOAD SWAP2 MSTORE SWAP1 PUSH4 0x70A08231 SWAP1 PUSH1 0x24 ADD PUSH1 0x20 PUSH1 0x40 MLOAD DUP1 DUP4 SUB DUP2 DUP7 GAS STATICCALL ISZERO DUP1 ISZERO PUSH2 0xC18 JUMPI RETURNDATASIZE PUSH1 0x0 DUP1 RETURNDATACOPY RETURNDATASIZE PUSH1 0x0 REVERT JUMPDEST POP POP POP POP PUSH1 0x40 MLOAD RETURNDATASIZE PUSH1 0x1F NOT PUSH1 0x1F DUP3 ADD AND DUP3 ADD DUP1 PUSH1 0x40 MSTORE POP DUP2 ADD SWAP1 PUSH2 0x3D8 SWAP2 SWAP1 PUSH2 0x1DFF JUMP JUMPDEST PUSH1 0x1 PUSH1 0x1 PUSH1 0xA0 SHL SUB DUP3 AND PUSH2 0xCC2 JUMPI SELFBALANCE DUP1 PUSH2 0xC59 JUMPI POP PUSH1 0x0 SWAP3 SWAP2 POP POP JUMP JUMPDEST PUSH1 0x0 DUP1 MLOAD PUSH1 0x20 PUSH2 0x2165 DUP4 CODECOPY DUP2 MLOAD SWAP2 MSTORE PUSH1 0x1 PUSH1 0x1 PUSH1 0xA0 SHL SUB AND PUSH4 0xD0E30DB0 DUP3 PUSH1 0x40 MLOAD DUP3 PUSH4 0xFFFFFFFF AND PUSH1 0xE0 SHL DUP2 MSTORE PUSH1 0x4 ADD PUSH1 0x0 PUSH1 0x40 MLOAD DUP1 DUP4 SUB DUP2 DUP6 DUP9 DUP1 EXTCODESIZE ISZERO DUP1 ISZERO PUSH2 0xCA2 JUMPI PUSH1 0x0 DUP1 REVERT JUMPDEST POP GAS CALL ISZERO DUP1 ISZERO PUSH2 0xCB6 JUMPI RETURNDATASIZE PUSH1 0x0 DUP1 RETURNDATACOPY RETURNDATASIZE PUSH1 0x0 REVERT JUMPDEST POP SWAP4 SWAP7 SWAP6 POP POP POP POP POP POP JUMP JUMPDEST PUSH1 0x1 PUSH1 0x1 PUSH1 0xA0 SHL SUB DUP1 DUP4 AND PUSH1 0x0 SWAP1 DUP2 MSTORE PUSH1 0x1 PUSH1 0x20 MSTORE PUSH1 0x40 SWAP1 KECCAK256 SLOAD AND DUP1 ISZERO PUSH2 0xE70 JUMPI PUSH1 0x40 MLOAD PUSH4 0x70A08231 PUSH1 0xE0 SHL DUP2 MSTORE ADDRESS PUSH1 0x4 DUP3 ADD MSTORE PUSH1 0x0 SWAP1 PUSH1 0x1 PUSH1 0x1 PUSH1 0xA0 SHL SUB DUP6 AND SWAP1 PUSH4 0x70A08231 SWAP1 PUSH1 0x24 ADD PUSH1 0x20 PUSH1 0x40 MLOAD DUP1 DUP4 SUB DUP2 DUP7 GAS STATICCALL ISZERO DUP1 ISZERO PUSH2 0xD2A JUMPI RETURNDATASIZE PUSH1 0x0 DUP1 RETURNDATACOPY RETURNDATASIZE PUSH1 0x0 REVERT JUMPDEST POP POP POP POP PUSH1 0x40 MLOAD RETURNDATASIZE PUSH1 0x1F NOT PUSH1 0x1F DUP3 ADD AND DUP3 ADD DUP1 PUSH1 0x40 MSTORE POP DUP2 ADD SWAP1 PUSH2 0xD4E SWAP2 SWAP1 PUSH2 0x1DFF JUMP JUMPDEST SWAP1 POP DUP1 PUSH2 0xD5F JUMPI POP PUSH1 0x0 SWAP4 SWAP3 POP POP POP JUMP JUMPDEST PUSH2 0xD69 DUP5 DUP4 PUSH2 0x145E JUMP JUMPDEST PUSH1 0x0 DUP1 PUSH2 0xD76 DUP5 DUP8 PUSH2 0x1171 JUMP JUMPDEST SWAP2 POP SWAP2 POP DUP4 PUSH1 0x1 PUSH1 0x1 PUSH1 0xA0 SHL SUB AND PUSH4 0x5B41B908 DUP3 DUP5 DUP7 PUSH2 0xD96 DUP9 DUP13 PUSH2 0x14F6 JUMP JUMPDEST PUSH1 0x40 MLOAD PUSH1 0x1 PUSH1 0x1 PUSH1 0xE0 SHL SUB NOT PUSH1 0xE0 DUP8 SWAP1 SHL AND DUP2 MSTORE PUSH1 0x4 DUP2 ADD SWAP5 SWAP1 SWAP5 MSTORE PUSH1 0x24 DUP5 ADD SWAP3 SWAP1 SWAP3 MSTORE PUSH1 0x44 DUP4 ADD MSTORE PUSH1 0x64 DUP3 ADD MSTORE PUSH1 0x84 ADD PUSH1 0x0 PUSH1 0x40 MLOAD DUP1 DUP4 SUB DUP2 PUSH1 0x0 DUP8 DUP1 EXTCODESIZE ISZERO DUP1 ISZERO PUSH2 0xDE1 JUMPI PUSH1 0x0 DUP1 REVERT JUMPDEST POP GAS CALL ISZERO DUP1 ISZERO PUSH2 0xDF5 JUMPI RETURNDATASIZE PUSH1 0x0 DUP1 RETURNDATACOPY RETURNDATASIZE PUSH1 0x0 REVERT JUMPDEST POP POP PUSH1 0x40 MLOAD PUSH4 0x70A08231 PUSH1 0xE0 SHL DUP2 MSTORE ADDRESS PUSH1 0x4 DUP3 ADD MSTORE PUSH1 0x0 DUP1 MLOAD PUSH1 0x20 PUSH2 0x2165 DUP4 CODECOPY DUP2 MLOAD SWAP2 MSTORE SWAP3 POP PUSH4 0x70A08231 SWAP2 POP PUSH1 0x24 ADD PUSH1 0x20 PUSH1 0x40 MLOAD DUP1 DUP4 SUB DUP2 DUP7 GAS STATICCALL ISZERO DUP1 ISZERO PUSH2 0xE42 JUMPI RETURNDATASIZE PUSH1 0x0 DUP1 RETURNDATACOPY RETURNDATASIZE PUSH1 0x0 REVERT JUMPDEST POP POP POP POP PUSH1 0x40 MLOAD RETURNDATASIZE PUSH1 0x1F NOT PUSH1 0x1F DUP3 ADD AND DUP3 ADD DUP1 PUSH1 0x40 MSTORE POP DUP2 ADD SWAP1 PUSH2 0xE66 SWAP2 SWAP1 PUSH2 0x1DFF JUMP JUMPDEST SWAP7 SWAP6 POP POP POP POP POP POP JUMP JUMPDEST PUSH1 0x40 MLOAD PUSH4 0x70A08231 PUSH1 0xE0 SHL DUP2 MSTORE ADDRESS PUSH1 0x4 DUP3 ADD MSTORE PUSH2 0x420 SWAP1 DUP5 SWAP1 PUSH1 0x0 DUP1 MLOAD PUSH1 0x20 PUSH2 0x2165 DUP4 CODECOPY DUP2 MLOAD SWAP2 MSTORE SWAP1 PUSH1 0x1 PUSH1 0x1 PUSH1 0xA0 SHL SUB DUP4 AND SWAP1 PUSH4 0x70A08231 SWAP1 PUSH1 0x24 ADD PUSH1 0x20 PUSH1 0x40 MLOAD DUP1 DUP4 SUB DUP2 DUP7 GAS STATICCALL ISZERO DUP1 ISZERO PUSH2 0xECA JUMPI RETURNDATASIZE PUSH1 0x0 DUP1 RETURNDATACOPY RETURNDATASIZE PUSH1 0x0 REVERT JUMPDEST POP POP POP POP PUSH1 0x40 MLOAD RETURNDATASIZE PUSH1 0x1F NOT PUSH1 0x1F DUP3 ADD AND DUP3 ADD DUP1 PUSH1 0x40 MSTORE POP DUP2 ADD SWAP1 PUSH2 0xEEE SWAP2 SWAP1 PUSH2 0x1DFF JUMP JUMPDEST PUSH2 0x1595 JUMP JUMPDEST PUSH1 0x0 DUP2 PUSH2 0xF02 JUMPI POP PUSH1 0x0 PUSH2 0x3D8 JUMP JUMPDEST PUSH1 0x1 PUSH1 0x1 PUSH1 0xA0 SHL SUB DUP4 AND PUSH1 0x0 DUP1 MLOAD PUSH1 0x20 PUSH2 0x2165 DUP4 CODECOPY DUP2 MLOAD SWAP2 MSTORE EQ ISZERO PUSH2 0xF28 JUMPI POP DUP1 PUSH2 0x3D8 JUMP JUMPDEST PUSH1 0x1 PUSH1 0x1 PUSH1 0xA0 SHL SUB DUP4 AND PUSH2 0xF9D JUMPI PUSH1 0x40 MLOAD PUSH4 0x2E1A7D4D PUSH1 0xE0 SHL DUP2 MSTORE PUSH1 0x4 DUP2 ADD DUP4 SWAP1 MSTORE PUSH1 0x0 DUP1 MLOAD PUSH1 0x20 PUSH2 0x2165 DUP4 CODECOPY DUP2 MLOAD SWAP2 MSTORE SWAP1 PUSH4 0x2E1A7D4D SWAP1 PUSH1 0x24 ADD PUSH1 0x0 PUSH1 0x40 MLOAD DUP1 DUP4 SUB DUP2 PUSH1 0x0 DUP8 DUP1 EXTCODESIZE ISZERO DUP1 ISZERO PUSH2 0xF7D JUMPI PUSH1 0x0 DUP1 REVERT JUMPDEST POP GAS CALL ISZERO DUP1 ISZERO PUSH2 0xF91 JUMPI RETURNDATASIZE PUSH1 0x0 DUP1 RETURNDATACOPY RETURNDATASIZE PUSH1 0x0 REVERT JUMPDEST POP POP POP POP DUP2 SWAP1 POP PUSH2 0x3D8 JUMP JUMPDEST PUSH1 0x1 PUSH1 0x1 PUSH1 0xA0 SHL SUB DUP1 DUP5 AND PUSH1 0x0 SWAP1 DUP2 MSTORE PUSH1 0x1 PUSH1 0x20 MSTORE PUSH1 0x40 SWAP1 KECCAK256 SLOAD AND DUP1 ISZERO PUSH2 0x1092 JUMPI PUSH2 0xFD6 PUSH1 0x0 DUP1 MLOAD PUSH1 0x20 PUSH2 0x2165 DUP4 CODECOPY DUP2 MLOAD SWAP2 MSTORE DUP3 PUSH2 0x145E JUMP JUMPDEST PUSH1 0x0 DUP1 PUSH2 0xFE3 DUP4 DUP8 PUSH2 0x1171 JUMP JUMPDEST SWAP2 POP SWAP2 POP DUP3 PUSH1 0x1 PUSH1 0x1 PUSH1 0xA0 SHL SUB AND PUSH4 0x5B41B908 DUP4 DUP4 DUP9 PUSH2 0x1003 DUP11 DUP13 PUSH2 0x16FF JUMP JUMPDEST PUSH1 0x40 MLOAD PUSH1 0x1 PUSH1 0x1 PUSH1 0xE0 SHL SUB NOT PUSH1 0xE0 DUP8 SWAP1 SHL AND DUP2 MSTORE PUSH1 0x4 DUP2 ADD SWAP5 SWAP1 SWAP5 MSTORE PUSH1 0x24 DUP5 ADD SWAP3 SWAP1 SWAP3 MSTORE PUSH1 0x44 DUP4 ADD MSTORE PUSH1 0x64 DUP3 ADD MSTORE PUSH1 0x84 ADD PUSH1 0x0 PUSH1 0x40 MLOAD DUP1 DUP4 SUB DUP2 PUSH1 0x0 DUP8 DUP1 EXTCODESIZE ISZERO DUP1 ISZERO PUSH2 0x104E JUMPI PUSH1 0x0 DUP1 REVERT JUMPDEST POP GAS CALL ISZERO DUP1 ISZERO PUSH2 0x1062 JUMPI RETURNDATASIZE PUSH1 0x0 DUP1 RETURNDATACOPY RETURNDATASIZE PUSH1 0x0 REVERT JUMPDEST POP POP PUSH1 0x40 MLOAD PUSH4 0x70A08231 PUSH1 0xE0 SHL DUP2 MSTORE ADDRESS PUSH1 0x4 DUP3 ADD MSTORE PUSH1 0x1 PUSH1 0x1 PUSH1 0xA0 SHL SUB DUP10 AND SWAP3 POP PUSH4 0x70A08231 SWAP2 POP PUSH1 0x24 ADD PUSH2 0x9E3 JUMP JUMPDEST PUSH2 0xA60 PUSH1 0x0 DUP1 MLOAD PUSH1 0x20 PUSH2 0x2165 DUP4 CODECOPY DUP2 MLOAD SWAP2 MSTORE DUP6 DUP6 PUSH2 0x1595 JUMP JUMPDEST PUSH1 0x0 PUSH1 0x1 PUSH1 0x1 PUSH1 0xA0 SHL SUB DUP4 AND PUSH2 0x1157 JUMPI PUSH1 0x40 MLOAD PUSH1 0x0 SWAP1 CALLER SWAP1 DUP5 SWAP1 DUP4 DUP2 DUP2 DUP2 DUP6 DUP8 GAS CALL SWAP3 POP POP POP RETURNDATASIZE DUP1 PUSH1 0x0 DUP2 EQ PUSH2 0x10FD JUMPI PUSH1 0x40 MLOAD SWAP2 POP PUSH1 0x1F NOT PUSH1 0x3F RETURNDATASIZE ADD AND DUP3 ADD PUSH1 0x40 MSTORE RETURNDATASIZE DUP3 MSTORE RETURNDATASIZE PUSH1 0x0 PUSH1 0x20 DUP5 ADD RETURNDATACOPY PUSH2 0x1102 JUMP JUMPDEST PUSH1 0x60 SWAP2 POP JUMPDEST POP POP SWAP1 POP DUP1 PUSH1 0x40 MLOAD DUP1 PUSH1 0x40 ADD PUSH1 0x40 MSTORE DUP1 PUSH1 0xF DUP2 MSTORE PUSH1 0x20 ADD PUSH15 0x1D1C985B9CD9995C8819985A5B1959 PUSH1 0x8A SHL DUP2 MSTORE POP SWAP1 PUSH2 0x114D JUMPI PUSH1 0x40 MLOAD PUSH3 0x461BCD PUSH1 0xE5 SHL DUP2 MSTORE PUSH1 0x4 ADD PUSH2 0x2A0 SWAP2 SWAP1 PUSH2 0x1DCC JUMP JUMPDEST POP DUP3 SWAP2 POP POP PUSH2 0x3D8 JUMP JUMPDEST PUSH2 0x116B PUSH1 0x1 PUSH1 0x1 PUSH1 0xA0 SHL SUB DUP5 AND CALLER DUP5 PUSH2 0x1798 JUMP JUMPDEST POP SWAP2 SWAP1 POP JUMP JUMPDEST PUSH1 0x0 DUP1 DUP3 PUSH1 0x1 PUSH1 0x1 PUSH1 0xA0 SHL SUB AND DUP5 PUSH1 0x1 PUSH1 0x1 PUSH1 0xA0 SHL SUB AND PUSH4 0xC6610657 PUSH1 0x1 PUSH1 0x40 MLOAD DUP3 PUSH4 0xFFFFFFFF AND PUSH1 0xE0 SHL DUP2 MSTORE PUSH1 0x4 ADD PUSH2 0x11AD SWAP2 DUP2 MSTORE PUSH1 0x20 ADD SWAP1 JUMP JUMPDEST PUSH1 0x20 PUSH1 0x40 MLOAD DUP1 DUP4 SUB DUP2 DUP7 GAS STATICCALL ISZERO DUP1 ISZERO PUSH2 0x11CA JUMPI RETURNDATASIZE PUSH1 0x0 DUP1 RETURNDATACOPY RETURNDATASIZE PUSH1 0x0 REVERT JUMPDEST POP POP POP POP PUSH1 0x40 MLOAD RETURNDATASIZE PUSH1 0x1F NOT PUSH1 0x1F DUP3 ADD AND DUP3 ADD DUP1 PUSH1 0x40 MSTORE POP DUP2 ADD SWAP1 PUSH2 0x11EE SWAP2 SWAP1 PUSH2 0x1E18 JUMP JUMPDEST PUSH1 0x1 PUSH1 0x1 PUSH1 0xA0 SHL SUB AND EQ PUSH2 0x1205 JUMPI PUSH1 0x1 PUSH1 0x0 PUSH2 0x120A JUMP JUMPDEST PUSH1 0x0 PUSH1 0x1 JUMPDEST PUSH1 0xFF SWAP2 DUP3 AND SWAP7 SWAP2 AND SWAP5 POP SWAP3 POP POP POP JUMP JUMPDEST PUSH1 0x0 PUSH20 0x7A250D5630B4CF539739DF2C5DACB4C659F2488D PUSH20 0xD9E1CE17F2641F24AE83637AB66A2CCA9C378B9F PUSH2 0x1252 DUP7 DUP7 DUP7 DUP5 PUSH2 0x1273 JUMP JUMPDEST PUSH2 0x125E DUP8 DUP8 DUP8 DUP7 PUSH2 0x1273 JUMP JUMPDEST LT ISZERO PUSH2 0x126A JUMPI DUP1 PUSH2 0xE66 JUMP JUMPDEST POP SWAP5 SWAP4 POP POP POP POP JUMP JUMPDEST PUSH1 0x40 DUP1 MLOAD PUSH1 0x2 DUP1 DUP3 MSTORE PUSH1 0x60 DUP3 ADD DUP4 MSTORE PUSH1 0x0 SWAP3 DUP4 SWAP3 SWAP2 SWAP1 PUSH1 0x20 DUP4 ADD SWAP1 DUP1 CALLDATASIZE DUP4 CALLDATACOPY ADD SWAP1 POP POP SWAP1 POP DUP6 DUP2 PUSH1 0x0 DUP2 MLOAD DUP2 LT PUSH2 0x12AC JUMPI PUSH2 0x12AC PUSH2 0x1E4B JUMP JUMPDEST PUSH1 0x20 MUL PUSH1 0x20 ADD ADD SWAP1 PUSH1 0x1 PUSH1 0x1 PUSH1 0xA0 SHL SUB AND SWAP1 DUP2 PUSH1 0x1 PUSH1 0x1 PUSH1 0xA0 SHL SUB AND DUP2 MSTORE POP POP DUP5 DUP2 PUSH1 0x1 DUP2 MLOAD DUP2 LT PUSH2 0x12E0 JUMPI PUSH2 0x12E0 PUSH2 0x1E4B JUMP JUMPDEST PUSH1 0x1 PUSH1 0x1 PUSH1 0xA0 SHL SUB SWAP3 DUP4 AND PUSH1 0x20 SWAP2 DUP3 MUL SWAP3 SWAP1 SWAP3 ADD ADD MSTORE PUSH1 0x40 MLOAD PUSH4 0xD06CA61F PUSH1 0xE0 SHL DUP2 MSTORE SWAP1 DUP5 AND SWAP1 PUSH4 0xD06CA61F SWAP1 PUSH2 0x131D SWAP1 DUP8 SWAP1 DUP6 SWAP1 PUSH1 0x4 ADD PUSH2 0x1EA5 JUMP JUMPDEST PUSH1 0x0 PUSH1 0x40 MLOAD DUP1 DUP4 SUB DUP2 DUP7 GAS STATICCALL ISZERO DUP1 ISZERO PUSH2 0x133A JUMPI RETURNDATASIZE PUSH1 0x0 DUP1 RETURNDATACOPY RETURNDATASIZE PUSH1 0x0 REVERT JUMPDEST POP POP POP POP PUSH1 0x40 MLOAD RETURNDATASIZE PUSH1 0x0 DUP3 RETURNDATACOPY PUSH1 0x1F RETURNDATASIZE SWAP1 DUP2 ADD PUSH1 0x1F NOT AND DUP3 ADD PUSH1 0x40 MSTORE PUSH2 0x1362 SWAP2 SWAP1 DUP2 ADD SWAP1 PUSH2 0x1EBE JUMP JUMPDEST PUSH1 0x1 DUP2 MLOAD DUP2 LT PUSH2 0x1374 JUMPI PUSH2 0x1374 PUSH2 0x1E4B JUMP JUMPDEST PUSH1 0x20 MUL PUSH1 0x20 ADD ADD MLOAD SWAP2 POP POP SWAP5 SWAP4 POP POP POP POP JUMP JUMPDEST PUSH1 0x0 PUSH2 0x13DC DUP3 PUSH1 0x40 MLOAD DUP1 PUSH1 0x40 ADD PUSH1 0x40 MSTORE DUP1 PUSH1 0x20 DUP2 MSTORE PUSH1 0x20 ADD PUSH32 0x5361666545524332303A206C6F772D6C6576656C2063616C6C206661696C6564 DUP2 MSTORE POP DUP6 PUSH1 0x1 PUSH1 0x1 PUSH1 0xA0 SHL SUB AND PUSH2 0x17C8 SWAP1 SWAP3 SWAP2 SWAP1 PUSH4 0xFFFFFFFF AND JUMP JUMPDEST DUP1 MLOAD SWAP1 SWAP2 POP ISZERO PUSH2 0x1459 JUMPI DUP1 DUP1 PUSH1 0x20 ADD SWAP1 MLOAD DUP2 ADD SWAP1 PUSH2 0x13FA SWAP2 SWAP1 PUSH2 0x1D7E JUMP JUMPDEST PUSH2 0x1459 JUMPI PUSH1 0x40 MLOAD PUSH3 0x461BCD PUSH1 0xE5 SHL DUP2 MSTORE PUSH1 0x20 PUSH1 0x4 DUP3 ADD MSTORE PUSH1 0x2A PUSH1 0x24 DUP3 ADD MSTORE PUSH32 0x5361666545524332303A204552433230206F7065726174696F6E20646964206E PUSH1 0x44 DUP3 ADD MSTORE PUSH10 0x1BDD081CDD58D8D95959 PUSH1 0xB2 SHL PUSH1 0x64 DUP3 ADD MSTORE PUSH1 0x84 ADD PUSH2 0x2A0 JUMP JUMPDEST POP POP POP JUMP JUMPDEST PUSH1 0x40 MLOAD PUSH4 0x6EB1769F PUSH1 0xE1 SHL DUP2 MSTORE ADDRESS PUSH1 0x4 DUP3 ADD MSTORE PUSH1 0x1 PUSH1 0x1 PUSH1 0xA0 SHL SUB DUP3 DUP2 AND PUSH1 0x24 DUP4 ADD MSTORE PUSH1 0x0 SWAP2 SWAP1 DUP5 AND SWAP1 PUSH4 0xDD62ED3E SWAP1 PUSH1 0x44 ADD PUSH1 0x20 PUSH1 0x40 MLOAD DUP1 DUP4 SUB DUP2 DUP7 GAS STATICCALL ISZERO DUP1 ISZERO PUSH2 0x14AE JUMPI RETURNDATASIZE PUSH1 0x0 DUP1 RETURNDATACOPY RETURNDATASIZE PUSH1 0x0 REVERT JUMPDEST POP POP POP POP PUSH1 0x40 MLOAD RETURNDATASIZE PUSH1 0x1F NOT PUSH1 0x1F DUP3 ADD AND DUP3 ADD DUP1 PUSH1 0x40 MSTORE POP DUP2 ADD SWAP1 PUSH2 0x14D2 SWAP2 SWAP1 PUSH2 0x1DFF JUMP JUMPDEST GT ISZERO PUSH2 0x14DC JUMPI POP POP JUMP JUMPDEST PUSH2 0x14F2 PUSH1 0x1 PUSH1 0x1 PUSH1 0xA0 SHL SUB DUP4 AND DUP3 PUSH1 0x0 NOT PUSH2 0x17D7 JUMP JUMPDEST POP POP JUMP JUMPDEST PUSH1 0x0 DUP1 PUSH2 0x1502 DUP4 PUSH2 0x18EC JUMP JUMPDEST SWAP1 POP DUP1 PUSH2 0x1513 JUMPI PUSH1 0x0 SWAP2 POP POP PUSH2 0x3D8 JUMP JUMPDEST PUSH2 0xA60 DUP4 PUSH1 0x1 PUSH1 0x1 PUSH1 0xA0 SHL SUB AND PUSH4 0x313CE567 PUSH1 0x40 MLOAD DUP2 PUSH4 0xFFFFFFFF AND PUSH1 0xE0 SHL DUP2 MSTORE PUSH1 0x4 ADD PUSH1 0x20 PUSH1 0x40 MLOAD DUP1 DUP4 SUB DUP2 DUP7 GAS STATICCALL ISZERO DUP1 ISZERO PUSH2 0x1554 JUMPI RETURNDATASIZE PUSH1 0x0 DUP1 RETURNDATACOPY RETURNDATASIZE PUSH1 0x0 REVERT JUMPDEST POP POP POP POP PUSH1 0x40 MLOAD RETURNDATASIZE PUSH1 0x1F NOT PUSH1 0x1F DUP3 ADD AND DUP3 ADD DUP1 PUSH1 0x40 MSTORE POP DUP2 ADD SWAP1 PUSH2 0x1578 SWAP2 SWAP1 PUSH2 0x1F7C JUMP JUMPDEST PUSH1 0x0 SLOAD PUSH2 0x158F SWAP1 PUSH2 0x1589 DUP9 DUP7 PUSH2 0x1A07 JUMP JUMPDEST SWAP1 PUSH2 0x1A07 JUMP JUMPDEST SWAP1 PUSH2 0x1A26 JUMP JUMPDEST PUSH1 0x0 DUP2 PUSH2 0x15A4 JUMPI POP PUSH1 0x0 PUSH2 0x420 JUMP JUMPDEST DUP3 PUSH1 0x1 PUSH1 0x1 PUSH1 0xA0 SHL SUB AND DUP5 PUSH1 0x1 PUSH1 0x1 PUSH1 0xA0 SHL SUB AND EQ ISZERO PUSH2 0x15C5 JUMPI POP DUP1 PUSH2 0x420 JUMP JUMPDEST PUSH1 0x0 PUSH2 0x15D2 DUP6 DUP6 DUP6 PUSH2 0x121A JUMP JUMPDEST SWAP1 POP PUSH2 0x15DE DUP6 DUP3 PUSH2 0x145E JUMP JUMPDEST PUSH1 0x40 DUP1 MLOAD PUSH1 0x2 DUP1 DUP3 MSTORE PUSH1 0x60 DUP3 ADD DUP4 MSTORE PUSH1 0x0 SWAP3 PUSH1 0x20 DUP4 ADD SWAP1 DUP1 CALLDATASIZE DUP4 CALLDATACOPY ADD SWAP1 POP POP SWAP1 POP DUP6 DUP2 PUSH1 0x0 DUP2 MLOAD DUP2 LT PUSH2 0x1613 JUMPI PUSH2 0x1613 PUSH2 0x1E4B JUMP JUMPDEST PUSH1 0x20 MUL PUSH1 0x20 ADD ADD SWAP1 PUSH1 0x1 PUSH1 0x1 PUSH1 0xA0 SHL SUB AND SWAP1 DUP2 PUSH1 0x1 PUSH1 0x1 PUSH1 0xA0 SHL SUB AND DUP2 MSTORE POP POP DUP5 DUP2 PUSH1 0x1 DUP2 MLOAD DUP2 LT PUSH2 0x1647 JUMPI PUSH2 0x1647 PUSH2 0x1E4B JUMP JUMPDEST PUSH1 0x1 PUSH1 0x1 PUSH1 0xA0 SHL SUB SWAP3 DUP4 AND PUSH1 0x20 SWAP2 DUP3 MUL SWAP3 SWAP1 SWAP3 ADD ADD MSTORE DUP3 AND PUSH4 0x38ED1739 DUP6 PUSH2 0x1670 DUP2 DUP11 DUP11 PUSH2 0x1A87 JUMP JUMPDEST DUP5 ADDRESS TIMESTAMP PUSH1 0x40 MLOAD DUP7 PUSH4 0xFFFFFFFF AND PUSH1 0xE0 SHL DUP2 MSTORE PUSH1 0x4 ADD PUSH2 0x1693 SWAP6 SWAP5 SWAP4 SWAP3 SWAP2 SWAP1 PUSH2 0x1F9F JUMP JUMPDEST PUSH1 0x0 PUSH1 0x40 MLOAD DUP1 DUP4 SUB DUP2 PUSH1 0x0 DUP8 GAS CALL ISZERO DUP1 ISZERO PUSH2 0x16B2 JUMPI RETURNDATASIZE PUSH1 0x0 DUP1 RETURNDATACOPY RETURNDATASIZE PUSH1 0x0 REVERT JUMPDEST POP POP POP POP PUSH1 0x40 MLOAD RETURNDATASIZE PUSH1 0x0 DUP3 RETURNDATACOPY PUSH1 0x1F RETURNDATASIZE SWAP1 DUP2 ADD PUSH1 0x1F NOT AND DUP3 ADD PUSH1 0x40 MSTORE PUSH2 0x16DA SWAP2 SWAP1 DUP2 ADD SWAP1 PUSH2 0x1EBE JUMP JUMPDEST PUSH1 0x1 DUP2 MLOAD DUP2 LT PUSH2 0x16EC JUMPI PUSH2 0x16EC PUSH2 0x1E4B JUMP JUMPDEST PUSH1 0x20 MUL PUSH1 0x20 ADD ADD MLOAD SWAP3 POP POP POP SWAP4 SWAP3 POP POP POP JUMP JUMPDEST PUSH1 0x0 DUP1 PUSH2 0x170B DUP4 PUSH2 0x18EC JUMP JUMPDEST SWAP1 POP DUP1 PUSH2 0x171C JUMPI PUSH1 0x0 SWAP2 POP POP PUSH2 0x3D8 JUMP JUMPDEST PUSH2 0xA60 DUP4 PUSH1 0x1 PUSH1 0x1 PUSH1 0xA0 SHL SUB AND PUSH4 0x313CE567 PUSH1 0x40 MLOAD DUP2 PUSH4 0xFFFFFFFF AND PUSH1 0xE0 SHL DUP2 MSTORE PUSH1 0x4 ADD PUSH1 0x20 PUSH1 0x40 MLOAD DUP1 DUP4 SUB DUP2 DUP7 GAS STATICCALL ISZERO DUP1 ISZERO PUSH2 0x175D JUMPI RETURNDATASIZE PUSH1 0x0 DUP1 RETURNDATACOPY RETURNDATASIZE PUSH1 0x0 REVERT JUMPDEST POP POP POP POP PUSH1 0x40 MLOAD RETURNDATASIZE PUSH1 0x1F NOT PUSH1 0x1F DUP3 ADD AND DUP3 ADD DUP1 PUSH1 0x40 MSTORE POP DUP2 ADD SWAP1 PUSH2 0x1781 SWAP2 SWAP1 PUSH2 0x1F7C JUMP JUMPDEST PUSH1 0x0 SLOAD PUSH2 0x1792 SWAP1 PUSH2 0x1589 DUP9 DUP7 PUSH2 0x1AC0 JUMP JUMPDEST SWAP1 PUSH2 0x1AD5 JUMP JUMPDEST PUSH1 0x40 MLOAD PUSH1 0x1 PUSH1 0x1 PUSH1 0xA0 SHL SUB DUP4 AND PUSH1 0x24 DUP3 ADD MSTORE PUSH1 0x44 DUP2 ADD DUP3 SWAP1 MSTORE PUSH2 0x1459 SWAP1 DUP5 SWAP1 PUSH4 0xA9059CBB PUSH1 0xE0 SHL SWAP1 PUSH1 0x64 ADD PUSH2 0xB71 JUMP JUMPDEST PUSH1 0x60 PUSH2 0x41D DUP5 DUP5 PUSH1 0x0 DUP6 PUSH2 0x1B0C JUMP JUMPDEST DUP1 ISZERO DUP1 PUSH2 0x1851 JUMPI POP PUSH1 0x40 MLOAD PUSH4 0x6EB1769F PUSH1 0xE1 SHL DUP2 MSTORE ADDRESS PUSH1 0x4 DUP3 ADD MSTORE PUSH1 0x1 PUSH1 0x1 PUSH1 0xA0 SHL SUB DUP4 DUP2 AND PUSH1 0x24 DUP4 ADD MSTORE DUP5 AND SWAP1 PUSH4 0xDD62ED3E SWAP1 PUSH1 0x44 ADD PUSH1 0x20 PUSH1 0x40 MLOAD DUP1 DUP4 SUB DUP2 DUP7 GAS STATICCALL ISZERO DUP1 ISZERO PUSH2 0x182B JUMPI RETURNDATASIZE PUSH1 0x0 DUP1 RETURNDATACOPY RETURNDATASIZE PUSH1 0x0 REVERT JUMPDEST POP POP POP POP PUSH1 0x40 MLOAD RETURNDATASIZE PUSH1 0x1F NOT PUSH1 0x1F DUP3 ADD AND DUP3 ADD DUP1 PUSH1 0x40 MSTORE POP DUP2 ADD SWAP1 PUSH2 0x184F SWAP2 SWAP1 PUSH2 0x1DFF JUMP JUMPDEST ISZERO JUMPDEST PUSH2 0x18BC JUMPI PUSH1 0x40 MLOAD PUSH3 0x461BCD PUSH1 0xE5 SHL DUP2 MSTORE PUSH1 0x20 PUSH1 0x4 DUP3 ADD MSTORE PUSH1 0x36 PUSH1 0x24 DUP3 ADD MSTORE PUSH32 0x5361666545524332303A20617070726F76652066726F6D206E6F6E2D7A65726F PUSH1 0x44 DUP3 ADD MSTORE PUSH22 0x20746F206E6F6E2D7A65726F20616C6C6F77616E6365 PUSH1 0x50 SHL PUSH1 0x64 DUP3 ADD MSTORE PUSH1 0x84 ADD PUSH2 0x2A0 JUMP JUMPDEST PUSH1 0x40 MLOAD PUSH1 0x1 PUSH1 0x1 PUSH1 0xA0 SHL SUB DUP4 AND PUSH1 0x24 DUP3 ADD MSTORE PUSH1 0x44 DUP2 ADD DUP3 SWAP1 MSTORE PUSH2 0x1459 SWAP1 DUP5 SWAP1 PUSH4 0x95EA7B3 PUSH1 0xE0 SHL SWAP1 PUSH1 0x64 ADD PUSH2 0xB71 JUMP JUMPDEST PUSH1 0x0 DUP1 PUSH2 0x1921 PUSH32 0x0 PUSH1 0x1 PUSH1 0x1 PUSH1 0xA0 SHL SUB AND PUSH2 0x1C3D JUMP JUMPDEST PUSH1 0x40 MLOAD PUSH4 0x8C9682B PUSH1 0xE3 SHL DUP2 MSTORE PUSH1 0x1 PUSH1 0x1 PUSH1 0xA0 SHL SUB DUP6 DUP2 AND PUSH1 0x4 DUP4 ADD MSTORE SWAP2 SWAP3 POP SWAP1 DUP3 AND SWAP1 PUSH4 0x464B4158 SWAP1 PUSH1 0x24 ADD PUSH1 0x20 PUSH1 0x40 MLOAD DUP1 DUP4 SUB DUP2 DUP7 GAS STATICCALL ISZERO DUP1 ISZERO PUSH2 0x196B JUMPI RETURNDATASIZE PUSH1 0x0 DUP1 RETURNDATACOPY RETURNDATASIZE PUSH1 0x0 REVERT JUMPDEST POP POP POP POP PUSH1 0x40 MLOAD RETURNDATASIZE PUSH1 0x1F NOT PUSH1 0x1F DUP3 ADD AND DUP3 ADD DUP1 PUSH1 0x40 MSTORE POP DUP2 ADD SWAP1 PUSH2 0x198F SWAP2 SWAP1 PUSH2 0x1D7E JUMP JUMPDEST ISZERO PUSH2 0x19FE JUMPI PUSH1 0x40 MLOAD PUSH4 0xE5EC9DB9 PUSH1 0xE0 SHL DUP2 MSTORE PUSH1 0x1 PUSH1 0x1 PUSH1 0xA0 SHL SUB DUP5 DUP2 AND PUSH1 0x4 DUP4 ADD MSTORE DUP3 AND SWAP1 PUSH4 0xE5EC9DB9 SWAP1 PUSH1 0x24 ADD PUSH1 0x20 PUSH1 0x40 MLOAD DUP1 DUP4 SUB DUP2 DUP7 GAS STATICCALL ISZERO DUP1 ISZERO PUSH2 0x19DA JUMPI RETURNDATASIZE PUSH1 0x0 DUP1 RETURNDATACOPY RETURNDATASIZE PUSH1 0x0 REVERT JUMPDEST POP POP POP POP PUSH1 0x40 MLOAD RETURNDATASIZE PUSH1 0x1F NOT PUSH1 0x1F DUP3 ADD AND DUP3 ADD DUP1 PUSH1 0x40 MSTORE POP DUP2 ADD SWAP1 PUSH2 0x420 SWAP2 SWAP1 PUSH2 0x1DFF JUMP JUMPDEST POP PUSH1 0x0 SWAP3 SWAP2 POP POP JUMP JUMPDEST PUSH1 0x0 PUSH8 0xDE0B6B3A7640000 PUSH2 0x1A1C DUP4 DUP6 PUSH2 0x1FF1 JUMP JUMPDEST PUSH2 0x3D5 SWAP2 SWAP1 PUSH2 0x2010 JUMP JUMPDEST PUSH1 0x0 PUSH1 0xFF DUP3 AND PUSH1 0x12 EQ ISZERO PUSH2 0x1A3B JUMPI POP DUP2 PUSH2 0x3D8 JUMP JUMPDEST PUSH1 0x12 PUSH1 0xFF DUP4 AND GT ISZERO PUSH2 0x1A67 JUMPI PUSH2 0x1A52 PUSH1 0x12 DUP4 PUSH2 0x2032 JUMP JUMPDEST PUSH2 0x1A5D SWAP1 PUSH1 0xA PUSH2 0x2139 JUMP JUMPDEST PUSH2 0x35E SWAP1 DUP5 PUSH2 0x2010 JUMP JUMPDEST PUSH2 0x1A72 DUP3 PUSH1 0x12 PUSH2 0x2032 JUMP JUMPDEST PUSH2 0x1A7D SWAP1 PUSH1 0xA PUSH2 0x2139 JUMP JUMPDEST PUSH2 0x35E SWAP1 DUP5 PUSH2 0x1FF1 JUMP JUMPDEST PUSH1 0x0 PUSH1 0x1 PUSH1 0x1 PUSH1 0xA0 SHL SUB DUP4 AND PUSH1 0x0 DUP1 MLOAD PUSH1 0x20 PUSH2 0x2165 DUP4 CODECOPY DUP2 MLOAD SWAP2 MSTORE EQ PUSH2 0x1AB6 JUMPI PUSH2 0x1AB1 DUP5 DUP5 PUSH2 0x14F6 JUMP JUMPDEST PUSH2 0x41D JUMP JUMPDEST PUSH2 0x41D DUP5 DUP4 PUSH2 0x16FF JUMP JUMPDEST PUSH1 0x0 DUP2 PUSH2 0x1A1C PUSH8 0xDE0B6B3A7640000 DUP6 PUSH2 0x1FF1 JUMP JUMPDEST PUSH1 0x0 PUSH1 0xFF DUP3 AND PUSH1 0x12 EQ ISZERO PUSH2 0x1AEA JUMPI POP DUP2 PUSH2 0x3D8 JUMP JUMPDEST PUSH1 0x12 PUSH1 0xFF DUP4 AND GT ISZERO PUSH2 0x1B01 JUMPI PUSH2 0x1A72 PUSH1 0x12 DUP4 PUSH2 0x2032 JUMP JUMPDEST PUSH2 0x1A52 DUP3 PUSH1 0x12 PUSH2 0x2032 JUMP JUMPDEST PUSH1 0x60 DUP3 SELFBALANCE LT ISZERO PUSH2 0x1B6D JUMPI PUSH1 0x40 MLOAD PUSH3 0x461BCD PUSH1 0xE5 SHL DUP2 MSTORE PUSH1 0x20 PUSH1 0x4 DUP3 ADD MSTORE PUSH1 0x26 PUSH1 0x24 DUP3 ADD MSTORE PUSH32 0x416464726573733A20696E73756666696369656E742062616C616E636520666F PUSH1 0x44 DUP3 ADD MSTORE PUSH6 0x1C8818D85B1B PUSH1 0xD2 SHL PUSH1 0x64 DUP3 ADD MSTORE PUSH1 0x84 ADD PUSH2 0x2A0 JUMP JUMPDEST PUSH1 0x1 PUSH1 0x1 PUSH1 0xA0 SHL SUB DUP6 AND EXTCODESIZE PUSH2 0x1BC4 JUMPI PUSH1 0x40 MLOAD PUSH3 0x461BCD PUSH1 0xE5 SHL DUP2 MSTORE PUSH1 0x20 PUSH1 0x4 DUP3 ADD MSTORE PUSH1 0x1D PUSH1 0x24 DUP3 ADD MSTORE PUSH32 0x416464726573733A2063616C6C20746F206E6F6E2D636F6E7472616374000000 PUSH1 0x44 DUP3 ADD MSTORE PUSH1 0x64 ADD PUSH2 0x2A0 JUMP JUMPDEST PUSH1 0x0 DUP1 DUP7 PUSH1 0x1 PUSH1 0x1 PUSH1 0xA0 SHL SUB AND DUP6 DUP8 PUSH1 0x40 MLOAD PUSH2 0x1BE0 SWAP2 SWAP1 PUSH2 0x2148 JUMP JUMPDEST PUSH1 0x0 PUSH1 0x40 MLOAD DUP1 DUP4 SUB DUP2 DUP6 DUP8 GAS CALL SWAP3 POP POP POP RETURNDATASIZE DUP1 PUSH1 0x0 DUP2 EQ PUSH2 0x1C1D JUMPI PUSH1 0x40 MLOAD SWAP2 POP PUSH1 0x1F NOT PUSH1 0x3F RETURNDATASIZE ADD AND DUP3 ADD PUSH1 0x40 MSTORE RETURNDATASIZE DUP3 MSTORE RETURNDATASIZE PUSH1 0x0 PUSH1 0x20 DUP5 ADD RETURNDATACOPY PUSH2 0x1C22 JUMP JUMPDEST PUSH1 0x60 SWAP2 POP JUMPDEST POP SWAP2 POP SWAP2 POP PUSH2 0x1C32 DUP3 DUP3 DUP7 PUSH2 0x1C7D JUMP JUMPDEST SWAP8 SWAP7 POP POP POP POP POP POP POP JUMP JUMPDEST PUSH1 0x40 MLOAD PUSH4 0x21F8A721 PUSH1 0xE0 SHL DUP2 MSTORE PUSH14 0x37B930B1B632A83937BB34B232B9 PUSH1 0x91 SHL PUSH1 0x4 DUP3 ADD MSTORE PUSH1 0x0 SWAP1 PUSH1 0x1 PUSH1 0x1 PUSH1 0xA0 SHL SUB DUP4 AND SWAP1 PUSH4 0x21F8A721 SWAP1 PUSH1 0x24 ADD PUSH2 0x8FE JUMP JUMPDEST PUSH1 0x60 DUP4 ISZERO PUSH2 0x1C8C JUMPI POP DUP2 PUSH2 0x420 JUMP JUMPDEST DUP3 MLOAD ISZERO PUSH2 0x1C9C JUMPI DUP3 MLOAD DUP1 DUP5 PUSH1 0x20 ADD REVERT JUMPDEST DUP2 PUSH1 0x40 MLOAD PUSH3 0x461BCD PUSH1 0xE5 SHL DUP2 MSTORE PUSH1 0x4 ADD PUSH2 0x2A0 SWAP2 SWAP1 PUSH2 0x1DCC JUMP JUMPDEST PUSH1 0x0 PUSH1 0x20 DUP3 DUP5 SUB SLT ISZERO PUSH2 0x1CC8 JUMPI PUSH1 0x0 DUP1 REVERT JUMPDEST POP CALLDATALOAD SWAP2 SWAP1 POP JUMP JUMPDEST PUSH1 0x1 PUSH1 0x1 PUSH1 0xA0 SHL SUB DUP2 AND DUP2 EQ PUSH2 0x1CE4 JUMPI PUSH1 0x0 DUP1 REVERT JUMPDEST POP JUMP JUMPDEST PUSH1 0x0 DUP1 PUSH1 0x40 DUP4 DUP6 SUB SLT ISZERO PUSH2 0x1CFA JUMPI PUSH1 0x0 DUP1 REVERT JUMPDEST DUP3 CALLDATALOAD PUSH2 0x1D05 DUP2 PUSH2 0x1CCF JUMP JUMPDEST SWAP2 POP PUSH1 0x20 DUP4 ADD CALLDATALOAD PUSH2 0x1D15 DUP2 PUSH2 0x1CCF JUMP JUMPDEST DUP1 SWAP2 POP POP SWAP3 POP SWAP3 SWAP1 POP JUMP JUMPDEST PUSH1 0x0 DUP1 PUSH1 0x0 PUSH1 0x60 DUP5 DUP7 SUB SLT ISZERO PUSH2 0x1D35 JUMPI PUSH1 0x0 DUP1 REVERT JUMPDEST DUP4 CALLDATALOAD PUSH2 0x1D40 DUP2 PUSH2 0x1CCF JUMP JUMPDEST SWAP3 POP PUSH1 0x20 DUP5 ADD CALLDATALOAD PUSH2 0x1D50 DUP2 PUSH2 0x1CCF JUMP JUMPDEST SWAP3 SWAP6 SWAP3 SWAP5 POP POP POP PUSH1 0x40 SWAP2 SWAP1 SWAP2 ADD CALLDATALOAD SWAP1 JUMP JUMPDEST PUSH1 0x0 PUSH1 0x20 DUP3 DUP5 SUB SLT ISZERO PUSH2 0x1D73 JUMPI PUSH1 0x0 DUP1 REVERT JUMPDEST DUP2 CALLDATALOAD PUSH2 0x420 DUP2 PUSH2 0x1CCF JUMP JUMPDEST PUSH1 0x0 PUSH1 0x20 DUP3 DUP5 SUB SLT ISZERO PUSH2 0x1D90 JUMPI PUSH1 0x0 DUP1 REVERT JUMPDEST DUP2 MLOAD DUP1 ISZERO ISZERO DUP2 EQ PUSH2 0x420 JUMPI PUSH1 0x0 DUP1 REVERT JUMPDEST PUSH1 0x0 JUMPDEST DUP4 DUP2 LT ISZERO PUSH2 0x1DBB JUMPI DUP2 DUP2 ADD MLOAD DUP4 DUP3 ADD MSTORE PUSH1 0x20 ADD PUSH2 0x1DA3 JUMP JUMPDEST DUP4 DUP2 GT ISZERO PUSH2 0xBA8 JUMPI POP POP PUSH1 0x0 SWAP2 ADD MSTORE JUMP JUMPDEST PUSH1 0x20 DUP2 MSTORE PUSH1 0x0 DUP3 MLOAD DUP1 PUSH1 0x20 DUP5 ADD MSTORE PUSH2 0x1DEB DUP2 PUSH1 0x40 DUP6 ADD PUSH1 0x20 DUP8 ADD PUSH2 0x1DA0 JUMP JUMPDEST PUSH1 0x1F ADD PUSH1 0x1F NOT AND SWAP2 SWAP1 SWAP2 ADD PUSH1 0x40 ADD SWAP3 SWAP2 POP POP JUMP JUMPDEST PUSH1 0x0 PUSH1 0x20 DUP3 DUP5 SUB SLT ISZERO PUSH2 0x1E11 JUMPI PUSH1 0x0 DUP1 REVERT JUMPDEST POP MLOAD SWAP2 SWAP1 POP JUMP JUMPDEST PUSH1 0x0 PUSH1 0x20 DUP3 DUP5 SUB SLT ISZERO PUSH2 0x1E2A JUMPI PUSH1 0x0 DUP1 REVERT JUMPDEST DUP2 MLOAD PUSH2 0x420 DUP2 PUSH2 0x1CCF JUMP JUMPDEST PUSH4 0x4E487B71 PUSH1 0xE0 SHL PUSH1 0x0 MSTORE PUSH1 0x41 PUSH1 0x4 MSTORE PUSH1 0x24 PUSH1 0x0 REVERT JUMPDEST PUSH4 0x4E487B71 PUSH1 0xE0 SHL PUSH1 0x0 MSTORE PUSH1 0x32 PUSH1 0x4 MSTORE PUSH1 0x24 PUSH1 0x0 REVERT JUMPDEST PUSH1 0x0 DUP2 MLOAD DUP1 DUP5 MSTORE PUSH1 0x20 DUP1 DUP6 ADD SWAP5 POP DUP1 DUP5 ADD PUSH1 0x0 JUMPDEST DUP4 DUP2 LT ISZERO PUSH2 0x1E9A JUMPI DUP2 MLOAD PUSH1 0x1 PUSH1 0x1 PUSH1 0xA0 SHL SUB AND DUP8 MSTORE SWAP6 DUP3 ADD SWAP6 SWAP1 DUP3 ADD SWAP1 PUSH1 0x1 ADD PUSH2 0x1E75 JUMP JUMPDEST POP SWAP5 SWAP6 SWAP5 POP POP POP POP POP JUMP JUMPDEST DUP3 DUP2 MSTORE PUSH1 0x40 PUSH1 0x20 DUP3 ADD MSTORE PUSH1 0x0 PUSH2 0x41D PUSH1 0x40 DUP4 ADD DUP5 PUSH2 0x1E61 JUMP JUMPDEST PUSH1 0x0 PUSH1 0x20 DUP1 DUP4 DUP6 SUB SLT ISZERO PUSH2 0x1ED1 JUMPI PUSH1 0x0 DUP1 REVERT JUMPDEST DUP3 MLOAD PUSH8 0xFFFFFFFFFFFFFFFF DUP1 DUP3 GT ISZERO PUSH2 0x1EE9 JUMPI PUSH1 0x0 DUP1 REVERT JUMPDEST DUP2 DUP6 ADD SWAP2 POP DUP6 PUSH1 0x1F DUP4 ADD SLT PUSH2 0x1EFD JUMPI PUSH1 0x0 DUP1 REVERT JUMPDEST DUP2 MLOAD DUP2 DUP2 GT ISZERO PUSH2 0x1F0F JUMPI PUSH2 0x1F0F PUSH2 0x1E35 JUMP JUMPDEST DUP1 PUSH1 0x5 SHL PUSH1 0x40 MLOAD PUSH1 0x1F NOT PUSH1 0x3F DUP4 ADD AND DUP2 ADD DUP2 DUP2 LT DUP6 DUP3 GT OR ISZERO PUSH2 0x1F34 JUMPI PUSH2 0x1F34 PUSH2 0x1E35 JUMP JUMPDEST PUSH1 0x40 MSTORE SWAP2 DUP3 MSTORE DUP5 DUP3 ADD SWAP3 POP DUP4 DUP2 ADD DUP6 ADD SWAP2 DUP9 DUP4 GT ISZERO PUSH2 0x1F52 JUMPI PUSH1 0x0 DUP1 REVERT JUMPDEST SWAP4 DUP6 ADD SWAP4 JUMPDEST DUP3 DUP6 LT ISZERO PUSH2 0x1F70 JUMPI DUP5 MLOAD DUP5 MSTORE SWAP4 DUP6 ADD SWAP4 SWAP3 DUP6 ADD SWAP3 PUSH2 0x1F57 JUMP JUMPDEST SWAP9 SWAP8 POP POP POP POP POP POP POP POP JUMP JUMPDEST PUSH1 0x0 PUSH1 0x20 DUP3 DUP5 SUB SLT ISZERO PUSH2 0x1F8E JUMPI PUSH1 0x0 DUP1 REVERT JUMPDEST DUP2 MLOAD PUSH1 0xFF DUP2 AND DUP2 EQ PUSH2 0x420 JUMPI PUSH1 0x0 DUP1 REVERT JUMPDEST DUP6 DUP2 MSTORE DUP5 PUSH1 0x20 DUP3 ADD MSTORE PUSH1 0xA0 PUSH1 0x40 DUP3 ADD MSTORE PUSH1 0x0 PUSH2 0x1FBE PUSH1 0xA0 DUP4 ADD DUP7 PUSH2 0x1E61 JUMP JUMPDEST PUSH1 0x1 PUSH1 0x1 PUSH1 0xA0 SHL SUB SWAP5 SWAP1 SWAP5 AND PUSH1 0x60 DUP4 ADD MSTORE POP PUSH1 0x80 ADD MSTORE SWAP4 SWAP3 POP POP POP JUMP JUMPDEST PUSH4 0x4E487B71 PUSH1 0xE0 SHL PUSH1 0x0 MSTORE PUSH1 0x11 PUSH1 0x4 MSTORE PUSH1 0x24 PUSH1 0x0 REVERT JUMPDEST PUSH1 0x0 DUP2 PUSH1 0x0 NOT DIV DUP4 GT DUP3 ISZERO ISZERO AND ISZERO PUSH2 0x200B JUMPI PUSH2 0x200B PUSH2 0x1FDB JUMP JUMPDEST POP MUL SWAP1 JUMP JUMPDEST PUSH1 0x0 DUP3 PUSH2 0x202D JUMPI PUSH4 0x4E487B71 PUSH1 0xE0 SHL PUSH1 0x0 MSTORE PUSH1 0x12 PUSH1 0x4 MSTORE PUSH1 0x24 PUSH1 0x0 REVERT JUMPDEST POP DIV SWAP1 JUMP JUMPDEST PUSH1 0x0 PUSH1 0xFF DUP3 AND PUSH1 0xFF DUP5 AND DUP1 DUP3 LT ISZERO PUSH2 0x204C JUMPI PUSH2 0x204C PUSH2 0x1FDB JUMP JUMPDEST SWAP1 SUB SWAP4 SWAP3 POP POP POP JUMP JUMPDEST PUSH1 0x1 DUP2 DUP2 JUMPDEST DUP1 DUP6 GT ISZERO PUSH2 0x2090 JUMPI DUP2 PUSH1 0x0 NOT DIV DUP3 GT ISZERO PUSH2 0x2076 JUMPI PUSH2 0x2076 PUSH2 0x1FDB JUMP JUMPDEST DUP1 DUP6 AND ISZERO PUSH2 0x2083 JUMPI SWAP2 DUP2 MUL SWAP2 JUMPDEST SWAP4 DUP5 SHR SWAP4 SWAP1 DUP1 MUL SWAP1 PUSH2 0x205A JUMP JUMPDEST POP SWAP3 POP SWAP3 SWAP1 POP JUMP JUMPDEST PUSH1 0x0 DUP3 PUSH2 0x20A7 JUMPI POP PUSH1 0x1 PUSH2 0x3D8 JUMP JUMPDEST DUP2 PUSH2 0x20B4 JUMPI POP PUSH1 0x0 PUSH2 0x3D8 JUMP JUMPDEST DUP2 PUSH1 0x1 DUP2 EQ PUSH2 0x20CA JUMPI PUSH1 0x2 DUP2 EQ PUSH2 0x20D4 JUMPI PUSH2 0x20F0 JUMP JUMPDEST PUSH1 0x1 SWAP2 POP POP PUSH2 0x3D8 JUMP JUMPDEST PUSH1 0xFF DUP5 GT ISZERO PUSH2 0x20E5 JUMPI PUSH2 0x20E5 PUSH2 0x1FDB JUMP JUMPDEST POP POP PUSH1 0x1 DUP3 SHL PUSH2 0x3D8 JUMP JUMPDEST POP PUSH1 0x20 DUP4 LT PUSH2 0x133 DUP4 LT AND PUSH1 0x4E DUP5 LT PUSH1 0xB DUP5 LT AND OR ISZERO PUSH2 0x2113 JUMPI POP DUP2 DUP2 EXP PUSH2 0x3D8 JUMP JUMPDEST PUSH2 0x211D DUP4 DUP4 PUSH2 0x2055 JUMP JUMPDEST DUP1 PUSH1 0x0 NOT DIV DUP3 GT ISZERO PUSH2 0x2131 JUMPI PUSH2 0x2131 PUSH2 0x1FDB JUMP JUMPDEST MUL SWAP4 SWAP3 POP POP POP JUMP JUMPDEST PUSH1 0x0 PUSH2 0x3D5 PUSH1 0xFF DUP5 AND DUP4 PUSH2 0x2098 JUMP JUMPDEST PUSH1 0x0 DUP3 MLOAD PUSH2 0x215A DUP2 DUP5 PUSH1 0x20 DUP8 ADD PUSH2 0x1DA0 JUMP JUMPDEST SWAP2 SWAP1 SWAP2 ADD SWAP3 SWAP2 POP POP JUMP INVALID STOP STOP STOP STOP STOP STOP STOP STOP STOP STOP STOP STOP 0xC0 0x2A 0xAA CODECOPY 0xB2 0x23 INVALID DUP14 EXP 0xE 0x5C 0x4F 0x27 0xEA 0xD9 ADDMOD EXTCODECOPY PUSH22 0x6CC2A2646970667358221220EA55D794C7E8966C0055 0xB4 0xEB PUSH14 0xC983848C98AA09208190462FA13B PUSH13 0x86F223FC64736F6C634300080A STOP CALLER ","sha1":"964b998f337350a0521d80e7d1525ac9dd7f932b","source":"// SPDX-License-Identifier: GPL-3.0-or-later\npragma solidity 0.8.10;\n\nimport \"@openzeppelin/contracts/token/ERC20/utils/SafeERC20.sol\";\nimport \"@openzeppelin/contracts/token/ERC20/IERC20.sol\";\n\nimport \"../access/Authorization.sol\";\n\nimport \"../../libraries/AddressProviderHelpers.sol\";\nimport \"../../libraries/Errors.sol\";\nimport \"../../libraries/DecimalScale.sol\";\nimport \"../../libraries/ScaledMath.sol\";\n\nimport \"../../interfaces/IAddressProvider.sol\";\nimport \"../../interfaces/ISwapperRouter.sol\";\nimport \"../../interfaces/vendor/UniswapRouter02.sol\";\nimport \"../../interfaces/vendor/IWETH.sol\";\nimport \"../../interfaces/IERC20Full.sol\";\nimport \"../../interfaces/vendor/ICurveSwapEth.sol\";\n\n/**\n * The swapper router handles the swapping from one token to another.\n * By default it does all swaps through WETH, in two steps checking which DEX is better for each stage of the swap.\n * It also supports ETH in or out and handles it by converting to WETH and back.\n */\ncontract SwapperRouter is ISwapperRouter, Authorization {\n    using SafeERC20 for IERC20;\n    using DecimalScale for uint256;\n    using ScaledMath for uint256;\n    using AddressProviderHelpers for IAddressProvider;\n\n    // Dex contracts\n    address private constant _UNISWAP = address(0x7a250d5630B4cF539739dF2C5dAcb4c659F2488D); // Uniswap Router, used for swapping tokens on Uniswap\n    address private constant _SUSHISWAP = address(0xd9e1cE17f2641f24aE83637ab66a2cca9C378B9F); // Sushiswap Router, used for swapping tokens on Sushiswap\n    IWETH private constant _WETH = IWETH(0xC02aaA39b223FE8D0A0e5C4F27eAD9083C756Cc2); // WETH, used for wrapping and unwrapping ETH for swaps\n\n    IAddressProvider private immutable _addressProvider; // Address provider used for getting oracle provider\n\n    uint256 public slippageTolerance; // The amount of slippage to allow from the oracle price of an asset\n    mapping(address => ICurveSwapEth) public curvePools; // Curve Pool to use for swapping with WETH\n\n    event Swapped(\n        address indexed fromToken,\n        address indexed toToken,\n        uint256 amountIn,\n        uint256 amountOut\n    ); // Emitted after a successfull swap\n    event SetSlippageTolerance(uint256 value); // Emitted after a successful setting of slippage tolerance\n    event SetCurvePool(address token, address curvePool); // Emitted after a successful setting of a Curve Pool\n\n    constructor(address addressProvider_)\n        Authorization(IAddressProvider(addressProvider_).getRoleManager())\n    {\n        _addressProvider = IAddressProvider(addressProvider_);\n        slippageTolerance = 0.97e18;\n    }\n\n    receive() external payable {} // Used for receiving ETH when unwrapping WETH\n\n    /**\n     * @notice Swaps all of the users balance of fromToken for toToken.\n     * @param fromToken_ The token to swap from.\n     * @param toToken_ The token to swap to.\n     * @return amountOut The amount of toToken received.\n     */\n    function swapAll(address fromToken_, address toToken_)\n        external\n        payable\n        override\n        returns (uint256 amountOut)\n    {\n        // Swapping if from token is ETH\n        if (fromToken_ == address(0)) {\n            return swap(fromToken_, toToken_, address(this).balance);\n        }\n\n        // Swapping if from token is ERC20\n        return swap(fromToken_, toToken_, IERC20(fromToken_).balanceOf(address(msg.sender)));\n    }\n\n    /**\n     * @notice Set slippage tolerance for swaps.\n     * @dev Stored as a multiplier, e.g. 2% would be set as 0.98.\n     * @param slippageTolerance_ New slippage tolerance.\n     */\n    function setSlippageTolerance(uint256 slippageTolerance_) external override onlyGovernance {\n        require(slippageTolerance_ <= ScaledMath.ONE, Error.INVALID_SLIPPAGE_TOLERANCE);\n        slippageTolerance = slippageTolerance_;\n        emit SetSlippageTolerance(slippageTolerance_);\n    }\n\n    /**\n     * @notice Sets the Curve Pool to use for swapping a token with WETH.\n     * @dev To use Uniswap or Sushiswap instead, set the Curve Pool to the zero address.\n     * @param token_ The token to set the Curve Pool for.\n     * @param curvePool_ The address of the Curve Pool.\n     */\n    function setCurvePool(address token_, address curvePool_) external override onlyGovernance {\n        require(token_ != address(0), Error.ZERO_ADDRESS_NOT_ALLOWED);\n        require(curvePool_ != address(curvePools[token_]), Error.SAME_ADDRESS_NOT_ALLOWED);\n        curvePools[token_] = ICurveSwapEth(curvePool_);\n        emit SetCurvePool(token_, curvePool_);\n    }\n\n    /**\n     * @notice Gets the amount of toToken received by swapping amountIn of fromToken.\n     * @dev In the case where a custom swapper is used, return value may not be precise.\n     * @param fromToken_ The token to swap from.\n     * @param toToken_ The token to swap to.\n     * @param amountIn_ The amount of fromToken being swapped.\n     * @return amountOut The amount of toToken received by swapping amountIn of fromToken.\n     */\n    function getAmountOut(\n        address fromToken_,\n        address toToken_,\n        uint256 amountIn_\n    ) external view override returns (uint256 amountOut) {\n        if (fromToken_ == toToken_ || amountIn_ == 0) return amountIn_;\n\n        return _getTokenOut(toToken_, _getWethOut(fromToken_, amountIn_));\n    }\n\n    /**\n     * @notice Swaps an amount of fromToken to toToken.\n     * @param fromToken_ The token to swap from.\n     * @param toToken_ The token to swap to.\n     * @param amountIn_ The amount of fromToken to swap for toToken.\n     * @return amountOut The amount of toToken received.\n     */\n    function swap(\n        address fromToken_,\n        address toToken_,\n        uint256 amountIn_\n    ) public payable override returns (uint256 amountOut) {\n        // Validating ETH value sent\n        require(msg.value == (fromToken_ == address(0) ? amountIn_ : 0), Error.INVALID_AMOUNT);\n        if (amountIn_ == 0) {\n            emit Swapped(fromToken_, toToken_, 0, 0);\n            return 0;\n        }\n\n        // Handling swap between the same token\n        if (fromToken_ == toToken_) {\n            if (fromToken_ == address(0)) {\n                // solhint-disable-next-line avoid-low-level-calls\n                (bool success, ) = payable(msg.sender).call{value: amountIn_}(\"\");\n                require(success, Error.FAILED_TRANSFER);\n            }\n            emit Swapped(fromToken_, toToken_, amountIn_, amountIn_);\n            return amountIn_;\n        }\n\n        // Transferring to contract if ERC20\n        if (fromToken_ != address(0)) {\n            IERC20(fromToken_).safeTransferFrom(msg.sender, address(this), amountIn_);\n        }\n\n        // Swapping token via WETH\n        uint256 amountOut_ = _swapWethForToken(toToken_, _swapForWeth(fromToken_));\n        emit Swapped(fromToken_, toToken_, amountIn_, amountOut_);\n        return _returnTokens(toToken_, amountOut_);\n    }\n\n    /**\n     * @dev Swaps the full contract balance of token to WETH.\n     * @param token_ The token to swap to WETH.\n     * @return amountOut The amount of WETH received from the swap.\n     */\n    function _swapForWeth(address token_) internal returns (uint256 amountOut) {\n        if (token_ == address(_WETH)) return _WETH.balanceOf(address(this));\n\n        // Handling ETH -> WETH\n        if (token_ == address(0)) {\n            uint256 ethBalance_ = address(this).balance;\n            if (ethBalance_ == 0) return 0;\n            _WETH.deposit{value: ethBalance_}();\n            return ethBalance_;\n        }\n\n        // Handling Curve Pool swaps\n        ICurveSwapEth curvePool_ = curvePools[token_];\n        if (address(curvePool_) != address(0)) {\n            uint256 amount_ = IERC20(token_).balanceOf(address(this));\n            if (amount_ == 0) return 0;\n            _approve(token_, address(curvePool_));\n            (uint256 wethIndex_, uint256 tokenIndex_) = _getIndices(curvePool_, token_);\n            curvePool_.exchange(\n                tokenIndex_,\n                wethIndex_,\n                amount_,\n                _minWethAmountOut(amount_, token_)\n            );\n            return _WETH.balanceOf(address(this));\n        }\n\n        // Handling ERC20 -> WETH\n        return _swap(token_, address(_WETH), IERC20(token_).balanceOf(address(this)));\n    }\n\n    /**\n     * @dev Swaps the full contract balance of WETH to token.\n     * @param token_ The token to swap WETH to.\n     * @return amountOut The amount of token received from the swap.\n     */\n    function _swapWethForToken(address token_, uint256 amount_)\n        internal\n        returns (uint256 amountOut)\n    {\n        if (amount_ == 0) return 0;\n        if (token_ == address(_WETH)) return amount_;\n\n        // Handling WETH -> ETH\n        if (token_ == address(0)) {\n            _WETH.withdraw(amount_);\n            return amount_;\n        }\n\n        // Handling Curve Pool swaps\n        ICurveSwapEth curvePool_ = curvePools[token_];\n        if (address(curvePool_) != address(0)) {\n            _approve(address(_WETH), address(curvePool_));\n            (uint256 wethIndex_, uint256 tokenIndex_) = _getIndices(curvePool_, token_);\n            curvePool_.exchange(\n                wethIndex_,\n                tokenIndex_,\n                amount_,\n                _minTokenAmountOut(amount_, token_)\n            );\n            return IERC20(token_).balanceOf(address(this));\n        }\n\n        // Handling WETH -> ERC20\n        return _swap(address(_WETH), token_, amount_);\n    }\n\n    /**\n     * @dev Swaps an amount of fromToken to toToken.\n     * @param fromToken_ The token to swap from.\n     * @param toToken_ The token to swap to.\n     * @param amount_ The amount of fromToken to swap.\n     * @return amountOut The amount of toToken received from the swap.\n     */\n    function _swap(\n        address fromToken_,\n        address toToken_,\n        uint256 amount_\n    ) internal returns (uint256 amountOut) {\n        if (amount_ == 0) return 0;\n        if (fromToken_ == toToken_) return amount_;\n        address dex_ = _getBestDex(fromToken_, toToken_, amount_);\n        _approve(fromToken_, dex_);\n        address[] memory path_ = new address[](2);\n        path_[0] = fromToken_;\n        path_[1] = toToken_;\n        return\n            UniswapRouter02(dex_).swapExactTokensForTokens(\n                amount_,\n                _getAmountOutMin(amount_, fromToken_, toToken_),\n                path_,\n                address(this),\n                block.timestamp\n            )[1];\n    }\n\n    /**\n     * @dev Approves infinite spending for the given spender.\n     * @param token_ The token to approve for.\n     * @param spender_ The spender to approve.\n     */\n    function _approve(address token_, address spender_) internal {\n        if (IERC20(token_).allowance(address(this), spender_) > 0) return;\n        IERC20(token_).safeApprove(spender_, type(uint256).max);\n    }\n\n    /**\n     * @dev Returns an amount of tokens to the sender.\n     * @param token_ The token to return to sender.\n     * @param amount_ The amount of tokens to return to sender.\n     * @return amountReturned The amount of tokens returned to sender.\n     */\n    function _returnTokens(address token_, uint256 amount_)\n        internal\n        returns (uint256 amountReturned)\n    {\n        // Returning if ETH\n        if (token_ == address(0)) {\n            // solhint-disable-next-line avoid-low-level-calls\n            (bool success, ) = payable(msg.sender).call{value: amount_}(\"\");\n            require(success, Error.FAILED_TRANSFER);\n            return amount_;\n        }\n\n        // Returning if ERC20\n        IERC20(token_).safeTransfer(msg.sender, amount_);\n        return amount_;\n    }\n\n    /**\n     * @dev Gets the amount of WETH received by swapping amount of token\n     *      In the case where a custom swapper is used, return value may not be precise.\n     * @param token_ The token to swap from.\n     * @param amount_ The mount of token being swapped.\n     * @return amountOut The amount of WETH received by swapping amount of token.\n     */\n    function _getWethOut(address token_, uint256 amount_)\n        internal\n        view\n        returns (uint256 amountOut)\n    {\n        if (token_ == address(_WETH) || token_ == address(0)) return amount_;\n\n        // Handling Curve Pool swaps\n        ICurveSwapEth curvePool_ = curvePools[token_];\n        if (address(curvePool_) != address(0)) {\n            (uint256 wethIndex_, uint256 tokenIndex_) = _getIndices(curvePool_, token_);\n            return curvePool_.get_dy(tokenIndex_, wethIndex_, amount_);\n        }\n\n        return\n            _tokenAmountOut(\n                token_,\n                address(_WETH),\n                amount_,\n                _getBestDex(token_, address(_WETH), amount_)\n            );\n    }\n\n    /**\n     * @dev Gets the amount of token received by swapping amount of WETH\n     *      In the case where a custom swapper is used, return value may not be precise.\n     * @param token_ The token to swap to.\n     * @param amount_ The amount of WETH being swapped.\n     * @return amountOut The amount of token received by swapping amount of WETH.\n     */\n    function _getTokenOut(address token_, uint256 amount_)\n        internal\n        view\n        returns (uint256 amountOut)\n    {\n        if (token_ == address(_WETH) || token_ == address(0)) return amount_;\n\n        // Handling Curve Pool swaps\n        ICurveSwapEth curvePool_ = curvePools[token_];\n        if (address(curvePool_) != address(0)) {\n            (uint256 wethIndex_, uint256 tokenIndex_) = _getIndices(curvePool_, token_);\n            return curvePool_.get_dy(wethIndex_, tokenIndex_, amount_);\n        }\n\n        return\n            _tokenAmountOut(\n                address(_WETH),\n                token_,\n                amount_,\n                _getBestDex(address(_WETH), token_, amount_)\n            );\n    }\n\n    /**\n     * @dev Gets the best dex to use for swapping tokens based on which gives the highest amount out.\n     * @param fromToken_ The token to swap from.\n     * @param toToken_ The token to swap to.\n     * @param amount_ The amount of fromToken to swap.\n     * @return bestDex The best dex to use for swapping tokens based on which gives the highest amount out\n     */\n    function _getBestDex(\n        address fromToken_,\n        address toToken_,\n        uint256 amount_\n    ) internal view returns (address bestDex) {\n        address uniswap_ = _UNISWAP;\n        address sushiswap_ = _SUSHISWAP;\n        return\n            _tokenAmountOut(fromToken_, toToken_, amount_, uniswap_) >=\n                _tokenAmountOut(fromToken_, toToken_, amount_, sushiswap_)\n                ? uniswap_\n                : sushiswap_;\n    }\n\n    /**\n     * @notice Gets the amount of toToken received by swapping amountIn of fromToken.\n     * @param fromToken_ The token to swap from.\n     * @param toToken_ The token to swap to.\n     * @param amountIn_ The amount of fromToken being swapped.\n     * @param dex_ The DEX to use for the swap.\n     * @return amountOut The amount of toToken received by swapping amountIn of fromToken.\n     */\n    function _tokenAmountOut(\n        address fromToken_,\n        address toToken_,\n        uint256 amountIn_,\n        address dex_\n    ) internal view returns (uint256 amountOut) {\n        address[] memory path_ = new address[](2);\n        path_[0] = fromToken_;\n        path_[1] = toToken_;\n        return UniswapRouter02(dex_).getAmountsOut(amountIn_, path_)[1];\n    }\n\n    /**\n     * @dev Returns the minimum amount of toToken_ to receive from swap.\n     * @param amount_ The amount of fromToken_ being swapped.\n     * @param fromToken_ The Token being swapped from.\n     * @param toToken_ The Token being swapped to.\n     * @return amountOutMin The minimum amount of toToken_ to receive from swap.\n     */\n    function _getAmountOutMin(\n        uint256 amount_,\n        address fromToken_,\n        address toToken_\n    ) internal view returns (uint256 amountOutMin) {\n        return\n            fromToken_ == address(_WETH)\n                ? _minTokenAmountOut(amount_, toToken_)\n                : _minWethAmountOut(amount_, fromToken_);\n    }\n\n    /**\n     * @dev Returns the minimum amount of Token to receive from swap.\n     * @param wethAmount_ The amount of WETH being swapped.\n     * @param token_ The Token the WETH is being swapped to.\n     * @return minAmountOut The minimum amount of Token to receive from swap.\n     */\n    function _minTokenAmountOut(uint256 wethAmount_, address token_)\n        internal\n        view\n        returns (uint256 minAmountOut)\n    {\n        uint256 priceInEth_ = _getPriceInEth(token_);\n        if (priceInEth_ == 0) return 0;\n        return\n            wethAmount_.scaledDiv(priceInEth_).scaledMul(slippageTolerance).scaleTo(\n                IERC20Full(token_).decimals()\n            );\n    }\n\n    /**\n     * @dev Returns the minimum amount of WETH to receive from swap.\n     * @param tokenAmount_ The amount of Token being swapped.\n     * @param token_ The Token that is being swapped for WETH.\n     * @return minAmountOut The minimum amount of WETH to receive from swap.\n     */\n    function _minWethAmountOut(uint256 tokenAmount_, address token_)\n        internal\n        view\n        returns (uint256 minAmountOut)\n    {\n        uint256 priceInEth_ = _getPriceInEth(token_);\n        if (priceInEth_ == 0) return 0;\n        return\n            tokenAmount_.scaledMul(priceInEth_).scaledMul(slippageTolerance).scaleFrom(\n                IERC20Full(token_).decimals()\n            );\n    }\n\n    /**\n     * @dev Returns the price in ETH of the given token.\n     * If no oracle exists for the token, returns 0.\n     * Only very minor assets should only ever return 0, which is why we choose\n     * to accept the risk of not having proper slippage in place later\n     * @param token_ The token to get the price for.\n     * @return tokenPriceInEth The price of the token in ETH.\n     */\n    function _getPriceInEth(address token_) internal view returns (uint256 tokenPriceInEth) {\n        IOracleProvider oracleProvider = _addressProvider.getOracleProvider();\n        if (oracleProvider.isAssetSupported(token_)) {\n            return oracleProvider.getPriceETH(token_);\n        }\n\n        return 0;\n    }\n\n    /**\n     * @dev Returns the Curve Pool coin indices for a given Token.\n     * @param curvePool_ The Curve Pool to return the indices for.\n     * @param token_ The Token to get the indices for.\n     * @return wethIndex_ The coin index for WETH.\n     * @return tokenIndex_ The coin index for the Token.\n     */\n    function _getIndices(ICurveSwapEth curvePool_, address token_)\n        internal\n        view\n        returns (uint256 wethIndex_, uint256 tokenIndex_)\n    {\n        return curvePool_.coins(1) == token_ ? (0, 1) : (1, 0);\n    }\n}\n","sourcePath":"contracts/swappers/SwapperRouter.sol","type":"contract","deployment":{"address":"0x7FFB06207966a4fddd3C23BFD1207Ec745d661a7","chainid":"42","blockHeight":33231440}}