{"abi":[{"inputs":[{"internalType":"address","name":"comptrollerAddress","type":"address"},{"internalType":"address","name":"_cTokenRegistry","type":"address"}],"stateMutability":"nonpayable","type":"constructor","name":"constructor"},{"inputs":[],"name":"cTokenRegistry","outputs":[{"internalType":"contract ICTokenRegistry","name":"","type":"address"}],"stateMutability":"view","type":"function"},{"inputs":[],"name":"comptroller","outputs":[{"internalType":"contract Comptroller","name":"","type":"address"}],"stateMutability":"view","type":"function"},{"inputs":[{"internalType":"bytes32","name":"account","type":"bytes32"},{"internalType":"bytes","name":"","type":"bytes"}],"name":"getUserFactor","outputs":[{"internalType":"uint256","name":"","type":"uint256"}],"stateMutability":"view","type":"function"},{"inputs":[{"internalType":"bytes32","name":"account","type":"bytes32"},{"internalType":"address","name":"underlying","type":"address"},{"internalType":"uint256","name":"amount","type":"uint256"},{"internalType":"bytes","name":"extra","type":"bytes"}],"name":"topUp","outputs":[],"stateMutability":"payable","type":"function"}],"bytecode":"60c060405234801561001057600080fd5b506040516115dd3803806115dd83398101604081905261002f91610062565b6001600160a01b039182166080521660a052610095565b80516001600160a01b038116811461005d57600080fd5b919050565b6000806040838503121561007557600080fd5b61007e83610046565b915061008c60208401610046565b90509250929050565b60805160a0516115176100c66000396000818160a701526101840152600081816056015261053801526115176000f3fe60806040526004361061003f5760003560e01c80635fe3b56714610044578063c45eb70814610095578063ce7e692e146100c9578063dac6de72146100f7575b600080fd5b34801561005057600080fd5b506100787f000000000000000000000000000000000000000000000000000000000000000081565b6040516001600160a01b0390911681526020015b60405180910390f35b3480156100a157600080fd5b506100787f000000000000000000000000000000000000000000000000000000000000000081565b3480156100d557600080fd5b506100e96100e43660046110d4565b61010c565b60405190815260200161008c565b61010a61010536600461118b565b610151565b005b600080600061012361011e8660601c90565b610528565b91509150806000141561013c576000199250505061014b565b6101468282610919565b925050505b92915050565b600061015f8284018461122f565b604051632e38823560e01b81526001600160a01b0387811660048301529192506000917f00000000000000000000000000000000000000000000000000000000000000001690632e388235906024016020604051808303816000875af11580156101cd573d6000803e3d6000fd5b505050506040513d601f19601f820116820180604052508101906101f1919061124c565b6040516370a0823160e01b81523060048201529091506000906001600160a01b038316906370a0823190602401602060405180830381865afa15801561023b573d6000803e3d6000fd5b505050506040513d601f19601f8201168201806040525081019061025f9190611269565b9050600061026d8960601c90565b9050831561029b576102818189898661093f565b61028b9088611298565b96508661029b5750505050610521565b60006001600160a01b03891661030457836001600160a01b0316631249c58b896040518263ffffffff1660e01b81526004016000604051808303818588803b1580156102e657600080fd5b505af11580156102fa573d6000803e3d6000fd5b5050505050610391565b6103196001600160a01b038a1633308b610b2a565b6103238985610b9b565b60405163140e25ad60e31b8152600481018990526001600160a01b0385169063a0712d68906024016020604051808303816000875af115801561036a573d6000803e3d6000fd5b505050506040513d601f19601f8201168201806040525081019061038e9190611269565b90505b60408051808201909152600b81526a1b5a5b9d0819985a5b195960aa1b602082015281156103db5760405162461bcd60e51b81526004016103d291906112db565b60405180910390fd5b506040516370a0823160e01b81523060048201526000906001600160a01b038616906370a0823190602401602060405180830381865afa158015610423573d6000803e3d6000fd5b505050506040513d601f19601f820116820180604052508101906104479190611269565b905060006104558583611298565b60405163a9059cbb60e01b81526001600160a01b0386811660048301526024820183905291925060009188169063a9059cbb906044016020604051808303816000875af11580156104aa573d6000803e3d6000fd5b505050506040513d601f19601f820116820180604052508101906104ce919061130e565b9050806040518060400160405280600f81526020016e1d1c985b9cd9995c8819985a5b1959608a1b815250906105175760405162461bcd60e51b81526004016103d291906112db565b5050505050505050505b5050505050565b600080610533610feb565b6000807f000000000000000000000000000000000000000000000000000000000000000090506000816001600160a01b0316637dc0d1d06040518163ffffffff1660e01b8152600401602060405180830381865afa158015610599573d6000803e3d6000fd5b505050506040513d601f19601f820116820180604052508101906105bd919061124c565b604051632aff3bff60e21b81526001600160a01b03898116600483015291925060009184169063abfceffc90602401600060405180830381865afa158015610609573d6000803e3d6000fd5b505050506040513d6000823e601f3d908101601f19168201604052610631919081019061132b565b805190915060005b818110156108ff576000838281518110610655576106556113dd565b60209081029190910101516040516361bfb47160e11b81526001600160a01b038d811660048301529192509082169063c37f68e290602401608060405180830381865afa1580156106aa573d6000803e3d6000fd5b505050506040513d601f19601f820116820180604052508101906106ce91906113f3565b60808c015260608b01526040808b0191909152805180820190915260128152711b595d1a1bd90818d85b1b0819985a5b195960721b6020820152909750871561072a5760405162461bcd60e51b81526004016103d291906112db565b50604051638e8f294b60e01b81526001600160a01b03828116600483015260009190881690638e8f294b90602401606060405180830381865afa158015610775573d6000803e3d6000fd5b505050506040513d601f19601f820116820180604052508101906107999190611429565b50604080516020808201835283825260c08e01919091528151908101825260808d0151815260e08d01525163fc57d4df60e01b81526001600160a01b038581166004830152919350908816915063fc57d4df90602401602060405180830381865afa15801561080c573d6000803e3d6000fd5b505050506040513d601f19601f820116820180604052508101906108309190611269565b60a08a018190526040805180820190915260128152711b595d1a1bd90818d85b1b0819985a5b195960721b60208201529061087e5760405162461bcd60e51b81526004016103d291906112db565b50604080516020810190915260a08a015181526101008a015260c089015160e08a01516108b9916108ae91610c33565b8a6101000151610c33565b6101208a0181905260408a01518a516108d3929190610c7d565b895261010089015160608a015160208b01516108f0929190610c7d565b60208a01525050600101610639565b508560000151866020015197509750505050505050915091565b60008161092e670de0b6b3a76400008561146c565b610938919061148b565b9392505050565b6040516305eff7ef60e21b81526001600160a01b03858116600483015260009182918416906317bfdfbc906024016020604051808303816000875af115801561098c573d6000803e3d6000fd5b505050506040513d601f19601f820116820180604052508101906109b09190611269565b9050806109c1576000915050610b22565b838111156109cc5750825b60006001600160a01b038616610a3e5760405163e597461960e01b81526001600160a01b03888116600483015285169063e59746199084906024016000604051808303818588803b158015610a2057600080fd5b505af1158015610a34573d6000803e3d6000fd5b5050505050610ad3565b610a536001600160a01b038716333085610b2a565b610a5d8685610b9b565b6040516304c11f0360e31b81526001600160a01b03888116600483015260248201849052851690632608f818906044016020604051808303816000875af1158015610aac573d6000803e3d6000fd5b505050506040513d601f19601f82011682018060405250810190610ad09190611269565b90505b6040805180820190915260138152721c995c185e48189bdc9c9bddc819985a5b1959606a1b60208201528115610b1c5760405162461bcd60e51b81526004016103d291906112db565b50909150505b949350505050565b6040516001600160a01b0380851660248301528316604482015260648101829052610b959085906323b872dd60e01b906084015b60408051601f198184030181529190526020810180516001600160e01b03166001600160e01b031990931692909217909152610ca9565b50505050565b604051636eb1769f60e11b81523060048201526001600160a01b0382811660248301526000919084169063dd62ed3e90604401602060405180830381865afa158015610beb573d6000803e3d6000fd5b505050506040513d601f19601f82011682018060405250810190610c0f9190611269565b1115610c19575050565b610c2f6001600160a01b03831682600019610d80565b5050565b6040805160208101909152600081526040518060200160405280670de0b6b3a764000084600001518660000151610c6a919061146c565b610c74919061148b565b90529392505050565b600080610c8a8585610e95565b905082610c9682610ebf565b610ca091906114ad565b95945050505050565b6000610cfe826040518060400160405280602081526020017f5361666545524332303a206c6f772d6c6576656c2063616c6c206661696c6564815250856001600160a01b0316610ed79092919063ffffffff16565b805190915015610d7b5780806020019051810190610d1c919061130e565b610d7b5760405162461bcd60e51b815260206004820152602a60248201527f5361666545524332303a204552433230206f7065726174696f6e20646964206e6044820152691bdd081cdd58d8d9595960b21b60648201526084016103d2565b505050565b801580610dfa5750604051636eb1769f60e11b81523060048201526001600160a01b03838116602483015284169063dd62ed3e90604401602060405180830381865afa158015610dd4573d6000803e3d6000fd5b505050506040513d601f19601f82011682018060405250810190610df89190611269565b155b610e655760405162461bcd60e51b815260206004820152603660248201527f5361666545524332303a20617070726f76652066726f6d206e6f6e2d7a65726f60448201527520746f206e6f6e2d7a65726f20616c6c6f77616e636560501b60648201526084016103d2565b6040516001600160a01b038316602482015260448101829052610d7b90849063095ea7b360e01b90606401610b5e565b6040805160208101909152600081526040518060200160405280838560000151610c74919061146c565b805160009061014b90670de0b6b3a76400009061148b565b6060610b228484600085856001600160a01b0385163b610f395760405162461bcd60e51b815260206004820152601d60248201527f416464726573733a2063616c6c20746f206e6f6e2d636f6e747261637400000060448201526064016103d2565b600080866001600160a01b03168587604051610f5591906114c5565b60006040518083038185875af1925050503d8060008114610f92576040519150601f19603f3d011682016040523d82523d6000602084013e610f97565b606091505b5091509150610fa7828286610fb2565b979650505050505050565b60608315610fc1575081610938565b825115610fd15782518084602001fd5b8160405162461bcd60e51b81526004016103d291906112db565b6040518061014001604052806000815260200160008152602001600081526020016000815260200160008152602001600081526020016110376040518060200160405280600081525090565b81526020016110526040518060200160405280600081525090565b815260200161106d6040518060200160405280600081525090565b81526020016110886040518060200160405280600081525090565b905290565b634e487b7160e01b600052604160045260246000fd5b604051601f8201601f1916810167ffffffffffffffff811182821017156110cc576110cc61108d565b604052919050565b600080604083850312156110e757600080fd5b8235915060208084013567ffffffffffffffff8082111561110757600080fd5b818601915086601f83011261111b57600080fd5b81358181111561112d5761112d61108d565b61113f601f8201601f191685016110a3565b9150808252878482850101111561115557600080fd5b80848401858401376000848284010152508093505050509250929050565b6001600160a01b038116811461118857600080fd5b50565b6000806000806000608086880312156111a357600080fd5b8535945060208601356111b581611173565b935060408601359250606086013567ffffffffffffffff808211156111d957600080fd5b818801915088601f8301126111ed57600080fd5b8135818111156111fc57600080fd5b89602082850101111561120e57600080fd5b9699959850939650602001949392505050565b801515811461118857600080fd5b60006020828403121561124157600080fd5b813561093881611221565b60006020828403121561125e57600080fd5b815161093881611173565b60006020828403121561127b57600080fd5b5051919050565b634e487b7160e01b600052601160045260246000fd5b6000828210156112aa576112aa611282565b500390565b60005b838110156112ca5781810151838201526020016112b2565b83811115610b955750506000910152565b60208152600082518060208401526112fa8160408501602087016112af565b601f01601f19169190910160400192915050565b60006020828403121561132057600080fd5b815161093881611221565b6000602080838503121561133e57600080fd5b825167ffffffffffffffff8082111561135657600080fd5b818501915085601f83011261136a57600080fd5b81518181111561137c5761137c61108d565b8060051b915061138d8483016110a3565b81815291830184019184810190888411156113a757600080fd5b938501935b838510156113d157845192506113c183611173565b82825293850193908501906113ac565b98975050505050505050565b634e487b7160e01b600052603260045260246000fd5b6000806000806080858703121561140957600080fd5b505082516020840151604085015160609095015191969095509092509050565b60008060006060848603121561143e57600080fd5b835161144981611221565b60208501516040860151919450925061146181611221565b809150509250925092565b600081600019048311821515161561148657611486611282565b500290565b6000826114a857634e487b7160e01b600052601260045260246000fd5b500490565b600082198211156114c0576114c0611282565b500190565b600082516114d78184602087016112af565b919091019291505056fea264697066735822122072c7a72e0571517bdd277418f108ed13ce9eff98d66e9a3a82cdd6efc2abf4bc64736f6c634300080a0033","bytecodeSha1":"18e1601da6ab654777d7027f814729e9967e6931","compiler":{"evm_version":"london","optimizer":{"enabled":true,"runs":200},"version":"0.8.10+commit.fc410830"},"contractName":"CompoundHandler","language":"Solidity","natspec":{"kind":"dev","methods":{"getUserFactor(bytes32,bytes)":{"notice":"Returns the collateralization ratio of the user.         A result of 1.5 (x1e18) means that the user has a 150% collateralization ratio.","params":{"account":"account for which to check the factor."},"returns":{"_0":"User factor."}},"topUp(bytes32,address,uint256,bytes)":{"notice":"Executes the top-up of a position.","params":{"account":"Account holding the position.","amount":"Amount to top-up by.","underlying":"Underlying for top-up."}}},"version":1},"opcodes":"PUSH1 0x80 PUSH1 0x40 MSTORE PUSH1 0x4 CALLDATASIZE LT PUSH2 0x3F JUMPI PUSH1 0x0 CALLDATALOAD PUSH1 0xE0 SHR DUP1 PUSH4 0x5FE3B567 EQ PUSH2 0x44 JUMPI DUP1 PUSH4 0xC45EB708 EQ PUSH2 0x95 JUMPI DUP1 PUSH4 0xCE7E692E EQ PUSH2 0xC9 JUMPI DUP1 PUSH4 0xDAC6DE72 EQ PUSH2 0xF7 JUMPI JUMPDEST PUSH1 0x0 DUP1 REVERT JUMPDEST CALLVALUE DUP1 ISZERO PUSH2 0x50 JUMPI PUSH1 0x0 DUP1 REVERT JUMPDEST POP PUSH2 0x78 PUSH32 0x0 DUP2 JUMP JUMPDEST PUSH1 0x40 MLOAD PUSH1 0x1 PUSH1 0x1 PUSH1 0xA0 SHL SUB SWAP1 SWAP2 AND DUP2 MSTORE PUSH1 0x20 ADD JUMPDEST PUSH1 0x40 MLOAD DUP1 SWAP2 SUB SWAP1 RETURN JUMPDEST CALLVALUE DUP1 ISZERO PUSH2 0xA1 JUMPI PUSH1 0x0 DUP1 REVERT JUMPDEST POP PUSH2 0x78 PUSH32 0x0 DUP2 JUMP JUMPDEST CALLVALUE DUP1 ISZERO PUSH2 0xD5 JUMPI PUSH1 0x0 DUP1 REVERT JUMPDEST POP PUSH2 0xE9 PUSH2 0xE4 CALLDATASIZE PUSH1 0x4 PUSH2 0x10D4 JUMP JUMPDEST PUSH2 0x10C JUMP JUMPDEST PUSH1 0x40 MLOAD SWAP1 DUP2 MSTORE PUSH1 0x20 ADD PUSH2 0x8C JUMP JUMPDEST PUSH2 0x10A PUSH2 0x105 CALLDATASIZE PUSH1 0x4 PUSH2 0x118B JUMP JUMPDEST PUSH2 0x151 JUMP JUMPDEST STOP JUMPDEST PUSH1 0x0 DUP1 PUSH1 0x0 PUSH2 0x123 PUSH2 0x11E DUP7 PUSH1 0x60 SHR SWAP1 JUMP JUMPDEST PUSH2 0x528 JUMP JUMPDEST SWAP2 POP SWAP2 POP DUP1 PUSH1 0x0 EQ ISZERO PUSH2 0x13C JUMPI PUSH1 0x0 NOT SWAP3 POP POP POP PUSH2 0x14B JUMP JUMPDEST PUSH2 0x146 DUP3 DUP3 PUSH2 0x919 JUMP JUMPDEST SWAP3 POP POP POP JUMPDEST SWAP3 SWAP2 POP POP JUMP JUMPDEST PUSH1 0x0 PUSH2 0x15F DUP3 DUP5 ADD DUP5 PUSH2 0x122F JUMP JUMPDEST PUSH1 0x40 MLOAD PUSH4 0x2E388235 PUSH1 0xE0 SHL DUP2 MSTORE PUSH1 0x1 PUSH1 0x1 PUSH1 0xA0 SHL SUB DUP8 DUP2 AND PUSH1 0x4 DUP4 ADD MSTORE SWAP2 SWAP3 POP PUSH1 0x0 SWAP2 PUSH32 0x0 AND SWAP1 PUSH4 0x2E388235 SWAP1 PUSH1 0x24 ADD PUSH1 0x20 PUSH1 0x40 MLOAD DUP1 DUP4 SUB DUP2 PUSH1 0x0 DUP8 GAS CALL ISZERO DUP1 ISZERO PUSH2 0x1CD JUMPI RETURNDATASIZE PUSH1 0x0 DUP1 RETURNDATACOPY RETURNDATASIZE PUSH1 0x0 REVERT JUMPDEST POP POP POP POP PUSH1 0x40 MLOAD RETURNDATASIZE PUSH1 0x1F NOT PUSH1 0x1F DUP3 ADD AND DUP3 ADD DUP1 PUSH1 0x40 MSTORE POP DUP2 ADD SWAP1 PUSH2 0x1F1 SWAP2 SWAP1 PUSH2 0x124C JUMP JUMPDEST PUSH1 0x40 MLOAD PUSH4 0x70A08231 PUSH1 0xE0 SHL DUP2 MSTORE ADDRESS PUSH1 0x4 DUP3 ADD MSTORE SWAP1 SWAP2 POP PUSH1 0x0 SWAP1 PUSH1 0x1 PUSH1 0x1 PUSH1 0xA0 SHL SUB DUP4 AND SWAP1 PUSH4 0x70A08231 SWAP1 PUSH1 0x24 ADD PUSH1 0x20 PUSH1 0x40 MLOAD DUP1 DUP4 SUB DUP2 DUP7 GAS STATICCALL ISZERO DUP1 ISZERO PUSH2 0x23B JUMPI RETURNDATASIZE PUSH1 0x0 DUP1 RETURNDATACOPY RETURNDATASIZE PUSH1 0x0 REVERT JUMPDEST POP POP POP POP PUSH1 0x40 MLOAD RETURNDATASIZE PUSH1 0x1F NOT PUSH1 0x1F DUP3 ADD AND DUP3 ADD DUP1 PUSH1 0x40 MSTORE POP DUP2 ADD SWAP1 PUSH2 0x25F SWAP2 SWAP1 PUSH2 0x1269 JUMP JUMPDEST SWAP1 POP PUSH1 0x0 PUSH2 0x26D DUP10 PUSH1 0x60 SHR SWAP1 JUMP JUMPDEST SWAP1 POP DUP4 ISZERO PUSH2 0x29B JUMPI PUSH2 0x281 DUP2 DUP10 DUP10 DUP7 PUSH2 0x93F JUMP JUMPDEST PUSH2 0x28B SWAP1 DUP9 PUSH2 0x1298 JUMP JUMPDEST SWAP7 POP DUP7 PUSH2 0x29B JUMPI POP POP POP POP PUSH2 0x521 JUMP JUMPDEST PUSH1 0x0 PUSH1 0x1 PUSH1 0x1 PUSH1 0xA0 SHL SUB DUP10 AND PUSH2 0x304 JUMPI DUP4 PUSH1 0x1 PUSH1 0x1 PUSH1 0xA0 SHL SUB AND PUSH4 0x1249C58B DUP10 PUSH1 0x40 MLOAD DUP3 PUSH4 0xFFFFFFFF AND PUSH1 0xE0 SHL DUP2 MSTORE PUSH1 0x4 ADD PUSH1 0x0 PUSH1 0x40 MLOAD DUP1 DUP4 SUB DUP2 DUP6 DUP9 DUP1 EXTCODESIZE ISZERO DUP1 ISZERO PUSH2 0x2E6 JUMPI PUSH1 0x0 DUP1 REVERT JUMPDEST POP GAS CALL ISZERO DUP1 ISZERO PUSH2 0x2FA JUMPI RETURNDATASIZE PUSH1 0x0 DUP1 RETURNDATACOPY RETURNDATASIZE PUSH1 0x0 REVERT JUMPDEST POP POP POP POP POP PUSH2 0x391 JUMP JUMPDEST PUSH2 0x319 PUSH1 0x1 PUSH1 0x1 PUSH1 0xA0 SHL SUB DUP11 AND CALLER ADDRESS DUP12 PUSH2 0xB2A JUMP JUMPDEST PUSH2 0x323 DUP10 DUP6 PUSH2 0xB9B JUMP JUMPDEST PUSH1 0x40 MLOAD PUSH4 0x140E25AD PUSH1 0xE3 SHL DUP2 MSTORE PUSH1 0x4 DUP2 ADD DUP10 SWAP1 MSTORE PUSH1 0x1 PUSH1 0x1 PUSH1 0xA0 SHL SUB DUP6 AND SWAP1 PUSH4 0xA0712D68 SWAP1 PUSH1 0x24 ADD PUSH1 0x20 PUSH1 0x40 MLOAD DUP1 DUP4 SUB DUP2 PUSH1 0x0 DUP8 GAS CALL ISZERO DUP1 ISZERO PUSH2 0x36A JUMPI RETURNDATASIZE PUSH1 0x0 DUP1 RETURNDATACOPY RETURNDATASIZE PUSH1 0x0 REVERT JUMPDEST POP POP POP POP PUSH1 0x40 MLOAD RETURNDATASIZE PUSH1 0x1F NOT PUSH1 0x1F DUP3 ADD AND DUP3 ADD DUP1 PUSH1 0x40 MSTORE POP DUP2 ADD SWAP1 PUSH2 0x38E SWAP2 SWAP1 PUSH2 0x1269 JUMP JUMPDEST SWAP1 POP JUMPDEST PUSH1 0x40 DUP1 MLOAD DUP1 DUP3 ADD SWAP1 SWAP2 MSTORE PUSH1 0xB DUP2 MSTORE PUSH11 0x1B5A5B9D0819985A5B1959 PUSH1 0xAA SHL PUSH1 0x20 DUP3 ADD MSTORE DUP2 ISZERO PUSH2 0x3DB JUMPI PUSH1 0x40 MLOAD PUSH3 0x461BCD PUSH1 0xE5 SHL DUP2 MSTORE PUSH1 0x4 ADD PUSH2 0x3D2 SWAP2 SWAP1 PUSH2 0x12DB JUMP JUMPDEST PUSH1 0x40 MLOAD DUP1 SWAP2 SUB SWAP1 REVERT JUMPDEST POP PUSH1 0x40 MLOAD PUSH4 0x70A08231 PUSH1 0xE0 SHL DUP2 MSTORE ADDRESS PUSH1 0x4 DUP3 ADD MSTORE PUSH1 0x0 SWAP1 PUSH1 0x1 PUSH1 0x1 PUSH1 0xA0 SHL SUB DUP7 AND SWAP1 PUSH4 0x70A08231 SWAP1 PUSH1 0x24 ADD PUSH1 0x20 PUSH1 0x40 MLOAD DUP1 DUP4 SUB DUP2 DUP7 GAS STATICCALL ISZERO DUP1 ISZERO PUSH2 0x423 JUMPI RETURNDATASIZE PUSH1 0x0 DUP1 RETURNDATACOPY RETURNDATASIZE PUSH1 0x0 REVERT JUMPDEST POP POP POP POP PUSH1 0x40 MLOAD RETURNDATASIZE PUSH1 0x1F NOT PUSH1 0x1F DUP3 ADD AND DUP3 ADD DUP1 PUSH1 0x40 MSTORE POP DUP2 ADD SWAP1 PUSH2 0x447 SWAP2 SWAP1 PUSH2 0x1269 JUMP JUMPDEST SWAP1 POP PUSH1 0x0 PUSH2 0x455 DUP6 DUP4 PUSH2 0x1298 JUMP JUMPDEST PUSH1 0x40 MLOAD PUSH4 0xA9059CBB PUSH1 0xE0 SHL DUP2 MSTORE PUSH1 0x1 PUSH1 0x1 PUSH1 0xA0 SHL SUB DUP7 DUP2 AND PUSH1 0x4 DUP4 ADD MSTORE PUSH1 0x24 DUP3 ADD DUP4 SWAP1 MSTORE SWAP2 SWAP3 POP PUSH1 0x0 SWAP2 DUP9 AND SWAP1 PUSH4 0xA9059CBB SWAP1 PUSH1 0x44 ADD PUSH1 0x20 PUSH1 0x40 MLOAD DUP1 DUP4 SUB DUP2 PUSH1 0x0 DUP8 GAS CALL ISZERO DUP1 ISZERO PUSH2 0x4AA JUMPI RETURNDATASIZE PUSH1 0x0 DUP1 RETURNDATACOPY RETURNDATASIZE PUSH1 0x0 REVERT JUMPDEST POP POP POP POP PUSH1 0x40 MLOAD RETURNDATASIZE PUSH1 0x1F NOT PUSH1 0x1F DUP3 ADD AND DUP3 ADD DUP1 PUSH1 0x40 MSTORE POP DUP2 ADD SWAP1 PUSH2 0x4CE SWAP2 SWAP1 PUSH2 0x130E JUMP JUMPDEST SWAP1 POP DUP1 PUSH1 0x40 MLOAD DUP1 PUSH1 0x40 ADD PUSH1 0x40 MSTORE DUP1 PUSH1 0xF DUP2 MSTORE PUSH1 0x20 ADD PUSH15 0x1D1C985B9CD9995C8819985A5B1959 PUSH1 0x8A SHL DUP2 MSTORE POP SWAP1 PUSH2 0x517 JUMPI PUSH1 0x40 MLOAD PUSH3 0x461BCD PUSH1 0xE5 SHL DUP2 MSTORE PUSH1 0x4 ADD PUSH2 0x3D2 SWAP2 SWAP1 PUSH2 0x12DB JUMP JUMPDEST POP POP POP POP POP POP POP POP POP JUMPDEST POP POP POP POP POP JUMP JUMPDEST PUSH1 0x0 DUP1 PUSH2 0x533 PUSH2 0xFEB JUMP JUMPDEST PUSH1 0x0 DUP1 PUSH32 0x0 SWAP1 POP PUSH1 0x0 DUP2 PUSH1 0x1 PUSH1 0x1 PUSH1 0xA0 SHL SUB AND PUSH4 0x7DC0D1D0 PUSH1 0x40 MLOAD DUP2 PUSH4 0xFFFFFFFF AND PUSH1 0xE0 SHL DUP2 MSTORE PUSH1 0x4 ADD PUSH1 0x20 PUSH1 0x40 MLOAD DUP1 DUP4 SUB DUP2 DUP7 GAS STATICCALL ISZERO DUP1 ISZERO PUSH2 0x599 JUMPI RETURNDATASIZE PUSH1 0x0 DUP1 RETURNDATACOPY RETURNDATASIZE PUSH1 0x0 REVERT JUMPDEST POP POP POP POP PUSH1 0x40 MLOAD RETURNDATASIZE PUSH1 0x1F NOT PUSH1 0x1F DUP3 ADD AND DUP3 ADD DUP1 PUSH1 0x40 MSTORE POP DUP2 ADD SWAP1 PUSH2 0x5BD SWAP2 SWAP1 PUSH2 0x124C JUMP JUMPDEST PUSH1 0x40 MLOAD PUSH4 0x2AFF3BFF PUSH1 0xE2 SHL DUP2 MSTORE PUSH1 0x1 PUSH1 0x1 PUSH1 0xA0 SHL SUB DUP10 DUP2 AND PUSH1 0x4 DUP4 ADD MSTORE SWAP2 SWAP3 POP PUSH1 0x0 SWAP2 DUP5 AND SWAP1 PUSH4 0xABFCEFFC SWAP1 PUSH1 0x24 ADD PUSH1 0x0 PUSH1 0x40 MLOAD DUP1 DUP4 SUB DUP2 DUP7 GAS STATICCALL ISZERO DUP1 ISZERO PUSH2 0x609 JUMPI RETURNDATASIZE PUSH1 0x0 DUP1 RETURNDATACOPY RETURNDATASIZE PUSH1 0x0 REVERT JUMPDEST POP POP POP POP PUSH1 0x40 MLOAD RETURNDATASIZE PUSH1 0x0 DUP3 RETURNDATACOPY PUSH1 0x1F RETURNDATASIZE SWAP1 DUP2 ADD PUSH1 0x1F NOT AND DUP3 ADD PUSH1 0x40 MSTORE PUSH2 0x631 SWAP2 SWAP1 DUP2 ADD SWAP1 PUSH2 0x132B JUMP JUMPDEST DUP1 MLOAD SWAP1 SWAP2 POP PUSH1 0x0 JUMPDEST DUP2 DUP2 LT ISZERO PUSH2 0x8FF JUMPI PUSH1 0x0 DUP4 DUP3 DUP2 MLOAD DUP2 LT PUSH2 0x655 JUMPI PUSH2 0x655 PUSH2 0x13DD JUMP JUMPDEST PUSH1 0x20 SWAP1 DUP2 MUL SWAP2 SWAP1 SWAP2 ADD ADD MLOAD PUSH1 0x40 MLOAD PUSH4 0x61BFB471 PUSH1 0xE1 SHL DUP2 MSTORE PUSH1 0x1 PUSH1 0x1 PUSH1 0xA0 SHL SUB DUP14 DUP2 AND PUSH1 0x4 DUP4 ADD MSTORE SWAP2 SWAP3 POP SWAP1 DUP3 AND SWAP1 PUSH4 0xC37F68E2 SWAP1 PUSH1 0x24 ADD PUSH1 0x80 PUSH1 0x40 MLOAD DUP1 DUP4 SUB DUP2 DUP7 GAS STATICCALL ISZERO DUP1 ISZERO PUSH2 0x6AA JUMPI RETURNDATASIZE PUSH1 0x0 DUP1 RETURNDATACOPY RETURNDATASIZE PUSH1 0x0 REVERT JUMPDEST POP POP POP POP PUSH1 0x40 MLOAD RETURNDATASIZE PUSH1 0x1F NOT PUSH1 0x1F DUP3 ADD AND DUP3 ADD DUP1 PUSH1 0x40 MSTORE POP DUP2 ADD SWAP1 PUSH2 0x6CE SWAP2 SWAP1 PUSH2 0x13F3 JUMP JUMPDEST PUSH1 0x80 DUP13 ADD MSTORE PUSH1 0x60 DUP12 ADD MSTORE PUSH1 0x40 DUP1 DUP12 ADD SWAP2 SWAP1 SWAP2 MSTORE DUP1 MLOAD DUP1 DUP3 ADD SWAP1 SWAP2 MSTORE PUSH1 0x12 DUP2 MSTORE PUSH18 0x1B595D1A1BD90818D85B1B0819985A5B1959 PUSH1 0x72 SHL PUSH1 0x20 DUP3 ADD MSTORE SWAP1 SWAP8 POP DUP8 ISZERO PUSH2 0x72A JUMPI PUSH1 0x40 MLOAD PUSH3 0x461BCD PUSH1 0xE5 SHL DUP2 MSTORE PUSH1 0x4 ADD PUSH2 0x3D2 SWAP2 SWAP1 PUSH2 0x12DB JUMP JUMPDEST POP PUSH1 0x40 MLOAD PUSH4 0x8E8F294B PUSH1 0xE0 SHL DUP2 MSTORE PUSH1 0x1 PUSH1 0x1 PUSH1 0xA0 SHL SUB DUP3 DUP2 AND PUSH1 0x4 DUP4 ADD MSTORE PUSH1 0x0 SWAP2 SWAP1 DUP9 AND SWAP1 PUSH4 0x8E8F294B SWAP1 PUSH1 0x24 ADD PUSH1 0x60 PUSH1 0x40 MLOAD DUP1 DUP4 SUB DUP2 DUP7 GAS STATICCALL ISZERO DUP1 ISZERO PUSH2 0x775 JUMPI RETURNDATASIZE PUSH1 0x0 DUP1 RETURNDATACOPY RETURNDATASIZE PUSH1 0x0 REVERT JUMPDEST POP POP POP POP PUSH1 0x40 MLOAD RETURNDATASIZE PUSH1 0x1F NOT PUSH1 0x1F DUP3 ADD AND DUP3 ADD DUP1 PUSH1 0x40 MSTORE POP DUP2 ADD SWAP1 PUSH2 0x799 SWAP2 SWAP1 PUSH2 0x1429 JUMP JUMPDEST POP PUSH1 0x40 DUP1 MLOAD PUSH1 0x20 DUP1 DUP3 ADD DUP4 MSTORE DUP4 DUP3 MSTORE PUSH1 0xC0 DUP15 ADD SWAP2 SWAP1 SWAP2 MSTORE DUP2 MLOAD SWAP1 DUP2 ADD DUP3 MSTORE PUSH1 0x80 DUP14 ADD MLOAD DUP2 MSTORE PUSH1 0xE0 DUP14 ADD MSTORE MLOAD PUSH4 0xFC57D4DF PUSH1 0xE0 SHL DUP2 MSTORE PUSH1 0x1 PUSH1 0x1 PUSH1 0xA0 SHL SUB DUP6 DUP2 AND PUSH1 0x4 DUP4 ADD MSTORE SWAP2 SWAP4 POP SWAP1 DUP9 AND SWAP2 POP PUSH4 0xFC57D4DF SWAP1 PUSH1 0x24 ADD PUSH1 0x20 PUSH1 0x40 MLOAD DUP1 DUP4 SUB DUP2 DUP7 GAS STATICCALL ISZERO DUP1 ISZERO PUSH2 0x80C JUMPI RETURNDATASIZE PUSH1 0x0 DUP1 RETURNDATACOPY RETURNDATASIZE PUSH1 0x0 REVERT JUMPDEST POP POP POP POP PUSH1 0x40 MLOAD RETURNDATASIZE PUSH1 0x1F NOT PUSH1 0x1F DUP3 ADD AND DUP3 ADD DUP1 PUSH1 0x40 MSTORE POP DUP2 ADD SWAP1 PUSH2 0x830 SWAP2 SWAP1 PUSH2 0x1269 JUMP JUMPDEST PUSH1 0xA0 DUP11 ADD DUP2 SWAP1 MSTORE PUSH1 0x40 DUP1 MLOAD DUP1 DUP3 ADD SWAP1 SWAP2 MSTORE PUSH1 0x12 DUP2 MSTORE PUSH18 0x1B595D1A1BD90818D85B1B0819985A5B1959 PUSH1 0x72 SHL PUSH1 0x20 DUP3 ADD MSTORE SWAP1 PUSH2 0x87E JUMPI PUSH1 0x40 MLOAD PUSH3 0x461BCD PUSH1 0xE5 SHL DUP2 MSTORE PUSH1 0x4 ADD PUSH2 0x3D2 SWAP2 SWAP1 PUSH2 0x12DB JUMP JUMPDEST POP PUSH1 0x40 DUP1 MLOAD PUSH1 0x20 DUP2 ADD SWAP1 SWAP2 MSTORE PUSH1 0xA0 DUP11 ADD MLOAD DUP2 MSTORE PUSH2 0x100 DUP11 ADD MSTORE PUSH1 0xC0 DUP10 ADD MLOAD PUSH1 0xE0 DUP11 ADD MLOAD PUSH2 0x8B9 SWAP2 PUSH2 0x8AE SWAP2 PUSH2 0xC33 JUMP JUMPDEST DUP11 PUSH2 0x100 ADD MLOAD PUSH2 0xC33 JUMP JUMPDEST PUSH2 0x120 DUP11 ADD DUP2 SWAP1 MSTORE PUSH1 0x40 DUP11 ADD MLOAD DUP11 MLOAD PUSH2 0x8D3 SWAP3 SWAP2 SWAP1 PUSH2 0xC7D JUMP JUMPDEST DUP10 MSTORE PUSH2 0x100 DUP10 ADD MLOAD PUSH1 0x60 DUP11 ADD MLOAD PUSH1 0x20 DUP12 ADD MLOAD PUSH2 0x8F0 SWAP3 SWAP2 SWAP1 PUSH2 0xC7D JUMP JUMPDEST PUSH1 0x20 DUP11 ADD MSTORE POP POP PUSH1 0x1 ADD PUSH2 0x639 JUMP JUMPDEST POP DUP6 PUSH1 0x0 ADD MLOAD DUP7 PUSH1 0x20 ADD MLOAD SWAP8 POP SWAP8 POP POP POP POP POP POP POP SWAP2 POP SWAP2 JUMP JUMPDEST PUSH1 0x0 DUP2 PUSH2 0x92E PUSH8 0xDE0B6B3A7640000 DUP6 PUSH2 0x146C JUMP JUMPDEST PUSH2 0x938 SWAP2 SWAP1 PUSH2 0x148B JUMP JUMPDEST SWAP4 SWAP3 POP POP POP JUMP JUMPDEST PUSH1 0x40 MLOAD PUSH4 0x5EFF7EF PUSH1 0xE2 SHL DUP2 MSTORE PUSH1 0x1 PUSH1 0x1 PUSH1 0xA0 SHL SUB DUP6 DUP2 AND PUSH1 0x4 DUP4 ADD MSTORE PUSH1 0x0 SWAP2 DUP3 SWAP2 DUP5 AND SWAP1 PUSH4 0x17BFDFBC SWAP1 PUSH1 0x24 ADD PUSH1 0x20 PUSH1 0x40 MLOAD DUP1 DUP4 SUB DUP2 PUSH1 0x0 DUP8 GAS CALL ISZERO DUP1 ISZERO PUSH2 0x98C JUMPI RETURNDATASIZE PUSH1 0x0 DUP1 RETURNDATACOPY RETURNDATASIZE PUSH1 0x0 REVERT JUMPDEST POP POP POP POP PUSH1 0x40 MLOAD RETURNDATASIZE PUSH1 0x1F NOT PUSH1 0x1F DUP3 ADD AND DUP3 ADD DUP1 PUSH1 0x40 MSTORE POP DUP2 ADD SWAP1 PUSH2 0x9B0 SWAP2 SWAP1 PUSH2 0x1269 JUMP JUMPDEST SWAP1 POP DUP1 PUSH2 0x9C1 JUMPI PUSH1 0x0 SWAP2 POP POP PUSH2 0xB22 JUMP JUMPDEST DUP4 DUP2 GT ISZERO PUSH2 0x9CC JUMPI POP DUP3 JUMPDEST PUSH1 0x0 PUSH1 0x1 PUSH1 0x1 PUSH1 0xA0 SHL SUB DUP7 AND PUSH2 0xA3E JUMPI PUSH1 0x40 MLOAD PUSH4 0xE5974619 PUSH1 0xE0 SHL DUP2 MSTORE PUSH1 0x1 PUSH1 0x1 PUSH1 0xA0 SHL SUB DUP9 DUP2 AND PUSH1 0x4 DUP4 ADD MSTORE DUP6 AND SWAP1 PUSH4 0xE5974619 SWAP1 DUP5 SWAP1 PUSH1 0x24 ADD PUSH1 0x0 PUSH1 0x40 MLOAD DUP1 DUP4 SUB DUP2 DUP6 DUP9 DUP1 EXTCODESIZE ISZERO DUP1 ISZERO PUSH2 0xA20 JUMPI PUSH1 0x0 DUP1 REVERT JUMPDEST POP GAS CALL ISZERO DUP1 ISZERO PUSH2 0xA34 JUMPI RETURNDATASIZE PUSH1 0x0 DUP1 RETURNDATACOPY RETURNDATASIZE PUSH1 0x0 REVERT JUMPDEST POP POP POP POP POP PUSH2 0xAD3 JUMP JUMPDEST PUSH2 0xA53 PUSH1 0x1 PUSH1 0x1 PUSH1 0xA0 SHL SUB DUP8 AND CALLER ADDRESS DUP6 PUSH2 0xB2A JUMP JUMPDEST PUSH2 0xA5D DUP7 DUP6 PUSH2 0xB9B JUMP JUMPDEST PUSH1 0x40 MLOAD PUSH4 0x4C11F03 PUSH1 0xE3 SHL DUP2 MSTORE PUSH1 0x1 PUSH1 0x1 PUSH1 0xA0 SHL SUB DUP9 DUP2 AND PUSH1 0x4 DUP4 ADD MSTORE PUSH1 0x24 DUP3 ADD DUP5 SWAP1 MSTORE DUP6 AND SWAP1 PUSH4 0x2608F818 SWAP1 PUSH1 0x44 ADD PUSH1 0x20 PUSH1 0x40 MLOAD DUP1 DUP4 SUB DUP2 PUSH1 0x0 DUP8 GAS CALL ISZERO DUP1 ISZERO PUSH2 0xAAC JUMPI RETURNDATASIZE PUSH1 0x0 DUP1 RETURNDATACOPY RETURNDATASIZE PUSH1 0x0 REVERT JUMPDEST POP POP POP POP PUSH1 0x40 MLOAD RETURNDATASIZE PUSH1 0x1F NOT PUSH1 0x1F DUP3 ADD AND DUP3 ADD DUP1 PUSH1 0x40 MSTORE POP DUP2 ADD SWAP1 PUSH2 0xAD0 SWAP2 SWAP1 PUSH2 0x1269 JUMP JUMPDEST SWAP1 POP JUMPDEST PUSH1 0x40 DUP1 MLOAD DUP1 DUP3 ADD SWAP1 SWAP2 MSTORE PUSH1 0x13 DUP2 MSTORE PUSH19 0x1C995C185E48189BDC9C9BDDC819985A5B1959 PUSH1 0x6A SHL PUSH1 0x20 DUP3 ADD MSTORE DUP2 ISZERO PUSH2 0xB1C JUMPI PUSH1 0x40 MLOAD PUSH3 0x461BCD PUSH1 0xE5 SHL DUP2 MSTORE PUSH1 0x4 ADD PUSH2 0x3D2 SWAP2 SWAP1 PUSH2 0x12DB JUMP JUMPDEST POP SWAP1 SWAP2 POP POP JUMPDEST SWAP5 SWAP4 POP POP POP POP JUMP JUMPDEST PUSH1 0x40 MLOAD PUSH1 0x1 PUSH1 0x1 PUSH1 0xA0 SHL SUB DUP1 DUP6 AND PUSH1 0x24 DUP4 ADD MSTORE DUP4 AND PUSH1 0x44 DUP3 ADD MSTORE PUSH1 0x64 DUP2 ADD DUP3 SWAP1 MSTORE PUSH2 0xB95 SWAP1 DUP6 SWAP1 PUSH4 0x23B872DD PUSH1 0xE0 SHL SWAP1 PUSH1 0x84 ADD JUMPDEST PUSH1 0x40 DUP1 MLOAD PUSH1 0x1F NOT DUP2 DUP5 SUB ADD DUP2 MSTORE SWAP2 SWAP1 MSTORE PUSH1 0x20 DUP2 ADD DUP1 MLOAD PUSH1 0x1 PUSH1 0x1 PUSH1 0xE0 SHL SUB AND PUSH1 0x1 PUSH1 0x1 PUSH1 0xE0 SHL SUB NOT SWAP1 SWAP4 AND SWAP3 SWAP1 SWAP3 OR SWAP1 SWAP2 MSTORE PUSH2 0xCA9 JUMP JUMPDEST POP POP POP POP JUMP JUMPDEST PUSH1 0x40 MLOAD PUSH4 0x6EB1769F PUSH1 0xE1 SHL DUP2 MSTORE ADDRESS PUSH1 0x4 DUP3 ADD MSTORE PUSH1 0x1 PUSH1 0x1 PUSH1 0xA0 SHL SUB DUP3 DUP2 AND PUSH1 0x24 DUP4 ADD MSTORE PUSH1 0x0 SWAP2 SWAP1 DUP5 AND SWAP1 PUSH4 0xDD62ED3E SWAP1 PUSH1 0x44 ADD PUSH1 0x20 PUSH1 0x40 MLOAD DUP1 DUP4 SUB DUP2 DUP7 GAS STATICCALL ISZERO DUP1 ISZERO PUSH2 0xBEB JUMPI RETURNDATASIZE PUSH1 0x0 DUP1 RETURNDATACOPY RETURNDATASIZE PUSH1 0x0 REVERT JUMPDEST POP POP POP POP PUSH1 0x40 MLOAD RETURNDATASIZE PUSH1 0x1F NOT PUSH1 0x1F DUP3 ADD AND DUP3 ADD DUP1 PUSH1 0x40 MSTORE POP DUP2 ADD SWAP1 PUSH2 0xC0F SWAP2 SWAP1 PUSH2 0x1269 JUMP JUMPDEST GT ISZERO PUSH2 0xC19 JUMPI POP POP JUMP JUMPDEST PUSH2 0xC2F PUSH1 0x1 PUSH1 0x1 PUSH1 0xA0 SHL SUB DUP4 AND DUP3 PUSH1 0x0 NOT PUSH2 0xD80 JUMP JUMPDEST POP POP JUMP JUMPDEST PUSH1 0x40 DUP1 MLOAD PUSH1 0x20 DUP2 ADD SWAP1 SWAP2 MSTORE PUSH1 0x0 DUP2 MSTORE PUSH1 0x40 MLOAD DUP1 PUSH1 0x20 ADD PUSH1 0x40 MSTORE DUP1 PUSH8 0xDE0B6B3A7640000 DUP5 PUSH1 0x0 ADD MLOAD DUP7 PUSH1 0x0 ADD MLOAD PUSH2 0xC6A SWAP2 SWAP1 PUSH2 0x146C JUMP JUMPDEST PUSH2 0xC74 SWAP2 SWAP1 PUSH2 0x148B JUMP JUMPDEST SWAP1 MSTORE SWAP4 SWAP3 POP POP POP JUMP JUMPDEST PUSH1 0x0 DUP1 PUSH2 0xC8A DUP6 DUP6 PUSH2 0xE95 JUMP JUMPDEST SWAP1 POP DUP3 PUSH2 0xC96 DUP3 PUSH2 0xEBF JUMP JUMPDEST PUSH2 0xCA0 SWAP2 SWAP1 PUSH2 0x14AD JUMP JUMPDEST SWAP6 SWAP5 POP POP POP POP POP JUMP JUMPDEST PUSH1 0x0 PUSH2 0xCFE DUP3 PUSH1 0x40 MLOAD DUP1 PUSH1 0x40 ADD PUSH1 0x40 MSTORE DUP1 PUSH1 0x20 DUP2 MSTORE PUSH1 0x20 ADD PUSH32 0x5361666545524332303A206C6F772D6C6576656C2063616C6C206661696C6564 DUP2 MSTORE POP DUP6 PUSH1 0x1 PUSH1 0x1 PUSH1 0xA0 SHL SUB AND PUSH2 0xED7 SWAP1 SWAP3 SWAP2 SWAP1 PUSH4 0xFFFFFFFF AND JUMP JUMPDEST DUP1 MLOAD SWAP1 SWAP2 POP ISZERO PUSH2 0xD7B JUMPI DUP1 DUP1 PUSH1 0x20 ADD SWAP1 MLOAD DUP2 ADD SWAP1 PUSH2 0xD1C SWAP2 SWAP1 PUSH2 0x130E JUMP JUMPDEST PUSH2 0xD7B JUMPI PUSH1 0x40 MLOAD PUSH3 0x461BCD PUSH1 0xE5 SHL DUP2 MSTORE PUSH1 0x20 PUSH1 0x4 DUP3 ADD MSTORE PUSH1 0x2A PUSH1 0x24 DUP3 ADD MSTORE PUSH32 0x5361666545524332303A204552433230206F7065726174696F6E20646964206E PUSH1 0x44 DUP3 ADD MSTORE PUSH10 0x1BDD081CDD58D8D95959 PUSH1 0xB2 SHL PUSH1 0x64 DUP3 ADD MSTORE PUSH1 0x84 ADD PUSH2 0x3D2 JUMP JUMPDEST POP POP POP JUMP JUMPDEST DUP1 ISZERO DUP1 PUSH2 0xDFA JUMPI POP PUSH1 0x40 MLOAD PUSH4 0x6EB1769F PUSH1 0xE1 SHL DUP2 MSTORE ADDRESS PUSH1 0x4 DUP3 ADD MSTORE PUSH1 0x1 PUSH1 0x1 PUSH1 0xA0 SHL SUB DUP4 DUP2 AND PUSH1 0x24 DUP4 ADD MSTORE DUP5 AND SWAP1 PUSH4 0xDD62ED3E SWAP1 PUSH1 0x44 ADD PUSH1 0x20 PUSH1 0x40 MLOAD DUP1 DUP4 SUB DUP2 DUP7 GAS STATICCALL ISZERO DUP1 ISZERO PUSH2 0xDD4 JUMPI RETURNDATASIZE PUSH1 0x0 DUP1 RETURNDATACOPY RETURNDATASIZE PUSH1 0x0 REVERT JUMPDEST POP POP POP POP PUSH1 0x40 MLOAD RETURNDATASIZE PUSH1 0x1F NOT PUSH1 0x1F DUP3 ADD AND DUP3 ADD DUP1 PUSH1 0x40 MSTORE POP DUP2 ADD SWAP1 PUSH2 0xDF8 SWAP2 SWAP1 PUSH2 0x1269 JUMP JUMPDEST ISZERO JUMPDEST PUSH2 0xE65 JUMPI PUSH1 0x40 MLOAD PUSH3 0x461BCD PUSH1 0xE5 SHL DUP2 MSTORE PUSH1 0x20 PUSH1 0x4 DUP3 ADD MSTORE PUSH1 0x36 PUSH1 0x24 DUP3 ADD MSTORE PUSH32 0x5361666545524332303A20617070726F76652066726F6D206E6F6E2D7A65726F PUSH1 0x44 DUP3 ADD MSTORE PUSH22 0x20746F206E6F6E2D7A65726F20616C6C6F77616E6365 PUSH1 0x50 SHL PUSH1 0x64 DUP3 ADD MSTORE PUSH1 0x84 ADD PUSH2 0x3D2 JUMP JUMPDEST PUSH1 0x40 MLOAD PUSH1 0x1 PUSH1 0x1 PUSH1 0xA0 SHL SUB DUP4 AND PUSH1 0x24 DUP3 ADD MSTORE PUSH1 0x44 DUP2 ADD DUP3 SWAP1 MSTORE PUSH2 0xD7B SWAP1 DUP5 SWAP1 PUSH4 0x95EA7B3 PUSH1 0xE0 SHL SWAP1 PUSH1 0x64 ADD PUSH2 0xB5E JUMP JUMPDEST PUSH1 0x40 DUP1 MLOAD PUSH1 0x20 DUP2 ADD SWAP1 SWAP2 MSTORE PUSH1 0x0 DUP2 MSTORE PUSH1 0x40 MLOAD DUP1 PUSH1 0x20 ADD PUSH1 0x40 MSTORE DUP1 DUP4 DUP6 PUSH1 0x0 ADD MLOAD PUSH2 0xC74 SWAP2 SWAP1 PUSH2 0x146C JUMP JUMPDEST DUP1 MLOAD PUSH1 0x0 SWAP1 PUSH2 0x14B SWAP1 PUSH8 0xDE0B6B3A7640000 SWAP1 PUSH2 0x148B JUMP JUMPDEST PUSH1 0x60 PUSH2 0xB22 DUP5 DUP5 PUSH1 0x0 DUP6 DUP6 PUSH1 0x1 PUSH1 0x1 PUSH1 0xA0 SHL SUB DUP6 AND EXTCODESIZE PUSH2 0xF39 JUMPI PUSH1 0x40 MLOAD PUSH3 0x461BCD PUSH1 0xE5 SHL DUP2 MSTORE PUSH1 0x20 PUSH1 0x4 DUP3 ADD MSTORE PUSH1 0x1D PUSH1 0x24 DUP3 ADD MSTORE PUSH32 0x416464726573733A2063616C6C20746F206E6F6E2D636F6E7472616374000000 PUSH1 0x44 DUP3 ADD MSTORE PUSH1 0x64 ADD PUSH2 0x3D2 JUMP JUMPDEST PUSH1 0x0 DUP1 DUP7 PUSH1 0x1 PUSH1 0x1 PUSH1 0xA0 SHL SUB AND DUP6 DUP8 PUSH1 0x40 MLOAD PUSH2 0xF55 SWAP2 SWAP1 PUSH2 0x14C5 JUMP JUMPDEST PUSH1 0x0 PUSH1 0x40 MLOAD DUP1 DUP4 SUB DUP2 DUP6 DUP8 GAS CALL SWAP3 POP POP POP RETURNDATASIZE DUP1 PUSH1 0x0 DUP2 EQ PUSH2 0xF92 JUMPI PUSH1 0x40 MLOAD SWAP2 POP PUSH1 0x1F NOT PUSH1 0x3F RETURNDATASIZE ADD AND DUP3 ADD PUSH1 0x40 MSTORE RETURNDATASIZE DUP3 MSTORE RETURNDATASIZE PUSH1 0x0 PUSH1 0x20 DUP5 ADD RETURNDATACOPY PUSH2 0xF97 JUMP JUMPDEST PUSH1 0x60 SWAP2 POP JUMPDEST POP SWAP2 POP SWAP2 POP PUSH2 0xFA7 DUP3 DUP3 DUP7 PUSH2 0xFB2 JUMP JUMPDEST SWAP8 SWAP7 POP POP POP POP POP POP POP JUMP JUMPDEST PUSH1 0x60 DUP4 ISZERO PUSH2 0xFC1 JUMPI POP DUP2 PUSH2 0x938 JUMP JUMPDEST DUP3 MLOAD ISZERO PUSH2 0xFD1 JUMPI DUP3 MLOAD DUP1 DUP5 PUSH1 0x20 ADD REVERT JUMPDEST DUP2 PUSH1 0x40 MLOAD PUSH3 0x461BCD PUSH1 0xE5 SHL DUP2 MSTORE PUSH1 0x4 ADD PUSH2 0x3D2 SWAP2 SWAP1 PUSH2 0x12DB JUMP JUMPDEST PUSH1 0x40 MLOAD DUP1 PUSH2 0x140 ADD PUSH1 0x40 MSTORE DUP1 PUSH1 0x0 DUP2 MSTORE PUSH1 0x20 ADD PUSH1 0x0 DUP2 MSTORE PUSH1 0x20 ADD PUSH1 0x0 DUP2 MSTORE PUSH1 0x20 ADD PUSH1 0x0 DUP2 MSTORE PUSH1 0x20 ADD PUSH1 0x0 DUP2 MSTORE PUSH1 0x20 ADD PUSH1 0x0 DUP2 MSTORE PUSH1 0x20 ADD PUSH2 0x1037 PUSH1 0x40 MLOAD DUP1 PUSH1 0x20 ADD PUSH1 0x40 MSTORE DUP1 PUSH1 0x0 DUP2 MSTORE POP SWAP1 JUMP JUMPDEST DUP2 MSTORE PUSH1 0x20 ADD PUSH2 0x1052 PUSH1 0x40 MLOAD DUP1 PUSH1 0x20 ADD PUSH1 0x40 MSTORE DUP1 PUSH1 0x0 DUP2 MSTORE POP SWAP1 JUMP JUMPDEST DUP2 MSTORE PUSH1 0x20 ADD PUSH2 0x106D PUSH1 0x40 MLOAD DUP1 PUSH1 0x20 ADD PUSH1 0x40 MSTORE DUP1 PUSH1 0x0 DUP2 MSTORE POP SWAP1 JUMP JUMPDEST DUP2 MSTORE PUSH1 0x20 ADD PUSH2 0x1088 PUSH1 0x40 MLOAD DUP1 PUSH1 0x20 ADD PUSH1 0x40 MSTORE DUP1 PUSH1 0x0 DUP2 MSTORE POP SWAP1 JUMP JUMPDEST SWAP1 MSTORE SWAP1 JUMP JUMPDEST PUSH4 0x4E487B71 PUSH1 0xE0 SHL PUSH1 0x0 MSTORE PUSH1 0x41 PUSH1 0x4 MSTORE PUSH1 0x24 PUSH1 0x0 REVERT JUMPDEST PUSH1 0x40 MLOAD PUSH1 0x1F DUP3 ADD PUSH1 0x1F NOT AND DUP2 ADD PUSH8 0xFFFFFFFFFFFFFFFF DUP2 GT DUP3 DUP3 LT OR ISZERO PUSH2 0x10CC JUMPI PUSH2 0x10CC PUSH2 0x108D JUMP JUMPDEST PUSH1 0x40 MSTORE SWAP2 SWAP1 POP JUMP JUMPDEST PUSH1 0x0 DUP1 PUSH1 0x40 DUP4 DUP6 SUB SLT ISZERO PUSH2 0x10E7 JUMPI PUSH1 0x0 DUP1 REVERT JUMPDEST DUP3 CALLDATALOAD SWAP2 POP PUSH1 0x20 DUP1 DUP5 ADD CALLDATALOAD PUSH8 0xFFFFFFFFFFFFFFFF DUP1 DUP3 GT ISZERO PUSH2 0x1107 JUMPI PUSH1 0x0 DUP1 REVERT JUMPDEST DUP2 DUP7 ADD SWAP2 POP DUP7 PUSH1 0x1F DUP4 ADD SLT PUSH2 0x111B JUMPI PUSH1 0x0 DUP1 REVERT JUMPDEST DUP2 CALLDATALOAD DUP2 DUP2 GT ISZERO PUSH2 0x112D JUMPI PUSH2 0x112D PUSH2 0x108D JUMP JUMPDEST PUSH2 0x113F PUSH1 0x1F DUP3 ADD PUSH1 0x1F NOT AND DUP6 ADD PUSH2 0x10A3 JUMP JUMPDEST SWAP2 POP DUP1 DUP3 MSTORE DUP8 DUP5 DUP3 DUP6 ADD ADD GT ISZERO PUSH2 0x1155 JUMPI PUSH1 0x0 DUP1 REVERT JUMPDEST DUP1 DUP5 DUP5 ADD DUP6 DUP5 ADD CALLDATACOPY PUSH1 0x0 DUP5 DUP3 DUP5 ADD ADD MSTORE POP DUP1 SWAP4 POP POP POP POP SWAP3 POP SWAP3 SWAP1 POP JUMP JUMPDEST PUSH1 0x1 PUSH1 0x1 PUSH1 0xA0 SHL SUB DUP2 AND DUP2 EQ PUSH2 0x1188 JUMPI PUSH1 0x0 DUP1 REVERT JUMPDEST POP JUMP JUMPDEST PUSH1 0x0 DUP1 PUSH1 0x0 DUP1 PUSH1 0x0 PUSH1 0x80 DUP7 DUP9 SUB SLT ISZERO PUSH2 0x11A3 JUMPI PUSH1 0x0 DUP1 REVERT JUMPDEST DUP6 CALLDATALOAD SWAP5 POP PUSH1 0x20 DUP7 ADD CALLDATALOAD PUSH2 0x11B5 DUP2 PUSH2 0x1173 JUMP JUMPDEST SWAP4 POP PUSH1 0x40 DUP7 ADD CALLDATALOAD SWAP3 POP PUSH1 0x60 DUP7 ADD CALLDATALOAD PUSH8 0xFFFFFFFFFFFFFFFF DUP1 DUP3 GT ISZERO PUSH2 0x11D9 JUMPI PUSH1 0x0 DUP1 REVERT JUMPDEST DUP2 DUP9 ADD SWAP2 POP DUP9 PUSH1 0x1F DUP4 ADD SLT PUSH2 0x11ED JUMPI PUSH1 0x0 DUP1 REVERT JUMPDEST DUP2 CALLDATALOAD DUP2 DUP2 GT ISZERO PUSH2 0x11FC JUMPI PUSH1 0x0 DUP1 REVERT JUMPDEST DUP10 PUSH1 0x20 DUP3 DUP6 ADD ADD GT ISZERO PUSH2 0x120E JUMPI PUSH1 0x0 DUP1 REVERT JUMPDEST SWAP7 SWAP10 SWAP6 SWAP9 POP SWAP4 SWAP7 POP PUSH1 0x20 ADD SWAP5 SWAP4 SWAP3 POP POP POP JUMP JUMPDEST DUP1 ISZERO ISZERO DUP2 EQ PUSH2 0x1188 JUMPI PUSH1 0x0 DUP1 REVERT JUMPDEST PUSH1 0x0 PUSH1 0x20 DUP3 DUP5 SUB SLT ISZERO PUSH2 0x1241 JUMPI PUSH1 0x0 DUP1 REVERT JUMPDEST DUP2 CALLDATALOAD PUSH2 0x938 DUP2 PUSH2 0x1221 JUMP JUMPDEST PUSH1 0x0 PUSH1 0x20 DUP3 DUP5 SUB SLT ISZERO PUSH2 0x125E JUMPI PUSH1 0x0 DUP1 REVERT JUMPDEST DUP2 MLOAD PUSH2 0x938 DUP2 PUSH2 0x1173 JUMP JUMPDEST PUSH1 0x0 PUSH1 0x20 DUP3 DUP5 SUB SLT ISZERO PUSH2 0x127B JUMPI PUSH1 0x0 DUP1 REVERT JUMPDEST POP MLOAD SWAP2 SWAP1 POP JUMP JUMPDEST PUSH4 0x4E487B71 PUSH1 0xE0 SHL PUSH1 0x0 MSTORE PUSH1 0x11 PUSH1 0x4 MSTORE PUSH1 0x24 PUSH1 0x0 REVERT JUMPDEST PUSH1 0x0 DUP3 DUP3 LT ISZERO PUSH2 0x12AA JUMPI PUSH2 0x12AA PUSH2 0x1282 JUMP JUMPDEST POP SUB SWAP1 JUMP JUMPDEST PUSH1 0x0 JUMPDEST DUP4 DUP2 LT ISZERO PUSH2 0x12CA JUMPI DUP2 DUP2 ADD MLOAD DUP4 DUP3 ADD MSTORE PUSH1 0x20 ADD PUSH2 0x12B2 JUMP JUMPDEST DUP4 DUP2 GT ISZERO PUSH2 0xB95 JUMPI POP POP PUSH1 0x0 SWAP2 ADD MSTORE JUMP JUMPDEST PUSH1 0x20 DUP2 MSTORE PUSH1 0x0 DUP3 MLOAD DUP1 PUSH1 0x20 DUP5 ADD MSTORE PUSH2 0x12FA DUP2 PUSH1 0x40 DUP6 ADD PUSH1 0x20 DUP8 ADD PUSH2 0x12AF JUMP JUMPDEST PUSH1 0x1F ADD PUSH1 0x1F NOT AND SWAP2 SWAP1 SWAP2 ADD PUSH1 0x40 ADD SWAP3 SWAP2 POP POP JUMP JUMPDEST PUSH1 0x0 PUSH1 0x20 DUP3 DUP5 SUB SLT ISZERO PUSH2 0x1320 JUMPI PUSH1 0x0 DUP1 REVERT JUMPDEST DUP2 MLOAD PUSH2 0x938 DUP2 PUSH2 0x1221 JUMP JUMPDEST PUSH1 0x0 PUSH1 0x20 DUP1 DUP4 DUP6 SUB SLT ISZERO PUSH2 0x133E JUMPI PUSH1 0x0 DUP1 REVERT JUMPDEST DUP3 MLOAD PUSH8 0xFFFFFFFFFFFFFFFF DUP1 DUP3 GT ISZERO PUSH2 0x1356 JUMPI PUSH1 0x0 DUP1 REVERT JUMPDEST DUP2 DUP6 ADD SWAP2 POP DUP6 PUSH1 0x1F DUP4 ADD SLT PUSH2 0x136A JUMPI PUSH1 0x0 DUP1 REVERT JUMPDEST DUP2 MLOAD DUP2 DUP2 GT ISZERO PUSH2 0x137C JUMPI PUSH2 0x137C PUSH2 0x108D JUMP JUMPDEST DUP1 PUSH1 0x5 SHL SWAP2 POP PUSH2 0x138D DUP5 DUP4 ADD PUSH2 0x10A3 JUMP JUMPDEST DUP2 DUP2 MSTORE SWAP2 DUP4 ADD DUP5 ADD SWAP2 DUP5 DUP2 ADD SWAP1 DUP9 DUP5 GT ISZERO PUSH2 0x13A7 JUMPI PUSH1 0x0 DUP1 REVERT JUMPDEST SWAP4 DUP6 ADD SWAP4 JUMPDEST DUP4 DUP6 LT ISZERO PUSH2 0x13D1 JUMPI DUP5 MLOAD SWAP3 POP PUSH2 0x13C1 DUP4 PUSH2 0x1173 JUMP JUMPDEST DUP3 DUP3 MSTORE SWAP4 DUP6 ADD SWAP4 SWAP1 DUP6 ADD SWAP1 PUSH2 0x13AC JUMP JUMPDEST SWAP9 SWAP8 POP POP POP POP POP POP POP POP JUMP JUMPDEST PUSH4 0x4E487B71 PUSH1 0xE0 SHL PUSH1 0x0 MSTORE PUSH1 0x32 PUSH1 0x4 MSTORE PUSH1 0x24 PUSH1 0x0 REVERT JUMPDEST PUSH1 0x0 DUP1 PUSH1 0x0 DUP1 PUSH1 0x80 DUP6 DUP8 SUB SLT ISZERO PUSH2 0x1409 JUMPI PUSH1 0x0 DUP1 REVERT JUMPDEST POP POP DUP3 MLOAD PUSH1 0x20 DUP5 ADD MLOAD PUSH1 0x40 DUP6 ADD MLOAD PUSH1 0x60 SWAP1 SWAP6 ADD MLOAD SWAP2 SWAP7 SWAP1 SWAP6 POP SWAP1 SWAP3 POP SWAP1 POP JUMP JUMPDEST PUSH1 0x0 DUP1 PUSH1 0x0 PUSH1 0x60 DUP5 DUP7 SUB SLT ISZERO PUSH2 0x143E JUMPI PUSH1 0x0 DUP1 REVERT JUMPDEST DUP4 MLOAD PUSH2 0x1449 DUP2 PUSH2 0x1221 JUMP JUMPDEST PUSH1 0x20 DUP6 ADD MLOAD PUSH1 0x40 DUP7 ADD MLOAD SWAP2 SWAP5 POP SWAP3 POP PUSH2 0x1461 DUP2 PUSH2 0x1221 JUMP JUMPDEST DUP1 SWAP2 POP POP SWAP3 POP SWAP3 POP SWAP3 JUMP JUMPDEST PUSH1 0x0 DUP2 PUSH1 0x0 NOT DIV DUP4 GT DUP3 ISZERO ISZERO AND ISZERO PUSH2 0x1486 JUMPI PUSH2 0x1486 PUSH2 0x1282 JUMP JUMPDEST POP MUL SWAP1 JUMP JUMPDEST PUSH1 0x0 DUP3 PUSH2 0x14A8 JUMPI PUSH4 0x4E487B71 PUSH1 0xE0 SHL PUSH1 0x0 MSTORE PUSH1 0x12 PUSH1 0x4 MSTORE PUSH1 0x24 PUSH1 0x0 REVERT JUMPDEST POP DIV SWAP1 JUMP JUMPDEST PUSH1 0x0 DUP3 NOT DUP3 GT ISZERO PUSH2 0x14C0 JUMPI PUSH2 0x14C0 PUSH2 0x1282 JUMP JUMPDEST POP ADD SWAP1 JUMP JUMPDEST PUSH1 0x0 DUP3 MLOAD PUSH2 0x14D7 DUP2 DUP5 PUSH1 0x20 DUP8 ADD PUSH2 0x12AF JUMP JUMPDEST SWAP2 SWAP1 SWAP2 ADD SWAP3 SWAP2 POP POP JUMP INVALID LOG2 PUSH5 0x6970667358 0x22 SLT KECCAK256 PUSH19 0xC7A72E0571517BDD277418F108ED13CE9EFF98 0xD6 PUSH15 0x9A3A82CDD6EFC2ABF4BC64736F6C63 NUMBER STOP ADDMOD EXP STOP CALLER ","sha1":"1df6b526fb74eda68bd455d5782af307c4839590","source":"// SPDX-License-Identifier: GPL-3.0-or-later\npragma solidity 0.8.10;\n\nimport \"@openzeppelin/contracts/token/ERC20/utils/SafeERC20.sol\";\nimport \"@openzeppelin/contracts/token/ERC20/IERC20.sol\";\n\nimport \"../../../../libraries/AccountEncoding.sol\";\n\nimport \"../../../../interfaces/actions/topup/ITopUpHandler.sol\";\nimport \"../../../../interfaces/ICTokenRegistry.sol\";\nimport \"../../../../interfaces/vendor/CToken.sol\";\nimport \"../../../../interfaces/vendor/ExponentialNoError.sol\";\nimport \"../../../../interfaces/vendor/Comptroller.sol\";\nimport \"../../../../libraries/Errors.sol\";\nimport \"../../../../libraries/ScaledMath.sol\";\nimport \"../../../../libraries/UncheckedMath.sol\";\n\ncontract CompoundHandler is ITopUpHandler, ExponentialNoError {\n    using ScaledMath for uint256;\n    using UncheckedMath for uint256;\n    using SafeERC20 for IERC20;\n    using AccountEncoding for bytes32;\n\n    struct AccountLiquidityLocalVars {\n        uint256 sumCollateral;\n        uint256 sumBorrow;\n        uint256 cTokenBalance;\n        uint256 borrowBalance;\n        uint256 exchangeRateMantissa;\n        uint256 oraclePriceMantissa;\n        Exp collateralFactor;\n        Exp exchangeRate;\n        Exp oraclePrice;\n        Exp tokensToDenom;\n    }\n\n    Comptroller public immutable comptroller;\n    ICTokenRegistry public immutable cTokenRegistry;\n\n    constructor(address comptrollerAddress, address _cTokenRegistry) {\n        comptroller = Comptroller(comptrollerAddress);\n        cTokenRegistry = ICTokenRegistry(_cTokenRegistry);\n    }\n\n    /**\n     * @notice Executes the top-up of a position.\n     * @param account Account holding the position.\n     * @param underlying Underlying for top-up.\n     * @param amount Amount to top-up by.\n     */\n    function topUp(\n        bytes32 account,\n        address underlying,\n        uint256 amount,\n        bytes calldata extra\n    ) external payable override {\n        bool repayDebt = abi.decode(extra, (bool));\n        address ctoken = cTokenRegistry.fetchCToken(underlying);\n        uint256 initialTokens = IERC20(ctoken).balanceOf(address(this));\n\n        address addr = account.addr();\n\n        if (repayDebt) {\n            amount -= _repayAnyDebt(addr, underlying, amount, ctoken);\n            if (amount == 0) return;\n        }\n\n        uint256 err;\n        if (underlying == address(0)) {\n            CEthToken(ctoken).mint{value: amount}();\n        } else {\n            IERC20(underlying).safeTransferFrom(msg.sender, address(this), amount);\n            _approve(underlying, address(ctoken));\n            err = CToken(ctoken).mint(amount);\n        }\n        require(err == 0, Error.FAILED_MINT);\n\n        uint256 newTokens = IERC20(ctoken).balanceOf(address(this));\n        uint256 mintedTokens = newTokens - initialTokens;\n\n        bool success = IERC20(ctoken).transfer(addr, mintedTokens);\n        require(success, Error.FAILED_TRANSFER);\n    }\n\n    /**\n     * @notice Returns the collateralization ratio of the user.\n     *         A result of 1.5 (x1e18) means that the user has a 150% collateralization ratio.\n     * @param account account for which to check the factor.\n     * @return User factor.\n     */\n    function getUserFactor(bytes32 account, bytes memory) external view override returns (uint256) {\n        (uint256 sumCollateral, uint256 sumBorrow) = _getAccountBorrowsAndSupply(account.addr());\n        if (sumBorrow == 0) {\n            return type(uint256).max;\n        }\n        return sumCollateral.scaledDiv(sumBorrow);\n    }\n\n    /**\n     * @notice Repays any existing debt for the given underlying.\n     * @param account Account for which to repay the debt.\n     * @param underlying The underlying token to repay the debt for.\n     * @param maximum The maximum amount of debt to repay.\n     * @return The amount of debt that was repaid in the underlying.\n     */\n    function _repayAnyDebt(\n        address account,\n        address underlying,\n        uint256 maximum,\n        address ctoken\n    ) internal returns (uint256) {\n        uint256 debt = CToken(ctoken).borrowBalanceCurrent(account);\n        if (debt == 0) return 0;\n        if (debt > maximum) debt = maximum;\n\n        uint256 err;\n        if (underlying == address(0)) {\n            CEthToken(ctoken).repayBorrowBehalf{value: debt}(account);\n        } else {\n            IERC20(underlying).safeTransferFrom(msg.sender, address(this), debt);\n            _approve(underlying, address(ctoken));\n            err = CToken(ctoken).repayBorrowBehalf(account, debt);\n        }\n        require(err == 0, Error.FAILED_REPAY_BORROW);\n\n        return debt;\n    }\n\n    /**\n     * @dev Approves infinite spending for the given spender.\n     * @param token The token to approve for.\n     * @param spender The spender to approve.\n     */\n    function _approve(address token, address spender) internal {\n        if (IERC20(token).allowance(address(this), spender) > 0) return;\n        IERC20(token).safeApprove(spender, type(uint256).max);\n    }\n\n    function _getAccountBorrowsAndSupply(address account) internal view returns (uint256, uint256) {\n        AccountLiquidityLocalVars memory vars; // Holds all our calculation results\n        uint256 oErr;\n\n        Comptroller comptroller_ = comptroller;\n        PriceOracle oracle = comptroller_.oracle();\n        // For each asset the account is in\n        CToken[] memory assets = comptroller_.getAssetsIn(account);\n        uint256 length_ = assets.length;\n        for (uint256 i; i < length_; i = i.uncheckedInc()) {\n            CToken asset = assets[i];\n\n            // Read the balances and exchange rate from the cToken\n            (oErr, vars.cTokenBalance, vars.borrowBalance, vars.exchangeRateMantissa) = asset\n                .getAccountSnapshot(account);\n            require(oErr == 0, Error.FAILED_METHOD_CALL);\n            (, uint256 collateralFactorMantissa, ) = comptroller_.markets(address(asset));\n            vars.collateralFactor = Exp({mantissa: collateralFactorMantissa});\n            vars.exchangeRate = Exp({mantissa: vars.exchangeRateMantissa});\n\n            // Get the normalized price of the asset\n            vars.oraclePriceMantissa = oracle.getUnderlyingPrice(asset);\n            require(vars.oraclePriceMantissa != 0, Error.FAILED_METHOD_CALL);\n            vars.oraclePrice = Exp({mantissa: vars.oraclePriceMantissa});\n\n            // Pre-compute a conversion factor from tokens -> ether (normalized price value)\n            vars.tokensToDenom = mul_(\n                mul_(vars.collateralFactor, vars.exchangeRate),\n                vars.oraclePrice\n            );\n\n            // sumCollateral += tokensToDenom * cTokenBalance\n            vars.sumCollateral = mul_ScalarTruncateAddUInt(\n                vars.tokensToDenom,\n                vars.cTokenBalance,\n                vars.sumCollateral\n            );\n\n            // sumBorrow += oraclePrice * borrowBalance\n            vars.sumBorrow = mul_ScalarTruncateAddUInt(\n                vars.oraclePrice,\n                vars.borrowBalance,\n                vars.sumBorrow\n            );\n        }\n\n        return (vars.sumCollateral, vars.sumBorrow);\n    }\n}\n","sourcePath":"contracts/actions/topup/handlers/CompoundHandler.sol","type":"contract","deployment":{"address":"0x91Dc1218c5701455FA440937fC7331F7E855b9Ab","chainid":"42","blockHeight":33231622}}