{"abi":[{"inputs":[{"internalType":"address","name":"newAddressProviderAddress_","type":"address"}],"stateMutability":"nonpayable","type":"constructor","name":"constructor"},{"anonymous":false,"inputs":[{"indexed":false,"internalType":"address","name":"user","type":"address"},{"indexed":false,"internalType":"address","name":"oldPool","type":"address"},{"indexed":false,"internalType":"address","name":"newPool","type":"address"},{"indexed":false,"internalType":"uint256","name":"lpTokenAmount","type":"uint256"}],"name":"Migrated","type":"event"},{"inputs":[{"internalType":"address","name":"oldPoolAddress_","type":"address"}],"name":"migrate","outputs":[],"stateMutability":"nonpayable","type":"function"},{"inputs":[{"internalType":"address[]","name":"oldPoolAddresses_","type":"address[]"}],"name":"migrateAll","outputs":[],"stateMutability":"nonpayable","type":"function"},{"stateMutability":"payable","type":"receive"}],"bytecode":"60806040523480156200001157600080fd5b50604051620011be380380620011be8339810160408190526200003491620005af565b6000816001600160a01b031663c5c63e656040518163ffffffff1660e01b8152600401600060405180830381865afa15801562000075573d6000803e3d6000fd5b505050506040513d6000823e601f3d908101601f191682016040526200009f9190810190620005e3565b905060005b8151811015620001bd576000828281518110620000c557620000c5620006b5565b602002602001015190506000816001600160a01b0316639816f4736040518163ffffffff1660e01b8152600401602060405180830381865afa15801562000110573d6000803e3d6000fd5b505050506040513d601f19601f82011682018060405250810190620001369190620005af565b6001600160a01b03818116600081815260208190526040902080546001600160a01b03191692861692909217909155909150620001755750506200019f565b6200019c82600019836001600160a01b0316620001c660201b62000475179092919060201c565b50505b620001b5816200031960201b620005bd1760201c565b9050620000a4565b5050506200078f565b801580620002445750604051636eb1769f60e11b81523060048201526001600160a01b03838116602483015284169063dd62ed3e90604401602060405180830381865afa1580156200021c573d6000803e3d6000fd5b505050506040513d601f19601f82011682018060405250810190620002429190620006cb565b155b620002bc5760405162461bcd60e51b815260206004820152603660248201527f5361666545524332303a20617070726f76652066726f6d206e6f6e2d7a65726f60448201527f20746f206e6f6e2d7a65726f20616c6c6f77616e63650000000000000000000060648201526084015b60405180910390fd5b604080516001600160a01b038416602482015260448082018490528251808303909101815260649091019091526020810180516001600160e01b0390811663095ea7b360e01b17909152620003149185916200031f16565b505050565b60010190565b60006200037b826040518060400160405280602081526020017f5361666545524332303a206c6f772d6c6576656c2063616c6c206661696c6564815250856001600160a01b0316620003fd60201b620005c3179092919060201c565b8051909150156200031457808060200190518101906200039c9190620006e5565b620003145760405162461bcd60e51b815260206004820152602a60248201527f5361666545524332303a204552433230206f7065726174696f6e20646964206e6044820152691bdd081cdd58d8d9595960b21b6064820152608401620002b3565b60606200040e848460008562000418565b90505b9392505050565b6060824710156200047b5760405162461bcd60e51b815260206004820152602660248201527f416464726573733a20696e73756666696369656e742062616c616e636520666f6044820152651c8818d85b1b60d21b6064820152608401620002b3565b6001600160a01b0385163b620004d45760405162461bcd60e51b815260206004820152601d60248201527f416464726573733a2063616c6c20746f206e6f6e2d636f6e74726163740000006044820152606401620002b3565b600080866001600160a01b03168587604051620004f291906200073c565b60006040518083038185875af1925050503d806000811462000531576040519150601f19603f3d011682016040523d82523d6000602084013e62000536565b606091505b5090925090506200054982828662000554565b979650505050505050565b606083156200056557508162000411565b825115620005765782518084602001fd5b8160405162461bcd60e51b8152600401620002b391906200075a565b80516001600160a01b0381168114620005aa57600080fd5b919050565b600060208284031215620005c257600080fd5b620004118262000592565b634e487b7160e01b600052604160045260246000fd5b60006020808385031215620005f757600080fd5b82516001600160401b03808211156200060f57600080fd5b818501915085601f8301126200062457600080fd5b815181811115620006395762000639620005cd565b8060051b604051601f19603f83011681018181108582111715620006615762000661620005cd565b6040529182528482019250838101850191888311156200068057600080fd5b938501935b82851015620006a957620006998562000592565b8452938501939285019262000685565b98975050505050505050565b634e487b7160e01b600052603260045260246000fd5b600060208284031215620006de57600080fd5b5051919050565b600060208284031215620006f857600080fd5b815180151581146200041157600080fd5b60005b83811015620007265781810151838201526020016200070c565b8381111562000736576000848401525b50505050565b600082516200075081846020870162000709565b9190910192915050565b60208152600082518060208401526200077b81604085016020870162000709565b601f01601f19169190910160400192915050565b610a1f806200079f6000396000f3fe60806040526004361061002d5760003560e01c8063680b3bdf14610039578063ce5494bb1461005b57600080fd5b3661003457005b600080fd5b34801561004557600080fd5b50610059610054366004610856565b61007b565b005b34801561006757600080fd5b506100596100763660046108e3565b6100bd565b60005b818110156100b8576100b083838381811061009b5761009b610900565b905060200201602081019061007691906108e3565b60010161007e565b505050565b60008190506000816001600160a01b0316638214f5a46040518163ffffffff1660e01b8152600401602060405180830381865afa158015610102573d6000803e3d6000fd5b505050506040513d601f19601f820116820180604052508101906101269190610916565b6040516370a0823160e01b81523360048201529091506000906001600160a01b038316906370a0823190602401602060405180830381865afa158015610170573d6000803e3d6000fd5b505050506040513d601f19601f820116820180604052508101906101949190610933565b9050806101d75760405162461bcd60e51b815260206004820152600c60248201526b4e6f204c5020546f6b656e7360a01b60448201526064015b60405180910390fd5b604051636c0bc50760e11b8152336004820152602481018290526001600160a01b0384169063d8178a0e90604401602060405180830381865afa158015610222573d6000803e3d6000fd5b505050506040513d601f19601f820116820180604052508101906102469190610933565b1561028a5760405162461bcd60e51b815260206004820152601460248201527307769746864726177616c20666565206e6f7420360641b60448201526064016101ce565b61029f6001600160a01b0383163330846105dc565b60405163db006a7560e01b8152600481018290526000906001600160a01b0385169063db006a75906024016020604051808303816000875af11580156102e9573d6000803e3d6000fd5b505050506040513d601f19601f8201168201806040525081019061030d9190610933565b90506000846001600160a01b0316639816f4736040518163ffffffff1660e01b8152600401602060405180830381865afa15801561034f573d6000803e3d6000fd5b505050506040513d601f19601f820116820180604052508101906103739190610916565b6001600160a01b03808216600081815260208190526040812054939450929091169190156103a25760006103a4565b835b6040516317a790f160e11b8152336004820152602481018690529091506001600160a01b03831690632f4f21e290839060440160206040518083038185885af11580156103f5573d6000803e3d6000fd5b50505050506040513d601f19601f8201168201806040525081019061041a9190610933565b50604080513381526001600160a01b0389811660208301528416818301526060810187905290517fc7ea1a149fa86d488de0d46911cc7c13bc51bbab90c2481c4318bc4083a354229181900360800190a15050505050505050565b8015806104ef5750604051636eb1769f60e11b81523060048201526001600160a01b03838116602483015284169063dd62ed3e90604401602060405180830381865afa1580156104c9573d6000803e3d6000fd5b505050506040513d601f19601f820116820180604052508101906104ed9190610933565b155b61055a5760405162461bcd60e51b815260206004820152603660248201527f5361666545524332303a20617070726f76652066726f6d206e6f6e2d7a65726f60448201527520746f206e6f6e2d7a65726f20616c6c6f77616e636560501b60648201526084016101ce565b6040516001600160a01b0383166024820152604481018290526100b890849063095ea7b360e01b906064015b60408051601f198184030181529190526020810180516001600160e01b03166001600160e01b03199093169290921790915261061a565b60010190565b60606105d284846000856106ec565b90505b9392505050565b6040516001600160a01b03808516602483015283166044820152606481018290526106149085906323b872dd60e01b90608401610586565b50505050565b600061066f826040518060400160405280602081526020017f5361666545524332303a206c6f772d6c6576656c2063616c6c206661696c6564815250856001600160a01b03166105c39092919063ffffffff16565b8051909150156100b8578080602001905181019061068d919061094c565b6100b85760405162461bcd60e51b815260206004820152602a60248201527f5361666545524332303a204552433230206f7065726174696f6e20646964206e6044820152691bdd081cdd58d8d9595960b21b60648201526084016101ce565b60608247101561074d5760405162461bcd60e51b815260206004820152602660248201527f416464726573733a20696e73756666696369656e742062616c616e636520666f6044820152651c8818d85b1b60d21b60648201526084016101ce565b6001600160a01b0385163b6107a45760405162461bcd60e51b815260206004820152601d60248201527f416464726573733a2063616c6c20746f206e6f6e2d636f6e747261637400000060448201526064016101ce565b600080866001600160a01b031685876040516107c0919061099a565b60006040518083038185875af1925050503d80600081146107fd576040519150601f19603f3d011682016040523d82523d6000602084013e610802565b606091505b509150915061081282828661081d565b979650505050505050565b6060831561082c5750816105d5565b82511561083c5782518084602001fd5b8160405162461bcd60e51b81526004016101ce91906109b6565b6000806020838503121561086957600080fd5b823567ffffffffffffffff8082111561088157600080fd5b818501915085601f83011261089557600080fd5b8135818111156108a457600080fd5b8660208260051b85010111156108b957600080fd5b60209290920196919550909350505050565b6001600160a01b03811681146108e057600080fd5b50565b6000602082840312156108f557600080fd5b81356105d5816108cb565b634e487b7160e01b600052603260045260246000fd5b60006020828403121561092857600080fd5b81516105d5816108cb565b60006020828403121561094557600080fd5b5051919050565b60006020828403121561095e57600080fd5b815180151581146105d557600080fd5b60005b83811015610989578181015183820152602001610971565b838111156106145750506000910152565b600082516109ac81846020870161096e565b9190910192915050565b60208152600082518060208401526109d581604085016020870161096e565b601f01601f1916919091016040019291505056fea2646970667358221220c9cb26bd6b58f2c9adda2a1659a2f093d9ba9ef4558e5e924efa81aa0e60176864736f6c634300080a0033","bytecodeSha1":"0f5feacb4a05bb6ce475b89223174d3a62c4084d","compiler":{"evm_version":"london","optimizer":{"enabled":true,"runs":200},"version":"0.8.10+commit.fc410830"},"contractName":"PoolMigrationZap","language":"Solidity","natspec":{"kind":"dev","methods":{"migrate(address)":{"details":"The user must have balance in the pool given, otherwise transaction will revert.","notice":"Migrates a users balance from an old pool to a new pool.","params":{"oldPoolAddress_":"The old pool to migrate for the user."}},"migrateAll(address[])":{"details":"The user must have balance in all pools given, otherwise transaction will revert.","notice":"Migrates all of a users balance from the old pools to the new pools.","params":{"oldPoolAddresses_":"The list of old pools to migrate for the user."}}},"notice":"This is a Zap contract to assist in the migration from the V1 Mero Pools to the new Mero Pools.","version":1},"opcodes":"PUSH1 0x80 PUSH1 0x40 MSTORE PUSH1 0x4 CALLDATASIZE LT PUSH2 0x2D JUMPI PUSH1 0x0 CALLDATALOAD PUSH1 0xE0 SHR DUP1 PUSH4 0x680B3BDF EQ PUSH2 0x39 JUMPI DUP1 PUSH4 0xCE5494BB EQ PUSH2 0x5B JUMPI PUSH1 0x0 DUP1 REVERT JUMPDEST CALLDATASIZE PUSH2 0x34 JUMPI STOP JUMPDEST PUSH1 0x0 DUP1 REVERT JUMPDEST CALLVALUE DUP1 ISZERO PUSH2 0x45 JUMPI PUSH1 0x0 DUP1 REVERT JUMPDEST POP PUSH2 0x59 PUSH2 0x54 CALLDATASIZE PUSH1 0x4 PUSH2 0x856 JUMP JUMPDEST PUSH2 0x7B JUMP JUMPDEST STOP JUMPDEST CALLVALUE DUP1 ISZERO PUSH2 0x67 JUMPI PUSH1 0x0 DUP1 REVERT JUMPDEST POP PUSH2 0x59 PUSH2 0x76 CALLDATASIZE PUSH1 0x4 PUSH2 0x8E3 JUMP JUMPDEST PUSH2 0xBD JUMP JUMPDEST PUSH1 0x0 JUMPDEST DUP2 DUP2 LT ISZERO PUSH2 0xB8 JUMPI PUSH2 0xB0 DUP4 DUP4 DUP4 DUP2 DUP2 LT PUSH2 0x9B JUMPI PUSH2 0x9B PUSH2 0x900 JUMP JUMPDEST SWAP1 POP PUSH1 0x20 MUL ADD PUSH1 0x20 DUP2 ADD SWAP1 PUSH2 0x76 SWAP2 SWAP1 PUSH2 0x8E3 JUMP JUMPDEST PUSH1 0x1 ADD PUSH2 0x7E JUMP JUMPDEST POP POP POP JUMP JUMPDEST PUSH1 0x0 DUP2 SWAP1 POP PUSH1 0x0 DUP2 PUSH1 0x1 PUSH1 0x1 PUSH1 0xA0 SHL SUB AND PUSH4 0x8214F5A4 PUSH1 0x40 MLOAD DUP2 PUSH4 0xFFFFFFFF AND PUSH1 0xE0 SHL DUP2 MSTORE PUSH1 0x4 ADD PUSH1 0x20 PUSH1 0x40 MLOAD DUP1 DUP4 SUB DUP2 DUP7 GAS STATICCALL ISZERO DUP1 ISZERO PUSH2 0x102 JUMPI RETURNDATASIZE PUSH1 0x0 DUP1 RETURNDATACOPY RETURNDATASIZE PUSH1 0x0 REVERT JUMPDEST POP POP POP POP PUSH1 0x40 MLOAD RETURNDATASIZE PUSH1 0x1F NOT PUSH1 0x1F DUP3 ADD AND DUP3 ADD DUP1 PUSH1 0x40 MSTORE POP DUP2 ADD SWAP1 PUSH2 0x126 SWAP2 SWAP1 PUSH2 0x916 JUMP JUMPDEST PUSH1 0x40 MLOAD PUSH4 0x70A08231 PUSH1 0xE0 SHL DUP2 MSTORE CALLER PUSH1 0x4 DUP3 ADD MSTORE SWAP1 SWAP2 POP PUSH1 0x0 SWAP1 PUSH1 0x1 PUSH1 0x1 PUSH1 0xA0 SHL SUB DUP4 AND SWAP1 PUSH4 0x70A08231 SWAP1 PUSH1 0x24 ADD PUSH1 0x20 PUSH1 0x40 MLOAD DUP1 DUP4 SUB DUP2 DUP7 GAS STATICCALL ISZERO DUP1 ISZERO PUSH2 0x170 JUMPI RETURNDATASIZE PUSH1 0x0 DUP1 RETURNDATACOPY RETURNDATASIZE PUSH1 0x0 REVERT JUMPDEST POP POP POP POP PUSH1 0x40 MLOAD RETURNDATASIZE PUSH1 0x1F NOT PUSH1 0x1F DUP3 ADD AND DUP3 ADD DUP1 PUSH1 0x40 MSTORE POP DUP2 ADD SWAP1 PUSH2 0x194 SWAP2 SWAP1 PUSH2 0x933 JUMP JUMPDEST SWAP1 POP DUP1 PUSH2 0x1D7 JUMPI PUSH1 0x40 MLOAD PUSH3 0x461BCD PUSH1 0xE5 SHL DUP2 MSTORE PUSH1 0x20 PUSH1 0x4 DUP3 ADD MSTORE PUSH1 0xC PUSH1 0x24 DUP3 ADD MSTORE PUSH12 0x4E6F204C5020546F6B656E73 PUSH1 0xA0 SHL PUSH1 0x44 DUP3 ADD MSTORE PUSH1 0x64 ADD JUMPDEST PUSH1 0x40 MLOAD DUP1 SWAP2 SUB SWAP1 REVERT JUMPDEST PUSH1 0x40 MLOAD PUSH4 0x6C0BC507 PUSH1 0xE1 SHL DUP2 MSTORE CALLER PUSH1 0x4 DUP3 ADD MSTORE PUSH1 0x24 DUP2 ADD DUP3 SWAP1 MSTORE PUSH1 0x1 PUSH1 0x1 PUSH1 0xA0 SHL SUB DUP5 AND SWAP1 PUSH4 0xD8178A0E SWAP1 PUSH1 0x44 ADD PUSH1 0x20 PUSH1 0x40 MLOAD DUP1 DUP4 SUB DUP2 DUP7 GAS STATICCALL ISZERO DUP1 ISZERO PUSH2 0x222 JUMPI RETURNDATASIZE PUSH1 0x0 DUP1 RETURNDATACOPY RETURNDATASIZE PUSH1 0x0 REVERT JUMPDEST POP POP POP POP PUSH1 0x40 MLOAD RETURNDATASIZE PUSH1 0x1F NOT PUSH1 0x1F DUP3 ADD AND DUP3 ADD DUP1 PUSH1 0x40 MSTORE POP DUP2 ADD SWAP1 PUSH2 0x246 SWAP2 SWAP1 PUSH2 0x933 JUMP JUMPDEST ISZERO PUSH2 0x28A JUMPI PUSH1 0x40 MLOAD PUSH3 0x461BCD PUSH1 0xE5 SHL DUP2 MSTORE PUSH1 0x20 PUSH1 0x4 DUP3 ADD MSTORE PUSH1 0x14 PUSH1 0x24 DUP3 ADD MSTORE PUSH20 0x7769746864726177616C20666565206E6F74203 PUSH1 0x64 SHL PUSH1 0x44 DUP3 ADD MSTORE PUSH1 0x64 ADD PUSH2 0x1CE JUMP JUMPDEST PUSH2 0x29F PUSH1 0x1 PUSH1 0x1 PUSH1 0xA0 SHL SUB DUP4 AND CALLER ADDRESS DUP5 PUSH2 0x5DC JUMP JUMPDEST PUSH1 0x40 MLOAD PUSH4 0xDB006A75 PUSH1 0xE0 SHL DUP2 MSTORE PUSH1 0x4 DUP2 ADD DUP3 SWAP1 MSTORE PUSH1 0x0 SWAP1 PUSH1 0x1 PUSH1 0x1 PUSH1 0xA0 SHL SUB DUP6 AND SWAP1 PUSH4 0xDB006A75 SWAP1 PUSH1 0x24 ADD PUSH1 0x20 PUSH1 0x40 MLOAD DUP1 DUP4 SUB DUP2 PUSH1 0x0 DUP8 GAS CALL ISZERO DUP1 ISZERO PUSH2 0x2E9 JUMPI RETURNDATASIZE PUSH1 0x0 DUP1 RETURNDATACOPY RETURNDATASIZE PUSH1 0x0 REVERT JUMPDEST POP POP POP POP PUSH1 0x40 MLOAD RETURNDATASIZE PUSH1 0x1F NOT PUSH1 0x1F DUP3 ADD AND DUP3 ADD DUP1 PUSH1 0x40 MSTORE POP DUP2 ADD SWAP1 PUSH2 0x30D SWAP2 SWAP1 PUSH2 0x933 JUMP JUMPDEST SWAP1 POP PUSH1 0x0 DUP5 PUSH1 0x1 PUSH1 0x1 PUSH1 0xA0 SHL SUB AND PUSH4 0x9816F473 PUSH1 0x40 MLOAD DUP2 PUSH4 0xFFFFFFFF AND PUSH1 0xE0 SHL DUP2 MSTORE PUSH1 0x4 ADD PUSH1 0x20 PUSH1 0x40 MLOAD DUP1 DUP4 SUB DUP2 DUP7 GAS STATICCALL ISZERO DUP1 ISZERO PUSH2 0x34F JUMPI RETURNDATASIZE PUSH1 0x0 DUP1 RETURNDATACOPY RETURNDATASIZE PUSH1 0x0 REVERT JUMPDEST POP POP POP POP PUSH1 0x40 MLOAD RETURNDATASIZE PUSH1 0x1F NOT PUSH1 0x1F DUP3 ADD AND DUP3 ADD DUP1 PUSH1 0x40 MSTORE POP DUP2 ADD SWAP1 PUSH2 0x373 SWAP2 SWAP1 PUSH2 0x916 JUMP JUMPDEST PUSH1 0x1 PUSH1 0x1 PUSH1 0xA0 SHL SUB DUP1 DUP3 AND PUSH1 0x0 DUP2 DUP2 MSTORE PUSH1 0x20 DUP2 SWAP1 MSTORE PUSH1 0x40 DUP2 KECCAK256 SLOAD SWAP4 SWAP5 POP SWAP3 SWAP1 SWAP2 AND SWAP2 SWAP1 ISZERO PUSH2 0x3A2 JUMPI PUSH1 0x0 PUSH2 0x3A4 JUMP JUMPDEST DUP4 JUMPDEST PUSH1 0x40 MLOAD PUSH4 0x17A790F1 PUSH1 0xE1 SHL DUP2 MSTORE CALLER PUSH1 0x4 DUP3 ADD MSTORE PUSH1 0x24 DUP2 ADD DUP7 SWAP1 MSTORE SWAP1 SWAP2 POP PUSH1 0x1 PUSH1 0x1 PUSH1 0xA0 SHL SUB DUP4 AND SWAP1 PUSH4 0x2F4F21E2 SWAP1 DUP4 SWAP1 PUSH1 0x44 ADD PUSH1 0x20 PUSH1 0x40 MLOAD DUP1 DUP4 SUB DUP2 DUP6 DUP9 GAS CALL ISZERO DUP1 ISZERO PUSH2 0x3F5 JUMPI RETURNDATASIZE PUSH1 0x0 DUP1 RETURNDATACOPY RETURNDATASIZE PUSH1 0x0 REVERT JUMPDEST POP POP POP POP POP PUSH1 0x40 MLOAD RETURNDATASIZE PUSH1 0x1F NOT PUSH1 0x1F DUP3 ADD AND DUP3 ADD DUP1 PUSH1 0x40 MSTORE POP DUP2 ADD SWAP1 PUSH2 0x41A SWAP2 SWAP1 PUSH2 0x933 JUMP JUMPDEST POP PUSH1 0x40 DUP1 MLOAD CALLER DUP2 MSTORE PUSH1 0x1 PUSH1 0x1 PUSH1 0xA0 SHL SUB DUP10 DUP2 AND PUSH1 0x20 DUP4 ADD MSTORE DUP5 AND DUP2 DUP4 ADD MSTORE PUSH1 0x60 DUP2 ADD DUP8 SWAP1 MSTORE SWAP1 MLOAD PUSH32 0xC7EA1A149FA86D488DE0D46911CC7C13BC51BBAB90C2481C4318BC4083A35422 SWAP2 DUP2 SWAP1 SUB PUSH1 0x80 ADD SWAP1 LOG1 POP POP POP POP POP POP POP POP JUMP JUMPDEST DUP1 ISZERO DUP1 PUSH2 0x4EF JUMPI POP PUSH1 0x40 MLOAD PUSH4 0x6EB1769F PUSH1 0xE1 SHL DUP2 MSTORE ADDRESS PUSH1 0x4 DUP3 ADD MSTORE PUSH1 0x1 PUSH1 0x1 PUSH1 0xA0 SHL SUB DUP4 DUP2 AND PUSH1 0x24 DUP4 ADD MSTORE DUP5 AND SWAP1 PUSH4 0xDD62ED3E SWAP1 PUSH1 0x44 ADD PUSH1 0x20 PUSH1 0x40 MLOAD DUP1 DUP4 SUB DUP2 DUP7 GAS STATICCALL ISZERO DUP1 ISZERO PUSH2 0x4C9 JUMPI RETURNDATASIZE PUSH1 0x0 DUP1 RETURNDATACOPY RETURNDATASIZE PUSH1 0x0 REVERT JUMPDEST POP POP POP POP PUSH1 0x40 MLOAD RETURNDATASIZE PUSH1 0x1F NOT PUSH1 0x1F DUP3 ADD AND DUP3 ADD DUP1 PUSH1 0x40 MSTORE POP DUP2 ADD SWAP1 PUSH2 0x4ED SWAP2 SWAP1 PUSH2 0x933 JUMP JUMPDEST ISZERO JUMPDEST PUSH2 0x55A JUMPI PUSH1 0x40 MLOAD PUSH3 0x461BCD PUSH1 0xE5 SHL DUP2 MSTORE PUSH1 0x20 PUSH1 0x4 DUP3 ADD MSTORE PUSH1 0x36 PUSH1 0x24 DUP3 ADD MSTORE PUSH32 0x5361666545524332303A20617070726F76652066726F6D206E6F6E2D7A65726F PUSH1 0x44 DUP3 ADD MSTORE PUSH22 0x20746F206E6F6E2D7A65726F20616C6C6F77616E6365 PUSH1 0x50 SHL PUSH1 0x64 DUP3 ADD MSTORE PUSH1 0x84 ADD PUSH2 0x1CE JUMP JUMPDEST PUSH1 0x40 MLOAD PUSH1 0x1 PUSH1 0x1 PUSH1 0xA0 SHL SUB DUP4 AND PUSH1 0x24 DUP3 ADD MSTORE PUSH1 0x44 DUP2 ADD DUP3 SWAP1 MSTORE PUSH2 0xB8 SWAP1 DUP5 SWAP1 PUSH4 0x95EA7B3 PUSH1 0xE0 SHL SWAP1 PUSH1 0x64 ADD JUMPDEST PUSH1 0x40 DUP1 MLOAD PUSH1 0x1F NOT DUP2 DUP5 SUB ADD DUP2 MSTORE SWAP2 SWAP1 MSTORE PUSH1 0x20 DUP2 ADD DUP1 MLOAD PUSH1 0x1 PUSH1 0x1 PUSH1 0xE0 SHL SUB AND PUSH1 0x1 PUSH1 0x1 PUSH1 0xE0 SHL SUB NOT SWAP1 SWAP4 AND SWAP3 SWAP1 SWAP3 OR SWAP1 SWAP2 MSTORE PUSH2 0x61A JUMP JUMPDEST PUSH1 0x1 ADD SWAP1 JUMP JUMPDEST PUSH1 0x60 PUSH2 0x5D2 DUP5 DUP5 PUSH1 0x0 DUP6 PUSH2 0x6EC JUMP JUMPDEST SWAP1 POP JUMPDEST SWAP4 SWAP3 POP POP POP JUMP JUMPDEST PUSH1 0x40 MLOAD PUSH1 0x1 PUSH1 0x1 PUSH1 0xA0 SHL SUB DUP1 DUP6 AND PUSH1 0x24 DUP4 ADD MSTORE DUP4 AND PUSH1 0x44 DUP3 ADD MSTORE PUSH1 0x64 DUP2 ADD DUP3 SWAP1 MSTORE PUSH2 0x614 SWAP1 DUP6 SWAP1 PUSH4 0x23B872DD PUSH1 0xE0 SHL SWAP1 PUSH1 0x84 ADD PUSH2 0x586 JUMP JUMPDEST POP POP POP POP JUMP JUMPDEST PUSH1 0x0 PUSH2 0x66F DUP3 PUSH1 0x40 MLOAD DUP1 PUSH1 0x40 ADD PUSH1 0x40 MSTORE DUP1 PUSH1 0x20 DUP2 MSTORE PUSH1 0x20 ADD PUSH32 0x5361666545524332303A206C6F772D6C6576656C2063616C6C206661696C6564 DUP2 MSTORE POP DUP6 PUSH1 0x1 PUSH1 0x1 PUSH1 0xA0 SHL SUB AND PUSH2 0x5C3 SWAP1 SWAP3 SWAP2 SWAP1 PUSH4 0xFFFFFFFF AND JUMP JUMPDEST DUP1 MLOAD SWAP1 SWAP2 POP ISZERO PUSH2 0xB8 JUMPI DUP1 DUP1 PUSH1 0x20 ADD SWAP1 MLOAD DUP2 ADD SWAP1 PUSH2 0x68D SWAP2 SWAP1 PUSH2 0x94C JUMP JUMPDEST PUSH2 0xB8 JUMPI PUSH1 0x40 MLOAD PUSH3 0x461BCD PUSH1 0xE5 SHL DUP2 MSTORE PUSH1 0x20 PUSH1 0x4 DUP3 ADD MSTORE PUSH1 0x2A PUSH1 0x24 DUP3 ADD MSTORE PUSH32 0x5361666545524332303A204552433230206F7065726174696F6E20646964206E PUSH1 0x44 DUP3 ADD MSTORE PUSH10 0x1BDD081CDD58D8D95959 PUSH1 0xB2 SHL PUSH1 0x64 DUP3 ADD MSTORE PUSH1 0x84 ADD PUSH2 0x1CE JUMP JUMPDEST PUSH1 0x60 DUP3 SELFBALANCE LT ISZERO PUSH2 0x74D JUMPI PUSH1 0x40 MLOAD PUSH3 0x461BCD PUSH1 0xE5 SHL DUP2 MSTORE PUSH1 0x20 PUSH1 0x4 DUP3 ADD MSTORE PUSH1 0x26 PUSH1 0x24 DUP3 ADD MSTORE PUSH32 0x416464726573733A20696E73756666696369656E742062616C616E636520666F PUSH1 0x44 DUP3 ADD MSTORE PUSH6 0x1C8818D85B1B PUSH1 0xD2 SHL PUSH1 0x64 DUP3 ADD MSTORE PUSH1 0x84 ADD PUSH2 0x1CE JUMP JUMPDEST PUSH1 0x1 PUSH1 0x1 PUSH1 0xA0 SHL SUB DUP6 AND EXTCODESIZE PUSH2 0x7A4 JUMPI PUSH1 0x40 MLOAD PUSH3 0x461BCD PUSH1 0xE5 SHL DUP2 MSTORE PUSH1 0x20 PUSH1 0x4 DUP3 ADD MSTORE PUSH1 0x1D PUSH1 0x24 DUP3 ADD MSTORE PUSH32 0x416464726573733A2063616C6C20746F206E6F6E2D636F6E7472616374000000 PUSH1 0x44 DUP3 ADD MSTORE PUSH1 0x64 ADD PUSH2 0x1CE JUMP JUMPDEST PUSH1 0x0 DUP1 DUP7 PUSH1 0x1 PUSH1 0x1 PUSH1 0xA0 SHL SUB AND DUP6 DUP8 PUSH1 0x40 MLOAD PUSH2 0x7C0 SWAP2 SWAP1 PUSH2 0x99A JUMP JUMPDEST PUSH1 0x0 PUSH1 0x40 MLOAD DUP1 DUP4 SUB DUP2 DUP6 DUP8 GAS CALL SWAP3 POP POP POP RETURNDATASIZE DUP1 PUSH1 0x0 DUP2 EQ PUSH2 0x7FD JUMPI PUSH1 0x40 MLOAD SWAP2 POP PUSH1 0x1F NOT PUSH1 0x3F RETURNDATASIZE ADD AND DUP3 ADD PUSH1 0x40 MSTORE RETURNDATASIZE DUP3 MSTORE RETURNDATASIZE PUSH1 0x0 PUSH1 0x20 DUP5 ADD RETURNDATACOPY PUSH2 0x802 JUMP JUMPDEST PUSH1 0x60 SWAP2 POP JUMPDEST POP SWAP2 POP SWAP2 POP PUSH2 0x812 DUP3 DUP3 DUP7 PUSH2 0x81D JUMP JUMPDEST SWAP8 SWAP7 POP POP POP POP POP POP POP JUMP JUMPDEST PUSH1 0x60 DUP4 ISZERO PUSH2 0x82C JUMPI POP DUP2 PUSH2 0x5D5 JUMP JUMPDEST DUP3 MLOAD ISZERO PUSH2 0x83C JUMPI DUP3 MLOAD DUP1 DUP5 PUSH1 0x20 ADD REVERT JUMPDEST DUP2 PUSH1 0x40 MLOAD PUSH3 0x461BCD PUSH1 0xE5 SHL DUP2 MSTORE PUSH1 0x4 ADD PUSH2 0x1CE SWAP2 SWAP1 PUSH2 0x9B6 JUMP JUMPDEST PUSH1 0x0 DUP1 PUSH1 0x20 DUP4 DUP6 SUB SLT ISZERO PUSH2 0x869 JUMPI PUSH1 0x0 DUP1 REVERT JUMPDEST DUP3 CALLDATALOAD PUSH8 0xFFFFFFFFFFFFFFFF DUP1 DUP3 GT ISZERO PUSH2 0x881 JUMPI PUSH1 0x0 DUP1 REVERT JUMPDEST DUP2 DUP6 ADD SWAP2 POP DUP6 PUSH1 0x1F DUP4 ADD SLT PUSH2 0x895 JUMPI PUSH1 0x0 DUP1 REVERT JUMPDEST DUP2 CALLDATALOAD DUP2 DUP2 GT ISZERO PUSH2 0x8A4 JUMPI PUSH1 0x0 DUP1 REVERT JUMPDEST DUP7 PUSH1 0x20 DUP3 PUSH1 0x5 SHL DUP6 ADD ADD GT ISZERO PUSH2 0x8B9 JUMPI PUSH1 0x0 DUP1 REVERT JUMPDEST PUSH1 0x20 SWAP3 SWAP1 SWAP3 ADD SWAP7 SWAP2 SWAP6 POP SWAP1 SWAP4 POP POP POP POP JUMP JUMPDEST PUSH1 0x1 PUSH1 0x1 PUSH1 0xA0 SHL SUB DUP2 AND DUP2 EQ PUSH2 0x8E0 JUMPI PUSH1 0x0 DUP1 REVERT JUMPDEST POP JUMP JUMPDEST PUSH1 0x0 PUSH1 0x20 DUP3 DUP5 SUB SLT ISZERO PUSH2 0x8F5 JUMPI PUSH1 0x0 DUP1 REVERT JUMPDEST DUP2 CALLDATALOAD PUSH2 0x5D5 DUP2 PUSH2 0x8CB JUMP JUMPDEST PUSH4 0x4E487B71 PUSH1 0xE0 SHL PUSH1 0x0 MSTORE PUSH1 0x32 PUSH1 0x4 MSTORE PUSH1 0x24 PUSH1 0x0 REVERT JUMPDEST PUSH1 0x0 PUSH1 0x20 DUP3 DUP5 SUB SLT ISZERO PUSH2 0x928 JUMPI PUSH1 0x0 DUP1 REVERT JUMPDEST DUP2 MLOAD PUSH2 0x5D5 DUP2 PUSH2 0x8CB JUMP JUMPDEST PUSH1 0x0 PUSH1 0x20 DUP3 DUP5 SUB SLT ISZERO PUSH2 0x945 JUMPI PUSH1 0x0 DUP1 REVERT JUMPDEST POP MLOAD SWAP2 SWAP1 POP JUMP JUMPDEST PUSH1 0x0 PUSH1 0x20 DUP3 DUP5 SUB SLT ISZERO PUSH2 0x95E JUMPI PUSH1 0x0 DUP1 REVERT JUMPDEST DUP2 MLOAD DUP1 ISZERO ISZERO DUP2 EQ PUSH2 0x5D5 JUMPI PUSH1 0x0 DUP1 REVERT JUMPDEST PUSH1 0x0 JUMPDEST DUP4 DUP2 LT ISZERO PUSH2 0x989 JUMPI DUP2 DUP2 ADD MLOAD DUP4 DUP3 ADD MSTORE PUSH1 0x20 ADD PUSH2 0x971 JUMP JUMPDEST DUP4 DUP2 GT ISZERO PUSH2 0x614 JUMPI POP POP PUSH1 0x0 SWAP2 ADD MSTORE JUMP JUMPDEST PUSH1 0x0 DUP3 MLOAD PUSH2 0x9AC DUP2 DUP5 PUSH1 0x20 DUP8 ADD PUSH2 0x96E JUMP JUMPDEST SWAP2 SWAP1 SWAP2 ADD SWAP3 SWAP2 POP POP JUMP JUMPDEST PUSH1 0x20 DUP2 MSTORE PUSH1 0x0 DUP3 MLOAD DUP1 PUSH1 0x20 DUP5 ADD MSTORE PUSH2 0x9D5 DUP2 PUSH1 0x40 DUP6 ADD PUSH1 0x20 DUP8 ADD PUSH2 0x96E JUMP JUMPDEST PUSH1 0x1F ADD PUSH1 0x1F NOT AND SWAP2 SWAP1 SWAP2 ADD PUSH1 0x40 ADD SWAP3 SWAP2 POP POP JUMP INVALID LOG2 PUSH5 0x6970667358 0x22 SLT KECCAK256 0xC9 0xCB 0x26 0xBD PUSH12 0x58F2C9ADDA2A1659A2F093D9 0xBA SWAP15 DELEGATECALL SSTORE DUP15 0x5E SWAP3 0x4E STATICCALL DUP2 0xAA 0xE PUSH1 0x17 PUSH9 0x64736F6C634300080A STOP CALLER ","sha1":"59c5828582dcf7c9b0f576c4f9062374fd92d887","source":"// SPDX-License-Identifier: GPL-3.0-or-later\npragma solidity 0.8.10;\n\nimport \"@openzeppelin/contracts/token/ERC20/utils/SafeERC20.sol\";\n\nimport \"../../interfaces/zaps/IPoolMigrationZap.sol\";\nimport \"../../interfaces/IAddressProvider.sol\";\nimport \"../../interfaces/pool/ILiquidityPool.sol\";\nimport \"../../libraries/UncheckedMath.sol\";\n\n/**\n * This is a Zap contract to assist in the migration from the V1 Mero Pools to the new Mero Pools.\n */\ncontract PoolMigrationZap is IPoolMigrationZap {\n    using UncheckedMath for uint256;\n    using SafeERC20 for IERC20;\n\n    mapping(address => ILiquidityPool) internal _underlyingNewPools; // A mapping from underlyings to new pools\n\n    event Migrated(address user, address oldPool, address newPool, uint256 lpTokenAmount); // Emitted when a migration is completed\n\n    constructor(address newAddressProviderAddress_) {\n        address[] memory newPools_ = IAddressProvider(newAddressProviderAddress_).allPools();\n        for (uint256 i; i < newPools_.length; i = i.uncheckedInc()) {\n            ILiquidityPool newPool_ = ILiquidityPool(newPools_[i]);\n            address underlying_ = newPool_.getUnderlying();\n            _underlyingNewPools[underlying_] = newPool_;\n            if (underlying_ == address(0)) continue;\n            IERC20(underlying_).safeApprove(address(newPool_), type(uint256).max);\n        }\n    }\n\n    receive() external payable {}\n\n    /**\n     * @notice Migrates all of a users balance from the old pools to the new pools.\n     * @dev The user must have balance in all pools given, otherwise transaction will revert.\n     * @param oldPoolAddresses_ The list of old pools to migrate for the user.\n     */\n    function migrateAll(address[] calldata oldPoolAddresses_) external override {\n        for (uint256 i; i < oldPoolAddresses_.length; i = i.uncheckedInc()) {\n            migrate(oldPoolAddresses_[i]);\n        }\n    }\n\n    /**\n     * @notice Migrates a users balance from an old pool to a new pool.\n     * @dev The user must have balance in the pool given, otherwise transaction will revert.\n     * @param oldPoolAddress_ The old pool to migrate for the user.\n     */\n    function migrate(address oldPoolAddress_) public override {\n        ILiquidityPool oldPool_ = ILiquidityPool(oldPoolAddress_);\n        IERC20 lpToken_ = IERC20(oldPool_.getLpToken());\n        uint256 lpTokenAmount_ = lpToken_.balanceOf(msg.sender);\n        require(lpTokenAmount_ != 0, \"No LP Tokens\");\n        require(oldPool_.getWithdrawalFee(msg.sender, lpTokenAmount_) == 0, \"withdrawal fee not 0\");\n        lpToken_.safeTransferFrom(msg.sender, address(this), lpTokenAmount_);\n        uint256 underlyingAmount_ = oldPool_.redeem(lpTokenAmount_);\n        address underlying_ = oldPool_.getUnderlying();\n        ILiquidityPool newPool_ = _underlyingNewPools[underlying_];\n        uint256 ethValue_ = underlying_ == address(0) ? underlyingAmount_ : 0;\n        newPool_.depositFor{value: ethValue_}(msg.sender, underlyingAmount_);\n        emit Migrated(msg.sender, address(oldPool_), address(newPool_), lpTokenAmount_);\n    }\n}\n","sourcePath":"contracts/zaps/PoolMigrationZap.sol","type":"contract","deployment":{"address":"0x9281a22B9f2d59a61F95517475921D151a944F81","chainid":"42","blockHeight":33231599}}