{"abi":[{"inputs":[{"internalType":"contract IRoleManager","name":"roleManager","type":"address"}],"stateMutability":"nonpayable","type":"constructor","name":"constructor"},{"anonymous":false,"inputs":[{"indexed":true,"internalType":"address","name":"vault","type":"address"},{"indexed":true,"internalType":"address","name":"token","type":"address"},{"indexed":false,"internalType":"uint256","name":"amount","type":"uint256"}],"name":"Deposit","type":"event"},{"anonymous":false,"inputs":[{"indexed":true,"internalType":"address","name":"vault","type":"address"}],"name":"VaultListed","type":"event"},{"anonymous":false,"inputs":[{"indexed":true,"internalType":"address","name":"vault","type":"address"},{"indexed":true,"internalType":"address","name":"token","type":"address"},{"indexed":false,"internalType":"uint256","name":"amount","type":"uint256"}],"name":"Withdraw","type":"event"},{"inputs":[{"internalType":"address","name":"vault","type":"address"}],"name":"canWithdraw","outputs":[{"internalType":"bool","name":"","type":"bool"}],"stateMutability":"view","type":"function"},{"inputs":[{"internalType":"address","name":"token","type":"address"},{"internalType":"uint256","name":"amount","type":"uint256"}],"name":"deposit","outputs":[],"stateMutability":"payable","type":"function"},{"inputs":[{"internalType":"address","name":"vault","type":"address"},{"internalType":"address","name":"token","type":"address"}],"name":"getBalance","outputs":[{"internalType":"uint256","name":"","type":"uint256"}],"stateMutability":"view","type":"function"},{"inputs":[],"name":"minWithdrawalDelay","outputs":[{"internalType":"uint256","name":"","type":"uint256"}],"stateMutability":"view","type":"function"},{"inputs":[],"name":"roleManager","outputs":[{"internalType":"contract IRoleManager","name":"","type":"address"}],"stateMutability":"view","type":"function"},{"inputs":[{"internalType":"address","name":"token","type":"address"},{"internalType":"uint256","name":"amount","type":"uint256"}],"name":"withdraw","outputs":[],"stateMutability":"nonpayable","type":"function"}],"bytecode":"60a060405234801561001057600080fd5b50604051610c35380380610c3583398101604081905261002f91610047565b6001600160a01b03166080526203f480600255610077565b60006020828403121561005957600080fd5b81516001600160a01b038116811461007057600080fd5b9392505050565b608051610b9661009f600039600081816073015281816101a101526103f60152610b966000f3fe6080604052600436106100545760003560e01c8062435da5146100595780630d5b0067146100a257806319262d30146100c657806347e7ef24146100f6578063d4fac45d1461010b578063f3fef3a31461014f575b600080fd5b34801561006557600080fd5b506040516001600160a01b037f00000000000000000000000000000000000000000000000000000000000000001681526020015b60405180910390f35b3480156100ae57600080fd5b506100b860025481565b604051908152602001610099565b3480156100d257600080fd5b506100e66100e1366004610a06565b61016f565b6040519015158152602001610099565b610109610104366004610a21565b61019f565b005b34801561011757600080fd5b506100b8610126366004610a4b565b6001600160a01b0391821660009081526020818152604080832093909416825291909152205490565b34801561015b57600080fd5b5061010961016a366004610a21565b6103f4565b6002546001600160a01b038216600090815260016020526040812054909161019691610a94565b42101592915050565b7f0000000000000000000000000000000000000000000000000000000000000000604051632474521560e21b8152641d985d5b1d60da1b60048201523360248201526001600160a01b0391909116906391d1485490604401602060405180830381865afa158015610214573d6000803e3d6000fd5b505050506040513d601f19601f820116820180604052508101906102389190610aac565b60405180604001604052806013815260200172756e617574686f72697a65642061636365737360681b8152509061028b5760405162461bcd60e51b81526004016102829190610afa565b60405180910390fd5b506001600160a01b03821661031c5760408051808201909152600e81526d1a5b9d985b1a5908185b5bdd5b9d60921b60208201523482146102df5760405162461bcd60e51b81526004016102829190610afa565b50336000908152602081815260408083206001600160a01b038616845290915281208054349290610311908490610a94565b909155506103b09050565b604080518082019091526011815270696e76616c6964206d73672e76616c756560781b602082015234156103635760405162461bcd60e51b81526004016102829190610afa565b506103796001600160a01b0383163330846106ef565b336000908152602081815260408083206001600160a01b0386168452909152812080548392906103aa908490610a94565b90915550505b6040518181526001600160a01b0383169033907f5548c837ab068cf56a2c2479df0882a4922fd203edb7517321831d95078c5f629060200160405180910390a35050565b7f0000000000000000000000000000000000000000000000000000000000000000604051632474521560e21b8152641d985d5b1d60da1b60048201523360248201526001600160a01b0391909116906391d1485490604401602060405180830381865afa158015610469573d6000803e3d6000fd5b505050506040513d601f19601f8201168201806040525081019061048d9190610aac565b60405180604001604052806013815260200172756e617574686f72697a65642061636365737360681b815250906104d75760405162461bcd60e51b81526004016102829190610afa565b506104e13361016f565b6040518060400160405280601781526020017f5265736572766520616363657373206578636565646564000000000000000000815250906105355760405162461bcd60e51b81526004016102829190610afa565b50336000908152602081815260408083206001600160a01b03861684528252918290205482518084019093526014835273696e73756666696369656e742062616c616e636560601b9183019190915290828210156105a65760405162461bcd60e51b81526004016102829190610afa565b50336000908152602081815260408083206001600160a01b0387168452909152812080548492906105d8908490610b2d565b90915550503360009081526001602052604090204290556001600160a01b03831661069657604051600090339084908381818185875af1925050503d806000811461063f576040519150601f19603f3d011682016040523d82523d6000602084013e610644565b606091505b50509050806040518060400160405280600f81526020016e1d1c985b9cd9995c8819985a5b1959608a1b8152509061068f5760405162461bcd60e51b81526004016102829190610afa565b50506106aa565b6106aa6001600160a01b0384163384610760565b6040518281526001600160a01b0384169033907f9b1bfa7fa9ee420a16e124f794c35ac9f90472acc99140eb2f6447c714cad8eb9060200160405180910390a3505050565b6040516001600160a01b038085166024830152831660448201526064810182905261075a9085906323b872dd60e01b906084015b60408051601f198184030181529190526020810180516001600160e01b03166001600160e01b031990931692909217909152610795565b50505050565b6040516001600160a01b03831660248201526044810182905261079090849063a9059cbb60e01b90606401610723565b505050565b60006107ea826040518060400160405280602081526020017f5361666545524332303a206c6f772d6c6576656c2063616c6c206661696c6564815250856001600160a01b03166108679092919063ffffffff16565b80519091501561079057808060200190518101906108089190610aac565b6107905760405162461bcd60e51b815260206004820152602a60248201527f5361666545524332303a204552433230206f7065726174696f6e20646964206e6044820152691bdd081cdd58d8d9595960b21b6064820152608401610282565b60606108768484600085610880565b90505b9392505050565b6060824710156108e15760405162461bcd60e51b815260206004820152602660248201527f416464726573733a20696e73756666696369656e742062616c616e636520666f6044820152651c8818d85b1b60d21b6064820152608401610282565b6001600160a01b0385163b6109385760405162461bcd60e51b815260206004820152601d60248201527f416464726573733a2063616c6c20746f206e6f6e2d636f6e74726163740000006044820152606401610282565b600080866001600160a01b031685876040516109549190610b44565b60006040518083038185875af1925050503d8060008114610991576040519150601f19603f3d011682016040523d82523d6000602084013e610996565b606091505b50915091506109a68282866109b1565b979650505050505050565b606083156109c0575081610879565b8251156109d05782518084602001fd5b8160405162461bcd60e51b81526004016102829190610afa565b80356001600160a01b0381168114610a0157600080fd5b919050565b600060208284031215610a1857600080fd5b610879826109ea565b60008060408385031215610a3457600080fd5b610a3d836109ea565b946020939093013593505050565b60008060408385031215610a5e57600080fd5b610a67836109ea565b9150610a75602084016109ea565b90509250929050565b634e487b7160e01b600052601160045260246000fd5b60008219821115610aa757610aa7610a7e565b500190565b600060208284031215610abe57600080fd5b8151801515811461087957600080fd5b60005b83811015610ae9578181015183820152602001610ad1565b8381111561075a5750506000910152565b6020815260008251806020840152610b19816040850160208701610ace565b601f01601f19169190910160400192915050565b600082821015610b3f57610b3f610a7e565b500390565b60008251610b56818460208701610ace565b919091019291505056fea26469706673582212208db2f1111882b05b61852e9f34c5dd78779f0d3bdeaa82aa3eb35e4e30561a4f64736f6c634300080a0033","bytecodeSha1":"017ae67a13e4ddae62b71ebf61022f50c2f4f34e","compiler":{"evm_version":"london","optimizer":{"enabled":true,"runs":200},"version":"0.8.10+commit.fc410830"},"contractName":"VaultReserve","language":"Solidity","natspec":{"details":"ETH reserves are stored under address(0)","kind":"dev","methods":{"canWithdraw(address)":{"notice":"returns true if the vault is allowed to withdraw from the reserve"},"deposit(address,uint256)":{"notice":"Deposit funds into vault reserve.Only callable by a whitelisted vault.","params":{"amount":"Amount to deposit.","token":"Token to deposit."}},"getBalance(address,address)":{"notice":"Check token balance of a specific vault.","params":{"token":"Token to check balance in.","vault":"Vault to check balance of."},"returns":{"_0":"Token balance of vault."}},"withdraw(address,uint256)":{"notice":"Withdraw funds from vault reserve.Only callable by a whitelisted vault.","params":{"amount":"Amount to withdraw.","token":"Token to withdraw."}}},"notice":"Contract holding vault reserves","version":1},"opcodes":"PUSH1 0x80 PUSH1 0x40 MSTORE PUSH1 0x4 CALLDATASIZE LT PUSH2 0x54 JUMPI PUSH1 0x0 CALLDATALOAD PUSH1 0xE0 SHR DUP1 PUSH3 0x435DA5 EQ PUSH2 0x59 JUMPI DUP1 PUSH4 0xD5B0067 EQ PUSH2 0xA2 JUMPI DUP1 PUSH4 0x19262D30 EQ PUSH2 0xC6 JUMPI DUP1 PUSH4 0x47E7EF24 EQ PUSH2 0xF6 JUMPI DUP1 PUSH4 0xD4FAC45D EQ PUSH2 0x10B JUMPI DUP1 PUSH4 0xF3FEF3A3 EQ PUSH2 0x14F JUMPI JUMPDEST PUSH1 0x0 DUP1 REVERT JUMPDEST CALLVALUE DUP1 ISZERO PUSH2 0x65 JUMPI PUSH1 0x0 DUP1 REVERT JUMPDEST POP PUSH1 0x40 MLOAD PUSH1 0x1 PUSH1 0x1 PUSH1 0xA0 SHL SUB PUSH32 0x0 AND DUP2 MSTORE PUSH1 0x20 ADD JUMPDEST PUSH1 0x40 MLOAD DUP1 SWAP2 SUB SWAP1 RETURN JUMPDEST CALLVALUE DUP1 ISZERO PUSH2 0xAE JUMPI PUSH1 0x0 DUP1 REVERT JUMPDEST POP PUSH2 0xB8 PUSH1 0x2 SLOAD DUP2 JUMP JUMPDEST PUSH1 0x40 MLOAD SWAP1 DUP2 MSTORE PUSH1 0x20 ADD PUSH2 0x99 JUMP JUMPDEST CALLVALUE DUP1 ISZERO PUSH2 0xD2 JUMPI PUSH1 0x0 DUP1 REVERT JUMPDEST POP PUSH2 0xE6 PUSH2 0xE1 CALLDATASIZE PUSH1 0x4 PUSH2 0xA06 JUMP JUMPDEST PUSH2 0x16F JUMP JUMPDEST PUSH1 0x40 MLOAD SWAP1 ISZERO ISZERO DUP2 MSTORE PUSH1 0x20 ADD PUSH2 0x99 JUMP JUMPDEST PUSH2 0x109 PUSH2 0x104 CALLDATASIZE PUSH1 0x4 PUSH2 0xA21 JUMP JUMPDEST PUSH2 0x19F JUMP JUMPDEST STOP JUMPDEST CALLVALUE DUP1 ISZERO PUSH2 0x117 JUMPI PUSH1 0x0 DUP1 REVERT JUMPDEST POP PUSH2 0xB8 PUSH2 0x126 CALLDATASIZE PUSH1 0x4 PUSH2 0xA4B JUMP JUMPDEST PUSH1 0x1 PUSH1 0x1 PUSH1 0xA0 SHL SUB SWAP2 DUP3 AND PUSH1 0x0 SWAP1 DUP2 MSTORE PUSH1 0x20 DUP2 DUP2 MSTORE PUSH1 0x40 DUP1 DUP4 KECCAK256 SWAP4 SWAP1 SWAP5 AND DUP3 MSTORE SWAP2 SWAP1 SWAP2 MSTORE KECCAK256 SLOAD SWAP1 JUMP JUMPDEST CALLVALUE DUP1 ISZERO PUSH2 0x15B JUMPI PUSH1 0x0 DUP1 REVERT JUMPDEST POP PUSH2 0x109 PUSH2 0x16A CALLDATASIZE PUSH1 0x4 PUSH2 0xA21 JUMP JUMPDEST PUSH2 0x3F4 JUMP JUMPDEST PUSH1 0x2 SLOAD PUSH1 0x1 PUSH1 0x1 PUSH1 0xA0 SHL SUB DUP3 AND PUSH1 0x0 SWAP1 DUP2 MSTORE PUSH1 0x1 PUSH1 0x20 MSTORE PUSH1 0x40 DUP2 KECCAK256 SLOAD SWAP1 SWAP2 PUSH2 0x196 SWAP2 PUSH2 0xA94 JUMP JUMPDEST TIMESTAMP LT ISZERO SWAP3 SWAP2 POP POP JUMP JUMPDEST PUSH32 0x0 PUSH1 0x40 MLOAD PUSH4 0x24745215 PUSH1 0xE2 SHL DUP2 MSTORE PUSH5 0x1D985D5B1D PUSH1 0xDA SHL PUSH1 0x4 DUP3 ADD MSTORE CALLER PUSH1 0x24 DUP3 ADD MSTORE PUSH1 0x1 PUSH1 0x1 PUSH1 0xA0 SHL SUB SWAP2 SWAP1 SWAP2 AND SWAP1 PUSH4 0x91D14854 SWAP1 PUSH1 0x44 ADD PUSH1 0x20 PUSH1 0x40 MLOAD DUP1 DUP4 SUB DUP2 DUP7 GAS STATICCALL ISZERO DUP1 ISZERO PUSH2 0x214 JUMPI RETURNDATASIZE PUSH1 0x0 DUP1 RETURNDATACOPY RETURNDATASIZE PUSH1 0x0 REVERT JUMPDEST POP POP POP POP PUSH1 0x40 MLOAD RETURNDATASIZE PUSH1 0x1F NOT PUSH1 0x1F DUP3 ADD AND DUP3 ADD DUP1 PUSH1 0x40 MSTORE POP DUP2 ADD SWAP1 PUSH2 0x238 SWAP2 SWAP1 PUSH2 0xAAC JUMP JUMPDEST PUSH1 0x40 MLOAD DUP1 PUSH1 0x40 ADD PUSH1 0x40 MSTORE DUP1 PUSH1 0x13 DUP2 MSTORE PUSH1 0x20 ADD PUSH19 0x756E617574686F72697A656420616363657373 PUSH1 0x68 SHL DUP2 MSTORE POP SWAP1 PUSH2 0x28B JUMPI PUSH1 0x40 MLOAD PUSH3 0x461BCD PUSH1 0xE5 SHL DUP2 MSTORE PUSH1 0x4 ADD PUSH2 0x282 SWAP2 SWAP1 PUSH2 0xAFA JUMP JUMPDEST PUSH1 0x40 MLOAD DUP1 SWAP2 SUB SWAP1 REVERT JUMPDEST POP PUSH1 0x1 PUSH1 0x1 PUSH1 0xA0 SHL SUB DUP3 AND PUSH2 0x31C JUMPI PUSH1 0x40 DUP1 MLOAD DUP1 DUP3 ADD SWAP1 SWAP2 MSTORE PUSH1 0xE DUP2 MSTORE PUSH14 0x1A5B9D985B1A5908185B5BDD5B9D PUSH1 0x92 SHL PUSH1 0x20 DUP3 ADD MSTORE CALLVALUE DUP3 EQ PUSH2 0x2DF JUMPI PUSH1 0x40 MLOAD PUSH3 0x461BCD PUSH1 0xE5 SHL DUP2 MSTORE PUSH1 0x4 ADD PUSH2 0x282 SWAP2 SWAP1 PUSH2 0xAFA JUMP JUMPDEST POP CALLER PUSH1 0x0 SWAP1 DUP2 MSTORE PUSH1 0x20 DUP2 DUP2 MSTORE PUSH1 0x40 DUP1 DUP4 KECCAK256 PUSH1 0x1 PUSH1 0x1 PUSH1 0xA0 SHL SUB DUP7 AND DUP5 MSTORE SWAP1 SWAP2 MSTORE DUP2 KECCAK256 DUP1 SLOAD CALLVALUE SWAP3 SWAP1 PUSH2 0x311 SWAP1 DUP5 SWAP1 PUSH2 0xA94 JUMP JUMPDEST SWAP1 SWAP2 SSTORE POP PUSH2 0x3B0 SWAP1 POP JUMP JUMPDEST PUSH1 0x40 DUP1 MLOAD DUP1 DUP3 ADD SWAP1 SWAP2 MSTORE PUSH1 0x11 DUP2 MSTORE PUSH17 0x696E76616C6964206D73672E76616C7565 PUSH1 0x78 SHL PUSH1 0x20 DUP3 ADD MSTORE CALLVALUE ISZERO PUSH2 0x363 JUMPI PUSH1 0x40 MLOAD PUSH3 0x461BCD PUSH1 0xE5 SHL DUP2 MSTORE PUSH1 0x4 ADD PUSH2 0x282 SWAP2 SWAP1 PUSH2 0xAFA JUMP JUMPDEST POP PUSH2 0x379 PUSH1 0x1 PUSH1 0x1 PUSH1 0xA0 SHL SUB DUP4 AND CALLER ADDRESS DUP5 PUSH2 0x6EF JUMP JUMPDEST CALLER PUSH1 0x0 SWAP1 DUP2 MSTORE PUSH1 0x20 DUP2 DUP2 MSTORE PUSH1 0x40 DUP1 DUP4 KECCAK256 PUSH1 0x1 PUSH1 0x1 PUSH1 0xA0 SHL SUB DUP7 AND DUP5 MSTORE SWAP1 SWAP2 MSTORE DUP2 KECCAK256 DUP1 SLOAD DUP4 SWAP3 SWAP1 PUSH2 0x3AA SWAP1 DUP5 SWAP1 PUSH2 0xA94 JUMP JUMPDEST SWAP1 SWAP2 SSTORE POP POP JUMPDEST PUSH1 0x40 MLOAD DUP2 DUP2 MSTORE PUSH1 0x1 PUSH1 0x1 PUSH1 0xA0 SHL SUB DUP4 AND SWAP1 CALLER SWAP1 PUSH32 0x5548C837AB068CF56A2C2479DF0882A4922FD203EDB7517321831D95078C5F62 SWAP1 PUSH1 0x20 ADD PUSH1 0x40 MLOAD DUP1 SWAP2 SUB SWAP1 LOG3 POP POP JUMP JUMPDEST PUSH32 0x0 PUSH1 0x40 MLOAD PUSH4 0x24745215 PUSH1 0xE2 SHL DUP2 MSTORE PUSH5 0x1D985D5B1D PUSH1 0xDA SHL PUSH1 0x4 DUP3 ADD MSTORE CALLER PUSH1 0x24 DUP3 ADD MSTORE PUSH1 0x1 PUSH1 0x1 PUSH1 0xA0 SHL SUB SWAP2 SWAP1 SWAP2 AND SWAP1 PUSH4 0x91D14854 SWAP1 PUSH1 0x44 ADD PUSH1 0x20 PUSH1 0x40 MLOAD DUP1 DUP4 SUB DUP2 DUP7 GAS STATICCALL ISZERO DUP1 ISZERO PUSH2 0x469 JUMPI RETURNDATASIZE PUSH1 0x0 DUP1 RETURNDATACOPY RETURNDATASIZE PUSH1 0x0 REVERT JUMPDEST POP POP POP POP PUSH1 0x40 MLOAD RETURNDATASIZE PUSH1 0x1F NOT PUSH1 0x1F DUP3 ADD AND DUP3 ADD DUP1 PUSH1 0x40 MSTORE POP DUP2 ADD SWAP1 PUSH2 0x48D SWAP2 SWAP1 PUSH2 0xAAC JUMP JUMPDEST PUSH1 0x40 MLOAD DUP1 PUSH1 0x40 ADD PUSH1 0x40 MSTORE DUP1 PUSH1 0x13 DUP2 MSTORE PUSH1 0x20 ADD PUSH19 0x756E617574686F72697A656420616363657373 PUSH1 0x68 SHL DUP2 MSTORE POP SWAP1 PUSH2 0x4D7 JUMPI PUSH1 0x40 MLOAD PUSH3 0x461BCD PUSH1 0xE5 SHL DUP2 MSTORE PUSH1 0x4 ADD PUSH2 0x282 SWAP2 SWAP1 PUSH2 0xAFA JUMP JUMPDEST POP PUSH2 0x4E1 CALLER PUSH2 0x16F JUMP JUMPDEST PUSH1 0x40 MLOAD DUP1 PUSH1 0x40 ADD PUSH1 0x40 MSTORE DUP1 PUSH1 0x17 DUP2 MSTORE PUSH1 0x20 ADD PUSH32 0x5265736572766520616363657373206578636565646564000000000000000000 DUP2 MSTORE POP SWAP1 PUSH2 0x535 JUMPI PUSH1 0x40 MLOAD PUSH3 0x461BCD PUSH1 0xE5 SHL DUP2 MSTORE PUSH1 0x4 ADD PUSH2 0x282 SWAP2 SWAP1 PUSH2 0xAFA JUMP JUMPDEST POP CALLER PUSH1 0x0 SWAP1 DUP2 MSTORE PUSH1 0x20 DUP2 DUP2 MSTORE PUSH1 0x40 DUP1 DUP4 KECCAK256 PUSH1 0x1 PUSH1 0x1 PUSH1 0xA0 SHL SUB DUP7 AND DUP5 MSTORE DUP3 MSTORE SWAP2 DUP3 SWAP1 KECCAK256 SLOAD DUP3 MLOAD DUP1 DUP5 ADD SWAP1 SWAP4 MSTORE PUSH1 0x14 DUP4 MSTORE PUSH20 0x696E73756666696369656E742062616C616E6365 PUSH1 0x60 SHL SWAP2 DUP4 ADD SWAP2 SWAP1 SWAP2 MSTORE SWAP1 DUP3 DUP3 LT ISZERO PUSH2 0x5A6 JUMPI PUSH1 0x40 MLOAD PUSH3 0x461BCD PUSH1 0xE5 SHL DUP2 MSTORE PUSH1 0x4 ADD PUSH2 0x282 SWAP2 SWAP1 PUSH2 0xAFA JUMP JUMPDEST POP CALLER PUSH1 0x0 SWAP1 DUP2 MSTORE PUSH1 0x20 DUP2 DUP2 MSTORE PUSH1 0x40 DUP1 DUP4 KECCAK256 PUSH1 0x1 PUSH1 0x1 PUSH1 0xA0 SHL SUB DUP8 AND DUP5 MSTORE SWAP1 SWAP2 MSTORE DUP2 KECCAK256 DUP1 SLOAD DUP5 SWAP3 SWAP1 PUSH2 0x5D8 SWAP1 DUP5 SWAP1 PUSH2 0xB2D JUMP JUMPDEST SWAP1 SWAP2 SSTORE POP POP CALLER PUSH1 0x0 SWAP1 DUP2 MSTORE PUSH1 0x1 PUSH1 0x20 MSTORE PUSH1 0x40 SWAP1 KECCAK256 TIMESTAMP SWAP1 SSTORE PUSH1 0x1 PUSH1 0x1 PUSH1 0xA0 SHL SUB DUP4 AND PUSH2 0x696 JUMPI PUSH1 0x40 MLOAD PUSH1 0x0 SWAP1 CALLER SWAP1 DUP5 SWAP1 DUP4 DUP2 DUP2 DUP2 DUP6 DUP8 GAS CALL SWAP3 POP POP POP RETURNDATASIZE DUP1 PUSH1 0x0 DUP2 EQ PUSH2 0x63F JUMPI PUSH1 0x40 MLOAD SWAP2 POP PUSH1 0x1F NOT PUSH1 0x3F RETURNDATASIZE ADD AND DUP3 ADD PUSH1 0x40 MSTORE RETURNDATASIZE DUP3 MSTORE RETURNDATASIZE PUSH1 0x0 PUSH1 0x20 DUP5 ADD RETURNDATACOPY PUSH2 0x644 JUMP JUMPDEST PUSH1 0x60 SWAP2 POP JUMPDEST POP POP SWAP1 POP DUP1 PUSH1 0x40 MLOAD DUP1 PUSH1 0x40 ADD PUSH1 0x40 MSTORE DUP1 PUSH1 0xF DUP2 MSTORE PUSH1 0x20 ADD PUSH15 0x1D1C985B9CD9995C8819985A5B1959 PUSH1 0x8A SHL DUP2 MSTORE POP SWAP1 PUSH2 0x68F JUMPI PUSH1 0x40 MLOAD PUSH3 0x461BCD PUSH1 0xE5 SHL DUP2 MSTORE PUSH1 0x4 ADD PUSH2 0x282 SWAP2 SWAP1 PUSH2 0xAFA JUMP JUMPDEST POP POP PUSH2 0x6AA JUMP JUMPDEST PUSH2 0x6AA PUSH1 0x1 PUSH1 0x1 PUSH1 0xA0 SHL SUB DUP5 AND CALLER DUP5 PUSH2 0x760 JUMP JUMPDEST PUSH1 0x40 MLOAD DUP3 DUP2 MSTORE PUSH1 0x1 PUSH1 0x1 PUSH1 0xA0 SHL SUB DUP5 AND SWAP1 CALLER SWAP1 PUSH32 0x9B1BFA7FA9EE420A16E124F794C35AC9F90472ACC99140EB2F6447C714CAD8EB SWAP1 PUSH1 0x20 ADD PUSH1 0x40 MLOAD DUP1 SWAP2 SUB SWAP1 LOG3 POP POP POP JUMP JUMPDEST PUSH1 0x40 MLOAD PUSH1 0x1 PUSH1 0x1 PUSH1 0xA0 SHL SUB DUP1 DUP6 AND PUSH1 0x24 DUP4 ADD MSTORE DUP4 AND PUSH1 0x44 DUP3 ADD MSTORE PUSH1 0x64 DUP2 ADD DUP3 SWAP1 MSTORE PUSH2 0x75A SWAP1 DUP6 SWAP1 PUSH4 0x23B872DD PUSH1 0xE0 SHL SWAP1 PUSH1 0x84 ADD JUMPDEST PUSH1 0x40 DUP1 MLOAD PUSH1 0x1F NOT DUP2 DUP5 SUB ADD DUP2 MSTORE SWAP2 SWAP1 MSTORE PUSH1 0x20 DUP2 ADD DUP1 MLOAD PUSH1 0x1 PUSH1 0x1 PUSH1 0xE0 SHL SUB AND PUSH1 0x1 PUSH1 0x1 PUSH1 0xE0 SHL SUB NOT SWAP1 SWAP4 AND SWAP3 SWAP1 SWAP3 OR SWAP1 SWAP2 MSTORE PUSH2 0x795 JUMP JUMPDEST POP POP POP POP JUMP JUMPDEST PUSH1 0x40 MLOAD PUSH1 0x1 PUSH1 0x1 PUSH1 0xA0 SHL SUB DUP4 AND PUSH1 0x24 DUP3 ADD MSTORE PUSH1 0x44 DUP2 ADD DUP3 SWAP1 MSTORE PUSH2 0x790 SWAP1 DUP5 SWAP1 PUSH4 0xA9059CBB PUSH1 0xE0 SHL SWAP1 PUSH1 0x64 ADD PUSH2 0x723 JUMP JUMPDEST POP POP POP JUMP JUMPDEST PUSH1 0x0 PUSH2 0x7EA DUP3 PUSH1 0x40 MLOAD DUP1 PUSH1 0x40 ADD PUSH1 0x40 MSTORE DUP1 PUSH1 0x20 DUP2 MSTORE PUSH1 0x20 ADD PUSH32 0x5361666545524332303A206C6F772D6C6576656C2063616C6C206661696C6564 DUP2 MSTORE POP DUP6 PUSH1 0x1 PUSH1 0x1 PUSH1 0xA0 SHL SUB AND PUSH2 0x867 SWAP1 SWAP3 SWAP2 SWAP1 PUSH4 0xFFFFFFFF AND JUMP JUMPDEST DUP1 MLOAD SWAP1 SWAP2 POP ISZERO PUSH2 0x790 JUMPI DUP1 DUP1 PUSH1 0x20 ADD SWAP1 MLOAD DUP2 ADD SWAP1 PUSH2 0x808 SWAP2 SWAP1 PUSH2 0xAAC JUMP JUMPDEST PUSH2 0x790 JUMPI PUSH1 0x40 MLOAD PUSH3 0x461BCD PUSH1 0xE5 SHL DUP2 MSTORE PUSH1 0x20 PUSH1 0x4 DUP3 ADD MSTORE PUSH1 0x2A PUSH1 0x24 DUP3 ADD MSTORE PUSH32 0x5361666545524332303A204552433230206F7065726174696F6E20646964206E PUSH1 0x44 DUP3 ADD MSTORE PUSH10 0x1BDD081CDD58D8D95959 PUSH1 0xB2 SHL PUSH1 0x64 DUP3 ADD MSTORE PUSH1 0x84 ADD PUSH2 0x282 JUMP JUMPDEST PUSH1 0x60 PUSH2 0x876 DUP5 DUP5 PUSH1 0x0 DUP6 PUSH2 0x880 JUMP JUMPDEST SWAP1 POP JUMPDEST SWAP4 SWAP3 POP POP POP JUMP JUMPDEST PUSH1 0x60 DUP3 SELFBALANCE LT ISZERO PUSH2 0x8E1 JUMPI PUSH1 0x40 MLOAD PUSH3 0x461BCD PUSH1 0xE5 SHL DUP2 MSTORE PUSH1 0x20 PUSH1 0x4 DUP3 ADD MSTORE PUSH1 0x26 PUSH1 0x24 DUP3 ADD MSTORE PUSH32 0x416464726573733A20696E73756666696369656E742062616C616E636520666F PUSH1 0x44 DUP3 ADD MSTORE PUSH6 0x1C8818D85B1B PUSH1 0xD2 SHL PUSH1 0x64 DUP3 ADD MSTORE PUSH1 0x84 ADD PUSH2 0x282 JUMP JUMPDEST PUSH1 0x1 PUSH1 0x1 PUSH1 0xA0 SHL SUB DUP6 AND EXTCODESIZE PUSH2 0x938 JUMPI PUSH1 0x40 MLOAD PUSH3 0x461BCD PUSH1 0xE5 SHL DUP2 MSTORE PUSH1 0x20 PUSH1 0x4 DUP3 ADD MSTORE PUSH1 0x1D PUSH1 0x24 DUP3 ADD MSTORE PUSH32 0x416464726573733A2063616C6C20746F206E6F6E2D636F6E7472616374000000 PUSH1 0x44 DUP3 ADD MSTORE PUSH1 0x64 ADD PUSH2 0x282 JUMP JUMPDEST PUSH1 0x0 DUP1 DUP7 PUSH1 0x1 PUSH1 0x1 PUSH1 0xA0 SHL SUB AND DUP6 DUP8 PUSH1 0x40 MLOAD PUSH2 0x954 SWAP2 SWAP1 PUSH2 0xB44 JUMP JUMPDEST PUSH1 0x0 PUSH1 0x40 MLOAD DUP1 DUP4 SUB DUP2 DUP6 DUP8 GAS CALL SWAP3 POP POP POP RETURNDATASIZE DUP1 PUSH1 0x0 DUP2 EQ PUSH2 0x991 JUMPI PUSH1 0x40 MLOAD SWAP2 POP PUSH1 0x1F NOT PUSH1 0x3F RETURNDATASIZE ADD AND DUP3 ADD PUSH1 0x40 MSTORE RETURNDATASIZE DUP3 MSTORE RETURNDATASIZE PUSH1 0x0 PUSH1 0x20 DUP5 ADD RETURNDATACOPY PUSH2 0x996 JUMP JUMPDEST PUSH1 0x60 SWAP2 POP JUMPDEST POP SWAP2 POP SWAP2 POP PUSH2 0x9A6 DUP3 DUP3 DUP7 PUSH2 0x9B1 JUMP JUMPDEST SWAP8 SWAP7 POP POP POP POP POP POP POP JUMP JUMPDEST PUSH1 0x60 DUP4 ISZERO PUSH2 0x9C0 JUMPI POP DUP2 PUSH2 0x879 JUMP JUMPDEST DUP3 MLOAD ISZERO PUSH2 0x9D0 JUMPI DUP3 MLOAD DUP1 DUP5 PUSH1 0x20 ADD REVERT JUMPDEST DUP2 PUSH1 0x40 MLOAD PUSH3 0x461BCD PUSH1 0xE5 SHL DUP2 MSTORE PUSH1 0x4 ADD PUSH2 0x282 SWAP2 SWAP1 PUSH2 0xAFA JUMP JUMPDEST DUP1 CALLDATALOAD PUSH1 0x1 PUSH1 0x1 PUSH1 0xA0 SHL SUB DUP2 AND DUP2 EQ PUSH2 0xA01 JUMPI PUSH1 0x0 DUP1 REVERT JUMPDEST SWAP2 SWAP1 POP JUMP JUMPDEST PUSH1 0x0 PUSH1 0x20 DUP3 DUP5 SUB SLT ISZERO PUSH2 0xA18 JUMPI PUSH1 0x0 DUP1 REVERT JUMPDEST PUSH2 0x879 DUP3 PUSH2 0x9EA JUMP JUMPDEST PUSH1 0x0 DUP1 PUSH1 0x40 DUP4 DUP6 SUB SLT ISZERO PUSH2 0xA34 JUMPI PUSH1 0x0 DUP1 REVERT JUMPDEST PUSH2 0xA3D DUP4 PUSH2 0x9EA JUMP JUMPDEST SWAP5 PUSH1 0x20 SWAP4 SWAP1 SWAP4 ADD CALLDATALOAD SWAP4 POP POP POP JUMP JUMPDEST PUSH1 0x0 DUP1 PUSH1 0x40 DUP4 DUP6 SUB SLT ISZERO PUSH2 0xA5E JUMPI PUSH1 0x0 DUP1 REVERT JUMPDEST PUSH2 0xA67 DUP4 PUSH2 0x9EA JUMP JUMPDEST SWAP2 POP PUSH2 0xA75 PUSH1 0x20 DUP5 ADD PUSH2 0x9EA JUMP JUMPDEST SWAP1 POP SWAP3 POP SWAP3 SWAP1 POP JUMP JUMPDEST PUSH4 0x4E487B71 PUSH1 0xE0 SHL PUSH1 0x0 MSTORE PUSH1 0x11 PUSH1 0x4 MSTORE PUSH1 0x24 PUSH1 0x0 REVERT JUMPDEST PUSH1 0x0 DUP3 NOT DUP3 GT ISZERO PUSH2 0xAA7 JUMPI PUSH2 0xAA7 PUSH2 0xA7E JUMP JUMPDEST POP ADD SWAP1 JUMP JUMPDEST PUSH1 0x0 PUSH1 0x20 DUP3 DUP5 SUB SLT ISZERO PUSH2 0xABE JUMPI PUSH1 0x0 DUP1 REVERT JUMPDEST DUP2 MLOAD DUP1 ISZERO ISZERO DUP2 EQ PUSH2 0x879 JUMPI PUSH1 0x0 DUP1 REVERT JUMPDEST PUSH1 0x0 JUMPDEST DUP4 DUP2 LT ISZERO PUSH2 0xAE9 JUMPI DUP2 DUP2 ADD MLOAD DUP4 DUP3 ADD MSTORE PUSH1 0x20 ADD PUSH2 0xAD1 JUMP JUMPDEST DUP4 DUP2 GT ISZERO PUSH2 0x75A JUMPI POP POP PUSH1 0x0 SWAP2 ADD MSTORE JUMP JUMPDEST PUSH1 0x20 DUP2 MSTORE PUSH1 0x0 DUP3 MLOAD DUP1 PUSH1 0x20 DUP5 ADD MSTORE PUSH2 0xB19 DUP2 PUSH1 0x40 DUP6 ADD PUSH1 0x20 DUP8 ADD PUSH2 0xACE JUMP JUMPDEST PUSH1 0x1F ADD PUSH1 0x1F NOT AND SWAP2 SWAP1 SWAP2 ADD PUSH1 0x40 ADD SWAP3 SWAP2 POP POP JUMP JUMPDEST PUSH1 0x0 DUP3 DUP3 LT ISZERO PUSH2 0xB3F JUMPI PUSH2 0xB3F PUSH2 0xA7E JUMP JUMPDEST POP SUB SWAP1 JUMP JUMPDEST PUSH1 0x0 DUP3 MLOAD PUSH2 0xB56 DUP2 DUP5 PUSH1 0x20 DUP8 ADD PUSH2 0xACE JUMP JUMPDEST SWAP2 SWAP1 SWAP2 ADD SWAP3 SWAP2 POP POP JUMP INVALID LOG2 PUSH5 0x6970667358 0x22 SLT KECCAK256 DUP14 0xB2 CALL GT XOR DUP3 0xB0 JUMPDEST PUSH2 0x852E SWAP16 CALLVALUE 0xC5 0xDD PUSH25 0x779F0D3BDEAA82AA3EB35E4E30561A4F64736F6C634300080A STOP CALLER ","sha1":"79a6b0c2a994557e55e0821965dbeef5ab930065","source":"// SPDX-License-Identifier: GPL-3.0-or-later\npragma solidity 0.8.10;\n\nimport \"@openzeppelin/contracts/token/ERC20/utils/SafeERC20.sol\";\nimport \"@openzeppelin/contracts/token/ERC20/IERC20.sol\";\n\nimport \"../../interfaces/IVaultReserve.sol\";\nimport \"../../libraries/Errors.sol\";\n\nimport \"../access/Authorization.sol\";\nimport \"../vault/Vault.sol\";\n\n/**\n * @notice Contract holding vault reserves\n * @dev ETH reserves are stored under address(0)\n */\ncontract VaultReserve is IVaultReserve, Authorization {\n    using SafeERC20 for IERC20;\n\n    uint256 internal constant _INITIAL_WITHDRAWAL_DELAY = 3 days;\n\n    mapping(address => mapping(address => uint256)) private _balances;\n    mapping(address => uint256) private _lastWithdrawal;\n\n    uint256 public minWithdrawalDelay;\n\n    modifier onlyVault() {\n        require(_roleManager().hasRole(Roles.VAULT, msg.sender), Error.UNAUTHORIZED_ACCESS);\n        _;\n    }\n\n    constructor(IRoleManager roleManager) Authorization(roleManager) {\n        minWithdrawalDelay = _INITIAL_WITHDRAWAL_DELAY;\n    }\n\n    /**\n     * @notice Deposit funds into vault reserve.\n     * @notice Only callable by a whitelisted vault.\n     * @param token Token to deposit.\n     * @param amount Amount to deposit.\n     */\n    function deposit(address token, uint256 amount) external payable override onlyVault {\n        if (token == address(0)) {\n            require(msg.value == amount, Error.INVALID_AMOUNT);\n            _balances[msg.sender][token] += msg.value;\n        } else {\n            require(msg.value == 0, Error.INVALID_VALUE);\n            IERC20(token).safeTransferFrom(msg.sender, address(this), amount);\n            _balances[msg.sender][token] += amount;\n        }\n\n        emit Deposit(msg.sender, token, amount);\n    }\n\n    /**\n     * @notice Withdraw funds from vault reserve.\n     * @notice Only callable by a whitelisted vault.\n     * @param token Token to withdraw.\n     * @param amount Amount to withdraw.\n     */\n    function withdraw(address token, uint256 amount) external override onlyVault {\n        require(canWithdraw(msg.sender), Error.RESERVE_ACCESS_EXCEEDED);\n        uint256 accountBalance = _balances[msg.sender][token];\n        require(accountBalance >= amount, Error.INSUFFICIENT_BALANCE);\n\n        _balances[msg.sender][token] -= amount;\n        _lastWithdrawal[msg.sender] = block.timestamp;\n\n        if (token == address(0)) {\n            // solhint-disable-next-line avoid-low-level-calls\n            (bool success, ) = payable(msg.sender).call{value: amount}(\"\");\n            require(success, Error.FAILED_TRANSFER);\n        } else {\n            IERC20(token).safeTransfer(msg.sender, amount);\n        }\n        emit Withdraw(msg.sender, token, amount);\n    }\n\n    /**\n     * @notice Check token balance of a specific vault.\n     * @param vault Vault to check balance of.\n     * @param token Token to check balance in.\n     * @return Token balance of vault.\n     */\n    function getBalance(address vault, address token) public view override returns (uint256) {\n        return _balances[vault][token];\n    }\n\n    /**\n     * @notice returns true if the vault is allowed to withdraw from the reserve\n     */\n    function canWithdraw(address vault) public view override returns (bool) {\n        return block.timestamp >= _lastWithdrawal[vault] + minWithdrawalDelay;\n    }\n}\n","sourcePath":"contracts/vault/VaultReserve.sol","type":"contract","deployment":{"address":"0x932FF42E3BDc8a231d1ffaCB7cf9F8298747aE60","chainid":"42","blockHeight":33231427}}