{"abi":[{"inputs":[{"internalType":"address","name":"comptrollerAddress","type":"address"}],"stateMutability":"nonpayable","type":"constructor","name":"constructor"},{"inputs":[],"name":"COMPTROLLER_MAINNET_ADDRESS","outputs":[{"internalType":"address","name":"","type":"address"}],"stateMutability":"view","type":"function"},{"inputs":[],"name":"comptroller","outputs":[{"internalType":"contract Comptroller","name":"","type":"address"}],"stateMutability":"view","type":"function"},{"inputs":[{"internalType":"address","name":"underlying","type":"address"}],"name":"fetchCToken","outputs":[{"internalType":"address","name":"","type":"address"}],"stateMutability":"nonpayable","type":"function"},{"inputs":[{"internalType":"address","name":"underlying","type":"address"}],"name":"getCToken","outputs":[{"internalType":"address","name":"","type":"address"}],"stateMutability":"view","type":"function"},{"inputs":[{"internalType":"address","name":"underlying","type":"address"},{"internalType":"bool","name":"ensureExists","type":"bool"}],"name":"getCToken","outputs":[{"internalType":"address","name":"","type":"address"}],"stateMutability":"view","type":"function"}],"bytecode":"60c06040523480156200001157600080fd5b5060405162000ff238038062000ff283398101604081905262000034916200042f565b6001600160a01b038116608052604051630c68aa8960e31b602082015260240160408051601f19818403018152919052805160209091012060a0526200007962000080565b50620006d7565b60006080516001600160a01b031663b0772d0b6040518163ffffffff1660e01b8152600401600060405180830381865afa158015620000c3573d6000803e3d6000fd5b505050506040513d6000823e601f3d908101601f19168201604052620000ed91908101906200049f565b805190915060005b81811015620002da5760008382815181106200011557620001156200055d565b602002602001015190506200013081620002df60201b60201c565b6200013c5750620002bc565b60a051816001600160a01b03166395d89b416040518163ffffffff1660e01b8152600401600060405180830381865afa1580156200017e573d6000803e3d6000fd5b505050506040513d6000823e601f3d908101601f19168201604052620001a89190810190620005a6565b604051602001620001ba919062000644565b6040516020818303038152906040528051906020012014156200021f5760008080526020527fad3228b676f7d3cd4284a5443f17f1962b36e491b30a40b2405849e597ba5fb580546001600160a01b0319166001600160a01b038316179055620002ba565b80600080836001600160a01b0316636f307dc36040518163ffffffff1660e01b8152600401602060405180830381865afa15801562000262573d6000803e3d6000fd5b505050506040513d601f19601f820116820180604052508101906200028891906200042f565b6001600160a01b039081168252602082019290925260400160002080546001600160a01b031916929091169190911790555b505b620002d2816200041060201b620001df1760201c565b9050620000f5565b505050565b608051604051638e8f294b60e01b81526001600160a01b038381166004830152600092918391831690638e8f294b90602401606060405180830381865afa1580156200032f573d6000803e3d6000fd5b505050506040513d601f19601f8201168201806040525081019062000355919062000678565b505090506000733d9819210a31b4961b30ef54be2aed79b9c9cd3b6001600160a01b0316836001600160a01b0316148015620003f957506040516394543c1560e01b81526001600160a01b0386811660048301528416906394543c1590602401602060405180830381865afa158015620003d3573d6000803e3d6000fd5b505050506040513d601f19601f82011682018060405250810190620003f99190620006b9565b905081801562000407575080155b95945050505050565b60010190565b6001600160a01b03811681146200042c57600080fd5b50565b6000602082840312156200044257600080fd5b81516200044f8162000416565b9392505050565b634e487b7160e01b600052604160045260246000fd5b604051601f8201601f191681016001600160401b038111828210171562000497576200049762000456565b604052919050565b60006020808385031215620004b357600080fd5b82516001600160401b0380821115620004cb57600080fd5b818501915085601f830112620004e057600080fd5b815181811115620004f557620004f562000456565b8060051b9150620005088483016200046c565b81815291830184019184810190888411156200052357600080fd5b938501935b83851015620005515784519250620005408362000416565b828252938501939085019062000528565b98975050505050505050565b634e487b7160e01b600052603260045260246000fd5b60005b838110156200059057818101518382015260200162000576565b83811115620005a0576000848401525b50505050565b600060208284031215620005b957600080fd5b81516001600160401b0380821115620005d157600080fd5b818401915084601f830112620005e657600080fd5b815181811115620005fb57620005fb62000456565b62000610601f8201601f19166020016200046c565b91508082528560208285010111156200062857600080fd5b6200063b81602084016020860162000573565b50949350505050565b600082516200065881846020870162000573565b9190910192915050565b805180151581146200067357600080fd5b919050565b6000806000606084860312156200068e57600080fd5b620006998462000662565b925060208401519150620006b06040850162000662565b90509250925092565b600060208284031215620006cc57600080fd5b6200044f8262000662565b60805160a0516108e86200070a60003960006102b00152600081816090015281816101e9015261047101526108e86000f3fe608060405234801561001057600080fd5b50600436106100575760003560e01c80632e3882351461005c5780635fe3b5671461008b5780637e5a4eb9146100b2578063b6bbc950146100c5578063f3748fc8146100d8575b600080fd5b61006f61006a3660046105af565b6100f3565b6040516001600160a01b03909116815260200160405180910390f35b61006f7f000000000000000000000000000000000000000000000000000000000000000081565b61006f6100c03660046105af565b610132565b61006f6100d33660046105da565b610145565b61006f733d9819210a31b4961b30ef54be2aed79b9c9cd3b81565b600080610101836000610145565b90506001600160a01b038116156101185792915050565b6101206101e5565b61012b836001610145565b9392505050565b600061013f826001610145565b92915050565b6001600160a01b0380831660009081526020819052604081205490911682801561018657506001600160a01b038116158061018657506101848161044f565b155b1561012b57604080518082018252601e81527f756e6465726c79696e6720746f6b656e206e6f7420737570706f7274656400006020820152905162461bcd60e51b81526101d69190600401610643565b60405180910390fd5b60010190565b60007f00000000000000000000000000000000000000000000000000000000000000006001600160a01b031663b0772d0b6040518163ffffffff1660e01b8152600401600060405180830381865afa158015610245573d6000803e3d6000fd5b505050506040513d6000823e601f3d908101601f1916820160405261026d91908101906106bd565b805190915060005b8181101561044a5760008382815181106102915761029161076f565b602002602001015190506102a48161044f565b6102ae5750610442565b7f0000000000000000000000000000000000000000000000000000000000000000816001600160a01b03166395d89b416040518163ffffffff1660e01b8152600401600060405180830381865afa15801561030d573d6000803e3d6000fd5b505050506040513d6000823e601f3d908101601f191682016040526103359190810190610785565b6040516020016103459190610819565b6040516020818303038152906040528051906020012014156103a85760008080526020527fad3228b676f7d3cd4284a5443f17f1962b36e491b30a40b2405849e597ba5fb580546001600160a01b0319166001600160a01b038316179055610440565b80600080836001600160a01b0316636f307dc36040518163ffffffff1660e01b8152600401602060405180830381865afa1580156103ea573d6000803e3d6000fd5b505050506040513d601f19601f8201168201806040525081019061040e9190610835565b6001600160a01b039081168252602082019290925260400160002080546001600160a01b031916929091169190911790555b505b600101610275565b505050565b604051638e8f294b60e01b81526001600160a01b0382811660048301526000917f000000000000000000000000000000000000000000000000000000000000000091839190831690638e8f294b90602401606060405180830381865afa1580156104bd573d6000803e3d6000fd5b505050506040513d601f19601f820116820180604052508101906104e19190610852565b505090506000733d9819210a31b4961b30ef54be2aed79b9c9cd3b6001600160a01b0316836001600160a01b031614801561058157506040516394543c1560e01b81526001600160a01b0386811660048301528416906394543c1590602401602060405180830381865afa15801561055d573d6000803e3d6000fd5b505050506040513d601f19601f820116820180604052508101906105819190610895565b905081801561058e575080155b95945050505050565b6001600160a01b03811681146105ac57600080fd5b50565b6000602082840312156105c157600080fd5b813561012b81610597565b80151581146105ac57600080fd5b600080604083850312156105ed57600080fd5b82356105f881610597565b91506020830135610608816105cc565b809150509250929050565b60005b8381101561062e578181015183820152602001610616565b8381111561063d576000848401525b50505050565b6020815260008251806020840152610662816040850160208701610613565b601f01601f19169190910160400192915050565b634e487b7160e01b600052604160045260246000fd5b604051601f8201601f1916810167ffffffffffffffff811182821017156106b5576106b5610676565b604052919050565b600060208083850312156106d057600080fd5b825167ffffffffffffffff808211156106e857600080fd5b818501915085601f8301126106fc57600080fd5b81518181111561070e5761070e610676565b8060051b915061071f84830161068c565b818152918301840191848101908884111561073957600080fd5b938501935b83851015610763578451925061075383610597565b828252938501939085019061073e565b98975050505050505050565b634e487b7160e01b600052603260045260246000fd5b60006020828403121561079757600080fd5b815167ffffffffffffffff808211156107af57600080fd5b818401915084601f8301126107c357600080fd5b8151818111156107d5576107d5610676565b6107e8601f8201601f191660200161068c565b91508082528560208285010111156107ff57600080fd5b610810816020840160208601610613565b50949350505050565b6000825161082b818460208701610613565b9190910192915050565b60006020828403121561084757600080fd5b815161012b81610597565b60008060006060848603121561086757600080fd5b8351610872816105cc565b60208501516040860151919450925061088a816105cc565b809150509250925092565b6000602082840312156108a757600080fd5b815161012b816105cc56fea2646970667358221220db44118f2babffaf3cbf59e04482a5355e27889c7a2ed37b873789e4e16922e064736f6c634300080a0033","bytecodeSha1":"09b8f1156256e97f4b321ddc681116e2eb39779b","compiler":{"evm_version":"london","optimizer":{"enabled":true,"runs":200},"version":"0.8.10+commit.fc410830"},"contractName":"CTokenRegistry","language":"Solidity","natspec":{"kind":"dev","methods":{"fetchCToken(address)":{"notice":"Tries to read the CToken contract address for a given underlying token address If not found, tries to fetch it from the Comptroller contract and fails if cannot find it in the comptroller either"},"getCToken(address)":{"notice":"Reads the CToken contract address for a given underlying token address or fails if not found"},"getCToken(address,bool)":{"notice":"Reads the CToken contract address for a given underlying token address If `ensureExists` is `true`, fails if not found, otherwise returns address 0"}},"version":1},"opcodes":"PUSH1 0x80 PUSH1 0x40 MSTORE CALLVALUE DUP1 ISZERO PUSH2 0x10 JUMPI PUSH1 0x0 DUP1 REVERT JUMPDEST POP PUSH1 0x4 CALLDATASIZE LT PUSH2 0x57 JUMPI PUSH1 0x0 CALLDATALOAD PUSH1 0xE0 SHR DUP1 PUSH4 0x2E388235 EQ PUSH2 0x5C JUMPI DUP1 PUSH4 0x5FE3B567 EQ PUSH2 0x8B JUMPI DUP1 PUSH4 0x7E5A4EB9 EQ PUSH2 0xB2 JUMPI DUP1 PUSH4 0xB6BBC950 EQ PUSH2 0xC5 JUMPI DUP1 PUSH4 0xF3748FC8 EQ PUSH2 0xD8 JUMPI JUMPDEST PUSH1 0x0 DUP1 REVERT JUMPDEST PUSH2 0x6F PUSH2 0x6A CALLDATASIZE PUSH1 0x4 PUSH2 0x5AF JUMP JUMPDEST PUSH2 0xF3 JUMP JUMPDEST PUSH1 0x40 MLOAD PUSH1 0x1 PUSH1 0x1 PUSH1 0xA0 SHL SUB SWAP1 SWAP2 AND DUP2 MSTORE PUSH1 0x20 ADD PUSH1 0x40 MLOAD DUP1 SWAP2 SUB SWAP1 RETURN JUMPDEST PUSH2 0x6F PUSH32 0x0 DUP2 JUMP JUMPDEST PUSH2 0x6F PUSH2 0xC0 CALLDATASIZE PUSH1 0x4 PUSH2 0x5AF JUMP JUMPDEST PUSH2 0x132 JUMP JUMPDEST PUSH2 0x6F PUSH2 0xD3 CALLDATASIZE PUSH1 0x4 PUSH2 0x5DA JUMP JUMPDEST PUSH2 0x145 JUMP JUMPDEST PUSH2 0x6F PUSH20 0x3D9819210A31B4961B30EF54BE2AED79B9C9CD3B DUP2 JUMP JUMPDEST PUSH1 0x0 DUP1 PUSH2 0x101 DUP4 PUSH1 0x0 PUSH2 0x145 JUMP JUMPDEST SWAP1 POP PUSH1 0x1 PUSH1 0x1 PUSH1 0xA0 SHL SUB DUP2 AND ISZERO PUSH2 0x118 JUMPI SWAP3 SWAP2 POP POP JUMP JUMPDEST PUSH2 0x120 PUSH2 0x1E5 JUMP JUMPDEST PUSH2 0x12B DUP4 PUSH1 0x1 PUSH2 0x145 JUMP JUMPDEST SWAP4 SWAP3 POP POP POP JUMP JUMPDEST PUSH1 0x0 PUSH2 0x13F DUP3 PUSH1 0x1 PUSH2 0x145 JUMP JUMPDEST SWAP3 SWAP2 POP POP JUMP JUMPDEST PUSH1 0x1 PUSH1 0x1 PUSH1 0xA0 SHL SUB DUP1 DUP4 AND PUSH1 0x0 SWAP1 DUP2 MSTORE PUSH1 0x20 DUP2 SWAP1 MSTORE PUSH1 0x40 DUP2 KECCAK256 SLOAD SWAP1 SWAP2 AND DUP3 DUP1 ISZERO PUSH2 0x186 JUMPI POP PUSH1 0x1 PUSH1 0x1 PUSH1 0xA0 SHL SUB DUP2 AND ISZERO DUP1 PUSH2 0x186 JUMPI POP PUSH2 0x184 DUP2 PUSH2 0x44F JUMP JUMPDEST ISZERO JUMPDEST ISZERO PUSH2 0x12B JUMPI PUSH1 0x40 DUP1 MLOAD DUP1 DUP3 ADD DUP3 MSTORE PUSH1 0x1E DUP2 MSTORE PUSH32 0x756E6465726C79696E6720746F6B656E206E6F7420737570706F727465640000 PUSH1 0x20 DUP3 ADD MSTORE SWAP1 MLOAD PUSH3 0x461BCD PUSH1 0xE5 SHL DUP2 MSTORE PUSH2 0x1D6 SWAP2 SWAP1 PUSH1 0x4 ADD PUSH2 0x643 JUMP JUMPDEST PUSH1 0x40 MLOAD DUP1 SWAP2 SUB SWAP1 REVERT JUMPDEST PUSH1 0x1 ADD SWAP1 JUMP JUMPDEST PUSH1 0x0 PUSH32 0x0 PUSH1 0x1 PUSH1 0x1 PUSH1 0xA0 SHL SUB AND PUSH4 0xB0772D0B PUSH1 0x40 MLOAD DUP2 PUSH4 0xFFFFFFFF AND PUSH1 0xE0 SHL DUP2 MSTORE PUSH1 0x4 ADD PUSH1 0x0 PUSH1 0x40 MLOAD DUP1 DUP4 SUB DUP2 DUP7 GAS STATICCALL ISZERO DUP1 ISZERO PUSH2 0x245 JUMPI RETURNDATASIZE PUSH1 0x0 DUP1 RETURNDATACOPY RETURNDATASIZE PUSH1 0x0 REVERT JUMPDEST POP POP POP POP PUSH1 0x40 MLOAD RETURNDATASIZE PUSH1 0x0 DUP3 RETURNDATACOPY PUSH1 0x1F RETURNDATASIZE SWAP1 DUP2 ADD PUSH1 0x1F NOT AND DUP3 ADD PUSH1 0x40 MSTORE PUSH2 0x26D SWAP2 SWAP1 DUP2 ADD SWAP1 PUSH2 0x6BD JUMP JUMPDEST DUP1 MLOAD SWAP1 SWAP2 POP PUSH1 0x0 JUMPDEST DUP2 DUP2 LT ISZERO PUSH2 0x44A JUMPI PUSH1 0x0 DUP4 DUP3 DUP2 MLOAD DUP2 LT PUSH2 0x291 JUMPI PUSH2 0x291 PUSH2 0x76F JUMP JUMPDEST PUSH1 0x20 MUL PUSH1 0x20 ADD ADD MLOAD SWAP1 POP PUSH2 0x2A4 DUP2 PUSH2 0x44F JUMP JUMPDEST PUSH2 0x2AE JUMPI POP PUSH2 0x442 JUMP JUMPDEST PUSH32 0x0 DUP2 PUSH1 0x1 PUSH1 0x1 PUSH1 0xA0 SHL SUB AND PUSH4 0x95D89B41 PUSH1 0x40 MLOAD DUP2 PUSH4 0xFFFFFFFF AND PUSH1 0xE0 SHL DUP2 MSTORE PUSH1 0x4 ADD PUSH1 0x0 PUSH1 0x40 MLOAD DUP1 DUP4 SUB DUP2 DUP7 GAS STATICCALL ISZERO DUP1 ISZERO PUSH2 0x30D JUMPI RETURNDATASIZE PUSH1 0x0 DUP1 RETURNDATACOPY RETURNDATASIZE PUSH1 0x0 REVERT JUMPDEST POP POP POP POP PUSH1 0x40 MLOAD RETURNDATASIZE PUSH1 0x0 DUP3 RETURNDATACOPY PUSH1 0x1F RETURNDATASIZE SWAP1 DUP2 ADD PUSH1 0x1F NOT AND DUP3 ADD PUSH1 0x40 MSTORE PUSH2 0x335 SWAP2 SWAP1 DUP2 ADD SWAP1 PUSH2 0x785 JUMP JUMPDEST PUSH1 0x40 MLOAD PUSH1 0x20 ADD PUSH2 0x345 SWAP2 SWAP1 PUSH2 0x819 JUMP JUMPDEST PUSH1 0x40 MLOAD PUSH1 0x20 DUP2 DUP4 SUB SUB DUP2 MSTORE SWAP1 PUSH1 0x40 MSTORE DUP1 MLOAD SWAP1 PUSH1 0x20 ADD KECCAK256 EQ ISZERO PUSH2 0x3A8 JUMPI PUSH1 0x0 DUP1 DUP1 MSTORE PUSH1 0x20 MSTORE PUSH32 0xAD3228B676F7D3CD4284A5443F17F1962B36E491B30A40B2405849E597BA5FB5 DUP1 SLOAD PUSH1 0x1 PUSH1 0x1 PUSH1 0xA0 SHL SUB NOT AND PUSH1 0x1 PUSH1 0x1 PUSH1 0xA0 SHL SUB DUP4 AND OR SWAP1 SSTORE PUSH2 0x440 JUMP JUMPDEST DUP1 PUSH1 0x0 DUP1 DUP4 PUSH1 0x1 PUSH1 0x1 PUSH1 0xA0 SHL SUB AND PUSH4 0x6F307DC3 PUSH1 0x40 MLOAD DUP2 PUSH4 0xFFFFFFFF AND PUSH1 0xE0 SHL DUP2 MSTORE PUSH1 0x4 ADD PUSH1 0x20 PUSH1 0x40 MLOAD DUP1 DUP4 SUB DUP2 DUP7 GAS STATICCALL ISZERO DUP1 ISZERO PUSH2 0x3EA JUMPI RETURNDATASIZE PUSH1 0x0 DUP1 RETURNDATACOPY RETURNDATASIZE PUSH1 0x0 REVERT JUMPDEST POP POP POP POP PUSH1 0x40 MLOAD RETURNDATASIZE PUSH1 0x1F NOT PUSH1 0x1F DUP3 ADD AND DUP3 ADD DUP1 PUSH1 0x40 MSTORE POP DUP2 ADD SWAP1 PUSH2 0x40E SWAP2 SWAP1 PUSH2 0x835 JUMP JUMPDEST PUSH1 0x1 PUSH1 0x1 PUSH1 0xA0 SHL SUB SWAP1 DUP2 AND DUP3 MSTORE PUSH1 0x20 DUP3 ADD SWAP3 SWAP1 SWAP3 MSTORE PUSH1 0x40 ADD PUSH1 0x0 KECCAK256 DUP1 SLOAD PUSH1 0x1 PUSH1 0x1 PUSH1 0xA0 SHL SUB NOT AND SWAP3 SWAP1 SWAP2 AND SWAP2 SWAP1 SWAP2 OR SWAP1 SSTORE JUMPDEST POP JUMPDEST PUSH1 0x1 ADD PUSH2 0x275 JUMP JUMPDEST POP POP POP JUMP JUMPDEST PUSH1 0x40 MLOAD PUSH4 0x8E8F294B PUSH1 0xE0 SHL DUP2 MSTORE PUSH1 0x1 PUSH1 0x1 PUSH1 0xA0 SHL SUB DUP3 DUP2 AND PUSH1 0x4 DUP4 ADD MSTORE PUSH1 0x0 SWAP2 PUSH32 0x0 SWAP2 DUP4 SWAP2 SWAP1 DUP4 AND SWAP1 PUSH4 0x8E8F294B SWAP1 PUSH1 0x24 ADD PUSH1 0x60 PUSH1 0x40 MLOAD DUP1 DUP4 SUB DUP2 DUP7 GAS STATICCALL ISZERO DUP1 ISZERO PUSH2 0x4BD JUMPI RETURNDATASIZE PUSH1 0x0 DUP1 RETURNDATACOPY RETURNDATASIZE PUSH1 0x0 REVERT JUMPDEST POP POP POP POP PUSH1 0x40 MLOAD RETURNDATASIZE PUSH1 0x1F NOT PUSH1 0x1F DUP3 ADD AND DUP3 ADD DUP1 PUSH1 0x40 MSTORE POP DUP2 ADD SWAP1 PUSH2 0x4E1 SWAP2 SWAP1 PUSH2 0x852 JUMP JUMPDEST POP POP SWAP1 POP PUSH1 0x0 PUSH20 0x3D9819210A31B4961B30EF54BE2AED79B9C9CD3B PUSH1 0x1 PUSH1 0x1 PUSH1 0xA0 SHL SUB AND DUP4 PUSH1 0x1 PUSH1 0x1 PUSH1 0xA0 SHL SUB AND EQ DUP1 ISZERO PUSH2 0x581 JUMPI POP PUSH1 0x40 MLOAD PUSH4 0x94543C15 PUSH1 0xE0 SHL DUP2 MSTORE PUSH1 0x1 PUSH1 0x1 PUSH1 0xA0 SHL SUB DUP7 DUP2 AND PUSH1 0x4 DUP4 ADD MSTORE DUP5 AND SWAP1 PUSH4 0x94543C15 SWAP1 PUSH1 0x24 ADD PUSH1 0x20 PUSH1 0x40 MLOAD DUP1 DUP4 SUB DUP2 DUP7 GAS STATICCALL ISZERO DUP1 ISZERO PUSH2 0x55D JUMPI RETURNDATASIZE PUSH1 0x0 DUP1 RETURNDATACOPY RETURNDATASIZE PUSH1 0x0 REVERT JUMPDEST POP POP POP POP PUSH1 0x40 MLOAD RETURNDATASIZE PUSH1 0x1F NOT PUSH1 0x1F DUP3 ADD AND DUP3 ADD DUP1 PUSH1 0x40 MSTORE POP DUP2 ADD SWAP1 PUSH2 0x581 SWAP2 SWAP1 PUSH2 0x895 JUMP JUMPDEST SWAP1 POP DUP2 DUP1 ISZERO PUSH2 0x58E JUMPI POP DUP1 ISZERO JUMPDEST SWAP6 SWAP5 POP POP POP POP POP JUMP JUMPDEST PUSH1 0x1 PUSH1 0x1 PUSH1 0xA0 SHL SUB DUP2 AND DUP2 EQ PUSH2 0x5AC JUMPI PUSH1 0x0 DUP1 REVERT JUMPDEST POP JUMP JUMPDEST PUSH1 0x0 PUSH1 0x20 DUP3 DUP5 SUB SLT ISZERO PUSH2 0x5C1 JUMPI PUSH1 0x0 DUP1 REVERT JUMPDEST DUP2 CALLDATALOAD PUSH2 0x12B DUP2 PUSH2 0x597 JUMP JUMPDEST DUP1 ISZERO ISZERO DUP2 EQ PUSH2 0x5AC JUMPI PUSH1 0x0 DUP1 REVERT JUMPDEST PUSH1 0x0 DUP1 PUSH1 0x40 DUP4 DUP6 SUB SLT ISZERO PUSH2 0x5ED JUMPI PUSH1 0x0 DUP1 REVERT JUMPDEST DUP3 CALLDATALOAD PUSH2 0x5F8 DUP2 PUSH2 0x597 JUMP JUMPDEST SWAP2 POP PUSH1 0x20 DUP4 ADD CALLDATALOAD PUSH2 0x608 DUP2 PUSH2 0x5CC JUMP JUMPDEST DUP1 SWAP2 POP POP SWAP3 POP SWAP3 SWAP1 POP JUMP JUMPDEST PUSH1 0x0 JUMPDEST DUP4 DUP2 LT ISZERO PUSH2 0x62E JUMPI DUP2 DUP2 ADD MLOAD DUP4 DUP3 ADD MSTORE PUSH1 0x20 ADD PUSH2 0x616 JUMP JUMPDEST DUP4 DUP2 GT ISZERO PUSH2 0x63D JUMPI PUSH1 0x0 DUP5 DUP5 ADD MSTORE JUMPDEST POP POP POP POP JUMP JUMPDEST PUSH1 0x20 DUP2 MSTORE PUSH1 0x0 DUP3 MLOAD DUP1 PUSH1 0x20 DUP5 ADD MSTORE PUSH2 0x662 DUP2 PUSH1 0x40 DUP6 ADD PUSH1 0x20 DUP8 ADD PUSH2 0x613 JUMP JUMPDEST PUSH1 0x1F ADD PUSH1 0x1F NOT AND SWAP2 SWAP1 SWAP2 ADD PUSH1 0x40 ADD SWAP3 SWAP2 POP POP JUMP JUMPDEST PUSH4 0x4E487B71 PUSH1 0xE0 SHL PUSH1 0x0 MSTORE PUSH1 0x41 PUSH1 0x4 MSTORE PUSH1 0x24 PUSH1 0x0 REVERT JUMPDEST PUSH1 0x40 MLOAD PUSH1 0x1F DUP3 ADD PUSH1 0x1F NOT AND DUP2 ADD PUSH8 0xFFFFFFFFFFFFFFFF DUP2 GT DUP3 DUP3 LT OR ISZERO PUSH2 0x6B5 JUMPI PUSH2 0x6B5 PUSH2 0x676 JUMP JUMPDEST PUSH1 0x40 MSTORE SWAP2 SWAP1 POP JUMP JUMPDEST PUSH1 0x0 PUSH1 0x20 DUP1 DUP4 DUP6 SUB SLT ISZERO PUSH2 0x6D0 JUMPI PUSH1 0x0 DUP1 REVERT JUMPDEST DUP3 MLOAD PUSH8 0xFFFFFFFFFFFFFFFF DUP1 DUP3 GT ISZERO PUSH2 0x6E8 JUMPI PUSH1 0x0 DUP1 REVERT JUMPDEST DUP2 DUP6 ADD SWAP2 POP DUP6 PUSH1 0x1F DUP4 ADD SLT PUSH2 0x6FC JUMPI PUSH1 0x0 DUP1 REVERT JUMPDEST DUP2 MLOAD DUP2 DUP2 GT ISZERO PUSH2 0x70E JUMPI PUSH2 0x70E PUSH2 0x676 JUMP JUMPDEST DUP1 PUSH1 0x5 SHL SWAP2 POP PUSH2 0x71F DUP5 DUP4 ADD PUSH2 0x68C JUMP JUMPDEST DUP2 DUP2 MSTORE SWAP2 DUP4 ADD DUP5 ADD SWAP2 DUP5 DUP2 ADD SWAP1 DUP9 DUP5 GT ISZERO PUSH2 0x739 JUMPI PUSH1 0x0 DUP1 REVERT JUMPDEST SWAP4 DUP6 ADD SWAP4 JUMPDEST DUP4 DUP6 LT ISZERO PUSH2 0x763 JUMPI DUP5 MLOAD SWAP3 POP PUSH2 0x753 DUP4 PUSH2 0x597 JUMP JUMPDEST DUP3 DUP3 MSTORE SWAP4 DUP6 ADD SWAP4 SWAP1 DUP6 ADD SWAP1 PUSH2 0x73E JUMP JUMPDEST SWAP9 SWAP8 POP POP POP POP POP POP POP POP JUMP JUMPDEST PUSH4 0x4E487B71 PUSH1 0xE0 SHL PUSH1 0x0 MSTORE PUSH1 0x32 PUSH1 0x4 MSTORE PUSH1 0x24 PUSH1 0x0 REVERT JUMPDEST PUSH1 0x0 PUSH1 0x20 DUP3 DUP5 SUB SLT ISZERO PUSH2 0x797 JUMPI PUSH1 0x0 DUP1 REVERT JUMPDEST DUP2 MLOAD PUSH8 0xFFFFFFFFFFFFFFFF DUP1 DUP3 GT ISZERO PUSH2 0x7AF JUMPI PUSH1 0x0 DUP1 REVERT JUMPDEST DUP2 DUP5 ADD SWAP2 POP DUP5 PUSH1 0x1F DUP4 ADD SLT PUSH2 0x7C3 JUMPI PUSH1 0x0 DUP1 REVERT JUMPDEST DUP2 MLOAD DUP2 DUP2 GT ISZERO PUSH2 0x7D5 JUMPI PUSH2 0x7D5 PUSH2 0x676 JUMP JUMPDEST PUSH2 0x7E8 PUSH1 0x1F DUP3 ADD PUSH1 0x1F NOT AND PUSH1 0x20 ADD PUSH2 0x68C JUMP JUMPDEST SWAP2 POP DUP1 DUP3 MSTORE DUP6 PUSH1 0x20 DUP3 DUP6 ADD ADD GT ISZERO PUSH2 0x7FF JUMPI PUSH1 0x0 DUP1 REVERT JUMPDEST PUSH2 0x810 DUP2 PUSH1 0x20 DUP5 ADD PUSH1 0x20 DUP7 ADD PUSH2 0x613 JUMP JUMPDEST POP SWAP5 SWAP4 POP POP POP POP JUMP JUMPDEST PUSH1 0x0 DUP3 MLOAD PUSH2 0x82B DUP2 DUP5 PUSH1 0x20 DUP8 ADD PUSH2 0x613 JUMP JUMPDEST SWAP2 SWAP1 SWAP2 ADD SWAP3 SWAP2 POP POP JUMP JUMPDEST PUSH1 0x0 PUSH1 0x20 DUP3 DUP5 SUB SLT ISZERO PUSH2 0x847 JUMPI PUSH1 0x0 DUP1 REVERT JUMPDEST DUP2 MLOAD PUSH2 0x12B DUP2 PUSH2 0x597 JUMP JUMPDEST PUSH1 0x0 DUP1 PUSH1 0x0 PUSH1 0x60 DUP5 DUP7 SUB SLT ISZERO PUSH2 0x867 JUMPI PUSH1 0x0 DUP1 REVERT JUMPDEST DUP4 MLOAD PUSH2 0x872 DUP2 PUSH2 0x5CC JUMP JUMPDEST PUSH1 0x20 DUP6 ADD MLOAD PUSH1 0x40 DUP7 ADD MLOAD SWAP2 SWAP5 POP SWAP3 POP PUSH2 0x88A DUP2 PUSH2 0x5CC JUMP JUMPDEST DUP1 SWAP2 POP POP SWAP3 POP SWAP3 POP SWAP3 JUMP JUMPDEST PUSH1 0x0 PUSH1 0x20 DUP3 DUP5 SUB SLT ISZERO PUSH2 0x8A7 JUMPI PUSH1 0x0 DUP1 REVERT JUMPDEST DUP2 MLOAD PUSH2 0x12B DUP2 PUSH2 0x5CC JUMP INVALID LOG2 PUSH5 0x6970667358 0x22 SLT KECCAK256 0xDB DIFFICULTY GT DUP16 0x2B 0xAB SELFDESTRUCT 0xAF EXTCODECOPY 0xBF MSIZE 0xE0 DIFFICULTY DUP3 0xA5 CALLDATALOAD 0x5E 0x27 DUP9 SWAP13 PUSH27 0x2ED37B873789E4E16922E064736F6C634300080A00330000000000 ","sha1":"218a69d5496f38a9863d5ffa907c816a4610eeba","source":"// SPDX-License-Identifier: GPL-3.0-or-later\npragma solidity 0.8.10;\n\nimport \"../../../../interfaces/vendor/CToken.sol\";\nimport \"../../../../interfaces/vendor/Comptroller.sol\";\nimport \"../../../../interfaces/ICTokenRegistry.sol\";\nimport \"../../../../libraries/Errors.sol\";\nimport \"../../../../libraries/UncheckedMath.sol\";\n\ncontract CTokenRegistry is ICTokenRegistry {\n    using UncheckedMath for uint256;\n\n    Comptroller public immutable comptroller;\n    bytes32 internal immutable _ethCTokenSymbol;\n\n    address public constant COMPTROLLER_MAINNET_ADDRESS =\n        address(0x3d9819210A31b4961b30EF54bE2aeD79B9c9Cd3B);\n\n    mapping(address => address) internal _underlyingToCToken;\n\n    constructor(address comptrollerAddress) {\n        comptroller = Comptroller(comptrollerAddress);\n        _ethCTokenSymbol = keccak256(abi.encodePacked(\"cETH\"));\n        _updateCTokenMapping();\n    }\n\n    /**\n     * @notice Tries to read the CToken contract address for a given underlying token address\n     * If not found, tries to fetch it from the Comptroller contract and fails if\n     * cannot find it in the comptroller either\n     */\n    function fetchCToken(address underlying) external override returns (address) {\n        address ctoken = getCToken(underlying, false);\n        if (ctoken != address(0)) {\n            return ctoken;\n        }\n\n        _updateCTokenMapping();\n        return getCToken(underlying, true);\n    }\n\n    /**\n     * @notice Reads the CToken contract address for a given underlying token address\n     * or fails if not found\n     */\n    function getCToken(address underlying) external view override returns (address) {\n        return getCToken(underlying, true);\n    }\n\n    /**\n     * @notice Reads the CToken contract address for a given underlying token address\n     * If `ensureExists` is `true`, fails if not found, otherwise returns address 0\n     */\n    function getCToken(address underlying, bool ensureExists)\n        public\n        view\n        override\n        returns (address)\n    {\n        address ctoken = _underlyingToCToken[underlying];\n        if (ensureExists && (address(ctoken) == address(0) || !_isCTokenUsable(ctoken))) {\n            revert(Error.UNDERLYING_NOT_SUPPORTED);\n        }\n        return ctoken;\n    }\n\n    /**\n     * @dev Updates the CToken mapping by fetching information from the Comptroller contract\n     */\n    function _updateCTokenMapping() internal {\n        CToken[] memory ctokens = comptroller.getAllMarkets();\n        uint256 length_ = ctokens.length;\n        for (uint256 i; i < length_; i = i.uncheckedInc()) {\n            CToken ctoken = ctokens[i];\n            if (!_isCTokenUsable(address(ctoken))) {\n                continue;\n            }\n            if (keccak256(abi.encodePacked(ctoken.symbol())) == _ethCTokenSymbol) {\n                _underlyingToCToken[address(0)] = address(ctoken);\n            } else {\n                _underlyingToCToken[ctoken.underlying()] = address(ctoken);\n            }\n        }\n    }\n\n    function _isCTokenUsable(address ctoken) internal view returns (bool) {\n        Comptroller comptroller_ = comptroller;\n        (bool listed, , ) = comptroller_.markets(ctoken);\n        // NOTE: comptroller.isDeprecated is not available on Kovan\n        bool deprecated = address(comptroller_) == COMPTROLLER_MAINNET_ADDRESS &&\n            comptroller_.isDeprecated(ctoken);\n        return listed && !deprecated;\n    }\n}\n","sourcePath":"contracts/actions/topup/handlers/CTokenRegistry.sol","type":"contract","deployment":{"address":"0xA3001b4532179387b2a85Cd829420ef63Fa5B092","chainid":"42","blockHeight":33231621}}