{"abi":[{"inputs":[{"internalType":"contract IAddressProvider","name":"_addressProvider","type":"address"}],"stateMutability":"nonpayable","type":"constructor","name":"constructor"},{"anonymous":false,"inputs":[{"indexed":true,"internalType":"address","name":"token","type":"address"},{"indexed":true,"internalType":"address","name":"ammGauge","type":"address"}],"name":"AmmGaugeDelisted","type":"event"},{"anonymous":false,"inputs":[{"indexed":true,"internalType":"address","name":"token","type":"address"},{"indexed":true,"internalType":"address","name":"ammGauge","type":"address"}],"name":"AmmGaugeListed","type":"event"},{"anonymous":false,"inputs":[{"indexed":true,"internalType":"address","name":"pool","type":"address"},{"indexed":true,"internalType":"address","name":"keeperGauge","type":"address"}],"name":"KeeperGaugeDelisted","type":"event"},{"anonymous":false,"inputs":[{"indexed":true,"internalType":"address","name":"pool","type":"address"},{"indexed":true,"internalType":"address","name":"keeperGauge","type":"address"}],"name":"KeeperGaugeListed","type":"event"},{"anonymous":false,"inputs":[{"indexed":true,"internalType":"address","name":"token","type":"address"},{"indexed":false,"internalType":"uint256","name":"newWeight","type":"uint256"}],"name":"NewAmmTokenWeight","type":"event"},{"anonymous":false,"inputs":[{"indexed":true,"internalType":"address","name":"pool","type":"address"},{"indexed":false,"internalType":"uint256","name":"newWeight","type":"uint256"}],"name":"NewKeeperWeight","type":"event"},{"anonymous":false,"inputs":[{"indexed":true,"internalType":"address","name":"pool","type":"address"},{"indexed":false,"internalType":"uint256","name":"newWeight","type":"uint256"}],"name":"NewLpWeight","type":"event"},{"anonymous":false,"inputs":[],"name":"WeightBasedKeeperDistributionDeactivated","type":"event"},{"inputs":[{"internalType":"address","name":"lpToken","type":"address"}],"name":"addGaugeForVault","outputs":[],"stateMutability":"nonpayable","type":"function"},{"inputs":[],"name":"addressProvider","outputs":[{"internalType":"contract IAddressProvider","name":"","type":"address"}],"stateMutability":"view","type":"function"},{"inputs":[{"internalType":"address","name":"pool","type":"address"}],"name":"advanceKeeperGaugeEpoch","outputs":[],"stateMutability":"nonpayable","type":"function"},{"inputs":[{"internalType":"address","name":"","type":"address"}],"name":"ammWeights","outputs":[{"internalType":"uint256","name":"","type":"uint256"}],"stateMutability":"view","type":"function"},{"inputs":[{"internalType":"address[]","name":"tokens_","type":"address[]"},{"internalType":"uint256[]","name":"weights_","type":"uint256[]"}],"name":"batchUpdateAmmTokenWeights","outputs":[],"stateMutability":"nonpayable","type":"function"},{"inputs":[{"internalType":"address[]","name":"pools","type":"address[]"},{"internalType":"uint256[]","name":"weights","type":"uint256[]"}],"name":"batchUpdateKeeperPoolWeights","outputs":[],"stateMutability":"nonpayable","type":"function"},{"inputs":[{"internalType":"address[]","name":"lpTokens_","type":"address[]"},{"internalType":"uint256[]","name":"weights_","type":"uint256[]"}],"name":"batchUpdateLpPoolWeights","outputs":[],"stateMutability":"nonpayable","type":"function"},{"inputs":[],"name":"checkPointInflation","outputs":[],"stateMutability":"nonpayable","type":"function"},{"inputs":[{"internalType":"uint256","name":"updateEndTime","type":"uint256"}],"name":"checkpointAllGauges","outputs":[],"stateMutability":"nonpayable","type":"function"},{"inputs":[],"name":"deactivateWeightBasedKeeperDistribution","outputs":[],"stateMutability":"nonpayable","type":"function"},{"inputs":[{"internalType":"address","name":"","type":"address"}],"name":"gauges","outputs":[{"internalType":"bool","name":"","type":"bool"}],"stateMutability":"view","type":"function"},{"inputs":[],"name":"getAllAmmGauges","outputs":[{"internalType":"address[]","name":"","type":"address[]"}],"stateMutability":"view","type":"function"},{"inputs":[{"internalType":"address","name":"token","type":"address"}],"name":"getAmmGaugeForToken","outputs":[{"internalType":"address","name":"","type":"address"}],"stateMutability":"view","type":"function"},{"inputs":[{"internalType":"address","name":"token_","type":"address"}],"name":"getAmmRateForToken","outputs":[{"internalType":"uint256","name":"","type":"uint256"}],"stateMutability":"view","type":"function"},{"inputs":[{"internalType":"address","name":"pool","type":"address"}],"name":"getKeeperGaugeForPool","outputs":[{"internalType":"address","name":"","type":"address"}],"stateMutability":"view","type":"function"},{"inputs":[{"internalType":"address","name":"pool","type":"address"}],"name":"getKeeperRateForPool","outputs":[{"internalType":"uint256","name":"","type":"uint256"}],"stateMutability":"view","type":"function"},{"inputs":[{"internalType":"address","name":"lpToken","type":"address"}],"name":"getLpPoolWeight","outputs":[{"internalType":"uint256","name":"","type":"uint256"}],"stateMutability":"view","type":"function"},{"inputs":[{"internalType":"address","name":"stakerVault","type":"address"}],"name":"getLpRateForStakerVault","outputs":[{"internalType":"uint256","name":"","type":"uint256"}],"stateMutability":"view","type":"function"},{"inputs":[{"internalType":"address","name":"","type":"address"}],"name":"keeperPoolWeights","outputs":[{"internalType":"uint256","name":"","type":"uint256"}],"stateMutability":"view","type":"function"},{"inputs":[{"internalType":"address","name":"","type":"address"}],"name":"lpPoolWeights","outputs":[{"internalType":"uint256","name":"","type":"uint256"}],"stateMutability":"view","type":"function"},{"inputs":[{"internalType":"address","name":"beneficiary","type":"address"},{"internalType":"uint256","name":"amount","type":"uint256"}],"name":"mintRewards","outputs":[],"stateMutability":"nonpayable","type":"function"},{"inputs":[],"name":"minter","outputs":[{"internalType":"address","name":"","type":"address"}],"stateMutability":"view","type":"function"},{"inputs":[{"internalType":"address","name":"token_","type":"address"}],"name":"removeAmmGauge","outputs":[{"internalType":"bool","name":"","type":"bool"}],"stateMutability":"nonpayable","type":"function"},{"inputs":[{"internalType":"address","name":"pool","type":"address"}],"name":"removeKeeperGauge","outputs":[],"stateMutability":"nonpayable","type":"function"},{"inputs":[{"internalType":"address","name":"lpToken","type":"address"}],"name":"removeStakerVaultFromInflation","outputs":[],"stateMutability":"nonpayable","type":"function"},{"inputs":[],"name":"roleManager","outputs":[{"internalType":"contract IRoleManager","name":"","type":"address"}],"stateMutability":"view","type":"function"},{"inputs":[{"internalType":"address","name":"token","type":"address"},{"internalType":"address","name":"_ammGauge","type":"address"}],"name":"setAmmGauge","outputs":[{"internalType":"bool","name":"","type":"bool"}],"stateMutability":"nonpayable","type":"function"},{"inputs":[{"internalType":"address","name":"pool","type":"address"},{"internalType":"address","name":"_keeperGauge","type":"address"}],"name":"setKeeperGauge","outputs":[{"internalType":"bool","name":"","type":"bool"}],"stateMutability":"nonpayable","type":"function"},{"inputs":[{"internalType":"address","name":"_minter","type":"address"}],"name":"setMinter","outputs":[],"stateMutability":"nonpayable","type":"function"},{"inputs":[],"name":"totalAmmTokenWeight","outputs":[{"internalType":"uint256","name":"","type":"uint256"}],"stateMutability":"view","type":"function"},{"inputs":[],"name":"totalKeeperPoolWeight","outputs":[{"internalType":"uint256","name":"","type":"uint256"}],"stateMutability":"view","type":"function"},{"inputs":[],"name":"totalLpPoolWeight","outputs":[{"internalType":"uint256","name":"","type":"uint256"}],"stateMutability":"view","type":"function"},{"inputs":[{"internalType":"address","name":"token_","type":"address"},{"internalType":"uint256","name":"weight_","type":"uint256"}],"name":"updateAmmTokenWeight","outputs":[],"stateMutability":"nonpayable","type":"function"},{"inputs":[{"internalType":"address","name":"pool_","type":"address"},{"internalType":"uint256","name":"weight_","type":"uint256"}],"name":"updateKeeperPoolWeight","outputs":[],"stateMutability":"nonpayable","type":"function"},{"inputs":[{"internalType":"address","name":"lpToken_","type":"address"},{"internalType":"uint256","name":"weight_","type":"uint256"}],"name":"updateLpPoolWeight","outputs":[],"stateMutability":"nonpayable","type":"function"},{"inputs":[],"name":"weightBasedKeeperDistributionDeactivated","outputs":[{"internalType":"bool","name":"","type":"bool"}],"stateMutability":"view","type":"function"},{"inputs":[{"internalType":"address","name":"gauge","type":"address"}],"name":"whitelistGauge","outputs":[],"stateMutability":"nonpayable","type":"function"}],"bytecode":"60c06040523480156200001157600080fd5b5060405162003f7538038062003f75833981016040819052620000349162000106565b62000053816001600160a01b03166200006b60201b62002ad31760201c565b6001600160a01b039081166080521660a0526200012d565b6040516321f8a72160e01b81526a3937b632a6b0b730b3b2b960a91b60048201526000906001600160a01b038316906321f8a72190602401602060405180830381865afa158015620000c1573d6000803e3d6000fd5b505050506040513d601f19601f82011682018060405250810190620000e7919062000106565b92915050565b6001600160a01b03811681146200010357600080fd5b50565b6000602082840312156200011957600080fd5b81516200012681620000ed565b9392505050565b60805160a051613d7a620001fb600039600081816102fc015281816106650152818161096b01528181610da201528181611f020152818161240201528181612b9201528181612c1c015281816132c5015261343801526000818161022d0152818161082e01528181610a7a01528181610f55015281816110a7015281816113830152818161158501528181611826015281816119e501528181611dd201528181612111015281816122090152818161230e01528181612617015281816127c401526129aa0152613d7a6000f3fe608060405234801561001057600080fd5b50600436106102265760003560e01c80638461372f11610130578063c6ff6443116100b8578063f0ed3a571161007c578063f0ed3a5714610507578063f1f326391461051a578063fca3b5aa1461052d578063fd600b8414610540578063fe77842f1461055357600080fd5b8063c6ff6443146104a5578063c9fb321a146104b8578063d77f450b146104c1578063df9ccfff146104e1578063df9f8fb7146104f457600080fd5b806390b3f156116100ff57806390b3f1561461043f5780639bbdd1ac146104475780639c6856fc1461045a578063a871d4ee1461046d578063b9a09fd51461048257600080fd5b80638461372f146103e75780638a75b2cd146103fa5780638d6dca55146104035780638e01c1961461041657600080fd5b80633da3c28f116101b35780635b75121a116101825780635b75121a1461037b578063674bb60a1461039b5780636a20de92146103ae5780637b31c5de146103c15780637ddbc911146103d457600080fd5b80633da3c28f1461031e578063430e2e57146103315780635394ee05146103445780635a5156d11461036857600080fd5b80630edb01e4116101fa5780630edb01e4146102c05780631caea2c9146102c857806326ea87b0146102db5780632897a553146102e45780632954018c146102f757600080fd5b8062435da51461022b578063075461721461026a57806308dc1d291461027d5780630d4f06ea14610292575b600080fd5b7f00000000000000000000000000000000000000000000000000000000000000005b6040516001600160a01b0390911681526020015b60405180910390f35b60035461024d906001600160a01b031681565b61029061028b3660046138ce565b61056b565b005b6102b26102a03660046138fc565b60016020526000908152604090205481565b604051908152602001610261565b61029061082c565b6102906102d63660046138fc565b610a6a565b6102b260055481565b6102b26102f23660046138fc565b610b72565b61024d7f000000000000000000000000000000000000000000000000000000000000000081565b6102b261032c3660046138fc565b610ca6565b61029061033f3660046138fc565b610d79565b60035461035890600160a01b900460ff1681565b6040519015158152602001610261565b610290610376366004613919565b610f32565b6102b26103893660046138fc565b60026020526000908152604090205481565b6102906103a936600461398a565b611084565b6102906103bc366004613919565b61129f565b6102906103cf36600461398a565b611360565b61024d6103e23660046138fc565b611573565b6103586103f53660046139f6565b611581565b6102b260065481565b6102906104113660046138fc565b611824565b6102b26104243660046138fc565b6001600160a01b031660009081526001602052604090205490565b610290611965565b6103586104553660046139f6565b6119e1565b6102b26104683660046138fc565b611cc5565b610475611da3565b6040516102619190613a2f565b6103586104903660046138fc565b600d6020526000908152604090205460ff1681565b6102906104b336600461398a565b611daf565b6102b260045481565b6102b26104cf3660046138fc565b60006020819052908152604090205481565b61024d6104ef3660046138fc565b612101565b6102906105023660046138fc565b61210f565b6102906105153660046138fc565b6121f9565b610290610528366004613919565b6122eb565b61029061053b3660046138fc565b612615565b61035861054e3660046138fc565b6127c0565b610290610561366004613919565b612987565b905090565b6003546040805180820190915260138152600080516020613ce18339815191526020820152906001600160a01b031633146105c25760405162461bcd60e51b81526004016105b99190613a7c565b60405180910390fd5b5060006105cf6007612b4c565b905060005b81811015610660576105e7600782612b57565b6001600160a01b031663e7945d00846040518263ffffffff1660e01b815260040161061491815260200190565b6020604051808303816000875af1158015610633573d6000803e3d6000fd5b505050506040513d601f19601f820116820180604052508101906106579190613ad1565b506001016105d4565b5060007f00000000000000000000000000000000000000000000000000000000000000006001600160a01b03166375a8012b6040518163ffffffff1660e01b8152600401600060405180830381865afa1580156106c1573d6000803e3d6000fd5b505050506040513d6000823e601f3d908101601f191682016040526106e99190810190613b14565b905060005b815181101561078a5781818151811061070957610709613bd9565b60200260200101516001600160a01b031663e7945d00856040518263ffffffff1660e01b815260040161073e91815260200190565b6020604051808303816000875af115801561075d573d6000803e3d6000fd5b505050506040513d601f19601f820116820180604052508101906107819190613ad1565b506001016106ee565b50610795600a612b4c565b915060005b82811015610826576107ad600a82612b57565b6001600160a01b031663e7945d00856040518263ffffffff1660e01b81526004016107da91815260200190565b6020604051808303816000875af11580156107f9573d6000803e3d6000fd5b505050506040513d601f19601f8201168201806040525081019061081d9190613ad1565b5060010161079a565b50505050565b7f0000000000000000000000000000000000000000000000000000000000000000604051632474521560e21b815269676f7665726e616e636560b01b60048201523360248201526001600160a01b0391909116906391d1485490604401602060405180830381865afa1580156108a6573d6000803e3d6000fd5b505050506040513d601f19601f820116820180604052508101906108ca9190613ad1565b604051806040016040528060138152602001600080516020613ce18339815191528152509061090c5760405162461bcd60e51b81526004016105b99190613a7c565b50600354600160a01b900460ff16156109675760405162461bcd60e51b815260206004820152601f60248201527f5765696768742d626173656420646973742e2064656163746976617465642e0060448201526064016105b9565b60007f00000000000000000000000000000000000000000000000000000000000000006001600160a01b031663c5c63e656040518163ffffffff1660e01b8152600401600060405180830381865afa1580156109c7573d6000803e3d6000fd5b505050506040513d6000823e601f3d908101601f191682016040526109ef9190810190613b14565b805190915060005b81811015610a2957610a21838281518110610a1457610a14613bd9565b6020026020010151612b6d565b6001016109f7565b506003805460ff60a01b1916600160a01b1790556040517fcc93c4437368fec399108802a2a5aca4ffcf6b91185d752ebf5a52ed1be0b1b690600090a15050565b6931b7b73a3937b63632b960b11b7f0000000000000000000000000000000000000000000000000000000000000000604051632474521560e21b8152600481018390523360248201526001600160a01b0391909116906391d1485490604401602060405180830381865afa158015610ae6573d6000803e3d6000fd5b505050506040513d601f19601f82011682018060405250810190610b0a9190613ad1565b604051806040016040528060138152602001600080516020613ce183398151915281525090610b4c5760405162461bcd60e51b81526004016105b99190613a7c565b50506001600160a01b03166000908152600d60205260409020805460ff19166001179055565b600554600354600091906001600160a01b0316801580610b90575081155b15610b9f575060009392505050565b6000816001600160a01b03166388258d316040518163ffffffff1660e01b8152600401602060405180830381865afa158015610bdf573d6000803e3d6000fd5b505050506040513d601f19601f82011682018060405250810190610c039190613bef565b90506000856001600160a01b03166321df0da76040518163ffffffff1660e01b8152600401602060405180830381865afa158015610c45573d6000803e3d6000fd5b505050506040513d601f19601f82011682018060405250810190610c699190613c08565b6001600160a01b0381166000908152600160205260409020549091508490610c92908490613c3b565b610c9c9190613c5a565b9695505050505050565b6003546000906001600160a01b03161580610cc15750600654155b15610cce57506000919050565b600354604080516343bf8b4960e11b815290516000926001600160a01b03169163877f16929160048083019260209291908290030181865afa158015610d18573d6000803e3d6000fd5b505050506040513d601f19601f82011682018060405250810190610d3c9190613bef565b6006546001600160a01b03851660009081526002602052604081205492935091610d67908490613c3b565b610d719190613c5a565b949350505050565b604051635b80b5fb60e11b815233600482018190526001600160a01b03838116602484015290917f00000000000000000000000000000000000000000000000000000000000000009091169063b7016bf690604401602060405180830381865afa158015610deb573d6000803e3d6000fd5b505050506040513d601f19601f82011682018060405250810190610e0f9190613ad1565b604051806040016040528060138152602001600080516020613ce183398151915281525090610e515760405162461bcd60e51b81526004016105b99190613a7c565b506000816001600160a01b031663c5ec78746040518163ffffffff1660e01b8152600401602060405180830381865afa158015610e92573d6000803e3d6000fd5b505050506040513d601f19601f82011682018060405250810190610eb69190613c08565b60408051808201909152601481527311d85d59d948191bd95cc81b9bdd08195e1a5cdd60621b60208201529091506001600160a01b038216610f0b5760405162461bcd60e51b81526004016105b99190613a7c565b506001600160a01b03166000908152600d60205260409020805460ff191660011790555050565b69676f7665726e616e636560b01b6e34b7333630ba34b7b72fb0b236b4b760891b7f00000000000000000000000000000000000000000000000000000000000000006001600160a01b031663d756a4228383336040518463ffffffff1660e01b8152600401610fa393929190613c7c565b602060405180830381865afa158015610fc0573d6000803e3d6000fd5b505050506040513d601f19601f82011682018060405250810190610fe49190613ad1565b604051806040016040528060138152602001600080516020613ce1833981519152815250906110265760405162461bcd60e51b81526004016105b99190613a7c565b50611032600785612f63565b6040518060400160405280601081526020016f1a5b9d985b1a5908185c99dd5b595b9d60821b815250906110795760405162461bcd60e51b81526004016105b99190613a7c565b506108268484612f7f565b69676f7665726e616e636560b01b6e34b7333630ba34b7b72fb0b236b4b760891b7f00000000000000000000000000000000000000000000000000000000000000006001600160a01b031663d756a4228383336040518463ffffffff1660e01b81526004016110f593929190613c7c565b602060405180830381865afa158015611112573d6000803e3d6000fd5b505050506040513d601f19601f820116820180604052508101906111369190613ad1565b604051806040016040528060138152602001600080516020613ce1833981519152815250906111785760405162461bcd60e51b81526004016105b99190613a7c565b5060408051808201909152601081526f1a5b9d985b1a5908185c99dd5b595b9d60821b60208201528584146111c05760405162461bcd60e51b81526004016105b99190613a7c565b5060005b85811015611296576111fe8787838181106111e1576111e1613bd9565b90506020020160208101906111f691906138fc565b600790612f63565b6040518060400160405280601081526020016f1a5b9d985b1a5908185c99dd5b595b9d60821b815250906112455760405162461bcd60e51b81526004016105b99190613a7c565b5061128e87878381811061125b5761125b613bd9565b905060200201602081019061127091906138fc565b86868481811061128257611282613bd9565b90506020020135612f7f565b6001016111c4565b50505050505050565b336000908152600d602090815260409182902054825180840190935260138352600080516020613ce18339815191529183019190915260ff166112f55760405162461bcd60e51b81526004016105b99190613a7c565b506003546040516340c10f1960e01b81526001600160a01b03848116600483015260248201849052909116906340c10f1990604401600060405180830381600087803b15801561134457600080fd5b505af1158015611358573d6000803e3d6000fd5b505050505050565b69676f7665726e616e636560b01b6e34b7333630ba34b7b72fb0b236b4b760891b7f00000000000000000000000000000000000000000000000000000000000000006001600160a01b031663d756a4228383336040518463ffffffff1660e01b81526004016113d193929190613c7c565b602060405180830381865afa1580156113ee573d6000803e3d6000fd5b505050506040513d601f19601f820116820180604052508101906114129190613ad1565b604051806040016040528060138152602001600080516020613ce1833981519152815250906114545760405162461bcd60e51b81526004016105b99190613a7c565b508483146114a45760405162461bcd60e51b815260206004820152601b60248201527f496e76616c6964206c656e677468206f6620617267756d656e7473000000000060448201526064016105b9565b60005b85811015611296576114e18787838181106114c4576114c4613bd9565b90506020020160208101906114d991906138fc565b600a90612f63565b6115235760405162461bcd60e51b8152602060048201526013602482015272185b5b4819d85d59d9481b9bdd08199bdd5b99606a1b60448201526064016105b9565b61156b87878381811061153857611538613bd9565b905060200201602081019061154d91906138fc565b86868481811061155f5761155f613bd9565b90506020020135613097565b6001016114a7565b600080610d71600a846131a9565b60007f0000000000000000000000000000000000000000000000000000000000000000604051632474521560e21b815269676f7665726e616e636560b01b60048201523360248201526001600160a01b0391909116906391d1485490604401602060405180830381865afa1580156115fd573d6000803e3d6000fd5b505050506040513d601f19601f820116820180604052508101906116219190613ad1565b604051806040016040528060138152602001600080516020613ce1833981519152815250906116635760405162461bcd60e51b81526004016105b99190613a7c565b5060405163fa3f8f1b60e01b81526001600160a01b03848116600483015283169063fa3f8f1b90602401602060405180830381865afa1580156116aa573d6000803e3d6000fd5b505050506040513d601f19601f820116820180604052508101906116ce9190613ad1565b6040518060400160405280601781526020017f61646472657373206e6f742077686974656c6973746564000000000000000000815250906117225760405162461bcd60e51b81526004016105b99190613a7c565b50600061172f600a612b4c565b905060005b81811015611773576001600160a01b038416611751600a83612b57565b6001600160a01b0316141561176b5760009250505061181e565b600101611734565b5061177f600a85612f63565b156117e8576000611791600a866131d0565b9050806001600160a01b03166341c0e1b56040518163ffffffff1660e01b8152600401600060405180830381600087803b1580156117ce57600080fd5b505af11580156117e2573d6000803e3d6000fd5b50505050505b6117f4600a85856131e5565b5050506001600160a01b0381166000908152600d60205260409020805460ff191660019081179091555b92915050565b7f0000000000000000000000000000000000000000000000000000000000000000604051632474521560e21b815269676f7665726e616e636560b01b60048201523360248201526001600160a01b0391909116906391d1485490604401602060405180830381865afa15801561189e573d6000803e3d6000fd5b505050506040513d601f19601f820116820180604052508101906118c29190613ad1565b604051806040016040528060138152602001600080516020613ce1833981519152815250906119045760405162461bcd60e51b81526004016105b99190613a7c565b506119106007826131d0565b6001600160a01b0316633cf80e6c6040518163ffffffff1660e01b8152600401600060405180830381600087803b15801561194a57600080fd5b505af115801561195e573d6000803e3d6000fd5b5050505050565b600360009054906101000a90046001600160a01b03166001600160a01b0316634a17ed596040518163ffffffff1660e01b81526004016020604051808303816000875af11580156119ba573d6000803e3d6000fd5b505050506040513d601f19601f820116820180604052508101906119de9190613ad1565b50565b60007f0000000000000000000000000000000000000000000000000000000000000000604051632474521560e21b815269676f7665726e616e636560b01b60048201523360248201526001600160a01b0391909116906391d1485490604401602060405180830381865afa158015611a5d573d6000803e3d6000fd5b505050506040513d601f19601f82011682018060405250810190611a819190613ad1565b604051806040016040528060138152602001600080516020613ce183398151915281525090611ac35760405162461bcd60e51b81526004016105b99190613a7c565b506000611ad06007612b4c565b90506000805b82811015611b13576001600160a01b038516611af3600783612b57565b6001600160a01b03161415611b0b5760019150611b13565b600101611ad6565b5080158015611b2b5750600354600160a01b900460ff165b8015611b38575060018210155b15611b485760009250505061181e565b600080611b566007886131a9565b91509150811580611b795750856001600160a01b0316816001600160a01b031614155b6040518060400160405280601081526020016f1a5b9d985b1a5908185c99dd5b595b9d60821b81525090611bc05760405162461bcd60e51b81526004016105b99190613a7c565b50818015611c2d5750806001600160a01b0316631f3a0e416040518163ffffffff1660e01b8152600401602060405180830381865afa158015611c07573d6000803e3d6000fd5b505050506040513d601f19601f82011682018060405250810190611c2b9190613ad1565b155b15611c8657806001600160a01b03166341c0e1b56040518163ffffffff1660e01b8152600401600060405180830381600087803b158015611c6d57600080fd5b505af1158015611c81573d6000803e3d6000fd5b505050505b611c92600788886131e5565b5050506001600160a01b0384166000908152600d60205260409020805460ff191660019081179091559250505092915050565b6003546000906001600160a01b0316611ce057506000919050565b6003546040805163017e7eab60e71b815290516000926001600160a01b03169163bf3f55809160048083019260209291908290030181865afa158015611d2a573d6000803e3d6000fd5b505050506040513d601f19601f82011682018060405250810190611d4e9190613bef565b600354909150600160a01b900460ff1615611d695792915050565b600454611d795750600092915050565b6004546001600160a01b038416600090815260208190526040812054909190610d67908490613c3b565b6060610566600a6131fe565b69676f7665726e616e636560b01b6e34b7333630ba34b7b72fb0b236b4b760891b7f00000000000000000000000000000000000000000000000000000000000000006001600160a01b031663d756a4228383336040518463ffffffff1660e01b8152600401611e2093929190613c7c565b602060405180830381865afa158015611e3d573d6000803e3d6000fd5b505050506040513d601f19601f82011682018060405250810190611e619190613ad1565b604051806040016040528060138152602001600080516020613ce183398151915281525090611ea35760405162461bcd60e51b81526004016105b99190613a7c565b50848314611ef35760405162461bcd60e51b815260206004820152601b60248201527f496e76616c6964206c656e677468206f6620617267756d656e7473000000000060448201526064016105b9565b60005b858110156112965760007f00000000000000000000000000000000000000000000000000000000000000006001600160a01b03166359eadeb0898985818110611f4157611f41613bd9565b9050602002016020810190611f5691906138fc565b6040516001600160e01b031960e084901b1681526001600160a01b039091166004820152602401602060405180830381865afa158015611f9a573d6000803e3d6000fd5b505050506040513d601f19601f82011682018060405250810190611fbe9190613c08565b905060006001600160a01b0316816001600160a01b031663c5ec78746040518163ffffffff1660e01b8152600401602060405180830381865afa158015612009573d6000803e3d6000fd5b505050506040513d601f19601f8201168201806040525081019061202d9190613c08565b6001600160a01b03161415604051806040016040528060118152602001701859191c995cdcc81b9bdd08199bdd5b99607a1b815250906120805760405162461bcd60e51b81526004016105b99190613a7c565b506120b088888481811061209657612096613bd9565b90506020020160208101906120ab91906138fc565b6132a3565b6120f88888848181106120c5576120c5613bd9565b90506020020160208101906120da91906138fc565b8787858181106120ec576120ec613bd9565b90506020020135613434565b50600101611ef6565b600080610d716007846131a9565b7f0000000000000000000000000000000000000000000000000000000000000000604051632474521560e21b815269676f7665726e616e636560b01b60048201523360248201526001600160a01b0391909116906391d1485490604401602060405180830381865afa158015612189573d6000803e3d6000fd5b505050506040513d601f19601f820116820180604052508101906121ad9190613ad1565b604051806040016040528060138152602001600080516020613ce1833981519152815250906121ef5760405162461bcd60e51b81526004016105b99190613a7c565b506119de81612b6d565b6931b7b73a3937b63632b960b11b7f0000000000000000000000000000000000000000000000000000000000000000604051632474521560e21b8152600481018390523360248201526001600160a01b0391909116906391d1485490604401602060405180830381865afa158015612275573d6000803e3d6000fd5b505050506040513d601f19601f820116820180604052508101906122999190613ad1565b604051806040016040528060138152602001600080516020613ce1833981519152815250906122db5760405162461bcd60e51b81526004016105b99190613a7c565b506122e7826000613434565b5050565b69676f7665726e616e636560b01b6e34b7333630ba34b7b72fb0b236b4b760891b7f00000000000000000000000000000000000000000000000000000000000000006001600160a01b031663d756a4228383336040518463ffffffff1660e01b815260040161235c93929190613c7c565b602060405180830381865afa158015612379573d6000803e3d6000fd5b505050506040513d601f19601f8201168201806040525081019061239d9190613ad1565b604051806040016040528060138152602001600080516020613ce1833981519152815250906123df5760405162461bcd60e51b81526004016105b99190613a7c565b5060405163059eadeb60e41b81526001600160a01b0385811660048301526000917f0000000000000000000000000000000000000000000000000000000000000000909116906359eadeb090602401602060405180830381865afa15801561244b573d6000803e3d6000fd5b505050506040513d601f19601f8201168201806040525081019061246f9190613c08565b9050600d6000826001600160a01b031663c5ec78746040518163ffffffff1660e01b8152600401602060405180830381865afa1580156124b3573d6000803e3d6000fd5b505050506040513d601f19601f820116820180604052508101906124d79190613c08565b6001600160a01b031681526020808201929092526040908101600020548151808301909252601482527311d85d59d948191bd95cc81b9bdd08195e1a5cdd60621b928201929092529060ff166125405760405162461bcd60e51b81526004016105b99190613a7c565b5060006001600160a01b0316816001600160a01b031663c5ec78746040518163ffffffff1660e01b8152600401602060405180830381865afa15801561258a573d6000803e3d6000fd5b505050506040513d601f19601f820116820180604052508101906125ae9190613c08565b6001600160a01b03161415604051806040016040528060118152602001701859191c995cdcc81b9bdd08199bdd5b99607a1b815250906126015760405162461bcd60e51b81526004016105b99190613a7c565b5061260b856132a3565b61195e8585613434565b7f0000000000000000000000000000000000000000000000000000000000000000604051632474521560e21b815269676f7665726e616e636560b01b60048201523360248201526001600160a01b0391909116906391d1485490604401602060405180830381865afa15801561268f573d6000803e3d6000fd5b505050506040513d601f19601f820116820180604052508101906126b39190613ad1565b604051806040016040528060138152602001600080516020613ce1833981519152815250906126f55760405162461bcd60e51b81526004016105b99190613a7c565b506003546040805180820190915260168152751059191c995cdcc81a5cc8185b1c9958591e481cd95d60521b6020820152906001600160a01b03161561274e5760405162461bcd60e51b81526004016105b99190613a7c565b5060006001600160a01b0316816001600160a01b03161415604051806080016040528060448152602001613d01604491399061279d5760405162461bcd60e51b81526004016105b99190613a7c565b50600380546001600160a01b0319166001600160a01b0392909216919091179055565b60007f0000000000000000000000000000000000000000000000000000000000000000604051632474521560e21b815269676f7665726e616e636560b01b60048201523360248201526001600160a01b0391909116906391d1485490604401602060405180830381865afa15801561283c573d6000803e3d6000fd5b505050506040513d601f19601f820116820180604052508101906128609190613ad1565b604051806040016040528060138152602001600080516020613ce1833981519152815250906128a25760405162461bcd60e51b81526004016105b99190613a7c565b506128ae600a83612f63565b6128ba57506000919050565b60006128c7600a846131d0565b90506128d4836000613097565b806001600160a01b03166341c0e1b56040518163ffffffff1660e01b8152600401600060405180830381600087803b15801561290f57600080fd5b505af1158015612923573d6000803e3d6000fd5b5050505061293b83600a6135d290919063ffffffff16565b50806001600160a01b0316836001600160a01b03167fcc16c499caeb153ba6505515fba6ee59e03ae0b2d58e71b0bf2f5d6c1edce18a60405160405180910390a360019150505b919050565b69676f7665726e616e636560b01b6e34b7333630ba34b7b72fb0b236b4b760891b7f00000000000000000000000000000000000000000000000000000000000000006001600160a01b031663d756a4228383336040518463ffffffff1660e01b81526004016129f893929190613c7c565b602060405180830381865afa158015612a15573d6000803e3d6000fd5b505050506040513d601f19601f82011682018060405250810190612a399190613ad1565b604051806040016040528060138152602001600080516020613ce183398151915281525090612a7b5760405162461bcd60e51b81526004016105b99190613a7c565b50612a87600a85612f63565b612ac95760405162461bcd60e51b8152602060048201526013602482015272185b5b4819d85d59d9481b9bdd08199bdd5b99606a1b60448201526064016105b9565b6108268484613097565b6040516321f8a72160e01b81526a3937b632a6b0b730b3b2b960a91b60048201526000906001600160a01b038316906321f8a72190602401602060405180830381865afa158015612b28573d6000803e3d6000fd5b505050506040513d601f19601f8201168201806040525081019061181e9190613c08565b600061181e826135e7565b600080612b6484846135f2565b95945050505050565b612b78600782612f63565b612b7f5750565b6000612b8c6007836131d0565b905060007f00000000000000000000000000000000000000000000000000000000000000006001600160a01b031663c5c63e656040518163ffffffff1660e01b8152600401600060405180830381865afa158015612bee573d6000803e3d6000fd5b505050506040513d6000823e601f3d908101601f19168201604052612c169190810190613b14565b905060007f00000000000000000000000000000000000000000000000000000000000000006001600160a01b0316635d138a346040518163ffffffff1660e01b8152600401600060405180830381865afa158015612c78573d6000803e3d6000fd5b505050506040513d6000823e601f3d908101601f19168201604052612ca09190810190613b14565b905060005b8251811015612eba576000838281518110612cc257612cc2613bd9565b602002602001015190506000816001600160a01b0316638214f5a46040518163ffffffff1660e01b8152600401602060405180830381865afa158015612d0c573d6000803e3d6000fd5b505050506040513d601f19601f82011682018060405250810190612d309190613c08565b905060005b8451811015612ea6576000858281518110612d5257612d52613bd9565b602002602001015190506000816001600160a01b0316633c93adee6040518163ffffffff1660e01b8152600401602060405180830381865afa158015612d9c573d6000803e3d6000fd5b505050506040513d601f19601f82011682018060405250810190612dc09190613c08565b60405163243db38360e21b81526001600160a01b0386811660048301529192506000918316906390f6ce0c90602401602060405180830381865afa158015612e0c573d6000803e3d6000fd5b505050506040513d601f19601f82011682018060405250810190612e309190613c08565b9050896001600160a01b0316816001600160a01b03161415604051806040016040528060128152602001714761756765207374696c6c2061637469766560701b81525090612e915760405162461bcd60e51b81526004016105b99190613a7c565b50505050612e9f8160010190565b9050612d35565b505050612eb38160010190565b9050612ca5565b50612ec6846000612f7f565b612ed16007856135d2565b50826001600160a01b03166341c0e1b56040518163ffffffff1660e01b8152600401600060405180830381600087803b158015612f0d57600080fd5b505af1158015612f21573d6000803e3d6000fd5b50506040516001600160a01b038087169350871691507f17f0f96ae429677ea4738e76673566db1bd65621496eee49c94173e289e24dc890600090a350505050565b6000612f78836001600160a01b038416613601565b9392505050565b6000612f8b6007612b4c565b905060005b8181101561300f57612fa3600782612b57565b6001600160a01b0316635790a0c86040518163ffffffff1660e01b81526004016020604051808303816000875af1158015612fe2573d6000803e3d6000fd5b505050506040513d601f19601f820116820180604052508101906130069190613ad1565b50600101612f90565b506001600160a01b038316600090815260208190526040902054600454839161303791613c9b565b6130419190613cb2565b6004556001600160a01b0383166000818152602081815260409182902085905590518481527fd4087c97381173c70bcc96da898724a384de03e9b747eefe531406b538babeac91015b60405180910390a2505050565b60006130a3600a612b4c565b905060005b81811015613127576130bb600a82612b57565b6001600160a01b0316635790a0c86040518163ffffffff1660e01b81526004016020604051808303816000875af11580156130fa573d6000803e3d6000fd5b505050506040513d601f19601f8201168201806040525081019061311e9190613ad1565b506001016130a8565b506001600160a01b038316600090815260026020526040902054600654839161314f91613c9b565b6131599190613cb2565b6006556001600160a01b03831660008181526002602052604090819020849055517fae184fbf7bfb224f97d6249d7fa54401f07985f32c0dc355869f2268ef3211f59061308a9085815260200190565b60008080806131c1866001600160a01b03871661360d565b909450925050505b9250929050565b6000612f78836001600160a01b038416613647565b6000610d71846001600160a01b038086169085166136b7565b6060600061320b83612b4c565b905060008167ffffffffffffffff81111561322857613228613af3565b604051908082528060200260200182016040528015613251578160200160208202803683370190505b50905060005b8281101561329b576132698582612b57565b82828151811061327b5761327b613bd9565b6001600160a01b0390921660209283029190910190910152600101613257565b509392505050565b604051633dea062f60e21b81526001600160a01b0382811660048301526000917f00000000000000000000000000000000000000000000000000000000000000009091169063f7a818bc90602401602060405180830381865afa15801561330e573d6000803e3d6000fd5b505050506040513d601f19601f820116820180604052508101906133329190613c08565b6040805180820190915260118152701859191c995cdcc81b9bdd08199bdd5b99607a1b60208201529091506001600160a01b0382166133845760405162461bcd60e51b81526004016105b99190613a7c565b50806001600160a01b031663bf86d6906040518163ffffffff1660e01b8152600401602060405180830381865afa1580156133c3573d6000803e3d6000fd5b505050506040513d601f19601f820116820180604052508101906133e79190613ad1565b156040518060400160405280601081526020016f2837b7b61034b99039b43aba3237bbb760811b8152509061342f5760405162461bcd60e51b81526004016105b99190613a7c565b505050565b60007f00000000000000000000000000000000000000000000000000000000000000006001600160a01b03166375a8012b6040518163ffffffff1660e01b8152600401600060405180830381865afa158015613494573d6000803e3d6000fd5b505050506040513d6000823e601f3d908101601f191682016040526134bc9190810190613b14565b905060005b8151811015613550578181815181106134dc576134dc613bd9565b60200260200101516001600160a01b0316635790a0c86040518163ffffffff1660e01b81526004016020604051808303816000875af1158015613523573d6000803e3d6000fd5b505050506040513d601f19601f820116820180604052508101906135479190613ad1565b506001016134c1565b506001600160a01b038316600090815260016020526040902054600554839161357891613c9b565b6135829190613cb2565b6005556001600160a01b03831660008181526001602052604090819020849055517fed56e077a86640eda727b81e991a174258c5356858ae761a377afccf9fac283e9061308a9085815260200190565b6000612f78836001600160a01b0384166136d4565b600061181e826136f1565b60008080806131c186866136fb565b6000612f788383613726565b600081815260028301602052604081205481908061363c5761362f8585613601565b9250600091506131c99050565b6001925090506131c9565b60008181526002830160205260408120548015158061366b575061366b8484613601565b612f785760405162461bcd60e51b815260206004820152601e60248201527f456e756d657261626c654d61703a206e6f6e6578697374656e74206b6579000060448201526064016105b9565b60008281526002840160205260408120829055610d71848461373e565b60008181526002830160205260408120819055612f78838361374a565b600061181e825490565b600080806137098585613756565b600081815260029690960160205260409095205494959350505050565b60008181526001830160205260408120541515612f78565b6000612f788383613762565b6000612f7883836137b1565b6000612f7883836138a4565b60008181526001830160205260408120546137a95750815460018181018455600084815260208082209093018490558454848252828601909352604090209190915561181e565b50600061181e565b6000818152600183016020526040812054801561389a5760006137d5600183613c9b565b85549091506000906137e990600190613c9b565b905081811461384e57600086600001828154811061380957613809613bd9565b906000526020600020015490508087600001848154811061382c5761382c613bd9565b6000918252602080832090910192909255918252600188019052604090208390555b855486908061385f5761385f613cca565b60019003818190600052602060002001600090559055856001016000868152602001908152602001600020600090556001935050505061181e565b600091505061181e565b60008260000182815481106138bb576138bb613bd9565b9060005260206000200154905092915050565b6000602082840312156138e057600080fd5b5035919050565b6001600160a01b03811681146119de57600080fd5b60006020828403121561390e57600080fd5b8135612f78816138e7565b6000806040838503121561392c57600080fd5b8235613937816138e7565b946020939093013593505050565b60008083601f84011261395757600080fd5b50813567ffffffffffffffff81111561396f57600080fd5b6020830191508360208260051b85010111156131c957600080fd5b600080600080604085870312156139a057600080fd5b843567ffffffffffffffff808211156139b857600080fd5b6139c488838901613945565b909650945060208701359150808211156139dd57600080fd5b506139ea87828801613945565b95989497509550505050565b60008060408385031215613a0957600080fd5b8235613a14816138e7565b91506020830135613a24816138e7565b809150509250929050565b6020808252825182820181905260009190848201906040850190845b81811015613a705783516001600160a01b031683529284019291840191600101613a4b565b50909695505050505050565b600060208083528351808285015260005b81811015613aa957858101830151858201604001528201613a8d565b81811115613abb576000604083870101525b50601f01601f1916929092016040019392505050565b600060208284031215613ae357600080fd5b81518015158114612f7857600080fd5b634e487b7160e01b600052604160045260246000fd5b8051612982816138e7565b60006020808385031215613b2757600080fd5b825167ffffffffffffffff80821115613b3f57600080fd5b818501915085601f830112613b5357600080fd5b815181811115613b6557613b65613af3565b8060051b604051601f19603f83011681018181108582111715613b8a57613b8a613af3565b604052918252848201925083810185019188831115613ba857600080fd5b938501935b82851015613bcd57613bbe85613b09565b84529385019392850192613bad565b98975050505050505050565b634e487b7160e01b600052603260045260246000fd5b600060208284031215613c0157600080fd5b5051919050565b600060208284031215613c1a57600080fd5b8151612f78816138e7565b634e487b7160e01b600052601160045260246000fd5b6000816000190483118215151615613c5557613c55613c25565b500290565b600082613c7757634e487b7160e01b600052601260045260246000fd5b500490565b92835260208301919091526001600160a01b0316604082015260600190565b600082821015613cad57613cad613c25565b500390565b60008219821115613cc557613cc5613c25565b500190565b634e487b7160e01b600052603160045260246000fdfe756e617574686f72697a65642061636365737300000000000000000000000000746865206d696e7465722061646472657373206f6620746865204c5020746f6b656e20616e642074686520706f6f6c206164647265737320646f206e6f74206d61746368a26469706673582212208e1a99d9d97ebf603c71de1481d4f912da9e74a4f1e87cf7391110e876b4f71264736f6c634300080a0033","bytecodeSha1":"e2d5c5caf00b0147bce33f07eab2751110dc8691","compiler":{"evm_version":"london","optimizer":{"enabled":true,"runs":200},"version":"0.8.10+commit.fc410830"},"contractName":"InflationManager","language":"Solidity","natspec":{"kind":"dev","methods":{"advanceKeeperGaugeEpoch(address)":{"notice":"Advance the keeper gauge for a pool by an epoch.","params":{"pool":"Pool for which the keeper gauge is advanced."}},"batchUpdateAmmTokenWeights(address[],uint256[])":{"details":"Each entry in the tokens array corresponds to an entry in the weights array.","notice":"Update a batch of AMM token weights.","params":{"tokens_":"AMM tokens to update the inflation weight for.","weights_":"New weights for the inflation for the AMM tokens."}},"batchUpdateKeeperPoolWeights(address[],uint256[])":{"details":"Each entry in the pools array corresponds to an entry in the weights array.","notice":"Update of a batch of keeperGauge weights.","params":{"pools":"Pools to update the keeper weight for.","weights":"New weights for the keeper inflation for the pools."}},"batchUpdateLpPoolWeights(address[],uint256[])":{"details":"Each entry in the lpTokens array corresponds to an entry in the weights array.","notice":"Update a batch of LP token weights.","params":{"lpTokens_":"LpTokens to update the inflation weight for.","weights_":"New weights for the inflation for the LpTokens."}},"checkpointAllGauges(uint256)":{"details":"This is mostly used upon inflation rate updates.","notice":"Checkpoints all gauges.","params":{"updateEndTime":"is the time until which to update the gauges."}},"deactivateWeightBasedKeeperDistribution()":{"details":"This can only be done once, when the keeper inflation mechanism is altered.","notice":"Deactivates the weight-based distribution of keeper inflation."},"mintRewards(address,uint256)":{"notice":"Mints MERO tokens.","params":{"amount":"Amount of tokens to mint.","beneficiary":"Address to receive the tokens."}},"setAmmGauge(address,address)":{"notice":"Sets the AmmGauge for a particular AMM token.","params":{"_ammGauge":"Address of AmmGauge.","token":"Address of the amm token."},"returns":{"_0":"`true` if successful."}},"setKeeperGauge(address,address)":{"details":"Multiple pools can have the same KeeperGauge.","notice":"Sets the KeeperGauge for a pool.","params":{"_keeperGauge":"Address of KeeperGauge.","pool":"Address of pool to set the KeeperGauge for."},"returns":{"_0":"`true` if successful."}},"updateAmmTokenWeight(address,uint256)":{"notice":"Update inflation weight for an AMM token.","params":{"token_":"AMM token to update the weight for.","weight_":"New AMM token inflation weight."}},"updateKeeperPoolWeight(address,uint256)":{"notice":"Update a keeper pool weight.","params":{"pool_":"Pool to update the keeper weight for.","weight_":"New weight for the keeper inflation for the pool."}},"updateLpPoolWeight(address,uint256)":{"notice":"Update a lp pool weight.","params":{"lpToken_":"LP token to update the weight for.","weight_":"New LP inflation weight."}}},"version":1},"opcodes":"PUSH1 0x80 PUSH1 0x40 MSTORE CALLVALUE DUP1 ISZERO PUSH2 0x10 JUMPI PUSH1 0x0 DUP1 REVERT JUMPDEST POP PUSH1 0x4 CALLDATASIZE LT PUSH2 0x226 JUMPI PUSH1 0x0 CALLDATALOAD PUSH1 0xE0 SHR DUP1 PUSH4 0x8461372F GT PUSH2 0x130 JUMPI DUP1 PUSH4 0xC6FF6443 GT PUSH2 0xB8 JUMPI DUP1 PUSH4 0xF0ED3A57 GT PUSH2 0x7C JUMPI DUP1 PUSH4 0xF0ED3A57 EQ PUSH2 0x507 JUMPI DUP1 PUSH4 0xF1F32639 EQ PUSH2 0x51A JUMPI DUP1 PUSH4 0xFCA3B5AA EQ PUSH2 0x52D JUMPI DUP1 PUSH4 0xFD600B84 EQ PUSH2 0x540 JUMPI DUP1 PUSH4 0xFE77842F EQ PUSH2 0x553 JUMPI PUSH1 0x0 DUP1 REVERT JUMPDEST DUP1 PUSH4 0xC6FF6443 EQ PUSH2 0x4A5 JUMPI DUP1 PUSH4 0xC9FB321A EQ PUSH2 0x4B8 JUMPI DUP1 PUSH4 0xD77F450B EQ PUSH2 0x4C1 JUMPI DUP1 PUSH4 0xDF9CCFFF EQ PUSH2 0x4E1 JUMPI DUP1 PUSH4 0xDF9F8FB7 EQ PUSH2 0x4F4 JUMPI PUSH1 0x0 DUP1 REVERT JUMPDEST DUP1 PUSH4 0x90B3F156 GT PUSH2 0xFF JUMPI DUP1 PUSH4 0x90B3F156 EQ PUSH2 0x43F JUMPI DUP1 PUSH4 0x9BBDD1AC EQ PUSH2 0x447 JUMPI DUP1 PUSH4 0x9C6856FC EQ PUSH2 0x45A JUMPI DUP1 PUSH4 0xA871D4EE EQ PUSH2 0x46D JUMPI DUP1 PUSH4 0xB9A09FD5 EQ PUSH2 0x482 JUMPI PUSH1 0x0 DUP1 REVERT JUMPDEST DUP1 PUSH4 0x8461372F EQ PUSH2 0x3E7 JUMPI DUP1 PUSH4 0x8A75B2CD EQ PUSH2 0x3FA JUMPI DUP1 PUSH4 0x8D6DCA55 EQ PUSH2 0x403 JUMPI DUP1 PUSH4 0x8E01C196 EQ PUSH2 0x416 JUMPI PUSH1 0x0 DUP1 REVERT JUMPDEST DUP1 PUSH4 0x3DA3C28F GT PUSH2 0x1B3 JUMPI DUP1 PUSH4 0x5B75121A GT PUSH2 0x182 JUMPI DUP1 PUSH4 0x5B75121A EQ PUSH2 0x37B JUMPI DUP1 PUSH4 0x674BB60A EQ PUSH2 0x39B JUMPI DUP1 PUSH4 0x6A20DE92 EQ PUSH2 0x3AE JUMPI DUP1 PUSH4 0x7B31C5DE EQ PUSH2 0x3C1 JUMPI DUP1 PUSH4 0x7DDBC911 EQ PUSH2 0x3D4 JUMPI PUSH1 0x0 DUP1 REVERT JUMPDEST DUP1 PUSH4 0x3DA3C28F EQ PUSH2 0x31E JUMPI DUP1 PUSH4 0x430E2E57 EQ PUSH2 0x331 JUMPI DUP1 PUSH4 0x5394EE05 EQ PUSH2 0x344 JUMPI DUP1 PUSH4 0x5A5156D1 EQ PUSH2 0x368 JUMPI PUSH1 0x0 DUP1 REVERT JUMPDEST DUP1 PUSH4 0xEDB01E4 GT PUSH2 0x1FA JUMPI DUP1 PUSH4 0xEDB01E4 EQ PUSH2 0x2C0 JUMPI DUP1 PUSH4 0x1CAEA2C9 EQ PUSH2 0x2C8 JUMPI DUP1 PUSH4 0x26EA87B0 EQ PUSH2 0x2DB JUMPI DUP1 PUSH4 0x2897A553 EQ PUSH2 0x2E4 JUMPI DUP1 PUSH4 0x2954018C EQ PUSH2 0x2F7 JUMPI PUSH1 0x0 DUP1 REVERT JUMPDEST DUP1 PUSH3 0x435DA5 EQ PUSH2 0x22B JUMPI DUP1 PUSH4 0x7546172 EQ PUSH2 0x26A JUMPI DUP1 PUSH4 0x8DC1D29 EQ PUSH2 0x27D JUMPI DUP1 PUSH4 0xD4F06EA EQ PUSH2 0x292 JUMPI JUMPDEST PUSH1 0x0 DUP1 REVERT JUMPDEST PUSH32 0x0 JUMPDEST PUSH1 0x40 MLOAD PUSH1 0x1 PUSH1 0x1 PUSH1 0xA0 SHL SUB SWAP1 SWAP2 AND DUP2 MSTORE PUSH1 0x20 ADD JUMPDEST PUSH1 0x40 MLOAD DUP1 SWAP2 SUB SWAP1 RETURN JUMPDEST PUSH1 0x3 SLOAD PUSH2 0x24D SWAP1 PUSH1 0x1 PUSH1 0x1 PUSH1 0xA0 SHL SUB AND DUP2 JUMP JUMPDEST PUSH2 0x290 PUSH2 0x28B CALLDATASIZE PUSH1 0x4 PUSH2 0x38CE JUMP JUMPDEST PUSH2 0x56B JUMP JUMPDEST STOP JUMPDEST PUSH2 0x2B2 PUSH2 0x2A0 CALLDATASIZE PUSH1 0x4 PUSH2 0x38FC JUMP JUMPDEST PUSH1 0x1 PUSH1 0x20 MSTORE PUSH1 0x0 SWAP1 DUP2 MSTORE PUSH1 0x40 SWAP1 KECCAK256 SLOAD DUP2 JUMP JUMPDEST PUSH1 0x40 MLOAD SWAP1 DUP2 MSTORE PUSH1 0x20 ADD PUSH2 0x261 JUMP JUMPDEST PUSH2 0x290 PUSH2 0x82C JUMP JUMPDEST PUSH2 0x290 PUSH2 0x2D6 CALLDATASIZE PUSH1 0x4 PUSH2 0x38FC JUMP JUMPDEST PUSH2 0xA6A JUMP JUMPDEST PUSH2 0x2B2 PUSH1 0x5 SLOAD DUP2 JUMP JUMPDEST PUSH2 0x2B2 PUSH2 0x2F2 CALLDATASIZE PUSH1 0x4 PUSH2 0x38FC JUMP JUMPDEST PUSH2 0xB72 JUMP JUMPDEST PUSH2 0x24D PUSH32 0x0 DUP2 JUMP JUMPDEST PUSH2 0x2B2 PUSH2 0x32C CALLDATASIZE PUSH1 0x4 PUSH2 0x38FC JUMP JUMPDEST PUSH2 0xCA6 JUMP JUMPDEST PUSH2 0x290 PUSH2 0x33F CALLDATASIZE PUSH1 0x4 PUSH2 0x38FC JUMP JUMPDEST PUSH2 0xD79 JUMP JUMPDEST PUSH1 0x3 SLOAD PUSH2 0x358 SWAP1 PUSH1 0x1 PUSH1 0xA0 SHL SWAP1 DIV PUSH1 0xFF AND DUP2 JUMP JUMPDEST PUSH1 0x40 MLOAD SWAP1 ISZERO ISZERO DUP2 MSTORE PUSH1 0x20 ADD PUSH2 0x261 JUMP JUMPDEST PUSH2 0x290 PUSH2 0x376 CALLDATASIZE PUSH1 0x4 PUSH2 0x3919 JUMP JUMPDEST PUSH2 0xF32 JUMP JUMPDEST PUSH2 0x2B2 PUSH2 0x389 CALLDATASIZE PUSH1 0x4 PUSH2 0x38FC JUMP JUMPDEST PUSH1 0x2 PUSH1 0x20 MSTORE PUSH1 0x0 SWAP1 DUP2 MSTORE PUSH1 0x40 SWAP1 KECCAK256 SLOAD DUP2 JUMP JUMPDEST PUSH2 0x290 PUSH2 0x3A9 CALLDATASIZE PUSH1 0x4 PUSH2 0x398A JUMP JUMPDEST PUSH2 0x1084 JUMP JUMPDEST PUSH2 0x290 PUSH2 0x3BC CALLDATASIZE PUSH1 0x4 PUSH2 0x3919 JUMP JUMPDEST PUSH2 0x129F JUMP JUMPDEST PUSH2 0x290 PUSH2 0x3CF CALLDATASIZE PUSH1 0x4 PUSH2 0x398A JUMP JUMPDEST PUSH2 0x1360 JUMP JUMPDEST PUSH2 0x24D PUSH2 0x3E2 CALLDATASIZE PUSH1 0x4 PUSH2 0x38FC JUMP JUMPDEST PUSH2 0x1573 JUMP JUMPDEST PUSH2 0x358 PUSH2 0x3F5 CALLDATASIZE PUSH1 0x4 PUSH2 0x39F6 JUMP JUMPDEST PUSH2 0x1581 JUMP JUMPDEST PUSH2 0x2B2 PUSH1 0x6 SLOAD DUP2 JUMP JUMPDEST PUSH2 0x290 PUSH2 0x411 CALLDATASIZE PUSH1 0x4 PUSH2 0x38FC JUMP JUMPDEST PUSH2 0x1824 JUMP JUMPDEST PUSH2 0x2B2 PUSH2 0x424 CALLDATASIZE PUSH1 0x4 PUSH2 0x38FC JUMP JUMPDEST PUSH1 0x1 PUSH1 0x1 PUSH1 0xA0 SHL SUB AND PUSH1 0x0 SWAP1 DUP2 MSTORE PUSH1 0x1 PUSH1 0x20 MSTORE PUSH1 0x40 SWAP1 KECCAK256 SLOAD SWAP1 JUMP JUMPDEST PUSH2 0x290 PUSH2 0x1965 JUMP JUMPDEST PUSH2 0x358 PUSH2 0x455 CALLDATASIZE PUSH1 0x4 PUSH2 0x39F6 JUMP JUMPDEST PUSH2 0x19E1 JUMP JUMPDEST PUSH2 0x2B2 PUSH2 0x468 CALLDATASIZE PUSH1 0x4 PUSH2 0x38FC JUMP JUMPDEST PUSH2 0x1CC5 JUMP JUMPDEST PUSH2 0x475 PUSH2 0x1DA3 JUMP JUMPDEST PUSH1 0x40 MLOAD PUSH2 0x261 SWAP2 SWAP1 PUSH2 0x3A2F JUMP JUMPDEST PUSH2 0x358 PUSH2 0x490 CALLDATASIZE PUSH1 0x4 PUSH2 0x38FC JUMP JUMPDEST PUSH1 0xD PUSH1 0x20 MSTORE PUSH1 0x0 SWAP1 DUP2 MSTORE PUSH1 0x40 SWAP1 KECCAK256 SLOAD PUSH1 0xFF AND DUP2 JUMP JUMPDEST PUSH2 0x290 PUSH2 0x4B3 CALLDATASIZE PUSH1 0x4 PUSH2 0x398A JUMP JUMPDEST PUSH2 0x1DAF JUMP JUMPDEST PUSH2 0x2B2 PUSH1 0x4 SLOAD DUP2 JUMP JUMPDEST PUSH2 0x2B2 PUSH2 0x4CF CALLDATASIZE PUSH1 0x4 PUSH2 0x38FC JUMP JUMPDEST PUSH1 0x0 PUSH1 0x20 DUP2 SWAP1 MSTORE SWAP1 DUP2 MSTORE PUSH1 0x40 SWAP1 KECCAK256 SLOAD DUP2 JUMP JUMPDEST PUSH2 0x24D PUSH2 0x4EF CALLDATASIZE PUSH1 0x4 PUSH2 0x38FC JUMP JUMPDEST PUSH2 0x2101 JUMP JUMPDEST PUSH2 0x290 PUSH2 0x502 CALLDATASIZE PUSH1 0x4 PUSH2 0x38FC JUMP JUMPDEST PUSH2 0x210F JUMP JUMPDEST PUSH2 0x290 PUSH2 0x515 CALLDATASIZE PUSH1 0x4 PUSH2 0x38FC JUMP JUMPDEST PUSH2 0x21F9 JUMP JUMPDEST PUSH2 0x290 PUSH2 0x528 CALLDATASIZE PUSH1 0x4 PUSH2 0x3919 JUMP JUMPDEST PUSH2 0x22EB JUMP JUMPDEST PUSH2 0x290 PUSH2 0x53B CALLDATASIZE PUSH1 0x4 PUSH2 0x38FC JUMP JUMPDEST PUSH2 0x2615 JUMP JUMPDEST PUSH2 0x358 PUSH2 0x54E CALLDATASIZE PUSH1 0x4 PUSH2 0x38FC JUMP JUMPDEST PUSH2 0x27C0 JUMP JUMPDEST PUSH2 0x290 PUSH2 0x561 CALLDATASIZE PUSH1 0x4 PUSH2 0x3919 JUMP JUMPDEST PUSH2 0x2987 JUMP JUMPDEST SWAP1 POP SWAP1 JUMP JUMPDEST PUSH1 0x3 SLOAD PUSH1 0x40 DUP1 MLOAD DUP1 DUP3 ADD SWAP1 SWAP2 MSTORE PUSH1 0x13 DUP2 MSTORE PUSH1 0x0 DUP1 MLOAD PUSH1 0x20 PUSH2 0x3CE1 DUP4 CODECOPY DUP2 MLOAD SWAP2 MSTORE PUSH1 0x20 DUP3 ADD MSTORE SWAP1 PUSH1 0x1 PUSH1 0x1 PUSH1 0xA0 SHL SUB AND CALLER EQ PUSH2 0x5C2 JUMPI PUSH1 0x40 MLOAD PUSH3 0x461BCD PUSH1 0xE5 SHL DUP2 MSTORE PUSH1 0x4 ADD PUSH2 0x5B9 SWAP2 SWAP1 PUSH2 0x3A7C JUMP JUMPDEST PUSH1 0x40 MLOAD DUP1 SWAP2 SUB SWAP1 REVERT JUMPDEST POP PUSH1 0x0 PUSH2 0x5CF PUSH1 0x7 PUSH2 0x2B4C JUMP JUMPDEST SWAP1 POP PUSH1 0x0 JUMPDEST DUP2 DUP2 LT ISZERO PUSH2 0x660 JUMPI PUSH2 0x5E7 PUSH1 0x7 DUP3 PUSH2 0x2B57 JUMP JUMPDEST PUSH1 0x1 PUSH1 0x1 PUSH1 0xA0 SHL SUB AND PUSH4 0xE7945D00 DUP5 PUSH1 0x40 MLOAD DUP3 PUSH4 0xFFFFFFFF AND PUSH1 0xE0 SHL DUP2 MSTORE PUSH1 0x4 ADD PUSH2 0x614 SWAP2 DUP2 MSTORE PUSH1 0x20 ADD SWAP1 JUMP JUMPDEST PUSH1 0x20 PUSH1 0x40 MLOAD DUP1 DUP4 SUB DUP2 PUSH1 0x0 DUP8 GAS CALL ISZERO DUP1 ISZERO PUSH2 0x633 JUMPI RETURNDATASIZE PUSH1 0x0 DUP1 RETURNDATACOPY RETURNDATASIZE PUSH1 0x0 REVERT JUMPDEST POP POP POP POP PUSH1 0x40 MLOAD RETURNDATASIZE PUSH1 0x1F NOT PUSH1 0x1F DUP3 ADD AND DUP3 ADD DUP1 PUSH1 0x40 MSTORE POP DUP2 ADD SWAP1 PUSH2 0x657 SWAP2 SWAP1 PUSH2 0x3AD1 JUMP JUMPDEST POP PUSH1 0x1 ADD PUSH2 0x5D4 JUMP JUMPDEST POP PUSH1 0x0 PUSH32 0x0 PUSH1 0x1 PUSH1 0x1 PUSH1 0xA0 SHL SUB AND PUSH4 0x75A8012B PUSH1 0x40 MLOAD DUP2 PUSH4 0xFFFFFFFF AND PUSH1 0xE0 SHL DUP2 MSTORE PUSH1 0x4 ADD PUSH1 0x0 PUSH1 0x40 MLOAD DUP1 DUP4 SUB DUP2 DUP7 GAS STATICCALL ISZERO DUP1 ISZERO PUSH2 0x6C1 JUMPI RETURNDATASIZE PUSH1 0x0 DUP1 RETURNDATACOPY RETURNDATASIZE PUSH1 0x0 REVERT JUMPDEST POP POP POP POP PUSH1 0x40 MLOAD RETURNDATASIZE PUSH1 0x0 DUP3 RETURNDATACOPY PUSH1 0x1F RETURNDATASIZE SWAP1 DUP2 ADD PUSH1 0x1F NOT AND DUP3 ADD PUSH1 0x40 MSTORE PUSH2 0x6E9 SWAP2 SWAP1 DUP2 ADD SWAP1 PUSH2 0x3B14 JUMP JUMPDEST SWAP1 POP PUSH1 0x0 JUMPDEST DUP2 MLOAD DUP2 LT ISZERO PUSH2 0x78A JUMPI DUP2 DUP2 DUP2 MLOAD DUP2 LT PUSH2 0x709 JUMPI PUSH2 0x709 PUSH2 0x3BD9 JUMP JUMPDEST PUSH1 0x20 MUL PUSH1 0x20 ADD ADD MLOAD PUSH1 0x1 PUSH1 0x1 PUSH1 0xA0 SHL SUB AND PUSH4 0xE7945D00 DUP6 PUSH1 0x40 MLOAD DUP3 PUSH4 0xFFFFFFFF AND PUSH1 0xE0 SHL DUP2 MSTORE PUSH1 0x4 ADD PUSH2 0x73E SWAP2 DUP2 MSTORE PUSH1 0x20 ADD SWAP1 JUMP JUMPDEST PUSH1 0x20 PUSH1 0x40 MLOAD DUP1 DUP4 SUB DUP2 PUSH1 0x0 DUP8 GAS CALL ISZERO DUP1 ISZERO PUSH2 0x75D JUMPI RETURNDATASIZE PUSH1 0x0 DUP1 RETURNDATACOPY RETURNDATASIZE PUSH1 0x0 REVERT JUMPDEST POP POP POP POP PUSH1 0x40 MLOAD RETURNDATASIZE PUSH1 0x1F NOT PUSH1 0x1F DUP3 ADD AND DUP3 ADD DUP1 PUSH1 0x40 MSTORE POP DUP2 ADD SWAP1 PUSH2 0x781 SWAP2 SWAP1 PUSH2 0x3AD1 JUMP JUMPDEST POP PUSH1 0x1 ADD PUSH2 0x6EE JUMP JUMPDEST POP PUSH2 0x795 PUSH1 0xA PUSH2 0x2B4C JUMP JUMPDEST SWAP2 POP PUSH1 0x0 JUMPDEST DUP3 DUP2 LT ISZERO PUSH2 0x826 JUMPI PUSH2 0x7AD PUSH1 0xA DUP3 PUSH2 0x2B57 JUMP JUMPDEST PUSH1 0x1 PUSH1 0x1 PUSH1 0xA0 SHL SUB AND PUSH4 0xE7945D00 DUP6 PUSH1 0x40 MLOAD DUP3 PUSH4 0xFFFFFFFF AND PUSH1 0xE0 SHL DUP2 MSTORE PUSH1 0x4 ADD PUSH2 0x7DA SWAP2 DUP2 MSTORE PUSH1 0x20 ADD SWAP1 JUMP JUMPDEST PUSH1 0x20 PUSH1 0x40 MLOAD DUP1 DUP4 SUB DUP2 PUSH1 0x0 DUP8 GAS CALL ISZERO DUP1 ISZERO PUSH2 0x7F9 JUMPI RETURNDATASIZE PUSH1 0x0 DUP1 RETURNDATACOPY RETURNDATASIZE PUSH1 0x0 REVERT JUMPDEST POP POP POP POP PUSH1 0x40 MLOAD RETURNDATASIZE PUSH1 0x1F NOT PUSH1 0x1F DUP3 ADD AND DUP3 ADD DUP1 PUSH1 0x40 MSTORE POP DUP2 ADD SWAP1 PUSH2 0x81D SWAP2 SWAP1 PUSH2 0x3AD1 JUMP JUMPDEST POP PUSH1 0x1 ADD PUSH2 0x79A JUMP JUMPDEST POP POP POP POP JUMP JUMPDEST PUSH32 0x0 PUSH1 0x40 MLOAD PUSH4 0x24745215 PUSH1 0xE2 SHL DUP2 MSTORE PUSH10 0x676F7665726E616E6365 PUSH1 0xB0 SHL PUSH1 0x4 DUP3 ADD MSTORE CALLER PUSH1 0x24 DUP3 ADD MSTORE PUSH1 0x1 PUSH1 0x1 PUSH1 0xA0 SHL SUB SWAP2 SWAP1 SWAP2 AND SWAP1 PUSH4 0x91D14854 SWAP1 PUSH1 0x44 ADD PUSH1 0x20 PUSH1 0x40 MLOAD DUP1 DUP4 SUB DUP2 DUP7 GAS STATICCALL ISZERO DUP1 ISZERO PUSH2 0x8A6 JUMPI RETURNDATASIZE PUSH1 0x0 DUP1 RETURNDATACOPY RETURNDATASIZE PUSH1 0x0 REVERT JUMPDEST POP POP POP POP PUSH1 0x40 MLOAD RETURNDATASIZE PUSH1 0x1F NOT PUSH1 0x1F DUP3 ADD AND DUP3 ADD DUP1 PUSH1 0x40 MSTORE POP DUP2 ADD SWAP1 PUSH2 0x8CA SWAP2 SWAP1 PUSH2 0x3AD1 JUMP JUMPDEST PUSH1 0x40 MLOAD DUP1 PUSH1 0x40 ADD PUSH1 0x40 MSTORE DUP1 PUSH1 0x13 DUP2 MSTORE PUSH1 0x20 ADD PUSH1 0x0 DUP1 MLOAD PUSH1 0x20 PUSH2 0x3CE1 DUP4 CODECOPY DUP2 MLOAD SWAP2 MSTORE DUP2 MSTORE POP SWAP1 PUSH2 0x90C JUMPI PUSH1 0x40 MLOAD PUSH3 0x461BCD PUSH1 0xE5 SHL DUP2 MSTORE PUSH1 0x4 ADD PUSH2 0x5B9 SWAP2 SWAP1 PUSH2 0x3A7C JUMP JUMPDEST POP PUSH1 0x3 SLOAD PUSH1 0x1 PUSH1 0xA0 SHL SWAP1 DIV PUSH1 0xFF AND ISZERO PUSH2 0x967 JUMPI PUSH1 0x40 MLOAD PUSH3 0x461BCD PUSH1 0xE5 SHL DUP2 MSTORE PUSH1 0x20 PUSH1 0x4 DUP3 ADD MSTORE PUSH1 0x1F PUSH1 0x24 DUP3 ADD MSTORE PUSH32 0x5765696768742D626173656420646973742E2064656163746976617465642E00 PUSH1 0x44 DUP3 ADD MSTORE PUSH1 0x64 ADD PUSH2 0x5B9 JUMP JUMPDEST PUSH1 0x0 PUSH32 0x0 PUSH1 0x1 PUSH1 0x1 PUSH1 0xA0 SHL SUB AND PUSH4 0xC5C63E65 PUSH1 0x40 MLOAD DUP2 PUSH4 0xFFFFFFFF AND PUSH1 0xE0 SHL DUP2 MSTORE PUSH1 0x4 ADD PUSH1 0x0 PUSH1 0x40 MLOAD DUP1 DUP4 SUB DUP2 DUP7 GAS STATICCALL ISZERO DUP1 ISZERO PUSH2 0x9C7 JUMPI RETURNDATASIZE PUSH1 0x0 DUP1 RETURNDATACOPY RETURNDATASIZE PUSH1 0x0 REVERT JUMPDEST POP POP POP POP PUSH1 0x40 MLOAD RETURNDATASIZE PUSH1 0x0 DUP3 RETURNDATACOPY PUSH1 0x1F RETURNDATASIZE SWAP1 DUP2 ADD PUSH1 0x1F NOT AND DUP3 ADD PUSH1 0x40 MSTORE PUSH2 0x9EF SWAP2 SWAP1 DUP2 ADD SWAP1 PUSH2 0x3B14 JUMP JUMPDEST DUP1 MLOAD SWAP1 SWAP2 POP PUSH1 0x0 JUMPDEST DUP2 DUP2 LT ISZERO PUSH2 0xA29 JUMPI PUSH2 0xA21 DUP4 DUP3 DUP2 MLOAD DUP2 LT PUSH2 0xA14 JUMPI PUSH2 0xA14 PUSH2 0x3BD9 JUMP JUMPDEST PUSH1 0x20 MUL PUSH1 0x20 ADD ADD MLOAD PUSH2 0x2B6D JUMP JUMPDEST PUSH1 0x1 ADD PUSH2 0x9F7 JUMP JUMPDEST POP PUSH1 0x3 DUP1 SLOAD PUSH1 0xFF PUSH1 0xA0 SHL NOT AND PUSH1 0x1 PUSH1 0xA0 SHL OR SWAP1 SSTORE PUSH1 0x40 MLOAD PUSH32 0xCC93C4437368FEC399108802A2A5ACA4FFCF6B91185D752EBF5A52ED1BE0B1B6 SWAP1 PUSH1 0x0 SWAP1 LOG1 POP POP JUMP JUMPDEST PUSH10 0x31B7B73A3937B63632B9 PUSH1 0xB1 SHL PUSH32 0x0 PUSH1 0x40 MLOAD PUSH4 0x24745215 PUSH1 0xE2 SHL DUP2 MSTORE PUSH1 0x4 DUP2 ADD DUP4 SWAP1 MSTORE CALLER PUSH1 0x24 DUP3 ADD MSTORE PUSH1 0x1 PUSH1 0x1 PUSH1 0xA0 SHL SUB SWAP2 SWAP1 SWAP2 AND SWAP1 PUSH4 0x91D14854 SWAP1 PUSH1 0x44 ADD PUSH1 0x20 PUSH1 0x40 MLOAD DUP1 DUP4 SUB DUP2 DUP7 GAS STATICCALL ISZERO DUP1 ISZERO PUSH2 0xAE6 JUMPI RETURNDATASIZE PUSH1 0x0 DUP1 RETURNDATACOPY RETURNDATASIZE PUSH1 0x0 REVERT JUMPDEST POP POP POP POP PUSH1 0x40 MLOAD RETURNDATASIZE PUSH1 0x1F NOT PUSH1 0x1F DUP3 ADD AND DUP3 ADD DUP1 PUSH1 0x40 MSTORE POP DUP2 ADD SWAP1 PUSH2 0xB0A SWAP2 SWAP1 PUSH2 0x3AD1 JUMP JUMPDEST PUSH1 0x40 MLOAD DUP1 PUSH1 0x40 ADD PUSH1 0x40 MSTORE DUP1 PUSH1 0x13 DUP2 MSTORE PUSH1 0x20 ADD PUSH1 0x0 DUP1 MLOAD PUSH1 0x20 PUSH2 0x3CE1 DUP4 CODECOPY DUP2 MLOAD SWAP2 MSTORE DUP2 MSTORE POP SWAP1 PUSH2 0xB4C JUMPI PUSH1 0x40 MLOAD PUSH3 0x461BCD PUSH1 0xE5 SHL DUP2 MSTORE PUSH1 0x4 ADD PUSH2 0x5B9 SWAP2 SWAP1 PUSH2 0x3A7C JUMP JUMPDEST POP POP PUSH1 0x1 PUSH1 0x1 PUSH1 0xA0 SHL SUB AND PUSH1 0x0 SWAP1 DUP2 MSTORE PUSH1 0xD PUSH1 0x20 MSTORE PUSH1 0x40 SWAP1 KECCAK256 DUP1 SLOAD PUSH1 0xFF NOT AND PUSH1 0x1 OR SWAP1 SSTORE JUMP JUMPDEST PUSH1 0x5 SLOAD PUSH1 0x3 SLOAD PUSH1 0x0 SWAP2 SWAP1 PUSH1 0x1 PUSH1 0x1 PUSH1 0xA0 SHL SUB AND DUP1 ISZERO DUP1 PUSH2 0xB90 JUMPI POP DUP2 ISZERO JUMPDEST ISZERO PUSH2 0xB9F JUMPI POP PUSH1 0x0 SWAP4 SWAP3 POP POP POP JUMP JUMPDEST PUSH1 0x0 DUP2 PUSH1 0x1 PUSH1 0x1 PUSH1 0xA0 SHL SUB AND PUSH4 0x88258D31 PUSH1 0x40 MLOAD DUP2 PUSH4 0xFFFFFFFF AND PUSH1 0xE0 SHL DUP2 MSTORE PUSH1 0x4 ADD PUSH1 0x20 PUSH1 0x40 MLOAD DUP1 DUP4 SUB DUP2 DUP7 GAS STATICCALL ISZERO DUP1 ISZERO PUSH2 0xBDF JUMPI RETURNDATASIZE PUSH1 0x0 DUP1 RETURNDATACOPY RETURNDATASIZE PUSH1 0x0 REVERT JUMPDEST POP POP POP POP PUSH1 0x40 MLOAD RETURNDATASIZE PUSH1 0x1F NOT PUSH1 0x1F DUP3 ADD AND DUP3 ADD DUP1 PUSH1 0x40 MSTORE POP DUP2 ADD SWAP1 PUSH2 0xC03 SWAP2 SWAP1 PUSH2 0x3BEF JUMP JUMPDEST SWAP1 POP PUSH1 0x0 DUP6 PUSH1 0x1 PUSH1 0x1 PUSH1 0xA0 SHL SUB AND PUSH4 0x21DF0DA7 PUSH1 0x40 MLOAD DUP2 PUSH4 0xFFFFFFFF AND PUSH1 0xE0 SHL DUP2 MSTORE PUSH1 0x4 ADD PUSH1 0x20 PUSH1 0x40 MLOAD DUP1 DUP4 SUB DUP2 DUP7 GAS STATICCALL ISZERO DUP1 ISZERO PUSH2 0xC45 JUMPI RETURNDATASIZE PUSH1 0x0 DUP1 RETURNDATACOPY RETURNDATASIZE PUSH1 0x0 REVERT JUMPDEST POP POP POP POP PUSH1 0x40 MLOAD RETURNDATASIZE PUSH1 0x1F NOT PUSH1 0x1F DUP3 ADD AND DUP3 ADD DUP1 PUSH1 0x40 MSTORE POP DUP2 ADD SWAP1 PUSH2 0xC69 SWAP2 SWAP1 PUSH2 0x3C08 JUMP JUMPDEST PUSH1 0x1 PUSH1 0x1 PUSH1 0xA0 SHL SUB DUP2 AND PUSH1 0x0 SWAP1 DUP2 MSTORE PUSH1 0x1 PUSH1 0x20 MSTORE PUSH1 0x40 SWAP1 KECCAK256 SLOAD SWAP1 SWAP2 POP DUP5 SWAP1 PUSH2 0xC92 SWAP1 DUP5 SWAP1 PUSH2 0x3C3B JUMP JUMPDEST PUSH2 0xC9C SWAP2 SWAP1 PUSH2 0x3C5A JUMP JUMPDEST SWAP7 SWAP6 POP POP POP POP POP POP JUMP JUMPDEST PUSH1 0x3 SLOAD PUSH1 0x0 SWAP1 PUSH1 0x1 PUSH1 0x1 PUSH1 0xA0 SHL SUB AND ISZERO DUP1 PUSH2 0xCC1 JUMPI POP PUSH1 0x6 SLOAD ISZERO JUMPDEST ISZERO PUSH2 0xCCE JUMPI POP PUSH1 0x0 SWAP2 SWAP1 POP JUMP JUMPDEST PUSH1 0x3 SLOAD PUSH1 0x40 DUP1 MLOAD PUSH4 0x43BF8B49 PUSH1 0xE1 SHL DUP2 MSTORE SWAP1 MLOAD PUSH1 0x0 SWAP3 PUSH1 0x1 PUSH1 0x1 PUSH1 0xA0 SHL SUB AND SWAP2 PUSH4 0x877F1692 SWAP2 PUSH1 0x4 DUP1 DUP4 ADD SWAP3 PUSH1 0x20 SWAP3 SWAP2 SWAP1 DUP3 SWAP1 SUB ADD DUP2 DUP7 GAS STATICCALL ISZERO DUP1 ISZERO PUSH2 0xD18 JUMPI RETURNDATASIZE PUSH1 0x0 DUP1 RETURNDATACOPY RETURNDATASIZE PUSH1 0x0 REVERT JUMPDEST POP POP POP POP PUSH1 0x40 MLOAD RETURNDATASIZE PUSH1 0x1F NOT PUSH1 0x1F DUP3 ADD AND DUP3 ADD DUP1 PUSH1 0x40 MSTORE POP DUP2 ADD SWAP1 PUSH2 0xD3C SWAP2 SWAP1 PUSH2 0x3BEF JUMP JUMPDEST PUSH1 0x6 SLOAD PUSH1 0x1 PUSH1 0x1 PUSH1 0xA0 SHL SUB DUP6 AND PUSH1 0x0 SWAP1 DUP2 MSTORE PUSH1 0x2 PUSH1 0x20 MSTORE PUSH1 0x40 DUP2 KECCAK256 SLOAD SWAP3 SWAP4 POP SWAP2 PUSH2 0xD67 SWAP1 DUP5 SWAP1 PUSH2 0x3C3B JUMP JUMPDEST PUSH2 0xD71 SWAP2 SWAP1 PUSH2 0x3C5A JUMP JUMPDEST SWAP5 SWAP4 POP POP POP POP JUMP JUMPDEST PUSH1 0x40 MLOAD PUSH4 0x5B80B5FB PUSH1 0xE1 SHL DUP2 MSTORE CALLER PUSH1 0x4 DUP3 ADD DUP2 SWAP1 MSTORE PUSH1 0x1 PUSH1 0x1 PUSH1 0xA0 SHL SUB DUP4 DUP2 AND PUSH1 0x24 DUP5 ADD MSTORE SWAP1 SWAP2 PUSH32 0x0 SWAP1 SWAP2 AND SWAP1 PUSH4 0xB7016BF6 SWAP1 PUSH1 0x44 ADD PUSH1 0x20 PUSH1 0x40 MLOAD DUP1 DUP4 SUB DUP2 DUP7 GAS STATICCALL ISZERO DUP1 ISZERO PUSH2 0xDEB JUMPI RETURNDATASIZE PUSH1 0x0 DUP1 RETURNDATACOPY RETURNDATASIZE PUSH1 0x0 REVERT JUMPDEST POP POP POP POP PUSH1 0x40 MLOAD RETURNDATASIZE PUSH1 0x1F NOT PUSH1 0x1F DUP3 ADD AND DUP3 ADD DUP1 PUSH1 0x40 MSTORE POP DUP2 ADD SWAP1 PUSH2 0xE0F SWAP2 SWAP1 PUSH2 0x3AD1 JUMP JUMPDEST PUSH1 0x40 MLOAD DUP1 PUSH1 0x40 ADD PUSH1 0x40 MSTORE DUP1 PUSH1 0x13 DUP2 MSTORE PUSH1 0x20 ADD PUSH1 0x0 DUP1 MLOAD PUSH1 0x20 PUSH2 0x3CE1 DUP4 CODECOPY DUP2 MLOAD SWAP2 MSTORE DUP2 MSTORE POP SWAP1 PUSH2 0xE51 JUMPI PUSH1 0x40 MLOAD PUSH3 0x461BCD PUSH1 0xE5 SHL DUP2 MSTORE PUSH1 0x4 ADD PUSH2 0x5B9 SWAP2 SWAP1 PUSH2 0x3A7C JUMP JUMPDEST POP PUSH1 0x0 DUP2 PUSH1 0x1 PUSH1 0x1 PUSH1 0xA0 SHL SUB AND PUSH4 0xC5EC7874 PUSH1 0x40 MLOAD DUP2 PUSH4 0xFFFFFFFF AND PUSH1 0xE0 SHL DUP2 MSTORE PUSH1 0x4 ADD PUSH1 0x20 PUSH1 0x40 MLOAD DUP1 DUP4 SUB DUP2 DUP7 GAS STATICCALL ISZERO DUP1 ISZERO PUSH2 0xE92 JUMPI RETURNDATASIZE PUSH1 0x0 DUP1 RETURNDATACOPY RETURNDATASIZE PUSH1 0x0 REVERT JUMPDEST POP POP POP POP PUSH1 0x40 MLOAD RETURNDATASIZE PUSH1 0x1F NOT PUSH1 0x1F DUP3 ADD AND DUP3 ADD DUP1 PUSH1 0x40 MSTORE POP DUP2 ADD SWAP1 PUSH2 0xEB6 SWAP2 SWAP1 PUSH2 0x3C08 JUMP JUMPDEST PUSH1 0x40 DUP1 MLOAD DUP1 DUP3 ADD SWAP1 SWAP2 MSTORE PUSH1 0x14 DUP2 MSTORE PUSH20 0x11D85D59D948191BD95CC81B9BDD08195E1A5CDD PUSH1 0x62 SHL PUSH1 0x20 DUP3 ADD MSTORE SWAP1 SWAP2 POP PUSH1 0x1 PUSH1 0x1 PUSH1 0xA0 SHL SUB DUP3 AND PUSH2 0xF0B JUMPI PUSH1 0x40 MLOAD PUSH3 0x461BCD PUSH1 0xE5 SHL DUP2 MSTORE PUSH1 0x4 ADD PUSH2 0x5B9 SWAP2 SWAP1 PUSH2 0x3A7C JUMP JUMPDEST POP PUSH1 0x1 PUSH1 0x1 PUSH1 0xA0 SHL SUB AND PUSH1 0x0 SWAP1 DUP2 MSTORE PUSH1 0xD PUSH1 0x20 MSTORE PUSH1 0x40 SWAP1 KECCAK256 DUP1 SLOAD PUSH1 0xFF NOT AND PUSH1 0x1 OR SWAP1 SSTORE POP POP JUMP JUMPDEST PUSH10 0x676F7665726E616E6365 PUSH1 0xB0 SHL PUSH15 0x34B7333630BA34B7B72FB0B236B4B7 PUSH1 0x89 SHL PUSH32 0x0 PUSH1 0x1 PUSH1 0x1 PUSH1 0xA0 SHL SUB AND PUSH4 0xD756A422 DUP4 DUP4 CALLER PUSH1 0x40 MLOAD DUP5 PUSH4 0xFFFFFFFF AND PUSH1 0xE0 SHL DUP2 MSTORE PUSH1 0x4 ADD PUSH2 0xFA3 SWAP4 SWAP3 SWAP2 SWAP1 PUSH2 0x3C7C JUMP JUMPDEST PUSH1 0x20 PUSH1 0x40 MLOAD DUP1 DUP4 SUB DUP2 DUP7 GAS STATICCALL ISZERO DUP1 ISZERO PUSH2 0xFC0 JUMPI RETURNDATASIZE PUSH1 0x0 DUP1 RETURNDATACOPY RETURNDATASIZE PUSH1 0x0 REVERT JUMPDEST POP POP POP POP PUSH1 0x40 MLOAD RETURNDATASIZE PUSH1 0x1F NOT PUSH1 0x1F DUP3 ADD AND DUP3 ADD DUP1 PUSH1 0x40 MSTORE POP DUP2 ADD SWAP1 PUSH2 0xFE4 SWAP2 SWAP1 PUSH2 0x3AD1 JUMP JUMPDEST PUSH1 0x40 MLOAD DUP1 PUSH1 0x40 ADD PUSH1 0x40 MSTORE DUP1 PUSH1 0x13 DUP2 MSTORE PUSH1 0x20 ADD PUSH1 0x0 DUP1 MLOAD PUSH1 0x20 PUSH2 0x3CE1 DUP4 CODECOPY DUP2 MLOAD SWAP2 MSTORE DUP2 MSTORE POP SWAP1 PUSH2 0x1026 JUMPI PUSH1 0x40 MLOAD PUSH3 0x461BCD PUSH1 0xE5 SHL DUP2 MSTORE PUSH1 0x4 ADD PUSH2 0x5B9 SWAP2 SWAP1 PUSH2 0x3A7C JUMP JUMPDEST POP PUSH2 0x1032 PUSH1 0x7 DUP6 PUSH2 0x2F63 JUMP JUMPDEST PUSH1 0x40 MLOAD DUP1 PUSH1 0x40 ADD PUSH1 0x40 MSTORE DUP1 PUSH1 0x10 DUP2 MSTORE PUSH1 0x20 ADD PUSH16 0x1A5B9D985B1A5908185C99DD5B595B9D PUSH1 0x82 SHL DUP2 MSTORE POP SWAP1 PUSH2 0x1079 JUMPI PUSH1 0x40 MLOAD PUSH3 0x461BCD PUSH1 0xE5 SHL DUP2 MSTORE PUSH1 0x4 ADD PUSH2 0x5B9 SWAP2 SWAP1 PUSH2 0x3A7C JUMP JUMPDEST POP PUSH2 0x826 DUP5 DUP5 PUSH2 0x2F7F JUMP JUMPDEST PUSH10 0x676F7665726E616E6365 PUSH1 0xB0 SHL PUSH15 0x34B7333630BA34B7B72FB0B236B4B7 PUSH1 0x89 SHL PUSH32 0x0 PUSH1 0x1 PUSH1 0x1 PUSH1 0xA0 SHL SUB AND PUSH4 0xD756A422 DUP4 DUP4 CALLER PUSH1 0x40 MLOAD DUP5 PUSH4 0xFFFFFFFF AND PUSH1 0xE0 SHL DUP2 MSTORE PUSH1 0x4 ADD PUSH2 0x10F5 SWAP4 SWAP3 SWAP2 SWAP1 PUSH2 0x3C7C JUMP JUMPDEST PUSH1 0x20 PUSH1 0x40 MLOAD DUP1 DUP4 SUB DUP2 DUP7 GAS STATICCALL ISZERO DUP1 ISZERO PUSH2 0x1112 JUMPI RETURNDATASIZE PUSH1 0x0 DUP1 RETURNDATACOPY RETURNDATASIZE PUSH1 0x0 REVERT JUMPDEST POP POP POP POP PUSH1 0x40 MLOAD RETURNDATASIZE PUSH1 0x1F NOT PUSH1 0x1F DUP3 ADD AND DUP3 ADD DUP1 PUSH1 0x40 MSTORE POP DUP2 ADD SWAP1 PUSH2 0x1136 SWAP2 SWAP1 PUSH2 0x3AD1 JUMP JUMPDEST PUSH1 0x40 MLOAD DUP1 PUSH1 0x40 ADD PUSH1 0x40 MSTORE DUP1 PUSH1 0x13 DUP2 MSTORE PUSH1 0x20 ADD PUSH1 0x0 DUP1 MLOAD PUSH1 0x20 PUSH2 0x3CE1 DUP4 CODECOPY DUP2 MLOAD SWAP2 MSTORE DUP2 MSTORE POP SWAP1 PUSH2 0x1178 JUMPI PUSH1 0x40 MLOAD PUSH3 0x461BCD PUSH1 0xE5 SHL DUP2 MSTORE PUSH1 0x4 ADD PUSH2 0x5B9 SWAP2 SWAP1 PUSH2 0x3A7C JUMP JUMPDEST POP PUSH1 0x40 DUP1 MLOAD DUP1 DUP3 ADD SWAP1 SWAP2 MSTORE PUSH1 0x10 DUP2 MSTORE PUSH16 0x1A5B9D985B1A5908185C99DD5B595B9D PUSH1 0x82 SHL PUSH1 0x20 DUP3 ADD MSTORE DUP6 DUP5 EQ PUSH2 0x11C0 JUMPI PUSH1 0x40 MLOAD PUSH3 0x461BCD PUSH1 0xE5 SHL DUP2 MSTORE PUSH1 0x4 ADD PUSH2 0x5B9 SWAP2 SWAP1 PUSH2 0x3A7C JUMP JUMPDEST POP PUSH1 0x0 JUMPDEST DUP6 DUP2 LT ISZERO PUSH2 0x1296 JUMPI PUSH2 0x11FE DUP8 DUP8 DUP4 DUP2 DUP2 LT PUSH2 0x11E1 JUMPI PUSH2 0x11E1 PUSH2 0x3BD9 JUMP JUMPDEST SWAP1 POP PUSH1 0x20 MUL ADD PUSH1 0x20 DUP2 ADD SWAP1 PUSH2 0x11F6 SWAP2 SWAP1 PUSH2 0x38FC JUMP JUMPDEST PUSH1 0x7 SWAP1 PUSH2 0x2F63 JUMP JUMPDEST PUSH1 0x40 MLOAD DUP1 PUSH1 0x40 ADD PUSH1 0x40 MSTORE DUP1 PUSH1 0x10 DUP2 MSTORE PUSH1 0x20 ADD PUSH16 0x1A5B9D985B1A5908185C99DD5B595B9D PUSH1 0x82 SHL DUP2 MSTORE POP SWAP1 PUSH2 0x1245 JUMPI PUSH1 0x40 MLOAD PUSH3 0x461BCD PUSH1 0xE5 SHL DUP2 MSTORE PUSH1 0x4 ADD PUSH2 0x5B9 SWAP2 SWAP1 PUSH2 0x3A7C JUMP JUMPDEST POP PUSH2 0x128E DUP8 DUP8 DUP4 DUP2 DUP2 LT PUSH2 0x125B JUMPI PUSH2 0x125B PUSH2 0x3BD9 JUMP JUMPDEST SWAP1 POP PUSH1 0x20 MUL ADD PUSH1 0x20 DUP2 ADD SWAP1 PUSH2 0x1270 SWAP2 SWAP1 PUSH2 0x38FC JUMP JUMPDEST DUP7 DUP7 DUP5 DUP2 DUP2 LT PUSH2 0x1282 JUMPI PUSH2 0x1282 PUSH2 0x3BD9 JUMP JUMPDEST SWAP1 POP PUSH1 0x20 MUL ADD CALLDATALOAD PUSH2 0x2F7F JUMP JUMPDEST PUSH1 0x1 ADD PUSH2 0x11C4 JUMP JUMPDEST POP POP POP POP POP POP POP JUMP JUMPDEST CALLER PUSH1 0x0 SWAP1 DUP2 MSTORE PUSH1 0xD PUSH1 0x20 SWAP1 DUP2 MSTORE PUSH1 0x40 SWAP2 DUP3 SWAP1 KECCAK256 SLOAD DUP3 MLOAD DUP1 DUP5 ADD SWAP1 SWAP4 MSTORE PUSH1 0x13 DUP4 MSTORE PUSH1 0x0 DUP1 MLOAD PUSH1 0x20 PUSH2 0x3CE1 DUP4 CODECOPY DUP2 MLOAD SWAP2 MSTORE SWAP2 DUP4 ADD SWAP2 SWAP1 SWAP2 MSTORE PUSH1 0xFF AND PUSH2 0x12F5 JUMPI PUSH1 0x40 MLOAD PUSH3 0x461BCD PUSH1 0xE5 SHL DUP2 MSTORE PUSH1 0x4 ADD PUSH2 0x5B9 SWAP2 SWAP1 PUSH2 0x3A7C JUMP JUMPDEST POP PUSH1 0x3 SLOAD PUSH1 0x40 MLOAD PUSH4 0x40C10F19 PUSH1 0xE0 SHL DUP2 MSTORE PUSH1 0x1 PUSH1 0x1 PUSH1 0xA0 SHL SUB DUP5 DUP2 AND PUSH1 0x4 DUP4 ADD MSTORE PUSH1 0x24 DUP3 ADD DUP5 SWAP1 MSTORE SWAP1 SWAP2 AND SWAP1 PUSH4 0x40C10F19 SWAP1 PUSH1 0x44 ADD PUSH1 0x0 PUSH1 0x40 MLOAD DUP1 DUP4 SUB DUP2 PUSH1 0x0 DUP8 DUP1 EXTCODESIZE ISZERO DUP1 ISZERO PUSH2 0x1344 JUMPI PUSH1 0x0 DUP1 REVERT JUMPDEST POP GAS CALL ISZERO DUP1 ISZERO PUSH2 0x1358 JUMPI RETURNDATASIZE PUSH1 0x0 DUP1 RETURNDATACOPY RETURNDATASIZE PUSH1 0x0 REVERT JUMPDEST POP POP POP POP POP POP JUMP JUMPDEST PUSH10 0x676F7665726E616E6365 PUSH1 0xB0 SHL PUSH15 0x34B7333630BA34B7B72FB0B236B4B7 PUSH1 0x89 SHL PUSH32 0x0 PUSH1 0x1 PUSH1 0x1 PUSH1 0xA0 SHL SUB AND PUSH4 0xD756A422 DUP4 DUP4 CALLER PUSH1 0x40 MLOAD DUP5 PUSH4 0xFFFFFFFF AND PUSH1 0xE0 SHL DUP2 MSTORE PUSH1 0x4 ADD PUSH2 0x13D1 SWAP4 SWAP3 SWAP2 SWAP1 PUSH2 0x3C7C JUMP JUMPDEST PUSH1 0x20 PUSH1 0x40 MLOAD DUP1 DUP4 SUB DUP2 DUP7 GAS STATICCALL ISZERO DUP1 ISZERO PUSH2 0x13EE JUMPI RETURNDATASIZE PUSH1 0x0 DUP1 RETURNDATACOPY RETURNDATASIZE PUSH1 0x0 REVERT JUMPDEST POP POP POP POP PUSH1 0x40 MLOAD RETURNDATASIZE PUSH1 0x1F NOT PUSH1 0x1F DUP3 ADD AND DUP3 ADD DUP1 PUSH1 0x40 MSTORE POP DUP2 ADD SWAP1 PUSH2 0x1412 SWAP2 SWAP1 PUSH2 0x3AD1 JUMP JUMPDEST PUSH1 0x40 MLOAD DUP1 PUSH1 0x40 ADD PUSH1 0x40 MSTORE DUP1 PUSH1 0x13 DUP2 MSTORE PUSH1 0x20 ADD PUSH1 0x0 DUP1 MLOAD PUSH1 0x20 PUSH2 0x3CE1 DUP4 CODECOPY DUP2 MLOAD SWAP2 MSTORE DUP2 MSTORE POP SWAP1 PUSH2 0x1454 JUMPI PUSH1 0x40 MLOAD PUSH3 0x461BCD PUSH1 0xE5 SHL DUP2 MSTORE PUSH1 0x4 ADD PUSH2 0x5B9 SWAP2 SWAP1 PUSH2 0x3A7C JUMP JUMPDEST POP DUP5 DUP4 EQ PUSH2 0x14A4 JUMPI PUSH1 0x40 MLOAD PUSH3 0x461BCD PUSH1 0xE5 SHL DUP2 MSTORE PUSH1 0x20 PUSH1 0x4 DUP3 ADD MSTORE PUSH1 0x1B PUSH1 0x24 DUP3 ADD MSTORE PUSH32 0x496E76616C6964206C656E677468206F6620617267756D656E74730000000000 PUSH1 0x44 DUP3 ADD MSTORE PUSH1 0x64 ADD PUSH2 0x5B9 JUMP JUMPDEST PUSH1 0x0 JUMPDEST DUP6 DUP2 LT ISZERO PUSH2 0x1296 JUMPI PUSH2 0x14E1 DUP8 DUP8 DUP4 DUP2 DUP2 LT PUSH2 0x14C4 JUMPI PUSH2 0x14C4 PUSH2 0x3BD9 JUMP JUMPDEST SWAP1 POP PUSH1 0x20 MUL ADD PUSH1 0x20 DUP2 ADD SWAP1 PUSH2 0x14D9 SWAP2 SWAP1 PUSH2 0x38FC JUMP JUMPDEST PUSH1 0xA SWAP1 PUSH2 0x2F63 JUMP JUMPDEST PUSH2 0x1523 JUMPI PUSH1 0x40 MLOAD PUSH3 0x461BCD PUSH1 0xE5 SHL DUP2 MSTORE PUSH1 0x20 PUSH1 0x4 DUP3 ADD MSTORE PUSH1 0x13 PUSH1 0x24 DUP3 ADD MSTORE PUSH19 0x185B5B4819D85D59D9481B9BDD08199BDD5B99 PUSH1 0x6A SHL PUSH1 0x44 DUP3 ADD MSTORE PUSH1 0x64 ADD PUSH2 0x5B9 JUMP JUMPDEST PUSH2 0x156B DUP8 DUP8 DUP4 DUP2 DUP2 LT PUSH2 0x1538 JUMPI PUSH2 0x1538 PUSH2 0x3BD9 JUMP JUMPDEST SWAP1 POP PUSH1 0x20 MUL ADD PUSH1 0x20 DUP2 ADD SWAP1 PUSH2 0x154D SWAP2 SWAP1 PUSH2 0x38FC JUMP JUMPDEST DUP7 DUP7 DUP5 DUP2 DUP2 LT PUSH2 0x155F JUMPI PUSH2 0x155F PUSH2 0x3BD9 JUMP JUMPDEST SWAP1 POP PUSH1 0x20 MUL ADD CALLDATALOAD PUSH2 0x3097 JUMP JUMPDEST PUSH1 0x1 ADD PUSH2 0x14A7 JUMP JUMPDEST PUSH1 0x0 DUP1 PUSH2 0xD71 PUSH1 0xA DUP5 PUSH2 0x31A9 JUMP JUMPDEST PUSH1 0x0 PUSH32 0x0 PUSH1 0x40 MLOAD PUSH4 0x24745215 PUSH1 0xE2 SHL DUP2 MSTORE PUSH10 0x676F7665726E616E6365 PUSH1 0xB0 SHL PUSH1 0x4 DUP3 ADD MSTORE CALLER PUSH1 0x24 DUP3 ADD MSTORE PUSH1 0x1 PUSH1 0x1 PUSH1 0xA0 SHL SUB SWAP2 SWAP1 SWAP2 AND SWAP1 PUSH4 0x91D14854 SWAP1 PUSH1 0x44 ADD PUSH1 0x20 PUSH1 0x40 MLOAD DUP1 DUP4 SUB DUP2 DUP7 GAS STATICCALL ISZERO DUP1 ISZERO PUSH2 0x15FD JUMPI RETURNDATASIZE PUSH1 0x0 DUP1 RETURNDATACOPY RETURNDATASIZE PUSH1 0x0 REVERT JUMPDEST POP POP POP POP PUSH1 0x40 MLOAD RETURNDATASIZE PUSH1 0x1F NOT PUSH1 0x1F DUP3 ADD AND DUP3 ADD DUP1 PUSH1 0x40 MSTORE POP DUP2 ADD SWAP1 PUSH2 0x1621 SWAP2 SWAP1 PUSH2 0x3AD1 JUMP JUMPDEST PUSH1 0x40 MLOAD DUP1 PUSH1 0x40 ADD PUSH1 0x40 MSTORE DUP1 PUSH1 0x13 DUP2 MSTORE PUSH1 0x20 ADD PUSH1 0x0 DUP1 MLOAD PUSH1 0x20 PUSH2 0x3CE1 DUP4 CODECOPY DUP2 MLOAD SWAP2 MSTORE DUP2 MSTORE POP SWAP1 PUSH2 0x1663 JUMPI PUSH1 0x40 MLOAD PUSH3 0x461BCD PUSH1 0xE5 SHL DUP2 MSTORE PUSH1 0x4 ADD PUSH2 0x5B9 SWAP2 SWAP1 PUSH2 0x3A7C JUMP JUMPDEST POP PUSH1 0x40 MLOAD PUSH4 0xFA3F8F1B PUSH1 0xE0 SHL DUP2 MSTORE PUSH1 0x1 PUSH1 0x1 PUSH1 0xA0 SHL SUB DUP5 DUP2 AND PUSH1 0x4 DUP4 ADD MSTORE DUP4 AND SWAP1 PUSH4 0xFA3F8F1B SWAP1 PUSH1 0x24 ADD PUSH1 0x20 PUSH1 0x40 MLOAD DUP1 DUP4 SUB DUP2 DUP7 GAS STATICCALL ISZERO DUP1 ISZERO PUSH2 0x16AA JUMPI RETURNDATASIZE PUSH1 0x0 DUP1 RETURNDATACOPY RETURNDATASIZE PUSH1 0x0 REVERT JUMPDEST POP POP POP POP PUSH1 0x40 MLOAD RETURNDATASIZE PUSH1 0x1F NOT PUSH1 0x1F DUP3 ADD AND DUP3 ADD DUP1 PUSH1 0x40 MSTORE POP DUP2 ADD SWAP1 PUSH2 0x16CE SWAP2 SWAP1 PUSH2 0x3AD1 JUMP JUMPDEST PUSH1 0x40 MLOAD DUP1 PUSH1 0x40 ADD PUSH1 0x40 MSTORE DUP1 PUSH1 0x17 DUP2 MSTORE PUSH1 0x20 ADD PUSH32 0x61646472657373206E6F742077686974656C6973746564000000000000000000 DUP2 MSTORE POP SWAP1 PUSH2 0x1722 JUMPI PUSH1 0x40 MLOAD PUSH3 0x461BCD PUSH1 0xE5 SHL DUP2 MSTORE PUSH1 0x4 ADD PUSH2 0x5B9 SWAP2 SWAP1 PUSH2 0x3A7C JUMP JUMPDEST POP PUSH1 0x0 PUSH2 0x172F PUSH1 0xA PUSH2 0x2B4C JUMP JUMPDEST SWAP1 POP PUSH1 0x0 JUMPDEST DUP2 DUP2 LT ISZERO PUSH2 0x1773 JUMPI PUSH1 0x1 PUSH1 0x1 PUSH1 0xA0 SHL SUB DUP5 AND PUSH2 0x1751 PUSH1 0xA DUP4 PUSH2 0x2B57 JUMP JUMPDEST PUSH1 0x1 PUSH1 0x1 PUSH1 0xA0 SHL SUB AND EQ ISZERO PUSH2 0x176B JUMPI PUSH1 0x0 SWAP3 POP POP POP PUSH2 0x181E JUMP JUMPDEST PUSH1 0x1 ADD PUSH2 0x1734 JUMP JUMPDEST POP PUSH2 0x177F PUSH1 0xA DUP6 PUSH2 0x2F63 JUMP JUMPDEST ISZERO PUSH2 0x17E8 JUMPI PUSH1 0x0 PUSH2 0x1791 PUSH1 0xA DUP7 PUSH2 0x31D0 JUMP JUMPDEST SWAP1 POP DUP1 PUSH1 0x1 PUSH1 0x1 PUSH1 0xA0 SHL SUB AND PUSH4 0x41C0E1B5 PUSH1 0x40 MLOAD DUP2 PUSH4 0xFFFFFFFF AND PUSH1 0xE0 SHL DUP2 MSTORE PUSH1 0x4 ADD PUSH1 0x0 PUSH1 0x40 MLOAD DUP1 DUP4 SUB DUP2 PUSH1 0x0 DUP8 DUP1 EXTCODESIZE ISZERO DUP1 ISZERO PUSH2 0x17CE JUMPI PUSH1 0x0 DUP1 REVERT JUMPDEST POP GAS CALL ISZERO DUP1 ISZERO PUSH2 0x17E2 JUMPI RETURNDATASIZE PUSH1 0x0 DUP1 RETURNDATACOPY RETURNDATASIZE PUSH1 0x0 REVERT JUMPDEST POP POP POP POP POP JUMPDEST PUSH2 0x17F4 PUSH1 0xA DUP6 DUP6 PUSH2 0x31E5 JUMP JUMPDEST POP POP POP PUSH1 0x1 PUSH1 0x1 PUSH1 0xA0 SHL SUB DUP2 AND PUSH1 0x0 SWAP1 DUP2 MSTORE PUSH1 0xD PUSH1 0x20 MSTORE PUSH1 0x40 SWAP1 KECCAK256 DUP1 SLOAD PUSH1 0xFF NOT AND PUSH1 0x1 SWAP1 DUP2 OR SWAP1 SWAP2 SSTORE JUMPDEST SWAP3 SWAP2 POP POP JUMP JUMPDEST PUSH32 0x0 PUSH1 0x40 MLOAD PUSH4 0x24745215 PUSH1 0xE2 SHL DUP2 MSTORE PUSH10 0x676F7665726E616E6365 PUSH1 0xB0 SHL PUSH1 0x4 DUP3 ADD MSTORE CALLER PUSH1 0x24 DUP3 ADD MSTORE PUSH1 0x1 PUSH1 0x1 PUSH1 0xA0 SHL SUB SWAP2 SWAP1 SWAP2 AND SWAP1 PUSH4 0x91D14854 SWAP1 PUSH1 0x44 ADD PUSH1 0x20 PUSH1 0x40 MLOAD DUP1 DUP4 SUB DUP2 DUP7 GAS STATICCALL ISZERO DUP1 ISZERO PUSH2 0x189E JUMPI RETURNDATASIZE PUSH1 0x0 DUP1 RETURNDATACOPY RETURNDATASIZE PUSH1 0x0 REVERT JUMPDEST POP POP POP POP PUSH1 0x40 MLOAD RETURNDATASIZE PUSH1 0x1F NOT PUSH1 0x1F DUP3 ADD AND DUP3 ADD DUP1 PUSH1 0x40 MSTORE POP DUP2 ADD SWAP1 PUSH2 0x18C2 SWAP2 SWAP1 PUSH2 0x3AD1 JUMP JUMPDEST PUSH1 0x40 MLOAD DUP1 PUSH1 0x40 ADD PUSH1 0x40 MSTORE DUP1 PUSH1 0x13 DUP2 MSTORE PUSH1 0x20 ADD PUSH1 0x0 DUP1 MLOAD PUSH1 0x20 PUSH2 0x3CE1 DUP4 CODECOPY DUP2 MLOAD SWAP2 MSTORE DUP2 MSTORE POP SWAP1 PUSH2 0x1904 JUMPI PUSH1 0x40 MLOAD PUSH3 0x461BCD PUSH1 0xE5 SHL DUP2 MSTORE PUSH1 0x4 ADD PUSH2 0x5B9 SWAP2 SWAP1 PUSH2 0x3A7C JUMP JUMPDEST POP PUSH2 0x1910 PUSH1 0x7 DUP3 PUSH2 0x31D0 JUMP JUMPDEST PUSH1 0x1 PUSH1 0x1 PUSH1 0xA0 SHL SUB AND PUSH4 0x3CF80E6C PUSH1 0x40 MLOAD DUP2 PUSH4 0xFFFFFFFF AND PUSH1 0xE0 SHL DUP2 MSTORE PUSH1 0x4 ADD PUSH1 0x0 PUSH1 0x40 MLOAD DUP1 DUP4 SUB DUP2 PUSH1 0x0 DUP8 DUP1 EXTCODESIZE ISZERO DUP1 ISZERO PUSH2 0x194A JUMPI PUSH1 0x0 DUP1 REVERT JUMPDEST POP GAS CALL ISZERO DUP1 ISZERO PUSH2 0x195E JUMPI RETURNDATASIZE PUSH1 0x0 DUP1 RETURNDATACOPY RETURNDATASIZE PUSH1 0x0 REVERT JUMPDEST POP POP POP POP POP JUMP JUMPDEST PUSH1 0x3 PUSH1 0x0 SWAP1 SLOAD SWAP1 PUSH2 0x100 EXP SWAP1 DIV PUSH1 0x1 PUSH1 0x1 PUSH1 0xA0 SHL SUB AND PUSH1 0x1 PUSH1 0x1 PUSH1 0xA0 SHL SUB AND PUSH4 0x4A17ED59 PUSH1 0x40 MLOAD DUP2 PUSH4 0xFFFFFFFF AND PUSH1 0xE0 SHL DUP2 MSTORE PUSH1 0x4 ADD PUSH1 0x20 PUSH1 0x40 MLOAD DUP1 DUP4 SUB DUP2 PUSH1 0x0 DUP8 GAS CALL ISZERO DUP1 ISZERO PUSH2 0x19BA JUMPI RETURNDATASIZE PUSH1 0x0 DUP1 RETURNDATACOPY RETURNDATASIZE PUSH1 0x0 REVERT JUMPDEST POP POP POP POP PUSH1 0x40 MLOAD RETURNDATASIZE PUSH1 0x1F NOT PUSH1 0x1F DUP3 ADD AND DUP3 ADD DUP1 PUSH1 0x40 MSTORE POP DUP2 ADD SWAP1 PUSH2 0x19DE SWAP2 SWAP1 PUSH2 0x3AD1 JUMP JUMPDEST POP JUMP JUMPDEST PUSH1 0x0 PUSH32 0x0 PUSH1 0x40 MLOAD PUSH4 0x24745215 PUSH1 0xE2 SHL DUP2 MSTORE PUSH10 0x676F7665726E616E6365 PUSH1 0xB0 SHL PUSH1 0x4 DUP3 ADD MSTORE CALLER PUSH1 0x24 DUP3 ADD MSTORE PUSH1 0x1 PUSH1 0x1 PUSH1 0xA0 SHL SUB SWAP2 SWAP1 SWAP2 AND SWAP1 PUSH4 0x91D14854 SWAP1 PUSH1 0x44 ADD PUSH1 0x20 PUSH1 0x40 MLOAD DUP1 DUP4 SUB DUP2 DUP7 GAS STATICCALL ISZERO DUP1 ISZERO PUSH2 0x1A5D JUMPI RETURNDATASIZE PUSH1 0x0 DUP1 RETURNDATACOPY RETURNDATASIZE PUSH1 0x0 REVERT JUMPDEST POP POP POP POP PUSH1 0x40 MLOAD RETURNDATASIZE PUSH1 0x1F NOT PUSH1 0x1F DUP3 ADD AND DUP3 ADD DUP1 PUSH1 0x40 MSTORE POP DUP2 ADD SWAP1 PUSH2 0x1A81 SWAP2 SWAP1 PUSH2 0x3AD1 JUMP JUMPDEST PUSH1 0x40 MLOAD DUP1 PUSH1 0x40 ADD PUSH1 0x40 MSTORE DUP1 PUSH1 0x13 DUP2 MSTORE PUSH1 0x20 ADD PUSH1 0x0 DUP1 MLOAD PUSH1 0x20 PUSH2 0x3CE1 DUP4 CODECOPY DUP2 MLOAD SWAP2 MSTORE DUP2 MSTORE POP SWAP1 PUSH2 0x1AC3 JUMPI PUSH1 0x40 MLOAD PUSH3 0x461BCD PUSH1 0xE5 SHL DUP2 MSTORE PUSH1 0x4 ADD PUSH2 0x5B9 SWAP2 SWAP1 PUSH2 0x3A7C JUMP JUMPDEST POP PUSH1 0x0 PUSH2 0x1AD0 PUSH1 0x7 PUSH2 0x2B4C JUMP JUMPDEST SWAP1 POP PUSH1 0x0 DUP1 JUMPDEST DUP3 DUP2 LT ISZERO PUSH2 0x1B13 JUMPI PUSH1 0x1 PUSH1 0x1 PUSH1 0xA0 SHL SUB DUP6 AND PUSH2 0x1AF3 PUSH1 0x7 DUP4 PUSH2 0x2B57 JUMP JUMPDEST PUSH1 0x1 PUSH1 0x1 PUSH1 0xA0 SHL SUB AND EQ ISZERO PUSH2 0x1B0B JUMPI PUSH1 0x1 SWAP2 POP PUSH2 0x1B13 JUMP JUMPDEST PUSH1 0x1 ADD PUSH2 0x1AD6 JUMP JUMPDEST POP DUP1 ISZERO DUP1 ISZERO PUSH2 0x1B2B JUMPI POP PUSH1 0x3 SLOAD PUSH1 0x1 PUSH1 0xA0 SHL SWAP1 DIV PUSH1 0xFF AND JUMPDEST DUP1 ISZERO PUSH2 0x1B38 JUMPI POP PUSH1 0x1 DUP3 LT ISZERO JUMPDEST ISZERO PUSH2 0x1B48 JUMPI PUSH1 0x0 SWAP3 POP POP POP PUSH2 0x181E JUMP JUMPDEST PUSH1 0x0 DUP1 PUSH2 0x1B56 PUSH1 0x7 DUP9 PUSH2 0x31A9 JUMP JUMPDEST SWAP2 POP SWAP2 POP DUP2 ISZERO DUP1 PUSH2 0x1B79 JUMPI POP DUP6 PUSH1 0x1 PUSH1 0x1 PUSH1 0xA0 SHL SUB AND DUP2 PUSH1 0x1 PUSH1 0x1 PUSH1 0xA0 SHL SUB AND EQ ISZERO JUMPDEST PUSH1 0x40 MLOAD DUP1 PUSH1 0x40 ADD PUSH1 0x40 MSTORE DUP1 PUSH1 0x10 DUP2 MSTORE PUSH1 0x20 ADD PUSH16 0x1A5B9D985B1A5908185C99DD5B595B9D PUSH1 0x82 SHL DUP2 MSTORE POP SWAP1 PUSH2 0x1BC0 JUMPI PUSH1 0x40 MLOAD PUSH3 0x461BCD PUSH1 0xE5 SHL DUP2 MSTORE PUSH1 0x4 ADD PUSH2 0x5B9 SWAP2 SWAP1 PUSH2 0x3A7C JUMP JUMPDEST POP DUP2 DUP1 ISZERO PUSH2 0x1C2D JUMPI POP DUP1 PUSH1 0x1 PUSH1 0x1 PUSH1 0xA0 SHL SUB AND PUSH4 0x1F3A0E41 PUSH1 0x40 MLOAD DUP2 PUSH4 0xFFFFFFFF AND PUSH1 0xE0 SHL DUP2 MSTORE PUSH1 0x4 ADD PUSH1 0x20 PUSH1 0x40 MLOAD DUP1 DUP4 SUB DUP2 DUP7 GAS STATICCALL ISZERO DUP1 ISZERO PUSH2 0x1C07 JUMPI RETURNDATASIZE PUSH1 0x0 DUP1 RETURNDATACOPY RETURNDATASIZE PUSH1 0x0 REVERT JUMPDEST POP POP POP POP PUSH1 0x40 MLOAD RETURNDATASIZE PUSH1 0x1F NOT PUSH1 0x1F DUP3 ADD AND DUP3 ADD DUP1 PUSH1 0x40 MSTORE POP DUP2 ADD SWAP1 PUSH2 0x1C2B SWAP2 SWAP1 PUSH2 0x3AD1 JUMP JUMPDEST ISZERO JUMPDEST ISZERO PUSH2 0x1C86 JUMPI DUP1 PUSH1 0x1 PUSH1 0x1 PUSH1 0xA0 SHL SUB AND PUSH4 0x41C0E1B5 PUSH1 0x40 MLOAD DUP2 PUSH4 0xFFFFFFFF AND PUSH1 0xE0 SHL DUP2 MSTORE PUSH1 0x4 ADD PUSH1 0x0 PUSH1 0x40 MLOAD DUP1 DUP4 SUB DUP2 PUSH1 0x0 DUP8 DUP1 EXTCODESIZE ISZERO DUP1 ISZERO PUSH2 0x1C6D JUMPI PUSH1 0x0 DUP1 REVERT JUMPDEST POP GAS CALL ISZERO DUP1 ISZERO PUSH2 0x1C81 JUMPI RETURNDATASIZE PUSH1 0x0 DUP1 RETURNDATACOPY RETURNDATASIZE PUSH1 0x0 REVERT JUMPDEST POP POP POP POP JUMPDEST PUSH2 0x1C92 PUSH1 0x7 DUP9 DUP9 PUSH2 0x31E5 JUMP JUMPDEST POP POP POP PUSH1 0x1 PUSH1 0x1 PUSH1 0xA0 SHL SUB DUP5 AND PUSH1 0x0 SWAP1 DUP2 MSTORE PUSH1 0xD PUSH1 0x20 MSTORE PUSH1 0x40 SWAP1 KECCAK256 DUP1 SLOAD PUSH1 0xFF NOT AND PUSH1 0x1 SWAP1 DUP2 OR SWAP1 SWAP2 SSTORE SWAP3 POP POP POP SWAP3 SWAP2 POP POP JUMP JUMPDEST PUSH1 0x3 SLOAD PUSH1 0x0 SWAP1 PUSH1 0x1 PUSH1 0x1 PUSH1 0xA0 SHL SUB AND PUSH2 0x1CE0 JUMPI POP PUSH1 0x0 SWAP2 SWAP1 POP JUMP JUMPDEST PUSH1 0x3 SLOAD PUSH1 0x40 DUP1 MLOAD PUSH4 0x17E7EAB PUSH1 0xE7 SHL DUP2 MSTORE SWAP1 MLOAD PUSH1 0x0 SWAP3 PUSH1 0x1 PUSH1 0x1 PUSH1 0xA0 SHL SUB AND SWAP2 PUSH4 0xBF3F5580 SWAP2 PUSH1 0x4 DUP1 DUP4 ADD SWAP3 PUSH1 0x20 SWAP3 SWAP2 SWAP1 DUP3 SWAP1 SUB ADD DUP2 DUP7 GAS STATICCALL ISZERO DUP1 ISZERO PUSH2 0x1D2A JUMPI RETURNDATASIZE PUSH1 0x0 DUP1 RETURNDATACOPY RETURNDATASIZE PUSH1 0x0 REVERT JUMPDEST POP POP POP POP PUSH1 0x40 MLOAD RETURNDATASIZE PUSH1 0x1F NOT PUSH1 0x1F DUP3 ADD AND DUP3 ADD DUP1 PUSH1 0x40 MSTORE POP DUP2 ADD SWAP1 PUSH2 0x1D4E SWAP2 SWAP1 PUSH2 0x3BEF JUMP JUMPDEST PUSH1 0x3 SLOAD SWAP1 SWAP2 POP PUSH1 0x1 PUSH1 0xA0 SHL SWAP1 DIV PUSH1 0xFF AND ISZERO PUSH2 0x1D69 JUMPI SWAP3 SWAP2 POP POP JUMP JUMPDEST PUSH1 0x4 SLOAD PUSH2 0x1D79 JUMPI POP PUSH1 0x0 SWAP3 SWAP2 POP POP JUMP JUMPDEST PUSH1 0x4 SLOAD PUSH1 0x1 PUSH1 0x1 PUSH1 0xA0 SHL SUB DUP5 AND PUSH1 0x0 SWAP1 DUP2 MSTORE PUSH1 0x20 DUP2 SWAP1 MSTORE PUSH1 0x40 DUP2 KECCAK256 SLOAD SWAP1 SWAP2 SWAP1 PUSH2 0xD67 SWAP1 DUP5 SWAP1 PUSH2 0x3C3B JUMP JUMPDEST PUSH1 0x60 PUSH2 0x566 PUSH1 0xA PUSH2 0x31FE JUMP JUMPDEST PUSH10 0x676F7665726E616E6365 PUSH1 0xB0 SHL PUSH15 0x34B7333630BA34B7B72FB0B236B4B7 PUSH1 0x89 SHL PUSH32 0x0 PUSH1 0x1 PUSH1 0x1 PUSH1 0xA0 SHL SUB AND PUSH4 0xD756A422 DUP4 DUP4 CALLER PUSH1 0x40 MLOAD DUP5 PUSH4 0xFFFFFFFF AND PUSH1 0xE0 SHL DUP2 MSTORE PUSH1 0x4 ADD PUSH2 0x1E20 SWAP4 SWAP3 SWAP2 SWAP1 PUSH2 0x3C7C JUMP JUMPDEST PUSH1 0x20 PUSH1 0x40 MLOAD DUP1 DUP4 SUB DUP2 DUP7 GAS STATICCALL ISZERO DUP1 ISZERO PUSH2 0x1E3D JUMPI RETURNDATASIZE PUSH1 0x0 DUP1 RETURNDATACOPY RETURNDATASIZE PUSH1 0x0 REVERT JUMPDEST POP POP POP POP PUSH1 0x40 MLOAD RETURNDATASIZE PUSH1 0x1F NOT PUSH1 0x1F DUP3 ADD AND DUP3 ADD DUP1 PUSH1 0x40 MSTORE POP DUP2 ADD SWAP1 PUSH2 0x1E61 SWAP2 SWAP1 PUSH2 0x3AD1 JUMP JUMPDEST PUSH1 0x40 MLOAD DUP1 PUSH1 0x40 ADD PUSH1 0x40 MSTORE DUP1 PUSH1 0x13 DUP2 MSTORE PUSH1 0x20 ADD PUSH1 0x0 DUP1 MLOAD PUSH1 0x20 PUSH2 0x3CE1 DUP4 CODECOPY DUP2 MLOAD SWAP2 MSTORE DUP2 MSTORE POP SWAP1 PUSH2 0x1EA3 JUMPI PUSH1 0x40 MLOAD PUSH3 0x461BCD PUSH1 0xE5 SHL DUP2 MSTORE PUSH1 0x4 ADD PUSH2 0x5B9 SWAP2 SWAP1 PUSH2 0x3A7C JUMP JUMPDEST POP DUP5 DUP4 EQ PUSH2 0x1EF3 JUMPI PUSH1 0x40 MLOAD PUSH3 0x461BCD PUSH1 0xE5 SHL DUP2 MSTORE PUSH1 0x20 PUSH1 0x4 DUP3 ADD MSTORE PUSH1 0x1B PUSH1 0x24 DUP3 ADD MSTORE PUSH32 0x496E76616C6964206C656E677468206F6620617267756D656E74730000000000 PUSH1 0x44 DUP3 ADD MSTORE PUSH1 0x64 ADD PUSH2 0x5B9 JUMP JUMPDEST PUSH1 0x0 JUMPDEST DUP6 DUP2 LT ISZERO PUSH2 0x1296 JUMPI PUSH1 0x0 PUSH32 0x0 PUSH1 0x1 PUSH1 0x1 PUSH1 0xA0 SHL SUB AND PUSH4 0x59EADEB0 DUP10 DUP10 DUP6 DUP2 DUP2 LT PUSH2 0x1F41 JUMPI PUSH2 0x1F41 PUSH2 0x3BD9 JUMP JUMPDEST SWAP1 POP PUSH1 0x20 MUL ADD PUSH1 0x20 DUP2 ADD SWAP1 PUSH2 0x1F56 SWAP2 SWAP1 PUSH2 0x38FC JUMP JUMPDEST PUSH1 0x40 MLOAD PUSH1 0x1 PUSH1 0x1 PUSH1 0xE0 SHL SUB NOT PUSH1 0xE0 DUP5 SWAP1 SHL AND DUP2 MSTORE PUSH1 0x1 PUSH1 0x1 PUSH1 0xA0 SHL SUB SWAP1 SWAP2 AND PUSH1 0x4 DUP3 ADD MSTORE PUSH1 0x24 ADD PUSH1 0x20 PUSH1 0x40 MLOAD DUP1 DUP4 SUB DUP2 DUP7 GAS STATICCALL ISZERO DUP1 ISZERO PUSH2 0x1F9A JUMPI RETURNDATASIZE PUSH1 0x0 DUP1 RETURNDATACOPY RETURNDATASIZE PUSH1 0x0 REVERT JUMPDEST POP POP POP POP PUSH1 0x40 MLOAD RETURNDATASIZE PUSH1 0x1F NOT PUSH1 0x1F DUP3 ADD AND DUP3 ADD DUP1 PUSH1 0x40 MSTORE POP DUP2 ADD SWAP1 PUSH2 0x1FBE SWAP2 SWAP1 PUSH2 0x3C08 JUMP JUMPDEST SWAP1 POP PUSH1 0x0 PUSH1 0x1 PUSH1 0x1 PUSH1 0xA0 SHL SUB AND DUP2 PUSH1 0x1 PUSH1 0x1 PUSH1 0xA0 SHL SUB AND PUSH4 0xC5EC7874 PUSH1 0x40 MLOAD DUP2 PUSH4 0xFFFFFFFF AND PUSH1 0xE0 SHL DUP2 MSTORE PUSH1 0x4 ADD PUSH1 0x20 PUSH1 0x40 MLOAD DUP1 DUP4 SUB DUP2 DUP7 GAS STATICCALL ISZERO DUP1 ISZERO PUSH2 0x2009 JUMPI RETURNDATASIZE PUSH1 0x0 DUP1 RETURNDATACOPY RETURNDATASIZE PUSH1 0x0 REVERT JUMPDEST POP POP POP POP PUSH1 0x40 MLOAD RETURNDATASIZE PUSH1 0x1F NOT PUSH1 0x1F DUP3 ADD AND DUP3 ADD DUP1 PUSH1 0x40 MSTORE POP DUP2 ADD SWAP1 PUSH2 0x202D SWAP2 SWAP1 PUSH2 0x3C08 JUMP JUMPDEST PUSH1 0x1 PUSH1 0x1 PUSH1 0xA0 SHL SUB AND EQ ISZERO PUSH1 0x40 MLOAD DUP1 PUSH1 0x40 ADD PUSH1 0x40 MSTORE DUP1 PUSH1 0x11 DUP2 MSTORE PUSH1 0x20 ADD PUSH17 0x1859191C995CDCC81B9BDD08199BDD5B99 PUSH1 0x7A SHL DUP2 MSTORE POP SWAP1 PUSH2 0x2080 JUMPI PUSH1 0x40 MLOAD PUSH3 0x461BCD PUSH1 0xE5 SHL DUP2 MSTORE PUSH1 0x4 ADD PUSH2 0x5B9 SWAP2 SWAP1 PUSH2 0x3A7C JUMP JUMPDEST POP PUSH2 0x20B0 DUP9 DUP9 DUP5 DUP2 DUP2 LT PUSH2 0x2096 JUMPI PUSH2 0x2096 PUSH2 0x3BD9 JUMP JUMPDEST SWAP1 POP PUSH1 0x20 MUL ADD PUSH1 0x20 DUP2 ADD SWAP1 PUSH2 0x20AB SWAP2 SWAP1 PUSH2 0x38FC JUMP JUMPDEST PUSH2 0x32A3 JUMP JUMPDEST PUSH2 0x20F8 DUP9 DUP9 DUP5 DUP2 DUP2 LT PUSH2 0x20C5 JUMPI PUSH2 0x20C5 PUSH2 0x3BD9 JUMP JUMPDEST SWAP1 POP PUSH1 0x20 MUL ADD PUSH1 0x20 DUP2 ADD SWAP1 PUSH2 0x20DA SWAP2 SWAP1 PUSH2 0x38FC JUMP JUMPDEST DUP8 DUP8 DUP6 DUP2 DUP2 LT PUSH2 0x20EC JUMPI PUSH2 0x20EC PUSH2 0x3BD9 JUMP JUMPDEST SWAP1 POP PUSH1 0x20 MUL ADD CALLDATALOAD PUSH2 0x3434 JUMP JUMPDEST POP PUSH1 0x1 ADD PUSH2 0x1EF6 JUMP JUMPDEST PUSH1 0x0 DUP1 PUSH2 0xD71 PUSH1 0x7 DUP5 PUSH2 0x31A9 JUMP JUMPDEST PUSH32 0x0 PUSH1 0x40 MLOAD PUSH4 0x24745215 PUSH1 0xE2 SHL DUP2 MSTORE PUSH10 0x676F7665726E616E6365 PUSH1 0xB0 SHL PUSH1 0x4 DUP3 ADD MSTORE CALLER PUSH1 0x24 DUP3 ADD MSTORE PUSH1 0x1 PUSH1 0x1 PUSH1 0xA0 SHL SUB SWAP2 SWAP1 SWAP2 AND SWAP1 PUSH4 0x91D14854 SWAP1 PUSH1 0x44 ADD PUSH1 0x20 PUSH1 0x40 MLOAD DUP1 DUP4 SUB DUP2 DUP7 GAS STATICCALL ISZERO DUP1 ISZERO PUSH2 0x2189 JUMPI RETURNDATASIZE PUSH1 0x0 DUP1 RETURNDATACOPY RETURNDATASIZE PUSH1 0x0 REVERT JUMPDEST POP POP POP POP PUSH1 0x40 MLOAD RETURNDATASIZE PUSH1 0x1F NOT PUSH1 0x1F DUP3 ADD AND DUP3 ADD DUP1 PUSH1 0x40 MSTORE POP DUP2 ADD SWAP1 PUSH2 0x21AD SWAP2 SWAP1 PUSH2 0x3AD1 JUMP JUMPDEST PUSH1 0x40 MLOAD DUP1 PUSH1 0x40 ADD PUSH1 0x40 MSTORE DUP1 PUSH1 0x13 DUP2 MSTORE PUSH1 0x20 ADD PUSH1 0x0 DUP1 MLOAD PUSH1 0x20 PUSH2 0x3CE1 DUP4 CODECOPY DUP2 MLOAD SWAP2 MSTORE DUP2 MSTORE POP SWAP1 PUSH2 0x21EF JUMPI PUSH1 0x40 MLOAD PUSH3 0x461BCD PUSH1 0xE5 SHL DUP2 MSTORE PUSH1 0x4 ADD PUSH2 0x5B9 SWAP2 SWAP1 PUSH2 0x3A7C JUMP JUMPDEST POP PUSH2 0x19DE DUP2 PUSH2 0x2B6D JUMP JUMPDEST PUSH10 0x31B7B73A3937B63632B9 PUSH1 0xB1 SHL PUSH32 0x0 PUSH1 0x40 MLOAD PUSH4 0x24745215 PUSH1 0xE2 SHL DUP2 MSTORE PUSH1 0x4 DUP2 ADD DUP4 SWAP1 MSTORE CALLER PUSH1 0x24 DUP3 ADD MSTORE PUSH1 0x1 PUSH1 0x1 PUSH1 0xA0 SHL SUB SWAP2 SWAP1 SWAP2 AND SWAP1 PUSH4 0x91D14854 SWAP1 PUSH1 0x44 ADD PUSH1 0x20 PUSH1 0x40 MLOAD DUP1 DUP4 SUB DUP2 DUP7 GAS STATICCALL ISZERO DUP1 ISZERO PUSH2 0x2275 JUMPI RETURNDATASIZE PUSH1 0x0 DUP1 RETURNDATACOPY RETURNDATASIZE PUSH1 0x0 REVERT JUMPDEST POP POP POP POP PUSH1 0x40 MLOAD RETURNDATASIZE PUSH1 0x1F NOT PUSH1 0x1F DUP3 ADD AND DUP3 ADD DUP1 PUSH1 0x40 MSTORE POP DUP2 ADD SWAP1 PUSH2 0x2299 SWAP2 SWAP1 PUSH2 0x3AD1 JUMP JUMPDEST PUSH1 0x40 MLOAD DUP1 PUSH1 0x40 ADD PUSH1 0x40 MSTORE DUP1 PUSH1 0x13 DUP2 MSTORE PUSH1 0x20 ADD PUSH1 0x0 DUP1 MLOAD PUSH1 0x20 PUSH2 0x3CE1 DUP4 CODECOPY DUP2 MLOAD SWAP2 MSTORE DUP2 MSTORE POP SWAP1 PUSH2 0x22DB JUMPI PUSH1 0x40 MLOAD PUSH3 0x461BCD PUSH1 0xE5 SHL DUP2 MSTORE PUSH1 0x4 ADD PUSH2 0x5B9 SWAP2 SWAP1 PUSH2 0x3A7C JUMP JUMPDEST POP PUSH2 0x22E7 DUP3 PUSH1 0x0 PUSH2 0x3434 JUMP JUMPDEST POP POP JUMP JUMPDEST PUSH10 0x676F7665726E616E6365 PUSH1 0xB0 SHL PUSH15 0x34B7333630BA34B7B72FB0B236B4B7 PUSH1 0x89 SHL PUSH32 0x0 PUSH1 0x1 PUSH1 0x1 PUSH1 0xA0 SHL SUB AND PUSH4 0xD756A422 DUP4 DUP4 CALLER PUSH1 0x40 MLOAD DUP5 PUSH4 0xFFFFFFFF AND PUSH1 0xE0 SHL DUP2 MSTORE PUSH1 0x4 ADD PUSH2 0x235C SWAP4 SWAP3 SWAP2 SWAP1 PUSH2 0x3C7C JUMP JUMPDEST PUSH1 0x20 PUSH1 0x40 MLOAD DUP1 DUP4 SUB DUP2 DUP7 GAS STATICCALL ISZERO DUP1 ISZERO PUSH2 0x2379 JUMPI RETURNDATASIZE PUSH1 0x0 DUP1 RETURNDATACOPY RETURNDATASIZE PUSH1 0x0 REVERT JUMPDEST POP POP POP POP PUSH1 0x40 MLOAD RETURNDATASIZE PUSH1 0x1F NOT PUSH1 0x1F DUP3 ADD AND DUP3 ADD DUP1 PUSH1 0x40 MSTORE POP DUP2 ADD SWAP1 PUSH2 0x239D SWAP2 SWAP1 PUSH2 0x3AD1 JUMP JUMPDEST PUSH1 0x40 MLOAD DUP1 PUSH1 0x40 ADD PUSH1 0x40 MSTORE DUP1 PUSH1 0x13 DUP2 MSTORE PUSH1 0x20 ADD PUSH1 0x0 DUP1 MLOAD PUSH1 0x20 PUSH2 0x3CE1 DUP4 CODECOPY DUP2 MLOAD SWAP2 MSTORE DUP2 MSTORE POP SWAP1 PUSH2 0x23DF JUMPI PUSH1 0x40 MLOAD PUSH3 0x461BCD PUSH1 0xE5 SHL DUP2 MSTORE PUSH1 0x4 ADD PUSH2 0x5B9 SWAP2 SWAP1 PUSH2 0x3A7C JUMP JUMPDEST POP PUSH1 0x40 MLOAD PUSH4 0x59EADEB PUSH1 0xE4 SHL DUP2 MSTORE PUSH1 0x1 PUSH1 0x1 PUSH1 0xA0 SHL SUB DUP6 DUP2 AND PUSH1 0x4 DUP4 ADD MSTORE PUSH1 0x0 SWAP2 PUSH32 0x0 SWAP1 SWAP2 AND SWAP1 PUSH4 0x59EADEB0 SWAP1 PUSH1 0x24 ADD PUSH1 0x20 PUSH1 0x40 MLOAD DUP1 DUP4 SUB DUP2 DUP7 GAS STATICCALL ISZERO DUP1 ISZERO PUSH2 0x244B JUMPI RETURNDATASIZE PUSH1 0x0 DUP1 RETURNDATACOPY RETURNDATASIZE PUSH1 0x0 REVERT JUMPDEST POP POP POP POP PUSH1 0x40 MLOAD RETURNDATASIZE PUSH1 0x1F NOT PUSH1 0x1F DUP3 ADD AND DUP3 ADD DUP1 PUSH1 0x40 MSTORE POP DUP2 ADD SWAP1 PUSH2 0x246F SWAP2 SWAP1 PUSH2 0x3C08 JUMP JUMPDEST SWAP1 POP PUSH1 0xD PUSH1 0x0 DUP3 PUSH1 0x1 PUSH1 0x1 PUSH1 0xA0 SHL SUB AND PUSH4 0xC5EC7874 PUSH1 0x40 MLOAD DUP2 PUSH4 0xFFFFFFFF AND PUSH1 0xE0 SHL DUP2 MSTORE PUSH1 0x4 ADD PUSH1 0x20 PUSH1 0x40 MLOAD DUP1 DUP4 SUB DUP2 DUP7 GAS STATICCALL ISZERO DUP1 ISZERO PUSH2 0x24B3 JUMPI RETURNDATASIZE PUSH1 0x0 DUP1 RETURNDATACOPY RETURNDATASIZE PUSH1 0x0 REVERT JUMPDEST POP POP POP POP PUSH1 0x40 MLOAD RETURNDATASIZE PUSH1 0x1F NOT PUSH1 0x1F DUP3 ADD AND DUP3 ADD DUP1 PUSH1 0x40 MSTORE POP DUP2 ADD SWAP1 PUSH2 0x24D7 SWAP2 SWAP1 PUSH2 0x3C08 JUMP JUMPDEST PUSH1 0x1 PUSH1 0x1 PUSH1 0xA0 SHL SUB AND DUP2 MSTORE PUSH1 0x20 DUP1 DUP3 ADD SWAP3 SWAP1 SWAP3 MSTORE PUSH1 0x40 SWAP1 DUP2 ADD PUSH1 0x0 KECCAK256 SLOAD DUP2 MLOAD DUP1 DUP4 ADD SWAP1 SWAP3 MSTORE PUSH1 0x14 DUP3 MSTORE PUSH20 0x11D85D59D948191BD95CC81B9BDD08195E1A5CDD PUSH1 0x62 SHL SWAP3 DUP3 ADD SWAP3 SWAP1 SWAP3 MSTORE SWAP1 PUSH1 0xFF AND PUSH2 0x2540 JUMPI PUSH1 0x40 MLOAD PUSH3 0x461BCD PUSH1 0xE5 SHL DUP2 MSTORE PUSH1 0x4 ADD PUSH2 0x5B9 SWAP2 SWAP1 PUSH2 0x3A7C JUMP JUMPDEST POP PUSH1 0x0 PUSH1 0x1 PUSH1 0x1 PUSH1 0xA0 SHL SUB AND DUP2 PUSH1 0x1 PUSH1 0x1 PUSH1 0xA0 SHL SUB AND PUSH4 0xC5EC7874 PUSH1 0x40 MLOAD DUP2 PUSH4 0xFFFFFFFF AND PUSH1 0xE0 SHL DUP2 MSTORE PUSH1 0x4 ADD PUSH1 0x20 PUSH1 0x40 MLOAD DUP1 DUP4 SUB DUP2 DUP7 GAS STATICCALL ISZERO DUP1 ISZERO PUSH2 0x258A JUMPI RETURNDATASIZE PUSH1 0x0 DUP1 RETURNDATACOPY RETURNDATASIZE PUSH1 0x0 REVERT JUMPDEST POP POP POP POP PUSH1 0x40 MLOAD RETURNDATASIZE PUSH1 0x1F NOT PUSH1 0x1F DUP3 ADD AND DUP3 ADD DUP1 PUSH1 0x40 MSTORE POP DUP2 ADD SWAP1 PUSH2 0x25AE SWAP2 SWAP1 PUSH2 0x3C08 JUMP JUMPDEST PUSH1 0x1 PUSH1 0x1 PUSH1 0xA0 SHL SUB AND EQ ISZERO PUSH1 0x40 MLOAD DUP1 PUSH1 0x40 ADD PUSH1 0x40 MSTORE DUP1 PUSH1 0x11 DUP2 MSTORE PUSH1 0x20 ADD PUSH17 0x1859191C995CDCC81B9BDD08199BDD5B99 PUSH1 0x7A SHL DUP2 MSTORE POP SWAP1 PUSH2 0x2601 JUMPI PUSH1 0x40 MLOAD PUSH3 0x461BCD PUSH1 0xE5 SHL DUP2 MSTORE PUSH1 0x4 ADD PUSH2 0x5B9 SWAP2 SWAP1 PUSH2 0x3A7C JUMP JUMPDEST POP PUSH2 0x260B DUP6 PUSH2 0x32A3 JUMP JUMPDEST PUSH2 0x195E DUP6 DUP6 PUSH2 0x3434 JUMP JUMPDEST PUSH32 0x0 PUSH1 0x40 MLOAD PUSH4 0x24745215 PUSH1 0xE2 SHL DUP2 MSTORE PUSH10 0x676F7665726E616E6365 PUSH1 0xB0 SHL PUSH1 0x4 DUP3 ADD MSTORE CALLER PUSH1 0x24 DUP3 ADD MSTORE PUSH1 0x1 PUSH1 0x1 PUSH1 0xA0 SHL SUB SWAP2 SWAP1 SWAP2 AND SWAP1 PUSH4 0x91D14854 SWAP1 PUSH1 0x44 ADD PUSH1 0x20 PUSH1 0x40 MLOAD DUP1 DUP4 SUB DUP2 DUP7 GAS STATICCALL ISZERO DUP1 ISZERO PUSH2 0x268F JUMPI RETURNDATASIZE PUSH1 0x0 DUP1 RETURNDATACOPY RETURNDATASIZE PUSH1 0x0 REVERT JUMPDEST POP POP POP POP PUSH1 0x40 MLOAD RETURNDATASIZE PUSH1 0x1F NOT PUSH1 0x1F DUP3 ADD AND DUP3 ADD DUP1 PUSH1 0x40 MSTORE POP DUP2 ADD SWAP1 PUSH2 0x26B3 SWAP2 SWAP1 PUSH2 0x3AD1 JUMP JUMPDEST PUSH1 0x40 MLOAD DUP1 PUSH1 0x40 ADD PUSH1 0x40 MSTORE DUP1 PUSH1 0x13 DUP2 MSTORE PUSH1 0x20 ADD PUSH1 0x0 DUP1 MLOAD PUSH1 0x20 PUSH2 0x3CE1 DUP4 CODECOPY DUP2 MLOAD SWAP2 MSTORE DUP2 MSTORE POP SWAP1 PUSH2 0x26F5 JUMPI PUSH1 0x40 MLOAD PUSH3 0x461BCD PUSH1 0xE5 SHL DUP2 MSTORE PUSH1 0x4 ADD PUSH2 0x5B9 SWAP2 SWAP1 PUSH2 0x3A7C JUMP JUMPDEST POP PUSH1 0x3 SLOAD PUSH1 0x40 DUP1 MLOAD DUP1 DUP3 ADD SWAP1 SWAP2 MSTORE PUSH1 0x16 DUP2 MSTORE PUSH22 0x1059191C995CDCC81A5CC8185B1C9958591E481CD95D PUSH1 0x52 SHL PUSH1 0x20 DUP3 ADD MSTORE SWAP1 PUSH1 0x1 PUSH1 0x1 PUSH1 0xA0 SHL SUB AND ISZERO PUSH2 0x274E JUMPI PUSH1 0x40 MLOAD PUSH3 0x461BCD PUSH1 0xE5 SHL DUP2 MSTORE PUSH1 0x4 ADD PUSH2 0x5B9 SWAP2 SWAP1 PUSH2 0x3A7C JUMP JUMPDEST POP PUSH1 0x0 PUSH1 0x1 PUSH1 0x1 PUSH1 0xA0 SHL SUB AND DUP2 PUSH1 0x1 PUSH1 0x1 PUSH1 0xA0 SHL SUB AND EQ ISZERO PUSH1 0x40 MLOAD DUP1 PUSH1 0x80 ADD PUSH1 0x40 MSTORE DUP1 PUSH1 0x44 DUP2 MSTORE PUSH1 0x20 ADD PUSH2 0x3D01 PUSH1 0x44 SWAP2 CODECOPY SWAP1 PUSH2 0x279D JUMPI PUSH1 0x40 MLOAD PUSH3 0x461BCD PUSH1 0xE5 SHL DUP2 MSTORE PUSH1 0x4 ADD PUSH2 0x5B9 SWAP2 SWAP1 PUSH2 0x3A7C JUMP JUMPDEST POP PUSH1 0x3 DUP1 SLOAD PUSH1 0x1 PUSH1 0x1 PUSH1 0xA0 SHL SUB NOT AND PUSH1 0x1 PUSH1 0x1 PUSH1 0xA0 SHL SUB SWAP3 SWAP1 SWAP3 AND SWAP2 SWAP1 SWAP2 OR SWAP1 SSTORE JUMP JUMPDEST PUSH1 0x0 PUSH32 0x0 PUSH1 0x40 MLOAD PUSH4 0x24745215 PUSH1 0xE2 SHL DUP2 MSTORE PUSH10 0x676F7665726E616E6365 PUSH1 0xB0 SHL PUSH1 0x4 DUP3 ADD MSTORE CALLER PUSH1 0x24 DUP3 ADD MSTORE PUSH1 0x1 PUSH1 0x1 PUSH1 0xA0 SHL SUB SWAP2 SWAP1 SWAP2 AND SWAP1 PUSH4 0x91D14854 SWAP1 PUSH1 0x44 ADD PUSH1 0x20 PUSH1 0x40 MLOAD DUP1 DUP4 SUB DUP2 DUP7 GAS STATICCALL ISZERO DUP1 ISZERO PUSH2 0x283C JUMPI RETURNDATASIZE PUSH1 0x0 DUP1 RETURNDATACOPY RETURNDATASIZE PUSH1 0x0 REVERT JUMPDEST POP POP POP POP PUSH1 0x40 MLOAD RETURNDATASIZE PUSH1 0x1F NOT PUSH1 0x1F DUP3 ADD AND DUP3 ADD DUP1 PUSH1 0x40 MSTORE POP DUP2 ADD SWAP1 PUSH2 0x2860 SWAP2 SWAP1 PUSH2 0x3AD1 JUMP JUMPDEST PUSH1 0x40 MLOAD DUP1 PUSH1 0x40 ADD PUSH1 0x40 MSTORE DUP1 PUSH1 0x13 DUP2 MSTORE PUSH1 0x20 ADD PUSH1 0x0 DUP1 MLOAD PUSH1 0x20 PUSH2 0x3CE1 DUP4 CODECOPY DUP2 MLOAD SWAP2 MSTORE DUP2 MSTORE POP SWAP1 PUSH2 0x28A2 JUMPI PUSH1 0x40 MLOAD PUSH3 0x461BCD PUSH1 0xE5 SHL DUP2 MSTORE PUSH1 0x4 ADD PUSH2 0x5B9 SWAP2 SWAP1 PUSH2 0x3A7C JUMP JUMPDEST POP PUSH2 0x28AE PUSH1 0xA DUP4 PUSH2 0x2F63 JUMP JUMPDEST PUSH2 0x28BA JUMPI POP PUSH1 0x0 SWAP2 SWAP1 POP JUMP JUMPDEST PUSH1 0x0 PUSH2 0x28C7 PUSH1 0xA DUP5 PUSH2 0x31D0 JUMP JUMPDEST SWAP1 POP PUSH2 0x28D4 DUP4 PUSH1 0x0 PUSH2 0x3097 JUMP JUMPDEST DUP1 PUSH1 0x1 PUSH1 0x1 PUSH1 0xA0 SHL SUB AND PUSH4 0x41C0E1B5 PUSH1 0x40 MLOAD DUP2 PUSH4 0xFFFFFFFF AND PUSH1 0xE0 SHL DUP2 MSTORE PUSH1 0x4 ADD PUSH1 0x0 PUSH1 0x40 MLOAD DUP1 DUP4 SUB DUP2 PUSH1 0x0 DUP8 DUP1 EXTCODESIZE ISZERO DUP1 ISZERO PUSH2 0x290F JUMPI PUSH1 0x0 DUP1 REVERT JUMPDEST POP GAS CALL ISZERO DUP1 ISZERO PUSH2 0x2923 JUMPI RETURNDATASIZE PUSH1 0x0 DUP1 RETURNDATACOPY RETURNDATASIZE PUSH1 0x0 REVERT JUMPDEST POP POP POP POP PUSH2 0x293B DUP4 PUSH1 0xA PUSH2 0x35D2 SWAP1 SWAP2 SWAP1 PUSH4 0xFFFFFFFF AND JUMP JUMPDEST POP DUP1 PUSH1 0x1 PUSH1 0x1 PUSH1 0xA0 SHL SUB AND DUP4 PUSH1 0x1 PUSH1 0x1 PUSH1 0xA0 SHL SUB AND PUSH32 0xCC16C499CAEB153BA6505515FBA6EE59E03AE0B2D58E71B0BF2F5D6C1EDCE18A PUSH1 0x40 MLOAD PUSH1 0x40 MLOAD DUP1 SWAP2 SUB SWAP1 LOG3 PUSH1 0x1 SWAP2 POP POP JUMPDEST SWAP2 SWAP1 POP JUMP JUMPDEST PUSH10 0x676F7665726E616E6365 PUSH1 0xB0 SHL PUSH15 0x34B7333630BA34B7B72FB0B236B4B7 PUSH1 0x89 SHL PUSH32 0x0 PUSH1 0x1 PUSH1 0x1 PUSH1 0xA0 SHL SUB AND PUSH4 0xD756A422 DUP4 DUP4 CALLER PUSH1 0x40 MLOAD DUP5 PUSH4 0xFFFFFFFF AND PUSH1 0xE0 SHL DUP2 MSTORE PUSH1 0x4 ADD PUSH2 0x29F8 SWAP4 SWAP3 SWAP2 SWAP1 PUSH2 0x3C7C JUMP JUMPDEST PUSH1 0x20 PUSH1 0x40 MLOAD DUP1 DUP4 SUB DUP2 DUP7 GAS STATICCALL ISZERO DUP1 ISZERO PUSH2 0x2A15 JUMPI RETURNDATASIZE PUSH1 0x0 DUP1 RETURNDATACOPY RETURNDATASIZE PUSH1 0x0 REVERT JUMPDEST POP POP POP POP PUSH1 0x40 MLOAD RETURNDATASIZE PUSH1 0x1F NOT PUSH1 0x1F DUP3 ADD AND DUP3 ADD DUP1 PUSH1 0x40 MSTORE POP DUP2 ADD SWAP1 PUSH2 0x2A39 SWAP2 SWAP1 PUSH2 0x3AD1 JUMP JUMPDEST PUSH1 0x40 MLOAD DUP1 PUSH1 0x40 ADD PUSH1 0x40 MSTORE DUP1 PUSH1 0x13 DUP2 MSTORE PUSH1 0x20 ADD PUSH1 0x0 DUP1 MLOAD PUSH1 0x20 PUSH2 0x3CE1 DUP4 CODECOPY DUP2 MLOAD SWAP2 MSTORE DUP2 MSTORE POP SWAP1 PUSH2 0x2A7B JUMPI PUSH1 0x40 MLOAD PUSH3 0x461BCD PUSH1 0xE5 SHL DUP2 MSTORE PUSH1 0x4 ADD PUSH2 0x5B9 SWAP2 SWAP1 PUSH2 0x3A7C JUMP JUMPDEST POP PUSH2 0x2A87 PUSH1 0xA DUP6 PUSH2 0x2F63 JUMP JUMPDEST PUSH2 0x2AC9 JUMPI PUSH1 0x40 MLOAD PUSH3 0x461BCD PUSH1 0xE5 SHL DUP2 MSTORE PUSH1 0x20 PUSH1 0x4 DUP3 ADD MSTORE PUSH1 0x13 PUSH1 0x24 DUP3 ADD MSTORE PUSH19 0x185B5B4819D85D59D9481B9BDD08199BDD5B99 PUSH1 0x6A SHL PUSH1 0x44 DUP3 ADD MSTORE PUSH1 0x64 ADD PUSH2 0x5B9 JUMP JUMPDEST PUSH2 0x826 DUP5 DUP5 PUSH2 0x3097 JUMP JUMPDEST PUSH1 0x40 MLOAD PUSH4 0x21F8A721 PUSH1 0xE0 SHL DUP2 MSTORE PUSH11 0x3937B632A6B0B730B3B2B9 PUSH1 0xA9 SHL PUSH1 0x4 DUP3 ADD MSTORE PUSH1 0x0 SWAP1 PUSH1 0x1 PUSH1 0x1 PUSH1 0xA0 SHL SUB DUP4 AND SWAP1 PUSH4 0x21F8A721 SWAP1 PUSH1 0x24 ADD PUSH1 0x20 PUSH1 0x40 MLOAD DUP1 DUP4 SUB DUP2 DUP7 GAS STATICCALL ISZERO DUP1 ISZERO PUSH2 0x2B28 JUMPI RETURNDATASIZE PUSH1 0x0 DUP1 RETURNDATACOPY RETURNDATASIZE PUSH1 0x0 REVERT JUMPDEST POP POP POP POP PUSH1 0x40 MLOAD RETURNDATASIZE PUSH1 0x1F NOT PUSH1 0x1F DUP3 ADD AND DUP3 ADD DUP1 PUSH1 0x40 MSTORE POP DUP2 ADD SWAP1 PUSH2 0x181E SWAP2 SWAP1 PUSH2 0x3C08 JUMP JUMPDEST PUSH1 0x0 PUSH2 0x181E DUP3 PUSH2 0x35E7 JUMP JUMPDEST PUSH1 0x0 DUP1 PUSH2 0x2B64 DUP5 DUP5 PUSH2 0x35F2 JUMP JUMPDEST SWAP6 SWAP5 POP POP POP POP POP JUMP JUMPDEST PUSH2 0x2B78 PUSH1 0x7 DUP3 PUSH2 0x2F63 JUMP JUMPDEST PUSH2 0x2B7F JUMPI POP JUMP JUMPDEST PUSH1 0x0 PUSH2 0x2B8C PUSH1 0x7 DUP4 PUSH2 0x31D0 JUMP JUMPDEST SWAP1 POP PUSH1 0x0 PUSH32 0x0 PUSH1 0x1 PUSH1 0x1 PUSH1 0xA0 SHL SUB AND PUSH4 0xC5C63E65 PUSH1 0x40 MLOAD DUP2 PUSH4 0xFFFFFFFF AND PUSH1 0xE0 SHL DUP2 MSTORE PUSH1 0x4 ADD PUSH1 0x0 PUSH1 0x40 MLOAD DUP1 DUP4 SUB DUP2 DUP7 GAS STATICCALL ISZERO DUP1 ISZERO PUSH2 0x2BEE JUMPI RETURNDATASIZE PUSH1 0x0 DUP1 RETURNDATACOPY RETURNDATASIZE PUSH1 0x0 REVERT JUMPDEST POP POP POP POP PUSH1 0x40 MLOAD RETURNDATASIZE PUSH1 0x0 DUP3 RETURNDATACOPY PUSH1 0x1F RETURNDATASIZE SWAP1 DUP2 ADD PUSH1 0x1F NOT AND DUP3 ADD PUSH1 0x40 MSTORE PUSH2 0x2C16 SWAP2 SWAP1 DUP2 ADD SWAP1 PUSH2 0x3B14 JUMP JUMPDEST SWAP1 POP PUSH1 0x0 PUSH32 0x0 PUSH1 0x1 PUSH1 0x1 PUSH1 0xA0 SHL SUB AND PUSH4 0x5D138A34 PUSH1 0x40 MLOAD DUP2 PUSH4 0xFFFFFFFF AND PUSH1 0xE0 SHL DUP2 MSTORE PUSH1 0x4 ADD PUSH1 0x0 PUSH1 0x40 MLOAD DUP1 DUP4 SUB DUP2 DUP7 GAS STATICCALL ISZERO DUP1 ISZERO PUSH2 0x2C78 JUMPI RETURNDATASIZE PUSH1 0x0 DUP1 RETURNDATACOPY RETURNDATASIZE PUSH1 0x0 REVERT JUMPDEST POP POP POP POP PUSH1 0x40 MLOAD RETURNDATASIZE PUSH1 0x0 DUP3 RETURNDATACOPY PUSH1 0x1F RETURNDATASIZE SWAP1 DUP2 ADD PUSH1 0x1F NOT AND DUP3 ADD PUSH1 0x40 MSTORE PUSH2 0x2CA0 SWAP2 SWAP1 DUP2 ADD SWAP1 PUSH2 0x3B14 JUMP JUMPDEST SWAP1 POP PUSH1 0x0 JUMPDEST DUP3 MLOAD DUP2 LT ISZERO PUSH2 0x2EBA JUMPI PUSH1 0x0 DUP4 DUP3 DUP2 MLOAD DUP2 LT PUSH2 0x2CC2 JUMPI PUSH2 0x2CC2 PUSH2 0x3BD9 JUMP JUMPDEST PUSH1 0x20 MUL PUSH1 0x20 ADD ADD MLOAD SWAP1 POP PUSH1 0x0 DUP2 PUSH1 0x1 PUSH1 0x1 PUSH1 0xA0 SHL SUB AND PUSH4 0x8214F5A4 PUSH1 0x40 MLOAD DUP2 PUSH4 0xFFFFFFFF AND PUSH1 0xE0 SHL DUP2 MSTORE PUSH1 0x4 ADD PUSH1 0x20 PUSH1 0x40 MLOAD DUP1 DUP4 SUB DUP2 DUP7 GAS STATICCALL ISZERO DUP1 ISZERO PUSH2 0x2D0C JUMPI RETURNDATASIZE PUSH1 0x0 DUP1 RETURNDATACOPY RETURNDATASIZE PUSH1 0x0 REVERT JUMPDEST POP POP POP POP PUSH1 0x40 MLOAD RETURNDATASIZE PUSH1 0x1F NOT PUSH1 0x1F DUP3 ADD AND DUP3 ADD DUP1 PUSH1 0x40 MSTORE POP DUP2 ADD SWAP1 PUSH2 0x2D30 SWAP2 SWAP1 PUSH2 0x3C08 JUMP JUMPDEST SWAP1 POP PUSH1 0x0 JUMPDEST DUP5 MLOAD DUP2 LT ISZERO PUSH2 0x2EA6 JUMPI PUSH1 0x0 DUP6 DUP3 DUP2 MLOAD DUP2 LT PUSH2 0x2D52 JUMPI PUSH2 0x2D52 PUSH2 0x3BD9 JUMP JUMPDEST PUSH1 0x20 MUL PUSH1 0x20 ADD ADD MLOAD SWAP1 POP PUSH1 0x0 DUP2 PUSH1 0x1 PUSH1 0x1 PUSH1 0xA0 SHL SUB AND PUSH4 0x3C93ADEE PUSH1 0x40 MLOAD DUP2 PUSH4 0xFFFFFFFF AND PUSH1 0xE0 SHL DUP2 MSTORE PUSH1 0x4 ADD PUSH1 0x20 PUSH1 0x40 MLOAD DUP1 DUP4 SUB DUP2 DUP7 GAS STATICCALL ISZERO DUP1 ISZERO PUSH2 0x2D9C JUMPI RETURNDATASIZE PUSH1 0x0 DUP1 RETURNDATACOPY RETURNDATASIZE PUSH1 0x0 REVERT JUMPDEST POP POP POP POP PUSH1 0x40 MLOAD RETURNDATASIZE PUSH1 0x1F NOT PUSH1 0x1F DUP3 ADD AND DUP3 ADD DUP1 PUSH1 0x40 MSTORE POP DUP2 ADD SWAP1 PUSH2 0x2DC0 SWAP2 SWAP1 PUSH2 0x3C08 JUMP JUMPDEST PUSH1 0x40 MLOAD PUSH4 0x243DB383 PUSH1 0xE2 SHL DUP2 MSTORE PUSH1 0x1 PUSH1 0x1 PUSH1 0xA0 SHL SUB DUP7 DUP2 AND PUSH1 0x4 DUP4 ADD MSTORE SWAP2 SWAP3 POP PUSH1 0x0 SWAP2 DUP4 AND SWAP1 PUSH4 0x90F6CE0C SWAP1 PUSH1 0x24 ADD PUSH1 0x20 PUSH1 0x40 MLOAD DUP1 DUP4 SUB DUP2 DUP7 GAS STATICCALL ISZERO DUP1 ISZERO PUSH2 0x2E0C JUMPI RETURNDATASIZE PUSH1 0x0 DUP1 RETURNDATACOPY RETURNDATASIZE PUSH1 0x0 REVERT JUMPDEST POP POP POP POP PUSH1 0x40 MLOAD RETURNDATASIZE PUSH1 0x1F NOT PUSH1 0x1F DUP3 ADD AND DUP3 ADD DUP1 PUSH1 0x40 MSTORE POP DUP2 ADD SWAP1 PUSH2 0x2E30 SWAP2 SWAP1 PUSH2 0x3C08 JUMP JUMPDEST SWAP1 POP DUP10 PUSH1 0x1 PUSH1 0x1 PUSH1 0xA0 SHL SUB AND DUP2 PUSH1 0x1 PUSH1 0x1 PUSH1 0xA0 SHL SUB AND EQ ISZERO PUSH1 0x40 MLOAD DUP1 PUSH1 0x40 ADD PUSH1 0x40 MSTORE DUP1 PUSH1 0x12 DUP2 MSTORE PUSH1 0x20 ADD PUSH18 0x4761756765207374696C6C20616374697665 PUSH1 0x70 SHL DUP2 MSTORE POP SWAP1 PUSH2 0x2E91 JUMPI PUSH1 0x40 MLOAD PUSH3 0x461BCD PUSH1 0xE5 SHL DUP2 MSTORE PUSH1 0x4 ADD PUSH2 0x5B9 SWAP2 SWAP1 PUSH2 0x3A7C JUMP JUMPDEST POP POP POP POP PUSH2 0x2E9F DUP2 PUSH1 0x1 ADD SWAP1 JUMP JUMPDEST SWAP1 POP PUSH2 0x2D35 JUMP JUMPDEST POP POP POP PUSH2 0x2EB3 DUP2 PUSH1 0x1 ADD SWAP1 JUMP JUMPDEST SWAP1 POP PUSH2 0x2CA5 JUMP JUMPDEST POP PUSH2 0x2EC6 DUP5 PUSH1 0x0 PUSH2 0x2F7F JUMP JUMPDEST PUSH2 0x2ED1 PUSH1 0x7 DUP6 PUSH2 0x35D2 JUMP JUMPDEST POP DUP3 PUSH1 0x1 PUSH1 0x1 PUSH1 0xA0 SHL SUB AND PUSH4 0x41C0E1B5 PUSH1 0x40 MLOAD DUP2 PUSH4 0xFFFFFFFF AND PUSH1 0xE0 SHL DUP2 MSTORE PUSH1 0x4 ADD PUSH1 0x0 PUSH1 0x40 MLOAD DUP1 DUP4 SUB DUP2 PUSH1 0x0 DUP8 DUP1 EXTCODESIZE ISZERO DUP1 ISZERO PUSH2 0x2F0D JUMPI PUSH1 0x0 DUP1 REVERT JUMPDEST POP GAS CALL ISZERO DUP1 ISZERO PUSH2 0x2F21 JUMPI RETURNDATASIZE PUSH1 0x0 DUP1 RETURNDATACOPY RETURNDATASIZE PUSH1 0x0 REVERT JUMPDEST POP POP PUSH1 0x40 MLOAD PUSH1 0x1 PUSH1 0x1 PUSH1 0xA0 SHL SUB DUP1 DUP8 AND SWAP4 POP DUP8 AND SWAP2 POP PUSH32 0x17F0F96AE429677EA4738E76673566DB1BD65621496EEE49C94173E289E24DC8 SWAP1 PUSH1 0x0 SWAP1 LOG3 POP POP POP POP JUMP JUMPDEST PUSH1 0x0 PUSH2 0x2F78 DUP4 PUSH1 0x1 PUSH1 0x1 PUSH1 0xA0 SHL SUB DUP5 AND PUSH2 0x3601 JUMP JUMPDEST SWAP4 SWAP3 POP POP POP JUMP JUMPDEST PUSH1 0x0 PUSH2 0x2F8B PUSH1 0x7 PUSH2 0x2B4C JUMP JUMPDEST SWAP1 POP PUSH1 0x0 JUMPDEST DUP2 DUP2 LT ISZERO PUSH2 0x300F JUMPI PUSH2 0x2FA3 PUSH1 0x7 DUP3 PUSH2 0x2B57 JUMP JUMPDEST PUSH1 0x1 PUSH1 0x1 PUSH1 0xA0 SHL SUB AND PUSH4 0x5790A0C8 PUSH1 0x40 MLOAD DUP2 PUSH4 0xFFFFFFFF AND PUSH1 0xE0 SHL DUP2 MSTORE PUSH1 0x4 ADD PUSH1 0x20 PUSH1 0x40 MLOAD DUP1 DUP4 SUB DUP2 PUSH1 0x0 DUP8 GAS CALL ISZERO DUP1 ISZERO PUSH2 0x2FE2 JUMPI RETURNDATASIZE PUSH1 0x0 DUP1 RETURNDATACOPY RETURNDATASIZE PUSH1 0x0 REVERT JUMPDEST POP POP POP POP PUSH1 0x40 MLOAD RETURNDATASIZE PUSH1 0x1F NOT PUSH1 0x1F DUP3 ADD AND DUP3 ADD DUP1 PUSH1 0x40 MSTORE POP DUP2 ADD SWAP1 PUSH2 0x3006 SWAP2 SWAP1 PUSH2 0x3AD1 JUMP JUMPDEST POP PUSH1 0x1 ADD PUSH2 0x2F90 JUMP JUMPDEST POP PUSH1 0x1 PUSH1 0x1 PUSH1 0xA0 SHL SUB DUP4 AND PUSH1 0x0 SWAP1 DUP2 MSTORE PUSH1 0x20 DUP2 SWAP1 MSTORE PUSH1 0x40 SWAP1 KECCAK256 SLOAD PUSH1 0x4 SLOAD DUP4 SWAP2 PUSH2 0x3037 SWAP2 PUSH2 0x3C9B JUMP JUMPDEST PUSH2 0x3041 SWAP2 SWAP1 PUSH2 0x3CB2 JUMP JUMPDEST PUSH1 0x4 SSTORE PUSH1 0x1 PUSH1 0x1 PUSH1 0xA0 SHL SUB DUP4 AND PUSH1 0x0 DUP2 DUP2 MSTORE PUSH1 0x20 DUP2 DUP2 MSTORE PUSH1 0x40 SWAP2 DUP3 SWAP1 KECCAK256 DUP6 SWAP1 SSTORE SWAP1 MLOAD DUP5 DUP2 MSTORE PUSH32 0xD4087C97381173C70BCC96DA898724A384DE03E9B747EEFE531406B538BABEAC SWAP2 ADD JUMPDEST PUSH1 0x40 MLOAD DUP1 SWAP2 SUB SWAP1 LOG2 POP POP POP JUMP JUMPDEST PUSH1 0x0 PUSH2 0x30A3 PUSH1 0xA PUSH2 0x2B4C JUMP JUMPDEST SWAP1 POP PUSH1 0x0 JUMPDEST DUP2 DUP2 LT ISZERO PUSH2 0x3127 JUMPI PUSH2 0x30BB PUSH1 0xA DUP3 PUSH2 0x2B57 JUMP JUMPDEST PUSH1 0x1 PUSH1 0x1 PUSH1 0xA0 SHL SUB AND PUSH4 0x5790A0C8 PUSH1 0x40 MLOAD DUP2 PUSH4 0xFFFFFFFF AND PUSH1 0xE0 SHL DUP2 MSTORE PUSH1 0x4 ADD PUSH1 0x20 PUSH1 0x40 MLOAD DUP1 DUP4 SUB DUP2 PUSH1 0x0 DUP8 GAS CALL ISZERO DUP1 ISZERO PUSH2 0x30FA JUMPI RETURNDATASIZE PUSH1 0x0 DUP1 RETURNDATACOPY RETURNDATASIZE PUSH1 0x0 REVERT JUMPDEST POP POP POP POP PUSH1 0x40 MLOAD RETURNDATASIZE PUSH1 0x1F NOT PUSH1 0x1F DUP3 ADD AND DUP3 ADD DUP1 PUSH1 0x40 MSTORE POP DUP2 ADD SWAP1 PUSH2 0x311E SWAP2 SWAP1 PUSH2 0x3AD1 JUMP JUMPDEST POP PUSH1 0x1 ADD PUSH2 0x30A8 JUMP JUMPDEST POP PUSH1 0x1 PUSH1 0x1 PUSH1 0xA0 SHL SUB DUP4 AND PUSH1 0x0 SWAP1 DUP2 MSTORE PUSH1 0x2 PUSH1 0x20 MSTORE PUSH1 0x40 SWAP1 KECCAK256 SLOAD PUSH1 0x6 SLOAD DUP4 SWAP2 PUSH2 0x314F SWAP2 PUSH2 0x3C9B JUMP JUMPDEST PUSH2 0x3159 SWAP2 SWAP1 PUSH2 0x3CB2 JUMP JUMPDEST PUSH1 0x6 SSTORE PUSH1 0x1 PUSH1 0x1 PUSH1 0xA0 SHL SUB DUP4 AND PUSH1 0x0 DUP2 DUP2 MSTORE PUSH1 0x2 PUSH1 0x20 MSTORE PUSH1 0x40 SWAP1 DUP2 SWAP1 KECCAK256 DUP5 SWAP1 SSTORE MLOAD PUSH32 0xAE184FBF7BFB224F97D6249D7FA54401F07985F32C0DC355869F2268EF3211F5 SWAP1 PUSH2 0x308A SWAP1 DUP6 DUP2 MSTORE PUSH1 0x20 ADD SWAP1 JUMP JUMPDEST PUSH1 0x0 DUP1 DUP1 DUP1 PUSH2 0x31C1 DUP7 PUSH1 0x1 PUSH1 0x1 PUSH1 0xA0 SHL SUB DUP8 AND PUSH2 0x360D JUMP JUMPDEST SWAP1 SWAP5 POP SWAP3 POP POP POP JUMPDEST SWAP3 POP SWAP3 SWAP1 POP JUMP JUMPDEST PUSH1 0x0 PUSH2 0x2F78 DUP4 PUSH1 0x1 PUSH1 0x1 PUSH1 0xA0 SHL SUB DUP5 AND PUSH2 0x3647 JUMP JUMPDEST PUSH1 0x0 PUSH2 0xD71 DUP5 PUSH1 0x1 PUSH1 0x1 PUSH1 0xA0 SHL SUB DUP1 DUP7 AND SWAP1 DUP6 AND PUSH2 0x36B7 JUMP JUMPDEST PUSH1 0x60 PUSH1 0x0 PUSH2 0x320B DUP4 PUSH2 0x2B4C JUMP JUMPDEST SWAP1 POP PUSH1 0x0 DUP2 PUSH8 0xFFFFFFFFFFFFFFFF DUP2 GT ISZERO PUSH2 0x3228 JUMPI PUSH2 0x3228 PUSH2 0x3AF3 JUMP JUMPDEST PUSH1 0x40 MLOAD SWAP1 DUP1 DUP3 MSTORE DUP1 PUSH1 0x20 MUL PUSH1 0x20 ADD DUP3 ADD PUSH1 0x40 MSTORE DUP1 ISZERO PUSH2 0x3251 JUMPI DUP2 PUSH1 0x20 ADD PUSH1 0x20 DUP3 MUL DUP1 CALLDATASIZE DUP4 CALLDATACOPY ADD SWAP1 POP JUMPDEST POP SWAP1 POP PUSH1 0x0 JUMPDEST DUP3 DUP2 LT ISZERO PUSH2 0x329B JUMPI PUSH2 0x3269 DUP6 DUP3 PUSH2 0x2B57 JUMP JUMPDEST DUP3 DUP3 DUP2 MLOAD DUP2 LT PUSH2 0x327B JUMPI PUSH2 0x327B PUSH2 0x3BD9 JUMP JUMPDEST PUSH1 0x1 PUSH1 0x1 PUSH1 0xA0 SHL SUB SWAP1 SWAP3 AND PUSH1 0x20 SWAP3 DUP4 MUL SWAP2 SWAP1 SWAP2 ADD SWAP1 SWAP2 ADD MSTORE PUSH1 0x1 ADD PUSH2 0x3257 JUMP JUMPDEST POP SWAP4 SWAP3 POP POP POP JUMP JUMPDEST PUSH1 0x40 MLOAD PUSH4 0x3DEA062F PUSH1 0xE2 SHL DUP2 MSTORE PUSH1 0x1 PUSH1 0x1 PUSH1 0xA0 SHL SUB DUP3 DUP2 AND PUSH1 0x4 DUP4 ADD MSTORE PUSH1 0x0 SWAP2 PUSH32 0x0 SWAP1 SWAP2 AND SWAP1 PUSH4 0xF7A818BC SWAP1 PUSH1 0x24 ADD PUSH1 0x20 PUSH1 0x40 MLOAD DUP1 DUP4 SUB DUP2 DUP7 GAS STATICCALL ISZERO DUP1 ISZERO PUSH2 0x330E JUMPI RETURNDATASIZE PUSH1 0x0 DUP1 RETURNDATACOPY RETURNDATASIZE PUSH1 0x0 REVERT JUMPDEST POP POP POP POP PUSH1 0x40 MLOAD RETURNDATASIZE PUSH1 0x1F NOT PUSH1 0x1F DUP3 ADD AND DUP3 ADD DUP1 PUSH1 0x40 MSTORE POP DUP2 ADD SWAP1 PUSH2 0x3332 SWAP2 SWAP1 PUSH2 0x3C08 JUMP JUMPDEST PUSH1 0x40 DUP1 MLOAD DUP1 DUP3 ADD SWAP1 SWAP2 MSTORE PUSH1 0x11 DUP2 MSTORE PUSH17 0x1859191C995CDCC81B9BDD08199BDD5B99 PUSH1 0x7A SHL PUSH1 0x20 DUP3 ADD MSTORE SWAP1 SWAP2 POP PUSH1 0x1 PUSH1 0x1 PUSH1 0xA0 SHL SUB DUP3 AND PUSH2 0x3384 JUMPI PUSH1 0x40 MLOAD PUSH3 0x461BCD PUSH1 0xE5 SHL DUP2 MSTORE PUSH1 0x4 ADD PUSH2 0x5B9 SWAP2 SWAP1 PUSH2 0x3A7C JUMP JUMPDEST POP DUP1 PUSH1 0x1 PUSH1 0x1 PUSH1 0xA0 SHL SUB AND PUSH4 0xBF86D690 PUSH1 0x40 MLOAD DUP2 PUSH4 0xFFFFFFFF AND PUSH1 0xE0 SHL DUP2 MSTORE PUSH1 0x4 ADD PUSH1 0x20 PUSH1 0x40 MLOAD DUP1 DUP4 SUB DUP2 DUP7 GAS STATICCALL ISZERO DUP1 ISZERO PUSH2 0x33C3 JUMPI RETURNDATASIZE PUSH1 0x0 DUP1 RETURNDATACOPY RETURNDATASIZE PUSH1 0x0 REVERT JUMPDEST POP POP POP POP PUSH1 0x40 MLOAD RETURNDATASIZE PUSH1 0x1F NOT PUSH1 0x1F DUP3 ADD AND DUP3 ADD DUP1 PUSH1 0x40 MSTORE POP DUP2 ADD SWAP1 PUSH2 0x33E7 SWAP2 SWAP1 PUSH2 0x3AD1 JUMP JUMPDEST ISZERO PUSH1 0x40 MLOAD DUP1 PUSH1 0x40 ADD PUSH1 0x40 MSTORE DUP1 PUSH1 0x10 DUP2 MSTORE PUSH1 0x20 ADD PUSH16 0x2837B7B61034B99039B43ABA3237BBB7 PUSH1 0x81 SHL DUP2 MSTORE POP SWAP1 PUSH2 0x342F JUMPI PUSH1 0x40 MLOAD PUSH3 0x461BCD PUSH1 0xE5 SHL DUP2 MSTORE PUSH1 0x4 ADD PUSH2 0x5B9 SWAP2 SWAP1 PUSH2 0x3A7C JUMP JUMPDEST POP POP POP JUMP JUMPDEST PUSH1 0x0 PUSH32 0x0 PUSH1 0x1 PUSH1 0x1 PUSH1 0xA0 SHL SUB AND PUSH4 0x75A8012B PUSH1 0x40 MLOAD DUP2 PUSH4 0xFFFFFFFF AND PUSH1 0xE0 SHL DUP2 MSTORE PUSH1 0x4 ADD PUSH1 0x0 PUSH1 0x40 MLOAD DUP1 DUP4 SUB DUP2 DUP7 GAS STATICCALL ISZERO DUP1 ISZERO PUSH2 0x3494 JUMPI RETURNDATASIZE PUSH1 0x0 DUP1 RETURNDATACOPY RETURNDATASIZE PUSH1 0x0 REVERT JUMPDEST POP POP POP POP PUSH1 0x40 MLOAD RETURNDATASIZE PUSH1 0x0 DUP3 RETURNDATACOPY PUSH1 0x1F RETURNDATASIZE SWAP1 DUP2 ADD PUSH1 0x1F NOT AND DUP3 ADD PUSH1 0x40 MSTORE PUSH2 0x34BC SWAP2 SWAP1 DUP2 ADD SWAP1 PUSH2 0x3B14 JUMP JUMPDEST SWAP1 POP PUSH1 0x0 JUMPDEST DUP2 MLOAD DUP2 LT ISZERO PUSH2 0x3550 JUMPI DUP2 DUP2 DUP2 MLOAD DUP2 LT PUSH2 0x34DC JUMPI PUSH2 0x34DC PUSH2 0x3BD9 JUMP JUMPDEST PUSH1 0x20 MUL PUSH1 0x20 ADD ADD MLOAD PUSH1 0x1 PUSH1 0x1 PUSH1 0xA0 SHL SUB AND PUSH4 0x5790A0C8 PUSH1 0x40 MLOAD DUP2 PUSH4 0xFFFFFFFF AND PUSH1 0xE0 SHL DUP2 MSTORE PUSH1 0x4 ADD PUSH1 0x20 PUSH1 0x40 MLOAD DUP1 DUP4 SUB DUP2 PUSH1 0x0 DUP8 GAS CALL ISZERO DUP1 ISZERO PUSH2 0x3523 JUMPI RETURNDATASIZE PUSH1 0x0 DUP1 RETURNDATACOPY RETURNDATASIZE PUSH1 0x0 REVERT JUMPDEST POP POP POP POP PUSH1 0x40 MLOAD RETURNDATASIZE PUSH1 0x1F NOT PUSH1 0x1F DUP3 ADD AND DUP3 ADD DUP1 PUSH1 0x40 MSTORE POP DUP2 ADD SWAP1 PUSH2 0x3547 SWAP2 SWAP1 PUSH2 0x3AD1 JUMP JUMPDEST POP PUSH1 0x1 ADD PUSH2 0x34C1 JUMP JUMPDEST POP PUSH1 0x1 PUSH1 0x1 PUSH1 0xA0 SHL SUB DUP4 AND PUSH1 0x0 SWAP1 DUP2 MSTORE PUSH1 0x1 PUSH1 0x20 MSTORE PUSH1 0x40 SWAP1 KECCAK256 SLOAD PUSH1 0x5 SLOAD DUP4 SWAP2 PUSH2 0x3578 SWAP2 PUSH2 0x3C9B JUMP JUMPDEST PUSH2 0x3582 SWAP2 SWAP1 PUSH2 0x3CB2 JUMP JUMPDEST PUSH1 0x5 SSTORE PUSH1 0x1 PUSH1 0x1 PUSH1 0xA0 SHL SUB DUP4 AND PUSH1 0x0 DUP2 DUP2 MSTORE PUSH1 0x1 PUSH1 0x20 MSTORE PUSH1 0x40 SWAP1 DUP2 SWAP1 KECCAK256 DUP5 SWAP1 SSTORE MLOAD PUSH32 0xED56E077A86640EDA727B81E991A174258C5356858AE761A377AFCCF9FAC283E SWAP1 PUSH2 0x308A SWAP1 DUP6 DUP2 MSTORE PUSH1 0x20 ADD SWAP1 JUMP JUMPDEST PUSH1 0x0 PUSH2 0x2F78 DUP4 PUSH1 0x1 PUSH1 0x1 PUSH1 0xA0 SHL SUB DUP5 AND PUSH2 0x36D4 JUMP JUMPDEST PUSH1 0x0 PUSH2 0x181E DUP3 PUSH2 0x36F1 JUMP JUMPDEST PUSH1 0x0 DUP1 DUP1 DUP1 PUSH2 0x31C1 DUP7 DUP7 PUSH2 0x36FB JUMP JUMPDEST PUSH1 0x0 PUSH2 0x2F78 DUP4 DUP4 PUSH2 0x3726 JUMP JUMPDEST PUSH1 0x0 DUP2 DUP2 MSTORE PUSH1 0x2 DUP4 ADD PUSH1 0x20 MSTORE PUSH1 0x40 DUP2 KECCAK256 SLOAD DUP2 SWAP1 DUP1 PUSH2 0x363C JUMPI PUSH2 0x362F DUP6 DUP6 PUSH2 0x3601 JUMP JUMPDEST SWAP3 POP PUSH1 0x0 SWAP2 POP PUSH2 0x31C9 SWAP1 POP JUMP JUMPDEST PUSH1 0x1 SWAP3 POP SWAP1 POP PUSH2 0x31C9 JUMP JUMPDEST PUSH1 0x0 DUP2 DUP2 MSTORE PUSH1 0x2 DUP4 ADD PUSH1 0x20 MSTORE PUSH1 0x40 DUP2 KECCAK256 SLOAD DUP1 ISZERO ISZERO DUP1 PUSH2 0x366B JUMPI POP PUSH2 0x366B DUP5 DUP5 PUSH2 0x3601 JUMP JUMPDEST PUSH2 0x2F78 JUMPI PUSH1 0x40 MLOAD PUSH3 0x461BCD PUSH1 0xE5 SHL DUP2 MSTORE PUSH1 0x20 PUSH1 0x4 DUP3 ADD MSTORE PUSH1 0x1E PUSH1 0x24 DUP3 ADD MSTORE PUSH32 0x456E756D657261626C654D61703A206E6F6E6578697374656E74206B65790000 PUSH1 0x44 DUP3 ADD MSTORE PUSH1 0x64 ADD PUSH2 0x5B9 JUMP JUMPDEST PUSH1 0x0 DUP3 DUP2 MSTORE PUSH1 0x2 DUP5 ADD PUSH1 0x20 MSTORE PUSH1 0x40 DUP2 KECCAK256 DUP3 SWAP1 SSTORE PUSH2 0xD71 DUP5 DUP5 PUSH2 0x373E JUMP JUMPDEST PUSH1 0x0 DUP2 DUP2 MSTORE PUSH1 0x2 DUP4 ADD PUSH1 0x20 MSTORE PUSH1 0x40 DUP2 KECCAK256 DUP2 SWAP1 SSTORE PUSH2 0x2F78 DUP4 DUP4 PUSH2 0x374A JUMP JUMPDEST PUSH1 0x0 PUSH2 0x181E DUP3 SLOAD SWAP1 JUMP JUMPDEST PUSH1 0x0 DUP1 DUP1 PUSH2 0x3709 DUP6 DUP6 PUSH2 0x3756 JUMP JUMPDEST PUSH1 0x0 DUP2 DUP2 MSTORE PUSH1 0x2 SWAP7 SWAP1 SWAP7 ADD PUSH1 0x20 MSTORE PUSH1 0x40 SWAP1 SWAP6 KECCAK256 SLOAD SWAP5 SWAP6 SWAP4 POP POP POP POP JUMP JUMPDEST PUSH1 0x0 DUP2 DUP2 MSTORE PUSH1 0x1 DUP4 ADD PUSH1 0x20 MSTORE PUSH1 0x40 DUP2 KECCAK256 SLOAD ISZERO ISZERO PUSH2 0x2F78 JUMP JUMPDEST PUSH1 0x0 PUSH2 0x2F78 DUP4 DUP4 PUSH2 0x3762 JUMP JUMPDEST PUSH1 0x0 PUSH2 0x2F78 DUP4 DUP4 PUSH2 0x37B1 JUMP JUMPDEST PUSH1 0x0 PUSH2 0x2F78 DUP4 DUP4 PUSH2 0x38A4 JUMP JUMPDEST PUSH1 0x0 DUP2 DUP2 MSTORE PUSH1 0x1 DUP4 ADD PUSH1 0x20 MSTORE PUSH1 0x40 DUP2 KECCAK256 SLOAD PUSH2 0x37A9 JUMPI POP DUP2 SLOAD PUSH1 0x1 DUP2 DUP2 ADD DUP5 SSTORE PUSH1 0x0 DUP5 DUP2 MSTORE PUSH1 0x20 DUP1 DUP3 KECCAK256 SWAP1 SWAP4 ADD DUP5 SWAP1 SSTORE DUP5 SLOAD DUP5 DUP3 MSTORE DUP3 DUP7 ADD SWAP1 SWAP4 MSTORE PUSH1 0x40 SWAP1 KECCAK256 SWAP2 SWAP1 SWAP2 SSTORE PUSH2 0x181E JUMP JUMPDEST POP PUSH1 0x0 PUSH2 0x181E JUMP JUMPDEST PUSH1 0x0 DUP2 DUP2 MSTORE PUSH1 0x1 DUP4 ADD PUSH1 0x20 MSTORE PUSH1 0x40 DUP2 KECCAK256 SLOAD DUP1 ISZERO PUSH2 0x389A JUMPI PUSH1 0x0 PUSH2 0x37D5 PUSH1 0x1 DUP4 PUSH2 0x3C9B JUMP JUMPDEST DUP6 SLOAD SWAP1 SWAP2 POP PUSH1 0x0 SWAP1 PUSH2 0x37E9 SWAP1 PUSH1 0x1 SWAP1 PUSH2 0x3C9B JUMP JUMPDEST SWAP1 POP DUP2 DUP2 EQ PUSH2 0x384E JUMPI PUSH1 0x0 DUP7 PUSH1 0x0 ADD DUP3 DUP2 SLOAD DUP2 LT PUSH2 0x3809 JUMPI PUSH2 0x3809 PUSH2 0x3BD9 JUMP JUMPDEST SWAP1 PUSH1 0x0 MSTORE PUSH1 0x20 PUSH1 0x0 KECCAK256 ADD SLOAD SWAP1 POP DUP1 DUP8 PUSH1 0x0 ADD DUP5 DUP2 SLOAD DUP2 LT PUSH2 0x382C JUMPI PUSH2 0x382C PUSH2 0x3BD9 JUMP JUMPDEST PUSH1 0x0 SWAP2 DUP3 MSTORE PUSH1 0x20 DUP1 DUP4 KECCAK256 SWAP1 SWAP2 ADD SWAP3 SWAP1 SWAP3 SSTORE SWAP2 DUP3 MSTORE PUSH1 0x1 DUP9 ADD SWAP1 MSTORE PUSH1 0x40 SWAP1 KECCAK256 DUP4 SWAP1 SSTORE JUMPDEST DUP6 SLOAD DUP7 SWAP1 DUP1 PUSH2 0x385F JUMPI PUSH2 0x385F PUSH2 0x3CCA JUMP JUMPDEST PUSH1 0x1 SWAP1 SUB DUP2 DUP2 SWAP1 PUSH1 0x0 MSTORE PUSH1 0x20 PUSH1 0x0 KECCAK256 ADD PUSH1 0x0 SWAP1 SSTORE SWAP1 SSTORE DUP6 PUSH1 0x1 ADD PUSH1 0x0 DUP7 DUP2 MSTORE PUSH1 0x20 ADD SWAP1 DUP2 MSTORE PUSH1 0x20 ADD PUSH1 0x0 KECCAK256 PUSH1 0x0 SWAP1 SSTORE PUSH1 0x1 SWAP4 POP POP POP POP PUSH2 0x181E JUMP JUMPDEST PUSH1 0x0 SWAP2 POP POP PUSH2 0x181E JUMP JUMPDEST PUSH1 0x0 DUP3 PUSH1 0x0 ADD DUP3 DUP2 SLOAD DUP2 LT PUSH2 0x38BB JUMPI PUSH2 0x38BB PUSH2 0x3BD9 JUMP JUMPDEST SWAP1 PUSH1 0x0 MSTORE PUSH1 0x20 PUSH1 0x0 KECCAK256 ADD SLOAD SWAP1 POP SWAP3 SWAP2 POP POP JUMP JUMPDEST PUSH1 0x0 PUSH1 0x20 DUP3 DUP5 SUB SLT ISZERO PUSH2 0x38E0 JUMPI PUSH1 0x0 DUP1 REVERT JUMPDEST POP CALLDATALOAD SWAP2 SWAP1 POP JUMP JUMPDEST PUSH1 0x1 PUSH1 0x1 PUSH1 0xA0 SHL SUB DUP2 AND DUP2 EQ PUSH2 0x19DE JUMPI PUSH1 0x0 DUP1 REVERT JUMPDEST PUSH1 0x0 PUSH1 0x20 DUP3 DUP5 SUB SLT ISZERO PUSH2 0x390E JUMPI PUSH1 0x0 DUP1 REVERT JUMPDEST DUP2 CALLDATALOAD PUSH2 0x2F78 DUP2 PUSH2 0x38E7 JUMP JUMPDEST PUSH1 0x0 DUP1 PUSH1 0x40 DUP4 DUP6 SUB SLT ISZERO PUSH2 0x392C JUMPI PUSH1 0x0 DUP1 REVERT JUMPDEST DUP3 CALLDATALOAD PUSH2 0x3937 DUP2 PUSH2 0x38E7 JUMP JUMPDEST SWAP5 PUSH1 0x20 SWAP4 SWAP1 SWAP4 ADD CALLDATALOAD SWAP4 POP POP POP JUMP JUMPDEST PUSH1 0x0 DUP1 DUP4 PUSH1 0x1F DUP5 ADD SLT PUSH2 0x3957 JUMPI PUSH1 0x0 DUP1 REVERT JUMPDEST POP DUP2 CALLDATALOAD PUSH8 0xFFFFFFFFFFFFFFFF DUP2 GT ISZERO PUSH2 0x396F JUMPI PUSH1 0x0 DUP1 REVERT JUMPDEST PUSH1 0x20 DUP4 ADD SWAP2 POP DUP4 PUSH1 0x20 DUP3 PUSH1 0x5 SHL DUP6 ADD ADD GT ISZERO PUSH2 0x31C9 JUMPI PUSH1 0x0 DUP1 REVERT JUMPDEST PUSH1 0x0 DUP1 PUSH1 0x0 DUP1 PUSH1 0x40 DUP6 DUP8 SUB SLT ISZERO PUSH2 0x39A0 JUMPI PUSH1 0x0 DUP1 REVERT JUMPDEST DUP5 CALLDATALOAD PUSH8 0xFFFFFFFFFFFFFFFF DUP1 DUP3 GT ISZERO PUSH2 0x39B8 JUMPI PUSH1 0x0 DUP1 REVERT JUMPDEST PUSH2 0x39C4 DUP9 DUP4 DUP10 ADD PUSH2 0x3945 JUMP JUMPDEST SWAP1 SWAP7 POP SWAP5 POP PUSH1 0x20 DUP8 ADD CALLDATALOAD SWAP2 POP DUP1 DUP3 GT ISZERO PUSH2 0x39DD JUMPI PUSH1 0x0 DUP1 REVERT JUMPDEST POP PUSH2 0x39EA DUP8 DUP3 DUP9 ADD PUSH2 0x3945 JUMP JUMPDEST SWAP6 SWAP9 SWAP5 SWAP8 POP SWAP6 POP POP POP POP JUMP JUMPDEST PUSH1 0x0 DUP1 PUSH1 0x40 DUP4 DUP6 SUB SLT ISZERO PUSH2 0x3A09 JUMPI PUSH1 0x0 DUP1 REVERT JUMPDEST DUP3 CALLDATALOAD PUSH2 0x3A14 DUP2 PUSH2 0x38E7 JUMP JUMPDEST SWAP2 POP PUSH1 0x20 DUP4 ADD CALLDATALOAD PUSH2 0x3A24 DUP2 PUSH2 0x38E7 JUMP JUMPDEST DUP1 SWAP2 POP POP SWAP3 POP SWAP3 SWAP1 POP JUMP JUMPDEST PUSH1 0x20 DUP1 DUP3 MSTORE DUP3 MLOAD DUP3 DUP3 ADD DUP2 SWAP1 MSTORE PUSH1 0x0 SWAP2 SWAP1 DUP5 DUP3 ADD SWAP1 PUSH1 0x40 DUP6 ADD SWAP1 DUP5 JUMPDEST DUP2 DUP2 LT ISZERO PUSH2 0x3A70 JUMPI DUP4 MLOAD PUSH1 0x1 PUSH1 0x1 PUSH1 0xA0 SHL SUB AND DUP4 MSTORE SWAP3 DUP5 ADD SWAP3 SWAP2 DUP5 ADD SWAP2 PUSH1 0x1 ADD PUSH2 0x3A4B JUMP JUMPDEST POP SWAP1 SWAP7 SWAP6 POP POP POP POP POP POP JUMP JUMPDEST PUSH1 0x0 PUSH1 0x20 DUP1 DUP4 MSTORE DUP4 MLOAD DUP1 DUP3 DUP6 ADD MSTORE PUSH1 0x0 JUMPDEST DUP2 DUP2 LT ISZERO PUSH2 0x3AA9 JUMPI DUP6 DUP2 ADD DUP4 ADD MLOAD DUP6 DUP3 ADD PUSH1 0x40 ADD MSTORE DUP3 ADD PUSH2 0x3A8D JUMP JUMPDEST DUP2 DUP2 GT ISZERO PUSH2 0x3ABB JUMPI PUSH1 0x0 PUSH1 0x40 DUP4 DUP8 ADD ADD MSTORE JUMPDEST POP PUSH1 0x1F ADD PUSH1 0x1F NOT AND SWAP3 SWAP1 SWAP3 ADD PUSH1 0x40 ADD SWAP4 SWAP3 POP POP POP JUMP JUMPDEST PUSH1 0x0 PUSH1 0x20 DUP3 DUP5 SUB SLT ISZERO PUSH2 0x3AE3 JUMPI PUSH1 0x0 DUP1 REVERT JUMPDEST DUP2 MLOAD DUP1 ISZERO ISZERO DUP2 EQ PUSH2 0x2F78 JUMPI PUSH1 0x0 DUP1 REVERT JUMPDEST PUSH4 0x4E487B71 PUSH1 0xE0 SHL PUSH1 0x0 MSTORE PUSH1 0x41 PUSH1 0x4 MSTORE PUSH1 0x24 PUSH1 0x0 REVERT JUMPDEST DUP1 MLOAD PUSH2 0x2982 DUP2 PUSH2 0x38E7 JUMP JUMPDEST PUSH1 0x0 PUSH1 0x20 DUP1 DUP4 DUP6 SUB SLT ISZERO PUSH2 0x3B27 JUMPI PUSH1 0x0 DUP1 REVERT JUMPDEST DUP3 MLOAD PUSH8 0xFFFFFFFFFFFFFFFF DUP1 DUP3 GT ISZERO PUSH2 0x3B3F JUMPI PUSH1 0x0 DUP1 REVERT JUMPDEST DUP2 DUP6 ADD SWAP2 POP DUP6 PUSH1 0x1F DUP4 ADD SLT PUSH2 0x3B53 JUMPI PUSH1 0x0 DUP1 REVERT JUMPDEST DUP2 MLOAD DUP2 DUP2 GT ISZERO PUSH2 0x3B65 JUMPI PUSH2 0x3B65 PUSH2 0x3AF3 JUMP JUMPDEST DUP1 PUSH1 0x5 SHL PUSH1 0x40 MLOAD PUSH1 0x1F NOT PUSH1 0x3F DUP4 ADD AND DUP2 ADD DUP2 DUP2 LT DUP6 DUP3 GT OR ISZERO PUSH2 0x3B8A JUMPI PUSH2 0x3B8A PUSH2 0x3AF3 JUMP JUMPDEST PUSH1 0x40 MSTORE SWAP2 DUP3 MSTORE DUP5 DUP3 ADD SWAP3 POP DUP4 DUP2 ADD DUP6 ADD SWAP2 DUP9 DUP4 GT ISZERO PUSH2 0x3BA8 JUMPI PUSH1 0x0 DUP1 REVERT JUMPDEST SWAP4 DUP6 ADD SWAP4 JUMPDEST DUP3 DUP6 LT ISZERO PUSH2 0x3BCD JUMPI PUSH2 0x3BBE DUP6 PUSH2 0x3B09 JUMP JUMPDEST DUP5 MSTORE SWAP4 DUP6 ADD SWAP4 SWAP3 DUP6 ADD SWAP3 PUSH2 0x3BAD JUMP JUMPDEST SWAP9 SWAP8 POP POP POP POP POP POP POP POP JUMP JUMPDEST PUSH4 0x4E487B71 PUSH1 0xE0 SHL PUSH1 0x0 MSTORE PUSH1 0x32 PUSH1 0x4 MSTORE PUSH1 0x24 PUSH1 0x0 REVERT JUMPDEST PUSH1 0x0 PUSH1 0x20 DUP3 DUP5 SUB SLT ISZERO PUSH2 0x3C01 JUMPI PUSH1 0x0 DUP1 REVERT JUMPDEST POP MLOAD SWAP2 SWAP1 POP JUMP JUMPDEST PUSH1 0x0 PUSH1 0x20 DUP3 DUP5 SUB SLT ISZERO PUSH2 0x3C1A JUMPI PUSH1 0x0 DUP1 REVERT JUMPDEST DUP2 MLOAD PUSH2 0x2F78 DUP2 PUSH2 0x38E7 JUMP JUMPDEST PUSH4 0x4E487B71 PUSH1 0xE0 SHL PUSH1 0x0 MSTORE PUSH1 0x11 PUSH1 0x4 MSTORE PUSH1 0x24 PUSH1 0x0 REVERT JUMPDEST PUSH1 0x0 DUP2 PUSH1 0x0 NOT DIV DUP4 GT DUP3 ISZERO ISZERO AND ISZERO PUSH2 0x3C55 JUMPI PUSH2 0x3C55 PUSH2 0x3C25 JUMP JUMPDEST POP MUL SWAP1 JUMP JUMPDEST PUSH1 0x0 DUP3 PUSH2 0x3C77 JUMPI PUSH4 0x4E487B71 PUSH1 0xE0 SHL PUSH1 0x0 MSTORE PUSH1 0x12 PUSH1 0x4 MSTORE PUSH1 0x24 PUSH1 0x0 REVERT JUMPDEST POP DIV SWAP1 JUMP JUMPDEST SWAP3 DUP4 MSTORE PUSH1 0x20 DUP4 ADD SWAP2 SWAP1 SWAP2 MSTORE PUSH1 0x1 PUSH1 0x1 PUSH1 0xA0 SHL SUB AND PUSH1 0x40 DUP3 ADD MSTORE PUSH1 0x60 ADD SWAP1 JUMP JUMPDEST PUSH1 0x0 DUP3 DUP3 LT ISZERO PUSH2 0x3CAD JUMPI PUSH2 0x3CAD PUSH2 0x3C25 JUMP JUMPDEST POP SUB SWAP1 JUMP JUMPDEST PUSH1 0x0 DUP3 NOT DUP3 GT ISZERO PUSH2 0x3CC5 JUMPI PUSH2 0x3CC5 PUSH2 0x3C25 JUMP JUMPDEST POP ADD SWAP1 JUMP JUMPDEST PUSH4 0x4E487B71 PUSH1 0xE0 SHL PUSH1 0x0 MSTORE PUSH1 0x31 PUSH1 0x4 MSTORE PUSH1 0x24 PUSH1 0x0 REVERT INVALID PUSH22 0x6E617574686F72697A65642061636365737300000000 STOP STOP STOP STOP STOP STOP STOP STOP STOP PUSH21 0x6865206D696E7465722061646472657373206F6620 PUSH21 0x6865204C5020746F6B656E20616E64207468652070 PUSH16 0x6F6C206164647265737320646F206E6F PUSH21 0x206D61746368A26469706673582212208E1A99D9D9 PUSH31 0xBF603C71DE1481D4F912DA9E74A4F1E87CF7391110E876B4F71264736F6C63 NUMBER STOP ADDMOD EXP STOP CALLER ","sha1":"040ece3ed61827bd8a21103789c731d0045fcd11","source":"// SPDX-License-Identifier: GPL-3.0-or-later\npragma solidity 0.8.10;\n\nimport \"../../interfaces/IStakerVault.sol\";\nimport \"../../interfaces/tokenomics/IInflationManager.sol\";\nimport \"../../interfaces/tokenomics/IKeeperGauge.sol\";\nimport \"../../interfaces/tokenomics/IAmmGauge.sol\";\nimport \"../../interfaces/pool/ILiquidityPool.sol\";\nimport \"../../interfaces/actions/IAction.sol\";\nimport \"../../interfaces/actions/IActionFeeHandler.sol\";\n\nimport \"../../libraries/EnumerableMapping.sol\";\nimport \"../../libraries/EnumerableExtensions.sol\";\nimport \"../../libraries/AddressProviderHelpers.sol\";\nimport \"../../libraries/UncheckedMath.sol\";\n\nimport \"./Minter.sol\";\nimport \"../access/Authorization.sol\";\n\ncontract InflationManager is Authorization, IInflationManager {\n    using UncheckedMath for uint256;\n    using EnumerableMapping for EnumerableMapping.AddressToAddressMap;\n    using EnumerableExtensions for EnumerableMapping.AddressToAddressMap;\n    using AddressProviderHelpers for IAddressProvider;\n\n    IAddressProvider public immutable addressProvider;\n\n    mapping(address => uint256) public override keeperPoolWeights;\n    mapping(address => uint256) public override lpPoolWeights;\n    mapping(address => uint256) public override ammWeights;\n\n    address public override minter;\n    bool public override weightBasedKeeperDistributionDeactivated;\n    uint256 public override totalKeeperPoolWeight;\n    uint256 public override totalLpPoolWeight;\n    uint256 public override totalAmmTokenWeight;\n\n    // Pool -> keeperGauge\n    EnumerableMapping.AddressToAddressMap private _keeperGauges;\n    // AMM token -> ammGauge\n    EnumerableMapping.AddressToAddressMap private _ammGauges;\n\n    mapping(address => bool) public override gauges;\n\n    event NewKeeperWeight(address indexed pool, uint256 newWeight);\n    event NewLpWeight(address indexed pool, uint256 newWeight);\n    event NewAmmTokenWeight(address indexed token, uint256 newWeight);\n    event WeightBasedKeeperDistributionDeactivated();\n\n    modifier onlyGauge() {\n        require(gauges[msg.sender], Error.UNAUTHORIZED_ACCESS);\n        _;\n    }\n\n    constructor(IAddressProvider _addressProvider)\n        Authorization(_addressProvider.getRoleManager())\n    {\n        addressProvider = _addressProvider;\n    }\n\n    function setMinter(address _minter) external override onlyGovernance {\n        require(minter == address(0), Error.ADDRESS_ALREADY_SET);\n        require(_minter != address(0), Error.INVALID_MINTER);\n        minter = _minter;\n    }\n\n    /**\n     * @notice Advance the keeper gauge for a pool by an epoch.\n     * @param pool Pool for which the keeper gauge is advanced.\n     */\n    function advanceKeeperGaugeEpoch(address pool) external override onlyGovernance {\n        IKeeperGauge(_keeperGauges.get(pool)).advanceEpoch();\n    }\n\n    /**\n     * @notice Mints MERO tokens.\n     * @param beneficiary Address to receive the tokens.\n     * @param amount Amount of tokens to mint.\n     */\n    function mintRewards(address beneficiary, uint256 amount) external override onlyGauge {\n        Minter(minter).mint(beneficiary, amount);\n    }\n\n    function checkPointInflation() external override {\n        Minter(minter).executeInflationRateUpdate();\n    }\n\n    /**\n     * @notice Deactivates the weight-based distribution of keeper inflation.\n     * @dev This can only be done once, when the keeper inflation mechanism is altered.\n     */\n    function deactivateWeightBasedKeeperDistribution() external override onlyGovernance {\n        require(!weightBasedKeeperDistributionDeactivated, \"Weight-based dist. deactivated.\");\n        address[] memory liquidityPools = addressProvider.allPools();\n        uint256 length = liquidityPools.length;\n        for (uint256 i; i < length; i = i.uncheckedInc()) {\n            _removeKeeperGauge(address(liquidityPools[i]));\n        }\n        weightBasedKeeperDistributionDeactivated = true;\n        emit WeightBasedKeeperDistributionDeactivated();\n    }\n\n    /**\n     * @notice Checkpoints all gauges.\n     * @param updateEndTime is the time until which to update the gauges.\n     * @dev This is mostly used upon inflation rate updates.\n     */\n    function checkpointAllGauges(uint256 updateEndTime) external override {\n        require(msg.sender == minter, Error.UNAUTHORIZED_ACCESS);\n        uint256 length = _keeperGauges.length();\n        for (uint256 i; i < length; i = i.uncheckedInc()) {\n            IKeeperGauge(_keeperGauges.valueAt(i)).poolCheckpoint(updateEndTime);\n        }\n        address[] memory stakerVaults = addressProvider.allStakerVaults();\n        for (uint256 i; i < stakerVaults.length; i = i.uncheckedInc()) {\n            IStakerVault(stakerVaults[i]).poolCheckpoint(updateEndTime);\n        }\n\n        length = _ammGauges.length();\n        for (uint256 i; i < length; i = i.uncheckedInc()) {\n            IAmmGauge(_ammGauges.valueAt(i)).poolCheckpoint(updateEndTime);\n        }\n    }\n\n    /**\n     * @notice Update a keeper pool weight.\n     * @param pool_ Pool to update the keeper weight for.\n     * @param weight_ New weight for the keeper inflation for the pool.\n     */\n    function updateKeeperPoolWeight(address pool_, uint256 weight_)\n        external\n        override\n        onlyRoles2(Roles.GOVERNANCE, Roles.INFLATION_ADMIN)\n    {\n        require(_keeperGauges.contains(pool_), Error.INVALID_ARGUMENT);\n        _executeKeeperPoolWeight(pool_, weight_);\n    }\n\n    /**\n     * @notice Update of a batch of keeperGauge weights.\n     * @dev Each entry in the pools array corresponds to an entry in the weights array.\n     * @param pools Pools to update the keeper weight for.\n     * @param weights New weights for the keeper inflation for the pools.\n     */\n    function batchUpdateKeeperPoolWeights(address[] calldata pools, uint256[] calldata weights)\n        external\n        override\n        onlyRoles2(Roles.GOVERNANCE, Roles.INFLATION_ADMIN)\n    {\n        require(pools.length == weights.length, Error.INVALID_ARGUMENT);\n        for (uint256 i; i < pools.length; i = i.uncheckedInc()) {\n            require(_keeperGauges.contains(pools[i]), Error.INVALID_ARGUMENT);\n            _executeKeeperPoolWeight(pools[i], weights[i]);\n        }\n    }\n\n    function whitelistGauge(address gauge) external override onlyRole(Roles.CONTROLLER) {\n        gauges[gauge] = true;\n    }\n\n    function removeStakerVaultFromInflation(address lpToken)\n        external\n        override\n        onlyRole(Roles.CONTROLLER)\n    {\n        _executeLpPoolWeight(lpToken, 0);\n    }\n\n    /**\n     * @notice Update a lp pool weight.\n     * @param lpToken_ LP token to update the weight for.\n     * @param weight_ New LP inflation weight.\n     */\n    function updateLpPoolWeight(address lpToken_, uint256 weight_)\n        external\n        override\n        onlyRoles2(Roles.GOVERNANCE, Roles.INFLATION_ADMIN)\n    {\n        address stakerVault_ = addressProvider.getStakerVault(lpToken_);\n        // Require both that gauge is registered and that pool is still in action\n        require(gauges[IStakerVault(stakerVault_).lpGauge()], Error.GAUGE_DOES_NOT_EXIST);\n        require(IStakerVault(stakerVault_).lpGauge() != address(0), Error.ADDRESS_NOT_FOUND);\n        _ensurePoolExists(lpToken_);\n\n        _executeLpPoolWeight(lpToken_, weight_);\n    }\n\n    /**\n     * @notice Update a batch of LP token weights.\n     * @dev Each entry in the lpTokens array corresponds to an entry in the weights array.\n     * @param lpTokens_ LpTokens to update the inflation weight for.\n     * @param weights_ New weights for the inflation for the LpTokens.\n     */\n    function batchUpdateLpPoolWeights(address[] calldata lpTokens_, uint256[] calldata weights_)\n        external\n        override\n        onlyRoles2(Roles.GOVERNANCE, Roles.INFLATION_ADMIN)\n    {\n        require(lpTokens_.length == weights_.length, \"Invalid length of arguments\");\n        for (uint256 i; i < lpTokens_.length; i = i.uncheckedInc()) {\n            address stakerVault_ = addressProvider.getStakerVault(lpTokens_[i]);\n            // Require both that gauge is registered and that pool is still in action\n            require(IStakerVault(stakerVault_).lpGauge() != address(0), Error.ADDRESS_NOT_FOUND);\n            _ensurePoolExists(lpTokens_[i]);\n            _executeLpPoolWeight(lpTokens_[i], weights_[i]);\n        }\n    }\n\n    /**\n     * @notice Update inflation weight for an AMM token.\n     * @param token_ AMM token to update the weight for.\n     * @param weight_ New AMM token inflation weight.\n     */\n    function updateAmmTokenWeight(address token_, uint256 weight_)\n        external\n        override\n        onlyRoles2(Roles.GOVERNANCE, Roles.INFLATION_ADMIN)\n    {\n        require(_ammGauges.contains(token_), \"amm gauge not found\");\n        _executeAmmTokenWeight(token_, weight_);\n    }\n\n    /**\n     * @notice Update a batch of AMM token weights.\n     * @dev Each entry in the tokens array corresponds to an entry in the weights array.\n     * @param tokens_ AMM tokens to update the inflation weight for.\n     * @param weights_ New weights for the inflation for the AMM tokens.\n     */\n    function batchUpdateAmmTokenWeights(address[] calldata tokens_, uint256[] calldata weights_)\n        external\n        override\n        onlyRoles2(Roles.GOVERNANCE, Roles.INFLATION_ADMIN)\n    {\n        require(tokens_.length == weights_.length, \"Invalid length of arguments\");\n        for (uint256 i; i < tokens_.length; i = i.uncheckedInc()) {\n            require(_ammGauges.contains(tokens_[i]), \"amm gauge not found\");\n            _executeAmmTokenWeight(tokens_[i], weights_[i]);\n        }\n    }\n\n    /**\n     * @notice Sets the KeeperGauge for a pool.\n     * @dev Multiple pools can have the same KeeperGauge.\n     * @param pool Address of pool to set the KeeperGauge for.\n     * @param _keeperGauge Address of KeeperGauge.\n     * @return `true` if successful.\n     */\n    function setKeeperGauge(address pool, address _keeperGauge)\n        external\n        override\n        onlyGovernance\n        returns (bool)\n    {\n        uint256 length = _keeperGauges.length();\n        bool keeperGaugeExists = false;\n        for (uint256 i; i < length; i = i.uncheckedInc()) {\n            if (address(_keeperGauges.valueAt(i)) == _keeperGauge) {\n                keeperGaugeExists = true;\n                break;\n            }\n        }\n        // Check to make sure that once weight-based dist is deactivated, only one gauge can exist\n        if (!keeperGaugeExists && weightBasedKeeperDistributionDeactivated && length >= 1) {\n            return false;\n        }\n        (bool exists, address keeperGauge) = _keeperGauges.tryGet(pool);\n        require(!exists || keeperGauge != _keeperGauge, Error.INVALID_ARGUMENT);\n\n        if (exists && !IKeeperGauge(keeperGauge).killed()) {\n            IKeeperGauge(keeperGauge).kill();\n        }\n        _keeperGauges.set(pool, _keeperGauge);\n        gauges[_keeperGauge] = true;\n        return true;\n    }\n\n    function removeKeeperGauge(address pool) external override onlyGovernance {\n        _removeKeeperGauge(pool);\n    }\n\n    /**\n     * @notice Sets the AmmGauge for a particular AMM token.\n     * @param token Address of the amm token.\n     * @param _ammGauge Address of AmmGauge.\n     * @return `true` if successful.\n     */\n    function setAmmGauge(address token, address _ammGauge)\n        external\n        override\n        onlyGovernance\n        returns (bool)\n    {\n        require(IAmmGauge(_ammGauge).isAmmToken(token), Error.ADDRESS_NOT_WHITELISTED);\n        uint256 length = _ammGauges.length();\n        for (uint256 i; i < length; i = i.uncheckedInc()) {\n            if (address(_ammGauges.valueAt(i)) == _ammGauge) {\n                return false;\n            }\n        }\n        if (_ammGauges.contains(token)) {\n            address ammGauge = _ammGauges.get(token);\n            IAmmGauge(ammGauge).kill();\n        }\n        _ammGauges.set(token, _ammGauge);\n        gauges[_ammGauge] = true;\n        return true;\n    }\n\n    function removeAmmGauge(address token_) external override onlyGovernance returns (bool) {\n        if (!_ammGauges.contains(token_)) return false;\n        address ammGauge_ = _ammGauges.get(token_);\n        _executeAmmTokenWeight(token_, 0);\n        IAmmGauge(ammGauge_).kill();\n        _ammGauges.remove(token_);\n        // Do not delete from the gauges map to allow claiming of remaining balances\n        emit AmmGaugeDelisted(token_, ammGauge_);\n        return true;\n    }\n\n    function addGaugeForVault(address lpToken) external override {\n        IStakerVault _stakerVault = IStakerVault(msg.sender);\n        require(addressProvider.isStakerVault(msg.sender, lpToken), Error.UNAUTHORIZED_ACCESS);\n        address lpGauge = _stakerVault.lpGauge();\n        require(lpGauge != address(0), Error.GAUGE_DOES_NOT_EXIST);\n        gauges[lpGauge] = true;\n    }\n\n    function getAllAmmGauges() external view override returns (address[] memory) {\n        return _ammGauges.valuesArray();\n    }\n\n    function getLpRateForStakerVault(address stakerVault) external view override returns (uint256) {\n        uint256 totalLpPoolWeight_ = totalLpPoolWeight;\n        address minter_ = minter;\n        if (minter_ == address(0) || totalLpPoolWeight_ == 0) return 0;\n        uint256 lpInflationRate_ = Minter(minter_).getLpInflationRate();\n        address lpToken_ = IStakerVault(stakerVault).getToken();\n        return (lpPoolWeights[lpToken_] * lpInflationRate_) / totalLpPoolWeight_;\n    }\n\n    function getKeeperRateForPool(address pool) external view override returns (uint256) {\n        if (minter == address(0)) {\n            return 0;\n        }\n        uint256 keeperInflationRate = Minter(minter).getKeeperInflationRate();\n        // After deactivation of weight based dist, KeeperGauge handles the splitting\n        if (weightBasedKeeperDistributionDeactivated) return keeperInflationRate;\n        if (totalKeeperPoolWeight == 0) return 0;\n        uint256 poolInflationRate = (keeperPoolWeights[pool] * keeperInflationRate) /\n            totalKeeperPoolWeight;\n        return poolInflationRate;\n    }\n\n    function getAmmRateForToken(address token_) external view override returns (uint256) {\n        if (minter == address(0) || totalAmmTokenWeight == 0) {\n            return 0;\n        }\n        uint256 ammInflationRate = Minter(minter).getAmmInflationRate();\n        uint256 ammTokenInflationRate = (ammWeights[token_] * ammInflationRate) /\n            totalAmmTokenWeight;\n        return ammTokenInflationRate;\n    }\n\n    function getLpPoolWeight(address lpToken) external view override returns (uint256) {\n        return lpPoolWeights[lpToken];\n    }\n\n    function getKeeperGaugeForPool(address pool) external view override returns (address) {\n        (, address keeperGauge) = _keeperGauges.tryGet(pool);\n        return keeperGauge;\n    }\n\n    function getAmmGaugeForToken(address token) external view override returns (address) {\n        (, address ammGauge) = _ammGauges.tryGet(token);\n        return ammGauge;\n    }\n\n    function _executeKeeperPoolWeight(address pool_, uint256 weight_) internal {\n        uint256 length = _keeperGauges.length();\n        for (uint256 i; i < length; i = i.uncheckedInc()) {\n            IKeeperGauge(_keeperGauges.valueAt(i)).poolCheckpoint();\n        }\n        totalKeeperPoolWeight = totalKeeperPoolWeight - keeperPoolWeights[pool_] + weight_;\n        keeperPoolWeights[pool_] = weight_;\n        emit NewKeeperWeight(pool_, weight_);\n    }\n\n    function _executeLpPoolWeight(address lpToken_, uint256 weight_) internal {\n        address[] memory stakerVaults = addressProvider.allStakerVaults();\n        for (uint256 i; i < stakerVaults.length; i = i.uncheckedInc()) {\n            IStakerVault(stakerVaults[i]).poolCheckpoint();\n        }\n        totalLpPoolWeight = totalLpPoolWeight - lpPoolWeights[lpToken_] + weight_;\n        lpPoolWeights[lpToken_] = weight_;\n        emit NewLpWeight(lpToken_, weight_);\n    }\n\n    function _executeAmmTokenWeight(address token_, uint256 weight_) internal {\n        uint256 length = _ammGauges.length();\n        for (uint256 i; i < length; i = i.uncheckedInc()) {\n            IAmmGauge(_ammGauges.valueAt(i)).poolCheckpoint();\n        }\n        totalAmmTokenWeight = totalAmmTokenWeight - ammWeights[token_] + weight_;\n        ammWeights[token_] = weight_;\n        emit NewAmmTokenWeight(token_, weight_);\n    }\n\n    function _removeKeeperGauge(address pool) internal {\n        if (!_keeperGauges.contains(pool)) return;\n        address keeperGauge = _keeperGauges.get(pool);\n\n        // Checking if the Keeper Gauge is still in use\n        address[] memory pools_ = addressProvider.allPools();\n        address[] memory actions_ = addressProvider.allActions();\n        for (uint256 i; i < pools_.length; i = i.uncheckedInc()) {\n            ILiquidityPool pool_ = ILiquidityPool(pools_[i]);\n            address lpToken_ = pool_.getLpToken();\n            for (uint256 j; j < actions_.length; j = j.uncheckedInc()) {\n                IAction action_ = IAction(actions_[j]);\n                IActionFeeHandler feeHandler_ = IActionFeeHandler(action_.feeHandler());\n                address keeperGauge_ = feeHandler_.getKeeperGauge(lpToken_);\n                require(keeperGauge_ != keeperGauge, Error.GAUGE_STILL_ACTIVE);\n            }\n        }\n\n        _executeKeeperPoolWeight(pool, 0);\n        _keeperGauges.remove(pool);\n        IKeeperGauge(keeperGauge).kill();\n        // Do not delete from the gauges map to allow claiming of remaining balances\n        emit KeeperGaugeDelisted(pool, keeperGauge);\n    }\n\n    function _ensurePoolExists(address lpToken) internal view {\n        address pool = addressProvider.safeGetPoolForToken(lpToken);\n        require(pool != address(0), Error.ADDRESS_NOT_FOUND);\n        require(!ILiquidityPool(pool).isShutdown(), Error.POOL_SHUTDOWN);\n    }\n}\n","sourcePath":"contracts/tokenomics/InflationManager.sol","type":"contract","deployment":{"address":"0xA4bdB934c167a0689ce5b6dc8Ba654dCA81e9d8C","chainid":"42","blockHeight":33231508}}