{"abi":[{"inputs":[{"internalType":"contract IAddressProvider","name":"_addressProvider","type":"address"}],"stateMutability":"nonpayable","type":"constructor","name":"constructor"},{"anonymous":false,"inputs":[{"indexed":true,"internalType":"bytes32","name":"role","type":"bytes32"},{"indexed":true,"internalType":"address","name":"account","type":"address"},{"indexed":true,"internalType":"address","name":"sender","type":"address"}],"name":"RoleGranted","type":"event"},{"anonymous":false,"inputs":[{"indexed":true,"internalType":"bytes32","name":"role","type":"bytes32"},{"indexed":true,"internalType":"address","name":"account","type":"address"},{"indexed":true,"internalType":"address","name":"sender","type":"address"}],"name":"RoleRevoked","type":"event"},{"inputs":[{"internalType":"address","name":"zap","type":"address"}],"name":"addGaugeZap","outputs":[],"stateMutability":"nonpayable","type":"function"},{"inputs":[{"internalType":"address","name":"newGovernor","type":"address"}],"name":"addGovernor","outputs":[],"stateMutability":"nonpayable","type":"function"},{"inputs":[],"name":"addressProvider","outputs":[{"internalType":"contract IAddressProvider","name":"","type":"address"}],"stateMutability":"view","type":"function"},{"inputs":[{"internalType":"bytes32","name":"role","type":"bytes32"},{"internalType":"uint256","name":"index","type":"uint256"}],"name":"getRoleMember","outputs":[{"internalType":"address","name":"","type":"address"}],"stateMutability":"view","type":"function"},{"inputs":[{"internalType":"bytes32","name":"role","type":"bytes32"}],"name":"getRoleMemberCount","outputs":[{"internalType":"uint256","name":"","type":"uint256"}],"stateMutability":"view","type":"function"},{"inputs":[{"internalType":"bytes32","name":"role","type":"bytes32"},{"internalType":"address","name":"account","type":"address"}],"name":"grantRole","outputs":[],"stateMutability":"nonpayable","type":"function"},{"inputs":[{"internalType":"bytes32","name":"role1","type":"bytes32"},{"internalType":"bytes32","name":"role2","type":"bytes32"},{"internalType":"bytes32","name":"role3","type":"bytes32"},{"internalType":"address","name":"account","type":"address"}],"name":"hasAnyRole","outputs":[{"internalType":"bool","name":"","type":"bool"}],"stateMutability":"view","type":"function"},{"inputs":[{"internalType":"bytes32[]","name":"roles","type":"bytes32[]"},{"internalType":"address","name":"account","type":"address"}],"name":"hasAnyRole","outputs":[{"internalType":"bool","name":"","type":"bool"}],"stateMutability":"view","type":"function"},{"inputs":[{"internalType":"bytes32","name":"role1","type":"bytes32"},{"internalType":"bytes32","name":"role2","type":"bytes32"},{"internalType":"address","name":"account","type":"address"}],"name":"hasAnyRole","outputs":[{"internalType":"bool","name":"","type":"bool"}],"stateMutability":"view","type":"function"},{"inputs":[{"internalType":"bytes32","name":"role","type":"bytes32"},{"internalType":"address","name":"account","type":"address"}],"name":"hasRole","outputs":[{"internalType":"bool","name":"","type":"bool"}],"stateMutability":"view","type":"function"},{"inputs":[],"name":"initialize","outputs":[],"stateMutability":"nonpayable","type":"function"},{"inputs":[{"internalType":"address","name":"zap","type":"address"}],"name":"removeGaugeZap","outputs":[],"stateMutability":"nonpayable","type":"function"},{"inputs":[],"name":"renounceGovernance","outputs":[],"stateMutability":"nonpayable","type":"function"},{"inputs":[{"internalType":"bytes32","name":"role","type":"bytes32"},{"internalType":"address","name":"account","type":"address"}],"name":"revokeRole","outputs":[],"stateMutability":"nonpayable","type":"function"}],"bytecode":"60a060405234801561001057600080fd5b5060405161170a38038061170a83398101604081905261002f91610040565b6001600160a01b0316608052610070565b60006020828403121561005257600080fd5b81516001600160a01b038116811461006957600080fd5b9392505050565b6080516116096101016000396000818160f4015281816105110152818161057901528181610635015281816106ba0152818161071601528181610773015281816107d101528181610848015281816108c30152818161099001528181610a1201528181610af801528181610b9301528181610bf201528181610dce01528181610e600152610ecf01526116096000f3fe608060405234801561001057600080fd5b50600436106100ea5760003560e01c806391d148541161008c578063b1c11a6d11610066578063b1c11a6d146101da578063ca15c873146101ed578063d547741f1461020e578063d756a4221461022157600080fd5b806391d1485414610191578063955c4c99146101b4578063a613cc3d146101c757600080fd5b8063616bf2d1116100c8578063616bf2d11461015b578063758904b81461016e5780638129fc1c146101765780639010d07c1461017e57600080fd5b80632954018c146100ef5780632f2ff15d146101335780633c4a25d014610148575b600080fd5b6101167f000000000000000000000000000000000000000000000000000000000000000081565b6040516001600160a01b0390911681526020015b60405180910390f35b610146610141366004611333565b610234565b005b610146610156366004611363565b6102ad565b610146610169366004611363565b610329565b6101466103a1565b61014661047f565b61011661018c366004611380565b6104e7565b6101a461019f366004611333565b610829565b604051901515815260200161012a565b6101a46101c23660046113a2565b610c4b565b6101a46101d53660046113e3565b610c80565b6101466101e8366004611363565b610cd2565b6102006101fb366004611469565b610d4a565b60405190815260200161012a565b61014661021c366004611333565b610f42565b6101a461022f366004611482565b611058565b61024b69676f7665726e616e636560b01b33610829565b60405180604001604052806013815260200172756e617574686f72697a65642061636365737360681b8152509061029e5760405162461bcd60e51b815260040161029591906114b0565b60405180910390fd5b506102a9828261107c565b5050565b6102c469676f7665726e616e636560b01b33610829565b60405180604001604052806013815260200172756e617574686f72697a65642061636365737360681b8152509061030e5760405162461bcd60e51b815260040161029591906114b0565b5061032669676f7665726e616e636560b01b8261107c565b50565b61034069676f7665726e616e636560b01b33610829565b60405180604001604052806013815260200172756e617574686f72697a65642061636365737360681b8152509061038a5760405162461bcd60e51b815260040161029591906114b0565b5061032668067617567655f7a61760bc1b82610f42565b6103b869676f7665726e616e636560b01b33610829565b60405180604001604052806013815260200172756e617574686f72697a65642061636365737360681b815250906104025760405162461bcd60e51b815260040161029591906114b0565b50600161041b69676f7665726e616e636560b01b610d4a565b116040518060400160405280601281526020017163616e6e6f74207265766f6b6520726f6c6560701b815250906104655760405162461bcd60e51b815260040161029591906114b0565b5061047d69676f7665726e616e636560b01b336110f9565b565b61049569676f7665726e616e636560b01b610d4a565b6000146040518060600160405280602581526020016115af60259139906104cf5760405162461bcd60e51b815260040161029591906114b0565b5061047d69676f7665726e616e636560b01b3361107c565b60006f30b2323932b9b9afb83937bb34b232b960811b83148015610509575081155b1561053557507f0000000000000000000000000000000000000000000000000000000000000000610823565b6b706f6f6c5f666163746f727960a01b83148015610551575081155b156105f4576040516321f8a72160e01b81526a706f6f6c466163746f727960a81b60048201527f00000000000000000000000000000000000000000000000000000000000000006001600160a01b0316906321f8a721906024015b602060405180830381865afa1580156105c9573d6000803e3d6000fd5b505050506040513d601f19601f820116820180604052508101906105ed9190611505565b9050610823565b6931b7b73a3937b63632b960b11b8314801561060e575081155b1561066c576040516321f8a72160e01b81526931b7b73a3937b63632b960b11b60048201527f00000000000000000000000000000000000000000000000000000000000000006001600160a01b0316906321f8a721906024016105ac565b7034b7333630ba34b7b72fb6b0b730b3b2b960791b8314801561068d575081155b156106f1576040516321f8a72160e01b81526f34b7333630ba34b7b726b0b730b3b2b960811b60048201527f00000000000000000000000000000000000000000000000000000000000000006001600160a01b0316906321f8a721906024016105ac565b631c1bdbdb60e21b83141561074d576040516304042d6360e21b8152600481018390527f00000000000000000000000000000000000000000000000000000000000000006001600160a01b031690631010b58c906024016105ac565b641d985d5b1d60da1b8314156107aa57604051630672271d60e11b8152600481018390527f00000000000000000000000000000000000000000000000000000000000000006001600160a01b031690630ce44e3a906024016105ac565b6530b1ba34b7b760d11b8314156108085760405163b5320e6360e01b8152600481018390527f00000000000000000000000000000000000000000000000000000000000000006001600160a01b03169063b5320e63906024016105ac565b60008381526001602052604090206108209083611172565b90505b92915050565b60006f30b2323932b9b9afb83937bb34b232b960811b831415610882577f00000000000000000000000000000000000000000000000000000000000000006001600160a01b0316826001600160a01b0316149050610823565b6b706f6f6c5f666163746f727960a01b8314156109525760405163e6dc9e2b60e01b81526a706f6f6c466163746f727960a81b6004820152600060248201527f00000000000000000000000000000000000000000000000000000000000000006001600160a01b03169063e6dc9e2b906044015b602060405180830381865afa158015610913573d6000803e3d6000fd5b505050506040513d601f19601f820116820180604052508101906109379190611505565b6001600160a01b0316826001600160a01b0316149050610823565b6931b7b73a3937b63632b960b11b8314156109c75760405163e6dc9e2b60e01b81526931b7b73a3937b63632b960b11b6004820152600060248201527f00000000000000000000000000000000000000000000000000000000000000006001600160a01b03169063e6dc9e2b906044016108f6565b7034b7333630ba34b7b72fb6b0b730b3b2b960791b831415610a495760405163e6dc9e2b60e01b81526f34b7333630ba34b7b726b0b730b3b2b960811b6004820152600060248201527f00000000000000000000000000000000000000000000000000000000000000006001600160a01b03169063e6dc9e2b906044016108f6565b6a6d61696e74656e616e636560a81b831415610aca576000838152602081815260408083206001600160a01b038616845290915290205460ff16806105ed5750506001600160a01b03811660009081527fc3cf2dc2d928647ef9c1d0954e35884e3e3511cef6652c491e0546f1f9307153602052604090205460ff16610823565b631c1bdbdb60e21b831415610b6457604051635b16ebb760e01b81526001600160a01b0383811660048301527f00000000000000000000000000000000000000000000000000000000000000001690635b16ebb7906024015b602060405180830381865afa158015610b40573d6000803e3d6000fd5b505050506040513d601f19601f820116820180604052508101906105ed9190611522565b641d985d5b1d60da1b831415610bc25760405163652b9b4160e01b81526001600160a01b0383811660048301527f0000000000000000000000000000000000000000000000000000000000000000169063652b9b4190602401610b23565b6530b1ba34b7b760d11b831415610c215760405163622e68cb60e01b81526001600160a01b0383811660048301527f0000000000000000000000000000000000000000000000000000000000000000169063622e68cb90602401610b23565b506000918252602082815260408084206001600160a01b0393909316845291905290205460ff1690565b6000610c578583610829565b80610c675750610c678483610829565b80610c775750610c778383610829565b95945050505050565b6000805b83811015610cc557610cae858583818110610ca157610ca1611544565b9050602002013584610829565b15610cbd576001915050610ccb565b600101610c84565b50600090505b9392505050565b610ce969676f7665726e616e636560b01b33610829565b60405180604001604052806013815260200172756e617574686f72697a65642061636365737360681b81525090610d335760405162461bcd60e51b815260040161029591906114b0565b5061032668067617567655f7a61760bc1b8261107c565b60006f30b2323932b9b9afb83937bb34b232b960811b821480610d7b57506b706f6f6c5f666163746f727960a01b82145b80610d9257506931b7b73a3937b63632b960b11b82145b80610db057507034b7333630ba34b7b72fb6b0b730b3b2b960791b82145b15610dbd57506001919050565b631c1bdbdb60e21b821415610e4e577f00000000000000000000000000000000000000000000000000000000000000006001600160a01b0316638c788de06040518163ffffffff1660e01b8152600401602060405180830381865afa158015610e2a573d6000803e3d6000fd5b505050506040513d601f19601f82011682018060405250810190610823919061155a565b641d985d5b1d60da1b821415610ebc577f00000000000000000000000000000000000000000000000000000000000000006001600160a01b031663889777386040518163ffffffff1660e01b8152600401602060405180830381865afa158015610e2a573d6000803e3d6000fd5b6530b1ba34b7b760d11b821415610f2b577f00000000000000000000000000000000000000000000000000000000000000006001600160a01b0316639bccfe496040518163ffffffff1660e01b8152600401602060405180830381865afa158015610e2a573d6000803e3d6000fd5b60008281526001602052604090206108239061117e565b610f5969676f7665726e616e636560b01b33610829565b60405180604001604052806013815260200172756e617574686f72697a65642061636365737360681b81525090610fa35760405162461bcd60e51b815260040161029591906114b0565b5060408051808201909152601281527163616e6e6f74207265766f6b6520726f6c6560701b602082015269676f7665726e616e636560b01b831415610ffb5760405162461bcd60e51b815260040161029591906114b0565b506110068282610829565b6040518060400160405280601081526020016f1a5b9d985b1a5908185c99dd5b595b9d60821b8152509061104d5760405162461bcd60e51b815260040161029591906114b0565b506102a982826110f9565b60006110648483610829565b8061107457506110748383610829565b949350505050565b6000828152602081815260408083206001600160a01b03851684528252808320805460ff1916600190811790915585845290915290206110bc9082611188565b5060405133906001600160a01b0383169084907f2f8788117e7eff1d82e926ec794901d17c78024a50270940304540a733656f0d90600090a45050565b6000828152602081815260408083206001600160a01b03851684528252808320805460ff1916905584835260019091529020611135908261119d565b5060405133906001600160a01b0383169084907ff6391f5c32d9c69d2a47ea670b442974b53935d1edc7fd64eb21e047a839171b90600090a45050565b600061082083836111b2565b6000610823825490565b6000610820836001600160a01b0384166111dc565b6000610820836001600160a01b03841661122b565b60008260000182815481106111c9576111c9611544565b9060005260206000200154905092915050565b600081815260018301602052604081205461122357508154600181810184556000848152602080822090930184905584548482528286019093526040902091909155610823565b506000610823565b6000818152600183016020526040812054801561131457600061124f600183611573565b855490915060009061126390600190611573565b90508181146112c857600086600001828154811061128357611283611544565b90600052602060002001549050808760000184815481106112a6576112a6611544565b6000918252602080832090910192909255918252600188019052604090208390555b85548690806112d9576112d9611598565b600190038181906000526020600020016000905590558560010160008681526020019081526020016000206000905560019350505050610823565b6000915050610823565b6001600160a01b038116811461032657600080fd5b6000806040838503121561134657600080fd5b8235915060208301356113588161131e565b809150509250929050565b60006020828403121561137557600080fd5b8135610ccb8161131e565b6000806040838503121561139357600080fd5b50508035926020909101359150565b600080600080608085870312156113b857600080fd5b84359350602085013592506040850135915060608501356113d88161131e565b939692955090935050565b6000806000604084860312156113f857600080fd5b833567ffffffffffffffff8082111561141057600080fd5b818601915086601f83011261142457600080fd5b81358181111561143357600080fd5b8760208260051b850101111561144857600080fd5b6020928301955093505084013561145e8161131e565b809150509250925092565b60006020828403121561147b57600080fd5b5035919050565b60008060006060848603121561149757600080fd5b8335925060208401359150604084013561145e8161131e565b600060208083528351808285015260005b818110156114dd578581018301518582016040015282016114c1565b818111156114ef576000604083870101525b50601f01601f1916929092016040019392505050565b60006020828403121561151757600080fd5b8151610ccb8161131e565b60006020828403121561153457600080fd5b81518015158114610ccb57600080fd5b634e487b7160e01b600052603260045260246000fd5b60006020828403121561156c57600080fd5b5051919050565b60008282101561159357634e487b7160e01b600052601160045260246000fd5b500390565b634e487b7160e01b600052603160045260246000fdfe636f6e74726163742063616e206f6e6c7920626520696e697469616c697a6564206f6e6365a264697066735822122044610dd68f6fa4c2938cb90bde37d79f477c5914435293e66884e536f748cebc64736f6c634300080a0033","bytecodeSha1":"9dfc0611ce920011e884d0f477a0a995437948af","compiler":{"evm_version":"london","optimizer":{"enabled":true,"runs":200},"version":"0.8.10+commit.fc410830"},"contractName":"RoleManager","language":"Solidity","natspec":{"kind":"dev","methods":{},"version":1},"opcodes":"PUSH1 0x80 PUSH1 0x40 MSTORE CALLVALUE DUP1 ISZERO PUSH2 0x10 JUMPI PUSH1 0x0 DUP1 REVERT JUMPDEST POP PUSH1 0x4 CALLDATASIZE LT PUSH2 0xEA JUMPI PUSH1 0x0 CALLDATALOAD PUSH1 0xE0 SHR DUP1 PUSH4 0x91D14854 GT PUSH2 0x8C JUMPI DUP1 PUSH4 0xB1C11A6D GT PUSH2 0x66 JUMPI DUP1 PUSH4 0xB1C11A6D EQ PUSH2 0x1DA JUMPI DUP1 PUSH4 0xCA15C873 EQ PUSH2 0x1ED JUMPI DUP1 PUSH4 0xD547741F EQ PUSH2 0x20E JUMPI DUP1 PUSH4 0xD756A422 EQ PUSH2 0x221 JUMPI PUSH1 0x0 DUP1 REVERT JUMPDEST DUP1 PUSH4 0x91D14854 EQ PUSH2 0x191 JUMPI DUP1 PUSH4 0x955C4C99 EQ PUSH2 0x1B4 JUMPI DUP1 PUSH4 0xA613CC3D EQ PUSH2 0x1C7 JUMPI PUSH1 0x0 DUP1 REVERT JUMPDEST DUP1 PUSH4 0x616BF2D1 GT PUSH2 0xC8 JUMPI DUP1 PUSH4 0x616BF2D1 EQ PUSH2 0x15B JUMPI DUP1 PUSH4 0x758904B8 EQ PUSH2 0x16E JUMPI DUP1 PUSH4 0x8129FC1C EQ PUSH2 0x176 JUMPI DUP1 PUSH4 0x9010D07C EQ PUSH2 0x17E JUMPI PUSH1 0x0 DUP1 REVERT JUMPDEST DUP1 PUSH4 0x2954018C EQ PUSH2 0xEF JUMPI DUP1 PUSH4 0x2F2FF15D EQ PUSH2 0x133 JUMPI DUP1 PUSH4 0x3C4A25D0 EQ PUSH2 0x148 JUMPI JUMPDEST PUSH1 0x0 DUP1 REVERT JUMPDEST PUSH2 0x116 PUSH32 0x0 DUP2 JUMP JUMPDEST PUSH1 0x40 MLOAD PUSH1 0x1 PUSH1 0x1 PUSH1 0xA0 SHL SUB SWAP1 SWAP2 AND DUP2 MSTORE PUSH1 0x20 ADD JUMPDEST PUSH1 0x40 MLOAD DUP1 SWAP2 SUB SWAP1 RETURN JUMPDEST PUSH2 0x146 PUSH2 0x141 CALLDATASIZE PUSH1 0x4 PUSH2 0x1333 JUMP JUMPDEST PUSH2 0x234 JUMP JUMPDEST STOP JUMPDEST PUSH2 0x146 PUSH2 0x156 CALLDATASIZE PUSH1 0x4 PUSH2 0x1363 JUMP JUMPDEST PUSH2 0x2AD JUMP JUMPDEST PUSH2 0x146 PUSH2 0x169 CALLDATASIZE PUSH1 0x4 PUSH2 0x1363 JUMP JUMPDEST PUSH2 0x329 JUMP JUMPDEST PUSH2 0x146 PUSH2 0x3A1 JUMP JUMPDEST PUSH2 0x146 PUSH2 0x47F JUMP JUMPDEST PUSH2 0x116 PUSH2 0x18C CALLDATASIZE PUSH1 0x4 PUSH2 0x1380 JUMP JUMPDEST PUSH2 0x4E7 JUMP JUMPDEST PUSH2 0x1A4 PUSH2 0x19F CALLDATASIZE PUSH1 0x4 PUSH2 0x1333 JUMP JUMPDEST PUSH2 0x829 JUMP JUMPDEST PUSH1 0x40 MLOAD SWAP1 ISZERO ISZERO DUP2 MSTORE PUSH1 0x20 ADD PUSH2 0x12A JUMP JUMPDEST PUSH2 0x1A4 PUSH2 0x1C2 CALLDATASIZE PUSH1 0x4 PUSH2 0x13A2 JUMP JUMPDEST PUSH2 0xC4B JUMP JUMPDEST PUSH2 0x1A4 PUSH2 0x1D5 CALLDATASIZE PUSH1 0x4 PUSH2 0x13E3 JUMP JUMPDEST PUSH2 0xC80 JUMP JUMPDEST PUSH2 0x146 PUSH2 0x1E8 CALLDATASIZE PUSH1 0x4 PUSH2 0x1363 JUMP JUMPDEST PUSH2 0xCD2 JUMP JUMPDEST PUSH2 0x200 PUSH2 0x1FB CALLDATASIZE PUSH1 0x4 PUSH2 0x1469 JUMP JUMPDEST PUSH2 0xD4A JUMP JUMPDEST PUSH1 0x40 MLOAD SWAP1 DUP2 MSTORE PUSH1 0x20 ADD PUSH2 0x12A JUMP JUMPDEST PUSH2 0x146 PUSH2 0x21C CALLDATASIZE PUSH1 0x4 PUSH2 0x1333 JUMP JUMPDEST PUSH2 0xF42 JUMP JUMPDEST PUSH2 0x1A4 PUSH2 0x22F CALLDATASIZE PUSH1 0x4 PUSH2 0x1482 JUMP JUMPDEST PUSH2 0x1058 JUMP JUMPDEST PUSH2 0x24B PUSH10 0x676F7665726E616E6365 PUSH1 0xB0 SHL CALLER PUSH2 0x829 JUMP JUMPDEST PUSH1 0x40 MLOAD DUP1 PUSH1 0x40 ADD PUSH1 0x40 MSTORE DUP1 PUSH1 0x13 DUP2 MSTORE PUSH1 0x20 ADD PUSH19 0x756E617574686F72697A656420616363657373 PUSH1 0x68 SHL DUP2 MSTORE POP SWAP1 PUSH2 0x29E JUMPI PUSH1 0x40 MLOAD PUSH3 0x461BCD PUSH1 0xE5 SHL DUP2 MSTORE PUSH1 0x4 ADD PUSH2 0x295 SWAP2 SWAP1 PUSH2 0x14B0 JUMP JUMPDEST PUSH1 0x40 MLOAD DUP1 SWAP2 SUB SWAP1 REVERT JUMPDEST POP PUSH2 0x2A9 DUP3 DUP3 PUSH2 0x107C JUMP JUMPDEST POP POP JUMP JUMPDEST PUSH2 0x2C4 PUSH10 0x676F7665726E616E6365 PUSH1 0xB0 SHL CALLER PUSH2 0x829 JUMP JUMPDEST PUSH1 0x40 MLOAD DUP1 PUSH1 0x40 ADD PUSH1 0x40 MSTORE DUP1 PUSH1 0x13 DUP2 MSTORE PUSH1 0x20 ADD PUSH19 0x756E617574686F72697A656420616363657373 PUSH1 0x68 SHL DUP2 MSTORE POP SWAP1 PUSH2 0x30E JUMPI PUSH1 0x40 MLOAD PUSH3 0x461BCD PUSH1 0xE5 SHL DUP2 MSTORE PUSH1 0x4 ADD PUSH2 0x295 SWAP2 SWAP1 PUSH2 0x14B0 JUMP JUMPDEST POP PUSH2 0x326 PUSH10 0x676F7665726E616E6365 PUSH1 0xB0 SHL DUP3 PUSH2 0x107C JUMP JUMPDEST POP JUMP JUMPDEST PUSH2 0x340 PUSH10 0x676F7665726E616E6365 PUSH1 0xB0 SHL CALLER PUSH2 0x829 JUMP JUMPDEST PUSH1 0x40 MLOAD DUP1 PUSH1 0x40 ADD PUSH1 0x40 MSTORE DUP1 PUSH1 0x13 DUP2 MSTORE PUSH1 0x20 ADD PUSH19 0x756E617574686F72697A656420616363657373 PUSH1 0x68 SHL DUP2 MSTORE POP SWAP1 PUSH2 0x38A JUMPI PUSH1 0x40 MLOAD PUSH3 0x461BCD PUSH1 0xE5 SHL DUP2 MSTORE PUSH1 0x4 ADD PUSH2 0x295 SWAP2 SWAP1 PUSH2 0x14B0 JUMP JUMPDEST POP PUSH2 0x326 PUSH9 0x67617567655F7A617 PUSH1 0xBC SHL DUP3 PUSH2 0xF42 JUMP JUMPDEST PUSH2 0x3B8 PUSH10 0x676F7665726E616E6365 PUSH1 0xB0 SHL CALLER PUSH2 0x829 JUMP JUMPDEST PUSH1 0x40 MLOAD DUP1 PUSH1 0x40 ADD PUSH1 0x40 MSTORE DUP1 PUSH1 0x13 DUP2 MSTORE PUSH1 0x20 ADD PUSH19 0x756E617574686F72697A656420616363657373 PUSH1 0x68 SHL DUP2 MSTORE POP SWAP1 PUSH2 0x402 JUMPI PUSH1 0x40 MLOAD PUSH3 0x461BCD PUSH1 0xE5 SHL DUP2 MSTORE PUSH1 0x4 ADD PUSH2 0x295 SWAP2 SWAP1 PUSH2 0x14B0 JUMP JUMPDEST POP PUSH1 0x1 PUSH2 0x41B PUSH10 0x676F7665726E616E6365 PUSH1 0xB0 SHL PUSH2 0xD4A JUMP JUMPDEST GT PUSH1 0x40 MLOAD DUP1 PUSH1 0x40 ADD PUSH1 0x40 MSTORE DUP1 PUSH1 0x12 DUP2 MSTORE PUSH1 0x20 ADD PUSH18 0x63616E6E6F74207265766F6B6520726F6C65 PUSH1 0x70 SHL DUP2 MSTORE POP SWAP1 PUSH2 0x465 JUMPI PUSH1 0x40 MLOAD PUSH3 0x461BCD PUSH1 0xE5 SHL DUP2 MSTORE PUSH1 0x4 ADD PUSH2 0x295 SWAP2 SWAP1 PUSH2 0x14B0 JUMP JUMPDEST POP PUSH2 0x47D PUSH10 0x676F7665726E616E6365 PUSH1 0xB0 SHL CALLER PUSH2 0x10F9 JUMP JUMPDEST JUMP JUMPDEST PUSH2 0x495 PUSH10 0x676F7665726E616E6365 PUSH1 0xB0 SHL PUSH2 0xD4A JUMP JUMPDEST PUSH1 0x0 EQ PUSH1 0x40 MLOAD DUP1 PUSH1 0x60 ADD PUSH1 0x40 MSTORE DUP1 PUSH1 0x25 DUP2 MSTORE PUSH1 0x20 ADD PUSH2 0x15AF PUSH1 0x25 SWAP2 CODECOPY SWAP1 PUSH2 0x4CF JUMPI PUSH1 0x40 MLOAD PUSH3 0x461BCD PUSH1 0xE5 SHL DUP2 MSTORE PUSH1 0x4 ADD PUSH2 0x295 SWAP2 SWAP1 PUSH2 0x14B0 JUMP JUMPDEST POP PUSH2 0x47D PUSH10 0x676F7665726E616E6365 PUSH1 0xB0 SHL CALLER PUSH2 0x107C JUMP JUMPDEST PUSH1 0x0 PUSH16 0x30B2323932B9B9AFB83937BB34B232B9 PUSH1 0x81 SHL DUP4 EQ DUP1 ISZERO PUSH2 0x509 JUMPI POP DUP2 ISZERO JUMPDEST ISZERO PUSH2 0x535 JUMPI POP PUSH32 0x0 PUSH2 0x823 JUMP JUMPDEST PUSH12 0x706F6F6C5F666163746F7279 PUSH1 0xA0 SHL DUP4 EQ DUP1 ISZERO PUSH2 0x551 JUMPI POP DUP2 ISZERO JUMPDEST ISZERO PUSH2 0x5F4 JUMPI PUSH1 0x40 MLOAD PUSH4 0x21F8A721 PUSH1 0xE0 SHL DUP2 MSTORE PUSH11 0x706F6F6C466163746F7279 PUSH1 0xA8 SHL PUSH1 0x4 DUP3 ADD MSTORE PUSH32 0x0 PUSH1 0x1 PUSH1 0x1 PUSH1 0xA0 SHL SUB AND SWAP1 PUSH4 0x21F8A721 SWAP1 PUSH1 0x24 ADD JUMPDEST PUSH1 0x20 PUSH1 0x40 MLOAD DUP1 DUP4 SUB DUP2 DUP7 GAS STATICCALL ISZERO DUP1 ISZERO PUSH2 0x5C9 JUMPI RETURNDATASIZE PUSH1 0x0 DUP1 RETURNDATACOPY RETURNDATASIZE PUSH1 0x0 REVERT JUMPDEST POP POP POP POP PUSH1 0x40 MLOAD RETURNDATASIZE PUSH1 0x1F NOT PUSH1 0x1F DUP3 ADD AND DUP3 ADD DUP1 PUSH1 0x40 MSTORE POP DUP2 ADD SWAP1 PUSH2 0x5ED SWAP2 SWAP1 PUSH2 0x1505 JUMP JUMPDEST SWAP1 POP PUSH2 0x823 JUMP JUMPDEST PUSH10 0x31B7B73A3937B63632B9 PUSH1 0xB1 SHL DUP4 EQ DUP1 ISZERO PUSH2 0x60E JUMPI POP DUP2 ISZERO JUMPDEST ISZERO PUSH2 0x66C JUMPI PUSH1 0x40 MLOAD PUSH4 0x21F8A721 PUSH1 0xE0 SHL DUP2 MSTORE PUSH10 0x31B7B73A3937B63632B9 PUSH1 0xB1 SHL PUSH1 0x4 DUP3 ADD MSTORE PUSH32 0x0 PUSH1 0x1 PUSH1 0x1 PUSH1 0xA0 SHL SUB AND SWAP1 PUSH4 0x21F8A721 SWAP1 PUSH1 0x24 ADD PUSH2 0x5AC JUMP JUMPDEST PUSH17 0x34B7333630BA34B7B72FB6B0B730B3B2B9 PUSH1 0x79 SHL DUP4 EQ DUP1 ISZERO PUSH2 0x68D JUMPI POP DUP2 ISZERO JUMPDEST ISZERO PUSH2 0x6F1 JUMPI PUSH1 0x40 MLOAD PUSH4 0x21F8A721 PUSH1 0xE0 SHL DUP2 MSTORE PUSH16 0x34B7333630BA34B7B726B0B730B3B2B9 PUSH1 0x81 SHL PUSH1 0x4 DUP3 ADD MSTORE PUSH32 0x0 PUSH1 0x1 PUSH1 0x1 PUSH1 0xA0 SHL SUB AND SWAP1 PUSH4 0x21F8A721 SWAP1 PUSH1 0x24 ADD PUSH2 0x5AC JUMP JUMPDEST PUSH4 0x1C1BDBDB PUSH1 0xE2 SHL DUP4 EQ ISZERO PUSH2 0x74D JUMPI PUSH1 0x40 MLOAD PUSH4 0x4042D63 PUSH1 0xE2 SHL DUP2 MSTORE PUSH1 0x4 DUP2 ADD DUP4 SWAP1 MSTORE PUSH32 0x0 PUSH1 0x1 PUSH1 0x1 PUSH1 0xA0 SHL SUB AND SWAP1 PUSH4 0x1010B58C SWAP1 PUSH1 0x24 ADD PUSH2 0x5AC JUMP JUMPDEST PUSH5 0x1D985D5B1D PUSH1 0xDA SHL DUP4 EQ ISZERO PUSH2 0x7AA JUMPI PUSH1 0x40 MLOAD PUSH4 0x672271D PUSH1 0xE1 SHL DUP2 MSTORE PUSH1 0x4 DUP2 ADD DUP4 SWAP1 MSTORE PUSH32 0x0 PUSH1 0x1 PUSH1 0x1 PUSH1 0xA0 SHL SUB AND SWAP1 PUSH4 0xCE44E3A SWAP1 PUSH1 0x24 ADD PUSH2 0x5AC JUMP JUMPDEST PUSH6 0x30B1BA34B7B7 PUSH1 0xD1 SHL DUP4 EQ ISZERO PUSH2 0x808 JUMPI PUSH1 0x40 MLOAD PUSH4 0xB5320E63 PUSH1 0xE0 SHL DUP2 MSTORE PUSH1 0x4 DUP2 ADD DUP4 SWAP1 MSTORE PUSH32 0x0 PUSH1 0x1 PUSH1 0x1 PUSH1 0xA0 SHL SUB AND SWAP1 PUSH4 0xB5320E63 SWAP1 PUSH1 0x24 ADD PUSH2 0x5AC JUMP JUMPDEST PUSH1 0x0 DUP4 DUP2 MSTORE PUSH1 0x1 PUSH1 0x20 MSTORE PUSH1 0x40 SWAP1 KECCAK256 PUSH2 0x820 SWAP1 DUP4 PUSH2 0x1172 JUMP JUMPDEST SWAP1 POP JUMPDEST SWAP3 SWAP2 POP POP JUMP JUMPDEST PUSH1 0x0 PUSH16 0x30B2323932B9B9AFB83937BB34B232B9 PUSH1 0x81 SHL DUP4 EQ ISZERO PUSH2 0x882 JUMPI PUSH32 0x0 PUSH1 0x1 PUSH1 0x1 PUSH1 0xA0 SHL SUB AND DUP3 PUSH1 0x1 PUSH1 0x1 PUSH1 0xA0 SHL SUB AND EQ SWAP1 POP PUSH2 0x823 JUMP JUMPDEST PUSH12 0x706F6F6C5F666163746F7279 PUSH1 0xA0 SHL DUP4 EQ ISZERO PUSH2 0x952 JUMPI PUSH1 0x40 MLOAD PUSH4 0xE6DC9E2B PUSH1 0xE0 SHL DUP2 MSTORE PUSH11 0x706F6F6C466163746F7279 PUSH1 0xA8 SHL PUSH1 0x4 DUP3 ADD MSTORE PUSH1 0x0 PUSH1 0x24 DUP3 ADD MSTORE PUSH32 0x0 PUSH1 0x1 PUSH1 0x1 PUSH1 0xA0 SHL SUB AND SWAP1 PUSH4 0xE6DC9E2B SWAP1 PUSH1 0x44 ADD JUMPDEST PUSH1 0x20 PUSH1 0x40 MLOAD DUP1 DUP4 SUB DUP2 DUP7 GAS STATICCALL ISZERO DUP1 ISZERO PUSH2 0x913 JUMPI RETURNDATASIZE PUSH1 0x0 DUP1 RETURNDATACOPY RETURNDATASIZE PUSH1 0x0 REVERT JUMPDEST POP POP POP POP PUSH1 0x40 MLOAD RETURNDATASIZE PUSH1 0x1F NOT PUSH1 0x1F DUP3 ADD AND DUP3 ADD DUP1 PUSH1 0x40 MSTORE POP DUP2 ADD SWAP1 PUSH2 0x937 SWAP2 SWAP1 PUSH2 0x1505 JUMP JUMPDEST PUSH1 0x1 PUSH1 0x1 PUSH1 0xA0 SHL SUB AND DUP3 PUSH1 0x1 PUSH1 0x1 PUSH1 0xA0 SHL SUB AND EQ SWAP1 POP PUSH2 0x823 JUMP JUMPDEST PUSH10 0x31B7B73A3937B63632B9 PUSH1 0xB1 SHL DUP4 EQ ISZERO PUSH2 0x9C7 JUMPI PUSH1 0x40 MLOAD PUSH4 0xE6DC9E2B PUSH1 0xE0 SHL DUP2 MSTORE PUSH10 0x31B7B73A3937B63632B9 PUSH1 0xB1 SHL PUSH1 0x4 DUP3 ADD MSTORE PUSH1 0x0 PUSH1 0x24 DUP3 ADD MSTORE PUSH32 0x0 PUSH1 0x1 PUSH1 0x1 PUSH1 0xA0 SHL SUB AND SWAP1 PUSH4 0xE6DC9E2B SWAP1 PUSH1 0x44 ADD PUSH2 0x8F6 JUMP JUMPDEST PUSH17 0x34B7333630BA34B7B72FB6B0B730B3B2B9 PUSH1 0x79 SHL DUP4 EQ ISZERO PUSH2 0xA49 JUMPI PUSH1 0x40 MLOAD PUSH4 0xE6DC9E2B PUSH1 0xE0 SHL DUP2 MSTORE PUSH16 0x34B7333630BA34B7B726B0B730B3B2B9 PUSH1 0x81 SHL PUSH1 0x4 DUP3 ADD MSTORE PUSH1 0x0 PUSH1 0x24 DUP3 ADD MSTORE PUSH32 0x0 PUSH1 0x1 PUSH1 0x1 PUSH1 0xA0 SHL SUB AND SWAP1 PUSH4 0xE6DC9E2B SWAP1 PUSH1 0x44 ADD PUSH2 0x8F6 JUMP JUMPDEST PUSH11 0x6D61696E74656E616E6365 PUSH1 0xA8 SHL DUP4 EQ ISZERO PUSH2 0xACA JUMPI PUSH1 0x0 DUP4 DUP2 MSTORE PUSH1 0x20 DUP2 DUP2 MSTORE PUSH1 0x40 DUP1 DUP4 KECCAK256 PUSH1 0x1 PUSH1 0x1 PUSH1 0xA0 SHL SUB DUP7 AND DUP5 MSTORE SWAP1 SWAP2 MSTORE SWAP1 KECCAK256 SLOAD PUSH1 0xFF AND DUP1 PUSH2 0x5ED JUMPI POP POP PUSH1 0x1 PUSH1 0x1 PUSH1 0xA0 SHL SUB DUP2 AND PUSH1 0x0 SWAP1 DUP2 MSTORE PUSH32 0xC3CF2DC2D928647EF9C1D0954E35884E3E3511CEF6652C491E0546F1F9307153 PUSH1 0x20 MSTORE PUSH1 0x40 SWAP1 KECCAK256 SLOAD PUSH1 0xFF AND PUSH2 0x823 JUMP JUMPDEST PUSH4 0x1C1BDBDB PUSH1 0xE2 SHL DUP4 EQ ISZERO PUSH2 0xB64 JUMPI PUSH1 0x40 MLOAD PUSH4 0x5B16EBB7 PUSH1 0xE0 SHL DUP2 MSTORE PUSH1 0x1 PUSH1 0x1 PUSH1 0xA0 SHL SUB DUP4 DUP2 AND PUSH1 0x4 DUP4 ADD MSTORE PUSH32 0x0 AND SWAP1 PUSH4 0x5B16EBB7 SWAP1 PUSH1 0x24 ADD JUMPDEST PUSH1 0x20 PUSH1 0x40 MLOAD DUP1 DUP4 SUB DUP2 DUP7 GAS STATICCALL ISZERO DUP1 ISZERO PUSH2 0xB40 JUMPI RETURNDATASIZE PUSH1 0x0 DUP1 RETURNDATACOPY RETURNDATASIZE PUSH1 0x0 REVERT JUMPDEST POP POP POP POP PUSH1 0x40 MLOAD RETURNDATASIZE PUSH1 0x1F NOT PUSH1 0x1F DUP3 ADD AND DUP3 ADD DUP1 PUSH1 0x40 MSTORE POP DUP2 ADD SWAP1 PUSH2 0x5ED SWAP2 SWAP1 PUSH2 0x1522 JUMP JUMPDEST PUSH5 0x1D985D5B1D PUSH1 0xDA SHL DUP4 EQ ISZERO PUSH2 0xBC2 JUMPI PUSH1 0x40 MLOAD PUSH4 0x652B9B41 PUSH1 0xE0 SHL DUP2 MSTORE PUSH1 0x1 PUSH1 0x1 PUSH1 0xA0 SHL SUB DUP4 DUP2 AND PUSH1 0x4 DUP4 ADD MSTORE PUSH32 0x0 AND SWAP1 PUSH4 0x652B9B41 SWAP1 PUSH1 0x24 ADD PUSH2 0xB23 JUMP JUMPDEST PUSH6 0x30B1BA34B7B7 PUSH1 0xD1 SHL DUP4 EQ ISZERO PUSH2 0xC21 JUMPI PUSH1 0x40 MLOAD PUSH4 0x622E68CB PUSH1 0xE0 SHL DUP2 MSTORE PUSH1 0x1 PUSH1 0x1 PUSH1 0xA0 SHL SUB DUP4 DUP2 AND PUSH1 0x4 DUP4 ADD MSTORE PUSH32 0x0 AND SWAP1 PUSH4 0x622E68CB SWAP1 PUSH1 0x24 ADD PUSH2 0xB23 JUMP JUMPDEST POP PUSH1 0x0 SWAP2 DUP3 MSTORE PUSH1 0x20 DUP3 DUP2 MSTORE PUSH1 0x40 DUP1 DUP5 KECCAK256 PUSH1 0x1 PUSH1 0x1 PUSH1 0xA0 SHL SUB SWAP4 SWAP1 SWAP4 AND DUP5 MSTORE SWAP2 SWAP1 MSTORE SWAP1 KECCAK256 SLOAD PUSH1 0xFF AND SWAP1 JUMP JUMPDEST PUSH1 0x0 PUSH2 0xC57 DUP6 DUP4 PUSH2 0x829 JUMP JUMPDEST DUP1 PUSH2 0xC67 JUMPI POP PUSH2 0xC67 DUP5 DUP4 PUSH2 0x829 JUMP JUMPDEST DUP1 PUSH2 0xC77 JUMPI POP PUSH2 0xC77 DUP4 DUP4 PUSH2 0x829 JUMP JUMPDEST SWAP6 SWAP5 POP POP POP POP POP JUMP JUMPDEST PUSH1 0x0 DUP1 JUMPDEST DUP4 DUP2 LT ISZERO PUSH2 0xCC5 JUMPI PUSH2 0xCAE DUP6 DUP6 DUP4 DUP2 DUP2 LT PUSH2 0xCA1 JUMPI PUSH2 0xCA1 PUSH2 0x1544 JUMP JUMPDEST SWAP1 POP PUSH1 0x20 MUL ADD CALLDATALOAD DUP5 PUSH2 0x829 JUMP JUMPDEST ISZERO PUSH2 0xCBD JUMPI PUSH1 0x1 SWAP2 POP POP PUSH2 0xCCB JUMP JUMPDEST PUSH1 0x1 ADD PUSH2 0xC84 JUMP JUMPDEST POP PUSH1 0x0 SWAP1 POP JUMPDEST SWAP4 SWAP3 POP POP POP JUMP JUMPDEST PUSH2 0xCE9 PUSH10 0x676F7665726E616E6365 PUSH1 0xB0 SHL CALLER PUSH2 0x829 JUMP JUMPDEST PUSH1 0x40 MLOAD DUP1 PUSH1 0x40 ADD PUSH1 0x40 MSTORE DUP1 PUSH1 0x13 DUP2 MSTORE PUSH1 0x20 ADD PUSH19 0x756E617574686F72697A656420616363657373 PUSH1 0x68 SHL DUP2 MSTORE POP SWAP1 PUSH2 0xD33 JUMPI PUSH1 0x40 MLOAD PUSH3 0x461BCD PUSH1 0xE5 SHL DUP2 MSTORE PUSH1 0x4 ADD PUSH2 0x295 SWAP2 SWAP1 PUSH2 0x14B0 JUMP JUMPDEST POP PUSH2 0x326 PUSH9 0x67617567655F7A617 PUSH1 0xBC SHL DUP3 PUSH2 0x107C JUMP JUMPDEST PUSH1 0x0 PUSH16 0x30B2323932B9B9AFB83937BB34B232B9 PUSH1 0x81 SHL DUP3 EQ DUP1 PUSH2 0xD7B JUMPI POP PUSH12 0x706F6F6C5F666163746F7279 PUSH1 0xA0 SHL DUP3 EQ JUMPDEST DUP1 PUSH2 0xD92 JUMPI POP PUSH10 0x31B7B73A3937B63632B9 PUSH1 0xB1 SHL DUP3 EQ JUMPDEST DUP1 PUSH2 0xDB0 JUMPI POP PUSH17 0x34B7333630BA34B7B72FB6B0B730B3B2B9 PUSH1 0x79 SHL DUP3 EQ JUMPDEST ISZERO PUSH2 0xDBD JUMPI POP PUSH1 0x1 SWAP2 SWAP1 POP JUMP JUMPDEST PUSH4 0x1C1BDBDB PUSH1 0xE2 SHL DUP3 EQ ISZERO PUSH2 0xE4E JUMPI PUSH32 0x0 PUSH1 0x1 PUSH1 0x1 PUSH1 0xA0 SHL SUB AND PUSH4 0x8C788DE0 PUSH1 0x40 MLOAD DUP2 PUSH4 0xFFFFFFFF AND PUSH1 0xE0 SHL DUP2 MSTORE PUSH1 0x4 ADD PUSH1 0x20 PUSH1 0x40 MLOAD DUP1 DUP4 SUB DUP2 DUP7 GAS STATICCALL ISZERO DUP1 ISZERO PUSH2 0xE2A JUMPI RETURNDATASIZE PUSH1 0x0 DUP1 RETURNDATACOPY RETURNDATASIZE PUSH1 0x0 REVERT JUMPDEST POP POP POP POP PUSH1 0x40 MLOAD RETURNDATASIZE PUSH1 0x1F NOT PUSH1 0x1F DUP3 ADD AND DUP3 ADD DUP1 PUSH1 0x40 MSTORE POP DUP2 ADD SWAP1 PUSH2 0x823 SWAP2 SWAP1 PUSH2 0x155A JUMP JUMPDEST PUSH5 0x1D985D5B1D PUSH1 0xDA SHL DUP3 EQ ISZERO PUSH2 0xEBC JUMPI PUSH32 0x0 PUSH1 0x1 PUSH1 0x1 PUSH1 0xA0 SHL SUB AND PUSH4 0x88977738 PUSH1 0x40 MLOAD DUP2 PUSH4 0xFFFFFFFF AND PUSH1 0xE0 SHL DUP2 MSTORE PUSH1 0x4 ADD PUSH1 0x20 PUSH1 0x40 MLOAD DUP1 DUP4 SUB DUP2 DUP7 GAS STATICCALL ISZERO DUP1 ISZERO PUSH2 0xE2A JUMPI RETURNDATASIZE PUSH1 0x0 DUP1 RETURNDATACOPY RETURNDATASIZE PUSH1 0x0 REVERT JUMPDEST PUSH6 0x30B1BA34B7B7 PUSH1 0xD1 SHL DUP3 EQ ISZERO PUSH2 0xF2B JUMPI PUSH32 0x0 PUSH1 0x1 PUSH1 0x1 PUSH1 0xA0 SHL SUB AND PUSH4 0x9BCCFE49 PUSH1 0x40 MLOAD DUP2 PUSH4 0xFFFFFFFF AND PUSH1 0xE0 SHL DUP2 MSTORE PUSH1 0x4 ADD PUSH1 0x20 PUSH1 0x40 MLOAD DUP1 DUP4 SUB DUP2 DUP7 GAS STATICCALL ISZERO DUP1 ISZERO PUSH2 0xE2A JUMPI RETURNDATASIZE PUSH1 0x0 DUP1 RETURNDATACOPY RETURNDATASIZE PUSH1 0x0 REVERT JUMPDEST PUSH1 0x0 DUP3 DUP2 MSTORE PUSH1 0x1 PUSH1 0x20 MSTORE PUSH1 0x40 SWAP1 KECCAK256 PUSH2 0x823 SWAP1 PUSH2 0x117E JUMP JUMPDEST PUSH2 0xF59 PUSH10 0x676F7665726E616E6365 PUSH1 0xB0 SHL CALLER PUSH2 0x829 JUMP JUMPDEST PUSH1 0x40 MLOAD DUP1 PUSH1 0x40 ADD PUSH1 0x40 MSTORE DUP1 PUSH1 0x13 DUP2 MSTORE PUSH1 0x20 ADD PUSH19 0x756E617574686F72697A656420616363657373 PUSH1 0x68 SHL DUP2 MSTORE POP SWAP1 PUSH2 0xFA3 JUMPI PUSH1 0x40 MLOAD PUSH3 0x461BCD PUSH1 0xE5 SHL DUP2 MSTORE PUSH1 0x4 ADD PUSH2 0x295 SWAP2 SWAP1 PUSH2 0x14B0 JUMP JUMPDEST POP PUSH1 0x40 DUP1 MLOAD DUP1 DUP3 ADD SWAP1 SWAP2 MSTORE PUSH1 0x12 DUP2 MSTORE PUSH18 0x63616E6E6F74207265766F6B6520726F6C65 PUSH1 0x70 SHL PUSH1 0x20 DUP3 ADD MSTORE PUSH10 0x676F7665726E616E6365 PUSH1 0xB0 SHL DUP4 EQ ISZERO PUSH2 0xFFB JUMPI PUSH1 0x40 MLOAD PUSH3 0x461BCD PUSH1 0xE5 SHL DUP2 MSTORE PUSH1 0x4 ADD PUSH2 0x295 SWAP2 SWAP1 PUSH2 0x14B0 JUMP JUMPDEST POP PUSH2 0x1006 DUP3 DUP3 PUSH2 0x829 JUMP JUMPDEST PUSH1 0x40 MLOAD DUP1 PUSH1 0x40 ADD PUSH1 0x40 MSTORE DUP1 PUSH1 0x10 DUP2 MSTORE PUSH1 0x20 ADD PUSH16 0x1A5B9D985B1A5908185C99DD5B595B9D PUSH1 0x82 SHL DUP2 MSTORE POP SWAP1 PUSH2 0x104D JUMPI PUSH1 0x40 MLOAD PUSH3 0x461BCD PUSH1 0xE5 SHL DUP2 MSTORE PUSH1 0x4 ADD PUSH2 0x295 SWAP2 SWAP1 PUSH2 0x14B0 JUMP JUMPDEST POP PUSH2 0x2A9 DUP3 DUP3 PUSH2 0x10F9 JUMP JUMPDEST PUSH1 0x0 PUSH2 0x1064 DUP5 DUP4 PUSH2 0x829 JUMP JUMPDEST DUP1 PUSH2 0x1074 JUMPI POP PUSH2 0x1074 DUP4 DUP4 PUSH2 0x829 JUMP JUMPDEST SWAP5 SWAP4 POP POP POP POP JUMP JUMPDEST PUSH1 0x0 DUP3 DUP2 MSTORE PUSH1 0x20 DUP2 DUP2 MSTORE PUSH1 0x40 DUP1 DUP4 KECCAK256 PUSH1 0x1 PUSH1 0x1 PUSH1 0xA0 SHL SUB DUP6 AND DUP5 MSTORE DUP3 MSTORE DUP1 DUP4 KECCAK256 DUP1 SLOAD PUSH1 0xFF NOT AND PUSH1 0x1 SWAP1 DUP2 OR SWAP1 SWAP2 SSTORE DUP6 DUP5 MSTORE SWAP1 SWAP2 MSTORE SWAP1 KECCAK256 PUSH2 0x10BC SWAP1 DUP3 PUSH2 0x1188 JUMP JUMPDEST POP PUSH1 0x40 MLOAD CALLER SWAP1 PUSH1 0x1 PUSH1 0x1 PUSH1 0xA0 SHL SUB DUP4 AND SWAP1 DUP5 SWAP1 PUSH32 0x2F8788117E7EFF1D82E926EC794901D17C78024A50270940304540A733656F0D SWAP1 PUSH1 0x0 SWAP1 LOG4 POP POP JUMP JUMPDEST PUSH1 0x0 DUP3 DUP2 MSTORE PUSH1 0x20 DUP2 DUP2 MSTORE PUSH1 0x40 DUP1 DUP4 KECCAK256 PUSH1 0x1 PUSH1 0x1 PUSH1 0xA0 SHL SUB DUP6 AND DUP5 MSTORE DUP3 MSTORE DUP1 DUP4 KECCAK256 DUP1 SLOAD PUSH1 0xFF NOT AND SWAP1 SSTORE DUP5 DUP4 MSTORE PUSH1 0x1 SWAP1 SWAP2 MSTORE SWAP1 KECCAK256 PUSH2 0x1135 SWAP1 DUP3 PUSH2 0x119D JUMP JUMPDEST POP PUSH1 0x40 MLOAD CALLER SWAP1 PUSH1 0x1 PUSH1 0x1 PUSH1 0xA0 SHL SUB DUP4 AND SWAP1 DUP5 SWAP1 PUSH32 0xF6391F5C32D9C69D2A47EA670B442974B53935D1EDC7FD64EB21E047A839171B SWAP1 PUSH1 0x0 SWAP1 LOG4 POP POP JUMP JUMPDEST PUSH1 0x0 PUSH2 0x820 DUP4 DUP4 PUSH2 0x11B2 JUMP JUMPDEST PUSH1 0x0 PUSH2 0x823 DUP3 SLOAD SWAP1 JUMP JUMPDEST PUSH1 0x0 PUSH2 0x820 DUP4 PUSH1 0x1 PUSH1 0x1 PUSH1 0xA0 SHL SUB DUP5 AND PUSH2 0x11DC JUMP JUMPDEST PUSH1 0x0 PUSH2 0x820 DUP4 PUSH1 0x1 PUSH1 0x1 PUSH1 0xA0 SHL SUB DUP5 AND PUSH2 0x122B JUMP JUMPDEST PUSH1 0x0 DUP3 PUSH1 0x0 ADD DUP3 DUP2 SLOAD DUP2 LT PUSH2 0x11C9 JUMPI PUSH2 0x11C9 PUSH2 0x1544 JUMP JUMPDEST SWAP1 PUSH1 0x0 MSTORE PUSH1 0x20 PUSH1 0x0 KECCAK256 ADD SLOAD SWAP1 POP SWAP3 SWAP2 POP POP JUMP JUMPDEST PUSH1 0x0 DUP2 DUP2 MSTORE PUSH1 0x1 DUP4 ADD PUSH1 0x20 MSTORE PUSH1 0x40 DUP2 KECCAK256 SLOAD PUSH2 0x1223 JUMPI POP DUP2 SLOAD PUSH1 0x1 DUP2 DUP2 ADD DUP5 SSTORE PUSH1 0x0 DUP5 DUP2 MSTORE PUSH1 0x20 DUP1 DUP3 KECCAK256 SWAP1 SWAP4 ADD DUP5 SWAP1 SSTORE DUP5 SLOAD DUP5 DUP3 MSTORE DUP3 DUP7 ADD SWAP1 SWAP4 MSTORE PUSH1 0x40 SWAP1 KECCAK256 SWAP2 SWAP1 SWAP2 SSTORE PUSH2 0x823 JUMP JUMPDEST POP PUSH1 0x0 PUSH2 0x823 JUMP JUMPDEST PUSH1 0x0 DUP2 DUP2 MSTORE PUSH1 0x1 DUP4 ADD PUSH1 0x20 MSTORE PUSH1 0x40 DUP2 KECCAK256 SLOAD DUP1 ISZERO PUSH2 0x1314 JUMPI PUSH1 0x0 PUSH2 0x124F PUSH1 0x1 DUP4 PUSH2 0x1573 JUMP JUMPDEST DUP6 SLOAD SWAP1 SWAP2 POP PUSH1 0x0 SWAP1 PUSH2 0x1263 SWAP1 PUSH1 0x1 SWAP1 PUSH2 0x1573 JUMP JUMPDEST SWAP1 POP DUP2 DUP2 EQ PUSH2 0x12C8 JUMPI PUSH1 0x0 DUP7 PUSH1 0x0 ADD DUP3 DUP2 SLOAD DUP2 LT PUSH2 0x1283 JUMPI PUSH2 0x1283 PUSH2 0x1544 JUMP JUMPDEST SWAP1 PUSH1 0x0 MSTORE PUSH1 0x20 PUSH1 0x0 KECCAK256 ADD SLOAD SWAP1 POP DUP1 DUP8 PUSH1 0x0 ADD DUP5 DUP2 SLOAD DUP2 LT PUSH2 0x12A6 JUMPI PUSH2 0x12A6 PUSH2 0x1544 JUMP JUMPDEST PUSH1 0x0 SWAP2 DUP3 MSTORE PUSH1 0x20 DUP1 DUP4 KECCAK256 SWAP1 SWAP2 ADD SWAP3 SWAP1 SWAP3 SSTORE SWAP2 DUP3 MSTORE PUSH1 0x1 DUP9 ADD SWAP1 MSTORE PUSH1 0x40 SWAP1 KECCAK256 DUP4 SWAP1 SSTORE JUMPDEST DUP6 SLOAD DUP7 SWAP1 DUP1 PUSH2 0x12D9 JUMPI PUSH2 0x12D9 PUSH2 0x1598 JUMP JUMPDEST PUSH1 0x1 SWAP1 SUB DUP2 DUP2 SWAP1 PUSH1 0x0 MSTORE PUSH1 0x20 PUSH1 0x0 KECCAK256 ADD PUSH1 0x0 SWAP1 SSTORE SWAP1 SSTORE DUP6 PUSH1 0x1 ADD PUSH1 0x0 DUP7 DUP2 MSTORE PUSH1 0x20 ADD SWAP1 DUP2 MSTORE PUSH1 0x20 ADD PUSH1 0x0 KECCAK256 PUSH1 0x0 SWAP1 SSTORE PUSH1 0x1 SWAP4 POP POP POP POP PUSH2 0x823 JUMP JUMPDEST PUSH1 0x0 SWAP2 POP POP PUSH2 0x823 JUMP JUMPDEST PUSH1 0x1 PUSH1 0x1 PUSH1 0xA0 SHL SUB DUP2 AND DUP2 EQ PUSH2 0x326 JUMPI PUSH1 0x0 DUP1 REVERT JUMPDEST PUSH1 0x0 DUP1 PUSH1 0x40 DUP4 DUP6 SUB SLT ISZERO PUSH2 0x1346 JUMPI PUSH1 0x0 DUP1 REVERT JUMPDEST DUP3 CALLDATALOAD SWAP2 POP PUSH1 0x20 DUP4 ADD CALLDATALOAD PUSH2 0x1358 DUP2 PUSH2 0x131E JUMP JUMPDEST DUP1 SWAP2 POP POP SWAP3 POP SWAP3 SWAP1 POP JUMP JUMPDEST PUSH1 0x0 PUSH1 0x20 DUP3 DUP5 SUB SLT ISZERO PUSH2 0x1375 JUMPI PUSH1 0x0 DUP1 REVERT JUMPDEST DUP2 CALLDATALOAD PUSH2 0xCCB DUP2 PUSH2 0x131E JUMP JUMPDEST PUSH1 0x0 DUP1 PUSH1 0x40 DUP4 DUP6 SUB SLT ISZERO PUSH2 0x1393 JUMPI PUSH1 0x0 DUP1 REVERT JUMPDEST POP POP DUP1 CALLDATALOAD SWAP3 PUSH1 0x20 SWAP1 SWAP2 ADD CALLDATALOAD SWAP2 POP JUMP JUMPDEST PUSH1 0x0 DUP1 PUSH1 0x0 DUP1 PUSH1 0x80 DUP6 DUP8 SUB SLT ISZERO PUSH2 0x13B8 JUMPI PUSH1 0x0 DUP1 REVERT JUMPDEST DUP5 CALLDATALOAD SWAP4 POP PUSH1 0x20 DUP6 ADD CALLDATALOAD SWAP3 POP PUSH1 0x40 DUP6 ADD CALLDATALOAD SWAP2 POP PUSH1 0x60 DUP6 ADD CALLDATALOAD PUSH2 0x13D8 DUP2 PUSH2 0x131E JUMP JUMPDEST SWAP4 SWAP7 SWAP3 SWAP6 POP SWAP1 SWAP4 POP POP JUMP JUMPDEST PUSH1 0x0 DUP1 PUSH1 0x0 PUSH1 0x40 DUP5 DUP7 SUB SLT ISZERO PUSH2 0x13F8 JUMPI PUSH1 0x0 DUP1 REVERT JUMPDEST DUP4 CALLDATALOAD PUSH8 0xFFFFFFFFFFFFFFFF DUP1 DUP3 GT ISZERO PUSH2 0x1410 JUMPI PUSH1 0x0 DUP1 REVERT JUMPDEST DUP2 DUP7 ADD SWAP2 POP DUP7 PUSH1 0x1F DUP4 ADD SLT PUSH2 0x1424 JUMPI PUSH1 0x0 DUP1 REVERT JUMPDEST DUP2 CALLDATALOAD DUP2 DUP2 GT ISZERO PUSH2 0x1433 JUMPI PUSH1 0x0 DUP1 REVERT JUMPDEST DUP8 PUSH1 0x20 DUP3 PUSH1 0x5 SHL DUP6 ADD ADD GT ISZERO PUSH2 0x1448 JUMPI PUSH1 0x0 DUP1 REVERT JUMPDEST PUSH1 0x20 SWAP3 DUP4 ADD SWAP6 POP SWAP4 POP POP DUP5 ADD CALLDATALOAD PUSH2 0x145E DUP2 PUSH2 0x131E JUMP JUMPDEST DUP1 SWAP2 POP POP SWAP3 POP SWAP3 POP SWAP3 JUMP JUMPDEST PUSH1 0x0 PUSH1 0x20 DUP3 DUP5 SUB SLT ISZERO PUSH2 0x147B JUMPI PUSH1 0x0 DUP1 REVERT JUMPDEST POP CALLDATALOAD SWAP2 SWAP1 POP JUMP JUMPDEST PUSH1 0x0 DUP1 PUSH1 0x0 PUSH1 0x60 DUP5 DUP7 SUB SLT ISZERO PUSH2 0x1497 JUMPI PUSH1 0x0 DUP1 REVERT JUMPDEST DUP4 CALLDATALOAD SWAP3 POP PUSH1 0x20 DUP5 ADD CALLDATALOAD SWAP2 POP PUSH1 0x40 DUP5 ADD CALLDATALOAD PUSH2 0x145E DUP2 PUSH2 0x131E JUMP JUMPDEST PUSH1 0x0 PUSH1 0x20 DUP1 DUP4 MSTORE DUP4 MLOAD DUP1 DUP3 DUP6 ADD MSTORE PUSH1 0x0 JUMPDEST DUP2 DUP2 LT ISZERO PUSH2 0x14DD JUMPI DUP6 DUP2 ADD DUP4 ADD MLOAD DUP6 DUP3 ADD PUSH1 0x40 ADD MSTORE DUP3 ADD PUSH2 0x14C1 JUMP JUMPDEST DUP2 DUP2 GT ISZERO PUSH2 0x14EF JUMPI PUSH1 0x0 PUSH1 0x40 DUP4 DUP8 ADD ADD MSTORE JUMPDEST POP PUSH1 0x1F ADD PUSH1 0x1F NOT AND SWAP3 SWAP1 SWAP3 ADD PUSH1 0x40 ADD SWAP4 SWAP3 POP POP POP JUMP JUMPDEST PUSH1 0x0 PUSH1 0x20 DUP3 DUP5 SUB SLT ISZERO PUSH2 0x1517 JUMPI PUSH1 0x0 DUP1 REVERT JUMPDEST DUP2 MLOAD PUSH2 0xCCB DUP2 PUSH2 0x131E JUMP JUMPDEST PUSH1 0x0 PUSH1 0x20 DUP3 DUP5 SUB SLT ISZERO PUSH2 0x1534 JUMPI PUSH1 0x0 DUP1 REVERT JUMPDEST DUP2 MLOAD DUP1 ISZERO ISZERO DUP2 EQ PUSH2 0xCCB JUMPI PUSH1 0x0 DUP1 REVERT JUMPDEST PUSH4 0x4E487B71 PUSH1 0xE0 SHL PUSH1 0x0 MSTORE PUSH1 0x32 PUSH1 0x4 MSTORE PUSH1 0x24 PUSH1 0x0 REVERT JUMPDEST PUSH1 0x0 PUSH1 0x20 DUP3 DUP5 SUB SLT ISZERO PUSH2 0x156C JUMPI PUSH1 0x0 DUP1 REVERT JUMPDEST POP MLOAD SWAP2 SWAP1 POP JUMP JUMPDEST PUSH1 0x0 DUP3 DUP3 LT ISZERO PUSH2 0x1593 JUMPI PUSH4 0x4E487B71 PUSH1 0xE0 SHL PUSH1 0x0 MSTORE PUSH1 0x11 PUSH1 0x4 MSTORE PUSH1 0x24 PUSH1 0x0 REVERT JUMPDEST POP SUB SWAP1 JUMP JUMPDEST PUSH4 0x4E487B71 PUSH1 0xE0 SHL PUSH1 0x0 MSTORE PUSH1 0x31 PUSH1 0x4 MSTORE PUSH1 0x24 PUSH1 0x0 REVERT INVALID PUSH4 0x6F6E7472 PUSH2 0x6374 KECCAK256 PUSH4 0x616E206F PUSH15 0x6C7920626520696E697469616C697A PUSH6 0x64206F6E6365 LOG2 PUSH5 0x6970667358 0x22 SLT KECCAK256 DIFFICULTY PUSH2 0xDD6 DUP16 PUSH16 0xA4C2938CB90BDE37D79F477C59144352 SWAP4 0xE6 PUSH9 0x84E536F748CEBC6473 PUSH16 0x6C634300080A00330000000000000000 ","sha1":"a78dbfb4bb89ad24141f81dd1633051ebf5fb4f6","source":"// SPDX-License-Identifier: GPL-3.0-or-later\npragma solidity 0.8.10;\n\nimport \"@openzeppelin/contracts/utils/structs/EnumerableSet.sol\";\n\nimport \"../../interfaces/IAddressProvider.sol\";\nimport \"../../interfaces/IRoleManager.sol\";\n\nimport \"../../libraries/Roles.sol\";\nimport \"../../libraries/Errors.sol\";\nimport \"../../libraries/AddressProviderKeys.sol\";\nimport \"../../libraries/UncheckedMath.sol\";\n\ncontract RoleManager is IRoleManager {\n    using UncheckedMath for uint256;\n    using EnumerableSet for EnumerableSet.AddressSet;\n\n    struct RoleData {\n        mapping(address => bool) members;\n        bytes32 adminRole;\n    }\n    mapping(bytes32 => RoleData) private _roles;\n    mapping(bytes32 => EnumerableSet.AddressSet) private _roleMembers;\n\n    IAddressProvider public immutable addressProvider;\n\n    modifier onlyGovernance() {\n        require(hasRole(Roles.GOVERNANCE, msg.sender), Error.UNAUTHORIZED_ACCESS);\n        _;\n    }\n\n    constructor(IAddressProvider _addressProvider) {\n        addressProvider = _addressProvider;\n    }\n\n    function initialize() external override {\n        require(getRoleMemberCount(Roles.GOVERNANCE) == 0, Error.CONTRACT_INITIALIZED);\n        _grantRole(Roles.GOVERNANCE, msg.sender);\n    }\n\n    function grantRole(bytes32 role, address account) external override onlyGovernance {\n        _grantRole(role, account);\n    }\n\n    function addGovernor(address newGovernor) external override onlyGovernance {\n        _grantRole(Roles.GOVERNANCE, newGovernor);\n    }\n\n    function renounceGovernance() external override onlyGovernance {\n        require(getRoleMemberCount(Roles.GOVERNANCE) > 1, Error.CANNOT_REVOKE_ROLE);\n        _revokeRole(Roles.GOVERNANCE, msg.sender);\n    }\n\n    function addGaugeZap(address zap) external override onlyGovernance {\n        _grantRole(Roles.GAUGE_ZAP, zap);\n    }\n\n    function removeGaugeZap(address zap) external override onlyGovernance {\n        revokeRole(Roles.GAUGE_ZAP, zap);\n    }\n\n    function hasAnyRole(\n        bytes32 role1,\n        bytes32 role2,\n        address account\n    ) external view returns (bool) {\n        return hasRole(role1, account) || hasRole(role2, account);\n    }\n\n    function hasAnyRole(\n        bytes32 role1,\n        bytes32 role2,\n        bytes32 role3,\n        address account\n    ) external view returns (bool) {\n        return hasRole(role1, account) || hasRole(role2, account) || hasRole(role3, account);\n    }\n\n    function hasAnyRole(bytes32[] calldata roles, address account)\n        external\n        view\n        virtual\n        override\n        returns (bool)\n    {\n        for (uint256 i; i < roles.length; i = i.uncheckedInc()) {\n            if (hasRole(roles[i], account)) {\n                return true;\n            }\n        }\n        return false;\n    }\n\n    function getRoleMember(bytes32 role, uint256 index)\n        external\n        view\n        virtual\n        override\n        returns (address)\n    {\n        if (role == Roles.ADDRESS_PROVIDER && index == 0) {\n            return address(addressProvider);\n        } else if (role == Roles.POOL_FACTORY && index == 0) {\n            return addressProvider.getAddress(AddressProviderKeys._POOL_FACTORY_KEY);\n        } else if (role == Roles.CONTROLLER && index == 0) {\n            return addressProvider.getAddress(AddressProviderKeys._CONTROLLER_KEY);\n        } else if (role == Roles.INFLATION_MANAGER && index == 0) {\n            return addressProvider.getAddress(AddressProviderKeys._INFLATION_MANAGER_KEY);\n        } else if (role == Roles.POOL) {\n            return addressProvider.getPoolAtIndex(index);\n        } else if (role == Roles.VAULT) {\n            return addressProvider.getVaultAtIndex(index);\n        } else if (role == Roles.ACTION) {\n            return addressProvider.getActionAtIndex(index);\n        }\n        return _roleMembers[role].at(index);\n    }\n\n    function revokeRole(bytes32 role, address account) public onlyGovernance {\n        require(role != Roles.GOVERNANCE, Error.CANNOT_REVOKE_ROLE);\n        require(hasRole(role, account), Error.INVALID_ARGUMENT);\n        _revokeRole(role, account);\n    }\n\n    function getRoleMemberCount(bytes32 role) public view virtual override returns (uint256) {\n        if (\n            role == Roles.ADDRESS_PROVIDER ||\n            role == Roles.POOL_FACTORY ||\n            role == Roles.CONTROLLER ||\n            role == Roles.INFLATION_MANAGER\n        ) {\n            return 1;\n        }\n        if (role == Roles.POOL) {\n            return addressProvider.poolsCount();\n        }\n        if (role == Roles.VAULT) {\n            return addressProvider.vaultsCount();\n        }\n        if (role == Roles.ACTION) {\n            return addressProvider.actionsCount();\n        }\n        return _roleMembers[role].length();\n    }\n\n    function hasRole(bytes32 role, address account) public view virtual override returns (bool) {\n        if (role == Roles.ADDRESS_PROVIDER) {\n            return account == address(addressProvider);\n        } else if (role == Roles.POOL_FACTORY) {\n            return\n                account == addressProvider.getAddress(AddressProviderKeys._POOL_FACTORY_KEY, false);\n        } else if (role == Roles.CONTROLLER) {\n            return\n                account == addressProvider.getAddress(AddressProviderKeys._CONTROLLER_KEY, false);\n        } else if (role == Roles.INFLATION_MANAGER) {\n            return\n                account ==\n                addressProvider.getAddress(AddressProviderKeys._INFLATION_MANAGER_KEY, false);\n        } else if (role == Roles.MAINTENANCE) {\n            return _roles[role].members[account] || _roles[Roles.GOVERNANCE].members[account];\n        } else if (role == Roles.POOL) {\n            return addressProvider.isPool(account);\n        } else if (role == Roles.VAULT) {\n            return addressProvider.isVault(account);\n        } else if (role == Roles.ACTION) {\n            return addressProvider.isAction(account);\n        }\n        return _roles[role].members[account];\n    }\n\n    function _grantRole(bytes32 role, address account) internal {\n        _roles[role].members[account] = true;\n        _roleMembers[role].add(account);\n        emit RoleGranted(role, account, msg.sender);\n    }\n\n    function _revokeRole(bytes32 role, address account) internal {\n        delete _roles[role].members[account];\n        _roleMembers[role].remove(account);\n        emit RoleRevoked(role, account, msg.sender);\n    }\n}\n","sourcePath":"contracts/access/RoleManager.sol","type":"contract","deployment":{"address":"0xB4a0D5F6722f5aFff59643344B981E963Ae520A3","chainid":"42","blockHeight":33231413}}