{"abi":[{"inputs":[{"internalType":"address","name":"addressProvider_","type":"address"}],"stateMutability":"nonpayable","type":"constructor","name":"constructor"},{"inputs":[{"internalType":"address","name":"pool_","type":"address"}],"name":"exchangeRateIncludingHarvestable","outputs":[{"internalType":"uint256","name":"","type":"uint256"}],"stateMutability":"view","type":"function"},{"inputs":[],"name":"exchangeRatesIncludingHarvestable","outputs":[{"components":[{"internalType":"address","name":"pool","type":"address"},{"internalType":"uint256","name":"exchangeRate","type":"uint256"}],"internalType":"struct IApyHelper.PoolExchangeRate[]","name":"","type":"tuple[]"}],"stateMutability":"view","type":"function"}],"bytecode":"608060405234801561001057600080fd5b506040516107e73803806107e783398101604081905261002f91610054565b600080546001600160a01b0319166001600160a01b0392909216919091179055610084565b60006020828403121561006657600080fd5b81516001600160a01b038116811461007d57600080fd5b9392505050565b610754806100936000396000f3fe608060405234801561001057600080fd5b50600436106100365760003560e01c8063397095041461003b5780634865160114610061575b600080fd5b61004e61004936600461050f565b610076565b6040519081526020015b60405180910390f35b61006961036c565b604051610058919061052c565b600080826001600160a01b031663c70920bc6040518163ffffffff1660e01b8152600401602060405180830381865afa1580156100b7573d6000803e3d6000fd5b505050506040513d601f19601f820116820180604052508101906100db9190610584565b9050806100f25750670de0b6b3a764000092915050565b6000836001600160a01b0316638214f5a46040518163ffffffff1660e01b8152600401602060405180830381865afa158015610132573d6000803e3d6000fd5b505050506040513d601f19601f8201168201806040525081019061015691906105ad565b90506000816001600160a01b03166318160ddd6040518163ffffffff1660e01b8152600401602060405180830381865afa158015610198573d6000803e3d6000fd5b505050506040513d601f19601f820116820180604052508101906101bc9190610584565b9050806101d55750670de0b6b3a7640000949350505050565b6000856001600160a01b031663fbfa77cf6040518163ffffffff1660e01b8152600401602060405180830381865afa158015610215573d6000803e3d6000fd5b505050506040513d601f19601f8201168201806040525081019061023991906105ad565b90506001600160a01b03811661025d5761025384836104d1565b9695505050505050565b6000816001600160a01b031663a8c62e766040518163ffffffff1660e01b8152600401602060405180830381865afa15801561029d573d6000803e3d6000fd5b505050506040513d601f19601f820116820180604052508101906102c191906105ad565b90506001600160a01b0381166102e6576102db85846104d1565b979650505050505050565b6000816001600160a01b031663dbbd47d46040518163ffffffff1660e01b8152600401602060405180830381865afa158015610326573d6000803e3d6000fd5b505050506040513d601f19601f8201168201806040525081019061034a9190610584565b90506103608461035a83896105e0565b906104d1565b98975050505050505050565b600080546040805163c5c63e6560e01b81529051606093926001600160a01b03169163c5c63e6591600480830192869291908290030181865afa1580156103b7573d6000803e3d6000fd5b505050506040513d6000823e601f3d908101601f191682016040526103df919081019061060e565b90506000815167ffffffffffffffff8111156103fd576103fd6105f8565b60405190808252806020026020018201604052801561044257816020015b604080518082019091526000808252602082015281526020019060019003908161041b5790505b50905060005b82518110156104ca576000838281518110610465576104656106c7565b60200260200101519050600061047a82610076565b90506040518060400160405280836001600160a01b03168152602001828152508484815181106104ac576104ac6106c7565b602002602001018190525050506104c38160010190565b9050610448565b5092915050565b6000816104e6670de0b6b3a7640000856106dd565b6104f091906106fc565b9392505050565b6001600160a01b038116811461050c57600080fd5b50565b60006020828403121561052157600080fd5b81356104f0816104f7565b602080825282518282018190526000919060409081850190868401855b8281101561057757815180516001600160a01b03168552860151868501529284019290850190600101610549565b5091979650505050505050565b60006020828403121561059657600080fd5b5051919050565b80516105a8816104f7565b919050565b6000602082840312156105bf57600080fd5b81516104f0816104f7565b634e487b7160e01b600052601160045260246000fd5b600082198211156105f3576105f36105ca565b500190565b634e487b7160e01b600052604160045260246000fd5b6000602080838503121561062157600080fd5b825167ffffffffffffffff8082111561063957600080fd5b818501915085601f83011261064d57600080fd5b81518181111561065f5761065f6105f8565b8060051b604051601f19603f83011681018181108582111715610684576106846105f8565b6040529182528482019250838101850191888311156106a257600080fd5b938501935b82851015610360576106b88561059d565b845293850193928501926106a7565b634e487b7160e01b600052603260045260246000fd5b60008160001904831182151516156106f7576106f76105ca565b500290565b60008261071957634e487b7160e01b600052601260045260246000fd5b50049056fea26469706673582212202646b6229a8c5d7b1be9575acb059e1a6d7c3af54a610caaba42fc2db2ef2ac664736f6c634300080a0033","bytecodeSha1":"4a6c48caf98067924e45f546d6fdf4f657a76051","compiler":{"evm_version":"london","optimizer":{"enabled":true,"runs":200},"version":"0.8.10+commit.fc410830"},"contractName":"ApyHelper","language":"Solidity","natspec":{"kind":"dev","methods":{},"version":1},"opcodes":"PUSH1 0x80 PUSH1 0x40 MSTORE CALLVALUE DUP1 ISZERO PUSH2 0x10 JUMPI PUSH1 0x0 DUP1 REVERT JUMPDEST POP PUSH1 0x4 CALLDATASIZE LT PUSH2 0x36 JUMPI PUSH1 0x0 CALLDATALOAD PUSH1 0xE0 SHR DUP1 PUSH4 0x39709504 EQ PUSH2 0x3B JUMPI DUP1 PUSH4 0x48651601 EQ PUSH2 0x61 JUMPI JUMPDEST PUSH1 0x0 DUP1 REVERT JUMPDEST PUSH2 0x4E PUSH2 0x49 CALLDATASIZE PUSH1 0x4 PUSH2 0x50F JUMP JUMPDEST PUSH2 0x76 JUMP JUMPDEST PUSH1 0x40 MLOAD SWAP1 DUP2 MSTORE PUSH1 0x20 ADD JUMPDEST PUSH1 0x40 MLOAD DUP1 SWAP2 SUB SWAP1 RETURN JUMPDEST PUSH2 0x69 PUSH2 0x36C JUMP JUMPDEST PUSH1 0x40 MLOAD PUSH2 0x58 SWAP2 SWAP1 PUSH2 0x52C JUMP JUMPDEST PUSH1 0x0 DUP1 DUP3 PUSH1 0x1 PUSH1 0x1 PUSH1 0xA0 SHL SUB AND PUSH4 0xC70920BC PUSH1 0x40 MLOAD DUP2 PUSH4 0xFFFFFFFF AND PUSH1 0xE0 SHL DUP2 MSTORE PUSH1 0x4 ADD PUSH1 0x20 PUSH1 0x40 MLOAD DUP1 DUP4 SUB DUP2 DUP7 GAS STATICCALL ISZERO DUP1 ISZERO PUSH2 0xB7 JUMPI RETURNDATASIZE PUSH1 0x0 DUP1 RETURNDATACOPY RETURNDATASIZE PUSH1 0x0 REVERT JUMPDEST POP POP POP POP PUSH1 0x40 MLOAD RETURNDATASIZE PUSH1 0x1F NOT PUSH1 0x1F DUP3 ADD AND DUP3 ADD DUP1 PUSH1 0x40 MSTORE POP DUP2 ADD SWAP1 PUSH2 0xDB SWAP2 SWAP1 PUSH2 0x584 JUMP JUMPDEST SWAP1 POP DUP1 PUSH2 0xF2 JUMPI POP PUSH8 0xDE0B6B3A7640000 SWAP3 SWAP2 POP POP JUMP JUMPDEST PUSH1 0x0 DUP4 PUSH1 0x1 PUSH1 0x1 PUSH1 0xA0 SHL SUB AND PUSH4 0x8214F5A4 PUSH1 0x40 MLOAD DUP2 PUSH4 0xFFFFFFFF AND PUSH1 0xE0 SHL DUP2 MSTORE PUSH1 0x4 ADD PUSH1 0x20 PUSH1 0x40 MLOAD DUP1 DUP4 SUB DUP2 DUP7 GAS STATICCALL ISZERO DUP1 ISZERO PUSH2 0x132 JUMPI RETURNDATASIZE PUSH1 0x0 DUP1 RETURNDATACOPY RETURNDATASIZE PUSH1 0x0 REVERT JUMPDEST POP POP POP POP PUSH1 0x40 MLOAD RETURNDATASIZE PUSH1 0x1F NOT PUSH1 0x1F DUP3 ADD AND DUP3 ADD DUP1 PUSH1 0x40 MSTORE POP DUP2 ADD SWAP1 PUSH2 0x156 SWAP2 SWAP1 PUSH2 0x5AD JUMP JUMPDEST SWAP1 POP PUSH1 0x0 DUP2 PUSH1 0x1 PUSH1 0x1 PUSH1 0xA0 SHL SUB AND PUSH4 0x18160DDD PUSH1 0x40 MLOAD DUP2 PUSH4 0xFFFFFFFF AND PUSH1 0xE0 SHL DUP2 MSTORE PUSH1 0x4 ADD PUSH1 0x20 PUSH1 0x40 MLOAD DUP1 DUP4 SUB DUP2 DUP7 GAS STATICCALL ISZERO DUP1 ISZERO PUSH2 0x198 JUMPI RETURNDATASIZE PUSH1 0x0 DUP1 RETURNDATACOPY RETURNDATASIZE PUSH1 0x0 REVERT JUMPDEST POP POP POP POP PUSH1 0x40 MLOAD RETURNDATASIZE PUSH1 0x1F NOT PUSH1 0x1F DUP3 ADD AND DUP3 ADD DUP1 PUSH1 0x40 MSTORE POP DUP2 ADD SWAP1 PUSH2 0x1BC SWAP2 SWAP1 PUSH2 0x584 JUMP JUMPDEST SWAP1 POP DUP1 PUSH2 0x1D5 JUMPI POP PUSH8 0xDE0B6B3A7640000 SWAP5 SWAP4 POP POP POP POP JUMP JUMPDEST PUSH1 0x0 DUP6 PUSH1 0x1 PUSH1 0x1 PUSH1 0xA0 SHL SUB AND PUSH4 0xFBFA77CF PUSH1 0x40 MLOAD DUP2 PUSH4 0xFFFFFFFF AND PUSH1 0xE0 SHL DUP2 MSTORE PUSH1 0x4 ADD PUSH1 0x20 PUSH1 0x40 MLOAD DUP1 DUP4 SUB DUP2 DUP7 GAS STATICCALL ISZERO DUP1 ISZERO PUSH2 0x215 JUMPI RETURNDATASIZE PUSH1 0x0 DUP1 RETURNDATACOPY RETURNDATASIZE PUSH1 0x0 REVERT JUMPDEST POP POP POP POP PUSH1 0x40 MLOAD RETURNDATASIZE PUSH1 0x1F NOT PUSH1 0x1F DUP3 ADD AND DUP3 ADD DUP1 PUSH1 0x40 MSTORE POP DUP2 ADD SWAP1 PUSH2 0x239 SWAP2 SWAP1 PUSH2 0x5AD JUMP JUMPDEST SWAP1 POP PUSH1 0x1 PUSH1 0x1 PUSH1 0xA0 SHL SUB DUP2 AND PUSH2 0x25D JUMPI PUSH2 0x253 DUP5 DUP4 PUSH2 0x4D1 JUMP JUMPDEST SWAP7 SWAP6 POP POP POP POP POP POP JUMP JUMPDEST PUSH1 0x0 DUP2 PUSH1 0x1 PUSH1 0x1 PUSH1 0xA0 SHL SUB AND PUSH4 0xA8C62E76 PUSH1 0x40 MLOAD DUP2 PUSH4 0xFFFFFFFF AND PUSH1 0xE0 SHL DUP2 MSTORE PUSH1 0x4 ADD PUSH1 0x20 PUSH1 0x40 MLOAD DUP1 DUP4 SUB DUP2 DUP7 GAS STATICCALL ISZERO DUP1 ISZERO PUSH2 0x29D JUMPI RETURNDATASIZE PUSH1 0x0 DUP1 RETURNDATACOPY RETURNDATASIZE PUSH1 0x0 REVERT JUMPDEST POP POP POP POP PUSH1 0x40 MLOAD RETURNDATASIZE PUSH1 0x1F NOT PUSH1 0x1F DUP3 ADD AND DUP3 ADD DUP1 PUSH1 0x40 MSTORE POP DUP2 ADD SWAP1 PUSH2 0x2C1 SWAP2 SWAP1 PUSH2 0x5AD JUMP JUMPDEST SWAP1 POP PUSH1 0x1 PUSH1 0x1 PUSH1 0xA0 SHL SUB DUP2 AND PUSH2 0x2E6 JUMPI PUSH2 0x2DB DUP6 DUP5 PUSH2 0x4D1 JUMP JUMPDEST SWAP8 SWAP7 POP POP POP POP POP POP POP JUMP JUMPDEST PUSH1 0x0 DUP2 PUSH1 0x1 PUSH1 0x1 PUSH1 0xA0 SHL SUB AND PUSH4 0xDBBD47D4 PUSH1 0x40 MLOAD DUP2 PUSH4 0xFFFFFFFF AND PUSH1 0xE0 SHL DUP2 MSTORE PUSH1 0x4 ADD PUSH1 0x20 PUSH1 0x40 MLOAD DUP1 DUP4 SUB DUP2 DUP7 GAS STATICCALL ISZERO DUP1 ISZERO PUSH2 0x326 JUMPI RETURNDATASIZE PUSH1 0x0 DUP1 RETURNDATACOPY RETURNDATASIZE PUSH1 0x0 REVERT JUMPDEST POP POP POP POP PUSH1 0x40 MLOAD RETURNDATASIZE PUSH1 0x1F NOT PUSH1 0x1F DUP3 ADD AND DUP3 ADD DUP1 PUSH1 0x40 MSTORE POP DUP2 ADD SWAP1 PUSH2 0x34A SWAP2 SWAP1 PUSH2 0x584 JUMP JUMPDEST SWAP1 POP PUSH2 0x360 DUP5 PUSH2 0x35A DUP4 DUP10 PUSH2 0x5E0 JUMP JUMPDEST SWAP1 PUSH2 0x4D1 JUMP JUMPDEST SWAP9 SWAP8 POP POP POP POP POP POP POP POP JUMP JUMPDEST PUSH1 0x0 DUP1 SLOAD PUSH1 0x40 DUP1 MLOAD PUSH4 0xC5C63E65 PUSH1 0xE0 SHL DUP2 MSTORE SWAP1 MLOAD PUSH1 0x60 SWAP4 SWAP3 PUSH1 0x1 PUSH1 0x1 PUSH1 0xA0 SHL SUB AND SWAP2 PUSH4 0xC5C63E65 SWAP2 PUSH1 0x4 DUP1 DUP4 ADD SWAP3 DUP7 SWAP3 SWAP2 SWAP1 DUP3 SWAP1 SUB ADD DUP2 DUP7 GAS STATICCALL ISZERO DUP1 ISZERO PUSH2 0x3B7 JUMPI RETURNDATASIZE PUSH1 0x0 DUP1 RETURNDATACOPY RETURNDATASIZE PUSH1 0x0 REVERT JUMPDEST POP POP POP POP PUSH1 0x40 MLOAD RETURNDATASIZE PUSH1 0x0 DUP3 RETURNDATACOPY PUSH1 0x1F RETURNDATASIZE SWAP1 DUP2 ADD PUSH1 0x1F NOT AND DUP3 ADD PUSH1 0x40 MSTORE PUSH2 0x3DF SWAP2 SWAP1 DUP2 ADD SWAP1 PUSH2 0x60E JUMP JUMPDEST SWAP1 POP PUSH1 0x0 DUP2 MLOAD PUSH8 0xFFFFFFFFFFFFFFFF DUP2 GT ISZERO PUSH2 0x3FD JUMPI PUSH2 0x3FD PUSH2 0x5F8 JUMP JUMPDEST PUSH1 0x40 MLOAD SWAP1 DUP1 DUP3 MSTORE DUP1 PUSH1 0x20 MUL PUSH1 0x20 ADD DUP3 ADD PUSH1 0x40 MSTORE DUP1 ISZERO PUSH2 0x442 JUMPI DUP2 PUSH1 0x20 ADD JUMPDEST PUSH1 0x40 DUP1 MLOAD DUP1 DUP3 ADD SWAP1 SWAP2 MSTORE PUSH1 0x0 DUP1 DUP3 MSTORE PUSH1 0x20 DUP3 ADD MSTORE DUP2 MSTORE PUSH1 0x20 ADD SWAP1 PUSH1 0x1 SWAP1 SUB SWAP1 DUP2 PUSH2 0x41B JUMPI SWAP1 POP JUMPDEST POP SWAP1 POP PUSH1 0x0 JUMPDEST DUP3 MLOAD DUP2 LT ISZERO PUSH2 0x4CA JUMPI PUSH1 0x0 DUP4 DUP3 DUP2 MLOAD DUP2 LT PUSH2 0x465 JUMPI PUSH2 0x465 PUSH2 0x6C7 JUMP JUMPDEST PUSH1 0x20 MUL PUSH1 0x20 ADD ADD MLOAD SWAP1 POP PUSH1 0x0 PUSH2 0x47A DUP3 PUSH2 0x76 JUMP JUMPDEST SWAP1 POP PUSH1 0x40 MLOAD DUP1 PUSH1 0x40 ADD PUSH1 0x40 MSTORE DUP1 DUP4 PUSH1 0x1 PUSH1 0x1 PUSH1 0xA0 SHL SUB AND DUP2 MSTORE PUSH1 0x20 ADD DUP3 DUP2 MSTORE POP DUP5 DUP5 DUP2 MLOAD DUP2 LT PUSH2 0x4AC JUMPI PUSH2 0x4AC PUSH2 0x6C7 JUMP JUMPDEST PUSH1 0x20 MUL PUSH1 0x20 ADD ADD DUP2 SWAP1 MSTORE POP POP POP PUSH2 0x4C3 DUP2 PUSH1 0x1 ADD SWAP1 JUMP JUMPDEST SWAP1 POP PUSH2 0x448 JUMP JUMPDEST POP SWAP3 SWAP2 POP POP JUMP JUMPDEST PUSH1 0x0 DUP2 PUSH2 0x4E6 PUSH8 0xDE0B6B3A7640000 DUP6 PUSH2 0x6DD JUMP JUMPDEST PUSH2 0x4F0 SWAP2 SWAP1 PUSH2 0x6FC JUMP JUMPDEST SWAP4 SWAP3 POP POP POP JUMP JUMPDEST PUSH1 0x1 PUSH1 0x1 PUSH1 0xA0 SHL SUB DUP2 AND DUP2 EQ PUSH2 0x50C JUMPI PUSH1 0x0 DUP1 REVERT JUMPDEST POP JUMP JUMPDEST PUSH1 0x0 PUSH1 0x20 DUP3 DUP5 SUB SLT ISZERO PUSH2 0x521 JUMPI PUSH1 0x0 DUP1 REVERT JUMPDEST DUP2 CALLDATALOAD PUSH2 0x4F0 DUP2 PUSH2 0x4F7 JUMP JUMPDEST PUSH1 0x20 DUP1 DUP3 MSTORE DUP3 MLOAD DUP3 DUP3 ADD DUP2 SWAP1 MSTORE PUSH1 0x0 SWAP2 SWAP1 PUSH1 0x40 SWAP1 DUP2 DUP6 ADD SWAP1 DUP7 DUP5 ADD DUP6 JUMPDEST DUP3 DUP2 LT ISZERO PUSH2 0x577 JUMPI DUP2 MLOAD DUP1 MLOAD PUSH1 0x1 PUSH1 0x1 PUSH1 0xA0 SHL SUB AND DUP6 MSTORE DUP7 ADD MLOAD DUP7 DUP6 ADD MSTORE SWAP3 DUP5 ADD SWAP3 SWAP1 DUP6 ADD SWAP1 PUSH1 0x1 ADD PUSH2 0x549 JUMP JUMPDEST POP SWAP2 SWAP8 SWAP7 POP POP POP POP POP POP POP JUMP JUMPDEST PUSH1 0x0 PUSH1 0x20 DUP3 DUP5 SUB SLT ISZERO PUSH2 0x596 JUMPI PUSH1 0x0 DUP1 REVERT JUMPDEST POP MLOAD SWAP2 SWAP1 POP JUMP JUMPDEST DUP1 MLOAD PUSH2 0x5A8 DUP2 PUSH2 0x4F7 JUMP JUMPDEST SWAP2 SWAP1 POP JUMP JUMPDEST PUSH1 0x0 PUSH1 0x20 DUP3 DUP5 SUB SLT ISZERO PUSH2 0x5BF JUMPI PUSH1 0x0 DUP1 REVERT JUMPDEST DUP2 MLOAD PUSH2 0x4F0 DUP2 PUSH2 0x4F7 JUMP JUMPDEST PUSH4 0x4E487B71 PUSH1 0xE0 SHL PUSH1 0x0 MSTORE PUSH1 0x11 PUSH1 0x4 MSTORE PUSH1 0x24 PUSH1 0x0 REVERT JUMPDEST PUSH1 0x0 DUP3 NOT DUP3 GT ISZERO PUSH2 0x5F3 JUMPI PUSH2 0x5F3 PUSH2 0x5CA JUMP JUMPDEST POP ADD SWAP1 JUMP JUMPDEST PUSH4 0x4E487B71 PUSH1 0xE0 SHL PUSH1 0x0 MSTORE PUSH1 0x41 PUSH1 0x4 MSTORE PUSH1 0x24 PUSH1 0x0 REVERT JUMPDEST PUSH1 0x0 PUSH1 0x20 DUP1 DUP4 DUP6 SUB SLT ISZERO PUSH2 0x621 JUMPI PUSH1 0x0 DUP1 REVERT JUMPDEST DUP3 MLOAD PUSH8 0xFFFFFFFFFFFFFFFF DUP1 DUP3 GT ISZERO PUSH2 0x639 JUMPI PUSH1 0x0 DUP1 REVERT JUMPDEST DUP2 DUP6 ADD SWAP2 POP DUP6 PUSH1 0x1F DUP4 ADD SLT PUSH2 0x64D JUMPI PUSH1 0x0 DUP1 REVERT JUMPDEST DUP2 MLOAD DUP2 DUP2 GT ISZERO PUSH2 0x65F JUMPI PUSH2 0x65F PUSH2 0x5F8 JUMP JUMPDEST DUP1 PUSH1 0x5 SHL PUSH1 0x40 MLOAD PUSH1 0x1F NOT PUSH1 0x3F DUP4 ADD AND DUP2 ADD DUP2 DUP2 LT DUP6 DUP3 GT OR ISZERO PUSH2 0x684 JUMPI PUSH2 0x684 PUSH2 0x5F8 JUMP JUMPDEST PUSH1 0x40 MSTORE SWAP2 DUP3 MSTORE DUP5 DUP3 ADD SWAP3 POP DUP4 DUP2 ADD DUP6 ADD SWAP2 DUP9 DUP4 GT ISZERO PUSH2 0x6A2 JUMPI PUSH1 0x0 DUP1 REVERT JUMPDEST SWAP4 DUP6 ADD SWAP4 JUMPDEST DUP3 DUP6 LT ISZERO PUSH2 0x360 JUMPI PUSH2 0x6B8 DUP6 PUSH2 0x59D JUMP JUMPDEST DUP5 MSTORE SWAP4 DUP6 ADD SWAP4 SWAP3 DUP6 ADD SWAP3 PUSH2 0x6A7 JUMP JUMPDEST PUSH4 0x4E487B71 PUSH1 0xE0 SHL PUSH1 0x0 MSTORE PUSH1 0x32 PUSH1 0x4 MSTORE PUSH1 0x24 PUSH1 0x0 REVERT JUMPDEST PUSH1 0x0 DUP2 PUSH1 0x0 NOT DIV DUP4 GT DUP3 ISZERO ISZERO AND ISZERO PUSH2 0x6F7 JUMPI PUSH2 0x6F7 PUSH2 0x5CA JUMP JUMPDEST POP MUL SWAP1 JUMP JUMPDEST PUSH1 0x0 DUP3 PUSH2 0x719 JUMPI PUSH4 0x4E487B71 PUSH1 0xE0 SHL PUSH1 0x0 MSTORE PUSH1 0x12 PUSH1 0x4 MSTORE PUSH1 0x24 PUSH1 0x0 REVERT JUMPDEST POP DIV SWAP1 JUMP INVALID LOG2 PUSH5 0x6970667358 0x22 SLT KECCAK256 0x26 CHAINID 0xB6 0x22 SWAP11 DUP13 0x5D PUSH28 0x1BE9575ACB059E1A6D7C3AF54A610CAABA42FC2DB2EF2AC664736F6C PUSH4 0x4300080A STOP CALLER ","sha1":"11bb6f13ecce47fd374e99f0aeb0643244af623b","source":"// SPDX-License-Identifier: GPL-3.0-or-later\npragma solidity 0.8.10;\n\nimport \"@openzeppelin/contracts/token/ERC20/IERC20.sol\";\n\nimport \"../../libraries/UncheckedMath.sol\";\nimport \"../../libraries/ScaledMath.sol\";\n\nimport \"../../interfaces/IVault.sol\";\nimport \"../../interfaces/IAddressProvider.sol\";\nimport \"../../interfaces/helpers/IApyHelper.sol\";\nimport \"../../interfaces/pool/ILiquidityPool.sol\";\nimport \"../../interfaces/strategies/IStrategy.sol\";\n\n// TODO Add deployment script\n\ncontract ApyHelper is IApyHelper {\n    using ScaledMath for uint256;\n    using UncheckedMath for uint256;\n\n    IAddressProvider internal _addressProvider;\n\n    constructor(address addressProvider_) {\n        _addressProvider = IAddressProvider(addressProvider_);\n    }\n\n    function exchangeRatesIncludingHarvestable()\n        external\n        view\n        override\n        returns (PoolExchangeRate[] memory)\n    {\n        address[] memory pools_ = _addressProvider.allPools();\n        PoolExchangeRate[] memory poolExchangeRates_ = new PoolExchangeRate[](pools_.length);\n        for (uint256 i; i < pools_.length; i = i.uncheckedInc()) {\n            address pool_ = pools_[i];\n            uint256 exchangeRate_ = exchangeRateIncludingHarvestable(pool_);\n            poolExchangeRates_[i] = PoolExchangeRate(pool_, exchangeRate_);\n        }\n        return poolExchangeRates_;\n    }\n\n    function exchangeRateIncludingHarvestable(address pool_)\n        public\n        view\n        override\n        returns (uint256)\n    {\n        uint256 totalUnderlying_ = ILiquidityPool(pool_).totalUnderlying();\n        if (totalUnderlying_ == 0) return 1e18;\n        address lpToken_ = ILiquidityPool(pool_).getLpToken();\n        uint256 lpTokenSupply_ = IERC20(lpToken_).totalSupply();\n        if (lpTokenSupply_ == 0) return 1e18;\n        IVault vault_ = ILiquidityPool(pool_).vault();\n        if (address(vault_) == address(0)) return totalUnderlying_.scaledDiv(lpTokenSupply_);\n        IStrategy strategy_ = vault_.strategy();\n        if (address(strategy_) == address(0)) return totalUnderlying_.scaledDiv(lpTokenSupply_);\n        uint256 harvestable_ = strategy_.harvestable();\n        return (totalUnderlying_ + harvestable_).scaledDiv(lpTokenSupply_);\n    }\n}\n","sourcePath":"contracts/helpers/ApyHelper.sol","type":"contract","deployment":{"address":"0xBC9F6641a7a5A40F810ced69FC9C92989AB238f8","chainid":"42","blockHeight":33231483}}