{"abi":[{"inputs":[{"internalType":"contract IAddressProvider","name":"_addressProvider","type":"address"},{"internalType":"address","name":"_pool","type":"address"}],"stateMutability":"nonpayable","type":"constructor","name":"constructor"},{"anonymous":false,"inputs":[],"name":"Killed","type":"event"},{"inputs":[],"name":"addressProvider","outputs":[{"internalType":"contract IAddressProvider","name":"","type":"address"}],"stateMutability":"view","type":"function"},{"inputs":[],"name":"advanceEpoch","outputs":[],"stateMutability":"nonpayable","type":"function"},{"inputs":[{"internalType":"address","name":"beneficiary","type":"address"},{"internalType":"uint256","name":"endEpoch","type":"uint256"}],"name":"claimRewards","outputs":[{"internalType":"uint256","name":"","type":"uint256"}],"stateMutability":"nonpayable","type":"function"},{"inputs":[{"internalType":"address","name":"beneficiary","type":"address"}],"name":"claimRewards","outputs":[{"internalType":"uint256","name":"","type":"uint256"}],"stateMutability":"nonpayable","type":"function"},{"inputs":[{"internalType":"address","name":"beneficiary","type":"address"}],"name":"claimableRewards","outputs":[{"internalType":"uint256","name":"","type":"uint256"}],"stateMutability":"view","type":"function"},{"inputs":[],"name":"epoch","outputs":[{"internalType":"uint256","name":"","type":"uint256"}],"stateMutability":"view","type":"function"},{"inputs":[{"internalType":"address","name":"","type":"address"}],"name":"keeperRecords","outputs":[{"internalType":"uint256","name":"nextEpochToClaim","type":"uint256"},{"internalType":"bool","name":"firstEpochSet","type":"bool"}],"stateMutability":"view","type":"function"},{"inputs":[],"name":"kill","outputs":[],"stateMutability":"nonpayable","type":"function"},{"inputs":[],"name":"killed","outputs":[{"internalType":"bool","name":"","type":"bool"}],"stateMutability":"view","type":"function"},{"inputs":[],"name":"lastUpdated","outputs":[{"internalType":"uint48","name":"","type":"uint48"}],"stateMutability":"view","type":"function"},{"inputs":[{"internalType":"uint256","name":"","type":"uint256"}],"name":"perPeriodTotalFees","outputs":[{"internalType":"uint256","name":"","type":"uint256"}],"stateMutability":"view","type":"function"},{"inputs":[{"internalType":"uint256","name":"","type":"uint256"}],"name":"perPeriodTotalInflation","outputs":[{"internalType":"uint256","name":"","type":"uint256"}],"stateMutability":"view","type":"function"},{"inputs":[],"name":"pool","outputs":[{"internalType":"address","name":"","type":"address"}],"stateMutability":"view","type":"function"},{"inputs":[],"name":"poolCheckpoint","outputs":[{"internalType":"bool","name":"","type":"bool"}],"stateMutability":"nonpayable","type":"function"},{"inputs":[{"internalType":"uint256","name":"updateEndTime","type":"uint256"}],"name":"poolCheckpoint","outputs":[{"internalType":"bool","name":"","type":"bool"}],"stateMutability":"nonpayable","type":"function"},{"inputs":[{"internalType":"address","name":"beneficiary","type":"address"},{"internalType":"uint256","name":"amount","type":"uint256"},{"internalType":"address","name":"lpTokenAddress","type":"address"}],"name":"reportFees","outputs":[],"stateMutability":"nonpayable","type":"function"},{"inputs":[],"name":"roleManager","outputs":[{"internalType":"contract IRoleManager","name":"","type":"address"}],"stateMutability":"view","type":"function"}],"bytecode":"60e06040523480156200001157600080fd5b50604051620012a4380380620012a4833981016040819052620000349162000125565b62000053826001600160a01b03166200008a60201b62000b811760201c565b6001600160a01b0390811660805291821660a0521660c0526003805465ffffffffffff19164265ffffffffffff161790556200018b565b6040516321f8a72160e01b81526a3937b632a6b0b730b3b2b960a91b60048201526000906001600160a01b038316906321f8a72190602401602060405180830381865afa158015620000e0573d6000803e3d6000fd5b505050506040513d601f19601f8201168201806040525081019062000106919062000164565b92915050565b6001600160a01b03811681146200012257600080fd5b50565b600080604083850312156200013957600080fd5b825162000146816200010c565b602084015190925062000159816200010c565b809150509250929050565b6000602082840312156200017757600080fd5b815162000184816200010c565b9392505050565b60805160a05160c0516110aa620001fa600039600081816101530152610c880152600081816101ac015281816103090152818161078c01528181610c440152610dbc015260008181610111015281816104f70152818161064d015281816108640152610a4f01526110aa6000f3fe608060405234801561001057600080fd5b506004361061010a5760003560e01c80635790a0c8116100a25780639a99b4f0116100715780639a99b4f01461027f578063d0b06f5d14610292578063dc01f60d146102bb578063e7945d00146102ce578063ef5cfb8c146102e157600080fd5b80635790a0c81461020c57806383c70f971461021457806385e4de1b14610234578063900cf0cf1461027657600080fd5b80632954018c116100de5780632954018c146101a75780633cf80e6c146101ce57806341c0e1b5146101d65780634c56c559146101de57600080fd5b8062435da51461010f57806316f0115b1461014e5780631ec36068146101755780631f3a0e411461018a575b600080fd5b7f00000000000000000000000000000000000000000000000000000000000000005b6040516001600160a01b0390911681526020015b60405180910390f35b6101317f000000000000000000000000000000000000000000000000000000000000000081565b610188610183366004610e9d565b6102f4565b005b6005546101979060ff1681565b6040519015158152602001610145565b6101317f000000000000000000000000000000000000000000000000000000000000000081565b6101886104e0565b610188610636565b6101fe6101ec366004610edf565b60016020526000908152604090205481565b604051908152602001610145565b610197610773565b6101fe610222366004610edf565b60046020526000908152604090205481565b610261610242366004610ef8565b6000602081905290815260409020600181015460029091015460ff1682565b60408051928352901515602083015201610145565b6101fe60025481565b6101fe61028d366004610f15565b61084e565b6003546102a49065ffffffffffff1681565b60405165ffffffffffff9091168152602001610145565b6101fe6102c9366004610ef8565b610a06565b6101976102dc366004610edf565b610a36565b6101fe6102ef366004610ef8565b610b73565b604051631fd4b62560e21b81523360048201527f00000000000000000000000000000000000000000000000000000000000000006001600160a01b031690637f52d89490602401602060405180830381865afa158015610358573d6000803e3d6000fd5b505050506040513d601f19601f8201168201806040525081019061037c9190610f41565b6040518060400160405280601781526020017f61646472657373206e6f742077686974656c6973746564000000000000000000815250906103d95760405162461bcd60e51b81526004016103d09190610f63565b60405180910390fd5b5060055460408051808201909152601281527118dbdb9d1c9858dd081a5cc81c185d5cd95960721b60208201529060ff16156104285760405162461bcd60e51b81526004016103d09190610f63565b506001600160a01b03831660009081526020819052604090206002015460ff1661047d576001600160a01b03831660009081526020819052604090206002808201805460ff1916600190811790915590549101555b6001600160a01b0383166000908152602081815260408083206002548452909152812080548492906104b0908490610fce565b9091555050600254600090815260016020526040812080548492906104d6908490610fce565b9091555050505050565b7034b7333630ba34b7b72fb6b0b730b3b2b960791b7f0000000000000000000000000000000000000000000000000000000000000000604051632474521560e21b8152600481018390523360248201526001600160a01b0391909116906391d1485490604401602060405180830381865afa158015610563573d6000803e3d6000fd5b505050506040513d601f19601f820116820180604052508101906105879190610f41565b60405180604001604052806013815260200172756e617574686f72697a65642061636365737360681b815250906105d15760405162461bcd60e51b81526004016103d09190610f63565b5060055460408051808201909152601281527118dbdb9d1c9858dd081a5cc81c185d5cd95960721b60208201529060ff16156106205760405162461bcd60e51b81526004016103d09190610f63565b50610629610773565b5060025460010160025550565b7034b7333630ba34b7b72fb6b0b730b3b2b960791b7f0000000000000000000000000000000000000000000000000000000000000000604051632474521560e21b8152600481018390523360248201526001600160a01b0391909116906391d1485490604401602060405180830381865afa1580156106b9573d6000803e3d6000fd5b505050506040513d601f19601f820116820180604052508101906106dd9190610f41565b60405180604001604052806013815260200172756e617574686f72697a65642061636365737360681b815250906107275760405162461bcd60e51b81526004016103d09190610f63565b50610730610773565b506002546001016002556005805460ff191660011790556040517f0f8eeedbc400fd6686703559f58d1e6143fdaed533f19a86c93d67a2fe4fb33190600090a150565b60055460009060ff16156107875750600090565b6107b97f00000000000000000000000000000000000000000000000000000000000000006001600160a01b0316610bfb565b6001600160a01b03166390b3f1566040518163ffffffff1660e01b8152600401600060405180830381600087803b1580156107f357600080fd5b505af1158015610807573d6000803e3d6000fd5b505060035460009250610823915065ffffffffffff1642610fe6565b905061082e81610c3d565b50506003805465ffffffffffff19164265ffffffffffff16179055600190565b6000336001600160a01b03841614806108ff57507f0000000000000000000000000000000000000000000000000000000000000000604051632474521560e21b815268067617567655f7a61760bc1b60048201523360248201526001600160a01b0391909116906391d1485490604401602060405180830381865afa1580156108db573d6000803e3d6000fd5b505050506040513d601f19601f820116820180604052508101906108ff9190610f41565b60405180604001604052806013815260200172756e617574686f72697a65642061636365737360681b815250906109495760405162461bcd60e51b81526004016103d09190610f63565b5060025482111561095a5760025491505b6001600160a01b03831660009081526020819052604081206001015461098290859085610d33565b6001600160a01b038516600090815260208181526040918290206001018690558151808301909252601982527f7a65726f207472616e73666572206e6f7420616c6c6f7765640000000000000090820152909150816109f45760405162461bcd60e51b81526004016103d09190610f63565b506109ff8482610db7565b9392505050565b6001600160a01b038116600090815260208190526040812060010154600254610a30918491610d33565b92915050565b60007034b7333630ba34b7b72fb6b0b730b3b2b960791b7f0000000000000000000000000000000000000000000000000000000000000000604051632474521560e21b8152600481018390523360248201526001600160a01b0391909116906391d1485490604401602060405180830381865afa158015610abb573d6000803e3d6000fd5b505050506040513d601f19601f82011682018060405250810190610adf9190610f41565b60405180604001604052806013815260200172756e617574686f72697a65642061636365737360681b81525090610b295760405162461bcd60e51b81526004016103d09190610f63565b50600354600090610b429065ffffffffffff1685610fe6565b9050610b4d81610c3d565b506003805465ffffffffffff851665ffffffffffff199091161790556001915050919050565b6000610a308260025461084e565b6040516321f8a72160e01b81526a3937b632a6b0b730b3b2b960a91b60048201526000906001600160a01b038316906321f8a721906024015b602060405180830381865afa158015610bd7573d6000803e3d6000fd5b505050506040513d601f19601f82011682018060405250810190610a309190610ffd565b6040516321f8a72160e01b81526f34b7333630ba34b7b726b0b730b3b2b960811b60048201526000906001600160a01b038316906321f8a72190602401610bba565b6000610c717f00000000000000000000000000000000000000000000000000000000000000006001600160a01b0316610bfb565b60405163271a15bf60e21b81526001600160a01b037f0000000000000000000000000000000000000000000000000000000000000000811660048301529190911690639c6856fc90602401602060405180830381865afa158015610cd9573d6000803e3d6000fd5b505050506040513d601f19601f82011682018060405250810190610cfd919061101a565b9050610d098282611033565b60025460009081526004602052604081208054909190610d2a908490610fce565b90915550505050565b600080835b83811015610dae576000818152600160205260409020548015610da5576000828152600460209081526040808320546001600160a01b038b16845283835281842086855290925290912054610d989190610d929084610e51565b90610e70565b610da29084610fce565b92505b50600101610d38565b50949350505050565b610de97f00000000000000000000000000000000000000000000000000000000000000006001600160a01b0316610bfb565b6040516335106f4960e11b81526001600160a01b038481166004830152602482018490529190911690636a20de9290604401600060405180830381600087803b158015610e3557600080fd5b505af1158015610e49573d6000803e3d6000fd5b505050505050565b600081610e66670de0b6b3a764000085611033565b6109ff9190611052565b6000670de0b6b3a7640000610e668385611033565b6001600160a01b0381168114610e9a57600080fd5b50565b600080600060608486031215610eb257600080fd5b8335610ebd81610e85565b9250602084013591506040840135610ed481610e85565b809150509250925092565b600060208284031215610ef157600080fd5b5035919050565b600060208284031215610f0a57600080fd5b81356109ff81610e85565b60008060408385031215610f2857600080fd5b8235610f3381610e85565b946020939093013593505050565b600060208284031215610f5357600080fd5b815180151581146109ff57600080fd5b600060208083528351808285015260005b81811015610f9057858101830151858201604001528201610f74565b81811115610fa2576000604083870101525b50601f01601f1916929092016040019392505050565b634e487b7160e01b600052601160045260246000fd5b60008219821115610fe157610fe1610fb8565b500190565b600082821015610ff857610ff8610fb8565b500390565b60006020828403121561100f57600080fd5b81516109ff81610e85565b60006020828403121561102c57600080fd5b5051919050565b600081600019048311821515161561104d5761104d610fb8565b500290565b60008261106f57634e487b7160e01b600052601260045260246000fd5b50049056fea26469706673582212200a39093f68621d59261f7ebb1c6cbacb469006cd263a51fc82fc19eb1819a6e564736f6c634300080a0033","bytecodeSha1":"fd1f81787e2a74d30c8f0846534a3504651a5b7e","compiler":{"evm_version":"london","optimizer":{"enabled":true,"runs":200},"version":"0.8.10+commit.fc410830"},"contractName":"KeeperGauge","language":"Solidity","natspec":{"kind":"dev","methods":{"advanceEpoch()":{"notice":"Advance the inflation accrual epoch."},"claimRewards(address,uint256)":{"notice":"Claim rewards with an epoch up to which they should be claimed specified.","params":{"beneficiary":"Address to claim rewards for.","endEpoch":"Epoch up to which to claim rewards."},"returns":{"_0":"The amount of rewards claimed."}},"kill()":{"details":"Accrued inflation can still be claimed from the gauge after shutdown.","notice":"Shut down the gauge."},"reportFees(address,uint256,address)":{"details":"lpTokenAddress is included for forward compatibility with a single gauge solution.","notice":"Report fees generated by a keeper (this is the basis for inflation accrual).","params":{"amount":"Amount of fees (in lp tokens) earned.","beneficiary":"Address of the keeper who earned the fees.","lpTokenAddress":"Address of the lpToken in which the fees are paid."}}},"version":1},"opcodes":"PUSH1 0x80 PUSH1 0x40 MSTORE CALLVALUE DUP1 ISZERO PUSH2 0x10 JUMPI PUSH1 0x0 DUP1 REVERT JUMPDEST POP PUSH1 0x4 CALLDATASIZE LT PUSH2 0x10A JUMPI PUSH1 0x0 CALLDATALOAD PUSH1 0xE0 SHR DUP1 PUSH4 0x5790A0C8 GT PUSH2 0xA2 JUMPI DUP1 PUSH4 0x9A99B4F0 GT PUSH2 0x71 JUMPI DUP1 PUSH4 0x9A99B4F0 EQ PUSH2 0x27F JUMPI DUP1 PUSH4 0xD0B06F5D EQ PUSH2 0x292 JUMPI DUP1 PUSH4 0xDC01F60D EQ PUSH2 0x2BB JUMPI DUP1 PUSH4 0xE7945D00 EQ PUSH2 0x2CE JUMPI DUP1 PUSH4 0xEF5CFB8C EQ PUSH2 0x2E1 JUMPI PUSH1 0x0 DUP1 REVERT JUMPDEST DUP1 PUSH4 0x5790A0C8 EQ PUSH2 0x20C JUMPI DUP1 PUSH4 0x83C70F97 EQ PUSH2 0x214 JUMPI DUP1 PUSH4 0x85E4DE1B EQ PUSH2 0x234 JUMPI DUP1 PUSH4 0x900CF0CF EQ PUSH2 0x276 JUMPI PUSH1 0x0 DUP1 REVERT JUMPDEST DUP1 PUSH4 0x2954018C GT PUSH2 0xDE JUMPI DUP1 PUSH4 0x2954018C EQ PUSH2 0x1A7 JUMPI DUP1 PUSH4 0x3CF80E6C EQ PUSH2 0x1CE JUMPI DUP1 PUSH4 0x41C0E1B5 EQ PUSH2 0x1D6 JUMPI DUP1 PUSH4 0x4C56C559 EQ PUSH2 0x1DE JUMPI PUSH1 0x0 DUP1 REVERT JUMPDEST DUP1 PUSH3 0x435DA5 EQ PUSH2 0x10F JUMPI DUP1 PUSH4 0x16F0115B EQ PUSH2 0x14E JUMPI DUP1 PUSH4 0x1EC36068 EQ PUSH2 0x175 JUMPI DUP1 PUSH4 0x1F3A0E41 EQ PUSH2 0x18A JUMPI JUMPDEST PUSH1 0x0 DUP1 REVERT JUMPDEST PUSH32 0x0 JUMPDEST PUSH1 0x40 MLOAD PUSH1 0x1 PUSH1 0x1 PUSH1 0xA0 SHL SUB SWAP1 SWAP2 AND DUP2 MSTORE PUSH1 0x20 ADD JUMPDEST PUSH1 0x40 MLOAD DUP1 SWAP2 SUB SWAP1 RETURN JUMPDEST PUSH2 0x131 PUSH32 0x0 DUP2 JUMP JUMPDEST PUSH2 0x188 PUSH2 0x183 CALLDATASIZE PUSH1 0x4 PUSH2 0xE9D JUMP JUMPDEST PUSH2 0x2F4 JUMP JUMPDEST STOP JUMPDEST PUSH1 0x5 SLOAD PUSH2 0x197 SWAP1 PUSH1 0xFF AND DUP2 JUMP JUMPDEST PUSH1 0x40 MLOAD SWAP1 ISZERO ISZERO DUP2 MSTORE PUSH1 0x20 ADD PUSH2 0x145 JUMP JUMPDEST PUSH2 0x131 PUSH32 0x0 DUP2 JUMP JUMPDEST PUSH2 0x188 PUSH2 0x4E0 JUMP JUMPDEST PUSH2 0x188 PUSH2 0x636 JUMP JUMPDEST PUSH2 0x1FE PUSH2 0x1EC CALLDATASIZE PUSH1 0x4 PUSH2 0xEDF JUMP JUMPDEST PUSH1 0x1 PUSH1 0x20 MSTORE PUSH1 0x0 SWAP1 DUP2 MSTORE PUSH1 0x40 SWAP1 KECCAK256 SLOAD DUP2 JUMP JUMPDEST PUSH1 0x40 MLOAD SWAP1 DUP2 MSTORE PUSH1 0x20 ADD PUSH2 0x145 JUMP JUMPDEST PUSH2 0x197 PUSH2 0x773 JUMP JUMPDEST PUSH2 0x1FE PUSH2 0x222 CALLDATASIZE PUSH1 0x4 PUSH2 0xEDF JUMP JUMPDEST PUSH1 0x4 PUSH1 0x20 MSTORE PUSH1 0x0 SWAP1 DUP2 MSTORE PUSH1 0x40 SWAP1 KECCAK256 SLOAD DUP2 JUMP JUMPDEST PUSH2 0x261 PUSH2 0x242 CALLDATASIZE PUSH1 0x4 PUSH2 0xEF8 JUMP JUMPDEST PUSH1 0x0 PUSH1 0x20 DUP2 SWAP1 MSTORE SWAP1 DUP2 MSTORE PUSH1 0x40 SWAP1 KECCAK256 PUSH1 0x1 DUP2 ADD SLOAD PUSH1 0x2 SWAP1 SWAP2 ADD SLOAD PUSH1 0xFF AND DUP3 JUMP JUMPDEST PUSH1 0x40 DUP1 MLOAD SWAP3 DUP4 MSTORE SWAP1 ISZERO ISZERO PUSH1 0x20 DUP4 ADD MSTORE ADD PUSH2 0x145 JUMP JUMPDEST PUSH2 0x1FE PUSH1 0x2 SLOAD DUP2 JUMP JUMPDEST PUSH2 0x1FE PUSH2 0x28D CALLDATASIZE PUSH1 0x4 PUSH2 0xF15 JUMP JUMPDEST PUSH2 0x84E JUMP JUMPDEST PUSH1 0x3 SLOAD PUSH2 0x2A4 SWAP1 PUSH6 0xFFFFFFFFFFFF AND DUP2 JUMP JUMPDEST PUSH1 0x40 MLOAD PUSH6 0xFFFFFFFFFFFF SWAP1 SWAP2 AND DUP2 MSTORE PUSH1 0x20 ADD PUSH2 0x145 JUMP JUMPDEST PUSH2 0x1FE PUSH2 0x2C9 CALLDATASIZE PUSH1 0x4 PUSH2 0xEF8 JUMP JUMPDEST PUSH2 0xA06 JUMP JUMPDEST PUSH2 0x197 PUSH2 0x2DC CALLDATASIZE PUSH1 0x4 PUSH2 0xEDF JUMP JUMPDEST PUSH2 0xA36 JUMP JUMPDEST PUSH2 0x1FE PUSH2 0x2EF CALLDATASIZE PUSH1 0x4 PUSH2 0xEF8 JUMP JUMPDEST PUSH2 0xB73 JUMP JUMPDEST PUSH1 0x40 MLOAD PUSH4 0x1FD4B625 PUSH1 0xE2 SHL DUP2 MSTORE CALLER PUSH1 0x4 DUP3 ADD MSTORE PUSH32 0x0 PUSH1 0x1 PUSH1 0x1 PUSH1 0xA0 SHL SUB AND SWAP1 PUSH4 0x7F52D894 SWAP1 PUSH1 0x24 ADD PUSH1 0x20 PUSH1 0x40 MLOAD DUP1 DUP4 SUB DUP2 DUP7 GAS STATICCALL ISZERO DUP1 ISZERO PUSH2 0x358 JUMPI RETURNDATASIZE PUSH1 0x0 DUP1 RETURNDATACOPY RETURNDATASIZE PUSH1 0x0 REVERT JUMPDEST POP POP POP POP PUSH1 0x40 MLOAD RETURNDATASIZE PUSH1 0x1F NOT PUSH1 0x1F DUP3 ADD AND DUP3 ADD DUP1 PUSH1 0x40 MSTORE POP DUP2 ADD SWAP1 PUSH2 0x37C SWAP2 SWAP1 PUSH2 0xF41 JUMP JUMPDEST PUSH1 0x40 MLOAD DUP1 PUSH1 0x40 ADD PUSH1 0x40 MSTORE DUP1 PUSH1 0x17 DUP2 MSTORE PUSH1 0x20 ADD PUSH32 0x61646472657373206E6F742077686974656C6973746564000000000000000000 DUP2 MSTORE POP SWAP1 PUSH2 0x3D9 JUMPI PUSH1 0x40 MLOAD PUSH3 0x461BCD PUSH1 0xE5 SHL DUP2 MSTORE PUSH1 0x4 ADD PUSH2 0x3D0 SWAP2 SWAP1 PUSH2 0xF63 JUMP JUMPDEST PUSH1 0x40 MLOAD DUP1 SWAP2 SUB SWAP1 REVERT JUMPDEST POP PUSH1 0x5 SLOAD PUSH1 0x40 DUP1 MLOAD DUP1 DUP3 ADD SWAP1 SWAP2 MSTORE PUSH1 0x12 DUP2 MSTORE PUSH18 0x18DBDB9D1C9858DD081A5CC81C185D5CD959 PUSH1 0x72 SHL PUSH1 0x20 DUP3 ADD MSTORE SWAP1 PUSH1 0xFF AND ISZERO PUSH2 0x428 JUMPI PUSH1 0x40 MLOAD PUSH3 0x461BCD PUSH1 0xE5 SHL DUP2 MSTORE PUSH1 0x4 ADD PUSH2 0x3D0 SWAP2 SWAP1 PUSH2 0xF63 JUMP JUMPDEST POP PUSH1 0x1 PUSH1 0x1 PUSH1 0xA0 SHL SUB DUP4 AND PUSH1 0x0 SWAP1 DUP2 MSTORE PUSH1 0x20 DUP2 SWAP1 MSTORE PUSH1 0x40 SWAP1 KECCAK256 PUSH1 0x2 ADD SLOAD PUSH1 0xFF AND PUSH2 0x47D JUMPI PUSH1 0x1 PUSH1 0x1 PUSH1 0xA0 SHL SUB DUP4 AND PUSH1 0x0 SWAP1 DUP2 MSTORE PUSH1 0x20 DUP2 SWAP1 MSTORE PUSH1 0x40 SWAP1 KECCAK256 PUSH1 0x2 DUP1 DUP3 ADD DUP1 SLOAD PUSH1 0xFF NOT AND PUSH1 0x1 SWAP1 DUP2 OR SWAP1 SWAP2 SSTORE SWAP1 SLOAD SWAP2 ADD SSTORE JUMPDEST PUSH1 0x1 PUSH1 0x1 PUSH1 0xA0 SHL SUB DUP4 AND PUSH1 0x0 SWAP1 DUP2 MSTORE PUSH1 0x20 DUP2 DUP2 MSTORE PUSH1 0x40 DUP1 DUP4 KECCAK256 PUSH1 0x2 SLOAD DUP5 MSTORE SWAP1 SWAP2 MSTORE DUP2 KECCAK256 DUP1 SLOAD DUP5 SWAP3 SWAP1 PUSH2 0x4B0 SWAP1 DUP5 SWAP1 PUSH2 0xFCE JUMP JUMPDEST SWAP1 SWAP2 SSTORE POP POP PUSH1 0x2 SLOAD PUSH1 0x0 SWAP1 DUP2 MSTORE PUSH1 0x1 PUSH1 0x20 MSTORE PUSH1 0x40 DUP2 KECCAK256 DUP1 SLOAD DUP5 SWAP3 SWAP1 PUSH2 0x4D6 SWAP1 DUP5 SWAP1 PUSH2 0xFCE JUMP JUMPDEST SWAP1 SWAP2 SSTORE POP POP POP POP POP JUMP JUMPDEST PUSH17 0x34B7333630BA34B7B72FB6B0B730B3B2B9 PUSH1 0x79 SHL PUSH32 0x0 PUSH1 0x40 MLOAD PUSH4 0x24745215 PUSH1 0xE2 SHL DUP2 MSTORE PUSH1 0x4 DUP2 ADD DUP4 SWAP1 MSTORE CALLER PUSH1 0x24 DUP3 ADD MSTORE PUSH1 0x1 PUSH1 0x1 PUSH1 0xA0 SHL SUB SWAP2 SWAP1 SWAP2 AND SWAP1 PUSH4 0x91D14854 SWAP1 PUSH1 0x44 ADD PUSH1 0x20 PUSH1 0x40 MLOAD DUP1 DUP4 SUB DUP2 DUP7 GAS STATICCALL ISZERO DUP1 ISZERO PUSH2 0x563 JUMPI RETURNDATASIZE PUSH1 0x0 DUP1 RETURNDATACOPY RETURNDATASIZE PUSH1 0x0 REVERT JUMPDEST POP POP POP POP PUSH1 0x40 MLOAD RETURNDATASIZE PUSH1 0x1F NOT PUSH1 0x1F DUP3 ADD AND DUP3 ADD DUP1 PUSH1 0x40 MSTORE POP DUP2 ADD SWAP1 PUSH2 0x587 SWAP2 SWAP1 PUSH2 0xF41 JUMP JUMPDEST PUSH1 0x40 MLOAD DUP1 PUSH1 0x40 ADD PUSH1 0x40 MSTORE DUP1 PUSH1 0x13 DUP2 MSTORE PUSH1 0x20 ADD PUSH19 0x756E617574686F72697A656420616363657373 PUSH1 0x68 SHL DUP2 MSTORE POP SWAP1 PUSH2 0x5D1 JUMPI PUSH1 0x40 MLOAD PUSH3 0x461BCD PUSH1 0xE5 SHL DUP2 MSTORE PUSH1 0x4 ADD PUSH2 0x3D0 SWAP2 SWAP1 PUSH2 0xF63 JUMP JUMPDEST POP PUSH1 0x5 SLOAD PUSH1 0x40 DUP1 MLOAD DUP1 DUP3 ADD SWAP1 SWAP2 MSTORE PUSH1 0x12 DUP2 MSTORE PUSH18 0x18DBDB9D1C9858DD081A5CC81C185D5CD959 PUSH1 0x72 SHL PUSH1 0x20 DUP3 ADD MSTORE SWAP1 PUSH1 0xFF AND ISZERO PUSH2 0x620 JUMPI PUSH1 0x40 MLOAD PUSH3 0x461BCD PUSH1 0xE5 SHL DUP2 MSTORE PUSH1 0x4 ADD PUSH2 0x3D0 SWAP2 SWAP1 PUSH2 0xF63 JUMP JUMPDEST POP PUSH2 0x629 PUSH2 0x773 JUMP JUMPDEST POP PUSH1 0x2 SLOAD PUSH1 0x1 ADD PUSH1 0x2 SSTORE POP JUMP JUMPDEST PUSH17 0x34B7333630BA34B7B72FB6B0B730B3B2B9 PUSH1 0x79 SHL PUSH32 0x0 PUSH1 0x40 MLOAD PUSH4 0x24745215 PUSH1 0xE2 SHL DUP2 MSTORE PUSH1 0x4 DUP2 ADD DUP4 SWAP1 MSTORE CALLER PUSH1 0x24 DUP3 ADD MSTORE PUSH1 0x1 PUSH1 0x1 PUSH1 0xA0 SHL SUB SWAP2 SWAP1 SWAP2 AND SWAP1 PUSH4 0x91D14854 SWAP1 PUSH1 0x44 ADD PUSH1 0x20 PUSH1 0x40 MLOAD DUP1 DUP4 SUB DUP2 DUP7 GAS STATICCALL ISZERO DUP1 ISZERO PUSH2 0x6B9 JUMPI RETURNDATASIZE PUSH1 0x0 DUP1 RETURNDATACOPY RETURNDATASIZE PUSH1 0x0 REVERT JUMPDEST POP POP POP POP PUSH1 0x40 MLOAD RETURNDATASIZE PUSH1 0x1F NOT PUSH1 0x1F DUP3 ADD AND DUP3 ADD DUP1 PUSH1 0x40 MSTORE POP DUP2 ADD SWAP1 PUSH2 0x6DD SWAP2 SWAP1 PUSH2 0xF41 JUMP JUMPDEST PUSH1 0x40 MLOAD DUP1 PUSH1 0x40 ADD PUSH1 0x40 MSTORE DUP1 PUSH1 0x13 DUP2 MSTORE PUSH1 0x20 ADD PUSH19 0x756E617574686F72697A656420616363657373 PUSH1 0x68 SHL DUP2 MSTORE POP SWAP1 PUSH2 0x727 JUMPI PUSH1 0x40 MLOAD PUSH3 0x461BCD PUSH1 0xE5 SHL DUP2 MSTORE PUSH1 0x4 ADD PUSH2 0x3D0 SWAP2 SWAP1 PUSH2 0xF63 JUMP JUMPDEST POP PUSH2 0x730 PUSH2 0x773 JUMP JUMPDEST POP PUSH1 0x2 SLOAD PUSH1 0x1 ADD PUSH1 0x2 SSTORE PUSH1 0x5 DUP1 SLOAD PUSH1 0xFF NOT AND PUSH1 0x1 OR SWAP1 SSTORE PUSH1 0x40 MLOAD PUSH32 0xF8EEEDBC400FD6686703559F58D1E6143FDAED533F19A86C93D67A2FE4FB331 SWAP1 PUSH1 0x0 SWAP1 LOG1 POP JUMP JUMPDEST PUSH1 0x5 SLOAD PUSH1 0x0 SWAP1 PUSH1 0xFF AND ISZERO PUSH2 0x787 JUMPI POP PUSH1 0x0 SWAP1 JUMP JUMPDEST PUSH2 0x7B9 PUSH32 0x0 PUSH1 0x1 PUSH1 0x1 PUSH1 0xA0 SHL SUB AND PUSH2 0xBFB JUMP JUMPDEST PUSH1 0x1 PUSH1 0x1 PUSH1 0xA0 SHL SUB AND PUSH4 0x90B3F156 PUSH1 0x40 MLOAD DUP2 PUSH4 0xFFFFFFFF AND PUSH1 0xE0 SHL DUP2 MSTORE PUSH1 0x4 ADD PUSH1 0x0 PUSH1 0x40 MLOAD DUP1 DUP4 SUB DUP2 PUSH1 0x0 DUP8 DUP1 EXTCODESIZE ISZERO DUP1 ISZERO PUSH2 0x7F3 JUMPI PUSH1 0x0 DUP1 REVERT JUMPDEST POP GAS CALL ISZERO DUP1 ISZERO PUSH2 0x807 JUMPI RETURNDATASIZE PUSH1 0x0 DUP1 RETURNDATACOPY RETURNDATASIZE PUSH1 0x0 REVERT JUMPDEST POP POP PUSH1 0x3 SLOAD PUSH1 0x0 SWAP3 POP PUSH2 0x823 SWAP2 POP PUSH6 0xFFFFFFFFFFFF AND TIMESTAMP PUSH2 0xFE6 JUMP JUMPDEST SWAP1 POP PUSH2 0x82E DUP2 PUSH2 0xC3D JUMP JUMPDEST POP POP PUSH1 0x3 DUP1 SLOAD PUSH6 0xFFFFFFFFFFFF NOT AND TIMESTAMP PUSH6 0xFFFFFFFFFFFF AND OR SWAP1 SSTORE PUSH1 0x1 SWAP1 JUMP JUMPDEST PUSH1 0x0 CALLER PUSH1 0x1 PUSH1 0x1 PUSH1 0xA0 SHL SUB DUP5 AND EQ DUP1 PUSH2 0x8FF JUMPI POP PUSH32 0x0 PUSH1 0x40 MLOAD PUSH4 0x24745215 PUSH1 0xE2 SHL DUP2 MSTORE PUSH9 0x67617567655F7A617 PUSH1 0xBC SHL PUSH1 0x4 DUP3 ADD MSTORE CALLER PUSH1 0x24 DUP3 ADD MSTORE PUSH1 0x1 PUSH1 0x1 PUSH1 0xA0 SHL SUB SWAP2 SWAP1 SWAP2 AND SWAP1 PUSH4 0x91D14854 SWAP1 PUSH1 0x44 ADD PUSH1 0x20 PUSH1 0x40 MLOAD DUP1 DUP4 SUB DUP2 DUP7 GAS STATICCALL ISZERO DUP1 ISZERO PUSH2 0x8DB JUMPI RETURNDATASIZE PUSH1 0x0 DUP1 RETURNDATACOPY RETURNDATASIZE PUSH1 0x0 REVERT JUMPDEST POP POP POP POP PUSH1 0x40 MLOAD RETURNDATASIZE PUSH1 0x1F NOT PUSH1 0x1F DUP3 ADD AND DUP3 ADD DUP1 PUSH1 0x40 MSTORE POP DUP2 ADD SWAP1 PUSH2 0x8FF SWAP2 SWAP1 PUSH2 0xF41 JUMP JUMPDEST PUSH1 0x40 MLOAD DUP1 PUSH1 0x40 ADD PUSH1 0x40 MSTORE DUP1 PUSH1 0x13 DUP2 MSTORE PUSH1 0x20 ADD PUSH19 0x756E617574686F72697A656420616363657373 PUSH1 0x68 SHL DUP2 MSTORE POP SWAP1 PUSH2 0x949 JUMPI PUSH1 0x40 MLOAD PUSH3 0x461BCD PUSH1 0xE5 SHL DUP2 MSTORE PUSH1 0x4 ADD PUSH2 0x3D0 SWAP2 SWAP1 PUSH2 0xF63 JUMP JUMPDEST POP PUSH1 0x2 SLOAD DUP3 GT ISZERO PUSH2 0x95A JUMPI PUSH1 0x2 SLOAD SWAP2 POP JUMPDEST PUSH1 0x1 PUSH1 0x1 PUSH1 0xA0 SHL SUB DUP4 AND PUSH1 0x0 SWAP1 DUP2 MSTORE PUSH1 0x20 DUP2 SWAP1 MSTORE PUSH1 0x40 DUP2 KECCAK256 PUSH1 0x1 ADD SLOAD PUSH2 0x982 SWAP1 DUP6 SWAP1 DUP6 PUSH2 0xD33 JUMP JUMPDEST PUSH1 0x1 PUSH1 0x1 PUSH1 0xA0 SHL SUB DUP6 AND PUSH1 0x0 SWAP1 DUP2 MSTORE PUSH1 0x20 DUP2 DUP2 MSTORE PUSH1 0x40 SWAP2 DUP3 SWAP1 KECCAK256 PUSH1 0x1 ADD DUP7 SWAP1 SSTORE DUP2 MLOAD DUP1 DUP4 ADD SWAP1 SWAP3 MSTORE PUSH1 0x19 DUP3 MSTORE PUSH32 0x7A65726F207472616E73666572206E6F7420616C6C6F77656400000000000000 SWAP1 DUP3 ADD MSTORE SWAP1 SWAP2 POP DUP2 PUSH2 0x9F4 JUMPI PUSH1 0x40 MLOAD PUSH3 0x461BCD PUSH1 0xE5 SHL DUP2 MSTORE PUSH1 0x4 ADD PUSH2 0x3D0 SWAP2 SWAP1 PUSH2 0xF63 JUMP JUMPDEST POP PUSH2 0x9FF DUP5 DUP3 PUSH2 0xDB7 JUMP JUMPDEST SWAP4 SWAP3 POP POP POP JUMP JUMPDEST PUSH1 0x1 PUSH1 0x1 PUSH1 0xA0 SHL SUB DUP2 AND PUSH1 0x0 SWAP1 DUP2 MSTORE PUSH1 0x20 DUP2 SWAP1 MSTORE PUSH1 0x40 DUP2 KECCAK256 PUSH1 0x1 ADD SLOAD PUSH1 0x2 SLOAD PUSH2 0xA30 SWAP2 DUP5 SWAP2 PUSH2 0xD33 JUMP JUMPDEST SWAP3 SWAP2 POP POP JUMP JUMPDEST PUSH1 0x0 PUSH17 0x34B7333630BA34B7B72FB6B0B730B3B2B9 PUSH1 0x79 SHL PUSH32 0x0 PUSH1 0x40 MLOAD PUSH4 0x24745215 PUSH1 0xE2 SHL DUP2 MSTORE PUSH1 0x4 DUP2 ADD DUP4 SWAP1 MSTORE CALLER PUSH1 0x24 DUP3 ADD MSTORE PUSH1 0x1 PUSH1 0x1 PUSH1 0xA0 SHL SUB SWAP2 SWAP1 SWAP2 AND SWAP1 PUSH4 0x91D14854 SWAP1 PUSH1 0x44 ADD PUSH1 0x20 PUSH1 0x40 MLOAD DUP1 DUP4 SUB DUP2 DUP7 GAS STATICCALL ISZERO DUP1 ISZERO PUSH2 0xABB JUMPI RETURNDATASIZE PUSH1 0x0 DUP1 RETURNDATACOPY RETURNDATASIZE PUSH1 0x0 REVERT JUMPDEST POP POP POP POP PUSH1 0x40 MLOAD RETURNDATASIZE PUSH1 0x1F NOT PUSH1 0x1F DUP3 ADD AND DUP3 ADD DUP1 PUSH1 0x40 MSTORE POP DUP2 ADD SWAP1 PUSH2 0xADF SWAP2 SWAP1 PUSH2 0xF41 JUMP JUMPDEST PUSH1 0x40 MLOAD DUP1 PUSH1 0x40 ADD PUSH1 0x40 MSTORE DUP1 PUSH1 0x13 DUP2 MSTORE PUSH1 0x20 ADD PUSH19 0x756E617574686F72697A656420616363657373 PUSH1 0x68 SHL DUP2 MSTORE POP SWAP1 PUSH2 0xB29 JUMPI PUSH1 0x40 MLOAD PUSH3 0x461BCD PUSH1 0xE5 SHL DUP2 MSTORE PUSH1 0x4 ADD PUSH2 0x3D0 SWAP2 SWAP1 PUSH2 0xF63 JUMP JUMPDEST POP PUSH1 0x3 SLOAD PUSH1 0x0 SWAP1 PUSH2 0xB42 SWAP1 PUSH6 0xFFFFFFFFFFFF AND DUP6 PUSH2 0xFE6 JUMP JUMPDEST SWAP1 POP PUSH2 0xB4D DUP2 PUSH2 0xC3D JUMP JUMPDEST POP PUSH1 0x3 DUP1 SLOAD PUSH6 0xFFFFFFFFFFFF DUP6 AND PUSH6 0xFFFFFFFFFFFF NOT SWAP1 SWAP2 AND OR SWAP1 SSTORE PUSH1 0x1 SWAP2 POP POP SWAP2 SWAP1 POP JUMP JUMPDEST PUSH1 0x0 PUSH2 0xA30 DUP3 PUSH1 0x2 SLOAD PUSH2 0x84E JUMP JUMPDEST PUSH1 0x40 MLOAD PUSH4 0x21F8A721 PUSH1 0xE0 SHL DUP2 MSTORE PUSH11 0x3937B632A6B0B730B3B2B9 PUSH1 0xA9 SHL PUSH1 0x4 DUP3 ADD MSTORE PUSH1 0x0 SWAP1 PUSH1 0x1 PUSH1 0x1 PUSH1 0xA0 SHL SUB DUP4 AND SWAP1 PUSH4 0x21F8A721 SWAP1 PUSH1 0x24 ADD JUMPDEST PUSH1 0x20 PUSH1 0x40 MLOAD DUP1 DUP4 SUB DUP2 DUP7 GAS STATICCALL ISZERO DUP1 ISZERO PUSH2 0xBD7 JUMPI RETURNDATASIZE PUSH1 0x0 DUP1 RETURNDATACOPY RETURNDATASIZE PUSH1 0x0 REVERT JUMPDEST POP POP POP POP PUSH1 0x40 MLOAD RETURNDATASIZE PUSH1 0x1F NOT PUSH1 0x1F DUP3 ADD AND DUP3 ADD DUP1 PUSH1 0x40 MSTORE POP DUP2 ADD SWAP1 PUSH2 0xA30 SWAP2 SWAP1 PUSH2 0xFFD JUMP JUMPDEST PUSH1 0x40 MLOAD PUSH4 0x21F8A721 PUSH1 0xE0 SHL DUP2 MSTORE PUSH16 0x34B7333630BA34B7B726B0B730B3B2B9 PUSH1 0x81 SHL PUSH1 0x4 DUP3 ADD MSTORE PUSH1 0x0 SWAP1 PUSH1 0x1 PUSH1 0x1 PUSH1 0xA0 SHL SUB DUP4 AND SWAP1 PUSH4 0x21F8A721 SWAP1 PUSH1 0x24 ADD PUSH2 0xBBA JUMP JUMPDEST PUSH1 0x0 PUSH2 0xC71 PUSH32 0x0 PUSH1 0x1 PUSH1 0x1 PUSH1 0xA0 SHL SUB AND PUSH2 0xBFB JUMP JUMPDEST PUSH1 0x40 MLOAD PUSH4 0x271A15BF PUSH1 0xE2 SHL DUP2 MSTORE PUSH1 0x1 PUSH1 0x1 PUSH1 0xA0 SHL SUB PUSH32 0x0 DUP2 AND PUSH1 0x4 DUP4 ADD MSTORE SWAP2 SWAP1 SWAP2 AND SWAP1 PUSH4 0x9C6856FC SWAP1 PUSH1 0x24 ADD PUSH1 0x20 PUSH1 0x40 MLOAD DUP1 DUP4 SUB DUP2 DUP7 GAS STATICCALL ISZERO DUP1 ISZERO PUSH2 0xCD9 JUMPI RETURNDATASIZE PUSH1 0x0 DUP1 RETURNDATACOPY RETURNDATASIZE PUSH1 0x0 REVERT JUMPDEST POP POP POP POP PUSH1 0x40 MLOAD RETURNDATASIZE PUSH1 0x1F NOT PUSH1 0x1F DUP3 ADD AND DUP3 ADD DUP1 PUSH1 0x40 MSTORE POP DUP2 ADD SWAP1 PUSH2 0xCFD SWAP2 SWAP1 PUSH2 0x101A JUMP JUMPDEST SWAP1 POP PUSH2 0xD09 DUP3 DUP3 PUSH2 0x1033 JUMP JUMPDEST PUSH1 0x2 SLOAD PUSH1 0x0 SWAP1 DUP2 MSTORE PUSH1 0x4 PUSH1 0x20 MSTORE PUSH1 0x40 DUP2 KECCAK256 DUP1 SLOAD SWAP1 SWAP2 SWAP1 PUSH2 0xD2A SWAP1 DUP5 SWAP1 PUSH2 0xFCE JUMP JUMPDEST SWAP1 SWAP2 SSTORE POP POP POP POP JUMP JUMPDEST PUSH1 0x0 DUP1 DUP4 JUMPDEST DUP4 DUP2 LT ISZERO PUSH2 0xDAE JUMPI PUSH1 0x0 DUP2 DUP2 MSTORE PUSH1 0x1 PUSH1 0x20 MSTORE PUSH1 0x40 SWAP1 KECCAK256 SLOAD DUP1 ISZERO PUSH2 0xDA5 JUMPI PUSH1 0x0 DUP3 DUP2 MSTORE PUSH1 0x4 PUSH1 0x20 SWAP1 DUP2 MSTORE PUSH1 0x40 DUP1 DUP4 KECCAK256 SLOAD PUSH1 0x1 PUSH1 0x1 PUSH1 0xA0 SHL SUB DUP12 AND DUP5 MSTORE DUP4 DUP4 MSTORE DUP2 DUP5 KECCAK256 DUP7 DUP6 MSTORE SWAP1 SWAP3 MSTORE SWAP1 SWAP2 KECCAK256 SLOAD PUSH2 0xD98 SWAP2 SWAP1 PUSH2 0xD92 SWAP1 DUP5 PUSH2 0xE51 JUMP JUMPDEST SWAP1 PUSH2 0xE70 JUMP JUMPDEST PUSH2 0xDA2 SWAP1 DUP5 PUSH2 0xFCE JUMP JUMPDEST SWAP3 POP JUMPDEST POP PUSH1 0x1 ADD PUSH2 0xD38 JUMP JUMPDEST POP SWAP5 SWAP4 POP POP POP POP JUMP JUMPDEST PUSH2 0xDE9 PUSH32 0x0 PUSH1 0x1 PUSH1 0x1 PUSH1 0xA0 SHL SUB AND PUSH2 0xBFB JUMP JUMPDEST PUSH1 0x40 MLOAD PUSH4 0x35106F49 PUSH1 0xE1 SHL DUP2 MSTORE PUSH1 0x1 PUSH1 0x1 PUSH1 0xA0 SHL SUB DUP5 DUP2 AND PUSH1 0x4 DUP4 ADD MSTORE PUSH1 0x24 DUP3 ADD DUP5 SWAP1 MSTORE SWAP2 SWAP1 SWAP2 AND SWAP1 PUSH4 0x6A20DE92 SWAP1 PUSH1 0x44 ADD PUSH1 0x0 PUSH1 0x40 MLOAD DUP1 DUP4 SUB DUP2 PUSH1 0x0 DUP8 DUP1 EXTCODESIZE ISZERO DUP1 ISZERO PUSH2 0xE35 JUMPI PUSH1 0x0 DUP1 REVERT JUMPDEST POP GAS CALL ISZERO DUP1 ISZERO PUSH2 0xE49 JUMPI RETURNDATASIZE PUSH1 0x0 DUP1 RETURNDATACOPY RETURNDATASIZE PUSH1 0x0 REVERT JUMPDEST POP POP POP POP POP POP JUMP JUMPDEST PUSH1 0x0 DUP2 PUSH2 0xE66 PUSH8 0xDE0B6B3A7640000 DUP6 PUSH2 0x1033 JUMP JUMPDEST PUSH2 0x9FF SWAP2 SWAP1 PUSH2 0x1052 JUMP JUMPDEST PUSH1 0x0 PUSH8 0xDE0B6B3A7640000 PUSH2 0xE66 DUP4 DUP6 PUSH2 0x1033 JUMP JUMPDEST PUSH1 0x1 PUSH1 0x1 PUSH1 0xA0 SHL SUB DUP2 AND DUP2 EQ PUSH2 0xE9A JUMPI PUSH1 0x0 DUP1 REVERT JUMPDEST POP JUMP JUMPDEST PUSH1 0x0 DUP1 PUSH1 0x0 PUSH1 0x60 DUP5 DUP7 SUB SLT ISZERO PUSH2 0xEB2 JUMPI PUSH1 0x0 DUP1 REVERT JUMPDEST DUP4 CALLDATALOAD PUSH2 0xEBD DUP2 PUSH2 0xE85 JUMP JUMPDEST SWAP3 POP PUSH1 0x20 DUP5 ADD CALLDATALOAD SWAP2 POP PUSH1 0x40 DUP5 ADD CALLDATALOAD PUSH2 0xED4 DUP2 PUSH2 0xE85 JUMP JUMPDEST DUP1 SWAP2 POP POP SWAP3 POP SWAP3 POP SWAP3 JUMP JUMPDEST PUSH1 0x0 PUSH1 0x20 DUP3 DUP5 SUB SLT ISZERO PUSH2 0xEF1 JUMPI PUSH1 0x0 DUP1 REVERT JUMPDEST POP CALLDATALOAD SWAP2 SWAP1 POP JUMP JUMPDEST PUSH1 0x0 PUSH1 0x20 DUP3 DUP5 SUB SLT ISZERO PUSH2 0xF0A JUMPI PUSH1 0x0 DUP1 REVERT JUMPDEST DUP2 CALLDATALOAD PUSH2 0x9FF DUP2 PUSH2 0xE85 JUMP JUMPDEST PUSH1 0x0 DUP1 PUSH1 0x40 DUP4 DUP6 SUB SLT ISZERO PUSH2 0xF28 JUMPI PUSH1 0x0 DUP1 REVERT JUMPDEST DUP3 CALLDATALOAD PUSH2 0xF33 DUP2 PUSH2 0xE85 JUMP JUMPDEST SWAP5 PUSH1 0x20 SWAP4 SWAP1 SWAP4 ADD CALLDATALOAD SWAP4 POP POP POP JUMP JUMPDEST PUSH1 0x0 PUSH1 0x20 DUP3 DUP5 SUB SLT ISZERO PUSH2 0xF53 JUMPI PUSH1 0x0 DUP1 REVERT JUMPDEST DUP2 MLOAD DUP1 ISZERO ISZERO DUP2 EQ PUSH2 0x9FF JUMPI PUSH1 0x0 DUP1 REVERT JUMPDEST PUSH1 0x0 PUSH1 0x20 DUP1 DUP4 MSTORE DUP4 MLOAD DUP1 DUP3 DUP6 ADD MSTORE PUSH1 0x0 JUMPDEST DUP2 DUP2 LT ISZERO PUSH2 0xF90 JUMPI DUP6 DUP2 ADD DUP4 ADD MLOAD DUP6 DUP3 ADD PUSH1 0x40 ADD MSTORE DUP3 ADD PUSH2 0xF74 JUMP JUMPDEST DUP2 DUP2 GT ISZERO PUSH2 0xFA2 JUMPI PUSH1 0x0 PUSH1 0x40 DUP4 DUP8 ADD ADD MSTORE JUMPDEST POP PUSH1 0x1F ADD PUSH1 0x1F NOT AND SWAP3 SWAP1 SWAP3 ADD PUSH1 0x40 ADD SWAP4 SWAP3 POP POP POP JUMP JUMPDEST PUSH4 0x4E487B71 PUSH1 0xE0 SHL PUSH1 0x0 MSTORE PUSH1 0x11 PUSH1 0x4 MSTORE PUSH1 0x24 PUSH1 0x0 REVERT JUMPDEST PUSH1 0x0 DUP3 NOT DUP3 GT ISZERO PUSH2 0xFE1 JUMPI PUSH2 0xFE1 PUSH2 0xFB8 JUMP JUMPDEST POP ADD SWAP1 JUMP JUMPDEST PUSH1 0x0 DUP3 DUP3 LT ISZERO PUSH2 0xFF8 JUMPI PUSH2 0xFF8 PUSH2 0xFB8 JUMP JUMPDEST POP SUB SWAP1 JUMP JUMPDEST PUSH1 0x0 PUSH1 0x20 DUP3 DUP5 SUB SLT ISZERO PUSH2 0x100F JUMPI PUSH1 0x0 DUP1 REVERT JUMPDEST DUP2 MLOAD PUSH2 0x9FF DUP2 PUSH2 0xE85 JUMP JUMPDEST PUSH1 0x0 PUSH1 0x20 DUP3 DUP5 SUB SLT ISZERO PUSH2 0x102C JUMPI PUSH1 0x0 DUP1 REVERT JUMPDEST POP MLOAD SWAP2 SWAP1 POP JUMP JUMPDEST PUSH1 0x0 DUP2 PUSH1 0x0 NOT DIV DUP4 GT DUP3 ISZERO ISZERO AND ISZERO PUSH2 0x104D JUMPI PUSH2 0x104D PUSH2 0xFB8 JUMP JUMPDEST POP MUL SWAP1 JUMP JUMPDEST PUSH1 0x0 DUP3 PUSH2 0x106F JUMPI PUSH4 0x4E487B71 PUSH1 0xE0 SHL PUSH1 0x0 MSTORE PUSH1 0x12 PUSH1 0x4 MSTORE PUSH1 0x24 PUSH1 0x0 REVERT JUMPDEST POP DIV SWAP1 JUMP INVALID LOG2 PUSH5 0x6970667358 0x22 SLT KECCAK256 EXP CODECOPY MULMOD EXTCODEHASH PUSH9 0x621D59261F7EBB1C6C 0xBA 0xCB CHAINID SWAP1 MOD 0xCD 0x26 GASPRICE MLOAD 0xFC DUP3 0xFC NOT 0xEB XOR NOT 0xA6 0xE5 PUSH5 0x736F6C6343 STOP ADDMOD EXP STOP CALLER ","sha1":"d90b2e3a9e24e3339d93225d3c672ec5b2fadc86","source":"// SPDX-License-Identifier: GPL-3.0-or-later\npragma solidity 0.8.10;\n\nimport \"../../interfaces/IController.sol\";\nimport \"../../interfaces/tokenomics/IKeeperGauge.sol\";\n\nimport \"../../libraries/ScaledMath.sol\";\nimport \"../../libraries/Errors.sol\";\nimport \"../../libraries/AddressProviderHelpers.sol\";\nimport \"../../libraries/UncheckedMath.sol\";\n\nimport \"../access/Authorization.sol\";\n\ncontract KeeperGauge is IKeeperGauge, Authorization {\n    using AddressProviderHelpers for IAddressProvider;\n    using ScaledMath for uint256;\n    using UncheckedMath for uint256;\n\n    struct KeeperRecord {\n        mapping(uint256 => uint256) feesInPeriod;\n        uint256 nextEpochToClaim;\n        bool firstEpochSet;\n    }\n\n    mapping(address => KeeperRecord) public keeperRecords;\n    mapping(uint256 => uint256) public perPeriodTotalFees;\n\n    IAddressProvider public immutable addressProvider;\n    address public immutable pool;\n    uint256 public epoch;\n\n    uint48 public lastUpdated;\n    mapping(uint256 => uint256) public perPeriodTotalInflation;\n\n    bool public override killed;\n\n    event Killed();\n\n    constructor(IAddressProvider _addressProvider, address _pool)\n        Authorization(_addressProvider.getRoleManager())\n    {\n        addressProvider = _addressProvider;\n        pool = _pool;\n        lastUpdated = uint48(block.timestamp);\n    }\n\n    /**\n     * @notice Shut down the gauge.\n     * @dev Accrued inflation can still be claimed from the gauge after shutdown.\n     */\n    function kill() external override onlyRole(Roles.INFLATION_MANAGER) {\n        poolCheckpoint();\n        epoch = epoch.uncheckedInc();\n        killed = true;\n        emit Killed();\n    }\n\n    /**\n     * @notice Report fees generated by a keeper (this is the basis for inflation accrual).\n     * @dev lpTokenAddress is included for forward compatibility with a single gauge solution.\n     * @param beneficiary Address of the keeper who earned the fees.\n     * @param amount Amount of fees (in lp tokens) earned.\n     * @param lpTokenAddress Address of the lpToken in which the fees are paid.\n     */\n    function reportFees(\n        address beneficiary,\n        uint256 amount,\n        address lpTokenAddress\n    ) external override {\n        lpTokenAddress; // silencing compiler warning\n        require(addressProvider.isWhiteListedFeeHandler(msg.sender), Error.ADDRESS_NOT_WHITELISTED);\n        require(!killed, Error.CONTRACT_PAUSED);\n        if (!keeperRecords[beneficiary].firstEpochSet) {\n            keeperRecords[beneficiary].firstEpochSet = true;\n            keeperRecords[beneficiary].nextEpochToClaim = epoch;\n        }\n        keeperRecords[beneficiary].feesInPeriod[epoch] += amount;\n        perPeriodTotalFees[epoch] += amount;\n    }\n\n    /**\n     * @notice Advance the inflation accrual epoch.\n     */\n    function advanceEpoch() external virtual override onlyRole(Roles.INFLATION_MANAGER) {\n        require(!killed, Error.CONTRACT_PAUSED);\n        poolCheckpoint();\n        epoch = epoch.uncheckedInc();\n    }\n\n    function claimRewards(address beneficiary) external override returns (uint256) {\n        return claimRewards(beneficiary, epoch);\n    }\n\n    function poolCheckpoint(uint256 updateEndTime)\n        external\n        override\n        onlyRole(Roles.INFLATION_MANAGER)\n        returns (bool)\n    {\n        uint256 timeElapsed = updateEndTime - uint256(lastUpdated);\n        _poolCheckpoint(timeElapsed);\n        lastUpdated = uint48(updateEndTime);\n        return true;\n    }\n\n    function claimableRewards(address beneficiary) external view override returns (uint256) {\n        return _calcTotalClaimable(beneficiary, keeperRecords[beneficiary].nextEpochToClaim, epoch);\n    }\n\n    function poolCheckpoint() public override returns (bool) {\n        if (killed) return false;\n        addressProvider.getInflationManager().checkPointInflation();\n        uint256 timeElapsed = block.timestamp - uint256(lastUpdated);\n        _poolCheckpoint(timeElapsed);\n        lastUpdated = uint48(block.timestamp);\n        return true;\n    }\n\n    /**\n     * @notice Claim rewards with an epoch up to which they should be claimed specified.\n     * @param beneficiary Address to claim rewards for.\n     * @param endEpoch Epoch up to which to claim rewards.\n     * @return The amount of rewards claimed.\n     */\n    function claimRewards(address beneficiary, uint256 endEpoch) public override returns (uint256) {\n        require(\n            msg.sender == beneficiary || _roleManager().hasRole(Roles.GAUGE_ZAP, msg.sender),\n            Error.UNAUTHORIZED_ACCESS\n        );\n        if (endEpoch > epoch) {\n            endEpoch = epoch;\n        }\n\n        uint256 totalClaimable = _calcTotalClaimable(\n            beneficiary,\n            keeperRecords[beneficiary].nextEpochToClaim,\n            endEpoch\n        );\n        keeperRecords[beneficiary].nextEpochToClaim = endEpoch;\n        require(totalClaimable > 0, Error.ZERO_TRANSFER_NOT_ALLOWED);\n        _mintRewards(beneficiary, totalClaimable);\n\n        return totalClaimable;\n    }\n\n    function _poolCheckpoint(uint256 timeElapsed) internal {\n        uint256 currentRate = addressProvider.getInflationManager().getKeeperRateForPool(pool);\n        perPeriodTotalInflation[epoch] += currentRate * timeElapsed;\n    }\n\n    function _mintRewards(address beneficiary, uint256 amount) internal {\n        addressProvider.getInflationManager().mintRewards(beneficiary, amount);\n    }\n\n    function _calcTotalClaimable(\n        address beneficiary,\n        uint256 startEpoch,\n        uint256 endEpoch\n    ) internal view returns (uint256) {\n        uint256 totalClaimable;\n        for (uint256 i = startEpoch; i < endEpoch; i = i.uncheckedInc()) {\n            uint256 periodTotalFees = perPeriodTotalFees[i];\n            if (periodTotalFees > 0) {\n                totalClaimable += (\n                    keeperRecords[beneficiary].feesInPeriod[i].scaledDiv(periodTotalFees)\n                ).scaledMul(perPeriodTotalInflation[i]);\n            }\n        }\n        return totalClaimable;\n    }\n}\n","sourcePath":"contracts/tokenomics/KeeperGauge.sol","type":"contract","deployment":{"address":"0xC274ACD22f4E78aECA54C55Cd81F7646cD87b335","chainid":"42","blockHeight":33232044}}