{"abi":[{"inputs":[{"internalType":"contract IController","name":"_controller","type":"address"}],"stateMutability":"nonpayable","type":"constructor","name":"constructor"},{"anonymous":false,"inputs":[{"indexed":false,"internalType":"bytes32","name":"key","type":"bytes32"},{"indexed":false,"internalType":"bytes32","name":"name","type":"bytes32"},{"indexed":false,"internalType":"address","name":"implementation","type":"address"}],"name":"NewImplementation","type":"event"},{"anonymous":false,"inputs":[{"indexed":false,"internalType":"address","name":"pool","type":"address"},{"indexed":false,"internalType":"address","name":"vault","type":"address"},{"indexed":false,"internalType":"address","name":"lpToken","type":"address"},{"indexed":false,"internalType":"address","name":"stakerVault","type":"address"}],"name":"NewPool","type":"event"},{"inputs":[{"internalType":"bytes32","name":"name","type":"bytes32"},{"internalType":"address","name":"implementation","type":"address"},{"internalType":"bytes","name":"initCode","type":"bytes"}],"name":"addLpTokenImplementation","outputs":[{"internalType":"bool","name":"","type":"bool"}],"stateMutability":"nonpayable","type":"function"},{"inputs":[{"internalType":"bytes32","name":"name","type":"bytes32"},{"internalType":"address","name":"implementation","type":"address"}],"name":"addPoolImplementation","outputs":[{"internalType":"bool","name":"","type":"bool"}],"stateMutability":"nonpayable","type":"function"},{"inputs":[{"internalType":"bytes32","name":"name","type":"bytes32"},{"internalType":"address","name":"implementation","type":"address"}],"name":"addStakerVaultImplementation","outputs":[{"internalType":"bool","name":"","type":"bool"}],"stateMutability":"nonpayable","type":"function"},{"inputs":[{"internalType":"bytes32","name":"name","type":"bytes32"},{"internalType":"address","name":"implementation","type":"address"}],"name":"addVaultImplementation","outputs":[{"internalType":"bool","name":"","type":"bool"}],"stateMutability":"nonpayable","type":"function"},{"inputs":[],"name":"addressProvider","outputs":[{"internalType":"contract IAddressProvider","name":"","type":"address"}],"stateMutability":"view","type":"function"},{"inputs":[],"name":"controller","outputs":[{"internalType":"contract IController","name":"","type":"address"}],"stateMutability":"view","type":"function"},{"inputs":[{"internalType":"address","name":"underlying","type":"address"},{"components":[{"internalType":"string","name":"name","type":"string"},{"internalType":"uint256","name":"maxWithdrawalFee","type":"uint256"},{"internalType":"uint256","name":"minWithdrawalFee","type":"uint256"}],"internalType":"struct IPoolFactory.PoolArgs","name":"poolArgs","type":"tuple"},{"components":[{"internalType":"string","name":"name","type":"string"},{"internalType":"string","name":"symbol","type":"string"},{"internalType":"uint8","name":"decimals","type":"uint8"}],"internalType":"struct IPoolFactory.LpTokenArgs","name":"lpTokenArgs","type":"tuple"},{"components":[{"internalType":"uint256","name":"debtLimit","type":"uint256"},{"internalType":"uint256","name":"targetAllocation","type":"uint256"},{"internalType":"uint256","name":"bound","type":"uint256"}],"internalType":"struct IPoolFactory.VaultArgs","name":"vaultArgs","type":"tuple"},{"components":[{"internalType":"bytes32","name":"pool","type":"bytes32"},{"internalType":"bytes32","name":"vault","type":"bytes32"},{"internalType":"bytes32","name":"lpToken","type":"bytes32"},{"internalType":"bytes32","name":"stakerVault","type":"bytes32"}],"internalType":"struct IPoolFactory.ImplementationNames","name":"implementationNames","type":"tuple"}],"name":"deployPool","outputs":[{"components":[{"internalType":"address","name":"pool","type":"address"},{"internalType":"address","name":"vault","type":"address"},{"internalType":"address","name":"lpToken","type":"address"},{"internalType":"address","name":"stakerVault","type":"address"}],"internalType":"struct IPoolFactory.Addresses","name":"addrs","type":"tuple"}],"stateMutability":"nonpayable","type":"function"},{"inputs":[{"internalType":"bytes32","name":"","type":"bytes32"},{"internalType":"bytes32","name":"","type":"bytes32"}],"name":"implementations","outputs":[{"internalType":"address","name":"","type":"address"}],"stateMutability":"view","type":"function"},{"inputs":[{"internalType":"address","name":"","type":"address"}],"name":"lpTokensInitCode","outputs":[{"internalType":"bytes","name":"","type":"bytes"}],"stateMutability":"view","type":"function"},{"inputs":[],"name":"roleManager","outputs":[{"internalType":"contract IRoleManager","name":"","type":"address"}],"stateMutability":"view","type":"function"}],"bytecode":"60e06040523480156200001157600080fd5b5060405162001b4538038062001b458339810160408190526200003491620001dc565b620000b7816001600160a01b0316632954018c6040518163ffffffff1660e01b8152600401602060405180830381865afa15801562000077573d6000803e3d6000fd5b505050506040513d601f19601f820116820180604052508101906200009d9190620001dc565b6001600160a01b03166200014160201b620010d01760201c565b6001600160a01b03908116608052811660a081905260408051630a55006360e21b81529051632954018c916004808201926020929091908290030181865afa15801562000108573d6000803e3d6000fd5b505050506040513d601f19601f820116820180604052508101906200012e9190620001dc565b6001600160a01b031660c0525062000203565b6040516321f8a72160e01b81526a3937b632a6b0b730b3b2b960a91b60048201526000906001600160a01b038316906321f8a72190602401602060405180830381865afa15801562000197573d6000803e3d6000fd5b505050506040513d601f19601f82011682018060405250810190620001bd9190620001dc565b92915050565b6001600160a01b0381168114620001d957600080fd5b50565b600060208284031215620001ef57600080fd5b8151620001fc81620001c3565b9392505050565b60805160a05160c0516118e2620002636000396000818161015f0152610c530152600081816102100152610aa201526000818160a4015281816102360152818161038f01528181610d3301528181610e370152610f3501526118e26000f3fe608060405234801561001057600080fd5b506004361061009d5760003560e01c806334e6cbad1161006657806334e6cbad14610194578063bbbaf172146101a7578063ef164412146101ba578063f6b6af7d146101da578063f77c47911461020b57600080fd5b8062435da5146100a257806302574035146100e157806317a7de60146101045780632954018c1461015a578063327bea8914610181575b600080fd5b7f00000000000000000000000000000000000000000000000000000000000000005b6040516001600160a01b0390911681526020015b60405180910390f35b6100f46100ef366004611341565b610232565b60405190151581526020016100d8565b6101176101123660046113e2565b610369565b6040516100d8919081516001600160a01b039081168252602080840151821690830152604080840151821690830152606092830151169181019190915260800190565b6100c47f000000000000000000000000000000000000000000000000000000000000000081565b6100f461018f366004611488565b610d2f565b6100f46101a2366004611488565b610e33565b6100f46101b5366004611488565b610f31565b6101cd6101c83660046114b8565b611036565b6040516100d89190611531565b6100c46101e8366004611544565b60006020818152928152604080822090935290815220546001600160a01b031681565b6100c47f000000000000000000000000000000000000000000000000000000000000000081565b60007f0000000000000000000000000000000000000000000000000000000000000000604051632474521560e21b815269676f7665726e616e636560b01b60048201523360248201526001600160a01b0391909116906391d1485490604401602060405180830381865afa1580156102ae573d6000803e3d6000fd5b505050506040513d601f19601f820116820180604052508101906102d29190611566565b60405180604001604052806013815260200172756e617574686f72697a65642061636365737360681b815250906103255760405162461bcd60e51b815260040161031c9190611531565b60405180910390fd5b506001600160a01b0384166000908152600160205260409020610349908484611290565b506103606736382fba37b5b2b760c11b868661114f565b95945050505050565b6040805160808101825260008082526020820181905291810182905260608101919091527f0000000000000000000000000000000000000000000000000000000000000000604051632474521560e21b815269676f7665726e616e636560b01b60048201523360248201526001600160a01b0391909116906391d1485490604401602060405180830381865afa158015610407573d6000803e3d6000fd5b505050506040513d601f19601f8201168201806040525081019061042b9190611566565b60405180604001604052806013815260200172756e617574686f72697a65642061636365737360681b815250906104755760405162461bcd60e51b815260040161031c9190611531565b5060408051608081018252600080825260208083018281528385018390526060808501849052873584527f41c12a0618fd8c91e4bd4c2bad3960a11ca69ecb61096f2afe909d647d705506835292859020546001600160a01b0316908190528451928301909452602a808352929315159290611824908301399061050c5760405162461bcd60e51b815260040161031c9190611531565b5060408381013560009081527f509576413f2a764e16fca6f55b1b0b59f0c7d685debdb649e7380f6e646f85ec602090815290829020546001600160a01b0316808452825160608101909352602e808452901515929161184e90830139906105875760405162461bcd60e51b815260040161031c9190611531565b5060208381013560009081527f5a91006bbd508b31448de1f8d6457185050e71de2fb28afff373542928e213b98252604090819020546001600160a01b031660608085018290528251908101909252602b808352901515926117f990830139906106045760405162461bcd60e51b815260040161031c9190611531565b5060608084013560009081527f2cf082650f22d678d13e32cb83a8e9eb2f601f6cb0dd457ecf139323a1bac1aa6020908152604091829020546001600160a01b03168483018190528251938401909252603180845291151592919061187c90830139906106845760405162461bcd60e51b815260040161031c9190611531565b5061069281602001516111f3565b6001600160a01b0316825260608101516106ab906111f3565b6001600160a01b039081166020840152871661085f5760006001600160a01b031681602001516001600160a01b0316639816f4736040518163ffffffff1660e01b8152600401602060405180830381865afa15801561070e573d6000803e3d6000fd5b505050506040513d601f19601f820116820180604052508101906107329190611588565b6001600160a01b0316146040518060600160405280602a8152602001611824602a9139906107735760405162461bcd60e51b815260040161031c9190611531565b5061078460608601604087016115a5565b60ff166012146040518060400160405280601c81526020017f696e636f7272656374206e756d626572206f6620646563696d616c7300000000815250906107de5760405162461bcd60e51b815260040161031c9190611531565b5081516001600160a01b0316631e214f066107f988806115c8565b85602001518a602001358b604001356040518663ffffffff1660e01b815260040161082895949392919061163f565b600060405180830381600087803b15801561084257600080fd5b505af1158015610856573d6000803e3d6000fd5b505050506108dd565b81516001600160a01b031663b2f36b5b61087988806115c8565b8a86602001518b602001358c604001356040518763ffffffff1660e01b81526004016108aa96959493929190611679565b600060405180830381600087803b1580156108c457600080fd5b505af11580156108d8573d6000803e3d6000fd5b505050505b6000806001600084600001516001600160a01b03166001600160a01b0316815260200190815260200160002083600001516001600160a01b0316803b806020016040519081016040528181526000908060200190933c60405160200161094492919061170c565b60405160208183030381529060405290508051602082016000f06001600160a01b0381166040860181905290925063de7ea79d61098189806115c8565b61098e60208c018c6115c8565b61099e60608e0160408f016115a5565b8a516040516001600160e01b031960e089901b1681526109c6969594939291906004016117aa565b6020604051808303816000875af11580156109e5573d6000803e3d6000fd5b505050506040513d601f19601f82011682018060405250810190610a099190611566565b50610a1783604001516111f3565b6001600160a01b0390811660608601819052604080870151905163189acdbd60e31b8152921660048301529063c4d66de890602401600060405180830381600087803b158015610a6657600080fd5b505af1158015610a7a573d6000803e3d6000fd5b50505050606084015160405163c1d84e0b60e01b81526001600160a01b0391821660048201527f00000000000000000000000000000000000000000000000000000000000000009091169063c1d84e0b90602401600060405180830381600087803b158015610ae857600080fd5b505af1158015610afc573d6000803e3d6000fd5b505085516040808801519051639ee933b560e01b81526001600160a01b03918216600482015291169250639ee933b59150602401600060405180830381600087803b158015610b4a57600080fd5b505af1158015610b5e573d6000803e3d6000fd5b5050505083600001516001600160a01b03166366f07dd26040518163ffffffff1660e01b8152600401600060405180830381600087803b158015610ba157600080fd5b505af1158015610bb5573d6000803e3d6000fd5b50505050602084810151855160408051634ec81af160e01b81526001600160a01b0392831660048201528a356024820152938a0135604485015289013560648401521690634ec81af190608401600060405180830381600087803b158015610c1c57600080fd5b505af1158015610c30573d6000803e3d6000fd5b5050855160405163d914cd4b60e01b81526001600160a01b0391821660048201527f0000000000000000000000000000000000000000000000000000000000000000909116925063d914cd4b9150602401600060405180830381600087803b158015610c9b57600080fd5b505af1158015610caf573d6000803e3d6000fd5b50508551602087015160408089015160608a015191517f7485fd97aa22b8f3780a33f0f69ac8a5f0e479548977fe3fa7d9459698a2d8fe9650610d1b95509091906001600160a01b03948516815292841660208401529083166040830152909116606082015260800190565b60405180910390a150505095945050505050565b60007f0000000000000000000000000000000000000000000000000000000000000000604051632474521560e21b815269676f7665726e616e636560b01b60048201523360248201526001600160a01b0391909116906391d1485490604401602060405180830381865afa158015610dab573d6000803e3d6000fd5b505050506040513d601f19601f82011682018060405250810190610dcf9190611566565b60405180604001604052806013815260200172756e617574686f72697a65642061636365737360681b81525090610e195760405162461bcd60e51b815260040161031c9190611531565b50610e2c631c1bdbdb60e21b848461114f565b9392505050565b60007f0000000000000000000000000000000000000000000000000000000000000000604051632474521560e21b815269676f7665726e616e636560b01b60048201523360248201526001600160a01b0391909116906391d1485490604401602060405180830381865afa158015610eaf573d6000803e3d6000fd5b505050506040513d601f19601f82011682018060405250810190610ed39190611566565b60405180604001604052806013815260200172756e617574686f72697a65642061636365737360681b81525090610f1d5760405162461bcd60e51b815260040161031c9190611531565b50610e2c641d985d5b1d60da1b848461114f565b60007f0000000000000000000000000000000000000000000000000000000000000000604051632474521560e21b815269676f7665726e616e636560b01b60048201523360248201526001600160a01b0391909116906391d1485490604401602060405180830381865afa158015610fad573d6000803e3d6000fd5b505050506040513d601f19601f82011682018060405250810190610fd19190611566565b60405180604001604052806013815260200172756e617574686f72697a65642061636365737360681b8152509061101b5760405162461bcd60e51b815260040161031c9190611531565b50610e2c6b1cdd185ad95c97dd985d5b1d60a21b848461114f565b6001602052600090815260409020805461104f906116bb565b80601f016020809104026020016040519081016040528092919081815260200182805461107b906116bb565b80156110c85780601f1061109d576101008083540402835291602001916110c8565b820191906000526020600020905b8154815290600101906020018083116110ab57829003601f168201915b505050505081565b6040516321f8a72160e01b81526a3937b632a6b0b730b3b2b960a91b60048201526000906001600160a01b038316906321f8a72190602401602060405180830381865afa158015611125573d6000803e3d6000fd5b505050506040513d601f19601f820116820180604052508101906111499190611588565b92915050565b600083815260208181526040808320858452918290528220546001600160a01b031615611180576000915050610e2c565b6000848152602082815260409182902080546001600160a01b0387166001600160a01b0319909116811790915582518881529182018790528183015290517fb6995687d7ca103560700935c62676d62918daf01877efebce4eeeeb6bedd5129181900360600190a1506001949350505050565b6000604051733d602d80600a3d3981f3363d3d373d3d3d363d7360601b81528260601b60148201526e5af43d82803e903d91602b57fd5bf360881b60288201526037816000f09150506001600160a01b03811661128b5760405162461bcd60e51b8152602060048201526016602482015275115490cc4c4d8dce8818dc99585d194819985a5b195960521b604482015260640161031c565b919050565b82805461129c906116bb565b90600052602060002090601f0160209004810192826112be5760008555611304565b82601f106112d75782800160ff19823516178555611304565b82800160010185558215611304579182015b828111156113045782358255916020019190600101906112e9565b50611310929150611314565b5090565b5b808211156113105760008155600101611315565b6001600160a01b038116811461133e57600080fd5b50565b6000806000806060858703121561135757600080fd5b84359350602085013561136981611329565b9250604085013567ffffffffffffffff8082111561138657600080fd5b818701915087601f83011261139a57600080fd5b8135818111156113a957600080fd5b8860208285010111156113bb57600080fd5b95989497505060200194505050565b6000606082840312156113dc57600080fd5b50919050565b60008060008060008587036101408112156113fc57600080fd5b863561140781611329565b9550602087013567ffffffffffffffff8082111561142457600080fd5b6114308a838b016113ca565b9650604089013591508082111561144657600080fd5b5061145389828a016113ca565b94505061146388606089016113ca565b9250608060bf198201121561147757600080fd5b5060c0860190509295509295909350565b6000806040838503121561149b57600080fd5b8235915060208301356114ad81611329565b809150509250929050565b6000602082840312156114ca57600080fd5b8135610e2c81611329565b60005b838110156114f05781810151838201526020016114d8565b838111156114ff576000848401525b50505050565b6000815180845261151d8160208601602086016114d5565b601f01601f19169290920160200192915050565b602081526000610e2c6020830184611505565b6000806040838503121561155757600080fd5b50508035926020909101359150565b60006020828403121561157857600080fd5b81518015158114610e2c57600080fd5b60006020828403121561159a57600080fd5b8151610e2c81611329565b6000602082840312156115b757600080fd5b813560ff81168114610e2c57600080fd5b6000808335601e198436030181126115df57600080fd5b83018035915067ffffffffffffffff8211156115fa57600080fd5b60200191503681900382131561160f57600080fd5b9250929050565b81835281816020850137506000828201602090810191909152601f909101601f19169091010190565b608081526000611653608083018789611616565b6001600160a01b0395909516602083015250604081019290925260609091015292915050565b60a08152600061168d60a08301888a611616565b6001600160a01b03968716602084015294909516604082015260608101929092526080909101529392505050565b600181811c908216806116cf57607f821691505b602082108114156113dc57634e487b7160e01b600052602260045260246000fd5b600081516117028185602086016114d5565b9290920192915050565b600080845481600182811c91508083168061172857607f831692505b602080841082141561174857634e487b7160e01b86526022600452602486fd5b81801561175c576001811461176d5761179a565b60ff1986168952848901965061179a565b60008b81526020902060005b868110156117925781548b820152908501908301611779565b505084890196505b50505050505061036081856116f0565b6080815260006117be60808301888a611616565b82810360208401526117d1818789611616565b60ff95909516604084015250506001600160a01b039190911660609091015294935050505056fe696e76616c6964207661756c7420696d706c656d656e746174696f6e20666f7220676976656e20636f696e696e76616c696420706f6f6c20696d706c656d656e746174696f6e20666f7220676976656e20636f696e696e76616c6964204c5020546f6b656e20696d706c656d656e746174696f6e20666f7220676976656e20636f696e696e76616c6964207374616b65725661756c7420696d706c656d656e746174696f6e20666f7220676976656e20636f696ea2646970667358221220666989e80849ffc03dc11b0bd5630bc0ebab03165532c30d78a68669f05de62c64736f6c634300080a0033","bytecodeSha1":"f06996577b18764dcd3b5aa94558c0a3ddf6367b","compiler":{"evm_version":"london","optimizer":{"enabled":true,"runs":200},"version":"0.8.10+commit.fc410830"},"contractName":"PoolFactory","language":"Solidity","natspec":{"kind":"dev","methods":{"addLpTokenImplementation(bytes32,address,bytes)":{"notice":"Add a new LP token implementation to the factory.","params":{"implementation":"of lp token implementation to add.","name":"of the LP token implementation."}},"addPoolImplementation(bytes32,address)":{"notice":"Add a new pool implementation to the factory.","params":{"implementation":"of pool implementation to add.","name":"of the pool implementation."}},"addStakerVaultImplementation(bytes32,address)":{"notice":"Add a new staker vault implementation to the factory.","params":{"implementation":"of staker vault implementation to add.","name":"of the staker vault implementation."}},"addVaultImplementation(bytes32,address)":{"notice":"Add a new vault implementation to the factory.","params":{"implementation":"of vault implementation to add.","name":"of the vault implementation."}},"deployPool(address,(string,uint256,uint256),(string,string,uint8),(uint256,uint256,uint256),(bytes32,bytes32,bytes32,bytes32))":{"details":"Decimals is an argument as not all ERC20 tokens implement the ERC20Detailed interface.      An implementation where `getUnderlying()` returns the zero address is for ETH pools.","notice":"Deploys a new pool and LP token.","params":{"implementationNames":"Name of the implementations to use.","lpTokenArgs":"Arguments to create the LP token for the pool.","poolArgs":"Arguments to initialize the pool.","underlying":"Address of the pool's underlying.","vaultArgs":"Arguments to create the vault."},"returns":{"addrs":"Address of the deployed pool, address of the pool's deployed LP token."}}},"stateVariables":{"implementations":{"details":"maps a contract type (e.g. \"pool\" or \"lp_token\", as defined in constants above) to a mapping from an implementation name to the actual implementation The implementation name is decided when registering the implementation and can be arbitrary (e.g. \"ERC20PoolV1\")"},"lpTokensInitCode":{"details":"maps an LP token implementation to its creation code this is only required for the LP token because they are deployed using `create` rather than using a minimal proxy like the other contracts"}},"version":1},"opcodes":"PUSH1 0x80 PUSH1 0x40 MSTORE CALLVALUE DUP1 ISZERO PUSH2 0x10 JUMPI PUSH1 0x0 DUP1 REVERT JUMPDEST POP PUSH1 0x4 CALLDATASIZE LT PUSH2 0x9D JUMPI PUSH1 0x0 CALLDATALOAD PUSH1 0xE0 SHR DUP1 PUSH4 0x34E6CBAD GT PUSH2 0x66 JUMPI DUP1 PUSH4 0x34E6CBAD EQ PUSH2 0x194 JUMPI DUP1 PUSH4 0xBBBAF172 EQ PUSH2 0x1A7 JUMPI DUP1 PUSH4 0xEF164412 EQ PUSH2 0x1BA JUMPI DUP1 PUSH4 0xF6B6AF7D EQ PUSH2 0x1DA JUMPI DUP1 PUSH4 0xF77C4791 EQ PUSH2 0x20B JUMPI PUSH1 0x0 DUP1 REVERT JUMPDEST DUP1 PUSH3 0x435DA5 EQ PUSH2 0xA2 JUMPI DUP1 PUSH4 0x2574035 EQ PUSH2 0xE1 JUMPI DUP1 PUSH4 0x17A7DE60 EQ PUSH2 0x104 JUMPI DUP1 PUSH4 0x2954018C EQ PUSH2 0x15A JUMPI DUP1 PUSH4 0x327BEA89 EQ PUSH2 0x181 JUMPI JUMPDEST PUSH1 0x0 DUP1 REVERT JUMPDEST PUSH32 0x0 JUMPDEST PUSH1 0x40 MLOAD PUSH1 0x1 PUSH1 0x1 PUSH1 0xA0 SHL SUB SWAP1 SWAP2 AND DUP2 MSTORE PUSH1 0x20 ADD JUMPDEST PUSH1 0x40 MLOAD DUP1 SWAP2 SUB SWAP1 RETURN JUMPDEST PUSH2 0xF4 PUSH2 0xEF CALLDATASIZE PUSH1 0x4 PUSH2 0x1341 JUMP JUMPDEST PUSH2 0x232 JUMP JUMPDEST PUSH1 0x40 MLOAD SWAP1 ISZERO ISZERO DUP2 MSTORE PUSH1 0x20 ADD PUSH2 0xD8 JUMP JUMPDEST PUSH2 0x117 PUSH2 0x112 CALLDATASIZE PUSH1 0x4 PUSH2 0x13E2 JUMP JUMPDEST PUSH2 0x369 JUMP JUMPDEST PUSH1 0x40 MLOAD PUSH2 0xD8 SWAP2 SWAP1 DUP2 MLOAD PUSH1 0x1 PUSH1 0x1 PUSH1 0xA0 SHL SUB SWAP1 DUP2 AND DUP3 MSTORE PUSH1 0x20 DUP1 DUP5 ADD MLOAD DUP3 AND SWAP1 DUP4 ADD MSTORE PUSH1 0x40 DUP1 DUP5 ADD MLOAD DUP3 AND SWAP1 DUP4 ADD MSTORE PUSH1 0x60 SWAP3 DUP4 ADD MLOAD AND SWAP2 DUP2 ADD SWAP2 SWAP1 SWAP2 MSTORE PUSH1 0x80 ADD SWAP1 JUMP JUMPDEST PUSH2 0xC4 PUSH32 0x0 DUP2 JUMP JUMPDEST PUSH2 0xF4 PUSH2 0x18F CALLDATASIZE PUSH1 0x4 PUSH2 0x1488 JUMP JUMPDEST PUSH2 0xD2F JUMP JUMPDEST PUSH2 0xF4 PUSH2 0x1A2 CALLDATASIZE PUSH1 0x4 PUSH2 0x1488 JUMP JUMPDEST PUSH2 0xE33 JUMP JUMPDEST PUSH2 0xF4 PUSH2 0x1B5 CALLDATASIZE PUSH1 0x4 PUSH2 0x1488 JUMP JUMPDEST PUSH2 0xF31 JUMP JUMPDEST PUSH2 0x1CD PUSH2 0x1C8 CALLDATASIZE PUSH1 0x4 PUSH2 0x14B8 JUMP JUMPDEST PUSH2 0x1036 JUMP JUMPDEST PUSH1 0x40 MLOAD PUSH2 0xD8 SWAP2 SWAP1 PUSH2 0x1531 JUMP JUMPDEST PUSH2 0xC4 PUSH2 0x1E8 CALLDATASIZE PUSH1 0x4 PUSH2 0x1544 JUMP JUMPDEST PUSH1 0x0 PUSH1 0x20 DUP2 DUP2 MSTORE SWAP3 DUP2 MSTORE PUSH1 0x40 DUP1 DUP3 KECCAK256 SWAP1 SWAP4 MSTORE SWAP1 DUP2 MSTORE KECCAK256 SLOAD PUSH1 0x1 PUSH1 0x1 PUSH1 0xA0 SHL SUB AND DUP2 JUMP JUMPDEST PUSH2 0xC4 PUSH32 0x0 DUP2 JUMP JUMPDEST PUSH1 0x0 PUSH32 0x0 PUSH1 0x40 MLOAD PUSH4 0x24745215 PUSH1 0xE2 SHL DUP2 MSTORE PUSH10 0x676F7665726E616E6365 PUSH1 0xB0 SHL PUSH1 0x4 DUP3 ADD MSTORE CALLER PUSH1 0x24 DUP3 ADD MSTORE PUSH1 0x1 PUSH1 0x1 PUSH1 0xA0 SHL SUB SWAP2 SWAP1 SWAP2 AND SWAP1 PUSH4 0x91D14854 SWAP1 PUSH1 0x44 ADD PUSH1 0x20 PUSH1 0x40 MLOAD DUP1 DUP4 SUB DUP2 DUP7 GAS STATICCALL ISZERO DUP1 ISZERO PUSH2 0x2AE JUMPI RETURNDATASIZE PUSH1 0x0 DUP1 RETURNDATACOPY RETURNDATASIZE PUSH1 0x0 REVERT JUMPDEST POP POP POP POP PUSH1 0x40 MLOAD RETURNDATASIZE PUSH1 0x1F NOT PUSH1 0x1F DUP3 ADD AND DUP3 ADD DUP1 PUSH1 0x40 MSTORE POP DUP2 ADD SWAP1 PUSH2 0x2D2 SWAP2 SWAP1 PUSH2 0x1566 JUMP JUMPDEST PUSH1 0x40 MLOAD DUP1 PUSH1 0x40 ADD PUSH1 0x40 MSTORE DUP1 PUSH1 0x13 DUP2 MSTORE PUSH1 0x20 ADD PUSH19 0x756E617574686F72697A656420616363657373 PUSH1 0x68 SHL DUP2 MSTORE POP SWAP1 PUSH2 0x325 JUMPI PUSH1 0x40 MLOAD PUSH3 0x461BCD PUSH1 0xE5 SHL DUP2 MSTORE PUSH1 0x4 ADD PUSH2 0x31C SWAP2 SWAP1 PUSH2 0x1531 JUMP JUMPDEST PUSH1 0x40 MLOAD DUP1 SWAP2 SUB SWAP1 REVERT JUMPDEST POP PUSH1 0x1 PUSH1 0x1 PUSH1 0xA0 SHL SUB DUP5 AND PUSH1 0x0 SWAP1 DUP2 MSTORE PUSH1 0x1 PUSH1 0x20 MSTORE PUSH1 0x40 SWAP1 KECCAK256 PUSH2 0x349 SWAP1 DUP5 DUP5 PUSH2 0x1290 JUMP JUMPDEST POP PUSH2 0x360 PUSH8 0x36382FBA37B5B2B7 PUSH1 0xC1 SHL DUP7 DUP7 PUSH2 0x114F JUMP JUMPDEST SWAP6 SWAP5 POP POP POP POP POP JUMP JUMPDEST PUSH1 0x40 DUP1 MLOAD PUSH1 0x80 DUP2 ADD DUP3 MSTORE PUSH1 0x0 DUP1 DUP3 MSTORE PUSH1 0x20 DUP3 ADD DUP2 SWAP1 MSTORE SWAP2 DUP2 ADD DUP3 SWAP1 MSTORE PUSH1 0x60 DUP2 ADD SWAP2 SWAP1 SWAP2 MSTORE PUSH32 0x0 PUSH1 0x40 MLOAD PUSH4 0x24745215 PUSH1 0xE2 SHL DUP2 MSTORE PUSH10 0x676F7665726E616E6365 PUSH1 0xB0 SHL PUSH1 0x4 DUP3 ADD MSTORE CALLER PUSH1 0x24 DUP3 ADD MSTORE PUSH1 0x1 PUSH1 0x1 PUSH1 0xA0 SHL SUB SWAP2 SWAP1 SWAP2 AND SWAP1 PUSH4 0x91D14854 SWAP1 PUSH1 0x44 ADD PUSH1 0x20 PUSH1 0x40 MLOAD DUP1 DUP4 SUB DUP2 DUP7 GAS STATICCALL ISZERO DUP1 ISZERO PUSH2 0x407 JUMPI RETURNDATASIZE PUSH1 0x0 DUP1 RETURNDATACOPY RETURNDATASIZE PUSH1 0x0 REVERT JUMPDEST POP POP POP POP PUSH1 0x40 MLOAD RETURNDATASIZE PUSH1 0x1F NOT PUSH1 0x1F DUP3 ADD AND DUP3 ADD DUP1 PUSH1 0x40 MSTORE POP DUP2 ADD SWAP1 PUSH2 0x42B SWAP2 SWAP1 PUSH2 0x1566 JUMP JUMPDEST PUSH1 0x40 MLOAD DUP1 PUSH1 0x40 ADD PUSH1 0x40 MSTORE DUP1 PUSH1 0x13 DUP2 MSTORE PUSH1 0x20 ADD PUSH19 0x756E617574686F72697A656420616363657373 PUSH1 0x68 SHL DUP2 MSTORE POP SWAP1 PUSH2 0x475 JUMPI PUSH1 0x40 MLOAD PUSH3 0x461BCD PUSH1 0xE5 SHL DUP2 MSTORE PUSH1 0x4 ADD PUSH2 0x31C SWAP2 SWAP1 PUSH2 0x1531 JUMP JUMPDEST POP PUSH1 0x40 DUP1 MLOAD PUSH1 0x80 DUP2 ADD DUP3 MSTORE PUSH1 0x0 DUP1 DUP3 MSTORE PUSH1 0x20 DUP1 DUP4 ADD DUP3 DUP2 MSTORE DUP4 DUP6 ADD DUP4 SWAP1 MSTORE PUSH1 0x60 DUP1 DUP6 ADD DUP5 SWAP1 MSTORE DUP8 CALLDATALOAD DUP5 MSTORE PUSH32 0x41C12A0618FD8C91E4BD4C2BAD3960A11CA69ECB61096F2AFE909D647D705506 DUP4 MSTORE SWAP3 DUP6 SWAP1 KECCAK256 SLOAD PUSH1 0x1 PUSH1 0x1 PUSH1 0xA0 SHL SUB AND SWAP1 DUP2 SWAP1 MSTORE DUP5 MLOAD SWAP3 DUP4 ADD SWAP1 SWAP5 MSTORE PUSH1 0x2A DUP1 DUP4 MSTORE SWAP3 SWAP4 ISZERO ISZERO SWAP3 SWAP1 PUSH2 0x1824 SWAP1 DUP4 ADD CODECOPY SWAP1 PUSH2 0x50C JUMPI PUSH1 0x40 MLOAD PUSH3 0x461BCD PUSH1 0xE5 SHL DUP2 MSTORE PUSH1 0x4 ADD PUSH2 0x31C SWAP2 SWAP1 PUSH2 0x1531 JUMP JUMPDEST POP PUSH1 0x40 DUP4 DUP2 ADD CALLDATALOAD PUSH1 0x0 SWAP1 DUP2 MSTORE PUSH32 0x509576413F2A764E16FCA6F55B1B0B59F0C7D685DEBDB649E7380F6E646F85EC PUSH1 0x20 SWAP1 DUP2 MSTORE SWAP1 DUP3 SWAP1 KECCAK256 SLOAD PUSH1 0x1 PUSH1 0x1 PUSH1 0xA0 SHL SUB AND DUP1 DUP5 MSTORE DUP3 MLOAD PUSH1 0x60 DUP2 ADD SWAP1 SWAP4 MSTORE PUSH1 0x2E DUP1 DUP5 MSTORE SWAP1 ISZERO ISZERO SWAP3 SWAP2 PUSH2 0x184E SWAP1 DUP4 ADD CODECOPY SWAP1 PUSH2 0x587 JUMPI PUSH1 0x40 MLOAD PUSH3 0x461BCD PUSH1 0xE5 SHL DUP2 MSTORE PUSH1 0x4 ADD PUSH2 0x31C SWAP2 SWAP1 PUSH2 0x1531 JUMP JUMPDEST POP PUSH1 0x20 DUP4 DUP2 ADD CALLDATALOAD PUSH1 0x0 SWAP1 DUP2 MSTORE PUSH32 0x5A91006BBD508B31448DE1F8D6457185050E71DE2FB28AFFF373542928E213B9 DUP3 MSTORE PUSH1 0x40 SWAP1 DUP2 SWAP1 KECCAK256 SLOAD PUSH1 0x1 PUSH1 0x1 PUSH1 0xA0 SHL SUB AND PUSH1 0x60 DUP1 DUP6 ADD DUP3 SWAP1 MSTORE DUP3 MLOAD SWAP1 DUP2 ADD SWAP1 SWAP3 MSTORE PUSH1 0x2B DUP1 DUP4 MSTORE SWAP1 ISZERO ISZERO SWAP3 PUSH2 0x17F9 SWAP1 DUP4 ADD CODECOPY SWAP1 PUSH2 0x604 JUMPI PUSH1 0x40 MLOAD PUSH3 0x461BCD PUSH1 0xE5 SHL DUP2 MSTORE PUSH1 0x4 ADD PUSH2 0x31C SWAP2 SWAP1 PUSH2 0x1531 JUMP JUMPDEST POP PUSH1 0x60 DUP1 DUP5 ADD CALLDATALOAD PUSH1 0x0 SWAP1 DUP2 MSTORE PUSH32 0x2CF082650F22D678D13E32CB83A8E9EB2F601F6CB0DD457ECF139323A1BAC1AA PUSH1 0x20 SWAP1 DUP2 MSTORE PUSH1 0x40 SWAP2 DUP3 SWAP1 KECCAK256 SLOAD PUSH1 0x1 PUSH1 0x1 PUSH1 0xA0 SHL SUB AND DUP5 DUP4 ADD DUP2 SWAP1 MSTORE DUP3 MLOAD SWAP4 DUP5 ADD SWAP1 SWAP3 MSTORE PUSH1 0x31 DUP1 DUP5 MSTORE SWAP2 ISZERO ISZERO SWAP3 SWAP2 SWAP1 PUSH2 0x187C SWAP1 DUP4 ADD CODECOPY SWAP1 PUSH2 0x684 JUMPI PUSH1 0x40 MLOAD PUSH3 0x461BCD PUSH1 0xE5 SHL DUP2 MSTORE PUSH1 0x4 ADD PUSH2 0x31C SWAP2 SWAP1 PUSH2 0x1531 JUMP JUMPDEST POP PUSH2 0x692 DUP2 PUSH1 0x20 ADD MLOAD PUSH2 0x11F3 JUMP JUMPDEST PUSH1 0x1 PUSH1 0x1 PUSH1 0xA0 SHL SUB AND DUP3 MSTORE PUSH1 0x60 DUP2 ADD MLOAD PUSH2 0x6AB SWAP1 PUSH2 0x11F3 JUMP JUMPDEST PUSH1 0x1 PUSH1 0x1 PUSH1 0xA0 SHL SUB SWAP1 DUP2 AND PUSH1 0x20 DUP5 ADD MSTORE DUP8 AND PUSH2 0x85F JUMPI PUSH1 0x0 PUSH1 0x1 PUSH1 0x1 PUSH1 0xA0 SHL SUB AND DUP2 PUSH1 0x20 ADD MLOAD PUSH1 0x1 PUSH1 0x1 PUSH1 0xA0 SHL SUB AND PUSH4 0x9816F473 PUSH1 0x40 MLOAD DUP2 PUSH4 0xFFFFFFFF AND PUSH1 0xE0 SHL DUP2 MSTORE PUSH1 0x4 ADD PUSH1 0x20 PUSH1 0x40 MLOAD DUP1 DUP4 SUB DUP2 DUP7 GAS STATICCALL ISZERO DUP1 ISZERO PUSH2 0x70E JUMPI RETURNDATASIZE PUSH1 0x0 DUP1 RETURNDATACOPY RETURNDATASIZE PUSH1 0x0 REVERT JUMPDEST POP POP POP POP PUSH1 0x40 MLOAD RETURNDATASIZE PUSH1 0x1F NOT PUSH1 0x1F DUP3 ADD AND DUP3 ADD DUP1 PUSH1 0x40 MSTORE POP DUP2 ADD SWAP1 PUSH2 0x732 SWAP2 SWAP1 PUSH2 0x1588 JUMP JUMPDEST PUSH1 0x1 PUSH1 0x1 PUSH1 0xA0 SHL SUB AND EQ PUSH1 0x40 MLOAD DUP1 PUSH1 0x60 ADD PUSH1 0x40 MSTORE DUP1 PUSH1 0x2A DUP2 MSTORE PUSH1 0x20 ADD PUSH2 0x1824 PUSH1 0x2A SWAP2 CODECOPY SWAP1 PUSH2 0x773 JUMPI PUSH1 0x40 MLOAD PUSH3 0x461BCD PUSH1 0xE5 SHL DUP2 MSTORE PUSH1 0x4 ADD PUSH2 0x31C SWAP2 SWAP1 PUSH2 0x1531 JUMP JUMPDEST POP PUSH2 0x784 PUSH1 0x60 DUP7 ADD PUSH1 0x40 DUP8 ADD PUSH2 0x15A5 JUMP JUMPDEST PUSH1 0xFF AND PUSH1 0x12 EQ PUSH1 0x40 MLOAD DUP1 PUSH1 0x40 ADD PUSH1 0x40 MSTORE DUP1 PUSH1 0x1C DUP2 MSTORE PUSH1 0x20 ADD PUSH32 0x696E636F7272656374206E756D626572206F6620646563696D616C7300000000 DUP2 MSTORE POP SWAP1 PUSH2 0x7DE JUMPI PUSH1 0x40 MLOAD PUSH3 0x461BCD PUSH1 0xE5 SHL DUP2 MSTORE PUSH1 0x4 ADD PUSH2 0x31C SWAP2 SWAP1 PUSH2 0x1531 JUMP JUMPDEST POP DUP2 MLOAD PUSH1 0x1 PUSH1 0x1 PUSH1 0xA0 SHL SUB AND PUSH4 0x1E214F06 PUSH2 0x7F9 DUP9 DUP1 PUSH2 0x15C8 JUMP JUMPDEST DUP6 PUSH1 0x20 ADD MLOAD DUP11 PUSH1 0x20 ADD CALLDATALOAD DUP12 PUSH1 0x40 ADD CALLDATALOAD PUSH1 0x40 MLOAD DUP7 PUSH4 0xFFFFFFFF AND PUSH1 0xE0 SHL DUP2 MSTORE PUSH1 0x4 ADD PUSH2 0x828 SWAP6 SWAP5 SWAP4 SWAP3 SWAP2 SWAP1 PUSH2 0x163F JUMP JUMPDEST PUSH1 0x0 PUSH1 0x40 MLOAD DUP1 DUP4 SUB DUP2 PUSH1 0x0 DUP8 DUP1 EXTCODESIZE ISZERO DUP1 ISZERO PUSH2 0x842 JUMPI PUSH1 0x0 DUP1 REVERT JUMPDEST POP GAS CALL ISZERO DUP1 ISZERO PUSH2 0x856 JUMPI RETURNDATASIZE PUSH1 0x0 DUP1 RETURNDATACOPY RETURNDATASIZE PUSH1 0x0 REVERT JUMPDEST POP POP POP POP PUSH2 0x8DD JUMP JUMPDEST DUP2 MLOAD PUSH1 0x1 PUSH1 0x1 PUSH1 0xA0 SHL SUB AND PUSH4 0xB2F36B5B PUSH2 0x879 DUP9 DUP1 PUSH2 0x15C8 JUMP JUMPDEST DUP11 DUP7 PUSH1 0x20 ADD MLOAD DUP12 PUSH1 0x20 ADD CALLDATALOAD DUP13 PUSH1 0x40 ADD CALLDATALOAD PUSH1 0x40 MLOAD DUP8 PUSH4 0xFFFFFFFF AND PUSH1 0xE0 SHL DUP2 MSTORE PUSH1 0x4 ADD PUSH2 0x8AA SWAP7 SWAP6 SWAP5 SWAP4 SWAP3 SWAP2 SWAP1 PUSH2 0x1679 JUMP JUMPDEST PUSH1 0x0 PUSH1 0x40 MLOAD DUP1 DUP4 SUB DUP2 PUSH1 0x0 DUP8 DUP1 EXTCODESIZE ISZERO DUP1 ISZERO PUSH2 0x8C4 JUMPI PUSH1 0x0 DUP1 REVERT JUMPDEST POP GAS CALL ISZERO DUP1 ISZERO PUSH2 0x8D8 JUMPI RETURNDATASIZE PUSH1 0x0 DUP1 RETURNDATACOPY RETURNDATASIZE PUSH1 0x0 REVERT JUMPDEST POP POP POP POP JUMPDEST PUSH1 0x0 DUP1 PUSH1 0x1 PUSH1 0x0 DUP5 PUSH1 0x0 ADD MLOAD PUSH1 0x1 PUSH1 0x1 PUSH1 0xA0 SHL SUB AND PUSH1 0x1 PUSH1 0x1 PUSH1 0xA0 SHL SUB AND DUP2 MSTORE PUSH1 0x20 ADD SWAP1 DUP2 MSTORE PUSH1 0x20 ADD PUSH1 0x0 KECCAK256 DUP4 PUSH1 0x0 ADD MLOAD PUSH1 0x1 PUSH1 0x1 PUSH1 0xA0 SHL SUB AND DUP1 EXTCODESIZE DUP1 PUSH1 0x20 ADD PUSH1 0x40 MLOAD SWAP1 DUP2 ADD PUSH1 0x40 MSTORE DUP2 DUP2 MSTORE PUSH1 0x0 SWAP1 DUP1 PUSH1 0x20 ADD SWAP1 SWAP4 EXTCODECOPY PUSH1 0x40 MLOAD PUSH1 0x20 ADD PUSH2 0x944 SWAP3 SWAP2 SWAP1 PUSH2 0x170C JUMP JUMPDEST PUSH1 0x40 MLOAD PUSH1 0x20 DUP2 DUP4 SUB SUB DUP2 MSTORE SWAP1 PUSH1 0x40 MSTORE SWAP1 POP DUP1 MLOAD PUSH1 0x20 DUP3 ADD PUSH1 0x0 CREATE PUSH1 0x1 PUSH1 0x1 PUSH1 0xA0 SHL SUB DUP2 AND PUSH1 0x40 DUP7 ADD DUP2 SWAP1 MSTORE SWAP1 SWAP3 POP PUSH4 0xDE7EA79D PUSH2 0x981 DUP10 DUP1 PUSH2 0x15C8 JUMP JUMPDEST PUSH2 0x98E PUSH1 0x20 DUP13 ADD DUP13 PUSH2 0x15C8 JUMP JUMPDEST PUSH2 0x99E PUSH1 0x60 DUP15 ADD PUSH1 0x40 DUP16 ADD PUSH2 0x15A5 JUMP JUMPDEST DUP11 MLOAD PUSH1 0x40 MLOAD PUSH1 0x1 PUSH1 0x1 PUSH1 0xE0 SHL SUB NOT PUSH1 0xE0 DUP10 SWAP1 SHL AND DUP2 MSTORE PUSH2 0x9C6 SWAP7 SWAP6 SWAP5 SWAP4 SWAP3 SWAP2 SWAP1 PUSH1 0x4 ADD PUSH2 0x17AA JUMP JUMPDEST PUSH1 0x20 PUSH1 0x40 MLOAD DUP1 DUP4 SUB DUP2 PUSH1 0x0 DUP8 GAS CALL ISZERO DUP1 ISZERO PUSH2 0x9E5 JUMPI RETURNDATASIZE PUSH1 0x0 DUP1 RETURNDATACOPY RETURNDATASIZE PUSH1 0x0 REVERT JUMPDEST POP POP POP POP PUSH1 0x40 MLOAD RETURNDATASIZE PUSH1 0x1F NOT PUSH1 0x1F DUP3 ADD AND DUP3 ADD DUP1 PUSH1 0x40 MSTORE POP DUP2 ADD SWAP1 PUSH2 0xA09 SWAP2 SWAP1 PUSH2 0x1566 JUMP JUMPDEST POP PUSH2 0xA17 DUP4 PUSH1 0x40 ADD MLOAD PUSH2 0x11F3 JUMP JUMPDEST PUSH1 0x1 PUSH1 0x1 PUSH1 0xA0 SHL SUB SWAP1 DUP2 AND PUSH1 0x60 DUP7 ADD DUP2 SWAP1 MSTORE PUSH1 0x40 DUP1 DUP8 ADD MLOAD SWAP1 MLOAD PUSH4 0x189ACDBD PUSH1 0xE3 SHL DUP2 MSTORE SWAP3 AND PUSH1 0x4 DUP4 ADD MSTORE SWAP1 PUSH4 0xC4D66DE8 SWAP1 PUSH1 0x24 ADD PUSH1 0x0 PUSH1 0x40 MLOAD DUP1 DUP4 SUB DUP2 PUSH1 0x0 DUP8 DUP1 EXTCODESIZE ISZERO DUP1 ISZERO PUSH2 0xA66 JUMPI PUSH1 0x0 DUP1 REVERT JUMPDEST POP GAS CALL ISZERO DUP1 ISZERO PUSH2 0xA7A JUMPI RETURNDATASIZE PUSH1 0x0 DUP1 RETURNDATACOPY RETURNDATASIZE PUSH1 0x0 REVERT JUMPDEST POP POP POP POP PUSH1 0x60 DUP5 ADD MLOAD PUSH1 0x40 MLOAD PUSH4 0xC1D84E0B PUSH1 0xE0 SHL DUP2 MSTORE PUSH1 0x1 PUSH1 0x1 PUSH1 0xA0 SHL SUB SWAP2 DUP3 AND PUSH1 0x4 DUP3 ADD MSTORE PUSH32 0x0 SWAP1 SWAP2 AND SWAP1 PUSH4 0xC1D84E0B SWAP1 PUSH1 0x24 ADD PUSH1 0x0 PUSH1 0x40 MLOAD DUP1 DUP4 SUB DUP2 PUSH1 0x0 DUP8 DUP1 EXTCODESIZE ISZERO DUP1 ISZERO PUSH2 0xAE8 JUMPI PUSH1 0x0 DUP1 REVERT JUMPDEST POP GAS CALL ISZERO DUP1 ISZERO PUSH2 0xAFC JUMPI RETURNDATASIZE PUSH1 0x0 DUP1 RETURNDATACOPY RETURNDATASIZE PUSH1 0x0 REVERT JUMPDEST POP POP DUP6 MLOAD PUSH1 0x40 DUP1 DUP9 ADD MLOAD SWAP1 MLOAD PUSH4 0x9EE933B5 PUSH1 0xE0 SHL DUP2 MSTORE PUSH1 0x1 PUSH1 0x1 PUSH1 0xA0 SHL SUB SWAP2 DUP3 AND PUSH1 0x4 DUP3 ADD MSTORE SWAP2 AND SWAP3 POP PUSH4 0x9EE933B5 SWAP2 POP PUSH1 0x24 ADD PUSH1 0x0 PUSH1 0x40 MLOAD DUP1 DUP4 SUB DUP2 PUSH1 0x0 DUP8 DUP1 EXTCODESIZE ISZERO DUP1 ISZERO PUSH2 0xB4A JUMPI PUSH1 0x0 DUP1 REVERT JUMPDEST POP GAS CALL ISZERO DUP1 ISZERO PUSH2 0xB5E JUMPI RETURNDATASIZE PUSH1 0x0 DUP1 RETURNDATACOPY RETURNDATASIZE PUSH1 0x0 REVERT JUMPDEST POP POP POP POP DUP4 PUSH1 0x0 ADD MLOAD PUSH1 0x1 PUSH1 0x1 PUSH1 0xA0 SHL SUB AND PUSH4 0x66F07DD2 PUSH1 0x40 MLOAD DUP2 PUSH4 0xFFFFFFFF AND PUSH1 0xE0 SHL DUP2 MSTORE PUSH1 0x4 ADD PUSH1 0x0 PUSH1 0x40 MLOAD DUP1 DUP4 SUB DUP2 PUSH1 0x0 DUP8 DUP1 EXTCODESIZE ISZERO DUP1 ISZERO PUSH2 0xBA1 JUMPI PUSH1 0x0 DUP1 REVERT JUMPDEST POP GAS CALL ISZERO DUP1 ISZERO PUSH2 0xBB5 JUMPI RETURNDATASIZE PUSH1 0x0 DUP1 RETURNDATACOPY RETURNDATASIZE PUSH1 0x0 REVERT JUMPDEST POP POP POP POP PUSH1 0x20 DUP5 DUP2 ADD MLOAD DUP6 MLOAD PUSH1 0x40 DUP1 MLOAD PUSH4 0x4EC81AF1 PUSH1 0xE0 SHL DUP2 MSTORE PUSH1 0x1 PUSH1 0x1 PUSH1 0xA0 SHL SUB SWAP3 DUP4 AND PUSH1 0x4 DUP3 ADD MSTORE DUP11 CALLDATALOAD PUSH1 0x24 DUP3 ADD MSTORE SWAP4 DUP11 ADD CALLDATALOAD PUSH1 0x44 DUP6 ADD MSTORE DUP10 ADD CALLDATALOAD PUSH1 0x64 DUP5 ADD MSTORE AND SWAP1 PUSH4 0x4EC81AF1 SWAP1 PUSH1 0x84 ADD PUSH1 0x0 PUSH1 0x40 MLOAD DUP1 DUP4 SUB DUP2 PUSH1 0x0 DUP8 DUP1 EXTCODESIZE ISZERO DUP1 ISZERO PUSH2 0xC1C JUMPI PUSH1 0x0 DUP1 REVERT JUMPDEST POP GAS CALL ISZERO DUP1 ISZERO PUSH2 0xC30 JUMPI RETURNDATASIZE PUSH1 0x0 DUP1 RETURNDATACOPY RETURNDATASIZE PUSH1 0x0 REVERT JUMPDEST POP POP DUP6 MLOAD PUSH1 0x40 MLOAD PUSH4 0xD914CD4B PUSH1 0xE0 SHL DUP2 MSTORE PUSH1 0x1 PUSH1 0x1 PUSH1 0xA0 SHL SUB SWAP2 DUP3 AND PUSH1 0x4 DUP3 ADD MSTORE PUSH32 0x0 SWAP1 SWAP2 AND SWAP3 POP PUSH4 0xD914CD4B SWAP2 POP PUSH1 0x24 ADD PUSH1 0x0 PUSH1 0x40 MLOAD DUP1 DUP4 SUB DUP2 PUSH1 0x0 DUP8 DUP1 EXTCODESIZE ISZERO DUP1 ISZERO PUSH2 0xC9B JUMPI PUSH1 0x0 DUP1 REVERT JUMPDEST POP GAS CALL ISZERO DUP1 ISZERO PUSH2 0xCAF JUMPI RETURNDATASIZE PUSH1 0x0 DUP1 RETURNDATACOPY RETURNDATASIZE PUSH1 0x0 REVERT JUMPDEST POP POP DUP6 MLOAD PUSH1 0x20 DUP8 ADD MLOAD PUSH1 0x40 DUP1 DUP10 ADD MLOAD PUSH1 0x60 DUP11 ADD MLOAD SWAP2 MLOAD PUSH32 0x7485FD97AA22B8F3780A33F0F69AC8A5F0E479548977FE3FA7D9459698A2D8FE SWAP7 POP PUSH2 0xD1B SWAP6 POP SWAP1 SWAP2 SWAP1 PUSH1 0x1 PUSH1 0x1 PUSH1 0xA0 SHL SUB SWAP5 DUP6 AND DUP2 MSTORE SWAP3 DUP5 AND PUSH1 0x20 DUP5 ADD MSTORE SWAP1 DUP4 AND PUSH1 0x40 DUP4 ADD MSTORE SWAP1 SWAP2 AND PUSH1 0x60 DUP3 ADD MSTORE PUSH1 0x80 ADD SWAP1 JUMP JUMPDEST PUSH1 0x40 MLOAD DUP1 SWAP2 SUB SWAP1 LOG1 POP POP POP SWAP6 SWAP5 POP POP POP POP POP JUMP JUMPDEST PUSH1 0x0 PUSH32 0x0 PUSH1 0x40 MLOAD PUSH4 0x24745215 PUSH1 0xE2 SHL DUP2 MSTORE PUSH10 0x676F7665726E616E6365 PUSH1 0xB0 SHL PUSH1 0x4 DUP3 ADD MSTORE CALLER PUSH1 0x24 DUP3 ADD MSTORE PUSH1 0x1 PUSH1 0x1 PUSH1 0xA0 SHL SUB SWAP2 SWAP1 SWAP2 AND SWAP1 PUSH4 0x91D14854 SWAP1 PUSH1 0x44 ADD PUSH1 0x20 PUSH1 0x40 MLOAD DUP1 DUP4 SUB DUP2 DUP7 GAS STATICCALL ISZERO DUP1 ISZERO PUSH2 0xDAB JUMPI RETURNDATASIZE PUSH1 0x0 DUP1 RETURNDATACOPY RETURNDATASIZE PUSH1 0x0 REVERT JUMPDEST POP POP POP POP PUSH1 0x40 MLOAD RETURNDATASIZE PUSH1 0x1F NOT PUSH1 0x1F DUP3 ADD AND DUP3 ADD DUP1 PUSH1 0x40 MSTORE POP DUP2 ADD SWAP1 PUSH2 0xDCF SWAP2 SWAP1 PUSH2 0x1566 JUMP JUMPDEST PUSH1 0x40 MLOAD DUP1 PUSH1 0x40 ADD PUSH1 0x40 MSTORE DUP1 PUSH1 0x13 DUP2 MSTORE PUSH1 0x20 ADD PUSH19 0x756E617574686F72697A656420616363657373 PUSH1 0x68 SHL DUP2 MSTORE POP SWAP1 PUSH2 0xE19 JUMPI PUSH1 0x40 MLOAD PUSH3 0x461BCD PUSH1 0xE5 SHL DUP2 MSTORE PUSH1 0x4 ADD PUSH2 0x31C SWAP2 SWAP1 PUSH2 0x1531 JUMP JUMPDEST POP PUSH2 0xE2C PUSH4 0x1C1BDBDB PUSH1 0xE2 SHL DUP5 DUP5 PUSH2 0x114F JUMP JUMPDEST SWAP4 SWAP3 POP POP POP JUMP JUMPDEST PUSH1 0x0 PUSH32 0x0 PUSH1 0x40 MLOAD PUSH4 0x24745215 PUSH1 0xE2 SHL DUP2 MSTORE PUSH10 0x676F7665726E616E6365 PUSH1 0xB0 SHL PUSH1 0x4 DUP3 ADD MSTORE CALLER PUSH1 0x24 DUP3 ADD MSTORE PUSH1 0x1 PUSH1 0x1 PUSH1 0xA0 SHL SUB SWAP2 SWAP1 SWAP2 AND SWAP1 PUSH4 0x91D14854 SWAP1 PUSH1 0x44 ADD PUSH1 0x20 PUSH1 0x40 MLOAD DUP1 DUP4 SUB DUP2 DUP7 GAS STATICCALL ISZERO DUP1 ISZERO PUSH2 0xEAF JUMPI RETURNDATASIZE PUSH1 0x0 DUP1 RETURNDATACOPY RETURNDATASIZE PUSH1 0x0 REVERT JUMPDEST POP POP POP POP PUSH1 0x40 MLOAD RETURNDATASIZE PUSH1 0x1F NOT PUSH1 0x1F DUP3 ADD AND DUP3 ADD DUP1 PUSH1 0x40 MSTORE POP DUP2 ADD SWAP1 PUSH2 0xED3 SWAP2 SWAP1 PUSH2 0x1566 JUMP JUMPDEST PUSH1 0x40 MLOAD DUP1 PUSH1 0x40 ADD PUSH1 0x40 MSTORE DUP1 PUSH1 0x13 DUP2 MSTORE PUSH1 0x20 ADD PUSH19 0x756E617574686F72697A656420616363657373 PUSH1 0x68 SHL DUP2 MSTORE POP SWAP1 PUSH2 0xF1D JUMPI PUSH1 0x40 MLOAD PUSH3 0x461BCD PUSH1 0xE5 SHL DUP2 MSTORE PUSH1 0x4 ADD PUSH2 0x31C SWAP2 SWAP1 PUSH2 0x1531 JUMP JUMPDEST POP PUSH2 0xE2C PUSH5 0x1D985D5B1D PUSH1 0xDA SHL DUP5 DUP5 PUSH2 0x114F JUMP JUMPDEST PUSH1 0x0 PUSH32 0x0 PUSH1 0x40 MLOAD PUSH4 0x24745215 PUSH1 0xE2 SHL DUP2 MSTORE PUSH10 0x676F7665726E616E6365 PUSH1 0xB0 SHL PUSH1 0x4 DUP3 ADD MSTORE CALLER PUSH1 0x24 DUP3 ADD MSTORE PUSH1 0x1 PUSH1 0x1 PUSH1 0xA0 SHL SUB SWAP2 SWAP1 SWAP2 AND SWAP1 PUSH4 0x91D14854 SWAP1 PUSH1 0x44 ADD PUSH1 0x20 PUSH1 0x40 MLOAD DUP1 DUP4 SUB DUP2 DUP7 GAS STATICCALL ISZERO DUP1 ISZERO PUSH2 0xFAD JUMPI RETURNDATASIZE PUSH1 0x0 DUP1 RETURNDATACOPY RETURNDATASIZE PUSH1 0x0 REVERT JUMPDEST POP POP POP POP PUSH1 0x40 MLOAD RETURNDATASIZE PUSH1 0x1F NOT PUSH1 0x1F DUP3 ADD AND DUP3 ADD DUP1 PUSH1 0x40 MSTORE POP DUP2 ADD SWAP1 PUSH2 0xFD1 SWAP2 SWAP1 PUSH2 0x1566 JUMP JUMPDEST PUSH1 0x40 MLOAD DUP1 PUSH1 0x40 ADD PUSH1 0x40 MSTORE DUP1 PUSH1 0x13 DUP2 MSTORE PUSH1 0x20 ADD PUSH19 0x756E617574686F72697A656420616363657373 PUSH1 0x68 SHL DUP2 MSTORE POP SWAP1 PUSH2 0x101B JUMPI PUSH1 0x40 MLOAD PUSH3 0x461BCD PUSH1 0xE5 SHL DUP2 MSTORE PUSH1 0x4 ADD PUSH2 0x31C SWAP2 SWAP1 PUSH2 0x1531 JUMP JUMPDEST POP PUSH2 0xE2C PUSH12 0x1CDD185AD95C97DD985D5B1D PUSH1 0xA2 SHL DUP5 DUP5 PUSH2 0x114F JUMP JUMPDEST PUSH1 0x1 PUSH1 0x20 MSTORE PUSH1 0x0 SWAP1 DUP2 MSTORE PUSH1 0x40 SWAP1 KECCAK256 DUP1 SLOAD PUSH2 0x104F SWAP1 PUSH2 0x16BB JUMP JUMPDEST DUP1 PUSH1 0x1F ADD PUSH1 0x20 DUP1 SWAP2 DIV MUL PUSH1 0x20 ADD PUSH1 0x40 MLOAD SWAP1 DUP2 ADD PUSH1 0x40 MSTORE DUP1 SWAP3 SWAP2 SWAP1 DUP2 DUP2 MSTORE PUSH1 0x20 ADD DUP3 DUP1 SLOAD PUSH2 0x107B SWAP1 PUSH2 0x16BB JUMP JUMPDEST DUP1 ISZERO PUSH2 0x10C8 JUMPI DUP1 PUSH1 0x1F LT PUSH2 0x109D JUMPI PUSH2 0x100 DUP1 DUP4 SLOAD DIV MUL DUP4 MSTORE SWAP2 PUSH1 0x20 ADD SWAP2 PUSH2 0x10C8 JUMP JUMPDEST DUP3 ADD SWAP2 SWAP1 PUSH1 0x0 MSTORE PUSH1 0x20 PUSH1 0x0 KECCAK256 SWAP1 JUMPDEST DUP2 SLOAD DUP2 MSTORE SWAP1 PUSH1 0x1 ADD SWAP1 PUSH1 0x20 ADD DUP1 DUP4 GT PUSH2 0x10AB JUMPI DUP3 SWAP1 SUB PUSH1 0x1F AND DUP3 ADD SWAP2 JUMPDEST POP POP POP POP POP DUP2 JUMP JUMPDEST PUSH1 0x40 MLOAD PUSH4 0x21F8A721 PUSH1 0xE0 SHL DUP2 MSTORE PUSH11 0x3937B632A6B0B730B3B2B9 PUSH1 0xA9 SHL PUSH1 0x4 DUP3 ADD MSTORE PUSH1 0x0 SWAP1 PUSH1 0x1 PUSH1 0x1 PUSH1 0xA0 SHL SUB DUP4 AND SWAP1 PUSH4 0x21F8A721 SWAP1 PUSH1 0x24 ADD PUSH1 0x20 PUSH1 0x40 MLOAD DUP1 DUP4 SUB DUP2 DUP7 GAS STATICCALL ISZERO DUP1 ISZERO PUSH2 0x1125 JUMPI RETURNDATASIZE PUSH1 0x0 DUP1 RETURNDATACOPY RETURNDATASIZE PUSH1 0x0 REVERT JUMPDEST POP POP POP POP PUSH1 0x40 MLOAD RETURNDATASIZE PUSH1 0x1F NOT PUSH1 0x1F DUP3 ADD AND DUP3 ADD DUP1 PUSH1 0x40 MSTORE POP DUP2 ADD SWAP1 PUSH2 0x1149 SWAP2 SWAP1 PUSH2 0x1588 JUMP JUMPDEST SWAP3 SWAP2 POP POP JUMP JUMPDEST PUSH1 0x0 DUP4 DUP2 MSTORE PUSH1 0x20 DUP2 DUP2 MSTORE PUSH1 0x40 DUP1 DUP4 KECCAK256 DUP6 DUP5 MSTORE SWAP2 DUP3 SWAP1 MSTORE DUP3 KECCAK256 SLOAD PUSH1 0x1 PUSH1 0x1 PUSH1 0xA0 SHL SUB AND ISZERO PUSH2 0x1180 JUMPI PUSH1 0x0 SWAP2 POP POP PUSH2 0xE2C JUMP JUMPDEST PUSH1 0x0 DUP5 DUP2 MSTORE PUSH1 0x20 DUP3 DUP2 MSTORE PUSH1 0x40 SWAP2 DUP3 SWAP1 KECCAK256 DUP1 SLOAD PUSH1 0x1 PUSH1 0x1 PUSH1 0xA0 SHL SUB DUP8 AND PUSH1 0x1 PUSH1 0x1 PUSH1 0xA0 SHL SUB NOT SWAP1 SWAP2 AND DUP2 OR SWAP1 SWAP2 SSTORE DUP3 MLOAD DUP9 DUP2 MSTORE SWAP2 DUP3 ADD DUP8 SWAP1 MSTORE DUP2 DUP4 ADD MSTORE SWAP1 MLOAD PUSH32 0xB6995687D7CA103560700935C62676D62918DAF01877EFEBCE4EEEEB6BEDD512 SWAP2 DUP2 SWAP1 SUB PUSH1 0x60 ADD SWAP1 LOG1 POP PUSH1 0x1 SWAP5 SWAP4 POP POP POP POP JUMP JUMPDEST PUSH1 0x0 PUSH1 0x40 MLOAD PUSH20 0x3D602D80600A3D3981F3363D3D373D3D3D363D73 PUSH1 0x60 SHL DUP2 MSTORE DUP3 PUSH1 0x60 SHL PUSH1 0x14 DUP3 ADD MSTORE PUSH15 0x5AF43D82803E903D91602B57FD5BF3 PUSH1 0x88 SHL PUSH1 0x28 DUP3 ADD MSTORE PUSH1 0x37 DUP2 PUSH1 0x0 CREATE SWAP2 POP POP PUSH1 0x1 PUSH1 0x1 PUSH1 0xA0 SHL SUB DUP2 AND PUSH2 0x128B JUMPI PUSH1 0x40 MLOAD PUSH3 0x461BCD PUSH1 0xE5 SHL DUP2 MSTORE PUSH1 0x20 PUSH1 0x4 DUP3 ADD MSTORE PUSH1 0x16 PUSH1 0x24 DUP3 ADD MSTORE PUSH22 0x115490CC4C4D8DCE8818DC99585D194819985A5B1959 PUSH1 0x52 SHL PUSH1 0x44 DUP3 ADD MSTORE PUSH1 0x64 ADD PUSH2 0x31C JUMP JUMPDEST SWAP2 SWAP1 POP JUMP JUMPDEST DUP3 DUP1 SLOAD PUSH2 0x129C SWAP1 PUSH2 0x16BB JUMP JUMPDEST SWAP1 PUSH1 0x0 MSTORE PUSH1 0x20 PUSH1 0x0 KECCAK256 SWAP1 PUSH1 0x1F ADD PUSH1 0x20 SWAP1 DIV DUP2 ADD SWAP3 DUP3 PUSH2 0x12BE JUMPI PUSH1 0x0 DUP6 SSTORE PUSH2 0x1304 JUMP JUMPDEST DUP3 PUSH1 0x1F LT PUSH2 0x12D7 JUMPI DUP3 DUP1 ADD PUSH1 0xFF NOT DUP3 CALLDATALOAD AND OR DUP6 SSTORE PUSH2 0x1304 JUMP JUMPDEST DUP3 DUP1 ADD PUSH1 0x1 ADD DUP6 SSTORE DUP3 ISZERO PUSH2 0x1304 JUMPI SWAP2 DUP3 ADD JUMPDEST DUP3 DUP2 GT ISZERO PUSH2 0x1304 JUMPI DUP3 CALLDATALOAD DUP3 SSTORE SWAP2 PUSH1 0x20 ADD SWAP2 SWAP1 PUSH1 0x1 ADD SWAP1 PUSH2 0x12E9 JUMP JUMPDEST POP PUSH2 0x1310 SWAP3 SWAP2 POP PUSH2 0x1314 JUMP JUMPDEST POP SWAP1 JUMP JUMPDEST JUMPDEST DUP1 DUP3 GT ISZERO PUSH2 0x1310 JUMPI PUSH1 0x0 DUP2 SSTORE PUSH1 0x1 ADD PUSH2 0x1315 JUMP JUMPDEST PUSH1 0x1 PUSH1 0x1 PUSH1 0xA0 SHL SUB DUP2 AND DUP2 EQ PUSH2 0x133E JUMPI PUSH1 0x0 DUP1 REVERT JUMPDEST POP JUMP JUMPDEST PUSH1 0x0 DUP1 PUSH1 0x0 DUP1 PUSH1 0x60 DUP6 DUP8 SUB SLT ISZERO PUSH2 0x1357 JUMPI PUSH1 0x0 DUP1 REVERT JUMPDEST DUP5 CALLDATALOAD SWAP4 POP PUSH1 0x20 DUP6 ADD CALLDATALOAD PUSH2 0x1369 DUP2 PUSH2 0x1329 JUMP JUMPDEST SWAP3 POP PUSH1 0x40 DUP6 ADD CALLDATALOAD PUSH8 0xFFFFFFFFFFFFFFFF DUP1 DUP3 GT ISZERO PUSH2 0x1386 JUMPI PUSH1 0x0 DUP1 REVERT JUMPDEST DUP2 DUP8 ADD SWAP2 POP DUP8 PUSH1 0x1F DUP4 ADD SLT PUSH2 0x139A JUMPI PUSH1 0x0 DUP1 REVERT JUMPDEST DUP2 CALLDATALOAD DUP2 DUP2 GT ISZERO PUSH2 0x13A9 JUMPI PUSH1 0x0 DUP1 REVERT JUMPDEST DUP9 PUSH1 0x20 DUP3 DUP6 ADD ADD GT ISZERO PUSH2 0x13BB JUMPI PUSH1 0x0 DUP1 REVERT JUMPDEST SWAP6 SWAP9 SWAP5 SWAP8 POP POP PUSH1 0x20 ADD SWAP5 POP POP POP JUMP JUMPDEST PUSH1 0x0 PUSH1 0x60 DUP3 DUP5 SUB SLT ISZERO PUSH2 0x13DC JUMPI PUSH1 0x0 DUP1 REVERT JUMPDEST POP SWAP2 SWAP1 POP JUMP JUMPDEST PUSH1 0x0 DUP1 PUSH1 0x0 DUP1 PUSH1 0x0 DUP6 DUP8 SUB PUSH2 0x140 DUP2 SLT ISZERO PUSH2 0x13FC JUMPI PUSH1 0x0 DUP1 REVERT JUMPDEST DUP7 CALLDATALOAD PUSH2 0x1407 DUP2 PUSH2 0x1329 JUMP JUMPDEST SWAP6 POP PUSH1 0x20 DUP8 ADD CALLDATALOAD PUSH8 0xFFFFFFFFFFFFFFFF DUP1 DUP3 GT ISZERO PUSH2 0x1424 JUMPI PUSH1 0x0 DUP1 REVERT JUMPDEST PUSH2 0x1430 DUP11 DUP4 DUP12 ADD PUSH2 0x13CA JUMP JUMPDEST SWAP7 POP PUSH1 0x40 DUP10 ADD CALLDATALOAD SWAP2 POP DUP1 DUP3 GT ISZERO PUSH2 0x1446 JUMPI PUSH1 0x0 DUP1 REVERT JUMPDEST POP PUSH2 0x1453 DUP10 DUP3 DUP11 ADD PUSH2 0x13CA JUMP JUMPDEST SWAP5 POP POP PUSH2 0x1463 DUP9 PUSH1 0x60 DUP10 ADD PUSH2 0x13CA JUMP JUMPDEST SWAP3 POP PUSH1 0x80 PUSH1 0xBF NOT DUP3 ADD SLT ISZERO PUSH2 0x1477 JUMPI PUSH1 0x0 DUP1 REVERT JUMPDEST POP PUSH1 0xC0 DUP7 ADD SWAP1 POP SWAP3 SWAP6 POP SWAP3 SWAP6 SWAP1 SWAP4 POP JUMP JUMPDEST PUSH1 0x0 DUP1 PUSH1 0x40 DUP4 DUP6 SUB SLT ISZERO PUSH2 0x149B JUMPI PUSH1 0x0 DUP1 REVERT JUMPDEST DUP3 CALLDATALOAD SWAP2 POP PUSH1 0x20 DUP4 ADD CALLDATALOAD PUSH2 0x14AD DUP2 PUSH2 0x1329 JUMP JUMPDEST DUP1 SWAP2 POP POP SWAP3 POP SWAP3 SWAP1 POP JUMP JUMPDEST PUSH1 0x0 PUSH1 0x20 DUP3 DUP5 SUB SLT ISZERO PUSH2 0x14CA JUMPI PUSH1 0x0 DUP1 REVERT JUMPDEST DUP2 CALLDATALOAD PUSH2 0xE2C DUP2 PUSH2 0x1329 JUMP JUMPDEST PUSH1 0x0 JUMPDEST DUP4 DUP2 LT ISZERO PUSH2 0x14F0 JUMPI DUP2 DUP2 ADD MLOAD DUP4 DUP3 ADD MSTORE PUSH1 0x20 ADD PUSH2 0x14D8 JUMP JUMPDEST DUP4 DUP2 GT ISZERO PUSH2 0x14FF JUMPI PUSH1 0x0 DUP5 DUP5 ADD MSTORE JUMPDEST POP POP POP POP JUMP JUMPDEST PUSH1 0x0 DUP2 MLOAD DUP1 DUP5 MSTORE PUSH2 0x151D DUP2 PUSH1 0x20 DUP7 ADD PUSH1 0x20 DUP7 ADD PUSH2 0x14D5 JUMP JUMPDEST PUSH1 0x1F ADD PUSH1 0x1F NOT AND SWAP3 SWAP1 SWAP3 ADD PUSH1 0x20 ADD SWAP3 SWAP2 POP POP JUMP JUMPDEST PUSH1 0x20 DUP2 MSTORE PUSH1 0x0 PUSH2 0xE2C PUSH1 0x20 DUP4 ADD DUP5 PUSH2 0x1505 JUMP JUMPDEST PUSH1 0x0 DUP1 PUSH1 0x40 DUP4 DUP6 SUB SLT ISZERO PUSH2 0x1557 JUMPI PUSH1 0x0 DUP1 REVERT JUMPDEST POP POP DUP1 CALLDATALOAD SWAP3 PUSH1 0x20 SWAP1 SWAP2 ADD CALLDATALOAD SWAP2 POP JUMP JUMPDEST PUSH1 0x0 PUSH1 0x20 DUP3 DUP5 SUB SLT ISZERO PUSH2 0x1578 JUMPI PUSH1 0x0 DUP1 REVERT JUMPDEST DUP2 MLOAD DUP1 ISZERO ISZERO DUP2 EQ PUSH2 0xE2C JUMPI PUSH1 0x0 DUP1 REVERT JUMPDEST PUSH1 0x0 PUSH1 0x20 DUP3 DUP5 SUB SLT ISZERO PUSH2 0x159A JUMPI PUSH1 0x0 DUP1 REVERT JUMPDEST DUP2 MLOAD PUSH2 0xE2C DUP2 PUSH2 0x1329 JUMP JUMPDEST PUSH1 0x0 PUSH1 0x20 DUP3 DUP5 SUB SLT ISZERO PUSH2 0x15B7 JUMPI PUSH1 0x0 DUP1 REVERT JUMPDEST DUP2 CALLDATALOAD PUSH1 0xFF DUP2 AND DUP2 EQ PUSH2 0xE2C JUMPI PUSH1 0x0 DUP1 REVERT JUMPDEST PUSH1 0x0 DUP1 DUP4 CALLDATALOAD PUSH1 0x1E NOT DUP5 CALLDATASIZE SUB ADD DUP2 SLT PUSH2 0x15DF JUMPI PUSH1 0x0 DUP1 REVERT JUMPDEST DUP4 ADD DUP1 CALLDATALOAD SWAP2 POP PUSH8 0xFFFFFFFFFFFFFFFF DUP3 GT ISZERO PUSH2 0x15FA JUMPI PUSH1 0x0 DUP1 REVERT JUMPDEST PUSH1 0x20 ADD SWAP2 POP CALLDATASIZE DUP2 SWAP1 SUB DUP3 SGT ISZERO PUSH2 0x160F JUMPI PUSH1 0x0 DUP1 REVERT JUMPDEST SWAP3 POP SWAP3 SWAP1 POP JUMP JUMPDEST DUP2 DUP4 MSTORE DUP2 DUP2 PUSH1 0x20 DUP6 ADD CALLDATACOPY POP PUSH1 0x0 DUP3 DUP3 ADD PUSH1 0x20 SWAP1 DUP2 ADD SWAP2 SWAP1 SWAP2 MSTORE PUSH1 0x1F SWAP1 SWAP2 ADD PUSH1 0x1F NOT AND SWAP1 SWAP2 ADD ADD SWAP1 JUMP JUMPDEST PUSH1 0x80 DUP2 MSTORE PUSH1 0x0 PUSH2 0x1653 PUSH1 0x80 DUP4 ADD DUP8 DUP10 PUSH2 0x1616 JUMP JUMPDEST PUSH1 0x1 PUSH1 0x1 PUSH1 0xA0 SHL SUB SWAP6 SWAP1 SWAP6 AND PUSH1 0x20 DUP4 ADD MSTORE POP PUSH1 0x40 DUP2 ADD SWAP3 SWAP1 SWAP3 MSTORE PUSH1 0x60 SWAP1 SWAP2 ADD MSTORE SWAP3 SWAP2 POP POP JUMP JUMPDEST PUSH1 0xA0 DUP2 MSTORE PUSH1 0x0 PUSH2 0x168D PUSH1 0xA0 DUP4 ADD DUP9 DUP11 PUSH2 0x1616 JUMP JUMPDEST PUSH1 0x1 PUSH1 0x1 PUSH1 0xA0 SHL SUB SWAP7 DUP8 AND PUSH1 0x20 DUP5 ADD MSTORE SWAP5 SWAP1 SWAP6 AND PUSH1 0x40 DUP3 ADD MSTORE PUSH1 0x60 DUP2 ADD SWAP3 SWAP1 SWAP3 MSTORE PUSH1 0x80 SWAP1 SWAP2 ADD MSTORE SWAP4 SWAP3 POP POP POP JUMP JUMPDEST PUSH1 0x1 DUP2 DUP2 SHR SWAP1 DUP3 AND DUP1 PUSH2 0x16CF JUMPI PUSH1 0x7F DUP3 AND SWAP2 POP JUMPDEST PUSH1 0x20 DUP3 LT DUP2 EQ ISZERO PUSH2 0x13DC JUMPI PUSH4 0x4E487B71 PUSH1 0xE0 SHL PUSH1 0x0 MSTORE PUSH1 0x22 PUSH1 0x4 MSTORE PUSH1 0x24 PUSH1 0x0 REVERT JUMPDEST PUSH1 0x0 DUP2 MLOAD PUSH2 0x1702 DUP2 DUP6 PUSH1 0x20 DUP7 ADD PUSH2 0x14D5 JUMP JUMPDEST SWAP3 SWAP1 SWAP3 ADD SWAP3 SWAP2 POP POP JUMP JUMPDEST PUSH1 0x0 DUP1 DUP5 SLOAD DUP2 PUSH1 0x1 DUP3 DUP2 SHR SWAP2 POP DUP1 DUP4 AND DUP1 PUSH2 0x1728 JUMPI PUSH1 0x7F DUP4 AND SWAP3 POP JUMPDEST PUSH1 0x20 DUP1 DUP5 LT DUP3 EQ ISZERO PUSH2 0x1748 JUMPI PUSH4 0x4E487B71 PUSH1 0xE0 SHL DUP7 MSTORE PUSH1 0x22 PUSH1 0x4 MSTORE PUSH1 0x24 DUP7 REVERT JUMPDEST DUP2 DUP1 ISZERO PUSH2 0x175C JUMPI PUSH1 0x1 DUP2 EQ PUSH2 0x176D JUMPI PUSH2 0x179A JUMP JUMPDEST PUSH1 0xFF NOT DUP7 AND DUP10 MSTORE DUP5 DUP10 ADD SWAP7 POP PUSH2 0x179A JUMP JUMPDEST PUSH1 0x0 DUP12 DUP2 MSTORE PUSH1 0x20 SWAP1 KECCAK256 PUSH1 0x0 JUMPDEST DUP7 DUP2 LT ISZERO PUSH2 0x1792 JUMPI DUP2 SLOAD DUP12 DUP3 ADD MSTORE SWAP1 DUP6 ADD SWAP1 DUP4 ADD PUSH2 0x1779 JUMP JUMPDEST POP POP DUP5 DUP10 ADD SWAP7 POP JUMPDEST POP POP POP POP POP POP PUSH2 0x360 DUP2 DUP6 PUSH2 0x16F0 JUMP JUMPDEST PUSH1 0x80 DUP2 MSTORE PUSH1 0x0 PUSH2 0x17BE PUSH1 0x80 DUP4 ADD DUP9 DUP11 PUSH2 0x1616 JUMP JUMPDEST DUP3 DUP2 SUB PUSH1 0x20 DUP5 ADD MSTORE PUSH2 0x17D1 DUP2 DUP8 DUP10 PUSH2 0x1616 JUMP JUMPDEST PUSH1 0xFF SWAP6 SWAP1 SWAP6 AND PUSH1 0x40 DUP5 ADD MSTORE POP POP PUSH1 0x1 PUSH1 0x1 PUSH1 0xA0 SHL SUB SWAP2 SWAP1 SWAP2 AND PUSH1 0x60 SWAP1 SWAP2 ADD MSTORE SWAP5 SWAP4 POP POP POP POP JUMP INVALID PUSH10 0x6E76616C696420766175 PUSH13 0x7420696D706C656D656E746174 PUSH10 0x6F6E20666F7220676976 PUSH6 0x6E20636F696E PUSH10 0x6E76616C696420706F6F PUSH13 0x20696D706C656D656E74617469 PUSH16 0x6E20666F7220676976656E20636F696E PUSH10 0x6E76616C6964204C5020 SLOAD PUSH16 0x6B656E20696D706C656D656E74617469 PUSH16 0x6E20666F7220676976656E20636F696E PUSH10 0x6E76616C696420737461 PUSH12 0x65725661756C7420696D706C PUSH6 0x6D656E746174 PUSH10 0x6F6E20666F7220676976 PUSH6 0x6E20636F696E LOG2 PUSH5 0x6970667358 0x22 SLT KECCAK256 PUSH7 0x6989E80849FFC0 RETURNDATASIZE 0xC1 SHL SIGNEXTEND 0xD5 PUSH4 0xBC0EBAB SUB AND SSTORE ORIGIN 0xC3 0xD PUSH25 0xA68669F05DE62C64736F6C634300080A003300000000000000 ","sha1":"8fbb235f626da2e568bebc74c05cff29ebedc9a9","source":"// SPDX-License-Identifier: GPL-3.0-or-later\npragma solidity 0.8.10;\n\nimport \"@openzeppelin/contracts/token/ERC20/utils/SafeERC20.sol\";\nimport \"@openzeppelin/contracts/token/ERC20/IERC20.sol\";\nimport \"@openzeppelin/contracts/proxy/Clones.sol\";\n\nimport \"../../interfaces/IStakerVault.sol\";\nimport \"../../interfaces/IVault.sol\";\nimport \"../../interfaces/ILpToken.sol\";\nimport \"../../interfaces/IAdmin.sol\";\nimport \"../../interfaces/IController.sol\";\nimport \"../../interfaces/pool/ILiquidityPool.sol\";\nimport \"../../interfaces/pool/IErc20Pool.sol\";\nimport \"../../interfaces/pool/IEthPool.sol\";\nimport \"../../interfaces/pool/IPoolFactory.sol\";\n\nimport \"../../libraries/ScaledMath.sol\";\nimport \"../../libraries/AddressProviderHelpers.sol\";\n\nimport \"../access/Authorization.sol\";\nimport \"../LpToken.sol\";\n\ncontract PoolFactory is IPoolFactory, Authorization {\n    using AddressProviderHelpers for IAddressProvider;\n\n    bytes32 internal constant _POOL_KEY = \"pool\";\n    bytes32 internal constant _LP_TOKEN_KEY = \"lp_token\";\n    bytes32 internal constant _STAKER_VAULT_KEY = \"staker_vault\";\n    bytes32 internal constant _VAULT_KEY = \"vault\";\n\n    IController public immutable controller;\n    IAddressProvider public immutable addressProvider;\n\n    /**\n     * @dev maps a contract type (e.g. \"pool\" or \"lp_token\", as defined in constants above)\n     * to a mapping from an implementation name to the actual implementation\n     * The implementation name is decided when registering the implementation\n     * and can be arbitrary (e.g. \"ERC20PoolV1\")\n     */\n    mapping(bytes32 => mapping(bytes32 => address)) public implementations;\n\n    /**\n     * @dev maps an LP token implementation to its creation code\n     * this is only required for the LP token because they are deployed using `create`\n     * rather than using a minimal proxy like the other contracts\n     */\n    mapping(address => bytes) public lpTokensInitCode;\n\n    event NewPool(address pool, address vault, address lpToken, address stakerVault);\n    event NewImplementation(bytes32 key, bytes32 name, address implementation);\n\n    constructor(IController _controller)\n        Authorization(_controller.addressProvider().getRoleManager())\n    {\n        controller = IController(_controller);\n        addressProvider = IController(_controller).addressProvider();\n    }\n\n    /**\n     * @notice Add a new pool implementation to the factory.\n     * @param name of the pool implementation.\n     * @param implementation of pool implementation to add.\n     */\n    function addPoolImplementation(bytes32 name, address implementation)\n        external\n        override\n        onlyGovernance\n        returns (bool)\n    {\n        return _addImplementation(_POOL_KEY, name, implementation);\n    }\n\n    /**\n     * @notice Add a new LP token implementation to the factory.\n     * @param name of the LP token implementation.\n     * @param implementation of lp token implementation to add.\n     */\n    function addLpTokenImplementation(\n        bytes32 name,\n        address implementation,\n        bytes calldata initCode\n    ) external override onlyGovernance returns (bool) {\n        lpTokensInitCode[implementation] = initCode;\n        return _addImplementation(_LP_TOKEN_KEY, name, implementation);\n    }\n\n    /**\n     * @notice Add a new vault implementation to the factory.\n     * @param name of the vault implementation.\n     * @param implementation of vault implementation to add.\n     */\n    function addVaultImplementation(bytes32 name, address implementation)\n        external\n        override\n        onlyGovernance\n        returns (bool)\n    {\n        return _addImplementation(_VAULT_KEY, name, implementation);\n    }\n\n    /**\n     * @notice Add a new staker vault implementation to the factory.\n     * @param name of the staker vault implementation.\n     * @param implementation of staker vault implementation to add.\n     */\n    function addStakerVaultImplementation(bytes32 name, address implementation)\n        external\n        override\n        onlyGovernance\n        returns (bool)\n    {\n        return _addImplementation(_STAKER_VAULT_KEY, name, implementation);\n    }\n\n    /**\n     * @notice Deploys a new pool and LP token.\n     * @dev Decimals is an argument as not all ERC20 tokens implement the ERC20Detailed interface.\n     *      An implementation where `getUnderlying()` returns the zero address is for ETH pools.\n     * @param underlying Address of the pool's underlying.\n     * @param poolArgs Arguments to initialize the pool.\n     * @param lpTokenArgs Arguments to create the LP token for the pool.\n     * @param vaultArgs Arguments to create the vault.\n     * @param implementationNames Name of the implementations to use.\n     * @return addrs Address of the deployed pool, address of the pool's deployed LP token.\n     */\n    function deployPool(\n        address underlying,\n        PoolArgs calldata poolArgs,\n        LpTokenArgs calldata lpTokenArgs,\n        VaultArgs calldata vaultArgs,\n        ImplementationNames calldata implementationNames\n    ) external override onlyGovernance returns (Addresses memory addrs) {\n        DeployPoolVars memory vars;\n\n        vars.poolImplementation = implementations[_POOL_KEY][implementationNames.pool];\n        require(vars.poolImplementation != address(0), Error.INVALID_POOL_IMPLEMENTATION);\n\n        vars.lpTokenImplementation = implementations[_LP_TOKEN_KEY][implementationNames.lpToken];\n        require(vars.lpTokenImplementation != address(0), Error.INVALID_LP_TOKEN_IMPLEMENTATION);\n\n        vars.vaultImplementation = implementations[_VAULT_KEY][implementationNames.vault];\n        require(vars.vaultImplementation != address(0), Error.INVALID_VAULT_IMPLEMENTATION);\n\n        vars.stakerVaultImplementation = implementations[_STAKER_VAULT_KEY][\n            implementationNames.stakerVault\n        ];\n        require(\n            vars.stakerVaultImplementation != address(0),\n            Error.INVALID_STAKER_VAULT_IMPLEMENTATION\n        );\n\n        addrs.pool = Clones.clone(vars.poolImplementation);\n        addrs.vault = Clones.clone(vars.vaultImplementation);\n\n        if (underlying == address(0)) {\n            // ETH pool\n            require(\n                ILiquidityPool(vars.poolImplementation).getUnderlying() == address(0),\n                Error.INVALID_POOL_IMPLEMENTATION\n            );\n            require(lpTokenArgs.decimals == 18, Error.INVALID_DECIMALS);\n            IEthPool(addrs.pool).initialize(\n                poolArgs.name,\n                addrs.vault,\n                poolArgs.maxWithdrawalFee,\n                poolArgs.minWithdrawalFee\n            );\n        } else {\n            IErc20Pool(addrs.pool).initialize(\n                poolArgs.name,\n                underlying,\n                addrs.vault,\n                poolArgs.maxWithdrawalFee,\n                poolArgs.minWithdrawalFee\n            );\n        }\n\n        address lpTokenAddress;\n        bytes memory lptokenCreationCode = bytes.concat(\n            lpTokensInitCode[vars.lpTokenImplementation],\n            vars.lpTokenImplementation.code\n        );\n\n        // solhint-disable-next-line no-inline-assembly\n        assembly {\n            lpTokenAddress := create(0, add(lptokenCreationCode, 32), mload(lptokenCreationCode))\n        }\n\n        addrs.lpToken = lpTokenAddress;\n\n        ILpToken(addrs.lpToken).initialize(\n            lpTokenArgs.name,\n            lpTokenArgs.symbol,\n            lpTokenArgs.decimals,\n            addrs.pool\n        );\n\n        addrs.stakerVault = Clones.clone(vars.stakerVaultImplementation);\n        IStakerVault(addrs.stakerVault).initialize(addrs.lpToken);\n        controller.addStakerVault(addrs.stakerVault);\n\n        ILiquidityPool(addrs.pool).setLpToken(addrs.lpToken);\n        ILiquidityPool(addrs.pool).setStaker();\n\n        IVault(addrs.vault).initialize(\n            addrs.pool,\n            vaultArgs.debtLimit,\n            vaultArgs.targetAllocation,\n            vaultArgs.bound\n        );\n\n        addressProvider.addPool(addrs.pool);\n\n        emit NewPool(addrs.pool, addrs.vault, addrs.lpToken, addrs.stakerVault);\n        return addrs;\n    }\n\n    /**\n     * @notice Add a new implementation of type `name` to the factory.\n     * @param key of the implementation to add.\n     * @param name of the implementation to add.\n     * @param implementation of lp token implementation to add.\n     */\n    function _addImplementation(\n        bytes32 key,\n        bytes32 name,\n        address implementation\n    ) internal returns (bool) {\n        mapping(bytes32 => address) storage currentImplementations = implementations[key];\n        if (currentImplementations[name] != address(0)) {\n            return false;\n        }\n        currentImplementations[name] = implementation;\n        emit NewImplementation(key, name, implementation);\n        return true;\n    }\n}\n","sourcePath":"contracts/pool/PoolFactory.sol","type":"contract","deployment":{"address":"0xF577563921C685dA217760331F5A9C9B7BB8fBEA","chainid":"42","blockHeight":33231488}}