{"abi":[{"inputs":[{"internalType":"contract IAddressProvider","name":"addressProvider","type":"IAddressProvider"},{"internalType":"address","name":"token","type":"address"},{"internalType":"address","name":"actionToken","type":"address"},{"internalType":"uint256","name":"amount","type":"uint256"}],"name":"calcExchangeAmount","outputs":[{"internalType":"uint256","name":"","type":"uint256"}],"stateMutability":"view","type":"function"}],"bytecode":"610cae61003a600b82828239805160001a60731461002d57634e487b7160e01b600052600060045260246000fd5b30600052607381538281f3fe73000000000000000000000000000000000000000030146080604052600436106100405760003560e01c8063d384721614610045578063dc4882981461006a575b600080fd5b610058610053366004610a1f565b61008c565b60405190815260200160405180910390f35b81801561007657600080fd5b5061008a610085366004610a70565b610235565b005b604051630956fef360e21b81526001600160a01b038481166004830152600091829187169063255bfbcc90602401602060405180830381865afa1580156100d7573d6000803e3d6000fd5b505050506040513d601f19601f820116820180604052508101906100fb9190610acb565b90506000816001600160a01b0316633ba0b9a96040518163ffffffff1660e01b8152600401602060405180830381865afa15801561013d573d6000803e3d6000fd5b505050506040513d601f19601f820116820180604052508101906101619190610ae8565b90506000826001600160a01b0316639816f4736040518163ffffffff1660e01b8152600401602060405180830381865afa1580156101a3573d6000803e3d6000fd5b505050506040513d601f19601f820116820180604052508101906101c79190610acb565b9050856001600160a01b0316816001600160a01b031614604051806060016040528060288152602001610c25602891399061021e5760405162461bcd60e51b81526004016102159190610b2d565b60405180910390fd5b506102298583610554565b98975050505050505050565b84811561033757828211610249578161024b565b825b91506102626001600160a01b038516863085610591565b61026c8487610602565b60405163534a7e1d60e11b8152600481018390526001600160a01b0382169063a694fc3a90602401600060405180830381600087803b1580156102ae57600080fd5b505af11580156102c2573d6000803e3d6000fd5b5050604051630fcb700160e41b81526001600160a01b038881166004830152602482018690528416925063fcb700109150604401600060405180830381600087803b15801561031057600080fd5b505af1158015610324573d6000803e3d6000fd5b5050505081836103349190610b76565b92505b8215610510576040516370a0823160e01b81526001600160a01b038681166004830152600091908316906370a0823190602401602060405180830381865afa158015610387573d6000803e3d6000fd5b505050506040513d601f19601f820116820180604052508101906103ab9190610ae8565b604051636eb1769f60e11b81526001600160a01b03888116600483015230602483015291925060009184169063dd62ed3e90604401602060405180830381865afa1580156103fd573d6000803e3d6000fd5b505050506040513d601f19601f820116820180604052508101906104219190610ae8565b905060008183106104325781610434565b825b905085811061050c576040516323b872dd60e01b81526001600160a01b038981166004830152306024830152604482018890528516906323b872dd90606401600060405180830381600087803b15801561048d57600080fd5b505af11580156104a1573d6000803e3d6000fd5b5050604051630fcb700160e41b81526001600160a01b038b81166004830152602482018a90528716925063fcb700109150604401600060405180830381600087803b1580156104ef57600080fd5b505af1158015610503573d6000803e3d6000fd5b50505050600095505b5050505b826000146040518060600160405280602c8152602001610c4d602c91399061054b5760405162461bcd60e51b81526004016102159190610b2d565b50505050505050565b60008160018161056c670de0b6b3a764000087610b8d565b6105769190610bac565b6105809190610b76565b61058a9190610bc4565b9392505050565b6040516001600160a01b03808516602483015283166044820152606481018290526105fc9085906323b872dd60e01b906084015b60408051601f198184030181529190526020810180516001600160e01b03166001600160e01b03199093169290921790915261069a565b50505050565b604051636eb1769f60e11b81523060048201526001600160a01b0382811660248301526000919084169063dd62ed3e90604401602060405180830381865afa158015610652573d6000803e3d6000fd5b505050506040513d601f19601f820116820180604052508101906106769190610ae8565b1115610680575050565b6106966001600160a01b03831682600019610771565b5050565b60006106ef826040518060400160405280602081526020017f5361666545524332303a206c6f772d6c6576656c2063616c6c206661696c6564815250856001600160a01b03166108869092919063ffffffff16565b80519091501561076c578080602001905181019061070d9190610be6565b61076c5760405162461bcd60e51b815260206004820152602a60248201527f5361666545524332303a204552433230206f7065726174696f6e20646964206e6044820152691bdd081cdd58d8d9595960b21b6064820152608401610215565b505050565b8015806107eb5750604051636eb1769f60e11b81523060048201526001600160a01b03838116602483015284169063dd62ed3e90604401602060405180830381865afa1580156107c5573d6000803e3d6000fd5b505050506040513d601f19601f820116820180604052508101906107e99190610ae8565b155b6108565760405162461bcd60e51b815260206004820152603660248201527f5361666545524332303a20617070726f76652066726f6d206e6f6e2d7a65726f60448201527520746f206e6f6e2d7a65726f20616c6c6f77616e636560501b6064820152608401610215565b6040516001600160a01b03831660248201526044810182905261076c90849063095ea7b360e01b906064016105c5565b6060610895848460008561089d565b949350505050565b6060824710156108fe5760405162461bcd60e51b815260206004820152602660248201527f416464726573733a20696e73756666696369656e742062616c616e636520666f6044820152651c8818d85b1b60d21b6064820152608401610215565b6001600160a01b0385163b6109555760405162461bcd60e51b815260206004820152601d60248201527f416464726573733a2063616c6c20746f206e6f6e2d636f6e74726163740000006044820152606401610215565b600080866001600160a01b031685876040516109719190610c08565b60006040518083038185875af1925050503d80600081146109ae576040519150601f19603f3d011682016040523d82523d6000602084013e6109b3565b606091505b50915091506109c38282866109ce565b979650505050505050565b606083156109dd57508161058a565b8251156109ed5782518084602001fd5b8160405162461bcd60e51b81526004016102159190610b2d565b6001600160a01b0381168114610a1c57600080fd5b50565b60008060008060808587031215610a3557600080fd5b8435610a4081610a07565b93506020850135610a5081610a07565b92506040850135610a6081610a07565b9396929550929360600135925050565b600080600080600060a08688031215610a8857600080fd5b8535610a9381610a07565b94506020860135610aa381610a07565b93506040860135610ab381610a07565b94979396509394606081013594506080013592915050565b600060208284031215610add57600080fd5b815161058a81610a07565b600060208284031215610afa57600080fd5b5051919050565b60005b83811015610b1c578181015183820152602001610b04565b838111156105fc5750506000910152565b6020815260008251806020840152610b4c816040850160208701610b01565b601f01601f19169190910160400192915050565b634e487b7160e01b600052601160045260246000fd5b600082821015610b8857610b88610b60565b500390565b6000816000190483118215151615610ba757610ba7610b60565b500290565b60008219821115610bbf57610bbf610b60565b500190565b600082610be157634e487b7160e01b600052601260045260246000fd5b500490565b600060208284031215610bf857600080fd5b8151801515811461058a57600080fd5b60008251610c1a818460208701610b01565b919091019291505056fe746f6b656e206e6f7420757361626c6520666f722074686520737065636966696320616374696f6e696e73756666696369656e742066756e647320666f72207570646174696e672074686520706f736974696f6ea2646970667358221220e059ac1ede632004a7785da8343317c5d9387276927c39873721f8cef5f7ac3864736f6c634300080a0033","bytecodeSha1":"3d78cbadcbf6d1c066a5244f10aac8a7c24f7731","compiler":{"evm_version":"london","optimizer":{"enabled":true,"runs":200},"version":"0.8.10+commit.fc410830"},"contractName":"TopUpActionLibrary","language":"Solidity","natspec":{"kind":"dev","methods":{"calcExchangeAmount(IAddressProvider,address,address,uint256)":{"details":"Computes and returns the amount of LP tokens of type `token` that will be received in exchange for an `amount` of the underlying."},"lockFunds(address,address,address,uint256,uint256)":{"details":"\"Locks\" an amount of tokens on behalf of the TopUpAction Funds are taken from staker vault if allowance is sufficient, else direct transfer or a combination of both.","params":{"depositAmount":"Amount of `token` that was deposited.                      If this is 0 then the staker vault allowance should be used.                      If this is greater than `requiredAmount` more tokens will be locked.","lockAmount":"Minimum amount of `token` to lock","payer":"Owner of the funds to be locked","stakerVaultAddress":"The address of the staker vault","token":"Token to lock"}}},"notice":"The logic here should really be part of the top-up action but is split in a library to circumvent the byte-code size limit","version":1},"opcodes":"PUSH20 0x0 ADDRESS EQ PUSH1 0x80 PUSH1 0x40 MSTORE PUSH1 0x4 CALLDATASIZE LT PUSH2 0x40 JUMPI PUSH1 0x0 CALLDATALOAD PUSH1 0xE0 SHR DUP1 PUSH4 0xD3847216 EQ PUSH2 0x45 JUMPI DUP1 PUSH4 0xDC488298 EQ PUSH2 0x6A JUMPI JUMPDEST PUSH1 0x0 DUP1 REVERT JUMPDEST PUSH2 0x58 PUSH2 0x53 CALLDATASIZE PUSH1 0x4 PUSH2 0xA1F JUMP JUMPDEST PUSH2 0x8C JUMP JUMPDEST PUSH1 0x40 MLOAD SWAP1 DUP2 MSTORE PUSH1 0x20 ADD PUSH1 0x40 MLOAD DUP1 SWAP2 SUB SWAP1 RETURN JUMPDEST DUP2 DUP1 ISZERO PUSH2 0x76 JUMPI PUSH1 0x0 DUP1 REVERT JUMPDEST POP PUSH2 0x8A PUSH2 0x85 CALLDATASIZE PUSH1 0x4 PUSH2 0xA70 JUMP JUMPDEST PUSH2 0x235 JUMP JUMPDEST STOP JUMPDEST PUSH1 0x40 MLOAD PUSH4 0x956FEF3 PUSH1 0xE2 SHL DUP2 MSTORE PUSH1 0x1 PUSH1 0x1 PUSH1 0xA0 SHL SUB DUP5 DUP2 AND PUSH1 0x4 DUP4 ADD MSTORE PUSH1 0x0 SWAP2 DUP3 SWAP2 DUP8 AND SWAP1 PUSH4 0x255BFBCC SWAP1 PUSH1 0x24 ADD PUSH1 0x20 PUSH1 0x40 MLOAD DUP1 DUP4 SUB DUP2 DUP7 GAS STATICCALL ISZERO DUP1 ISZERO PUSH2 0xD7 JUMPI RETURNDATASIZE PUSH1 0x0 DUP1 RETURNDATACOPY RETURNDATASIZE PUSH1 0x0 REVERT JUMPDEST POP POP POP POP PUSH1 0x40 MLOAD RETURNDATASIZE PUSH1 0x1F NOT PUSH1 0x1F DUP3 ADD AND DUP3 ADD DUP1 PUSH1 0x40 MSTORE POP DUP2 ADD SWAP1 PUSH2 0xFB SWAP2 SWAP1 PUSH2 0xACB JUMP JUMPDEST SWAP1 POP PUSH1 0x0 DUP2 PUSH1 0x1 PUSH1 0x1 PUSH1 0xA0 SHL SUB AND PUSH4 0x3BA0B9A9 PUSH1 0x40 MLOAD DUP2 PUSH4 0xFFFFFFFF AND PUSH1 0xE0 SHL DUP2 MSTORE PUSH1 0x4 ADD PUSH1 0x20 PUSH1 0x40 MLOAD DUP1 DUP4 SUB DUP2 DUP7 GAS STATICCALL ISZERO DUP1 ISZERO PUSH2 0x13D JUMPI RETURNDATASIZE PUSH1 0x0 DUP1 RETURNDATACOPY RETURNDATASIZE PUSH1 0x0 REVERT JUMPDEST POP POP POP POP PUSH1 0x40 MLOAD RETURNDATASIZE PUSH1 0x1F NOT PUSH1 0x1F DUP3 ADD AND DUP3 ADD DUP1 PUSH1 0x40 MSTORE POP DUP2 ADD SWAP1 PUSH2 0x161 SWAP2 SWAP1 PUSH2 0xAE8 JUMP JUMPDEST SWAP1 POP PUSH1 0x0 DUP3 PUSH1 0x1 PUSH1 0x1 PUSH1 0xA0 SHL SUB AND PUSH4 0x9816F473 PUSH1 0x40 MLOAD DUP2 PUSH4 0xFFFFFFFF AND PUSH1 0xE0 SHL DUP2 MSTORE PUSH1 0x4 ADD PUSH1 0x20 PUSH1 0x40 MLOAD DUP1 DUP4 SUB DUP2 DUP7 GAS STATICCALL ISZERO DUP1 ISZERO PUSH2 0x1A3 JUMPI RETURNDATASIZE PUSH1 0x0 DUP1 RETURNDATACOPY RETURNDATASIZE PUSH1 0x0 REVERT JUMPDEST POP POP POP POP PUSH1 0x40 MLOAD RETURNDATASIZE PUSH1 0x1F NOT PUSH1 0x1F DUP3 ADD AND DUP3 ADD DUP1 PUSH1 0x40 MSTORE POP DUP2 ADD SWAP1 PUSH2 0x1C7 SWAP2 SWAP1 PUSH2 0xACB JUMP JUMPDEST SWAP1 POP DUP6 PUSH1 0x1 PUSH1 0x1 PUSH1 0xA0 SHL SUB AND DUP2 PUSH1 0x1 PUSH1 0x1 PUSH1 0xA0 SHL SUB AND EQ PUSH1 0x40 MLOAD DUP1 PUSH1 0x60 ADD PUSH1 0x40 MSTORE DUP1 PUSH1 0x28 DUP2 MSTORE PUSH1 0x20 ADD PUSH2 0xC25 PUSH1 0x28 SWAP2 CODECOPY SWAP1 PUSH2 0x21E JUMPI PUSH1 0x40 MLOAD PUSH3 0x461BCD PUSH1 0xE5 SHL DUP2 MSTORE PUSH1 0x4 ADD PUSH2 0x215 SWAP2 SWAP1 PUSH2 0xB2D JUMP JUMPDEST PUSH1 0x40 MLOAD DUP1 SWAP2 SUB SWAP1 REVERT JUMPDEST POP PUSH2 0x229 DUP6 DUP4 PUSH2 0x554 JUMP JUMPDEST SWAP9 SWAP8 POP POP POP POP POP POP POP POP JUMP JUMPDEST DUP5 DUP2 ISZERO PUSH2 0x337 JUMPI DUP3 DUP3 GT PUSH2 0x249 JUMPI DUP2 PUSH2 0x24B JUMP JUMPDEST DUP3 JUMPDEST SWAP2 POP PUSH2 0x262 PUSH1 0x1 PUSH1 0x1 PUSH1 0xA0 SHL SUB DUP6 AND DUP7 ADDRESS DUP6 PUSH2 0x591 JUMP JUMPDEST PUSH2 0x26C DUP5 DUP8 PUSH2 0x602 JUMP JUMPDEST PUSH1 0x40 MLOAD PUSH4 0x534A7E1D PUSH1 0xE1 SHL DUP2 MSTORE PUSH1 0x4 DUP2 ADD DUP4 SWAP1 MSTORE PUSH1 0x1 PUSH1 0x1 PUSH1 0xA0 SHL SUB DUP3 AND SWAP1 PUSH4 0xA694FC3A SWAP1 PUSH1 0x24 ADD PUSH1 0x0 PUSH1 0x40 MLOAD DUP1 DUP4 SUB DUP2 PUSH1 0x0 DUP8 DUP1 EXTCODESIZE ISZERO DUP1 ISZERO PUSH2 0x2AE JUMPI PUSH1 0x0 DUP1 REVERT JUMPDEST POP GAS CALL ISZERO DUP1 ISZERO PUSH2 0x2C2 JUMPI RETURNDATASIZE PUSH1 0x0 DUP1 RETURNDATACOPY RETURNDATASIZE PUSH1 0x0 REVERT JUMPDEST POP POP PUSH1 0x40 MLOAD PUSH4 0xFCB7001 PUSH1 0xE4 SHL DUP2 MSTORE PUSH1 0x1 PUSH1 0x1 PUSH1 0xA0 SHL SUB DUP9 DUP2 AND PUSH1 0x4 DUP4 ADD MSTORE PUSH1 0x24 DUP3 ADD DUP7 SWAP1 MSTORE DUP5 AND SWAP3 POP PUSH4 0xFCB70010 SWAP2 POP PUSH1 0x44 ADD PUSH1 0x0 PUSH1 0x40 MLOAD DUP1 DUP4 SUB DUP2 PUSH1 0x0 DUP8 DUP1 EXTCODESIZE ISZERO DUP1 ISZERO PUSH2 0x310 JUMPI PUSH1 0x0 DUP1 REVERT JUMPDEST POP GAS CALL ISZERO DUP1 ISZERO PUSH2 0x324 JUMPI RETURNDATASIZE PUSH1 0x0 DUP1 RETURNDATACOPY RETURNDATASIZE PUSH1 0x0 REVERT JUMPDEST POP POP POP POP DUP2 DUP4 PUSH2 0x334 SWAP2 SWAP1 PUSH2 0xB76 JUMP JUMPDEST SWAP3 POP JUMPDEST DUP3 ISZERO PUSH2 0x510 JUMPI PUSH1 0x40 MLOAD PUSH4 0x70A08231 PUSH1 0xE0 SHL DUP2 MSTORE PUSH1 0x1 PUSH1 0x1 PUSH1 0xA0 SHL SUB DUP7 DUP2 AND PUSH1 0x4 DUP4 ADD MSTORE PUSH1 0x0 SWAP2 SWAP1 DUP4 AND SWAP1 PUSH4 0x70A08231 SWAP1 PUSH1 0x24 ADD PUSH1 0x20 PUSH1 0x40 MLOAD DUP1 DUP4 SUB DUP2 DUP7 GAS STATICCALL ISZERO DUP1 ISZERO PUSH2 0x387 JUMPI RETURNDATASIZE PUSH1 0x0 DUP1 RETURNDATACOPY RETURNDATASIZE PUSH1 0x0 REVERT JUMPDEST POP POP POP POP PUSH1 0x40 MLOAD RETURNDATASIZE PUSH1 0x1F NOT PUSH1 0x1F DUP3 ADD AND DUP3 ADD DUP1 PUSH1 0x40 MSTORE POP DUP2 ADD SWAP1 PUSH2 0x3AB SWAP2 SWAP1 PUSH2 0xAE8 JUMP JUMPDEST PUSH1 0x40 MLOAD PUSH4 0x6EB1769F PUSH1 0xE1 SHL DUP2 MSTORE PUSH1 0x1 PUSH1 0x1 PUSH1 0xA0 SHL SUB DUP9 DUP2 AND PUSH1 0x4 DUP4 ADD MSTORE ADDRESS PUSH1 0x24 DUP4 ADD MSTORE SWAP2 SWAP3 POP PUSH1 0x0 SWAP2 DUP5 AND SWAP1 PUSH4 0xDD62ED3E SWAP1 PUSH1 0x44 ADD PUSH1 0x20 PUSH1 0x40 MLOAD DUP1 DUP4 SUB DUP2 DUP7 GAS STATICCALL ISZERO DUP1 ISZERO PUSH2 0x3FD JUMPI RETURNDATASIZE PUSH1 0x0 DUP1 RETURNDATACOPY RETURNDATASIZE PUSH1 0x0 REVERT JUMPDEST POP POP POP POP PUSH1 0x40 MLOAD RETURNDATASIZE PUSH1 0x1F NOT PUSH1 0x1F DUP3 ADD AND DUP3 ADD DUP1 PUSH1 0x40 MSTORE POP DUP2 ADD SWAP1 PUSH2 0x421 SWAP2 SWAP1 PUSH2 0xAE8 JUMP JUMPDEST SWAP1 POP PUSH1 0x0 DUP2 DUP4 LT PUSH2 0x432 JUMPI DUP2 PUSH2 0x434 JUMP JUMPDEST DUP3 JUMPDEST SWAP1 POP DUP6 DUP2 LT PUSH2 0x50C JUMPI PUSH1 0x40 MLOAD PUSH4 0x23B872DD PUSH1 0xE0 SHL DUP2 MSTORE PUSH1 0x1 PUSH1 0x1 PUSH1 0xA0 SHL SUB DUP10 DUP2 AND PUSH1 0x4 DUP4 ADD MSTORE ADDRESS PUSH1 0x24 DUP4 ADD MSTORE PUSH1 0x44 DUP3 ADD DUP9 SWAP1 MSTORE DUP6 AND SWAP1 PUSH4 0x23B872DD SWAP1 PUSH1 0x64 ADD PUSH1 0x0 PUSH1 0x40 MLOAD DUP1 DUP4 SUB DUP2 PUSH1 0x0 DUP8 DUP1 EXTCODESIZE ISZERO DUP1 ISZERO PUSH2 0x48D JUMPI PUSH1 0x0 DUP1 REVERT JUMPDEST POP GAS CALL ISZERO DUP1 ISZERO PUSH2 0x4A1 JUMPI RETURNDATASIZE PUSH1 0x0 DUP1 RETURNDATACOPY RETURNDATASIZE PUSH1 0x0 REVERT JUMPDEST POP POP PUSH1 0x40 MLOAD PUSH4 0xFCB7001 PUSH1 0xE4 SHL DUP2 MSTORE PUSH1 0x1 PUSH1 0x1 PUSH1 0xA0 SHL SUB DUP12 DUP2 AND PUSH1 0x4 DUP4 ADD MSTORE PUSH1 0x24 DUP3 ADD DUP11 SWAP1 MSTORE DUP8 AND SWAP3 POP PUSH4 0xFCB70010 SWAP2 POP PUSH1 0x44 ADD PUSH1 0x0 PUSH1 0x40 MLOAD DUP1 DUP4 SUB DUP2 PUSH1 0x0 DUP8 DUP1 EXTCODESIZE ISZERO DUP1 ISZERO PUSH2 0x4EF JUMPI PUSH1 0x0 DUP1 REVERT JUMPDEST POP GAS CALL ISZERO DUP1 ISZERO PUSH2 0x503 JUMPI RETURNDATASIZE PUSH1 0x0 DUP1 RETURNDATACOPY RETURNDATASIZE PUSH1 0x0 REVERT JUMPDEST POP POP POP POP PUSH1 0x0 SWAP6 POP JUMPDEST POP POP POP JUMPDEST DUP3 PUSH1 0x0 EQ PUSH1 0x40 MLOAD DUP1 PUSH1 0x60 ADD PUSH1 0x40 MSTORE DUP1 PUSH1 0x2C DUP2 MSTORE PUSH1 0x20 ADD PUSH2 0xC4D PUSH1 0x2C SWAP2 CODECOPY SWAP1 PUSH2 0x54B JUMPI PUSH1 0x40 MLOAD PUSH3 0x461BCD PUSH1 0xE5 SHL DUP2 MSTORE PUSH1 0x4 ADD PUSH2 0x215 SWAP2 SWAP1 PUSH2 0xB2D JUMP JUMPDEST POP POP POP POP POP POP POP JUMP JUMPDEST PUSH1 0x0 DUP2 PUSH1 0x1 DUP2 PUSH2 0x56C PUSH8 0xDE0B6B3A7640000 DUP8 PUSH2 0xB8D JUMP JUMPDEST PUSH2 0x576 SWAP2 SWAP1 PUSH2 0xBAC JUMP JUMPDEST PUSH2 0x580 SWAP2 SWAP1 PUSH2 0xB76 JUMP JUMPDEST PUSH2 0x58A SWAP2 SWAP1 PUSH2 0xBC4 JUMP JUMPDEST SWAP4 SWAP3 POP POP POP JUMP JUMPDEST PUSH1 0x40 MLOAD PUSH1 0x1 PUSH1 0x1 PUSH1 0xA0 SHL SUB DUP1 DUP6 AND PUSH1 0x24 DUP4 ADD MSTORE DUP4 AND PUSH1 0x44 DUP3 ADD MSTORE PUSH1 0x64 DUP2 ADD DUP3 SWAP1 MSTORE PUSH2 0x5FC SWAP1 DUP6 SWAP1 PUSH4 0x23B872DD PUSH1 0xE0 SHL SWAP1 PUSH1 0x84 ADD JUMPDEST PUSH1 0x40 DUP1 MLOAD PUSH1 0x1F NOT DUP2 DUP5 SUB ADD DUP2 MSTORE SWAP2 SWAP1 MSTORE PUSH1 0x20 DUP2 ADD DUP1 MLOAD PUSH1 0x1 PUSH1 0x1 PUSH1 0xE0 SHL SUB AND PUSH1 0x1 PUSH1 0x1 PUSH1 0xE0 SHL SUB NOT SWAP1 SWAP4 AND SWAP3 SWAP1 SWAP3 OR SWAP1 SWAP2 MSTORE PUSH2 0x69A JUMP JUMPDEST POP POP POP POP JUMP JUMPDEST PUSH1 0x40 MLOAD PUSH4 0x6EB1769F PUSH1 0xE1 SHL DUP2 MSTORE ADDRESS PUSH1 0x4 DUP3 ADD MSTORE PUSH1 0x1 PUSH1 0x1 PUSH1 0xA0 SHL SUB DUP3 DUP2 AND PUSH1 0x24 DUP4 ADD MSTORE PUSH1 0x0 SWAP2 SWAP1 DUP5 AND SWAP1 PUSH4 0xDD62ED3E SWAP1 PUSH1 0x44 ADD PUSH1 0x20 PUSH1 0x40 MLOAD DUP1 DUP4 SUB DUP2 DUP7 GAS STATICCALL ISZERO DUP1 ISZERO PUSH2 0x652 JUMPI RETURNDATASIZE PUSH1 0x0 DUP1 RETURNDATACOPY RETURNDATASIZE PUSH1 0x0 REVERT JUMPDEST POP POP POP POP PUSH1 0x40 MLOAD RETURNDATASIZE PUSH1 0x1F NOT PUSH1 0x1F DUP3 ADD AND DUP3 ADD DUP1 PUSH1 0x40 MSTORE POP DUP2 ADD SWAP1 PUSH2 0x676 SWAP2 SWAP1 PUSH2 0xAE8 JUMP JUMPDEST GT ISZERO PUSH2 0x680 JUMPI POP POP JUMP JUMPDEST PUSH2 0x696 PUSH1 0x1 PUSH1 0x1 PUSH1 0xA0 SHL SUB DUP4 AND DUP3 PUSH1 0x0 NOT PUSH2 0x771 JUMP JUMPDEST POP POP JUMP JUMPDEST PUSH1 0x0 PUSH2 0x6EF DUP3 PUSH1 0x40 MLOAD DUP1 PUSH1 0x40 ADD PUSH1 0x40 MSTORE DUP1 PUSH1 0x20 DUP2 MSTORE PUSH1 0x20 ADD PUSH32 0x5361666545524332303A206C6F772D6C6576656C2063616C6C206661696C6564 DUP2 MSTORE POP DUP6 PUSH1 0x1 PUSH1 0x1 PUSH1 0xA0 SHL SUB AND PUSH2 0x886 SWAP1 SWAP3 SWAP2 SWAP1 PUSH4 0xFFFFFFFF AND JUMP JUMPDEST DUP1 MLOAD SWAP1 SWAP2 POP ISZERO PUSH2 0x76C JUMPI DUP1 DUP1 PUSH1 0x20 ADD SWAP1 MLOAD DUP2 ADD SWAP1 PUSH2 0x70D SWAP2 SWAP1 PUSH2 0xBE6 JUMP JUMPDEST PUSH2 0x76C JUMPI PUSH1 0x40 MLOAD PUSH3 0x461BCD PUSH1 0xE5 SHL DUP2 MSTORE PUSH1 0x20 PUSH1 0x4 DUP3 ADD MSTORE PUSH1 0x2A PUSH1 0x24 DUP3 ADD MSTORE PUSH32 0x5361666545524332303A204552433230206F7065726174696F6E20646964206E PUSH1 0x44 DUP3 ADD MSTORE PUSH10 0x1BDD081CDD58D8D95959 PUSH1 0xB2 SHL PUSH1 0x64 DUP3 ADD MSTORE PUSH1 0x84 ADD PUSH2 0x215 JUMP JUMPDEST POP POP POP JUMP JUMPDEST DUP1 ISZERO DUP1 PUSH2 0x7EB JUMPI POP PUSH1 0x40 MLOAD PUSH4 0x6EB1769F PUSH1 0xE1 SHL DUP2 MSTORE ADDRESS PUSH1 0x4 DUP3 ADD MSTORE PUSH1 0x1 PUSH1 0x1 PUSH1 0xA0 SHL SUB DUP4 DUP2 AND PUSH1 0x24 DUP4 ADD MSTORE DUP5 AND SWAP1 PUSH4 0xDD62ED3E SWAP1 PUSH1 0x44 ADD PUSH1 0x20 PUSH1 0x40 MLOAD DUP1 DUP4 SUB DUP2 DUP7 GAS STATICCALL ISZERO DUP1 ISZERO PUSH2 0x7C5 JUMPI RETURNDATASIZE PUSH1 0x0 DUP1 RETURNDATACOPY RETURNDATASIZE PUSH1 0x0 REVERT JUMPDEST POP POP POP POP PUSH1 0x40 MLOAD RETURNDATASIZE PUSH1 0x1F NOT PUSH1 0x1F DUP3 ADD AND DUP3 ADD DUP1 PUSH1 0x40 MSTORE POP DUP2 ADD SWAP1 PUSH2 0x7E9 SWAP2 SWAP1 PUSH2 0xAE8 JUMP JUMPDEST ISZERO JUMPDEST PUSH2 0x856 JUMPI PUSH1 0x40 MLOAD PUSH3 0x461BCD PUSH1 0xE5 SHL DUP2 MSTORE PUSH1 0x20 PUSH1 0x4 DUP3 ADD MSTORE PUSH1 0x36 PUSH1 0x24 DUP3 ADD MSTORE PUSH32 0x5361666545524332303A20617070726F76652066726F6D206E6F6E2D7A65726F PUSH1 0x44 DUP3 ADD MSTORE PUSH22 0x20746F206E6F6E2D7A65726F20616C6C6F77616E6365 PUSH1 0x50 SHL PUSH1 0x64 DUP3 ADD MSTORE PUSH1 0x84 ADD PUSH2 0x215 JUMP JUMPDEST PUSH1 0x40 MLOAD PUSH1 0x1 PUSH1 0x1 PUSH1 0xA0 SHL SUB DUP4 AND PUSH1 0x24 DUP3 ADD MSTORE PUSH1 0x44 DUP2 ADD DUP3 SWAP1 MSTORE PUSH2 0x76C SWAP1 DUP5 SWAP1 PUSH4 0x95EA7B3 PUSH1 0xE0 SHL SWAP1 PUSH1 0x64 ADD PUSH2 0x5C5 JUMP JUMPDEST PUSH1 0x60 PUSH2 0x895 DUP5 DUP5 PUSH1 0x0 DUP6 PUSH2 0x89D JUMP JUMPDEST SWAP5 SWAP4 POP POP POP POP JUMP JUMPDEST PUSH1 0x60 DUP3 SELFBALANCE LT ISZERO PUSH2 0x8FE JUMPI PUSH1 0x40 MLOAD PUSH3 0x461BCD PUSH1 0xE5 SHL DUP2 MSTORE PUSH1 0x20 PUSH1 0x4 DUP3 ADD MSTORE PUSH1 0x26 PUSH1 0x24 DUP3 ADD MSTORE PUSH32 0x416464726573733A20696E73756666696369656E742062616C616E636520666F PUSH1 0x44 DUP3 ADD MSTORE PUSH6 0x1C8818D85B1B PUSH1 0xD2 SHL PUSH1 0x64 DUP3 ADD MSTORE PUSH1 0x84 ADD PUSH2 0x215 JUMP JUMPDEST PUSH1 0x1 PUSH1 0x1 PUSH1 0xA0 SHL SUB DUP6 AND EXTCODESIZE PUSH2 0x955 JUMPI PUSH1 0x40 MLOAD PUSH3 0x461BCD PUSH1 0xE5 SHL DUP2 MSTORE PUSH1 0x20 PUSH1 0x4 DUP3 ADD MSTORE PUSH1 0x1D PUSH1 0x24 DUP3 ADD MSTORE PUSH32 0x416464726573733A2063616C6C20746F206E6F6E2D636F6E7472616374000000 PUSH1 0x44 DUP3 ADD MSTORE PUSH1 0x64 ADD PUSH2 0x215 JUMP JUMPDEST PUSH1 0x0 DUP1 DUP7 PUSH1 0x1 PUSH1 0x1 PUSH1 0xA0 SHL SUB AND DUP6 DUP8 PUSH1 0x40 MLOAD PUSH2 0x971 SWAP2 SWAP1 PUSH2 0xC08 JUMP JUMPDEST PUSH1 0x0 PUSH1 0x40 MLOAD DUP1 DUP4 SUB DUP2 DUP6 DUP8 GAS CALL SWAP3 POP POP POP RETURNDATASIZE DUP1 PUSH1 0x0 DUP2 EQ PUSH2 0x9AE JUMPI PUSH1 0x40 MLOAD SWAP2 POP PUSH1 0x1F NOT PUSH1 0x3F RETURNDATASIZE ADD AND DUP3 ADD PUSH1 0x40 MSTORE RETURNDATASIZE DUP3 MSTORE RETURNDATASIZE PUSH1 0x0 PUSH1 0x20 DUP5 ADD RETURNDATACOPY PUSH2 0x9B3 JUMP JUMPDEST PUSH1 0x60 SWAP2 POP JUMPDEST POP SWAP2 POP SWAP2 POP PUSH2 0x9C3 DUP3 DUP3 DUP7 PUSH2 0x9CE JUMP JUMPDEST SWAP8 SWAP7 POP POP POP POP POP POP POP JUMP JUMPDEST PUSH1 0x60 DUP4 ISZERO PUSH2 0x9DD JUMPI POP DUP2 PUSH2 0x58A JUMP JUMPDEST DUP3 MLOAD ISZERO PUSH2 0x9ED JUMPI DUP3 MLOAD DUP1 DUP5 PUSH1 0x20 ADD REVERT JUMPDEST DUP2 PUSH1 0x40 MLOAD PUSH3 0x461BCD PUSH1 0xE5 SHL DUP2 MSTORE PUSH1 0x4 ADD PUSH2 0x215 SWAP2 SWAP1 PUSH2 0xB2D JUMP JUMPDEST PUSH1 0x1 PUSH1 0x1 PUSH1 0xA0 SHL SUB DUP2 AND DUP2 EQ PUSH2 0xA1C JUMPI PUSH1 0x0 DUP1 REVERT JUMPDEST POP JUMP JUMPDEST PUSH1 0x0 DUP1 PUSH1 0x0 DUP1 PUSH1 0x80 DUP6 DUP8 SUB SLT ISZERO PUSH2 0xA35 JUMPI PUSH1 0x0 DUP1 REVERT JUMPDEST DUP5 CALLDATALOAD PUSH2 0xA40 DUP2 PUSH2 0xA07 JUMP JUMPDEST SWAP4 POP PUSH1 0x20 DUP6 ADD CALLDATALOAD PUSH2 0xA50 DUP2 PUSH2 0xA07 JUMP JUMPDEST SWAP3 POP PUSH1 0x40 DUP6 ADD CALLDATALOAD PUSH2 0xA60 DUP2 PUSH2 0xA07 JUMP JUMPDEST SWAP4 SWAP7 SWAP3 SWAP6 POP SWAP3 SWAP4 PUSH1 0x60 ADD CALLDATALOAD SWAP3 POP POP JUMP JUMPDEST PUSH1 0x0 DUP1 PUSH1 0x0 DUP1 PUSH1 0x0 PUSH1 0xA0 DUP7 DUP9 SUB SLT ISZERO PUSH2 0xA88 JUMPI PUSH1 0x0 DUP1 REVERT JUMPDEST DUP6 CALLDATALOAD PUSH2 0xA93 DUP2 PUSH2 0xA07 JUMP JUMPDEST SWAP5 POP PUSH1 0x20 DUP7 ADD CALLDATALOAD PUSH2 0xAA3 DUP2 PUSH2 0xA07 JUMP JUMPDEST SWAP4 POP PUSH1 0x40 DUP7 ADD CALLDATALOAD PUSH2 0xAB3 DUP2 PUSH2 0xA07 JUMP JUMPDEST SWAP5 SWAP8 SWAP4 SWAP7 POP SWAP4 SWAP5 PUSH1 0x60 DUP2 ADD CALLDATALOAD SWAP5 POP PUSH1 0x80 ADD CALLDATALOAD SWAP3 SWAP2 POP POP JUMP JUMPDEST PUSH1 0x0 PUSH1 0x20 DUP3 DUP5 SUB SLT ISZERO PUSH2 0xADD JUMPI PUSH1 0x0 DUP1 REVERT JUMPDEST DUP2 MLOAD PUSH2 0x58A DUP2 PUSH2 0xA07 JUMP JUMPDEST PUSH1 0x0 PUSH1 0x20 DUP3 DUP5 SUB SLT ISZERO PUSH2 0xAFA JUMPI PUSH1 0x0 DUP1 REVERT JUMPDEST POP MLOAD SWAP2 SWAP1 POP JUMP JUMPDEST PUSH1 0x0 JUMPDEST DUP4 DUP2 LT ISZERO PUSH2 0xB1C JUMPI DUP2 DUP2 ADD MLOAD DUP4 DUP3 ADD MSTORE PUSH1 0x20 ADD PUSH2 0xB04 JUMP JUMPDEST DUP4 DUP2 GT ISZERO PUSH2 0x5FC JUMPI POP POP PUSH1 0x0 SWAP2 ADD MSTORE JUMP JUMPDEST PUSH1 0x20 DUP2 MSTORE PUSH1 0x0 DUP3 MLOAD DUP1 PUSH1 0x20 DUP5 ADD MSTORE PUSH2 0xB4C DUP2 PUSH1 0x40 DUP6 ADD PUSH1 0x20 DUP8 ADD PUSH2 0xB01 JUMP JUMPDEST PUSH1 0x1F ADD PUSH1 0x1F NOT AND SWAP2 SWAP1 SWAP2 ADD PUSH1 0x40 ADD SWAP3 SWAP2 POP POP JUMP JUMPDEST PUSH4 0x4E487B71 PUSH1 0xE0 SHL PUSH1 0x0 MSTORE PUSH1 0x11 PUSH1 0x4 MSTORE PUSH1 0x24 PUSH1 0x0 REVERT JUMPDEST PUSH1 0x0 DUP3 DUP3 LT ISZERO PUSH2 0xB88 JUMPI PUSH2 0xB88 PUSH2 0xB60 JUMP JUMPDEST POP SUB SWAP1 JUMP JUMPDEST PUSH1 0x0 DUP2 PUSH1 0x0 NOT DIV DUP4 GT DUP3 ISZERO ISZERO AND ISZERO PUSH2 0xBA7 JUMPI PUSH2 0xBA7 PUSH2 0xB60 JUMP JUMPDEST POP MUL SWAP1 JUMP JUMPDEST PUSH1 0x0 DUP3 NOT DUP3 GT ISZERO PUSH2 0xBBF JUMPI PUSH2 0xBBF PUSH2 0xB60 JUMP JUMPDEST POP ADD SWAP1 JUMP JUMPDEST PUSH1 0x0 DUP3 PUSH2 0xBE1 JUMPI PUSH4 0x4E487B71 PUSH1 0xE0 SHL PUSH1 0x0 MSTORE PUSH1 0x12 PUSH1 0x4 MSTORE PUSH1 0x24 PUSH1 0x0 REVERT JUMPDEST POP DIV SWAP1 JUMP JUMPDEST PUSH1 0x0 PUSH1 0x20 DUP3 DUP5 SUB SLT ISZERO PUSH2 0xBF8 JUMPI PUSH1 0x0 DUP1 REVERT JUMPDEST DUP2 MLOAD DUP1 ISZERO ISZERO DUP2 EQ PUSH2 0x58A JUMPI PUSH1 0x0 DUP1 REVERT JUMPDEST PUSH1 0x0 DUP3 MLOAD PUSH2 0xC1A DUP2 DUP5 PUSH1 0x20 DUP8 ADD PUSH2 0xB01 JUMP JUMPDEST SWAP2 SWAP1 SWAP2 ADD SWAP3 SWAP2 POP POP JUMP INVALID PUSH21 0x6F6B656E206E6F7420757361626C6520666F722074 PUSH9 0x652073706563696669 PUSH4 0x20616374 PUSH10 0x6F6E696E737566666963 PUSH10 0x656E742066756E647320 PUSH7 0x6F722075706461 PUSH21 0x696E672074686520706F736974696F6EA264697066 PUSH20 0x58221220E059AC1EDE632004A7785DA8343317C5 0xD9 CODESIZE PUSH19 0x76927C39873721F8CEF5F7AC3864736F6C6343 STOP ADDMOD EXP STOP CALLER ","sha1":"91b9d50bfe2eb0dd2a0c5cfeac8b02fd0a5a3846","source":"// SPDX-License-Identifier: GPL-3.0-or-later\npragma solidity 0.8.10;\n\nimport \"@openzeppelin/contracts/token/ERC20/utils/SafeERC20.sol\";\nimport \"@openzeppelin/contracts-upgradeable/proxy/utils/Initializable.sol\";\nimport \"@openzeppelin/contracts/token/ERC20/IERC20.sol\";\nimport \"@openzeppelin/contracts/utils/structs/EnumerableSet.sol\";\nimport \"@openzeppelin/contracts/utils/math/SafeCast.sol\";\n\nimport \"../BaseAction.sol\";\n\nimport \"../../../interfaces/IGasBank.sol\";\nimport \"../../../interfaces/pool/ILiquidityPool.sol\";\nimport \"../../../interfaces/IController.sol\";\nimport \"../../../interfaces/IStakerVault.sol\";\nimport \"../../../interfaces/actions/topup/ITopUpHandler.sol\";\nimport \"../../../interfaces/actions/topup/ITopUpAction.sol\";\nimport \"../../../interfaces/actions/IActionFeeHandler.sol\";\n\nimport \"../../../libraries/AddressProviderHelpers.sol\";\nimport \"../../../libraries/Errors.sol\";\nimport \"../../../libraries/ScaledMath.sol\";\nimport \"../../../libraries/EnumerableExtensions.sol\";\nimport \"../../../libraries/UncheckedMath.sol\";\n\n/**\n * @notice The logic here should really be part of the top-up action\n * but is split in a library to circumvent the byte-code size limit\n */\nlibrary TopUpActionLibrary {\n    using SafeERC20 for IERC20;\n    using ScaledMath for uint256;\n    using AddressProviderHelpers for IAddressProvider;\n\n    /**\n     * @dev \"Locks\" an amount of tokens on behalf of the TopUpAction\n     * Funds are taken from staker vault if allowance is sufficient, else direct transfer or a combination of both.\n     * @param stakerVaultAddress The address of the staker vault\n     * @param payer Owner of the funds to be locked\n     * @param token Token to lock\n     * @param lockAmount Minimum amount of `token` to lock\n     * @param depositAmount Amount of `token` that was deposited.\n     *                      If this is 0 then the staker vault allowance should be used.\n     *                      If this is greater than `requiredAmount` more tokens will be locked.\n     */\n    function lockFunds(\n        address stakerVaultAddress,\n        address payer,\n        address token,\n        uint256 lockAmount,\n        uint256 depositAmount\n    ) external {\n        IStakerVault stakerVault = IStakerVault(stakerVaultAddress);\n\n        // stake deposit amount\n        if (depositAmount > 0) {\n            depositAmount = depositAmount > lockAmount ? lockAmount : depositAmount;\n            IERC20(token).safeTransferFrom(payer, address(this), depositAmount);\n            _approve(token, stakerVaultAddress);\n            stakerVault.stake(depositAmount);\n            stakerVault.increaseActionLockedBalance(payer, depositAmount);\n            lockAmount -= depositAmount;\n        }\n\n        // use stake vault allowance if available and required\n        if (lockAmount > 0) {\n            uint256 balance = stakerVault.balanceOf(payer);\n            uint256 allowance = stakerVault.allowance(payer, address(this));\n            uint256 availableFunds = balance < allowance ? balance : allowance;\n            if (availableFunds >= lockAmount) {\n                stakerVault.transferFrom(payer, address(this), lockAmount);\n                stakerVault.increaseActionLockedBalance(payer, lockAmount);\n                lockAmount = 0;\n            }\n        }\n\n        require(lockAmount == 0, Error.INSUFFICIENT_UPDATE_BALANCE);\n    }\n\n    /**\n     * @dev Computes and returns the amount of LP tokens of type `token` that will be received in exchange for an `amount` of the underlying.\n     */\n    function calcExchangeAmount(\n        IAddressProvider addressProvider,\n        address token,\n        address actionToken,\n        uint256 amount\n    ) external view returns (uint256) {\n        ILiquidityPool pool = addressProvider.getPoolForToken(token);\n        uint256 rate = pool.exchangeRate();\n        address underlying = pool.getUnderlying();\n        require(underlying == actionToken, Error.TOKEN_NOT_USABLE);\n        return amount.scaledDivRoundUp(rate);\n    }\n\n    /**\n     * @dev Approves infinite spending for the given spender.\n     * @param token The token to approve for.\n     * @param spender The spender to approve.\n     */\n    function _approve(address token, address spender) private {\n        if (IERC20(token).allowance(address(this), spender) > 0) return;\n        IERC20(token).safeApprove(spender, type(uint256).max);\n    }\n}\n\ncontract TopUpAction is ITopUpAction, Initializable, BaseAction {\n    using ScaledMath for uint256;\n    using UncheckedMath for uint256;\n    using ScaledMath for uint128;\n    using SafeERC20 for IERC20;\n    using EnumerableSet for EnumerableSet.AddressSet;\n    using EnumerableSet for EnumerableSet.Bytes32Set;\n    using EnumerableExtensions for EnumerableSet.AddressSet;\n    using AddressProviderHelpers for IAddressProvider;\n    using SafeCast for uint256;\n\n    /**\n     * @dev Temporary struct to hold local variables in execute\n     * and avoid the stack being \"too deep\"\n     */\n    struct ExecuteLocalVars {\n        uint256 minActionAmountToTopUp;\n        uint256 actionTokenAmount;\n        uint256 depositTotalFeesAmount;\n        uint256 actionAmountWithFees;\n        uint256 userFactor;\n        uint256 rate;\n        uint256 depositAmountWithFees;\n        uint256 depositAmountWithoutFees;\n        uint256 actionFee;\n        uint256 totalActionTokenAmount;\n        uint128 totalTopUpAmount;\n        bool topupResult;\n        uint256 gasBankBalance;\n        uint256 initialGas;\n        uint256 gasConsumed;\n        uint256 userGasPrice;\n        uint256 estimatedRequiredGas;\n        uint256 estimatedRequiredWeiForGas;\n        uint256 requiredWeiForGas;\n        uint256 reimbursedWeiForGas;\n        address underlying;\n        bool removePosition;\n        address topUpHandler;\n    }\n\n    mapping(bytes32 => address) public topUpHandlers;\n    uint256 internal constant _MAX_ACTION_FEE = 0.5e18;\n    uint256 internal constant _MIN_MAX_FEE = 2e9;\n\n    IController public immutable controller;\n    IAddressProvider public immutable addressProvider;\n\n    EnumerableSet.Bytes32Set internal _supportedProtocols;\n\n    /// @notice mapping of (payer -> account -> protocol -> Record)\n    mapping(address => mapping(bytes32 => mapping(bytes32 => Record))) private _positions;\n\n    mapping(address => RecordMeta[]) internal _userPositions;\n\n    EnumerableSet.AddressSet internal _usersWithPositions;\n\n    uint256 public actionFee;\n    address public feeHandler;\n    uint256 public estimatedGasUsage = 550_000;\n\n    event TopUpHandlerUpdated(bytes32 protocol, address newHandler);\n    event ActionFeeUpdated(uint256 actionFee);\n    event FeeHandlerUpdated(address feeHandler);\n    event EstimatedGasUsageUpdated(uint256 estimatedGasUsage);\n\n    constructor(IController _controller)\n        Authorization(_controller.addressProvider().getRoleManager())\n    {\n        controller = _controller;\n        addressProvider = controller.addressProvider();\n    }\n\n    receive() external payable {\n        // solhint-disable-previous-line no-empty-blocks\n    }\n\n    function initialize(\n        address feeHandler_,\n        bytes32[] calldata protocols_,\n        address[] calldata handlers_\n    ) external initializer onlyGovernance {\n        require(protocols_.length == handlers_.length, Error.INVALID_ARGUMENT);\n        feeHandler = feeHandler_;\n        for (uint256 i; i < protocols_.length; i = i.uncheckedInc()) {\n            _updateTopUpHandler(protocols_[i], address(0), handlers_[i]);\n        }\n    }\n\n    /**\n     * @notice Register a top up action.\n     * @dev The `depositAmount`, once converted to units of `actionToken`, must be greater or equal to the `totalTopUpAmount` (which is denominated in `actionToken`).\n     * @param account Account to be topped up (first 20 bytes will typically be the address).\n     * @param protocol Protocol which holds position to be topped up.\n     * @param depositAmount Amount of `depositToken` that will be locked.\n     * @param record containing the data for the position to register\n     */\n    function register(\n        bytes32 account,\n        bytes32 protocol,\n        uint128 depositAmount,\n        Record memory record\n    ) external payable override notShutdown notPaused {\n        require(record.maxFee >= _MIN_MAX_FEE, Error.INVALID_MAX_FEE);\n        require(_supportedProtocols.contains(protocol), Error.PROTOCOL_NOT_FOUND);\n        require(record.singleTopUpAmount > 0, Error.INVALID_AMOUNT);\n        require(record.threshold > ScaledMath.ONE, Error.INVALID_AMOUNT);\n        require(record.singleTopUpAmount <= record.totalTopUpAmount, Error.INVALID_AMOUNT);\n        require(\n            _positions[msg.sender][account][protocol].threshold == 0,\n            Error.POSITION_ALREADY_EXISTS\n        );\n        require(_isSwappable(record.depositToken, record.actionToken), Error.SWAP_PATH_NOT_FOUND);\n        require(isUsable(record.depositToken), Error.TOKEN_NOT_USABLE);\n\n        uint256 gasDeposit = (record.totalTopUpAmount.divRoundUp(record.singleTopUpAmount)) *\n            record.maxFee *\n            estimatedGasUsage;\n\n        require(msg.value >= gasDeposit, Error.VALUE_TOO_LOW_FOR_GAS);\n\n        uint256 totalLockAmount = _calcExchangeAmount(\n            record.depositToken,\n            record.actionToken,\n            record.totalTopUpAmount\n        );\n        _lockFunds(msg.sender, record.depositToken, totalLockAmount, depositAmount);\n\n        addressProvider.getGasBank().depositFor{value: msg.value}(msg.sender);\n\n        record.registeredAt = uint64(block.timestamp);\n        record.depositTokenBalance = totalLockAmount.toUint128();\n        _positions[msg.sender][account][protocol] = record;\n        _userPositions[msg.sender].push(RecordMeta(account, protocol));\n        _usersWithPositions.add(msg.sender);\n\n        emit Register(\n            account,\n            protocol,\n            record.threshold,\n            msg.sender,\n            record.depositToken,\n            totalLockAmount,\n            record.actionToken,\n            record.singleTopUpAmount,\n            record.totalTopUpAmount,\n            record.maxFee,\n            record.extra\n        );\n    }\n\n    /**\n     * @notice See overloaded version of `execute` for more details.\n     */\n    function execute(\n        address payer,\n        bytes32 account,\n        address beneficiary,\n        bytes32 protocol\n    ) external override notShutdown notPaused {\n        execute(payer, account, beneficiary, protocol, 0);\n    }\n\n    /**\n     * @notice Delete a position to back on the given protocol for `account`.\n     * @param account Account holding the position.\n     * @param protocol Protocol the position is held on.\n     * @param unstake If the tokens should be unstaked from vault.\n     */\n    function resetPosition(\n        bytes32 account,\n        bytes32 protocol,\n        bool unstake\n    ) external override {\n        address payer = msg.sender;\n        Record memory position = _positions[payer][account][protocol];\n        require(position.threshold != 0, Error.NO_POSITION_EXISTS);\n\n        IAddressProvider addressProvider_ = addressProvider;\n        address vault = addressProvider_.getStakerVault(position.depositToken); // will revert if vault does not exist\n        IStakerVault staker = IStakerVault(vault);\n        staker.decreaseActionLockedBalance(payer, position.depositTokenBalance);\n        if (unstake) {\n            staker.unstake(position.depositTokenBalance);\n            IERC20(position.depositToken).safeTransfer(payer, position.depositTokenBalance);\n        } else {\n            staker.transfer(payer, position.depositTokenBalance);\n        }\n\n        _removePosition(payer, account, protocol);\n        addressProvider_.getGasBank().withdrawUnused(payer);\n    }\n\n    /**\n     * @notice Updates the TopUp Handler.\n     * @param protocol Protocol for which a new handler should be executed.\n     * @param newHandler The new TopUp Handler.\n     */\n    function updateTopUpHandler(bytes32 protocol, address newHandler)\n        external\n        override\n        onlyGovernance\n    {\n        address oldHandler = _getHandler(protocol, false);\n        _updateTopUpHandler(protocol, oldHandler, newHandler);\n        emit TopUpHandlerUpdated(protocol, newHandler);\n    }\n\n    /**\n     * @notice Update action fee.\n     * @param actionFee_ New fee to set.\n     */\n    function updateActionFee(uint256 actionFee_) external override onlyGovernance {\n        require(actionFee_ <= _MAX_ACTION_FEE, Error.INVALID_AMOUNT);\n        actionFee = actionFee_;\n        emit ActionFeeUpdated(actionFee_);\n    }\n\n    /**\n     * @notice Update Fee Handler.\n     * @param feeHandler_ New Fee Handler.\n     */\n    function updateFeeHandler(address feeHandler_) external override onlyGovernance {\n        feeHandler = feeHandler_;\n        emit FeeHandlerUpdated(feeHandler_);\n    }\n\n    /**\n     * @notice Update the estimated gas usage.\n     * @param estimatedGasUsage_ New estimated gas usage.\n     */\n    function updateEstimatedGasUsage(uint256 estimatedGasUsage_) external override onlyGovernance {\n        estimatedGasUsage = estimatedGasUsage_;\n        emit EstimatedGasUsageUpdated(estimatedGasUsage_);\n    }\n\n    /**\n     * @notice Computes the total amount of ETH (as wei) required to pay for all\n     * the top-ups assuming the maximum gas price and the current estimated gas\n     * usage of a top-up\n     */\n    function getEthRequiredForGas(address payer) external view override returns (uint256) {\n        uint256 totalEthRequired;\n        RecordMeta[] memory userRecordsMeta = _userPositions[payer];\n        uint256 gasUsagePerCall = estimatedGasUsage;\n        uint256 length = userRecordsMeta.length;\n        for (uint256 i; i < length; i = i.uncheckedInc()) {\n            RecordMeta memory meta = userRecordsMeta[i];\n            Record memory record = _positions[payer][meta.account][meta.protocol];\n            uint256 totalCalls = record.totalTopUpAmount.divRoundUp(record.singleTopUpAmount);\n            totalEthRequired += totalCalls * gasUsagePerCall * record.maxFee;\n        }\n        return totalEthRequired;\n    }\n\n    /**\n     * @notice Returns a list of positions for the given payer\n     */\n    function getUserPositions(address payer) external view override returns (RecordMeta[] memory) {\n        return _userPositions[payer];\n    }\n\n    /**\n     * @notice Get a list supported protocols.\n     * @return List of supported protocols.\n     */\n    function getSupportedProtocols() external view override returns (bytes32[] memory) {\n        uint256 length = _supportedProtocols.length();\n        bytes32[] memory protocols = new bytes32[](length);\n        for (uint256 i; i < length; i = i.uncheckedInc()) {\n            protocols[i] = _supportedProtocols.at(i);\n        }\n        return protocols;\n    }\n\n    /*\n     * @notice Gets a list of users that have an active position.\n     * @dev Uses cursor pagination.\n     * @param cursor The cursor for pagination (should start at 0 for first call).\n     * @param howMany Maximum number of users to return in this pagination request.\n     * @return users List of users that have an active position.\n     * @return nextCursor The cursor to use for the next pagination request.\n     */\n    function usersWithPositions(uint256 cursor, uint256 howMany)\n        external\n        view\n        override\n        returns (address[] memory users, uint256 nextCursor)\n    {\n        uint256 length = _usersWithPositions.length();\n        if (cursor >= length) return (new address[](0), 0);\n        if (howMany >= length - cursor) {\n            howMany = length - cursor;\n        }\n\n        address[] memory usersWithPositions_ = new address[](howMany);\n        for (uint256 i; i < howMany; i = i.uncheckedInc()) {\n            usersWithPositions_[i] = _usersWithPositions.at(i + cursor);\n        }\n\n        return (usersWithPositions_, cursor + howMany);\n    }\n\n    /**\n     * @notice Retrieves the topup handler for the given `protocol`\n     */\n    function getTopUpHandler(bytes32 protocol) external view override returns (address) {\n        return _getHandler(protocol, false);\n    }\n\n    /**\n     * @notice Successfully tops up a position if it's conditions are met.\n     * @dev pool and vault funds are rebalanced after withdrawal for top up\n     * @param payer Account that pays for the top up.\n     * @param account Account owning the position for top up.\n     * @param beneficiary Address of the keeper's wallet for fee accrual.\n     * @param protocol Protocol of the top up position.\n     * @param maxWeiForGas the maximum extra amount of wei that the keeper is willing to pay for the gas\n     */\n    function execute(\n        address payer,\n        bytes32 account,\n        address beneficiary,\n        bytes32 protocol,\n        uint256 maxWeiForGas\n    ) public override notShutdown notPaused {\n        require(controller.canKeeperExecuteAction(msg.sender), Error.NOT_ENOUGH_MERO_STAKED);\n\n        ExecuteLocalVars memory vars;\n\n        vars.initialGas = gasleft();\n\n        Record storage position = _positions[payer][account][protocol];\n        require(position.threshold != 0, Error.NO_POSITION_EXISTS);\n        require(position.totalTopUpAmount > 0, Error.INSUFFICIENT_BALANCE);\n        require(block.timestamp > position.registeredAt, Error.CANNOT_EXECUTE_IN_SAME_BLOCK);\n\n        vars.topUpHandler = _getHandler(protocol, true);\n        vars.userFactor = ITopUpHandler(vars.topUpHandler).getUserFactor(account, position.extra);\n\n        // ensure that the position is actually below its set user factor threshold\n        require(vars.userFactor < position.threshold, Error.INSUFFICIENT_THRESHOLD);\n\n        IAddressProvider addressProvider_ = addressProvider;\n        IGasBank gasBank = addressProvider_.getGasBank();\n\n        // fail early if the user does not have enough funds in the gas bank\n        // to cover the cost of the transaction\n        vars.estimatedRequiredGas = estimatedGasUsage;\n        vars.estimatedRequiredWeiForGas = vars.estimatedRequiredGas * tx.gasprice;\n\n        // compute the gas price that the user will be paying\n        vars.userGasPrice = block.basefee + position.priorityFee;\n        if (vars.userGasPrice > tx.gasprice) vars.userGasPrice = tx.gasprice;\n        if (vars.userGasPrice > position.maxFee) vars.userGasPrice = position.maxFee;\n\n        // ensure the current position allows for the gas to be paid\n        require(\n            vars.estimatedRequiredWeiForGas <=\n                vars.estimatedRequiredGas * vars.userGasPrice + maxWeiForGas,\n            Error.ESTIMATED_GAS_TOO_HIGH\n        );\n\n        vars.gasBankBalance = gasBank.balanceOf(payer);\n        // ensure the user has enough funds in the gas bank to cover the gas\n        require(\n            vars.gasBankBalance + maxWeiForGas >= vars.estimatedRequiredWeiForGas,\n            Error.GAS_BANK_BALANCE_TOO_LOW\n        );\n\n        vars.totalTopUpAmount = position.totalTopUpAmount;\n        vars.actionFee = actionFee;\n        // add top-up fees to top-up amount\n        vars.minActionAmountToTopUp = position.singleTopUpAmount;\n        vars.actionAmountWithFees = vars.minActionAmountToTopUp.scaledMul(\n            ScaledMath.ONE + vars.actionFee\n        );\n\n        // if the amount that we want to top-up (including fees) is higher than\n        // the available topup amount, we lower this down to what is left of the position\n        if (vars.actionAmountWithFees > vars.totalTopUpAmount) {\n            vars.actionAmountWithFees = vars.totalTopUpAmount;\n            vars.minActionAmountToTopUp = vars.actionAmountWithFees.scaledDiv(\n                ScaledMath.ONE + vars.actionFee\n            );\n        }\n        ILiquidityPool pool = addressProvider_.getPoolForToken(position.depositToken);\n        vars.underlying = pool.getUnderlying();\n        vars.rate = pool.exchangeRate();\n\n        // compute the deposit tokens amount with and without fees\n        // we will need to unstake the amount with fees and to\n        // swap the amount without fees into action tokens\n        vars.depositAmountWithFees = vars.actionAmountWithFees.scaledDivRoundUp(vars.rate);\n        if (position.depositTokenBalance < vars.depositAmountWithFees) {\n            vars.depositAmountWithFees = position.depositTokenBalance;\n            vars.minActionAmountToTopUp =\n                (vars.depositAmountWithFees * vars.rate) /\n                (ScaledMath.ONE + vars.actionFee);\n        }\n\n        // compute amount of LP tokens needed to pay for action\n        // rate is expressed in actionToken per depositToken\n        vars.depositAmountWithoutFees = vars.minActionAmountToTopUp.scaledDivRoundUp(vars.rate);\n        vars.depositTotalFeesAmount = vars.depositAmountWithFees - vars.depositAmountWithoutFees;\n\n        // will revert if vault does not exist\n        address vault = addressProvider_.getStakerVault(position.depositToken);\n\n        // unstake deposit tokens including fees\n        IStakerVault(vault).unstake(vars.depositAmountWithFees);\n        IStakerVault(vault).decreaseActionLockedBalance(payer, vars.depositAmountWithFees);\n\n        // swap the amount without the fees\n        // as the fees are paid in deposit token, not in action token\n        vars.actionTokenAmount = pool.redeem(vars.depositAmountWithoutFees);\n\n        // compute how much of action token was actually redeemed and add fees to it\n        // this is to ensure that no funds get locked inside the contract\n        vars.totalActionTokenAmount =\n            vars.actionTokenAmount +\n            vars.depositTotalFeesAmount.scaledMul(vars.rate);\n\n        // at this point, we have exactly `vars.actionTokenAmount`\n        // (at least `position.singleTopUpAmount`) of action token\n        // and exactly `vars.depositTotalFeesAmount` deposit tokens in the contract\n        // solhint-disable-next-line avoid-low-level-calls\n        uint256 value_;\n        if (position.actionToken == address(0)) {\n            value_ = vars.actionTokenAmount;\n        } else {\n            _approve(position.actionToken, vars.topUpHandler);\n        }\n        ITopUpHandler(vars.topUpHandler).topUp{value: value_}(\n            account,\n            position.actionToken,\n            vars.actionTokenAmount,\n            position.extra\n        );\n\n        // totalTopUpAmount is updated to reflect the new \"balance\" of the position\n        if (vars.totalTopUpAmount > vars.totalActionTokenAmount) {\n            position.totalTopUpAmount -= vars.totalActionTokenAmount.toUint128();\n        } else {\n            position.totalTopUpAmount = 0;\n        }\n\n        position.depositTokenBalance -= vars.depositAmountWithFees.toUint128();\n\n        vars.removePosition = position.totalTopUpAmount == 0 || position.depositTokenBalance == 0;\n        _payFees(payer, beneficiary, vars.depositTotalFeesAmount, position.depositToken);\n        if (vars.removePosition) {\n            if (position.depositTokenBalance > 0) {\n                // transfer any unused locked tokens to the payer\n                IStakerVault(vault).transfer(payer, position.depositTokenBalance);\n                IStakerVault(vault).decreaseActionLockedBalance(\n                    payer,\n                    position.depositTokenBalance\n                );\n            }\n            _removePosition(payer, account, protocol);\n        }\n\n        emit TopUp(\n            account,\n            protocol,\n            payer,\n            position.depositToken,\n            vars.depositAmountWithFees,\n            position.actionToken,\n            vars.actionTokenAmount\n        );\n\n        // compute gas used and reimburse the keeper by using the\n        // funds of payer in the gas bank\n        // TODO: add constant gas consumed for transfer and tx prologue\n        vars.gasConsumed = vars.initialGas - gasleft();\n\n        vars.reimbursedWeiForGas = vars.userGasPrice * vars.gasConsumed;\n        if (vars.reimbursedWeiForGas > vars.gasBankBalance) {\n            vars.reimbursedWeiForGas = vars.gasBankBalance;\n        }\n\n        // ensure that the keeper is not overpaying\n        vars.requiredWeiForGas = tx.gasprice * vars.gasConsumed;\n        require(\n            vars.reimbursedWeiForGas + maxWeiForGas >= vars.requiredWeiForGas,\n            Error.GAS_TOO_HIGH\n        );\n        gasBank.withdrawFrom(payer, payable(msg.sender), vars.reimbursedWeiForGas);\n        if (vars.removePosition) {\n            gasBank.withdrawUnused(payer);\n        }\n    }\n\n    /**\n     * @notice Check if action can be executed.\n     * @param protocol for which to get the health factor\n     * @param account for which to get the health factor\n     * @param extra data to be used by the topup handler\n     * @return healthFactor of the position\n     */\n    function getHealthFactor(\n        bytes32 protocol,\n        bytes32 account,\n        bytes calldata extra\n    ) public view override returns (uint256 healthFactor) {\n        ITopUpHandler topUpHandler_ = ITopUpHandler(_getHandler(protocol, true));\n        return topUpHandler_.getUserFactor(account, extra);\n    }\n\n    function getHandler(bytes32 protocol) public view override returns (address) {\n        return _getHandler(protocol, false);\n    }\n\n    /**\n     * @notice Get the record for a position.\n     * @param payer Registered payer of the position.\n     * @param account Address holding the position.\n     * @param protocol Protocol where the position is held.\n     */\n    function getPosition(\n        address payer,\n        bytes32 account,\n        bytes32 protocol\n    ) public view override returns (Record memory) {\n        return _positions[payer][account][protocol];\n    }\n\n    function _updateTopUpHandler(\n        bytes32 protocol,\n        address oldHandler,\n        address newHandler\n    ) internal {\n        topUpHandlers[protocol] = newHandler;\n        if (newHandler == address(0)) {\n            _supportedProtocols.remove(protocol);\n        } else if (oldHandler == address(0)) {\n            _supportedProtocols.add(protocol);\n        }\n    }\n\n    /**\n     * @dev Pays fees to the feeHandler\n     * @param payer The account who's position the fees are charged on\n     * @param beneficiary The beneficiary of the fees paid (usually this will be the keeper)\n     * @param feeAmount The amount in tokens to pay as fees\n     * @param depositToken The LpToken used to pay the fees\n     */\n    function _payFees(\n        address payer,\n        address beneficiary,\n        uint256 feeAmount,\n        address depositToken\n    ) internal {\n        address feeHandler_ = feeHandler;\n        IERC20(depositToken).safeApprove(feeHandler_, feeAmount);\n        IActionFeeHandler(feeHandler_).payFees(payer, beneficiary, feeAmount, depositToken);\n    }\n\n    /**\n     * @dev \"Locks\" an amount of tokens on behalf of the TopUpAction\n     * Funds are taken from staker vault if allowance is sufficient, else direct transfer or a combination of both.\n     * @param payer Owner of the funds to be locked\n     * @param token Token to lock\n     * @param lockAmount Minimum amount of `token` to lock\n     * @param depositAmount Amount of `token` that was deposited.\n     *                      If this is 0 then the staker vault allowance should be used.\n     *                      If this is greater than `requiredAmount` more tokens will be locked.\n     */\n    function _lockFunds(\n        address payer,\n        address token,\n        uint256 lockAmount,\n        uint256 depositAmount\n    ) internal {\n        address stakerVaultAddress = addressProvider.getStakerVault(token);\n        TopUpActionLibrary.lockFunds(stakerVaultAddress, payer, token, lockAmount, depositAmount);\n    }\n\n    function _removePosition(\n        address payer,\n        bytes32 account,\n        bytes32 protocol\n    ) internal {\n        delete _positions[payer][account][protocol];\n        _removeUserPosition(payer, account, protocol);\n        if (_userPositions[payer].length == 0) {\n            _usersWithPositions.remove(payer);\n        }\n        emit Deregister(payer, account, protocol);\n    }\n\n    function _removeUserPosition(\n        address payer,\n        bytes32 account,\n        bytes32 protocol\n    ) internal {\n        RecordMeta[] storage positionsMeta = _userPositions[payer];\n        uint256 length = positionsMeta.length;\n        for (uint256 i; i < length; i = i.uncheckedInc()) {\n            RecordMeta storage positionMeta = positionsMeta[i];\n            if (positionMeta.account == account && positionMeta.protocol == protocol) {\n                positionsMeta[i] = positionsMeta[length - 1];\n                positionsMeta.pop();\n                return;\n            }\n        }\n    }\n\n    /**\n     * @dev Approves infinite spending for the given spender.\n     * @param token The token to approve for.\n     * @param spender The spender to approve.\n     */\n    function _approve(address token, address spender) internal {\n        if (IERC20(token).allowance(address(this), spender) > 0) return;\n        IERC20(token).safeApprove(spender, type(uint256).max);\n    }\n\n    /**\n     * @dev Computes and returns the amount of LP tokens of type `token` that will be received in exchange for an `amount` of the `actionToken`.\n     */\n    function _calcExchangeAmount(\n        address token,\n        address actionToken,\n        uint256 amount\n    ) internal view returns (uint256) {\n        return TopUpActionLibrary.calcExchangeAmount(addressProvider, token, actionToken, amount);\n    }\n\n    function _getHandler(bytes32 protocol, bool ensureExists) internal view returns (address) {\n        address handler = topUpHandlers[protocol];\n        require(!ensureExists || handler != address(0), Error.PROTOCOL_NOT_FOUND);\n        return handler;\n    }\n\n    function _isSwappable(address depositToken, address toToken) internal view returns (bool) {\n        ILiquidityPool pool = addressProvider.getPoolForToken(depositToken);\n        return pool.getUnderlying() == toToken;\n    }\n}\n","sourcePath":"contracts/actions/topup/TopUpAction.sol","type":"library","deployment":{"address":"0xfAfB627C82E840e57959B52cCc9CcF3F9cAc8A87","chainid":"42","blockHeight":33231628}}