{"abi":[{"inputs":[{"internalType":"contract IController","name":"_controller","type":"address"}],"stateMutability":"nonpayable","type":"constructor","name":"constructor"},{"anonymous":false,"inputs":[{"indexed":false,"internalType":"uint256","name":"actionFee","type":"uint256"}],"name":"ActionFeeUpdated","type":"event"},{"anonymous":false,"inputs":[{"indexed":true,"internalType":"address","name":"payer","type":"address"},{"indexed":true,"internalType":"bytes32","name":"account","type":"bytes32"},{"indexed":true,"internalType":"bytes32","name":"protocol","type":"bytes32"}],"name":"Deregister","type":"event"},{"anonymous":false,"inputs":[{"indexed":false,"internalType":"uint256","name":"estimatedGasUsage","type":"uint256"}],"name":"EstimatedGasUsageUpdated","type":"event"},{"anonymous":false,"inputs":[{"indexed":false,"internalType":"address","name":"feeHandler","type":"address"}],"name":"FeeHandlerUpdated","type":"event"},{"anonymous":false,"inputs":[],"name":"Paused","type":"event"},{"anonymous":false,"inputs":[{"indexed":true,"internalType":"bytes32","name":"account","type":"bytes32"},{"indexed":true,"internalType":"bytes32","name":"protocol","type":"bytes32"},{"indexed":true,"internalType":"uint256","name":"threshold","type":"uint256"},{"indexed":false,"internalType":"address","name":"payer","type":"address"},{"indexed":false,"internalType":"address","name":"depositToken","type":"address"},{"indexed":false,"internalType":"uint256","name":"depositAmount","type":"uint256"},{"indexed":false,"internalType":"address","name":"actionToken","type":"address"},{"indexed":false,"internalType":"uint256","name":"singleTopUpAmount","type":"uint256"},{"indexed":false,"internalType":"uint256","name":"totalTopUpAmount","type":"uint256"},{"indexed":false,"internalType":"uint256","name":"maxGasPrice","type":"uint256"},{"indexed":false,"internalType":"bytes","name":"extra","type":"bytes"}],"name":"Register","type":"event"},{"anonymous":false,"inputs":[],"name":"Shutdown","type":"event"},{"anonymous":false,"inputs":[{"indexed":true,"internalType":"bytes32","name":"account","type":"bytes32"},{"indexed":true,"internalType":"bytes32","name":"protocol","type":"bytes32"},{"indexed":true,"internalType":"address","name":"payer","type":"address"},{"indexed":false,"internalType":"address","name":"depositToken","type":"address"},{"indexed":false,"internalType":"uint256","name":"consumedDepositAmount","type":"uint256"},{"indexed":false,"internalType":"address","name":"actionToken","type":"address"},{"indexed":false,"internalType":"uint256","name":"topupAmount","type":"uint256"}],"name":"TopUp","type":"event"},{"anonymous":false,"inputs":[{"indexed":false,"internalType":"bytes32","name":"protocol","type":"bytes32"},{"indexed":false,"internalType":"address","name":"newHandler","type":"address"}],"name":"TopUpHandlerUpdated","type":"event"},{"anonymous":false,"inputs":[],"name":"Unpaused","type":"event"},{"anonymous":false,"inputs":[{"indexed":false,"internalType":"address","name":"token","type":"address"}],"name":"UsableTokenAdded","type":"event"},{"anonymous":false,"inputs":[{"indexed":false,"internalType":"address","name":"token","type":"address"}],"name":"UsableTokenRemoved","type":"event"},{"inputs":[],"name":"actionFee","outputs":[{"internalType":"uint256","name":"","type":"uint256"}],"stateMutability":"view","type":"function"},{"inputs":[{"internalType":"address","name":"token","type":"address"}],"name":"addUsableToken","outputs":[],"stateMutability":"nonpayable","type":"function"},{"inputs":[],"name":"addressProvider","outputs":[{"internalType":"contract IAddressProvider","name":"","type":"address"}],"stateMutability":"view","type":"function"},{"inputs":[],"name":"controller","outputs":[{"internalType":"contract IController","name":"","type":"address"}],"stateMutability":"view","type":"function"},{"inputs":[],"name":"estimatedGasUsage","outputs":[{"internalType":"uint256","name":"","type":"uint256"}],"stateMutability":"view","type":"function"},{"inputs":[{"internalType":"address","name":"payer","type":"address"},{"internalType":"bytes32","name":"account","type":"bytes32"},{"internalType":"address","name":"beneficiary","type":"address"},{"internalType":"bytes32","name":"protocol","type":"bytes32"},{"internalType":"uint256","name":"maxWeiForGas","type":"uint256"}],"name":"execute","outputs":[],"stateMutability":"nonpayable","type":"function"},{"inputs":[{"internalType":"address","name":"payer","type":"address"},{"internalType":"bytes32","name":"account","type":"bytes32"},{"internalType":"address","name":"beneficiary","type":"address"},{"internalType":"bytes32","name":"protocol","type":"bytes32"}],"name":"execute","outputs":[],"stateMutability":"nonpayable","type":"function"},{"inputs":[],"name":"feeHandler","outputs":[{"internalType":"address","name":"","type":"address"}],"stateMutability":"view","type":"function"},{"inputs":[{"internalType":"address","name":"payer","type":"address"}],"name":"getEthRequiredForGas","outputs":[{"internalType":"uint256","name":"","type":"uint256"}],"stateMutability":"view","type":"function"},{"inputs":[{"internalType":"bytes32","name":"protocol","type":"bytes32"}],"name":"getHandler","outputs":[{"internalType":"address","name":"","type":"address"}],"stateMutability":"view","type":"function"},{"inputs":[{"internalType":"bytes32","name":"protocol","type":"bytes32"},{"internalType":"bytes32","name":"account","type":"bytes32"},{"internalType":"bytes","name":"extra","type":"bytes"}],"name":"getHealthFactor","outputs":[{"internalType":"uint256","name":"healthFactor","type":"uint256"}],"stateMutability":"view","type":"function"},{"inputs":[{"internalType":"address","name":"payer","type":"address"},{"internalType":"bytes32","name":"account","type":"bytes32"},{"internalType":"bytes32","name":"protocol","type":"bytes32"}],"name":"getPosition","outputs":[{"components":[{"internalType":"uint64","name":"threshold","type":"uint64"},{"internalType":"uint64","name":"priorityFee","type":"uint64"},{"internalType":"uint64","name":"maxFee","type":"uint64"},{"internalType":"uint64","name":"registeredAt","type":"uint64"},{"internalType":"address","name":"actionToken","type":"address"},{"internalType":"address","name":"depositToken","type":"address"},{"internalType":"uint128","name":"singleTopUpAmount","type":"uint128"},{"internalType":"uint128","name":"totalTopUpAmount","type":"uint128"},{"internalType":"uint128","name":"depositTokenBalance","type":"uint128"},{"internalType":"bytes","name":"extra","type":"bytes"}],"internalType":"struct ITopUpAction.Record","name":"","type":"tuple"}],"stateMutability":"view","type":"function"},{"inputs":[],"name":"getSupportedProtocols","outputs":[{"internalType":"bytes32[]","name":"","type":"bytes32[]"}],"stateMutability":"view","type":"function"},{"inputs":[{"internalType":"bytes32","name":"protocol","type":"bytes32"}],"name":"getTopUpHandler","outputs":[{"internalType":"address","name":"","type":"address"}],"stateMutability":"view","type":"function"},{"inputs":[],"name":"getUsableTokens","outputs":[{"internalType":"address[]","name":"","type":"address[]"}],"stateMutability":"view","type":"function"},{"inputs":[{"internalType":"address","name":"payer","type":"address"}],"name":"getUserPositions","outputs":[{"components":[{"internalType":"bytes32","name":"account","type":"bytes32"},{"internalType":"bytes32","name":"protocol","type":"bytes32"}],"internalType":"struct ITopUpAction.RecordMeta[]","name":"","type":"tuple[]"}],"stateMutability":"view","type":"function"},{"inputs":[{"internalType":"address","name":"feeHandler_","type":"address"},{"internalType":"bytes32[]","name":"protocols_","type":"bytes32[]"},{"internalType":"address[]","name":"handlers_","type":"address[]"}],"name":"initialize","outputs":[],"stateMutability":"nonpayable","type":"function"},{"inputs":[],"name":"isPaused","outputs":[{"internalType":"bool","name":"","type":"bool"}],"stateMutability":"view","type":"function"},{"inputs":[],"name":"isShutdown","outputs":[{"internalType":"bool","name":"","type":"bool"}],"stateMutability":"view","type":"function"},{"inputs":[{"internalType":"address","name":"token","type":"address"}],"name":"isUsable","outputs":[{"internalType":"bool","name":"","type":"bool"}],"stateMutability":"view","type":"function"},{"inputs":[],"name":"pause","outputs":[],"stateMutability":"nonpayable","type":"function"},{"inputs":[{"internalType":"bytes32","name":"account","type":"bytes32"},{"internalType":"bytes32","name":"protocol","type":"bytes32"},{"internalType":"uint128","name":"depositAmount","type":"uint128"},{"components":[{"internalType":"uint64","name":"threshold","type":"uint64"},{"internalType":"uint64","name":"priorityFee","type":"uint64"},{"internalType":"uint64","name":"maxFee","type":"uint64"},{"internalType":"uint64","name":"registeredAt","type":"uint64"},{"internalType":"address","name":"actionToken","type":"address"},{"internalType":"address","name":"depositToken","type":"address"},{"internalType":"uint128","name":"singleTopUpAmount","type":"uint128"},{"internalType":"uint128","name":"totalTopUpAmount","type":"uint128"},{"internalType":"uint128","name":"depositTokenBalance","type":"uint128"},{"internalType":"bytes","name":"extra","type":"bytes"}],"internalType":"struct ITopUpAction.Record","name":"record","type":"tuple"}],"name":"register","outputs":[],"stateMutability":"payable","type":"function"},{"inputs":[{"internalType":"address","name":"token","type":"address"}],"name":"removeUsableToken","outputs":[],"stateMutability":"nonpayable","type":"function"},{"inputs":[{"internalType":"bytes32","name":"account","type":"bytes32"},{"internalType":"bytes32","name":"protocol","type":"bytes32"},{"internalType":"bool","name":"unstake","type":"bool"}],"name":"resetPosition","outputs":[],"stateMutability":"nonpayable","type":"function"},{"inputs":[],"name":"roleManager","outputs":[{"internalType":"contract IRoleManager","name":"","type":"address"}],"stateMutability":"view","type":"function"},{"inputs":[],"name":"shutdownAction","outputs":[],"stateMutability":"nonpayable","type":"function"},{"inputs":[{"internalType":"bytes32","name":"","type":"bytes32"}],"name":"topUpHandlers","outputs":[{"internalType":"address","name":"","type":"address"}],"stateMutability":"view","type":"function"},{"inputs":[],"name":"unpause","outputs":[],"stateMutability":"nonpayable","type":"function"},{"inputs":[{"internalType":"uint256","name":"actionFee_","type":"uint256"}],"name":"updateActionFee","outputs":[],"stateMutability":"nonpayable","type":"function"},{"inputs":[{"internalType":"uint256","name":"estimatedGasUsage_","type":"uint256"}],"name":"updateEstimatedGasUsage","outputs":[],"stateMutability":"nonpayable","type":"function"},{"inputs":[{"internalType":"address","name":"feeHandler_","type":"address"}],"name":"updateFeeHandler","outputs":[],"stateMutability":"nonpayable","type":"function"},{"inputs":[{"internalType":"bytes32","name":"protocol","type":"bytes32"},{"internalType":"address","name":"newHandler","type":"address"}],"name":"updateTopUpHandler","outputs":[],"stateMutability":"nonpayable","type":"function"},{"inputs":[{"internalType":"uint256","name":"cursor","type":"uint256"},{"internalType":"uint256","name":"howMany","type":"uint256"}],"name":"usersWithPositions","outputs":[{"internalType":"address[]","name":"users","type":"address[]"},{"internalType":"uint256","name":"nextCursor","type":"uint256"}],"stateMutability":"view","type":"function"},{"stateMutability":"payable","type":"receive"}],"bytecode":"60e060405262086470600c553480156200001857600080fd5b50604051620053e1380380620053e18339810160408190526200003b91620001e3565b620000be816001600160a01b0316632954018c6040518163ffffffff1660e01b8152600401602060405180830381865afa1580156200007e573d6000803e3d6000fd5b505050506040513d601f19601f82011682018060405250810190620000a49190620001e3565b6001600160a01b03166200014860201b620036871760201c565b6001600160a01b03908116608052811660a081905260408051630a55006360e21b81529051632954018c916004808201926020929091908290030181865afa1580156200010f573d6000803e3d6000fd5b505050506040513d601f19601f82011682018060405250810190620001359190620001e3565b6001600160a01b031660c052506200020a565b6040516321f8a72160e01b81526a3937b632a6b0b730b3b2b960a91b60048201526000906001600160a01b038316906321f8a72190602401602060405180830381865afa1580156200019e573d6000803e3d6000fd5b505050506040513d601f19601f82011682018060405250810190620001c49190620001e3565b92915050565b6001600160a01b0381168114620001e057600080fd5b50565b600060208284031215620001f657600080fd5b81516200020381620001ca565b9392505050565b60805160a05160c051615130620002b1600039600081816102f4015281816108440152818161105a0152818161190a0152818161394501528181613a6a0152613b33015260008181610648015261155901526000818161020c01528181610aa6015281816112e5015281816124a7015281816125be0152818161294a01528181612dcb01528181612ef6015281816130060152818161312c015261341001526151306000f3fe6080604052600436106101f15760003560e01c80635ec185de1161010d578063a2624856116100a0578063bf86d6901161006f578063bf86d690146105aa578063c84ce0d0146105c8578063d41b4e72146105f6578063db375dad14610616578063f77c47911461063657600080fd5b8063a26248561461051d578063b187bd261461053d578063b75d609a14610568578063bba018a11461058857600080fd5b80638456cb59116100dc5780638456cb59146104bd578063859f568b146104d25780638cb164f9146104e75780639466f3011461050757600080fd5b80635ec185de1461045d578063779b66201461047d5780637dc318461461049d57806380fdfe2c146102af57600080fd5b80632a6bc2dd11610185578063506e3ebf11610154578063506e3ebf146103b8578063532913a5146103d857806355c4552b146103fa57806359c442c71461043057600080fd5b80632a6bc2dd1461033657806333229c06146103635780633c93adee146103835780633f4ba83a146103a357600080fd5b80631ecb8ac6116101c15780631ecb8ac6146102af57806322590064146102cf5780632954018c146102e257806329988b041461031657600080fd5b8062435da5146101fd5780630b402267146102495780631441d2271461026b5780631eb8c7a31461028f57600080fd5b366101f857005b600080fd5b34801561020957600080fd5b507f00000000000000000000000000000000000000000000000000000000000000005b6040516001600160a01b0390911681526020015b60405180910390f35b34801561025557600080fd5b50610269610264366004614589565b61066f565b005b34801561027757600080fd5b50610281600a5481565b604051908152602001610240565b34801561029b57600080fd5b506102696102aa3660046145c2565b610aa4565b3480156102bb57600080fd5b5061022c6102ca3660046145c2565b610bc1565b6102696102dd3660046146f9565b610bd4565b3480156102ee57600080fd5b5061022c7f000000000000000000000000000000000000000000000000000000000000000081565b34801561032257600080fd5b50610269610331366004614828565b6112e3565b34801561034257600080fd5b50610356610351366004614828565b611412565b6040516102409190614845565b34801561036f57600080fd5b5061026961037e366004614894565b61149b565b34801561038f57600080fd5b50600b5461022c906001600160a01b031681565b3480156103af57600080fd5b506102696124a5565b3480156103c457600080fd5b506102696103d33660046148e6565b6125bc565b3480156103e457600080fd5b506103ed6126fd565b6040516102409190614916565b34801561040657600080fd5b5061022c6104153660046145c2565b6003602052600090815260409020546001600160a01b031681565b34801561043c57600080fd5b5061045061044b36600461495a565b612795565b60405161024091906149e7565b34801561046957600080fd5b506102696104783660046145c2565b612948565b34801561048957600080fd5b50610281610498366004614ad9565b612aad565b3480156104a957600080fd5b506102816104b8366004614828565b612b39565b3480156104c957600080fd5b50610269612dc9565b3480156104de57600080fd5b50610269612ee6565b3480156104f357600080fd5b50610269610502366004614828565b613004565b34801561051357600080fd5b50610281600c5481565b34801561052957600080fd5b50610269610538366004614828565b61312a565b34801561054957600080fd5b506000546301000000900460ff165b6040519015158152602001610240565b34801561057457600080fd5b50610558610583366004614828565b613250565b34801561059457600080fd5b5061059d61325d565b6040516102409190614b9c565b3480156105b657600080fd5b5060005462010000900460ff16610558565b3480156105d457600080fd5b506105e86105e3366004614baf565b613269565b604051610240929190614bd1565b34801561060257600080fd5b50610269610611366004614c37565b61336a565b34801561062257600080fd5b50610269610631366004614cb9565b6135ca565b34801561064257600080fd5b5061022c7f000000000000000000000000000000000000000000000000000000000000000081565b905090565b3360008181526006602090815260408083208784528252808320868452825280832081516101408101835281546001600160401b038082168352600160401b8204811695830195909552600160801b808204861694830194909452600160c01b9004909316606084015260018101546001600160a01b03908116608085015260028201541660a084015260038101546001600160801b0380821660c0860152929004821660e084015260048101549091166101008301526005810180546101208401919061073c90614d01565b80601f016020809104026020016040519081016040528092919081815260200182805461076890614d01565b80156107b55780601f1061078a576101008083540402835291602001916107b5565b820191906000526020600020905b81548152906001019060200180831161079857829003601f168201915b50505091909252505081516040805180820190915260128152716e6f20706f736974696f6e2065786973747360701b60208201529293506001600160401b03161515905061081f5760405162461bcd60e51b81526004016108169190614d3c565b60405180910390fd5b5060a081015160405163059eadeb60e41b81526001600160a01b0391821660048201527f000000000000000000000000000000000000000000000000000000000000000091600091908316906359eadeb090602401602060405180830381865afa158015610891573d6000803e3d6000fd5b505050506040513d601f19601f820116820180604052508101906108b59190614d4f565b610100840151604051636a278cd960e01b815291925082916001600160a01b03831691636a278cd9916108ec918991600401614d6c565b600060405180830381600087803b15801561090657600080fd5b505af115801561091a573d6000803e3d6000fd5b5050505085156109bb576101008401516040516305c2fbcf60e31b81526001600160801b0390911660048201526001600160a01b03821690632e17de7890602401600060405180830381600087803b15801561097557600080fd5b505af1158015610989573d6000803e3d6000fd5b50505061010085015160a08601516109b692506001600160a01b03169087906001600160801b0316613701565b610a20565b61010084015160405163a9059cbb60e01b81526001600160a01b0383169163a9059cbb916109ed918991600401614d6c565b600060405180830381600087803b158015610a0757600080fd5b505af1158015610a1b573d6000803e3d6000fd5b505050505b610a2b858989613769565b610a3d836001600160a01b0316613852565b6040516335272c2560e21b81526001600160a01b038781166004830152919091169063d49cb09490602401600060405180830381600087803b158015610a8257600080fd5b505af1158015610a96573d6000803e3d6000fd5b505050505050505050505050565b7f0000000000000000000000000000000000000000000000000000000000000000604051632474521560e21b815269676f7665726e616e636560b01b60048201523360248201526001600160a01b0391909116906391d1485490604401602060405180830381865afa158015610b1e573d6000803e3d6000fd5b505050506040513d601f19601f82011682018060405250810190610b429190614d8e565b6040518060400160405280601381526020016000805160206150b883398151915281525090610b845760405162461bcd60e51b81526004016108169190614d3c565b50600c8190556040518181527fd8d8e400e65b9de8d7fddc7ee59eb69e0add7c2535dae5cdf7c5af7af0d04188906020015b60405180910390a150565b6000610bce82600061388b565b92915050565b60005460408051808201909152601281527120b1ba34b7b71034b99039b43aba3237bbb760711b60208201529062010000900460ff1615610c285760405162461bcd60e51b81526004016108169190614d3c565b5060005460408051808201909152601081526f1058dd1a5bdb881a5cc81c185d5cd95960821b6020820152906301000000900460ff1615610c7c5760405162461bcd60e51b81526004016108169190614d3c565b50637735940081604001516001600160401b031610156040518060400160405280600f81526020016e696e76616c6964206d61782066656560881b81525090610cd85760405162461bcd60e51b81526004016108169190614d3c565b50610ce4600484613909565b604051806040016040528060128152602001711c1c9bdd1bd8dbdb081b9bdd08199bdd5b9960721b81525090610d2d5760405162461bcd60e51b81526004016108169190614d3c565b5060008160c001516001600160801b0316116040518060400160405280600e81526020016d1a5b9d985b1a5908185b5bdd5b9d60921b81525090610d845760405162461bcd60e51b81526004016108169190614d3c565b50670de0b6b3a764000081600001516001600160401b0316116040518060400160405280600e81526020016d1a5b9d985b1a5908185b5bdd5b9d60921b81525090610de25760405162461bcd60e51b81526004016108169190614d3c565b508060e001516001600160801b03168160c001516001600160801b031611156040518060400160405280600e81526020016d1a5b9d985b1a5908185b5bdd5b9d60921b81525090610e465760405162461bcd60e51b81526004016108169190614d3c565b503360009081526006602090815260408083208784528252808320868452825291829020548251808401909352601783527f706f736974696f6e20616c726561647920657869737473000000000000000000918301919091526001600160401b031615610ec65760405162461bcd60e51b81526004016108169190614d3c565b50610ed98160a001518260800151613921565b604051806040016040528060138152602001721cddd85c081c185d1a081b9bdd08199bdd5b99606a1b81525090610f235760405162461bcd60e51b81526004016108169190614d3c565b50610f318160a00151613250565b6040518060600160405280602881526020016150486028913990610f685760405162461bcd60e51b81526004016108169190614d3c565b506000600c5482604001516001600160401b0316610fa98460c001516001600160801b03168560e001516001600160801b0316613a3090919063ffffffff16565b610fb39190614dc1565b610fbd9190614dc1565b9050803410156040518060400160405280601a81526020017f76616c756520746f6f206c6f7720746f20636f76657220676173000000000000815250906110175760405162461bcd60e51b81526004016108169190614d3c565b50600061103a8360a0015184608001518560e001516001600160801b0316613a53565b9050611055338460a0015183876001600160801b0316613b11565b6110877f00000000000000000000000000000000000000000000000000000000000000006001600160a01b0316613852565b60405163aa67c91960e01b81523360048201526001600160a01b03919091169063aa67c9199034906024016000604051808303818588803b1580156110cb57600080fd5b505af11580156110df573d6000803e3d6000fd5b5050506001600160401b0342166060860152506110fd905081613c33565b6001600160801b0390811661010085019081523360009081526006602090815260408083208b845282528083208a845282529182902087518154838a0151948a015160608b01516001600160401b039384166001600160801b031993841617600160401b97851697909702969096178816600160801b91841682026001600160c01b031617600160c01b939096169290920294909417825560808901516001830180546001600160a01b03199081166001600160a01b039384161790915560a08b0151600285018054909216921691909117905560c089015160e08a015190871690871690910217600382015592516004840180549093169416939093179055610120850151805186936112189260058501929101906144a9565b505033600081815260076020908152604080832081518083019092528b82528183018b81528154600181810184559286529390942091516002909302909101918255915191015561126c9150600890613ca0565b5082600001516001600160401b031685877ff8c4338a655ae888222012879ef5bdbc46ca5bde6b154b5565048cfccbc00781338760a001518689608001518a60c001518b60e001518c604001518d61012001516040516112d3989796959493929190614de0565b60405180910390a4505050505050565b7f0000000000000000000000000000000000000000000000000000000000000000604051632474521560e21b815269676f7665726e616e636560b01b60048201523360248201526001600160a01b0391909116906391d1485490604401602060405180830381865afa15801561135d573d6000803e3d6000fd5b505050506040513d601f19601f820116820180604052508101906113819190614d8e565b6040518060400160405280601381526020016000805160206150b8833981519152815250906113c35760405162461bcd60e51b81526004016108169190614d3c565b50600b80546001600160a01b0319166001600160a01b0383169081179091556040519081527fab9d6b7e6a08b170060612fe7982b02517c02c12c50e77db3efebf1f665d52e290602001610bb6565b6001600160a01b0381166000908152600760209081526040808320805482518185028101850190935280835260609492939192909184015b828210156114905783829060005260206000209060020201604051806040016040529081600082015481526020016001820154815250508152602001906001019061144a565b505050509050919050565b60005460408051808201909152601281527120b1ba34b7b71034b99039b43aba3237bbb760711b60208201529062010000900460ff16156114ef5760405162461bcd60e51b81526004016108169190614d3c565b5060005460408051808201909152601081526f1058dd1a5bdb881a5cc81c185d5cd95960821b6020820152906301000000900460ff16156115435760405162461bcd60e51b81526004016108169190614d3c565b506040516306547d4b60e21b81523360048201527f00000000000000000000000000000000000000000000000000000000000000006001600160a01b031690631951f52c90602401602060405180830381865afa1580156115a8573d6000803e3d6000fd5b505050506040513d601f19601f820116820180604052508101906115cc9190614d8e565b6040518060400160405280601d81526020017f4e6f7420656e6f756768204d45524f20746f6b656e73207374616b6564000000815250906116205760405162461bcd60e51b81526004016108169190614d3c565b506116f1604051806102e001604052806000815260200160008152602001600081526020016000815260200160008152602001600081526020016000815260200160008152602001600081526020016000815260200160006001600160801b03168152602001600015158152602001600081526020016000815260200160008152602001600081526020016000815260200160008152602001600081526020016000815260200160006001600160a01b0316815260200160001515815260200160006001600160a01b031681525090565b5a6101a08201526001600160a01b038616600090815260066020908152604080832088845282528083208684528252918290208054835180850190945260128452716e6f20706f736974696f6e2065786973747360701b9284019290925291906001600160401b03166117775760405162461bcd60e51b81526004016108169190614d3c565b506003810154604080518082019091526014815273696e73756666696369656e742062616c616e636560601b602082015290600160801b90046001600160801b03166117d65760405162461bcd60e51b81526004016108169190614d3c565b50805460408051606081019091526023808252600160c01b9092046001600160401b03164211916150d86020830139906118235760405162461bcd60e51b81526004016108169190614d3c565b5061182f84600161388b565b6001600160a01b03166102c0830181905260405163673f349760e11b815263ce7e692e906118669089906005860190600401614ef1565b602060405180830381865afa158015611883573d6000803e3d6000fd5b505050506040513d601f19601f820116820180604052508101906118a79190614f0a565b6080830181905281546040805180820190915260168152751a5b9cdd59999a58da595b9d081d1a1c995cda1bdb1960521b6020820152916001600160401b03909116116119075760405162461bcd60e51b81526004016108169190614d3c565b507f0000000000000000000000000000000000000000000000000000000000000000600061193d6001600160a01b038316613852565b600c546102008601819052909150611956903a90614dc1565b610220850152825461197890600160401b90046001600160401b031648614f23565b6101e085018190523a101561198f573a6101e08501525b82546101e0850151600160801b9091046001600160401b031610156119c7578254600160801b90046001600160401b03166101e08501525b84846101e001518561020001516119de9190614dc1565b6119e89190614f23565b84610220015111156040518060600160405280602181526020016150706021913990611a275760405162461bcd60e51b81526004016108169190614d3c565b506040516370a0823160e01b81526001600160a01b038a811660048301528216906370a0823190602401602060405180830381865afa158015611a6e573d6000803e3d6000fd5b505050506040513d601f19601f82011682018060405250810190611a929190614f0a565b610180850181905261022085015190611aac908790614f23565b10156040518060600160405280602781526020016150916027913990611ae55760405162461bcd60e51b81526004016108169190614d3c565b5060038301546001600160801b03600160801b82048116610140870152600a54610100870181905291168552611b2f90611b2790670de0b6b3a7640000614f23565b855190613cb5565b606085018190526101408501516001600160801b03161015611b89576101408401516001600160801b03166060850152610100840151611b8690611b7b90670de0b6b3a7640000614f23565b606086015190613cca565b84525b6002830154604051630956fef360e21b81526001600160a01b03918216600482015260009184169063255bfbcc90602401602060405180830381865afa158015611bd7573d6000803e3d6000fd5b505050506040513d601f19601f82011682018060405250810190611bfb9190614d4f565b9050806001600160a01b0316639816f4736040518163ffffffff1660e01b8152600401602060405180830381865afa158015611c3b573d6000803e3d6000fd5b505050506040513d601f19601f82011682018060405250810190611c5f9190614d4f565b8561028001906001600160a01b031690816001600160a01b031681525050806001600160a01b0316633ba0b9a96040518163ffffffff1660e01b8152600401602060405180830381865afa158015611cbb573d6000803e3d6000fd5b505050506040513d601f19601f82011682018060405250810190611cdf9190614f0a565b60a086018190526060860151611cf491613cdf565b60c0860181905260048501546001600160801b03161015611d5b5760048401546001600160801b031660c0860152610100850151611d3a90670de0b6b3a7640000614f23565b8560a001518660c00151611d4e9190614dc1565b611d589190614f3b565b85525b60a08501518551611d6b91613cdf565b60e0860181905260c0860151611d819190614f5d565b6040868101919091526002850154905163059eadeb60e41b81526001600160a01b0391821660048201526000918516906359eadeb090602401602060405180830381865afa158015611dd7573d6000803e3d6000fd5b505050506040513d601f19601f82011682018060405250810190611dfb9190614d4f565b60c08701516040516305c2fbcf60e31b81529192506001600160a01b03831691632e17de7891611e319160040190815260200190565b600060405180830381600087803b158015611e4b57600080fd5b505af1158015611e5f573d6000803e3d6000fd5b5050505060c0860151604051636a278cd960e01b81526001600160a01b038d81166004830152602482019290925290821690636a278cd990604401600060405180830381600087803b158015611eb457600080fd5b505af1158015611ec8573d6000803e3d6000fd5b50505060e087015160405163db006a7560e01b81526001600160a01b038516925063db006a7591611eff9160040190815260200190565b6020604051808303816000875af1158015611f1e573d6000803e3d6000fd5b505050506040513d601f19601f82011682018060405250810190611f429190614f0a565b602087015260a08601516040870151611f5a91613cb5565b8660200151611f699190614f23565b61012087015260018501546000906001600160a01b0316611f8f57506020860151611fad565b60018601546102c0880151611fad916001600160a01b031690613d01565b866102c001516001600160a01b031663dac6de72828d8960010160009054906101000a90046001600160a01b03168b602001518b6005016040518663ffffffff1660e01b81526004016120039493929190614f74565b6000604051808303818588803b15801561201c57600080fd5b505af1158015612030573d6000803e3d6000fd5b50505050508661012001518761014001516001600160801b031611156120ab5761205e876101200151613c33565b600387018054601090612082908490600160801b90046001600160801b0316614fa1565b92506101000a8154816001600160801b0302191690836001600160801b031602179055506120bd565b6003860180546001600160801b031690555b6120ca8760c00151613c33565b6004870180546000906120e79084906001600160801b0316614fa1565b92506101000a8154816001600160801b0302191690836001600160801b031602179055508560030160109054906101000a90046001600160801b03166001600160801b031660001480612145575060048601546001600160801b0316155b15156102a08801526040870151600287015461216e918e918d91906001600160a01b0316613d99565b866102a00151156122865760048601546001600160801b03161561227b57816001600160a01b031663a9059cbb8d8860040160009054906101000a90046001600160801b03166040518363ffffffff1660e01b81526004016121d1929190614d6c565b600060405180830381600087803b1580156121eb57600080fd5b505af11580156121ff573d6000803e3d6000fd5b50505050816001600160a01b0316636a278cd98d8860040160009054906101000a90046001600160801b03166040518363ffffffff1660e01b8152600401612248929190614d6c565b600060405180830381600087803b15801561226257600080fd5b505af1158015612276573d6000803e3d6000fd5b505050505b6122868c8c8b613769565b600286015460c088015160018801546020808b0151604080516001600160a01b03968716815292830194909452918416928101929092526060820152908d16908a908d907fa25497780b9913305877fbabb319e19163fec169ddf54e7f2ebb2903b598d32e9060800160405180910390a45a876101a001516123089190614f5d565b6101c088018190526101e08801516123209190614dc1565b61026088018190526101808801511015612341576101808701516102608801525b6101c0870151612351903a614dc1565b610240880181905261026088015161236a908a90614f23565b10156040518060400160405280601981526020017f746f6f206d75636820455448207573656420666f722067617300000000000000815250906123c05760405162461bcd60e51b81526004016108169190614d3c565b50610260870151604051634aaad4a160e11b81526001600160a01b038e81166004830152336024830152604482019290925290851690639555a94290606401600060405180830381600087803b15801561241957600080fd5b505af115801561242d573d6000803e3d6000fd5b50505050866102a0015115610a96576040516335272c2560e21b81526001600160a01b038d8116600483015285169063d49cb09490602401600060405180830381600087803b15801561247f57600080fd5b505af1158015612493573d6000803e3d6000fd5b50505050505050505050505050505050565b7f0000000000000000000000000000000000000000000000000000000000000000604051632474521560e21b815269676f7665726e616e636560b01b60048201523360248201526001600160a01b0391909116906391d1485490604401602060405180830381865afa15801561251f573d6000803e3d6000fd5b505050506040513d601f19601f820116820180604052508101906125439190614d8e565b6040518060400160405280601381526020016000805160206150b8833981519152815250906125855760405162461bcd60e51b81526004016108169190614d3c565b506000805463ff000000191681556040517fa45f47fdea8a1efdd9029a5691c7f759c32b7c698632b563573e155625d169339190a1565b7f0000000000000000000000000000000000000000000000000000000000000000604051632474521560e21b815269676f7665726e616e636560b01b60048201523360248201526001600160a01b0391909116906391d1485490604401602060405180830381865afa158015612636573d6000803e3d6000fd5b505050506040513d601f19601f8201168201806040525081019061265a9190614d8e565b6040518060400160405280601381526020016000805160206150b88339815191528152509061269c5760405162461bcd60e51b81526004016108169190614d3c565b5060006126aa83600061388b565b90506126b7838284613e23565b604080518481526001600160a01b03841660208201527f4db275e594c5465a26ca702a50972c6f6f3f055402e30cfee962cd2c6b459539910160405180910390a1505050565b6060600061270b6004613e75565b90506000816001600160401b03811115612727576127276145f7565b604051908082528060200260200182016040528015612750578160200160208202803683370190505b50905060005b8281101561278e57612769600482613e7f565b82828151811061277b5761277b614fc9565b6020908102919091010152600101612756565b5092915050565b604080516101408101825260008082526020820181905291810182905260608082018390526080820183905260a0820183905260c0820183905260e082018390526101008201929092526101208101919091526001600160a01b038085166000908152600660209081526040808320878452825280832086845282529182902082516101408101845281546001600160401b038082168352600160401b8204811694830194909452600160801b808204851695830195909552600160c01b90049092166060830152600181015484166080830152600281015490931660a082015260038301546001600160801b0380821660c0840152929004821660e08201526004830154909116610100820152600582018054919291610120840191906128bc90614d01565b80601f01602080910402602001604051908101604052809291908181526020018280546128e890614d01565b80156129355780601f1061290a57610100808354040283529160200191612935565b820191906000526020600020905b81548152906001019060200180831161291857829003601f168201915b50505050508152505090505b9392505050565b7f0000000000000000000000000000000000000000000000000000000000000000604051632474521560e21b815269676f7665726e616e636560b01b60048201523360248201526001600160a01b0391909116906391d1485490604401602060405180830381865afa1580156129c2573d6000803e3d6000fd5b505050506040513d601f19601f820116820180604052508101906129e69190614d8e565b6040518060400160405280601381526020016000805160206150b883398151915281525090612a285760405162461bcd60e51b81526004016108169190614d3c565b5060408051808201909152600e81526d1a5b9d985b1a5908185b5bdd5b9d60921b60208201526706f05b59d3b20000821115612a775760405162461bcd60e51b81526004016108169190614d3c565b50600a8190556040518181527f5d11c783e271d8b349db953b7379433a5877a135a3d10e91dc92b02c4b45463b90602001610bb6565b600080612abb86600161388b565b60405163673f349760e11b81529091506001600160a01b0382169063ce7e692e90612aee90889088908890600401614fdf565b602060405180830381865afa158015612b0b573d6000803e3d6000fd5b505050506040513d601f19601f82011682018060405250810190612b2f9190614f0a565b9695505050505050565b6001600160a01b0381166000908152600760209081526040808320805482518185028101850190935280835284938493929190849084015b82821015612bb757838290600052602060002090600202016040518060400160405290816000820154815260200160018201548152505081526020019060010190612b71565b5050600c548351939450929150600090505b81811015612dbe576000848281518110612be557612be5614fc9565b6020908102919091018101516001600160a01b03808b166000908152600684526040808220845183528552808220848601518352855280822081516101408101835281546001600160401b038082168352600160401b8204811698830198909852600160801b808204891694830194909452600160c01b90049096166060870152600181015484166080870152600281015490931660a086015260038301546001600160801b0380821660c0880152919004811660e086015260048301541661010085015260058201805493955090939261012084019190612cc690614d01565b80601f0160208091040260200160405190810160405280929190818152602001828054612cf290614d01565b8015612d3f5780601f10612d1457610100808354040283529160200191612d3f565b820191906000526020600020905b815481529060010190602001808311612d2257829003601f168201915b50505050508152505090506000612d798260c001516001600160801b03168360e001516001600160801b0316613a3090919063ffffffff16565b60408301519091506001600160401b0316612d948783614dc1565b612d9e9190614dc1565b612da89089614f23565b9750505050612db78160010190565b9050612bc9565b509295945050505050565b7f0000000000000000000000000000000000000000000000000000000000000000604051632474521560e21b815269676f7665726e616e636560b01b60048201523360248201526001600160a01b0391909116906391d1485490604401602060405180830381865afa158015612e43573d6000803e3d6000fd5b505050506040513d601f19601f82011682018060405250810190612e679190614d8e565b6040518060400160405280601381526020016000805160206150b883398151915281525090612ea95760405162461bcd60e51b81526004016108169190614d3c565b506000805463ff000000191663010000001781556040517f9e87fac88ff661f02d44f95383c817fece4bce600a3dab7a54406878b965e7529190a1565b6931b7b73a3937b63632b960b11b7f0000000000000000000000000000000000000000000000000000000000000000604051632474521560e21b8152600481018390523360248201526001600160a01b0391909116906391d1485490604401602060405180830381865afa158015612f62573d6000803e3d6000fd5b505050506040513d601f19601f82011682018060405250810190612f869190614d8e565b6040518060400160405280601381526020016000805160206150b883398151915281525090612fc85760405162461bcd60e51b81526004016108169190614d3c565b506000805462ff00001916620100001781556040517f4426aa1fb73e391071491fcfe21a88b5c38a0a0333a1f6e77161470439704cf89190a150565b7f0000000000000000000000000000000000000000000000000000000000000000604051632474521560e21b815269676f7665726e616e636560b01b60048201523360248201526001600160a01b0391909116906391d1485490604401602060405180830381865afa15801561307e573d6000803e3d6000fd5b505050506040513d601f19601f820116820180604052508101906130a29190614d8e565b6040518060400160405280601381526020016000805160206150b8833981519152815250906130e45760405162461bcd60e51b81526004016108169190614d3c565b506130f0600182613ca0565b506040516001600160a01b03821681527fc04e88168c7bca3921be8a31e1ab90e8b90bcf4a47e28b431c100a06ece42e7290602001610bb6565b7f0000000000000000000000000000000000000000000000000000000000000000604051632474521560e21b815269676f7665726e616e636560b01b60048201523360248201526001600160a01b0391909116906391d1485490604401602060405180830381865afa1580156131a4573d6000803e3d6000fd5b505050506040513d601f19601f820116820180604052508101906131c89190614d8e565b6040518060400160405280601381526020016000805160206150b88339815191528152509061320a5760405162461bcd60e51b81526004016108169190614d3c565b50613216600182613e8b565b506040516001600160a01b03821681527fe1ecc5a412d3ece05e72d98230002795f88f59a6fdf4e851208fecd31100f1bb90602001610bb6565b6000610bce600183613ea0565b606061066a6001613ec2565b60606000806132786008613e75565b905080851061329a575050604080516000808252602082019092529150613363565b6132a48582614f5d565b84106132b7576132b48582614f5d565b93505b6000846001600160401b038111156132d1576132d16145f7565b6040519080825280602002602001820160405280156132fa578160200160208202803683370190505b50905060005b858110156133505761331d6133158883614f23565b600890613e7f565b82828151811061332f5761332f614fc9565b6001600160a01b039290921660209283029190910190910152600101613300565b508061335c8688614f23565b9350935050505b9250929050565b600054610100900460ff166133855760005460ff1615613389565b303b155b6133ec5760405162461bcd60e51b815260206004820152602e60248201527f496e697469616c697a61626c653a20636f6e747261637420697320616c72656160448201526d191e481a5b9a5d1a585b1a5e995960921b6064820152608401610816565b600054610100900460ff1615801561340e576000805461ffff19166101011790555b7f0000000000000000000000000000000000000000000000000000000000000000604051632474521560e21b815269676f7665726e616e636560b01b60048201523360248201526001600160a01b0391909116906391d1485490604401602060405180830381865afa158015613488573d6000803e3d6000fd5b505050506040513d601f19601f820116820180604052508101906134ac9190614d8e565b6040518060400160405280601381526020016000805160206150b8833981519152815250906134ee5760405162461bcd60e51b81526004016108169190614d3c565b5060408051808201909152601081526f1a5b9d985b1a5908185c99dd5b595b9d60821b60208201528483146135365760405162461bcd60e51b81526004016108169190614d3c565b50600b80546001600160a01b0319166001600160a01b03881617905560005b848110156135af576135a786868381811061357257613572614fc9565b90506020020135600086868581811061358d5761358d614fc9565b90506020020160208101906135a29190614828565b613e23565b600101613555565b5080156135c2576000805461ff00191690555b505050505050565b60005460408051808201909152601281527120b1ba34b7b71034b99039b43aba3237bbb760711b60208201529062010000900460ff161561361e5760405162461bcd60e51b81526004016108169190614d3c565b5060005460408051808201909152601081526f1058dd1a5bdb881a5cc81c185d5cd95960821b6020820152906301000000900460ff16156136725760405162461bcd60e51b81526004016108169190614d3c565b5061368184848484600061149b565b50505050565b6040516321f8a72160e01b81526a3937b632a6b0b730b3b2b960a91b60048201526000906001600160a01b038316906321f8a721906024015b602060405180830381865afa1580156136dd573d6000803e3d6000fd5b505050506040513d601f19601f82011682018060405250810190610bce9190614d4f565b6040516001600160a01b03831660248201526044810182905261376490849063a9059cbb60e01b906064015b60408051601f198184030181529190526020810180516001600160e01b03166001600160e01b031990931692909217909152613ecf565b505050565b6001600160a01b0383166000908152600660209081526040808320858452825280832084845290915281208181556001810180546001600160a01b03199081169091556002820180549091169055600381018290556004810180546001600160801b0319169055906137de6005830182614529565b50506137eb838383613fa1565b6001600160a01b03831660009081526007602052604090205461381557613813600884613e8b565b505b8082846001600160a01b03167f72b5cbd3723f2cc2fa8b384de87a995691d051135c5e19322a55d6e835e3deaa60405160405180910390a4505050565b6040516321f8a72160e01b81526667617342616e6b60c81b60048201526000906001600160a01b038316906321f8a721906024016136c0565b6000828152600360205260408120546001600160a01b03168215806138b857506001600160a01b03811615155b604051806040016040528060128152602001711c1c9bdd1bd8dbdb081b9bdd08199bdd5b9960721b815250906139015760405162461bcd60e51b81526004016108169190614d3c565b509392505050565b60008181526001830160205260408120541515612941565b604051630956fef360e21b81526001600160a01b03838116600483015260009182917f0000000000000000000000000000000000000000000000000000000000000000169063255bfbcc90602401602060405180830381865afa15801561398c573d6000803e3d6000fd5b505050506040513d601f19601f820116820180604052508101906139b09190614d4f565b9050826001600160a01b0316816001600160a01b0316639816f4736040518163ffffffff1660e01b8152600401602060405180830381865afa1580156139fa573d6000803e3d6000fd5b505050506040513d601f19601f82011682018060405250810190613a1e9190614d4f565b6001600160a01b031614949350505050565b6000816001613a3f8286614f23565b613a499190614f5d565b6129419190614f3b565b6040516369c2390b60e11b81526001600160a01b037f0000000000000000000000000000000000000000000000000000000000000000811660048301528085166024830152831660448201526064810182905260009073__TopUpActionLibrary____________________9063d384721690608401602060405180830381865af4158015613ae5573d6000803e3d6000fd5b505050506040513d601f19601f82011682018060405250810190613b099190614f0a565b949350505050565b60405163059eadeb60e41b81526001600160a01b0384811660048301526000917f0000000000000000000000000000000000000000000000000000000000000000909116906359eadeb090602401602060405180830381865afa158015613b7c573d6000803e3d6000fd5b505050506040513d601f19601f82011682018060405250810190613ba09190614d4f565b604051631b89105360e31b81526001600160a01b038083166004830152808816602483015286166044820152606481018590526084810184905290915073__TopUpActionLibrary____________________9063dc4882989060a40160006040518083038186803b158015613c1457600080fd5b505af4158015613c28573d6000803e3d6000fd5b505050505050505050565b60006001600160801b03821115613c9c5760405162461bcd60e51b815260206004820152602760248201527f53616665436173743a2076616c756520646f65736e27742066697420696e20316044820152663238206269747360c81b6064820152608401610816565b5090565b6000612941836001600160a01b0384166140a0565b6000670de0b6b3a7640000613a498385614dc1565b600081613a49670de0b6b3a764000085614dc1565b600081600181613cf7670de0b6b3a764000087614dc1565b613a3f9190614f23565b604051636eb1769f60e11b81523060048201526001600160a01b0382811660248301526000919084169063dd62ed3e90604401602060405180830381865afa158015613d51573d6000803e3d6000fd5b505050506040513d601f19601f82011682018060405250810190613d759190614f0a565b1115613d7f575050565b613d956001600160a01b038316826000196140ef565b5050565b600b546001600160a01b0390811690613db590831682856140ef565b6040516367ec9f1960e11b81526001600160a01b038681166004830152858116602483015260448201859052838116606483015282169063cfd93e3290608401600060405180830381600087803b158015613e0f57600080fd5b505af1158015613c28573d6000803e3d6000fd5b600083815260036020526040902080546001600160a01b0319166001600160a01b038316908117909155613e5c57613681600484614204565b6001600160a01b03821661376457613681600484614210565b6000610bce825490565b6000612941838361421c565b6000612941836001600160a01b038416614246565b6001600160a01b03811660009081526001830160205260408120541515612941565b6060600061294183614339565b6000613f24826040518060400160405280602081526020017f5361666545524332303a206c6f772d6c6576656c2063616c6c206661696c6564815250856001600160a01b03166143959092919063ffffffff16565b8051909150156137645780806020019051810190613f429190614d8e565b6137645760405162461bcd60e51b815260206004820152602a60248201527f5361666545524332303a204552433230206f7065726174696f6e20646964206e6044820152691bdd081cdd58d8d9595960b21b6064820152608401610816565b6001600160a01b0383166000908152600760205260408120805490915b818110156135c2576000838281548110613fda57613fda614fc9565b906000526020600020906002020190508581600001541480156140005750848160010154145b156140975783614011600185614f5d565b8154811061402157614021614fc9565b906000526020600020906002020184838154811061404157614041614fc9565b600091825260209091208254600290920201908155600191820154910155835484908061407057614070615015565b60008281526020812060026000199093019283020181815560010155905550505050505050565b50600101613fbe565b60008181526001830160205260408120546140e757508154600181810184556000848152602080822090930184905584548482528286019093526040902091909155610bce565b506000610bce565b8015806141695750604051636eb1769f60e11b81523060048201526001600160a01b03838116602483015284169063dd62ed3e90604401602060405180830381865afa158015614143573d6000803e3d6000fd5b505050506040513d601f19601f820116820180604052508101906141679190614f0a565b155b6141d45760405162461bcd60e51b815260206004820152603660248201527f5361666545524332303a20617070726f76652066726f6d206e6f6e2d7a65726f60448201527520746f206e6f6e2d7a65726f20616c6c6f77616e636560501b6064820152608401610816565b6040516001600160a01b03831660248201526044810182905261376490849063095ea7b360e01b9060640161372d565b60006129418383614246565b600061294183836140a0565b600082600001828154811061423357614233614fc9565b9060005260206000200154905092915050565b6000818152600183016020526040812054801561432f57600061426a600183614f5d565b855490915060009061427e90600190614f5d565b90508181146142e357600086600001828154811061429e5761429e614fc9565b90600052602060002001549050808760000184815481106142c1576142c1614fc9565b6000918252602080832090910192909255918252600188019052604090208390555b85548690806142f4576142f4615015565b600190038181906000526020600020016000905590558560010160008681526020019081526020016000206000905560019350505050610bce565b6000915050610bce565b60608160000180548060200260200160405190810160405280929190818152602001828054801561438957602002820191906000526020600020905b815481526020019060010190808311614375575b50505050509050919050565b6060613b098484600085856001600160a01b0385163b6143f75760405162461bcd60e51b815260206004820152601d60248201527f416464726573733a2063616c6c20746f206e6f6e2d636f6e74726163740000006044820152606401610816565b600080866001600160a01b03168587604051614413919061502b565b60006040518083038185875af1925050503d8060008114614450576040519150601f19603f3d011682016040523d82523d6000602084013e614455565b606091505b5091509150614465828286614470565b979650505050505050565b6060831561447f575081612941565b82511561448f5782518084602001fd5b8160405162461bcd60e51b81526004016108169190614d3c565b8280546144b590614d01565b90600052602060002090601f0160209004810192826144d7576000855561451d565b82601f106144f057805160ff191683800117855561451d565b8280016001018555821561451d579182015b8281111561451d578251825591602001919060010190614502565b50613c9c929150614566565b50805461453590614d01565b6000825580601f10614545575050565b601f0160209004906000526020600020908101906145639190614566565b50565b5b80821115613c9c5760008155600101614567565b801515811461456357600080fd5b60008060006060848603121561459e57600080fd5b833592506020840135915060408401356145b78161457b565b809150509250925092565b6000602082840312156145d457600080fd5b5035919050565b80356001600160801b03811681146145f257600080fd5b919050565b634e487b7160e01b600052604160045260246000fd5b60405161014081016001600160401b0381118282101715614630576146306145f7565b60405290565b80356001600160401b03811681146145f257600080fd5b6001600160a01b038116811461456357600080fd5b80356145f28161464d565b600082601f83011261467e57600080fd5b81356001600160401b0380821115614698576146986145f7565b604051601f8301601f19908116603f011681019082821181831017156146c0576146c06145f7565b816040528381528660208588010111156146d957600080fd5b836020870160208301376000602085830101528094505050505092915050565b6000806000806080858703121561470f57600080fd5b8435935060208501359250614726604086016145db565b915060608501356001600160401b038082111561474257600080fd5b90860190610140828903121561475757600080fd5b61475f61460d565b61476883614636565b815261477660208401614636565b602082015261478760408401614636565b604082015261479860608401614636565b60608201526147a960808401614662565b60808201526147ba60a08401614662565b60a08201526147cb60c084016145db565b60c08201526147dc60e084016145db565b60e08201526101006147ef8185016145db565b90820152610120838101358381111561480757600080fd5b6148138b82870161466d565b82840152505080935050505092959194509250565b60006020828403121561483a57600080fd5b81356129418161464d565b602080825282518282018190526000919060409081850190868401855b8281101561488757815180518552860151868501529284019290850190600101614862565b5091979650505050505050565b600080600080600060a086880312156148ac57600080fd5b85356148b78161464d565b94506020860135935060408601356148ce8161464d565b94979396509394606081013594506080013592915050565b600080604083850312156148f957600080fd5b82359150602083013561490b8161464d565b809150509250929050565b6020808252825182820181905260009190848201906040850190845b8181101561494e57835183529284019291840191600101614932565b50909695505050505050565b60008060006060848603121561496f57600080fd5b833561497a8161464d565b95602085013595506040909401359392505050565b60005b838110156149aa578181015183820152602001614992565b838111156136815750506000910152565b600081518084526149d381602086016020860161498f565b601f01601f19169290920160200192915050565b60208152614a016020820183516001600160401b03169052565b60006020830151614a1d60408401826001600160401b03169052565b5060408301516001600160401b03811660608401525060608301516001600160401b03811660808401525060808301516001600160a01b03811660a08401525060a08301516001600160a01b03811660c08401525060c08301516001600160801b03811660e08401525060e0830151610100614aa3818501836001600160801b03169052565b8401519050610120614abf848201836001600160801b03169052565b840151610140848101529050613b096101608401826149bb565b60008060008060608587031215614aef57600080fd5b843593506020850135925060408501356001600160401b0380821115614b1457600080fd5b818701915087601f830112614b2857600080fd5b813581811115614b3757600080fd5b886020828501011115614b4957600080fd5b95989497505060200194505050565b600081518084526020808501945080840160005b83811015614b915781516001600160a01b031687529582019590820190600101614b6c565b509495945050505050565b6020815260006129416020830184614b58565b60008060408385031215614bc257600080fd5b50508035926020909101359150565b604081526000614be46040830185614b58565b90508260208301529392505050565b60008083601f840112614c0557600080fd5b5081356001600160401b03811115614c1c57600080fd5b6020830191508360208260051b850101111561336357600080fd5b600080600080600060608688031215614c4f57600080fd5b8535614c5a8161464d565b945060208601356001600160401b0380821115614c7657600080fd5b614c8289838a01614bf3565b90965094506040880135915080821115614c9b57600080fd5b50614ca888828901614bf3565b969995985093965092949392505050565b60008060008060808587031215614ccf57600080fd5b8435614cda8161464d565b9350602085013592506040850135614cf18161464d565b9396929550929360600135925050565b600181811c90821680614d1557607f821691505b60208210811415614d3657634e487b7160e01b600052602260045260246000fd5b50919050565b60208152600061294160208301846149bb565b600060208284031215614d6157600080fd5b81516129418161464d565b6001600160a01b039290921682526001600160801b0316602082015260400190565b600060208284031215614da057600080fd5b81516129418161457b565b634e487b7160e01b600052601160045260246000fd5b6000816000190483118215151615614ddb57614ddb614dab565b500290565b6001600160a01b038981168252888116602083015260408201889052861660608201526001600160801b038581166080830152841660a08201526001600160401b03831660c082015261010060e08201819052600090614e42838201856149bb565b9b9a5050505050505050505050565b8054600090600181811c9080831680614e6b57607f831692505b6020808410821415614e8d57634e487b7160e01b600052602260045260246000fd5b83885260208801828015614ea85760018114614eb957614ee4565b60ff19871682528282019750614ee4565b60008981526020902060005b87811015614ede57815484820152908601908401614ec5565b83019850505b5050505050505092915050565b828152604060208201526000613b096040830184614e51565b600060208284031215614f1c57600080fd5b5051919050565b60008219821115614f3657614f36614dab565b500190565b600082614f5857634e487b7160e01b600052601260045260246000fd5b500490565b600082821015614f6f57614f6f614dab565b500390565b84815260018060a01b0384166020820152826040820152608060608201526000612b2f6080830184614e51565b60006001600160801b0383811690831681811015614fc157614fc1614dab565b039392505050565b634e487b7160e01b600052603260045260246000fd5b83815260406020820152816040820152818360608301376000818301606090810191909152601f909201601f1916010192915050565b634e487b7160e01b600052603160045260246000fd5b6000825161503d81846020870161498f565b919091019291505056fe746f6b656e206e6f7420757361626c6520666f722074686520737065636966696320616374696f6e746f6f206d756368204554482077696c6c206265207573656420666f72206761736e6f7420656e6f7567682045544820696e206761732062616e6b20746f20636f76657220676173756e617574686f72697a6564206163636573730000000000000000000000000063616e6e6f74206578656375746520616374696f6e20696e2073616d6520626c6f636ba26469706673582212204e3e0f954560e50cf8565c8ad0100188169e422521ec2c6ddcbdf9d621c0c84c64736f6c634300080a0033","bytecodeSha1":"11ee29454dda860d9d6316335ff94968c30cc8bd","compiler":{"evm_version":"london","optimizer":{"enabled":true,"runs":200},"version":"0.8.10+commit.fc410830"},"contractName":"TopUpAction","deployedBytecode":"6080604052600436106101f15760003560e01c80635ec185de1161010d578063a2624856116100a0578063bf86d6901161006f578063bf86d690146105aa578063c84ce0d0146105c8578063d41b4e72146105f6578063db375dad14610616578063f77c47911461063657600080fd5b8063a26248561461051d578063b187bd261461053d578063b75d609a14610568578063bba018a11461058857600080fd5b80638456cb59116100dc5780638456cb59146104bd578063859f568b146104d25780638cb164f9146104e75780639466f3011461050757600080fd5b80635ec185de1461045d578063779b66201461047d5780637dc318461461049d57806380fdfe2c146102af57600080fd5b80632a6bc2dd11610185578063506e3ebf11610154578063506e3ebf146103b8578063532913a5146103d857806355c4552b146103fa57806359c442c71461043057600080fd5b80632a6bc2dd1461033657806333229c06146103635780633c93adee146103835780633f4ba83a146103a357600080fd5b80631ecb8ac6116101c15780631ecb8ac6146102af57806322590064146102cf5780632954018c146102e257806329988b041461031657600080fd5b8062435da5146101fd5780630b402267146102495780631441d2271461026b5780631eb8c7a31461028f57600080fd5b366101f857005b600080fd5b34801561020957600080fd5b507f00000000000000000000000000000000000000000000000000000000000000005b6040516001600160a01b0390911681526020015b60405180910390f35b34801561025557600080fd5b50610269610264366004614589565b61066f565b005b34801561027757600080fd5b50610281600a5481565b604051908152602001610240565b34801561029b57600080fd5b506102696102aa3660046145c2565b610aa4565b3480156102bb57600080fd5b5061022c6102ca3660046145c2565b610bc1565b6102696102dd3660046146f9565b610bd4565b3480156102ee57600080fd5b5061022c7f000000000000000000000000000000000000000000000000000000000000000081565b34801561032257600080fd5b50610269610331366004614828565b6112e3565b34801561034257600080fd5b50610356610351366004614828565b611412565b6040516102409190614845565b34801561036f57600080fd5b5061026961037e366004614894565b61149b565b34801561038f57600080fd5b50600b5461022c906001600160a01b031681565b3480156103af57600080fd5b506102696124a5565b3480156103c457600080fd5b506102696103d33660046148e6565b6125bc565b3480156103e457600080fd5b506103ed6126fd565b6040516102409190614916565b34801561040657600080fd5b5061022c6104153660046145c2565b6003602052600090815260409020546001600160a01b031681565b34801561043c57600080fd5b5061045061044b36600461495a565b612795565b60405161024091906149e7565b34801561046957600080fd5b506102696104783660046145c2565b612948565b34801561048957600080fd5b50610281610498366004614ad9565b612aad565b3480156104a957600080fd5b506102816104b8366004614828565b612b39565b3480156104c957600080fd5b50610269612dc9565b3480156104de57600080fd5b50610269612ee6565b3480156104f357600080fd5b50610269610502366004614828565b613004565b34801561051357600080fd5b50610281600c5481565b34801561052957600080fd5b50610269610538366004614828565b61312a565b34801561054957600080fd5b506000546301000000900460ff165b6040519015158152602001610240565b34801561057457600080fd5b50610558610583366004614828565b613250565b34801561059457600080fd5b5061059d61325d565b6040516102409190614b9c565b3480156105b657600080fd5b5060005462010000900460ff16610558565b3480156105d457600080fd5b506105e86105e3366004614baf565b613269565b604051610240929190614bd1565b34801561060257600080fd5b50610269610611366004614c37565b61336a565b34801561062257600080fd5b50610269610631366004614cb9565b6135ca565b34801561064257600080fd5b5061022c7f000000000000000000000000000000000000000000000000000000000000000081565b905090565b3360008181526006602090815260408083208784528252808320868452825280832081516101408101835281546001600160401b038082168352600160401b8204811695830195909552600160801b808204861694830194909452600160c01b9004909316606084015260018101546001600160a01b03908116608085015260028201541660a084015260038101546001600160801b0380821660c0860152929004821660e084015260048101549091166101008301526005810180546101208401919061073c90614d01565b80601f016020809104026020016040519081016040528092919081815260200182805461076890614d01565b80156107b55780601f1061078a576101008083540402835291602001916107b5565b820191906000526020600020905b81548152906001019060200180831161079857829003601f168201915b50505091909252505081516040805180820190915260128152716e6f20706f736974696f6e2065786973747360701b60208201529293506001600160401b03161515905061081f5760405162461bcd60e51b81526004016108169190614d3c565b60405180910390fd5b5060a081015160405163059eadeb60e41b81526001600160a01b0391821660048201527f000000000000000000000000000000000000000000000000000000000000000091600091908316906359eadeb090602401602060405180830381865afa158015610891573d6000803e3d6000fd5b505050506040513d601f19601f820116820180604052508101906108b59190614d4f565b610100840151604051636a278cd960e01b815291925082916001600160a01b03831691636a278cd9916108ec918991600401614d6c565b600060405180830381600087803b15801561090657600080fd5b505af115801561091a573d6000803e3d6000fd5b5050505085156109bb576101008401516040516305c2fbcf60e31b81526001600160801b0390911660048201526001600160a01b03821690632e17de7890602401600060405180830381600087803b15801561097557600080fd5b505af1158015610989573d6000803e3d6000fd5b50505061010085015160a08601516109b692506001600160a01b03169087906001600160801b0316613701565b610a20565b61010084015160405163a9059cbb60e01b81526001600160a01b0383169163a9059cbb916109ed918991600401614d6c565b600060405180830381600087803b158015610a0757600080fd5b505af1158015610a1b573d6000803e3d6000fd5b505050505b610a2b858989613769565b610a3d836001600160a01b0316613852565b6040516335272c2560e21b81526001600160a01b038781166004830152919091169063d49cb09490602401600060405180830381600087803b158015610a8257600080fd5b505af1158015610a96573d6000803e3d6000fd5b505050505050505050505050565b7f0000000000000000000000000000000000000000000000000000000000000000604051632474521560e21b815269676f7665726e616e636560b01b60048201523360248201526001600160a01b0391909116906391d1485490604401602060405180830381865afa158015610b1e573d6000803e3d6000fd5b505050506040513d601f19601f82011682018060405250810190610b429190614d8e565b6040518060400160405280601381526020016000805160206150b883398151915281525090610b845760405162461bcd60e51b81526004016108169190614d3c565b50600c8190556040518181527fd8d8e400e65b9de8d7fddc7ee59eb69e0add7c2535dae5cdf7c5af7af0d04188906020015b60405180910390a150565b6000610bce82600061388b565b92915050565b60005460408051808201909152601281527120b1ba34b7b71034b99039b43aba3237bbb760711b60208201529062010000900460ff1615610c285760405162461bcd60e51b81526004016108169190614d3c565b5060005460408051808201909152601081526f1058dd1a5bdb881a5cc81c185d5cd95960821b6020820152906301000000900460ff1615610c7c5760405162461bcd60e51b81526004016108169190614d3c565b50637735940081604001516001600160401b031610156040518060400160405280600f81526020016e696e76616c6964206d61782066656560881b81525090610cd85760405162461bcd60e51b81526004016108169190614d3c565b50610ce4600484613909565b604051806040016040528060128152602001711c1c9bdd1bd8dbdb081b9bdd08199bdd5b9960721b81525090610d2d5760405162461bcd60e51b81526004016108169190614d3c565b5060008160c001516001600160801b0316116040518060400160405280600e81526020016d1a5b9d985b1a5908185b5bdd5b9d60921b81525090610d845760405162461bcd60e51b81526004016108169190614d3c565b50670de0b6b3a764000081600001516001600160401b0316116040518060400160405280600e81526020016d1a5b9d985b1a5908185b5bdd5b9d60921b81525090610de25760405162461bcd60e51b81526004016108169190614d3c565b508060e001516001600160801b03168160c001516001600160801b031611156040518060400160405280600e81526020016d1a5b9d985b1a5908185b5bdd5b9d60921b81525090610e465760405162461bcd60e51b81526004016108169190614d3c565b503360009081526006602090815260408083208784528252808320868452825291829020548251808401909352601783527f706f736974696f6e20616c726561647920657869737473000000000000000000918301919091526001600160401b031615610ec65760405162461bcd60e51b81526004016108169190614d3c565b50610ed98160a001518260800151613921565b604051806040016040528060138152602001721cddd85c081c185d1a081b9bdd08199bdd5b99606a1b81525090610f235760405162461bcd60e51b81526004016108169190614d3c565b50610f318160a00151613250565b6040518060600160405280602881526020016150486028913990610f685760405162461bcd60e51b81526004016108169190614d3c565b506000600c5482604001516001600160401b0316610fa98460c001516001600160801b03168560e001516001600160801b0316613a3090919063ffffffff16565b610fb39190614dc1565b610fbd9190614dc1565b9050803410156040518060400160405280601a81526020017f76616c756520746f6f206c6f7720746f20636f76657220676173000000000000815250906110175760405162461bcd60e51b81526004016108169190614d3c565b50600061103a8360a0015184608001518560e001516001600160801b0316613a53565b9050611055338460a0015183876001600160801b0316613b11565b6110877f00000000000000000000000000000000000000000000000000000000000000006001600160a01b0316613852565b60405163aa67c91960e01b81523360048201526001600160a01b03919091169063aa67c9199034906024016000604051808303818588803b1580156110cb57600080fd5b505af11580156110df573d6000803e3d6000fd5b5050506001600160401b0342166060860152506110fd905081613c33565b6001600160801b0390811661010085019081523360009081526006602090815260408083208b845282528083208a845282529182902087518154838a0151948a015160608b01516001600160401b039384166001600160801b031993841617600160401b97851697909702969096178816600160801b91841682026001600160c01b031617600160c01b939096169290920294909417825560808901516001830180546001600160a01b03199081166001600160a01b039384161790915560a08b0151600285018054909216921691909117905560c089015160e08a015190871690871690910217600382015592516004840180549093169416939093179055610120850151805186936112189260058501929101906144a9565b505033600081815260076020908152604080832081518083019092528b82528183018b81528154600181810184559286529390942091516002909302909101918255915191015561126c9150600890613ca0565b5082600001516001600160401b031685877ff8c4338a655ae888222012879ef5bdbc46ca5bde6b154b5565048cfccbc00781338760a001518689608001518a60c001518b60e001518c604001518d61012001516040516112d3989796959493929190614de0565b60405180910390a4505050505050565b7f0000000000000000000000000000000000000000000000000000000000000000604051632474521560e21b815269676f7665726e616e636560b01b60048201523360248201526001600160a01b0391909116906391d1485490604401602060405180830381865afa15801561135d573d6000803e3d6000fd5b505050506040513d601f19601f820116820180604052508101906113819190614d8e565b6040518060400160405280601381526020016000805160206150b8833981519152815250906113c35760405162461bcd60e51b81526004016108169190614d3c565b50600b80546001600160a01b0319166001600160a01b0383169081179091556040519081527fab9d6b7e6a08b170060612fe7982b02517c02c12c50e77db3efebf1f665d52e290602001610bb6565b6001600160a01b0381166000908152600760209081526040808320805482518185028101850190935280835260609492939192909184015b828210156114905783829060005260206000209060020201604051806040016040529081600082015481526020016001820154815250508152602001906001019061144a565b505050509050919050565b60005460408051808201909152601281527120b1ba34b7b71034b99039b43aba3237bbb760711b60208201529062010000900460ff16156114ef5760405162461bcd60e51b81526004016108169190614d3c565b5060005460408051808201909152601081526f1058dd1a5bdb881a5cc81c185d5cd95960821b6020820152906301000000900460ff16156115435760405162461bcd60e51b81526004016108169190614d3c565b506040516306547d4b60e21b81523360048201527f00000000000000000000000000000000000000000000000000000000000000006001600160a01b031690631951f52c90602401602060405180830381865afa1580156115a8573d6000803e3d6000fd5b505050506040513d601f19601f820116820180604052508101906115cc9190614d8e565b6040518060400160405280601d81526020017f4e6f7420656e6f756768204d45524f20746f6b656e73207374616b6564000000815250906116205760405162461bcd60e51b81526004016108169190614d3c565b506116f1604051806102e001604052806000815260200160008152602001600081526020016000815260200160008152602001600081526020016000815260200160008152602001600081526020016000815260200160006001600160801b03168152602001600015158152602001600081526020016000815260200160008152602001600081526020016000815260200160008152602001600081526020016000815260200160006001600160a01b0316815260200160001515815260200160006001600160a01b031681525090565b5a6101a08201526001600160a01b038616600090815260066020908152604080832088845282528083208684528252918290208054835180850190945260128452716e6f20706f736974696f6e2065786973747360701b9284019290925291906001600160401b03166117775760405162461bcd60e51b81526004016108169190614d3c565b506003810154604080518082019091526014815273696e73756666696369656e742062616c616e636560601b602082015290600160801b90046001600160801b03166117d65760405162461bcd60e51b81526004016108169190614d3c565b50805460408051606081019091526023808252600160c01b9092046001600160401b03164211916150d86020830139906118235760405162461bcd60e51b81526004016108169190614d3c565b5061182f84600161388b565b6001600160a01b03166102c0830181905260405163673f349760e11b815263ce7e692e906118669089906005860190600401614ef1565b602060405180830381865afa158015611883573d6000803e3d6000fd5b505050506040513d601f19601f820116820180604052508101906118a79190614f0a565b6080830181905281546040805180820190915260168152751a5b9cdd59999a58da595b9d081d1a1c995cda1bdb1960521b6020820152916001600160401b03909116116119075760405162461bcd60e51b81526004016108169190614d3c565b507f0000000000000000000000000000000000000000000000000000000000000000600061193d6001600160a01b038316613852565b600c546102008601819052909150611956903a90614dc1565b610220850152825461197890600160401b90046001600160401b031648614f23565b6101e085018190523a101561198f573a6101e08501525b82546101e0850151600160801b9091046001600160401b031610156119c7578254600160801b90046001600160401b03166101e08501525b84846101e001518561020001516119de9190614dc1565b6119e89190614f23565b84610220015111156040518060600160405280602181526020016150706021913990611a275760405162461bcd60e51b81526004016108169190614d3c565b506040516370a0823160e01b81526001600160a01b038a811660048301528216906370a0823190602401602060405180830381865afa158015611a6e573d6000803e3d6000fd5b505050506040513d601f19601f82011682018060405250810190611a929190614f0a565b610180850181905261022085015190611aac908790614f23565b10156040518060600160405280602781526020016150916027913990611ae55760405162461bcd60e51b81526004016108169190614d3c565b5060038301546001600160801b03600160801b82048116610140870152600a54610100870181905291168552611b2f90611b2790670de0b6b3a7640000614f23565b855190613cb5565b606085018190526101408501516001600160801b03161015611b89576101408401516001600160801b03166060850152610100840151611b8690611b7b90670de0b6b3a7640000614f23565b606086015190613cca565b84525b6002830154604051630956fef360e21b81526001600160a01b03918216600482015260009184169063255bfbcc90602401602060405180830381865afa158015611bd7573d6000803e3d6000fd5b505050506040513d601f19601f82011682018060405250810190611bfb9190614d4f565b9050806001600160a01b0316639816f4736040518163ffffffff1660e01b8152600401602060405180830381865afa158015611c3b573d6000803e3d6000fd5b505050506040513d601f19601f82011682018060405250810190611c5f9190614d4f565b8561028001906001600160a01b031690816001600160a01b031681525050806001600160a01b0316633ba0b9a96040518163ffffffff1660e01b8152600401602060405180830381865afa158015611cbb573d6000803e3d6000fd5b505050506040513d601f19601f82011682018060405250810190611cdf9190614f0a565b60a086018190526060860151611cf491613cdf565b60c0860181905260048501546001600160801b03161015611d5b5760048401546001600160801b031660c0860152610100850151611d3a90670de0b6b3a7640000614f23565b8560a001518660c00151611d4e9190614dc1565b611d589190614f3b565b85525b60a08501518551611d6b91613cdf565b60e0860181905260c0860151611d819190614f5d565b6040868101919091526002850154905163059eadeb60e41b81526001600160a01b0391821660048201526000918516906359eadeb090602401602060405180830381865afa158015611dd7573d6000803e3d6000fd5b505050506040513d601f19601f82011682018060405250810190611dfb9190614d4f565b60c08701516040516305c2fbcf60e31b81529192506001600160a01b03831691632e17de7891611e319160040190815260200190565b600060405180830381600087803b158015611e4b57600080fd5b505af1158015611e5f573d6000803e3d6000fd5b5050505060c0860151604051636a278cd960e01b81526001600160a01b038d81166004830152602482019290925290821690636a278cd990604401600060405180830381600087803b158015611eb457600080fd5b505af1158015611ec8573d6000803e3d6000fd5b50505060e087015160405163db006a7560e01b81526001600160a01b038516925063db006a7591611eff9160040190815260200190565b6020604051808303816000875af1158015611f1e573d6000803e3d6000fd5b505050506040513d601f19601f82011682018060405250810190611f429190614f0a565b602087015260a08601516040870151611f5a91613cb5565b8660200151611f699190614f23565b61012087015260018501546000906001600160a01b0316611f8f57506020860151611fad565b60018601546102c0880151611fad916001600160a01b031690613d01565b866102c001516001600160a01b031663dac6de72828d8960010160009054906101000a90046001600160a01b03168b602001518b6005016040518663ffffffff1660e01b81526004016120039493929190614f74565b6000604051808303818588803b15801561201c57600080fd5b505af1158015612030573d6000803e3d6000fd5b50505050508661012001518761014001516001600160801b031611156120ab5761205e876101200151613c33565b600387018054601090612082908490600160801b90046001600160801b0316614fa1565b92506101000a8154816001600160801b0302191690836001600160801b031602179055506120bd565b6003860180546001600160801b031690555b6120ca8760c00151613c33565b6004870180546000906120e79084906001600160801b0316614fa1565b92506101000a8154816001600160801b0302191690836001600160801b031602179055508560030160109054906101000a90046001600160801b03166001600160801b031660001480612145575060048601546001600160801b0316155b15156102a08801526040870151600287015461216e918e918d91906001600160a01b0316613d99565b866102a00151156122865760048601546001600160801b03161561227b57816001600160a01b031663a9059cbb8d8860040160009054906101000a90046001600160801b03166040518363ffffffff1660e01b81526004016121d1929190614d6c565b600060405180830381600087803b1580156121eb57600080fd5b505af11580156121ff573d6000803e3d6000fd5b50505050816001600160a01b0316636a278cd98d8860040160009054906101000a90046001600160801b03166040518363ffffffff1660e01b8152600401612248929190614d6c565b600060405180830381600087803b15801561226257600080fd5b505af1158015612276573d6000803e3d6000fd5b505050505b6122868c8c8b613769565b600286015460c088015160018801546020808b0151604080516001600160a01b03968716815292830194909452918416928101929092526060820152908d16908a908d907fa25497780b9913305877fbabb319e19163fec169ddf54e7f2ebb2903b598d32e9060800160405180910390a45a876101a001516123089190614f5d565b6101c088018190526101e08801516123209190614dc1565b61026088018190526101808801511015612341576101808701516102608801525b6101c0870151612351903a614dc1565b610240880181905261026088015161236a908a90614f23565b10156040518060400160405280601981526020017f746f6f206d75636820455448207573656420666f722067617300000000000000815250906123c05760405162461bcd60e51b81526004016108169190614d3c565b50610260870151604051634aaad4a160e11b81526001600160a01b038e81166004830152336024830152604482019290925290851690639555a94290606401600060405180830381600087803b15801561241957600080fd5b505af115801561242d573d6000803e3d6000fd5b50505050866102a0015115610a96576040516335272c2560e21b81526001600160a01b038d8116600483015285169063d49cb09490602401600060405180830381600087803b15801561247f57600080fd5b505af1158015612493573d6000803e3d6000fd5b50505050505050505050505050505050565b7f0000000000000000000000000000000000000000000000000000000000000000604051632474521560e21b815269676f7665726e616e636560b01b60048201523360248201526001600160a01b0391909116906391d1485490604401602060405180830381865afa15801561251f573d6000803e3d6000fd5b505050506040513d601f19601f820116820180604052508101906125439190614d8e565b6040518060400160405280601381526020016000805160206150b8833981519152815250906125855760405162461bcd60e51b81526004016108169190614d3c565b506000805463ff000000191681556040517fa45f47fdea8a1efdd9029a5691c7f759c32b7c698632b563573e155625d169339190a1565b7f0000000000000000000000000000000000000000000000000000000000000000604051632474521560e21b815269676f7665726e616e636560b01b60048201523360248201526001600160a01b0391909116906391d1485490604401602060405180830381865afa158015612636573d6000803e3d6000fd5b505050506040513d601f19601f8201168201806040525081019061265a9190614d8e565b6040518060400160405280601381526020016000805160206150b88339815191528152509061269c5760405162461bcd60e51b81526004016108169190614d3c565b5060006126aa83600061388b565b90506126b7838284613e23565b604080518481526001600160a01b03841660208201527f4db275e594c5465a26ca702a50972c6f6f3f055402e30cfee962cd2c6b459539910160405180910390a1505050565b6060600061270b6004613e75565b90506000816001600160401b03811115612727576127276145f7565b604051908082528060200260200182016040528015612750578160200160208202803683370190505b50905060005b8281101561278e57612769600482613e7f565b82828151811061277b5761277b614fc9565b6020908102919091010152600101612756565b5092915050565b604080516101408101825260008082526020820181905291810182905260608082018390526080820183905260a0820183905260c0820183905260e082018390526101008201929092526101208101919091526001600160a01b038085166000908152600660209081526040808320878452825280832086845282529182902082516101408101845281546001600160401b038082168352600160401b8204811694830194909452600160801b808204851695830195909552600160c01b90049092166060830152600181015484166080830152600281015490931660a082015260038301546001600160801b0380821660c0840152929004821660e08201526004830154909116610100820152600582018054919291610120840191906128bc90614d01565b80601f01602080910402602001604051908101604052809291908181526020018280546128e890614d01565b80156129355780601f1061290a57610100808354040283529160200191612935565b820191906000526020600020905b81548152906001019060200180831161291857829003601f168201915b50505050508152505090505b9392505050565b7f0000000000000000000000000000000000000000000000000000000000000000604051632474521560e21b815269676f7665726e616e636560b01b60048201523360248201526001600160a01b0391909116906391d1485490604401602060405180830381865afa1580156129c2573d6000803e3d6000fd5b505050506040513d601f19601f820116820180604052508101906129e69190614d8e565b6040518060400160405280601381526020016000805160206150b883398151915281525090612a285760405162461bcd60e51b81526004016108169190614d3c565b5060408051808201909152600e81526d1a5b9d985b1a5908185b5bdd5b9d60921b60208201526706f05b59d3b20000821115612a775760405162461bcd60e51b81526004016108169190614d3c565b50600a8190556040518181527f5d11c783e271d8b349db953b7379433a5877a135a3d10e91dc92b02c4b45463b90602001610bb6565b600080612abb86600161388b565b60405163673f349760e11b81529091506001600160a01b0382169063ce7e692e90612aee90889088908890600401614fdf565b602060405180830381865afa158015612b0b573d6000803e3d6000fd5b505050506040513d601f19601f82011682018060405250810190612b2f9190614f0a565b9695505050505050565b6001600160a01b0381166000908152600760209081526040808320805482518185028101850190935280835284938493929190849084015b82821015612bb757838290600052602060002090600202016040518060400160405290816000820154815260200160018201548152505081526020019060010190612b71565b5050600c548351939450929150600090505b81811015612dbe576000848281518110612be557612be5614fc9565b6020908102919091018101516001600160a01b03808b166000908152600684526040808220845183528552808220848601518352855280822081516101408101835281546001600160401b038082168352600160401b8204811698830198909852600160801b808204891694830194909452600160c01b90049096166060870152600181015484166080870152600281015490931660a086015260038301546001600160801b0380821660c0880152919004811660e086015260048301541661010085015260058201805493955090939261012084019190612cc690614d01565b80601f0160208091040260200160405190810160405280929190818152602001828054612cf290614d01565b8015612d3f5780601f10612d1457610100808354040283529160200191612d3f565b820191906000526020600020905b815481529060010190602001808311612d2257829003601f168201915b50505050508152505090506000612d798260c001516001600160801b03168360e001516001600160801b0316613a3090919063ffffffff16565b60408301519091506001600160401b0316612d948783614dc1565b612d9e9190614dc1565b612da89089614f23565b9750505050612db78160010190565b9050612bc9565b509295945050505050565b7f0000000000000000000000000000000000000000000000000000000000000000604051632474521560e21b815269676f7665726e616e636560b01b60048201523360248201526001600160a01b0391909116906391d1485490604401602060405180830381865afa158015612e43573d6000803e3d6000fd5b505050506040513d601f19601f82011682018060405250810190612e679190614d8e565b6040518060400160405280601381526020016000805160206150b883398151915281525090612ea95760405162461bcd60e51b81526004016108169190614d3c565b506000805463ff000000191663010000001781556040517f9e87fac88ff661f02d44f95383c817fece4bce600a3dab7a54406878b965e7529190a1565b6931b7b73a3937b63632b960b11b7f0000000000000000000000000000000000000000000000000000000000000000604051632474521560e21b8152600481018390523360248201526001600160a01b0391909116906391d1485490604401602060405180830381865afa158015612f62573d6000803e3d6000fd5b505050506040513d601f19601f82011682018060405250810190612f869190614d8e565b6040518060400160405280601381526020016000805160206150b883398151915281525090612fc85760405162461bcd60e51b81526004016108169190614d3c565b506000805462ff00001916620100001781556040517f4426aa1fb73e391071491fcfe21a88b5c38a0a0333a1f6e77161470439704cf89190a150565b7f0000000000000000000000000000000000000000000000000000000000000000604051632474521560e21b815269676f7665726e616e636560b01b60048201523360248201526001600160a01b0391909116906391d1485490604401602060405180830381865afa15801561307e573d6000803e3d6000fd5b505050506040513d601f19601f820116820180604052508101906130a29190614d8e565b6040518060400160405280601381526020016000805160206150b8833981519152815250906130e45760405162461bcd60e51b81526004016108169190614d3c565b506130f0600182613ca0565b506040516001600160a01b03821681527fc04e88168c7bca3921be8a31e1ab90e8b90bcf4a47e28b431c100a06ece42e7290602001610bb6565b7f0000000000000000000000000000000000000000000000000000000000000000604051632474521560e21b815269676f7665726e616e636560b01b60048201523360248201526001600160a01b0391909116906391d1485490604401602060405180830381865afa1580156131a4573d6000803e3d6000fd5b505050506040513d601f19601f820116820180604052508101906131c89190614d8e565b6040518060400160405280601381526020016000805160206150b88339815191528152509061320a5760405162461bcd60e51b81526004016108169190614d3c565b50613216600182613e8b565b506040516001600160a01b03821681527fe1ecc5a412d3ece05e72d98230002795f88f59a6fdf4e851208fecd31100f1bb90602001610bb6565b6000610bce600183613ea0565b606061066a6001613ec2565b60606000806132786008613e75565b905080851061329a575050604080516000808252602082019092529150613363565b6132a48582614f5d565b84106132b7576132b48582614f5d565b93505b6000846001600160401b038111156132d1576132d16145f7565b6040519080825280602002602001820160405280156132fa578160200160208202803683370190505b50905060005b858110156133505761331d6133158883614f23565b600890613e7f565b82828151811061332f5761332f614fc9565b6001600160a01b039290921660209283029190910190910152600101613300565b508061335c8688614f23565b9350935050505b9250929050565b600054610100900460ff166133855760005460ff1615613389565b303b155b6133ec5760405162461bcd60e51b815260206004820152602e60248201527f496e697469616c697a61626c653a20636f6e747261637420697320616c72656160448201526d191e481a5b9a5d1a585b1a5e995960921b6064820152608401610816565b600054610100900460ff1615801561340e576000805461ffff19166101011790555b7f0000000000000000000000000000000000000000000000000000000000000000604051632474521560e21b815269676f7665726e616e636560b01b60048201523360248201526001600160a01b0391909116906391d1485490604401602060405180830381865afa158015613488573d6000803e3d6000fd5b505050506040513d601f19601f820116820180604052508101906134ac9190614d8e565b6040518060400160405280601381526020016000805160206150b8833981519152815250906134ee5760405162461bcd60e51b81526004016108169190614d3c565b5060408051808201909152601081526f1a5b9d985b1a5908185c99dd5b595b9d60821b60208201528483146135365760405162461bcd60e51b81526004016108169190614d3c565b50600b80546001600160a01b0319166001600160a01b03881617905560005b848110156135af576135a786868381811061357257613572614fc9565b90506020020135600086868581811061358d5761358d614fc9565b90506020020160208101906135a29190614828565b613e23565b600101613555565b5080156135c2576000805461ff00191690555b505050505050565b60005460408051808201909152601281527120b1ba34b7b71034b99039b43aba3237bbb760711b60208201529062010000900460ff161561361e5760405162461bcd60e51b81526004016108169190614d3c565b5060005460408051808201909152601081526f1058dd1a5bdb881a5cc81c185d5cd95960821b6020820152906301000000900460ff16156136725760405162461bcd60e51b81526004016108169190614d3c565b5061368184848484600061149b565b50505050565b6040516321f8a72160e01b81526a3937b632a6b0b730b3b2b960a91b60048201526000906001600160a01b038316906321f8a721906024015b602060405180830381865afa1580156136dd573d6000803e3d6000fd5b505050506040513d601f19601f82011682018060405250810190610bce9190614d4f565b6040516001600160a01b03831660248201526044810182905261376490849063a9059cbb60e01b906064015b60408051601f198184030181529190526020810180516001600160e01b03166001600160e01b031990931692909217909152613ecf565b505050565b6001600160a01b0383166000908152600660209081526040808320858452825280832084845290915281208181556001810180546001600160a01b03199081169091556002820180549091169055600381018290556004810180546001600160801b0319169055906137de6005830182614529565b50506137eb838383613fa1565b6001600160a01b03831660009081526007602052604090205461381557613813600884613e8b565b505b8082846001600160a01b03167f72b5cbd3723f2cc2fa8b384de87a995691d051135c5e19322a55d6e835e3deaa60405160405180910390a4505050565b6040516321f8a72160e01b81526667617342616e6b60c81b60048201526000906001600160a01b038316906321f8a721906024016136c0565b6000828152600360205260408120546001600160a01b03168215806138b857506001600160a01b03811615155b604051806040016040528060128152602001711c1c9bdd1bd8dbdb081b9bdd08199bdd5b9960721b815250906139015760405162461bcd60e51b81526004016108169190614d3c565b509392505050565b60008181526001830160205260408120541515612941565b604051630956fef360e21b81526001600160a01b03838116600483015260009182917f0000000000000000000000000000000000000000000000000000000000000000169063255bfbcc90602401602060405180830381865afa15801561398c573d6000803e3d6000fd5b505050506040513d601f19601f820116820180604052508101906139b09190614d4f565b9050826001600160a01b0316816001600160a01b0316639816f4736040518163ffffffff1660e01b8152600401602060405180830381865afa1580156139fa573d6000803e3d6000fd5b505050506040513d601f19601f82011682018060405250810190613a1e9190614d4f565b6001600160a01b031614949350505050565b6000816001613a3f8286614f23565b613a499190614f5d565b6129419190614f3b565b6040516369c2390b60e11b81526001600160a01b037f0000000000000000000000000000000000000000000000000000000000000000811660048301528085166024830152831660448201526064810182905260009073__$69d5f919a2332fd1585cf8aec6346e89b0$__9063d384721690608401602060405180830381865af4158015613ae5573d6000803e3d6000fd5b505050506040513d601f19601f82011682018060405250810190613b099190614f0a565b949350505050565b60405163059eadeb60e41b81526001600160a01b0384811660048301526000917f0000000000000000000000000000000000000000000000000000000000000000909116906359eadeb090602401602060405180830381865afa158015613b7c573d6000803e3d6000fd5b505050506040513d601f19601f82011682018060405250810190613ba09190614d4f565b604051631b89105360e31b81526001600160a01b038083166004830152808816602483015286166044820152606481018590526084810184905290915073__$69d5f919a2332fd1585cf8aec6346e89b0$__9063dc4882989060a40160006040518083038186803b158015613c1457600080fd5b505af4158015613c28573d6000803e3d6000fd5b505050505050505050565b60006001600160801b03821115613c9c5760405162461bcd60e51b815260206004820152602760248201527f53616665436173743a2076616c756520646f65736e27742066697420696e20316044820152663238206269747360c81b6064820152608401610816565b5090565b6000612941836001600160a01b0384166140a0565b6000670de0b6b3a7640000613a498385614dc1565b600081613a49670de0b6b3a764000085614dc1565b600081600181613cf7670de0b6b3a764000087614dc1565b613a3f9190614f23565b604051636eb1769f60e11b81523060048201526001600160a01b0382811660248301526000919084169063dd62ed3e90604401602060405180830381865afa158015613d51573d6000803e3d6000fd5b505050506040513d601f19601f82011682018060405250810190613d759190614f0a565b1115613d7f575050565b613d956001600160a01b038316826000196140ef565b5050565b600b546001600160a01b0390811690613db590831682856140ef565b6040516367ec9f1960e11b81526001600160a01b038681166004830152858116602483015260448201859052838116606483015282169063cfd93e3290608401600060405180830381600087803b158015613e0f57600080fd5b505af1158015613c28573d6000803e3d6000fd5b600083815260036020526040902080546001600160a01b0319166001600160a01b038316908117909155613e5c57613681600484614204565b6001600160a01b03821661376457613681600484614210565b6000610bce825490565b6000612941838361421c565b6000612941836001600160a01b038416614246565b6001600160a01b03811660009081526001830160205260408120541515612941565b6060600061294183614339565b6000613f24826040518060400160405280602081526020017f5361666545524332303a206c6f772d6c6576656c2063616c6c206661696c6564815250856001600160a01b03166143959092919063ffffffff16565b8051909150156137645780806020019051810190613f429190614d8e565b6137645760405162461bcd60e51b815260206004820152602a60248201527f5361666545524332303a204552433230206f7065726174696f6e20646964206e6044820152691bdd081cdd58d8d9595960b21b6064820152608401610816565b6001600160a01b0383166000908152600760205260408120805490915b818110156135c2576000838281548110613fda57613fda614fc9565b906000526020600020906002020190508581600001541480156140005750848160010154145b156140975783614011600185614f5d565b8154811061402157614021614fc9565b906000526020600020906002020184838154811061404157614041614fc9565b600091825260209091208254600290920201908155600191820154910155835484908061407057614070615015565b60008281526020812060026000199093019283020181815560010155905550505050505050565b50600101613fbe565b60008181526001830160205260408120546140e757508154600181810184556000848152602080822090930184905584548482528286019093526040902091909155610bce565b506000610bce565b8015806141695750604051636eb1769f60e11b81523060048201526001600160a01b03838116602483015284169063dd62ed3e90604401602060405180830381865afa158015614143573d6000803e3d6000fd5b505050506040513d601f19601f820116820180604052508101906141679190614f0a565b155b6141d45760405162461bcd60e51b815260206004820152603660248201527f5361666545524332303a20617070726f76652066726f6d206e6f6e2d7a65726f60448201527520746f206e6f6e2d7a65726f20616c6c6f77616e636560501b6064820152608401610816565b6040516001600160a01b03831660248201526044810182905261376490849063095ea7b360e01b9060640161372d565b60006129418383614246565b600061294183836140a0565b600082600001828154811061423357614233614fc9565b9060005260206000200154905092915050565b6000818152600183016020526040812054801561432f57600061426a600183614f5d565b855490915060009061427e90600190614f5d565b90508181146142e357600086600001828154811061429e5761429e614fc9565b90600052602060002001549050808760000184815481106142c1576142c1614fc9565b6000918252602080832090910192909255918252600188019052604090208390555b85548690806142f4576142f4615015565b600190038181906000526020600020016000905590558560010160008681526020019081526020016000206000905560019350505050610bce565b6000915050610bce565b60608160000180548060200260200160405190810160405280929190818152602001828054801561438957602002820191906000526020600020905b815481526020019060010190808311614375575b50505050509050919050565b6060613b098484600085856001600160a01b0385163b6143f75760405162461bcd60e51b815260206004820152601d60248201527f416464726573733a2063616c6c20746f206e6f6e2d636f6e74726163740000006044820152606401610816565b600080866001600160a01b03168587604051614413919061502b565b60006040518083038185875af1925050503d8060008114614450576040519150601f19603f3d011682016040523d82523d6000602084013e614455565b606091505b5091509150614465828286614470565b979650505050505050565b6060831561447f575081612941565b82511561448f5782518084602001fd5b8160405162461bcd60e51b81526004016108169190614d3c565b8280546144b590614d01565b90600052602060002090601f0160209004810192826144d7576000855561451d565b82601f106144f057805160ff191683800117855561451d565b8280016001018555821561451d579182015b8281111561451d578251825591602001919060010190614502565b50613c9c929150614566565b50805461453590614d01565b6000825580601f10614545575050565b601f0160209004906000526020600020908101906145639190614566565b50565b5b80821115613c9c5760008155600101614567565b801515811461456357600080fd5b60008060006060848603121561459e57600080fd5b833592506020840135915060408401356145b78161457b565b809150509250925092565b6000602082840312156145d457600080fd5b5035919050565b80356001600160801b03811681146145f257600080fd5b919050565b634e487b7160e01b600052604160045260246000fd5b60405161014081016001600160401b0381118282101715614630576146306145f7565b60405290565b80356001600160401b03811681146145f257600080fd5b6001600160a01b038116811461456357600080fd5b80356145f28161464d565b600082601f83011261467e57600080fd5b81356001600160401b0380821115614698576146986145f7565b604051601f8301601f19908116603f011681019082821181831017156146c0576146c06145f7565b816040528381528660208588010111156146d957600080fd5b836020870160208301376000602085830101528094505050505092915050565b6000806000806080858703121561470f57600080fd5b8435935060208501359250614726604086016145db565b915060608501356001600160401b038082111561474257600080fd5b90860190610140828903121561475757600080fd5b61475f61460d565b61476883614636565b815261477660208401614636565b602082015261478760408401614636565b604082015261479860608401614636565b60608201526147a960808401614662565b60808201526147ba60a08401614662565b60a08201526147cb60c084016145db565b60c08201526147dc60e084016145db565b60e08201526101006147ef8185016145db565b90820152610120838101358381111561480757600080fd5b6148138b82870161466d565b82840152505080935050505092959194509250565b60006020828403121561483a57600080fd5b81356129418161464d565b602080825282518282018190526000919060409081850190868401855b8281101561488757815180518552860151868501529284019290850190600101614862565b5091979650505050505050565b600080600080600060a086880312156148ac57600080fd5b85356148b78161464d565b94506020860135935060408601356148ce8161464d565b94979396509394606081013594506080013592915050565b600080604083850312156148f957600080fd5b82359150602083013561490b8161464d565b809150509250929050565b6020808252825182820181905260009190848201906040850190845b8181101561494e57835183529284019291840191600101614932565b50909695505050505050565b60008060006060848603121561496f57600080fd5b833561497a8161464d565b95602085013595506040909401359392505050565b60005b838110156149aa578181015183820152602001614992565b838111156136815750506000910152565b600081518084526149d381602086016020860161498f565b601f01601f19169290920160200192915050565b60208152614a016020820183516001600160401b03169052565b60006020830151614a1d60408401826001600160401b03169052565b5060408301516001600160401b03811660608401525060608301516001600160401b03811660808401525060808301516001600160a01b03811660a08401525060a08301516001600160a01b03811660c08401525060c08301516001600160801b03811660e08401525060e0830151610100614aa3818501836001600160801b03169052565b8401519050610120614abf848201836001600160801b03169052565b840151610140848101529050613b096101608401826149bb565b60008060008060608587031215614aef57600080fd5b843593506020850135925060408501356001600160401b0380821115614b1457600080fd5b818701915087601f830112614b2857600080fd5b813581811115614b3757600080fd5b886020828501011115614b4957600080fd5b95989497505060200194505050565b600081518084526020808501945080840160005b83811015614b915781516001600160a01b031687529582019590820190600101614b6c565b509495945050505050565b6020815260006129416020830184614b58565b60008060408385031215614bc257600080fd5b50508035926020909101359150565b604081526000614be46040830185614b58565b90508260208301529392505050565b60008083601f840112614c0557600080fd5b5081356001600160401b03811115614c1c57600080fd5b6020830191508360208260051b850101111561336357600080fd5b600080600080600060608688031215614c4f57600080fd5b8535614c5a8161464d565b945060208601356001600160401b0380821115614c7657600080fd5b614c8289838a01614bf3565b90965094506040880135915080821115614c9b57600080fd5b50614ca888828901614bf3565b969995985093965092949392505050565b60008060008060808587031215614ccf57600080fd5b8435614cda8161464d565b9350602085013592506040850135614cf18161464d565b9396929550929360600135925050565b600181811c90821680614d1557607f821691505b60208210811415614d3657634e487b7160e01b600052602260045260246000fd5b50919050565b60208152600061294160208301846149bb565b600060208284031215614d6157600080fd5b81516129418161464d565b6001600160a01b039290921682526001600160801b0316602082015260400190565b600060208284031215614da057600080fd5b81516129418161457b565b634e487b7160e01b600052601160045260246000fd5b6000816000190483118215151615614ddb57614ddb614dab565b500290565b6001600160a01b038981168252888116602083015260408201889052861660608201526001600160801b038581166080830152841660a08201526001600160401b03831660c082015261010060e08201819052600090614e42838201856149bb565b9b9a5050505050505050505050565b8054600090600181811c9080831680614e6b57607f831692505b6020808410821415614e8d57634e487b7160e01b600052602260045260246000fd5b83885260208801828015614ea85760018114614eb957614ee4565b60ff19871682528282019750614ee4565b60008981526020902060005b87811015614ede57815484820152908601908401614ec5565b83019850505b5050505050505092915050565b828152604060208201526000613b096040830184614e51565b600060208284031215614f1c57600080fd5b5051919050565b60008219821115614f3657614f36614dab565b500190565b600082614f5857634e487b7160e01b600052601260045260246000fd5b500490565b600082821015614f6f57614f6f614dab565b500390565b84815260018060a01b0384166020820152826040820152608060608201526000612b2f6080830184614e51565b60006001600160801b0383811690831681811015614fc157614fc1614dab565b039392505050565b634e487b7160e01b600052603260045260246000fd5b83815260406020820152816040820152818360608301376000818301606090810191909152601f909201601f1916010192915050565b634e487b7160e01b600052603160045260246000fd5b6000825161503d81846020870161498f565b919091019291505056fe746f6b656e206e6f7420757361626c6520666f722074686520737065636966696320616374696f6e746f6f206d756368204554482077696c6c206265207573656420666f72206761736e6f7420656e6f7567682045544820696e206761732062616e6b20746f20636f76657220676173756e617574686f72697a6564206163636573730000000000000000000000000063616e6e6f74206578656375746520616374696f6e20696e2073616d6520626c6f636ba26469706673582212204e3e0f954560e50cf8565c8ad0100188169e422521ec2c6ddcbdf9d621c0c84c64736f6c634300080a0033","language":"Solidity","natspec":{"kind":"dev","methods":{"addUsableToken(address)":{"details":"There is a separate check for whether the usable token (i.e. deposit token)      is swappable for some action token.","notice":"Add a new deposit token that is supported by the action.","params":{"token":"Address of deposit token that can be used by the action."}},"execute(address,bytes32,address,bytes32)":{"notice":"See overloaded version of `execute` for more details."},"execute(address,bytes32,address,bytes32,uint256)":{"details":"pool and vault funds are rebalanced after withdrawal for top up","notice":"Successfully tops up a position if it's conditions are met.","params":{"account":"Account owning the position for top up.","beneficiary":"Address of the keeper's wallet for fee accrual.","maxWeiForGas":"the maximum extra amount of wei that the keeper is willing to pay for the gas","payer":"Account that pays for the top up.","protocol":"Protocol of the top up position."}},"getEthRequiredForGas(address)":{"notice":"Computes the total amount of ETH (as wei) required to pay for all the top-ups assuming the maximum gas price and the current estimated gas usage of a top-up"},"getHealthFactor(bytes32,bytes32,bytes)":{"notice":"Check if action can be executed.","params":{"account":"for which to get the health factor","extra":"data to be used by the topup handler","protocol":"for which to get the health factor"},"returns":{"healthFactor":"of the position"}},"getPosition(address,bytes32,bytes32)":{"notice":"Get the record for a position.","params":{"account":"Address holding the position.","payer":"Registered payer of the position.","protocol":"Protocol where the position is held."}},"getSupportedProtocols()":{"notice":"Get a list supported protocols.","returns":{"_0":"List of supported protocols."}},"getTopUpHandler(bytes32)":{"notice":"Retrieves the topup handler for the given `protocol`"},"getUsableTokens()":{"details":"This refers to all tokens that can be used as deposit tokens.","notice":"Get a list of all tokens usable for this action.","returns":{"_0":"Array of addresses of usable tokens."}},"getUserPositions(address)":{"notice":"Returns a list of positions for the given payer"},"isPaused()":{"returns":{"_0":"true if the action is paused"}},"isShutdown()":{"returns":{"_0":"true if the action is shutdown"}},"isUsable(address)":{"notice":"Check whether a token is usable as a deposit token.","params":{"token":"Address of token to check."},"returns":{"_0":"True if token is usable as a deposit token for this action."}},"pause()":{"notice":"Pauses the action"},"register(bytes32,bytes32,uint128,(uint64,uint64,uint64,uint64,address,address,uint128,uint128,uint128,bytes))":{"details":"The `depositAmount`, once converted to units of `actionToken`, must be greater or equal to the `totalTopUpAmount` (which is denominated in `actionToken`).","notice":"Register a top up action.","params":{"account":"Account to be topped up (first 20 bytes will typically be the address).","depositAmount":"Amount of `depositToken` that will be locked.","protocol":"Protocol which holds position to be topped up.","record":"containing the data for the position to register"}},"removeUsableToken(address)":{"details":"There is a separate check for whether the usable token (i.e. deposit token)      is swappable for some action token.","notice":"Add a new deposit token that is supported by the action.","params":{"token":"Address of deposit token that can be used by the action."}},"resetPosition(bytes32,bytes32,bool)":{"notice":"Delete a position to back on the given protocol for `account`.","params":{"account":"Account holding the position.","protocol":"Protocol the position is held on.","unstake":"If the tokens should be unstaked from vault."}},"shutdownAction()":{"notice":"Shutdowns the action. This is irreversible"},"unpause()":{"notice":"Pauses the action"},"updateActionFee(uint256)":{"notice":"Update action fee.","params":{"actionFee_":"New fee to set."}},"updateEstimatedGasUsage(uint256)":{"notice":"Update the estimated gas usage.","params":{"estimatedGasUsage_":"New estimated gas usage."}},"updateFeeHandler(address)":{"notice":"Update Fee Handler.","params":{"feeHandler_":"New Fee Handler."}},"updateTopUpHandler(bytes32,address)":{"notice":"Updates the TopUp Handler.","params":{"newHandler":"The new TopUp Handler.","protocol":"Protocol for which a new handler should be executed."}}},"version":1},"opcodes":"PUSH1 0x80 PUSH1 0x40 MSTORE PUSH1 0x4 CALLDATASIZE LT PUSH2 0x1F1 JUMPI PUSH1 0x0 CALLDATALOAD PUSH1 0xE0 SHR DUP1 PUSH4 0x5EC185DE GT PUSH2 0x10D JUMPI DUP1 PUSH4 0xA2624856 GT PUSH2 0xA0 JUMPI DUP1 PUSH4 0xBF86D690 GT PUSH2 0x6F JUMPI DUP1 PUSH4 0xBF86D690 EQ PUSH2 0x5AA JUMPI DUP1 PUSH4 0xC84CE0D0 EQ PUSH2 0x5C8 JUMPI DUP1 PUSH4 0xD41B4E72 EQ PUSH2 0x5F6 JUMPI DUP1 PUSH4 0xDB375DAD EQ PUSH2 0x616 JUMPI DUP1 PUSH4 0xF77C4791 EQ PUSH2 0x636 JUMPI PUSH1 0x0 DUP1 REVERT JUMPDEST DUP1 PUSH4 0xA2624856 EQ PUSH2 0x51D JUMPI DUP1 PUSH4 0xB187BD26 EQ PUSH2 0x53D JUMPI DUP1 PUSH4 0xB75D609A EQ PUSH2 0x568 JUMPI DUP1 PUSH4 0xBBA018A1 EQ PUSH2 0x588 JUMPI PUSH1 0x0 DUP1 REVERT JUMPDEST DUP1 PUSH4 0x8456CB59 GT PUSH2 0xDC JUMPI DUP1 PUSH4 0x8456CB59 EQ PUSH2 0x4BD JUMPI DUP1 PUSH4 0x859F568B EQ PUSH2 0x4D2 JUMPI DUP1 PUSH4 0x8CB164F9 EQ PUSH2 0x4E7 JUMPI DUP1 PUSH4 0x9466F301 EQ PUSH2 0x507 JUMPI PUSH1 0x0 DUP1 REVERT JUMPDEST DUP1 PUSH4 0x5EC185DE EQ PUSH2 0x45D JUMPI DUP1 PUSH4 0x779B6620 EQ PUSH2 0x47D JUMPI DUP1 PUSH4 0x7DC31846 EQ PUSH2 0x49D JUMPI DUP1 PUSH4 0x80FDFE2C EQ PUSH2 0x2AF JUMPI PUSH1 0x0 DUP1 REVERT JUMPDEST DUP1 PUSH4 0x2A6BC2DD GT PUSH2 0x185 JUMPI DUP1 PUSH4 0x506E3EBF GT PUSH2 0x154 JUMPI DUP1 PUSH4 0x506E3EBF EQ PUSH2 0x3B8 JUMPI DUP1 PUSH4 0x532913A5 EQ PUSH2 0x3D8 JUMPI DUP1 PUSH4 0x55C4552B EQ PUSH2 0x3FA JUMPI DUP1 PUSH4 0x59C442C7 EQ PUSH2 0x430 JUMPI PUSH1 0x0 DUP1 REVERT JUMPDEST DUP1 PUSH4 0x2A6BC2DD EQ PUSH2 0x336 JUMPI DUP1 PUSH4 0x33229C06 EQ PUSH2 0x363 JUMPI DUP1 PUSH4 0x3C93ADEE EQ PUSH2 0x383 JUMPI DUP1 PUSH4 0x3F4BA83A EQ PUSH2 0x3A3 JUMPI PUSH1 0x0 DUP1 REVERT JUMPDEST DUP1 PUSH4 0x1ECB8AC6 GT PUSH2 0x1C1 JUMPI DUP1 PUSH4 0x1ECB8AC6 EQ PUSH2 0x2AF JUMPI DUP1 PUSH4 0x22590064 EQ PUSH2 0x2CF JUMPI DUP1 PUSH4 0x2954018C EQ PUSH2 0x2E2 JUMPI DUP1 PUSH4 0x29988B04 EQ PUSH2 0x316 JUMPI PUSH1 0x0 DUP1 REVERT JUMPDEST DUP1 PUSH3 0x435DA5 EQ PUSH2 0x1FD JUMPI DUP1 PUSH4 0xB402267 EQ PUSH2 0x249 JUMPI DUP1 PUSH4 0x1441D227 EQ PUSH2 0x26B JUMPI DUP1 PUSH4 0x1EB8C7A3 EQ PUSH2 0x28F JUMPI PUSH1 0x0 DUP1 REVERT JUMPDEST CALLDATASIZE PUSH2 0x1F8 JUMPI STOP JUMPDEST PUSH1 0x0 DUP1 REVERT JUMPDEST CALLVALUE DUP1 ISZERO PUSH2 0x209 JUMPI PUSH1 0x0 DUP1 REVERT JUMPDEST POP PUSH32 0x0 JUMPDEST PUSH1 0x40 MLOAD PUSH1 0x1 PUSH1 0x1 PUSH1 0xA0 SHL SUB SWAP1 SWAP2 AND DUP2 MSTORE PUSH1 0x20 ADD JUMPDEST PUSH1 0x40 MLOAD DUP1 SWAP2 SUB SWAP1 RETURN JUMPDEST CALLVALUE DUP1 ISZERO PUSH2 0x255 JUMPI PUSH1 0x0 DUP1 REVERT JUMPDEST POP PUSH2 0x269 PUSH2 0x264 CALLDATASIZE PUSH1 0x4 PUSH2 0x4589 JUMP JUMPDEST PUSH2 0x66F JUMP JUMPDEST STOP JUMPDEST CALLVALUE DUP1 ISZERO PUSH2 0x277 JUMPI PUSH1 0x0 DUP1 REVERT JUMPDEST POP PUSH2 0x281 PUSH1 0xA SLOAD DUP2 JUMP JUMPDEST PUSH1 0x40 MLOAD SWAP1 DUP2 MSTORE PUSH1 0x20 ADD PUSH2 0x240 JUMP JUMPDEST CALLVALUE DUP1 ISZERO PUSH2 0x29B JUMPI PUSH1 0x0 DUP1 REVERT JUMPDEST POP PUSH2 0x269 PUSH2 0x2AA CALLDATASIZE PUSH1 0x4 PUSH2 0x45C2 JUMP JUMPDEST PUSH2 0xAA4 JUMP JUMPDEST CALLVALUE DUP1 ISZERO PUSH2 0x2BB JUMPI PUSH1 0x0 DUP1 REVERT JUMPDEST POP PUSH2 0x22C PUSH2 0x2CA CALLDATASIZE PUSH1 0x4 PUSH2 0x45C2 JUMP JUMPDEST PUSH2 0xBC1 JUMP JUMPDEST PUSH2 0x269 PUSH2 0x2DD CALLDATASIZE PUSH1 0x4 PUSH2 0x46F9 JUMP JUMPDEST PUSH2 0xBD4 JUMP JUMPDEST CALLVALUE DUP1 ISZERO PUSH2 0x2EE JUMPI PUSH1 0x0 DUP1 REVERT JUMPDEST POP PUSH2 0x22C PUSH32 0x0 DUP2 JUMP JUMPDEST CALLVALUE DUP1 ISZERO PUSH2 0x322 JUMPI PUSH1 0x0 DUP1 REVERT JUMPDEST POP PUSH2 0x269 PUSH2 0x331 CALLDATASIZE PUSH1 0x4 PUSH2 0x4828 JUMP JUMPDEST PUSH2 0x12E3 JUMP JUMPDEST CALLVALUE DUP1 ISZERO PUSH2 0x342 JUMPI PUSH1 0x0 DUP1 REVERT JUMPDEST POP PUSH2 0x356 PUSH2 0x351 CALLDATASIZE PUSH1 0x4 PUSH2 0x4828 JUMP JUMPDEST PUSH2 0x1412 JUMP JUMPDEST PUSH1 0x40 MLOAD PUSH2 0x240 SWAP2 SWAP1 PUSH2 0x4845 JUMP JUMPDEST CALLVALUE DUP1 ISZERO PUSH2 0x36F JUMPI PUSH1 0x0 DUP1 REVERT JUMPDEST POP PUSH2 0x269 PUSH2 0x37E CALLDATASIZE PUSH1 0x4 PUSH2 0x4894 JUMP JUMPDEST PUSH2 0x149B JUMP JUMPDEST CALLVALUE DUP1 ISZERO PUSH2 0x38F JUMPI PUSH1 0x0 DUP1 REVERT JUMPDEST POP PUSH1 0xB SLOAD PUSH2 0x22C SWAP1 PUSH1 0x1 PUSH1 0x1 PUSH1 0xA0 SHL SUB AND DUP2 JUMP JUMPDEST CALLVALUE DUP1 ISZERO PUSH2 0x3AF JUMPI PUSH1 0x0 DUP1 REVERT JUMPDEST POP PUSH2 0x269 PUSH2 0x24A5 JUMP JUMPDEST CALLVALUE DUP1 ISZERO PUSH2 0x3C4 JUMPI PUSH1 0x0 DUP1 REVERT JUMPDEST POP PUSH2 0x269 PUSH2 0x3D3 CALLDATASIZE PUSH1 0x4 PUSH2 0x48E6 JUMP JUMPDEST PUSH2 0x25BC JUMP JUMPDEST CALLVALUE DUP1 ISZERO PUSH2 0x3E4 JUMPI PUSH1 0x0 DUP1 REVERT JUMPDEST POP PUSH2 0x3ED PUSH2 0x26FD JUMP JUMPDEST PUSH1 0x40 MLOAD PUSH2 0x240 SWAP2 SWAP1 PUSH2 0x4916 JUMP JUMPDEST CALLVALUE DUP1 ISZERO PUSH2 0x406 JUMPI PUSH1 0x0 DUP1 REVERT JUMPDEST POP PUSH2 0x22C PUSH2 0x415 CALLDATASIZE PUSH1 0x4 PUSH2 0x45C2 JUMP JUMPDEST PUSH1 0x3 PUSH1 0x20 MSTORE PUSH1 0x0 SWAP1 DUP2 MSTORE PUSH1 0x40 SWAP1 KECCAK256 SLOAD PUSH1 0x1 PUSH1 0x1 PUSH1 0xA0 SHL SUB AND DUP2 JUMP JUMPDEST CALLVALUE DUP1 ISZERO PUSH2 0x43C JUMPI PUSH1 0x0 DUP1 REVERT JUMPDEST POP PUSH2 0x450 PUSH2 0x44B CALLDATASIZE PUSH1 0x4 PUSH2 0x495A JUMP JUMPDEST PUSH2 0x2795 JUMP JUMPDEST PUSH1 0x40 MLOAD PUSH2 0x240 SWAP2 SWAP1 PUSH2 0x49E7 JUMP JUMPDEST CALLVALUE DUP1 ISZERO PUSH2 0x469 JUMPI PUSH1 0x0 DUP1 REVERT JUMPDEST POP PUSH2 0x269 PUSH2 0x478 CALLDATASIZE PUSH1 0x4 PUSH2 0x45C2 JUMP JUMPDEST PUSH2 0x2948 JUMP JUMPDEST CALLVALUE DUP1 ISZERO PUSH2 0x489 JUMPI PUSH1 0x0 DUP1 REVERT JUMPDEST POP PUSH2 0x281 PUSH2 0x498 CALLDATASIZE PUSH1 0x4 PUSH2 0x4AD9 JUMP JUMPDEST PUSH2 0x2AAD JUMP JUMPDEST CALLVALUE DUP1 ISZERO PUSH2 0x4A9 JUMPI PUSH1 0x0 DUP1 REVERT JUMPDEST POP PUSH2 0x281 PUSH2 0x4B8 CALLDATASIZE PUSH1 0x4 PUSH2 0x4828 JUMP JUMPDEST PUSH2 0x2B39 JUMP JUMPDEST CALLVALUE DUP1 ISZERO PUSH2 0x4C9 JUMPI PUSH1 0x0 DUP1 REVERT JUMPDEST POP PUSH2 0x269 PUSH2 0x2DC9 JUMP JUMPDEST CALLVALUE DUP1 ISZERO PUSH2 0x4DE JUMPI PUSH1 0x0 DUP1 REVERT JUMPDEST POP PUSH2 0x269 PUSH2 0x2EE6 JUMP JUMPDEST CALLVALUE DUP1 ISZERO PUSH2 0x4F3 JUMPI PUSH1 0x0 DUP1 REVERT JUMPDEST POP PUSH2 0x269 PUSH2 0x502 CALLDATASIZE PUSH1 0x4 PUSH2 0x4828 JUMP JUMPDEST PUSH2 0x3004 JUMP JUMPDEST CALLVALUE DUP1 ISZERO PUSH2 0x513 JUMPI PUSH1 0x0 DUP1 REVERT JUMPDEST POP PUSH2 0x281 PUSH1 0xC SLOAD DUP2 JUMP JUMPDEST CALLVALUE DUP1 ISZERO PUSH2 0x529 JUMPI PUSH1 0x0 DUP1 REVERT JUMPDEST POP PUSH2 0x269 PUSH2 0x538 CALLDATASIZE PUSH1 0x4 PUSH2 0x4828 JUMP JUMPDEST PUSH2 0x312A JUMP JUMPDEST CALLVALUE DUP1 ISZERO PUSH2 0x549 JUMPI PUSH1 0x0 DUP1 REVERT JUMPDEST POP PUSH1 0x0 SLOAD PUSH4 0x1000000 SWAP1 DIV PUSH1 0xFF AND JUMPDEST PUSH1 0x40 MLOAD SWAP1 ISZERO ISZERO DUP2 MSTORE PUSH1 0x20 ADD PUSH2 0x240 JUMP JUMPDEST CALLVALUE DUP1 ISZERO PUSH2 0x574 JUMPI PUSH1 0x0 DUP1 REVERT JUMPDEST POP PUSH2 0x558 PUSH2 0x583 CALLDATASIZE PUSH1 0x4 PUSH2 0x4828 JUMP JUMPDEST PUSH2 0x3250 JUMP JUMPDEST CALLVALUE DUP1 ISZERO PUSH2 0x594 JUMPI PUSH1 0x0 DUP1 REVERT JUMPDEST POP PUSH2 0x59D PUSH2 0x325D JUMP JUMPDEST PUSH1 0x40 MLOAD PUSH2 0x240 SWAP2 SWAP1 PUSH2 0x4B9C JUMP JUMPDEST CALLVALUE DUP1 ISZERO PUSH2 0x5B6 JUMPI PUSH1 0x0 DUP1 REVERT JUMPDEST POP PUSH1 0x0 SLOAD PUSH3 0x10000 SWAP1 DIV PUSH1 0xFF AND PUSH2 0x558 JUMP JUMPDEST CALLVALUE DUP1 ISZERO PUSH2 0x5D4 JUMPI PUSH1 0x0 DUP1 REVERT JUMPDEST POP PUSH2 0x5E8 PUSH2 0x5E3 CALLDATASIZE PUSH1 0x4 PUSH2 0x4BAF JUMP JUMPDEST PUSH2 0x3269 JUMP JUMPDEST PUSH1 0x40 MLOAD PUSH2 0x240 SWAP3 SWAP2 SWAP1 PUSH2 0x4BD1 JUMP JUMPDEST CALLVALUE DUP1 ISZERO PUSH2 0x602 JUMPI PUSH1 0x0 DUP1 REVERT JUMPDEST POP PUSH2 0x269 PUSH2 0x611 CALLDATASIZE PUSH1 0x4 PUSH2 0x4C37 JUMP JUMPDEST PUSH2 0x336A JUMP JUMPDEST CALLVALUE DUP1 ISZERO PUSH2 0x622 JUMPI PUSH1 0x0 DUP1 REVERT JUMPDEST POP PUSH2 0x269 PUSH2 0x631 CALLDATASIZE PUSH1 0x4 PUSH2 0x4CB9 JUMP JUMPDEST PUSH2 0x35CA JUMP JUMPDEST CALLVALUE DUP1 ISZERO PUSH2 0x642 JUMPI PUSH1 0x0 DUP1 REVERT JUMPDEST POP PUSH2 0x22C PUSH32 0x0 DUP2 JUMP JUMPDEST SWAP1 POP SWAP1 JUMP JUMPDEST CALLER PUSH1 0x0 DUP2 DUP2 MSTORE PUSH1 0x6 PUSH1 0x20 SWAP1 DUP2 MSTORE PUSH1 0x40 DUP1 DUP4 KECCAK256 DUP8 DUP5 MSTORE DUP3 MSTORE DUP1 DUP4 KECCAK256 DUP7 DUP5 MSTORE DUP3 MSTORE DUP1 DUP4 KECCAK256 DUP2 MLOAD PUSH2 0x140 DUP2 ADD DUP4 MSTORE DUP2 SLOAD PUSH1 0x1 PUSH1 0x1 PUSH1 0x40 SHL SUB DUP1 DUP3 AND DUP4 MSTORE PUSH1 0x1 PUSH1 0x40 SHL DUP3 DIV DUP2 AND SWAP6 DUP4 ADD SWAP6 SWAP1 SWAP6 MSTORE PUSH1 0x1 PUSH1 0x80 SHL DUP1 DUP3 DIV DUP7 AND SWAP5 DUP4 ADD SWAP5 SWAP1 SWAP5 MSTORE PUSH1 0x1 PUSH1 0xC0 SHL SWAP1 DIV SWAP1 SWAP4 AND PUSH1 0x60 DUP5 ADD MSTORE PUSH1 0x1 DUP2 ADD SLOAD PUSH1 0x1 PUSH1 0x1 PUSH1 0xA0 SHL SUB SWAP1 DUP2 AND PUSH1 0x80 DUP6 ADD MSTORE PUSH1 0x2 DUP3 ADD SLOAD AND PUSH1 0xA0 DUP5 ADD MSTORE PUSH1 0x3 DUP2 ADD SLOAD PUSH1 0x1 PUSH1 0x1 PUSH1 0x80 SHL SUB DUP1 DUP3 AND PUSH1 0xC0 DUP7 ADD MSTORE SWAP3 SWAP1 DIV DUP3 AND PUSH1 0xE0 DUP5 ADD MSTORE PUSH1 0x4 DUP2 ADD SLOAD SWAP1 SWAP2 AND PUSH2 0x100 DUP4 ADD MSTORE PUSH1 0x5 DUP2 ADD DUP1 SLOAD PUSH2 0x120 DUP5 ADD SWAP2 SWAP1 PUSH2 0x73C SWAP1 PUSH2 0x4D01 JUMP JUMPDEST DUP1 PUSH1 0x1F ADD PUSH1 0x20 DUP1 SWAP2 DIV MUL PUSH1 0x20 ADD PUSH1 0x40 MLOAD SWAP1 DUP2 ADD PUSH1 0x40 MSTORE DUP1 SWAP3 SWAP2 SWAP1 DUP2 DUP2 MSTORE PUSH1 0x20 ADD DUP3 DUP1 SLOAD PUSH2 0x768 SWAP1 PUSH2 0x4D01 JUMP JUMPDEST DUP1 ISZERO PUSH2 0x7B5 JUMPI DUP1 PUSH1 0x1F LT PUSH2 0x78A JUMPI PUSH2 0x100 DUP1 DUP4 SLOAD DIV MUL DUP4 MSTORE SWAP2 PUSH1 0x20 ADD SWAP2 PUSH2 0x7B5 JUMP JUMPDEST DUP3 ADD SWAP2 SWAP1 PUSH1 0x0 MSTORE PUSH1 0x20 PUSH1 0x0 KECCAK256 SWAP1 JUMPDEST DUP2 SLOAD DUP2 MSTORE SWAP1 PUSH1 0x1 ADD SWAP1 PUSH1 0x20 ADD DUP1 DUP4 GT PUSH2 0x798 JUMPI DUP3 SWAP1 SUB PUSH1 0x1F AND DUP3 ADD SWAP2 JUMPDEST POP POP POP SWAP2 SWAP1 SWAP3 MSTORE POP POP DUP2 MLOAD PUSH1 0x40 DUP1 MLOAD DUP1 DUP3 ADD SWAP1 SWAP2 MSTORE PUSH1 0x12 DUP2 MSTORE PUSH18 0x6E6F20706F736974696F6E20657869737473 PUSH1 0x70 SHL PUSH1 0x20 DUP3 ADD MSTORE SWAP3 SWAP4 POP PUSH1 0x1 PUSH1 0x1 PUSH1 0x40 SHL SUB AND ISZERO ISZERO SWAP1 POP PUSH2 0x81F JUMPI PUSH1 0x40 MLOAD PUSH3 0x461BCD PUSH1 0xE5 SHL DUP2 MSTORE PUSH1 0x4 ADD PUSH2 0x816 SWAP2 SWAP1 PUSH2 0x4D3C JUMP JUMPDEST PUSH1 0x40 MLOAD DUP1 SWAP2 SUB SWAP1 REVERT JUMPDEST POP PUSH1 0xA0 DUP2 ADD MLOAD PUSH1 0x40 MLOAD PUSH4 0x59EADEB PUSH1 0xE4 SHL DUP2 MSTORE PUSH1 0x1 PUSH1 0x1 PUSH1 0xA0 SHL SUB SWAP2 DUP3 AND PUSH1 0x4 DUP3 ADD MSTORE PUSH32 0x0 SWAP2 PUSH1 0x0 SWAP2 SWAP1 DUP4 AND SWAP1 PUSH4 0x59EADEB0 SWAP1 PUSH1 0x24 ADD PUSH1 0x20 PUSH1 0x40 MLOAD DUP1 DUP4 SUB DUP2 DUP7 GAS STATICCALL ISZERO DUP1 ISZERO PUSH2 0x891 JUMPI RETURNDATASIZE PUSH1 0x0 DUP1 RETURNDATACOPY RETURNDATASIZE PUSH1 0x0 REVERT JUMPDEST POP POP POP POP PUSH1 0x40 MLOAD RETURNDATASIZE PUSH1 0x1F NOT PUSH1 0x1F DUP3 ADD AND DUP3 ADD DUP1 PUSH1 0x40 MSTORE POP DUP2 ADD SWAP1 PUSH2 0x8B5 SWAP2 SWAP1 PUSH2 0x4D4F JUMP JUMPDEST PUSH2 0x100 DUP5 ADD MLOAD PUSH1 0x40 MLOAD PUSH4 0x6A278CD9 PUSH1 0xE0 SHL DUP2 MSTORE SWAP2 SWAP3 POP DUP3 SWAP2 PUSH1 0x1 PUSH1 0x1 PUSH1 0xA0 SHL SUB DUP4 AND SWAP2 PUSH4 0x6A278CD9 SWAP2 PUSH2 0x8EC SWAP2 DUP10 SWAP2 PUSH1 0x4 ADD PUSH2 0x4D6C JUMP JUMPDEST PUSH1 0x0 PUSH1 0x40 MLOAD DUP1 DUP4 SUB DUP2 PUSH1 0x0 DUP8 DUP1 EXTCODESIZE ISZERO DUP1 ISZERO PUSH2 0x906 JUMPI PUSH1 0x0 DUP1 REVERT JUMPDEST POP GAS CALL ISZERO DUP1 ISZERO PUSH2 0x91A JUMPI RETURNDATASIZE PUSH1 0x0 DUP1 RETURNDATACOPY RETURNDATASIZE PUSH1 0x0 REVERT JUMPDEST POP POP POP POP DUP6 ISZERO PUSH2 0x9BB JUMPI PUSH2 0x100 DUP5 ADD MLOAD PUSH1 0x40 MLOAD PUSH4 0x5C2FBCF PUSH1 0xE3 SHL DUP2 MSTORE PUSH1 0x1 PUSH1 0x1 PUSH1 0x80 SHL SUB SWAP1 SWAP2 AND PUSH1 0x4 DUP3 ADD MSTORE PUSH1 0x1 PUSH1 0x1 PUSH1 0xA0 SHL SUB DUP3 AND SWAP1 PUSH4 0x2E17DE78 SWAP1 PUSH1 0x24 ADD PUSH1 0x0 PUSH1 0x40 MLOAD DUP1 DUP4 SUB DUP2 PUSH1 0x0 DUP8 DUP1 EXTCODESIZE ISZERO DUP1 ISZERO PUSH2 0x975 JUMPI PUSH1 0x0 DUP1 REVERT JUMPDEST POP GAS CALL ISZERO DUP1 ISZERO PUSH2 0x989 JUMPI RETURNDATASIZE PUSH1 0x0 DUP1 RETURNDATACOPY RETURNDATASIZE PUSH1 0x0 REVERT JUMPDEST POP POP POP PUSH2 0x100 DUP6 ADD MLOAD PUSH1 0xA0 DUP7 ADD MLOAD PUSH2 0x9B6 SWAP3 POP PUSH1 0x1 PUSH1 0x1 PUSH1 0xA0 SHL SUB AND SWAP1 DUP8 SWAP1 PUSH1 0x1 PUSH1 0x1 PUSH1 0x80 SHL SUB AND PUSH2 0x3701 JUMP JUMPDEST PUSH2 0xA20 JUMP JUMPDEST PUSH2 0x100 DUP5 ADD MLOAD PUSH1 0x40 MLOAD PUSH4 0xA9059CBB PUSH1 0xE0 SHL DUP2 MSTORE PUSH1 0x1 PUSH1 0x1 PUSH1 0xA0 SHL SUB DUP4 AND SWAP2 PUSH4 0xA9059CBB SWAP2 PUSH2 0x9ED SWAP2 DUP10 SWAP2 PUSH1 0x4 ADD PUSH2 0x4D6C JUMP JUMPDEST PUSH1 0x0 PUSH1 0x40 MLOAD DUP1 DUP4 SUB DUP2 PUSH1 0x0 DUP8 DUP1 EXTCODESIZE ISZERO DUP1 ISZERO PUSH2 0xA07 JUMPI PUSH1 0x0 DUP1 REVERT JUMPDEST POP GAS CALL ISZERO DUP1 ISZERO PUSH2 0xA1B JUMPI RETURNDATASIZE PUSH1 0x0 DUP1 RETURNDATACOPY RETURNDATASIZE PUSH1 0x0 REVERT JUMPDEST POP POP POP POP JUMPDEST PUSH2 0xA2B DUP6 DUP10 DUP10 PUSH2 0x3769 JUMP JUMPDEST PUSH2 0xA3D DUP4 PUSH1 0x1 PUSH1 0x1 PUSH1 0xA0 SHL SUB AND PUSH2 0x3852 JUMP JUMPDEST PUSH1 0x40 MLOAD PUSH4 0x35272C25 PUSH1 0xE2 SHL DUP2 MSTORE PUSH1 0x1 PUSH1 0x1 PUSH1 0xA0 SHL SUB DUP8 DUP2 AND PUSH1 0x4 DUP4 ADD MSTORE SWAP2 SWAP1 SWAP2 AND SWAP1 PUSH4 0xD49CB094 SWAP1 PUSH1 0x24 ADD PUSH1 0x0 PUSH1 0x40 MLOAD DUP1 DUP4 SUB DUP2 PUSH1 0x0 DUP8 DUP1 EXTCODESIZE ISZERO DUP1 ISZERO PUSH2 0xA82 JUMPI PUSH1 0x0 DUP1 REVERT JUMPDEST POP GAS CALL ISZERO DUP1 ISZERO PUSH2 0xA96 JUMPI RETURNDATASIZE PUSH1 0x0 DUP1 RETURNDATACOPY RETURNDATASIZE PUSH1 0x0 REVERT JUMPDEST POP POP POP POP POP POP POP POP POP POP POP POP JUMP JUMPDEST PUSH32 0x0 PUSH1 0x40 MLOAD PUSH4 0x24745215 PUSH1 0xE2 SHL DUP2 MSTORE PUSH10 0x676F7665726E616E6365 PUSH1 0xB0 SHL PUSH1 0x4 DUP3 ADD MSTORE CALLER PUSH1 0x24 DUP3 ADD MSTORE PUSH1 0x1 PUSH1 0x1 PUSH1 0xA0 SHL SUB SWAP2 SWAP1 SWAP2 AND SWAP1 PUSH4 0x91D14854 SWAP1 PUSH1 0x44 ADD PUSH1 0x20 PUSH1 0x40 MLOAD DUP1 DUP4 SUB DUP2 DUP7 GAS STATICCALL ISZERO DUP1 ISZERO PUSH2 0xB1E JUMPI RETURNDATASIZE PUSH1 0x0 DUP1 RETURNDATACOPY RETURNDATASIZE PUSH1 0x0 REVERT JUMPDEST POP POP POP POP PUSH1 0x40 MLOAD RETURNDATASIZE PUSH1 0x1F NOT PUSH1 0x1F DUP3 ADD AND DUP3 ADD DUP1 PUSH1 0x40 MSTORE POP DUP2 ADD SWAP1 PUSH2 0xB42 SWAP2 SWAP1 PUSH2 0x4D8E JUMP JUMPDEST PUSH1 0x40 MLOAD DUP1 PUSH1 0x40 ADD PUSH1 0x40 MSTORE DUP1 PUSH1 0x13 DUP2 MSTORE PUSH1 0x20 ADD PUSH1 0x0 DUP1 MLOAD PUSH1 0x20 PUSH2 0x50B8 DUP4 CODECOPY DUP2 MLOAD SWAP2 MSTORE DUP2 MSTORE POP SWAP1 PUSH2 0xB84 JUMPI PUSH1 0x40 MLOAD PUSH3 0x461BCD PUSH1 0xE5 SHL DUP2 MSTORE PUSH1 0x4 ADD PUSH2 0x816 SWAP2 SWAP1 PUSH2 0x4D3C JUMP JUMPDEST POP PUSH1 0xC DUP2 SWAP1 SSTORE PUSH1 0x40 MLOAD DUP2 DUP2 MSTORE PUSH32 0xD8D8E400E65B9DE8D7FDDC7EE59EB69E0ADD7C2535DAE5CDF7C5AF7AF0D04188 SWAP1 PUSH1 0x20 ADD JUMPDEST PUSH1 0x40 MLOAD DUP1 SWAP2 SUB SWAP1 LOG1 POP JUMP JUMPDEST PUSH1 0x0 PUSH2 0xBCE DUP3 PUSH1 0x0 PUSH2 0x388B JUMP JUMPDEST SWAP3 SWAP2 POP POP JUMP JUMPDEST PUSH1 0x0 SLOAD PUSH1 0x40 DUP1 MLOAD DUP1 DUP3 ADD SWAP1 SWAP2 MSTORE PUSH1 0x12 DUP2 MSTORE PUSH18 0x20B1BA34B7B71034B99039B43ABA3237BBB7 PUSH1 0x71 SHL PUSH1 0x20 DUP3 ADD MSTORE SWAP1 PUSH3 0x10000 SWAP1 DIV PUSH1 0xFF AND ISZERO PUSH2 0xC28 JUMPI PUSH1 0x40 MLOAD PUSH3 0x461BCD PUSH1 0xE5 SHL DUP2 MSTORE PUSH1 0x4 ADD PUSH2 0x816 SWAP2 SWAP1 PUSH2 0x4D3C JUMP JUMPDEST POP PUSH1 0x0 SLOAD PUSH1 0x40 DUP1 MLOAD DUP1 DUP3 ADD SWAP1 SWAP2 MSTORE PUSH1 0x10 DUP2 MSTORE PUSH16 0x1058DD1A5BDB881A5CC81C185D5CD959 PUSH1 0x82 SHL PUSH1 0x20 DUP3 ADD MSTORE SWAP1 PUSH4 0x1000000 SWAP1 DIV PUSH1 0xFF AND ISZERO PUSH2 0xC7C JUMPI PUSH1 0x40 MLOAD PUSH3 0x461BCD PUSH1 0xE5 SHL DUP2 MSTORE PUSH1 0x4 ADD PUSH2 0x816 SWAP2 SWAP1 PUSH2 0x4D3C JUMP JUMPDEST POP PUSH4 0x77359400 DUP2 PUSH1 0x40 ADD MLOAD PUSH1 0x1 PUSH1 0x1 PUSH1 0x40 SHL SUB AND LT ISZERO PUSH1 0x40 MLOAD DUP1 PUSH1 0x40 ADD PUSH1 0x40 MSTORE DUP1 PUSH1 0xF DUP2 MSTORE PUSH1 0x20 ADD PUSH15 0x696E76616C6964206D617820666565 PUSH1 0x88 SHL DUP2 MSTORE POP SWAP1 PUSH2 0xCD8 JUMPI PUSH1 0x40 MLOAD PUSH3 0x461BCD PUSH1 0xE5 SHL DUP2 MSTORE PUSH1 0x4 ADD PUSH2 0x816 SWAP2 SWAP1 PUSH2 0x4D3C JUMP JUMPDEST POP PUSH2 0xCE4 PUSH1 0x4 DUP5 PUSH2 0x3909 JUMP JUMPDEST PUSH1 0x40 MLOAD DUP1 PUSH1 0x40 ADD PUSH1 0x40 MSTORE DUP1 PUSH1 0x12 DUP2 MSTORE PUSH1 0x20 ADD PUSH18 0x1C1C9BDD1BD8DBDB081B9BDD08199BDD5B99 PUSH1 0x72 SHL DUP2 MSTORE POP SWAP1 PUSH2 0xD2D JUMPI PUSH1 0x40 MLOAD PUSH3 0x461BCD PUSH1 0xE5 SHL DUP2 MSTORE PUSH1 0x4 ADD PUSH2 0x816 SWAP2 SWAP1 PUSH2 0x4D3C JUMP JUMPDEST POP PUSH1 0x0 DUP2 PUSH1 0xC0 ADD MLOAD PUSH1 0x1 PUSH1 0x1 PUSH1 0x80 SHL SUB AND GT PUSH1 0x40 MLOAD DUP1 PUSH1 0x40 ADD PUSH1 0x40 MSTORE DUP1 PUSH1 0xE DUP2 MSTORE PUSH1 0x20 ADD PUSH14 0x1A5B9D985B1A5908185B5BDD5B9D PUSH1 0x92 SHL DUP2 MSTORE POP SWAP1 PUSH2 0xD84 JUMPI PUSH1 0x40 MLOAD PUSH3 0x461BCD PUSH1 0xE5 SHL DUP2 MSTORE PUSH1 0x4 ADD PUSH2 0x816 SWAP2 SWAP1 PUSH2 0x4D3C JUMP JUMPDEST POP PUSH8 0xDE0B6B3A7640000 DUP2 PUSH1 0x0 ADD MLOAD PUSH1 0x1 PUSH1 0x1 PUSH1 0x40 SHL SUB AND GT PUSH1 0x40 MLOAD DUP1 PUSH1 0x40 ADD PUSH1 0x40 MSTORE DUP1 PUSH1 0xE DUP2 MSTORE PUSH1 0x20 ADD PUSH14 0x1A5B9D985B1A5908185B5BDD5B9D PUSH1 0x92 SHL DUP2 MSTORE POP SWAP1 PUSH2 0xDE2 JUMPI PUSH1 0x40 MLOAD PUSH3 0x461BCD PUSH1 0xE5 SHL DUP2 MSTORE PUSH1 0x4 ADD PUSH2 0x816 SWAP2 SWAP1 PUSH2 0x4D3C JUMP JUMPDEST POP DUP1 PUSH1 0xE0 ADD MLOAD PUSH1 0x1 PUSH1 0x1 PUSH1 0x80 SHL SUB AND DUP2 PUSH1 0xC0 ADD MLOAD PUSH1 0x1 PUSH1 0x1 PUSH1 0x80 SHL SUB AND GT ISZERO PUSH1 0x40 MLOAD DUP1 PUSH1 0x40 ADD PUSH1 0x40 MSTORE DUP1 PUSH1 0xE DUP2 MSTORE PUSH1 0x20 ADD PUSH14 0x1A5B9D985B1A5908185B5BDD5B9D PUSH1 0x92 SHL DUP2 MSTORE POP SWAP1 PUSH2 0xE46 JUMPI PUSH1 0x40 MLOAD PUSH3 0x461BCD PUSH1 0xE5 SHL DUP2 MSTORE PUSH1 0x4 ADD PUSH2 0x816 SWAP2 SWAP1 PUSH2 0x4D3C JUMP JUMPDEST POP CALLER PUSH1 0x0 SWAP1 DUP2 MSTORE PUSH1 0x6 PUSH1 0x20 SWAP1 DUP2 MSTORE PUSH1 0x40 DUP1 DUP4 KECCAK256 DUP8 DUP5 MSTORE DUP3 MSTORE DUP1 DUP4 KECCAK256 DUP7 DUP5 MSTORE DUP3 MSTORE SWAP2 DUP3 SWAP1 KECCAK256 SLOAD DUP3 MLOAD DUP1 DUP5 ADD SWAP1 SWAP4 MSTORE PUSH1 0x17 DUP4 MSTORE PUSH32 0x706F736974696F6E20616C726561647920657869737473000000000000000000 SWAP2 DUP4 ADD SWAP2 SWAP1 SWAP2 MSTORE PUSH1 0x1 PUSH1 0x1 PUSH1 0x40 SHL SUB AND ISZERO PUSH2 0xEC6 JUMPI PUSH1 0x40 MLOAD PUSH3 0x461BCD PUSH1 0xE5 SHL DUP2 MSTORE PUSH1 0x4 ADD PUSH2 0x816 SWAP2 SWAP1 PUSH2 0x4D3C JUMP JUMPDEST POP PUSH2 0xED9 DUP2 PUSH1 0xA0 ADD MLOAD DUP3 PUSH1 0x80 ADD MLOAD PUSH2 0x3921 JUMP JUMPDEST PUSH1 0x40 MLOAD DUP1 PUSH1 0x40 ADD PUSH1 0x40 MSTORE DUP1 PUSH1 0x13 DUP2 MSTORE PUSH1 0x20 ADD PUSH19 0x1CDDD85C081C185D1A081B9BDD08199BDD5B99 PUSH1 0x6A SHL DUP2 MSTORE POP SWAP1 PUSH2 0xF23 JUMPI PUSH1 0x40 MLOAD PUSH3 0x461BCD PUSH1 0xE5 SHL DUP2 MSTORE PUSH1 0x4 ADD PUSH2 0x816 SWAP2 SWAP1 PUSH2 0x4D3C JUMP JUMPDEST POP PUSH2 0xF31 DUP2 PUSH1 0xA0 ADD MLOAD PUSH2 0x3250 JUMP JUMPDEST PUSH1 0x40 MLOAD DUP1 PUSH1 0x60 ADD PUSH1 0x40 MSTORE DUP1 PUSH1 0x28 DUP2 MSTORE PUSH1 0x20 ADD PUSH2 0x5048 PUSH1 0x28 SWAP2 CODECOPY SWAP1 PUSH2 0xF68 JUMPI PUSH1 0x40 MLOAD PUSH3 0x461BCD PUSH1 0xE5 SHL DUP2 MSTORE PUSH1 0x4 ADD PUSH2 0x816 SWAP2 SWAP1 PUSH2 0x4D3C JUMP JUMPDEST POP PUSH1 0x0 PUSH1 0xC SLOAD DUP3 PUSH1 0x40 ADD MLOAD PUSH1 0x1 PUSH1 0x1 PUSH1 0x40 SHL SUB AND PUSH2 0xFA9 DUP5 PUSH1 0xC0 ADD MLOAD PUSH1 0x1 PUSH1 0x1 PUSH1 0x80 SHL SUB AND DUP6 PUSH1 0xE0 ADD MLOAD PUSH1 0x1 PUSH1 0x1 PUSH1 0x80 SHL SUB AND PUSH2 0x3A30 SWAP1 SWAP2 SWAP1 PUSH4 0xFFFFFFFF AND JUMP JUMPDEST PUSH2 0xFB3 SWAP2 SWAP1 PUSH2 0x4DC1 JUMP JUMPDEST PUSH2 0xFBD SWAP2 SWAP1 PUSH2 0x4DC1 JUMP JUMPDEST SWAP1 POP DUP1 CALLVALUE LT ISZERO PUSH1 0x40 MLOAD DUP1 PUSH1 0x40 ADD PUSH1 0x40 MSTORE DUP1 PUSH1 0x1A DUP2 MSTORE PUSH1 0x20 ADD PUSH32 0x76616C756520746F6F206C6F7720746F20636F76657220676173000000000000 DUP2 MSTORE POP SWAP1 PUSH2 0x1017 JUMPI PUSH1 0x40 MLOAD PUSH3 0x461BCD PUSH1 0xE5 SHL DUP2 MSTORE PUSH1 0x4 ADD PUSH2 0x816 SWAP2 SWAP1 PUSH2 0x4D3C JUMP JUMPDEST POP PUSH1 0x0 PUSH2 0x103A DUP4 PUSH1 0xA0 ADD MLOAD DUP5 PUSH1 0x80 ADD MLOAD DUP6 PUSH1 0xE0 ADD MLOAD PUSH1 0x1 PUSH1 0x1 PUSH1 0x80 SHL SUB AND PUSH2 0x3A53 JUMP JUMPDEST SWAP1 POP PUSH2 0x1055 CALLER DUP5 PUSH1 0xA0 ADD MLOAD DUP4 DUP8 PUSH1 0x1 PUSH1 0x1 PUSH1 0x80 SHL SUB AND PUSH2 0x3B11 JUMP JUMPDEST PUSH2 0x1087 PUSH32 0x0 PUSH1 0x1 PUSH1 0x1 PUSH1 0xA0 SHL SUB AND PUSH2 0x3852 JUMP JUMPDEST PUSH1 0x40 MLOAD PUSH4 0xAA67C919 PUSH1 0xE0 SHL DUP2 MSTORE CALLER PUSH1 0x4 DUP3 ADD MSTORE PUSH1 0x1 PUSH1 0x1 PUSH1 0xA0 SHL SUB SWAP2 SWAP1 SWAP2 AND SWAP1 PUSH4 0xAA67C919 SWAP1 CALLVALUE SWAP1 PUSH1 0x24 ADD PUSH1 0x0 PUSH1 0x40 MLOAD DUP1 DUP4 SUB DUP2 DUP6 DUP9 DUP1 EXTCODESIZE ISZERO DUP1 ISZERO PUSH2 0x10CB JUMPI PUSH1 0x0 DUP1 REVERT JUMPDEST POP GAS CALL ISZERO DUP1 ISZERO PUSH2 0x10DF JUMPI RETURNDATASIZE PUSH1 0x0 DUP1 RETURNDATACOPY RETURNDATASIZE PUSH1 0x0 REVERT JUMPDEST POP POP POP PUSH1 0x1 PUSH1 0x1 PUSH1 0x40 SHL SUB TIMESTAMP AND PUSH1 0x60 DUP7 ADD MSTORE POP PUSH2 0x10FD SWAP1 POP DUP2 PUSH2 0x3C33 JUMP JUMPDEST PUSH1 0x1 PUSH1 0x1 PUSH1 0x80 SHL SUB SWAP1 DUP2 AND PUSH2 0x100 DUP6 ADD SWAP1 DUP2 MSTORE CALLER PUSH1 0x0 SWAP1 DUP2 MSTORE PUSH1 0x6 PUSH1 0x20 SWAP1 DUP2 MSTORE PUSH1 0x40 DUP1 DUP4 KECCAK256 DUP12 DUP5 MSTORE DUP3 MSTORE DUP1 DUP4 KECCAK256 DUP11 DUP5 MSTORE DUP3 MSTORE SWAP2 DUP3 SWAP1 KECCAK256 DUP8 MLOAD DUP2 SLOAD DUP4 DUP11 ADD MLOAD SWAP5 DUP11 ADD MLOAD PUSH1 0x60 DUP12 ADD MLOAD PUSH1 0x1 PUSH1 0x1 PUSH1 0x40 SHL SUB SWAP4 DUP5 AND PUSH1 0x1 PUSH1 0x1 PUSH1 0x80 SHL SUB NOT SWAP4 DUP5 AND OR PUSH1 0x1 PUSH1 0x40 SHL SWAP8 DUP6 AND SWAP8 SWAP1 SWAP8 MUL SWAP7 SWAP1 SWAP7 OR DUP9 AND PUSH1 0x1 PUSH1 0x80 SHL SWAP2 DUP5 AND DUP3 MUL PUSH1 0x1 PUSH1 0x1 PUSH1 0xC0 SHL SUB AND OR PUSH1 0x1 PUSH1 0xC0 SHL SWAP4 SWAP1 SWAP7 AND SWAP3 SWAP1 SWAP3 MUL SWAP5 SWAP1 SWAP5 OR DUP3 SSTORE PUSH1 0x80 DUP10 ADD MLOAD PUSH1 0x1 DUP4 ADD DUP1 SLOAD PUSH1 0x1 PUSH1 0x1 PUSH1 0xA0 SHL SUB NOT SWAP1 DUP2 AND PUSH1 0x1 PUSH1 0x1 PUSH1 0xA0 SHL SUB SWAP4 DUP5 AND OR SWAP1 SWAP2 SSTORE PUSH1 0xA0 DUP12 ADD MLOAD PUSH1 0x2 DUP6 ADD DUP1 SLOAD SWAP1 SWAP3 AND SWAP3 AND SWAP2 SWAP1 SWAP2 OR SWAP1 SSTORE PUSH1 0xC0 DUP10 ADD MLOAD PUSH1 0xE0 DUP11 ADD MLOAD SWAP1 DUP8 AND SWAP1 DUP8 AND SWAP1 SWAP2 MUL OR PUSH1 0x3 DUP3 ADD SSTORE SWAP3 MLOAD PUSH1 0x4 DUP5 ADD DUP1 SLOAD SWAP1 SWAP4 AND SWAP5 AND SWAP4 SWAP1 SWAP4 OR SWAP1 SSTORE PUSH2 0x120 DUP6 ADD MLOAD DUP1 MLOAD DUP7 SWAP4 PUSH2 0x1218 SWAP3 PUSH1 0x5 DUP6 ADD SWAP3 SWAP2 ADD SWAP1 PUSH2 0x44A9 JUMP JUMPDEST POP POP CALLER PUSH1 0x0 DUP2 DUP2 MSTORE PUSH1 0x7 PUSH1 0x20 SWAP1 DUP2 MSTORE PUSH1 0x40 DUP1 DUP4 KECCAK256 DUP2 MLOAD DUP1 DUP4 ADD SWAP1 SWAP3 MSTORE DUP12 DUP3 MSTORE DUP2 DUP4 ADD DUP12 DUP2 MSTORE DUP2 SLOAD PUSH1 0x1 DUP2 DUP2 ADD DUP5 SSTORE SWAP3 DUP7 MSTORE SWAP4 SWAP1 SWAP5 KECCAK256 SWAP2 MLOAD PUSH1 0x2 SWAP1 SWAP4 MUL SWAP1 SWAP2 ADD SWAP2 DUP3 SSTORE SWAP2 MLOAD SWAP2 ADD SSTORE PUSH2 0x126C SWAP2 POP PUSH1 0x8 SWAP1 PUSH2 0x3CA0 JUMP JUMPDEST POP DUP3 PUSH1 0x0 ADD MLOAD PUSH1 0x1 PUSH1 0x1 PUSH1 0x40 SHL SUB AND DUP6 DUP8 PUSH32 0xF8C4338A655AE888222012879EF5BDBC46CA5BDE6B154B5565048CFCCBC00781 CALLER DUP8 PUSH1 0xA0 ADD MLOAD DUP7 DUP10 PUSH1 0x80 ADD MLOAD DUP11 PUSH1 0xC0 ADD MLOAD DUP12 PUSH1 0xE0 ADD MLOAD DUP13 PUSH1 0x40 ADD MLOAD DUP14 PUSH2 0x120 ADD MLOAD PUSH1 0x40 MLOAD PUSH2 0x12D3 SWAP9 SWAP8 SWAP7 SWAP6 SWAP5 SWAP4 SWAP3 SWAP2 SWAP1 PUSH2 0x4DE0 JUMP JUMPDEST PUSH1 0x40 MLOAD DUP1 SWAP2 SUB SWAP1 LOG4 POP POP POP POP POP POP JUMP JUMPDEST PUSH32 0x0 PUSH1 0x40 MLOAD PUSH4 0x24745215 PUSH1 0xE2 SHL DUP2 MSTORE PUSH10 0x676F7665726E616E6365 PUSH1 0xB0 SHL PUSH1 0x4 DUP3 ADD MSTORE CALLER PUSH1 0x24 DUP3 ADD MSTORE PUSH1 0x1 PUSH1 0x1 PUSH1 0xA0 SHL SUB SWAP2 SWAP1 SWAP2 AND SWAP1 PUSH4 0x91D14854 SWAP1 PUSH1 0x44 ADD PUSH1 0x20 PUSH1 0x40 MLOAD DUP1 DUP4 SUB DUP2 DUP7 GAS STATICCALL ISZERO DUP1 ISZERO PUSH2 0x135D JUMPI RETURNDATASIZE PUSH1 0x0 DUP1 RETURNDATACOPY RETURNDATASIZE PUSH1 0x0 REVERT JUMPDEST POP POP POP POP PUSH1 0x40 MLOAD RETURNDATASIZE PUSH1 0x1F NOT PUSH1 0x1F DUP3 ADD AND DUP3 ADD DUP1 PUSH1 0x40 MSTORE POP DUP2 ADD SWAP1 PUSH2 0x1381 SWAP2 SWAP1 PUSH2 0x4D8E JUMP JUMPDEST PUSH1 0x40 MLOAD DUP1 PUSH1 0x40 ADD PUSH1 0x40 MSTORE DUP1 PUSH1 0x13 DUP2 MSTORE PUSH1 0x20 ADD PUSH1 0x0 DUP1 MLOAD PUSH1 0x20 PUSH2 0x50B8 DUP4 CODECOPY DUP2 MLOAD SWAP2 MSTORE DUP2 MSTORE POP SWAP1 PUSH2 0x13C3 JUMPI PUSH1 0x40 MLOAD PUSH3 0x461BCD PUSH1 0xE5 SHL DUP2 MSTORE PUSH1 0x4 ADD PUSH2 0x816 SWAP2 SWAP1 PUSH2 0x4D3C JUMP JUMPDEST POP PUSH1 0xB DUP1 SLOAD PUSH1 0x1 PUSH1 0x1 PUSH1 0xA0 SHL SUB NOT AND PUSH1 0x1 PUSH1 0x1 PUSH1 0xA0 SHL SUB DUP4 AND SWAP1 DUP2 OR SWAP1 SWAP2 SSTORE PUSH1 0x40 MLOAD SWAP1 DUP2 MSTORE PUSH32 0xAB9D6B7E6A08B170060612FE7982B02517C02C12C50E77DB3EFEBF1F665D52E2 SWAP1 PUSH1 0x20 ADD PUSH2 0xBB6 JUMP JUMPDEST PUSH1 0x1 PUSH1 0x1 PUSH1 0xA0 SHL SUB DUP2 AND PUSH1 0x0 SWAP1 DUP2 MSTORE PUSH1 0x7 PUSH1 0x20 SWAP1 DUP2 MSTORE PUSH1 0x40 DUP1 DUP4 KECCAK256 DUP1 SLOAD DUP3 MLOAD DUP2 DUP6 MUL DUP2 ADD DUP6 ADD SWAP1 SWAP4 MSTORE DUP1 DUP4 MSTORE PUSH1 0x60 SWAP5 SWAP3 SWAP4 SWAP2 SWAP3 SWAP1 SWAP2 DUP5 ADD JUMPDEST DUP3 DUP3 LT ISZERO PUSH2 0x1490 JUMPI DUP4 DUP3 SWAP1 PUSH1 0x0 MSTORE PUSH1 0x20 PUSH1 0x0 KECCAK256 SWAP1 PUSH1 0x2 MUL ADD PUSH1 0x40 MLOAD DUP1 PUSH1 0x40 ADD PUSH1 0x40 MSTORE SWAP1 DUP2 PUSH1 0x0 DUP3 ADD SLOAD DUP2 MSTORE PUSH1 0x20 ADD PUSH1 0x1 DUP3 ADD SLOAD DUP2 MSTORE POP POP DUP2 MSTORE PUSH1 0x20 ADD SWAP1 PUSH1 0x1 ADD SWAP1 PUSH2 0x144A JUMP JUMPDEST POP POP POP POP SWAP1 POP SWAP2 SWAP1 POP JUMP JUMPDEST PUSH1 0x0 SLOAD PUSH1 0x40 DUP1 MLOAD DUP1 DUP3 ADD SWAP1 SWAP2 MSTORE PUSH1 0x12 DUP2 MSTORE PUSH18 0x20B1BA34B7B71034B99039B43ABA3237BBB7 PUSH1 0x71 SHL PUSH1 0x20 DUP3 ADD MSTORE SWAP1 PUSH3 0x10000 SWAP1 DIV PUSH1 0xFF AND ISZERO PUSH2 0x14EF JUMPI PUSH1 0x40 MLOAD PUSH3 0x461BCD PUSH1 0xE5 SHL DUP2 MSTORE PUSH1 0x4 ADD PUSH2 0x816 SWAP2 SWAP1 PUSH2 0x4D3C JUMP JUMPDEST POP PUSH1 0x0 SLOAD PUSH1 0x40 DUP1 MLOAD DUP1 DUP3 ADD SWAP1 SWAP2 MSTORE PUSH1 0x10 DUP2 MSTORE PUSH16 0x1058DD1A5BDB881A5CC81C185D5CD959 PUSH1 0x82 SHL PUSH1 0x20 DUP3 ADD MSTORE SWAP1 PUSH4 0x1000000 SWAP1 DIV PUSH1 0xFF AND ISZERO PUSH2 0x1543 JUMPI PUSH1 0x40 MLOAD PUSH3 0x461BCD PUSH1 0xE5 SHL DUP2 MSTORE PUSH1 0x4 ADD PUSH2 0x816 SWAP2 SWAP1 PUSH2 0x4D3C JUMP JUMPDEST POP PUSH1 0x40 MLOAD PUSH4 0x6547D4B PUSH1 0xE2 SHL DUP2 MSTORE CALLER PUSH1 0x4 DUP3 ADD MSTORE PUSH32 0x0 PUSH1 0x1 PUSH1 0x1 PUSH1 0xA0 SHL SUB AND SWAP1 PUSH4 0x1951F52C SWAP1 PUSH1 0x24 ADD PUSH1 0x20 PUSH1 0x40 MLOAD DUP1 DUP4 SUB DUP2 DUP7 GAS STATICCALL ISZERO DUP1 ISZERO PUSH2 0x15A8 JUMPI RETURNDATASIZE PUSH1 0x0 DUP1 RETURNDATACOPY RETURNDATASIZE PUSH1 0x0 REVERT JUMPDEST POP POP POP POP PUSH1 0x40 MLOAD RETURNDATASIZE PUSH1 0x1F NOT PUSH1 0x1F DUP3 ADD AND DUP3 ADD DUP1 PUSH1 0x40 MSTORE POP DUP2 ADD SWAP1 PUSH2 0x15CC SWAP2 SWAP1 PUSH2 0x4D8E JUMP JUMPDEST PUSH1 0x40 MLOAD DUP1 PUSH1 0x40 ADD PUSH1 0x40 MSTORE DUP1 PUSH1 0x1D DUP2 MSTORE PUSH1 0x20 ADD PUSH32 0x4E6F7420656E6F756768204D45524F20746F6B656E73207374616B6564000000 DUP2 MSTORE POP SWAP1 PUSH2 0x1620 JUMPI PUSH1 0x40 MLOAD PUSH3 0x461BCD PUSH1 0xE5 SHL DUP2 MSTORE PUSH1 0x4 ADD PUSH2 0x816 SWAP2 SWAP1 PUSH2 0x4D3C JUMP JUMPDEST POP PUSH2 0x16F1 PUSH1 0x40 MLOAD DUP1 PUSH2 0x2E0 ADD PUSH1 0x40 MSTORE DUP1 PUSH1 0x0 DUP2 MSTORE PUSH1 0x20 ADD PUSH1 0x0 DUP2 MSTORE PUSH1 0x20 ADD PUSH1 0x0 DUP2 MSTORE PUSH1 0x20 ADD PUSH1 0x0 DUP2 MSTORE PUSH1 0x20 ADD PUSH1 0x0 DUP2 MSTORE PUSH1 0x20 ADD PUSH1 0x0 DUP2 MSTORE PUSH1 0x20 ADD PUSH1 0x0 DUP2 MSTORE PUSH1 0x20 ADD PUSH1 0x0 DUP2 MSTORE PUSH1 0x20 ADD PUSH1 0x0 DUP2 MSTORE PUSH1 0x20 ADD PUSH1 0x0 DUP2 MSTORE PUSH1 0x20 ADD PUSH1 0x0 PUSH1 0x1 PUSH1 0x1 PUSH1 0x80 SHL SUB AND DUP2 MSTORE PUSH1 0x20 ADD PUSH1 0x0 ISZERO ISZERO DUP2 MSTORE PUSH1 0x20 ADD PUSH1 0x0 DUP2 MSTORE PUSH1 0x20 ADD PUSH1 0x0 DUP2 MSTORE PUSH1 0x20 ADD PUSH1 0x0 DUP2 MSTORE PUSH1 0x20 ADD PUSH1 0x0 DUP2 MSTORE PUSH1 0x20 ADD PUSH1 0x0 DUP2 MSTORE PUSH1 0x20 ADD PUSH1 0x0 DUP2 MSTORE PUSH1 0x20 ADD PUSH1 0x0 DUP2 MSTORE PUSH1 0x20 ADD PUSH1 0x0 DUP2 MSTORE PUSH1 0x20 ADD PUSH1 0x0 PUSH1 0x1 PUSH1 0x1 PUSH1 0xA0 SHL SUB AND DUP2 MSTORE PUSH1 0x20 ADD PUSH1 0x0 ISZERO ISZERO DUP2 MSTORE PUSH1 0x20 ADD PUSH1 0x0 PUSH1 0x1 PUSH1 0x1 PUSH1 0xA0 SHL SUB AND DUP2 MSTORE POP SWAP1 JUMP JUMPDEST GAS PUSH2 0x1A0 DUP3 ADD MSTORE PUSH1 0x1 PUSH1 0x1 PUSH1 0xA0 SHL SUB DUP7 AND PUSH1 0x0 SWAP1 DUP2 MSTORE PUSH1 0x6 PUSH1 0x20 SWAP1 DUP2 MSTORE PUSH1 0x40 DUP1 DUP4 KECCAK256 DUP9 DUP5 MSTORE DUP3 MSTORE DUP1 DUP4 KECCAK256 DUP7 DUP5 MSTORE DUP3 MSTORE SWAP2 DUP3 SWAP1 KECCAK256 DUP1 SLOAD DUP4 MLOAD DUP1 DUP6 ADD SWAP1 SWAP5 MSTORE PUSH1 0x12 DUP5 MSTORE PUSH18 0x6E6F20706F736974696F6E20657869737473 PUSH1 0x70 SHL SWAP3 DUP5 ADD SWAP3 SWAP1 SWAP3 MSTORE SWAP2 SWAP1 PUSH1 0x1 PUSH1 0x1 PUSH1 0x40 SHL SUB AND PUSH2 0x1777 JUMPI PUSH1 0x40 MLOAD PUSH3 0x461BCD PUSH1 0xE5 SHL DUP2 MSTORE PUSH1 0x4 ADD PUSH2 0x816 SWAP2 SWAP1 PUSH2 0x4D3C JUMP JUMPDEST POP PUSH1 0x3 DUP2 ADD SLOAD PUSH1 0x40 DUP1 MLOAD DUP1 DUP3 ADD SWAP1 SWAP2 MSTORE PUSH1 0x14 DUP2 MSTORE PUSH20 0x696E73756666696369656E742062616C616E6365 PUSH1 0x60 SHL PUSH1 0x20 DUP3 ADD MSTORE SWAP1 PUSH1 0x1 PUSH1 0x80 SHL SWAP1 DIV PUSH1 0x1 PUSH1 0x1 PUSH1 0x80 SHL SUB AND PUSH2 0x17D6 JUMPI PUSH1 0x40 MLOAD PUSH3 0x461BCD PUSH1 0xE5 SHL DUP2 MSTORE PUSH1 0x4 ADD PUSH2 0x816 SWAP2 SWAP1 PUSH2 0x4D3C JUMP JUMPDEST POP DUP1 SLOAD PUSH1 0x40 DUP1 MLOAD PUSH1 0x60 DUP2 ADD SWAP1 SWAP2 MSTORE PUSH1 0x23 DUP1 DUP3 MSTORE PUSH1 0x1 PUSH1 0xC0 SHL SWAP1 SWAP3 DIV PUSH1 0x1 PUSH1 0x1 PUSH1 0x40 SHL SUB AND TIMESTAMP GT SWAP2 PUSH2 0x50D8 PUSH1 0x20 DUP4 ADD CODECOPY SWAP1 PUSH2 0x1823 JUMPI PUSH1 0x40 MLOAD PUSH3 0x461BCD PUSH1 0xE5 SHL DUP2 MSTORE PUSH1 0x4 ADD PUSH2 0x816 SWAP2 SWAP1 PUSH2 0x4D3C JUMP JUMPDEST POP PUSH2 0x182F DUP5 PUSH1 0x1 PUSH2 0x388B JUMP JUMPDEST PUSH1 0x1 PUSH1 0x1 PUSH1 0xA0 SHL SUB AND PUSH2 0x2C0 DUP4 ADD DUP2 SWAP1 MSTORE PUSH1 0x40 MLOAD PUSH4 0x673F3497 PUSH1 0xE1 SHL DUP2 MSTORE PUSH4 0xCE7E692E SWAP1 PUSH2 0x1866 SWAP1 DUP10 SWAP1 PUSH1 0x5 DUP7 ADD SWAP1 PUSH1 0x4 ADD PUSH2 0x4EF1 JUMP JUMPDEST PUSH1 0x20 PUSH1 0x40 MLOAD DUP1 DUP4 SUB DUP2 DUP7 GAS STATICCALL ISZERO DUP1 ISZERO PUSH2 0x1883 JUMPI RETURNDATASIZE PUSH1 0x0 DUP1 RETURNDATACOPY RETURNDATASIZE PUSH1 0x0 REVERT JUMPDEST POP POP POP POP PUSH1 0x40 MLOAD RETURNDATASIZE PUSH1 0x1F NOT PUSH1 0x1F DUP3 ADD AND DUP3 ADD DUP1 PUSH1 0x40 MSTORE POP DUP2 ADD SWAP1 PUSH2 0x18A7 SWAP2 SWAP1 PUSH2 0x4F0A JUMP JUMPDEST PUSH1 0x80 DUP4 ADD DUP2 SWAP1 MSTORE DUP2 SLOAD PUSH1 0x40 DUP1 MLOAD DUP1 DUP3 ADD SWAP1 SWAP2 MSTORE PUSH1 0x16 DUP2 MSTORE PUSH22 0x1A5B9CDD59999A58DA595B9D081D1A1C995CDA1BDB19 PUSH1 0x52 SHL PUSH1 0x20 DUP3 ADD MSTORE SWAP2 PUSH1 0x1 PUSH1 0x1 PUSH1 0x40 SHL SUB SWAP1 SWAP2 AND GT PUSH2 0x1907 JUMPI PUSH1 0x40 MLOAD PUSH3 0x461BCD PUSH1 0xE5 SHL DUP2 MSTORE PUSH1 0x4 ADD PUSH2 0x816 SWAP2 SWAP1 PUSH2 0x4D3C JUMP JUMPDEST POP PUSH32 0x0 PUSH1 0x0 PUSH2 0x193D PUSH1 0x1 PUSH1 0x1 PUSH1 0xA0 SHL SUB DUP4 AND PUSH2 0x3852 JUMP JUMPDEST PUSH1 0xC SLOAD PUSH2 0x200 DUP7 ADD DUP2 SWAP1 MSTORE SWAP1 SWAP2 POP PUSH2 0x1956 SWAP1 GASPRICE SWAP1 PUSH2 0x4DC1 JUMP JUMPDEST PUSH2 0x220 DUP6 ADD MSTORE DUP3 SLOAD PUSH2 0x1978 SWAP1 PUSH1 0x1 PUSH1 0x40 SHL SWAP1 DIV PUSH1 0x1 PUSH1 0x1 PUSH1 0x40 SHL SUB AND BASEFEE PUSH2 0x4F23 JUMP JUMPDEST PUSH2 0x1E0 DUP6 ADD DUP2 SWAP1 MSTORE GASPRICE LT ISZERO PUSH2 0x198F JUMPI GASPRICE PUSH2 0x1E0 DUP6 ADD MSTORE JUMPDEST DUP3 SLOAD PUSH2 0x1E0 DUP6 ADD MLOAD PUSH1 0x1 PUSH1 0x80 SHL SWAP1 SWAP2 DIV PUSH1 0x1 PUSH1 0x1 PUSH1 0x40 SHL SUB AND LT ISZERO PUSH2 0x19C7 JUMPI DUP3 SLOAD PUSH1 0x1 PUSH1 0x80 SHL SWAP1 DIV PUSH1 0x1 PUSH1 0x1 PUSH1 0x40 SHL SUB AND PUSH2 0x1E0 DUP6 ADD MSTORE JUMPDEST DUP5 DUP5 PUSH2 0x1E0 ADD MLOAD DUP6 PUSH2 0x200 ADD MLOAD PUSH2 0x19DE SWAP2 SWAP1 PUSH2 0x4DC1 JUMP JUMPDEST PUSH2 0x19E8 SWAP2 SWAP1 PUSH2 0x4F23 JUMP JUMPDEST DUP5 PUSH2 0x220 ADD MLOAD GT ISZERO PUSH1 0x40 MLOAD DUP1 PUSH1 0x60 ADD PUSH1 0x40 MSTORE DUP1 PUSH1 0x21 DUP2 MSTORE PUSH1 0x20 ADD PUSH2 0x5070 PUSH1 0x21 SWAP2 CODECOPY SWAP1 PUSH2 0x1A27 JUMPI PUSH1 0x40 MLOAD PUSH3 0x461BCD PUSH1 0xE5 SHL DUP2 MSTORE PUSH1 0x4 ADD PUSH2 0x816 SWAP2 SWAP1 PUSH2 0x4D3C JUMP JUMPDEST POP PUSH1 0x40 MLOAD PUSH4 0x70A08231 PUSH1 0xE0 SHL DUP2 MSTORE PUSH1 0x1 PUSH1 0x1 PUSH1 0xA0 SHL SUB DUP11 DUP2 AND PUSH1 0x4 DUP4 ADD MSTORE DUP3 AND SWAP1 PUSH4 0x70A08231 SWAP1 PUSH1 0x24 ADD PUSH1 0x20 PUSH1 0x40 MLOAD DUP1 DUP4 SUB DUP2 DUP7 GAS STATICCALL ISZERO DUP1 ISZERO PUSH2 0x1A6E JUMPI RETURNDATASIZE PUSH1 0x0 DUP1 RETURNDATACOPY RETURNDATASIZE PUSH1 0x0 REVERT JUMPDEST POP POP POP POP PUSH1 0x40 MLOAD RETURNDATASIZE PUSH1 0x1F NOT PUSH1 0x1F DUP3 ADD AND DUP3 ADD DUP1 PUSH1 0x40 MSTORE POP DUP2 ADD SWAP1 PUSH2 0x1A92 SWAP2 SWAP1 PUSH2 0x4F0A JUMP JUMPDEST PUSH2 0x180 DUP6 ADD DUP2 SWAP1 MSTORE PUSH2 0x220 DUP6 ADD MLOAD SWAP1 PUSH2 0x1AAC SWAP1 DUP8 SWAP1 PUSH2 0x4F23 JUMP JUMPDEST LT ISZERO PUSH1 0x40 MLOAD DUP1 PUSH1 0x60 ADD PUSH1 0x40 MSTORE DUP1 PUSH1 0x27 DUP2 MSTORE PUSH1 0x20 ADD PUSH2 0x5091 PUSH1 0x27 SWAP2 CODECOPY SWAP1 PUSH2 0x1AE5 JUMPI PUSH1 0x40 MLOAD PUSH3 0x461BCD PUSH1 0xE5 SHL DUP2 MSTORE PUSH1 0x4 ADD PUSH2 0x816 SWAP2 SWAP1 PUSH2 0x4D3C JUMP JUMPDEST POP PUSH1 0x3 DUP4 ADD SLOAD PUSH1 0x1 PUSH1 0x1 PUSH1 0x80 SHL SUB PUSH1 0x1 PUSH1 0x80 SHL DUP3 DIV DUP2 AND PUSH2 0x140 DUP8 ADD MSTORE PUSH1 0xA SLOAD PUSH2 0x100 DUP8 ADD DUP2 SWAP1 MSTORE SWAP2 AND DUP6 MSTORE PUSH2 0x1B2F SWAP1 PUSH2 0x1B27 SWAP1 PUSH8 0xDE0B6B3A7640000 PUSH2 0x4F23 JUMP JUMPDEST DUP6 MLOAD SWAP1 PUSH2 0x3CB5 JUMP JUMPDEST PUSH1 0x60 DUP6 ADD DUP2 SWAP1 MSTORE PUSH2 0x140 DUP6 ADD MLOAD PUSH1 0x1 PUSH1 0x1 PUSH1 0x80 SHL SUB AND LT ISZERO PUSH2 0x1B89 JUMPI PUSH2 0x140 DUP5 ADD MLOAD PUSH1 0x1 PUSH1 0x1 PUSH1 0x80 SHL SUB AND PUSH1 0x60 DUP6 ADD MSTORE PUSH2 0x100 DUP5 ADD MLOAD PUSH2 0x1B86 SWAP1 PUSH2 0x1B7B SWAP1 PUSH8 0xDE0B6B3A7640000 PUSH2 0x4F23 JUMP JUMPDEST PUSH1 0x60 DUP7 ADD MLOAD SWAP1 PUSH2 0x3CCA JUMP JUMPDEST DUP5 MSTORE JUMPDEST PUSH1 0x2 DUP4 ADD SLOAD PUSH1 0x40 MLOAD PUSH4 0x956FEF3 PUSH1 0xE2 SHL DUP2 MSTORE PUSH1 0x1 PUSH1 0x1 PUSH1 0xA0 SHL SUB SWAP2 DUP3 AND PUSH1 0x4 DUP3 ADD MSTORE PUSH1 0x0 SWAP2 DUP5 AND SWAP1 PUSH4 0x255BFBCC SWAP1 PUSH1 0x24 ADD PUSH1 0x20 PUSH1 0x40 MLOAD DUP1 DUP4 SUB DUP2 DUP7 GAS STATICCALL ISZERO DUP1 ISZERO PUSH2 0x1BD7 JUMPI RETURNDATASIZE PUSH1 0x0 DUP1 RETURNDATACOPY RETURNDATASIZE PUSH1 0x0 REVERT JUMPDEST POP POP POP POP PUSH1 0x40 MLOAD RETURNDATASIZE PUSH1 0x1F NOT PUSH1 0x1F DUP3 ADD AND DUP3 ADD DUP1 PUSH1 0x40 MSTORE POP DUP2 ADD SWAP1 PUSH2 0x1BFB SWAP2 SWAP1 PUSH2 0x4D4F JUMP JUMPDEST SWAP1 POP DUP1 PUSH1 0x1 PUSH1 0x1 PUSH1 0xA0 SHL SUB AND PUSH4 0x9816F473 PUSH1 0x40 MLOAD DUP2 PUSH4 0xFFFFFFFF AND PUSH1 0xE0 SHL DUP2 MSTORE PUSH1 0x4 ADD PUSH1 0x20 PUSH1 0x40 MLOAD DUP1 DUP4 SUB DUP2 DUP7 GAS STATICCALL ISZERO DUP1 ISZERO PUSH2 0x1C3B JUMPI RETURNDATASIZE PUSH1 0x0 DUP1 RETURNDATACOPY RETURNDATASIZE PUSH1 0x0 REVERT JUMPDEST POP POP POP POP PUSH1 0x40 MLOAD RETURNDATASIZE PUSH1 0x1F NOT PUSH1 0x1F DUP3 ADD AND DUP3 ADD DUP1 PUSH1 0x40 MSTORE POP DUP2 ADD SWAP1 PUSH2 0x1C5F SWAP2 SWAP1 PUSH2 0x4D4F JUMP JUMPDEST DUP6 PUSH2 0x280 ADD SWAP1 PUSH1 0x1 PUSH1 0x1 PUSH1 0xA0 SHL SUB AND SWAP1 DUP2 PUSH1 0x1 PUSH1 0x1 PUSH1 0xA0 SHL SUB AND DUP2 MSTORE POP POP DUP1 PUSH1 0x1 PUSH1 0x1 PUSH1 0xA0 SHL SUB AND PUSH4 0x3BA0B9A9 PUSH1 0x40 MLOAD DUP2 PUSH4 0xFFFFFFFF AND PUSH1 0xE0 SHL DUP2 MSTORE PUSH1 0x4 ADD PUSH1 0x20 PUSH1 0x40 MLOAD DUP1 DUP4 SUB DUP2 DUP7 GAS STATICCALL ISZERO DUP1 ISZERO PUSH2 0x1CBB JUMPI RETURNDATASIZE PUSH1 0x0 DUP1 RETURNDATACOPY RETURNDATASIZE PUSH1 0x0 REVERT JUMPDEST POP POP POP POP PUSH1 0x40 MLOAD RETURNDATASIZE PUSH1 0x1F NOT PUSH1 0x1F DUP3 ADD AND DUP3 ADD DUP1 PUSH1 0x40 MSTORE POP DUP2 ADD SWAP1 PUSH2 0x1CDF SWAP2 SWAP1 PUSH2 0x4F0A JUMP JUMPDEST PUSH1 0xA0 DUP7 ADD DUP2 SWAP1 MSTORE PUSH1 0x60 DUP7 ADD MLOAD PUSH2 0x1CF4 SWAP2 PUSH2 0x3CDF JUMP JUMPDEST PUSH1 0xC0 DUP7 ADD DUP2 SWAP1 MSTORE PUSH1 0x4 DUP6 ADD SLOAD PUSH1 0x1 PUSH1 0x1 PUSH1 0x80 SHL SUB AND LT ISZERO PUSH2 0x1D5B JUMPI PUSH1 0x4 DUP5 ADD SLOAD PUSH1 0x1 PUSH1 0x1 PUSH1 0x80 SHL SUB AND PUSH1 0xC0 DUP7 ADD MSTORE PUSH2 0x100 DUP6 ADD MLOAD PUSH2 0x1D3A SWAP1 PUSH8 0xDE0B6B3A7640000 PUSH2 0x4F23 JUMP JUMPDEST DUP6 PUSH1 0xA0 ADD MLOAD DUP7 PUSH1 0xC0 ADD MLOAD PUSH2 0x1D4E SWAP2 SWAP1 PUSH2 0x4DC1 JUMP JUMPDEST PUSH2 0x1D58 SWAP2 SWAP1 PUSH2 0x4F3B JUMP JUMPDEST DUP6 MSTORE JUMPDEST PUSH1 0xA0 DUP6 ADD MLOAD DUP6 MLOAD PUSH2 0x1D6B SWAP2 PUSH2 0x3CDF JUMP JUMPDEST PUSH1 0xE0 DUP7 ADD DUP2 SWAP1 MSTORE PUSH1 0xC0 DUP7 ADD MLOAD PUSH2 0x1D81 SWAP2 SWAP1 PUSH2 0x4F5D JUMP JUMPDEST PUSH1 0x40 DUP7 DUP2 ADD SWAP2 SWAP1 SWAP2 MSTORE PUSH1 0x2 DUP6 ADD SLOAD SWAP1 MLOAD PUSH4 0x59EADEB PUSH1 0xE4 SHL DUP2 MSTORE PUSH1 0x1 PUSH1 0x1 PUSH1 0xA0 SHL SUB SWAP2 DUP3 AND PUSH1 0x4 DUP3 ADD MSTORE PUSH1 0x0 SWAP2 DUP6 AND SWAP1 PUSH4 0x59EADEB0 SWAP1 PUSH1 0x24 ADD PUSH1 0x20 PUSH1 0x40 MLOAD DUP1 DUP4 SUB DUP2 DUP7 GAS STATICCALL ISZERO DUP1 ISZERO PUSH2 0x1DD7 JUMPI RETURNDATASIZE PUSH1 0x0 DUP1 RETURNDATACOPY RETURNDATASIZE PUSH1 0x0 REVERT JUMPDEST POP POP POP POP PUSH1 0x40 MLOAD RETURNDATASIZE PUSH1 0x1F NOT PUSH1 0x1F DUP3 ADD AND DUP3 ADD DUP1 PUSH1 0x40 MSTORE POP DUP2 ADD SWAP1 PUSH2 0x1DFB SWAP2 SWAP1 PUSH2 0x4D4F JUMP JUMPDEST PUSH1 0xC0 DUP8 ADD MLOAD PUSH1 0x40 MLOAD PUSH4 0x5C2FBCF PUSH1 0xE3 SHL DUP2 MSTORE SWAP2 SWAP3 POP PUSH1 0x1 PUSH1 0x1 PUSH1 0xA0 SHL SUB DUP4 AND SWAP2 PUSH4 0x2E17DE78 SWAP2 PUSH2 0x1E31 SWAP2 PUSH1 0x4 ADD SWAP1 DUP2 MSTORE PUSH1 0x20 ADD SWAP1 JUMP JUMPDEST PUSH1 0x0 PUSH1 0x40 MLOAD DUP1 DUP4 SUB DUP2 PUSH1 0x0 DUP8 DUP1 EXTCODESIZE ISZERO DUP1 ISZERO PUSH2 0x1E4B JUMPI PUSH1 0x0 DUP1 REVERT JUMPDEST POP GAS CALL ISZERO DUP1 ISZERO PUSH2 0x1E5F JUMPI RETURNDATASIZE PUSH1 0x0 DUP1 RETURNDATACOPY RETURNDATASIZE PUSH1 0x0 REVERT JUMPDEST POP POP POP POP PUSH1 0xC0 DUP7 ADD MLOAD PUSH1 0x40 MLOAD PUSH4 0x6A278CD9 PUSH1 0xE0 SHL DUP2 MSTORE PUSH1 0x1 PUSH1 0x1 PUSH1 0xA0 SHL SUB DUP14 DUP2 AND PUSH1 0x4 DUP4 ADD MSTORE PUSH1 0x24 DUP3 ADD SWAP3 SWAP1 SWAP3 MSTORE SWAP1 DUP3 AND SWAP1 PUSH4 0x6A278CD9 SWAP1 PUSH1 0x44 ADD PUSH1 0x0 PUSH1 0x40 MLOAD DUP1 DUP4 SUB DUP2 PUSH1 0x0 DUP8 DUP1 EXTCODESIZE ISZERO DUP1 ISZERO PUSH2 0x1EB4 JUMPI PUSH1 0x0 DUP1 REVERT JUMPDEST POP GAS CALL ISZERO DUP1 ISZERO PUSH2 0x1EC8 JUMPI RETURNDATASIZE PUSH1 0x0 DUP1 RETURNDATACOPY RETURNDATASIZE PUSH1 0x0 REVERT JUMPDEST POP POP POP PUSH1 0xE0 DUP8 ADD MLOAD PUSH1 0x40 MLOAD PUSH4 0xDB006A75 PUSH1 0xE0 SHL DUP2 MSTORE PUSH1 0x1 PUSH1 0x1 PUSH1 0xA0 SHL SUB DUP6 AND SWAP3 POP PUSH4 0xDB006A75 SWAP2 PUSH2 0x1EFF SWAP2 PUSH1 0x4 ADD SWAP1 DUP2 MSTORE PUSH1 0x20 ADD SWAP1 JUMP JUMPDEST PUSH1 0x20 PUSH1 0x40 MLOAD DUP1 DUP4 SUB DUP2 PUSH1 0x0 DUP8 GAS CALL ISZERO DUP1 ISZERO PUSH2 0x1F1E JUMPI RETURNDATASIZE PUSH1 0x0 DUP1 RETURNDATACOPY RETURNDATASIZE PUSH1 0x0 REVERT JUMPDEST POP POP POP POP PUSH1 0x40 MLOAD RETURNDATASIZE PUSH1 0x1F NOT PUSH1 0x1F DUP3 ADD AND DUP3 ADD DUP1 PUSH1 0x40 MSTORE POP DUP2 ADD SWAP1 PUSH2 0x1F42 SWAP2 SWAP1 PUSH2 0x4F0A JUMP JUMPDEST PUSH1 0x20 DUP8 ADD MSTORE PUSH1 0xA0 DUP7 ADD MLOAD PUSH1 0x40 DUP8 ADD MLOAD PUSH2 0x1F5A SWAP2 PUSH2 0x3CB5 JUMP JUMPDEST DUP7 PUSH1 0x20 ADD MLOAD PUSH2 0x1F69 SWAP2 SWAP1 PUSH2 0x4F23 JUMP JUMPDEST PUSH2 0x120 DUP8 ADD MSTORE PUSH1 0x1 DUP6 ADD SLOAD PUSH1 0x0 SWAP1 PUSH1 0x1 PUSH1 0x1 PUSH1 0xA0 SHL SUB AND PUSH2 0x1F8F JUMPI POP PUSH1 0x20 DUP7 ADD MLOAD PUSH2 0x1FAD JUMP JUMPDEST PUSH1 0x1 DUP7 ADD SLOAD PUSH2 0x2C0 DUP9 ADD MLOAD PUSH2 0x1FAD SWAP2 PUSH1 0x1 PUSH1 0x1 PUSH1 0xA0 SHL SUB AND SWAP1 PUSH2 0x3D01 JUMP JUMPDEST DUP7 PUSH2 0x2C0 ADD MLOAD PUSH1 0x1 PUSH1 0x1 PUSH1 0xA0 SHL SUB AND PUSH4 0xDAC6DE72 DUP3 DUP14 DUP10 PUSH1 0x1 ADD PUSH1 0x0 SWAP1 SLOAD SWAP1 PUSH2 0x100 EXP SWAP1 DIV PUSH1 0x1 PUSH1 0x1 PUSH1 0xA0 SHL SUB AND DUP12 PUSH1 0x20 ADD MLOAD DUP12 PUSH1 0x5 ADD PUSH1 0x40 MLOAD DUP7 PUSH4 0xFFFFFFFF AND PUSH1 0xE0 SHL DUP2 MSTORE PUSH1 0x4 ADD PUSH2 0x2003 SWAP5 SWAP4 SWAP3 SWAP2 SWAP1 PUSH2 0x4F74 JUMP JUMPDEST PUSH1 0x0 PUSH1 0x40 MLOAD DUP1 DUP4 SUB DUP2 DUP6 DUP9 DUP1 EXTCODESIZE ISZERO DUP1 ISZERO PUSH2 0x201C JUMPI PUSH1 0x0 DUP1 REVERT JUMPDEST POP GAS CALL ISZERO DUP1 ISZERO PUSH2 0x2030 JUMPI RETURNDATASIZE PUSH1 0x0 DUP1 RETURNDATACOPY RETURNDATASIZE PUSH1 0x0 REVERT JUMPDEST POP POP POP POP POP DUP7 PUSH2 0x120 ADD MLOAD DUP8 PUSH2 0x140 ADD MLOAD PUSH1 0x1 PUSH1 0x1 PUSH1 0x80 SHL SUB AND GT ISZERO PUSH2 0x20AB JUMPI PUSH2 0x205E DUP8 PUSH2 0x120 ADD MLOAD PUSH2 0x3C33 JUMP JUMPDEST PUSH1 0x3 DUP8 ADD DUP1 SLOAD PUSH1 0x10 SWAP1 PUSH2 0x2082 SWAP1 DUP5 SWAP1 PUSH1 0x1 PUSH1 0x80 SHL SWAP1 DIV PUSH1 0x1 PUSH1 0x1 PUSH1 0x80 SHL SUB AND PUSH2 0x4FA1 JUMP JUMPDEST SWAP3 POP PUSH2 0x100 EXP DUP2 SLOAD DUP2 PUSH1 0x1 PUSH1 0x1 PUSH1 0x80 SHL SUB MUL NOT AND SWAP1 DUP4 PUSH1 0x1 PUSH1 0x1 PUSH1 0x80 SHL SUB AND MUL OR SWAP1 SSTORE POP PUSH2 0x20BD JUMP JUMPDEST PUSH1 0x3 DUP7 ADD DUP1 SLOAD PUSH1 0x1 PUSH1 0x1 PUSH1 0x80 SHL SUB AND SWAP1 SSTORE JUMPDEST PUSH2 0x20CA DUP8 PUSH1 0xC0 ADD MLOAD PUSH2 0x3C33 JUMP JUMPDEST PUSH1 0x4 DUP8 ADD DUP1 SLOAD PUSH1 0x0 SWAP1 PUSH2 0x20E7 SWAP1 DUP5 SWAP1 PUSH1 0x1 PUSH1 0x1 PUSH1 0x80 SHL SUB AND PUSH2 0x4FA1 JUMP JUMPDEST SWAP3 POP PUSH2 0x100 EXP DUP2 SLOAD DUP2 PUSH1 0x1 PUSH1 0x1 PUSH1 0x80 SHL SUB MUL NOT AND SWAP1 DUP4 PUSH1 0x1 PUSH1 0x1 PUSH1 0x80 SHL SUB AND MUL OR SWAP1 SSTORE POP DUP6 PUSH1 0x3 ADD PUSH1 0x10 SWAP1 SLOAD SWAP1 PUSH2 0x100 EXP SWAP1 DIV PUSH1 0x1 PUSH1 0x1 PUSH1 0x80 SHL SUB AND PUSH1 0x1 PUSH1 0x1 PUSH1 0x80 SHL SUB AND PUSH1 0x0 EQ DUP1 PUSH2 0x2145 JUMPI POP PUSH1 0x4 DUP7 ADD SLOAD PUSH1 0x1 PUSH1 0x1 PUSH1 0x80 SHL SUB AND ISZERO JUMPDEST ISZERO ISZERO PUSH2 0x2A0 DUP9 ADD MSTORE PUSH1 0x40 DUP8 ADD MLOAD PUSH1 0x2 DUP8 ADD SLOAD PUSH2 0x216E SWAP2 DUP15 SWAP2 DUP14 SWAP2 SWAP1 PUSH1 0x1 PUSH1 0x1 PUSH1 0xA0 SHL SUB AND PUSH2 0x3D99 JUMP JUMPDEST DUP7 PUSH2 0x2A0 ADD MLOAD ISZERO PUSH2 0x2286 JUMPI PUSH1 0x4 DUP7 ADD SLOAD PUSH1 0x1 PUSH1 0x1 PUSH1 0x80 SHL SUB AND ISZERO PUSH2 0x227B JUMPI DUP2 PUSH1 0x1 PUSH1 0x1 PUSH1 0xA0 SHL SUB AND PUSH4 0xA9059CBB DUP14 DUP9 PUSH1 0x4 ADD PUSH1 0x0 SWAP1 SLOAD SWAP1 PUSH2 0x100 EXP SWAP1 DIV PUSH1 0x1 PUSH1 0x1 PUSH1 0x80 SHL SUB AND PUSH1 0x40 MLOAD DUP4 PUSH4 0xFFFFFFFF AND PUSH1 0xE0 SHL DUP2 MSTORE PUSH1 0x4 ADD PUSH2 0x21D1 SWAP3 SWAP2 SWAP1 PUSH2 0x4D6C JUMP JUMPDEST PUSH1 0x0 PUSH1 0x40 MLOAD DUP1 DUP4 SUB DUP2 PUSH1 0x0 DUP8 DUP1 EXTCODESIZE ISZERO DUP1 ISZERO PUSH2 0x21EB JUMPI PUSH1 0x0 DUP1 REVERT JUMPDEST POP GAS CALL ISZERO DUP1 ISZERO PUSH2 0x21FF JUMPI RETURNDATASIZE PUSH1 0x0 DUP1 RETURNDATACOPY RETURNDATASIZE PUSH1 0x0 REVERT JUMPDEST POP POP POP POP DUP2 PUSH1 0x1 PUSH1 0x1 PUSH1 0xA0 SHL SUB AND PUSH4 0x6A278CD9 DUP14 DUP9 PUSH1 0x4 ADD PUSH1 0x0 SWAP1 SLOAD SWAP1 PUSH2 0x100 EXP SWAP1 DIV PUSH1 0x1 PUSH1 0x1 PUSH1 0x80 SHL SUB AND PUSH1 0x40 MLOAD DUP4 PUSH4 0xFFFFFFFF AND PUSH1 0xE0 SHL DUP2 MSTORE PUSH1 0x4 ADD PUSH2 0x2248 SWAP3 SWAP2 SWAP1 PUSH2 0x4D6C JUMP JUMPDEST PUSH1 0x0 PUSH1 0x40 MLOAD DUP1 DUP4 SUB DUP2 PUSH1 0x0 DUP8 DUP1 EXTCODESIZE ISZERO DUP1 ISZERO PUSH2 0x2262 JUMPI PUSH1 0x0 DUP1 REVERT JUMPDEST POP GAS CALL ISZERO DUP1 ISZERO PUSH2 0x2276 JUMPI RETURNDATASIZE PUSH1 0x0 DUP1 RETURNDATACOPY RETURNDATASIZE PUSH1 0x0 REVERT JUMPDEST POP POP POP POP JUMPDEST PUSH2 0x2286 DUP13 DUP13 DUP12 PUSH2 0x3769 JUMP JUMPDEST PUSH1 0x2 DUP7 ADD SLOAD PUSH1 0xC0 DUP9 ADD MLOAD PUSH1 0x1 DUP9 ADD SLOAD PUSH1 0x20 DUP1 DUP12 ADD MLOAD PUSH1 0x40 DUP1 MLOAD PUSH1 0x1 PUSH1 0x1 PUSH1 0xA0 SHL SUB SWAP7 DUP8 AND DUP2 MSTORE SWAP3 DUP4 ADD SWAP5 SWAP1 SWAP5 MSTORE SWAP2 DUP5 AND SWAP3 DUP2 ADD SWAP3 SWAP1 SWAP3 MSTORE PUSH1 0x60 DUP3 ADD MSTORE SWAP1 DUP14 AND SWAP1 DUP11 SWAP1 DUP14 SWAP1 PUSH32 0xA25497780B9913305877FBABB319E19163FEC169DDF54E7F2EBB2903B598D32E SWAP1 PUSH1 0x80 ADD PUSH1 0x40 MLOAD DUP1 SWAP2 SUB SWAP1 LOG4 GAS DUP8 PUSH2 0x1A0 ADD MLOAD PUSH2 0x2308 SWAP2 SWAP1 PUSH2 0x4F5D JUMP JUMPDEST PUSH2 0x1C0 DUP9 ADD DUP2 SWAP1 MSTORE PUSH2 0x1E0 DUP9 ADD MLOAD PUSH2 0x2320 SWAP2 SWAP1 PUSH2 0x4DC1 JUMP JUMPDEST PUSH2 0x260 DUP9 ADD DUP2 SWAP1 MSTORE PUSH2 0x180 DUP9 ADD MLOAD LT ISZERO PUSH2 0x2341 JUMPI PUSH2 0x180 DUP8 ADD MLOAD PUSH2 0x260 DUP9 ADD MSTORE JUMPDEST PUSH2 0x1C0 DUP8 ADD MLOAD PUSH2 0x2351 SWAP1 GASPRICE PUSH2 0x4DC1 JUMP JUMPDEST PUSH2 0x240 DUP9 ADD DUP2 SWAP1 MSTORE PUSH2 0x260 DUP9 ADD MLOAD PUSH2 0x236A SWAP1 DUP11 SWAP1 PUSH2 0x4F23 JUMP JUMPDEST LT ISZERO PUSH1 0x40 MLOAD DUP1 PUSH1 0x40 ADD PUSH1 0x40 MSTORE DUP1 PUSH1 0x19 DUP2 MSTORE PUSH1 0x20 ADD PUSH32 0x746F6F206D75636820455448207573656420666F722067617300000000000000 DUP2 MSTORE POP SWAP1 PUSH2 0x23C0 JUMPI PUSH1 0x40 MLOAD PUSH3 0x461BCD PUSH1 0xE5 SHL DUP2 MSTORE PUSH1 0x4 ADD PUSH2 0x816 SWAP2 SWAP1 PUSH2 0x4D3C JUMP JUMPDEST POP PUSH2 0x260 DUP8 ADD MLOAD PUSH1 0x40 MLOAD PUSH4 0x4AAAD4A1 PUSH1 0xE1 SHL DUP2 MSTORE PUSH1 0x1 PUSH1 0x1 PUSH1 0xA0 SHL SUB DUP15 DUP2 AND PUSH1 0x4 DUP4 ADD MSTORE CALLER PUSH1 0x24 DUP4 ADD MSTORE PUSH1 0x44 DUP3 ADD SWAP3 SWAP1 SWAP3 MSTORE SWAP1 DUP6 AND SWAP1 PUSH4 0x9555A942 SWAP1 PUSH1 0x64 ADD PUSH1 0x0 PUSH1 0x40 MLOAD DUP1 DUP4 SUB DUP2 PUSH1 0x0 DUP8 DUP1 EXTCODESIZE ISZERO DUP1 ISZERO PUSH2 0x2419 JUMPI PUSH1 0x0 DUP1 REVERT JUMPDEST POP GAS CALL ISZERO DUP1 ISZERO PUSH2 0x242D JUMPI RETURNDATASIZE PUSH1 0x0 DUP1 RETURNDATACOPY RETURNDATASIZE PUSH1 0x0 REVERT JUMPDEST POP POP POP POP DUP7 PUSH2 0x2A0 ADD MLOAD ISZERO PUSH2 0xA96 JUMPI PUSH1 0x40 MLOAD PUSH4 0x35272C25 PUSH1 0xE2 SHL DUP2 MSTORE PUSH1 0x1 PUSH1 0x1 PUSH1 0xA0 SHL SUB DUP14 DUP2 AND PUSH1 0x4 DUP4 ADD MSTORE DUP6 AND SWAP1 PUSH4 0xD49CB094 SWAP1 PUSH1 0x24 ADD PUSH1 0x0 PUSH1 0x40 MLOAD DUP1 DUP4 SUB DUP2 PUSH1 0x0 DUP8 DUP1 EXTCODESIZE ISZERO DUP1 ISZERO PUSH2 0x247F JUMPI PUSH1 0x0 DUP1 REVERT JUMPDEST POP GAS CALL ISZERO DUP1 ISZERO PUSH2 0x2493 JUMPI RETURNDATASIZE PUSH1 0x0 DUP1 RETURNDATACOPY RETURNDATASIZE PUSH1 0x0 REVERT JUMPDEST POP POP POP POP POP POP POP POP POP POP POP POP POP POP POP POP JUMP JUMPDEST PUSH32 0x0 PUSH1 0x40 MLOAD PUSH4 0x24745215 PUSH1 0xE2 SHL DUP2 MSTORE PUSH10 0x676F7665726E616E6365 PUSH1 0xB0 SHL PUSH1 0x4 DUP3 ADD MSTORE CALLER PUSH1 0x24 DUP3 ADD MSTORE PUSH1 0x1 PUSH1 0x1 PUSH1 0xA0 SHL SUB SWAP2 SWAP1 SWAP2 AND SWAP1 PUSH4 0x91D14854 SWAP1 PUSH1 0x44 ADD PUSH1 0x20 PUSH1 0x40 MLOAD DUP1 DUP4 SUB DUP2 DUP7 GAS STATICCALL ISZERO DUP1 ISZERO PUSH2 0x251F JUMPI RETURNDATASIZE PUSH1 0x0 DUP1 RETURNDATACOPY RETURNDATASIZE PUSH1 0x0 REVERT JUMPDEST POP POP POP POP PUSH1 0x40 MLOAD RETURNDATASIZE PUSH1 0x1F NOT PUSH1 0x1F DUP3 ADD AND DUP3 ADD DUP1 PUSH1 0x40 MSTORE POP DUP2 ADD SWAP1 PUSH2 0x2543 SWAP2 SWAP1 PUSH2 0x4D8E JUMP JUMPDEST PUSH1 0x40 MLOAD DUP1 PUSH1 0x40 ADD PUSH1 0x40 MSTORE DUP1 PUSH1 0x13 DUP2 MSTORE PUSH1 0x20 ADD PUSH1 0x0 DUP1 MLOAD PUSH1 0x20 PUSH2 0x50B8 DUP4 CODECOPY DUP2 MLOAD SWAP2 MSTORE DUP2 MSTORE POP SWAP1 PUSH2 0x2585 JUMPI PUSH1 0x40 MLOAD PUSH3 0x461BCD PUSH1 0xE5 SHL DUP2 MSTORE PUSH1 0x4 ADD PUSH2 0x816 SWAP2 SWAP1 PUSH2 0x4D3C JUMP JUMPDEST POP PUSH1 0x0 DUP1 SLOAD PUSH4 0xFF000000 NOT AND DUP2 SSTORE PUSH1 0x40 MLOAD PUSH32 0xA45F47FDEA8A1EFDD9029A5691C7F759C32B7C698632B563573E155625D16933 SWAP2 SWAP1 LOG1 JUMP JUMPDEST PUSH32 0x0 PUSH1 0x40 MLOAD PUSH4 0x24745215 PUSH1 0xE2 SHL DUP2 MSTORE PUSH10 0x676F7665726E616E6365 PUSH1 0xB0 SHL PUSH1 0x4 DUP3 ADD MSTORE CALLER PUSH1 0x24 DUP3 ADD MSTORE PUSH1 0x1 PUSH1 0x1 PUSH1 0xA0 SHL SUB SWAP2 SWAP1 SWAP2 AND SWAP1 PUSH4 0x91D14854 SWAP1 PUSH1 0x44 ADD PUSH1 0x20 PUSH1 0x40 MLOAD DUP1 DUP4 SUB DUP2 DUP7 GAS STATICCALL ISZERO DUP1 ISZERO PUSH2 0x2636 JUMPI RETURNDATASIZE PUSH1 0x0 DUP1 RETURNDATACOPY RETURNDATASIZE PUSH1 0x0 REVERT JUMPDEST POP POP POP POP PUSH1 0x40 MLOAD RETURNDATASIZE PUSH1 0x1F NOT PUSH1 0x1F DUP3 ADD AND DUP3 ADD DUP1 PUSH1 0x40 MSTORE POP DUP2 ADD SWAP1 PUSH2 0x265A SWAP2 SWAP1 PUSH2 0x4D8E JUMP JUMPDEST PUSH1 0x40 MLOAD DUP1 PUSH1 0x40 ADD PUSH1 0x40 MSTORE DUP1 PUSH1 0x13 DUP2 MSTORE PUSH1 0x20 ADD PUSH1 0x0 DUP1 MLOAD PUSH1 0x20 PUSH2 0x50B8 DUP4 CODECOPY DUP2 MLOAD SWAP2 MSTORE DUP2 MSTORE POP SWAP1 PUSH2 0x269C JUMPI PUSH1 0x40 MLOAD PUSH3 0x461BCD PUSH1 0xE5 SHL DUP2 MSTORE PUSH1 0x4 ADD PUSH2 0x816 SWAP2 SWAP1 PUSH2 0x4D3C JUMP JUMPDEST POP PUSH1 0x0 PUSH2 0x26AA DUP4 PUSH1 0x0 PUSH2 0x388B JUMP JUMPDEST SWAP1 POP PUSH2 0x26B7 DUP4 DUP3 DUP5 PUSH2 0x3E23 JUMP JUMPDEST PUSH1 0x40 DUP1 MLOAD DUP5 DUP2 MSTORE PUSH1 0x1 PUSH1 0x1 PUSH1 0xA0 SHL SUB DUP5 AND PUSH1 0x20 DUP3 ADD MSTORE PUSH32 0x4DB275E594C5465A26CA702A50972C6F6F3F055402E30CFEE962CD2C6B459539 SWAP2 ADD PUSH1 0x40 MLOAD DUP1 SWAP2 SUB SWAP1 LOG1 POP POP POP JUMP JUMPDEST PUSH1 0x60 PUSH1 0x0 PUSH2 0x270B PUSH1 0x4 PUSH2 0x3E75 JUMP JUMPDEST SWAP1 POP PUSH1 0x0 DUP2 PUSH1 0x1 PUSH1 0x1 PUSH1 0x40 SHL SUB DUP2 GT ISZERO PUSH2 0x2727 JUMPI PUSH2 0x2727 PUSH2 0x45F7 JUMP JUMPDEST PUSH1 0x40 MLOAD SWAP1 DUP1 DUP3 MSTORE DUP1 PUSH1 0x20 MUL PUSH1 0x20 ADD DUP3 ADD PUSH1 0x40 MSTORE DUP1 ISZERO PUSH2 0x2750 JUMPI DUP2 PUSH1 0x20 ADD PUSH1 0x20 DUP3 MUL DUP1 CALLDATASIZE DUP4 CALLDATACOPY ADD SWAP1 POP JUMPDEST POP SWAP1 POP PUSH1 0x0 JUMPDEST DUP3 DUP2 LT ISZERO PUSH2 0x278E JUMPI PUSH2 0x2769 PUSH1 0x4 DUP3 PUSH2 0x3E7F JUMP JUMPDEST DUP3 DUP3 DUP2 MLOAD DUP2 LT PUSH2 0x277B JUMPI PUSH2 0x277B PUSH2 0x4FC9 JUMP JUMPDEST PUSH1 0x20 SWAP1 DUP2 MUL SWAP2 SWAP1 SWAP2 ADD ADD MSTORE PUSH1 0x1 ADD PUSH2 0x2756 JUMP JUMPDEST POP SWAP3 SWAP2 POP POP JUMP JUMPDEST PUSH1 0x40 DUP1 MLOAD PUSH2 0x140 DUP2 ADD DUP3 MSTORE PUSH1 0x0 DUP1 DUP3 MSTORE PUSH1 0x20 DUP3 ADD DUP2 SWAP1 MSTORE SWAP2 DUP2 ADD DUP3 SWAP1 MSTORE PUSH1 0x60 DUP1 DUP3 ADD DUP4 SWAP1 MSTORE PUSH1 0x80 DUP3 ADD DUP4 SWAP1 MSTORE PUSH1 0xA0 DUP3 ADD DUP4 SWAP1 MSTORE PUSH1 0xC0 DUP3 ADD DUP4 SWAP1 MSTORE PUSH1 0xE0 DUP3 ADD DUP4 SWAP1 MSTORE PUSH2 0x100 DUP3 ADD SWAP3 SWAP1 SWAP3 MSTORE PUSH2 0x120 DUP2 ADD SWAP2 SWAP1 SWAP2 MSTORE PUSH1 0x1 PUSH1 0x1 PUSH1 0xA0 SHL SUB DUP1 DUP6 AND PUSH1 0x0 SWAP1 DUP2 MSTORE PUSH1 0x6 PUSH1 0x20 SWAP1 DUP2 MSTORE PUSH1 0x40 DUP1 DUP4 KECCAK256 DUP8 DUP5 MSTORE DUP3 MSTORE DUP1 DUP4 KECCAK256 DUP7 DUP5 MSTORE DUP3 MSTORE SWAP2 DUP3 SWAP1 KECCAK256 DUP3 MLOAD PUSH2 0x140 DUP2 ADD DUP5 MSTORE DUP2 SLOAD PUSH1 0x1 PUSH1 0x1 PUSH1 0x40 SHL SUB DUP1 DUP3 AND DUP4 MSTORE PUSH1 0x1 PUSH1 0x40 SHL DUP3 DIV DUP2 AND SWAP5 DUP4 ADD SWAP5 SWAP1 SWAP5 MSTORE PUSH1 0x1 PUSH1 0x80 SHL DUP1 DUP3 DIV DUP6 AND SWAP6 DUP4 ADD SWAP6 SWAP1 SWAP6 MSTORE PUSH1 0x1 PUSH1 0xC0 SHL SWAP1 DIV SWAP1 SWAP3 AND PUSH1 0x60 DUP4 ADD MSTORE PUSH1 0x1 DUP2 ADD SLOAD DUP5 AND PUSH1 0x80 DUP4 ADD MSTORE PUSH1 0x2 DUP2 ADD SLOAD SWAP1 SWAP4 AND PUSH1 0xA0 DUP3 ADD MSTORE PUSH1 0x3 DUP4 ADD SLOAD PUSH1 0x1 PUSH1 0x1 PUSH1 0x80 SHL SUB DUP1 DUP3 AND PUSH1 0xC0 DUP5 ADD MSTORE SWAP3 SWAP1 DIV DUP3 AND PUSH1 0xE0 DUP3 ADD MSTORE PUSH1 0x4 DUP4 ADD SLOAD SWAP1 SWAP2 AND PUSH2 0x100 DUP3 ADD MSTORE PUSH1 0x5 DUP3 ADD DUP1 SLOAD SWAP2 SWAP3 SWAP2 PUSH2 0x120 DUP5 ADD SWAP2 SWAP1 PUSH2 0x28BC SWAP1 PUSH2 0x4D01 JUMP JUMPDEST DUP1 PUSH1 0x1F ADD PUSH1 0x20 DUP1 SWAP2 DIV MUL PUSH1 0x20 ADD PUSH1 0x40 MLOAD SWAP1 DUP2 ADD PUSH1 0x40 MSTORE DUP1 SWAP3 SWAP2 SWAP1 DUP2 DUP2 MSTORE PUSH1 0x20 ADD DUP3 DUP1 SLOAD PUSH2 0x28E8 SWAP1 PUSH2 0x4D01 JUMP JUMPDEST DUP1 ISZERO PUSH2 0x2935 JUMPI DUP1 PUSH1 0x1F LT PUSH2 0x290A JUMPI PUSH2 0x100 DUP1 DUP4 SLOAD DIV MUL DUP4 MSTORE SWAP2 PUSH1 0x20 ADD SWAP2 PUSH2 0x2935 JUMP JUMPDEST DUP3 ADD SWAP2 SWAP1 PUSH1 0x0 MSTORE PUSH1 0x20 PUSH1 0x0 KECCAK256 SWAP1 JUMPDEST DUP2 SLOAD DUP2 MSTORE SWAP1 PUSH1 0x1 ADD SWAP1 PUSH1 0x20 ADD DUP1 DUP4 GT PUSH2 0x2918 JUMPI DUP3 SWAP1 SUB PUSH1 0x1F AND DUP3 ADD SWAP2 JUMPDEST POP POP POP POP POP DUP2 MSTORE POP POP SWAP1 POP JUMPDEST SWAP4 SWAP3 POP POP POP JUMP JUMPDEST PUSH32 0x0 PUSH1 0x40 MLOAD PUSH4 0x24745215 PUSH1 0xE2 SHL DUP2 MSTORE PUSH10 0x676F7665726E616E6365 PUSH1 0xB0 SHL PUSH1 0x4 DUP3 ADD MSTORE CALLER PUSH1 0x24 DUP3 ADD MSTORE PUSH1 0x1 PUSH1 0x1 PUSH1 0xA0 SHL SUB SWAP2 SWAP1 SWAP2 AND SWAP1 PUSH4 0x91D14854 SWAP1 PUSH1 0x44 ADD PUSH1 0x20 PUSH1 0x40 MLOAD DUP1 DUP4 SUB DUP2 DUP7 GAS STATICCALL ISZERO DUP1 ISZERO PUSH2 0x29C2 JUMPI RETURNDATASIZE PUSH1 0x0 DUP1 RETURNDATACOPY RETURNDATASIZE PUSH1 0x0 REVERT JUMPDEST POP POP POP POP PUSH1 0x40 MLOAD RETURNDATASIZE PUSH1 0x1F NOT PUSH1 0x1F DUP3 ADD AND DUP3 ADD DUP1 PUSH1 0x40 MSTORE POP DUP2 ADD SWAP1 PUSH2 0x29E6 SWAP2 SWAP1 PUSH2 0x4D8E JUMP JUMPDEST PUSH1 0x40 MLOAD DUP1 PUSH1 0x40 ADD PUSH1 0x40 MSTORE DUP1 PUSH1 0x13 DUP2 MSTORE PUSH1 0x20 ADD PUSH1 0x0 DUP1 MLOAD PUSH1 0x20 PUSH2 0x50B8 DUP4 CODECOPY DUP2 MLOAD SWAP2 MSTORE DUP2 MSTORE POP SWAP1 PUSH2 0x2A28 JUMPI PUSH1 0x40 MLOAD PUSH3 0x461BCD PUSH1 0xE5 SHL DUP2 MSTORE PUSH1 0x4 ADD PUSH2 0x816 SWAP2 SWAP1 PUSH2 0x4D3C JUMP JUMPDEST POP PUSH1 0x40 DUP1 MLOAD DUP1 DUP3 ADD SWAP1 SWAP2 MSTORE PUSH1 0xE DUP2 MSTORE PUSH14 0x1A5B9D985B1A5908185B5BDD5B9D PUSH1 0x92 SHL PUSH1 0x20 DUP3 ADD MSTORE PUSH8 0x6F05B59D3B20000 DUP3 GT ISZERO PUSH2 0x2A77 JUMPI PUSH1 0x40 MLOAD PUSH3 0x461BCD PUSH1 0xE5 SHL DUP2 MSTORE PUSH1 0x4 ADD PUSH2 0x816 SWAP2 SWAP1 PUSH2 0x4D3C JUMP JUMPDEST POP PUSH1 0xA DUP2 SWAP1 SSTORE PUSH1 0x40 MLOAD DUP2 DUP2 MSTORE PUSH32 0x5D11C783E271D8B349DB953B7379433A5877A135A3D10E91DC92B02C4B45463B SWAP1 PUSH1 0x20 ADD PUSH2 0xBB6 JUMP JUMPDEST PUSH1 0x0 DUP1 PUSH2 0x2ABB DUP7 PUSH1 0x1 PUSH2 0x388B JUMP JUMPDEST PUSH1 0x40 MLOAD PUSH4 0x673F3497 PUSH1 0xE1 SHL DUP2 MSTORE SWAP1 SWAP2 POP PUSH1 0x1 PUSH1 0x1 PUSH1 0xA0 SHL SUB DUP3 AND SWAP1 PUSH4 0xCE7E692E SWAP1 PUSH2 0x2AEE SWAP1 DUP9 SWAP1 DUP9 SWAP1 DUP9 SWAP1 PUSH1 0x4 ADD PUSH2 0x4FDF JUMP JUMPDEST PUSH1 0x20 PUSH1 0x40 MLOAD DUP1 DUP4 SUB DUP2 DUP7 GAS STATICCALL ISZERO DUP1 ISZERO PUSH2 0x2B0B JUMPI RETURNDATASIZE PUSH1 0x0 DUP1 RETURNDATACOPY RETURNDATASIZE PUSH1 0x0 REVERT JUMPDEST POP POP POP POP PUSH1 0x40 MLOAD RETURNDATASIZE PUSH1 0x1F NOT PUSH1 0x1F DUP3 ADD AND DUP3 ADD DUP1 PUSH1 0x40 MSTORE POP DUP2 ADD SWAP1 PUSH2 0x2B2F SWAP2 SWAP1 PUSH2 0x4F0A JUMP JUMPDEST SWAP7 SWAP6 POP POP POP POP POP POP JUMP JUMPDEST PUSH1 0x1 PUSH1 0x1 PUSH1 0xA0 SHL SUB DUP2 AND PUSH1 0x0 SWAP1 DUP2 MSTORE PUSH1 0x7 PUSH1 0x20 SWAP1 DUP2 MSTORE PUSH1 0x40 DUP1 DUP4 KECCAK256 DUP1 SLOAD DUP3 MLOAD DUP2 DUP6 MUL DUP2 ADD DUP6 ADD SWAP1 SWAP4 MSTORE DUP1 DUP4 MSTORE DUP5 SWAP4 DUP5 SWAP4 SWAP3 SWAP2 SWAP1 DUP5 SWAP1 DUP5 ADD JUMPDEST DUP3 DUP3 LT ISZERO PUSH2 0x2BB7 JUMPI DUP4 DUP3 SWAP1 PUSH1 0x0 MSTORE PUSH1 0x20 PUSH1 0x0 KECCAK256 SWAP1 PUSH1 0x2 MUL ADD PUSH1 0x40 MLOAD DUP1 PUSH1 0x40 ADD PUSH1 0x40 MSTORE SWAP1 DUP2 PUSH1 0x0 DUP3 ADD SLOAD DUP2 MSTORE PUSH1 0x20 ADD PUSH1 0x1 DUP3 ADD SLOAD DUP2 MSTORE POP POP DUP2 MSTORE PUSH1 0x20 ADD SWAP1 PUSH1 0x1 ADD SWAP1 PUSH2 0x2B71 JUMP JUMPDEST POP POP PUSH1 0xC SLOAD DUP4 MLOAD SWAP4 SWAP5 POP SWAP3 SWAP2 POP PUSH1 0x0 SWAP1 POP JUMPDEST DUP2 DUP2 LT ISZERO PUSH2 0x2DBE JUMPI PUSH1 0x0 DUP5 DUP3 DUP2 MLOAD DUP2 LT PUSH2 0x2BE5 JUMPI PUSH2 0x2BE5 PUSH2 0x4FC9 JUMP JUMPDEST PUSH1 0x20 SWAP1 DUP2 MUL SWAP2 SWAP1 SWAP2 ADD DUP2 ADD MLOAD PUSH1 0x1 PUSH1 0x1 PUSH1 0xA0 SHL SUB DUP1 DUP12 AND PUSH1 0x0 SWAP1 DUP2 MSTORE PUSH1 0x6 DUP5 MSTORE PUSH1 0x40 DUP1 DUP3 KECCAK256 DUP5 MLOAD DUP4 MSTORE DUP6 MSTORE DUP1 DUP3 KECCAK256 DUP5 DUP7 ADD MLOAD DUP4 MSTORE DUP6 MSTORE DUP1 DUP3 KECCAK256 DUP2 MLOAD PUSH2 0x140 DUP2 ADD DUP4 MSTORE DUP2 SLOAD PUSH1 0x1 PUSH1 0x1 PUSH1 0x40 SHL SUB DUP1 DUP3 AND DUP4 MSTORE PUSH1 0x1 PUSH1 0x40 SHL DUP3 DIV DUP2 AND SWAP9 DUP4 ADD SWAP9 SWAP1 SWAP9 MSTORE PUSH1 0x1 PUSH1 0x80 SHL DUP1 DUP3 DIV DUP10 AND SWAP5 DUP4 ADD SWAP5 SWAP1 SWAP5 MSTORE PUSH1 0x1 PUSH1 0xC0 SHL SWAP1 DIV SWAP1 SWAP7 AND PUSH1 0x60 DUP8 ADD MSTORE PUSH1 0x1 DUP2 ADD SLOAD DUP5 AND PUSH1 0x80 DUP8 ADD MSTORE PUSH1 0x2 DUP2 ADD SLOAD SWAP1 SWAP4 AND PUSH1 0xA0 DUP7 ADD MSTORE PUSH1 0x3 DUP4 ADD SLOAD PUSH1 0x1 PUSH1 0x1 PUSH1 0x80 SHL SUB DUP1 DUP3 AND PUSH1 0xC0 DUP9 ADD MSTORE SWAP2 SWAP1 DIV DUP2 AND PUSH1 0xE0 DUP7 ADD MSTORE PUSH1 0x4 DUP4 ADD SLOAD AND PUSH2 0x100 DUP6 ADD MSTORE PUSH1 0x5 DUP3 ADD DUP1 SLOAD SWAP4 SWAP6 POP SWAP1 SWAP4 SWAP3 PUSH2 0x120 DUP5 ADD SWAP2 SWAP1 PUSH2 0x2CC6 SWAP1 PUSH2 0x4D01 JUMP JUMPDEST DUP1 PUSH1 0x1F ADD PUSH1 0x20 DUP1 SWAP2 DIV MUL PUSH1 0x20 ADD PUSH1 0x40 MLOAD SWAP1 DUP2 ADD PUSH1 0x40 MSTORE DUP1 SWAP3 SWAP2 SWAP1 DUP2 DUP2 MSTORE PUSH1 0x20 ADD DUP3 DUP1 SLOAD PUSH2 0x2CF2 SWAP1 PUSH2 0x4D01 JUMP JUMPDEST DUP1 ISZERO PUSH2 0x2D3F JUMPI DUP1 PUSH1 0x1F LT PUSH2 0x2D14 JUMPI PUSH2 0x100 DUP1 DUP4 SLOAD DIV MUL DUP4 MSTORE SWAP2 PUSH1 0x20 ADD SWAP2 PUSH2 0x2D3F JUMP JUMPDEST DUP3 ADD SWAP2 SWAP1 PUSH1 0x0 MSTORE PUSH1 0x20 PUSH1 0x0 KECCAK256 SWAP1 JUMPDEST DUP2 SLOAD DUP2 MSTORE SWAP1 PUSH1 0x1 ADD SWAP1 PUSH1 0x20 ADD DUP1 DUP4 GT PUSH2 0x2D22 JUMPI DUP3 SWAP1 SUB PUSH1 0x1F AND DUP3 ADD SWAP2 JUMPDEST POP POP POP POP POP DUP2 MSTORE POP POP SWAP1 POP PUSH1 0x0 PUSH2 0x2D79 DUP3 PUSH1 0xC0 ADD MLOAD PUSH1 0x1 PUSH1 0x1 PUSH1 0x80 SHL SUB AND DUP4 PUSH1 0xE0 ADD MLOAD PUSH1 0x1 PUSH1 0x1 PUSH1 0x80 SHL SUB AND PUSH2 0x3A30 SWAP1 SWAP2 SWAP1 PUSH4 0xFFFFFFFF AND JUMP JUMPDEST PUSH1 0x40 DUP4 ADD MLOAD SWAP1 SWAP2 POP PUSH1 0x1 PUSH1 0x1 PUSH1 0x40 SHL SUB AND PUSH2 0x2D94 DUP8 DUP4 PUSH2 0x4DC1 JUMP JUMPDEST PUSH2 0x2D9E SWAP2 SWAP1 PUSH2 0x4DC1 JUMP JUMPDEST PUSH2 0x2DA8 SWAP1 DUP10 PUSH2 0x4F23 JUMP JUMPDEST SWAP8 POP POP POP POP PUSH2 0x2DB7 DUP2 PUSH1 0x1 ADD SWAP1 JUMP JUMPDEST SWAP1 POP PUSH2 0x2BC9 JUMP JUMPDEST POP SWAP3 SWAP6 SWAP5 POP POP POP POP POP JUMP JUMPDEST PUSH32 0x0 PUSH1 0x40 MLOAD PUSH4 0x24745215 PUSH1 0xE2 SHL DUP2 MSTORE PUSH10 0x676F7665726E616E6365 PUSH1 0xB0 SHL PUSH1 0x4 DUP3 ADD MSTORE CALLER PUSH1 0x24 DUP3 ADD MSTORE PUSH1 0x1 PUSH1 0x1 PUSH1 0xA0 SHL SUB SWAP2 SWAP1 SWAP2 AND SWAP1 PUSH4 0x91D14854 SWAP1 PUSH1 0x44 ADD PUSH1 0x20 PUSH1 0x40 MLOAD DUP1 DUP4 SUB DUP2 DUP7 GAS STATICCALL ISZERO DUP1 ISZERO PUSH2 0x2E43 JUMPI RETURNDATASIZE PUSH1 0x0 DUP1 RETURNDATACOPY RETURNDATASIZE PUSH1 0x0 REVERT JUMPDEST POP POP POP POP PUSH1 0x40 MLOAD RETURNDATASIZE PUSH1 0x1F NOT PUSH1 0x1F DUP3 ADD AND DUP3 ADD DUP1 PUSH1 0x40 MSTORE POP DUP2 ADD SWAP1 PUSH2 0x2E67 SWAP2 SWAP1 PUSH2 0x4D8E JUMP JUMPDEST PUSH1 0x40 MLOAD DUP1 PUSH1 0x40 ADD PUSH1 0x40 MSTORE DUP1 PUSH1 0x13 DUP2 MSTORE PUSH1 0x20 ADD PUSH1 0x0 DUP1 MLOAD PUSH1 0x20 PUSH2 0x50B8 DUP4 CODECOPY DUP2 MLOAD SWAP2 MSTORE DUP2 MSTORE POP SWAP1 PUSH2 0x2EA9 JUMPI PUSH1 0x40 MLOAD PUSH3 0x461BCD PUSH1 0xE5 SHL DUP2 MSTORE PUSH1 0x4 ADD PUSH2 0x816 SWAP2 SWAP1 PUSH2 0x4D3C JUMP JUMPDEST POP PUSH1 0x0 DUP1 SLOAD PUSH4 0xFF000000 NOT AND PUSH4 0x1000000 OR DUP2 SSTORE PUSH1 0x40 MLOAD PUSH32 0x9E87FAC88FF661F02D44F95383C817FECE4BCE600A3DAB7A54406878B965E752 SWAP2 SWAP1 LOG1 JUMP JUMPDEST PUSH10 0x31B7B73A3937B63632B9 PUSH1 0xB1 SHL PUSH32 0x0 PUSH1 0x40 MLOAD PUSH4 0x24745215 PUSH1 0xE2 SHL DUP2 MSTORE PUSH1 0x4 DUP2 ADD DUP4 SWAP1 MSTORE CALLER PUSH1 0x24 DUP3 ADD MSTORE PUSH1 0x1 PUSH1 0x1 PUSH1 0xA0 SHL SUB SWAP2 SWAP1 SWAP2 AND SWAP1 PUSH4 0x91D14854 SWAP1 PUSH1 0x44 ADD PUSH1 0x20 PUSH1 0x40 MLOAD DUP1 DUP4 SUB DUP2 DUP7 GAS STATICCALL ISZERO DUP1 ISZERO PUSH2 0x2F62 JUMPI RETURNDATASIZE PUSH1 0x0 DUP1 RETURNDATACOPY RETURNDATASIZE PUSH1 0x0 REVERT JUMPDEST POP POP POP POP PUSH1 0x40 MLOAD RETURNDATASIZE PUSH1 0x1F NOT PUSH1 0x1F DUP3 ADD AND DUP3 ADD DUP1 PUSH1 0x40 MSTORE POP DUP2 ADD SWAP1 PUSH2 0x2F86 SWAP2 SWAP1 PUSH2 0x4D8E JUMP JUMPDEST PUSH1 0x40 MLOAD DUP1 PUSH1 0x40 ADD PUSH1 0x40 MSTORE DUP1 PUSH1 0x13 DUP2 MSTORE PUSH1 0x20 ADD PUSH1 0x0 DUP1 MLOAD PUSH1 0x20 PUSH2 0x50B8 DUP4 CODECOPY DUP2 MLOAD SWAP2 MSTORE DUP2 MSTORE POP SWAP1 PUSH2 0x2FC8 JUMPI PUSH1 0x40 MLOAD PUSH3 0x461BCD PUSH1 0xE5 SHL DUP2 MSTORE PUSH1 0x4 ADD PUSH2 0x816 SWAP2 SWAP1 PUSH2 0x4D3C JUMP JUMPDEST POP PUSH1 0x0 DUP1 SLOAD PUSH3 0xFF0000 NOT AND PUSH3 0x10000 OR DUP2 SSTORE PUSH1 0x40 MLOAD PUSH32 0x4426AA1FB73E391071491FCFE21A88B5C38A0A0333A1F6E77161470439704CF8 SWAP2 SWAP1 LOG1 POP JUMP JUMPDEST PUSH32 0x0 PUSH1 0x40 MLOAD PUSH4 0x24745215 PUSH1 0xE2 SHL DUP2 MSTORE PUSH10 0x676F7665726E616E6365 PUSH1 0xB0 SHL PUSH1 0x4 DUP3 ADD MSTORE CALLER PUSH1 0x24 DUP3 ADD MSTORE PUSH1 0x1 PUSH1 0x1 PUSH1 0xA0 SHL SUB SWAP2 SWAP1 SWAP2 AND SWAP1 PUSH4 0x91D14854 SWAP1 PUSH1 0x44 ADD PUSH1 0x20 PUSH1 0x40 MLOAD DUP1 DUP4 SUB DUP2 DUP7 GAS STATICCALL ISZERO DUP1 ISZERO PUSH2 0x307E JUMPI RETURNDATASIZE PUSH1 0x0 DUP1 RETURNDATACOPY RETURNDATASIZE PUSH1 0x0 REVERT JUMPDEST POP POP POP POP PUSH1 0x40 MLOAD RETURNDATASIZE PUSH1 0x1F NOT PUSH1 0x1F DUP3 ADD AND DUP3 ADD DUP1 PUSH1 0x40 MSTORE POP DUP2 ADD SWAP1 PUSH2 0x30A2 SWAP2 SWAP1 PUSH2 0x4D8E JUMP JUMPDEST PUSH1 0x40 MLOAD DUP1 PUSH1 0x40 ADD PUSH1 0x40 MSTORE DUP1 PUSH1 0x13 DUP2 MSTORE PUSH1 0x20 ADD PUSH1 0x0 DUP1 MLOAD PUSH1 0x20 PUSH2 0x50B8 DUP4 CODECOPY DUP2 MLOAD SWAP2 MSTORE DUP2 MSTORE POP SWAP1 PUSH2 0x30E4 JUMPI PUSH1 0x40 MLOAD PUSH3 0x461BCD PUSH1 0xE5 SHL DUP2 MSTORE PUSH1 0x4 ADD PUSH2 0x816 SWAP2 SWAP1 PUSH2 0x4D3C JUMP JUMPDEST POP PUSH2 0x30F0 PUSH1 0x1 DUP3 PUSH2 0x3CA0 JUMP JUMPDEST POP PUSH1 0x40 MLOAD PUSH1 0x1 PUSH1 0x1 PUSH1 0xA0 SHL SUB DUP3 AND DUP2 MSTORE PUSH32 0xC04E88168C7BCA3921BE8A31E1AB90E8B90BCF4A47E28B431C100A06ECE42E72 SWAP1 PUSH1 0x20 ADD PUSH2 0xBB6 JUMP JUMPDEST PUSH32 0x0 PUSH1 0x40 MLOAD PUSH4 0x24745215 PUSH1 0xE2 SHL DUP2 MSTORE PUSH10 0x676F7665726E616E6365 PUSH1 0xB0 SHL PUSH1 0x4 DUP3 ADD MSTORE CALLER PUSH1 0x24 DUP3 ADD MSTORE PUSH1 0x1 PUSH1 0x1 PUSH1 0xA0 SHL SUB SWAP2 SWAP1 SWAP2 AND SWAP1 PUSH4 0x91D14854 SWAP1 PUSH1 0x44 ADD PUSH1 0x20 PUSH1 0x40 MLOAD DUP1 DUP4 SUB DUP2 DUP7 GAS STATICCALL ISZERO DUP1 ISZERO PUSH2 0x31A4 JUMPI RETURNDATASIZE PUSH1 0x0 DUP1 RETURNDATACOPY RETURNDATASIZE PUSH1 0x0 REVERT JUMPDEST POP POP POP POP PUSH1 0x40 MLOAD RETURNDATASIZE PUSH1 0x1F NOT PUSH1 0x1F DUP3 ADD AND DUP3 ADD DUP1 PUSH1 0x40 MSTORE POP DUP2 ADD SWAP1 PUSH2 0x31C8 SWAP2 SWAP1 PUSH2 0x4D8E JUMP JUMPDEST PUSH1 0x40 MLOAD DUP1 PUSH1 0x40 ADD PUSH1 0x40 MSTORE DUP1 PUSH1 0x13 DUP2 MSTORE PUSH1 0x20 ADD PUSH1 0x0 DUP1 MLOAD PUSH1 0x20 PUSH2 0x50B8 DUP4 CODECOPY DUP2 MLOAD SWAP2 MSTORE DUP2 MSTORE POP SWAP1 PUSH2 0x320A JUMPI PUSH1 0x40 MLOAD PUSH3 0x461BCD PUSH1 0xE5 SHL DUP2 MSTORE PUSH1 0x4 ADD PUSH2 0x816 SWAP2 SWAP1 PUSH2 0x4D3C JUMP JUMPDEST POP PUSH2 0x3216 PUSH1 0x1 DUP3 PUSH2 0x3E8B JUMP JUMPDEST POP PUSH1 0x40 MLOAD PUSH1 0x1 PUSH1 0x1 PUSH1 0xA0 SHL SUB DUP3 AND DUP2 MSTORE PUSH32 0xE1ECC5A412D3ECE05E72D98230002795F88F59A6FDF4E851208FECD31100F1BB SWAP1 PUSH1 0x20 ADD PUSH2 0xBB6 JUMP JUMPDEST PUSH1 0x0 PUSH2 0xBCE PUSH1 0x1 DUP4 PUSH2 0x3EA0 JUMP JUMPDEST PUSH1 0x60 PUSH2 0x66A PUSH1 0x1 PUSH2 0x3EC2 JUMP JUMPDEST PUSH1 0x60 PUSH1 0x0 DUP1 PUSH2 0x3278 PUSH1 0x8 PUSH2 0x3E75 JUMP JUMPDEST SWAP1 POP DUP1 DUP6 LT PUSH2 0x329A JUMPI POP POP PUSH1 0x40 DUP1 MLOAD PUSH1 0x0 DUP1 DUP3 MSTORE PUSH1 0x20 DUP3 ADD SWAP1 SWAP3 MSTORE SWAP2 POP PUSH2 0x3363 JUMP JUMPDEST PUSH2 0x32A4 DUP6 DUP3 PUSH2 0x4F5D JUMP JUMPDEST DUP5 LT PUSH2 0x32B7 JUMPI PUSH2 0x32B4 DUP6 DUP3 PUSH2 0x4F5D JUMP JUMPDEST SWAP4 POP JUMPDEST PUSH1 0x0 DUP5 PUSH1 0x1 PUSH1 0x1 PUSH1 0x40 SHL SUB DUP2 GT ISZERO PUSH2 0x32D1 JUMPI PUSH2 0x32D1 PUSH2 0x45F7 JUMP JUMPDEST PUSH1 0x40 MLOAD SWAP1 DUP1 DUP3 MSTORE DUP1 PUSH1 0x20 MUL PUSH1 0x20 ADD DUP3 ADD PUSH1 0x40 MSTORE DUP1 ISZERO PUSH2 0x32FA JUMPI DUP2 PUSH1 0x20 ADD PUSH1 0x20 DUP3 MUL DUP1 CALLDATASIZE DUP4 CALLDATACOPY ADD SWAP1 POP JUMPDEST POP SWAP1 POP PUSH1 0x0 JUMPDEST DUP6 DUP2 LT ISZERO PUSH2 0x3350 JUMPI PUSH2 0x331D PUSH2 0x3315 DUP9 DUP4 PUSH2 0x4F23 JUMP JUMPDEST PUSH1 0x8 SWAP1 PUSH2 0x3E7F JUMP JUMPDEST DUP3 DUP3 DUP2 MLOAD DUP2 LT PUSH2 0x332F JUMPI PUSH2 0x332F PUSH2 0x4FC9 JUMP JUMPDEST PUSH1 0x1 PUSH1 0x1 PUSH1 0xA0 SHL SUB SWAP3 SWAP1 SWAP3 AND PUSH1 0x20 SWAP3 DUP4 MUL SWAP2 SWAP1 SWAP2 ADD SWAP1 SWAP2 ADD MSTORE PUSH1 0x1 ADD PUSH2 0x3300 JUMP JUMPDEST POP DUP1 PUSH2 0x335C DUP7 DUP9 PUSH2 0x4F23 JUMP JUMPDEST SWAP4 POP SWAP4 POP POP POP JUMPDEST SWAP3 POP SWAP3 SWAP1 POP JUMP JUMPDEST PUSH1 0x0 SLOAD PUSH2 0x100 SWAP1 DIV PUSH1 0xFF AND PUSH2 0x3385 JUMPI PUSH1 0x0 SLOAD PUSH1 0xFF AND ISZERO PUSH2 0x3389 JUMP JUMPDEST ADDRESS EXTCODESIZE ISZERO JUMPDEST PUSH2 0x33EC JUMPI PUSH1 0x40 MLOAD PUSH3 0x461BCD PUSH1 0xE5 SHL DUP2 MSTORE PUSH1 0x20 PUSH1 0x4 DUP3 ADD MSTORE PUSH1 0x2E PUSH1 0x24 DUP3 ADD MSTORE PUSH32 0x496E697469616C697A61626C653A20636F6E747261637420697320616C726561 PUSH1 0x44 DUP3 ADD MSTORE PUSH14 0x191E481A5B9A5D1A585B1A5E9959 PUSH1 0x92 SHL PUSH1 0x64 DUP3 ADD MSTORE PUSH1 0x84 ADD PUSH2 0x816 JUMP JUMPDEST PUSH1 0x0 SLOAD PUSH2 0x100 SWAP1 DIV PUSH1 0xFF AND ISZERO DUP1 ISZERO PUSH2 0x340E JUMPI PUSH1 0x0 DUP1 SLOAD PUSH2 0xFFFF NOT AND PUSH2 0x101 OR SWAP1 SSTORE JUMPDEST PUSH32 0x0 PUSH1 0x40 MLOAD PUSH4 0x24745215 PUSH1 0xE2 SHL DUP2 MSTORE PUSH10 0x676F7665726E616E6365 PUSH1 0xB0 SHL PUSH1 0x4 DUP3 ADD MSTORE CALLER PUSH1 0x24 DUP3 ADD MSTORE PUSH1 0x1 PUSH1 0x1 PUSH1 0xA0 SHL SUB SWAP2 SWAP1 SWAP2 AND SWAP1 PUSH4 0x91D14854 SWAP1 PUSH1 0x44 ADD PUSH1 0x20 PUSH1 0x40 MLOAD DUP1 DUP4 SUB DUP2 DUP7 GAS STATICCALL ISZERO DUP1 ISZERO PUSH2 0x3488 JUMPI RETURNDATASIZE PUSH1 0x0 DUP1 RETURNDATACOPY RETURNDATASIZE PUSH1 0x0 REVERT JUMPDEST POP POP POP POP PUSH1 0x40 MLOAD RETURNDATASIZE PUSH1 0x1F NOT PUSH1 0x1F DUP3 ADD AND DUP3 ADD DUP1 PUSH1 0x40 MSTORE POP DUP2 ADD SWAP1 PUSH2 0x34AC SWAP2 SWAP1 PUSH2 0x4D8E JUMP JUMPDEST PUSH1 0x40 MLOAD DUP1 PUSH1 0x40 ADD PUSH1 0x40 MSTORE DUP1 PUSH1 0x13 DUP2 MSTORE PUSH1 0x20 ADD PUSH1 0x0 DUP1 MLOAD PUSH1 0x20 PUSH2 0x50B8 DUP4 CODECOPY DUP2 MLOAD SWAP2 MSTORE DUP2 MSTORE POP SWAP1 PUSH2 0x34EE JUMPI PUSH1 0x40 MLOAD PUSH3 0x461BCD PUSH1 0xE5 SHL DUP2 MSTORE PUSH1 0x4 ADD PUSH2 0x816 SWAP2 SWAP1 PUSH2 0x4D3C JUMP JUMPDEST POP PUSH1 0x40 DUP1 MLOAD DUP1 DUP3 ADD SWAP1 SWAP2 MSTORE PUSH1 0x10 DUP2 MSTORE PUSH16 0x1A5B9D985B1A5908185C99DD5B595B9D PUSH1 0x82 SHL PUSH1 0x20 DUP3 ADD MSTORE DUP5 DUP4 EQ PUSH2 0x3536 JUMPI PUSH1 0x40 MLOAD PUSH3 0x461BCD PUSH1 0xE5 SHL DUP2 MSTORE PUSH1 0x4 ADD PUSH2 0x816 SWAP2 SWAP1 PUSH2 0x4D3C JUMP JUMPDEST POP PUSH1 0xB DUP1 SLOAD PUSH1 0x1 PUSH1 0x1 PUSH1 0xA0 SHL SUB NOT AND PUSH1 0x1 PUSH1 0x1 PUSH1 0xA0 SHL SUB DUP9 AND OR SWAP1 SSTORE PUSH1 0x0 JUMPDEST DUP5 DUP2 LT ISZERO PUSH2 0x35AF JUMPI PUSH2 0x35A7 DUP7 DUP7 DUP4 DUP2 DUP2 LT PUSH2 0x3572 JUMPI PUSH2 0x3572 PUSH2 0x4FC9 JUMP JUMPDEST SWAP1 POP PUSH1 0x20 MUL ADD CALLDATALOAD PUSH1 0x0 DUP7 DUP7 DUP6 DUP2 DUP2 LT PUSH2 0x358D JUMPI PUSH2 0x358D PUSH2 0x4FC9 JUMP JUMPDEST SWAP1 POP PUSH1 0x20 MUL ADD PUSH1 0x20 DUP2 ADD SWAP1 PUSH2 0x35A2 SWAP2 SWAP1 PUSH2 0x4828 JUMP JUMPDEST PUSH2 0x3E23 JUMP JUMPDEST PUSH1 0x1 ADD PUSH2 0x3555 JUMP JUMPDEST POP DUP1 ISZERO PUSH2 0x35C2 JUMPI PUSH1 0x0 DUP1 SLOAD PUSH2 0xFF00 NOT AND SWAP1 SSTORE JUMPDEST POP POP POP POP POP POP JUMP JUMPDEST PUSH1 0x0 SLOAD PUSH1 0x40 DUP1 MLOAD DUP1 DUP3 ADD SWAP1 SWAP2 MSTORE PUSH1 0x12 DUP2 MSTORE PUSH18 0x20B1BA34B7B71034B99039B43ABA3237BBB7 PUSH1 0x71 SHL PUSH1 0x20 DUP3 ADD MSTORE SWAP1 PUSH3 0x10000 SWAP1 DIV PUSH1 0xFF AND ISZERO PUSH2 0x361E JUMPI PUSH1 0x40 MLOAD PUSH3 0x461BCD PUSH1 0xE5 SHL DUP2 MSTORE PUSH1 0x4 ADD PUSH2 0x816 SWAP2 SWAP1 PUSH2 0x4D3C JUMP JUMPDEST POP PUSH1 0x0 SLOAD PUSH1 0x40 DUP1 MLOAD DUP1 DUP3 ADD SWAP1 SWAP2 MSTORE PUSH1 0x10 DUP2 MSTORE PUSH16 0x1058DD1A5BDB881A5CC81C185D5CD959 PUSH1 0x82 SHL PUSH1 0x20 DUP3 ADD MSTORE SWAP1 PUSH4 0x1000000 SWAP1 DIV PUSH1 0xFF AND ISZERO PUSH2 0x3672 JUMPI PUSH1 0x40 MLOAD PUSH3 0x461BCD PUSH1 0xE5 SHL DUP2 MSTORE PUSH1 0x4 ADD PUSH2 0x816 SWAP2 SWAP1 PUSH2 0x4D3C JUMP JUMPDEST POP PUSH2 0x3681 DUP5 DUP5 DUP5 DUP5 PUSH1 0x0 PUSH2 0x149B JUMP JUMPDEST POP POP POP POP JUMP JUMPDEST PUSH1 0x40 MLOAD PUSH4 0x21F8A721 PUSH1 0xE0 SHL DUP2 MSTORE PUSH11 0x3937B632A6B0B730B3B2B9 PUSH1 0xA9 SHL PUSH1 0x4 DUP3 ADD MSTORE PUSH1 0x0 SWAP1 PUSH1 0x1 PUSH1 0x1 PUSH1 0xA0 SHL SUB DUP4 AND SWAP1 PUSH4 0x21F8A721 SWAP1 PUSH1 0x24 ADD JUMPDEST PUSH1 0x20 PUSH1 0x40 MLOAD DUP1 DUP4 SUB DUP2 DUP7 GAS STATICCALL ISZERO DUP1 ISZERO PUSH2 0x36DD JUMPI RETURNDATASIZE PUSH1 0x0 DUP1 RETURNDATACOPY RETURNDATASIZE PUSH1 0x0 REVERT JUMPDEST POP POP POP POP PUSH1 0x40 MLOAD RETURNDATASIZE PUSH1 0x1F NOT PUSH1 0x1F DUP3 ADD AND DUP3 ADD DUP1 PUSH1 0x40 MSTORE POP DUP2 ADD SWAP1 PUSH2 0xBCE SWAP2 SWAP1 PUSH2 0x4D4F JUMP JUMPDEST PUSH1 0x40 MLOAD PUSH1 0x1 PUSH1 0x1 PUSH1 0xA0 SHL SUB DUP4 AND PUSH1 0x24 DUP3 ADD MSTORE PUSH1 0x44 DUP2 ADD DUP3 SWAP1 MSTORE PUSH2 0x3764 SWAP1 DUP5 SWAP1 PUSH4 0xA9059CBB PUSH1 0xE0 SHL SWAP1 PUSH1 0x64 ADD JUMPDEST PUSH1 0x40 DUP1 MLOAD PUSH1 0x1F NOT DUP2 DUP5 SUB ADD DUP2 MSTORE SWAP2 SWAP1 MSTORE PUSH1 0x20 DUP2 ADD DUP1 MLOAD PUSH1 0x1 PUSH1 0x1 PUSH1 0xE0 SHL SUB AND PUSH1 0x1 PUSH1 0x1 PUSH1 0xE0 SHL SUB NOT SWAP1 SWAP4 AND SWAP3 SWAP1 SWAP3 OR SWAP1 SWAP2 MSTORE PUSH2 0x3ECF JUMP JUMPDEST POP POP POP JUMP JUMPDEST PUSH1 0x1 PUSH1 0x1 PUSH1 0xA0 SHL SUB DUP4 AND PUSH1 0x0 SWAP1 DUP2 MSTORE PUSH1 0x6 PUSH1 0x20 SWAP1 DUP2 MSTORE PUSH1 0x40 DUP1 DUP4 KECCAK256 DUP6 DUP5 MSTORE DUP3 MSTORE DUP1 DUP4 KECCAK256 DUP5 DUP5 MSTORE SWAP1 SWAP2 MSTORE DUP2 KECCAK256 DUP2 DUP2 SSTORE PUSH1 0x1 DUP2 ADD DUP1 SLOAD PUSH1 0x1 PUSH1 0x1 PUSH1 0xA0 SHL SUB NOT SWAP1 DUP2 AND SWAP1 SWAP2 SSTORE PUSH1 0x2 DUP3 ADD DUP1 SLOAD SWAP1 SWAP2 AND SWAP1 SSTORE PUSH1 0x3 DUP2 ADD DUP3 SWAP1 SSTORE PUSH1 0x4 DUP2 ADD DUP1 SLOAD PUSH1 0x1 PUSH1 0x1 PUSH1 0x80 SHL SUB NOT AND SWAP1 SSTORE SWAP1 PUSH2 0x37DE PUSH1 0x5 DUP4 ADD DUP3 PUSH2 0x4529 JUMP JUMPDEST POP POP PUSH2 0x37EB DUP4 DUP4 DUP4 PUSH2 0x3FA1 JUMP JUMPDEST PUSH1 0x1 PUSH1 0x1 PUSH1 0xA0 SHL SUB DUP4 AND PUSH1 0x0 SWAP1 DUP2 MSTORE PUSH1 0x7 PUSH1 0x20 MSTORE PUSH1 0x40 SWAP1 KECCAK256 SLOAD PUSH2 0x3815 JUMPI PUSH2 0x3813 PUSH1 0x8 DUP5 PUSH2 0x3E8B JUMP JUMPDEST POP JUMPDEST DUP1 DUP3 DUP5 PUSH1 0x1 PUSH1 0x1 PUSH1 0xA0 SHL SUB AND PUSH32 0x72B5CBD3723F2CC2FA8B384DE87A995691D051135C5E19322A55D6E835E3DEAA PUSH1 0x40 MLOAD PUSH1 0x40 MLOAD DUP1 SWAP2 SUB SWAP1 LOG4 POP POP POP JUMP JUMPDEST PUSH1 0x40 MLOAD PUSH4 0x21F8A721 PUSH1 0xE0 SHL DUP2 MSTORE PUSH7 0x67617342616E6B PUSH1 0xC8 SHL PUSH1 0x4 DUP3 ADD MSTORE PUSH1 0x0 SWAP1 PUSH1 0x1 PUSH1 0x1 PUSH1 0xA0 SHL SUB DUP4 AND SWAP1 PUSH4 0x21F8A721 SWAP1 PUSH1 0x24 ADD PUSH2 0x36C0 JUMP JUMPDEST PUSH1 0x0 DUP3 DUP2 MSTORE PUSH1 0x3 PUSH1 0x20 MSTORE PUSH1 0x40 DUP2 KECCAK256 SLOAD PUSH1 0x1 PUSH1 0x1 PUSH1 0xA0 SHL SUB AND DUP3 ISZERO DUP1 PUSH2 0x38B8 JUMPI POP PUSH1 0x1 PUSH1 0x1 PUSH1 0xA0 SHL SUB DUP2 AND ISZERO ISZERO JUMPDEST PUSH1 0x40 MLOAD DUP1 PUSH1 0x40 ADD PUSH1 0x40 MSTORE DUP1 PUSH1 0x12 DUP2 MSTORE PUSH1 0x20 ADD PUSH18 0x1C1C9BDD1BD8DBDB081B9BDD08199BDD5B99 PUSH1 0x72 SHL DUP2 MSTORE POP SWAP1 PUSH2 0x3901 JUMPI PUSH1 0x40 MLOAD PUSH3 0x461BCD PUSH1 0xE5 SHL DUP2 MSTORE PUSH1 0x4 ADD PUSH2 0x816 SWAP2 SWAP1 PUSH2 0x4D3C JUMP JUMPDEST POP SWAP4 SWAP3 POP POP POP JUMP JUMPDEST PUSH1 0x0 DUP2 DUP2 MSTORE PUSH1 0x1 DUP4 ADD PUSH1 0x20 MSTORE PUSH1 0x40 DUP2 KECCAK256 SLOAD ISZERO ISZERO PUSH2 0x2941 JUMP JUMPDEST PUSH1 0x40 MLOAD PUSH4 0x956FEF3 PUSH1 0xE2 SHL DUP2 MSTORE PUSH1 0x1 PUSH1 0x1 PUSH1 0xA0 SHL SUB DUP4 DUP2 AND PUSH1 0x4 DUP4 ADD MSTORE PUSH1 0x0 SWAP2 DUP3 SWAP2 PUSH32 0x0 AND SWAP1 PUSH4 0x255BFBCC SWAP1 PUSH1 0x24 ADD PUSH1 0x20 PUSH1 0x40 MLOAD DUP1 DUP4 SUB DUP2 DUP7 GAS STATICCALL ISZERO DUP1 ISZERO PUSH2 0x398C JUMPI RETURNDATASIZE PUSH1 0x0 DUP1 RETURNDATACOPY RETURNDATASIZE PUSH1 0x0 REVERT JUMPDEST POP POP POP POP PUSH1 0x40 MLOAD RETURNDATASIZE PUSH1 0x1F NOT PUSH1 0x1F DUP3 ADD AND DUP3 ADD DUP1 PUSH1 0x40 MSTORE POP DUP2 ADD SWAP1 PUSH2 0x39B0 SWAP2 SWAP1 PUSH2 0x4D4F JUMP JUMPDEST SWAP1 POP DUP3 PUSH1 0x1 PUSH1 0x1 PUSH1 0xA0 SHL SUB AND DUP2 PUSH1 0x1 PUSH1 0x1 PUSH1 0xA0 SHL SUB AND PUSH4 0x9816F473 PUSH1 0x40 MLOAD DUP2 PUSH4 0xFFFFFFFF AND PUSH1 0xE0 SHL DUP2 MSTORE PUSH1 0x4 ADD PUSH1 0x20 PUSH1 0x40 MLOAD DUP1 DUP4 SUB DUP2 DUP7 GAS STATICCALL ISZERO DUP1 ISZERO PUSH2 0x39FA JUMPI RETURNDATASIZE PUSH1 0x0 DUP1 RETURNDATACOPY RETURNDATASIZE PUSH1 0x0 REVERT JUMPDEST POP POP POP POP PUSH1 0x40 MLOAD RETURNDATASIZE PUSH1 0x1F NOT PUSH1 0x1F DUP3 ADD AND DUP3 ADD DUP1 PUSH1 0x40 MSTORE POP DUP2 ADD SWAP1 PUSH2 0x3A1E SWAP2 SWAP1 PUSH2 0x4D4F JUMP JUMPDEST PUSH1 0x1 PUSH1 0x1 PUSH1 0xA0 SHL SUB AND EQ SWAP5 SWAP4 POP POP POP POP JUMP JUMPDEST PUSH1 0x0 DUP2 PUSH1 0x1 PUSH2 0x3A3F DUP3 DUP7 PUSH2 0x4F23 JUMP JUMPDEST PUSH2 0x3A49 SWAP2 SWAP1 PUSH2 0x4F5D JUMP JUMPDEST PUSH2 0x2941 SWAP2 SWAP1 PUSH2 0x4F3B JUMP JUMPDEST PUSH1 0x40 MLOAD PUSH4 0x69C2390B PUSH1 0xE1 SHL DUP2 MSTORE PUSH1 0x1 PUSH1 0x1 PUSH1 0xA0 SHL SUB PUSH32 0x0 DUP2 AND PUSH1 0x4 DUP4 ADD MSTORE DUP1 DUP6 AND PUSH1 0x24 DUP4 ADD MSTORE DUP4 AND PUSH1 0x44 DUP3 ADD MSTORE PUSH1 0x64 DUP2 ADD DUP3 SWAP1 MSTORE PUSH1 0x0 SWAP1 PUSH20 0x0 SWAP1 PUSH4 0xD3847216 SWAP1 PUSH1 0x84 ADD PUSH1 0x20 PUSH1 0x40 MLOAD DUP1 DUP4 SUB DUP2 DUP7 GAS DELEGATECALL ISZERO DUP1 ISZERO PUSH2 0x3AE5 JUMPI RETURNDATASIZE PUSH1 0x0 DUP1 RETURNDATACOPY RETURNDATASIZE PUSH1 0x0 REVERT JUMPDEST POP POP POP POP PUSH1 0x40 MLOAD RETURNDATASIZE PUSH1 0x1F NOT PUSH1 0x1F DUP3 ADD AND DUP3 ADD DUP1 PUSH1 0x40 MSTORE POP DUP2 ADD SWAP1 PUSH2 0x3B09 SWAP2 SWAP1 PUSH2 0x4F0A JUMP JUMPDEST SWAP5 SWAP4 POP POP POP POP JUMP JUMPDEST PUSH1 0x40 MLOAD PUSH4 0x59EADEB PUSH1 0xE4 SHL DUP2 MSTORE PUSH1 0x1 PUSH1 0x1 PUSH1 0xA0 SHL SUB DUP5 DUP2 AND PUSH1 0x4 DUP4 ADD MSTORE PUSH1 0x0 SWAP2 PUSH32 0x0 SWAP1 SWAP2 AND SWAP1 PUSH4 0x59EADEB0 SWAP1 PUSH1 0x24 ADD PUSH1 0x20 PUSH1 0x40 MLOAD DUP1 DUP4 SUB DUP2 DUP7 GAS STATICCALL ISZERO DUP1 ISZERO PUSH2 0x3B7C JUMPI RETURNDATASIZE PUSH1 0x0 DUP1 RETURNDATACOPY RETURNDATASIZE PUSH1 0x0 REVERT JUMPDEST POP POP POP POP PUSH1 0x40 MLOAD RETURNDATASIZE PUSH1 0x1F NOT PUSH1 0x1F DUP3 ADD AND DUP3 ADD DUP1 PUSH1 0x40 MSTORE POP DUP2 ADD SWAP1 PUSH2 0x3BA0 SWAP2 SWAP1 PUSH2 0x4D4F JUMP JUMPDEST PUSH1 0x40 MLOAD PUSH4 0x1B891053 PUSH1 0xE3 SHL DUP2 MSTORE PUSH1 0x1 PUSH1 0x1 PUSH1 0xA0 SHL SUB DUP1 DUP4 AND PUSH1 0x4 DUP4 ADD MSTORE DUP1 DUP9 AND PUSH1 0x24 DUP4 ADD MSTORE DUP7 AND PUSH1 0x44 DUP3 ADD MSTORE PUSH1 0x64 DUP2 ADD DUP6 SWAP1 MSTORE PUSH1 0x84 DUP2 ADD DUP5 SWAP1 MSTORE SWAP1 SWAP2 POP PUSH20 0x0 SWAP1 PUSH4 0xDC488298 SWAP1 PUSH1 0xA4 ADD PUSH1 0x0 PUSH1 0x40 MLOAD DUP1 DUP4 SUB DUP2 DUP7 DUP1 EXTCODESIZE ISZERO DUP1 ISZERO PUSH2 0x3C14 JUMPI PUSH1 0x0 DUP1 REVERT JUMPDEST POP GAS DELEGATECALL ISZERO DUP1 ISZERO PUSH2 0x3C28 JUMPI RETURNDATASIZE PUSH1 0x0 DUP1 RETURNDATACOPY RETURNDATASIZE PUSH1 0x0 REVERT JUMPDEST POP POP POP POP POP POP POP POP POP JUMP JUMPDEST PUSH1 0x0 PUSH1 0x1 PUSH1 0x1 PUSH1 0x80 SHL SUB DUP3 GT ISZERO PUSH2 0x3C9C JUMPI PUSH1 0x40 MLOAD PUSH3 0x461BCD PUSH1 0xE5 SHL DUP2 MSTORE PUSH1 0x20 PUSH1 0x4 DUP3 ADD MSTORE PUSH1 0x27 PUSH1 0x24 DUP3 ADD MSTORE PUSH32 0x53616665436173743A2076616C756520646F65736E27742066697420696E2031 PUSH1 0x44 DUP3 ADD MSTORE PUSH7 0x32382062697473 PUSH1 0xC8 SHL PUSH1 0x64 DUP3 ADD MSTORE PUSH1 0x84 ADD PUSH2 0x816 JUMP JUMPDEST POP SWAP1 JUMP JUMPDEST PUSH1 0x0 PUSH2 0x2941 DUP4 PUSH1 0x1 PUSH1 0x1 PUSH1 0xA0 SHL SUB DUP5 AND PUSH2 0x40A0 JUMP JUMPDEST PUSH1 0x0 PUSH8 0xDE0B6B3A7640000 PUSH2 0x3A49 DUP4 DUP6 PUSH2 0x4DC1 JUMP JUMPDEST PUSH1 0x0 DUP2 PUSH2 0x3A49 PUSH8 0xDE0B6B3A7640000 DUP6 PUSH2 0x4DC1 JUMP JUMPDEST PUSH1 0x0 DUP2 PUSH1 0x1 DUP2 PUSH2 0x3CF7 PUSH8 0xDE0B6B3A7640000 DUP8 PUSH2 0x4DC1 JUMP JUMPDEST PUSH2 0x3A3F SWAP2 SWAP1 PUSH2 0x4F23 JUMP JUMPDEST PUSH1 0x40 MLOAD PUSH4 0x6EB1769F PUSH1 0xE1 SHL DUP2 MSTORE ADDRESS PUSH1 0x4 DUP3 ADD MSTORE PUSH1 0x1 PUSH1 0x1 PUSH1 0xA0 SHL SUB DUP3 DUP2 AND PUSH1 0x24 DUP4 ADD MSTORE PUSH1 0x0 SWAP2 SWAP1 DUP5 AND SWAP1 PUSH4 0xDD62ED3E SWAP1 PUSH1 0x44 ADD PUSH1 0x20 PUSH1 0x40 MLOAD DUP1 DUP4 SUB DUP2 DUP7 GAS STATICCALL ISZERO DUP1 ISZERO PUSH2 0x3D51 JUMPI RETURNDATASIZE PUSH1 0x0 DUP1 RETURNDATACOPY RETURNDATASIZE PUSH1 0x0 REVERT JUMPDEST POP POP POP POP PUSH1 0x40 MLOAD RETURNDATASIZE PUSH1 0x1F NOT PUSH1 0x1F DUP3 ADD AND DUP3 ADD DUP1 PUSH1 0x40 MSTORE POP DUP2 ADD SWAP1 PUSH2 0x3D75 SWAP2 SWAP1 PUSH2 0x4F0A JUMP JUMPDEST GT ISZERO PUSH2 0x3D7F JUMPI POP POP JUMP JUMPDEST PUSH2 0x3D95 PUSH1 0x1 PUSH1 0x1 PUSH1 0xA0 SHL SUB DUP4 AND DUP3 PUSH1 0x0 NOT PUSH2 0x40EF JUMP JUMPDEST POP POP JUMP JUMPDEST PUSH1 0xB SLOAD PUSH1 0x1 PUSH1 0x1 PUSH1 0xA0 SHL SUB SWAP1 DUP2 AND SWAP1 PUSH2 0x3DB5 SWAP1 DUP4 AND DUP3 DUP6 PUSH2 0x40EF JUMP JUMPDEST PUSH1 0x40 MLOAD PUSH4 0x67EC9F19 PUSH1 0xE1 SHL DUP2 MSTORE PUSH1 0x1 PUSH1 0x1 PUSH1 0xA0 SHL SUB DUP7 DUP2 AND PUSH1 0x4 DUP4 ADD MSTORE DUP6 DUP2 AND PUSH1 0x24 DUP4 ADD MSTORE PUSH1 0x44 DUP3 ADD DUP6 SWAP1 MSTORE DUP4 DUP2 AND PUSH1 0x64 DUP4 ADD MSTORE DUP3 AND SWAP1 PUSH4 0xCFD93E32 SWAP1 PUSH1 0x84 ADD PUSH1 0x0 PUSH1 0x40 MLOAD DUP1 DUP4 SUB DUP2 PUSH1 0x0 DUP8 DUP1 EXTCODESIZE ISZERO DUP1 ISZERO PUSH2 0x3E0F JUMPI PUSH1 0x0 DUP1 REVERT JUMPDEST POP GAS CALL ISZERO DUP1 ISZERO PUSH2 0x3C28 JUMPI RETURNDATASIZE PUSH1 0x0 DUP1 RETURNDATACOPY RETURNDATASIZE PUSH1 0x0 REVERT JUMPDEST PUSH1 0x0 DUP4 DUP2 MSTORE PUSH1 0x3 PUSH1 0x20 MSTORE PUSH1 0x40 SWAP1 KECCAK256 DUP1 SLOAD PUSH1 0x1 PUSH1 0x1 PUSH1 0xA0 SHL SUB NOT AND PUSH1 0x1 PUSH1 0x1 PUSH1 0xA0 SHL SUB DUP4 AND SWAP1 DUP2 OR SWAP1 SWAP2 SSTORE PUSH2 0x3E5C JUMPI PUSH2 0x3681 PUSH1 0x4 DUP5 PUSH2 0x4204 JUMP JUMPDEST PUSH1 0x1 PUSH1 0x1 PUSH1 0xA0 SHL SUB DUP3 AND PUSH2 0x3764 JUMPI PUSH2 0x3681 PUSH1 0x4 DUP5 PUSH2 0x4210 JUMP JUMPDEST PUSH1 0x0 PUSH2 0xBCE DUP3 SLOAD SWAP1 JUMP JUMPDEST PUSH1 0x0 PUSH2 0x2941 DUP4 DUP4 PUSH2 0x421C JUMP JUMPDEST PUSH1 0x0 PUSH2 0x2941 DUP4 PUSH1 0x1 PUSH1 0x1 PUSH1 0xA0 SHL SUB DUP5 AND PUSH2 0x4246 JUMP JUMPDEST PUSH1 0x1 PUSH1 0x1 PUSH1 0xA0 SHL SUB DUP2 AND PUSH1 0x0 SWAP1 DUP2 MSTORE PUSH1 0x1 DUP4 ADD PUSH1 0x20 MSTORE PUSH1 0x40 DUP2 KECCAK256 SLOAD ISZERO ISZERO PUSH2 0x2941 JUMP JUMPDEST PUSH1 0x60 PUSH1 0x0 PUSH2 0x2941 DUP4 PUSH2 0x4339 JUMP JUMPDEST PUSH1 0x0 PUSH2 0x3F24 DUP3 PUSH1 0x40 MLOAD DUP1 PUSH1 0x40 ADD PUSH1 0x40 MSTORE DUP1 PUSH1 0x20 DUP2 MSTORE PUSH1 0x20 ADD PUSH32 0x5361666545524332303A206C6F772D6C6576656C2063616C6C206661696C6564 DUP2 MSTORE POP DUP6 PUSH1 0x1 PUSH1 0x1 PUSH1 0xA0 SHL SUB AND PUSH2 0x4395 SWAP1 SWAP3 SWAP2 SWAP1 PUSH4 0xFFFFFFFF AND JUMP JUMPDEST DUP1 MLOAD SWAP1 SWAP2 POP ISZERO PUSH2 0x3764 JUMPI DUP1 DUP1 PUSH1 0x20 ADD SWAP1 MLOAD DUP2 ADD SWAP1 PUSH2 0x3F42 SWAP2 SWAP1 PUSH2 0x4D8E JUMP JUMPDEST PUSH2 0x3764 JUMPI PUSH1 0x40 MLOAD PUSH3 0x461BCD PUSH1 0xE5 SHL DUP2 MSTORE PUSH1 0x20 PUSH1 0x4 DUP3 ADD MSTORE PUSH1 0x2A PUSH1 0x24 DUP3 ADD MSTORE PUSH32 0x5361666545524332303A204552433230206F7065726174696F6E20646964206E PUSH1 0x44 DUP3 ADD MSTORE PUSH10 0x1BDD081CDD58D8D95959 PUSH1 0xB2 SHL PUSH1 0x64 DUP3 ADD MSTORE PUSH1 0x84 ADD PUSH2 0x816 JUMP JUMPDEST PUSH1 0x1 PUSH1 0x1 PUSH1 0xA0 SHL SUB DUP4 AND PUSH1 0x0 SWAP1 DUP2 MSTORE PUSH1 0x7 PUSH1 0x20 MSTORE PUSH1 0x40 DUP2 KECCAK256 DUP1 SLOAD SWAP1 SWAP2 JUMPDEST DUP2 DUP2 LT ISZERO PUSH2 0x35C2 JUMPI PUSH1 0x0 DUP4 DUP3 DUP2 SLOAD DUP2 LT PUSH2 0x3FDA JUMPI PUSH2 0x3FDA PUSH2 0x4FC9 JUMP JUMPDEST SWAP1 PUSH1 0x0 MSTORE PUSH1 0x20 PUSH1 0x0 KECCAK256 SWAP1 PUSH1 0x2 MUL ADD SWAP1 POP DUP6 DUP2 PUSH1 0x0 ADD SLOAD EQ DUP1 ISZERO PUSH2 0x4000 JUMPI POP DUP5 DUP2 PUSH1 0x1 ADD SLOAD EQ JUMPDEST ISZERO PUSH2 0x4097 JUMPI DUP4 PUSH2 0x4011 PUSH1 0x1 DUP6 PUSH2 0x4F5D JUMP JUMPDEST DUP2 SLOAD DUP2 LT PUSH2 0x4021 JUMPI PUSH2 0x4021 PUSH2 0x4FC9 JUMP JUMPDEST SWAP1 PUSH1 0x0 MSTORE PUSH1 0x20 PUSH1 0x0 KECCAK256 SWAP1 PUSH1 0x2 MUL ADD DUP5 DUP4 DUP2 SLOAD DUP2 LT PUSH2 0x4041 JUMPI PUSH2 0x4041 PUSH2 0x4FC9 JUMP JUMPDEST PUSH1 0x0 SWAP2 DUP3 MSTORE PUSH1 0x20 SWAP1 SWAP2 KECCAK256 DUP3 SLOAD PUSH1 0x2 SWAP1 SWAP3 MUL ADD SWAP1 DUP2 SSTORE PUSH1 0x1 SWAP2 DUP3 ADD SLOAD SWAP2 ADD SSTORE DUP4 SLOAD DUP5 SWAP1 DUP1 PUSH2 0x4070 JUMPI PUSH2 0x4070 PUSH2 0x5015 JUMP JUMPDEST PUSH1 0x0 DUP3 DUP2 MSTORE PUSH1 0x20 DUP2 KECCAK256 PUSH1 0x2 PUSH1 0x0 NOT SWAP1 SWAP4 ADD SWAP3 DUP4 MUL ADD DUP2 DUP2 SSTORE PUSH1 0x1 ADD SSTORE SWAP1 SSTORE POP POP POP POP POP POP POP JUMP JUMPDEST POP PUSH1 0x1 ADD PUSH2 0x3FBE JUMP JUMPDEST PUSH1 0x0 DUP2 DUP2 MSTORE PUSH1 0x1 DUP4 ADD PUSH1 0x20 MSTORE PUSH1 0x40 DUP2 KECCAK256 SLOAD PUSH2 0x40E7 JUMPI POP DUP2 SLOAD PUSH1 0x1 DUP2 DUP2 ADD DUP5 SSTORE PUSH1 0x0 DUP5 DUP2 MSTORE PUSH1 0x20 DUP1 DUP3 KECCAK256 SWAP1 SWAP4 ADD DUP5 SWAP1 SSTORE DUP5 SLOAD DUP5 DUP3 MSTORE DUP3 DUP7 ADD SWAP1 SWAP4 MSTORE PUSH1 0x40 SWAP1 KECCAK256 SWAP2 SWAP1 SWAP2 SSTORE PUSH2 0xBCE JUMP JUMPDEST POP PUSH1 0x0 PUSH2 0xBCE JUMP JUMPDEST DUP1 ISZERO DUP1 PUSH2 0x4169 JUMPI POP PUSH1 0x40 MLOAD PUSH4 0x6EB1769F PUSH1 0xE1 SHL DUP2 MSTORE ADDRESS PUSH1 0x4 DUP3 ADD MSTORE PUSH1 0x1 PUSH1 0x1 PUSH1 0xA0 SHL SUB DUP4 DUP2 AND PUSH1 0x24 DUP4 ADD MSTORE DUP5 AND SWAP1 PUSH4 0xDD62ED3E SWAP1 PUSH1 0x44 ADD PUSH1 0x20 PUSH1 0x40 MLOAD DUP1 DUP4 SUB DUP2 DUP7 GAS STATICCALL ISZERO DUP1 ISZERO PUSH2 0x4143 JUMPI RETURNDATASIZE PUSH1 0x0 DUP1 RETURNDATACOPY RETURNDATASIZE PUSH1 0x0 REVERT JUMPDEST POP POP POP POP PUSH1 0x40 MLOAD RETURNDATASIZE PUSH1 0x1F NOT PUSH1 0x1F DUP3 ADD AND DUP3 ADD DUP1 PUSH1 0x40 MSTORE POP DUP2 ADD SWAP1 PUSH2 0x4167 SWAP2 SWAP1 PUSH2 0x4F0A JUMP JUMPDEST ISZERO JUMPDEST PUSH2 0x41D4 JUMPI PUSH1 0x40 MLOAD PUSH3 0x461BCD PUSH1 0xE5 SHL DUP2 MSTORE PUSH1 0x20 PUSH1 0x4 DUP3 ADD MSTORE PUSH1 0x36 PUSH1 0x24 DUP3 ADD MSTORE PUSH32 0x5361666545524332303A20617070726F76652066726F6D206E6F6E2D7A65726F PUSH1 0x44 DUP3 ADD MSTORE PUSH22 0x20746F206E6F6E2D7A65726F20616C6C6F77616E6365 PUSH1 0x50 SHL PUSH1 0x64 DUP3 ADD MSTORE PUSH1 0x84 ADD PUSH2 0x816 JUMP JUMPDEST PUSH1 0x40 MLOAD PUSH1 0x1 PUSH1 0x1 PUSH1 0xA0 SHL SUB DUP4 AND PUSH1 0x24 DUP3 ADD MSTORE PUSH1 0x44 DUP2 ADD DUP3 SWAP1 MSTORE PUSH2 0x3764 SWAP1 DUP5 SWAP1 PUSH4 0x95EA7B3 PUSH1 0xE0 SHL SWAP1 PUSH1 0x64 ADD PUSH2 0x372D JUMP JUMPDEST PUSH1 0x0 PUSH2 0x2941 DUP4 DUP4 PUSH2 0x4246 JUMP JUMPDEST PUSH1 0x0 PUSH2 0x2941 DUP4 DUP4 PUSH2 0x40A0 JUMP JUMPDEST PUSH1 0x0 DUP3 PUSH1 0x0 ADD DUP3 DUP2 SLOAD DUP2 LT PUSH2 0x4233 JUMPI PUSH2 0x4233 PUSH2 0x4FC9 JUMP JUMPDEST SWAP1 PUSH1 0x0 MSTORE PUSH1 0x20 PUSH1 0x0 KECCAK256 ADD SLOAD SWAP1 POP SWAP3 SWAP2 POP POP JUMP JUMPDEST PUSH1 0x0 DUP2 DUP2 MSTORE PUSH1 0x1 DUP4 ADD PUSH1 0x20 MSTORE PUSH1 0x40 DUP2 KECCAK256 SLOAD DUP1 ISZERO PUSH2 0x432F JUMPI PUSH1 0x0 PUSH2 0x426A PUSH1 0x1 DUP4 PUSH2 0x4F5D JUMP JUMPDEST DUP6 SLOAD SWAP1 SWAP2 POP PUSH1 0x0 SWAP1 PUSH2 0x427E SWAP1 PUSH1 0x1 SWAP1 PUSH2 0x4F5D JUMP JUMPDEST SWAP1 POP DUP2 DUP2 EQ PUSH2 0x42E3 JUMPI PUSH1 0x0 DUP7 PUSH1 0x0 ADD DUP3 DUP2 SLOAD DUP2 LT PUSH2 0x429E JUMPI PUSH2 0x429E PUSH2 0x4FC9 JUMP JUMPDEST SWAP1 PUSH1 0x0 MSTORE PUSH1 0x20 PUSH1 0x0 KECCAK256 ADD SLOAD SWAP1 POP DUP1 DUP8 PUSH1 0x0 ADD DUP5 DUP2 SLOAD DUP2 LT PUSH2 0x42C1 JUMPI PUSH2 0x42C1 PUSH2 0x4FC9 JUMP JUMPDEST PUSH1 0x0 SWAP2 DUP3 MSTORE PUSH1 0x20 DUP1 DUP4 KECCAK256 SWAP1 SWAP2 ADD SWAP3 SWAP1 SWAP3 SSTORE SWAP2 DUP3 MSTORE PUSH1 0x1 DUP9 ADD SWAP1 MSTORE PUSH1 0x40 SWAP1 KECCAK256 DUP4 SWAP1 SSTORE JUMPDEST DUP6 SLOAD DUP7 SWAP1 DUP1 PUSH2 0x42F4 JUMPI PUSH2 0x42F4 PUSH2 0x5015 JUMP JUMPDEST PUSH1 0x1 SWAP1 SUB DUP2 DUP2 SWAP1 PUSH1 0x0 MSTORE PUSH1 0x20 PUSH1 0x0 KECCAK256 ADD PUSH1 0x0 SWAP1 SSTORE SWAP1 SSTORE DUP6 PUSH1 0x1 ADD PUSH1 0x0 DUP7 DUP2 MSTORE PUSH1 0x20 ADD SWAP1 DUP2 MSTORE PUSH1 0x20 ADD PUSH1 0x0 KECCAK256 PUSH1 0x0 SWAP1 SSTORE PUSH1 0x1 SWAP4 POP POP POP POP PUSH2 0xBCE JUMP JUMPDEST PUSH1 0x0 SWAP2 POP POP PUSH2 0xBCE JUMP JUMPDEST PUSH1 0x60 DUP2 PUSH1 0x0 ADD DUP1 SLOAD DUP1 PUSH1 0x20 MUL PUSH1 0x20 ADD PUSH1 0x40 MLOAD SWAP1 DUP2 ADD PUSH1 0x40 MSTORE DUP1 SWAP3 SWAP2 SWAP1 DUP2 DUP2 MSTORE PUSH1 0x20 ADD DUP3 DUP1 SLOAD DUP1 ISZERO PUSH2 0x4389 JUMPI PUSH1 0x20 MUL DUP3 ADD SWAP2 SWAP1 PUSH1 0x0 MSTORE PUSH1 0x20 PUSH1 0x0 KECCAK256 SWAP1 JUMPDEST DUP2 SLOAD DUP2 MSTORE PUSH1 0x20 ADD SWAP1 PUSH1 0x1 ADD SWAP1 DUP1 DUP4 GT PUSH2 0x4375 JUMPI JUMPDEST POP POP POP POP POP SWAP1 POP SWAP2 SWAP1 POP JUMP JUMPDEST PUSH1 0x60 PUSH2 0x3B09 DUP5 DUP5 PUSH1 0x0 DUP6 DUP6 PUSH1 0x1 PUSH1 0x1 PUSH1 0xA0 SHL SUB DUP6 AND EXTCODESIZE PUSH2 0x43F7 JUMPI PUSH1 0x40 MLOAD PUSH3 0x461BCD PUSH1 0xE5 SHL DUP2 MSTORE PUSH1 0x20 PUSH1 0x4 DUP3 ADD MSTORE PUSH1 0x1D PUSH1 0x24 DUP3 ADD MSTORE PUSH32 0x416464726573733A2063616C6C20746F206E6F6E2D636F6E7472616374000000 PUSH1 0x44 DUP3 ADD MSTORE PUSH1 0x64 ADD PUSH2 0x816 JUMP JUMPDEST PUSH1 0x0 DUP1 DUP7 PUSH1 0x1 PUSH1 0x1 PUSH1 0xA0 SHL SUB AND DUP6 DUP8 PUSH1 0x40 MLOAD PUSH2 0x4413 SWAP2 SWAP1 PUSH2 0x502B JUMP JUMPDEST PUSH1 0x0 PUSH1 0x40 MLOAD DUP1 DUP4 SUB DUP2 DUP6 DUP8 GAS CALL SWAP3 POP POP POP RETURNDATASIZE DUP1 PUSH1 0x0 DUP2 EQ PUSH2 0x4450 JUMPI PUSH1 0x40 MLOAD SWAP2 POP PUSH1 0x1F NOT PUSH1 0x3F RETURNDATASIZE ADD AND DUP3 ADD PUSH1 0x40 MSTORE RETURNDATASIZE DUP3 MSTORE RETURNDATASIZE PUSH1 0x0 PUSH1 0x20 DUP5 ADD RETURNDATACOPY PUSH2 0x4455 JUMP JUMPDEST PUSH1 0x60 SWAP2 POP JUMPDEST POP SWAP2 POP SWAP2 POP PUSH2 0x4465 DUP3 DUP3 DUP7 PUSH2 0x4470 JUMP JUMPDEST SWAP8 SWAP7 POP POP POP POP POP POP POP JUMP JUMPDEST PUSH1 0x60 DUP4 ISZERO PUSH2 0x447F JUMPI POP DUP2 PUSH2 0x2941 JUMP JUMPDEST DUP3 MLOAD ISZERO PUSH2 0x448F JUMPI DUP3 MLOAD DUP1 DUP5 PUSH1 0x20 ADD REVERT JUMPDEST DUP2 PUSH1 0x40 MLOAD PUSH3 0x461BCD PUSH1 0xE5 SHL DUP2 MSTORE PUSH1 0x4 ADD PUSH2 0x816 SWAP2 SWAP1 PUSH2 0x4D3C JUMP JUMPDEST DUP3 DUP1 SLOAD PUSH2 0x44B5 SWAP1 PUSH2 0x4D01 JUMP JUMPDEST SWAP1 PUSH1 0x0 MSTORE PUSH1 0x20 PUSH1 0x0 KECCAK256 SWAP1 PUSH1 0x1F ADD PUSH1 0x20 SWAP1 DIV DUP2 ADD SWAP3 DUP3 PUSH2 0x44D7 JUMPI PUSH1 0x0 DUP6 SSTORE PUSH2 0x451D JUMP JUMPDEST DUP3 PUSH1 0x1F LT PUSH2 0x44F0 JUMPI DUP1 MLOAD PUSH1 0xFF NOT AND DUP4 DUP1 ADD OR DUP6 SSTORE PUSH2 0x451D JUMP JUMPDEST DUP3 DUP1 ADD PUSH1 0x1 ADD DUP6 SSTORE DUP3 ISZERO PUSH2 0x451D JUMPI SWAP2 DUP3 ADD JUMPDEST DUP3 DUP2 GT ISZERO PUSH2 0x451D JUMPI DUP3 MLOAD DUP3 SSTORE SWAP2 PUSH1 0x20 ADD SWAP2 SWAP1 PUSH1 0x1 ADD SWAP1 PUSH2 0x4502 JUMP JUMPDEST POP PUSH2 0x3C9C SWAP3 SWAP2 POP PUSH2 0x4566 JUMP JUMPDEST POP DUP1 SLOAD PUSH2 0x4535 SWAP1 PUSH2 0x4D01 JUMP JUMPDEST PUSH1 0x0 DUP3 SSTORE DUP1 PUSH1 0x1F LT PUSH2 0x4545 JUMPI POP POP JUMP JUMPDEST PUSH1 0x1F ADD PUSH1 0x20 SWAP1 DIV SWAP1 PUSH1 0x0 MSTORE PUSH1 0x20 PUSH1 0x0 KECCAK256 SWAP1 DUP2 ADD SWAP1 PUSH2 0x4563 SWAP2 SWAP1 PUSH2 0x4566 JUMP JUMPDEST POP JUMP JUMPDEST JUMPDEST DUP1 DUP3 GT ISZERO PUSH2 0x3C9C JUMPI PUSH1 0x0 DUP2 SSTORE PUSH1 0x1 ADD PUSH2 0x4567 JUMP JUMPDEST DUP1 ISZERO ISZERO DUP2 EQ PUSH2 0x4563 JUMPI PUSH1 0x0 DUP1 REVERT JUMPDEST PUSH1 0x0 DUP1 PUSH1 0x0 PUSH1 0x60 DUP5 DUP7 SUB SLT ISZERO PUSH2 0x459E JUMPI PUSH1 0x0 DUP1 REVERT JUMPDEST DUP4 CALLDATALOAD SWAP3 POP PUSH1 0x20 DUP5 ADD CALLDATALOAD SWAP2 POP PUSH1 0x40 DUP5 ADD CALLDATALOAD PUSH2 0x45B7 DUP2 PUSH2 0x457B JUMP JUMPDEST DUP1 SWAP2 POP POP SWAP3 POP SWAP3 POP SWAP3 JUMP JUMPDEST PUSH1 0x0 PUSH1 0x20 DUP3 DUP5 SUB SLT ISZERO PUSH2 0x45D4 JUMPI PUSH1 0x0 DUP1 REVERT JUMPDEST POP CALLDATALOAD SWAP2 SWAP1 POP JUMP JUMPDEST DUP1 CALLDATALOAD PUSH1 0x1 PUSH1 0x1 PUSH1 0x80 SHL SUB DUP2 AND DUP2 EQ PUSH2 0x45F2 JUMPI PUSH1 0x0 DUP1 REVERT JUMPDEST SWAP2 SWAP1 POP JUMP JUMPDEST PUSH4 0x4E487B71 PUSH1 0xE0 SHL PUSH1 0x0 MSTORE PUSH1 0x41 PUSH1 0x4 MSTORE PUSH1 0x24 PUSH1 0x0 REVERT JUMPDEST PUSH1 0x40 MLOAD PUSH2 0x140 DUP2 ADD PUSH1 0x1 PUSH1 0x1 PUSH1 0x40 SHL SUB DUP2 GT DUP3 DUP3 LT OR ISZERO PUSH2 0x4630 JUMPI PUSH2 0x4630 PUSH2 0x45F7 JUMP JUMPDEST PUSH1 0x40 MSTORE SWAP1 JUMP JUMPDEST DUP1 CALLDATALOAD PUSH1 0x1 PUSH1 0x1 PUSH1 0x40 SHL SUB DUP2 AND DUP2 EQ PUSH2 0x45F2 JUMPI PUSH1 0x0 DUP1 REVERT JUMPDEST PUSH1 0x1 PUSH1 0x1 PUSH1 0xA0 SHL SUB DUP2 AND DUP2 EQ PUSH2 0x4563 JUMPI PUSH1 0x0 DUP1 REVERT JUMPDEST DUP1 CALLDATALOAD PUSH2 0x45F2 DUP2 PUSH2 0x464D JUMP JUMPDEST PUSH1 0x0 DUP3 PUSH1 0x1F DUP4 ADD SLT PUSH2 0x467E JUMPI PUSH1 0x0 DUP1 REVERT JUMPDEST DUP2 CALLDATALOAD PUSH1 0x1 PUSH1 0x1 PUSH1 0x40 SHL SUB DUP1 DUP3 GT ISZERO PUSH2 0x4698 JUMPI PUSH2 0x4698 PUSH2 0x45F7 JUMP JUMPDEST PUSH1 0x40 MLOAD PUSH1 0x1F DUP4 ADD PUSH1 0x1F NOT SWAP1 DUP2 AND PUSH1 0x3F ADD AND DUP2 ADD SWAP1 DUP3 DUP3 GT DUP2 DUP4 LT OR ISZERO PUSH2 0x46C0 JUMPI PUSH2 0x46C0 PUSH2 0x45F7 JUMP JUMPDEST DUP2 PUSH1 0x40 MSTORE DUP4 DUP2 MSTORE DUP7 PUSH1 0x20 DUP6 DUP9 ADD ADD GT ISZERO PUSH2 0x46D9 JUMPI PUSH1 0x0 DUP1 REVERT JUMPDEST DUP4 PUSH1 0x20 DUP8 ADD PUSH1 0x20 DUP4 ADD CALLDATACOPY PUSH1 0x0 PUSH1 0x20 DUP6 DUP4 ADD ADD MSTORE DUP1 SWAP5 POP POP POP POP POP SWAP3 SWAP2 POP POP JUMP JUMPDEST PUSH1 0x0 DUP1 PUSH1 0x0 DUP1 PUSH1 0x80 DUP6 DUP8 SUB SLT ISZERO PUSH2 0x470F JUMPI PUSH1 0x0 DUP1 REVERT JUMPDEST DUP5 CALLDATALOAD SWAP4 POP PUSH1 0x20 DUP6 ADD CALLDATALOAD SWAP3 POP PUSH2 0x4726 PUSH1 0x40 DUP7 ADD PUSH2 0x45DB JUMP JUMPDEST SWAP2 POP PUSH1 0x60 DUP6 ADD CALLDATALOAD PUSH1 0x1 PUSH1 0x1 PUSH1 0x40 SHL SUB DUP1 DUP3 GT ISZERO PUSH2 0x4742 JUMPI PUSH1 0x0 DUP1 REVERT JUMPDEST SWAP1 DUP7 ADD SWAP1 PUSH2 0x140 DUP3 DUP10 SUB SLT ISZERO PUSH2 0x4757 JUMPI PUSH1 0x0 DUP1 REVERT JUMPDEST PUSH2 0x475F PUSH2 0x460D JUMP JUMPDEST PUSH2 0x4768 DUP4 PUSH2 0x4636 JUMP JUMPDEST DUP2 MSTORE PUSH2 0x4776 PUSH1 0x20 DUP5 ADD PUSH2 0x4636 JUMP JUMPDEST PUSH1 0x20 DUP3 ADD MSTORE PUSH2 0x4787 PUSH1 0x40 DUP5 ADD PUSH2 0x4636 JUMP JUMPDEST PUSH1 0x40 DUP3 ADD MSTORE PUSH2 0x4798 PUSH1 0x60 DUP5 ADD PUSH2 0x4636 JUMP JUMPDEST PUSH1 0x60 DUP3 ADD MSTORE PUSH2 0x47A9 PUSH1 0x80 DUP5 ADD PUSH2 0x4662 JUMP JUMPDEST PUSH1 0x80 DUP3 ADD MSTORE PUSH2 0x47BA PUSH1 0xA0 DUP5 ADD PUSH2 0x4662 JUMP JUMPDEST PUSH1 0xA0 DUP3 ADD MSTORE PUSH2 0x47CB PUSH1 0xC0 DUP5 ADD PUSH2 0x45DB JUMP JUMPDEST PUSH1 0xC0 DUP3 ADD MSTORE PUSH2 0x47DC PUSH1 0xE0 DUP5 ADD PUSH2 0x45DB JUMP JUMPDEST PUSH1 0xE0 DUP3 ADD MSTORE PUSH2 0x100 PUSH2 0x47EF DUP2 DUP6 ADD PUSH2 0x45DB JUMP JUMPDEST SWAP1 DUP3 ADD MSTORE PUSH2 0x120 DUP4 DUP2 ADD CALLDATALOAD DUP4 DUP2 GT ISZERO PUSH2 0x4807 JUMPI PUSH1 0x0 DUP1 REVERT JUMPDEST PUSH2 0x4813 DUP12 DUP3 DUP8 ADD PUSH2 0x466D JUMP JUMPDEST DUP3 DUP5 ADD MSTORE POP POP DUP1 SWAP4 POP POP POP POP SWAP3 SWAP6 SWAP2 SWAP5 POP SWAP3 POP JUMP JUMPDEST PUSH1 0x0 PUSH1 0x20 DUP3 DUP5 SUB SLT ISZERO PUSH2 0x483A JUMPI PUSH1 0x0 DUP1 REVERT JUMPDEST DUP2 CALLDATALOAD PUSH2 0x2941 DUP2 PUSH2 0x464D JUMP JUMPDEST PUSH1 0x20 DUP1 DUP3 MSTORE DUP3 MLOAD DUP3 DUP3 ADD DUP2 SWAP1 MSTORE PUSH1 0x0 SWAP2 SWAP1 PUSH1 0x40 SWAP1 DUP2 DUP6 ADD SWAP1 DUP7 DUP5 ADD DUP6 JUMPDEST DUP3 DUP2 LT ISZERO PUSH2 0x4887 JUMPI DUP2 MLOAD DUP1 MLOAD DUP6 MSTORE DUP7 ADD MLOAD DUP7 DUP6 ADD MSTORE SWAP3 DUP5 ADD SWAP3 SWAP1 DUP6 ADD SWAP1 PUSH1 0x1 ADD PUSH2 0x4862 JUMP JUMPDEST POP SWAP2 SWAP8 SWAP7 POP POP POP POP POP POP POP JUMP JUMPDEST PUSH1 0x0 DUP1 PUSH1 0x0 DUP1 PUSH1 0x0 PUSH1 0xA0 DUP7 DUP9 SUB SLT ISZERO PUSH2 0x48AC JUMPI PUSH1 0x0 DUP1 REVERT JUMPDEST DUP6 CALLDATALOAD PUSH2 0x48B7 DUP2 PUSH2 0x464D JUMP JUMPDEST SWAP5 POP PUSH1 0x20 DUP7 ADD CALLDATALOAD SWAP4 POP PUSH1 0x40 DUP7 ADD CALLDATALOAD PUSH2 0x48CE DUP2 PUSH2 0x464D JUMP JUMPDEST SWAP5 SWAP8 SWAP4 SWAP7 POP SWAP4 SWAP5 PUSH1 0x60 DUP2 ADD CALLDATALOAD SWAP5 POP PUSH1 0x80 ADD CALLDATALOAD SWAP3 SWAP2 POP POP JUMP JUMPDEST PUSH1 0x0 DUP1 PUSH1 0x40 DUP4 DUP6 SUB SLT ISZERO PUSH2 0x48F9 JUMPI PUSH1 0x0 DUP1 REVERT JUMPDEST DUP3 CALLDATALOAD SWAP2 POP PUSH1 0x20 DUP4 ADD CALLDATALOAD PUSH2 0x490B DUP2 PUSH2 0x464D JUMP JUMPDEST DUP1 SWAP2 POP POP SWAP3 POP SWAP3 SWAP1 POP JUMP JUMPDEST PUSH1 0x20 DUP1 DUP3 MSTORE DUP3 MLOAD DUP3 DUP3 ADD DUP2 SWAP1 MSTORE PUSH1 0x0 SWAP2 SWAP1 DUP5 DUP3 ADD SWAP1 PUSH1 0x40 DUP6 ADD SWAP1 DUP5 JUMPDEST DUP2 DUP2 LT ISZERO PUSH2 0x494E JUMPI DUP4 MLOAD DUP4 MSTORE SWAP3 DUP5 ADD SWAP3 SWAP2 DUP5 ADD SWAP2 PUSH1 0x1 ADD PUSH2 0x4932 JUMP JUMPDEST POP SWAP1 SWAP7 SWAP6 POP POP POP POP POP POP JUMP JUMPDEST PUSH1 0x0 DUP1 PUSH1 0x0 PUSH1 0x60 DUP5 DUP7 SUB SLT ISZERO PUSH2 0x496F JUMPI PUSH1 0x0 DUP1 REVERT JUMPDEST DUP4 CALLDATALOAD PUSH2 0x497A DUP2 PUSH2 0x464D JUMP JUMPDEST SWAP6 PUSH1 0x20 DUP6 ADD CALLDATALOAD SWAP6 POP PUSH1 0x40 SWAP1 SWAP5 ADD CALLDATALOAD SWAP4 SWAP3 POP POP POP JUMP JUMPDEST PUSH1 0x0 JUMPDEST DUP4 DUP2 LT ISZERO PUSH2 0x49AA JUMPI DUP2 DUP2 ADD MLOAD DUP4 DUP3 ADD MSTORE PUSH1 0x20 ADD PUSH2 0x4992 JUMP JUMPDEST DUP4 DUP2 GT ISZERO PUSH2 0x3681 JUMPI POP POP PUSH1 0x0 SWAP2 ADD MSTORE JUMP JUMPDEST PUSH1 0x0 DUP2 MLOAD DUP1 DUP5 MSTORE PUSH2 0x49D3 DUP2 PUSH1 0x20 DUP7 ADD PUSH1 0x20 DUP7 ADD PUSH2 0x498F JUMP JUMPDEST PUSH1 0x1F ADD PUSH1 0x1F NOT AND SWAP3 SWAP1 SWAP3 ADD PUSH1 0x20 ADD SWAP3 SWAP2 POP POP JUMP JUMPDEST PUSH1 0x20 DUP2 MSTORE PUSH2 0x4A01 PUSH1 0x20 DUP3 ADD DUP4 MLOAD PUSH1 0x1 PUSH1 0x1 PUSH1 0x40 SHL SUB AND SWAP1 MSTORE JUMP JUMPDEST PUSH1 0x0 PUSH1 0x20 DUP4 ADD MLOAD PUSH2 0x4A1D PUSH1 0x40 DUP5 ADD DUP3 PUSH1 0x1 PUSH1 0x1 PUSH1 0x40 SHL SUB AND SWAP1 MSTORE JUMP JUMPDEST POP PUSH1 0x40 DUP4 ADD MLOAD PUSH1 0x1 PUSH1 0x1 PUSH1 0x40 SHL SUB DUP2 AND PUSH1 0x60 DUP5 ADD MSTORE POP PUSH1 0x60 DUP4 ADD MLOAD PUSH1 0x1 PUSH1 0x1 PUSH1 0x40 SHL SUB DUP2 AND PUSH1 0x80 DUP5 ADD MSTORE POP PUSH1 0x80 DUP4 ADD MLOAD PUSH1 0x1 PUSH1 0x1 PUSH1 0xA0 SHL SUB DUP2 AND PUSH1 0xA0 DUP5 ADD MSTORE POP PUSH1 0xA0 DUP4 ADD MLOAD PUSH1 0x1 PUSH1 0x1 PUSH1 0xA0 SHL SUB DUP2 AND PUSH1 0xC0 DUP5 ADD MSTORE POP PUSH1 0xC0 DUP4 ADD MLOAD PUSH1 0x1 PUSH1 0x1 PUSH1 0x80 SHL SUB DUP2 AND PUSH1 0xE0 DUP5 ADD MSTORE POP PUSH1 0xE0 DUP4 ADD MLOAD PUSH2 0x100 PUSH2 0x4AA3 DUP2 DUP6 ADD DUP4 PUSH1 0x1 PUSH1 0x1 PUSH1 0x80 SHL SUB AND SWAP1 MSTORE JUMP JUMPDEST DUP5 ADD MLOAD SWAP1 POP PUSH2 0x120 PUSH2 0x4ABF DUP5 DUP3 ADD DUP4 PUSH1 0x1 PUSH1 0x1 PUSH1 0x80 SHL SUB AND SWAP1 MSTORE JUMP JUMPDEST DUP5 ADD MLOAD PUSH2 0x140 DUP5 DUP2 ADD MSTORE SWAP1 POP PUSH2 0x3B09 PUSH2 0x160 DUP5 ADD DUP3 PUSH2 0x49BB JUMP JUMPDEST PUSH1 0x0 DUP1 PUSH1 0x0 DUP1 PUSH1 0x60 DUP6 DUP8 SUB SLT ISZERO PUSH2 0x4AEF JUMPI PUSH1 0x0 DUP1 REVERT JUMPDEST DUP5 CALLDATALOAD SWAP4 POP PUSH1 0x20 DUP6 ADD CALLDATALOAD SWAP3 POP PUSH1 0x40 DUP6 ADD CALLDATALOAD PUSH1 0x1 PUSH1 0x1 PUSH1 0x40 SHL SUB DUP1 DUP3 GT ISZERO PUSH2 0x4B14 JUMPI PUSH1 0x0 DUP1 REVERT JUMPDEST DUP2 DUP8 ADD SWAP2 POP DUP8 PUSH1 0x1F DUP4 ADD SLT PUSH2 0x4B28 JUMPI PUSH1 0x0 DUP1 REVERT JUMPDEST DUP2 CALLDATALOAD DUP2 DUP2 GT ISZERO PUSH2 0x4B37 JUMPI PUSH1 0x0 DUP1 REVERT JUMPDEST DUP9 PUSH1 0x20 DUP3 DUP6 ADD ADD GT ISZERO PUSH2 0x4B49 JUMPI PUSH1 0x0 DUP1 REVERT JUMPDEST SWAP6 SWAP9 SWAP5 SWAP8 POP POP PUSH1 0x20 ADD SWAP5 POP POP POP JUMP JUMPDEST PUSH1 0x0 DUP2 MLOAD DUP1 DUP5 MSTORE PUSH1 0x20 DUP1 DUP6 ADD SWAP5 POP DUP1 DUP5 ADD PUSH1 0x0 JUMPDEST DUP4 DUP2 LT ISZERO PUSH2 0x4B91 JUMPI DUP2 MLOAD PUSH1 0x1 PUSH1 0x1 PUSH1 0xA0 SHL SUB AND DUP8 MSTORE SWAP6 DUP3 ADD SWAP6 SWAP1 DUP3 ADD SWAP1 PUSH1 0x1 ADD PUSH2 0x4B6C JUMP JUMPDEST POP SWAP5 SWAP6 SWAP5 POP POP POP POP POP JUMP JUMPDEST PUSH1 0x20 DUP2 MSTORE PUSH1 0x0 PUSH2 0x2941 PUSH1 0x20 DUP4 ADD DUP5 PUSH2 0x4B58 JUMP JUMPDEST PUSH1 0x0 DUP1 PUSH1 0x40 DUP4 DUP6 SUB SLT ISZERO PUSH2 0x4BC2 JUMPI PUSH1 0x0 DUP1 REVERT JUMPDEST POP POP DUP1 CALLDATALOAD SWAP3 PUSH1 0x20 SWAP1 SWAP2 ADD CALLDATALOAD SWAP2 POP JUMP JUMPDEST PUSH1 0x40 DUP2 MSTORE PUSH1 0x0 PUSH2 0x4BE4 PUSH1 0x40 DUP4 ADD DUP6 PUSH2 0x4B58 JUMP JUMPDEST SWAP1 POP DUP3 PUSH1 0x20 DUP4 ADD MSTORE SWAP4 SWAP3 POP POP POP JUMP JUMPDEST PUSH1 0x0 DUP1 DUP4 PUSH1 0x1F DUP5 ADD SLT PUSH2 0x4C05 JUMPI PUSH1 0x0 DUP1 REVERT JUMPDEST POP DUP2 CALLDATALOAD PUSH1 0x1 PUSH1 0x1 PUSH1 0x40 SHL SUB DUP2 GT ISZERO PUSH2 0x4C1C JUMPI PUSH1 0x0 DUP1 REVERT JUMPDEST PUSH1 0x20 DUP4 ADD SWAP2 POP DUP4 PUSH1 0x20 DUP3 PUSH1 0x5 SHL DUP6 ADD ADD GT ISZERO PUSH2 0x3363 JUMPI PUSH1 0x0 DUP1 REVERT JUMPDEST PUSH1 0x0 DUP1 PUSH1 0x0 DUP1 PUSH1 0x0 PUSH1 0x60 DUP7 DUP9 SUB SLT ISZERO PUSH2 0x4C4F JUMPI PUSH1 0x0 DUP1 REVERT JUMPDEST DUP6 CALLDATALOAD PUSH2 0x4C5A DUP2 PUSH2 0x464D JUMP JUMPDEST SWAP5 POP PUSH1 0x20 DUP7 ADD CALLDATALOAD PUSH1 0x1 PUSH1 0x1 PUSH1 0x40 SHL SUB DUP1 DUP3 GT ISZERO PUSH2 0x4C76 JUMPI PUSH1 0x0 DUP1 REVERT JUMPDEST PUSH2 0x4C82 DUP10 DUP4 DUP11 ADD PUSH2 0x4BF3 JUMP JUMPDEST SWAP1 SWAP7 POP SWAP5 POP PUSH1 0x40 DUP9 ADD CALLDATALOAD SWAP2 POP DUP1 DUP3 GT ISZERO PUSH2 0x4C9B JUMPI PUSH1 0x0 DUP1 REVERT JUMPDEST POP PUSH2 0x4CA8 DUP9 DUP3 DUP10 ADD PUSH2 0x4BF3 JUMP JUMPDEST SWAP7 SWAP10 SWAP6 SWAP9 POP SWAP4 SWAP7 POP SWAP3 SWAP5 SWAP4 SWAP3 POP POP POP JUMP JUMPDEST PUSH1 0x0 DUP1 PUSH1 0x0 DUP1 PUSH1 0x80 DUP6 DUP8 SUB SLT ISZERO PUSH2 0x4CCF JUMPI PUSH1 0x0 DUP1 REVERT JUMPDEST DUP5 CALLDATALOAD PUSH2 0x4CDA DUP2 PUSH2 0x464D JUMP JUMPDEST SWAP4 POP PUSH1 0x20 DUP6 ADD CALLDATALOAD SWAP3 POP PUSH1 0x40 DUP6 ADD CALLDATALOAD PUSH2 0x4CF1 DUP2 PUSH2 0x464D JUMP JUMPDEST SWAP4 SWAP7 SWAP3 SWAP6 POP SWAP3 SWAP4 PUSH1 0x60 ADD CALLDATALOAD SWAP3 POP POP JUMP JUMPDEST PUSH1 0x1 DUP2 DUP2 SHR SWAP1 DUP3 AND DUP1 PUSH2 0x4D15 JUMPI PUSH1 0x7F DUP3 AND SWAP2 POP JUMPDEST PUSH1 0x20 DUP3 LT DUP2 EQ ISZERO PUSH2 0x4D36 JUMPI PUSH4 0x4E487B71 PUSH1 0xE0 SHL PUSH1 0x0 MSTORE PUSH1 0x22 PUSH1 0x4 MSTORE PUSH1 0x24 PUSH1 0x0 REVERT JUMPDEST POP SWAP2 SWAP1 POP JUMP JUMPDEST PUSH1 0x20 DUP2 MSTORE PUSH1 0x0 PUSH2 0x2941 PUSH1 0x20 DUP4 ADD DUP5 PUSH2 0x49BB JUMP JUMPDEST PUSH1 0x0 PUSH1 0x20 DUP3 DUP5 SUB SLT ISZERO PUSH2 0x4D61 JUMPI PUSH1 0x0 DUP1 REVERT JUMPDEST DUP2 MLOAD PUSH2 0x2941 DUP2 PUSH2 0x464D JUMP JUMPDEST PUSH1 0x1 PUSH1 0x1 PUSH1 0xA0 SHL SUB SWAP3 SWAP1 SWAP3 AND DUP3 MSTORE PUSH1 0x1 PUSH1 0x1 PUSH1 0x80 SHL SUB AND PUSH1 0x20 DUP3 ADD MSTORE PUSH1 0x40 ADD SWAP1 JUMP JUMPDEST PUSH1 0x0 PUSH1 0x20 DUP3 DUP5 SUB SLT ISZERO PUSH2 0x4DA0 JUMPI PUSH1 0x0 DUP1 REVERT JUMPDEST DUP2 MLOAD PUSH2 0x2941 DUP2 PUSH2 0x457B JUMP JUMPDEST PUSH4 0x4E487B71 PUSH1 0xE0 SHL PUSH1 0x0 MSTORE PUSH1 0x11 PUSH1 0x4 MSTORE PUSH1 0x24 PUSH1 0x0 REVERT JUMPDEST PUSH1 0x0 DUP2 PUSH1 0x0 NOT DIV DUP4 GT DUP3 ISZERO ISZERO AND ISZERO PUSH2 0x4DDB JUMPI PUSH2 0x4DDB PUSH2 0x4DAB JUMP JUMPDEST POP MUL SWAP1 JUMP JUMPDEST PUSH1 0x1 PUSH1 0x1 PUSH1 0xA0 SHL SUB DUP10 DUP2 AND DUP3 MSTORE DUP9 DUP2 AND PUSH1 0x20 DUP4 ADD MSTORE PUSH1 0x40 DUP3 ADD DUP9 SWAP1 MSTORE DUP7 AND PUSH1 0x60 DUP3 ADD MSTORE PUSH1 0x1 PUSH1 0x1 PUSH1 0x80 SHL SUB DUP6 DUP2 AND PUSH1 0x80 DUP4 ADD MSTORE DUP5 AND PUSH1 0xA0 DUP3 ADD MSTORE PUSH1 0x1 PUSH1 0x1 PUSH1 0x40 SHL SUB DUP4 AND PUSH1 0xC0 DUP3 ADD MSTORE PUSH2 0x100 PUSH1 0xE0 DUP3 ADD DUP2 SWAP1 MSTORE PUSH1 0x0 SWAP1 PUSH2 0x4E42 DUP4 DUP3 ADD DUP6 PUSH2 0x49BB JUMP JUMPDEST SWAP12 SWAP11 POP POP POP POP POP POP POP POP POP POP POP JUMP JUMPDEST DUP1 SLOAD PUSH1 0x0 SWAP1 PUSH1 0x1 DUP2 DUP2 SHR SWAP1 DUP1 DUP4 AND DUP1 PUSH2 0x4E6B JUMPI PUSH1 0x7F DUP4 AND SWAP3 POP JUMPDEST PUSH1 0x20 DUP1 DUP5 LT DUP3 EQ ISZERO PUSH2 0x4E8D JUMPI PUSH4 0x4E487B71 PUSH1 0xE0 SHL PUSH1 0x0 MSTORE PUSH1 0x22 PUSH1 0x4 MSTORE PUSH1 0x24 PUSH1 0x0 REVERT JUMPDEST DUP4 DUP9 MSTORE PUSH1 0x20 DUP9 ADD DUP3 DUP1 ISZERO PUSH2 0x4EA8 JUMPI PUSH1 0x1 DUP2 EQ PUSH2 0x4EB9 JUMPI PUSH2 0x4EE4 JUMP JUMPDEST PUSH1 0xFF NOT DUP8 AND DUP3 MSTORE DUP3 DUP3 ADD SWAP8 POP PUSH2 0x4EE4 JUMP JUMPDEST PUSH1 0x0 DUP10 DUP2 MSTORE PUSH1 0x20 SWAP1 KECCAK256 PUSH1 0x0 JUMPDEST DUP8 DUP2 LT ISZERO PUSH2 0x4EDE JUMPI DUP2 SLOAD DUP5 DUP3 ADD MSTORE SWAP1 DUP7 ADD SWAP1 DUP5 ADD PUSH2 0x4EC5 JUMP JUMPDEST DUP4 ADD SWAP9 POP POP JUMPDEST POP POP POP POP POP POP POP SWAP3 SWAP2 POP POP JUMP JUMPDEST DUP3 DUP2 MSTORE PUSH1 0x40 PUSH1 0x20 DUP3 ADD MSTORE PUSH1 0x0 PUSH2 0x3B09 PUSH1 0x40 DUP4 ADD DUP5 PUSH2 0x4E51 JUMP JUMPDEST PUSH1 0x0 PUSH1 0x20 DUP3 DUP5 SUB SLT ISZERO PUSH2 0x4F1C JUMPI PUSH1 0x0 DUP1 REVERT JUMPDEST POP MLOAD SWAP2 SWAP1 POP JUMP JUMPDEST PUSH1 0x0 DUP3 NOT DUP3 GT ISZERO PUSH2 0x4F36 JUMPI PUSH2 0x4F36 PUSH2 0x4DAB JUMP JUMPDEST POP ADD SWAP1 JUMP JUMPDEST PUSH1 0x0 DUP3 PUSH2 0x4F58 JUMPI PUSH4 0x4E487B71 PUSH1 0xE0 SHL PUSH1 0x0 MSTORE PUSH1 0x12 PUSH1 0x4 MSTORE PUSH1 0x24 PUSH1 0x0 REVERT JUMPDEST POP DIV SWAP1 JUMP JUMPDEST PUSH1 0x0 DUP3 DUP3 LT ISZERO PUSH2 0x4F6F JUMPI PUSH2 0x4F6F PUSH2 0x4DAB JUMP JUMPDEST POP SUB SWAP1 JUMP JUMPDEST DUP5 DUP2 MSTORE PUSH1 0x1 DUP1 PUSH1 0xA0 SHL SUB DUP5 AND PUSH1 0x20 DUP3 ADD MSTORE DUP3 PUSH1 0x40 DUP3 ADD MSTORE PUSH1 0x80 PUSH1 0x60 DUP3 ADD MSTORE PUSH1 0x0 PUSH2 0x2B2F PUSH1 0x80 DUP4 ADD DUP5 PUSH2 0x4E51 JUMP JUMPDEST PUSH1 0x0 PUSH1 0x1 PUSH1 0x1 PUSH1 0x80 SHL SUB DUP4 DUP2 AND SWAP1 DUP4 AND DUP2 DUP2 LT ISZERO PUSH2 0x4FC1 JUMPI PUSH2 0x4FC1 PUSH2 0x4DAB JUMP JUMPDEST SUB SWAP4 SWAP3 POP POP POP JUMP JUMPDEST PUSH4 0x4E487B71 PUSH1 0xE0 SHL PUSH1 0x0 MSTORE PUSH1 0x32 PUSH1 0x4 MSTORE PUSH1 0x24 PUSH1 0x0 REVERT JUMPDEST DUP4 DUP2 MSTORE PUSH1 0x40 PUSH1 0x20 DUP3 ADD MSTORE DUP2 PUSH1 0x40 DUP3 ADD MSTORE DUP2 DUP4 PUSH1 0x60 DUP4 ADD CALLDATACOPY PUSH1 0x0 DUP2 DUP4 ADD PUSH1 0x60 SWAP1 DUP2 ADD SWAP2 SWAP1 SWAP2 MSTORE PUSH1 0x1F SWAP1 SWAP3 ADD PUSH1 0x1F NOT AND ADD ADD SWAP3 SWAP2 POP POP JUMP JUMPDEST PUSH4 0x4E487B71 PUSH1 0xE0 SHL PUSH1 0x0 MSTORE PUSH1 0x31 PUSH1 0x4 MSTORE PUSH1 0x24 PUSH1 0x0 REVERT JUMPDEST PUSH1 0x0 DUP3 MLOAD PUSH2 0x503D DUP2 DUP5 PUSH1 0x20 DUP8 ADD PUSH2 0x498F JUMP JUMPDEST SWAP2 SWAP1 SWAP2 ADD SWAP3 SWAP2 POP POP JUMP INVALID PUSH21 0x6F6B656E206E6F7420757361626C6520666F722074 PUSH9 0x652073706563696669 PUSH4 0x20616374 PUSH10 0x6F6E746F6F206D756368 KECCAK256 GASLIMIT SLOAD BASEFEE KECCAK256 PUSH24 0x696C6C206265207573656420666F72206761736E6F742065 PUSH15 0x6F7567682045544820696E20676173 KECCAK256 PUSH3 0x616E6B KECCAK256 PUSH21 0x6F20636F76657220676173756E617574686F72697A PUSH6 0x642061636365 PUSH20 0x730000000000000000000000000063616E6E6F74 KECCAK256 PUSH6 0x786563757465 KECCAK256 PUSH2 0x6374 PUSH10 0x6F6E20696E2073616D65 KECCAK256 PUSH3 0x6C6F63 PUSH12 0xA26469706673582212204E3E 0xF SWAP6 GASLIMIT PUSH1 0xE5 0xC 0xF8 JUMP 0x5C DUP11 0xD0 LT ADD DUP9 AND SWAP15 TIMESTAMP 0x25 0x21 0xEC 0x2C PUSH14 0xDCBDF9D621C0C84C64736F6C6343 STOP ADDMOD EXP STOP CALLER ","sha1":"91b9d50bfe2eb0dd2a0c5cfeac8b02fd0a5a3846","source":"// SPDX-License-Identifier: GPL-3.0-or-later\npragma solidity 0.8.10;\n\nimport \"@openzeppelin/contracts/token/ERC20/utils/SafeERC20.sol\";\nimport \"@openzeppelin/contracts-upgradeable/proxy/utils/Initializable.sol\";\nimport \"@openzeppelin/contracts/token/ERC20/IERC20.sol\";\nimport \"@openzeppelin/contracts/utils/structs/EnumerableSet.sol\";\nimport \"@openzeppelin/contracts/utils/math/SafeCast.sol\";\n\nimport \"../BaseAction.sol\";\n\nimport \"../../../interfaces/IGasBank.sol\";\nimport \"../../../interfaces/pool/ILiquidityPool.sol\";\nimport \"../../../interfaces/IController.sol\";\nimport \"../../../interfaces/IStakerVault.sol\";\nimport \"../../../interfaces/actions/topup/ITopUpHandler.sol\";\nimport \"../../../interfaces/actions/topup/ITopUpAction.sol\";\nimport \"../../../interfaces/actions/IActionFeeHandler.sol\";\n\nimport \"../../../libraries/AddressProviderHelpers.sol\";\nimport \"../../../libraries/Errors.sol\";\nimport \"../../../libraries/ScaledMath.sol\";\nimport \"../../../libraries/EnumerableExtensions.sol\";\nimport \"../../../libraries/UncheckedMath.sol\";\n\n/**\n * @notice The logic here should really be part of the top-up action\n * but is split in a library to circumvent the byte-code size limit\n */\nlibrary TopUpActionLibrary {\n    using SafeERC20 for IERC20;\n    using ScaledMath for uint256;\n    using AddressProviderHelpers for IAddressProvider;\n\n    /**\n     * @dev \"Locks\" an amount of tokens on behalf of the TopUpAction\n     * Funds are taken from staker vault if allowance is sufficient, else direct transfer or a combination of both.\n     * @param stakerVaultAddress The address of the staker vault\n     * @param payer Owner of the funds to be locked\n     * @param token Token to lock\n     * @param lockAmount Minimum amount of `token` to lock\n     * @param depositAmount Amount of `token` that was deposited.\n     *                      If this is 0 then the staker vault allowance should be used.\n     *                      If this is greater than `requiredAmount` more tokens will be locked.\n     */\n    function lockFunds(\n        address stakerVaultAddress,\n        address payer,\n        address token,\n        uint256 lockAmount,\n        uint256 depositAmount\n    ) external {\n        IStakerVault stakerVault = IStakerVault(stakerVaultAddress);\n\n        // stake deposit amount\n        if (depositAmount > 0) {\n            depositAmount = depositAmount > lockAmount ? lockAmount : depositAmount;\n            IERC20(token).safeTransferFrom(payer, address(this), depositAmount);\n            _approve(token, stakerVaultAddress);\n            stakerVault.stake(depositAmount);\n            stakerVault.increaseActionLockedBalance(payer, depositAmount);\n            lockAmount -= depositAmount;\n        }\n\n        // use stake vault allowance if available and required\n        if (lockAmount > 0) {\n            uint256 balance = stakerVault.balanceOf(payer);\n            uint256 allowance = stakerVault.allowance(payer, address(this));\n            uint256 availableFunds = balance < allowance ? balance : allowance;\n            if (availableFunds >= lockAmount) {\n                stakerVault.transferFrom(payer, address(this), lockAmount);\n                stakerVault.increaseActionLockedBalance(payer, lockAmount);\n                lockAmount = 0;\n            }\n        }\n\n        require(lockAmount == 0, Error.INSUFFICIENT_UPDATE_BALANCE);\n    }\n\n    /**\n     * @dev Computes and returns the amount of LP tokens of type `token` that will be received in exchange for an `amount` of the underlying.\n     */\n    function calcExchangeAmount(\n        IAddressProvider addressProvider,\n        address token,\n        address actionToken,\n        uint256 amount\n    ) external view returns (uint256) {\n        ILiquidityPool pool = addressProvider.getPoolForToken(token);\n        uint256 rate = pool.exchangeRate();\n        address underlying = pool.getUnderlying();\n        require(underlying == actionToken, Error.TOKEN_NOT_USABLE);\n        return amount.scaledDivRoundUp(rate);\n    }\n\n    /**\n     * @dev Approves infinite spending for the given spender.\n     * @param token The token to approve for.\n     * @param spender The spender to approve.\n     */\n    function _approve(address token, address spender) private {\n        if (IERC20(token).allowance(address(this), spender) > 0) return;\n        IERC20(token).safeApprove(spender, type(uint256).max);\n    }\n}\n\ncontract TopUpAction is ITopUpAction, Initializable, BaseAction {\n    using ScaledMath for uint256;\n    using UncheckedMath for uint256;\n    using ScaledMath for uint128;\n    using SafeERC20 for IERC20;\n    using EnumerableSet for EnumerableSet.AddressSet;\n    using EnumerableSet for EnumerableSet.Bytes32Set;\n    using EnumerableExtensions for EnumerableSet.AddressSet;\n    using AddressProviderHelpers for IAddressProvider;\n    using SafeCast for uint256;\n\n    /**\n     * @dev Temporary struct to hold local variables in execute\n     * and avoid the stack being \"too deep\"\n     */\n    struct ExecuteLocalVars {\n        uint256 minActionAmountToTopUp;\n        uint256 actionTokenAmount;\n        uint256 depositTotalFeesAmount;\n        uint256 actionAmountWithFees;\n        uint256 userFactor;\n        uint256 rate;\n        uint256 depositAmountWithFees;\n        uint256 depositAmountWithoutFees;\n        uint256 actionFee;\n        uint256 totalActionTokenAmount;\n        uint128 totalTopUpAmount;\n        bool topupResult;\n        uint256 gasBankBalance;\n        uint256 initialGas;\n        uint256 gasConsumed;\n        uint256 userGasPrice;\n        uint256 estimatedRequiredGas;\n        uint256 estimatedRequiredWeiForGas;\n        uint256 requiredWeiForGas;\n        uint256 reimbursedWeiForGas;\n        address underlying;\n        bool removePosition;\n        address topUpHandler;\n    }\n\n    mapping(bytes32 => address) public topUpHandlers;\n    uint256 internal constant _MAX_ACTION_FEE = 0.5e18;\n    uint256 internal constant _MIN_MAX_FEE = 2e9;\n\n    IController public immutable controller;\n    IAddressProvider public immutable addressProvider;\n\n    EnumerableSet.Bytes32Set internal _supportedProtocols;\n\n    /// @notice mapping of (payer -> account -> protocol -> Record)\n    mapping(address => mapping(bytes32 => mapping(bytes32 => Record))) private _positions;\n\n    mapping(address => RecordMeta[]) internal _userPositions;\n\n    EnumerableSet.AddressSet internal _usersWithPositions;\n\n    uint256 public actionFee;\n    address public feeHandler;\n    uint256 public estimatedGasUsage = 550_000;\n\n    event TopUpHandlerUpdated(bytes32 protocol, address newHandler);\n    event ActionFeeUpdated(uint256 actionFee);\n    event FeeHandlerUpdated(address feeHandler);\n    event EstimatedGasUsageUpdated(uint256 estimatedGasUsage);\n\n    constructor(IController _controller)\n        Authorization(_controller.addressProvider().getRoleManager())\n    {\n        controller = _controller;\n        addressProvider = controller.addressProvider();\n    }\n\n    receive() external payable {\n        // solhint-disable-previous-line no-empty-blocks\n    }\n\n    function initialize(\n        address feeHandler_,\n        bytes32[] calldata protocols_,\n        address[] calldata handlers_\n    ) external initializer onlyGovernance {\n        require(protocols_.length == handlers_.length, Error.INVALID_ARGUMENT);\n        feeHandler = feeHandler_;\n        for (uint256 i; i < protocols_.length; i = i.uncheckedInc()) {\n            _updateTopUpHandler(protocols_[i], address(0), handlers_[i]);\n        }\n    }\n\n    /**\n     * @notice Register a top up action.\n     * @dev The `depositAmount`, once converted to units of `actionToken`, must be greater or equal to the `totalTopUpAmount` (which is denominated in `actionToken`).\n     * @param account Account to be topped up (first 20 bytes will typically be the address).\n     * @param protocol Protocol which holds position to be topped up.\n     * @param depositAmount Amount of `depositToken` that will be locked.\n     * @param record containing the data for the position to register\n     */\n    function register(\n        bytes32 account,\n        bytes32 protocol,\n        uint128 depositAmount,\n        Record memory record\n    ) external payable override notShutdown notPaused {\n        require(record.maxFee >= _MIN_MAX_FEE, Error.INVALID_MAX_FEE);\n        require(_supportedProtocols.contains(protocol), Error.PROTOCOL_NOT_FOUND);\n        require(record.singleTopUpAmount > 0, Error.INVALID_AMOUNT);\n        require(record.threshold > ScaledMath.ONE, Error.INVALID_AMOUNT);\n        require(record.singleTopUpAmount <= record.totalTopUpAmount, Error.INVALID_AMOUNT);\n        require(\n            _positions[msg.sender][account][protocol].threshold == 0,\n            Error.POSITION_ALREADY_EXISTS\n        );\n        require(_isSwappable(record.depositToken, record.actionToken), Error.SWAP_PATH_NOT_FOUND);\n        require(isUsable(record.depositToken), Error.TOKEN_NOT_USABLE);\n\n        uint256 gasDeposit = (record.totalTopUpAmount.divRoundUp(record.singleTopUpAmount)) *\n            record.maxFee *\n            estimatedGasUsage;\n\n        require(msg.value >= gasDeposit, Error.VALUE_TOO_LOW_FOR_GAS);\n\n        uint256 totalLockAmount = _calcExchangeAmount(\n            record.depositToken,\n            record.actionToken,\n            record.totalTopUpAmount\n        );\n        _lockFunds(msg.sender, record.depositToken, totalLockAmount, depositAmount);\n\n        addressProvider.getGasBank().depositFor{value: msg.value}(msg.sender);\n\n        record.registeredAt = uint64(block.timestamp);\n        record.depositTokenBalance = totalLockAmount.toUint128();\n        _positions[msg.sender][account][protocol] = record;\n        _userPositions[msg.sender].push(RecordMeta(account, protocol));\n        _usersWithPositions.add(msg.sender);\n\n        emit Register(\n            account,\n            protocol,\n            record.threshold,\n            msg.sender,\n            record.depositToken,\n            totalLockAmount,\n            record.actionToken,\n            record.singleTopUpAmount,\n            record.totalTopUpAmount,\n            record.maxFee,\n            record.extra\n        );\n    }\n\n    /**\n     * @notice See overloaded version of `execute` for more details.\n     */\n    function execute(\n        address payer,\n        bytes32 account,\n        address beneficiary,\n        bytes32 protocol\n    ) external override notShutdown notPaused {\n        execute(payer, account, beneficiary, protocol, 0);\n    }\n\n    /**\n     * @notice Delete a position to back on the given protocol for `account`.\n     * @param account Account holding the position.\n     * @param protocol Protocol the position is held on.\n     * @param unstake If the tokens should be unstaked from vault.\n     */\n    function resetPosition(\n        bytes32 account,\n        bytes32 protocol,\n        bool unstake\n    ) external override {\n        address payer = msg.sender;\n        Record memory position = _positions[payer][account][protocol];\n        require(position.threshold != 0, Error.NO_POSITION_EXISTS);\n\n        IAddressProvider addressProvider_ = addressProvider;\n        address vault = addressProvider_.getStakerVault(position.depositToken); // will revert if vault does not exist\n        IStakerVault staker = IStakerVault(vault);\n        staker.decreaseActionLockedBalance(payer, position.depositTokenBalance);\n        if (unstake) {\n            staker.unstake(position.depositTokenBalance);\n            IERC20(position.depositToken).safeTransfer(payer, position.depositTokenBalance);\n        } else {\n            staker.transfer(payer, position.depositTokenBalance);\n        }\n\n        _removePosition(payer, account, protocol);\n        addressProvider_.getGasBank().withdrawUnused(payer);\n    }\n\n    /**\n     * @notice Updates the TopUp Handler.\n     * @param protocol Protocol for which a new handler should be executed.\n     * @param newHandler The new TopUp Handler.\n     */\n    function updateTopUpHandler(bytes32 protocol, address newHandler)\n        external\n        override\n        onlyGovernance\n    {\n        address oldHandler = _getHandler(protocol, false);\n        _updateTopUpHandler(protocol, oldHandler, newHandler);\n        emit TopUpHandlerUpdated(protocol, newHandler);\n    }\n\n    /**\n     * @notice Update action fee.\n     * @param actionFee_ New fee to set.\n     */\n    function updateActionFee(uint256 actionFee_) external override onlyGovernance {\n        require(actionFee_ <= _MAX_ACTION_FEE, Error.INVALID_AMOUNT);\n        actionFee = actionFee_;\n        emit ActionFeeUpdated(actionFee_);\n    }\n\n    /**\n     * @notice Update Fee Handler.\n     * @param feeHandler_ New Fee Handler.\n     */\n    function updateFeeHandler(address feeHandler_) external override onlyGovernance {\n        feeHandler = feeHandler_;\n        emit FeeHandlerUpdated(feeHandler_);\n    }\n\n    /**\n     * @notice Update the estimated gas usage.\n     * @param estimatedGasUsage_ New estimated gas usage.\n     */\n    function updateEstimatedGasUsage(uint256 estimatedGasUsage_) external override onlyGovernance {\n        estimatedGasUsage = estimatedGasUsage_;\n        emit EstimatedGasUsageUpdated(estimatedGasUsage_);\n    }\n\n    /**\n     * @notice Computes the total amount of ETH (as wei) required to pay for all\n     * the top-ups assuming the maximum gas price and the current estimated gas\n     * usage of a top-up\n     */\n    function getEthRequiredForGas(address payer) external view override returns (uint256) {\n        uint256 totalEthRequired;\n        RecordMeta[] memory userRecordsMeta = _userPositions[payer];\n        uint256 gasUsagePerCall = estimatedGasUsage;\n        uint256 length = userRecordsMeta.length;\n        for (uint256 i; i < length; i = i.uncheckedInc()) {\n            RecordMeta memory meta = userRecordsMeta[i];\n            Record memory record = _positions[payer][meta.account][meta.protocol];\n            uint256 totalCalls = record.totalTopUpAmount.divRoundUp(record.singleTopUpAmount);\n            totalEthRequired += totalCalls * gasUsagePerCall * record.maxFee;\n        }\n        return totalEthRequired;\n    }\n\n    /**\n     * @notice Returns a list of positions for the given payer\n     */\n    function getUserPositions(address payer) external view override returns (RecordMeta[] memory) {\n        return _userPositions[payer];\n    }\n\n    /**\n     * @notice Get a list supported protocols.\n     * @return List of supported protocols.\n     */\n    function getSupportedProtocols() external view override returns (bytes32[] memory) {\n        uint256 length = _supportedProtocols.length();\n        bytes32[] memory protocols = new bytes32[](length);\n        for (uint256 i; i < length; i = i.uncheckedInc()) {\n            protocols[i] = _supportedProtocols.at(i);\n        }\n        return protocols;\n    }\n\n    /*\n     * @notice Gets a list of users that have an active position.\n     * @dev Uses cursor pagination.\n     * @param cursor The cursor for pagination (should start at 0 for first call).\n     * @param howMany Maximum number of users to return in this pagination request.\n     * @return users List of users that have an active position.\n     * @return nextCursor The cursor to use for the next pagination request.\n     */\n    function usersWithPositions(uint256 cursor, uint256 howMany)\n        external\n        view\n        override\n        returns (address[] memory users, uint256 nextCursor)\n    {\n        uint256 length = _usersWithPositions.length();\n        if (cursor >= length) return (new address[](0), 0);\n        if (howMany >= length - cursor) {\n            howMany = length - cursor;\n        }\n\n        address[] memory usersWithPositions_ = new address[](howMany);\n        for (uint256 i; i < howMany; i = i.uncheckedInc()) {\n            usersWithPositions_[i] = _usersWithPositions.at(i + cursor);\n        }\n\n        return (usersWithPositions_, cursor + howMany);\n    }\n\n    /**\n     * @notice Retrieves the topup handler for the given `protocol`\n     */\n    function getTopUpHandler(bytes32 protocol) external view override returns (address) {\n        return _getHandler(protocol, false);\n    }\n\n    /**\n     * @notice Successfully tops up a position if it's conditions are met.\n     * @dev pool and vault funds are rebalanced after withdrawal for top up\n     * @param payer Account that pays for the top up.\n     * @param account Account owning the position for top up.\n     * @param beneficiary Address of the keeper's wallet for fee accrual.\n     * @param protocol Protocol of the top up position.\n     * @param maxWeiForGas the maximum extra amount of wei that the keeper is willing to pay for the gas\n     */\n    function execute(\n        address payer,\n        bytes32 account,\n        address beneficiary,\n        bytes32 protocol,\n        uint256 maxWeiForGas\n    ) public override notShutdown notPaused {\n        require(controller.canKeeperExecuteAction(msg.sender), Error.NOT_ENOUGH_MERO_STAKED);\n\n        ExecuteLocalVars memory vars;\n\n        vars.initialGas = gasleft();\n\n        Record storage position = _positions[payer][account][protocol];\n        require(position.threshold != 0, Error.NO_POSITION_EXISTS);\n        require(position.totalTopUpAmount > 0, Error.INSUFFICIENT_BALANCE);\n        require(block.timestamp > position.registeredAt, Error.CANNOT_EXECUTE_IN_SAME_BLOCK);\n\n        vars.topUpHandler = _getHandler(protocol, true);\n        vars.userFactor = ITopUpHandler(vars.topUpHandler).getUserFactor(account, position.extra);\n\n        // ensure that the position is actually below its set user factor threshold\n        require(vars.userFactor < position.threshold, Error.INSUFFICIENT_THRESHOLD);\n\n        IAddressProvider addressProvider_ = addressProvider;\n        IGasBank gasBank = addressProvider_.getGasBank();\n\n        // fail early if the user does not have enough funds in the gas bank\n        // to cover the cost of the transaction\n        vars.estimatedRequiredGas = estimatedGasUsage;\n        vars.estimatedRequiredWeiForGas = vars.estimatedRequiredGas * tx.gasprice;\n\n        // compute the gas price that the user will be paying\n        vars.userGasPrice = block.basefee + position.priorityFee;\n        if (vars.userGasPrice > tx.gasprice) vars.userGasPrice = tx.gasprice;\n        if (vars.userGasPrice > position.maxFee) vars.userGasPrice = position.maxFee;\n\n        // ensure the current position allows for the gas to be paid\n        require(\n            vars.estimatedRequiredWeiForGas <=\n                vars.estimatedRequiredGas * vars.userGasPrice + maxWeiForGas,\n            Error.ESTIMATED_GAS_TOO_HIGH\n        );\n\n        vars.gasBankBalance = gasBank.balanceOf(payer);\n        // ensure the user has enough funds in the gas bank to cover the gas\n        require(\n            vars.gasBankBalance + maxWeiForGas >= vars.estimatedRequiredWeiForGas,\n            Error.GAS_BANK_BALANCE_TOO_LOW\n        );\n\n        vars.totalTopUpAmount = position.totalTopUpAmount;\n        vars.actionFee = actionFee;\n        // add top-up fees to top-up amount\n        vars.minActionAmountToTopUp = position.singleTopUpAmount;\n        vars.actionAmountWithFees = vars.minActionAmountToTopUp.scaledMul(\n            ScaledMath.ONE + vars.actionFee\n        );\n\n        // if the amount that we want to top-up (including fees) is higher than\n        // the available topup amount, we lower this down to what is left of the position\n        if (vars.actionAmountWithFees > vars.totalTopUpAmount) {\n            vars.actionAmountWithFees = vars.totalTopUpAmount;\n            vars.minActionAmountToTopUp = vars.actionAmountWithFees.scaledDiv(\n                ScaledMath.ONE + vars.actionFee\n            );\n        }\n        ILiquidityPool pool = addressProvider_.getPoolForToken(position.depositToken);\n        vars.underlying = pool.getUnderlying();\n        vars.rate = pool.exchangeRate();\n\n        // compute the deposit tokens amount with and without fees\n        // we will need to unstake the amount with fees and to\n        // swap the amount without fees into action tokens\n        vars.depositAmountWithFees = vars.actionAmountWithFees.scaledDivRoundUp(vars.rate);\n        if (position.depositTokenBalance < vars.depositAmountWithFees) {\n            vars.depositAmountWithFees = position.depositTokenBalance;\n            vars.minActionAmountToTopUp =\n                (vars.depositAmountWithFees * vars.rate) /\n                (ScaledMath.ONE + vars.actionFee);\n        }\n\n        // compute amount of LP tokens needed to pay for action\n        // rate is expressed in actionToken per depositToken\n        vars.depositAmountWithoutFees = vars.minActionAmountToTopUp.scaledDivRoundUp(vars.rate);\n        vars.depositTotalFeesAmount = vars.depositAmountWithFees - vars.depositAmountWithoutFees;\n\n        // will revert if vault does not exist\n        address vault = addressProvider_.getStakerVault(position.depositToken);\n\n        // unstake deposit tokens including fees\n        IStakerVault(vault).unstake(vars.depositAmountWithFees);\n        IStakerVault(vault).decreaseActionLockedBalance(payer, vars.depositAmountWithFees);\n\n        // swap the amount without the fees\n        // as the fees are paid in deposit token, not in action token\n        vars.actionTokenAmount = pool.redeem(vars.depositAmountWithoutFees);\n\n        // compute how much of action token was actually redeemed and add fees to it\n        // this is to ensure that no funds get locked inside the contract\n        vars.totalActionTokenAmount =\n            vars.actionTokenAmount +\n            vars.depositTotalFeesAmount.scaledMul(vars.rate);\n\n        // at this point, we have exactly `vars.actionTokenAmount`\n        // (at least `position.singleTopUpAmount`) of action token\n        // and exactly `vars.depositTotalFeesAmount` deposit tokens in the contract\n        // solhint-disable-next-line avoid-low-level-calls\n        uint256 value_;\n        if (position.actionToken == address(0)) {\n            value_ = vars.actionTokenAmount;\n        } else {\n            _approve(position.actionToken, vars.topUpHandler);\n        }\n        ITopUpHandler(vars.topUpHandler).topUp{value: value_}(\n            account,\n            position.actionToken,\n            vars.actionTokenAmount,\n            position.extra\n        );\n\n        // totalTopUpAmount is updated to reflect the new \"balance\" of the position\n        if (vars.totalTopUpAmount > vars.totalActionTokenAmount) {\n            position.totalTopUpAmount -= vars.totalActionTokenAmount.toUint128();\n        } else {\n            position.totalTopUpAmount = 0;\n        }\n\n        position.depositTokenBalance -= vars.depositAmountWithFees.toUint128();\n\n        vars.removePosition = position.totalTopUpAmount == 0 || position.depositTokenBalance == 0;\n        _payFees(payer, beneficiary, vars.depositTotalFeesAmount, position.depositToken);\n        if (vars.removePosition) {\n            if (position.depositTokenBalance > 0) {\n                // transfer any unused locked tokens to the payer\n                IStakerVault(vault).transfer(payer, position.depositTokenBalance);\n                IStakerVault(vault).decreaseActionLockedBalance(\n                    payer,\n                    position.depositTokenBalance\n                );\n            }\n            _removePosition(payer, account, protocol);\n        }\n\n        emit TopUp(\n            account,\n            protocol,\n            payer,\n            position.depositToken,\n            vars.depositAmountWithFees,\n            position.actionToken,\n            vars.actionTokenAmount\n        );\n\n        // compute gas used and reimburse the keeper by using the\n        // funds of payer in the gas bank\n        // TODO: add constant gas consumed for transfer and tx prologue\n        vars.gasConsumed = vars.initialGas - gasleft();\n\n        vars.reimbursedWeiForGas = vars.userGasPrice * vars.gasConsumed;\n        if (vars.reimbursedWeiForGas > vars.gasBankBalance) {\n            vars.reimbursedWeiForGas = vars.gasBankBalance;\n        }\n\n        // ensure that the keeper is not overpaying\n        vars.requiredWeiForGas = tx.gasprice * vars.gasConsumed;\n        require(\n            vars.reimbursedWeiForGas + maxWeiForGas >= vars.requiredWeiForGas,\n            Error.GAS_TOO_HIGH\n        );\n        gasBank.withdrawFrom(payer, payable(msg.sender), vars.reimbursedWeiForGas);\n        if (vars.removePosition) {\n            gasBank.withdrawUnused(payer);\n        }\n    }\n\n    /**\n     * @notice Check if action can be executed.\n     * @param protocol for which to get the health factor\n     * @param account for which to get the health factor\n     * @param extra data to be used by the topup handler\n     * @return healthFactor of the position\n     */\n    function getHealthFactor(\n        bytes32 protocol,\n        bytes32 account,\n        bytes calldata extra\n    ) public view override returns (uint256 healthFactor) {\n        ITopUpHandler topUpHandler_ = ITopUpHandler(_getHandler(protocol, true));\n        return topUpHandler_.getUserFactor(account, extra);\n    }\n\n    function getHandler(bytes32 protocol) public view override returns (address) {\n        return _getHandler(protocol, false);\n    }\n\n    /**\n     * @notice Get the record for a position.\n     * @param payer Registered payer of the position.\n     * @param account Address holding the position.\n     * @param protocol Protocol where the position is held.\n     */\n    function getPosition(\n        address payer,\n        bytes32 account,\n        bytes32 protocol\n    ) public view override returns (Record memory) {\n        return _positions[payer][account][protocol];\n    }\n\n    function _updateTopUpHandler(\n        bytes32 protocol,\n        address oldHandler,\n        address newHandler\n    ) internal {\n        topUpHandlers[protocol] = newHandler;\n        if (newHandler == address(0)) {\n            _supportedProtocols.remove(protocol);\n        } else if (oldHandler == address(0)) {\n            _supportedProtocols.add(protocol);\n        }\n    }\n\n    /**\n     * @dev Pays fees to the feeHandler\n     * @param payer The account who's position the fees are charged on\n     * @param beneficiary The beneficiary of the fees paid (usually this will be the keeper)\n     * @param feeAmount The amount in tokens to pay as fees\n     * @param depositToken The LpToken used to pay the fees\n     */\n    function _payFees(\n        address payer,\n        address beneficiary,\n        uint256 feeAmount,\n        address depositToken\n    ) internal {\n        address feeHandler_ = feeHandler;\n        IERC20(depositToken).safeApprove(feeHandler_, feeAmount);\n        IActionFeeHandler(feeHandler_).payFees(payer, beneficiary, feeAmount, depositToken);\n    }\n\n    /**\n     * @dev \"Locks\" an amount of tokens on behalf of the TopUpAction\n     * Funds are taken from staker vault if allowance is sufficient, else direct transfer or a combination of both.\n     * @param payer Owner of the funds to be locked\n     * @param token Token to lock\n     * @param lockAmount Minimum amount of `token` to lock\n     * @param depositAmount Amount of `token` that was deposited.\n     *                      If this is 0 then the staker vault allowance should be used.\n     *                      If this is greater than `requiredAmount` more tokens will be locked.\n     */\n    function _lockFunds(\n        address payer,\n        address token,\n        uint256 lockAmount,\n        uint256 depositAmount\n    ) internal {\n        address stakerVaultAddress = addressProvider.getStakerVault(token);\n        TopUpActionLibrary.lockFunds(stakerVaultAddress, payer, token, lockAmount, depositAmount);\n    }\n\n    function _removePosition(\n        address payer,\n        bytes32 account,\n        bytes32 protocol\n    ) internal {\n        delete _positions[payer][account][protocol];\n        _removeUserPosition(payer, account, protocol);\n        if (_userPositions[payer].length == 0) {\n            _usersWithPositions.remove(payer);\n        }\n        emit Deregister(payer, account, protocol);\n    }\n\n    function _removeUserPosition(\n        address payer,\n        bytes32 account,\n        bytes32 protocol\n    ) internal {\n        RecordMeta[] storage positionsMeta = _userPositions[payer];\n        uint256 length = positionsMeta.length;\n        for (uint256 i; i < length; i = i.uncheckedInc()) {\n            RecordMeta storage positionMeta = positionsMeta[i];\n            if (positionMeta.account == account && positionMeta.protocol == protocol) {\n                positionsMeta[i] = positionsMeta[length - 1];\n                positionsMeta.pop();\n                return;\n            }\n        }\n    }\n\n    /**\n     * @dev Approves infinite spending for the given spender.\n     * @param token The token to approve for.\n     * @param spender The spender to approve.\n     */\n    function _approve(address token, address spender) internal {\n        if (IERC20(token).allowance(address(this), spender) > 0) return;\n        IERC20(token).safeApprove(spender, type(uint256).max);\n    }\n\n    /**\n     * @dev Computes and returns the amount of LP tokens of type `token` that will be received in exchange for an `amount` of the `actionToken`.\n     */\n    function _calcExchangeAmount(\n        address token,\n        address actionToken,\n        uint256 amount\n    ) internal view returns (uint256) {\n        return TopUpActionLibrary.calcExchangeAmount(addressProvider, token, actionToken, amount);\n    }\n\n    function _getHandler(bytes32 protocol, bool ensureExists) internal view returns (address) {\n        address handler = topUpHandlers[protocol];\n        require(!ensureExists || handler != address(0), Error.PROTOCOL_NOT_FOUND);\n        return handler;\n    }\n\n    function _isSwappable(address depositToken, address toToken) internal view returns (bool) {\n        ILiquidityPool pool = addressProvider.getPoolForToken(depositToken);\n        return pool.getUnderlying() == toToken;\n    }\n}\n","sourcePath":"contracts/actions/topup/TopUpAction.sol","type":"contract","deployment":{"address":"0xFE78DCf90A7DdA6c42c61755358d7a26A7622b4F","chainid":"42","blockHeight":33231631}}